{"abi":[{"type":"function","name":"calculateCumulativeRate","inputs":[{"name":"_fees","type":"uint128","internalType":"uint128"},{"name":"_totalCdsDepositedAmount","type":"uint256","internalType":"uint256"},{"name":"_totalCdsDepositedAmountWithOptionFees","type":"uint256","internalType":"uint256"},{"name":"_totalGlobalCdsDepositedAmountWithOptionFees","type":"uint256","internalType":"uint256"},{"name":"_lastCumulativeRate","type":"uint128","internalType":"uint128"},{"name":"_noOfBorrowers","type":"uint128","internalType":"uint128"}],"outputs":[{"name":"","type":"uint256","internalType":"uint256"},{"name":"","type":"uint256","internalType":"uint256"},{"name":"","type":"uint128","internalType":"uint128"}],"stateMutability":"pure"},{"type":"function","name":"calculateValue","inputs":[{"name":"_price","type":"uint128","internalType":"uint128"},{"name":"totalCdsDepositedAmount","type":"uint256","internalType":"uint256"},{"name":"lastEthPrice","type":"uint128","internalType":"uint128"},{"name":"fallbackEthPrice","type":"uint128","internalType":"uint128"},{"name":"vaultBal","type":"uint256","internalType":"uint256"}],"outputs":[{"name":"","type":"tuple","internalType":"struct CDSV1.CalculateValueResult","components":[{"name":"currentValue","type":"uint128","internalType":"uint128"},{"name":"gains","type":"bool","internalType":"bool"}]}],"stateMutability":"pure"},{"type":"function","name":"getOptionsFeesProportions","inputs":[{"name":"optionsFees","type":"uint256","internalType":"uint256"},{"name":"_totalCdsDepositedAmount","type":"uint256","internalType":"uint256"},{"name":"_totalGlobalCdsDepositedAmount","type":"uint256","internalType":"uint256"},{"name":"_totalCdsDepositedAmountWithOptionFees","type":"uint256","internalType":"uint256"},{"name":"_totalGlobalCdsDepositedAmountWithOptionFees","type":"uint256","internalType":"uint256"}],"outputs":[{"name":"","type":"uint256","internalType":"uint256"}],"stateMutability":"pure"},{"type":"function","name":"setCumulativeValue","inputs":[{"name":"_value","type":"uint128","internalType":"uint128"},{"name":"_gains","type":"bool","internalType":"bool"},{"name":"_cumulativeValueSign","type":"bool","internalType":"bool"},{"name":"_cumulativeValue","type":"uint128","internalType":"uint128"}],"outputs":[{"name":"","type":"bool","internalType":"bool"},{"name":"","type":"uint128","internalType":"uint128"}],"stateMutability":"pure"}],"bytecode":{"object":"0x6080806040523461001a576106429081610020823930815050f35b600080fdfe60406080815260048036101561001457600080fd5b600091823560e01c80630a1f144d1461041d578063107f412a146102ba57806321424267146101d75763bbfefd731461004c57600080fd5b60c03660031901126101cf57610060610510565b60443593608435936001600160801b039283861692908387036101d35760a435908582168092036101cf57889750851690811561019257602498893561017e575b506100ae826064356105e6565b9486861664e8d4a5100080940288811690810361016c57811561015a578893919004919061010c57501601918483116100fa57505060609550905b835194855260208501521690820152f35b634e487b7160e01b8252601190528690fd5b929493929116840186811161014857861602918583169283036101365750506060965004906100e9565b634e487b7160e01b8252601190528790fd5b634e487b7160e01b8352601184528983fd5b634e487b7160e01b8652601287528b86fd5b634e487b7160e01b8652601187528b86fd5b61018b91985082906105e6565b96386100a1565b865162461bcd60e51b81526020818601526017602482015276466565732073686f756c64206e6f74206265207a65726f60481b6044820152606490fd5b8280fd5b5080fd5b508260803660031901126102b7576101ed610510565b60243580151581036101cf576044359283151584036102b75761020e61052b565b84819360001461027a5750505082600014610244579061022d916105f3565b825191151582526001600160801b03166020820152f35b6001600160801b038281169082161115610267579061026291610577565b61022d565b906102729250610577565b60019061022d565b156102aa57506001600160801b03838116908316111561029f57509061026291610577565b925061026291610577565b90506102629291506105f3565b80fd5b509160a03660031901126102b7576102d0610510565b6001600160801b039260443584811692602435929190848203610419576102f561052b565b9460843595876020610305610541565b82815201528561034057505050505050509060206001915b610325610541565b93169283815201901515815282519182525115156020820152f35b95969495939493828916908282146103f9575011156103e8579061036391610577565b936001945b6103e891808302928304036103d55790866103849216906105a6565b91620f4240928381029381850414901517156103c25764e8d4a5100093808502948504036103c25750506103bb60209285926105b9565b169261031d565b634e487b7160e01b825260119052602490fd5b634e487b7160e01b835260118452602483fd5b6103f191610577565b938194610368565b9350888416101590506103e8579061041091610577565b93600194610368565b8580fd5b508260a03660031901126102b757606435833560443560243561045f61044382846105d9565b9161045983610454886084356105d9565b6105d9565b956105d9565b916402540be40091828102908082048414901517156104fd576020985061048d61049b9392610493926105b9565b856105a6565b0480936105d9565b836104ac5750505050905b51908152f35b9293509091828410156104c257505050906104a6565b9091809311806104f4575b156104ec576104e692916104e0916105d9565b906105e6565b906104a6565b5050906104a6565b508082106104cd565b634e487b7160e01b875260118952602487fd5b600435906001600160801b038216820361052657565b600080fd5b606435906001600160801b038216820361052657565b604051906040820182811067ffffffffffffffff82111761056157604052565b634e487b7160e01b600052604160045260246000fd5b6001600160801b03918216908216039190821161059057565b634e487b7160e01b600052601160045260246000fd5b8181029291811591840414171561059057565b81156105c3570490565b634e487b7160e01b600052601260045260246000fd5b9190820391821161059057565b9190820180921161059057565b6001600160801b0391821690821601919082116105905756fea26469706673582212205d83cfbf62f541b7bffdd185658b20873339ef82409318694cac5b42c3ba6f7064736f6c63430008140033","linkReferences":{}},"methodIdentifiers":{"calculateCumulativeRate(uint128,uint256,uint256,uint256,uint128,uint128)":"bbfefd73","calculateValue(uint128,uint256,uint128,uint128,uint256)":"107f412a","getOptionsFeesProportions(uint256,uint256,uint256,uint256,uint256)":"0a1f144d","setCumulativeValue(uint128,bool,bool,uint128)":"21424267"},"storageLayout":{"storage":[],"types":{}},"id":7}