{"abi":[{"type":"function","name":"UPGRADE_INTERFACE_VERSION","inputs":[],"outputs":[{"name":"","type":"string","internalType":"string"}],"stateMutability":"view"},{"type":"function","name":"allowInitializePath","inputs":[{"name":"origin","type":"tuple","internalType":"struct Origin","components":[{"name":"srcEid","type":"uint32","internalType":"uint32"},{"name":"sender","type":"bytes32","internalType":"bytes32"},{"name":"nonce","type":"uint64","internalType":"uint64"}]}],"outputs":[{"name":"","type":"bool","internalType":"bool"}],"stateMutability":"view"},{"type":"function","name":"calculateCumulativeRate","inputs":[{"name":"fees","type":"uint128","internalType":"uint128"}],"outputs":[],"stateMutability":"payable"},{"type":"function","name":"callLzSendFromExternal","inputs":[{"name":"_dstEid","type":"uint32","internalType":"uint32"},{"name":"functionToDo","type":"uint8","internalType":"enum CDSV1.FunctionToDo"},{"name":"optionsFeesToGetFromOtherChain","type":"uint256","internalType":"uint256"},{"name":"cdsAmountToGetFromOtherChain","type":"uint256","internalType":"uint256"},{"name":"liqAmountToGetFromOtherChain","type":"uint256","internalType":"uint256"},{"name":"liquidationInfo","type":"tuple","internalType":"struct CDSV1.LiquidationInfo","components":[{"name":"liquidationAmount","type":"uint128","internalType":"uint128"},{"name":"profits","type":"uint128","internalType":"uint128"},{"name":"ethAmount","type":"uint128","internalType":"uint128"},{"name":"availableLiquidationAmount","type":"uint256","internalType":"uint256"}]},{"name":"liqIndex","type":"uint128","internalType":"uint128"},{"name":"fee","type":"tuple","internalType":"struct MessagingFee","components":[{"name":"nativeFee","type":"uint256","internalType":"uint256"},{"name":"lzTokenFee","type":"uint256","internalType":"uint256"}]},{"name":"_options","type":"bytes","internalType":"bytes"}],"outputs":[{"name":"receipt","type":"tuple","internalType":"struct MessagingReceipt","components":[{"name":"guid","type":"bytes32","internalType":"bytes32"},{"name":"nonce","type":"uint64","internalType":"uint64"},{"name":"fee","type":"tuple","internalType":"struct MessagingFee","components":[{"name":"nativeFee","type":"uint256","internalType":"uint256"},{"name":"lzTokenFee","type":"uint256","internalType":"uint256"}]}]}],"stateMutability":"payable"},{"type":"function","name":"cdsCount","inputs":[],"outputs":[{"name":"","type":"uint64","internalType":"uint64"}],"stateMutability":"view"},{"type":"function","name":"cdsDetails","inputs":[{"name":"","type":"address","internalType":"address"}],"outputs":[{"name":"index","type":"uint64","internalType":"uint64"},{"name":"hasDeposited","type":"bool","internalType":"bool"}],"stateMutability":"view"},{"type":"function","name":"deposit","inputs":[{"name":"usdtAmount","type":"uint128","internalType":"uint128"},{"name":"usdaAmount","type":"uint128","internalType":"uint128"},{"name":"_liquidate","type":"bool","internalType":"bool"},{"name":"_liquidationAmount","type":"uint128","internalType":"uint128"},{"name":"lockingPeriod","type":"uint128","internalType":"uint128"}],"outputs":[],"stateMutability":"payable"},{"type":"function","name":"endpoint","inputs":[],"outputs":[{"name":"","type":"address","internalType":"contract ILayerZeroEndpointV2"}],"stateMutability":"view"},{"type":"function","name":"getCDSDepositDetails","inputs":[{"name":"depositor","type":"address","internalType":"address"},{"name":"index","type":"uint64","internalType":"uint64"}],"outputs":[{"name":"","type":"tuple","internalType":"struct CDSV1.CdsAccountDetails","components":[{"name":"depositedTime","type":"uint64","internalType":"uint64"},{"name":"depositedAmount","type":"uint256","internalType":"uint256"},{"name":"withdrawedTime","type":"uint64","internalType":"uint64"},{"name":"withdrawedAmount","type":"uint256","internalType":"uint256"},{"name":"withdrawed","type":"bool","internalType":"bool"},{"name":"depositPrice","type":"uint128","internalType":"uint128"},{"name":"depositValue","type":"uint128","internalType":"uint128"},{"name":"depositValueSign","type":"bool","internalType":"bool"},{"name":"optedLiquidation","type":"bool","internalType":"bool"},{"name":"InitialLiquidationAmount","type":"uint128","internalType":"uint128"},{"name":"liquidationAmount","type":"uint128","internalType":"uint128"},{"name":"liquidationindex","type":"uint128","internalType":"uint128"},{"name":"normalizedAmount","type":"uint256","internalType":"uint256"}]},{"name":"","type":"uint64","internalType":"uint64"}],"stateMutability":"view"},{"type":"function","name":"initialize","inputs":[{"name":"_usda","type":"address","internalType":"address"},{"name":"priceFeed","type":"address","internalType":"address"},{"name":"_usdt","type":"address","internalType":"address"},{"name":"_multiSign","type":"address","internalType":"address"},{"name":"_endpoint","type":"address","internalType":"address"},{"name":"_delegate","type":"address","internalType":"address"}],"outputs":[],"stateMutability":"nonpayable"},{"type":"function","name":"isComposeMsgSender","inputs":[{"name":"","type":"tuple","internalType":"struct Origin","components":[{"name":"srcEid","type":"uint32","internalType":"uint32"},{"name":"sender","type":"bytes32","internalType":"bytes32"},{"name":"nonce","type":"uint64","internalType":"uint64"}]},{"name":"","type":"bytes","internalType":"bytes"},{"name":"_sender","type":"address","internalType":"address"}],"outputs":[{"name":"","type":"bool","internalType":"bool"}],"stateMutability":"view"},{"type":"function","name":"lzReceive","inputs":[{"name":"_origin","type":"tuple","internalType":"struct Origin","components":[{"name":"srcEid","type":"uint32","internalType":"uint32"},{"name":"sender","type":"bytes32","internalType":"bytes32"},{"name":"nonce","type":"uint64","internalType":"uint64"}]},{"name":"_guid","type":"bytes32","internalType":"bytes32"},{"name":"_message","type":"bytes","internalType":"bytes"},{"name":"_executor","type":"address","internalType":"address"},{"name":"_extraData","type":"bytes","internalType":"bytes"}],"outputs":[],"stateMutability":"payable"},{"type":"function","name":"nextNonce","inputs":[{"name":"","type":"uint32","internalType":"uint32"},{"name":"","type":"bytes32","internalType":"bytes32"}],"outputs":[{"name":"nonce","type":"uint64","internalType":"uint64"}],"stateMutability":"view"},{"type":"function","name":"oAppVersion","inputs":[],"outputs":[{"name":"senderVersion","type":"uint64","internalType":"uint64"},{"name":"receiverVersion","type":"uint64","internalType":"uint64"}],"stateMutability":"pure"},{"type":"function","name":"omniChainCDSTotalAvailableLiquidationAmount","inputs":[],"outputs":[{"name":"","type":"uint256","internalType":"uint256"}],"stateMutability":"view"},{"type":"function","name":"omniChainCDSTotalCdsDepositedAmount","inputs":[],"outputs":[{"name":"","type":"uint256","internalType":"uint256"}],"stateMutability":"view"},{"type":"function","name":"owner","inputs":[],"outputs":[{"name":"","type":"address","internalType":"address"}],"stateMutability":"view"},{"type":"function","name":"peers","inputs":[{"name":"eid","type":"uint32","internalType":"uint32"}],"outputs":[{"name":"peer","type":"bytes32","internalType":"bytes32"}],"stateMutability":"view"},{"type":"function","name":"proxiableUUID","inputs":[],"outputs":[{"name":"","type":"bytes32","internalType":"bytes32"}],"stateMutability":"view"},{"type":"function","name":"quote","inputs":[{"name":"_dstEid","type":"uint32","internalType":"uint32"},{"name":"_functionToDo","type":"uint8","internalType":"enum CDSV1.FunctionToDo"},{"name":"optionsFeesToGetFromOtherChain","type":"uint256","internalType":"uint256"},{"name":"cdsAmountToGetFromOtherChain","type":"uint256","internalType":"uint256"},{"name":"liqAmountToGetFromOtherChain","type":"uint256","internalType":"uint256"},{"name":"liquidationInfo","type":"tuple","internalType":"struct CDSV1.LiquidationInfo","components":[{"name":"liquidationAmount","type":"uint128","internalType":"uint128"},{"name":"profits","type":"uint128","internalType":"uint128"},{"name":"ethAmount","type":"uint128","internalType":"uint128"},{"name":"availableLiquidationAmount","type":"uint256","internalType":"uint256"}]},{"name":"liqIndex","type":"uint128","internalType":"uint128"},{"name":"_options","type":"bytes","internalType":"bytes"},{"name":"_payInLzToken","type":"bool","internalType":"bool"}],"outputs":[{"name":"fee","type":"tuple","internalType":"struct MessagingFee","components":[{"name":"nativeFee","type":"uint256","internalType":"uint256"},{"name":"lzTokenFee","type":"uint256","internalType":"uint256"}]}],"stateMutability":"view"},{"type":"function","name":"redeemUSDT","inputs":[{"name":"_usdaAmount","type":"uint128","internalType":"uint128"},{"name":"usdaPrice","type":"uint64","internalType":"uint64"},{"name":"usdtPrice","type":"uint64","internalType":"uint64"}],"outputs":[],"stateMutability":"payable"},{"type":"function","name":"renounceOwnership","inputs":[],"outputs":[],"stateMutability":"nonpayable"},{"type":"function","name":"setAdmin","inputs":[{"name":"_admin","type":"address","internalType":"address"}],"outputs":[],"stateMutability":"nonpayable"},{"type":"function","name":"setBorrowLiquidation","inputs":[{"name":"_address","type":"address","internalType":"address"}],"outputs":[],"stateMutability":"nonpayable"},{"type":"function","name":"setBorrowingContract","inputs":[{"name":"_address","type":"address","internalType":"address"}],"outputs":[],"stateMutability":"nonpayable"},{"type":"function","name":"setDelegate","inputs":[{"name":"_delegate","type":"address","internalType":"address"}],"outputs":[],"stateMutability":"nonpayable"},{"type":"function","name":"setDstEid","inputs":[{"name":"_eid","type":"uint32","internalType":"uint32"}],"outputs":[],"stateMutability":"nonpayable"},{"type":"function","name":"setPeer","inputs":[{"name":"_eid","type":"uint32","internalType":"uint32"},{"name":"_peer","type":"bytes32","internalType":"bytes32"}],"outputs":[],"stateMutability":"nonpayable"},{"type":"function","name":"setTreasury","inputs":[{"name":"_treasury","type":"address","internalType":"address"}],"outputs":[],"stateMutability":"nonpayable"},{"type":"function","name":"setUSDaLimit","inputs":[{"name":"percent","type":"uint8","internalType":"uint8"}],"outputs":[],"stateMutability":"nonpayable"},{"type":"function","name":"setUsdtLimit","inputs":[{"name":"amount","type":"uint64","internalType":"uint64"}],"outputs":[],"stateMutability":"nonpayable"},{"type":"function","name":"setWithdrawTimeLimit","inputs":[{"name":"_timeLimit","type":"uint64","internalType":"uint64"}],"outputs":[],"stateMutability":"nonpayable"},{"type":"function","name":"totalAvailableLiquidationAmount","inputs":[],"outputs":[{"name":"","type":"uint256","internalType":"uint256"}],"stateMutability":"view"},{"type":"function","name":"totalCdsDepositedAmount","inputs":[],"outputs":[{"name":"","type":"uint256","internalType":"uint256"}],"stateMutability":"view"},{"type":"function","name":"transferOwnership","inputs":[{"name":"newOwner","type":"address","internalType":"address"}],"outputs":[],"stateMutability":"nonpayable"},{"type":"function","name":"updateLiquidationInfo","inputs":[{"name":"index","type":"uint128","internalType":"uint128"},{"name":"liquidationData","type":"tuple","internalType":"struct CDSV1.LiquidationInfo","components":[{"name":"liquidationAmount","type":"uint128","internalType":"uint128"},{"name":"profits","type":"uint128","internalType":"uint128"},{"name":"ethAmount","type":"uint128","internalType":"uint128"},{"name":"availableLiquidationAmount","type":"uint256","internalType":"uint256"}]}],"outputs":[],"stateMutability":"nonpayable"},{"type":"function","name":"updateTotalAvailableLiquidationAmount","inputs":[{"name":"amount","type":"uint256","internalType":"uint256"}],"outputs":[],"stateMutability":"nonpayable"},{"type":"function","name":"updateTotalCdsDepositedAmount","inputs":[{"name":"_amount","type":"uint128","internalType":"uint128"}],"outputs":[],"stateMutability":"nonpayable"},{"type":"function","name":"updateTotalCdsDepositedAmountWithOptionFees","inputs":[{"name":"_amount","type":"uint128","internalType":"uint128"}],"outputs":[],"stateMutability":"nonpayable"},{"type":"function","name":"upgradeToAndCall","inputs":[{"name":"newImplementation","type":"address","internalType":"address"},{"name":"data","type":"bytes","internalType":"bytes"}],"outputs":[],"stateMutability":"payable"},{"type":"function","name":"usdaLimit","inputs":[],"outputs":[{"name":"","type":"uint8","internalType":"uint8"}],"stateMutability":"view"},{"type":"function","name":"usdtAmountDepositedTillNow","inputs":[],"outputs":[{"name":"","type":"uint256","internalType":"uint256"}],"stateMutability":"view"},{"type":"function","name":"usdtLimit","inputs":[],"outputs":[{"name":"","type":"uint64","internalType":"uint64"}],"stateMutability":"view"},{"type":"function","name":"withdraw","inputs":[{"name":"_index","type":"uint64","internalType":"uint64"}],"outputs":[],"stateMutability":"payable"},{"type":"event","name":"Deposit","inputs":[{"name":"user","type":"address","indexed":false,"internalType":"address"},{"name":"index","type":"uint64","indexed":false,"internalType":"uint64"},{"name":"depositedUSDa","type":"uint128","indexed":false,"internalType":"uint128"},{"name":"depositedUSDT","type":"uint128","indexed":false,"internalType":"uint128"},{"name":"depositedTime","type":"uint256","indexed":false,"internalType":"uint256"},{"name":"ethPriceAtDeposit","type":"uint128","indexed":false,"internalType":"uint128"},{"name":"lockingPeriod","type":"uint128","indexed":false,"internalType":"uint128"},{"name":"liquidationAmount","type":"uint128","indexed":false,"internalType":"uint128"},{"name":"optedForLiquidation","type":"bool","indexed":false,"internalType":"bool"}],"anonymous":false},{"type":"event","name":"Initialized","inputs":[{"name":"version","type":"uint64","indexed":false,"internalType":"uint64"}],"anonymous":false},{"type":"event","name":"OwnershipTransferred","inputs":[{"name":"previousOwner","type":"address","indexed":true,"internalType":"address"},{"name":"newOwner","type":"address","indexed":true,"internalType":"address"}],"anonymous":false},{"type":"event","name":"PeerSet","inputs":[{"name":"eid","type":"uint32","indexed":false,"internalType":"uint32"},{"name":"peer","type":"bytes32","indexed":false,"internalType":"bytes32"}],"anonymous":false},{"type":"event","name":"Upgraded","inputs":[{"name":"implementation","type":"address","indexed":true,"internalType":"address"}],"anonymous":false},{"type":"event","name":"Withdraw","inputs":[{"name":"user","type":"address","indexed":false,"internalType":"address"},{"name":"index","type":"uint64","indexed":false,"internalType":"uint64"},{"name":"withdrawUSDa","type":"uint256","indexed":false,"internalType":"uint256"},{"name":"withdrawTime","type":"uint256","indexed":false,"internalType":"uint256"},{"name":"withdrawETH","type":"uint128","indexed":false,"internalType":"uint128"},{"name":"ethPriceAtWithdraw","type":"uint128","indexed":false,"internalType":"uint128"},{"name":"optionsFees","type":"uint256","indexed":false,"internalType":"uint256"},{"name":"optionsFeesWithdrawn","type":"uint256","indexed":false,"internalType":"uint256"}],"anonymous":false},{"type":"error","name":"AddressEmptyCode","inputs":[{"name":"target","type":"address","internalType":"address"}]},{"type":"error","name":"AddressInsufficientBalance","inputs":[{"name":"account","type":"address","internalType":"address"}]},{"type":"error","name":"ERC1967InvalidImplementation","inputs":[{"name":"implementation","type":"address","internalType":"address"}]},{"type":"error","name":"ERC1967NonPayable","inputs":[]},{"type":"error","name":"EndPointUnavailable","inputs":[]},{"type":"error","name":"FailedInnerCall","inputs":[]},{"type":"error","name":"InvalidDelegate","inputs":[]},{"type":"error","name":"InvalidEndpointCall","inputs":[]},{"type":"error","name":"InvalidInitialization","inputs":[]},{"type":"error","name":"InvalidOptionType","inputs":[{"name":"optionType","type":"uint16","internalType":"uint16"}]},{"type":"error","name":"LzTokenUnavailable","inputs":[]},{"type":"error","name":"NoPeer","inputs":[{"name":"eid","type":"uint32","internalType":"uint32"}]},{"type":"error","name":"NotEnoughNative","inputs":[{"name":"msgValue","type":"uint256","internalType":"uint256"}]},{"type":"error","name":"NotInitializing","inputs":[]},{"type":"error","name":"OnlyEndpoint","inputs":[{"name":"addr","type":"address","internalType":"address"}]},{"type":"error","name":"OnlyPeer","inputs":[{"name":"eid","type":"uint32","internalType":"uint32"},{"name":"sender","type":"bytes32","internalType":"bytes32"}]},{"type":"error","name":"OwnableInvalidOwner","inputs":[{"name":"owner","type":"address","internalType":"address"}]},{"type":"error","name":"OwnableUnauthorizedAccount","inputs":[{"name":"account","type":"address","internalType":"address"}]},{"type":"error","name":"ReentrancyGuardReentrantCall","inputs":[]},{"type":"error","name":"SafeCastOverflowedUintDowncast","inputs":[{"name":"bits","type":"uint8","internalType":"uint8"},{"name":"value","type":"uint256","internalType":"uint256"}]},{"type":"error","name":"SafeERC20FailedOperation","inputs":[{"name":"token","type":"address","internalType":"address"}]},{"type":"error","name":"UUPSUnauthorizedCallContext","inputs":[]},{"type":"error","name":"UUPSUnsupportedProxiableUUID","inputs":[{"name":"slot","type":"bytes32","internalType":"bytes32"}]}],"bytecode":{"object":"0x60a0806040523461002b5730608052615b6b9081620000318239608051818181610c230152610d5b0152f35b600080fdfe6080604052600436101561001257600080fd5b60003560e01c80630d14c92e146102d757806313137d65146102d257806317442b70146102cd5780632bb2ea62146102c85780633400288b146102c357806341eddbbd146102be57806346696df3146102b95780634721bae8146102b45780634baf580d146102af5780634cae95d3146102aa5780634f1ef286146102a557806352d1902d146102a05780635e280f111461029b5780636f71ccb114610296578063704b6c0214610291578063715018a61461028c578063750f0acc1461028757806376a3fb3e1461028257806378fdaf3f1461027d5780637bf5e245146102785780637d25a05e1461027357806382413eac1461026e578063868c10d214610269578063880e8e3b146102645780638da5cb5b1461025f578063a4cdc5971461025a578063a736596c14610255578063ad29303414610250578063ad3cb1cc1461024b578063b3013d4d14610246578063b87c3dc314610241578063bb0b6a531461023c578063ca5eb5e114610237578063cc2a9a5b14610232578063d4f113e61461022d578063dabd360a14610228578063dc55b19314610223578063dc91e7521461021e578063df6f05e714610219578063ef543d5c14610214578063f0f442601461020f578063f2fde38b1461020a578063f57ff39c146102055763ff7bd03d1461020057600080fd5b612d1d565b612cf3565b612cc6565b612bd5565b612b25565b612ac4565b612aa6565b612a3e565b612997565b612979565b612806565b61278a565b61274f565b61255e565b6124c5565b61247f565b6122b2565b61216e565b612122565b6120ec565b61209b565b611f6e565b611f10565b611ee9565b611de5565b611d7b565b611d5d565b610f33565b610ec5565b610e00565b610ddc565b610db3565b610d48565b610be1565b6109ee565b610972565b610890565b6106d1565b61057b565b6104f4565b6104d6565b6104b4565b6103c8565b6102ef565b63ffffffff8116036102ea57565b600080fd5b346102ea5760203660031901126102ea5763ffffffff600435610311816102dc565b61032660018060a01b03600654163314613157565b1680156103405763ffffffff19601f541617601f55600080f35b60405162461bcd60e51b81526020600482015260116024820152704549442063616e2774206265207a65726f60781b6044820152606490fd5b60609060031901126102ea57600490565b9181601f840112156102ea578235916001600160401b0383116102ea57602083818601950101116102ea57565b6001600160a01b038116036102ea57565b60e03660031901126102ea576103dd36610379565b6001600160401b036084358181116102ea576103fd90369060040161038a565b9161040960a4356103b7565b60c4359081116102ea5761042190369060040161038a565b50506015546001600160a01b031633036104915761044661044184615235565b615438565b92602081013580940361045f5761045d8383615355565b005b6104698491615235565b60405163309afaf360e21b815263ffffffff9190911660048201526024810191909152604490fd5b6040516391ac5e4f60e01b8152336004820152602490fd5b60009103126102ea57565b346102ea5760003660031901126102ea57604080516001815260026020820152f35b346102ea5760003660031901126102ea576020600b54604051908152f35b346102ea5760403660031901126102ea577f238399d427b947898edb290f5ff0f9109849b1c3ba196a42e35f00c50a54b98b600435610532816102dc565b6024359061053e615890565b63ffffffff8116600052601660205281604060002055610576604051928392836020909392919363ffffffff60408201951681520152565b0390a1005b346102ea5760203660031901126102ea5760043560ff81168082036102ea576105af60018060a01b03600654163314613157565b15610662576004546105d1906001600160a01b03165b6001600160a01b031690565b604051631f71924f60e31b8152600860048201529190602090839060249082906000905af191821561065d5761045d926106139160009161062f575b50613150565b600e5460ff60801b191660809190911b60ff60801b1617600e55565b610650915060203d8111610656575b6106488183610b18565b810190613138565b3861060d565b503d61063e565b612fe4565b60405162461bcd60e51b815260206004820152601860248201527755534461206c696d69742063616e2774206265207a65726f60401b6044820152606490fd5b6001600160801b038116036102ea57565b35906106be826106a2565b565b6001600160401b038116036102ea57565b60603660031901126102ea576004356106e9816106a2565b6024356106f5816106c0565b60443590610702826106c0565b61070a6158f8565b600480546040516326d2a55160e21b8152600692810192909252909390602090859060249082906000906001600160a01b03165af193841561065d576107629461075d91600091610779575b501561319c565b61461a565b61045d6001600080516020615af683398151915255565b610791915060203d8111610656576106488183610b18565b38610756565b916101a06106be9294936101c08101956107ba8282516001600160401b03169052565b602081015160208301526107de604082015160408401906001600160401b03169052565b606081015160608301526107fb6080820151608084019015159052565b60a0818101516001600160801b03169083015260c0818101516001600160801b03169083015260e08181015115159083015261010081810151151590830152610120818101516001600160801b031690830152610140818101516001600160801b031690830152610160818101516001600160801b031690830152610180809101519082015201906001600160401b03169052565b346102ea5760403660031901126102ea576004356108ad816103b7565b61095f61095961094c6109466024356108c5816106c0565b6040516108d181610a5c565b6101806000918281528260208201528260408201528260608201528260808201528260a08201528260c08201528260e0820152826101008201528261012082015282610140820152826101608201520152600161092d87612081565b01906001600160401b0316600052602052604060002090565b93612081565b546001600160401b031690565b9161512e565b61096e60405192839283610797565b0390f35b346102ea5760203660031901126102ea5760043561098f816106a2565b6001546109b190336001600160a01b03918216149081156109e0575b50614a32565b60018060801b0316600c548181039081116109db57600c55601a549081039081116109db57601a55005b613006565b9050601754163314386109ab565b346102ea5760203660031901126102ea5760015460043590610a2490336001600160a01b03918216149081156109e05750614a32565b600d548181039081116109db57600d55601b549081039081116109db57601b55005b634e487b7160e01b600052604160045260246000fd5b6101a081019081106001600160401b03821117610a7857604052565b610a46565b608081019081106001600160401b03821117610a7857604052565b6001600160401b038111610a7857604052565b604081019081106001600160401b03821117610a7857604052565b60e081019081106001600160401b03821117610a7857604052565b606081019081106001600160401b03821117610a7857604052565b61022081019081106001600160401b03821117610a7857604052565b90601f801991011681019081106001600160401b03821117610a7857604052565b604051906106be82610a7d565b604051906106be82610aab565b6040519060a082018281106001600160401b03821117610a7857604052565b604051906106be82610a5c565b6001600160401b038111610a7857601f01601f191660200190565b81601f820112156102ea57803590610bb182610b7f565b92610bbf6040519485610b18565b828452602083830101116102ea57816000926020809301838601378301015290565b60403660031901126102ea576004803590610bfb826103b7565b6024356001600160401b0381116102ea57610c199036908301610b9a565b6001600160a01b037f00000000000000000000000000000000000000000000000000000000000000008116308114908115610d2c575b50610d1b579060208392610c61615890565b6040516352d1902d60e01b8152938491829088165afa60009281610ceb575b50610cae575050604051634c9c8ce360e01b81526001600160a01b0390921690820190815281906020010390fd5b8383600080516020615ad68339815191528403610ccf5761045d8383615928565b604051632a87526960e21b815290810184815281906020010390fd5b610d0d91935060203d8111610d14575b610d058183610b18565b81019061333c565b9138610c80565b503d610cfb565b60405163703e46dd60e11b81528390fd5b905081600080516020615ad68339815191525416141538610c4f565b346102ea5760003660031901126102ea577f00000000000000000000000000000000000000000000000000000000000000006001600160a01b03163003610da1576020604051600080516020615ad68339815191528152f35b60405163703e46dd60e11b8152600490fd5b346102ea5760003660031901126102ea576015546040516001600160a01b039091168152602090f35b346102ea5760003660031901126102ea57602060ff600e5460801c16604051908152f35b346102ea5760203660031901126102ea57600435610e1d816103b7565b610e25615890565b6001600160a01b038116151580610eb7575b610e40906130bf565b600454610e55906001600160a01b03166105c5565b604051631f71924f60e31b81526004808201529190602090839060249082906000905af191821561065d5761045d92610e959160009161062f5750613150565b600680546001600160a01b0319166001600160a01b0392909216919091179055565b50803b151560011415610e37565b346102ea57600080600319360112610f3057610edf615890565b600080516020615a9683398151915280546001600160a01b0319811690915581906001600160a01b03167f8be0079c531659141344cd1fd0a4f28419497f9722a3daafe3b4186f6b6457e08280a380f35b80fd5b60203660031901126102ea57610f4a6004356106c0565b610f526158f8565b6000602060018060a01b03600454166024604051809481936326d2a55160e21b8352600560048401525af1801561065d57610f9591600091611d4457501561319c565b6001600160401b03610fbc610fac61094c33612081565b826004351692839116101561401e565b610fe2610fdc6004610fd48135600161092d33612081565b015460ff1690565b15614078565b6001600160401b0342169061102d826001600160401b0361102561101061094c600435600161092d33612081565b600a5460401c6001600160401b0316906140b8565b1611156140d3565b61105060046110428135600161092d33612081565b01805460ff19166001179055565b60016001600160401b0361106661094c33612081565b16149081611d39575b50611cfb575b61107d61302b565b906110926001600160801b0383161515613402565b6110f86110de6110d360086110ae600435600161092d33612081565b0154601e546110cd906001600160801b03165b6001600160801b031690565b906132dd565b64e8d4a51000900490565b60016110f06004358261092d33612081565b01549061414c565b9061111682600161110f6004358261092d33612081565b01546133a9565b9161116961112382614bc2565b92846003611138600435600161092d33612081565b0155600261114d600435600161092d33612081565b01906001600160401b03166001600160401b0319825416179055565b6111796111746156f1565b61570b565b936111b58561118d601f5463ffffffff1690565b85611196610b39565b91600083526000602084015260006040840152600060608401526150e3565b946000946111da60056111cf600435600161092d33612081565b015460881c60ff1690565b15611b0d5761120a906112046110c160066111fc600435600161092d33612081565b015460801c90565b9061414c565b93600460206112236105c560015460018060a01b031690565b604051631360632760e21b815292839182905afa90811561065d57600091611ade575b5061126b600761125d600435600161092d33612081565b01546001600160801b031690565b6001600160801b038181169083161015611488575b50505b60025460049060209061129e906001600160a01b03166105c5565b604051639cac625160e01b815292839182905afa90811561065d57600091611469575b506113a0575b9161132b849392600080516020615ab68339815191529861133e96946112f76110c160095460018060801b031690565b6001600160801b03861603611392575b801580611381575b611358575b601f5463ffffffff16611325613635565b90614f6c565b50604051958695429060043533896143c6565b0390a161045d6001600080516020615af683398151915255565b61137c600080808061136b87513461414c565b335af1611376614479565b506144a9565b611314565b506001600160801b038a161561130f565b61139b85613ff9565b611307565b600154909392906113b9906001600160a01b03166105c5565b60405163ada0b0ed60e01b81526000600482018190526001600160801b0384166024830152909391602091859160449183915af190811561065d57600080516020615ab68339815191529861133e9661142c614e206001600160401b0361132b968a9960009161143a575b50161161442d565b9395509850929450506112c7565b61145c915060203d602011611462575b6114548183610b18565b810190614418565b38611424565b503d61144a565b611482915060203d602011610d1457610d058183610b18565b386112c1565b611491906131d1565b6001600160801b0382811690821611156119d45750506114c96114c36110c160066111fc600435600161092d33612081565b866133a9565b6001600160801b03871661192b576114fe6114f960016114ef6004358261092d33612081565b0154600b5461414c565b600b55565b61152561152060016115166004358261092d33612081565b015460195461414c565b601955565b61155f61155a61155260016115406004358261092d33612081565b015461154c868a61414c565b906133a9565b600c5461414c565b600c55565b61158861158361157b87600161110f6004358261092d33612081565b601a5461414c565b601a55565b8115156000818061191a575b156118ca57506002905b83156118b8575b6117e5575b508060036115bf600435600161092d33612081565b01556002546115d6906001600160a01b03166105c5565b803b156102ea57604051635e44fb0560e01b815230600482015260248101839052906000908290604490829084905af1801561065d576117d2575b5060005461165c906020908390611630906001600160a01b03166105c5565b6008546001600160a01b031660006040518096819582946323b872dd60e01b8452339060048501614249565b03925af190811561065d5761167f916001916000916117b3575b5015151461437a565b866001600160801b0381166116c1575b600080516020615ab6833981519152916116b7878088604051958695429060043533896143c6565b0390a13880611280565b506002546116d7906001600160a01b03166105c5565b803b156102ea5760405163cd0220c960e01b81526001600160801b038916600482015260006024820181905290918290604490829084905af1801561065d576117a0575b50600254611731906001600160a01b03166105c5565b90813b156102ea57604051635822b66d60e01b815291600090839081838161175d8e33600484016135a3565b03925af190811561065d57600080516020615ab6833981519152928992611787575b50915061168f565b8061179461179a92610a98565b806104a9565b3861177f565b806117946117ad92610a98565b3861171b565b6117cc915060203d602011610656576106488183610b18565b38611676565b806117946117df92610a98565b38611611565b60025461187b91608091611801906001600160a01b03166105c5565b61180c8c513461414c565b6008546001600160a01b03169290611822610b46565b6001600160a01b03851681529188602084015261184f611840610b46565b6001600160a01b039096168652565b6000196001871b018e16602086015260405163f5dee49360e01b8152968795869485936004850161420d565b03925af1801561065d57156115aa576118aa9060803d81116118b1575b6118a28183610b18565b810190614181565b50386115aa565b503d611898565b506001600160801b03881615156115a5565b831580611908575b156118e0575060039061159e565b9080806118f6575b1561159e576004915061159e565b506001600160801b03891615156118e8565b506001600160801b03891615156118d2565b506001600160801b03891615611594565b6119696114f961196160016119466004358261092d33612081565b01546112046110c160066111fc600435600161092d33612081565b600b5461414c565b61198c61152061198460016119466004358261092d33612081565b60195461414c565b6119b061155a611552846119ab60016119466004358261092d33612081565b6133a9565b6119cf61158361157b876119ab60016119466004358261092d33612081565b611588565b6119ea60066111fc600435600161092d33612081565b6001600160801b038116611a08575b50611a03906142b7565b611491565b8198611ad1611a80611ad793611a7b6040611a60611a4c611a46611a41611a039b60018060801b03166000526014602052604060002090565b6142cf565b9461430e565b60608501516001600160801b031690614349565b92611ac3611a95611a8086611a7b855160018060801b031690565b61432d565b6402540be4006001600160801b039091160490565b611abd6006611aab600435600161092d33612081565b0191611ab8835460801c90565b614361565b90612d82565b01516001600160801b031690565b906131e9565b97906119f9565b611b00915060203d602011611b06575b611af88183610b18565b810190613456565b38611246565b503d611aee565b9380611c42575b611b2c6114f960016114ef6004358261092d33612081565b611b3c61155a611552838861414c565b611b5461152060016115166004358261092d33612081565b611b6361158386601a5461414c565b846003611b77600435600161092d33612081565b0155600254611b8e906001600160a01b03166105c5565b803b156102ea57604051635e44fb0560e01b815230600482015260248101879052906000908290604490829084905af1801561065d57611c2f575b50600054611be8906020908790611630906001600160a01b03166105c5565b03925af190811561065d57611c0b91600191600091611c10575b5015151461426b565b611283565b611c29915060203d602011610656576106488183610b18565b38611c02565b80611794611c3c92610a98565b38611bc9565b600254611cc890608090611c5e906001600160a01b03166105c5565b611c698a513461414c565b6008549091906001600160a01b0316611c92611c83610b46565b6001600160a01b039092168252565b856020820152611ca0610b46565b92600084526000602085015260405180968195829463f5dee49360e01b8452600484016141c3565b03925af1801561065d57611cdd575b50611b14565b611cf49060803d81116118b1576118a28183610b18565b5038611cd7565b611d34611d18611d13600a546001600160401b031690565b614136565b6001600160401b03166001600160401b0319600a541617600a55565b611075565b60019150143861106f565b610791915060203d602011610656576106488183610b18565b346102ea5760003660031901126102ea576020600f54604051908152f35b346102ea5760203660031901126102ea57600435611d98816103b7565b611dc460018060a01b03611db181600654163314613157565b8216918215159081611dda575b50614894565b600180546001600160a01b031916919091179055005b90503b151538611dbe565b346102ea5760203660031901126102ea57600435611e02816106c0565b611e1760018060a01b03600654163314613157565b6001600160401b03811615611ea957600454611e3b906001600160a01b03166105c5565b604051631f71924f60e31b8152600960048201529190602090839060249082906000905af191821561065d5761045d92611e7c9160009161062f5750613150565b600e805467ffffffffffffffff60881b191660889290921b67ffffffffffffffff60881b16919091179055565b60405162461bcd60e51b815260206004820152601860248201527755534454206c696d69742063616e2774206265207a65726f60401b6044820152606490fd5b346102ea5760403660031901126102ea57611f056004356102dc565b602060405160008152f35b346102ea5760a03660031901126102ea57611f2a36610379565b506064356001600160401b0381116102ea57611f4a90369060040161038a565b50506020608435611f5a816103b7565b6040516001600160a01b0390911630148152f35b346102ea5760203660031901126102ea57600435611f8b816106c0565b611fa060018060a01b03600654163314613157565b6001600160401b0381161561203257600454611fc4906001600160a01b03166105c5565b604051631f71924f60e31b8152600260048201529190602090839060249082906000905af191821561065d5761045d926120059160009161062f5750613150565b600a805467ffffffffffffffff60401b191660409290921b67ffffffffffffffff60401b16919091179055565b60405162461bcd60e51b815260206004820152602160248201527f57697468647261772074696d65206c696d69742063616e2774206265207a65726044820152606f60f81b6064820152608490fd5b6001600160a01b0316600090815260136020526040902090565b346102ea5760203660031901126102ea576004356120b8816103b7565b60018060a01b031660005260136020526040806000205460ff8251916001600160401b0381168352831c1615156020820152f35b346102ea5760003660031901126102ea57600080516020615a96833981519152546040516001600160a01b039091168152602090f35b346102ea5760203660031901126102ea5760043561213f816103b7565b61215860018060a01b03611db181600654163314613157565b601780546001600160a01b031916919091179055005b346102ea5760003660031901126102ea576020601b54604051908152f35b6024359060038210156102ea57565b359060038210156102ea57565b60809060a31901126102ea57604051906121c182610a7d565b8160a4356121ce816106a2565b815260c4356121dc816106a2565b602082015260e4356121ed816106a2565b6040820152606061010435910152565b60809060231901126102ea576040519061221682610a7d565b81602435612223816106a2565b8152604435612231816106a2565b6020820152606435612242816106a2565b60408201526060608435910152565b91908260809103126102ea5760405161226981610a7d565b60608082948035612279816106a2565b84526020810135612289816106a2565b6020850152604081013561229c816106a2565b60408501520135910152565b801515036102ea57565b346102ea576101803660031901126102ea576004356122d0816102dc565b6122d861218c565b6122e1366121a8565b9161012435906122f0826106a2565b61014435936001600160401b0385116102ea576123b86123549461231b6123d4973690600401610b9a565b612362610164359261232c846122a8565b6123346148db565b506040988998895197889360843590606435906044359060208801614dfe565b03601f198101865285610b18565b61236a6148db565b50601554612380906001600160a01b03166105c5565b9361238a86615438565b6123a1612395610b53565b63ffffffff9098168852565b602087015286860152606085015215156080840152565b82518080968194631bb8518b60e31b8352309060048401615484565b03915afa90811561065d5761096e92600092612408575b505191829182815181526020918201519181019190915260400190565b816124299293503d8411612430575b6124218183610b18565b810190615470565b90386123eb565b503d612417565b60005b83811061244a5750506000910152565b818101518382015260200161243a565b9060209161247381518092818552858086019101612437565b601f01601f1916010190565b346102ea5760003660031901126102ea5761096e60405161249f81610aab565b60058152640352e302e360dc1b602082015260405191829160208352602083019061245a565b346102ea5760a03660031901126102ea576004356124e2816106a2565b600260606124ef366121fd565b60015461251090336001600160a01b03918216149081156109e05750614a32565b60018060801b0380941660005260146020526125576040600020946125388184511687612d63565b6125488160208501511687612d82565b60408301511660018601612d63565b0151910155005b60203660031901126102ea57600435612576816106a2565b60015461259790336001600160a01b03918216149081156109e05750614a32565b600b54600c54601a54601e5491939092916004906001600160801b03166002546020906125cc906001600160a01b03166105c5565b6040516354dec33960e11b815293849182905afa90811561065d576060956126479360009361272f575b5060405163bbfefd7360e01b81526001600160801b0395861660048201526024810196909652604486019790975260648501969096529482166084840152931660a4820152918290819060c4820190565b038173__$f36c2562f94d083e3ab2b3584d2e5eda55$__5af490811561065d576126a291600090819082906126f3575b601e80546001600160801b0319166001600160801b0390921691909117905590915061155a90601a55565b61045d6126b06111746156f1565b601f5463ffffffff166126e4826126c5610b39565b6000815260006020820152600060408201526000606082015283615010565b906126ed613635565b90614eba565b50505061155a61271c6115839260603d8111612728575b6127148183610b18565b810190614aaf565b91935083925090612677565b503d61270a565b61274891935060203d8111611b0657611af88183610b18565b91386125f6565b346102ea5760203660031901126102ea5763ffffffff600435612771816102dc565b1660005260166020526020604060002054604051908152f35b346102ea5760006020366003190112610f30576004356127a9816103b7565b6127b1615890565b6015546001600160a01b0390811691839190833b156128025760249083604051958694859363ca5eb5e160e01b85521660048401525af1801561065d576127f6575080f35b6127ff90610a98565b80f35b8280fd5b346102ea5760c03660031901126102ea57600435612823816103b7565b60243590612830826103b7565b60443561283c816103b7565b606435612848816103b7565b60843590612855826103b7565b60a43592612862846103b7565b600080516020615b1683398151915254956001600160401b0360ff8860401c1615971680159081612971575b6001149081612967575b15908161295e575b5061294c57600080516020615b16833981519152805467ffffffffffffffff191660011790556128d4958761292757612dc1565b6128da57005b600080516020615b16833981519152805460ff60401b19169055604051600181527fc7f505b2f371ae2175ee4913f4499e1f2633a7b5936321eed1cdaeb6115181d2908060208101610576565b600080516020615b16833981519152805460ff60401b1916600160401b179055612dc1565b60405163f92ee8a960e01b8152600490fd5b905015386128a0565b303b159150612898565b88915061288e565b346102ea5760003660031901126102ea576020601954604051908152f35b60a03660031901126102ea576004356129af816106a2565b6024356129bb816106a2565b6044356129c7816122a8565b606435906129d4826106a2565b608435926129e1846106a2565b6129e96158f8565b600480546040516326d2a55160e21b815280830192909252909590602090879060249082906000906001600160a01b03165af195861561065d5761076296612a399160009161077957501561319c565b61368b565b346102ea5760203660031901126102ea57600435612a5b816106a2565b600154612a7c90336001600160a01b03918216149081156109e05750614a32565b60018060801b0316600b548181039081116109db57600b556019549081039081116109db57601955005b346102ea5760003660031901126102ea576020600d54604051908152f35b346102ea5760003660031901126102ea5760206001600160401b03600a5416604051908152f35b6106be909291926040806080830195805184526001600160401b036020820151166020850152015191019060208091805184520151910152565b6101a03660031901126102ea57600435612b3e816102dc565b612b4661218c565b612b4f366121a8565b9061012435612b5d816106a2565b6040366101431901126102ea5760405190612b7782610aab565b61014435825261016435602083015261018435936001600160401b0385116102ea5761096e95612bae612bc9963690600401610b9a565b94612bb7614c3e565b50608435916064359160443591614c66565b60405191829182612aeb565b346102ea5760203660031901126102ea57600435612bf2816103b7565b6006546001600160a01b0390612c0b9082163314613157565b811680151580612cbc575b612c1f90614894565b600454612c34906001600160a01b03166105c5565b604051631f71924f60e31b8152600660048201529290602090849060249082906000905af190811561065d57612c78612c9a9261045d9560009161062f5750613150565b600880546001600160a01b0319166001600160a01b0392909216919091179055565b600280546001600160a01b0319166001600160a01b0392909216919091179055565b50813b1515612c16565b346102ea5760203660031901126102ea5761045d600435612ce6816103b7565b612cee615890565b61581c565b346102ea5760003660031901126102ea5760206001600160401b03600e5460881c16604051908152f35b346102ea5760603660031901126102ea576020612d3936610379565b63ffffffff8135612d49816102dc565b166000526016825260406000205482604051920135148152f35b80546001600160801b0319166001600160801b03909216919091179055565b80546001600160801b031660809290921b6001600160801b031916919091179055565b60115460ff60801b191690151560801b60ff60801b1617601155565b949092612dcc6158c9565b612dd46158c9565b612ddd3361581c565b612de56158c9565b612ded6158c9565b612df56158c9565b6001600160a01b039485168015612fbb57601580546001600160a01b0319166001600160a01b0390921691909117905584821615612fa957601554612e42906001600160a01b03166105c5565b803b156102ea5760405163ca5eb5e160e01b81526001600160a01b039390931660048401526000908390602490829084905af1801561065d5785612efa94612eb682612f1c9a8197612ed896612f96575b5060008054919092166001600160a01b03166001600160a01b0319909116179055565b60058054919092166001600160a01b03166001600160a01b0319909116179055565b60048054919092166001600160a01b03166001600160a01b0319909116179055565b60038054919092166001600160a01b03166001600160a01b0319909116179055565b612f49612f2761302b565b600980546001600160801b0319166001600160801b0392909216919091179055565b600980546001600160801b0319608082901b166001600160801b03909116179055601e80546001600160801b03191664e8d4a510001790556011805460ff60801b1916600160801b179055565b80611794612fa392610a98565b38612e93565b604051632d618d8160e21b8152600490fd5b604051638ad182f960e01b8152600490fd5b519069ffffffffffffffffffff821682036102ea57565b6040513d6000823e3d90fd5b634e487b7160e01b600052601260045260246000fd5b634e487b7160e01b600052601160045260246000fd5b8115613026570490565b612ff0565b600354604051633fabe5a360e21b81529060a090829060049082906001600160a01b03165afa90811561065d57600091613073575b50620f424090046001600160801b031690565b9060a0823d82116130b7575b8161308c60a09383610b18565b81010312610f30575061309e81612fcd565b506130b0608060208301519201612fcd565b5038613060565b3d915061307f565b156130c657565b60405162461bcd60e51b815260206004820152602e60248201527f41646d696e2063616e277420626520636f6e747261637420616464726573732060448201526d26207a65726f206164647265737360901b6064820152608490fd5b634e487b7160e01b600052602160045260246000fd5b908160209103126102ea575161314d816122a8565b90565b156102ea57565b1561315e57565b60405162461bcd60e51b815260206004820152601660248201527521b0b63632b91034b9903737ba1030b71030b236b4b760511b6044820152606490fd5b156131a357565b60405162461bcd60e51b815260206004820152600660248201526514185d5cd95960d21b6044820152606490fd5b6001600160801b03908116600101919082116109db57565b6001600160801b0391821690821601919082116109db57565b1561320957565b60405162461bcd60e51b815260206004820152602160248201527f4465706f73697420616d6f756e742073686f756c64206e6f74206265207a65726044820152606f60f81b6064820152608490fd5b1561325f57565b60405162461bcd60e51b815260206004820152603660248201527f4c69717569646174696f6e20616d6f756e742063616e27742067726561746572604482015275081d1a185b8819195c1bdcda5d195908185b5bdd5b9d60521b6064820152608490fd5b9064e8d4a51000918281029281840414901517156109db57565b818102929181159184041417156109db57565b156132f757565b60405162461bcd60e51b815260206004820152601c60248201527f5265717569726564205553446120616d6f756e74206e6f74206d6574000000006044820152606490fd5b908160209103126102ea575190565b1561335257565b60405162461bcd60e51b815260206004820152602960248201527f496e73756666696369656e7420555344612062616c616e63652077697468206d60448201526839b39739b2b73232b960b91b6064820152608490fd5b919082018092116109db57565b156133bd57565b60405162461bcd60e51b815260206004820152601b60248201527f31303025206f6620616d6f756e74206d757374206265205553445400000000006044820152606490fd5b1561340957565b60405162461bcd60e51b815260206004820152600d60248201526c13dc9858db194811985a5b1959609a1b6044820152606490fd5b6001600160401b038091169081146109db5760010190565b908160209103126102ea575161314d816106a2565b1561347257565b60405162461bcd60e51b815260206004820152602960248201527f496e73756666696369656e7420555344542062616c616e63652077697468206d60448201526839b39739b2b73232b960b91b6064820152608490fd5b6001600160a01b039182168152911660208201526001600160801b03909116604082015260600190565b156134fa57565b60405162461bcd60e51b815260206004820152602360248201527f55534454205472616e73666572206661696c656420696e20434453206465706f6044820152621cda5d60ea1b6064820152608490fd5b1561355257565b60405162461bcd60e51b815260206004820152602360248201527f55534461205472616e73666572206661696c656420696e20434453206465706f6044820152621cda5d60ea1b6064820152608490fd5b6001600160a01b0390911681526001600160801b03909116602082015260400190565b156135cd57565b60405162461bcd60e51b815260206004820152602b60248201527f55534461206d696e7420746f207472656173757279206661696c656420696e2060448201526a10d114c819195c1bdcda5d60aa1b6064820152608490fd5b6003111561363057565b613122565b6040519061364282610ac6565b6018546001600160401b031682526019546020830152601a546040830152601b546060830152601c546080830152601d5460a0830152601e546001600160801b031660c0830152565b9290919361369c6110c184866131e9565b6136a7811515613202565b6001600160801b03906136be848316821015613258565b600f5491600e54926001600160401b0393848160881c1690818310600014613f4657506136ee838a1680936133a9565b11613f0b5761394b836139468a9661370d6138049761396696146133b6565b61391a6139158761371c61302b565b9a61372a828d161515613402565b61374761374361373933612081565b5460401c60ff1690565b1590565b15613ec15761376b61375833612081565b805460ff60401b1916600160401b179055565b61378b61377733612081565b805467ffffffffffffffff19166001179055565b61382a8c600460019d8e6137b2611d186137ad600a546001600160401b031690565b61343e565b6137e66137ca6137ad6018546001600160401b031690565b6001600160401b03166001600160401b03196018541617601855565b8b60016137f7838261092d33612081565b0155600161092d33612081565b018054610100600160881b03191660089290921b610100600160881b0316919091179055565b6138566138368d61492e565b8051613850906020906001600160801b0316920151151590565b90614af5565b601154613882908c9060059061387c906001600160801b03165b92600161092d33612081565b01612d63565b6138ba8b600561389b61387060115460ff9060801c1690565b018054909160ff60801b1990911690151560801b60ff60801b16179055565b6138c96114f988600b546133a9565b6138d861155a88600c546133a9565b6138e7611520886019546133a9565b6138f661158388601a546133a9565b61390c613907838316600f546133a9565b600f55565b16601c546133a9565b601c55565b421661392b87600161092d33612081565b906001600160401b03166001600160401b0319825416179055565b6132c3565b601e54613960906001600160801b03166110c1565b9061301c565b600861397784600161092d33612081565b0155876139ad81600561398f86600161092d33612081565b01805460ff60881b191691151560881b60ff60881b16919091179055565b613dee575b6009546139c7906001600160801b03166110c1565b81841603613de0575b86811615801591908280613dd5575b15613cae57506005546139fa906001600160a01b03166105c5565b6040516370a0823160e01b81523360048201529091602082602481865afa90811561065d57613a3592600092613c8d575b508a16111561346b565b600854600090602090613a6c906001600160a01b0316938b6040519485809481936323b872dd60e01b998a845233600485016134c9565b03925af190811561065d57613ad492613a9660016020948c94600091613c70575b501515146134f3565b600054613aab906001600160a01b03166105c5565b6008549091906000906001600160a01b03169160405196879586948593845233600485016134c9565b03925af190811561065d57613af791600191600091613c51575b5015151461354b565b613b97575b91613b9293917f135b90494e4bfddd44112e8e67fd1a5958d33a1944a77f8a4b1ac6e945e684da9793613b336126b06111746156f1565b50604080513381526001600160401b0390921660208301526001600160801b03978816908201529686166060880152426080880152851660a0870152841660c08601529290921660e08401529015156101008301528190610120820190565b0390a1565b9591613bdf9391602087613bb56105c560005460018060a01b031690565b6008546001600160a01b03166000604051809a819582946340c10f1960e01b8452600484016135a3565b03925af197881561065d57613c2660017f135b90494e4bfddd44112e8e67fd1a5958d33a1944a77f8a4b1ac6e945e684da9a613b9298600091613c32575b501515146135c6565b91939750919350613afc565b613c4b915060203d602011610656576106488183610b18565b38613c1d565b613c6a915060203d602011610656576106488183610b18565b38613aee565b613c879150863d8811610656576106488183610b18565b38613a8d565b613ca791925060203d602011610d1457610d058183610b18565b9038613a2b565b15613d245750600054613cfd906020908890613cd2906001600160a01b03166105c5565b6008546001600160a01b031660006040518096819582946323b872dd60e01b845233600485016134c9565b03925af190811561065d57613d1f91600191600091613c51575015151461354b565b613af7565b600554613d39906001600160a01b03166105c5565b6040516370a0823160e01b815233600482015291602083602481855afa91821561065d57613cd26020938c93613d7b96600092613db6575b508416111561346b565b03925af190811561065d57613d1f91600191600091613d9d57501515146134f3565b613c87915060203d602011610656576106488183610b18565b613dce919250863d8811610d1457610d058183610b18565b9038613d71565b5081881615156139df565b613de983613ff9565b6139d0565b600154600490602090613e09906001600160a01b03166105c5565b604051631360632760e21b815292839182905afa801561065d57613e4191600091613ea2575b50600761387c85600161092d33612081565b613e5c856006613e5685600161092d33612081565b01612d82565b613e7185600661387c85600161092d33612081565b613e87613e82828716600d546133a9565b600d55565b613e9d613e98828716601b546133a9565b601b55565b6139b2565b613ebb915060203d602011611b0657611af88183610b18565b38613e2f565b61382a8c6004613ed033612081565b613f04613ee76137ad83546001600160401b031690565b825467ffffffffffffffff19166001600160401b03821617909255565b9d8e6137e6565b60405162461bcd60e51b815260206004820152601360248201527214dd5c9c1b1d5cc81554d11508185b5bdd5b9d606a1b6044820152606490fd5b613f669250613f5f91509360ff81969560801c166132dd565b6064900490565b613f75828816918210156132f0565b600054613f8a906001600160a01b03166105c5565b6040516370a0823160e01b81523360048201529190602090839060249082905afa94851561065d5761394661380495613fd661394b948d9961396697600091613fdb575b50101561334b565b61370d565b613ff3915060203d8111610d1457610d058183610b18565b38613fce565b6009805460801b6001600160801b0319166001600160801b0392909216919091179055565b1561402557565b60405162461bcd60e51b815260206004820152602560248201527f7573657220646f65736e277420686176652074686520737065636966696564206044820152640d2dcc8caf60db1b6064820152608490fd5b1561407f57565b60405162461bcd60e51b815260206004820152601160248201527020b63932b0b23c903bb4ba34323930bbb760791b6044820152606490fd5b9190916001600160401b03808094169116019182116109db57565b156140da57565b60405162461bcd60e51b815260206004820152602e60248201527f63616e6e6f74207769746864726177206265666f72652074686520776974686460448201526d1c985dc81d1a5b59481b1a5b5a5d60921b6064820152608490fd5b6001600160401b031680156109db576000190190565b919082039182116109db57565b91908260409103126102ea5760405161417181610aab565b6020808294805184520151910152565b906080828203126102ea576141bb90604080519361419e85610ae1565b8051855260208101516141b0816106c0565b602086015201614159565b604082015290565b6002815281516001600160a01b031660208083019190915290910151604082015260a0810192916106be916060905b82516001600160a01b03169101908152602091820151910152565b9392909160a085019460058410156136305792835280516001600160a01b0316602080850191909152015160408301526106be916060906141f2565b6001600160a01b03918216815291166020820152604081019190915260600190565b1561427257565b60405162461bcd60e51b815260206004820152601f60248201527f5472616e73666572206661696c656420696e20636473207769746864726177006044820152606490fd5b6001600160801b039081169081146109db5760010190565b906040516142dc81610a7d565b82546001600160801b03808216835260809190911c602083015260018401541660408201526002909201546060830152565b6001600160801b039081166402540be40002908116919082036109db57565b6001600160801b0391821690821602908116919082036109db57565b6001600160801b039182169190821561302657160490565b6001600160801b0391821690821603919082116109db57565b1561438157565b60405162461bcd60e51b815260206004820152601e60248201527f5472616e7373756363657373656420696e2063647320776974686472617700006044820152606490fd5b94926001600160401b0360e097939a999895929a61010088019b60018060a01b031688521660208701526040860152606085015260018060801b0380921660808501521660a083015260c08201520152565b908160209103126102ea575161314d816106c0565b1561443457565b60405162461bcd60e51b815260206004820152601b60248201527f4344533a204e6f7420656e6f7567682066756e6420696e2043445300000000006044820152606490fd5b3d156144a4573d9061448a82610b7f565b916144986040519384610b18565b82523d6000602084013e565b606090565b156144b057565b60405162461bcd60e51b81526020600482015260146024820152732330b4b632b2103a379039b2b7321022ba3432b960611b6044820152606490fd5b156144f357565b60405162461bcd60e51b8152602060048201526019602482015278416d6f756e742073686f756c64206e6f74206265207a65726f60381b6044820152606490fd5b1561453b57565b60405162461bcd60e51b8152602060048201526014602482015273496e73756666696369656e742062616c616e636560601b6044820152606490fd5b1561457e57565b60405162461bcd60e51b815260206004820152601e60248201527f55534461204275726e206661696c656420696e2072656465656d5553445400006044820152606490fd5b156145ca57565b60405162461bcd60e51b815260206004820152602260248201527f55534454205472616e73666572206661696c656420696e2072656465656d5553604482015261111560f21b6064820152608490fd5b90916001600160801b03821691906146338315156144ec565b6000805490949061464c906001600160a01b03166105c5565b6040516370a0823160e01b8152336004820152602095918690829060249082905afa91821561065d57614690816146b1946146ac948b91614877575b501015614534565b6146a461469f826010546133a9565b601055565b601d546133a9565b601d55565b84546146c5906001600160a01b03166105c5565b8460405180926363a9f09360e11b82528189816146e68a33600484016135a3565b03925af193841561065d5761470e60016147269661471e948a9161485a575b50151514614577565b6001600160401b0380931661432d565b911690614349565b60025490929061473e906001600160a01b03166105c5565b92833b156148565781604051809563e613610560e01b82528183816147678730600484016135a3565b03925af190811561065d576147be948492614843575b50600554614793906001600160a01b03166105c5565b6008546001600160a01b0316846040518098819582946323b872dd60e01b84523390600485016134c9565b03925af1801561065d5760016147e291614823958491614826575b501515146145c3565b6126e46147f06111746156f1565b8093614801601f5463ffffffff1690565b938061480b610b39565b92818452830152806040830152606082015283615010565b50565b61483d9150853d8711610656576106488183610b18565b386147d9565b8061179461485092610a98565b3861477d565b5080fd5b6148719150893d8b11610656576106488183610b18565b38614705565b61488e91508a3d8c11610d1457610d058183610b18565b38614688565b1561489b57565b60405162461bcd60e51b8152602060048201526018602482015277125b9c1d5d081859191c995cdcc81a5cc81a5b9d985b1a5960421b6044820152606490fd5b604051906148e882610aab565b60006020838281520152565b908160409103126102ea5760206040519161490e83610aab565b8051614919816106a2565b83520151614926816122a8565b602082015290565b6004906149396148db565b50600254602090614952906001600160a01b03166105c5565b6040516340d86d7b60e01b815293849182905afa91821561065d57600092614a0f575b50600b546009546040805163083fa09560e11b81526001600160801b0394851660048201526024810193909352928116604483015260801c606482015260848101929092528160a48173__$f36c2562f94d083e3ab2b3584d2e5eda55$__5af490811561065d576000916149e7575090565b61314d915060403d8111614a08575b614a008183610b18565b8101906148f4565b503d6149f6565b6040919250614a2b9060203d8111610d1457610d058183610b18565b9190614975565b15614a3957565b60405162461bcd60e51b815260206004820152604260248201527f546869732066756e6374696f6e2063616e206f6e6c792063616c6c656420627960448201527f20626f72726f77696e67206f72204c69717569646174696f6e20636f6e74726160648201526118dd60f21b608482015260a490fd5b908160609103126102ea578051916040602083015192015161314d816106a2565b91908260409103126102ea5760208251614ae9816122a8565b92015161314d816106a2565b60115460408051632142426760e01b81526001600160801b0393841660048201529315156024850152608082901c60ff1615156044850152911660648301528160848173__$f36c2562f94d083e3ab2b3584d2e5eda55$__5af490811561065d576106be916000918291614b8e575b50601180546001600160801b0319166001600160801b03909216919091179055612da5565b612da5565b614b899250614bb4915060403d8111614bbb575b614bac8183610b18565b810190614ad0565b9091614b64565b503d614ba2565b600b54601954600c5490601a549260405194630a1f144d60e01b86526004860152602485015260448401526064830152608482015260208160a48173__$f36c2562f94d083e3ab2b3584d2e5eda55$__5af490811561065d57600091614c26575090565b61314d915060203d8111610d1457610d058183610b18565b60405190614c4b82610ae1565b8160008152600060208201526040614c616148db565b910152565b969561314d9895614ca4929395614cb295614c9560018060a01b03806001541633149081156109e05750614a32565b60405197889660208801614dfe565b03601f198101835282610b18565b33936154f2565b9060038210156136305752565b6060809160018060801b0380825116855280602083015116602086015260408201511660408501520151910152565b60018152610200810192916000916101e091614d75906018546001600160401b031660208401526019546040840152601a546060840152601b546080840152601c5460a0840152601d5460c0840152601e546001600160801b031660e0840152846101008401528461012084015284610140840152610160830190614cc6565b0152565b6101e090614d756000939594610200830196614d958460029052565b6018546001600160401b031660208501526019546040850152601a546060850152601b546080850152601c5460a0850152601d5460c0850152601e546001600160801b031660e08501526101008401528461012084015284610140840152610160830190614cc6565b9194614e85919796946101e0946106be97614e1e8661020081019c614cb9565b6018546001600160401b031660208701526019546040870152601a546060870152601b546080870152601c5460a0870152601d5460c0870152601e546001600160801b031660e0870152610100860152610120850152610140840152610160830190614cc6565b6001600160801b03909216910152565b60405190614ea282610a7d565b60006060838281528260208201528260408201520152565b91909261314d93614ec9614c3e565b50614f58614ed5614e95565b60405160016020820152926001600160401b0381511660408501526020810151606085015260408101516080850152606081015160a0850152608081015160c085015260a081015160e085015260c060018060801b0391015116610100840152600061012084015260006101408401526000610160840152610180830190614cc6565b6102006000818301528152614cb281610afc565b929190614f5861314d9592614f7f614c3e565b50614f88614e95565b9060405193614f9a6020860160029052565b6001600160401b0381511660408601526020810151606086015260408101516080860152606081015160a0860152608081015160c086015260a081015160e086015260c060018060801b039101511661010085015261012084015260006101408401526000610160840152610180830190614cc6565b906150b691615038615046946150246148db565b506040958694855193849160208301614cf5565b03601f198101845283610b18565b61504e6148db565b50601554615064906001600160a01b03166105c5565b9161506e84615438565b615085615079610b53565b63ffffffff9096168652565b60208501528484015260608301526000608083015282518080958194631bb8518b60e31b8352309060048401615484565b03915afa91821561065d576000926150cd57505090565b61314d9250803d10612430576124218183610b18565b6150b692615046946150f36148db565b506040958694615038865194859260208401614d79565b90606060029161512760018060801b036125388184511687612d63565b0151910155565b906008615139610b72565b9261515b61514e82546001600160401b031690565b6001600160401b03168552565b6001810154602085015261518c61517c60028301546001600160401b031690565b6001600160401b03166040860152565b60038101546060850152600481015460ff81161515608086015261521790831c6001600160801b0390811660a087015260058301546001600160801b038282161660c08801526151f59060ff90608081901c8216151560e08a015260881c161515610100880152565b60068301549081166001600160801b031661012087015260801c610140860152565b60078101546001600160801b03166101608501520154610180830152565b3561314d816102dc565b8082039261020084126102ea5760e06152578361219b565b94601f1901126102ea5760405161526d81610ac6565b602083013561527b816106c0565b815260408301356020820152606083013560408201526080830135606082015260a0830135608082015260c083013560a082015260e08301356152bd816106a2565b60c082015292610100830135926101208101359261314d6101e06152eb610140850135956101608601612251565b93016106b3565b6001600160401b038151166001600160401b0319601854161760185560208101516019556040810151601a556060810151601b556080810151601c5560a0810151601d5560c060018060801b039101511660018060801b0319601e541617601e55565b61539e9160405161536581610ac6565b60c06000918281528260208201528260408201528260608201528260808201528260a08201520152615395614e95565b5081019061523f565b9092956153aa81613626565b600181036153c15750505050506106be91506152f2565b806153cd600292613626565b146153db575b505050505050565b615409613e82615423936154016114f961542d9a61196161155a6154289b600c5461414c565b600d5461414c565b6001600160801b0316600090815260146020526040902090565b61510a565b6152f2565b3880808080806153d3565b63ffffffff16806000526016602052604060002054908115615458575090565b6024906040519063f6ff4fb760e01b82526004820152fd5b906040828203126102ea5761314d91614159565b906020909392936040835263ffffffff815116604084015281810151606084015260806154d86154c2604084015160a08488015260e087019061245a565b6060840151868203603f190160a088015261245a565b910151151560c08401526001600160a01b03909416910152565b6080936155646155809694615505614c3e565b50602061551284516155bd565b9301908151806155ae575b50601554615533906001600160a01b03166105c5565b9561553d86615438565b925115159261554d612395610b53565b602087015260408601526060850152151586840152565b6040518096819582946302637a4560e41b845260048401615484565b03925af190811561065d57600091615596575090565b61314d915060803d81116118b1576118a28183610b18565b6155b7906155df565b3861551d565b8034106155c75790565b6040516304fb820960e51b8152346004820152602490fd5b60155460405163393f876560e21b81526001600160a01b039182169260209290918381600481885afa90811561065d576000916156bb575b50169283156156a95760008091614ca461564c61566195604051928391898301956323b872dd60e01b87523360248501614249565b519082875af161565a614479565b90846159e6565b8051918215159283615690575b5050506156785750565b60249060405190635274afe760e01b82526004820152fd5b6156a09350820181019101613138565b1538808061566e565b6040516329b99a9560e11b8152600490fd5b908482813d83116156ea575b6156d18183610b18565b81010312610f305750516156e4816103b7565b38615617565b503d6156c7565b604051600360f01b60208201526002815261314d81610aab565b61ffff9060038261571b83615a49565b16036157bb57604051610c3560861b6020820152601081529061573d82610aab565b60038361574983615a49565b160361579957815183811161577a5783166001019283116109db57614ca461314d92604051948593602085016157c7565b604490604051906306dfcc6560e41b8252601060048301526024820152fd5b826157a5602492615a49565b604051633a51740d60e01b815291166004820152fd5b906157a5602492615a49565b6020906157de600495949382815194859201612437565b600160f81b910181815260f09290921b6001600160f01b0319166001830152600382015281519161581790839085840190602001612437565b010190565b6001600160a01b0390811690811561587757600080516020615a9683398151915280546001600160a01b031981168417909155167f8be0079c531659141344cd1fd0a4f28419497f9722a3daafe3b4186f6b6457e0600080a3565b604051631e4fbdf760e01b815260006004820152602490fd5b600080516020615a96833981519152546001600160a01b031633036158b157565b60405163118cdaa760e01b8152336004820152602490fd5b60ff600080516020615b168339815191525460401c16156158e657565b604051631afcd79f60e31b8152600490fd5b600080516020615af683398151915260028154146159165760029055565b604051633ee5aeb560e01b8152600490fd5b90813b156159ab57600080516020615ad683398151915280546001600160a01b0319166001600160a01b0384169081179091557fbc7cd75a20ee27fd9adebab32041f755214dbc6bffa90cc0225b39da2e5c2d3b600080a280511561599057614823916159cc565b50503461599957565b60405163b398979f60e01b8152600490fd5b604051634c9c8ce360e01b81526001600160a01b0383166004820152602490fd5b60008061314d93602081519101845af46159e4614479565b915b90615a0d57508051156159fb57805190602001fd5b604051630a12f52160e11b8152600490fd5b81511580615a40575b615a1e575090565b604051639996b31560e01b81526001600160a01b039091166004820152602490fd5b50803b15615a16565b6002815110615a59576002015190565b60405162461bcd60e51b8152602060048201526014602482015273746f55696e7431365f6f75744f66426f756e647360601b6044820152606490fdfe9016d09d72d40fdae2fd8ceac6b6234c7706214fd39c1cd1e609a0528c199300fec39177008e086efb56cf5eab6824a48fecc42b4cb5acfede2d604e90ddaa94360894a13ba1a3210667c828492db98dca3e2076cc3735a920a3ca505d382bbc9b779b17422d0df92223018b32b4d1fa46e071723d6817e2486d003becc55f00f0c57e16840df040f15088dc2f81fe391c3923bec73e23a9662efc9c229c6a00a264697066735822122022f67cddf382ca8c6bbd3efd04f86210a1de5665d499337611fd618e2827f71164736f6c63430008140033","linkReferences":{"contracts/lib/CDSLib.sol":{"CDSLib":[{"start":9852,"length":20},{"start":18929,"length":20},{"start":19307,"length":20},{"start":19504,"length":20}]}}},"methodIdentifiers":{"UPGRADE_INTERFACE_VERSION()":"ad3cb1cc","allowInitializePath((uint32,bytes32,uint64))":"ff7bd03d","calculateCumulativeRate(uint128)":"b87c3dc3","callLzSendFromExternal(uint32,uint8,uint256,uint256,uint256,(uint128,uint128,uint128,uint256),uint128,(uint256,uint256),bytes)":"ef543d5c","cdsCount()":"df6f05e7","cdsDetails(address)":"880e8e3b","deposit(uint128,uint128,bool,uint128,uint128)":"dabd360a","endpoint()":"5e280f11","getCDSDepositDetails(address,uint64)":"4721bae8","initialize(address,address,address,address,address,address)":"cc2a9a5b","isComposeMsgSender((uint32,bytes32,uint64),bytes,address)":"82413eac","lzReceive((uint32,bytes32,uint64),bytes32,bytes,address,bytes)":"13137d65","nextNonce(uint32,bytes32)":"7d25a05e","oAppVersion()":"17442b70","omniChainCDSTotalAvailableLiquidationAmount()":"a736596c","omniChainCDSTotalCdsDepositedAmount()":"d4f113e6","owner()":"8da5cb5b","peers(uint32)":"bb0b6a53","proxiableUUID()":"52d1902d","quote(uint32,uint8,uint256,uint256,uint256,(uint128,uint128,uint128,uint256),uint128,bytes,bool)":"ad293034","redeemUSDT(uint128,uint64,uint64)":"46696df3","renounceOwnership()":"715018a6","setAdmin(address)":"704b6c02","setBorrowLiquidation(address)":"a4cdc597","setBorrowingContract(address)":"78fdaf3f","setDelegate(address)":"ca5eb5e1","setDstEid(uint32)":"0d14c92e","setPeer(uint32,bytes32)":"3400288b","setTreasury(address)":"f0f44260","setUSDaLimit(uint8)":"41eddbbd","setUsdtLimit(uint64)":"7bf5e245","setWithdrawTimeLimit(uint64)":"868c10d2","totalAvailableLiquidationAmount()":"dc91e752","totalCdsDepositedAmount()":"2bb2ea62","transferOwnership(address)":"f2fde38b","updateLiquidationInfo(uint128,(uint128,uint128,uint128,uint256))":"b3013d4d","updateTotalAvailableLiquidationAmount(uint256)":"4cae95d3","updateTotalCdsDepositedAmount(uint128)":"dc55b193","updateTotalCdsDepositedAmountWithOptionFees(uint128)":"4baf580d","upgradeToAndCall(address,bytes)":"4f1ef286","usdaLimit()":"6f71ccb1","usdtAmountDepositedTillNow()":"76a3fb3e","usdtLimit()":"f57ff39c","withdraw(uint64)":"750f0acc"},"storageLayout":{"storage":[{"astId":4197,"contract":"contracts/Core_logic/CDS.sol:CDS","label":"usda","offset":0,"slot":"0","type":"t_contract(IUSDa)3683"},{"astId":4200,"contract":"contracts/Core_logic/CDS.sol:CDS","label":"borrowing","offset":0,"slot":"1","type":"t_contract(IBorrowing)3053"},{"astId":4203,"contract":"contracts/Core_logic/CDS.sol:CDS","label":"treasury","offset":0,"slot":"2","type":"t_contract(ITreasury)3556"},{"astId":4206,"contract":"contracts/Core_logic/CDS.sol:CDS","label":"dataFeed","offset":0,"slot":"3","type":"t_contract(AggregatorV3Interface)4345"},{"astId":4209,"contract":"contracts/Core_logic/CDS.sol:CDS","label":"multiSign","offset":0,"slot":"4","type":"t_contract(IMultiSign)3091"},{"astId":4212,"contract":"contracts/Core_logic/CDS.sol:CDS","label":"usdt","offset":0,"slot":"5","type":"t_contract(IERC20)8455"},{"astId":4214,"contract":"contracts/Core_logic/CDS.sol:CDS","label":"admin","offset":0,"slot":"6","type":"t_address"},{"astId":4216,"contract":"contracts/Core_logic/CDS.sol:CDS","label":"borrowingContract","offset":0,"slot":"7","type":"t_address"},{"astId":4218,"contract":"contracts/Core_logic/CDS.sol:CDS","label":"treasuryAddress","offset":0,"slot":"8","type":"t_address"},{"astId":4220,"contract":"contracts/Core_logic/CDS.sol:CDS","label":"lastEthPrice","offset":0,"slot":"9","type":"t_uint128"},{"astId":4222,"contract":"contracts/Core_logic/CDS.sol:CDS","label":"fallbackEthPrice","offset":16,"slot":"9","type":"t_uint128"},{"astId":4224,"contract":"contracts/Core_logic/CDS.sol:CDS","label":"cdsCount","offset":0,"slot":"10","type":"t_uint64"},{"astId":4226,"contract":"contracts/Core_logic/CDS.sol:CDS","label":"withdrawTimeLimit","offset":8,"slot":"10","type":"t_uint64"},{"astId":4228,"contract":"contracts/Core_logic/CDS.sol:CDS","label":"totalCdsDepositedAmount","offset":0,"slot":"11","type":"t_uint256"},{"astId":4230,"contract":"contracts/Core_logic/CDS.sol:CDS","label":"totalCdsDepositedAmountWithOptionFees","offset":0,"slot":"12","type":"t_uint256"},{"astId":4232,"contract":"contracts/Core_logic/CDS.sol:CDS","label":"totalAvailableLiquidationAmount","offset":0,"slot":"13","type":"t_uint256"},{"astId":4234,"contract":"contracts/Core_logic/CDS.sol:CDS","label":"lastCumulativeRate","offset":0,"slot":"14","type":"t_uint128"},{"astId":4236,"contract":"contracts/Core_logic/CDS.sol:CDS","label":"usdaLimit","offset":16,"slot":"14","type":"t_uint8"},{"astId":4238,"contract":"contracts/Core_logic/CDS.sol:CDS","label":"usdtLimit","offset":17,"slot":"14","type":"t_uint64"},{"astId":4240,"contract":"contracts/Core_logic/CDS.sol:CDS","label":"usdtAmountDepositedTillNow","offset":0,"slot":"15","type":"t_uint256"},{"astId":4242,"contract":"contracts/Core_logic/CDS.sol:CDS","label":"burnedUSDaInRedeem","offset":0,"slot":"16","type":"t_uint256"},{"astId":4244,"contract":"contracts/Core_logic/CDS.sol:CDS","label":"cumulativeValue","offset":0,"slot":"17","type":"t_uint128"},{"astId":4246,"contract":"contracts/Core_logic/CDS.sol:CDS","label":"cumulativeValueSign","offset":16,"slot":"17","type":"t_bool"},{"astId":4248,"contract":"contracts/Core_logic/CDS.sol:CDS","label":"PRECISION","offset":0,"slot":"18","type":"t_uint128"},{"astId":4250,"contract":"contracts/Core_logic/CDS.sol:CDS","label":"RATIO_PRECISION","offset":16,"slot":"18","type":"t_uint128"},{"astId":4255,"contract":"contracts/Core_logic/CDS.sol:CDS","label":"cdsDetails","offset":0,"slot":"19","type":"t_mapping(t_address,t_struct(CdsDetails)4161_storage)"},{"astId":4260,"contract":"contracts/Core_logic/CDS.sol:CDS","label":"omniChainCDSLiqIndexToInfo","offset":0,"slot":"20","type":"t_mapping(t_uint128,t_struct(LiquidationInfo)4175_storage)"},{"astId":4889,"contract":"contracts/Core_logic/CDS.sol:CDS","label":"endpoint","offset":0,"slot":"21","type":"t_contract(ILayerZeroEndpointV2)6165"},{"astId":4893,"contract":"contracts/Core_logic/CDS.sol:CDS","label":"peers","offset":0,"slot":"22","type":"t_mapping(t_uint32,t_bytes32)"},{"astId":36,"contract":"contracts/Core_logic/CDS.sol:CDS","label":"borrowLiquidation","offset":0,"slot":"23","type":"t_address"},{"astId":42,"contract":"contracts/Core_logic/CDS.sol:CDS","label":"omniChainCDS","offset":0,"slot":"24","type":"t_struct(OmniChainCDSData)4190_storage"},{"astId":44,"contract":"contracts/Core_logic/CDS.sol:CDS","label":"dstEid","offset":0,"slot":"31","type":"t_uint32"}],"types":{"t_address":{"encoding":"inplace","label":"address","numberOfBytes":"20"},"t_bool":{"encoding":"inplace","label":"bool","numberOfBytes":"1"},"t_bytes32":{"encoding":"inplace","label":"bytes32","numberOfBytes":"32"},"t_contract(AggregatorV3Interface)4345":{"encoding":"inplace","label":"contract AggregatorV3Interface","numberOfBytes":"20"},"t_contract(IBorrowing)3053":{"encoding":"inplace","label":"contract IBorrowing","numberOfBytes":"20"},"t_contract(IERC20)8455":{"encoding":"inplace","label":"contract IERC20","numberOfBytes":"20"},"t_contract(ILayerZeroEndpointV2)6165":{"encoding":"inplace","label":"contract ILayerZeroEndpointV2","numberOfBytes":"20"},"t_contract(IMultiSign)3091":{"encoding":"inplace","label":"contract IMultiSign","numberOfBytes":"20"},"t_contract(ITreasury)3556":{"encoding":"inplace","label":"contract ITreasury","numberOfBytes":"20"},"t_contract(IUSDa)3683":{"encoding":"inplace","label":"contract IUSDa","numberOfBytes":"20"},"t_mapping(t_address,t_struct(CdsDetails)4161_storage)":{"encoding":"mapping","key":"t_address","label":"mapping(address => struct CDSV1.CdsDetails)","numberOfBytes":"32","value":"t_struct(CdsDetails)4161_storage"},"t_mapping(t_uint128,t_struct(LiquidationInfo)4175_storage)":{"encoding":"mapping","key":"t_uint128","label":"mapping(uint128 => struct CDSV1.LiquidationInfo)","numberOfBytes":"32","value":"t_struct(LiquidationInfo)4175_storage"},"t_mapping(t_uint32,t_bytes32)":{"encoding":"mapping","key":"t_uint32","label":"mapping(uint32 => bytes32)","numberOfBytes":"32","value":"t_bytes32"},"t_mapping(t_uint64,t_struct(CdsAccountDetails)4151_storage)":{"encoding":"mapping","key":"t_uint64","label":"mapping(uint64 => struct CDSV1.CdsAccountDetails)","numberOfBytes":"32","value":"t_struct(CdsAccountDetails)4151_storage"},"t_struct(CdsAccountDetails)4151_storage":{"encoding":"inplace","label":"struct CDSV1.CdsAccountDetails","numberOfBytes":"288","members":[{"astId":4126,"contract":"contracts/Core_logic/CDS.sol:CDS","label":"depositedTime","offset":0,"slot":"0","type":"t_uint64"},{"astId":4128,"contract":"contracts/Core_logic/CDS.sol:CDS","label":"depositedAmount","offset":0,"slot":"1","type":"t_uint256"},{"astId":4130,"contract":"contracts/Core_logic/CDS.sol:CDS","label":"withdrawedTime","offset":0,"slot":"2","type":"t_uint64"},{"astId":4132,"contract":"contracts/Core_logic/CDS.sol:CDS","label":"withdrawedAmount","offset":0,"slot":"3","type":"t_uint256"},{"astId":4134,"contract":"contracts/Core_logic/CDS.sol:CDS","label":"withdrawed","offset":0,"slot":"4","type":"t_bool"},{"astId":4136,"contract":"contracts/Core_logic/CDS.sol:CDS","label":"depositPrice","offset":1,"slot":"4","type":"t_uint128"},{"astId":4138,"contract":"contracts/Core_logic/CDS.sol:CDS","label":"depositValue","offset":0,"slot":"5","type":"t_uint128"},{"astId":4140,"contract":"contracts/Core_logic/CDS.sol:CDS","label":"depositValueSign","offset":16,"slot":"5","type":"t_bool"},{"astId":4142,"contract":"contracts/Core_logic/CDS.sol:CDS","label":"optedLiquidation","offset":17,"slot":"5","type":"t_bool"},{"astId":4144,"contract":"contracts/Core_logic/CDS.sol:CDS","label":"InitialLiquidationAmount","offset":0,"slot":"6","type":"t_uint128"},{"astId":4146,"contract":"contracts/Core_logic/CDS.sol:CDS","label":"liquidationAmount","offset":16,"slot":"6","type":"t_uint128"},{"astId":4148,"contract":"contracts/Core_logic/CDS.sol:CDS","label":"liquidationindex","offset":0,"slot":"7","type":"t_uint128"},{"astId":4150,"contract":"contracts/Core_logic/CDS.sol:CDS","label":"normalizedAmount","offset":0,"slot":"8","type":"t_uint256"}]},"t_struct(CdsDetails)4161_storage":{"encoding":"inplace","label":"struct CDSV1.CdsDetails","numberOfBytes":"64","members":[{"astId":4153,"contract":"contracts/Core_logic/CDS.sol:CDS","label":"index","offset":0,"slot":"0","type":"t_uint64"},{"astId":4155,"contract":"contracts/Core_logic/CDS.sol:CDS","label":"hasDeposited","offset":8,"slot":"0","type":"t_bool"},{"astId":4160,"contract":"contracts/Core_logic/CDS.sol:CDS","label":"cdsAccountDetails","offset":0,"slot":"1","type":"t_mapping(t_uint64,t_struct(CdsAccountDetails)4151_storage)"}]},"t_struct(LiquidationInfo)4175_storage":{"encoding":"inplace","label":"struct CDSV1.LiquidationInfo","numberOfBytes":"96","members":[{"astId":4168,"contract":"contracts/Core_logic/CDS.sol:CDS","label":"liquidationAmount","offset":0,"slot":"0","type":"t_uint128"},{"astId":4170,"contract":"contracts/Core_logic/CDS.sol:CDS","label":"profits","offset":16,"slot":"0","type":"t_uint128"},{"astId":4172,"contract":"contracts/Core_logic/CDS.sol:CDS","label":"ethAmount","offset":0,"slot":"1","type":"t_uint128"},{"astId":4174,"contract":"contracts/Core_logic/CDS.sol:CDS","label":"availableLiquidationAmount","offset":0,"slot":"2","type":"t_uint256"}]},"t_struct(OmniChainCDSData)4190_storage":{"encoding":"inplace","label":"struct CDSV1.OmniChainCDSData","numberOfBytes":"224","members":[{"astId":4177,"contract":"contracts/Core_logic/CDS.sol:CDS","label":"cdsCount","offset":0,"slot":"0","type":"t_uint64"},{"astId":4179,"contract":"contracts/Core_logic/CDS.sol:CDS","label":"totalCdsDepositedAmount","offset":0,"slot":"1","type":"t_uint256"},{"astId":4181,"contract":"contracts/Core_logic/CDS.sol:CDS","label":"totalCdsDepositedAmountWithOptionFees","offset":0,"slot":"2","type":"t_uint256"},{"astId":4183,"contract":"contracts/Core_logic/CDS.sol:CDS","label":"totalAvailableLiquidationAmount","offset":0,"slot":"3","type":"t_uint256"},{"astId":4185,"contract":"contracts/Core_logic/CDS.sol:CDS","label":"usdtAmountDepositedTillNow","offset":0,"slot":"4","type":"t_uint256"},{"astId":4187,"contract":"contracts/Core_logic/CDS.sol:CDS","label":"burnedUSDaInRedeem","offset":0,"slot":"5","type":"t_uint256"},{"astId":4189,"contract":"contracts/Core_logic/CDS.sol:CDS","label":"lastCumulativeRate","offset":0,"slot":"6","type":"t_uint128"}]},"t_uint128":{"encoding":"inplace","label":"uint128","numberOfBytes":"16"},"t_uint256":{"encoding":"inplace","label":"uint256","numberOfBytes":"32"},"t_uint32":{"encoding":"inplace","label":"uint32","numberOfBytes":"4"},"t_uint64":{"encoding":"inplace","label":"uint64","numberOfBytes":"8"},"t_uint8":{"encoding":"inplace","label":"uint8","numberOfBytes":"1"}}},"id":0}