{"abi":[{"type":"function","name":"UPGRADE_INTERFACE_VERSION","inputs":[],"outputs":[{"name":"","type":"string","internalType":"string"}],"stateMutability":"view"},{"type":"function","name":"allowInitializePath","inputs":[{"name":"origin","type":"tuple","internalType":"struct Origin","components":[{"name":"srcEid","type":"uint32","internalType":"uint32"},{"name":"sender","type":"bytes32","internalType":"bytes32"},{"name":"nonce","type":"uint64","internalType":"uint64"}]}],"outputs":[{"name":"","type":"bool","internalType":"bool"}],"stateMutability":"view"},{"type":"function","name":"calculateCumulativeRate","inputs":[{"name":"fees","type":"uint128","internalType":"uint128"}],"outputs":[],"stateMutability":"payable"},{"type":"function","name":"callLzSendFromExternal","inputs":[{"name":"_dstEid","type":"uint32","internalType":"uint32"},{"name":"functionToDo","type":"uint8","internalType":"enum CDS.FunctionToDo"},{"name":"optionsFeesToGetFromOtherChain","type":"uint256","internalType":"uint256"},{"name":"cdsAmountToGetFromOtherChain","type":"uint256","internalType":"uint256"},{"name":"liqAmountToGetFromOtherChain","type":"uint256","internalType":"uint256"},{"name":"liquidationInfo","type":"tuple","internalType":"struct CDS.LiquidationInfo","components":[{"name":"liquidationAmount","type":"uint128","internalType":"uint128"},{"name":"profits","type":"uint128","internalType":"uint128"},{"name":"ethAmount","type":"uint128","internalType":"uint128"},{"name":"availableLiquidationAmount","type":"uint256","internalType":"uint256"}]},{"name":"liqIndex","type":"uint128","internalType":"uint128"},{"name":"fee","type":"tuple","internalType":"struct MessagingFee","components":[{"name":"nativeFee","type":"uint256","internalType":"uint256"},{"name":"lzTokenFee","type":"uint256","internalType":"uint256"}]},{"name":"_options","type":"bytes","internalType":"bytes"}],"outputs":[{"name":"receipt","type":"tuple","internalType":"struct MessagingReceipt","components":[{"name":"guid","type":"bytes32","internalType":"bytes32"},{"name":"nonce","type":"uint64","internalType":"uint64"},{"name":"fee","type":"tuple","internalType":"struct MessagingFee","components":[{"name":"nativeFee","type":"uint256","internalType":"uint256"},{"name":"lzTokenFee","type":"uint256","internalType":"uint256"}]}]}],"stateMutability":"payable"},{"type":"function","name":"cdsCount","inputs":[],"outputs":[{"name":"","type":"uint64","internalType":"uint64"}],"stateMutability":"view"},{"type":"function","name":"cdsDetails","inputs":[{"name":"","type":"address","internalType":"address"}],"outputs":[{"name":"index","type":"uint64","internalType":"uint64"},{"name":"hasDeposited","type":"bool","internalType":"bool"}],"stateMutability":"view"},{"type":"function","name":"deposit","inputs":[{"name":"usdtAmount","type":"uint128","internalType":"uint128"},{"name":"usdaAmount","type":"uint128","internalType":"uint128"},{"name":"_liquidate","type":"bool","internalType":"bool"},{"name":"_liquidationAmount","type":"uint128","internalType":"uint128"},{"name":"lockingPeriod","type":"uint128","internalType":"uint128"}],"outputs":[],"stateMutability":"payable"},{"type":"function","name":"endpoint","inputs":[],"outputs":[{"name":"","type":"address","internalType":"contract ILayerZeroEndpointV2"}],"stateMutability":"view"},{"type":"function","name":"getCDSDepositDetails","inputs":[{"name":"depositor","type":"address","internalType":"address"},{"name":"index","type":"uint64","internalType":"uint64"}],"outputs":[{"name":"","type":"tuple","internalType":"struct CDS.CdsAccountDetails","components":[{"name":"depositedTime","type":"uint64","internalType":"uint64"},{"name":"depositedAmount","type":"uint256","internalType":"uint256"},{"name":"withdrawedTime","type":"uint64","internalType":"uint64"},{"name":"withdrawedAmount","type":"uint256","internalType":"uint256"},{"name":"withdrawed","type":"bool","internalType":"bool"},{"name":"depositPrice","type":"uint128","internalType":"uint128"},{"name":"depositValue","type":"uint128","internalType":"uint128"},{"name":"depositValueSign","type":"bool","internalType":"bool"},{"name":"optedLiquidation","type":"bool","internalType":"bool"},{"name":"InitialLiquidationAmount","type":"uint128","internalType":"uint128"},{"name":"liquidationAmount","type":"uint128","internalType":"uint128"},{"name":"liquidationindex","type":"uint128","internalType":"uint128"},{"name":"normalizedAmount","type":"uint256","internalType":"uint256"}]},{"name":"","type":"uint64","internalType":"uint64"}],"stateMutability":"view"},{"type":"function","name":"initialize","inputs":[{"name":"_usda","type":"address","internalType":"address"},{"name":"priceFeed","type":"address","internalType":"address"},{"name":"_usdt","type":"address","internalType":"address"},{"name":"_multiSign","type":"address","internalType":"address"},{"name":"_endpoint","type":"address","internalType":"address"},{"name":"_delegate","type":"address","internalType":"address"}],"outputs":[],"stateMutability":"nonpayable"},{"type":"function","name":"isComposeMsgSender","inputs":[{"name":"","type":"tuple","internalType":"struct Origin","components":[{"name":"srcEid","type":"uint32","internalType":"uint32"},{"name":"sender","type":"bytes32","internalType":"bytes32"},{"name":"nonce","type":"uint64","internalType":"uint64"}]},{"name":"","type":"bytes","internalType":"bytes"},{"name":"_sender","type":"address","internalType":"address"}],"outputs":[{"name":"","type":"bool","internalType":"bool"}],"stateMutability":"view"},{"type":"function","name":"lzReceive","inputs":[{"name":"_origin","type":"tuple","internalType":"struct Origin","components":[{"name":"srcEid","type":"uint32","internalType":"uint32"},{"name":"sender","type":"bytes32","internalType":"bytes32"},{"name":"nonce","type":"uint64","internalType":"uint64"}]},{"name":"_guid","type":"bytes32","internalType":"bytes32"},{"name":"_message","type":"bytes","internalType":"bytes"},{"name":"_executor","type":"address","internalType":"address"},{"name":"_extraData","type":"bytes","internalType":"bytes"}],"outputs":[],"stateMutability":"payable"},{"type":"function","name":"nextNonce","inputs":[{"name":"","type":"uint32","internalType":"uint32"},{"name":"","type":"bytes32","internalType":"bytes32"}],"outputs":[{"name":"nonce","type":"uint64","internalType":"uint64"}],"stateMutability":"view"},{"type":"function","name":"oAppVersion","inputs":[],"outputs":[{"name":"senderVersion","type":"uint64","internalType":"uint64"},{"name":"receiverVersion","type":"uint64","internalType":"uint64"}],"stateMutability":"pure"},{"type":"function","name":"oApp_init","inputs":[{"name":"_endpoint","type":"address","internalType":"address"},{"name":"_delegate","type":"address","internalType":"address"}],"outputs":[],"stateMutability":"nonpayable"},{"type":"function","name":"omniChainCDSTotalAvailableLiquidationAmount","inputs":[],"outputs":[{"name":"","type":"uint256","internalType":"uint256"}],"stateMutability":"view"},{"type":"function","name":"omniChainCDSTotalCdsDepositedAmount","inputs":[],"outputs":[{"name":"","type":"uint256","internalType":"uint256"}],"stateMutability":"view"},{"type":"function","name":"owner","inputs":[],"outputs":[{"name":"","type":"address","internalType":"address"}],"stateMutability":"view"},{"type":"function","name":"peers","inputs":[{"name":"eid","type":"uint32","internalType":"uint32"}],"outputs":[{"name":"peer","type":"bytes32","internalType":"bytes32"}],"stateMutability":"view"},{"type":"function","name":"proxiableUUID","inputs":[],"outputs":[{"name":"","type":"bytes32","internalType":"bytes32"}],"stateMutability":"view"},{"type":"function","name":"quote","inputs":[{"name":"_dstEid","type":"uint32","internalType":"uint32"},{"name":"_functionToDo","type":"uint8","internalType":"enum CDS.FunctionToDo"},{"name":"optionsFeesToGetFromOtherChain","type":"uint256","internalType":"uint256"},{"name":"cdsAmountToGetFromOtherChain","type":"uint256","internalType":"uint256"},{"name":"liqAmountToGetFromOtherChain","type":"uint256","internalType":"uint256"},{"name":"liquidationInfo","type":"tuple","internalType":"struct CDS.LiquidationInfo","components":[{"name":"liquidationAmount","type":"uint128","internalType":"uint128"},{"name":"profits","type":"uint128","internalType":"uint128"},{"name":"ethAmount","type":"uint128","internalType":"uint128"},{"name":"availableLiquidationAmount","type":"uint256","internalType":"uint256"}]},{"name":"liqIndex","type":"uint128","internalType":"uint128"},{"name":"_options","type":"bytes","internalType":"bytes"},{"name":"_payInLzToken","type":"bool","internalType":"bool"}],"outputs":[{"name":"fee","type":"tuple","internalType":"struct MessagingFee","components":[{"name":"nativeFee","type":"uint256","internalType":"uint256"},{"name":"lzTokenFee","type":"uint256","internalType":"uint256"}]}],"stateMutability":"view"},{"type":"function","name":"redeemUSDT","inputs":[{"name":"_usdaAmount","type":"uint128","internalType":"uint128"},{"name":"usdaPrice","type":"uint64","internalType":"uint64"},{"name":"usdtPrice","type":"uint64","internalType":"uint64"}],"outputs":[],"stateMutability":"payable"},{"type":"function","name":"renounceOwnership","inputs":[],"outputs":[],"stateMutability":"nonpayable"},{"type":"function","name":"setAdmin","inputs":[{"name":"_admin","type":"address","internalType":"address"}],"outputs":[],"stateMutability":"nonpayable"},{"type":"function","name":"setBorrowLiquidation","inputs":[{"name":"_address","type":"address","internalType":"address"}],"outputs":[],"stateMutability":"nonpayable"},{"type":"function","name":"setBorrowingContract","inputs":[{"name":"_address","type":"address","internalType":"address"}],"outputs":[],"stateMutability":"nonpayable"},{"type":"function","name":"setDelegate","inputs":[{"name":"_delegate","type":"address","internalType":"address"}],"outputs":[],"stateMutability":"nonpayable"},{"type":"function","name":"setDstEid","inputs":[{"name":"_eid","type":"uint32","internalType":"uint32"}],"outputs":[],"stateMutability":"nonpayable"},{"type":"function","name":"setPeer","inputs":[{"name":"_eid","type":"uint32","internalType":"uint32"},{"name":"_peer","type":"bytes32","internalType":"bytes32"}],"outputs":[],"stateMutability":"nonpayable"},{"type":"function","name":"setTreasury","inputs":[{"name":"_treasury","type":"address","internalType":"address"}],"outputs":[],"stateMutability":"nonpayable"},{"type":"function","name":"setUSDaLimit","inputs":[{"name":"percent","type":"uint8","internalType":"uint8"}],"outputs":[],"stateMutability":"nonpayable"},{"type":"function","name":"setUsdtLimit","inputs":[{"name":"amount","type":"uint64","internalType":"uint64"}],"outputs":[],"stateMutability":"nonpayable"},{"type":"function","name":"setWithdrawTimeLimit","inputs":[{"name":"_timeLimit","type":"uint64","internalType":"uint64"}],"outputs":[],"stateMutability":"nonpayable"},{"type":"function","name":"totalAvailableLiquidationAmount","inputs":[],"outputs":[{"name":"","type":"uint256","internalType":"uint256"}],"stateMutability":"view"},{"type":"function","name":"totalCdsDepositedAmount","inputs":[],"outputs":[{"name":"","type":"uint256","internalType":"uint256"}],"stateMutability":"view"},{"type":"function","name":"transferOwnership","inputs":[{"name":"newOwner","type":"address","internalType":"address"}],"outputs":[],"stateMutability":"nonpayable"},{"type":"function","name":"updateLiquidationInfo","inputs":[{"name":"index","type":"uint128","internalType":"uint128"},{"name":"liquidationData","type":"tuple","internalType":"struct CDS.LiquidationInfo","components":[{"name":"liquidationAmount","type":"uint128","internalType":"uint128"},{"name":"profits","type":"uint128","internalType":"uint128"},{"name":"ethAmount","type":"uint128","internalType":"uint128"},{"name":"availableLiquidationAmount","type":"uint256","internalType":"uint256"}]}],"outputs":[],"stateMutability":"nonpayable"},{"type":"function","name":"updateTotalAvailableLiquidationAmount","inputs":[{"name":"amount","type":"uint256","internalType":"uint256"}],"outputs":[],"stateMutability":"nonpayable"},{"type":"function","name":"updateTotalCdsDepositedAmount","inputs":[{"name":"_amount","type":"uint128","internalType":"uint128"}],"outputs":[],"stateMutability":"nonpayable"},{"type":"function","name":"updateTotalCdsDepositedAmountWithOptionFees","inputs":[{"name":"_amount","type":"uint128","internalType":"uint128"}],"outputs":[],"stateMutability":"nonpayable"},{"type":"function","name":"upgradeToAndCall","inputs":[{"name":"newImplementation","type":"address","internalType":"address"},{"name":"data","type":"bytes","internalType":"bytes"}],"outputs":[],"stateMutability":"payable"},{"type":"function","name":"usdaLimit","inputs":[],"outputs":[{"name":"","type":"uint8","internalType":"uint8"}],"stateMutability":"view"},{"type":"function","name":"usdtAmountDepositedTillNow","inputs":[],"outputs":[{"name":"","type":"uint256","internalType":"uint256"}],"stateMutability":"view"},{"type":"function","name":"usdtLimit","inputs":[],"outputs":[{"name":"","type":"uint64","internalType":"uint64"}],"stateMutability":"view"},{"type":"function","name":"withdraw","inputs":[{"name":"_index","type":"uint64","internalType":"uint64"}],"outputs":[],"stateMutability":"payable"},{"type":"event","name":"Deposit","inputs":[{"name":"user","type":"address","indexed":false,"internalType":"address"},{"name":"index","type":"uint64","indexed":false,"internalType":"uint64"},{"name":"depositedUSDa","type":"uint128","indexed":false,"internalType":"uint128"},{"name":"depositedUSDT","type":"uint128","indexed":false,"internalType":"uint128"},{"name":"depositedTime","type":"uint256","indexed":false,"internalType":"uint256"},{"name":"ethPriceAtDeposit","type":"uint128","indexed":false,"internalType":"uint128"},{"name":"lockingPeriod","type":"uint128","indexed":false,"internalType":"uint128"},{"name":"liquidationAmount","type":"uint128","indexed":false,"internalType":"uint128"},{"name":"optedForLiquidation","type":"bool","indexed":false,"internalType":"bool"}],"anonymous":false},{"type":"event","name":"Initialized","inputs":[{"name":"version","type":"uint64","indexed":false,"internalType":"uint64"}],"anonymous":false},{"type":"event","name":"OwnershipTransferred","inputs":[{"name":"previousOwner","type":"address","indexed":true,"internalType":"address"},{"name":"newOwner","type":"address","indexed":true,"internalType":"address"}],"anonymous":false},{"type":"event","name":"PeerSet","inputs":[{"name":"eid","type":"uint32","indexed":false,"internalType":"uint32"},{"name":"peer","type":"bytes32","indexed":false,"internalType":"bytes32"}],"anonymous":false},{"type":"event","name":"Upgraded","inputs":[{"name":"implementation","type":"address","indexed":true,"internalType":"address"}],"anonymous":false},{"type":"event","name":"Withdraw","inputs":[{"name":"user","type":"address","indexed":false,"internalType":"address"},{"name":"index","type":"uint64","indexed":false,"internalType":"uint64"},{"name":"withdrawUSDa","type":"uint256","indexed":false,"internalType":"uint256"},{"name":"withdrawTime","type":"uint256","indexed":false,"internalType":"uint256"},{"name":"withdrawETH","type":"uint128","indexed":false,"internalType":"uint128"},{"name":"ethPriceAtWithdraw","type":"uint128","indexed":false,"internalType":"uint128"},{"name":"optionsFees","type":"uint256","indexed":false,"internalType":"uint256"},{"name":"optionsFeesWithdrawn","type":"uint256","indexed":false,"internalType":"uint256"}],"anonymous":false},{"type":"error","name":"AddressEmptyCode","inputs":[{"name":"target","type":"address","internalType":"address"}]},{"type":"error","name":"AddressInsufficientBalance","inputs":[{"name":"account","type":"address","internalType":"address"}]},{"type":"error","name":"ERC1967InvalidImplementation","inputs":[{"name":"implementation","type":"address","internalType":"address"}]},{"type":"error","name":"ERC1967NonPayable","inputs":[]},{"type":"error","name":"EndPointUnavailable","inputs":[]},{"type":"error","name":"FailedInnerCall","inputs":[]},{"type":"error","name":"InvalidDelegate","inputs":[]},{"type":"error","name":"InvalidEndpointCall","inputs":[]},{"type":"error","name":"InvalidInitialization","inputs":[]},{"type":"error","name":"InvalidOptionType","inputs":[{"name":"optionType","type":"uint16","internalType":"uint16"}]},{"type":"error","name":"LzTokenUnavailable","inputs":[]},{"type":"error","name":"NoPeer","inputs":[{"name":"eid","type":"uint32","internalType":"uint32"}]},{"type":"error","name":"NotEnoughNative","inputs":[{"name":"msgValue","type":"uint256","internalType":"uint256"}]},{"type":"error","name":"NotInitializing","inputs":[]},{"type":"error","name":"OnlyEndpoint","inputs":[{"name":"addr","type":"address","internalType":"address"}]},{"type":"error","name":"OnlyPeer","inputs":[{"name":"eid","type":"uint32","internalType":"uint32"},{"name":"sender","type":"bytes32","internalType":"bytes32"}]},{"type":"error","name":"OwnableInvalidOwner","inputs":[{"name":"owner","type":"address","internalType":"address"}]},{"type":"error","name":"OwnableUnauthorizedAccount","inputs":[{"name":"account","type":"address","internalType":"address"}]},{"type":"error","name":"ReentrancyGuardReentrantCall","inputs":[]},{"type":"error","name":"SafeCastOverflowedUintDowncast","inputs":[{"name":"bits","type":"uint8","internalType":"uint8"},{"name":"value","type":"uint256","internalType":"uint256"}]},{"type":"error","name":"SafeERC20FailedOperation","inputs":[{"name":"token","type":"address","internalType":"address"}]},{"type":"error","name":"UUPSUnauthorizedCallContext","inputs":[]},{"type":"error","name":"UUPSUnsupportedProxiableUUID","inputs":[{"name":"slot","type":"bytes32","internalType":"bytes32"}]}],"bytecode":{"object":"0x60a0806040523461002b5730608052615c3d9081620000318239608051818181610d370152610e6f0152f35b600080fdfe6080604052600436101561001257600080fd5b60003560e01c80630d14c92e146102e757806313137d65146102e257806317442b70146102dd5780632bb2ea62146102d85780633400288b146102d35780633b449b31146102ce57806341eddbbd146102c957806346696df3146102c45780634721bae8146102bf5780634baf580d146102ba5780634cae95d3146102b55780634f1ef286146102b057806352d1902d146102ab5780635e280f11146102a65780636f71ccb1146102a1578063704b6c021461029c578063715018a614610297578063750f0acc1461029257806376a3fb3e1461028d57806378fdaf3f146102885780637bf5e245146102835780637d25a05e1461027e57806382413eac14610279578063868c10d214610274578063880e8e3b1461026f5780638da5cb5b1461026a578063a4cdc59714610265578063a736596c14610260578063ad2930341461025b578063ad3cb1cc14610256578063b3013d4d14610251578063b87c3dc31461024c578063bb0b6a5314610247578063ca5eb5e114610242578063cc2a9a5b1461023d578063d4f113e614610238578063dabd360a14610233578063dc55b1931461022e578063dc91e75214610229578063df6f05e714610224578063ef543d5c1461021f578063f0f442601461021a578063f2fde38b14610215578063f57ff39c146102105763ff7bd03d1461020b57600080fd5b612e2b565b612e01565b612dd4565b612ce3565b612c33565b612bd2565b612bb4565b612b4c565b612aa5565b612a87565b612914565b612898565b61285d565b61266c565b6125d3565b61258d565b6123c0565b61227c565b612230565b6121fa565b6121a9565b61207c565b61201e565b611ff7565b611ef3565b611e89565b611e6b565b611047565b610fd9565b610f14565b610ef0565b610ec7565b610e5c565b610cf5565b610b02565b610a86565b6109a4565b6107e5565b61069c565b61058b565b610504565b6104e6565b6104c4565b6103d8565b6102ff565b63ffffffff8116036102fa57565b600080fd5b346102fa5760203660031901126102fa5763ffffffff600435610321816102ec565b61033660018060a01b03600654163314613229565b1680156103505763ffffffff19601f541617601f55600080f35b60405162461bcd60e51b81526020600482015260116024820152704549442063616e2774206265207a65726f60781b6044820152606490fd5b60609060031901126102fa57600490565b9181601f840112156102fa578235916001600160401b0383116102fa57602083818601950101116102fa57565b6001600160a01b038116036102fa57565b60e03660031901126102fa576103ed36610389565b6001600160401b036084358181116102fa5761040d90369060040161039a565b9161041960a4356103c7565b60c4359081116102fa5761043190369060040161039a565b50506015546001600160a01b031633036104a15761045661045184615307565b61550a565b92602081013580940361046f5761046d8383615427565b005b6104798491615307565b60405163309afaf360e21b815263ffffffff9190911660048201526024810191909152604490fd5b6040516391ac5e4f60e01b8152336004820152602490fd5b60009103126102fa57565b346102fa5760003660031901126102fa57604080516001815260026020820152f35b346102fa5760003660031901126102fa576020600b54604051908152f35b346102fa5760403660031901126102fa577f238399d427b947898edb290f5ff0f9109849b1c3ba196a42e35f00c50a54b98b600435610542816102ec565b6024359061054e615962565b63ffffffff8116600052601660205281604060002055610586604051928392836020909392919363ffffffff60408201951681520152565b0390a1005b346102fa5760403660031901126102fa576004356105a8816103c7565b602435906105b5826103c7565b6006546001600160a01b039182916105d09083163314613229565b6105d861599b565b16801561068a57601580546001600160a01b0319166001600160a01b0390921691909117905581161561067857601554610622906001600160a01b03165b6001600160a01b031690565b803b156102fa5760405163ca5eb5e160e01b81526001600160a01b0383166004820152906000908290602490829084905af180156106735761066057005b8061066d61046d92610b70565b806104b9565b6130b6565b604051632d618d8160e21b8152600490fd5b604051638ad182f960e01b8152600490fd5b346102fa5760203660031901126102fa5760043560ff81168082036102fa576106d060018060a01b03600654163314613229565b15610776576004546106ea906001600160a01b0316610616565b604051631f71924f60e31b8152600860048201529190602090839060249082906000905af19182156106735761046d9261072c91600091610748575b50613222565b600e5460ff60801b191660809190911b60ff60801b1617600e55565b610769915060203d811161076f575b6107618183610c2c565b81019061320a565b38610726565b503d610757565b60405162461bcd60e51b815260206004820152601860248201527755534461206c696d69742063616e2774206265207a65726f60401b6044820152606490fd5b6001600160801b038116036102fa57565b35906107d2826107b6565b565b6001600160401b038116036102fa57565b60603660031901126102fa576004356107fd816107b6565b602435610809816107d4565b60443590610816826107d4565b61081e6159ca565b600480546040516326d2a55160e21b8152600692810192909252909390602090859060249082906000906001600160a01b03165af193841561067357610876946108719160009161088d575b501561326e565b6146ec565b61046d6001600080516020615bc883398151915255565b6108a5915060203d811161076f576107618183610c2c565b3861086a565b916101a06107d29294936101c08101956108ce8282516001600160401b03169052565b602081015160208301526108f2604082015160408401906001600160401b03169052565b6060810151606083015261090f6080820151608084019015159052565b60a0818101516001600160801b03169083015260c0818101516001600160801b03169083015260e08181015115159083015261010081810151151590830152610120818101516001600160801b031690830152610140818101516001600160801b031690830152610160818101516001600160801b031690830152610180809101519082015201906001600160401b03169052565b346102fa5760403660031901126102fa576004356109c1816103c7565b610a73610a6d610a60610a5a6024356109d9816107d4565b6040516109e581610b88565b6101806000918281528260208201528260408201528260608201528260808201528260a08201528260c08201528260e08201528261010082015282610120820152826101408201528261016082015201526001610a418761218f565b01906001600160401b0316600052602052604060002090565b9361218f565b546001600160401b031690565b91615200565b610a82604051928392836108ab565b0390f35b346102fa5760203660031901126102fa57600435610aa3816107b6565b600154610ac590336001600160a01b0391821614908115610af4575b50614b04565b60018060801b0316600c54818103908111610aef57600c55601a54908103908111610aef57601a55005b6130d8565b905060175416331438610abf565b346102fa5760203660031901126102fa5760015460043590610b3890336001600160a01b0391821614908115610af45750614b04565b600d54818103908111610aef57600d55601b54908103908111610aef57601b55005b634e487b7160e01b600052604160045260246000fd5b6001600160401b038111610b8357604052565b610b5a565b6101a081019081106001600160401b03821117610b8357604052565b608081019081106001600160401b03821117610b8357604052565b604081019081106001600160401b03821117610b8357604052565b60e081019081106001600160401b03821117610b8357604052565b606081019081106001600160401b03821117610b8357604052565b61022081019081106001600160401b03821117610b8357604052565b90601f801991011681019081106001600160401b03821117610b8357604052565b604051906107d282610ba4565b604051906107d282610bbf565b6040519060a082018281106001600160401b03821117610b8357604052565b604051906107d282610b88565b6001600160401b038111610b8357601f01601f191660200190565b81601f820112156102fa57803590610cc582610c93565b92610cd36040519485610c2c565b828452602083830101116102fa57816000926020809301838601378301015290565b60403660031901126102fa576004803590610d0f826103c7565b6024356001600160401b0381116102fa57610d2d9036908301610cae565b6001600160a01b037f00000000000000000000000000000000000000000000000000000000000000008116308114908115610e40575b50610e2f579060208392610d75615962565b6040516352d1902d60e01b8152938491829088165afa60009281610dff575b50610dc2575050604051634c9c8ce360e01b81526001600160a01b0390921690820190815281906020010390fd5b8383600080516020615ba88339815191528403610de35761046d83836159fa565b604051632a87526960e21b815290810184815281906020010390fd5b610e2191935060203d8111610e28575b610e198183610c2c565b81019061340e565b9138610d94565b503d610e0f565b60405163703e46dd60e11b81528390fd5b905081600080516020615ba88339815191525416141538610d63565b346102fa5760003660031901126102fa577f00000000000000000000000000000000000000000000000000000000000000006001600160a01b03163003610eb5576020604051600080516020615ba88339815191528152f35b60405163703e46dd60e11b8152600490fd5b346102fa5760003660031901126102fa576015546040516001600160a01b039091168152602090f35b346102fa5760003660031901126102fa57602060ff600e5460801c16604051908152f35b346102fa5760203660031901126102fa57600435610f31816103c7565b610f39615962565b6001600160a01b038116151580610fcb575b610f5490613191565b600454610f69906001600160a01b0316610616565b604051631f71924f60e31b81526004808201529190602090839060249082906000905af19182156106735761046d92610fa9916000916107485750613222565b600680546001600160a01b0319166001600160a01b0392909216919091179055565b50803b151560011415610f4b565b346102fa5760008060031936011261104457610ff3615962565b600080516020615b6883398151915280546001600160a01b0319811690915581906001600160a01b03167f8be0079c531659141344cd1fd0a4f28419497f9722a3daafe3b4186f6b6457e08280a380f35b80fd5b60203660031901126102fa5761105e6004356107d4565b6110666159ca565b6000602060018060a01b03600454166024604051809481936326d2a55160e21b8352600560048401525af18015610673576110a991600091611e5257501561326e565b6001600160401b036110d06110c0610a603361218f565b82600435169283911610156140f0565b6110f66110f060046110e881356001610a413361218f565b015460ff1690565b1561414a565b6001600160401b03421690611141826001600160401b03611139611124610a606004356001610a413361218f565b600a5460401c6001600160401b03169061418a565b1611156141a5565b611164600461115681356001610a413361218f565b01805460ff19166001179055565b60016001600160401b0361117a610a603361218f565b16149081611e47575b50611e09575b6111916130fd565b906111a66001600160801b03831615156134d4565b61120c6111f26111e760086111c26004356001610a413361218f565b0154601e546111e1906001600160801b03165b6001600160801b031690565b906133af565b64e8d4a51000900490565b600161120460043582610a413361218f565b01549061421e565b9061122a82600161122360043582610a413361218f565b015461347b565b9161127d61123782614c94565b9284600361124c6004356001610a413361218f565b015560026112616004356001610a413361218f565b01906001600160401b03166001600160401b0319825416179055565b61128d6112886157c3565b6157dd565b936112c9856112a1601f5463ffffffff1690565b856112aa610c4d565b91600083526000602084015260006040840152600060608401526151b5565b946000946112ee60056112e36004356001610a413361218f565b015460881c60ff1690565b15611c1b5761131e906113186111d560066113106004356001610a413361218f565b015460801c90565b9061421e565b936004602061133761061660015460018060a01b031690565b604051631360632760e21b815292839182905afa90811561067357600091611bec575b5061137f60076113716004356001610a413361218f565b01546001600160801b031690565b6001600160801b03818116908316101561159c575b50505b6002546004906020906113b2906001600160a01b0316610616565b604051639cac625160e01b815292839182905afa9081156106735760009161157d575b506114b4575b9161143f849392600080516020615b8883398151915298611452969461140b6111d560095460018060801b031690565b6001600160801b038616036114a6575b801580611495575b61146c575b601f5463ffffffff16611439613707565b9061503e565b5060405195869542906004353389614498565b0390a161046d6001600080516020615bc883398151915255565b611490600080808061147f87513461421e565b335af161148a61454b565b5061457b565b611428565b506001600160801b038a1615611423565b6114af856140cb565b61141b565b600154909392906114cd906001600160a01b0316610616565b60405163ada0b0ed60e01b81526000600482018190526001600160801b0384166024830152909391602091859160449183915af190811561067357600080516020615b888339815191529861145296611540614e206001600160401b0361143f968a9960009161154e575b5016116144ff565b9395509850929450506113db565b611570915060203d602011611576575b6115688183610c2c565b8101906144ea565b38611538565b503d61155e565b611596915060203d602011610e2857610e198183610c2c565b386113d5565b6115a5906132a3565b6001600160801b038281169082161115611ae25750506115dd6115d76111d560066113106004356001610a413361218f565b8661347b565b6001600160801b038716611a395761161261160d600161160360043582610a413361218f565b0154600b5461421e565b600b55565b611639611634600161162a60043582610a413361218f565b015460195461421e565b601955565b61167361166e611666600161165460043582610a413361218f565b0154611660868a61421e565b9061347b565b600c5461421e565b600c55565b61169c61169761168f87600161122360043582610a413361218f565b601a5461421e565b601a55565b81151560008180611a28575b156119d857506002905b83156119c6575b6118f3575b508060036116d36004356001610a413361218f565b01556002546116ea906001600160a01b0316610616565b803b156102fa57604051635e44fb0560e01b815230600482015260248101839052906000908290604490829084905af18015610673576118e0575b50600054611770906020908390611744906001600160a01b0316610616565b6008546001600160a01b031660006040518096819582946323b872dd60e01b845233906004850161431b565b03925af190811561067357611793916001916000916118c1575b5015151461444c565b866001600160801b0381166117d5575b600080516020615b88833981519152916117cb87808860405195869542906004353389614498565b0390a13880611394565b506002546117eb906001600160a01b0316610616565b803b156102fa5760405163cd0220c960e01b81526001600160801b038916600482015260006024820181905290918290604490829084905af18015610673576118ae575b50600254611845906001600160a01b0316610616565b90813b156102fa57604051635822b66d60e01b81529160009083908183816118718e3360048401613675565b03925af190811561067357600080516020615b8883398151915292899261189b575b5091506117a3565b8061066d6118a892610b70565b38611893565b8061066d6118bb92610b70565b3861182f565b6118da915060203d60201161076f576107618183610c2c565b3861178a565b8061066d6118ed92610b70565b38611725565b6002546119899160809161190f906001600160a01b0316610616565b61191a8c513461421e565b6008546001600160a01b03169290611930610c5a565b6001600160a01b03851681529188602084015261195d61194e610c5a565b6001600160a01b039096168652565b6000196001871b018e16602086015260405163f5dee49360e01b815296879586948593600485016142df565b03925af1801561067357156116be576119b89060803d81116119bf575b6119b08183610c2c565b810190614253565b50386116be565b503d6119a6565b506001600160801b03881615156116b9565b831580611a16575b156119ee57506003906116b2565b908080611a04575b156116b257600491506116b2565b506001600160801b03891615156119f6565b506001600160801b03891615156119e0565b506001600160801b038916156116a8565b611a7761160d611a6f6001611a5460043582610a413361218f565b01546113186111d560066113106004356001610a413361218f565b600b5461421e565b611a9a611634611a926001611a5460043582610a413361218f565b60195461421e565b611abe61166e61166684611ab96001611a5460043582610a413361218f565b61347b565b611add61169761168f87611ab96001611a5460043582610a413361218f565b61169c565b611af860066113106004356001610a413361218f565b6001600160801b038116611b16575b50611b1190614389565b6115a5565b8198611bdf611b8e611be593611b896040611b6e611b5a611b54611b4f611b119b60018060801b03166000526014602052604060002090565b6143a1565b946143e0565b60608501516001600160801b03169061441b565b92611bd1611ba3611b8e86611b89855160018060801b031690565b6143ff565b6402540be4006001600160801b039091160490565b611bcb6006611bb96004356001610a413361218f565b0191611bc6835460801c90565b614433565b90612e90565b01516001600160801b031690565b906132bb565b9790611b07565b611c0e915060203d602011611c14575b611c068183610c2c565b810190613528565b3861135a565b503d611bfc565b9380611d50575b611c3a61160d600161160360043582610a413361218f565b611c4a61166e611666838861421e565b611c62611634600161162a60043582610a413361218f565b611c7161169786601a5461421e565b846003611c856004356001610a413361218f565b0155600254611c9c906001600160a01b0316610616565b803b156102fa57604051635e44fb0560e01b815230600482015260248101879052906000908290604490829084905af1801561067357611d3d575b50600054611cf6906020908790611744906001600160a01b0316610616565b03925af190811561067357611d1991600191600091611d1e575b5015151461433d565b611397565b611d37915060203d60201161076f576107618183610c2c565b38611d10565b8061066d611d4a92610b70565b38611cd7565b600254611dd690608090611d6c906001600160a01b0316610616565b611d778a513461421e565b6008549091906001600160a01b0316611da0611d91610c5a565b6001600160a01b039092168252565b856020820152611dae610c5a565b92600084526000602085015260405180968195829463f5dee49360e01b845260048401614295565b03925af1801561067357611deb575b50611c22565b611e029060803d81116119bf576119b08183610c2c565b5038611de5565b611e42611e26611e21600a546001600160401b031690565b614208565b6001600160401b03166001600160401b0319600a541617600a55565b611189565b600191501438611183565b6108a5915060203d60201161076f576107618183610c2c565b346102fa5760003660031901126102fa576020600f54604051908152f35b346102fa5760203660031901126102fa57600435611ea6816103c7565b611ed260018060a01b03611ebf81600654163314613229565b8216918215159081611ee8575b50614966565b600180546001600160a01b031916919091179055005b90503b151538611ecc565b346102fa5760203660031901126102fa57600435611f10816107d4565b611f2560018060a01b03600654163314613229565b6001600160401b03811615611fb757600454611f49906001600160a01b0316610616565b604051631f71924f60e31b8152600960048201529190602090839060249082906000905af19182156106735761046d92611f8a916000916107485750613222565b600e805467ffffffffffffffff60881b191660889290921b67ffffffffffffffff60881b16919091179055565b60405162461bcd60e51b815260206004820152601860248201527755534454206c696d69742063616e2774206265207a65726f60401b6044820152606490fd5b346102fa5760403660031901126102fa576120136004356102ec565b602060405160008152f35b346102fa5760a03660031901126102fa5761203836610389565b506064356001600160401b0381116102fa5761205890369060040161039a565b50506020608435612068816103c7565b6040516001600160a01b0390911630148152f35b346102fa5760203660031901126102fa57600435612099816107d4565b6120ae60018060a01b03600654163314613229565b6001600160401b03811615612140576004546120d2906001600160a01b0316610616565b604051631f71924f60e31b8152600260048201529190602090839060249082906000905af19182156106735761046d92612113916000916107485750613222565b600a805467ffffffffffffffff60401b191660409290921b67ffffffffffffffff60401b16919091179055565b60405162461bcd60e51b815260206004820152602160248201527f57697468647261772074696d65206c696d69742063616e2774206265207a65726044820152606f60f81b6064820152608490fd5b6001600160a01b0316600090815260136020526040902090565b346102fa5760203660031901126102fa576004356121c6816103c7565b60018060a01b031660005260136020526040806000205460ff8251916001600160401b0381168352831c1615156020820152f35b346102fa5760003660031901126102fa57600080516020615b68833981519152546040516001600160a01b039091168152602090f35b346102fa5760203660031901126102fa5760043561224d816103c7565b61226660018060a01b03611ebf81600654163314613229565b601780546001600160a01b031916919091179055005b346102fa5760003660031901126102fa576020601b54604051908152f35b6024359060038210156102fa57565b359060038210156102fa57565b60809060a31901126102fa57604051906122cf82610ba4565b8160a4356122dc816107b6565b815260c4356122ea816107b6565b602082015260e4356122fb816107b6565b6040820152606061010435910152565b60809060231901126102fa576040519061232482610ba4565b81602435612331816107b6565b815260443561233f816107b6565b6020820152606435612350816107b6565b60408201526060608435910152565b91908260809103126102fa5760405161237781610ba4565b60608082948035612387816107b6565b84526020810135612397816107b6565b602085015260408101356123aa816107b6565b60408501520135910152565b801515036102fa57565b346102fa576101803660031901126102fa576004356123de816102ec565b6123e661229a565b6123ef366122b6565b9161012435906123fe826107b6565b61014435936001600160401b0385116102fa576124c6612462946124296124e2973690600401610cae565b612470610164359261243a846123b6565b6124426149ad565b506040988998895197889360843590606435906044359060208801614ed0565b03601f198101865285610c2c565b6124786149ad565b5060155461248e906001600160a01b0316610616565b936124988661550a565b6124af6124a3610c67565b63ffffffff9098168852565b602087015286860152606085015215156080840152565b82518080968194631bb8518b60e31b8352309060048401615556565b03915afa90811561067357610a8292600092612516575b505191829182815181526020918201519181019190915260400190565b816125379293503d841161253e575b61252f8183610c2c565b810190615542565b90386124f9565b503d612525565b60005b8381106125585750506000910152565b8181015183820152602001612548565b9060209161258181518092818552858086019101612545565b601f01601f1916010190565b346102fa5760003660031901126102fa57610a826040516125ad81610bbf565b60058152640352e302e360dc1b6020820152604051918291602083526020830190612568565b346102fa5760a03660031901126102fa576004356125f0816107b6565b600260606125fd3661230b565b60015461261e90336001600160a01b0391821614908115610af45750614b04565b60018060801b0380941660005260146020526126656040600020946126468184511687612e71565b6126568160208501511687612e90565b60408301511660018601612e71565b0151910155005b60203660031901126102fa57600435612684816107b6565b6001546126a590336001600160a01b0391821614908115610af45750614b04565b600b54600c54601a54601e5491939092916004906001600160801b03166002546020906126da906001600160a01b0316610616565b6040516354dec33960e11b815293849182905afa908115610673576060956127559360009361283d575b5060405163bbfefd7360e01b81526001600160801b0395861660048201526024810196909652604486019790975260648501969096529482166084840152931660a4820152918290819060c4820190565b038173__$f36c2562f94d083e3ab2b3584d2e5eda55$__5af4908115610673576127b09160009081908290612801575b601e80546001600160801b0319166001600160801b0390921691909117905590915061166e90601a55565b61046d6127be6112886157c3565b601f5463ffffffff166127f2826127d3610c4d565b60008152600060208201526000604082015260006060820152836150e2565b906127fb613707565b90614f8c565b50505061166e61282a6116979260603d8111612836575b6128228183610c2c565b810190614b81565b91935083925090612785565b503d612818565b61285691935060203d8111611c1457611c068183610c2c565b9138612704565b346102fa5760203660031901126102fa5763ffffffff60043561287f816102ec565b1660005260166020526020604060002054604051908152f35b346102fa5760006020366003190112611044576004356128b7816103c7565b6128bf615962565b6015546001600160a01b0390811691839190833b156129105760249083604051958694859363ca5eb5e160e01b85521660048401525af1801561067357612904575080f35b61290d90610b70565b80f35b8280fd5b346102fa5760c03660031901126102fa57600435612931816103c7565b6024359061293e826103c7565b60443561294a816103c7565b606435612956816103c7565b60843590612963826103c7565b60a43592612970846103c7565b600080516020615be883398151915254956001600160401b0360ff8860401c1615971680159081612a7f575b6001149081612a75575b159081612a6c575b50612a5a57600080516020615be8833981519152805467ffffffffffffffff191660011790556129e29587612a3557612ecf565b6129e857005b600080516020615be8833981519152805460ff60401b19169055604051600181527fc7f505b2f371ae2175ee4913f4499e1f2633a7b5936321eed1cdaeb6115181d2908060208101610586565b600080516020615be8833981519152805460ff60401b1916600160401b179055612ecf565b60405163f92ee8a960e01b8152600490fd5b905015386129ae565b303b1591506129a6565b88915061299c565b346102fa5760003660031901126102fa576020601954604051908152f35b60a03660031901126102fa57600435612abd816107b6565b602435612ac9816107b6565b604435612ad5816123b6565b60643590612ae2826107b6565b60843592612aef846107b6565b612af76159ca565b600480546040516326d2a55160e21b815280830192909252909590602090879060249082906000906001600160a01b03165af19586156106735761087696612b479160009161088d57501561326e565b61375d565b346102fa5760203660031901126102fa57600435612b69816107b6565b600154612b8a90336001600160a01b0391821614908115610af45750614b04565b60018060801b0316600b54818103908111610aef57600b55601954908103908111610aef57601955005b346102fa5760003660031901126102fa576020600d54604051908152f35b346102fa5760003660031901126102fa5760206001600160401b03600a5416604051908152f35b6107d2909291926040806080830195805184526001600160401b036020820151166020850152015191019060208091805184520151910152565b6101a03660031901126102fa57600435612c4c816102ec565b612c5461229a565b612c5d366122b6565b9061012435612c6b816107b6565b6040366101431901126102fa5760405190612c8582610bbf565b61014435825261016435602083015261018435936001600160401b0385116102fa57610a8295612cbc612cd7963690600401610cae565b94612cc5614d10565b50608435916064359160443591614d38565b60405191829182612bf9565b346102fa5760203660031901126102fa57600435612d00816103c7565b6006546001600160a01b0390612d199082163314613229565b811680151580612dca575b612d2d90614966565b600454612d42906001600160a01b0316610616565b604051631f71924f60e31b8152600660048201529290602090849060249082906000905af190811561067357612d86612da89261046d956000916107485750613222565b600880546001600160a01b0319166001600160a01b0392909216919091179055565b600280546001600160a01b0319166001600160a01b0392909216919091179055565b50813b1515612d24565b346102fa5760203660031901126102fa5761046d600435612df4816103c7565b612dfc615962565b6158ee565b346102fa5760003660031901126102fa5760206001600160401b03600e5460881c16604051908152f35b346102fa5760603660031901126102fa576020612e4736610389565b63ffffffff8135612e57816102ec565b166000526016825260406000205482604051920135148152f35b80546001600160801b0319166001600160801b03909216919091179055565b80546001600160801b031660809290921b6001600160801b031916919091179055565b60115460ff60801b191690151560801b60ff60801b1617601155565b949092612edb336158ee565b612ee361599b565b612eeb61599b565b6001600160a01b03948516801561068a57601580546001600160a01b0319166001600160a01b039092169190911790558482161561067857601554612f38906001600160a01b0316610616565b803b156102fa5760405163ca5eb5e160e01b81526001600160a01b039390931660048401526000908390602490829084905af180156106735785612ff094612fac826130129a8197612fce9661308c575b5060008054919092166001600160a01b03166001600160a01b0319909116179055565b60058054919092166001600160a01b03166001600160a01b0319909116179055565b60048054919092166001600160a01b03166001600160a01b0319909116179055565b60038054919092166001600160a01b03166001600160a01b0319909116179055565b61303f61301d6130fd565b600980546001600160801b0319166001600160801b0392909216919091179055565b600980546001600160801b0319608082901b166001600160801b03909116179055601e80546001600160801b03191664e8d4a510001790556011805460ff60801b1916600160801b179055565b8061066d61309992610b70565b38612f89565b519069ffffffffffffffffffff821682036102fa57565b6040513d6000823e3d90fd5b634e487b7160e01b600052601260045260246000fd5b634e487b7160e01b600052601160045260246000fd5b81156130f8570490565b6130c2565b600354604051633fabe5a360e21b81529060a090829060049082906001600160a01b03165afa90811561067357600091613145575b50620f424090046001600160801b031690565b9060a0823d8211613189575b8161315e60a09383610c2c565b8101031261104457506131708161309f565b5061318260806020830151920161309f565b5038613132565b3d9150613151565b1561319857565b60405162461bcd60e51b815260206004820152602e60248201527f41646d696e2063616e277420626520636f6e747261637420616464726573732060448201526d26207a65726f206164647265737360901b6064820152608490fd5b634e487b7160e01b600052602160045260246000fd5b908160209103126102fa575161321f816123b6565b90565b156102fa57565b1561323057565b60405162461bcd60e51b815260206004820152601660248201527521b0b63632b91034b9903737ba1030b71030b236b4b760511b6044820152606490fd5b1561327557565b60405162461bcd60e51b815260206004820152600660248201526514185d5cd95960d21b6044820152606490fd5b6001600160801b0390811660010191908211610aef57565b6001600160801b039182169082160191908211610aef57565b156132db57565b60405162461bcd60e51b815260206004820152602160248201527f4465706f73697420616d6f756e742073686f756c64206e6f74206265207a65726044820152606f60f81b6064820152608490fd5b1561333157565b60405162461bcd60e51b815260206004820152603660248201527f4c69717569646174696f6e20616d6f756e742063616e27742067726561746572604482015275081d1a185b8819195c1bdcda5d195908185b5bdd5b9d60521b6064820152608490fd5b9064e8d4a5100091828102928184041490151715610aef57565b81810292918115918404141715610aef57565b156133c957565b60405162461bcd60e51b815260206004820152601c60248201527f5265717569726564205553446120616d6f756e74206e6f74206d6574000000006044820152606490fd5b908160209103126102fa575190565b1561342457565b60405162461bcd60e51b815260206004820152602960248201527f496e73756666696369656e7420555344612062616c616e63652077697468206d60448201526839b39739b2b73232b960b91b6064820152608490fd5b91908201809211610aef57565b1561348f57565b60405162461bcd60e51b815260206004820152601b60248201527f31303025206f6620616d6f756e74206d757374206265205553445400000000006044820152606490fd5b156134db57565b60405162461bcd60e51b815260206004820152600d60248201526c13dc9858db194811985a5b1959609a1b6044820152606490fd5b6001600160401b03809116908114610aef5760010190565b908160209103126102fa575161321f816107b6565b1561354457565b60405162461bcd60e51b815260206004820152602960248201527f496e73756666696369656e7420555344542062616c616e63652077697468206d60448201526839b39739b2b73232b960b91b6064820152608490fd5b6001600160a01b039182168152911660208201526001600160801b03909116604082015260600190565b156135cc57565b60405162461bcd60e51b815260206004820152602360248201527f55534454205472616e73666572206661696c656420696e20434453206465706f6044820152621cda5d60ea1b6064820152608490fd5b1561362457565b60405162461bcd60e51b815260206004820152602360248201527f55534461205472616e73666572206661696c656420696e20434453206465706f6044820152621cda5d60ea1b6064820152608490fd5b6001600160a01b0390911681526001600160801b03909116602082015260400190565b1561369f57565b60405162461bcd60e51b815260206004820152602b60248201527f55534461206d696e7420746f207472656173757279206661696c656420696e2060448201526a10d114c819195c1bdcda5d60aa1b6064820152608490fd5b6003111561370257565b6131f4565b6040519061371482610bda565b6018546001600160401b031682526019546020830152601a546040830152601b546060830152601c546080830152601d5460a0830152601e546001600160801b031660c0830152565b9290919361376e6111d584866132bb565b6137798115156132d4565b6001600160801b039061379084831682101561332a565b600f5491600e54926001600160401b0393848160881c169081831060001461401857506137c0838a16809361347b565b11613fdd57613a1d83613a188a966137df6138d697613a389614613488565b6139ec6139e7876137ee6130fd565b9a6137fc828d1615156134d4565b61381961381561380b3361218f565b5460401c60ff1690565b1590565b15613f935761383d61382a3361218f565b805460ff60401b1916600160401b179055565b61385d6138493361218f565b805467ffffffffffffffff19166001179055565b6138fc8c600460019d8e613884611e2661387f600a546001600160401b031690565b613510565b6138b861389c61387f6018546001600160401b031690565b6001600160401b03166001600160401b03196018541617601855565b8b60016138c98382610a413361218f565b01556001610a413361218f565b018054610100600160881b03191660089290921b610100600160881b0316919091179055565b6139286139088d614a00565b8051613922906020906001600160801b0316920151151590565b90614bc7565b601154613954908c9060059061394e906001600160801b03165b926001610a413361218f565b01612e71565b61398c8b600561396d61394260115460ff9060801c1690565b018054909160ff60801b1990911690151560801b60ff60801b16179055565b61399b61160d88600b5461347b565b6139aa61166e88600c5461347b565b6139b96116348860195461347b565b6139c861169788601a5461347b565b6139de6139d9838316600f5461347b565b600f55565b16601c5461347b565b601c55565b42166139fd876001610a413361218f565b906001600160401b03166001600160401b0319825416179055565b613395565b601e54613a32906001600160801b03166111d5565b906130ee565b6008613a49846001610a413361218f565b015587613a7f816005613a61866001610a413361218f565b01805460ff60881b191691151560881b60ff60881b16919091179055565b613ec0575b600954613a99906001600160801b03166111d5565b81841603613eb2575b86811615801591908280613ea7575b15613d805750600554613acc906001600160a01b0316610616565b6040516370a0823160e01b81523360048201529091602082602481865afa90811561067357613b0792600092613d5f575b508a16111561353d565b600854600090602090613b3e906001600160a01b0316938b6040519485809481936323b872dd60e01b998a8452336004850161359b565b03925af190811561067357613ba692613b6860016020948c94600091613d42575b501515146135c5565b600054613b7d906001600160a01b0316610616565b6008549091906000906001600160a01b031691604051968795869485938452336004850161359b565b03925af190811561067357613bc991600191600091613d23575b5015151461361d565b613c69575b91613c6493917f135b90494e4bfddd44112e8e67fd1a5958d33a1944a77f8a4b1ac6e945e684da9793613c056127be6112886157c3565b50604080513381526001600160401b0390921660208301526001600160801b03978816908201529686166060880152426080880152851660a0870152841660c08601529290921660e08401529015156101008301528190610120820190565b0390a1565b9591613cb19391602087613c8761061660005460018060a01b031690565b6008546001600160a01b03166000604051809a819582946340c10f1960e01b845260048401613675565b03925af197881561067357613cf860017f135b90494e4bfddd44112e8e67fd1a5958d33a1944a77f8a4b1ac6e945e684da9a613c6498600091613d04575b50151514613698565b91939750919350613bce565b613d1d915060203d60201161076f576107618183610c2c565b38613cef565b613d3c915060203d60201161076f576107618183610c2c565b38613bc0565b613d599150863d881161076f576107618183610c2c565b38613b5f565b613d7991925060203d602011610e2857610e198183610c2c565b9038613afd565b15613df65750600054613dcf906020908890613da4906001600160a01b0316610616565b6008546001600160a01b031660006040518096819582946323b872dd60e01b8452336004850161359b565b03925af190811561067357613df191600191600091613d23575015151461361d565b613bc9565b600554613e0b906001600160a01b0316610616565b6040516370a0823160e01b815233600482015291602083602481855afa91821561067357613da46020938c93613e4d96600092613e88575b508416111561353d565b03925af190811561067357613df191600191600091613e6f57501515146135c5565b613d59915060203d60201161076f576107618183610c2c565b613ea0919250863d8811610e2857610e198183610c2c565b9038613e43565b508188161515613ab1565b613ebb836140cb565b613aa2565b600154600490602090613edb906001600160a01b0316610616565b604051631360632760e21b815292839182905afa801561067357613f1391600091613f74575b50600761394e856001610a413361218f565b613f2e856006613f28856001610a413361218f565b01612e90565b613f4385600661394e856001610a413361218f565b613f59613f54828716600d5461347b565b600d55565b613f6f613f6a828716601b5461347b565b601b55565b613a84565b613f8d915060203d602011611c1457611c068183610c2c565b38613f01565b6138fc8c6004613fa23361218f565b613fd6613fb961387f83546001600160401b031690565b825467ffffffffffffffff19166001600160401b03821617909255565b9d8e6138b8565b60405162461bcd60e51b815260206004820152601360248201527214dd5c9c1b1d5cc81554d11508185b5bdd5b9d606a1b6044820152606490fd5b614038925061403191509360ff81969560801c166133af565b6064900490565b614047828816918210156133c2565b60005461405c906001600160a01b0316610616565b6040516370a0823160e01b81523360048201529190602090839060249082905afa94851561067357613a186138d6956140a8613a1d948d99613a38976000916140ad575b50101561341d565b6137df565b6140c5915060203d8111610e2857610e198183610c2c565b386140a0565b6009805460801b6001600160801b0319166001600160801b0392909216919091179055565b156140f757565b60405162461bcd60e51b815260206004820152602560248201527f7573657220646f65736e277420686176652074686520737065636966696564206044820152640d2dcc8caf60db1b6064820152608490fd5b1561415157565b60405162461bcd60e51b815260206004820152601160248201527020b63932b0b23c903bb4ba34323930bbb760791b6044820152606490fd5b9190916001600160401b0380809416911601918211610aef57565b156141ac57565b60405162461bcd60e51b815260206004820152602e60248201527f63616e6e6f74207769746864726177206265666f72652074686520776974686460448201526d1c985dc81d1a5b59481b1a5b5a5d60921b6064820152608490fd5b6001600160401b03168015610aef576000190190565b91908203918211610aef57565b91908260409103126102fa5760405161424381610bbf565b6020808294805184520151910152565b906080828203126102fa5761428d90604080519361427085610bf5565b805185526020810151614282816107d4565b60208601520161422b565b604082015290565b6002815281516001600160a01b031660208083019190915290910151604082015260a0810192916107d2916060905b82516001600160a01b03169101908152602091820151910152565b9392909160a085019460058410156137025792835280516001600160a01b0316602080850191909152015160408301526107d2916060906142c4565b6001600160a01b03918216815291166020820152604081019190915260600190565b1561434457565b60405162461bcd60e51b815260206004820152601f60248201527f5472616e73666572206661696c656420696e20636473207769746864726177006044820152606490fd5b6001600160801b03908116908114610aef5760010190565b906040516143ae81610ba4565b82546001600160801b03808216835260809190911c602083015260018401541660408201526002909201546060830152565b6001600160801b039081166402540be4000290811691908203610aef57565b6001600160801b039182169082160290811691908203610aef57565b6001600160801b03918216919082156130f857160490565b6001600160801b039182169082160391908211610aef57565b1561445357565b60405162461bcd60e51b815260206004820152601e60248201527f5472616e7373756363657373656420696e2063647320776974686472617700006044820152606490fd5b94926001600160401b0360e097939a999895929a61010088019b60018060a01b031688521660208701526040860152606085015260018060801b0380921660808501521660a083015260c08201520152565b908160209103126102fa575161321f816107d4565b1561450657565b60405162461bcd60e51b815260206004820152601b60248201527f4344533a204e6f7420656e6f7567682066756e6420696e2043445300000000006044820152606490fd5b3d15614576573d9061455c82610c93565b9161456a6040519384610c2c565b82523d6000602084013e565b606090565b1561458257565b60405162461bcd60e51b81526020600482015260146024820152732330b4b632b2103a379039b2b7321022ba3432b960611b6044820152606490fd5b156145c557565b60405162461bcd60e51b8152602060048201526019602482015278416d6f756e742073686f756c64206e6f74206265207a65726f60381b6044820152606490fd5b1561460d57565b60405162461bcd60e51b8152602060048201526014602482015273496e73756666696369656e742062616c616e636560601b6044820152606490fd5b1561465057565b60405162461bcd60e51b815260206004820152601e60248201527f55534461204275726e206661696c656420696e2072656465656d5553445400006044820152606490fd5b1561469c57565b60405162461bcd60e51b815260206004820152602260248201527f55534454205472616e73666572206661696c656420696e2072656465656d5553604482015261111560f21b6064820152608490fd5b90916001600160801b03821691906147058315156145be565b6000805490949061471e906001600160a01b0316610616565b6040516370a0823160e01b8152336004820152602095918690829060249082905afa91821561067357614762816147839461477e948b91614949575b501015614606565b6147766147718260105461347b565b601055565b601d5461347b565b601d55565b8454614797906001600160a01b0316610616565b8460405180926363a9f09360e11b82528189816147b88a3360048401613675565b03925af1938415610673576147e060016147f8966147f0948a9161492c575b50151514614649565b6001600160401b038093166143ff565b91169061441b565b600254909290614810906001600160a01b0316610616565b92833b156149285781604051809563e613610560e01b8252818381614839873060048401613675565b03925af190811561067357614890948492614915575b50600554614865906001600160a01b0316610616565b6008546001600160a01b0316846040518098819582946323b872dd60e01b845233906004850161359b565b03925af180156106735760016148b4916148f59584916148f8575b50151514614695565b6127f26148c26112886157c3565b80936148d3601f5463ffffffff1690565b93806148dd610c4d565b928184528301528060408301526060820152836150e2565b50565b61490f9150853d871161076f576107618183610c2c565b386148ab565b8061066d61492292610b70565b3861484f565b5080fd5b6149439150893d8b1161076f576107618183610c2c565b386147d7565b61496091508a3d8c11610e2857610e198183610c2c565b3861475a565b1561496d57565b60405162461bcd60e51b8152602060048201526018602482015277125b9c1d5d081859191c995cdcc81a5cc81a5b9d985b1a5960421b6044820152606490fd5b604051906149ba82610bbf565b60006020838281520152565b908160409103126102fa576020604051916149e083610bbf565b80516149eb816107b6565b835201516149f8816123b6565b602082015290565b600490614a0b6149ad565b50600254602090614a24906001600160a01b0316610616565b6040516340d86d7b60e01b815293849182905afa91821561067357600092614ae1575b50600b546009546040805163083fa09560e11b81526001600160801b0394851660048201526024810193909352928116604483015260801c606482015260848101929092528160a48173__$f36c2562f94d083e3ab2b3584d2e5eda55$__5af490811561067357600091614ab9575090565b61321f915060403d8111614ada575b614ad28183610c2c565b8101906149c6565b503d614ac8565b6040919250614afd9060203d8111610e2857610e198183610c2c565b9190614a47565b15614b0b57565b60405162461bcd60e51b815260206004820152604260248201527f546869732066756e6374696f6e2063616e206f6e6c792063616c6c656420627960448201527f20626f72726f77696e67206f72204c69717569646174696f6e20636f6e74726160648201526118dd60f21b608482015260a490fd5b908160609103126102fa578051916040602083015192015161321f816107b6565b91908260409103126102fa5760208251614bbb816123b6565b92015161321f816107b6565b60115460408051632142426760e01b81526001600160801b0393841660048201529315156024850152608082901c60ff1615156044850152911660648301528160848173__$f36c2562f94d083e3ab2b3584d2e5eda55$__5af4908115610673576107d2916000918291614c60575b50601180546001600160801b0319166001600160801b03909216919091179055612eb3565b612eb3565b614c5b9250614c86915060403d8111614c8d575b614c7e8183610c2c565b810190614ba2565b9091614c36565b503d614c74565b600b54601954600c5490601a549260405194630a1f144d60e01b86526004860152602485015260448401526064830152608482015260208160a48173__$f36c2562f94d083e3ab2b3584d2e5eda55$__5af490811561067357600091614cf8575090565b61321f915060203d8111610e2857610e198183610c2c565b60405190614d1d82610bf5565b8160008152600060208201526040614d336149ad565b910152565b969561321f9895614d76929395614d8495614d6760018060a01b0380600154163314908115610af45750614b04565b60405197889660208801614ed0565b03601f198101835282610c2c565b33936155c4565b9060038210156137025752565b6060809160018060801b0380825116855280602083015116602086015260408201511660408501520151910152565b60018152610200810192916000916101e091614e47906018546001600160401b031660208401526019546040840152601a546060840152601b546080840152601c5460a0840152601d5460c0840152601e546001600160801b031660e0840152846101008401528461012084015284610140840152610160830190614d98565b0152565b6101e090614e476000939594610200830196614e678460029052565b6018546001600160401b031660208501526019546040850152601a546060850152601b546080850152601c5460a0850152601d5460c0850152601e546001600160801b031660e08501526101008401528461012084015284610140840152610160830190614d98565b9194614f57919796946101e0946107d297614ef08661020081019c614d8b565b6018546001600160401b031660208701526019546040870152601a546060870152601b546080870152601c5460a0870152601d5460c0870152601e546001600160801b031660e0870152610100860152610120850152610140840152610160830190614d98565b6001600160801b03909216910152565b60405190614f7482610ba4565b60006060838281528260208201528260408201520152565b91909261321f93614f9b614d10565b5061502a614fa7614f67565b60405160016020820152926001600160401b0381511660408501526020810151606085015260408101516080850152606081015160a0850152608081015160c085015260a081015160e085015260c060018060801b0391015116610100840152600061012084015260006101408401526000610160840152610180830190614d98565b6102006000818301528152614d8481610c10565b92919061502a61321f9592615051614d10565b5061505a614f67565b906040519361506c6020860160029052565b6001600160401b0381511660408601526020810151606086015260408101516080860152606081015160a0860152608081015160c086015260a081015160e086015260c060018060801b039101511661010085015261012084015260006101408401526000610160840152610180830190614d98565b906151889161510a615118946150f66149ad565b506040958694855193849160208301614dc7565b03601f198101845283610c2c565b6151206149ad565b50601554615136906001600160a01b0316610616565b916151408461550a565b61515761514b610c67565b63ffffffff9096168652565b60208501528484015260608301526000608083015282518080958194631bb8518b60e31b8352309060048401615556565b03915afa9182156106735760009261519f57505090565b61321f9250803d1061253e5761252f8183610c2c565b61518892615118946151c56149ad565b50604095869461510a865194859260208401614e4b565b9060606002916151f960018060801b036126468184511687612e71565b0151910155565b90600861520b610c86565b9261522d61522082546001600160401b031690565b6001600160401b03168552565b6001810154602085015261525e61524e60028301546001600160401b031690565b6001600160401b03166040860152565b60038101546060850152600481015460ff8116151560808601526152e990831c6001600160801b0390811660a087015260058301546001600160801b038282161660c08801526152c79060ff90608081901c8216151560e08a015260881c161515610100880152565b60068301549081166001600160801b031661012087015260801c610140860152565b60078101546001600160801b03166101608501520154610180830152565b3561321f816102ec565b8082039261020084126102fa5760e0615329836122a9565b94601f1901126102fa5760405161533f81610bda565b602083013561534d816107d4565b815260408301356020820152606083013560408201526080830135606082015260a0830135608082015260c083013560a082015260e083013561538f816107b6565b60c082015292610100830135926101208101359261321f6101e06153bd61014085013595610160860161235f565b93016107c7565b6001600160401b038151166001600160401b0319601854161760185560208101516019556040810151601a556060810151601b556080810151601c5560a0810151601d5560c060018060801b039101511660018060801b0319601e541617601e55565b6154709160405161543781610bda565b60c06000918281528260208201528260408201528260608201528260808201528260a08201520152615467614f67565b50810190615311565b90929561547c816136f8565b600181036154935750505050506107d291506153c4565b8061549f6002926136f8565b146154ad575b505050505050565b6154db613f546154f5936154d361160d6154ff9a611a6f61166e6154fa9b600c5461421e565b600d5461421e565b6001600160801b0316600090815260146020526040902090565b6151dc565b6153c4565b3880808080806154a5565b63ffffffff1680600052601660205260406000205490811561552a575090565b6024906040519063f6ff4fb760e01b82526004820152fd5b906040828203126102fa5761321f9161422b565b906020909392936040835263ffffffff815116604084015281810151606084015260806155aa615594604084015160a08488015260e0870190612568565b6060840151868203603f190160a0880152612568565b910151151560c08401526001600160a01b03909416910152565b60809361563661565296946155d7614d10565b5060206155e4845161568f565b930190815180615680575b50601554615605906001600160a01b0316610616565b9561560f8661550a565b925115159261561f6124a3610c67565b602087015260408601526060850152151586840152565b6040518096819582946302637a4560e41b845260048401615556565b03925af190811561067357600091615668575090565b61321f915060803d81116119bf576119b08183610c2c565b615689906156b1565b386155ef565b8034106156995790565b6040516304fb820960e51b8152346004820152602490fd5b60155460405163393f876560e21b81526001600160a01b039182169260209290918381600481885afa9081156106735760009161578d575b501692831561577b5760008091614d7661571e61573395604051928391898301956323b872dd60e01b8752336024850161431b565b519082875af161572c61454b565b9084615ab8565b8051918215159283615762575b50505061574a5750565b60249060405190635274afe760e01b82526004820152fd5b615772935082018101910161320a565b15388080615740565b6040516329b99a9560e11b8152600490fd5b908482813d83116157bc575b6157a38183610c2c565b810103126110445750516157b6816103c7565b386156e9565b503d615799565b604051600360f01b60208201526002815261321f81610bbf565b61ffff906003826157ed83615b1b565b160361588d57604051610c3560861b6020820152601081529061580f82610bbf565b60038361581b83615b1b565b160361586b57815183811161584c578316600101928311610aef57614d7661321f9260405194859360208501615899565b604490604051906306dfcc6560e41b8252601060048301526024820152fd5b82615877602492615b1b565b604051633a51740d60e01b815291166004820152fd5b90615877602492615b1b565b6020906158b0600495949382815194859201612545565b600160f81b910181815260f09290921b6001600160f01b031916600183015260038201528151916158e990839085840190602001612545565b010190565b6001600160a01b0390811690811561594957600080516020615b6883398151915280546001600160a01b031981168417909155167f8be0079c531659141344cd1fd0a4f28419497f9722a3daafe3b4186f6b6457e0600080a3565b604051631e4fbdf760e01b815260006004820152602490fd5b600080516020615b68833981519152546001600160a01b0316330361598357565b60405163118cdaa760e01b8152336004820152602490fd5b60ff600080516020615be88339815191525460401c16156159b857565b604051631afcd79f60e31b8152600490fd5b600080516020615bc883398151915260028154146159e85760029055565b604051633ee5aeb560e01b8152600490fd5b90813b15615a7d57600080516020615ba883398151915280546001600160a01b0319166001600160a01b0384169081179091557fbc7cd75a20ee27fd9adebab32041f755214dbc6bffa90cc0225b39da2e5c2d3b600080a2805115615a62576148f591615a9e565b505034615a6b57565b60405163b398979f60e01b8152600490fd5b604051634c9c8ce360e01b81526001600160a01b0383166004820152602490fd5b60008061321f93602081519101845af4615ab661454b565b915b90615adf5750805115615acd57805190602001fd5b604051630a12f52160e11b8152600490fd5b81511580615b12575b615af0575090565b604051639996b31560e01b81526001600160a01b039091166004820152602490fd5b50803b15615ae8565b6002815110615b2b576002015190565b60405162461bcd60e51b8152602060048201526014602482015273746f55696e7431365f6f75744f66426f756e647360601b6044820152606490fdfe9016d09d72d40fdae2fd8ceac6b6234c7706214fd39c1cd1e609a0528c199300fec39177008e086efb56cf5eab6824a48fecc42b4cb5acfede2d604e90ddaa94360894a13ba1a3210667c828492db98dca3e2076cc3735a920a3ca505d382bbc9b779b17422d0df92223018b32b4d1fa46e071723d6817e2486d003becc55f00f0c57e16840df040f15088dc2f81fe391c3923bec73e23a9662efc9c229c6a00a2646970667358221220b2906f8332361f2bf9f2b45b6ea8e0da0cbee15fd1c4b8ba48fc6390d6e7d89a64736f6c63430008140033","linkReferences":{"contracts/lib/CDSLib.sol":{"CDSLib":[{"start":10122,"length":20},{"start":19139,"length":20},{"start":19517,"length":20},{"start":19714,"length":20}]}}},"methodIdentifiers":{"UPGRADE_INTERFACE_VERSION()":"ad3cb1cc","allowInitializePath((uint32,bytes32,uint64))":"ff7bd03d","calculateCumulativeRate(uint128)":"b87c3dc3","callLzSendFromExternal(uint32,uint8,uint256,uint256,uint256,(uint128,uint128,uint128,uint256),uint128,(uint256,uint256),bytes)":"ef543d5c","cdsCount()":"df6f05e7","cdsDetails(address)":"880e8e3b","deposit(uint128,uint128,bool,uint128,uint128)":"dabd360a","endpoint()":"5e280f11","getCDSDepositDetails(address,uint64)":"4721bae8","initialize(address,address,address,address,address,address)":"cc2a9a5b","isComposeMsgSender((uint32,bytes32,uint64),bytes,address)":"82413eac","lzReceive((uint32,bytes32,uint64),bytes32,bytes,address,bytes)":"13137d65","nextNonce(uint32,bytes32)":"7d25a05e","oAppVersion()":"17442b70","oApp_init(address,address)":"3b449b31","omniChainCDSTotalAvailableLiquidationAmount()":"a736596c","omniChainCDSTotalCdsDepositedAmount()":"d4f113e6","owner()":"8da5cb5b","peers(uint32)":"bb0b6a53","proxiableUUID()":"52d1902d","quote(uint32,uint8,uint256,uint256,uint256,(uint128,uint128,uint128,uint256),uint128,bytes,bool)":"ad293034","redeemUSDT(uint128,uint64,uint64)":"46696df3","renounceOwnership()":"715018a6","setAdmin(address)":"704b6c02","setBorrowLiquidation(address)":"a4cdc597","setBorrowingContract(address)":"78fdaf3f","setDelegate(address)":"ca5eb5e1","setDstEid(uint32)":"0d14c92e","setPeer(uint32,bytes32)":"3400288b","setTreasury(address)":"f0f44260","setUSDaLimit(uint8)":"41eddbbd","setUsdtLimit(uint64)":"7bf5e245","setWithdrawTimeLimit(uint64)":"868c10d2","totalAvailableLiquidationAmount()":"dc91e752","totalCdsDepositedAmount()":"2bb2ea62","transferOwnership(address)":"f2fde38b","updateLiquidationInfo(uint128,(uint128,uint128,uint128,uint256))":"b3013d4d","updateTotalAvailableLiquidationAmount(uint256)":"4cae95d3","updateTotalCdsDepositedAmount(uint128)":"dc55b193","updateTotalCdsDepositedAmountWithOptionFees(uint128)":"4baf580d","upgradeToAndCall(address,bytes)":"4f1ef286","usdaLimit()":"6f71ccb1","usdtAmountDepositedTillNow()":"76a3fb3e","usdtLimit()":"f57ff39c","withdraw(uint64)":"750f0acc"},"storageLayout":{"storage":[{"astId":4212,"contract":"contracts/Core_logic/CDS.sol:CDSV2","label":"usda","offset":0,"slot":"0","type":"t_contract(IUSDa)3698"},{"astId":4215,"contract":"contracts/Core_logic/CDS.sol:CDSV2","label":"borrowing","offset":0,"slot":"1","type":"t_contract(IBorrowing)3068"},{"astId":4218,"contract":"contracts/Core_logic/CDS.sol:CDSV2","label":"treasury","offset":0,"slot":"2","type":"t_contract(ITreasury)3571"},{"astId":4221,"contract":"contracts/Core_logic/CDS.sol:CDSV2","label":"dataFeed","offset":0,"slot":"3","type":"t_contract(AggregatorV3Interface)4360"},{"astId":4224,"contract":"contracts/Core_logic/CDS.sol:CDSV2","label":"multiSign","offset":0,"slot":"4","type":"t_contract(IMultiSign)3106"},{"astId":4227,"contract":"contracts/Core_logic/CDS.sol:CDSV2","label":"usdt","offset":0,"slot":"5","type":"t_contract(IERC20)8464"},{"astId":4229,"contract":"contracts/Core_logic/CDS.sol:CDSV2","label":"admin","offset":0,"slot":"6","type":"t_address"},{"astId":4231,"contract":"contracts/Core_logic/CDS.sol:CDSV2","label":"borrowingContract","offset":0,"slot":"7","type":"t_address"},{"astId":4233,"contract":"contracts/Core_logic/CDS.sol:CDSV2","label":"treasuryAddress","offset":0,"slot":"8","type":"t_address"},{"astId":4235,"contract":"contracts/Core_logic/CDS.sol:CDSV2","label":"lastEthPrice","offset":0,"slot":"9","type":"t_uint128"},{"astId":4237,"contract":"contracts/Core_logic/CDS.sol:CDSV2","label":"fallbackEthPrice","offset":16,"slot":"9","type":"t_uint128"},{"astId":4239,"contract":"contracts/Core_logic/CDS.sol:CDSV2","label":"cdsCount","offset":0,"slot":"10","type":"t_uint64"},{"astId":4241,"contract":"contracts/Core_logic/CDS.sol:CDSV2","label":"withdrawTimeLimit","offset":8,"slot":"10","type":"t_uint64"},{"astId":4243,"contract":"contracts/Core_logic/CDS.sol:CDSV2","label":"totalCdsDepositedAmount","offset":0,"slot":"11","type":"t_uint256"},{"astId":4245,"contract":"contracts/Core_logic/CDS.sol:CDSV2","label":"totalCdsDepositedAmountWithOptionFees","offset":0,"slot":"12","type":"t_uint256"},{"astId":4247,"contract":"contracts/Core_logic/CDS.sol:CDSV2","label":"totalAvailableLiquidationAmount","offset":0,"slot":"13","type":"t_uint256"},{"astId":4249,"contract":"contracts/Core_logic/CDS.sol:CDSV2","label":"lastCumulativeRate","offset":0,"slot":"14","type":"t_uint128"},{"astId":4251,"contract":"contracts/Core_logic/CDS.sol:CDSV2","label":"usdaLimit","offset":16,"slot":"14","type":"t_uint8"},{"astId":4253,"contract":"contracts/Core_logic/CDS.sol:CDSV2","label":"usdtLimit","offset":17,"slot":"14","type":"t_uint64"},{"astId":4255,"contract":"contracts/Core_logic/CDS.sol:CDSV2","label":"usdtAmountDepositedTillNow","offset":0,"slot":"15","type":"t_uint256"},{"astId":4257,"contract":"contracts/Core_logic/CDS.sol:CDSV2","label":"burnedUSDaInRedeem","offset":0,"slot":"16","type":"t_uint256"},{"astId":4259,"contract":"contracts/Core_logic/CDS.sol:CDSV2","label":"cumulativeValue","offset":0,"slot":"17","type":"t_uint128"},{"astId":4261,"contract":"contracts/Core_logic/CDS.sol:CDSV2","label":"cumulativeValueSign","offset":16,"slot":"17","type":"t_bool"},{"astId":4263,"contract":"contracts/Core_logic/CDS.sol:CDSV2","label":"PRECISION","offset":0,"slot":"18","type":"t_uint128"},{"astId":4265,"contract":"contracts/Core_logic/CDS.sol:CDSV2","label":"RATIO_PRECISION","offset":16,"slot":"18","type":"t_uint128"},{"astId":4270,"contract":"contracts/Core_logic/CDS.sol:CDSV2","label":"cdsDetails","offset":0,"slot":"19","type":"t_mapping(t_address,t_struct(CdsDetails)4176_storage)"},{"astId":4275,"contract":"contracts/Core_logic/CDS.sol:CDSV2","label":"omniChainCDSLiqIndexToInfo","offset":0,"slot":"20","type":"t_mapping(t_uint128,t_struct(LiquidationInfo)4190_storage)"},{"astId":4902,"contract":"contracts/Core_logic/CDS.sol:CDSV2","label":"endpoint","offset":0,"slot":"21","type":"t_contract(ILayerZeroEndpointV2)6178"},{"astId":4906,"contract":"contracts/Core_logic/CDS.sol:CDSV2","label":"peers","offset":0,"slot":"22","type":"t_mapping(t_uint32,t_bytes32)"},{"astId":36,"contract":"contracts/Core_logic/CDS.sol:CDSV2","label":"borrowLiquidation","offset":0,"slot":"23","type":"t_address"},{"astId":42,"contract":"contracts/Core_logic/CDS.sol:CDSV2","label":"omniChainCDS","offset":0,"slot":"24","type":"t_struct(OmniChainCDSData)4205_storage"},{"astId":44,"contract":"contracts/Core_logic/CDS.sol:CDSV2","label":"dstEid","offset":0,"slot":"31","type":"t_uint32"}],"types":{"t_address":{"encoding":"inplace","label":"address","numberOfBytes":"20"},"t_bool":{"encoding":"inplace","label":"bool","numberOfBytes":"1"},"t_bytes32":{"encoding":"inplace","label":"bytes32","numberOfBytes":"32"},"t_contract(AggregatorV3Interface)4360":{"encoding":"inplace","label":"contract AggregatorV3Interface","numberOfBytes":"20"},"t_contract(IBorrowing)3068":{"encoding":"inplace","label":"contract IBorrowing","numberOfBytes":"20"},"t_contract(IERC20)8464":{"encoding":"inplace","label":"contract IERC20","numberOfBytes":"20"},"t_contract(ILayerZeroEndpointV2)6178":{"encoding":"inplace","label":"contract ILayerZeroEndpointV2","numberOfBytes":"20"},"t_contract(IMultiSign)3106":{"encoding":"inplace","label":"contract IMultiSign","numberOfBytes":"20"},"t_contract(ITreasury)3571":{"encoding":"inplace","label":"contract ITreasury","numberOfBytes":"20"},"t_contract(IUSDa)3698":{"encoding":"inplace","label":"contract IUSDa","numberOfBytes":"20"},"t_mapping(t_address,t_struct(CdsDetails)4176_storage)":{"encoding":"mapping","key":"t_address","label":"mapping(address => struct CDS.CdsDetails)","numberOfBytes":"32","value":"t_struct(CdsDetails)4176_storage"},"t_mapping(t_uint128,t_struct(LiquidationInfo)4190_storage)":{"encoding":"mapping","key":"t_uint128","label":"mapping(uint128 => struct CDS.LiquidationInfo)","numberOfBytes":"32","value":"t_struct(LiquidationInfo)4190_storage"},"t_mapping(t_uint32,t_bytes32)":{"encoding":"mapping","key":"t_uint32","label":"mapping(uint32 => bytes32)","numberOfBytes":"32","value":"t_bytes32"},"t_mapping(t_uint64,t_struct(CdsAccountDetails)4166_storage)":{"encoding":"mapping","key":"t_uint64","label":"mapping(uint64 => struct CDS.CdsAccountDetails)","numberOfBytes":"32","value":"t_struct(CdsAccountDetails)4166_storage"},"t_struct(CdsAccountDetails)4166_storage":{"encoding":"inplace","label":"struct CDS.CdsAccountDetails","numberOfBytes":"288","members":[{"astId":4141,"contract":"contracts/Core_logic/CDS.sol:CDSV2","label":"depositedTime","offset":0,"slot":"0","type":"t_uint64"},{"astId":4143,"contract":"contracts/Core_logic/CDS.sol:CDSV2","label":"depositedAmount","offset":0,"slot":"1","type":"t_uint256"},{"astId":4145,"contract":"contracts/Core_logic/CDS.sol:CDSV2","label":"withdrawedTime","offset":0,"slot":"2","type":"t_uint64"},{"astId":4147,"contract":"contracts/Core_logic/CDS.sol:CDSV2","label":"withdrawedAmount","offset":0,"slot":"3","type":"t_uint256"},{"astId":4149,"contract":"contracts/Core_logic/CDS.sol:CDSV2","label":"withdrawed","offset":0,"slot":"4","type":"t_bool"},{"astId":4151,"contract":"contracts/Core_logic/CDS.sol:CDSV2","label":"depositPrice","offset":1,"slot":"4","type":"t_uint128"},{"astId":4153,"contract":"contracts/Core_logic/CDS.sol:CDSV2","label":"depositValue","offset":0,"slot":"5","type":"t_uint128"},{"astId":4155,"contract":"contracts/Core_logic/CDS.sol:CDSV2","label":"depositValueSign","offset":16,"slot":"5","type":"t_bool"},{"astId":4157,"contract":"contracts/Core_logic/CDS.sol:CDSV2","label":"optedLiquidation","offset":17,"slot":"5","type":"t_bool"},{"astId":4159,"contract":"contracts/Core_logic/CDS.sol:CDSV2","label":"InitialLiquidationAmount","offset":0,"slot":"6","type":"t_uint128"},{"astId":4161,"contract":"contracts/Core_logic/CDS.sol:CDSV2","label":"liquidationAmount","offset":16,"slot":"6","type":"t_uint128"},{"astId":4163,"contract":"contracts/Core_logic/CDS.sol:CDSV2","label":"liquidationindex","offset":0,"slot":"7","type":"t_uint128"},{"astId":4165,"contract":"contracts/Core_logic/CDS.sol:CDSV2","label":"normalizedAmount","offset":0,"slot":"8","type":"t_uint256"}]},"t_struct(CdsDetails)4176_storage":{"encoding":"inplace","label":"struct CDS.CdsDetails","numberOfBytes":"64","members":[{"astId":4168,"contract":"contracts/Core_logic/CDS.sol:CDSV2","label":"index","offset":0,"slot":"0","type":"t_uint64"},{"astId":4170,"contract":"contracts/Core_logic/CDS.sol:CDSV2","label":"hasDeposited","offset":8,"slot":"0","type":"t_bool"},{"astId":4175,"contract":"contracts/Core_logic/CDS.sol:CDSV2","label":"cdsAccountDetails","offset":0,"slot":"1","type":"t_mapping(t_uint64,t_struct(CdsAccountDetails)4166_storage)"}]},"t_struct(LiquidationInfo)4190_storage":{"encoding":"inplace","label":"struct CDS.LiquidationInfo","numberOfBytes":"96","members":[{"astId":4183,"contract":"contracts/Core_logic/CDS.sol:CDSV2","label":"liquidationAmount","offset":0,"slot":"0","type":"t_uint128"},{"astId":4185,"contract":"contracts/Core_logic/CDS.sol:CDSV2","label":"profits","offset":16,"slot":"0","type":"t_uint128"},{"astId":4187,"contract":"contracts/Core_logic/CDS.sol:CDSV2","label":"ethAmount","offset":0,"slot":"1","type":"t_uint128"},{"astId":4189,"contract":"contracts/Core_logic/CDS.sol:CDSV2","label":"availableLiquidationAmount","offset":0,"slot":"2","type":"t_uint256"}]},"t_struct(OmniChainCDSData)4205_storage":{"encoding":"inplace","label":"struct CDS.OmniChainCDSData","numberOfBytes":"224","members":[{"astId":4192,"contract":"contracts/Core_logic/CDS.sol:CDSV2","label":"cdsCount","offset":0,"slot":"0","type":"t_uint64"},{"astId":4194,"contract":"contracts/Core_logic/CDS.sol:CDSV2","label":"totalCdsDepositedAmount","offset":0,"slot":"1","type":"t_uint256"},{"astId":4196,"contract":"contracts/Core_logic/CDS.sol:CDSV2","label":"totalCdsDepositedAmountWithOptionFees","offset":0,"slot":"2","type":"t_uint256"},{"astId":4198,"contract":"contracts/Core_logic/CDS.sol:CDSV2","label":"totalAvailableLiquidationAmount","offset":0,"slot":"3","type":"t_uint256"},{"astId":4200,"contract":"contracts/Core_logic/CDS.sol:CDSV2","label":"usdtAmountDepositedTillNow","offset":0,"slot":"4","type":"t_uint256"},{"astId":4202,"contract":"contracts/Core_logic/CDS.sol:CDSV2","label":"burnedUSDaInRedeem","offset":0,"slot":"5","type":"t_uint256"},{"astId":4204,"contract":"contracts/Core_logic/CDS.sol:CDSV2","label":"lastCumulativeRate","offset":0,"slot":"6","type":"t_uint128"}]},"t_uint128":{"encoding":"inplace","label":"uint128","numberOfBytes":"16"},"t_uint256":{"encoding":"inplace","label":"uint256","numberOfBytes":"32"},"t_uint32":{"encoding":"inplace","label":"uint32","numberOfBytes":"4"},"t_uint64":{"encoding":"inplace","label":"uint64","numberOfBytes":"8"},"t_uint8":{"encoding":"inplace","label":"uint8","numberOfBytes":"1"}}},"id":0}