{"abi":[{"type":"function","name":"UPGRADE_INTERFACE_VERSION","inputs":[],"outputs":[{"name":"","type":"string","internalType":"string"}],"stateMutability":"view"},{"type":"function","name":"allowInitializePath","inputs":[{"name":"origin","type":"tuple","internalType":"struct Origin","components":[{"name":"srcEid","type":"uint32","internalType":"uint32"},{"name":"sender","type":"bytes32","internalType":"bytes32"},{"name":"nonce","type":"uint64","internalType":"uint64"}]}],"outputs":[{"name":"","type":"bool","internalType":"bool"}],"stateMutability":"view"},{"type":"function","name":"calculateCumulativeRate","inputs":[],"outputs":[{"name":"","type":"uint256","internalType":"uint256"}],"stateMutability":"nonpayable"},{"type":"function","name":"calculateRatio","inputs":[{"name":"_amount","type":"uint256","internalType":"uint256"},{"name":"currentEthPrice","type":"uint256","internalType":"uint256"}],"outputs":[{"name":"","type":"uint64","internalType":"uint64"}],"stateMutability":"nonpayable"},{"type":"function","name":"depositTokens","inputs":[{"name":"_strikePercent","type":"uint8","internalType":"enum IOptions.StrikePrice"},{"name":"_strikePrice","type":"uint64","internalType":"uint64"},{"name":"_volatility","type":"uint256","internalType":"uint256"},{"name":"_depositingAmount","type":"uint256","internalType":"uint256"}],"outputs":[],"stateMutability":"payable"},{"type":"function","name":"dummy","inputs":[],"outputs":[{"name":"","type":"uint16","internalType":"uint16"}],"stateMutability":"view"},{"type":"function","name":"endpoint","inputs":[],"outputs":[{"name":"","type":"address","internalType":"contract ILayerZeroEndpointV2"}],"stateMutability":"view"},{"type":"function","name":"getAbondYields","inputs":[{"name":"user","type":"address","internalType":"address"},{"name":"aBondAmount","type":"uint128","internalType":"uint128"}],"outputs":[{"name":"","type":"uint128","internalType":"uint128"},{"name":"","type":"uint256","internalType":"uint256"},{"name":"","type":"uint256","internalType":"uint256"}],"stateMutability":"view"},{"type":"function","name":"getLTV","inputs":[],"outputs":[{"name":"","type":"uint8","internalType":"uint8"}],"stateMutability":"view"},{"type":"function","name":"getUSDValue","inputs":[],"outputs":[{"name":"","type":"uint256","internalType":"uint256"}],"stateMutability":"view"},{"type":"function","name":"initialize","inputs":[{"name":"_tokenAddress","type":"address","internalType":"address"},{"name":"_cds","type":"address","internalType":"address"},{"name":"_abondToken","type":"address","internalType":"address"},{"name":"_multiSign","type":"address","internalType":"address"},{"name":"_priceFeedAddress","type":"address","internalType":"address"},{"name":"chainId","type":"uint64","internalType":"uint64"},{"name":"_endpoint","type":"address","internalType":"address"},{"name":"_delegate","type":"address","internalType":"address"}],"outputs":[],"stateMutability":"nonpayable"},{"type":"function","name":"isComposeMsgSender","inputs":[{"name":"","type":"tuple","internalType":"struct Origin","components":[{"name":"srcEid","type":"uint32","internalType":"uint32"},{"name":"sender","type":"bytes32","internalType":"bytes32"},{"name":"nonce","type":"uint64","internalType":"uint64"}]},{"name":"","type":"bytes","internalType":"bytes"},{"name":"_sender","type":"address","internalType":"address"}],"outputs":[{"name":"","type":"bool","internalType":"bool"}],"stateMutability":"view"},{"type":"function","name":"lastCumulativeRate","inputs":[],"outputs":[{"name":"","type":"uint256","internalType":"uint256"}],"stateMutability":"view"},{"type":"function","name":"liquidate","inputs":[{"name":"user","type":"address","internalType":"address"},{"name":"index","type":"uint64","internalType":"uint64"}],"outputs":[],"stateMutability":"payable"},{"type":"function","name":"lzReceive","inputs":[{"name":"_origin","type":"tuple","internalType":"struct Origin","components":[{"name":"srcEid","type":"uint32","internalType":"uint32"},{"name":"sender","type":"bytes32","internalType":"bytes32"},{"name":"nonce","type":"uint64","internalType":"uint64"}]},{"name":"_guid","type":"bytes32","internalType":"bytes32"},{"name":"_message","type":"bytes","internalType":"bytes"},{"name":"_executor","type":"address","internalType":"address"},{"name":"_extraData","type":"bytes","internalType":"bytes"}],"outputs":[],"stateMutability":"payable"},{"type":"function","name":"nextNonce","inputs":[{"name":"","type":"uint32","internalType":"uint32"},{"name":"","type":"bytes32","internalType":"bytes32"}],"outputs":[{"name":"nonce","type":"uint64","internalType":"uint64"}],"stateMutability":"view"},{"type":"function","name":"oAppVersion","inputs":[],"outputs":[{"name":"senderVersion","type":"uint64","internalType":"uint64"},{"name":"receiverVersion","type":"uint64","internalType":"uint64"}],"stateMutability":"pure"},{"type":"function","name":"oApp_init","inputs":[{"name":"_endpoint","type":"address","internalType":"address"},{"name":"_delegate","type":"address","internalType":"address"}],"outputs":[],"stateMutability":"nonpayable"},{"type":"function","name":"omniChainBorrowingCDSPoolValue","inputs":[],"outputs":[{"name":"","type":"uint256","internalType":"uint256"}],"stateMutability":"view"},{"type":"function","name":"omniChainBorrowingNoOfLiquidations","inputs":[],"outputs":[{"name":"","type":"uint128","internalType":"uint128"}],"stateMutability":"view"},{"type":"function","name":"owner","inputs":[],"outputs":[{"name":"","type":"address","internalType":"address"}],"stateMutability":"view"},{"type":"function","name":"peers","inputs":[{"name":"eid","type":"uint32","internalType":"uint32"}],"outputs":[{"name":"peer","type":"bytes32","internalType":"bytes32"}],"stateMutability":"view"},{"type":"function","name":"proxiableUUID","inputs":[],"outputs":[{"name":"","type":"bytes32","internalType":"bytes32"}],"stateMutability":"view"},{"type":"function","name":"quote","inputs":[{"name":"_dstEid","type":"uint32","internalType":"uint32"},{"name":"_message","type":"tuple","internalType":"struct Borrowing.OmniChainBorrowingData","components":[{"name":"normalizedAmount","type":"uint256","internalType":"uint256"},{"name":"ethVaultValue","type":"uint256","internalType":"uint256"},{"name":"cdsPoolValue","type":"uint256","internalType":"uint256"},{"name":"totalCDSPool","type":"uint256","internalType":"uint256"},{"name":"noOfLiquidations","type":"uint128","internalType":"uint128"},{"name":"ethRemainingInWithdraw","type":"uint256","internalType":"uint256"},{"name":"ethValueRemainingInWithdraw","type":"uint256","internalType":"uint256"},{"name":"nonce","type":"uint64","internalType":"uint64"}]},{"name":"_options","type":"bytes","internalType":"bytes"},{"name":"_payInLzToken","type":"bool","internalType":"bool"}],"outputs":[{"name":"fee","type":"tuple","internalType":"struct MessagingFee","components":[{"name":"nativeFee","type":"uint256","internalType":"uint256"},{"name":"lzTokenFee","type":"uint256","internalType":"uint256"}]}],"stateMutability":"view"},{"type":"function","name":"redeemYields","inputs":[{"name":"user","type":"address","internalType":"address"},{"name":"aBondAmount","type":"uint128","internalType":"uint128"}],"outputs":[{"name":"","type":"uint256","internalType":"uint256"}],"stateMutability":"nonpayable"},{"type":"function","name":"renounceOwnership","inputs":[],"outputs":[],"stateMutability":"nonpayable"},{"type":"function","name":"setAPR","inputs":[{"name":"_ratePerSec","type":"uint128","internalType":"uint128"}],"outputs":[],"stateMutability":"nonpayable"},{"type":"function","name":"setAdmin","inputs":[{"name":"_admin","type":"address","internalType":"address"}],"outputs":[],"stateMutability":"nonpayable"},{"type":"function","name":"setBondRatio","inputs":[{"name":"_bondRatio","type":"uint64","internalType":"uint64"}],"outputs":[],"stateMutability":"nonpayable"},{"type":"function","name":"setBorrowLiquidation","inputs":[{"name":"_borrowLiquidation","type":"address","internalType":"address"}],"outputs":[],"stateMutability":"nonpayable"},{"type":"function","name":"setDelegate","inputs":[{"name":"_delegate","type":"address","internalType":"address"}],"outputs":[],"stateMutability":"nonpayable"},{"type":"function","name":"setDstEid","inputs":[{"name":"_eid","type":"uint32","internalType":"uint32"}],"outputs":[],"stateMutability":"nonpayable"},{"type":"function","name":"setLTV","inputs":[{"name":"_LTV","type":"uint8","internalType":"uint8"}],"outputs":[],"stateMutability":"nonpayable"},{"type":"function","name":"setOptions","inputs":[{"name":"_options","type":"address","internalType":"address"}],"outputs":[],"stateMutability":"nonpayable"},{"type":"function","name":"setPeer","inputs":[{"name":"_eid","type":"uint32","internalType":"uint32"},{"name":"_peer","type":"bytes32","internalType":"bytes32"}],"outputs":[],"stateMutability":"nonpayable"},{"type":"function","name":"setTreasury","inputs":[{"name":"_treasury","type":"address","internalType":"address"}],"outputs":[],"stateMutability":"nonpayable"},{"type":"function","name":"transferOwnership","inputs":[{"name":"newOwner","type":"address","internalType":"address"}],"outputs":[],"stateMutability":"nonpayable"},{"type":"function","name":"updateLastEthVaultValue","inputs":[{"name":"_amount","type":"uint256","internalType":"uint256"}],"outputs":[],"stateMutability":"nonpayable"},{"type":"function","name":"upgradeToAndCall","inputs":[{"name":"newImplementation","type":"address","internalType":"address"},{"name":"data","type":"bytes","internalType":"bytes"}],"outputs":[],"stateMutability":"payable"},{"type":"function","name":"withDraw","inputs":[{"name":"_toAddress","type":"address","internalType":"address"},{"name":"_index","type":"uint64","internalType":"uint64"}],"outputs":[],"stateMutability":"payable"},{"type":"event","name":"Deposit","inputs":[{"name":"user","type":"address","indexed":false,"internalType":"address"},{"name":"index","type":"uint64","indexed":false,"internalType":"uint64"},{"name":"depositedAmount","type":"uint256","indexed":false,"internalType":"uint256"},{"name":"normalizedAmount","type":"uint256","indexed":false,"internalType":"uint256"},{"name":"depositedTime","type":"uint256","indexed":false,"internalType":"uint256"},{"name":"ethPrice","type":"uint128","indexed":false,"internalType":"uint128"},{"name":"borrowAmount","type":"uint256","indexed":false,"internalType":"uint256"},{"name":"strikePrice","type":"uint64","indexed":false,"internalType":"uint64"},{"name":"optionsFees","type":"uint256","indexed":false,"internalType":"uint256"},{"name":"strikePricePercent","type":"uint8","indexed":false,"internalType":"enum IOptions.StrikePrice"}],"anonymous":false},{"type":"event","name":"Initialized","inputs":[{"name":"version","type":"uint64","indexed":false,"internalType":"uint64"}],"anonymous":false},{"type":"event","name":"Liquidate","inputs":[{"name":"index","type":"uint64","indexed":false,"internalType":"uint64"},{"name":"liquidationAmount","type":"uint128","indexed":false,"internalType":"uint128"},{"name":"profits","type":"uint128","indexed":false,"internalType":"uint128"},{"name":"ethAmount","type":"uint128","indexed":false,"internalType":"uint128"},{"name":"availableLiquidationAmount","type":"uint256","indexed":false,"internalType":"uint256"}],"anonymous":false},{"type":"event","name":"OwnershipTransferred","inputs":[{"name":"previousOwner","type":"address","indexed":true,"internalType":"address"},{"name":"newOwner","type":"address","indexed":true,"internalType":"address"}],"anonymous":false},{"type":"event","name":"PeerSet","inputs":[{"name":"eid","type":"uint32","indexed":false,"internalType":"uint32"},{"name":"peer","type":"bytes32","indexed":false,"internalType":"bytes32"}],"anonymous":false},{"type":"event","name":"Upgraded","inputs":[{"name":"implementation","type":"address","indexed":true,"internalType":"address"}],"anonymous":false},{"type":"event","name":"Withdraw","inputs":[{"name":"user","type":"address","indexed":false,"internalType":"address"},{"name":"index","type":"uint64","indexed":false,"internalType":"uint64"},{"name":"withdrawTime","type":"uint256","indexed":false,"internalType":"uint256"},{"name":"withdrawAmount","type":"uint128","indexed":false,"internalType":"uint128"},{"name":"noOfAbond","type":"uint128","indexed":false,"internalType":"uint128"},{"name":"borrowDebt","type":"uint256","indexed":false,"internalType":"uint256"}],"anonymous":false},{"type":"error","name":"AddressEmptyCode","inputs":[{"name":"target","type":"address","internalType":"address"}]},{"type":"error","name":"AddressInsufficientBalance","inputs":[{"name":"account","type":"address","internalType":"address"}]},{"type":"error","name":"Borrowing_DepositFailed","inputs":[]},{"type":"error","name":"Borrowing_GettingETHPriceFailed","inputs":[]},{"type":"error","name":"Borrowing_LiquidateBurnFailed","inputs":[]},{"type":"error","name":"Borrowing_LiquidateEthTransferToCdsFailed","inputs":[]},{"type":"error","name":"Borrowing_WithdrawBurnFailed","inputs":[]},{"type":"error","name":"Borrowing_WithdrawEthTransferFailed","inputs":[]},{"type":"error","name":"Borrowing_WithdrawUSDaTransferFailed","inputs":[]},{"type":"error","name":"Borrowing_abondMintFailed","inputs":[]},{"type":"error","name":"Borrowing_usdaMintFailed","inputs":[]},{"type":"error","name":"ERC1967InvalidImplementation","inputs":[{"name":"implementation","type":"address","internalType":"address"}]},{"type":"error","name":"ERC1967NonPayable","inputs":[]},{"type":"error","name":"EndPointUnavailable","inputs":[]},{"type":"error","name":"FailedInnerCall","inputs":[]},{"type":"error","name":"InvalidDelegate","inputs":[]},{"type":"error","name":"InvalidEndpointCall","inputs":[]},{"type":"error","name":"InvalidInitialization","inputs":[]},{"type":"error","name":"InvalidOptionType","inputs":[{"name":"optionType","type":"uint16","internalType":"uint16"}]},{"type":"error","name":"LzTokenUnavailable","inputs":[]},{"type":"error","name":"NoPeer","inputs":[{"name":"eid","type":"uint32","internalType":"uint32"}]},{"type":"error","name":"NotEnoughNative","inputs":[{"name":"msgValue","type":"uint256","internalType":"uint256"}]},{"type":"error","name":"NotInitializing","inputs":[]},{"type":"error","name":"OnlyEndpoint","inputs":[{"name":"addr","type":"address","internalType":"address"}]},{"type":"error","name":"OnlyPeer","inputs":[{"name":"eid","type":"uint32","internalType":"uint32"},{"name":"sender","type":"bytes32","internalType":"bytes32"}]},{"type":"error","name":"OwnableInvalidOwner","inputs":[{"name":"owner","type":"address","internalType":"address"}]},{"type":"error","name":"OwnableUnauthorizedAccount","inputs":[{"name":"account","type":"address","internalType":"address"}]},{"type":"error","name":"ReentrancyGuardReentrantCall","inputs":[]},{"type":"error","name":"SafeCastOverflowedUintDowncast","inputs":[{"name":"bits","type":"uint8","internalType":"uint8"},{"name":"value","type":"uint256","internalType":"uint256"}]},{"type":"error","name":"SafeERC20FailedOperation","inputs":[{"name":"token","type":"address","internalType":"address"}]},{"type":"error","name":"UUPSUnauthorizedCallContext","inputs":[]},{"type":"error","name":"UUPSUnsupportedProxiableUUID","inputs":[{"name":"slot","type":"bytes32","internalType":"bytes32"}]}],"bytecode":{"object":"0x60a0806040523461002a57306080526153be90816100308239608051818181610b330152610c860152f35b600080fdfe6080604052600436101561001257600080fd5b60003560e01c80630d14c92e1461029757806313137d651461029257806317442b701461028d578063181ab6db14610288578063276eb3ac1461028357806332e43a111461027e5780633400288b146102795780633b449b3114610274578063495b416a1461026f5780634d818c9c1461026a5780634ed2b8ac146102655780634f1ef2861461026057806350593af71461025b57806352d1902d146102565780635e280f1114610251578063661b7d3e1461024c5780636aa2ca3a14610247578063704b6c0214610242578063715018a61461023d5780637d25a05e146102385780637d6dff7d1461023357806380ddebcb1461022e57806382413eac146102295780638da5cb5b146102245780638e4db39a1461021f5780639281b9851461021a578063a4cdc59714610215578063a7d46ab214610210578063aad2476d1461020b578063ab2f40ee14610206578063ad3cb1cc14610201578063ada0b0ed146101fc578063bb0b6a53146101f7578063c1bab32d146101f2578063c2a3bde2146101ed578063ca5eb5e1146101e8578063f0f44260146101e3578063f2fde38b146101de578063f30707e1146101d95763ff7bd03d146101d457600080fd5b6128c7565b611c5a565b611c2d565b611b3b565b611abf565b611aa1565b611a31565b6119f6565b6119c4565b61197e565b611859565b61176b565b6115de565b6114f2565b6112d0565b61128d565b611257565b6111f9565b61110e565b61100b565b610fe4565b610f76565b610eb0565b610df3565b610d07565b610cde565b610c73565b610c58565b610af1565b610acd565b610aa6565b6109da565b6106d8565b610651565b61062f565b6104f7565b6104a8565b610486565b61039a565b6102af565b63ffffffff8116036102aa57565b600080fd5b346102aa5760203660031901126102aa576004356102cc8161029c565b6102e160018060a01b03600954163314612bb0565b63ffffffff81161561031257601b805463ffffffff60a01b191660a09290921b63ffffffff60a01b16919091179055005b60405162461bcd60e51b81526020600482015260116024820152704549442063616e2774206265207a65726f60781b6044820152606490fd5b60609060031901126102aa57600490565b9181601f840112156102aa578235916001600160401b0383116102aa57602083818601950101116102aa57565b6001600160a01b038116036102aa57565b60e03660031901126102aa576103af3661034b565b6001600160401b036084358181116102aa576103cf90369060040161035c565b916103db60a435610389565b60c4359081116102aa576103f390369060040161035c565b50506017546001600160a01b031633036104635761041861041384614c08565b614cfc565b9260208101358094036104315761042f8383614c12565b005b61043b8491614c08565b60405163309afaf360e21b815263ffffffff9190911660048201526024810191909152604490fd5b6040516391ac5e4f60e01b8152336004820152602490fd5b60009103126102aa57565b346102aa5760003660031901126102aa57604080516001815260026020820152f35b346102aa5760003660031901126102aa5760206104c36147f5565b604051908152f35b6001600160401b038116036102aa57565b61010435906104ea826104cb565b565b35906104ea826104cb565b346102aa5760203660031901126102aa57600435610514816104cb565b61052960018060a01b03600954163314612bb0565b6001600160401b038116156105ef57600554610555906001600160a01b03165b6001600160a01b031690565b604051631f71924f60e31b8152600760048201529190602090839060249082906000905af19182156105ea5761042f92610597916000916105bc575b50612c8f565b601280546001600160c01b031660c09290921b6001600160c01b031916919091179055565b6105dd915060203d81116105e3575b6105d5818361085c565b810190612c6e565b38610591565b503d6105cb565b612c83565b60405162461bcd60e51b8152602060048201526018602482015277426f6e6420526174696f2063616e2774206265207a65726f60401b6044820152606490fd5b346102aa5760003660031901126102aa57602061ffff60245416604051908152f35b346102aa5760403660031901126102aa577f238399d427b947898edb290f5ff0f9109849b1c3ba196a42e35f00c50a54b98b60043561068f8161029c565b6024359061069b6150d0565b63ffffffff81166000526018602052816040600020556106d3604051928392836020909392919363ffffffff60408201951681520152565b0390a1005b346102aa5760403660031901126102aa576004356106f581610389565b6024359061070282610389565b6009546001600160a01b0391829161071d9083163314612bb0565b610725615109565b1680156107ca57601780546001600160a01b0319166001600160a01b039092169190911790558116156107b857601754610767906001600160a01b0316610549565b803b156102aa5760405163ca5eb5e160e01b81526001600160a01b0383166004820152906000908290602490829084905af180156105ea576107a557005b806107b261042f926107f2565b8061047b565b604051632d618d8160e21b8152600490fd5b604051638ad182f960e01b8152600490fd5b634e487b7160e01b600052604160045260246000fd5b6001600160401b03811161080557604052565b6107dc565b61010081019081106001600160401b0382111761080557604052565b604081019081106001600160401b0382111761080557604052565b606081019081106001600160401b0382111761080557604052565b90601f801991011681019081106001600160401b0382111761080557604052565b604051906101e082018281106001600160401b0382111761080557604052565b60405190608082018281106001600160401b0382111761080557604052565b6040519060a082018281106001600160401b0382111761080557604052565b6001600160801b038116036102aa57565b60a435906104ea826108db565b9190826101009103126102aa576040516109128161080a565b60e061096981839580358552602081013560208601526040810135604086015260608101356060860152608081013561094a816108db565b608086015260a081013560a086015260c081013560c0860152016104ec565b910152565b6001600160401b03811161080557601f01601f191660200190565b81601f820112156102aa578035906109a08261096e565b926109ae604051948561085c565b828452602083830101116102aa57816000926020809301838601378301015290565b801515036102aa57565b346102aa576101603660031901126102aa576004356109f88161029c565b6101003660231901126102aa5760405190610a128261080a565b6024358252604435602083015260643560408301526084356060830152610a376108ec565b608083015260c43560a083015260e43560c0830152610a546104dc565b60e083015261012435906001600160401b0382116102aa57604092610a80610a94933690600401610989565b906101443592610a8f846109d0565b614b6c565b60208251918051835201516020820152f35b346102aa5760003660031901126102aa57602080546040516001600160801b039091168152f35b346102aa5760003660031901126102aa57602060ff60095460a01c16604051908152f35b60403660031901126102aa576004803590610b0b82610389565b6024356001600160401b0381116102aa57610b299036908301610989565b6001600160a01b037f00000000000000000000000000000000000000000000000000000000000000008116308114908115610c3c575b50610c2b579060208392610b716150d0565b6040516352d1902d60e01b8152938491829088165afa60009281610bfb575b50610bbe575050604051634c9c8ce360e01b81526001600160a01b0390921690820190815281906020010390fd5b83836000805160206153298339815191528403610bdf5761042f8383615168565b604051632a87526960e21b815290810184815281906020010390fd5b610c1d91935060203d8111610c24575b610c15818361085c565b810190612f61565b9138610b90565b503d610c0b565b60405163703e46dd60e11b81528390fd5b9050816000805160206153298339815191525416141538610b5f565b346102aa5760003660031901126102aa5760206104c3614214565b346102aa5760003660031901126102aa577f00000000000000000000000000000000000000000000000000000000000000006001600160a01b03163003610ccc5760206040516000805160206153298339815191528152f35b60405163703e46dd60e11b8152600490fd5b346102aa5760003660031901126102aa576017546040516001600160a01b039091168152602090f35b346102aa5760203660031901126102aa57600754600435906001600160a01b03163303610d9b578015610d4b57601d54908103908111610d4657601d55005b612eea565b60405162461bcd60e51b815260206004820152602260248201527f4c61737420455448207661756c742076616c75652063616e2774206265207a65604482015261726f60f01b6064820152608490fd5b60405162461bcd60e51b815260206004820152602a60248201527f46756e6374696f6e2073686f756c64206f6e6c792062652063616c6c656420626044820152697920747265617375727960b01b6064820152608490fd5b60803660031901126102aa5760043560058110156102aa57602435610e17816104cb565b610e1f615138565b6005546040516326d2a55160e21b8152600060048201819052909391602091859160249183916001600160a01b03165af19283156105ea57610e7b93610e6e91600091610e92575b5015612cf9565b6064359160443591613356565b61042f600160008051602061534983398151915255565b610eaa915060203d81116105e3576105d5818361085c565b38610e67565b346102aa5760203660031901126102aa57600435610ecd81610389565b610ed56150d0565b6001600160a01b038116151580610f68575b610ef090612c96565b600554610f05906001600160a01b0316610549565b604051631f71924f60e31b8152600360048201529190602090839060249082906000905af19182156105ea5761042f92610f46916000916105bc5750612c8f565b600980546001600160a01b0319166001600160a01b0392909216919091179055565b50803b151560011415610ee7565b346102aa57600080600319360112610fe157610f906150d0565b60008051602061530983398151915280546001600160a01b0319811690915581906001600160a01b03167f8be0079c531659141344cd1fd0a4f28419497f9722a3daafe3b4186f6b6457e08280a380f35b80fd5b346102aa5760403660031901126102aa5761100060043561029c565b602060405160008152f35b346102aa5760203660031901126102aa5760043561102881610389565b6009546001600160a01b03906110419082163314612bb0565b81169081151590816110db575b501561107557600480546001600160a01b0319166001600160a01b03909216919091179055005b60405162461bcd60e51b815260206004820152603860248201527f4f7074696f6e73206d75737420626520636f6e7472616374206164647265737360448201527720262063616e2774206265207a65726f206164647265737360401b6064820152608490fd5b90503b15153861104e565b60409060031901126102aa576004356110fe81610389565b9060243561110b816108db565b90565b346102aa57602061111e366110e6565b6000546002546001600160a01b0391821694939161119b911660035461114c906001600160a01b0316610549565b60405163d4222e2b60e01b81526001600160a01b0394851660048201526001600160801b03909516602486015295831660448501528216606484015293166084820152918290819060a4820190565b038173__$87511a64ad1cd7dc6108642f468c9b94de$__5af480156105ea576111d7916000916111db575b506040519081529081906020820190565b0390f35b6111f3915060203d8111610c2457610c15818361085c565b386111c6565b346102aa5760a03660031901126102aa576112133661034b565b506064356001600160401b0381116102aa5761123390369060040161035c565b5050602060843561124381610389565b6040516001600160a01b0390911630148152f35b346102aa5760003660031901126102aa57600080516020615309833981519152546040516001600160a01b039091168152602090f35b346102aa5760003660031901126102aa576020601054604051908152f35b60409060031901126102aa576004356112c381610389565b9060243561110b816104cb565b6112d9366112ab565b60018060a01b03908160055416926040516326d2a55160e21b815260026004820152602081602481600080995af180156105ea5761131e918691610e92575015612cf9565b61132d83600954163314612bb0565b61134683821661133e811515614133565b33141561418b565b61134e6147f5565b508361136061135b614f31565b614f4b565b9261138684611378601b5463ffffffff9060a01c1690565b611380612dd2565b90614a99565b926113c361139e61139960115460801c90565b6141e5565b601180546001600160801b031660809290921b6001600160801b031916919091179055565b6020546113fe906113dc906001600160801b03166141e5565b602080546001600160801b0319166001600160801b0392909216919091179055565b601b5495861690611410855134612fbd565b61142761141b614214565b6001600160401b031690565b6020549098906001600160801b031660105493853b156114ee576040516391ba123160e01b81526001600160a01b039190911660048201526001600160401b0396871660248201529990951660448a01526001600160801b039094166064890152608488019190915260a09290921c63ffffffff1660a4870152859160c4918391905af19283156105ea576114d7936114db575b50601b5460a01c63ffffffff165b6114d1612dd2565b90614983565b5080f35b806107b26114e8926107f2565b386114bb565b8780fd5b346102aa5760203660031901126102aa5760043561150f81610389565b6009546001600160a01b03906115289082163314612bb0565b81169081151590816115d3575b501561155c57601b80546001600160a01b0319166001600160a01b03909216919091179055005b60405162461bcd60e51b815260206004820152604360248201527f426f72726f77204c69717569646174696f6e206d75737420626520636f6e747260448201527f616374206164647265737320262063616e2774206265207a65726f206164647260648201526265737360e81b608482015260a490fd5b90503b151538611535565b346102aa576101003660031901126102aa576004356115fc81610389565b6024359061160982610389565b60443561161581610389565b60643561162181610389565b60843561162d81610389565b60a4359061163a826104cb565b60c4359261164784610389565b60e4359461165486610389565b60008051602061536983398151915254976001600160401b0360ff8a60401c1615991680159081611763575b6001149081611759575b159081611750575b5061173e57600080516020615369833981519152805467ffffffffffffffff191660011790556116c6978961171957612954565b6116cc57005b600080516020615369833981519152805460ff60401b19169055604051600181527fc7f505b2f371ae2175ee4913f4499e1f2633a7b5936321eed1cdaeb6115181d29080602081016106d3565b600080516020615369833981519152805460ff60401b1916600160401b179055612954565b60405163f92ee8a960e01b8152600490fd5b90501538611692565b303b15915061168a565b8a9150611680565b346102aa5760203660031901126102aa5760043560ff81168082036102aa5761179f60018060a01b03600954163314612bb0565b15611820576005546117b9906001600160a01b0316610549565b9060206040518093631f71924f60e31b8252816000816117e160048201906000602083019252565b03925af19182156105ea5761042f92611801916000916105bc5750612c8f565b6009805460ff60a01b191660a09290921b60ff60a01b16919091179055565b60405162461bcd60e51b81526020600482015260116024820152704c54562063616e2774206265207a65726f60781b6044820152606490fd5b346102aa57611867366110e6565b600254600354604051630d22c2ff60e31b81526001600160a01b0394851660048201526001600160801b0390931660248401529083166044830152909116606482015260608160848173__$87511a64ad1cd7dc6108642f468c9b94de$__5af480156105ea5760009081928291611900575b50604080516001600160801b03939093168352602083019390935291810191909152606090f35b90506111d79250611928915060603d811161192f575b611920818361085c565b81019061410f565b90926118d9565b503d611916565b60005b8381106119495750506000910152565b8181015183820152602001611939565b9060209161197281518092818552858086019101611936565b601f01601f1916010190565b346102aa5760003660031901126102aa576111d760405161199e81610826565b60058152640352e302e360dc1b6020820152604051918291602083526020830190611959565b346102aa5760403660031901126102aa5760206119e560243560043561461c565b6001600160401b0360405191168152f35b346102aa5760203660031901126102aa5763ffffffff600435611a188161029c565b1660005260186020526020604060002054604051908152f35b346102aa5760203660031901126102aa57600435611a4e816108db565b6005546040516326d2a55160e21b8152600360048201529190602090839060249082906000906001600160a01b03165af19182156105ea5761042f92611a9c91600091610e92575015612cf9565b614711565b346102aa5760003660031901126102aa576020601e54604051908152f35b346102aa5760006020366003190112610fe157600435611ade81610389565b611ae66150d0565b6017546001600160a01b0390811691839190833b15611b375760249083604051958694859363ca5eb5e160e01b85521660048401525af180156105ea57611b2b575080f35b611b34906107f2565b80f35b8280fd5b346102aa5760203660031901126102aa57600435611b5881610389565b6009546001600160a01b0390611b719082163314612bb0565b81169081151580611c23575b611b8690612bf5565b600554611b9b906001600160a01b0316610549565b604051631f71924f60e31b8152600560048201529290602090849060249082906000905af19081156105ea57611bdf611c019261042f956000916105bc5750612c8f565b600380546001600160a01b0319166001600160a01b0392909216919091179055565b600780546001600160a01b0319166001600160a01b0392909216919091179055565b50803b1515611b7d565b346102aa5760203660031901126102aa5761042f600435611c4d81610389565b611c556150d0565b61505c565b611c63366112ab565b90611c6c615138565b6005546040516326d2a55160e21b8152600160048201526001600160a01b03916020908290602490829060009087165af180156105ea57611cb5916000916128ae575015612cf9565b81161515806128a0575b611cc890613dfd565b611cd361141b614214565b91611ce66001600160401b03841661443f565b50600c80546001600160801b0319166001600160401b038516179055600354611d17906001600160a01b0316610549565b604051634d5c56a560e01b81523360048201526001600160401b0383166024820152610200918290829060449082905afa9182156105ea57600092612873575b5050602081015190516001600160401b0383811691161061281f57611d8f611d8a611d86610120840151151590565b1590565b613e62565b60e08101516127ce576080810151604051636614cc0560e01b81526001600160801b0390911660048201526001600160401b03851660248201529360208560448173__$87511a64ad1cd7dc6108642f468c9b94de$__5af49081156105ea57611e4a956000926127ad575b50611e11611f406001600160801b03841611613eae565b60c08301516010546040516350ad67e160e11b81526001600160801b039092166004830152602482015295602090879081906044820190565b038173__$87511a64ad1cd7dc6108642f468c9b94de$__5af49586156105ea5760009661278c575b50611e7b6147f5565b50601180546001600160801b031916426001600160801b0316179055600054611eac906001600160a01b0316610549565b6040516370a0823160e01b815233600482015290602090829060249082905afa9081156105ea57611ee991889160009161276d575b501015613eb5565b6001600160401b038181166101408501819052600160e08601524290911661016085015260208085015160405163684d536d60e11b81526001600160801b03909116600482015260248101929092528160448173__$87511a64ad1cd7dc6108642f468c9b94de$__5af49081156105ea5760009161274e575b50600354611f78906001600160a01b0316610549565b803b156102aa576040516302c235d160e31b81526004810183905260016024820152906000908290604490829084905af180156105ea5761273b575b5060a0840151611fdf908290611fda906001600160801b03165b6001600160801b031690565b612fbd565b600054611ff4906001600160a01b0316610549565b6040516363a9f09360e11b81523360048201526024810183905290602090829060449082906000905af19081156105ea5760009161271c575b501561270a576000546120a19160209161204f906001600160a01b0316610549565b600754612066906001600160a01b0316928c612fbd565b6040516323b872dd60e01b81523360048201526001600160a01b03909316602484015260448301529092839190829060009082906064820190565b03925af19081156105ea576000916126eb575b50156126d95760c08401516120e6906120e1906120d9906001600160801b0316611fce565b600a54612fbd565b600a55565b60c08401516121129061210d90612105906001600160801b0316611fce565b601c54612fbd565b601c55565b600354612127906001600160a01b0316610549565b60a085015190919061214b90612145906001600160801b0316611fce565b89612fbd565b91803b156102aa5760405163b9a221eb60e01b815260048101939093526000908390602490829084905af19081156105ea576121a392612192926126c6575b508633613fc2565b6001600160801b0316610180850152565b6003546121b8906001600160a01b0316610549565b803b156102aa5760006040518092638fabe74f60e01b82528183816121e28a8c336004850161317b565b03925af180156105ea576126b3575b50602083015161222c906001600160801b031660808501516001600160401b03841691612227916001600160801b031690612f00565b613f0c565b916127106001600160801b0382168110156126095750506004546122b3959291906020908290612264906001600160a01b0316610549565b828701516101a0880151604051630e1fab4360e01b81526001600160801b039283166004820152911660248201526001600160401b039290921660448301529097889190829081906064820190565b03915afa9182156105ea576123a761239f6001600160401b036122e86020966123ac956123d59c6000926125ea575b50613f3a565b86890151909590899087906001600160801b03166001600160801b0381811690831611156125bb5750612368611fce6123628b8561235461234f612347611fce61237099612341876123759d015160018060801b031690565b90613f53565b6019546132e3565b601955565b01516001600160801b031690565b8a613f53565b6021546132e3565b602155565b612396612391612389848416601954613f6c565b601a546132e3565b601a55565b16601954613f6c565b6022546132e3565b602255565b604051632af2698d60e11b81526001600160801b03909116600482015294859081906024820190565b038173__$87511a64ad1cd7dc6108642f468c9b94de$__5af49384156105ea57600094612583575b506020836124b9928661241161135b614f31565b91612445612428601b5463ffffffff9060a01c1690565b9361243b81612435612dd2565b87614a99565b80956114d1612dd2565b506003546124679061245f906001600160a01b0316610549565b935134612fbd565b6040516315ee073360e11b81523360048201526001600160a01b0390921660248301526001600160801b0390921660448201526001600160401b03909316606484015291938492839182906084820190565b03925af19081156105ea57600091612564575b5015612552576101800151604080513381526001600160401b0393909316602084015242908301526001600160801b03928316606083015291909116608082015260a08101919091527f59c54db06277209213236b5f864552e9ee789e1ca98ed9988d78cdea7bd4d9d49060c090a161042f600160008051602061534983398151915255565b604051635e5e86d560e01b8152600490fd5b61257d915060203d6020116105e3576105d5818361085c565b386124cc565b6124b9919450836125ab602092833d85116125b4575b6125a3818361085c565b81019061301a565b959250506123fd565b503d612599565b611fce826125e08c6125e59661235461234f612347611fce6123709a6123689a613f53565b613f53565b612375565b612602919250893d8b116125b4576125a3818361085c565b90386122e2565b9091506001600160801b038216810361262a5750509260206123d5946123ac565b6001600160801b038216611f4010925090826126a0575b505015612662576020818101516123d59491906001600160801b03166123ac565b60405162461bcd60e51b8152602060048201526016602482015275426f72726f77696e674865616c7468206973204c6f7760501b6044820152606490fd5b6001600160801b03161090503880612641565b806107b26126c0926107f2565b386121f1565b806107b26126d3926107f2565b3861218a565b60405163a07c821960e01b8152600490fd5b612704915060203d6020116105e3576105d5818361085c565b386120b4565b6040516303f7009160e51b8152600490fd5b612735915060203d6020116105e3576105d5818361085c565b3861202d565b806107b2612748926107f2565b38611fb4565b612767915060203d602011610c2457610c15818361085c565b38611f62565b612786915060203d602011610c2457610c15818361085c565b38611ee1565b6127a691965060203d602011610c2457610c15818361085c565b9438611e72565b6127c791925060203d6020116125b4576125a3818361085c565b9038611dfa565b60405162461bcd60e51b815260206004820152602360248201527f5573657220616c726561647920776974686472617720656e7469726520616d6f6044820152621d5b9d60ea1b6064820152608490fd5b60405162461bcd60e51b815260206004820152602660248201527f5573657220646f656e73277420686176652074686520706572746963756c6172604482015265040d2dcc8caf60d31b6064820152608490fd5b6128929250803d10612899575b61288a818361085c565b81019061302f565b3880611d57565b503d612880565b50803b151560011415611cbf565b610eaa915060203d6020116105e3576105d5818361085c565b346102aa5760603660031901126102aa5760206128e33661034b565b63ffffffff81356128f38161029c565b166000526018825260406000205482604051920135148152f35b6040519061291a82610826565b600e82526d105d5d1bdb9bdb5a5b9d081554d160921b6020830152565b6040519061294482610826565b60018252603160f81b6020830152565b929096949591966129643361505c565b61296c615109565b612974615109565b6001600160a01b0392831680156107ca57601780546001600160a01b0319166001600160a01b03909216919091179055828616156107b8576017546129c1906001600160a01b0316610549565b803b156102aa5760405163ca5eb5e160e01b81526001600160a01b039790971660048801526000908790602490829084905af19586156105ea57612b5098612a5f85612a8194612a3d82612aa39a8197612ac59e612b9d575b5060008054919092166001600160a01b03166001600160a01b0319909116179055565b60018054919092166001600160a01b03166001600160a01b0319909116179055565b60028054919092166001600160a01b03166001600160a01b0319909116179055565b60058054919092166001600160a01b03166001600160a01b0319909116179055565b600b80546001600160a01b0319166001600160a01b0392909216919091179055565b612acd61290d565b60208151910120612b48612adf612937565b8051602091820120604080517f2010028ec63295361a00945794d4fce5b1046c419f60af448db7aaeb91e918f89381019384529081019490945260608401526001600160401b0390931660808301523060a08301528160c081015b03601f19810183528261085c565b519020601355565b612b80612b5e611fce614214565b600c80546001600160801b0319166001600160801b0392909216919091179055565b601180546001600160801b031916426001600160801b0316179055565b806107b2612baa926107f2565b38612a1a565b15612bb757565b60405162461bcd60e51b815260206004820152601660248201527521b0b63632b91034b9903737ba1030b71030b236b4b760511b6044820152606490fd5b15612bfc57565b60405162461bcd60e51b815260206004820152603960248201527f5472656173757279206d75737420626520636f6e7472616374206164647265736044820152787320262063616e2774206265207a65726f206164647265737360381b6064820152608490fd5b51906104ea826109d0565b908160209103126102aa575161110b816109d0565b6040513d6000823e3d90fd5b156102aa57565b15612c9d57565b60405162461bcd60e51b815260206004820152602e60248201527f41646d696e2063616e277420626520636f6e747261637420616464726573732060448201526d26207a65726f206164647265737360901b6064820152608490fd5b15612d0057565b60405162461bcd60e51b815260206004820152600660248201526514185d5cd95960d21b6044820152606490fd5b15612d3557565b60405162461bcd60e51b815260206004820152601a60248201527f43616e6e6f74206465706f736974207a65726f20746f6b656e730000000000006044820152606490fd5b15612d8157565b60405162461bcd60e51b815260206004820152602360248201527f426f72726f77696e673a20446f6e2774206861766520656e6f756768204c5a2060448201526266656560e81b6064820152608490fd5b60405190612ddf8261080a565b601c548252601d54602080840191909152601e546040840152601f546060840152546001600160801b0316608083015260215460a083015260225460c08301526023546001600160401b031660e0830152565b91908260409103126102aa57604051612e4a81610826565b6020808294805184520151910152565b906040828203126102aa5761110b91612e32565b9392612ee590606060009463ffffffff6101609516885260016020890152856040890152858289015285608089015260018060801b038082511660a08a01528060208301511660c08a015260408201511660e089015201516101008701528361012087015261018080610140880152860190611959565b930152565b634e487b7160e01b600052601160045260246000fd5b6001600160801b039182169082160290811691908203610d4657565b15612f2357565b60405162461bcd60e51b81526020600482015260166024820152754e6f7420656e6f7567682066756e6420696e2043445360501b6044820152606490fd5b908160209103126102aa575190565b906005821015612f7d5752565b634e487b7160e01b600052602160045260246000fd5b6104ea93606092969593608083019760018060801b03168352602083015260408201520190612f70565b91908203918211610d4657565b51906104ea826104cb565b908160409103126102aa57602060405191612fef83610826565b8051612ffa816109d0565b83520151613007816104cb565b602082015290565b51906104ea826108db565b908160209103126102aa575161110b816108db565b80910361020081126102aa576040519161304883610826565b8051613053816104cb565b83526101e08092601f1901126102aa5761316f61306e61087d565b9261307b60208401612fca565b84526130896040840161300f565b602085015261309a6060840161300f565b60408501526130ab60808401612fca565b60608501526130bc60a0840161300f565b60808501526130cd60c0840161300f565b60a08501526130de60e0840161300f565b60c0850152610100926130f2848201612c63565b60e08601526101209361310685830161300f565b9086015261014093613119858301612c63565b908601526101609361312c858301612fca565b908601526101809361313f858301612fca565b908601526101a09361315285830161300f565b908601526101c09361316585830161300f565b908601520161300f565b90820152602082015290565b6001600160a01b0390911681526001600160401b03918216602082015282519091166040820152610220810192916104ea91906102009060208101516001600160801b0316606084015260408101516001600160801b0316608084015260608101516001600160401b031660a084015260808101516001600160801b031660c084015260a08101516001600160801b031660e084015260c08101516001600160801b031661010084810191909152906132d360e082015192613244610120948588019015159052565b8201516001600160801b0316610140868101919091529282015192613270610160948588019015159052565b8201519261328c61018094858801906001600160401b03169052565b820151926132a86101a094858801906001600160401b03169052565b8201516001600160801b03166101c086810191909152928201516001600160801b03166101e0860152565b01516001600160801b0316910152565b91908201809211610d4657565b95909a999792946101209792946104ea9a9661014089019d60018060a01b031689526001600160401b0380971660208a015260408901526060880152608087015260018060801b031660a086015260c08501521660e08301526101008201520190612f70565b929091613364821515612d2e565b61336f823411612d7a565b61340961337d611fce614214565b9461338961135b614f31565b9461339d601b5463ffffffff9060a01c1690565b966040876133b3816133ad612dd2565b8c614a99565b600154909a906133cb906001600160a01b0316610549565b906133d461089d565b90600082526000602083015260008583015260006060830152845198899485938493632b4a4c0d60e21b855260048501612e6e565b03915afa9384156105ea57600094613b27575b5060208361348794959661344e614e206001600160401b0361344660018060801b0388168d61461c565b161015612f1c565b6004548990600090613468906001600160a01b0316610549565b9260405198899586948593636916a18160e11b85528a60048601612f93565b03925af19283156105ea57600093613b02575b506134ea9060206134b160095460ff9060a01c1690565b604051636812dc0360e01b8152600481018a90526001600160801b038416602482015260ff909116604482015292839081906064820190565b038173__$87511a64ad1cd7dc6108642f468c9b94de$__5af49182156105ea57600092613ae1575b50600354613528906001600160a01b0316610549565b604061358a61354361353b8d5134612fbd565b8a5190612fbd565b8251630bbfe8b960e41b8152600481018c90523360248201526001600160801b0386166044820152426001600160401b031660648201529384929091839182906084820190565b03925af19081156105ea57600091613ab2575b506135bf611d866135b860208401516001600160401b031690565b9251151590565b613aa0576002546135d8906001600160a01b0316610549565b604051632af2698d60e11b8152600481018a905260208160248173__$87511a64ad1cd7dc6108642f468c9b94de$__5af49081156105ea57600091613a81575b5060035461362e906001600160a01b0316610549565b604051637b85b73960e01b81526001600482015290602090829060249082905afa9081156105ea57600091613a62575b50823b156102aa57604051639992f4b760e01b81523360048201526001600160401b03851660248201526001600160801b03928316604482015291166064820152906000908290608490829084905af180156105ea57613a4f575b506136c685838a33613c1a565b6001546136db906001600160a01b0316610549565b965196803b156102aa5760405163b87c3dc360e01b81526001600160801b03871660048201819052989091600091839160249183915af180156105ea57613a3c575b50600354613733906001600160a01b0316610549565b604051634d5c56a560e01b81523360048201526001600160401b03831660248201526102008082604481865afa80156105ea5761379a92602092600092613a1f575b505001516001600160801b03861660a0820152986001600160801b03166101c08a0152565b803b156102aa57604051632e449f1760e21b815233600482015260016024820152906000908290604490829084905af180156105ea57613a0c575b506003546137eb906001600160a01b0316610549565b98893b156102aa57604051630e6840d960e11b815233600482015260248101859052996000908b90604490829084905af1998a156105ea5761387f9a6139f9575b506138356147f5565b50601180546001600160801b031916426001600160801b0316179055601054604051633460dd8b60e11b8152600481018690526024810191909152996020908b9081906044820190565b038173__$87511a64ad1cd7dc6108642f468c9b94de$__5af4998a156105ea5760009a6139d8575b506001600160801b038a1660c08901526138e76138d66001600160801b038b166001600160401b038816612f00565b6001600160801b03166101a08a0152565b6003546138fc906001600160a01b0316610549565b803b156102aa57604051638fabe74f60e01b8152986000918a9182908490829061392b9089336004850161317b565b03925af19081156105ea577f9669857a255f156ba0982057c1be0e843f0f4ae5e263b847ced8ea7a7d718cf39b6139c0996139b0936139c5575b506139756120e18d600a546132e3565b600c80546001600160801b0319166001600160801b03871617905561399f61210d8d601c546132e3565b601b5460a01c63ffffffff166114c9565b506040519889984292338b6132f0565b0390a1565b806107b26139d2926107f2565b38613965565b6139f2919a5060203d602011610c2457610c15818361085c565b98386138a7565b806107b2613a06926107f2565b3861382c565b806107b2613a19926107f2565b386137d5565b613a359250803d106128995761288a818361085c565b3880613775565b806107b2613a49926107f2565b3861371d565b806107b2613a5c926107f2565b386136b9565b613a7b915060203d6020116125b4576125a3818361085c565b3861365e565b613a9a915060203d6020116125b4576125a3818361085c565b38613618565b604051634fad3b0960e01b8152600490fd5b613ad4915060403d604011613ada575b613acc818361085c565b810190612fd5565b3861359d565b503d613ac2565b613afb91925060203d602011610c2457610c15818361085c565b9038613512565b6134ea919350613b209060203d602011610c2457610c15818361085c565b929061349a565b83613487949550613b5160209260403d604011613b5a575b613b49818361085c565b810190612e5a565b9550935061341c565b503d613b3f565b15613b6857565b60405162461bcd60e51b815260206004820152601f60248201527f426f72726f7765722063616e6e6f74206265207a65726f2061646472657373006044820152606490fd5b15613bb457565b60405162461bcd60e51b815260206004820152603860248201527f4c5456206d7573742062652073657420746f206e6f6e2d7a65726f2076616c7560448201527765206265666f72652070726f766964696e67206c6f616e7360401b6064820152608490fd5b91929190613c8d90613c366001600160a01b0384161515613b61565b60095460a01c60ff16613c4d60ff82161515613bad565b604051636812dc0360e01b815260048101929092526001600160801b03909516602482015260ff9094166044850152602093908490829081906064820190565b038173__$87511a64ad1cd7dc6108642f468c9b94de$__5af480156105ea57613d1185916000938491613de0575b508354613cdc908790613cd6906001600160a01b0316610549565b92612fbd565b6040516340c10f1960e01b8082526001600160a01b039097166004820152602481019190915293849283919082906044820190565b03925af19081156105ea57600091613dc3575b5015613d9457600054613d789284929091613d47906001600160a01b0316610549565b6007546040519283526001600160a01b03166004830152602482019290925292839190829060009082906044820190565b03925af19182156105ea57600092613da6575b505015613d9457565b60405163035f563160e31b8152600490fd5b613dbc9250803d106105e3576105d5818361085c565b3880613d8b565b613dda9150843d86116105e3576105d5818361085c565b38613d24565b613df79150833d8511610c2457610c15818361085c565b38613cbb565b15613e0457565b60405162461bcd60e51b815260206004820152603060248201527f546f20616464726573732063616e6e6f742062652061207a65726f20616e642060448201526f636f6e7472616374206164647265737360801b6064820152608490fd5b15613e6957565b60405162461bcd60e51b815260206004820152601f60248201527f5573657220616d6f756e7420686173206265656e206c697175696461746564006044820152606490fd5b1561266257565b15613ebc57565b60405162461bcd60e51b815260206004820152602260248201527f557365722062616c616e6365206973206c657373207468616e20726571756972604482015261195960f21b6064820152608490fd5b6001600160801b0391821691908215613f2457160490565b634e487b7160e01b600052601260045260246000fd5b6001600160801b039182169082160191908211610d4657565b6001600160801b039182169082160391908211610d4657565b81810292918115918404141715610d4657565b15613f8657565b60405162461bcd60e51b8152602060048201526014602482015273416d6f756e742063616e2774206265207a65726f60601b6044820152606490fd5b613fd66001600160a01b0382161515613b61565b613fe1831515613f7f565b601254604051631f79572960e11b8152600481019490945260c01c6024840152602091828460448173__$87511a64ad1cd7dc6108642f468c9b94de$__5af49384156105ea576000946140e8575b5060025461409c9284928692600090614050906001600160a01b0316610549565b604051631ff9eb7f60e21b81526001600160a01b0390941660048501526001600160401b0390921660248401526001600160801b03909316604483015290938492839182906064820190565b03925af19182156105ea576000926140cb575b5050156140b95790565b6040516328eca99f60e21b8152600490fd5b6140e19250803d106105e3576105d5818361085c565b38806140af565b61409c929450906141068492833d85116125b4576125a3818361085c565b9492509061402f565b908160609103126102aa578051614125816108db565b916040602083015192015190565b1561413a57565b60405162461bcd60e51b815260206004820152602360248201527f546f20616464726573732063616e6e6f742062652061207a65726f206164647260448201526265737360e81b6064820152608490fd5b1561419257565b60405162461bcd60e51b815260206004820152602560248201527f596f752063616e6e6f74206c697175696461746520796f7572206f776e206173604482015264736574732160d81b6064820152608490fd5b6001600160801b03908116908114610d465760010190565b519069ffffffffffffffffffff821682036102aa57565b600b54604051633fabe5a360e21b81529060a090829060049082906001600160a01b03165afa80156105ea57600090614252575b620f424091500490565b60a0823d8211614299575b8161426a60a0938361085c565b81010312610fe1575080614281620f4240926141fd565b506142936080602083015192016141fd565b50614248565b3d915061425d565b809291039161012083126102aa5780516142ba816104cb565b926101008091601f1901126102aa5761432a90604051926142da8461080a565b6020810151845260408101516020850152606081015160408501526080810151606085015261430b60a0820161300f565b608085015260c081015160a085015260e081015160c085015201612fca565b60e082015290565b600081526020808201929092526001600160801b03928316604082015292821660608401526080830193909352601c5460a0830152601d5460c0830152601e5460e0830152601f5461010083015291546101a0820193926104ea92916143a591165b6001600160801b0316610120830152565b6021546101408201526022546101608201526101806143cc6023546001600160401b031690565b6001600160401b0316910152565b9081526020808201929092526001600160801b03928316604082015292821660608401526080830193909352601c5460a0830152601d5460c0830152601e5460e0830152601f5461010083015291546101a0820193926104ea92916143a59116614394565b801561460a57600c546001600160801b0316600354909190614469906001600160a01b0316610549565b9060405180926354dec33960e11b825281600460209586935afa80156105ea576004916000916145ed575b5060015484906144ac906001600160a01b0316610549565b604051636a7889f360e11b815293849182905afa9182156105ea576144f6946000936145ce575b50506040519384928392633063f56d60e21b845261012097889660048601614332565b038173__$87511a64ad1cd7dc6108642f468c9b94de$__5af49081156105ea57600092839261459b575b505061110b908051601c55602080820151601d556040820151601e556060820151601f55608082015181546001600160801b0319166001600160801b039190911617905560a081015160215560c081015160225560e001516023805467ffffffffffffffff19166001600160401b0392909216919091179055565b61110b93506145bf9250803d106145c7575b6145b7818361085c565b8101906142a1565b909138614520565b503d6145ad565b6145e5929350803d10610c2457610c15818361085c565b9038806144d3565b6146049150843d86116125b4576125a3818361085c565b38614494565b6040516315e73e9f60e01b8152600490fd5b811561460a57600c546001600160801b0316600354909190614646906001600160a01b0316610549565b6040519283916354dec33960e11b835282600460209687935afa9182156105ea576000926146f2575b50600154600490859061468a906001600160a01b0316610549565b604051636a7889f360e11b815292839182905afa9485156105ea576000956146d3575b50506144f66040519485938493633063f56d60e21b8552610120988997600487016143da565b6146ea929550803d10610c2457610c15818361085c565b9238806146ad565b61470a919250843d86116125b4576125a3818361085c565b903861466f565b61472660018060a01b03600954163314612bb0565b6001600160801b038116156147b65760055461474a906001600160a01b0316610549565b604051631f71924f60e31b8152600160048201529190602090839060249082906000905af19182156105ea576104ea9261478b916000916105bc5750612c8f565b60128054600160401b600160c01b03191660409290921b600160401b600160c01b0316919091179055565b60405162461bcd60e51b8152602060048201526017602482015276526174652073686f756c64206e6f74206265207a65726f60481b6044820152606490fd5b60035461480a906001600160a01b0316610549565b60405180916322d7586760e11b825281600460209485935afa9081156105ea576000916148c6575b5060125460115460105460408051635529dfd560e01b81526001600160801b03958616600482015293901c84166024840152921660448201526064810191909152818160848173__$87511a64ad1cd7dc6108642f468c9b94de$__5af49182156105ea576000926148a9575b505061110b81601055565b6148bf9250803d10610c2457610c15818361085c565b388061489e565b6148dd9150823d84116125b4576125a3818361085c565b38614832565b604051906148f082610826565b60006020838281520152565b6040519061490982610841565b81600081526000602082015260406109696148e3565b91909160e06001600160401b03816101008401958051855260208101516020860152604081015160408601526060810151606086015260018060801b03608082015116608086015260a081015160a086015260c081015160c0860152015116910152565b6149ad90614a2e608094956149bb614a4c9561499d6148fc565b506040519586916020830161491f565b03601f19810186528561085c565b6149c36148fc565b5060206149d08851614de4565b970190815180614a8a575b506017546149f1906001600160a01b0316610549565b946149fb85614cfc565b9251151592614a17614a0b6108bc565b63ffffffff9097168752565b602086015260408501526060840152151585830152565b6040519485809481936302637a4560e41b8352339060048401614d34565b03925af19081156105ea57600091614a62575090565b61110b915060803d8111614a83575b614a7b818361085c565b810190614da2565b503d614a71565b614a9390614e06565b386149db565b90614b3f91614ac1614acf94614aad6148e3565b50604095869485519384916020830161491f565b03601f19810184528361085c565b614ad76148e3565b50601754614aed906001600160a01b0316610549565b91614af784614cfc565b614b0e614b026108bc565b63ffffffff9096168652565b60208501528484015260608301526000608083015282518080958194631bb8518b60e31b8352309060048401614d34565b03915afa9182156105ea57600092614b5657505090565b61110b9250803d10613b5a57613b49818361085c565b6149ad614bec614b9695614b3f95614b826148e3565b50604097889687519586916020830161491f565b614b9e6148e3565b50601754614bb4906001600160a01b0316610549565b93614bbe86614cfc565b614bd5614bc96108bc565b63ffffffff9098168852565b602087015286860152606085015215156080840152565b82518080958194631bb8518b60e31b8352309060048401614d34565b3561110b8161029c565b60e091604051614c218161080a565b60009381858093528260208201528260408201528260608201528260808201528260a08201528260c0820152015281019161010082840312610fe1575060e0614c706104ea93614ce0936108f9565b614c7a8151601c55565b614c876020820151601d55565b614c946040820151601e55565b614ca16060820151601f55565b6080810151614cb8906001600160801b03166113dc565b614cc560a0820151602155565b614cd260c0820151602255565b01516001600160401b031690565b6001600160401b03166001600160401b03196023541617602355565b63ffffffff16806000526018602052604060002054908115614d1c575090565b6024906040519063f6ff4fb760e01b82526004820152fd5b906020909392936040835263ffffffff81511660408401528181015160608401526080614d88614d72604084015160a08488015260e0870190611959565b6060840151868203603f190160a0880152611959565b910151151560c08401526001600160a01b03909416910152565b906080828203126102aa57614ddc906040805193614dbf85610841565b805185526020810151614dd1816104cb565b602086015201612e32565b604082015290565b803410614dee5790565b6040516304fb820960e51b8152346004820152602490fd5b60175460405163393f876560e21b81526001600160a01b039182169260209290918381600481885afa9081156105ea57600091614efb575b5016928315614ee9576040516323b872dd60e01b8482019081523360248301526001600160a01b0390921660448201526064810192909252614ea1916000918291614e8c8160848101612b3a565b519082875af1614e9a61520f565b9084615259565b8051918215159283614ed0575b505050614eb85750565b60249060405190635274afe760e01b82526004820152fd5b614ee09350820181019101612c6e565b15388080614eae565b6040516329b99a9560e11b8152600490fd5b908482813d8311614f2a575b614f11818361085c565b81010312610fe1575051614f2481610389565b38614e3e565b503d614f07565b604051600360f01b60208201526002815261110b81610826565b61ffff90600382614f5b836152bc565b1603614ffb57604051610c3560861b60208201526010815290614f7d82610826565b600383614f89836152bc565b1603614fd9578151838111614fba578316600101928311610d4657612b3a61110b9260405194859360208501615007565b604490604051906306dfcc6560e41b8252601060048301526024820152fd5b82614fe56024926152bc565b604051633a51740d60e01b815291166004820152fd5b90614fe56024926152bc565b60209061501e600495949382815194859201611936565b600160f81b910181815260f09290921b6001600160f01b0319166001830152600382015281519161505790839085840190602001611936565b010190565b6001600160a01b039081169081156150b75760008051602061530983398151915280546001600160a01b031981168417909155167f8be0079c531659141344cd1fd0a4f28419497f9722a3daafe3b4186f6b6457e0600080a3565b604051631e4fbdf760e01b815260006004820152602490fd5b600080516020615309833981519152546001600160a01b031633036150f157565b60405163118cdaa760e01b8152336004820152602490fd5b60ff6000805160206153698339815191525460401c161561512657565b604051631afcd79f60e31b8152600490fd5b60008051602061534983398151915260028154146151565760029055565b604051633ee5aeb560e01b8152600490fd5b90813b156151ee5760008051602061532983398151915280546001600160a01b0319166001600160a01b0384169081179091557fbc7cd75a20ee27fd9adebab32041f755214dbc6bffa90cc0225b39da2e5c2d3b600080a28051156151d3576151d09161523f565b50565b5050346151dc57565b60405163b398979f60e01b8152600490fd5b604051634c9c8ce360e01b81526001600160a01b0383166004820152602490fd5b3d1561523a573d906152208261096e565b9161522e604051938461085c565b82523d6000602084013e565b606090565b60008061110b93602081519101845af461525761520f565b915b90615280575080511561526e57805190602001fd5b604051630a12f52160e11b8152600490fd5b815115806152b3575b615291575090565b604051639996b31560e01b81526001600160a01b039091166004820152602490fd5b50803b15615289565b60028151106152cc576002015190565b60405162461bcd60e51b8152602060048201526014602482015273746f55696e7431365f6f75744f66426f756e647360601b6044820152606490fdfe9016d09d72d40fdae2fd8ceac6b6234c7706214fd39c1cd1e609a0528c199300360894a13ba1a3210667c828492db98dca3e2076cc3735a920a3ca505d382bbc9b779b17422d0df92223018b32b4d1fa46e071723d6817e2486d003becc55f00f0c57e16840df040f15088dc2f81fe391c3923bec73e23a9662efc9c229c6a00a26469706673582212204223508cac788655356935e83f17c3a4ef312327001994155b56886574211e6264736f6c63430008140033","linkReferences":{"contracts/lib/BorrowLib.sol":{"BorrowLib":[{"start":4559,"length":20},{"start":6370,"length":20},{"start":7682,"length":20},{"start":7806,"length":20},{"start":8046,"length":20},{"start":9225,"length":20},{"start":13598,"length":20},{"start":13860,"length":20},{"start":14515,"length":20},{"start":15553,"length":20},{"start":16443,"length":20},{"start":17706,"length":20},{"start":18602,"length":20}]}}},"methodIdentifiers":{"UPGRADE_INTERFACE_VERSION()":"ad3cb1cc","allowInitializePath((uint32,bytes32,uint64))":"ff7bd03d","calculateCumulativeRate()":"181ab6db","calculateRatio(uint256,uint256)":"ada0b0ed","depositTokens(uint8,uint64,uint256,uint256)":"6aa2ca3a","dummy()":"32e43a11","endpoint()":"5e280f11","getAbondYields(address,uint128)":"ab2f40ee","getLTV()":"4ed2b8ac","getUSDValue()":"50593af7","initialize(address,address,address,address,address,uint64,address,address)":"a7d46ab2","isComposeMsgSender((uint32,bytes32,uint64),bytes,address)":"82413eac","lastCumulativeRate()":"8e4db39a","liquidate(address,uint64)":"9281b985","lzReceive((uint32,bytes32,uint64),bytes32,bytes,address,bytes)":"13137d65","nextNonce(uint32,bytes32)":"7d25a05e","oAppVersion()":"17442b70","oApp_init(address,address)":"3b449b31","omniChainBorrowingCDSPoolValue()":"c2a3bde2","omniChainBorrowingNoOfLiquidations()":"4d818c9c","owner()":"8da5cb5b","peers(uint32)":"bb0b6a53","proxiableUUID()":"52d1902d","quote(uint32,(uint256,uint256,uint256,uint256,uint128,uint256,uint256,uint64),bytes,bool)":"495b416a","redeemYields(address,uint128)":"80ddebcb","renounceOwnership()":"715018a6","setAPR(uint128)":"c1bab32d","setAdmin(address)":"704b6c02","setBondRatio(uint64)":"276eb3ac","setBorrowLiquidation(address)":"a4cdc597","setDelegate(address)":"ca5eb5e1","setDstEid(uint32)":"0d14c92e","setLTV(uint8)":"aad2476d","setOptions(address)":"7d6dff7d","setPeer(uint32,bytes32)":"3400288b","setTreasury(address)":"f0f44260","transferOwnership(address)":"f2fde38b","updateLastEthVaultValue(uint256)":"661b7d3e","upgradeToAndCall(address,bytes)":"4f1ef286","withDraw(address,uint64)":"f30707e1"},"storageLayout":{"storage":[{"astId":3996,"contract":"contracts/Core_logic/borrowing.sol:BorrowingV2","label":"usda","offset":0,"slot":"0","type":"t_contract(IUSDa)2984"},{"astId":3999,"contract":"contracts/Core_logic/borrowing.sol:BorrowingV2","label":"cds","offset":0,"slot":"1","type":"t_contract(CDSInterface)2080"},{"astId":4002,"contract":"contracts/Core_logic/borrowing.sol:BorrowingV2","label":"abond","offset":0,"slot":"2","type":"t_contract(IABONDToken)2202"},{"astId":4005,"contract":"contracts/Core_logic/borrowing.sol:BorrowingV2","label":"treasury","offset":0,"slot":"3","type":"t_contract(ITreasury)2857"},{"astId":4008,"contract":"contracts/Core_logic/borrowing.sol:BorrowingV2","label":"options","offset":0,"slot":"4","type":"t_contract(IOptions)2426"},{"astId":4011,"contract":"contracts/Core_logic/borrowing.sol:BorrowingV2","label":"multiSign","offset":0,"slot":"5","type":"t_contract(IMultiSign)2392"},{"astId":4013,"contract":"contracts/Core_logic/borrowing.sol:BorrowingV2","label":"_downSideProtectionLimit","offset":0,"slot":"6","type":"t_uint256"},{"astId":4015,"contract":"contracts/Core_logic/borrowing.sol:BorrowingV2","label":"treasuryAddress","offset":0,"slot":"7","type":"t_address"},{"astId":4017,"contract":"contracts/Core_logic/borrowing.sol:BorrowingV2","label":"cdsAddress","offset":0,"slot":"8","type":"t_address"},{"astId":4019,"contract":"contracts/Core_logic/borrowing.sol:BorrowingV2","label":"admin","offset":0,"slot":"9","type":"t_address"},{"astId":4021,"contract":"contracts/Core_logic/borrowing.sol:BorrowingV2","label":"LTV","offset":20,"slot":"9","type":"t_uint8"},{"astId":4023,"contract":"contracts/Core_logic/borrowing.sol:BorrowingV2","label":"APY","offset":21,"slot":"9","type":"t_uint8"},{"astId":4025,"contract":"contracts/Core_logic/borrowing.sol:BorrowingV2","label":"totalNormalizedAmount","offset":0,"slot":"10","type":"t_uint256"},{"astId":4027,"contract":"contracts/Core_logic/borrowing.sol:BorrowingV2","label":"priceFeedAddress","offset":0,"slot":"11","type":"t_address"},{"astId":4029,"contract":"contracts/Core_logic/borrowing.sol:BorrowingV2","label":"lastEthprice","offset":0,"slot":"12","type":"t_uint128"},{"astId":4031,"contract":"contracts/Core_logic/borrowing.sol:BorrowingV2","label":"lastEthVaultValue","offset":0,"slot":"13","type":"t_uint256"},{"astId":4033,"contract":"contracts/Core_logic/borrowing.sol:BorrowingV2","label":"lastCDSPoolValue","offset":0,"slot":"14","type":"t_uint256"},{"astId":4035,"contract":"contracts/Core_logic/borrowing.sol:BorrowingV2","label":"lastTotalCDSPool","offset":0,"slot":"15","type":"t_uint256"},{"astId":4037,"contract":"contracts/Core_logic/borrowing.sol:BorrowingV2","label":"lastCumulativeRate","offset":0,"slot":"16","type":"t_uint256"},{"astId":4039,"contract":"contracts/Core_logic/borrowing.sol:BorrowingV2","label":"lastEventTime","offset":0,"slot":"17","type":"t_uint128"},{"astId":4041,"contract":"contracts/Core_logic/borrowing.sol:BorrowingV2","label":"noOfLiquidations","offset":16,"slot":"17","type":"t_uint128"},{"astId":4043,"contract":"contracts/Core_logic/borrowing.sol:BorrowingV2","label":"withdrawTimeLimit","offset":0,"slot":"18","type":"t_uint64"},{"astId":4045,"contract":"contracts/Core_logic/borrowing.sol:BorrowingV2","label":"ratePerSec","offset":8,"slot":"18","type":"t_uint128"},{"astId":4047,"contract":"contracts/Core_logic/borrowing.sol:BorrowingV2","label":"bondRatio","offset":24,"slot":"18","type":"t_uint64"},{"astId":4055,"contract":"contracts/Core_logic/borrowing.sol:BorrowingV2","label":"DOMAIN_SEPARATOR","offset":0,"slot":"19","type":"t_bytes32"},{"astId":4062,"contract":"contracts/Core_logic/borrowing.sol:BorrowingV2","label":"PRECISION","offset":0,"slot":"20","type":"t_uint128"},{"astId":4064,"contract":"contracts/Core_logic/borrowing.sol:BorrowingV2","label":"CUMULATIVE_PRECISION","offset":16,"slot":"20","type":"t_uint128"},{"astId":4066,"contract":"contracts/Core_logic/borrowing.sol:BorrowingV2","label":"RATIO_PRECISION","offset":0,"slot":"21","type":"t_uint128"},{"astId":4068,"contract":"contracts/Core_logic/borrowing.sol:BorrowingV2","label":"RATE_PRECISION","offset":16,"slot":"21","type":"t_uint128"},{"astId":4070,"contract":"contracts/Core_logic/borrowing.sol:BorrowingV2","label":"USDa_PRECISION","offset":0,"slot":"22","type":"t_uint128"},{"astId":4708,"contract":"contracts/Core_logic/borrowing.sol:BorrowingV2","label":"endpoint","offset":0,"slot":"23","type":"t_contract(ILayerZeroEndpointV2)5984"},{"astId":4712,"contract":"contracts/Core_logic/borrowing.sol:BorrowingV2","label":"peers","offset":0,"slot":"24","type":"t_mapping(t_uint32,t_bytes32)"},{"astId":41,"contract":"contracts/Core_logic/borrowing.sol:BorrowingV2","label":"ethRemainingInWithdraw","offset":0,"slot":"25","type":"t_uint256"},{"astId":43,"contract":"contracts/Core_logic/borrowing.sol:BorrowingV2","label":"ethValueRemainingInWithdraw","offset":0,"slot":"26","type":"t_uint256"},{"astId":46,"contract":"contracts/Core_logic/borrowing.sol:BorrowingV2","label":"borrowLiquiation","offset":0,"slot":"27","type":"t_contract(IBorrowLiquidation)2234"},{"astId":48,"contract":"contracts/Core_logic/borrowing.sol:BorrowingV2","label":"dstEid","offset":20,"slot":"27","type":"t_uint32"},{"astId":54,"contract":"contracts/Core_logic/borrowing.sol:BorrowingV2","label":"omniChainBorrowing","offset":0,"slot":"28","type":"t_struct(OmniChainBorrowingData)3993_storage"},{"astId":56,"contract":"contracts/Core_logic/borrowing.sol:BorrowingV2","label":"dummy","offset":0,"slot":"36","type":"t_uint16"}],"types":{"t_address":{"encoding":"inplace","label":"address","numberOfBytes":"20"},"t_bytes32":{"encoding":"inplace","label":"bytes32","numberOfBytes":"32"},"t_contract(CDSInterface)2080":{"encoding":"inplace","label":"contract CDSInterface","numberOfBytes":"20"},"t_contract(IABONDToken)2202":{"encoding":"inplace","label":"contract IABONDToken","numberOfBytes":"20"},"t_contract(IBorrowLiquidation)2234":{"encoding":"inplace","label":"contract IBorrowLiquidation","numberOfBytes":"20"},"t_contract(ILayerZeroEndpointV2)5984":{"encoding":"inplace","label":"contract ILayerZeroEndpointV2","numberOfBytes":"20"},"t_contract(IMultiSign)2392":{"encoding":"inplace","label":"contract IMultiSign","numberOfBytes":"20"},"t_contract(IOptions)2426":{"encoding":"inplace","label":"contract IOptions","numberOfBytes":"20"},"t_contract(ITreasury)2857":{"encoding":"inplace","label":"contract ITreasury","numberOfBytes":"20"},"t_contract(IUSDa)2984":{"encoding":"inplace","label":"contract IUSDa","numberOfBytes":"20"},"t_mapping(t_uint32,t_bytes32)":{"encoding":"mapping","key":"t_uint32","label":"mapping(uint32 => bytes32)","numberOfBytes":"32","value":"t_bytes32"},"t_struct(OmniChainBorrowingData)3993_storage":{"encoding":"inplace","label":"struct Borrowing.OmniChainBorrowingData","numberOfBytes":"256","members":[{"astId":3978,"contract":"contracts/Core_logic/borrowing.sol:BorrowingV2","label":"normalizedAmount","offset":0,"slot":"0","type":"t_uint256"},{"astId":3980,"contract":"contracts/Core_logic/borrowing.sol:BorrowingV2","label":"ethVaultValue","offset":0,"slot":"1","type":"t_uint256"},{"astId":3982,"contract":"contracts/Core_logic/borrowing.sol:BorrowingV2","label":"cdsPoolValue","offset":0,"slot":"2","type":"t_uint256"},{"astId":3984,"contract":"contracts/Core_logic/borrowing.sol:BorrowingV2","label":"totalCDSPool","offset":0,"slot":"3","type":"t_uint256"},{"astId":3986,"contract":"contracts/Core_logic/borrowing.sol:BorrowingV2","label":"noOfLiquidations","offset":0,"slot":"4","type":"t_uint128"},{"astId":3988,"contract":"contracts/Core_logic/borrowing.sol:BorrowingV2","label":"ethRemainingInWithdraw","offset":0,"slot":"5","type":"t_uint256"},{"astId":3990,"contract":"contracts/Core_logic/borrowing.sol:BorrowingV2","label":"ethValueRemainingInWithdraw","offset":0,"slot":"6","type":"t_uint256"},{"astId":3992,"contract":"contracts/Core_logic/borrowing.sol:BorrowingV2","label":"nonce","offset":0,"slot":"7","type":"t_uint64"}]},"t_uint128":{"encoding":"inplace","label":"uint128","numberOfBytes":"16"},"t_uint16":{"encoding":"inplace","label":"uint16","numberOfBytes":"2"},"t_uint256":{"encoding":"inplace","label":"uint256","numberOfBytes":"32"},"t_uint32":{"encoding":"inplace","label":"uint32","numberOfBytes":"4"},"t_uint64":{"encoding":"inplace","label":"uint64","numberOfBytes":"8"},"t_uint8":{"encoding":"inplace","label":"uint8","numberOfBytes":"1"}}},"id":0}