{"abi":[{"type":"function","name":"UPGRADE_INTERFACE_VERSION","inputs":[],"outputs":[{"name":"","type":"string","internalType":"string"}],"stateMutability":"view"},{"type":"function","name":"allowInitializePath","inputs":[{"name":"origin","type":"tuple","internalType":"struct Origin","components":[{"name":"srcEid","type":"uint32","internalType":"uint32"},{"name":"sender","type":"bytes32","internalType":"bytes32"},{"name":"nonce","type":"uint64","internalType":"uint64"}]}],"outputs":[{"name":"","type":"bool","internalType":"bool"}],"stateMutability":"view"},{"type":"function","name":"calculateCumulativeRate","inputs":[],"outputs":[{"name":"","type":"uint256","internalType":"uint256"}],"stateMutability":"nonpayable"},{"type":"function","name":"calculateRatio","inputs":[{"name":"_amount","type":"uint256","internalType":"uint256"},{"name":"currentEthPrice","type":"uint256","internalType":"uint256"}],"outputs":[{"name":"","type":"uint64","internalType":"uint64"}],"stateMutability":"nonpayable"},{"type":"function","name":"depositTokens","inputs":[{"name":"_strikePercent","type":"uint8","internalType":"enum IOptions.StrikePrice"},{"name":"_strikePrice","type":"uint64","internalType":"uint64"},{"name":"_volatility","type":"uint256","internalType":"uint256"},{"name":"_depositingAmount","type":"uint256","internalType":"uint256"}],"outputs":[],"stateMutability":"payable"},{"type":"function","name":"endpoint","inputs":[],"outputs":[{"name":"","type":"address","internalType":"contract ILayerZeroEndpointV2"}],"stateMutability":"view"},{"type":"function","name":"getAbondYields","inputs":[{"name":"user","type":"address","internalType":"address"},{"name":"aBondAmount","type":"uint128","internalType":"uint128"}],"outputs":[{"name":"","type":"uint128","internalType":"uint128"},{"name":"","type":"uint256","internalType":"uint256"},{"name":"","type":"uint256","internalType":"uint256"}],"stateMutability":"view"},{"type":"function","name":"getLTV","inputs":[],"outputs":[{"name":"","type":"uint8","internalType":"uint8"}],"stateMutability":"view"},{"type":"function","name":"getUSDValue","inputs":[],"outputs":[{"name":"","type":"uint256","internalType":"uint256"}],"stateMutability":"view"},{"type":"function","name":"initialize","inputs":[{"name":"_tokenAddress","type":"address","internalType":"address"},{"name":"_cds","type":"address","internalType":"address"},{"name":"_abondToken","type":"address","internalType":"address"},{"name":"_multiSign","type":"address","internalType":"address"},{"name":"_priceFeedAddress","type":"address","internalType":"address"},{"name":"chainId","type":"uint64","internalType":"uint64"},{"name":"_endpoint","type":"address","internalType":"address"},{"name":"_delegate","type":"address","internalType":"address"}],"outputs":[],"stateMutability":"nonpayable"},{"type":"function","name":"isComposeMsgSender","inputs":[{"name":"","type":"tuple","internalType":"struct Origin","components":[{"name":"srcEid","type":"uint32","internalType":"uint32"},{"name":"sender","type":"bytes32","internalType":"bytes32"},{"name":"nonce","type":"uint64","internalType":"uint64"}]},{"name":"","type":"bytes","internalType":"bytes"},{"name":"_sender","type":"address","internalType":"address"}],"outputs":[{"name":"","type":"bool","internalType":"bool"}],"stateMutability":"view"},{"type":"function","name":"lastCumulativeRate","inputs":[],"outputs":[{"name":"","type":"uint256","internalType":"uint256"}],"stateMutability":"view"},{"type":"function","name":"liquidate","inputs":[{"name":"user","type":"address","internalType":"address"},{"name":"index","type":"uint64","internalType":"uint64"}],"outputs":[],"stateMutability":"payable"},{"type":"function","name":"lzReceive","inputs":[{"name":"_origin","type":"tuple","internalType":"struct Origin","components":[{"name":"srcEid","type":"uint32","internalType":"uint32"},{"name":"sender","type":"bytes32","internalType":"bytes32"},{"name":"nonce","type":"uint64","internalType":"uint64"}]},{"name":"_guid","type":"bytes32","internalType":"bytes32"},{"name":"_message","type":"bytes","internalType":"bytes"},{"name":"_executor","type":"address","internalType":"address"},{"name":"_extraData","type":"bytes","internalType":"bytes"}],"outputs":[],"stateMutability":"payable"},{"type":"function","name":"nextNonce","inputs":[{"name":"","type":"uint32","internalType":"uint32"},{"name":"","type":"bytes32","internalType":"bytes32"}],"outputs":[{"name":"nonce","type":"uint64","internalType":"uint64"}],"stateMutability":"view"},{"type":"function","name":"oAppVersion","inputs":[],"outputs":[{"name":"senderVersion","type":"uint64","internalType":"uint64"},{"name":"receiverVersion","type":"uint64","internalType":"uint64"}],"stateMutability":"pure"},{"type":"function","name":"omniChainBorrowingCDSPoolValue","inputs":[],"outputs":[{"name":"","type":"uint256","internalType":"uint256"}],"stateMutability":"view"},{"type":"function","name":"omniChainBorrowingNoOfLiquidations","inputs":[],"outputs":[{"name":"","type":"uint128","internalType":"uint128"}],"stateMutability":"view"},{"type":"function","name":"owner","inputs":[],"outputs":[{"name":"","type":"address","internalType":"address"}],"stateMutability":"view"},{"type":"function","name":"peers","inputs":[{"name":"eid","type":"uint32","internalType":"uint32"}],"outputs":[{"name":"peer","type":"bytes32","internalType":"bytes32"}],"stateMutability":"view"},{"type":"function","name":"proxiableUUID","inputs":[],"outputs":[{"name":"","type":"bytes32","internalType":"bytes32"}],"stateMutability":"view"},{"type":"function","name":"quote","inputs":[{"name":"_dstEid","type":"uint32","internalType":"uint32"},{"name":"_message","type":"tuple","internalType":"struct BorrowingV1.OmniChainBorrowingData","components":[{"name":"normalizedAmount","type":"uint256","internalType":"uint256"},{"name":"ethVaultValue","type":"uint256","internalType":"uint256"},{"name":"cdsPoolValue","type":"uint256","internalType":"uint256"},{"name":"totalCDSPool","type":"uint256","internalType":"uint256"},{"name":"noOfLiquidations","type":"uint128","internalType":"uint128"},{"name":"ethRemainingInWithdraw","type":"uint256","internalType":"uint256"},{"name":"ethValueRemainingInWithdraw","type":"uint256","internalType":"uint256"},{"name":"nonce","type":"uint64","internalType":"uint64"}]},{"name":"_options","type":"bytes","internalType":"bytes"},{"name":"_payInLzToken","type":"bool","internalType":"bool"}],"outputs":[{"name":"fee","type":"tuple","internalType":"struct MessagingFee","components":[{"name":"nativeFee","type":"uint256","internalType":"uint256"},{"name":"lzTokenFee","type":"uint256","internalType":"uint256"}]}],"stateMutability":"view"},{"type":"function","name":"redeemYields","inputs":[{"name":"user","type":"address","internalType":"address"},{"name":"aBondAmount","type":"uint128","internalType":"uint128"}],"outputs":[{"name":"","type":"uint256","internalType":"uint256"}],"stateMutability":"nonpayable"},{"type":"function","name":"renounceOwnership","inputs":[],"outputs":[],"stateMutability":"nonpayable"},{"type":"function","name":"setAPR","inputs":[{"name":"_ratePerSec","type":"uint128","internalType":"uint128"}],"outputs":[],"stateMutability":"nonpayable"},{"type":"function","name":"setAdmin","inputs":[{"name":"_admin","type":"address","internalType":"address"}],"outputs":[],"stateMutability":"nonpayable"},{"type":"function","name":"setBondRatio","inputs":[{"name":"_bondRatio","type":"uint64","internalType":"uint64"}],"outputs":[],"stateMutability":"nonpayable"},{"type":"function","name":"setBorrowLiquidation","inputs":[{"name":"_borrowLiquidation","type":"address","internalType":"address"}],"outputs":[],"stateMutability":"nonpayable"},{"type":"function","name":"setDelegate","inputs":[{"name":"_delegate","type":"address","internalType":"address"}],"outputs":[],"stateMutability":"nonpayable"},{"type":"function","name":"setDstEid","inputs":[{"name":"_eid","type":"uint32","internalType":"uint32"}],"outputs":[],"stateMutability":"nonpayable"},{"type":"function","name":"setLTV","inputs":[{"name":"_LTV","type":"uint8","internalType":"uint8"}],"outputs":[],"stateMutability":"nonpayable"},{"type":"function","name":"setOptions","inputs":[{"name":"_options","type":"address","internalType":"address"}],"outputs":[],"stateMutability":"nonpayable"},{"type":"function","name":"setPeer","inputs":[{"name":"_eid","type":"uint32","internalType":"uint32"},{"name":"_peer","type":"bytes32","internalType":"bytes32"}],"outputs":[],"stateMutability":"nonpayable"},{"type":"function","name":"setTreasury","inputs":[{"name":"_treasury","type":"address","internalType":"address"}],"outputs":[],"stateMutability":"nonpayable"},{"type":"function","name":"transferOwnership","inputs":[{"name":"newOwner","type":"address","internalType":"address"}],"outputs":[],"stateMutability":"nonpayable"},{"type":"function","name":"updateLastEthVaultValue","inputs":[{"name":"_amount","type":"uint256","internalType":"uint256"}],"outputs":[],"stateMutability":"nonpayable"},{"type":"function","name":"upgradeToAndCall","inputs":[{"name":"newImplementation","type":"address","internalType":"address"},{"name":"data","type":"bytes","internalType":"bytes"}],"outputs":[],"stateMutability":"payable"},{"type":"function","name":"withDraw","inputs":[{"name":"_toAddress","type":"address","internalType":"address"},{"name":"_index","type":"uint64","internalType":"uint64"}],"outputs":[],"stateMutability":"payable"},{"type":"event","name":"Deposit","inputs":[{"name":"user","type":"address","indexed":false,"internalType":"address"},{"name":"index","type":"uint64","indexed":false,"internalType":"uint64"},{"name":"depositedAmount","type":"uint256","indexed":false,"internalType":"uint256"},{"name":"normalizedAmount","type":"uint256","indexed":false,"internalType":"uint256"},{"name":"depositedTime","type":"uint256","indexed":false,"internalType":"uint256"},{"name":"ethPrice","type":"uint128","indexed":false,"internalType":"uint128"},{"name":"borrowAmount","type":"uint256","indexed":false,"internalType":"uint256"},{"name":"strikePrice","type":"uint64","indexed":false,"internalType":"uint64"},{"name":"optionsFees","type":"uint256","indexed":false,"internalType":"uint256"},{"name":"strikePricePercent","type":"uint8","indexed":false,"internalType":"enum IOptions.StrikePrice"}],"anonymous":false},{"type":"event","name":"Initialized","inputs":[{"name":"version","type":"uint64","indexed":false,"internalType":"uint64"}],"anonymous":false},{"type":"event","name":"Liquidate","inputs":[{"name":"index","type":"uint64","indexed":false,"internalType":"uint64"},{"name":"liquidationAmount","type":"uint128","indexed":false,"internalType":"uint128"},{"name":"profits","type":"uint128","indexed":false,"internalType":"uint128"},{"name":"ethAmount","type":"uint128","indexed":false,"internalType":"uint128"},{"name":"availableLiquidationAmount","type":"uint256","indexed":false,"internalType":"uint256"}],"anonymous":false},{"type":"event","name":"OwnershipTransferred","inputs":[{"name":"previousOwner","type":"address","indexed":true,"internalType":"address"},{"name":"newOwner","type":"address","indexed":true,"internalType":"address"}],"anonymous":false},{"type":"event","name":"PeerSet","inputs":[{"name":"eid","type":"uint32","indexed":false,"internalType":"uint32"},{"name":"peer","type":"bytes32","indexed":false,"internalType":"bytes32"}],"anonymous":false},{"type":"event","name":"Upgraded","inputs":[{"name":"implementation","type":"address","indexed":true,"internalType":"address"}],"anonymous":false},{"type":"event","name":"Withdraw","inputs":[{"name":"user","type":"address","indexed":false,"internalType":"address"},{"name":"index","type":"uint64","indexed":false,"internalType":"uint64"},{"name":"withdrawTime","type":"uint256","indexed":false,"internalType":"uint256"},{"name":"withdrawAmount","type":"uint128","indexed":false,"internalType":"uint128"},{"name":"noOfAbond","type":"uint128","indexed":false,"internalType":"uint128"},{"name":"borrowDebt","type":"uint256","indexed":false,"internalType":"uint256"}],"anonymous":false},{"type":"error","name":"AddressEmptyCode","inputs":[{"name":"target","type":"address","internalType":"address"}]},{"type":"error","name":"AddressInsufficientBalance","inputs":[{"name":"account","type":"address","internalType":"address"}]},{"type":"error","name":"Borrowing_DepositFailed","inputs":[]},{"type":"error","name":"Borrowing_GettingETHPriceFailed","inputs":[]},{"type":"error","name":"Borrowing_LiquidateBurnFailed","inputs":[]},{"type":"error","name":"Borrowing_LiquidateEthTransferToCdsFailed","inputs":[]},{"type":"error","name":"Borrowing_WithdrawBurnFailed","inputs":[]},{"type":"error","name":"Borrowing_WithdrawEthTransferFailed","inputs":[]},{"type":"error","name":"Borrowing_WithdrawUSDaTransferFailed","inputs":[]},{"type":"error","name":"Borrowing_abondMintFailed","inputs":[]},{"type":"error","name":"Borrowing_usdaMintFailed","inputs":[]},{"type":"error","name":"ERC1967InvalidImplementation","inputs":[{"name":"implementation","type":"address","internalType":"address"}]},{"type":"error","name":"ERC1967NonPayable","inputs":[]},{"type":"error","name":"EndPointUnavailable","inputs":[]},{"type":"error","name":"FailedInnerCall","inputs":[]},{"type":"error","name":"InvalidDelegate","inputs":[]},{"type":"error","name":"InvalidEndpointCall","inputs":[]},{"type":"error","name":"InvalidInitialization","inputs":[]},{"type":"error","name":"InvalidOptionType","inputs":[{"name":"optionType","type":"uint16","internalType":"uint16"}]},{"type":"error","name":"LzTokenUnavailable","inputs":[]},{"type":"error","name":"NoPeer","inputs":[{"name":"eid","type":"uint32","internalType":"uint32"}]},{"type":"error","name":"NotEnoughNative","inputs":[{"name":"msgValue","type":"uint256","internalType":"uint256"}]},{"type":"error","name":"NotInitializing","inputs":[]},{"type":"error","name":"OnlyEndpoint","inputs":[{"name":"addr","type":"address","internalType":"address"}]},{"type":"error","name":"OnlyPeer","inputs":[{"name":"eid","type":"uint32","internalType":"uint32"},{"name":"sender","type":"bytes32","internalType":"bytes32"}]},{"type":"error","name":"OwnableInvalidOwner","inputs":[{"name":"owner","type":"address","internalType":"address"}]},{"type":"error","name":"OwnableUnauthorizedAccount","inputs":[{"name":"account","type":"address","internalType":"address"}]},{"type":"error","name":"ReentrancyGuardReentrantCall","inputs":[]},{"type":"error","name":"SafeCastOverflowedUintDowncast","inputs":[{"name":"bits","type":"uint8","internalType":"uint8"},{"name":"value","type":"uint256","internalType":"uint256"}]},{"type":"error","name":"SafeERC20FailedOperation","inputs":[{"name":"token","type":"address","internalType":"address"}]},{"type":"error","name":"UUPSUnauthorizedCallContext","inputs":[]},{"type":"error","name":"UUPSUnsupportedProxiableUUID","inputs":[{"name":"slot","type":"bytes32","internalType":"bytes32"}]}],"bytecode":{"object":"0x60a0806040523461002a57306080526152ba908161003082396080518181816109ed0152610b400152f35b600080fdfe6080604052600436101561001257600080fd5b60003560e01c80630d14c92e1461027757806313137d651461027257806317442b701461026d578063181ab6db14610268578063276eb3ac146102635780633400288b1461025e578063495b416a146102595780634d818c9c146102545780634ed2b8ac1461024f5780634f1ef2861461024a57806350593af71461024557806352d1902d146102405780635e280f111461023b578063661b7d3e146102365780636aa2ca3a14610231578063704b6c021461022c578063715018a6146102275780637d25a05e146102225780637d6dff7d1461021d57806380ddebcb1461021857806382413eac146102135780638da5cb5b1461020e5780638e4db39a146102095780639281b98514610204578063a4cdc597146101ff578063a7d46ab2146101fa578063aad2476d146101f5578063ab2f40ee146101f0578063ad3cb1cc146101eb578063ada0b0ed146101e6578063bb0b6a53146101e1578063c1bab32d146101dc578063c2a3bde2146101d7578063ca5eb5e1146101d2578063f0f44260146101cd578063f2fde38b146101c8578063f30707e1146101c35763ff7bd03d146101be57600080fd5b612787565b611b1a565b611aed565b6119fb565b61197f565b611961565b6118f1565b6118b6565b611884565b61183e565b611719565b61162b565b61149e565b6113b2565b61118a565b611147565b611111565b6110b3565b610fc8565b610ec5565b610e9e565b610e30565b610d6a565b610cad565b610bc1565b610b98565b610b2d565b610b12565b6109ab565b610987565b610960565b610894565b61060f565b6104d7565b610488565b610466565b61037a565b61028f565b63ffffffff81160361028a57565b600080fd5b3461028a57602036600319011261028a576004356102ac8161027c565b6102c160018060a01b03600954163314612aac565b63ffffffff8116156102f257601b805463ffffffff60a01b191660a09290921b63ffffffff60a01b16919091179055005b60405162461bcd60e51b81526020600482015260116024820152704549442063616e2774206265207a65726f60781b6044820152606490fd5b606090600319011261028a57600490565b9181601f8401121561028a578235916001600160401b03831161028a576020838186019501011161028a57565b6001600160a01b0381160361028a57565b60e036600319011261028a5761038f3661032b565b6001600160401b0360843581811161028a576103af90369060040161033c565b916103bb60a435610369565b60c43590811161028a576103d390369060040161033c565b50506017546001600160a01b03163303610443576103f86103f384614b04565b614bf8565b9260208101358094036104115761040f8383614b0e565b005b61041b8491614b04565b60405163309afaf360e21b815263ffffffff9190911660048201526024810191909152604490fd5b6040516391ac5e4f60e01b8152336004820152602490fd5b600091031261028a57565b3461028a57600036600319011261028a57604080516001815260026020820152f35b3461028a57600036600319011261028a5760206104a36146f1565b604051908152f35b6001600160401b0381160361028a57565b61010435906104ca826104ab565b565b35906104ca826104ab565b3461028a57602036600319011261028a576004356104f4816104ab565b61050960018060a01b03600954163314612aac565b6001600160401b038116156105cf57600554610535906001600160a01b03165b6001600160a01b031690565b604051631f71924f60e31b8152600760048201529190602090839060249082906000905af19182156105ca5761040f926105779160009161059c575b50612b8b565b601280546001600160c01b031660c09290921b6001600160c01b031916919091179055565b6105bd915060203d81116105c3575b6105b58183610716565b810190612b6a565b38610571565b503d6105ab565b612b7f565b60405162461bcd60e51b8152602060048201526018602482015277426f6e6420526174696f2063616e2774206265207a65726f60401b6044820152606490fd5b3461028a57604036600319011261028a577f238399d427b947898edb290f5ff0f9109849b1c3ba196a42e35f00c50a54b98b60043561064d8161027c565b60243590610659614fcc565b63ffffffff8116600052601860205281604060002055610691604051928392836020909392919363ffffffff60408201951681520152565b0390a1005b634e487b7160e01b600052604160045260246000fd5b61010081019081106001600160401b038211176106c857604052565b610696565b6001600160401b0381116106c857604052565b604081019081106001600160401b038211176106c857604052565b606081019081106001600160401b038211176106c857604052565b90601f801991011681019081106001600160401b038211176106c857604052565b604051906101e082018281106001600160401b038211176106c857604052565b60405190608082018281106001600160401b038211176106c857604052565b6040519060a082018281106001600160401b038211176106c857604052565b6001600160801b0381160361028a57565b60a435906104ca82610795565b91908261010091031261028a576040516107cc816106ac565b60e061082381839580358552602081013560208601526040810135604086015260608101356060860152608081013561080481610795565b608086015260a081013560a086015260c081013560c0860152016104cc565b910152565b6001600160401b0381116106c857601f01601f191660200190565b81601f8201121561028a5780359061085a82610828565b926108686040519485610716565b8284526020838301011161028a57816000926020809301838601378301015290565b8015150361028a57565b3461028a5761016036600319011261028a576004356108b28161027c565b61010036602319011261028a57604051906108cc826106ac565b60243582526044356020830152606435604083015260843560608301526108f16107a6565b608083015260c43560a083015260e43560c083015261090e6104bc565b60e083015261012435906001600160401b03821161028a5760409261093a61094e933690600401610843565b9061014435926109498461088a565b614a68565b60208251918051835201516020820152f35b3461028a57600036600319011261028a57602080546040516001600160801b039091168152f35b3461028a57600036600319011261028a57602060ff60095460a01c16604051908152f35b604036600319011261028a5760048035906109c582610369565b6024356001600160401b03811161028a576109e39036908301610843565b6001600160a01b037f00000000000000000000000000000000000000000000000000000000000000008116308114908115610af6575b50610ae5579060208392610a2b614fcc565b6040516352d1902d60e01b8152938491829088165afa60009281610ab5575b50610a78575050604051634c9c8ce360e01b81526001600160a01b0390921690820190815281906020010390fd5b83836000805160206152258339815191528403610a995761040f8383615064565b604051632a87526960e21b815290810184815281906020010390fd5b610ad791935060203d8111610ade575b610acf8183610716565b810190612e5d565b9138610a4a565b503d610ac5565b60405163703e46dd60e11b81528390fd5b9050816000805160206152258339815191525416141538610a19565b3461028a57600036600319011261028a5760206104a3614110565b3461028a57600036600319011261028a577f00000000000000000000000000000000000000000000000000000000000000006001600160a01b03163003610b865760206040516000805160206152258339815191528152f35b60405163703e46dd60e11b8152600490fd5b3461028a57600036600319011261028a576017546040516001600160a01b039091168152602090f35b3461028a57602036600319011261028a57600754600435906001600160a01b03163303610c55578015610c0557601d54908103908111610c0057601d55005b612de6565b60405162461bcd60e51b815260206004820152602260248201527f4c61737420455448207661756c742076616c75652063616e2774206265207a65604482015261726f60f01b6064820152608490fd5b60405162461bcd60e51b815260206004820152602a60248201527f46756e6374696f6e2073686f756c64206f6e6c792062652063616c6c656420626044820152697920747265617375727960b01b6064820152608490fd5b608036600319011261028a57600435600581101561028a57602435610cd1816104ab565b610cd9615034565b6005546040516326d2a55160e21b8152600060048201819052909391602091859160249183916001600160a01b03165af19283156105ca57610d3593610d2891600091610d4c575b5015612bf5565b6064359160443591613252565b61040f600160008051602061524583398151915255565b610d64915060203d81116105c3576105b58183610716565b38610d21565b3461028a57602036600319011261028a57600435610d8781610369565b610d8f614fcc565b6001600160a01b038116151580610e22575b610daa90612b92565b600554610dbf906001600160a01b0316610529565b604051631f71924f60e31b8152600360048201529190602090839060249082906000905af19182156105ca5761040f92610e009160009161059c5750612b8b565b600980546001600160a01b0319166001600160a01b0392909216919091179055565b50803b151560011415610da1565b3461028a57600080600319360112610e9b57610e4a614fcc565b60008051602061520583398151915280546001600160a01b0319811690915581906001600160a01b03167f8be0079c531659141344cd1fd0a4f28419497f9722a3daafe3b4186f6b6457e08280a380f35b80fd5b3461028a57604036600319011261028a57610eba60043561027c565b602060405160008152f35b3461028a57602036600319011261028a57600435610ee281610369565b6009546001600160a01b0390610efb9082163314612aac565b8116908115159081610f95575b5015610f2f57600480546001600160a01b0319166001600160a01b03909216919091179055005b60405162461bcd60e51b815260206004820152603860248201527f4f7074696f6e73206d75737420626520636f6e7472616374206164647265737360448201527720262063616e2774206265207a65726f206164647265737360401b6064820152608490fd5b90503b151538610f08565b604090600319011261028a57600435610fb881610369565b90602435610fc581610795565b90565b3461028a576020610fd836610fa0565b6000546002546001600160a01b039182169493916110559116600354611006906001600160a01b0316610529565b60405163d4222e2b60e01b81526001600160a01b0394851660048201526001600160801b03909516602486015295831660448501528216606484015293166084820152918290819060a4820190565b038173__$87511a64ad1cd7dc6108642f468c9b94de$__5af480156105ca5761109191600091611095575b506040519081529081906020820190565b0390f35b6110ad915060203d8111610ade57610acf8183610716565b38611080565b3461028a5760a036600319011261028a576110cd3661032b565b506064356001600160401b03811161028a576110ed90369060040161033c565b505060206084356110fd81610369565b6040516001600160a01b0390911630148152f35b3461028a57600036600319011261028a57600080516020615205833981519152546040516001600160a01b039091168152602090f35b3461028a57600036600319011261028a576020601054604051908152f35b604090600319011261028a5760043561117d81610369565b90602435610fc5816104ab565b61119336611165565b60018060a01b03908160055416926040516326d2a55160e21b815260026004820152602081602481600080995af180156105ca576111d8918691610d4c575015612bf5565b6111e783600954163314612aac565b6112008382166111f881151561402f565b331415614087565b6112086146f1565b508361121a611215614e2d565b614e47565b9261124084611232601b5463ffffffff9060a01c1690565b61123a612cce565b90614995565b9261127d61125861125360115460801c90565b6140e1565b601180546001600160801b031660809290921b6001600160801b031916919091179055565b6020546112b890611296906001600160801b03166140e1565b602080546001600160801b0319166001600160801b0392909216919091179055565b601b54958616906112ca855134612eb9565b6112e16112d5614110565b6001600160401b031690565b6020549098906001600160801b031660105493853b156113ae576040516391ba123160e01b81526001600160a01b039190911660048201526001600160401b0396871660248201529990951660448a01526001600160801b039094166064890152608488019190915260a09290921c63ffffffff1660a4870152859160c4918391905af19283156105ca5761139193611395575b50601b5460a01c63ffffffff165b61138b612cce565b9061487f565b5080f35b806113a26113a8926106cd565b8061045b565b38611375565b8780fd5b3461028a57602036600319011261028a576004356113cf81610369565b6009546001600160a01b03906113e89082163314612aac565b8116908115159081611493575b501561141c57601b80546001600160a01b0319166001600160a01b03909216919091179055005b60405162461bcd60e51b815260206004820152604360248201527f426f72726f77204c69717569646174696f6e206d75737420626520636f6e747260448201527f616374206164647265737320262063616e2774206265207a65726f206164647260648201526265737360e81b608482015260a490fd5b90503b1515386113f5565b3461028a5761010036600319011261028a576004356114bc81610369565b602435906114c982610369565b6044356114d581610369565b6064356114e181610369565b6084356114ed81610369565b60a435906114fa826104ab565b60c4359261150784610369565b60e4359461151486610369565b60008051602061526583398151915254976001600160401b0360ff8a60401c1615991680159081611623575b6001149081611619575b159081611610575b506115fe57600080516020615265833981519152805467ffffffffffffffff1916600117905561158697896115d957612814565b61158c57005b600080516020615265833981519152805460ff60401b19169055604051600181527fc7f505b2f371ae2175ee4913f4499e1f2633a7b5936321eed1cdaeb6115181d2908060208101610691565b600080516020615265833981519152805460ff60401b1916600160401b179055612814565b60405163f92ee8a960e01b8152600490fd5b90501538611552565b303b15915061154a565b8a9150611540565b3461028a57602036600319011261028a5760043560ff811680820361028a5761165f60018060a01b03600954163314612aac565b156116e057600554611679906001600160a01b0316610529565b9060206040518093631f71924f60e31b8252816000816116a160048201906000602083019252565b03925af19182156105ca5761040f926116c19160009161059c5750612b8b565b6009805460ff60a01b191660a09290921b60ff60a01b16919091179055565b60405162461bcd60e51b81526020600482015260116024820152704c54562063616e2774206265207a65726f60781b6044820152606490fd5b3461028a5761172736610fa0565b600254600354604051630d22c2ff60e31b81526001600160a01b0394851660048201526001600160801b0390931660248401529083166044830152909116606482015260608160848173__$87511a64ad1cd7dc6108642f468c9b94de$__5af480156105ca57600090819282916117c0575b50604080516001600160801b03939093168352602083019390935291810191909152606090f35b905061109192506117e8915060603d81116117ef575b6117e08183610716565b81019061400b565b9092611799565b503d6117d6565b60005b8381106118095750506000910152565b81810151838201526020016117f9565b90602091611832815180928185528580860191016117f6565b601f01601f1916010190565b3461028a57600036600319011261028a5761109160405161185e816106e0565b60058152640352e302e360dc1b6020820152604051918291602083526020830190611819565b3461028a57604036600319011261028a5760206118a5602435600435614518565b6001600160401b0360405191168152f35b3461028a57602036600319011261028a5763ffffffff6004356118d88161027c565b1660005260186020526020604060002054604051908152f35b3461028a57602036600319011261028a5760043561190e81610795565b6005546040516326d2a55160e21b8152600360048201529190602090839060249082906000906001600160a01b03165af19182156105ca5761040f9261195c91600091610d4c575015612bf5565b61460d565b3461028a57600036600319011261028a576020601e54604051908152f35b3461028a5760006020366003190112610e9b5760043561199e81610369565b6119a6614fcc565b6017546001600160a01b0390811691839190833b156119f75760249083604051958694859363ca5eb5e160e01b85521660048401525af180156105ca576119eb575080f35b6119f4906106cd565b80f35b8280fd5b3461028a57602036600319011261028a57600435611a1881610369565b6009546001600160a01b0390611a319082163314612aac565b81169081151580611ae3575b611a4690612af1565b600554611a5b906001600160a01b0316610529565b604051631f71924f60e31b8152600560048201529290602090849060249082906000905af19081156105ca57611a9f611ac19261040f9560009161059c5750612b8b565b600380546001600160a01b0319166001600160a01b0392909216919091179055565b600780546001600160a01b0319166001600160a01b0392909216919091179055565b50803b1515611a3d565b3461028a57602036600319011261028a5761040f600435611b0d81610369565b611b15614fcc565b614f58565b611b2336611165565b90611b2c615034565b6005546040516326d2a55160e21b8152600160048201526001600160a01b03916020908290602490829060009087165af180156105ca57611b759160009161276e575015612bf5565b8116151580612760575b611b8890613cf9565b611b936112d5614110565b91611ba66001600160401b03841661433b565b50600c80546001600160801b0319166001600160401b038516179055600354611bd7906001600160a01b0316610529565b604051634d5c56a560e01b81523360048201526001600160401b0383166024820152610200918290829060449082905afa9182156105ca57600092612733575b5050602081015190516001600160401b038381169116106126df57611c4f611c4a611c46610120840151151590565b1590565b613d5e565b60e081015161268e576080810151604051636614cc0560e01b81526001600160801b0390911660048201526001600160401b03851660248201529360208560448173__$87511a64ad1cd7dc6108642f468c9b94de$__5af49081156105ca57611d0a9560009261266d575b50611cd1611f406001600160801b03841611613daa565b60c08301516010546040516350ad67e160e11b81526001600160801b039092166004830152602482015295602090879081906044820190565b038173__$87511a64ad1cd7dc6108642f468c9b94de$__5af49586156105ca5760009661264c575b50611d3b6146f1565b50601180546001600160801b031916426001600160801b0316179055600054611d6c906001600160a01b0316610529565b6040516370a0823160e01b815233600482015290602090829060249082905afa9081156105ca57611da991889160009161262d575b501015613db1565b6001600160401b038181166101408501819052600160e08601524290911661016085015260208085015160405163684d536d60e11b81526001600160801b03909116600482015260248101929092528160448173__$87511a64ad1cd7dc6108642f468c9b94de$__5af49081156105ca5760009161260e575b50600354611e38906001600160a01b0316610529565b803b1561028a576040516302c235d160e31b81526004810183905260016024820152906000908290604490829084905af180156105ca576125fb575b5060a0840151611e9f908290611e9a906001600160801b03165b6001600160801b031690565b612eb9565b600054611eb4906001600160a01b0316610529565b6040516363a9f09360e11b81523360048201526024810183905290602090829060449082906000905af19081156105ca576000916125dc575b50156125ca57600054611f6191602091611f0f906001600160a01b0316610529565b600754611f26906001600160a01b0316928c612eb9565b6040516323b872dd60e01b81523360048201526001600160a01b03909316602484015260448301529092839190829060009082906064820190565b03925af19081156105ca576000916125ab575b50156125995760c0840151611fa690611fa190611f99906001600160801b0316611e8e565b600a54612eb9565b600a55565b60c0840151611fd290611fcd90611fc5906001600160801b0316611e8e565b601c54612eb9565b601c55565b600354611fe7906001600160a01b0316610529565b60a085015190919061200b90612005906001600160801b0316611e8e565b89612eb9565b91803b1561028a5760405163b9a221eb60e01b815260048101939093526000908390602490829084905af19081156105ca576120639261205292612586575b508633613ebe565b6001600160801b0316610180850152565b600354612078906001600160a01b0316610529565b803b1561028a5760006040518092638fabe74f60e01b82528183816120a28a8c3360048501613077565b03925af180156105ca57612573575b5060208301516120ec906001600160801b031660808501516001600160401b038416916120e7916001600160801b031690612dfc565b613e08565b916127106001600160801b0382168110156124c9575050600454612173959291906020908290612124906001600160a01b0316610529565b828701516101a0880151604051630e1fab4360e01b81526001600160801b039283166004820152911660248201526001600160401b039290921660448301529097889190829081906064820190565b03915afa9182156105ca5761226761225f6001600160401b036121a860209661226c956122959c6000926124aa575b50613e36565b86890151909590899087906001600160801b03166001600160801b03818116908316111561247b5750612228611e8e6122228b8561221461220f612207611e8e61223099612201876122359d015160018060801b031690565b90613e4f565b6019546131df565b601955565b01516001600160801b031690565b8a613e4f565b6021546131df565b602155565b612256612251612249848416601954613e68565b601a546131df565b601a55565b16601954613e68565b6022546131df565b602255565b604051632af2698d60e11b81526001600160801b03909116600482015294859081906024820190565b038173__$87511a64ad1cd7dc6108642f468c9b94de$__5af49384156105ca57600094612443575b5060208361237992866122d1611215614e2d565b916123056122e8601b5463ffffffff9060a01c1690565b936122fb816122f5612cce565b87614995565b809561138b612cce565b506003546123279061231f906001600160a01b0316610529565b935134612eb9565b6040516315ee073360e11b81523360048201526001600160a01b0390921660248301526001600160801b0390921660448201526001600160401b03909316606484015291938492839182906084820190565b03925af19081156105ca57600091612424575b5015612412576101800151604080513381526001600160401b0393909316602084015242908301526001600160801b03928316606083015291909116608082015260a08101919091527f59c54db06277209213236b5f864552e9ee789e1ca98ed9988d78cdea7bd4d9d49060c090a161040f600160008051602061524583398151915255565b604051635e5e86d560e01b8152600490fd5b61243d915060203d6020116105c3576105b58183610716565b3861238c565b6123799194508361246b602092833d8511612474575b6124638183610716565b810190612f16565b959250506122bd565b503d612459565b611e8e826124a08c6124a59661221461220f612207611e8e6122309a6122289a613e4f565b613e4f565b612235565b6124c2919250893d8b11612474576124638183610716565b90386121a2565b9091506001600160801b03821681036124ea5750509260206122959461226c565b6001600160801b038216611f401092509082612560575b505015612522576020818101516122959491906001600160801b031661226c565b60405162461bcd60e51b8152602060048201526016602482015275426f72726f77696e674865616c7468206973204c6f7760501b6044820152606490fd5b6001600160801b03161090503880612501565b806113a2612580926106cd565b386120b1565b806113a2612593926106cd565b3861204a565b60405163a07c821960e01b8152600490fd5b6125c4915060203d6020116105c3576105b58183610716565b38611f74565b6040516303f7009160e51b8152600490fd5b6125f5915060203d6020116105c3576105b58183610716565b38611eed565b806113a2612608926106cd565b38611e74565b612627915060203d602011610ade57610acf8183610716565b38611e22565b612646915060203d602011610ade57610acf8183610716565b38611da1565b61266691965060203d602011610ade57610acf8183610716565b9438611d32565b61268791925060203d602011612474576124638183610716565b9038611cba565b60405162461bcd60e51b815260206004820152602360248201527f5573657220616c726561647920776974686472617720656e7469726520616d6f6044820152621d5b9d60ea1b6064820152608490fd5b60405162461bcd60e51b815260206004820152602660248201527f5573657220646f656e73277420686176652074686520706572746963756c6172604482015265040d2dcc8caf60d31b6064820152608490fd5b6127529250803d10612759575b61274a8183610716565b810190612f2b565b3880611c17565b503d612740565b50803b151560011415611b7f565b610d64915060203d6020116105c3576105b58183610716565b3461028a57606036600319011261028a5760206127a33661032b565b63ffffffff81356127b38161027c565b166000526018825260406000205482604051920135148152f35b604051906127da826106e0565b600e82526d105d5d1bdb9bdb5a5b9d081554d160921b6020830152565b60405190612804826106e0565b60018252603160f81b6020830152565b92909694959196612823615005565b61282b615005565b61283433614f58565b61283c615005565b612844615005565b61284c615005565b6001600160a01b039283168015612a9a57601780546001600160a01b0319166001600160a01b0390921691909117905582861615612a8857601754612899906001600160a01b0316610529565b803b1561028a5760405163ca5eb5e160e01b81526001600160a01b039790971660048801526000908790602490829084905af19586156105ca57612a289861293785612959946129158261297b9a819761299d9e612a75575b5060008054919092166001600160a01b03166001600160a01b0319909116179055565b60018054919092166001600160a01b03166001600160a01b0319909116179055565b60028054919092166001600160a01b03166001600160a01b0319909116179055565b60058054919092166001600160a01b03166001600160a01b0319909116179055565b600b80546001600160a01b0319166001600160a01b0392909216919091179055565b6129a56127cd565b60208151910120612a206129b76127f7565b8051602091820120604080517f2010028ec63295361a00945794d4fce5b1046c419f60af448db7aaeb91e918f89381019384529081019490945260608401526001600160401b0390931660808301523060a08301528160c081015b03601f198101835282610716565b519020601355565b612a58612a36611e8e614110565b600c80546001600160801b0319166001600160801b0392909216919091179055565b601180546001600160801b031916426001600160801b0316179055565b806113a2612a82926106cd565b386128f2565b604051632d618d8160e21b8152600490fd5b604051638ad182f960e01b8152600490fd5b15612ab357565b60405162461bcd60e51b815260206004820152601660248201527521b0b63632b91034b9903737ba1030b71030b236b4b760511b6044820152606490fd5b15612af857565b60405162461bcd60e51b815260206004820152603960248201527f5472656173757279206d75737420626520636f6e7472616374206164647265736044820152787320262063616e2774206265207a65726f206164647265737360381b6064820152608490fd5b51906104ca8261088a565b9081602091031261028a5751610fc58161088a565b6040513d6000823e3d90fd5b1561028a57565b15612b9957565b60405162461bcd60e51b815260206004820152602e60248201527f41646d696e2063616e277420626520636f6e747261637420616464726573732060448201526d26207a65726f206164647265737360901b6064820152608490fd5b15612bfc57565b60405162461bcd60e51b815260206004820152600660248201526514185d5cd95960d21b6044820152606490fd5b15612c3157565b60405162461bcd60e51b815260206004820152601a60248201527f43616e6e6f74206465706f736974207a65726f20746f6b656e730000000000006044820152606490fd5b15612c7d57565b60405162461bcd60e51b815260206004820152602360248201527f426f72726f77696e673a20446f6e2774206861766520656e6f756768204c5a2060448201526266656560e81b6064820152608490fd5b60405190612cdb826106ac565b601c548252601d54602080840191909152601e546040840152601f546060840152546001600160801b0316608083015260215460a083015260225460c08301526023546001600160401b031660e0830152565b919082604091031261028a57604051612d46816106e0565b6020808294805184520151910152565b9060408282031261028a57610fc591612d2e565b9392612de190606060009463ffffffff6101609516885260016020890152856040890152858289015285608089015260018060801b038082511660a08a01528060208301511660c08a015260408201511660e089015201516101008701528361012087015261018080610140880152860190611819565b930152565b634e487b7160e01b600052601160045260246000fd5b6001600160801b039182169082160290811691908203610c0057565b15612e1f57565b60405162461bcd60e51b81526020600482015260166024820152754e6f7420656e6f7567682066756e6420696e2043445360501b6044820152606490fd5b9081602091031261028a575190565b906005821015612e795752565b634e487b7160e01b600052602160045260246000fd5b6104ca93606092969593608083019760018060801b03168352602083015260408201520190612e6c565b91908203918211610c0057565b51906104ca826104ab565b9081604091031261028a57602060405191612eeb836106e0565b8051612ef68161088a565b83520151612f03816104ab565b602082015290565b51906104ca82610795565b9081602091031261028a5751610fc581610795565b809103610200811261028a5760405191612f44836106e0565b8051612f4f816104ab565b83526101e08092601f19011261028a5761306b612f6a610737565b92612f7760208401612ec6565b8452612f8560408401612f0b565b6020850152612f9660608401612f0b565b6040850152612fa760808401612ec6565b6060850152612fb860a08401612f0b565b6080850152612fc960c08401612f0b565b60a0850152612fda60e08401612f0b565b60c085015261010092612fee848201612b5f565b60e086015261012093613002858301612f0b565b9086015261014093613015858301612b5f565b9086015261016093613028858301612ec6565b908601526101809361303b858301612ec6565b908601526101a09361304e858301612f0b565b908601526101c093613061858301612f0b565b9086015201612f0b565b90820152602082015290565b6001600160a01b0390911681526001600160401b03918216602082015282519091166040820152610220810192916104ca91906102009060208101516001600160801b0316606084015260408101516001600160801b0316608084015260608101516001600160401b031660a084015260808101516001600160801b031660c084015260a08101516001600160801b031660e084015260c08101516001600160801b031661010084810191909152906131cf60e082015192613140610120948588019015159052565b8201516001600160801b031661014086810191909152928201519261316c610160948588019015159052565b8201519261318861018094858801906001600160401b03169052565b820151926131a46101a094858801906001600160401b03169052565b8201516001600160801b03166101c086810191909152928201516001600160801b03166101e0860152565b01516001600160801b0316910152565b91908201809211610c0057565b95909a999792946101209792946104ca9a9661014089019d60018060a01b031689526001600160401b0380971660208a015260408901526060880152608087015260018060801b031660a086015260c08501521660e08301526101008201520190612e6c565b929091613260821515612c2a565b61326b823411612c76565b613305613279611e8e614110565b94613285611215614e2d565b94613299601b5463ffffffff9060a01c1690565b966040876132af816132a9612cce565b8c614995565b600154909a906132c7906001600160a01b0316610529565b906132d0610757565b90600082526000602083015260008583015260006060830152845198899485938493632b4a4c0d60e21b855260048501612d6a565b03915afa9384156105ca57600094613a23575b5060208361338394959661334a614e206001600160401b0361334260018060801b0388168d614518565b161015612e18565b6004548990600090613364906001600160a01b0316610529565b9260405198899586948593636916a18160e11b85528a60048601612e8f565b03925af19283156105ca576000936139fe575b506133e69060206133ad60095460ff9060a01c1690565b604051636812dc0360e01b8152600481018a90526001600160801b038416602482015260ff909116604482015292839081906064820190565b038173__$87511a64ad1cd7dc6108642f468c9b94de$__5af49182156105ca576000926139dd575b50600354613424906001600160a01b0316610529565b604061348661343f6134378d5134612eb9565b8a5190612eb9565b8251630bbfe8b960e41b8152600481018c90523360248201526001600160801b0386166044820152426001600160401b031660648201529384929091839182906084820190565b03925af19081156105ca576000916139ae575b506134bb611c466134b460208401516001600160401b031690565b9251151590565b61399c576002546134d4906001600160a01b0316610529565b604051632af2698d60e11b8152600481018a905260208160248173__$87511a64ad1cd7dc6108642f468c9b94de$__5af49081156105ca5760009161397d575b5060035461352a906001600160a01b0316610529565b604051637b85b73960e01b81526001600482015290602090829060249082905afa9081156105ca5760009161395e575b50823b1561028a57604051639992f4b760e01b81523360048201526001600160401b03851660248201526001600160801b03928316604482015291166064820152906000908290608490829084905af180156105ca5761394b575b506135c285838a33613b16565b6001546135d7906001600160a01b0316610529565b965196803b1561028a5760405163b87c3dc360e01b81526001600160801b03871660048201819052989091600091839160249183915af180156105ca57613938575b5060035461362f906001600160a01b0316610529565b604051634d5c56a560e01b81523360048201526001600160401b03831660248201526102008082604481865afa80156105ca576136969260209260009261391b575b505001516001600160801b03861660a0820152986001600160801b03166101c08a0152565b803b1561028a57604051632e449f1760e21b815233600482015260016024820152906000908290604490829084905af180156105ca57613908575b506003546136e7906001600160a01b0316610529565b98893b1561028a57604051630e6840d960e11b815233600482015260248101859052996000908b90604490829084905af1998a156105ca5761377b9a6138f5575b506137316146f1565b50601180546001600160801b031916426001600160801b0316179055601054604051633460dd8b60e11b8152600481018690526024810191909152996020908b9081906044820190565b038173__$87511a64ad1cd7dc6108642f468c9b94de$__5af4998a156105ca5760009a6138d4575b506001600160801b038a1660c08901526137e36137d26001600160801b038b166001600160401b038816612dfc565b6001600160801b03166101a08a0152565b6003546137f8906001600160a01b0316610529565b803b1561028a57604051638fabe74f60e01b8152986000918a9182908490829061382790893360048501613077565b03925af19081156105ca577f9669857a255f156ba0982057c1be0e843f0f4ae5e263b847ced8ea7a7d718cf39b6138bc996138ac936138c1575b50613871611fa18d600a546131df565b600c80546001600160801b0319166001600160801b03871617905561389b611fcd8d601c546131df565b601b5460a01c63ffffffff16611383565b506040519889984292338b6131ec565b0390a1565b806113a26138ce926106cd565b38613861565b6138ee919a5060203d602011610ade57610acf8183610716565b98386137a3565b806113a2613902926106cd565b38613728565b806113a2613915926106cd565b386136d1565b6139319250803d106127595761274a8183610716565b3880613671565b806113a2613945926106cd565b38613619565b806113a2613958926106cd565b386135b5565b613977915060203d602011612474576124638183610716565b3861355a565b613996915060203d602011612474576124638183610716565b38613514565b604051634fad3b0960e01b8152600490fd5b6139d0915060403d6040116139d6575b6139c88183610716565b810190612ed1565b38613499565b503d6139be565b6139f791925060203d602011610ade57610acf8183610716565b903861340e565b6133e6919350613a1c9060203d602011610ade57610acf8183610716565b9290613396565b83613383949550613a4d60209260403d604011613a56575b613a458183610716565b810190612d56565b95509350613318565b503d613a3b565b15613a6457565b60405162461bcd60e51b815260206004820152601f60248201527f426f72726f7765722063616e6e6f74206265207a65726f2061646472657373006044820152606490fd5b15613ab057565b60405162461bcd60e51b815260206004820152603860248201527f4c5456206d7573742062652073657420746f206e6f6e2d7a65726f2076616c7560448201527765206265666f72652070726f766964696e67206c6f616e7360401b6064820152608490fd5b91929190613b8990613b326001600160a01b0384161515613a5d565b60095460a01c60ff16613b4960ff82161515613aa9565b604051636812dc0360e01b815260048101929092526001600160801b03909516602482015260ff9094166044850152602093908490829081906064820190565b038173__$87511a64ad1cd7dc6108642f468c9b94de$__5af480156105ca57613c0d85916000938491613cdc575b508354613bd8908790613bd2906001600160a01b0316610529565b92612eb9565b6040516340c10f1960e01b8082526001600160a01b039097166004820152602481019190915293849283919082906044820190565b03925af19081156105ca57600091613cbf575b5015613c9057600054613c749284929091613c43906001600160a01b0316610529565b6007546040519283526001600160a01b03166004830152602482019290925292839190829060009082906044820190565b03925af19182156105ca57600092613ca2575b505015613c9057565b60405163035f563160e31b8152600490fd5b613cb89250803d106105c3576105b58183610716565b3880613c87565b613cd69150843d86116105c3576105b58183610716565b38613c20565b613cf39150833d8511610ade57610acf8183610716565b38613bb7565b15613d0057565b60405162461bcd60e51b815260206004820152603060248201527f546f20616464726573732063616e6e6f742062652061207a65726f20616e642060448201526f636f6e7472616374206164647265737360801b6064820152608490fd5b15613d6557565b60405162461bcd60e51b815260206004820152601f60248201527f5573657220616d6f756e7420686173206265656e206c697175696461746564006044820152606490fd5b1561252257565b15613db857565b60405162461bcd60e51b815260206004820152602260248201527f557365722062616c616e6365206973206c657373207468616e20726571756972604482015261195960f21b6064820152608490fd5b6001600160801b0391821691908215613e2057160490565b634e487b7160e01b600052601260045260246000fd5b6001600160801b039182169082160191908211610c0057565b6001600160801b039182169082160391908211610c0057565b81810292918115918404141715610c0057565b15613e8257565b60405162461bcd60e51b8152602060048201526014602482015273416d6f756e742063616e2774206265207a65726f60601b6044820152606490fd5b613ed26001600160a01b0382161515613a5d565b613edd831515613e7b565b601254604051631f79572960e11b8152600481019490945260c01c6024840152602091828460448173__$87511a64ad1cd7dc6108642f468c9b94de$__5af49384156105ca57600094613fe4575b50600254613f989284928692600090613f4c906001600160a01b0316610529565b604051631ff9eb7f60e21b81526001600160a01b0390941660048501526001600160401b0390921660248401526001600160801b03909316604483015290938492839182906064820190565b03925af19182156105ca57600092613fc7575b505015613fb55790565b6040516328eca99f60e21b8152600490fd5b613fdd9250803d106105c3576105b58183610716565b3880613fab565b613f98929450906140028492833d8511612474576124638183610716565b94925090613f2b565b9081606091031261028a57805161402181610795565b916040602083015192015190565b1561403657565b60405162461bcd60e51b815260206004820152602360248201527f546f20616464726573732063616e6e6f742062652061207a65726f206164647260448201526265737360e81b6064820152608490fd5b1561408e57565b60405162461bcd60e51b815260206004820152602560248201527f596f752063616e6e6f74206c697175696461746520796f7572206f776e206173604482015264736574732160d81b6064820152608490fd5b6001600160801b03908116908114610c005760010190565b519069ffffffffffffffffffff8216820361028a57565b600b54604051633fabe5a360e21b81529060a090829060049082906001600160a01b03165afa80156105ca5760009061414e575b620f424091500490565b60a0823d8211614195575b8161416660a09383610716565b81010312610e9b57508061417d620f4240926140f9565b5061418f6080602083015192016140f9565b50614144565b3d9150614159565b8092910391610120831261028a5780516141b6816104ab565b926101008091601f19011261028a5761422690604051926141d6846106ac565b6020810151845260408101516020850152606081015160408501526080810151606085015261420760a08201612f0b565b608085015260c081015160a085015260e081015160c085015201612ec6565b60e082015290565b600081526020808201929092526001600160801b03928316604082015292821660608401526080830193909352601c5460a0830152601d5460c0830152601e5460e0830152601f5461010083015291546101a0820193926104ca92916142a191165b6001600160801b0316610120830152565b6021546101408201526022546101608201526101806142c86023546001600160401b031690565b6001600160401b0316910152565b9081526020808201929092526001600160801b03928316604082015292821660608401526080830193909352601c5460a0830152601d5460c0830152601e5460e0830152601f5461010083015291546101a0820193926104ca92916142a19116614290565b801561450657600c546001600160801b0316600354909190614365906001600160a01b0316610529565b9060405180926354dec33960e11b825281600460209586935afa80156105ca576004916000916144e9575b5060015484906143a8906001600160a01b0316610529565b604051636a7889f360e11b815293849182905afa9182156105ca576143f2946000936144ca575b50506040519384928392635772b42160e01b84526101209788966004860161422e565b038173__$87511a64ad1cd7dc6108642f468c9b94de$__5af49081156105ca576000928392614497575b5050610fc5908051601c55602080820151601d556040820151601e556060820151601f55608082015181546001600160801b0319166001600160801b039190911617905560a081015160215560c081015160225560e001516023805467ffffffffffffffff19166001600160401b0392909216919091179055565b610fc593506144bb9250803d106144c3575b6144b38183610716565b81019061419d565b90913861441c565b503d6144a9565b6144e1929350803d10610ade57610acf8183610716565b9038806143cf565b6145009150843d8611612474576124638183610716565b38614390565b6040516315e73e9f60e01b8152600490fd5b811561450657600c546001600160801b0316600354909190614542906001600160a01b0316610529565b6040519283916354dec33960e11b835282600460209687935afa9182156105ca576000926145ee575b506001546004908590614586906001600160a01b0316610529565b604051636a7889f360e11b815292839182905afa9485156105ca576000956145cf575b50506143f26040519485938493635772b42160e01b8552610120988997600487016142d6565b6145e6929550803d10610ade57610acf8183610716565b9238806145a9565b614606919250843d8611612474576124638183610716565b903861456b565b61462260018060a01b03600954163314612aac565b6001600160801b038116156146b257600554614646906001600160a01b0316610529565b604051631f71924f60e31b8152600160048201529190602090839060249082906000905af19182156105ca576104ca926146879160009161059c5750612b8b565b60128054600160401b600160c01b03191660409290921b600160401b600160c01b0316919091179055565b60405162461bcd60e51b8152602060048201526017602482015276526174652073686f756c64206e6f74206265207a65726f60481b6044820152606490fd5b600354614706906001600160a01b0316610529565b60405180916322d7586760e11b825281600460209485935afa9081156105ca576000916147c2575b5060125460115460105460408051635529dfd560e01b81526001600160801b03958616600482015293901c84166024840152921660448201526064810191909152818160848173__$87511a64ad1cd7dc6108642f468c9b94de$__5af49182156105ca576000926147a5575b5050610fc581601055565b6147bb9250803d10610ade57610acf8183610716565b388061479a565b6147d99150823d8411612474576124638183610716565b3861472e565b604051906147ec826106e0565b60006020838281520152565b60405190614805826106fb565b81600081526000602082015260406108236147df565b91909160e06001600160401b03816101008401958051855260208101516020860152604081015160408601526060810151606086015260018060801b03608082015116608086015260a081015160a086015260c081015160c0860152015116910152565b6148a99061492a608094956148b7614948956148996147f8565b506040519586916020830161481b565b03601f198101865285610716565b6148bf6147f8565b5060206148cc8851614ce0565b970190815180614986575b506017546148ed906001600160a01b0316610529565b946148f785614bf8565b9251151592614913614907610776565b63ffffffff9097168752565b602086015260408501526060840152151585830152565b6040519485809481936302637a4560e41b8352339060048401614c30565b03925af19081156105ca5760009161495e575090565b610fc5915060803d811161497f575b6149778183610716565b810190614c9e565b503d61496d565b61498f90614d02565b386148d7565b90614a3b916149bd6149cb946149a96147df565b50604095869485519384916020830161481b565b03601f198101845283610716565b6149d36147df565b506017546149e9906001600160a01b0316610529565b916149f384614bf8565b614a0a6149fe610776565b63ffffffff9096168652565b60208501528484015260608301526000608083015282518080958194631bb8518b60e31b8352309060048401614c30565b03915afa9182156105ca57600092614a5257505090565b610fc59250803d10613a5657613a458183610716565b6148a9614ae8614a9295614a3b95614a7e6147df565b50604097889687519586916020830161481b565b614a9a6147df565b50601754614ab0906001600160a01b0316610529565b93614aba86614bf8565b614ad1614ac5610776565b63ffffffff9098168852565b602087015286860152606085015215156080840152565b82518080958194631bb8518b60e31b8352309060048401614c30565b35610fc58161027c565b60e091604051614b1d816106ac565b60009381858093528260208201528260408201528260608201528260808201528260a08201528260c0820152015281019161010082840312610e9b575060e0614b6c6104ca93614bdc936107b3565b614b768151601c55565b614b836020820151601d55565b614b906040820151601e55565b614b9d6060820151601f55565b6080810151614bb4906001600160801b0316611296565b614bc160a0820151602155565b614bce60c0820151602255565b01516001600160401b031690565b6001600160401b03166001600160401b03196023541617602355565b63ffffffff16806000526018602052604060002054908115614c18575090565b6024906040519063f6ff4fb760e01b82526004820152fd5b906020909392936040835263ffffffff81511660408401528181015160608401526080614c84614c6e604084015160a08488015260e0870190611819565b6060840151868203603f190160a0880152611819565b910151151560c08401526001600160a01b03909416910152565b9060808282031261028a57614cd8906040805193614cbb856106fb565b805185526020810151614ccd816104ab565b602086015201612d2e565b604082015290565b803410614cea5790565b6040516304fb820960e51b8152346004820152602490fd5b60175460405163393f876560e21b81526001600160a01b039182169260209290918381600481885afa9081156105ca57600091614df7575b5016928315614de5576040516323b872dd60e01b8482019081523360248301526001600160a01b0390921660448201526064810192909252614d9d916000918291614d888160848101612a12565b519082875af1614d9661510b565b9084615155565b8051918215159283614dcc575b505050614db45750565b60249060405190635274afe760e01b82526004820152fd5b614ddc9350820181019101612b6a565b15388080614daa565b6040516329b99a9560e11b8152600490fd5b908482813d8311614e26575b614e0d8183610716565b81010312610e9b575051614e2081610369565b38614d3a565b503d614e03565b604051600360f01b602082015260028152610fc5816106e0565b61ffff90600382614e57836151b8565b1603614ef757604051610c3560861b60208201526010815290614e79826106e0565b600383614e85836151b8565b1603614ed5578151838111614eb6578316600101928311610c0057612a12610fc59260405194859360208501614f03565b604490604051906306dfcc6560e41b8252601060048301526024820152fd5b82614ee16024926151b8565b604051633a51740d60e01b815291166004820152fd5b90614ee16024926151b8565b602090614f1a6004959493828151948592016117f6565b600160f81b910181815260f09290921b6001600160f01b03191660018301526003820152815191614f53908390858401906020016117f6565b010190565b6001600160a01b03908116908115614fb35760008051602061520583398151915280546001600160a01b031981168417909155167f8be0079c531659141344cd1fd0a4f28419497f9722a3daafe3b4186f6b6457e0600080a3565b604051631e4fbdf760e01b815260006004820152602490fd5b600080516020615205833981519152546001600160a01b03163303614fed57565b60405163118cdaa760e01b8152336004820152602490fd5b60ff6000805160206152658339815191525460401c161561502257565b604051631afcd79f60e31b8152600490fd5b60008051602061524583398151915260028154146150525760029055565b604051633ee5aeb560e01b8152600490fd5b90813b156150ea5760008051602061522583398151915280546001600160a01b0319166001600160a01b0384169081179091557fbc7cd75a20ee27fd9adebab32041f755214dbc6bffa90cc0225b39da2e5c2d3b600080a28051156150cf576150cc9161513b565b50565b5050346150d857565b60405163b398979f60e01b8152600490fd5b604051634c9c8ce360e01b81526001600160a01b0383166004820152602490fd5b3d15615136573d9061511c82610828565b9161512a6040519384610716565b82523d6000602084013e565b606090565b600080610fc593602081519101845af461515361510b565b915b9061517c575080511561516a57805190602001fd5b604051630a12f52160e11b8152600490fd5b815115806151af575b61518d575090565b604051639996b31560e01b81526001600160a01b039091166004820152602490fd5b50803b15615185565b60028151106151c8576002015190565b60405162461bcd60e51b8152602060048201526014602482015273746f55696e7431365f6f75744f66426f756e647360601b6044820152606490fdfe9016d09d72d40fdae2fd8ceac6b6234c7706214fd39c1cd1e609a0528c199300360894a13ba1a3210667c828492db98dca3e2076cc3735a920a3ca505d382bbc9b779b17422d0df92223018b32b4d1fa46e071723d6817e2486d003becc55f00f0c57e16840df040f15088dc2f81fe391c3923bec73e23a9662efc9c229c6a00a26469706673582212204dc6400fd3c162c349e38baf8f419cfe4cdab6b912c5286775c625af4c3f30f564736f6c63430008140033","linkReferences":{"contracts/lib/BorrowLib.sol":{"BorrowLib":[{"start":4233,"length":20},{"start":6050,"length":20},{"start":7362,"length":20},{"start":7486,"length":20},{"start":7726,"length":20},{"start":8905,"length":20},{"start":13338,"length":20},{"start":13600,"length":20},{"start":14255,"length":20},{"start":15293,"length":20},{"start":16183,"length":20},{"start":17446,"length":20},{"start":18342,"length":20}]}}},"methodIdentifiers":{"UPGRADE_INTERFACE_VERSION()":"ad3cb1cc","allowInitializePath((uint32,bytes32,uint64))":"ff7bd03d","calculateCumulativeRate()":"181ab6db","calculateRatio(uint256,uint256)":"ada0b0ed","depositTokens(uint8,uint64,uint256,uint256)":"6aa2ca3a","endpoint()":"5e280f11","getAbondYields(address,uint128)":"ab2f40ee","getLTV()":"4ed2b8ac","getUSDValue()":"50593af7","initialize(address,address,address,address,address,uint64,address,address)":"a7d46ab2","isComposeMsgSender((uint32,bytes32,uint64),bytes,address)":"82413eac","lastCumulativeRate()":"8e4db39a","liquidate(address,uint64)":"9281b985","lzReceive((uint32,bytes32,uint64),bytes32,bytes,address,bytes)":"13137d65","nextNonce(uint32,bytes32)":"7d25a05e","oAppVersion()":"17442b70","omniChainBorrowingCDSPoolValue()":"c2a3bde2","omniChainBorrowingNoOfLiquidations()":"4d818c9c","owner()":"8da5cb5b","peers(uint32)":"bb0b6a53","proxiableUUID()":"52d1902d","quote(uint32,(uint256,uint256,uint256,uint256,uint128,uint256,uint256,uint64),bytes,bool)":"495b416a","redeemYields(address,uint128)":"80ddebcb","renounceOwnership()":"715018a6","setAPR(uint128)":"c1bab32d","setAdmin(address)":"704b6c02","setBondRatio(uint64)":"276eb3ac","setBorrowLiquidation(address)":"a4cdc597","setDelegate(address)":"ca5eb5e1","setDstEid(uint32)":"0d14c92e","setLTV(uint8)":"aad2476d","setOptions(address)":"7d6dff7d","setPeer(uint32,bytes32)":"3400288b","setTreasury(address)":"f0f44260","transferOwnership(address)":"f2fde38b","updateLastEthVaultValue(uint256)":"661b7d3e","upgradeToAndCall(address,bytes)":"4f1ef286","withDraw(address,uint64)":"f30707e1"},"storageLayout":{"storage":[{"astId":3979,"contract":"contracts/Core_logic/borrowing.sol:Borrowing","label":"usda","offset":0,"slot":"0","type":"t_contract(IUSDa)2967"},{"astId":3982,"contract":"contracts/Core_logic/borrowing.sol:Borrowing","label":"cds","offset":0,"slot":"1","type":"t_contract(CDSInterface)2063"},{"astId":3985,"contract":"contracts/Core_logic/borrowing.sol:Borrowing","label":"abond","offset":0,"slot":"2","type":"t_contract(IABONDToken)2185"},{"astId":3988,"contract":"contracts/Core_logic/borrowing.sol:Borrowing","label":"treasury","offset":0,"slot":"3","type":"t_contract(ITreasury)2840"},{"astId":3991,"contract":"contracts/Core_logic/borrowing.sol:Borrowing","label":"options","offset":0,"slot":"4","type":"t_contract(IOptions)2409"},{"astId":3994,"contract":"contracts/Core_logic/borrowing.sol:Borrowing","label":"multiSign","offset":0,"slot":"5","type":"t_contract(IMultiSign)2375"},{"astId":3996,"contract":"contracts/Core_logic/borrowing.sol:Borrowing","label":"_downSideProtectionLimit","offset":0,"slot":"6","type":"t_uint256"},{"astId":3998,"contract":"contracts/Core_logic/borrowing.sol:Borrowing","label":"treasuryAddress","offset":0,"slot":"7","type":"t_address"},{"astId":4000,"contract":"contracts/Core_logic/borrowing.sol:Borrowing","label":"cdsAddress","offset":0,"slot":"8","type":"t_address"},{"astId":4002,"contract":"contracts/Core_logic/borrowing.sol:Borrowing","label":"admin","offset":0,"slot":"9","type":"t_address"},{"astId":4004,"contract":"contracts/Core_logic/borrowing.sol:Borrowing","label":"LTV","offset":20,"slot":"9","type":"t_uint8"},{"astId":4006,"contract":"contracts/Core_logic/borrowing.sol:Borrowing","label":"APY","offset":21,"slot":"9","type":"t_uint8"},{"astId":4008,"contract":"contracts/Core_logic/borrowing.sol:Borrowing","label":"totalNormalizedAmount","offset":0,"slot":"10","type":"t_uint256"},{"astId":4010,"contract":"contracts/Core_logic/borrowing.sol:Borrowing","label":"priceFeedAddress","offset":0,"slot":"11","type":"t_address"},{"astId":4012,"contract":"contracts/Core_logic/borrowing.sol:Borrowing","label":"lastEthprice","offset":0,"slot":"12","type":"t_uint128"},{"astId":4014,"contract":"contracts/Core_logic/borrowing.sol:Borrowing","label":"lastEthVaultValue","offset":0,"slot":"13","type":"t_uint256"},{"astId":4016,"contract":"contracts/Core_logic/borrowing.sol:Borrowing","label":"lastCDSPoolValue","offset":0,"slot":"14","type":"t_uint256"},{"astId":4018,"contract":"contracts/Core_logic/borrowing.sol:Borrowing","label":"lastTotalCDSPool","offset":0,"slot":"15","type":"t_uint256"},{"astId":4020,"contract":"contracts/Core_logic/borrowing.sol:Borrowing","label":"lastCumulativeRate","offset":0,"slot":"16","type":"t_uint256"},{"astId":4022,"contract":"contracts/Core_logic/borrowing.sol:Borrowing","label":"lastEventTime","offset":0,"slot":"17","type":"t_uint128"},{"astId":4024,"contract":"contracts/Core_logic/borrowing.sol:Borrowing","label":"noOfLiquidations","offset":16,"slot":"17","type":"t_uint128"},{"astId":4026,"contract":"contracts/Core_logic/borrowing.sol:Borrowing","label":"withdrawTimeLimit","offset":0,"slot":"18","type":"t_uint64"},{"astId":4028,"contract":"contracts/Core_logic/borrowing.sol:Borrowing","label":"ratePerSec","offset":8,"slot":"18","type":"t_uint128"},{"astId":4030,"contract":"contracts/Core_logic/borrowing.sol:Borrowing","label":"bondRatio","offset":24,"slot":"18","type":"t_uint64"},{"astId":4038,"contract":"contracts/Core_logic/borrowing.sol:Borrowing","label":"DOMAIN_SEPARATOR","offset":0,"slot":"19","type":"t_bytes32"},{"astId":4045,"contract":"contracts/Core_logic/borrowing.sol:Borrowing","label":"PRECISION","offset":0,"slot":"20","type":"t_uint128"},{"astId":4047,"contract":"contracts/Core_logic/borrowing.sol:Borrowing","label":"CUMULATIVE_PRECISION","offset":16,"slot":"20","type":"t_uint128"},{"astId":4049,"contract":"contracts/Core_logic/borrowing.sol:Borrowing","label":"RATIO_PRECISION","offset":0,"slot":"21","type":"t_uint128"},{"astId":4051,"contract":"contracts/Core_logic/borrowing.sol:Borrowing","label":"RATE_PRECISION","offset":16,"slot":"21","type":"t_uint128"},{"astId":4053,"contract":"contracts/Core_logic/borrowing.sol:Borrowing","label":"USDa_PRECISION","offset":0,"slot":"22","type":"t_uint128"},{"astId":4693,"contract":"contracts/Core_logic/borrowing.sol:Borrowing","label":"endpoint","offset":0,"slot":"23","type":"t_contract(ILayerZeroEndpointV2)5969"},{"astId":4697,"contract":"contracts/Core_logic/borrowing.sol:Borrowing","label":"peers","offset":0,"slot":"24","type":"t_mapping(t_uint32,t_bytes32)"},{"astId":41,"contract":"contracts/Core_logic/borrowing.sol:Borrowing","label":"ethRemainingInWithdraw","offset":0,"slot":"25","type":"t_uint256"},{"astId":43,"contract":"contracts/Core_logic/borrowing.sol:Borrowing","label":"ethValueRemainingInWithdraw","offset":0,"slot":"26","type":"t_uint256"},{"astId":46,"contract":"contracts/Core_logic/borrowing.sol:Borrowing","label":"borrowLiquiation","offset":0,"slot":"27","type":"t_contract(IBorrowLiquidation)2217"},{"astId":48,"contract":"contracts/Core_logic/borrowing.sol:Borrowing","label":"dstEid","offset":20,"slot":"27","type":"t_uint32"},{"astId":54,"contract":"contracts/Core_logic/borrowing.sol:Borrowing","label":"omniChainBorrowing","offset":0,"slot":"28","type":"t_struct(OmniChainBorrowingData)3976_storage"}],"types":{"t_address":{"encoding":"inplace","label":"address","numberOfBytes":"20"},"t_bytes32":{"encoding":"inplace","label":"bytes32","numberOfBytes":"32"},"t_contract(CDSInterface)2063":{"encoding":"inplace","label":"contract CDSInterface","numberOfBytes":"20"},"t_contract(IABONDToken)2185":{"encoding":"inplace","label":"contract IABONDToken","numberOfBytes":"20"},"t_contract(IBorrowLiquidation)2217":{"encoding":"inplace","label":"contract IBorrowLiquidation","numberOfBytes":"20"},"t_contract(ILayerZeroEndpointV2)5969":{"encoding":"inplace","label":"contract ILayerZeroEndpointV2","numberOfBytes":"20"},"t_contract(IMultiSign)2375":{"encoding":"inplace","label":"contract IMultiSign","numberOfBytes":"20"},"t_contract(IOptions)2409":{"encoding":"inplace","label":"contract IOptions","numberOfBytes":"20"},"t_contract(ITreasury)2840":{"encoding":"inplace","label":"contract ITreasury","numberOfBytes":"20"},"t_contract(IUSDa)2967":{"encoding":"inplace","label":"contract IUSDa","numberOfBytes":"20"},"t_mapping(t_uint32,t_bytes32)":{"encoding":"mapping","key":"t_uint32","label":"mapping(uint32 => bytes32)","numberOfBytes":"32","value":"t_bytes32"},"t_struct(OmniChainBorrowingData)3976_storage":{"encoding":"inplace","label":"struct BorrowingV1.OmniChainBorrowingData","numberOfBytes":"256","members":[{"astId":3961,"contract":"contracts/Core_logic/borrowing.sol:Borrowing","label":"normalizedAmount","offset":0,"slot":"0","type":"t_uint256"},{"astId":3963,"contract":"contracts/Core_logic/borrowing.sol:Borrowing","label":"ethVaultValue","offset":0,"slot":"1","type":"t_uint256"},{"astId":3965,"contract":"contracts/Core_logic/borrowing.sol:Borrowing","label":"cdsPoolValue","offset":0,"slot":"2","type":"t_uint256"},{"astId":3967,"contract":"contracts/Core_logic/borrowing.sol:Borrowing","label":"totalCDSPool","offset":0,"slot":"3","type":"t_uint256"},{"astId":3969,"contract":"contracts/Core_logic/borrowing.sol:Borrowing","label":"noOfLiquidations","offset":0,"slot":"4","type":"t_uint128"},{"astId":3971,"contract":"contracts/Core_logic/borrowing.sol:Borrowing","label":"ethRemainingInWithdraw","offset":0,"slot":"5","type":"t_uint256"},{"astId":3973,"contract":"contracts/Core_logic/borrowing.sol:Borrowing","label":"ethValueRemainingInWithdraw","offset":0,"slot":"6","type":"t_uint256"},{"astId":3975,"contract":"contracts/Core_logic/borrowing.sol:Borrowing","label":"nonce","offset":0,"slot":"7","type":"t_uint64"}]},"t_uint128":{"encoding":"inplace","label":"uint128","numberOfBytes":"16"},"t_uint256":{"encoding":"inplace","label":"uint256","numberOfBytes":"32"},"t_uint32":{"encoding":"inplace","label":"uint32","numberOfBytes":"4"},"t_uint64":{"encoding":"inplace","label":"uint64","numberOfBytes":"8"},"t_uint8":{"encoding":"inplace","label":"uint8","numberOfBytes":"1"}}},"id":0}