{"abi":[{"type":"receive","stateMutability":"payable"},{"type":"function","name":"UPGRADE_INTERFACE_VERSION","inputs":[],"outputs":[{"name":"","type":"string","internalType":"string"}],"stateMutability":"view"},{"type":"function","name":"abondUSDaPool","inputs":[],"outputs":[{"name":"","type":"uint256","internalType":"uint256"}],"stateMutability":"view"},{"type":"function","name":"allowInitializePath","inputs":[{"name":"origin","type":"tuple","internalType":"struct Origin","components":[{"name":"srcEid","type":"uint32","internalType":"uint32"},{"name":"sender","type":"bytes32","internalType":"bytes32"},{"name":"nonce","type":"uint64","internalType":"uint64"}]}],"outputs":[{"name":"","type":"bool","internalType":"bool"}],"stateMutability":"view"},{"type":"function","name":"approveUSDa","inputs":[{"name":"_address","type":"address","internalType":"address"},{"name":"_amount","type":"uint256","internalType":"uint256"}],"outputs":[],"stateMutability":"nonpayable"},{"type":"function","name":"approveUsdt","inputs":[{"name":"_address","type":"address","internalType":"address"},{"name":"_amount","type":"uint256","internalType":"uint256"}],"outputs":[],"stateMutability":"nonpayable"},{"type":"function","name":"borrowing","inputs":[{"name":"depositor","type":"address","internalType":"address"}],"outputs":[{"name":"depositedAmount","type":"uint256","internalType":"uint256"},{"name":"totalBorrowedAmount","type":"uint256","internalType":"uint256"},{"name":"hasBorrowed","type":"bool","internalType":"bool"},{"name":"hasDeposited","type":"bool","internalType":"bool"},{"name":"borrowerIndex","type":"uint64","internalType":"uint64"}],"stateMutability":"view"},{"type":"function","name":"calculateYieldsForExternalProtocol","inputs":[{"name":"user","type":"address","internalType":"address"},{"name":"aBondAmount","type":"uint128","internalType":"uint128"}],"outputs":[{"name":"","type":"uint256","internalType":"uint256"}],"stateMutability":"view"},{"type":"function","name":"deposit","inputs":[{"name":"_depositingAmount","type":"uint256","internalType":"uint256"},{"name":"user","type":"address","internalType":"address"},{"name":"_ethPrice","type":"uint128","internalType":"uint128"},{"name":"_depositTime","type":"uint64","internalType":"uint64"}],"outputs":[{"name":"","type":"tuple","internalType":"struct ITreasury.DepositResult","components":[{"name":"hasDeposited","type":"bool","internalType":"bool"},{"name":"borrowerIndex","type":"uint64","internalType":"uint64"}]}],"stateMutability":"payable"},{"type":"function","name":"endpoint","inputs":[],"outputs":[{"name":"","type":"address","internalType":"contract ILayerZeroEndpointV2"}],"stateMutability":"view"},{"type":"function","name":"getBalanceInTreasury","inputs":[],"outputs":[{"name":"","type":"uint256","internalType":"uint256"}],"stateMutability":"view"},{"type":"function","name":"getBorrowing","inputs":[{"name":"depositor","type":"address","internalType":"address"},{"name":"index","type":"uint64","internalType":"uint64"}],"outputs":[{"name":"","type":"tuple","internalType":"struct ITreasury.GetBorrowingResult","components":[{"name":"totalIndex","type":"uint64","internalType":"uint64"},{"name":"depositDetails","type":"tuple","internalType":"struct ITreasury.DepositDetails","components":[{"name":"depositedTime","type":"uint64","internalType":"uint64"},{"name":"depositedAmount","type":"uint128","internalType":"uint128"},{"name":"depositedAmountUsdValue","type":"uint128","internalType":"uint128"},{"name":"downsidePercentage","type":"uint64","internalType":"uint64"},{"name":"ethPriceAtDeposit","type":"uint128","internalType":"uint128"},{"name":"borrowedAmount","type":"uint128","internalType":"uint128"},{"name":"normalizedAmount","type":"uint128","internalType":"uint128"},{"name":"withdrawed","type":"bool","internalType":"bool"},{"name":"withdrawAmount","type":"uint128","internalType":"uint128"},{"name":"liquidated","type":"bool","internalType":"bool"},{"name":"ethPriceAtWithdraw","type":"uint64","internalType":"uint64"},{"name":"withdrawTime","type":"uint64","internalType":"uint64"},{"name":"aBondTokensAmount","type":"uint128","internalType":"uint128"},{"name":"strikePrice","type":"uint128","internalType":"uint128"},{"name":"optionFees","type":"uint128","internalType":"uint128"}]}]}],"stateMutability":"view"},{"type":"function","name":"getExternalProtocolCumulativeRate","inputs":[{"name":"maximum","type":"bool","internalType":"bool"}],"outputs":[{"name":"","type":"uint128","internalType":"uint128"}],"stateMutability":"view"},{"type":"function","name":"initialize","inputs":[{"name":"_borrowing","type":"address","internalType":"address"},{"name":"_tokenAddress","type":"address","internalType":"address"},{"name":"_abondAddress","type":"address","internalType":"address"},{"name":"_cdsContract","type":"address","internalType":"address"},{"name":"_borrowLiquidation","type":"address","internalType":"address"},{"name":"_usdt","type":"address","internalType":"address"},{"name":"_endpoint","type":"address","internalType":"address"},{"name":"_delegate","type":"address","internalType":"address"}],"outputs":[],"stateMutability":"nonpayable"},{"type":"function","name":"isComposeMsgSender","inputs":[{"name":"","type":"tuple","internalType":"struct Origin","components":[{"name":"srcEid","type":"uint32","internalType":"uint32"},{"name":"sender","type":"bytes32","internalType":"bytes32"},{"name":"nonce","type":"uint64","internalType":"uint64"}]},{"name":"","type":"bytes","internalType":"bytes"},{"name":"_sender","type":"address","internalType":"address"}],"outputs":[{"name":"","type":"bool","internalType":"bool"}],"stateMutability":"view"},{"type":"function","name":"lzReceive","inputs":[{"name":"_origin","type":"tuple","internalType":"struct Origin","components":[{"name":"srcEid","type":"uint32","internalType":"uint32"},{"name":"sender","type":"bytes32","internalType":"bytes32"},{"name":"nonce","type":"uint64","internalType":"uint64"}]},{"name":"_guid","type":"bytes32","internalType":"bytes32"},{"name":"_message","type":"bytes","internalType":"bytes"},{"name":"_executor","type":"address","internalType":"address"},{"name":"_extraData","type":"bytes","internalType":"bytes"}],"outputs":[],"stateMutability":"payable"},{"type":"function","name":"nextNonce","inputs":[{"name":"","type":"uint32","internalType":"uint32"},{"name":"","type":"bytes32","internalType":"bytes32"}],"outputs":[{"name":"nonce","type":"uint64","internalType":"uint64"}],"stateMutability":"view"},{"type":"function","name":"noOfBorrowers","inputs":[],"outputs":[{"name":"","type":"uint128","internalType":"uint128"}],"stateMutability":"view"},{"type":"function","name":"oAppVersion","inputs":[],"outputs":[{"name":"senderVersion","type":"uint64","internalType":"uint64"},{"name":"receiverVersion","type":"uint64","internalType":"uint64"}],"stateMutability":"pure"},{"type":"function","name":"oftOrNativeReceiveFromOtherChains","inputs":[{"name":"_functionToDo","type":"uint8","internalType":"enum ITreasury.FunctionToDo"},{"name":"_oftTransferData","type":"tuple","internalType":"struct ITreasury.USDaOftTransferData","components":[{"name":"recipient","type":"address","internalType":"address"},{"name":"tokensToSend","type":"uint256","internalType":"uint256"}]},{"name":"_nativeTokenTransferData","type":"tuple","internalType":"struct ITreasury.NativeTokenTransferData","components":[{"name":"recipient","type":"address","internalType":"address"},{"name":"nativeTokensToSend","type":"uint256","internalType":"uint256"}]}],"outputs":[{"name":"receipt","type":"tuple","internalType":"struct MessagingReceipt","components":[{"name":"guid","type":"bytes32","internalType":"bytes32"},{"name":"nonce","type":"uint64","internalType":"uint64"},{"name":"fee","type":"tuple","internalType":"struct MessagingFee","components":[{"name":"nativeFee","type":"uint256","internalType":"uint256"},{"name":"lzTokenFee","type":"uint256","internalType":"uint256"}]}]}],"stateMutability":"payable"},{"type":"function","name":"omniChainTreasuryEthProfitsOfLiquidators","inputs":[],"outputs":[{"name":"","type":"uint256","internalType":"uint256"}],"stateMutability":"view"},{"type":"function","name":"omniChainTreasuryNoOfBorrowers","inputs":[],"outputs":[{"name":"","type":"uint128","internalType":"uint128"}],"stateMutability":"view"},{"type":"function","name":"omniChainTreasuryTotalVolumeOfBorrowersAmountinUSD","inputs":[],"outputs":[{"name":"","type":"uint256","internalType":"uint256"}],"stateMutability":"view"},{"type":"function","name":"omniChainTreasuryTotalVolumeOfBorrowersAmountinWei","inputs":[],"outputs":[{"name":"","type":"uint256","internalType":"uint256"}],"stateMutability":"view"},{"type":"function","name":"owner","inputs":[],"outputs":[{"name":"","type":"address","internalType":"address"}],"stateMutability":"view"},{"type":"function","name":"peers","inputs":[{"name":"eid","type":"uint32","internalType":"uint32"}],"outputs":[{"name":"peer","type":"bytes32","internalType":"bytes32"}],"stateMutability":"view"},{"type":"function","name":"proxiableUUID","inputs":[],"outputs":[{"name":"","type":"bytes32","internalType":"bytes32"}],"stateMutability":"view"},{"type":"function","name":"quote","inputs":[{"name":"_dstEid","type":"uint32","internalType":"uint32"},{"name":"_functionToDo","type":"uint8","internalType":"enum ITreasury.FunctionToDo"},{"name":"_oftTransferData","type":"tuple","internalType":"struct ITreasury.USDaOftTransferData","components":[{"name":"recipient","type":"address","internalType":"address"},{"name":"tokensToSend","type":"uint256","internalType":"uint256"}]},{"name":"_nativeTokenTransferData","type":"tuple","internalType":"struct ITreasury.NativeTokenTransferData","components":[{"name":"recipient","type":"address","internalType":"address"},{"name":"nativeTokensToSend","type":"uint256","internalType":"uint256"}]},{"name":"_options","type":"bytes","internalType":"bytes"},{"name":"_payInLzToken","type":"bool","internalType":"bool"}],"outputs":[{"name":"fee","type":"tuple","internalType":"struct MessagingFee","components":[{"name":"nativeFee","type":"uint256","internalType":"uint256"},{"name":"lzTokenFee","type":"uint256","internalType":"uint256"}]}],"stateMutability":"view"},{"type":"function","name":"renounceOwnership","inputs":[],"outputs":[],"stateMutability":"nonpayable"},{"type":"function","name":"setDelegate","inputs":[{"name":"_delegate","type":"address","internalType":"address"}],"outputs":[],"stateMutability":"nonpayable"},{"type":"function","name":"setDstEid","inputs":[{"name":"_eid","type":"uint32","internalType":"uint32"}],"outputs":[],"stateMutability":"nonpayable"},{"type":"function","name":"setDstTreasuryAddress","inputs":[{"name":"_treasuryAddress","type":"address","internalType":"address"}],"outputs":[],"stateMutability":"nonpayable"},{"type":"function","name":"setExternalProtocolAddresses","inputs":[{"name":"_wethGateway","type":"address","internalType":"address"},{"name":"_comet","type":"address","internalType":"address"},{"name":"_aavePoolAddressProvider","type":"address","internalType":"address"},{"name":"_aToken","type":"address","internalType":"address"},{"name":"_weth","type":"address","internalType":"address"}],"outputs":[],"stateMutability":"nonpayable"},{"type":"function","name":"setPeer","inputs":[{"name":"_eid","type":"uint32","internalType":"uint32"},{"name":"_peer","type":"bytes32","internalType":"bytes32"}],"outputs":[],"stateMutability":"nonpayable"},{"type":"function","name":"totalVolumeOfBorrowersAmountinUSD","inputs":[],"outputs":[{"name":"","type":"uint256","internalType":"uint256"}],"stateMutability":"view"},{"type":"function","name":"totalVolumeOfBorrowersAmountinWei","inputs":[],"outputs":[{"name":"","type":"uint256","internalType":"uint256"}],"stateMutability":"view"},{"type":"function","name":"transferEthToCdsLiquidators","inputs":[{"name":"borrower","type":"address","internalType":"address"},{"name":"amount","type":"uint128","internalType":"uint128"}],"outputs":[],"stateMutability":"nonpayable"},{"type":"function","name":"transferOwnership","inputs":[{"name":"newOwner","type":"address","internalType":"address"}],"outputs":[],"stateMutability":"nonpayable"},{"type":"function","name":"updateAbondUSDaPool","inputs":[{"name":"amount","type":"uint256","internalType":"uint256"},{"name":"operation","type":"bool","internalType":"bool"}],"outputs":[],"stateMutability":"nonpayable"},{"type":"function","name":"updateDepositDetails","inputs":[{"name":"depositor","type":"address","internalType":"address"},{"name":"index","type":"uint64","internalType":"uint64"},{"name":"depositDetail","type":"tuple","internalType":"struct ITreasury.DepositDetails","components":[{"name":"depositedTime","type":"uint64","internalType":"uint64"},{"name":"depositedAmount","type":"uint128","internalType":"uint128"},{"name":"depositedAmountUsdValue","type":"uint128","internalType":"uint128"},{"name":"downsidePercentage","type":"uint64","internalType":"uint64"},{"name":"ethPriceAtDeposit","type":"uint128","internalType":"uint128"},{"name":"borrowedAmount","type":"uint128","internalType":"uint128"},{"name":"normalizedAmount","type":"uint128","internalType":"uint128"},{"name":"withdrawed","type":"bool","internalType":"bool"},{"name":"withdrawAmount","type":"uint128","internalType":"uint128"},{"name":"liquidated","type":"bool","internalType":"bool"},{"name":"ethPriceAtWithdraw","type":"uint64","internalType":"uint64"},{"name":"withdrawTime","type":"uint64","internalType":"uint64"},{"name":"aBondTokensAmount","type":"uint128","internalType":"uint128"},{"name":"strikePrice","type":"uint128","internalType":"uint128"},{"name":"optionFees","type":"uint128","internalType":"uint128"}]}],"outputs":[],"stateMutability":"nonpayable"},{"type":"function","name":"updateEthProfitsOfLiquidators","inputs":[{"name":"amount","type":"uint256","internalType":"uint256"},{"name":"operation","type":"bool","internalType":"bool"}],"outputs":[],"stateMutability":"nonpayable"},{"type":"function","name":"updateHasBorrowed","inputs":[{"name":"borrower","type":"address","internalType":"address"},{"name":"_bool","type":"bool","internalType":"bool"}],"outputs":[],"stateMutability":"nonpayable"},{"type":"function","name":"updateInterestFromExternalProtocol","inputs":[{"name":"amount","type":"uint256","internalType":"uint256"}],"outputs":[],"stateMutability":"nonpayable"},{"type":"function","name":"updateTotalBorrowedAmount","inputs":[{"name":"borrower","type":"address","internalType":"address"},{"name":"amount","type":"uint256","internalType":"uint256"}],"outputs":[],"stateMutability":"nonpayable"},{"type":"function","name":"updateTotalDepositedAmount","inputs":[{"name":"borrower","type":"address","internalType":"address"},{"name":"amount","type":"uint128","internalType":"uint128"}],"outputs":[],"stateMutability":"nonpayable"},{"type":"function","name":"updateTotalInterest","inputs":[{"name":"_amount","type":"uint256","internalType":"uint256"}],"outputs":[],"stateMutability":"nonpayable"},{"type":"function","name":"updateTotalInterestFromLiquidation","inputs":[{"name":"_amount","type":"uint256","internalType":"uint256"}],"outputs":[],"stateMutability":"nonpayable"},{"type":"function","name":"updateUSDaGainedFromLiquidation","inputs":[{"name":"amount","type":"uint256","internalType":"uint256"},{"name":"operation","type":"bool","internalType":"bool"}],"outputs":[],"stateMutability":"nonpayable"},{"type":"function","name":"upgradeToAndCall","inputs":[{"name":"newImplementation","type":"address","internalType":"address"},{"name":"data","type":"bytes","internalType":"bytes"}],"outputs":[],"stateMutability":"payable"},{"type":"function","name":"usdaGainedFromLiquidation","inputs":[],"outputs":[{"name":"","type":"uint256","internalType":"uint256"}],"stateMutability":"view"},{"type":"function","name":"withdraw","inputs":[{"name":"borrower","type":"address","internalType":"address"},{"name":"toAddress","type":"address","internalType":"address"},{"name":"_amount","type":"uint256","internalType":"uint256"},{"name":"index","type":"uint64","internalType":"uint64"}],"outputs":[{"name":"","type":"bool","internalType":"bool"}],"stateMutability":"payable"},{"type":"function","name":"withdrawExternalProtocolInterest","inputs":[{"name":"toAddress","type":"address","internalType":"address"},{"name":"amount","type":"uint128","internalType":"uint128"}],"outputs":[],"stateMutability":"nonpayable"},{"type":"function","name":"withdrawFromExternalProtocol","inputs":[{"name":"user","type":"address","internalType":"address"},{"name":"aBondAmount","type":"uint128","internalType":"uint128"}],"outputs":[{"name":"","type":"uint256","internalType":"uint256"}],"stateMutability":"nonpayable"},{"type":"function","name":"withdrawInterest","inputs":[{"name":"toAddress","type":"address","internalType":"address"},{"name":"amount","type":"uint256","internalType":"uint256"}],"outputs":[],"stateMutability":"nonpayable"},{"type":"event","name":"Deposit","inputs":[{"name":"user","type":"address","indexed":true,"internalType":"address"},{"name":"amount","type":"uint256","indexed":false,"internalType":"uint256"}],"anonymous":false},{"type":"event","name":"DepositToAave","inputs":[{"name":"count","type":"uint64","indexed":false,"internalType":"uint64"},{"name":"amount","type":"uint256","indexed":false,"internalType":"uint256"}],"anonymous":false},{"type":"event","name":"DepositToCompound","inputs":[{"name":"count","type":"uint64","indexed":false,"internalType":"uint64"},{"name":"amount","type":"uint256","indexed":false,"internalType":"uint256"}],"anonymous":false},{"type":"event","name":"Initialized","inputs":[{"name":"version","type":"uint64","indexed":false,"internalType":"uint64"}],"anonymous":false},{"type":"event","name":"OwnershipTransferred","inputs":[{"name":"previousOwner","type":"address","indexed":true,"internalType":"address"},{"name":"newOwner","type":"address","indexed":true,"internalType":"address"}],"anonymous":false},{"type":"event","name":"PeerSet","inputs":[{"name":"eid","type":"uint32","indexed":false,"internalType":"uint32"},{"name":"peer","type":"bytes32","indexed":false,"internalType":"bytes32"}],"anonymous":false},{"type":"event","name":"Upgraded","inputs":[{"name":"implementation","type":"address","indexed":true,"internalType":"address"}],"anonymous":false},{"type":"event","name":"Withdraw","inputs":[{"name":"user","type":"address","indexed":true,"internalType":"address"},{"name":"amount","type":"uint256","indexed":false,"internalType":"uint256"}],"anonymous":false},{"type":"event","name":"WithdrawFromAave","inputs":[{"name":"count","type":"uint64","indexed":false,"internalType":"uint64"},{"name":"amount","type":"uint256","indexed":false,"internalType":"uint256"}],"anonymous":false},{"type":"event","name":"WithdrawFromCompound","inputs":[{"name":"count","type":"uint64","indexed":false,"internalType":"uint64"},{"name":"amount","type":"uint256","indexed":false,"internalType":"uint256"}],"anonymous":false},{"type":"error","name":"AddressEmptyCode","inputs":[{"name":"target","type":"address","internalType":"address"}]},{"type":"error","name":"AddressInsufficientBalance","inputs":[{"name":"account","type":"address","internalType":"address"}]},{"type":"error","name":"ERC1967InvalidImplementation","inputs":[{"name":"implementation","type":"address","internalType":"address"}]},{"type":"error","name":"ERC1967NonPayable","inputs":[]},{"type":"error","name":"EndPointUnavailable","inputs":[]},{"type":"error","name":"FailedInnerCall","inputs":[]},{"type":"error","name":"InvalidDelegate","inputs":[]},{"type":"error","name":"InvalidEndpointCall","inputs":[]},{"type":"error","name":"InvalidInitialization","inputs":[]},{"type":"error","name":"InvalidOptionType","inputs":[{"name":"optionType","type":"uint16","internalType":"uint16"}]},{"type":"error","name":"LzTokenUnavailable","inputs":[]},{"type":"error","name":"NoPeer","inputs":[{"name":"eid","type":"uint32","internalType":"uint32"}]},{"type":"error","name":"NotEnoughNative","inputs":[{"name":"msgValue","type":"uint256","internalType":"uint256"}]},{"type":"error","name":"NotInitializing","inputs":[]},{"type":"error","name":"OnlyEndpoint","inputs":[{"name":"addr","type":"address","internalType":"address"}]},{"type":"error","name":"OnlyPeer","inputs":[{"name":"eid","type":"uint32","internalType":"uint32"},{"name":"sender","type":"bytes32","internalType":"bytes32"}]},{"type":"error","name":"OwnableInvalidOwner","inputs":[{"name":"owner","type":"address","internalType":"address"}]},{"type":"error","name":"OwnableUnauthorizedAccount","inputs":[{"name":"account","type":"address","internalType":"address"}]},{"type":"error","name":"ReentrancyGuardReentrantCall","inputs":[]},{"type":"error","name":"SafeCastOverflowedUintDowncast","inputs":[{"name":"bits","type":"uint8","internalType":"uint8"},{"name":"value","type":"uint256","internalType":"uint256"}]},{"type":"error","name":"SafeERC20FailedOperation","inputs":[{"name":"token","type":"address","internalType":"address"}]},{"type":"error","name":"Treasury_AaveDepositAndMintFailed","inputs":[]},{"type":"error","name":"Treasury_AavePoolAddressZero","inputs":[]},{"type":"error","name":"Treasury_AaveWithdrawFailed","inputs":[]},{"type":"error","name":"Treasury_CompoundDepositAndMintFailed","inputs":[]},{"type":"error","name":"Treasury_CompoundWithdrawFailed","inputs":[]},{"type":"error","name":"Treasury_EthTransferToCdsLiquidatorFailed","inputs":[]},{"type":"error","name":"Treasury_WithdrawExternalProtocolInterestFailed","inputs":[]},{"type":"error","name":"Treasury_ZeroDeposit","inputs":[]},{"type":"error","name":"Treasury_ZeroWithdraw","inputs":[]},{"type":"error","name":"UUPSUnauthorizedCallContext","inputs":[]},{"type":"error","name":"UUPSUnsupportedProxiableUUID","inputs":[{"name":"slot","type":"bytes32","internalType":"bytes32"}]}],"bytecode":{"object":"0x60a0806040523461002b573060805261599e908162000031823960805181818161118501526112bd0152f35b600080fdfe6080604052600436101561001b575b361561001957600080fd5b005b60003560e01c80630d14c92e1461036b5780630f2744951461036657806313137d65146103615780631611ae881461035c57806317442b70146103575780631cd081b2146103525780631f7330fd1461034d57806323f1059c146103485780632a4e173b146103435780632bdc0e661461033e5780633400288b1461033957806334b5244c1461033457806340d86d7b1461032f57806345aeb0ce1461032a5780634c6b2e64146103255780634d5c56a5146103205780634f1ef2861461031b57806352d1902d146103165780635303dfea14610311578063541b60941461030c5780635822b66d1461030757806358a0e6cc146103025780635b730e69146102fd5780635e280f11146102f85780635e44fb05146102f35780636cd4ddbc146102ee578063715018a6146102e957806373cf144a146102e45780637b85b739146102df5780637d25a05e146102da57806382413eac146102d55780638715a4a2146102d05780638a29e2de146102cb5780638da5cb5b146102c65780638fabe74f146102c15780639a52aed9146102bc5780639cac6251146102b7578063a9bd8672146102b2578063ad3cb1cc146102ad578063b9127c5c146102a8578063b9a221eb146102a3578063ba291f6f1461029e578063bb0b6a5314610299578063bbfe8b9014610294578063ca5eb5e11461028f578063cd0220c91461028a578063dbc3bac014610285578063e49ec3b814610280578063e61361051461027b578063f2fde38b14610276578063f5dee49314610271578063f750e3ab1461026c5763ff7bd03d0361000e57612e63565b612dea565b612b74565b612b0d565b612a74565b612913565b612822565b6127a7565b61272c565b612334565b6122f9565b612245565b612104565b612073565b61202d565b611fbc565b611f9e565b611f80565b611e6f565b611e39565b611cac565b611bde565b611b80565b611b59565b611af9565b611a44565b6119d6565b61195d565b611864565b61183b565b611741565b611723565b611605565b6115e7565b6113d3565b6112aa565b611143565b610eab565b610d32565b610d09565b610ceb565b610ccd565b610c46565b610873565b6107ce565b610770565b6106e0565b61065e565b61063c565b61057d565b610476565b61040b565b610383565b63ffffffff81160361037e57565b600080fd5b3461037e57602036600319011261037e5763ffffffff6004356103a581610370565b6103ad615673565b1680156103c75763ffffffff196024541617602455600080f35b60405162461bcd60e51b81526020600482015260116024820152704549442063616e2774206265207a65726f60781b6044820152606490fd5b600091031261037e57565b3461037e57600036600319011261037e57602047604051908152f35b606090600319011261037e57600490565b9181601f8401121561037e578235916001600160401b03831161037e576020838186019501011161037e57565b6001600160a01b0381160361037e57565b60e036600319011261037e5761048b36610427565b6001600160401b0360843581811161037e576104ab903690600401610438565b916104b760a435610465565b60c43590811161037e576104cf903690600401610438565b50506000546001600160a01b0316330361053d576104f46104ef84614ba3565b615070565b92602081013580940361050b576100198383614dad565b6105158491614ba3565b60405163309afaf360e21b815263ffffffff9190911660048201526024810191909152604490fd5b6040516391ac5e4f60e01b8152336004820152602490fd5b8015150361037e57565b610124359061056d82610555565b565b610164359061056d82610555565b3461037e57604036600319011261037e5760043560243561059d81610555565b6002546105c690336001600160a01b039182161490811561062d575b811561061f575b506130f4565b6105d1821515613882565b156105fd576015548181018091116105f8576015556020549081018091116105f857602055005b6131af565b6015548181039081116105f8576015556020549081039081116105f857602055005b9050600c54163314386105c0565b809150600b54163314906105b9565b3461037e57600036600319011261037e57604080516001815260026020820152f35b3461037e57604036600319011261037e5760043561067b81610465565b6002546001600160a01b0391908216331480156106d3575b80156106c6575b6106a3906130f4565b16600052600e602052600260406000200180549060243582018092116105f85755005b50600c548216331461069a565b5081600b54163314610693565b3461037e57604036600319011261037e5760043560243561070081610555565b60025461072790336001600160a01b039182161490811561062d57811561061f57506130f4565b1561074e57601a548181018091116105f857601a556023549081018091116105f857602355005b601a548181039081116105f857601a556023549081039081116105f857602355005b3461037e57602036600319011261037e57600254600435906107ac90336001600160a01b039182161490811561062d57811561061f57506130f4565b6014548181018091116105f857601455601f549081018091116105f857601f55005b3461037e57602036600319011261037e576002546004359061080a90336001600160a01b039182161490811561062d57811561061f57506130f4565b6017548181018091116105f8576017556022549081018091116105f857602255005b6001600160401b0381160361037e57565b6044359061056d8261082c565b60a4359061056d8261082c565b610184359061056d8261082c565b6101a4359061056d8261082c565b608036600319011261037e5760043561088b81610465565b6024359061089882610465565b6064356044356108a78261082c565b6002546001600160a01b0390811694903386148015610c39575b8015610c2c575b6108d1906130f4565b6108dc831515613345565b60019161091e610919600361090e88876108f58c612dd0565b01906001600160401b0316600052602052604060002090565b015460801c60ff1690565b613391565b61093e8361093087826108f58b612dd0565b01546001600160801b031690565b95873b1561037e5760405163330dbe9f60e11b81526001600160801b0397909716600488015260009788908890602490829084905af1908115610c2757610ae1610b8097610b70966108f56004947f884edad9ce6fa2440d8a54cc123490eb96d2768479d49ff9c7366125a94243649c610b0097610c0e575b506109ec6109e76109df6109d38661093089826108f589612dd0565b6001600160801b031690565b6011546133c3565b601155565b610a23610a1e610a166109d3610a0688886108f588612dd0565b5460401c6001600160801b031690565b6010546133c3565b601055565b610a4b610a46610a3e6109d38661093089826108f589612dd0565b601c546133c3565b601c55565b610a72610a6d610a656109d3610a0688886108f588612dd0565b601b546133c3565b601b55565b610a906109d36002610a8887876108f587612dd0565b015460801c90565b610aa76002610a9e84612dd0565b019182546133c3565b9055610acd610aba85856108f585612dd0565b8054600160401b600160c01b0319169055565b610ad681612dd0565b5415610b9357612dd0565b018054610afa906001600160801b0388811691166133e6565b90612ea9565b610b58610b13610b0e61533b565b615355565b60245463ffffffff16610b4982610b2861108e565b8c81528c6020820152610b3961108e565b908d82528d6020830152846149fa565b90610b526132e6565b906148cc565b50169480808085895af1610b6a6133ff565b5061342f565b6040519081529081906020820190565b0390a260405160018152602090f35b0390f35b601254610bce90610bac906001600160801b03166133d0565b601280546001600160801b0319166001600160801b0392909216919091179055565b601d54610c0990610be7906001600160801b03166133d0565b601d80546001600160801b0319166001600160801b0392909216919091179055565b612dd0565b80610c1b610c2192610fcc565b80610400565b386109b7565b6133b7565b50600c54811633146108c8565b5080600b541633146108c1565b3461037e57604036600319011261037e577f238399d427b947898edb290f5ff0f9109849b1c3ba196a42e35f00c50a54b98b600435610c8481610370565b60243590610c90615673565b63ffffffff8116600052600160205281604060002055610cc8604051928392836020909392919363ffffffff60408201951681520152565b0390a1005b3461037e57600036600319011261037e576020602154604051908152f35b3461037e57600036600319011261037e576020601b54604051908152f35b3461037e57600036600319011261037e576012546040516001600160801b039091168152602090f35b3461037e57600036600319011261037e576020601a54604051908152f35b61056d909291926101e060206102008301956001600160401b0381511684520151610d876020840182516001600160401b03169052565b60208101516001600160801b0316604084015260408101516001600160801b0316606084015260608101516001600160401b0316608084015260808101516001600160801b031660a084015260a08101516001600160801b031660c084015260c08101516001600160801b031660e084015260e0810151610e0f610100918286019015159052565b8101516001600160801b031661012084810191909152810151610e39610140918286019015159052565b810151610e5461016091828601906001600160401b03169052565b810151610e6f61018091828601906001600160401b03169052565b8101516001600160801b03166101a0848101919091528101516001600160801b03166101c08481019190915201516001600160801b0316910152565b3461037e57604036600319011261037e57610b8f600435610ecb81610465565b610fa5610f86602435610edd8161082c565b604051610ee981610fe4565b602060009182815260405192610efe84610fff565b80845280838501528060408501528060608501528060808501528060a08501528060c08501528060e08501528061010085015280610120850152806101408501528061016085015280610180850152806101a08501526101c0840152015260016108f5610f806003610f6f88612dd0565b015460101c6001600160401b031690565b95612dd0565b610fa0610f9161108e565b6001600160401b039094168452565b6138d9565b602082015260405191829182610d50565b634e487b7160e01b600052604160045260246000fd5b6001600160401b038111610fdf57604052565b610fb6565b604081019081106001600160401b03821117610fdf57604052565b6101e081019081106001600160401b03821117610fdf57604052565b606081019081106001600160401b03821117610fdf57604052565b61012081019081106001600160401b03821117610fdf57604052565b60a081019081106001600160401b03821117610fdf57604052565b90601f801991011681019081106001600160401b03821117610fdf57604052565b6040519061056d82610fe4565b6040519061056d82610fff565b6040519060e082018281106001600160401b03821117610fdf57604052565b6040519061056d82611036565b6040519061056d82611052565b6001600160401b038111610fdf57601f01601f191660200190565b81601f8201121561037e57803590611113826110e1565b92611121604051948561106d565b8284526020838301011161037e57816000926020809301838601378301015290565b604036600319011261037e57600480359061115d82610465565b6024356001600160401b03811161037e5761117b90369083016110fc565b6001600160a01b037f0000000000000000000000000000000000000000000000000000000000000000811630811490811561128e575b5061127d5790602083926111c3615673565b6040516352d1902d60e01b8152938491829088165afa6000928161124d575b50611210575050604051634c9c8ce360e01b81526001600160a01b0390921690820190815281906020010390fd5b838360008051602061588983398151915284036112315761001983836156db565b604051632a87526960e21b815290810184815281906020010390fd5b61126f91935060203d8111611276575b611267818361106d565b810190613472565b91386111e2565b503d61125d565b60405163703e46dd60e11b81528390fd5b90508160008051602061588983398151915254161415386111b1565b3461037e57600036600319011261037e577f00000000000000000000000000000000000000000000000000000000000000006001600160a01b031630036113035760206040516000805160206158898339815191528152f35b60405163703e46dd60e11b8152600490fd5b6001600160801b0381160361037e57565b6064359061056d82611315565b6084359061056d82611315565b60c4359061056d82611315565b60e4359061056d82611315565b610104359061056d82611315565b610144359061056d82611315565b6101c4359061056d82611315565b6101e4359061056d82611315565b610204359061056d82611315565b359061056d82611315565b604090600319011261037e576004356113c381610465565b906024356113d081611315565b90565b3461037e5760606114566113e6366113ab565b929061140c60018060a01b038060025416331490811561062d57811561061f57506130f4565b600454611429906001600160a01b03165b6001600160a01b031690565b604051630ecc535f60e01b81526001600160a01b0390921660048301529092839190829081906024820190565b03915afa908115610c27576000916115b9575b5060208181015190926114c1916114a09161148e916001600160801b03165b90613280565b6018546001600160801b0316906134c4565b60195492906114b99084906001600160801b031661326d565b9051906132b2565b6008549091906114d9906001600160a01b031661141d565b6040516370a0823160e01b808252306004830152918590829060249082905afa8015610c27576115119160009161159c575b506134dc565b600954909390859061152b906001600160a01b031661141d565b604051938452306004850152839060249082905afa938415610c2757611565610b709561157394610b8f9860009261157f575b5050613569565b80821015611578575061326d565b6132b2565b905061326d565b6115959250803d1061127657611267818361106d565b388061155e565b6115b39150863d881161127657611267818361106d565b3861150b565b6115da915060603d81116115e0575b6115d2818361106d565b810190613481565b38611469565b503d6115c8565b3461037e57600036600319011261037e576020601154604051908152f35b3461037e57611613366113ab565b60025490916001600160a01b0391821633148015611716575b8015611709575b61163c906130f4565b16801515806116f7575b61164f90613aef565b6021546001600160801b03909216918083116116a45761167283611677926133c3565b602155565b60008080809481945af16116896133ff565b50156116925780f35b604051633243a0f360e21b8152600490fd5b60405162461bcd60e51b815260206004820152602560248201527f547265617375727920646f6e2774206861766520656e6f7567682045544820616044820152641b5bdd5b9d60da1b6064820152608490fd5b506001600160801b0382161515611646565b50600c5482163314611633565b5081600b5416331461162c565b3461037e57600036600319011261037e576020601554604051908152f35b3461037e57604036600319011261037e576117e9602060043561176381610465565b6024359061176f615673565b6001600160a01b038116151580611832575b61178a90613aef565b6117b56117b0836013546117ab6117a3601454836131f5565b831115613bb3565b6133c3565b601355565b6003546117ca906001600160a01b031661141d565b90600060405180968195829463a9059cbb60e01b845260048401613b5b565b03925af18015610c275761001991600091611804575061342f565b611825915060203d811161182b575b61181d818361106d565b810190613b46565b38610b6a565b503d611813565b50811515611781565b3461037e57600036600319011261037e576000546040516001600160a01b039091168152602090f35b3461037e57604036600319011261037e576118f9602060043561188681610465565b60025460243591906001600160a01b0390811633148015611950575b8015611943575b6118b2906130f4565b811615158061193a575b6118c590613aef565b6003546118da906001600160a01b031661141d565b90600060405180968195829463095ea7b360e01b845260048401613b5b565b03925af1908115610c27576100199160019160009161191c575b50151514613b76565b611934915060203d811161182b5761181d818361106d565b38611913565b508115156118bc565b50600c54811633146118a9565b5080600b541633146118a2565b3461037e5761196b366113ab565b60025490916001600160a01b03918216331480156119c9575b80156119bc575b611994906130f4565b166000908152600e6020526040902080546001600160801b0390921682039182116105f85755005b50600c548216331461198b565b5081600b54163314611984565b3461037e57600080600319360112611a41576119f0615673565b60008051602061584983398151915280546001600160a01b0319811690915581906001600160a01b03167f8be0079c531659141344cd1fd0a4f28419497f9722a3daafe3b4186f6b6457e08280a380f35b80fd5b3461037e57602036600319011261037e57600435611a6181610465565b611a69615673565b6001600160a01b03811615611aa55760248054640100000000600160c01b03191660209290921b640100000000600160c01b0316919091179055005b60405162461bcd60e51b815260206004820152602660248201527f547265617375727920616464726573732063616e2774206265207a65726f206160448201526564647265737360d01b6064820152608490fd5b3461037e57602036600319011261037e576020611b47600435611b1b81610555565b600254611b4290336001600160a01b039182161490811561062d57811561061f57506130f4565b613a99565b6040516001600160801b039091168152f35b3461037e57604036600319011261037e57611b75600435610370565b602060405160008152f35b3461037e5760a036600319011261037e57611b9a36610427565b506064356001600160401b03811161037e57611bba903690600401610438565b50506020608435611bca81610465565b6040516001600160a01b0390911630148152f35b3461037e5760a036600319011261037e57610019600435611bfe81610465565b602435611c0a81610465565b611c8a60443591611c1a83610465565b60643592611c2784610465565b60843594611c3486610465565b611c3c615673565b600580546001600160a01b03199081166001600160a01b039384161790915560098054821694831694909417909355600a805484169682169690961790955560068054909216908516179055565b60088054919092166001600160a01b03166001600160a01b0319909116179055565b3461037e5761010036600319011261037e57600435611cca81610465565b60243590611cd782610465565b604435611ce381610465565b606435611cef81610465565b608435611cfb81610465565b60a43590611d0882610465565b60c43592611d1584610465565b60e43594611d2286610465565b60008051602061590983398151915254976001600160401b0360ff8a60401c1615991680159081611e31575b6001149081611e27575b159081611e1e575b50611e0c57600080516020615909833981519152805467ffffffffffffffff19166001179055611d949789611de757612ec8565b611d9a57005b600080516020615909833981519152805460ff60401b19169055604051600181527fc7f505b2f371ae2175ee4913f4499e1f2633a7b5936321eed1cdaeb6115181d2908060208101610cc8565b600080516020615909833981519152805460ff60401b1916600160401b179055612ec8565b60405163f92ee8a960e01b8152600490fd5b90501538611d60565b303b159150611d58565b8a9150611d4e565b3461037e57600036600319011261037e57600080516020615849833981519152546040516001600160a01b039091168152602090f35b3461037e5761022036600319011261037e57600435611e8d81610465565b60243590611e9a8261082c565b6101e036604319011261037e5761001991611eb361109b565b91611ebc61083d565b8352611ec6611326565b6020840152611ed3611333565b6040840152611ee061084a565b6060840152611eed611340565b6080840152611efa61134d565b60a0840152611f0761135a565b60c0840152611f1461055f565b60e0840152611f21611368565b610100840152611f2f61056f565b610120840152611f3d610857565b610140840152611f4b610865565b610160840152611f59611376565b610180840152611f67611384565b6101a0840152611f75611392565b6101c08401526135f5565b3461037e57600036600319011261037e576020601054604051908152f35b3461037e57600036600319011261037e576020601c54604051908152f35b3461037e57600036600319011261037e57601d546040516001600160801b039091168152602090f35b60005b838110611ff85750506000910152565b8181015183820152602001611fe8565b9060209161202181518092818552858086019101611fe5565b601f01601f1916010190565b3461037e57600036600319011261037e57610b8f60405161204d81610fe4565b60058152640352e302e360dc1b6020820152604051918291602083526020830190612008565b3461037e57604036600319011261037e5760043561209081610465565b6024359061209d82610555565b6002546001600160a01b0391908216331480156120f7575b80156120ea575b6120c5906130f4565b16600052600e60205260036040600020019060ff801983541691151516179055600080f35b50600c54821633146120bc565b5081600b541633146120b5565b3461037e57602036600319011261037e576002546004359061214090336001600160a01b039182161490811561062d57811561061f57506130f4565b6013548181018091116105f857601355601e549081018091116105f857601e55005b60043590600582101561037e57565b3590600582101561037e57565b604090608319011261037e576040519061219782610fe4565b816084356121a481610465565b8152602060a435910152565b604090602319011261037e57604051906121c982610fe4565b816024356121d681610465565b81526020604435910152565b604090606319011261037e57604051906121fb82610fe4565b8160643561220881610465565b81526020608435910152565b919082604091031261037e5760405161222c81610fe4565b6020808294803561223c81610465565b84520135910152565b3461037e5761010036600319011261037e5760043561226381610370565b602435600581101561037e57604036604319011261037e576040519161228883610fe4565b60443561229481610465565b835260643560208401526122a73661217e565b9160c435926001600160401b03841161037e576040946122ce6122e19536906004016110fc565b9260e435946122dc86610555565b614af6565b6122f78251809260208091805184520151910152565bf35b3461037e57602036600319011261037e5763ffffffff60043561231b81610370565b1660005260016020526020604060002054604051908152f35b608036600319011261037e5760043560243561234f81610465565b6044359161235c83611315565b6064356123688161082c565b6123706130db565b506002546001600160a01b03919082163314801561271f575b8015612712575b612399906130f4565b6123a4833411613158565b6123c46123c060036123b587612dd0565b015460081c60ff1690565b1590565b156126ba576123f060036123d786612dd0565b01805469ffffffffffffffff0000191662010000179055565b600194612411600361240187612dd0565b01805461ff001916610100179055565b60125461242a90610bac906001600160801b03166131dd565b601d5461244390610be7906001600160801b03166131dd565b61244c85612dd0565b84815490612459916131f5565b90556001600160801b038481169290838861247389612dd0565b6001019061249391906001600160401b0316600052602052604060002090565b9061249d91613202565b8216856124aa818361326d565b601154906124b7916131f5565b6011556124c39161326d565b601c54906124d0916131f5565b601c5584601054906124e1916131f5565b60105584601b54906124f2916131f5565b601b55866124ff87612dd0565b6001019061251f91906001600160401b0316600052602052604060002090565b9061253f91906001600160401b03166001600160401b0319825416179055565b808661254a87612dd0565b6001019061256a91906001600160401b0316600052602052604060002090565b6002019061257791612ea9565b61258091613280565b8461258a85612dd0565b600101906125aa91906001600160401b0316600052602052604060002090565b600101906125b791612ea9565b6125c08261322b565b606490046125cd81613da0565b6125d690613fbc565b6125de61533b565b6125e790615355565b60245463ffffffff16906125f961108e565b600080825260208201528161260c61108e565b6000808252602082015261262092856149fa565b6126286132e6565b612631936148cc565b506040519182528216907fe1fffcc4923d04b559f4d29a8bfc6cda04eb5b0d3c460751c2402c5c5cc9109c90602090a261266a90612dd0565b6003015460081c60ff169061267d61108e565b91151582526001600160401b03166020820152604051610b8f81928291909160206001600160401b03816040840195805115158552015116910152565b60036126c585612dd0565b0161270c6126e66126e183546001600160401b039060101c1690565b6131c5565b825469ffffffffffffffff00001916601082901b69ffffffffffffffff00001617909255565b94612443565b50600c5482163314612390565b5081600b54163314612389565b3461037e5760006020366003190112611a415760043561274b81610465565b612753615673565b81546001600160a01b0390811691839190833b156127a35760249083604051958694859363ca5eb5e160e01b85521660048401525af18015610c2757612797575080f35b6127a090610fcc565b80f35b8280fd5b3461037e57604036600319011261037e576004356024356127c781610555565b6002546127ee90336001600160a01b039182161490811561062d57811561061f57506130f4565b6127f9821515613882565b15612810576021549081018091116105f857602155005b6021549081018091116105f857602155005b3461037e57612830366113ab565b90612839615673565b6001600160a01b031680151580612901575b61285490613aef565b6017546001600160801b03909216918083116128a9576128778361287c926133c3565b601755565b60008080809481945af161288e6133ff565b50156128975780f35b6040516357a507f360e11b8152600490fd5b60405162461bcd60e51b815260206004820152602a60248201527f547265617375727920646f6e2774206861766520656e6f75676820696e746572604482015269195cdd08185b5bdd5b9d60b21b6064820152608490fd5b506001600160801b038216151561284b565b3461037e57612921366113ab565b60025490916001600160a01b0391821633148015612a67575b8015612a5a575b61294a906130f4565b60085461295f906001600160a01b031661141d565b6040516370a0823160e01b80825230600483015260209590929091908690829060249082905afa8015610c275761299e91600091612a3d575b50613c0b565b5060095485906129b6906001600160a01b031661141d565b604051938452306004850152839060249082905afa948515610c27576000610b7094612a128295946129f7610b8f9a859786978792612a20575b5050613cd3565b50612a0c612a058285614218565b91846144e8565b906131f5565b968791165af1610b6a6133ff565b612a369250803d1061127657611267818361106d565b38806129f0565b612a549150873d891161127657611267818361106d565b38612998565b50600c5482163314612941565b5081600b5416331461293a565b3461037e57604036600319011261037e576118f96020600435612a9681610465565b60025460243591906001600160a01b0390811633148015612b00575b8015612af3575b612ac2906130f4565b8116151580612aea575b612ad590613aef565b6007546118da906001600160a01b031661141d565b50811515612acc565b50600c5481163314612ab9565b5080600b54163314612ab2565b3461037e57602036600319011261037e57610019600435612b2d81610465565b612b35615673565b6155ff565b61056d909291926040806080830195805184526001600160401b036020820151166020850152015191019060208091805184520151910152565b60a036600319011261037e57612b88612162565b612b91366121b0565b90612b9b366121e2565b91612ba46146ee565b506002546001600160a01b0390811633148015612dc3575b8015612db6575b612bcc906130f4565b604092835191612bf383612be5888786602085016147ca565b03601f19810185528461106d565b612bfb6130db565b956060612c07846132d7565b600284148015612da3575b15612d705750612cc69650612c2d612c2861533b565b6153e5565b90602454958763ffffffff881693612c5161141d61141d855160018060a01b031690565b906020840151612c5f6110a8565b63ffffffff88168152926020840152808484015260608301526080820152612c856147e8565b60a0820152612c926147e8565b60c0820152600354612cac906001600160a01b031661141d565b825180809d8194633b6f743b60e01b8352600483016148af565b03915afa988915610c2757610b8f99612d3698612d1e96612d1693600093612d41575b50612d0b612cfd612cf861533b565b61541a565b93516001600160801b031690565b9160201c169161544f565b948593614acc565b905b3392612d3160245463ffffffff1690565b61512a565b905191829182612b3a565b612d629193508c8d3d10612d69575b612d5a818361106d565b81019061482e565b9138612ce9565b503d612d50565b915050612d369350600382612d88610b8f98946132d7565b03612d205750612d9e612d9961533b565b6153b0565b612d20565b50612dad846132d7565b60048414612c12565b50600c5481163314612bc3565b5080600b54163314612bbc565b6001600160a01b03166000908152600e6020526040902090565b3461037e57602036600319011261037e57600435612e0781610465565b60018060a01b0316600052600e60205260a060406000206001600160401b038154916003600282015491015490604051938452602084015260ff81161515604084015260ff8160081c161515606084015260101c166080820152f35b3461037e57606036600319011261037e576020612e7f36610427565b63ffffffff8135612e8f81610370565b166000526001825260406000205482604051920135148152f35b80546001600160801b0319166001600160801b03909216919091179055565b9690949291959395612ed86156ac565b612ee06156ac565b612ee9336155ff565b612ef16156ac565b612ef96156ac565b612f016156ac565b6001600160a01b0394851680156130c957600080546001600160a01b0319166001600160a01b03909216919091179055848216156130b757600054612f4e906001600160a01b031661141d565b803b1561037e5760405163ca5eb5e160e01b81526001600160a01b039390931660048401526000908390602490829084905af1978815610c27578561305397612fed8261300f94612fcb613031996130759f99849a6130a4575b50600b80546001600160a01b0319166001600160a01b0392909216919091179055565b60028054919092166001600160a01b03166001600160a01b0319909116179055565b60038054919092166001600160a01b03166001600160a01b0319909116179055565b60048054919092166001600160a01b03166001600160a01b0319909116179055565b60078054919092166001600160a01b03166001600160a01b0319909116179055565b600c80546001600160a01b0319166001600160a01b0392909216919091179055565b601880546001600160801b031916670de0b6b3a764000017905561056d6b033b2e3c9fd0803ce8000000601955565b80610c1b6130b192610fcc565b38612fa8565b604051632d618d8160e21b8152600490fd5b604051638ad182f960e01b8152600490fd5b604051906130e882610fe4565b60006020838281520152565b156130fb57565b60405162461bcd60e51b815260206004820152602f60248201527f546869732066756e6374696f6e2063616e206f6e6c792063616c6c656420627960448201526e20436f726520636f6e74726163747360881b6064820152608490fd5b1561315f57565b60405162461bcd60e51b815260206004820152602260248201527f54726561737572793a20446f6e2774206861766520656e6f756768204c5a2066604482015261656560f01b6064820152608490fd5b634e487b7160e01b600052601160045260246000fd5b6001600160401b038091169081146105f85760010190565b6001600160801b039081169081146105f85760010190565b919082018092116105f857565b8054600160401b600160c01b03191660409290921b600160401b600160c01b0316919091179055565b906019820291808304601914901517156105f857565b906032820291808304603214901517156105f857565b906064820291808304606414901517156105f857565b818102929181159184041417156105f857565b6001600160801b0391821690821602908116919082036105f857565b634e487b7160e01b600052601260045260246000fd5b81156132bc570490565b61329c565b634e487b7160e01b600052602160045260246000fd5b600511156132e157565b6132c1565b604051906132f382611036565b601b548252601c546020830152601d546001600160801b0316604083015281601e546060820152601f54608082015260205460a082015260215460c082015260225460e0820152610100602354910152565b1561334c57565b60405162461bcd60e51b815260206004820152601a60248201527f43616e6e6f74207769746864726177207a65726f2045746865720000000000006044820152606490fd5b1561339857565b60405162461bcd60e51b81526020600482015260006024820152604490fd5b6040513d6000823e3d90fd5b919082039182116105f857565b6001600160801b031680156105f8576000190190565b6001600160801b0391821690821601919082116105f857565b3d1561342a573d90613410826110e1565b9161341e604051938461106d565b82523d6000602084013e565b606090565b1561343657565b60405162461bcd60e51b81526020600482015260146024820152732330b4b632b2103a379039b2b7321022ba3432b960611b6044820152606490fd5b9081602091031261037e575190565b9081606091031261037e57604080519161349a8361101b565b8051835260208101516134ac81611315565b602084015201516134bc81611315565b604082015290565b6001600160801b03918216919082156132bc57160490565b60008052600f602052600080516020615869833981519152548061350257505060195490565b81039081116105f857613518601954809261326d565b60008052600f602052600080516020615869833981519152549081156132bc570481018082116105f85760008052600f6020526132b29060056000805160206158c98339815191525b01549061326d565b6001600052600f6020526000805160206158a9833981519152548061359057505060195490565b81039081116105f8576135a6601954809261326d565b6001600052600f6020526000805160206158a9833981519152549081156132bc570481018082116105f8576001600052600f6020526132b29060056000805160206158e9833981519152613561565b6101c0600661365561056d95946137259460018060a01b0390816002541633148015613875575b8015613868575b61362c906130f4565b16600052600e6020526001604060002001906001600160401b0316600052602052604060002090565b61368661366986516001600160401b031690565b825467ffffffffffffffff19166001600160401b03909116178255565b602085015161369e906001600160801b031682613202565b60408501516136f69060018301906136c0906001600160801b03165b82612ea9565b60608701516001600160401b0316815467ffffffffffffffff60801b191660809190911b67ffffffffffffffff60801b16179055565b6080850151613745906002830190613716906001600160801b03166136ba565b60a08701516001600160801b03165b81546001600160801b031660809190911b6001600160801b031916179055565b60c0850151613786906003830190613765906001600160801b03166136ba565b60e08701511515815460ff60801b191690151560801b60ff60801b16179055565b6101008501516138099060048301906137a7906001600160801b03166136ba565b6137d26137b8610120890151151590565b825460ff60801b191690151560801b60ff60801b16178255565b6101408701516001600160401b0316815467ffffffffffffffff60881b191660889190911b67ffffffffffffffff60881b16179055565b61383d600582016138286136696101608901516001600160401b031690565b6101808701516001600160801b031690613202565b6101a08501519101939061385a906001600160801b031685612ea9565b01516001600160801b031690565b50600c5482163314613623565b5081600b5416331461361c565b1561388957565b60405162461bcd60e51b815260206004820152602260248201527f54726561737572793a416d6f756e742073686f756c64206e6f74206265207a65604482015261726f60f01b6064820152608490fd5b9061056d6138e561109b565b92805490613a1460066001600160401b039261390c84861689906001600160401b03169052565b6001600160801b03604095861c811660208a01526001820154808216968a0196909652608095861c85166001600160401b031660608a01526002820154808216878b0152861c60a08a015294936139fe9086906139ca81886139b38e60038901548781166001600160801b031660c0830152831c60ff16151560e082015260048901548781166001600160801b03166101008301529283901c60ff16151561012090910152565b60881c166101408d01906001600160401b03169052565b6139e860058501549182166101608d01906001600160401b03169052565b60401c166101808a019060018060801b03169052565b01549283166001600160801b03166101a0870152565b1c6001600160801b03166101c0840152565b600254613a4d90336001600160a01b039182161490811561062d57811561061f57506130f4565b600f602052600080516020615949833981519152546001600052600080516020615929833981519152546113d0916001600160801b03908116911680821015613a94575090565b905090565b600f602052600080516020615949833981519152546001600052600080516020615929833981519152546001600160801b039182169291169015613ae35780821115613a94575090565b80821015613a94575090565b15613af657565b60405162461bcd60e51b815260206004820152602260248201527f496e7075742061646472657373206f7220616d6f756e7420697320696e76616c6044820152611a5960f21b6064820152608490fd5b9081602091031261037e57516113d081610555565b6001600160a01b039091168152602081019190915260400190565b15613b7d57565b60405162461bcd60e51b815260206004820152600e60248201526d105c1c1c9bdd994819985a5b195960921b6044820152606490fd5b15613bba57565b60405162461bcd60e51b815260206004820152602360248201527f547265617375727920646f6e2774206861766520656e6f75676820696e746572604482015262195cdd60ea1b6064820152608490fd5b60008052600f60205260008051602061586983398151915254613c4b57506019545b60008052600f60205260008051602061594983398151915281905590565b60008052600f6020526000805160206158698339815191525481039081116105f857613c7a601954809261326d565b60008052600f6020529060036000805160206158c9833981519152015480156132bc57613caf61157391613cce9404836131f5565b60008052600f60205260056000805160206158c9833981519152613561565b613c2d565b6001600052600f6020526000805160206158a983398151915254613d1557506019545b6001600052600f60205260008051602061592983398151915281905590565b6001600052600f6020526000805160206158a98339815191525481039081116105f857613d45601954809261326d565b6001600052600f6020529060036000805160206158e9833981519152015480156132bc57613d7b61157391613d9b9404836131f5565b6001600052600f60205260056000805160206158e9833981519152613561565b613cf6565b6002546001600160a01b039190821633148015613f9a575b8015613f8d575b613dc8906130f4565b600854613ddd906001600160a01b031661141d565b6040516370a0823160e01b8082523060048301526020949093928590839060249082905afa918215610c2757600492613e1d91600091612a3d5750613c0b565b506006548590613e35906001600160a01b031661141d565b60405163026b1d5f60e01b815293849182905afa918215610c2757600092613f5e575b50811615613f4c57600554613e75906001600160a01b031661141d565b90813b1561037e5760405163474cf53d60e01b81526001600160a01b039190911660048201523060248201526000604482018190529092909183916064918391905af18015610c2757613f39575b506008548290613edb906001600160a01b031661141d565b604051928352306004840152829060249082905afa918215610c2757600092613f1c575b505060008052600f60205260008051602061586983398151915255565b613f329250803d1061127657611267818361106d565b3880613eff565b80610c1b613f4692610fcc565b38613ec3565b604051630a20c02560e21b8152600490fd5b613f7f919250853d8711613f86575b613f77818361106d565b810190613fa7565b9038613e58565b503d613f6d565b50600c5482163314613dbf565b5081600b54163314613db8565b9081602091031261037e57516113d081610465565b600254613fe390336001600160a01b039182161490811561062d57811561061f57506130f4565b600954613ff8906001600160a01b031661141d565b6040516370a0823160e01b80825230600483015260209390929091908490829060249082905afa8015610c2757614037916000916141fb575b50613cd3565b50600a5461404d906001600160a01b031661141d565b803b1561037e5760008291600460405180948193630d0e30db60e41b83525af18015610c27576141e8575b50600a546140c99084908390614096906001600160a01b031661141d565b6009546140ab906001600160a01b031661141d565b600060405180968195829463095ea7b360e01b845260048401613b5b565b03925af18015610c27576141cb575b506009546140ee906001600160a01b031661141d565b600a54909190614106906001600160a01b031661141d565b90823b1561037e576141329260009283604051809681958294631e573fb760e31b845260048401613b5b565b03925af18015610c27576141b8575b506009548290614159906001600160a01b031661141d565b604051928352306004840152829060249082905afa918215610c275760009261419b575b50506001600052600f6020526000805160206158a983398151915255565b6141b19250803d1061127657611267818361106d565b388061417d565b80610c1b6141c592610fcc565b38614141565b6141e190843d861161182b5761181d818361106d565b50386140d8565b80610c1b6141f592610fcc565b38614078565b6142129150853d871161127657611267818361106d565b38614031565b906004614262606061423361141d845460018060a01b031690565b60408051630ecc535f60e01b81526001600160a01b039097168588019081529096938492918391829160200190565b03915afa8015610c27576142d8916000916144ca575b506115736142c861429a61148e6020976114888987015160018060801b031690565b926142c26142bb6142b6601954809760018060801b031661326d565b613241565b9151613257565b906132b2565b6142d36109d3613a26565b61326d565b9281836142ef61141d60065460018060a01b031690565b835163026b1d5f60e01b815294859182905afa928315610c27576000936144ab575b506001600160a01b0383161561449d5760085461436f908590879061433e906001600160a01b031661141d565b600554614353906001600160a01b031661141d565b6000875180968195829463095ea7b360e01b84528a8401613b5b565b03925af18015610c2757614480575b50600554614394906001600160a01b031661141d565b803b1561037e578251630402806960e51b81526001600160a01b0390941682850190815260208101879052306040820152600091859182908490829060600103925af1918215610c275761441f93859361446d575b506008546143ff906001600160a01b031661141d565b90516370a0823160e01b8152309281019283529384928391829160200190565b03915afa918215610c2757600092614450575b505060008052600f6020526000805160206158698339815191525590565b6144669250803d1061127657611267818361106d565b3880614432565b80610c1b61447a92610fcc565b386143e9565b61449690853d871161182b5761181d818361106d565b503861437e565b9051630a20c02560e21b8152fd5b6144c3919350843d8611613f8657613f77818361106d565b9138614311565b6144e2915060603d81116115e0576115d2818361106d565b38614278565b6004546145329291606091614505906001600160a01b031661141d565b604051630ecc535f60e01b81526001600160a01b0390921660048301529093849190829081906024820190565b03915afa908115610c275761456d926000926146be575b506020820151611573916142c89161429a9161148e916001600160801b0316611488565b600954614582906001600160a01b031661141d565b600a54614597906001600160a01b031661141d565b90803b1561037e57826000916145c4938360405180968195829463f3fef3a360e01b845260048401613b5b565b03925af18015610c27576146ab575b506009546145e9906001600160a01b031661141d565b6040516370a0823160e01b815230600482015290602090829060249082905afa908115610c275760009161468d575b506001600052600f6020526000805160206158a983398151915255600a54614648906001600160a01b031661141d565b803b1561037e57604051632e1a7d4d60e01b815260048101839052906000908290602490829084905af18015610c2757614680575090565b80610c1b6113d092610fcc565b6146a5915060203d811161127657611267818361106d565b38614618565b80610c1b6146b892610fcc565b386145d3565b61157391925061429a61148e6146e46142c89360603d81116115e0576115d2818361106d565b9493505050614549565b604051906146fb8261101b565b81600081526000602082015260406147116130db565b910152565b9060058210156132e15752565b9161018061056d9294936147af6101c08201966147408360019052565b601b546020840152601c546040840152601d546001600160801b03166060840152601e546080840152601f5460a08401526020805460c085015260215460e085015260225461010085015260235461012085015281516001600160a01b03166101408501520151610160830152565b82516001600160a01b03169101908152602091820151910152565b610180906147af61056d9496959396614740836101c0810199614716565b604051906147f582610fe4565b6002825261060f60f31b6020830152565b919082604091031261037e5760405161481e81610fe4565b6020808294805184520151910152565b9060408282031261037e576113d091614806565b6113d09163ffffffff825116815260208201516020820152604082015160408201526060820151606082015260c061489e61488c608085015160e0608086015260e0850190612008565b60a085015184820360a0860152612008565b9201519060c0818403910152612008565b919060206148c7600092604086526040860190614842565b930152565b9190926113d0936148db6146ee565b5060025461490390336001600160a01b039182161490811561062d57811561061f57506130f4565b6149e560405161491281610fe4565b60008152600060208201526149c86040519161492d83610fe4565b6000835260006020840152604051946149496020870160019052565b805160408701526020810151606087015260018060801b036040820151166080870152606081015160a0870152608081015160c087015260a081015160e087015260c081015190610100918288015260e081015161012088015201516101408601526101608501906020809160018060a01b0381511684520151910152565b80516001600160a01b03166101a0840152602001516101c0830152565b6101c081526149f381610fff565b339361512a565b614a9f92614a2f94614a0a6130db565b506040958694614a21865194859260208401614723565b03601f19810184528361106d565b614a376130db565b50600054614a4d906001600160a01b031661141d565b91614a5784615070565b614a6e614a626110d4565b63ffffffff9096168652565b60208501528484015260608301526000608083015282518080958194631bb8518b60e31b83523090600484016150a8565b03915afa918215610c2757600092614ab657505090565b6113d09250803d10612d6957612d5a818361106d565b9091614a2194614a2f614a9f9594614ae26130db565b5060409788968751958693602085016147ca565b9190614b2395614a9f95614b31614b8793614b0f6130db565b506040998a988951978893602085016147ca565b03601f19810186528561106d565b614b396130db565b50600054614b4f906001600160a01b031661141d565b93614b5986615070565b614b70614b646110d4565b63ffffffff9098168852565b602087015286860152606085015215156080840152565b82518080958194631bb8518b60e31b83523090600484016150a8565b356113d081610370565b6040519061012082018281106001600160401b03821117610fdf57604052816101006000918281528260208201528260408201528260608201528260808201528260a08201528260c08201528260e08201520152565b808203926101c0841261037e57614c1982612171565b936101208091601f19011261037e576113d090614c346110c7565b906020850135825260408501356020830152614c52606086016113a0565b60408301526080850135606083015260a0850135608083015260c085013560a083015260e085013560c0830152610100908186013560e08401528501359082015293610180614ca5826101408701612214565b9401612214565b8051601b55602080820151601c556040820151601d80546001600160801b0319166001600160801b03929092169190911790556060820151601e556080820151601f5560a0820151905560c081015160215560e08101516022556101000151602355565b919060808382031261037e576040614711815192614d2d8461101b565b828496805186526020810151614d428161082c565b602087015201614806565b919060c08382031261037e57806080614d696113d09386614d10565b9401614806565b919392614d9f614d8a606093608086526080860190614842565b95602085019060208091805184520151910152565b6001600160a01b0316910152565b614ddd91614db9614bad565b50614dc26130db565b50614dcb6130db565b50614dd46130db565b50810190614c03565b9092614de8816132d7565b60028103614f3d575050614dfb90614cac565b614e06612c2861533b565b60245463ffffffff16906020614e2861141d61141d865160018060a01b031690565b93015192614e43614e376110a8565b63ffffffff9094168452565b6020830152604092808484015260608301526080820152614e626147e8565b60a0820152614e6f6147e8565b60c0820152600354614e89906001600160a01b031661141d565b8251633b6f743b60e01b81529190838380614ea785600483016148af565b0381845afa8015610c2757614ee19460c094600092614f1e575b508151905180968195829463c7c7f5b360e01b8452309160048501614d70565b03925af18015610c2757614ef3575b50565b614f139060c03d8111614f17575b614f0b818361106d565b810190614d4d565b5050565b503d614f01565b81614f369293503d8411612d6957612d5a818361106d565b9038614ec1565b614f49819492946132d7565b6003810361502357505090614f60614ef092614cac565b614fa0614f6e612d9961533b565b602092614f9a61141d61141d614f8c8785015160018060801b031690565b93516001600160a01b031690565b9161544f565b614fa861108e565b9061501b816000948585528581860152614feb614fc361108e565b958787528783880152614fdd604051978892858401614723565b03601f19810187528661106d565b60245463ffffffff1695614ffd61108e565b90808252808383015261500e61108e565b92818452830152866149fa565b91339361512a565b806150326004929593956132d7565b1461503c57505050565b615048614e0692614cac565b615053612d9961533b565b90614f9a61141d61141d614f8c602085015160018060801b031690565b63ffffffff16806000526001602052604060002054908115615090575090565b6024906040519063f6ff4fb760e01b82526004820152fd5b906020909392936040835263ffffffff815116604084015281810151606084015260806150fc6150e6604084015160a08488015260e0870190612008565b6060840151868203603f190160a0880152612008565b910151151560c08401526001600160a01b03909416910152565b9060808282031261037e576113d091614d10565b60809361519c6151b8969461513d6146ee565b50602061514a8451615205565b9301908151806151f6575b5060005461516b906001600160a01b031661141d565b9561517586615070565b9251151592615185614b646110d4565b602087015260408601526060850152151586840152565b6040518096819582946302637a4560e41b8452600484016150a8565b03925af1908115610c27576000916151ce575090565b6113d0915060803d81116151ef575b6151e7818361106d565b810190615116565b503d6151dd565b6151ff90615227565b38615155565b80341061520f5790565b6040516304fb820960e51b8152346004820152602490fd5b60005460405163393f876560e21b81526001600160a01b039182169260209290918381600481885afa908115610c275760009161531e575b501692831561530c57600080916152b49360405190868201926323b872dd60e01b8452336024840152604483015260648201526064815261529f81611052565b519082875af16152ad6133ff565b9084615799565b9081519182151591826152f0575b505090506152cd5750565b604051635274afe760e01b81526001600160a01b03919091166004820152602490fd5b6123c0925080615304948301019101613b46565b8038806152c2565b6040516329b99a9560e11b8152600490fd5b6153359150843d8611613f8657613f77818361106d565b3861525f565b604051600360f01b6020820152600281526113d081610fe4565b61ffff600381615364846157fc565b160361538f5750604051610c3560861b6020820152601081526113d09161538a82610fe4565b6155bd565b61539a6024926157fc565b604051633a51740d60e01b815291166004820152fd5b61ffff6003816153bf846157fc565b160361538f5750604051611fbd60851b6020820152601081526113d09161538a82610fe4565b61ffff6003816153f4846157fc565b160361538f575060405161075360851b6020820152601081526113d09161538a82610fe4565b61ffff600381615429846157fc565b160361538f575060405161557360841b6020820152601081526113d09161538a82610fe4565b61ffff9260038461545f846157fc565b16036155075760405160809390931b6001600160801b031916602084015260308084019190915282526154918261101b565b60038361549d836157fc565b16036154fb5781518381116154dc5783166001019283116105f8576154ce6113d09260405194859360208501615513565b03601f19810183528261106d565b604490604051906306dfcc6560e41b8252601060048301526024820152fd5b8261539a6024926157fc565b60248461539a846157fc565b60209061552a600495949382815194859201611fe5565b600160f81b910190815260f09190911b6001600160f01b0319166001820152600160f91b600382015281519161556890839085840190602001611fe5565b010190565b602090615584600495949382815194859201611fe5565b600160f81b910181815260f09290921b6001600160f01b0319166001830152600382015281519161556890839085840190602001611fe5565b9061ffff916003836155ce836157fc565b16036154fb5781518381116154dc5783166001019283116105f8576154ce6113d0926040519485936020850161556d565b6001600160a01b0390811690811561565a5760008051602061584983398151915280546001600160a01b031981168417909155167f8be0079c531659141344cd1fd0a4f28419497f9722a3daafe3b4186f6b6457e0600080a3565b604051631e4fbdf760e01b815260006004820152602490fd5b600080516020615849833981519152546001600160a01b0316330361569457565b60405163118cdaa760e01b8152336004820152602490fd5b60ff6000805160206159098339815191525460401c16156156c957565b604051631afcd79f60e31b8152600490fd5b90813b1561575e5760008051602061588983398151915280546001600160a01b0319166001600160a01b0384169081179091557fbc7cd75a20ee27fd9adebab32041f755214dbc6bffa90cc0225b39da2e5c2d3b600080a280511561574357614ef09161577f565b50503461574c57565b60405163b398979f60e01b8152600490fd5b604051634c9c8ce360e01b81526001600160a01b0383166004820152602490fd5b6000806113d093602081519101845af46157976133ff565b915b906157c057508051156157ae57805190602001fd5b604051630a12f52160e11b8152600490fd5b815115806157f3575b6157d1575090565b604051639996b31560e01b81526001600160a01b039091166004820152602490fd5b50803b156157c9565b600281511061580c576002015190565b60405162461bcd60e51b8152602060048201526014602482015273746f55696e7431365f6f75744f66426f756e647360601b6044820152606490fdfe9016d09d72d40fdae2fd8ceac6b6234c7706214fd39c1cd1e609a0528c199300f4803e074bd026baaf6ed2e288c9515f68c72fb7216eebdd7cae1718a53ec378360894a13ba1a3210667c828492db98dca3e2076cc3735a920a3ca505d382bbc169f97de0d9a84d840042b17d3c6b9638b3d6fd9024c9eb0c7a306a17b49f892f4803e074bd026baaf6ed2e288c9515f68c72fb7216eebdd7cae1718a53ec375169f97de0d9a84d840042b17d3c6b9638b3d6fd9024c9eb0c7a306a17b49f88ff0c57e16840df040f15088dc2f81fe391c3923bec73e23a9662efc9c229c6a00169f97de0d9a84d840042b17d3c6b9638b3d6fd9024c9eb0c7a306a17b49f894f4803e074bd026baaf6ed2e288c9515f68c72fb7216eebdd7cae1718a53ec37aa2646970667358221220f6b340855f4c6f79c6099c7a220f967ecef1f8765ed2d9036bddb183ddbecce964736f6c63430008140033","linkReferences":{}},"methodIdentifiers":{"UPGRADE_INTERFACE_VERSION()":"ad3cb1cc","abondUSDaPool()":"58a0e6cc","allowInitializePath((uint32,bytes32,uint64))":"ff7bd03d","approveUSDa(address,uint256)":"5e44fb05","approveUsdt(address,uint256)":"e6136105","borrowing(address)":"f750e3ab","calculateYieldsForExternalProtocol(address,uint128)":"5303dfea","deposit(uint256,address,uint128,uint64)":"bbfe8b90","endpoint()":"5e280f11","getBalanceInTreasury()":"0f274495","getBorrowing(address,uint64)":"4d5c56a5","getExternalProtocolCumulativeRate(bool)":"7b85b739","initialize(address,address,address,address,address,address,address,address)":"8a29e2de","isComposeMsgSender((uint32,bytes32,uint64),bytes,address)":"82413eac","lzReceive((uint32,bytes32,uint64),bytes32,bytes,address,bytes)":"13137d65","nextNonce(uint32,bytes32)":"7d25a05e","noOfBorrowers()":"45aeb0ce","oAppVersion()":"17442b70","oftOrNativeReceiveFromOtherChains(uint8,(address,uint256),(address,uint256))":"f5dee493","omniChainTreasuryEthProfitsOfLiquidators()":"34b5244c","omniChainTreasuryNoOfBorrowers()":"a9bd8672","omniChainTreasuryTotalVolumeOfBorrowersAmountinUSD()":"9cac6251","omniChainTreasuryTotalVolumeOfBorrowersAmountinWei()":"40d86d7b","owner()":"8da5cb5b","peers(uint32)":"bb0b6a53","proxiableUUID()":"52d1902d","quote(uint32,uint8,(address,uint256),(address,uint256),bytes,bool)":"ba291f6f","renounceOwnership()":"715018a6","setDelegate(address)":"ca5eb5e1","setDstEid(uint32)":"0d14c92e","setDstTreasuryAddress(address)":"73cf144a","setExternalProtocolAddresses(address,address,address,address,address)":"8715a4a2","setPeer(uint32,bytes32)":"3400288b","totalVolumeOfBorrowersAmountinUSD()":"541b6094","totalVolumeOfBorrowersAmountinWei()":"9a52aed9","transferEthToCdsLiquidators(address,uint128)":"5822b66d","transferOwnership(address)":"f2fde38b","updateAbondUSDaPool(uint256,bool)":"1611ae88","updateDepositDetails(address,uint64,(uint64,uint128,uint128,uint64,uint128,uint128,uint128,bool,uint128,bool,uint64,uint64,uint128,uint128,uint128))":"8fabe74f","updateEthProfitsOfLiquidators(uint256,bool)":"cd0220c9","updateHasBorrowed(address,bool)":"b9127c5c","updateInterestFromExternalProtocol(uint256)":"2a4e173b","updateTotalBorrowedAmount(address,uint256)":"1cd081b2","updateTotalDepositedAmount(address,uint128)":"6cd4ddbc","updateTotalInterest(uint256)":"b9a221eb","updateTotalInterestFromLiquidation(uint256)":"23f1059c","updateUSDaGainedFromLiquidation(uint256,bool)":"1f7330fd","upgradeToAndCall(address,bytes)":"4f1ef286","usdaGainedFromLiquidation()":"4c6b2e64","withdraw(address,address,uint256,uint64)":"2bdc0e66","withdrawExternalProtocolInterest(address,uint128)":"dbc3bac0","withdrawFromExternalProtocol(address,uint128)":"e49ec3b8","withdrawInterest(address,uint256)":"5b730e69"},"id":1}