{"abi":[{"type":"constructor","inputs":[{"name":"_borrowing","type":"address","internalType":"address"},{"name":"_tokenAddress","type":"address","internalType":"address"},{"name":"_cdsContract","type":"address","internalType":"address"},{"name":"_wethGateway","type":"address","internalType":"address"},{"name":"_cEther","type":"address","internalType":"address"},{"name":"_aavePoolAddressProvider","type":"address","internalType":"address"},{"name":"_aToken","type":"address","internalType":"address"},{"name":"_usdt","type":"address","internalType":"address"}],"stateMutability":"nonpayable"},{"type":"receive","stateMutability":"payable"},{"type":"function","name":"aToken","inputs":[],"outputs":[{"name":"","type":"address","internalType":"contract IATOKEN"}],"stateMutability":"view"},{"type":"function","name":"aavePoolAddressProvider","inputs":[],"outputs":[{"name":"","type":"address","internalType":"contract IPoolAddressesProvider"}],"stateMutability":"view"},{"type":"function","name":"aaveWETH","inputs":[],"outputs":[{"name":"","type":"address","internalType":"address"}],"stateMutability":"view"},{"type":"function","name":"approveAmint","inputs":[{"name":"_address","type":"address","internalType":"address"},{"name":"_amount","type":"uint256","internalType":"uint256"}],"outputs":[],"stateMutability":"nonpayable"},{"type":"function","name":"approveUsdt","inputs":[{"name":"_address","type":"address","internalType":"address"},{"name":"_amount","type":"uint256","internalType":"uint256"}],"outputs":[],"stateMutability":"nonpayable"},{"type":"function","name":"borrow","inputs":[],"outputs":[{"name":"","type":"address","internalType":"contract IBorrowing"}],"stateMutability":"view"},{"type":"function","name":"borrowing","inputs":[{"name":"depositor","type":"address","internalType":"address"}],"outputs":[{"name":"depositedAmount","type":"uint256","internalType":"uint256"},{"name":"totalBorrowedAmount","type":"uint256","internalType":"uint256"},{"name":"hasBorrowed","type":"bool","internalType":"bool"},{"name":"hasDeposited","type":"bool","internalType":"bool"},{"name":"borrowerIndex","type":"uint64","internalType":"uint64"},{"name":"totalPTokens","type":"uint128","internalType":"uint128"}],"stateMutability":"view"},{"type":"function","name":"borrowingContract","inputs":[],"outputs":[{"name":"","type":"address","internalType":"address"}],"stateMutability":"view"},{"type":"function","name":"cEther","inputs":[],"outputs":[{"name":"","type":"address","internalType":"contract ICEther"}],"stateMutability":"view"},{"type":"function","name":"calculateInterestForDepositAave","inputs":[{"name":"count","type":"uint64","internalType":"uint64"}],"outputs":[{"name":"","type":"uint256","internalType":"uint256"}],"stateMutability":"view"},{"type":"function","name":"cdsContract","inputs":[],"outputs":[{"name":"","type":"address","internalType":"address"}],"stateMutability":"view"},{"type":"function","name":"compoundAddress","inputs":[],"outputs":[{"name":"","type":"address","internalType":"address"}],"stateMutability":"view"},{"type":"function","name":"deposit","inputs":[{"name":"user","type":"address","internalType":"address"},{"name":"_ethPrice","type":"uint128","internalType":"uint128"},{"name":"_depositTime","type":"uint64","internalType":"uint64"}],"outputs":[{"name":"","type":"bool","internalType":"bool"},{"name":"","type":"uint64","internalType":"uint64"}],"stateMutability":"payable"},{"type":"function","name":"depositToAave","inputs":[],"outputs":[],"stateMutability":"nonpayable"},{"type":"function","name":"depositToCompound","inputs":[],"outputs":[],"stateMutability":"nonpayable"},{"type":"function","name":"externalProtocolDepositCount","inputs":[],"outputs":[{"name":"","type":"uint64","internalType":"uint64"}],"stateMutability":"view"},{"type":"function","name":"getBalanceInTreasury","inputs":[],"outputs":[{"name":"","type":"uint256","internalType":"uint256"}],"stateMutability":"view"},{"type":"function","name":"getBorrowing","inputs":[{"name":"depositor","type":"address","internalType":"address"},{"name":"index","type":"uint64","internalType":"uint64"}],"outputs":[{"name":"","type":"uint64","internalType":"uint64"},{"name":"","type":"tuple","internalType":"struct Treasury.DepositDetails","components":[{"name":"depositedTime","type":"uint64","internalType":"uint64"},{"name":"depositedAmount","type":"uint128","internalType":"uint128"},{"name":"downsidePercentage","type":"uint64","internalType":"uint64"},{"name":"ethPriceAtDeposit","type":"uint128","internalType":"uint128"},{"name":"borrowedAmount","type":"uint128","internalType":"uint128"},{"name":"normalizedAmount","type":"uint128","internalType":"uint128"},{"name":"withdrawNo","type":"uint8","internalType":"uint8"},{"name":"withdrawed","type":"bool","internalType":"bool"},{"name":"withdrawAmount","type":"uint128","internalType":"uint128"},{"name":"liquidated","type":"bool","internalType":"bool"},{"name":"ethPriceAtWithdraw","type":"uint64","internalType":"uint64"},{"name":"withdrawTime","type":"uint64","internalType":"uint64"},{"name":"pTokensAmount","type":"uint128","internalType":"uint128"},{"name":"strikePrice","type":"uint64","internalType":"uint64"},{"name":"externalProtocolCount","type":"uint64","internalType":"uint64"}]}],"stateMutability":"view"},{"type":"function","name":"getInterestForCompoundDeposit","inputs":[{"name":"count","type":"uint64","internalType":"uint64"}],"outputs":[{"name":"","type":"uint256","internalType":"uint256"}],"stateMutability":"nonpayable"},{"type":"function","name":"increaseExternalProtocolCount","inputs":[],"outputs":[],"stateMutability":"nonpayable"},{"type":"function","name":"noOfBorrowers","inputs":[],"outputs":[{"name":"","type":"uint128","internalType":"uint128"}],"stateMutability":"view"},{"type":"function","name":"owner","inputs":[],"outputs":[{"name":"","type":"address","internalType":"address"}],"stateMutability":"view"},{"type":"function","name":"protocolDeposit","inputs":[{"name":"","type":"uint8","internalType":"enum Treasury.Protocol"}],"outputs":[{"name":"depositIndex","type":"uint64","internalType":"uint64"},{"name":"depositedAmount","type":"uint256","internalType":"uint256"},{"name":"totalCreditedTokens","type":"uint256","internalType":"uint256"},{"name":"depositedUsdValue","type":"uint256","internalType":"uint256"},{"name":"cumulativeRate","type":"uint256","internalType":"uint256"}],"stateMutability":"view"},{"type":"function","name":"renounceOwnership","inputs":[],"outputs":[],"stateMutability":"nonpayable"},{"type":"function","name":"setBorrowingContract","inputs":[{"name":"_address","type":"address","internalType":"address"}],"outputs":[],"stateMutability":"nonpayable"},{"type":"function","name":"totalInterest","inputs":[],"outputs":[{"name":"","type":"uint256","internalType":"uint256"}],"stateMutability":"view"},{"type":"function","name":"totalInterestFromExternalProtocol","inputs":[{"name":"depositor","type":"address","internalType":"address"},{"name":"index","type":"uint64","internalType":"uint64"}],"outputs":[{"name":"","type":"uint256","internalType":"uint256"}],"stateMutability":"nonpayable"},{"type":"function","name":"totalInterestFromLiquidation","inputs":[],"outputs":[{"name":"","type":"uint256","internalType":"uint256"}],"stateMutability":"view"},{"type":"function","name":"totalVolumeOfBorrowersAmountinUSD","inputs":[],"outputs":[{"name":"","type":"uint256","internalType":"uint256"}],"stateMutability":"view"},{"type":"function","name":"totalVolumeOfBorrowersAmountinWei","inputs":[],"outputs":[{"name":"","type":"uint256","internalType":"uint256"}],"stateMutability":"view"},{"type":"function","name":"transferEthToCdsLiquidators","inputs":[{"name":"borrower","type":"address","internalType":"address"},{"name":"amount","type":"uint128","internalType":"uint128"}],"outputs":[],"stateMutability":"nonpayable"},{"type":"function","name":"transferOwnership","inputs":[{"name":"newOwner","type":"address","internalType":"address"}],"outputs":[],"stateMutability":"nonpayable"},{"type":"function","name":"trinity","inputs":[],"outputs":[{"name":"","type":"address","internalType":"contract ITrinityToken"}],"stateMutability":"view"},{"type":"function","name":"updateDepositDetails","inputs":[{"name":"depositor","type":"address","internalType":"address"},{"name":"index","type":"uint64","internalType":"uint64"},{"name":"depositDetail","type":"tuple","internalType":"struct Treasury.DepositDetails","components":[{"name":"depositedTime","type":"uint64","internalType":"uint64"},{"name":"depositedAmount","type":"uint128","internalType":"uint128"},{"name":"downsidePercentage","type":"uint64","internalType":"uint64"},{"name":"ethPriceAtDeposit","type":"uint128","internalType":"uint128"},{"name":"borrowedAmount","type":"uint128","internalType":"uint128"},{"name":"normalizedAmount","type":"uint128","internalType":"uint128"},{"name":"withdrawNo","type":"uint8","internalType":"uint8"},{"name":"withdrawed","type":"bool","internalType":"bool"},{"name":"withdrawAmount","type":"uint128","internalType":"uint128"},{"name":"liquidated","type":"bool","internalType":"bool"},{"name":"ethPriceAtWithdraw","type":"uint64","internalType":"uint64"},{"name":"withdrawTime","type":"uint64","internalType":"uint64"},{"name":"pTokensAmount","type":"uint128","internalType":"uint128"},{"name":"strikePrice","type":"uint64","internalType":"uint64"},{"name":"externalProtocolCount","type":"uint64","internalType":"uint64"}]}],"outputs":[],"stateMutability":"nonpayable"},{"type":"function","name":"updateHasBorrowed","inputs":[{"name":"borrower","type":"address","internalType":"address"},{"name":"_bool","type":"bool","internalType":"bool"}],"outputs":[],"stateMutability":"nonpayable"},{"type":"function","name":"updateTotalBorrowedAmount","inputs":[{"name":"borrower","type":"address","internalType":"address"},{"name":"amount","type":"uint256","internalType":"uint256"}],"outputs":[],"stateMutability":"nonpayable"},{"type":"function","name":"updateTotalDepositedAmount","inputs":[{"name":"borrower","type":"address","internalType":"address"},{"name":"amount","type":"uint128","internalType":"uint128"}],"outputs":[],"stateMutability":"nonpayable"},{"type":"function","name":"updateTotalInterest","inputs":[{"name":"_amount","type":"uint256","internalType":"uint256"}],"outputs":[],"stateMutability":"nonpayable"},{"type":"function","name":"updateTotalInterestFromLiquidation","inputs":[{"name":"_amount","type":"uint256","internalType":"uint256"}],"outputs":[],"stateMutability":"nonpayable"},{"type":"function","name":"updateTotalPTokensDecrease","inputs":[{"name":"borrower","type":"address","internalType":"address"},{"name":"amount","type":"uint128","internalType":"uint128"}],"outputs":[],"stateMutability":"nonpayable"},{"type":"function","name":"updateTotalPTokensIncrease","inputs":[{"name":"borrower","type":"address","internalType":"address"},{"name":"amount","type":"uint128","internalType":"uint128"}],"outputs":[],"stateMutability":"nonpayable"},{"type":"function","name":"usdt","inputs":[],"outputs":[{"name":"","type":"address","internalType":"contract IERC20"}],"stateMutability":"view"},{"type":"function","name":"wethGateway","inputs":[],"outputs":[{"name":"","type":"address","internalType":"contract IWrappedTokenGatewayV3"}],"stateMutability":"view"},{"type":"function","name":"withdraw","inputs":[{"name":"borrower","type":"address","internalType":"address"},{"name":"toAddress","type":"address","internalType":"address"},{"name":"_amount","type":"uint256","internalType":"uint256"},{"name":"index","type":"uint64","internalType":"uint64"},{"name":"_ethPrice","type":"uint64","internalType":"uint64"}],"outputs":[{"name":"","type":"bool","internalType":"bool"}],"stateMutability":"nonpayable"},{"type":"function","name":"withdrawFromAave","inputs":[{"name":"index","type":"uint64","internalType":"uint64"}],"outputs":[],"stateMutability":"nonpayable"},{"type":"function","name":"withdrawFromCompound","inputs":[{"name":"index","type":"uint64","internalType":"uint64"}],"outputs":[],"stateMutability":"nonpayable"},{"type":"function","name":"withdrawInterest","inputs":[{"name":"toAddress","type":"address","internalType":"address"},{"name":"amount","type":"uint256","internalType":"uint256"}],"outputs":[],"stateMutability":"nonpayable"},{"type":"event","name":"Deposit","inputs":[{"name":"user","type":"address","indexed":true,"internalType":"address"},{"name":"amount","type":"uint256","indexed":false,"internalType":"uint256"}],"anonymous":false},{"type":"event","name":"DepositToAave","inputs":[{"name":"count","type":"uint64","indexed":false,"internalType":"uint64"},{"name":"amount","type":"uint256","indexed":false,"internalType":"uint256"}],"anonymous":false},{"type":"event","name":"DepositToCompound","inputs":[{"name":"count","type":"uint64","indexed":false,"internalType":"uint64"},{"name":"amount","type":"uint256","indexed":false,"internalType":"uint256"}],"anonymous":false},{"type":"event","name":"OwnershipTransferred","inputs":[{"name":"previousOwner","type":"address","indexed":true,"internalType":"address"},{"name":"newOwner","type":"address","indexed":true,"internalType":"address"}],"anonymous":false},{"type":"event","name":"Withdraw","inputs":[{"name":"user","type":"address","indexed":true,"internalType":"address"},{"name":"amount","type":"uint256","indexed":false,"internalType":"uint256"}],"anonymous":false},{"type":"event","name":"WithdrawFromAave","inputs":[{"name":"count","type":"uint64","indexed":false,"internalType":"uint64"},{"name":"amount","type":"uint256","indexed":false,"internalType":"uint256"}],"anonymous":false},{"type":"event","name":"WithdrawFromCompound","inputs":[{"name":"count","type":"uint64","indexed":false,"internalType":"uint64"},{"name":"amount","type":"uint256","indexed":false,"internalType":"uint256"}],"anonymous":false},{"type":"error","name":"Treasury_AaveDepositAndMintFailed","inputs":[]},{"type":"error","name":"Treasury_AavePoolAddressZero","inputs":[]},{"type":"error","name":"Treasury_AaveWithdrawFailed","inputs":[]},{"type":"error","name":"Treasury_CompoundDepositAndMintFailed","inputs":[]},{"type":"error","name":"Treasury_CompoundWithdrawFailed","inputs":[]},{"type":"error","name":"Treasury_EthTransferToCdsLiquidatorFailed","inputs":[]},{"type":"error","name":"Treasury_ZeroDeposit","inputs":[]},{"type":"error","name":"Treasury_ZeroWithdraw","inputs":[]}],"bytecode":{"object":"0x6080604052601380546001600160401b0319166001179055670de0b6b3a76400006014556b033b2e3c9fd0803ce80000006015553480156200004057600080fd5b50604051620045a0380380620045a083398101604081905262000063916200018c565b6200006e336200011f565b600880546001600160a01b03199081166001600160a01b039a8b16908117909255600980548216988b169890981790975560018054881690911790556002805487169789169790971790965560038054861694881694851790556007805486169388169384179055600a80548616909317909255600480548516918716919091179055600680548416918616919091179055600b805483169091179055600580549091169190921617905562000234565b600080546001600160a01b038381166001600160a01b0319831681178455604051919092169283917f8be0079c531659141344cd1fd0a4f28419497f9722a3daafe3b4186f6b6457e09190a35050565b80516001600160a01b03811681146200018757600080fd5b919050565b600080600080600080600080610100898b031215620001aa57600080fd5b620001b5896200016f565b9750620001c560208a016200016f565b9650620001d560408a016200016f565b9550620001e560608a016200016f565b9450620001f560808a016200016f565b93506200020560a08a016200016f565b92506200021560c08a016200016f565b91506200022560e08a016200016f565b90509295985092959890939650565b61435c80620002446000396000f3fe60806040526004361061028c5760003560e01c80638ca8fddd1161015a578063dc64177c116100c1578063f19aca571161007a578063f19aca57146109fa578063f2fde38b14610ba0578063f750d07d14610bc0578063f750e3ab14610be0578063fe6520ae14610c91578063ff2d7dc614610cc157600080fd5b8063dc64177c14610933578063dcb71f3f14610948578063e61361051461097a578063e68d35691461099a578063e9aeb2a8146109ba578063ef0d5dc1146109da57600080fd5b8063b9a221eb11610113578063b9a221eb14610814578063bc497a8214610834578063bc7a36d614610854578063bdceaba21461086a578063bfc00714146108f3578063c5e10eef1461091357600080fd5b80638ca8fddd1461071f5780638da5cb5b1461073f57806394420dfe1461075d5780639a52aed914610795578063a0c1f15e146107ab578063b9127c5c146107cb57600080fd5b8063394612a1116101fe5780635822b66d116101b75780635822b66d1461066a5780635b730e691461068a5780636cd4ddbc146106aa578063715018a6146106ca57806378fdaf3f146106df57806384a965ed146106ff57600080fd5b8063394612a1146103fe5780633b7566fc1461041457806345aeb0ce146104345780634d5c56a51461046c578063509aac3414610634578063541b60941461065457600080fd5b80631cd081b2116102505780631cd081b21461033e57806323f1059c1461035e57806325375dd51461037e5780632b7f56941461039e5780632f48ab7d146103be57806337672410146103de57600080fd5b806306197c1c146102985780630ddec572146102af5780630f274495146102cf57806319b68c00146102f15780631b8511341461032957600080fd5b3661029357005b600080fd5b3480156102a457600080fd5b506102ad610ce1565b005b3480156102bb57600080fd5b506102ad6102ca3660046139c3565b611406565b3480156102db57600080fd5b50475b6040519081526020015b60405180910390f35b3480156102fd57600080fd5b50600754610311906001600160a01b031681565b6040516001600160a01b0390911681526020016102e8565b34801561033557600080fd5b506102ad61188e565b34801561034a57600080fd5b506102ad6103593660046139fa565b611d36565b34801561036a57600080fd5b506102ad610379366004613a26565b611d6a565b34801561038a57600080fd5b50600454610311906001600160a01b031681565b3480156103aa57600080fd5b506102ad6103b93660046139fa565b611d84565b3480156103ca57600080fd5b50600554610311906001600160a01b031681565b3480156103ea57600080fd5b506102ad6103f93660046139c3565b611f0f565b34801561040a57600080fd5b506102de60125481565b34801561042057600080fd5b506102ad61042f366004613a56565b61257f565b34801561044057600080fd5b50601054610454906001600160801b031681565b6040516001600160801b0390911681526020016102e8565b34801561047857600080fd5b50610626610487366004613a8b565b604080516101e081018252600080825260208201819052918101829052606081018290526080810182905260a0810182905260c0810182905260e08101829052610100810182905261012081018290526101408101829052610160810182905261018081018290526101a081018290526101c0810182905250506001600160a01b03919091166000908152600c602090815260408083206003808201546001600160401b039687168652600192830185529483902083516101e08101855281548089168252600160401b8082046001600160801b0390811698840198909852600160c01b918290048a1696830196909652938201548087166060830152600160801b9081900487166080830152600283015480881660a084015281810460ff90811660c0850152600160881b918290048116151560e08501529484015480891661010085015291820490941615156101208301529290920487166101408301526004810154808816610160840152938404909416610180820152910484166101a082015260059091015483166101c08201526201000090910490911691565b6040516102e8929190613ab7565b34801561064057600080fd5b50600254610311906001600160a01b031681565b34801561066057600080fd5b506102de600f5481565b34801561067657600080fd5b506102ad610685366004613a56565b6125e5565b34801561069657600080fd5b506102ad6106a53660046139fa565b61268c565b3480156106b657600080fd5b506102ad6106c5366004613a56565b6127f0565b3480156106d657600080fd5b506102ad612821565b3480156106eb57600080fd5b506102ad6106fa366004613c1c565b612835565b34801561070b57600080fd5b50600854610311906001600160a01b031681565b34801561072b57600080fd5b506102de61073a3660046139c3565b6128d6565b34801561074b57600080fd5b506000546001600160a01b0316610311565b34801561076957600080fd5b5060135461077d906001600160401b031681565b6040516001600160401b0390911681526020016102e8565b3480156107a157600080fd5b506102de600e5481565b3480156107b757600080fd5b50600654610311906001600160a01b031681565b3480156107d757600080fd5b506102ad6107e6366004613c52565b6001600160a01b03919091166000908152600c60205260409020600301805460ff1916911515919091179055565b34801561082057600080fd5b506102ad61082f366004613a26565b6129bf565b34801561084057600080fd5b50600954610311906001600160a01b031681565b34801561086057600080fd5b506102de60115481565b34801561087657600080fd5b506108c1610885366004613c8b565b600d60205260009081526040902060018101546002820154600383015460048401546005909401546001600160401b0390931693919290919085565b604080516001600160401b0390961686526020860194909452928401919091526060830152608082015260a0016102e8565b3480156108ff57600080fd5b50600a54610311906001600160a01b031681565b34801561091f57600080fd5b50600354610311906001600160a01b031681565b34801561093f57600080fd5b506102ad6129d1565b61095b610956366004613cac565b612a4e565b6040805192151583526001600160401b039091166020830152016102e8565b34801561098657600080fd5b506102ad6109953660046139fa565b612d6f565b3480156109a657600080fd5b50600154610311906001600160a01b031681565b3480156109c657600080fd5b506102de6109d5366004613a8b565b612e06565b3480156109e657600080fd5b506102ad6109f5366004613a56565b6131e3565b348015610a0657600080fd5b506102ad610a15366004613d39565b6001600160a01b03929092166000908152600c602090815260408083206001600160401b03948516845260019081018352928190208551815493870151928701519086166001600160c01b031994851617600160401b6001600160801b039485168102919091176001600160c01b03908116600160c01b9389168402178455606089015160808a0151908616600160801b9187168202179785019790975560a089015160028501805460c08c015160e08d015193891670ffffffffffffffffffffffffffffffffff199283161760ff9091168b021760ff60881b1916600160881b9315158402179091556101008b01516003870180546101208e01516101408f0151938b169190941617921515909a029190911767ffffffffffffffff60881b1916908a16909102179096556101608801516004840180546101808b01516101a08c0151938b16919098161796909516909102949094179094169285169093029190911790556101c0909201516005909201805467ffffffffffffffff191692909116919091179055565b348015610bac57600080fd5b506102ad610bbb366004613c1c565b613221565b348015610bcc57600080fd5b50600b54610311906001600160a01b031681565b348015610bec57600080fd5b50610c4b610bfb366004613c1c565b600c6020526000908152604090208054600282015460039092015490919060ff808216916101008104909116906201000081046001600160401b031690600160501b90046001600160801b031686565b60408051968752602087019590955292151593850193909352151560608401526001600160401b0390911660808301526001600160801b031660a082015260c0016102e8565b348015610c9d57600080fd5b50610cb1610cac366004613ea0565b61329a565b60405190151581526020016102e8565b348015610ccd57600080fd5b506102de610cdc3660046139c3565b61368f565b6008546001600160a01b03163314610d145760405162461bcd60e51b8152600401610d0b90613f02565b60405180910390fd5b6013546001600160401b0316600090815260166020526040812054606490610d3d906032613f6b565b610d479190613f98565b905080600003610d6a5760405163371c51e160e11b815260040160405180910390fd5b6000600460009054906101000a90046001600160a01b03166001600160a01b031663026b1d5f6040518163ffffffff1660e01b8152600401602060405180830381865afa158015610dbf573d6000803e3d6000fd5b505050506040513d601f19601f82011682018060405250810190610de39190613fac565b90506001600160a01b038116610e0c57604051630a20c02560e21b815260040160405180910390fd5b6006546040516370a0823160e01b81523060048201526000916001600160a01b0316906370a0823190602401602060405180830381865afa158015610e55573d6000803e3d6000fd5b505050506040513d601f19601f82011682018060405250810190610e799190613fc9565b60035460405163474cf53d60e01b81526001600160a01b0385811660048301523060248301526000604483015292935091169063474cf53d9085906064016000604051808303818588803b158015610ed057600080fd5b505af1158015610ee4573d6000803e3d6000fd5b50506006546040516370a0823160e01b8152306004820152600094506001600160a01b0390911692506370a082319150602401602060405180830381865afa158015610f34573d6000803e3d6000fd5b505050506040513d601f19601f82011682018060405250810190610f589190613fc9565b60008052600d602052600080516020614307833981519152549091508103610f9357604051636b39e0e560e01b815260040160405180910390fd5b60008052600d602052600080516020614247833981519152546001600160401b0316610fc0600182613fe2565b601380549192506001600160401b03909116906000610fde83614009565b91906101000a8154816001600160401b0302191690836001600160401b0316021790555050806001600160401b031660011480611031575060008052600d60205260008051602061430783398151915254155b156110575760155460008052600d6020526000805160206142c7833981519152556110eb565b6000808052600d6020526000805160206143078339815191525460155461107e828761402f565b6110889190613f6b565b6110929190613f98565b60155460008052600d6020526000805160206142c783398151915254919250906110bc8383614042565b6110c69190613f6b565b6110d09190613f98565b60008052600d6020526000805160206142c783398151915255505b60008052600d6020526000805160206142c7833981519152546015546111119087613f6b565b61111b9190613f98565b6001600160401b03821660008181526000805160206142e783398151915260209081526040822060070193909355808052600d909252600080516020614247833981519152805467ffffffffffffffff191690911790557f81955a0a11e65eac625c29e8882660bae4e165a75d72780094acae8ece9a29f080548792906111a3908490614042565b90915550506001600160401b0381811660009081526000805160206142e78339815191526020908152604080832080546001600160c01b0319164290951694909417600160401b6001600160801b038b16021790935560015483516350593af760e01b8152935192936001600160a01b03909116926350593af7926004808401939192918290030181865afa158015611240573d6000803e3d6000fd5b505050506040513d601f19601f820116820180604052508101906112649190613fc9565b6001600160401b03831660009081526000805160206142e78339815191526020526040902060010180546001600160801b0319166001600160801b0383169081179091559091506112b59087613f6b565b6001600160401b03831660009081526000805160206142e7833981519152602090815260408220600201929092558052600d90527f81955a0a11e65eac625c29e8882660bae4e165a75d72780094acae8ece9a29f05461131f906001600160801b03831690613f6b565b60008052600d6020527f81955a0a11e65eac625c29e8882660bae4e165a75d72780094acae8ece9a29f255600080516020614307833981519152546113649084614055565b6001600160401b03831660008181526000805160206142e78339815191526020908152604080832060030180546001600160801b0319166001600160801b039690961695909517909455908052600d81526000805160206143078339815191528690558251918252810188905281517fbab03e271351d865ca59323a9224d2c6e0826b7e61b0716daa4f92f16e5c7761929181900390910190a1505050505050565b6008546001600160a01b031633146114305760405162461bcd60e51b8152600401610d0b90613f02565b6001600160401b03811660009081526000805160206142a783398151915260205260409020600301546001600160801b03811690600160801b900460ff16156114bb5760405162461bcd60e51b815260206004820181905260248201527f416c7265616479207769746864726177656420696e207468697320696e6465786044820152606401610d0b565b806000036114dc57604051633c54b6a360e11b815260040160405180910390fd5b60075460405163db006a7560e01b8152600481018390526001600160a01b039091169063db006a75906024016020604051808303816000875af1158015611527573d6000803e3d6000fd5b505050506040513d601f19601f8201168201806040525081019061154b9190613fc9565b506007546040516370a0823160e01b81523060048201526000916001600160a01b0316906370a0823190602401602060405180830381865afa158015611595573d6000803e3d6000fd5b505050506040513d601f19601f820116820180604052508101906115b99190613fc9565b6001600052600d6020526000805160206142678339815191525490915081036115f557604051630f8bab4760e01b815260040160405180910390fd5b60016000908152600d602052600080516020614287833981519152805484929061162090849061402f565b90915550506001600160401b0383811660009081526000805160206142a78339815191526020908152604080832060038101805460ff60801b1916600160801b9081179091556004918201805467ffffffffffffffff60801b1916429097169091029590951790945560015481516350593af760e01b8152915193946001600160a01b03909116936350593af793838301939092908290030181865afa1580156116ce573d6000803e3d6000fd5b505050506040513d601f19601f820116820180604052508101906116f29190613fc9565b6001600160401b03851660009081526000805160206142a78339815191526020526040902060040180546001600160801b0319166001600160801b0383169081179091559091506117439084613f6b565b6001600160401b03851660009081526000805160206142a78339815191526020908152604082206005019290925560019052600d90526000805160206142878339815191525461179d906001600160801b03831690613f6b565b60016000908152600d6020527ffd54ff1ed53f34a900b24c5ba64f85761163b5d82d98a47b9bd80e45466993c99190915560008051602061426783398151915280548592906117ed90849061402f565b909155506117fc9050846128d6565b6001600160401b03851660008181526000805160206142a783398151915260209081526040918290206006810180546001600160801b03969096166001600160801b0319968716179055600301805490941690935580519182529181018590527f7947802835fbf722d45a3c84bbefbe958e96c1647668d9db89cb77314688250491015b60405180910390a150505050565b6008546001600160a01b031633146118b85760405162461bcd60e51b8152600401610d0b90613f02565b60135460009060649060169083906118db906001906001600160401b0316614075565b6001600160401b031681526020019081526020016000205460326118ff9190613f6b565b6119099190613f98565b90508060000361192c5760405163371c51e160e11b815260040160405180910390fd5b600760009054906101000a90046001600160a01b03166001600160a01b0316631249c58b826040518263ffffffff1660e01b81526004016000604051808303818588803b15801561197c57600080fd5b505af1158015611990573d6000803e3d6000fd5b50506007546040516370a0823160e01b8152306004820152600094506001600160a01b0390911692506370a082319150602401602060405180830381865afa1580156119e0573d6000803e3d6000fd5b505050506040513d601f19601f82011682018060405250810190611a049190613fc9565b6001600052600d602052600080516020614267833981519152549091508103611a4057604051631c14f52f60e21b815260040160405180910390fd5b60016000819052600d6020527ffd54ff1ed53f34a900b24c5ba64f85761163b5d82d98a47b9bd80e45466993c6546001600160401b031690611a829082613fe2565b60016000908152600d6020527ffd54ff1ed53f34a900b24c5ba64f85761163b5d82d98a47b9bd80e45466993c6805467ffffffffffffffff19166001600160401b03841617905560008051602061428783398151915280549293508592909190611aed908490614042565b90915550506001600160401b0381811660009081526000805160206142a78339815191526020908152604080832080546001600160c01b0319164290951694909417600160401b6001600160801b038916021790935560015483516350593af760e01b8152935192936001600160a01b03909116926350593af7926004808401939192918290030181865afa158015611b8a573d6000803e3d6000fd5b505050506040513d601f19601f82011682018060405250810190611bae9190613fc9565b6001600160401b03831660009081526000805160206142a78339815191526020526040902060010180546001600160801b0319166001600160801b038316908117909155909150611bff9085613f6b565b6001600160401b03831660009081526000805160206142a78339815191526020908152604082206002019290925560019052600d905260008051602061428783398151915254611c59906001600160801b03831690613f6b565b6001600052600d6020527ffd54ff1ed53f34a900b24c5ba64f85761163b5d82d98a47b9bd80e45466993c95560008051602061426783398151915254611c9f9084614055565b6001600160401b03831660008181526000805160206142a78339815191526020908152604080832060030180546001600160801b0319166001600160801b0396909616959095179094556001909152600d8152600080516020614267833981519152869055825191825281018690527fed55c0f11575257f860976702211fd0107cbdad286e90fd3d9ad6c1d604b8cc59101611880565b6001600160a01b0382166000908152600c602052604081206002018054839290611d61908490614042565b90915550505050565b8060126000828254611d7c9190614042565b909155505050565b6009546001600160a01b0316331480611da757506008546001600160a01b031633145b611e195760405162461bcd60e51b815260206004820152603a60248201527f546869732066756e6374696f6e2063616e206f6e6c792063616c6c656420627960448201527f20426f72726f77696e67206f722043445320636f6e74726163740000000000006064820152608401610d0b565b6001600160a01b03821615801590611e3057508015155b611e4c5760405162461bcd60e51b8152600401610d0b90614095565b60025460405163095ea7b360e01b81526001600160a01b03848116600483015260248201849052600092169063095ea7b3906044015b6020604051808303816000875af1158015611ea1573d6000803e3d6000fd5b505050506040513d601f19601f82011682018060405250810190611ec591906140d7565b9050600181151514611f0a5760405162461bcd60e51b815260206004820152600e60248201526d105c1c1c9bdd994819985a5b195960921b6044820152606401610d0b565b505050565b6008546001600160a01b03163314611f395760405162461bcd60e51b8152600401610d0b90613f02565b6001600160401b03811660009081526000805160206142e78339815191526020526040902060030154600160801b900460ff1615611fb95760405162461bcd60e51b815260206004820181905260248201527f416c7265616479207769746864726177656420696e207468697320696e6465786044820152606401610d0b565b6006546040516370a0823160e01b81523060048201526000916001600160a01b0316906370a0823190602401602060405180830381865afa158015612002573d6000803e3d6000fd5b505050506040513d601f19601f820116820180604052508101906120269190613fc9565b6000808052600d602052600080516020614307833981519152546015549293509091612052828561402f565b61205c9190613f6b565b6120669190613f98565b6015546000808052600d6020526000805160206142c783398151915254929350916120918483614042565b61209b9190613f6b565b6120a59190613f98565b6015546001600160401b03861660009081526000805160206142e78339815191526020526040812060070154929350916120df9084613f6b565b6120e99190613f98565b90506000600460009054906101000a90046001600160a01b03166001600160a01b031663026b1d5f6040518163ffffffff1660e01b8152600401602060405180830381865afa158015612140573d6000803e3d6000fd5b505050506040513d601f19601f820116820180604052508101906121649190613fac565b90506001600160a01b03811661218d57604051630a20c02560e21b815260040160405180910390fd5b600654600b5460405163095ea7b360e01b81526001600160a01b0391821660048201526024810185905291169063095ea7b3906044016020604051808303816000875af11580156121e2573d6000803e3d6000fd5b505050506040513d601f19601f8201168201806040525081019061220691906140d7565b506122108661368f565b6001600160401b03871660009081526000805160206142e7833981519152602052604080822060060180546001600160801b0319166001600160801b0394909416939093179092556003548251630402806960e51b81526001600160a01b03858116600483015260248201879052306044830152935193909116926380500d209260648084019391929182900301818387803b1580156122af57600080fd5b505af11580156122c3573d6000803e3d6000fd5b50506006546040516370a0823160e01b8152306004820152600093506001600160a01b0390911691506370a0823190602401602060405180830381865afa158015612312573d6000803e3d6000fd5b505050506040513d601f19601f820116820180604052508101906123369190613fc9565b60008052600d6020526000805160206143078339815191525490915081036123705760405162bc94a760e31b815260040160405180910390fd5b6001600160401b0387811660009081526000805160206142e78339815191526020908152604080832060038101805460ff60801b1916600160801b9081179091556004918201805467ffffffffffffffff60801b1916429097169091029590951790945560015481516350593af760e01b8152915193946001600160a01b03909116936350593af793838301939092908290030181865afa158015612419573d6000803e3d6000fd5b505050506040513d601f19601f8201168201806040525081019061243d9190613fc9565b6001600160401b0389811660009081526000805160206142e78339815191526020526040902060040180546001600160801b03191692909116918217905590506124878185613f6b565b6001600160401b03891660009081526000805160206142e7833981519152602090815260408220600501929092558052600d90527f81955a0a11e65eac625c29e8882660bae4e165a75d72780094acae8ece9a29f0546124f1906001600160801b03831690613f6b565b60008052600d60209081527f81955a0a11e65eac625c29e8882660bae4e165a75d72780094acae8ece9a29f291909155600080516020614307833981519152839055604080516001600160401b038b16815291820186905280517fb3e5c8a48c51608dcaa5fe045f1963964839d48a0d24e62e940fa0451db9015b9281900390910190a15050505050505050565b6001600160a01b0382166000908152600c602052604090206003018054829190600a906125bd908490600160501b90046001600160801b0316614055565b92506101000a8154816001600160801b0302191690836001600160801b031602179055505050565b6009546001600160a01b0316331461260f5760405162461bcd60e51b8152600401610d0b906140f4565b6000826001600160a01b0316826001600160801b031660405160006040518083038185875af1925050503d8060008114612665576040519150601f19603f3d011682016040523d82523d6000602084013e61266a565b606091505b5050905080611f0a57604051633243a0f360e21b815260040160405180910390fd5b61269461388f565b6001600160a01b038216158015906126ab57508015155b6126c75760405162461bcd60e51b8152600401610d0b90614095565b6012546011546126d79190614042565b8111156127325760405162461bcd60e51b815260206004820152602360248201527f547265617375727920646f6e2774206861766520656e6f75676820696e746572604482015262195cdd60ea1b6064820152608401610d0b565b60025460405163a9059cbb60e01b81526001600160a01b03848116600483015260248201849052600092169063a9059cbb906044016020604051808303816000875af1158015612786573d6000803e3d6000fd5b505050506040513d601f19601f820116820180604052508101906127aa91906140d7565b905080611f0a5760405162461bcd60e51b81526020600482015260146024820152732330b4b632b2103a379039b2b7321022ba3432b960611b6044820152606401610d0b565b6001600160a01b0382166000908152600c6020526040812080546001600160801b0384169290611d6190849061402f565b61282961388f565b61283360006138e9565b565b61283d61388f565b6001600160a01b0381161580159061285e57506001600160a01b0381163b15155b6128aa5760405162461bcd60e51b815260206004820152601860248201527f496e707574206164647265737320697320696e76616c696400000000000000006044820152606401610d0b565b600880546001600160a01b039092166001600160a01b0319928316811790915560018054909216179055565b6001600160401b03811660009081526000805160206142a783398151915260209081526040808320600754825163bd6d894d60e01b81529251919385936001600160a01b039092169263bd6d894d926004808201939291829003018187875af1158015612947573d6000803e3d6000fd5b505050506040513d601f19601f8201168201806040525081019061296b9190613fc9565b601454600384015491925060009161298d9084906001600160801b0316613f6b565b6129979190613f98565b83549091506129b690600160401b90046001600160801b03168261402f565b95945050505050565b8060116000828254611d7c9190614042565b600d6020526000805160206142478339815191525460016000527ffd54ff1ed53f34a900b24c5ba64f85761163b5d82d98a47b9bd80e45466993c6546001600160401b039182169116818110612a275780612a29565b815b6013805467ffffffffffffffff19166001600160401b03929092169190911790555050565b60085460009081906001600160a01b03163314612a7d5760405162461bcd60e51b8152600401610d0b90613f02565b6001600160a01b0385166000908152600c6020526040812060030154610100900460ff16612b1a57506001600160a01b0385166000908152600c60205260408120600301805469ffffffffffffffffff001916620101001790556010805460019290612af1906001600160801b0316614141565b91906101000a8154816001600160801b0302191690836001600160801b03160217905550612b78565b6001600160a01b0386166000908152600c602052604090206003018054600290612b52906201000090046001600160401b0316614009565b91906101000a8154816001600160401b0302191690836001600160401b03160217905590505b6001600160a01b0386166000908152600c602052604081208054349290612ba0908490614042565b90915550506001600160a01b0386166000908152600c602090815260408083206001600160401b0385168452600101909152902080546001600160801b0334818116600160401b0277ffffffffffffffffffffffffffffffff00000000000000001990931692909217909255612c17918716613f6b565b600f6000828254612c289190614042565b9250508190555034600e6000828254612c419190614042565b90915550506001600160a01b0386166000908152600c602090815260408083206001600160401b03858116855260019182019093529220805487831667ffffffffffffffff1991821617825592810180546001600160801b038a166001600160801b03199091161790556013546005909101805490931691161790556064612cca346032613f6b565b612cd49190613f98565b6013546001600160401b031660009081526016602052604081208054909190612cfe908490614042565b90915550506040513481526001600160a01b038716907fe1fffcc4923d04b559f4d29a8bfc6cda04eb5b0d3c460751c2402c5c5cc9109c9060200160405180910390a26001600160a01b03959095166000908152600c6020526040902060030154610100900460ff16959350505050565b6009546001600160a01b03163314612d995760405162461bcd60e51b8152600401610d0b906140f4565b6001600160a01b03821615801590612db057508015155b612dcc5760405162461bcd60e51b8152600401610d0b90614095565b60055460405163095ea7b360e01b81526001600160a01b03848116600483015260248201849052600092169063095ea7b390604401611e82565b6001600160a01b0382166000908152600c602090815260408083206001600160401b0380861685526001909101909252822060050154829116805b6013546001600160401b0390811690821610156130fc576000600d81808152602080820192909252604090810160009081206001600160401b03868116835290845282822083516101608101855281548084168252600160401b90046001600160801b03908116968201969096526001808301548716958201959095526002820154606082015260038201548087166080830152600160801b9081900460ff16151560a0830152600483015480881660c08401520490921660e083015260058101546101008301526006810154909416610120820152600790930154610140840152919250600d9082908152602080820192909252604090810160009081206001600160401b03808816835290845290829020825161016081018452815480841682526001600160801b03600160401b9091048116958201959095526001820154851693810193909352600281015460608401526003810154808516608085015260ff600160801b9182900416151560a080860191909152600483015480871660c08701529190910490921660e08401526005810154610100840152600681015490931661012083015260079092015461014082015290830151909150801561300b57508060a001515b1561304057806101200151826101200151613026919061415d565b613039906001600160801b031686614042565b94506130e7565b8160a0015115801561305357508060a001515b15613084578061012001516001600160801b03166130708461368f565b61307a9190614042565b6130399086614042565b8160a00151801561309757508060a00151155b156130be576130a5836128d6565b8261012001516001600160801b031661307a9190614042565b6130c78361368f565b6130d0846128d6565b6130da9190614042565b6130e49086614042565b94505b505080806130f490614009565b915050612e41565b5061312d6040518060400160405280600e81526020016d1513d510530812539511549154d560921b81525083613939565b6001600160401b038181166000908152601660209081526040808320546001600160a01b038a168452600c83528184209489168452600190940190915281205460649061318b90600160401b90046001600160801b0316603261417d565b61319591906141a8565b6001600160801b03169050600082601454836131b19190613f6b565b6131bb9190613f98565b6014549091506131cb8683613f6b565b6131d59190613f98565b955050505050505b92915050565b6001600160a01b0382166000908152600c602052604090206003018054829190600a906125bd908490600160501b90046001600160801b031661415d565b61322961388f565b6001600160a01b03811661328e5760405162461bcd60e51b815260206004820152602660248201527f4f776e61626c653a206e6577206f776e657220697320746865207a65726f206160448201526564647265737360d01b6064820152608401610d0b565b613297816138e9565b50565b6008546000906001600160a01b031633146132c75760405162461bcd60e51b8152600401610d0b90613f02565b600084116133175760405162461bcd60e51b815260206004820152601a60248201527f43616e6e6f74207769746864726177207a65726f2045746865720000000000006044820152606401610d0b565b6001600160a01b0386166000908152600c602090815260408083206001600160401b0387168452600101909152902060020154600160801b900460ff1661337a5760405162461bcd60e51b81526020600482015260006024820152604401610d0b565b60405184906000906001600160a01b0388169083908381818185875af1925050503d80600081146133c7576040519150601f19603f3d011682016040523d82523d6000602084013e6133cc565b606091505b50509050806134145760405162461bcd60e51b81526020600482015260146024820152732330b4b632b2103a379039b2b7321022ba3432b960611b6044820152606401610d0b565b6001600160a01b0388166000908152600c602090815260408083206001600160401b0389168452600190810190925290912060020154600160801b900460ff1690036134c0576001600160a01b0388166000818152600c602081815260408084206001600160401b038b16855260018082018452918520909101549484529190526002018054600160801b9093046001600160801b0316929091906134ba90849061402f565b90915550505b6001600160a01b0388166000908152600c6020526040812054900361351d57601080546000906134f8906001600160801b03166141ce565b91906101000a8154816001600160801b0302191690836001600160801b031602179055505b6001600160a01b0388166000908152600c602090815260408083206001600160401b0389168452600101909152812060030180548492906135689084906001600160801b031661415d565b82546001600160801b039182166101009390930a9283029190920219909116179055506001546001600160a01b031663661b7d3e6135af846001600160401b038816613f6b565b6040518263ffffffff1660e01b81526004016135cd91815260200190565b600060405180830381600087803b1580156135e757600080fd5b505af11580156135fb573d6000803e3d6000fd5b5050505081846001600160401b03166136149190613f6b565b600f6000828254613625919061402f565b9250508190555081600e600082825461363e919061402f565b90915550506040518681526001600160a01b038816907f884edad9ce6fa2440d8a54cc123490eb96d2768479d49ff9c7366125a94243649060200160405180910390a2506001979650505050505050565b6000808052600d602052600080516020614247833981519152546001600160401b0390811690831611806136ca57506001600160401b038216155b156137105760405162461bcd60e51b8152602060048201526016602482015275125b9d985b1a590818dbdd5b9d081c1c9bdd9a59195960521b6044820152606401610d0b565b6006546040516370a0823160e01b81523060048201526000916001600160a01b0316906370a0823190602401602060405180830381865afa158015613759573d6000803e3d6000fd5b505050506040513d601f19601f8201168201806040525081019061377d9190613fc9565b6000808052600d6020526000805160206143078339815191525460155492935090916137a9828561402f565b6137b39190613f6b565b6137bd9190613f98565b6015546000808052600d6020526000805160206142c783398151915254929350916137e88483614042565b6137f29190613f6b565b6137fc9190613f98565b6015546001600160401b03871660009081526000805160206142e78339815191526020526040812060070154929350916138369084613f6b565b6138409190613f98565b6001600160401b03871660009081526000805160206142e783398151915260205260408120549192509061388490600160401b90046001600160801b03168361402f565b979650505050505050565b6000546001600160a01b031633146128335760405162461bcd60e51b815260206004820181905260248201527f4f776e61626c653a2063616c6c6572206973206e6f7420746865206f776e65726044820152606401610d0b565b600080546001600160a01b038381166001600160a01b0319831681178455604051919092169283917f8be0079c531659141344cd1fd0a4f28419497f9722a3daafe3b4186f6b6457e09190a35050565b61397e828260405160240161394f9291906141f1565b60408051601f198184030181529190526020810180516001600160e01b0316632d839cb360e21b179052613982565b5050565b6132978160006a636f6e736f6c652e6c6f679050600080835160208501845afa505050565b80356001600160401b03811681146139be57600080fd5b919050565b6000602082840312156139d557600080fd5b6139de826139a7565b9392505050565b6001600160a01b038116811461329757600080fd5b60008060408385031215613a0d57600080fd5b8235613a18816139e5565b946020939093013593505050565b600060208284031215613a3857600080fd5b5035919050565b80356001600160801b03811681146139be57600080fd5b60008060408385031215613a6957600080fd5b8235613a74816139e5565b9150613a8260208401613a3f565b90509250929050565b60008060408385031215613a9e57600080fd5b8235613aa9816139e5565b9150613a82602084016139a7565b6001600160401b0383811682528251166020820152610200810160208301516001600160801b03811660408401525060408301516001600160401b03811660608401525060608301516001600160801b03811660808401525060808301516001600160801b03811660a08401525060a08301516001600160801b03811660c08401525060c083015160ff811660e08401525060e0830151610100613b5e8185018315159052565b8401519050610120613b7a848201836001600160801b03169052565b8401519050610140613b8f8482018315159052565b8401519050610160613bab848201836001600160401b03169052565b8401519050610180613bc7848201836001600160401b03169052565b84015190506101a0613be3848201836001600160801b03169052565b84015190506101c0613bff848201836001600160401b03169052565b8401516001600160401b0381166101e08501529050509392505050565b600060208284031215613c2e57600080fd5b81356139de816139e5565b801515811461329757600080fd5b80356139be81613c39565b60008060408385031215613c6557600080fd5b8235613c70816139e5565b91506020830135613c8081613c39565b809150509250929050565b600060208284031215613c9d57600080fd5b8135600281106139de57600080fd5b600080600060608486031215613cc157600080fd5b8335613ccc816139e5565b9250613cda60208501613a3f565b9150613ce8604085016139a7565b90509250925092565b6040516101e081016001600160401b0381118282101715613d2257634e487b7160e01b600052604160045260246000fd5b60405290565b803560ff811681146139be57600080fd5b6000806000838503610220811215613d5057600080fd5b8435613d5b816139e5565b9350613d69602086016139a7565b92506101e080603f1983011215613d7f57600080fd5b613d87613cf1565b9150613d95604087016139a7565b8252613da360608701613a3f565b6020830152613db4608087016139a7565b6040830152613dc560a08701613a3f565b6060830152613dd660c08701613a3f565b6080830152613de760e08701613a3f565b60a0830152610100613dfa818801613d28565b60c0840152610120613e0d818901613c47565b60e0850152610140613e20818a01613a3f565b838601526101609250613e34838a01613c47565b828601526101809150613e48828a016139a7565b908501526101a0613e5a8982016139a7565b838601526101c09250613e6e838a01613a3f565b82860152613e7d848a016139a7565b9085015250613e8f61020088016139a7565b818401525050809150509250925092565b600080600080600060a08688031215613eb857600080fd5b8535613ec3816139e5565b94506020860135613ed3816139e5565b935060408601359250613ee8606087016139a7565b9150613ef6608087016139a7565b90509295509295909350565b60208082526033908201527f546869732066756e6374696f6e2063616e206f6e6c792063616c6c656420627960408201527208189bdc9c9bddda5b99c818dbdb9d1c9858dd606a1b606082015260800190565b634e487b7160e01b600052601160045260246000fd5b80820281158282048414176131dd576131dd613f55565b634e487b7160e01b600052601260045260246000fd5b600082613fa757613fa7613f82565b500490565b600060208284031215613fbe57600080fd5b81516139de816139e5565b600060208284031215613fdb57600080fd5b5051919050565b6001600160401b0381811683821601908082111561400257614002613f55565b5092915050565b60006001600160401b0380831681810361402557614025613f55565b6001019392505050565b818103818111156131dd576131dd613f55565b808201808211156131dd576131dd613f55565b6001600160801b0382811682821603908082111561400257614002613f55565b6001600160401b0382811682821603908082111561400257614002613f55565b60208082526022908201527f496e7075742061646472657373206f7220616d6f756e7420697320696e76616c6040820152611a5960f21b606082015260800190565b6000602082840312156140e957600080fd5b81516139de81613c39565b6020808252602d908201527f546869732066756e6374696f6e2063616e206f6e6c792063616c6c656420627960408201526c0810d114c818dbdb9d1c9858dd609a1b606082015260800190565b60006001600160801b0380831681810361402557614025613f55565b6001600160801b0381811683821601908082111561400257614002613f55565b6001600160801b038181168382160280821691908281146141a0576141a0613f55565b505092915050565b60006001600160801b03808416806141c2576141c2613f82565b92169190910492915050565b60006001600160801b038216806141e7576141e7613f55565b6000190192915050565b604081526000835180604084015260005b8181101561421f5760208187018101516060868401015201614202565b506000606082850101526060601f19601f830116840101915050826020830152939250505056fe81955a0a11e65eac625c29e8882660bae4e165a75d72780094acae8ece9a29effd54ff1ed53f34a900b24c5ba64f85761163b5d82d98a47b9bd80e45466993c8fd54ff1ed53f34a900b24c5ba64f85761163b5d82d98a47b9bd80e45466993c7fd54ff1ed53f34a900b24c5ba64f85761163b5d82d98a47b9bd80e45466993c581955a0a11e65eac625c29e8882660bae4e165a75d72780094acae8ece9a29f381955a0a11e65eac625c29e8882660bae4e165a75d72780094acae8ece9a29ee81955a0a11e65eac625c29e8882660bae4e165a75d72780094acae8ece9a29f1a2646970667358221220a0dbc3382683c65459704ae02ff106ccd13fd7b48aab6e261249a8cfb8ed2df764736f6c63430008120033","linkReferences":{}},"methodIdentifiers":{"aToken()":"a0c1f15e","aavePoolAddressProvider()":"25375dd5","aaveWETH()":"f750d07d","approveAmint(address,uint256)":"2b7f5694","approveUsdt(address,uint256)":"e6136105","borrow()":"e68d3569","borrowing(address)":"f750e3ab","borrowingContract()":"84a965ed","cEther()":"19b68c00","calculateInterestForDepositAave(uint64)":"ff2d7dc6","cdsContract()":"bc497a82","compoundAddress()":"bfc00714","deposit(address,uint128,uint64)":"dcb71f3f","depositToAave()":"06197c1c","depositToCompound()":"1b851134","externalProtocolDepositCount()":"94420dfe","getBalanceInTreasury()":"0f274495","getBorrowing(address,uint64)":"4d5c56a5","getInterestForCompoundDeposit(uint64)":"8ca8fddd","increaseExternalProtocolCount()":"dc64177c","noOfBorrowers()":"45aeb0ce","owner()":"8da5cb5b","protocolDeposit(uint8)":"bdceaba2","renounceOwnership()":"715018a6","setBorrowingContract(address)":"78fdaf3f","totalInterest()":"bc7a36d6","totalInterestFromExternalProtocol(address,uint64)":"e9aeb2a8","totalInterestFromLiquidation()":"394612a1","totalVolumeOfBorrowersAmountinUSD()":"541b6094","totalVolumeOfBorrowersAmountinWei()":"9a52aed9","transferEthToCdsLiquidators(address,uint128)":"5822b66d","transferOwnership(address)":"f2fde38b","trinity()":"509aac34","updateDepositDetails(address,uint64,(uint64,uint128,uint64,uint128,uint128,uint128,uint8,bool,uint128,bool,uint64,uint64,uint128,uint64,uint64))":"f19aca57","updateHasBorrowed(address,bool)":"b9127c5c","updateTotalBorrowedAmount(address,uint256)":"1cd081b2","updateTotalDepositedAmount(address,uint128)":"6cd4ddbc","updateTotalInterest(uint256)":"b9a221eb","updateTotalInterestFromLiquidation(uint256)":"23f1059c","updateTotalPTokensDecrease(address,uint128)":"3b7566fc","updateTotalPTokensIncrease(address,uint128)":"ef0d5dc1","usdt()":"2f48ab7d","wethGateway()":"c5e10eef","withdraw(address,address,uint256,uint64,uint64)":"fe6520ae","withdrawFromAave(uint64)":"37672410","withdrawFromCompound(uint64)":"0ddec572","withdrawInterest(address,uint256)":"5b730e69"},"id":1}