{"abi":[{"type":"constructor","inputs":[{"name":"_borrowing","type":"address","internalType":"address"},{"name":"_tokenAddress","type":"address","internalType":"address"},{"name":"_cdsContract","type":"address","internalType":"address"},{"name":"_wethGateway","type":"address","internalType":"address"},{"name":"_cEther","type":"address","internalType":"address"},{"name":"_aavePoolAddressProvider","type":"address","internalType":"address"},{"name":"_aToken","type":"address","internalType":"address"},{"name":"_usdt","type":"address","internalType":"address"}],"stateMutability":"nonpayable"},{"type":"receive","stateMutability":"payable"},{"type":"function","name":"aToken","inputs":[],"outputs":[{"name":"","type":"address","internalType":"contract IATOKEN"}],"stateMutability":"view"},{"type":"function","name":"aavePoolAddressProvider","inputs":[],"outputs":[{"name":"","type":"address","internalType":"contract IPoolAddressesProvider"}],"stateMutability":"view"},{"type":"function","name":"aaveWETH","inputs":[],"outputs":[{"name":"","type":"address","internalType":"address"}],"stateMutability":"view"},{"type":"function","name":"approveAmint","inputs":[{"name":"_address","type":"address","internalType":"address"},{"name":"_amount","type":"uint256","internalType":"uint256"}],"outputs":[],"stateMutability":"nonpayable"},{"type":"function","name":"approveUsdt","inputs":[{"name":"_address","type":"address","internalType":"address"},{"name":"_amount","type":"uint256","internalType":"uint256"}],"outputs":[],"stateMutability":"nonpayable"},{"type":"function","name":"borrow","inputs":[],"outputs":[{"name":"","type":"address","internalType":"contract IBorrowing"}],"stateMutability":"view"},{"type":"function","name":"borrowing","inputs":[{"name":"depositor","type":"address","internalType":"address"}],"outputs":[{"name":"depositedAmount","type":"uint256","internalType":"uint256"},{"name":"totalBorrowedAmount","type":"uint256","internalType":"uint256"},{"name":"hasBorrowed","type":"bool","internalType":"bool"},{"name":"hasDeposited","type":"bool","internalType":"bool"},{"name":"borrowerIndex","type":"uint64","internalType":"uint64"},{"name":"totalPTokens","type":"uint128","internalType":"uint128"}],"stateMutability":"view"},{"type":"function","name":"borrowingContract","inputs":[],"outputs":[{"name":"","type":"address","internalType":"address"}],"stateMutability":"view"},{"type":"function","name":"cEther","inputs":[],"outputs":[{"name":"","type":"address","internalType":"contract ICEther"}],"stateMutability":"view"},{"type":"function","name":"calculateInterestForDepositAave","inputs":[{"name":"count","type":"uint64","internalType":"uint64"}],"outputs":[{"name":"","type":"uint256","internalType":"uint256"}],"stateMutability":"view"},{"type":"function","name":"cdsContract","inputs":[],"outputs":[{"name":"","type":"address","internalType":"address"}],"stateMutability":"view"},{"type":"function","name":"compoundAddress","inputs":[],"outputs":[{"name":"","type":"address","internalType":"address"}],"stateMutability":"view"},{"type":"function","name":"deposit","inputs":[{"name":"user","type":"address","internalType":"address"},{"name":"_ethPrice","type":"uint128","internalType":"uint128"},{"name":"_depositTime","type":"uint64","internalType":"uint64"}],"outputs":[{"name":"","type":"bool","internalType":"bool"},{"name":"","type":"uint64","internalType":"uint64"}],"stateMutability":"payable"},{"type":"function","name":"depositToAave","inputs":[],"outputs":[],"stateMutability":"nonpayable"},{"type":"function","name":"depositToCompound","inputs":[],"outputs":[],"stateMutability":"nonpayable"},{"type":"function","name":"externalProtocolDepositCount","inputs":[],"outputs":[{"name":"","type":"uint64","internalType":"uint64"}],"stateMutability":"view"},{"type":"function","name":"getBalanceInTreasury","inputs":[],"outputs":[{"name":"","type":"uint256","internalType":"uint256"}],"stateMutability":"view"},{"type":"function","name":"getBorrowing","inputs":[{"name":"depositor","type":"address","internalType":"address"},{"name":"index","type":"uint64","internalType":"uint64"}],"outputs":[{"name":"","type":"uint64","internalType":"uint64"},{"name":"","type":"tuple","internalType":"struct Treasury.DepositDetails","components":[{"name":"depositedTime","type":"uint64","internalType":"uint64"},{"name":"depositedAmount","type":"uint128","internalType":"uint128"},{"name":"downsidePercentage","type":"uint64","internalType":"uint64"},{"name":"ethPriceAtDeposit","type":"uint128","internalType":"uint128"},{"name":"borrowedAmount","type":"uint128","internalType":"uint128"},{"name":"normalizedAmount","type":"uint128","internalType":"uint128"},{"name":"withdrawNo","type":"uint8","internalType":"uint8"},{"name":"withdrawed","type":"bool","internalType":"bool"},{"name":"withdrawAmount","type":"uint128","internalType":"uint128"},{"name":"liquidated","type":"bool","internalType":"bool"},{"name":"ethPriceAtWithdraw","type":"uint64","internalType":"uint64"},{"name":"withdrawTime","type":"uint64","internalType":"uint64"},{"name":"pTokensAmount","type":"uint128","internalType":"uint128"},{"name":"strikePrice","type":"uint64","internalType":"uint64"},{"name":"optionFees","type":"uint128","internalType":"uint128"},{"name":"externalProtocolCount","type":"uint64","internalType":"uint64"},{"name":"discountedPrice","type":"uint256","internalType":"uint256"},{"name":"cTokensCredited","type":"uint128","internalType":"uint128"}]}],"stateMutability":"view"},{"type":"function","name":"getInterestForCompoundDeposit","inputs":[{"name":"depositor","type":"address","internalType":"address"},{"name":"index","type":"uint64","internalType":"uint64"}],"outputs":[{"name":"","type":"uint256","internalType":"uint256"}],"stateMutability":"nonpayable"},{"type":"function","name":"increaseExternalProtocolCount","inputs":[],"outputs":[],"stateMutability":"nonpayable"},{"type":"function","name":"noOfBorrowers","inputs":[],"outputs":[{"name":"","type":"uint128","internalType":"uint128"}],"stateMutability":"view"},{"type":"function","name":"owner","inputs":[],"outputs":[{"name":"","type":"address","internalType":"address"}],"stateMutability":"view"},{"type":"function","name":"protocolDeposit","inputs":[{"name":"","type":"uint8","internalType":"enum Treasury.Protocol"}],"outputs":[{"name":"depositIndex","type":"uint64","internalType":"uint64"},{"name":"depositedAmount","type":"uint256","internalType":"uint256"},{"name":"totalCreditedTokens","type":"uint256","internalType":"uint256"},{"name":"depositedUsdValue","type":"uint256","internalType":"uint256"},{"name":"cumulativeRate","type":"uint256","internalType":"uint256"}],"stateMutability":"view"},{"type":"function","name":"renounceOwnership","inputs":[],"outputs":[],"stateMutability":"nonpayable"},{"type":"function","name":"setBorrowingContract","inputs":[{"name":"_address","type":"address","internalType":"address"}],"outputs":[],"stateMutability":"nonpayable"},{"type":"function","name":"totalInterest","inputs":[],"outputs":[{"name":"","type":"uint256","internalType":"uint256"}],"stateMutability":"view"},{"type":"function","name":"totalInterestFromExternalProtocol","inputs":[{"name":"depositor","type":"address","internalType":"address"},{"name":"index","type":"uint64","internalType":"uint64"}],"outputs":[{"name":"","type":"uint256","internalType":"uint256"}],"stateMutability":"view"},{"type":"function","name":"totalInterestFromLiquidation","inputs":[],"outputs":[{"name":"","type":"uint256","internalType":"uint256"}],"stateMutability":"view"},{"type":"function","name":"totalVolumeOfBorrowersAmountinUSD","inputs":[],"outputs":[{"name":"","type":"uint256","internalType":"uint256"}],"stateMutability":"view"},{"type":"function","name":"totalVolumeOfBorrowersAmountinWei","inputs":[],"outputs":[{"name":"","type":"uint256","internalType":"uint256"}],"stateMutability":"view"},{"type":"function","name":"transferEthToCdsLiquidators","inputs":[{"name":"borrower","type":"address","internalType":"address"},{"name":"amount","type":"uint128","internalType":"uint128"}],"outputs":[],"stateMutability":"nonpayable"},{"type":"function","name":"transferOwnership","inputs":[{"name":"newOwner","type":"address","internalType":"address"}],"outputs":[],"stateMutability":"nonpayable"},{"type":"function","name":"trinity","inputs":[],"outputs":[{"name":"","type":"address","internalType":"contract ITrinityToken"}],"stateMutability":"view"},{"type":"function","name":"updateDepositDetails","inputs":[{"name":"depositor","type":"address","internalType":"address"},{"name":"index","type":"uint64","internalType":"uint64"},{"name":"depositDetail","type":"tuple","internalType":"struct Treasury.DepositDetails","components":[{"name":"depositedTime","type":"uint64","internalType":"uint64"},{"name":"depositedAmount","type":"uint128","internalType":"uint128"},{"name":"downsidePercentage","type":"uint64","internalType":"uint64"},{"name":"ethPriceAtDeposit","type":"uint128","internalType":"uint128"},{"name":"borrowedAmount","type":"uint128","internalType":"uint128"},{"name":"normalizedAmount","type":"uint128","internalType":"uint128"},{"name":"withdrawNo","type":"uint8","internalType":"uint8"},{"name":"withdrawed","type":"bool","internalType":"bool"},{"name":"withdrawAmount","type":"uint128","internalType":"uint128"},{"name":"liquidated","type":"bool","internalType":"bool"},{"name":"ethPriceAtWithdraw","type":"uint64","internalType":"uint64"},{"name":"withdrawTime","type":"uint64","internalType":"uint64"},{"name":"pTokensAmount","type":"uint128","internalType":"uint128"},{"name":"strikePrice","type":"uint64","internalType":"uint64"},{"name":"optionFees","type":"uint128","internalType":"uint128"},{"name":"externalProtocolCount","type":"uint64","internalType":"uint64"},{"name":"discountedPrice","type":"uint256","internalType":"uint256"},{"name":"cTokensCredited","type":"uint128","internalType":"uint128"}]}],"outputs":[],"stateMutability":"nonpayable"},{"type":"function","name":"updateHasBorrowed","inputs":[{"name":"borrower","type":"address","internalType":"address"},{"name":"_bool","type":"bool","internalType":"bool"}],"outputs":[],"stateMutability":"nonpayable"},{"type":"function","name":"updateTotalBorrowedAmount","inputs":[{"name":"borrower","type":"address","internalType":"address"},{"name":"amount","type":"uint256","internalType":"uint256"}],"outputs":[],"stateMutability":"nonpayable"},{"type":"function","name":"updateTotalDepositedAmount","inputs":[{"name":"borrower","type":"address","internalType":"address"},{"name":"amount","type":"uint128","internalType":"uint128"}],"outputs":[],"stateMutability":"nonpayable"},{"type":"function","name":"updateTotalInterest","inputs":[{"name":"_amount","type":"uint256","internalType":"uint256"}],"outputs":[],"stateMutability":"nonpayable"},{"type":"function","name":"updateTotalInterestFromLiquidation","inputs":[{"name":"_amount","type":"uint256","internalType":"uint256"}],"outputs":[],"stateMutability":"nonpayable"},{"type":"function","name":"updateTotalPTokensDecrease","inputs":[{"name":"borrower","type":"address","internalType":"address"},{"name":"amount","type":"uint128","internalType":"uint128"}],"outputs":[],"stateMutability":"nonpayable"},{"type":"function","name":"updateTotalPTokensIncrease","inputs":[{"name":"borrower","type":"address","internalType":"address"},{"name":"amount","type":"uint128","internalType":"uint128"}],"outputs":[],"stateMutability":"nonpayable"},{"type":"function","name":"usdt","inputs":[],"outputs":[{"name":"","type":"address","internalType":"contract IERC20"}],"stateMutability":"view"},{"type":"function","name":"wethGateway","inputs":[],"outputs":[{"name":"","type":"address","internalType":"contract IWrappedTokenGatewayV3"}],"stateMutability":"view"},{"type":"function","name":"withdraw","inputs":[{"name":"borrower","type":"address","internalType":"address"},{"name":"toAddress","type":"address","internalType":"address"},{"name":"_amount","type":"uint256","internalType":"uint256"},{"name":"index","type":"uint64","internalType":"uint64"},{"name":"_ethPrice","type":"uint64","internalType":"uint64"}],"outputs":[{"name":"","type":"bool","internalType":"bool"}],"stateMutability":"nonpayable"},{"type":"function","name":"withdrawFromAave","inputs":[{"name":"index","type":"uint64","internalType":"uint64"}],"outputs":[],"stateMutability":"nonpayable"},{"type":"function","name":"withdrawFromCompound","inputs":[{"name":"index","type":"uint64","internalType":"uint64"}],"outputs":[],"stateMutability":"nonpayable"},{"type":"function","name":"withdrawInterest","inputs":[{"name":"toAddress","type":"address","internalType":"address"},{"name":"amount","type":"uint256","internalType":"uint256"}],"outputs":[],"stateMutability":"nonpayable"},{"type":"event","name":"Deposit","inputs":[{"name":"user","type":"address","indexed":true,"internalType":"address"},{"name":"amount","type":"uint256","indexed":false,"internalType":"uint256"}],"anonymous":false},{"type":"event","name":"DepositToAave","inputs":[{"name":"count","type":"uint64","indexed":false,"internalType":"uint64"},{"name":"amount","type":"uint256","indexed":false,"internalType":"uint256"}],"anonymous":false},{"type":"event","name":"DepositToCompound","inputs":[{"name":"count","type":"uint64","indexed":false,"internalType":"uint64"},{"name":"amount","type":"uint256","indexed":false,"internalType":"uint256"}],"anonymous":false},{"type":"event","name":"OwnershipTransferred","inputs":[{"name":"previousOwner","type":"address","indexed":true,"internalType":"address"},{"name":"newOwner","type":"address","indexed":true,"internalType":"address"}],"anonymous":false},{"type":"event","name":"Withdraw","inputs":[{"name":"user","type":"address","indexed":true,"internalType":"address"},{"name":"amount","type":"uint256","indexed":false,"internalType":"uint256"}],"anonymous":false},{"type":"event","name":"WithdrawFromAave","inputs":[{"name":"count","type":"uint64","indexed":false,"internalType":"uint64"},{"name":"amount","type":"uint256","indexed":false,"internalType":"uint256"}],"anonymous":false},{"type":"event","name":"WithdrawFromCompound","inputs":[{"name":"count","type":"uint64","indexed":false,"internalType":"uint64"},{"name":"amount","type":"uint256","indexed":false,"internalType":"uint256"}],"anonymous":false},{"type":"error","name":"Treasury_AaveDepositAndMintFailed","inputs":[]},{"type":"error","name":"Treasury_AavePoolAddressZero","inputs":[]},{"type":"error","name":"Treasury_AaveWithdrawFailed","inputs":[]},{"type":"error","name":"Treasury_CompoundDepositAndMintFailed","inputs":[]},{"type":"error","name":"Treasury_CompoundWithdrawFailed","inputs":[]},{"type":"error","name":"Treasury_EthTransferToCdsLiquidatorFailed","inputs":[]},{"type":"error","name":"Treasury_ZeroDeposit","inputs":[]},{"type":"error","name":"Treasury_ZeroWithdraw","inputs":[]}],"bytecode":{"object":"0x6080604052601380546001600160401b0319166001179055670de0b6b3a76400006014556b033b2e3c9fd0803ce80000006015553480156200004057600080fd5b50604051620054453803806200544583398101604081905262000063916200018c565b6200006e336200011f565b600880546001600160a01b03199081166001600160a01b039a8b16908117909255600980548216988b169890981790975560018054881690911790556002805487169789169790971790965560038054861694881694851790556007805486169388169384179055600a80548616909317909255600480548516918716919091179055600680548416918616919091179055600b805483169091179055600580549091169190921617905562000234565b600080546001600160a01b038381166001600160a01b0319831681178455604051919092169283917f8be0079c531659141344cd1fd0a4f28419497f9722a3daafe3b4186f6b6457e09190a35050565b80516001600160a01b03811681146200018757600080fd5b919050565b600080600080600080600080610100898b031215620001aa57600080fd5b620001b5896200016f565b9750620001c560208a016200016f565b9650620001d560408a016200016f565b9550620001e560608a016200016f565b9450620001f560808a016200016f565b93506200020560a08a016200016f565b92506200021560c08a016200016f565b91506200022560e08a016200016f565b90509295985092959890939650565b61520180620002446000396000f3fe60806040526004361061028c5760003560e01c80638da5cb5b1161015a578063dc64177c116100c1578063ef0d5dc11161007a578063ef0d5dc114610bed578063f2fde38b14610c0d578063f750d07d14610c2d578063f750e3ab14610c4d578063fe6520ae14610cfe578063ff2d7dc614610d2e57600080fd5b8063dc64177c14610b26578063dcb71f3f14610b3b578063e00bdec414610b6d578063e613610514610b8d578063e68d356914610bad578063e9aeb2a814610bcd57600080fd5b8063bc497a8211610113578063bc497a821461084f578063bc7a36d61461086f578063bdceaba214610885578063bfc007141461090e578063c5e10eef1461092e578063d61038231461094e57600080fd5b80638da5cb5b1461075a57806394420dfe146107785780639a52aed9146107b0578063a0c1f15e146107c6578063b9127c5c146107e6578063b9a221eb1461082f57600080fd5b8063394612a1116101fe5780635822b66d116101b75780635822b66d146106a55780635b730e69146106c55780636cd4ddbc146106e5578063715018a61461070557806378fdaf3f1461071a57806384a965ed1461073a57600080fd5b8063394612a1146103fe5780633b7566fc1461041457806345aeb0ce146104345780634d5c56a51461046c578063509aac341461066f578063541b60941461068f57600080fd5b80631cd081b2116102505780631cd081b21461033e57806323f1059c1461035e57806325375dd51461037e5780632b7f56941461039e5780632f48ab7d146103be57806337672410146103de57600080fd5b806306197c1c146102985780630ddec572146102af5780630f274495146102cf57806319b68c00146102f15780631b8511341461032957600080fd5b3661029357005b600080fd5b3480156102a457600080fd5b506102ad610d4e565b005b3480156102bb57600080fd5b506102ad6102ca36600461482e565b611473565b3480156102db57600080fd5b50475b6040519081526020015b60405180910390f35b3480156102fd57600080fd5b50600754610311906001600160a01b031681565b6040516001600160a01b0390911681526020016102e8565b34801561033557600080fd5b506102ad6118d5565b34801561034a57600080fd5b506102ad610359366004614865565b611d7d565b34801561036a57600080fd5b506102ad610379366004614891565b611db1565b34801561038a57600080fd5b50600454610311906001600160a01b031681565b3480156103aa57600080fd5b506102ad6103b9366004614865565b611dcb565b3480156103ca57600080fd5b50600554610311906001600160a01b031681565b3480156103ea57600080fd5b506102ad6103f936600461482e565b611f56565b34801561040a57600080fd5b506102de60125481565b34801561042057600080fd5b506102ad61042f3660046148c1565b61260f565b34801561044057600080fd5b50601054610454906001600160801b031681565b6040516001600160801b0390911681526020016102e8565b34801561047857600080fd5b506106616104873660046148f6565b6040805161024081018252600080825260208201819052918101829052606081018290526080810182905260a0810182905260c0810182905260e08101829052610100810182905261012081018290526101408101829052610160810182905261018081018290526101a081018290526101c081018290526101e081018290526102008101829052610220810182905250506001600160a01b03919091166000908152600c602090815260408083206003808201546001600160401b039687168652600192830185529483902083516102408101855281548089168252600160401b8082046001600160801b0390811698840198909852600160c01b918290048a1696830196909652938201548087166060830152600160801b9081900487166080830152600283015480881660a084015281810460ff90811660c0850152600160881b918290048116151560e08501529484015480891661010085015282810490951615156101208401529093048816610140820152600482015480891661016083015294850486166101808201529290930486166101a083015260058301548085166101c08401520485166101e082015260068201546102008201526007909101549091166102208201526201000090910490911691565b6040516102e8929190614922565b34801561067b57600080fd5b50600254610311906001600160a01b031681565b34801561069b57600080fd5b506102de600f5481565b3480156106b157600080fd5b506102ad6106c03660046148c1565b612675565b3480156106d157600080fd5b506102ad6106e0366004614865565b61271c565b3480156106f157600080fd5b506102ad6107003660046148c1565b612880565b34801561071157600080fd5b506102ad6128b1565b34801561072657600080fd5b506102ad610735366004614acc565b6128c5565b34801561074657600080fd5b50600854610311906001600160a01b031681565b34801561076657600080fd5b506000546001600160a01b0316610311565b34801561078457600080fd5b50601354610798906001600160401b031681565b6040516001600160401b0390911681526020016102e8565b3480156107bc57600080fd5b506102de600e5481565b3480156107d257600080fd5b50600654610311906001600160a01b031681565b3480156107f257600080fd5b506102ad610801366004614b02565b6001600160a01b03919091166000908152600c60205260409020600301805460ff1916911515919091179055565b34801561083b57600080fd5b506102ad61084a366004614891565b612966565b34801561085b57600080fd5b50600954610311906001600160a01b031681565b34801561087b57600080fd5b506102de60115481565b34801561089157600080fd5b506108dc6108a0366004614b3b565b600d60205260009081526040902060018101546002820154600383015460048401546005909401546001600160401b0390931693919290919085565b604080516001600160401b0390961686526020860194909452928401919091526060830152608082015260a0016102e8565b34801561091a57600080fd5b50600a54610311906001600160a01b031681565b34801561093a57600080fd5b50600354610311906001600160a01b031681565b34801561095a57600080fd5b506102ad610969366004614ba4565b6001600160a01b03929092166000908152600c602090815260408083206001600160401b03948516845260019081018352928190208551815493870151928701519086166001600160c01b031994851617600160401b6001600160801b039485168102919091176001600160c01b03908116600160c01b9389168402178455606089015160808a0151908616600160801b9187168202179785019790975560a089015160028501805460c08c015160e08d015193891670ffffffffffffffffffffffffffffffffff199283161760ff9091168b021760ff60881b1916600160881b9315158402179091556101008b01516003870180546101208e01516101408f0151938b1691909416179215158b029290921767ffffffffffffffff60881b1916908b169092029190911790556101608901516004850180546101808c01516101a08d0151938c16918a1691909117908816909402939093179091169088169092029190911790556101c08601516005820180546101e08901519285169516949094179516909302939093179055610200830151600682015561022090920151600790920180546001600160801b03191692909116919091179055565b348015610b3257600080fd5b506102ad612978565b610b4e610b49366004614d3f565b6129f5565b6040805192151583526001600160401b039091166020830152016102e8565b348015610b7957600080fd5b506102de610b883660046148f6565b612dff565b348015610b9957600080fd5b506102ad610ba8366004614865565b612ffa565b348015610bb957600080fd5b50600154610311906001600160a01b031681565b348015610bd957600080fd5b506102de610be83660046148f6565b613091565b348015610bf957600080fd5b506102ad610c083660046148c1565b613588565b348015610c1957600080fd5b506102ad610c28366004614acc565b6135c6565b348015610c3957600080fd5b50600b54610311906001600160a01b031681565b348015610c5957600080fd5b50610cb8610c68366004614acc565b600c6020526000908152604090208054600282015460039092015490919060ff808216916101008104909116906201000081046001600160401b031690600160501b90046001600160801b031686565b60408051968752602087019590955292151593850193909352151560608401526001600160401b0390911660808301526001600160801b031660a082015260c0016102e8565b348015610d0a57600080fd5b50610d1e610d19366004614d84565b61363f565b60405190151581526020016102e8565b348015610d3a57600080fd5b506102de610d4936600461482e565b613ac0565b6008546001600160a01b03163314610d815760405162461bcd60e51b8152600401610d7890614de6565b60405180910390fd5b6013546001600160401b0316600090815260166020526040812054606490610daa906032614e4f565b610db49190614e7c565b905080600003610dd75760405163371c51e160e11b815260040160405180910390fd5b6000600460009054906101000a90046001600160a01b03166001600160a01b031663026b1d5f6040518163ffffffff1660e01b8152600401602060405180830381865afa158015610e2c573d6000803e3d6000fd5b505050506040513d601f19601f82011682018060405250810190610e509190614e90565b90506001600160a01b038116610e7957604051630a20c02560e21b815260040160405180910390fd5b6006546040516370a0823160e01b81523060048201526000916001600160a01b0316906370a0823190602401602060405180830381865afa158015610ec2573d6000803e3d6000fd5b505050506040513d601f19601f82011682018060405250810190610ee69190614ead565b60035460405163474cf53d60e01b81526001600160a01b0385811660048301523060248301526000604483015292935091169063474cf53d9085906064016000604051808303818588803b158015610f3d57600080fd5b505af1158015610f51573d6000803e3d6000fd5b50506006546040516370a0823160e01b8152306004820152600094506001600160a01b0390911692506370a082319150602401602060405180830381865afa158015610fa1573d6000803e3d6000fd5b505050506040513d601f19601f82011682018060405250810190610fc59190614ead565b60008052600d6020526000805160206151ac83398151915254909150810361100057604051636b39e0e560e01b815260040160405180910390fd5b60008052600d6020526000805160206150ec833981519152546001600160401b031661102d600182614edc565b601380549192506001600160401b0390911690600061104b83614f03565b91906101000a8154816001600160401b0302191690836001600160401b0316021790555050806001600160401b03166001148061109e575060008052600d6020526000805160206151ac83398151915254155b156110c45760155460008052600d60205260008051602061516c83398151915255611158565b6000808052600d6020526000805160206151ac833981519152546015546110eb8287614f29565b6110f59190614e4f565b6110ff9190614e7c565b60155460008052600d60205260008051602061516c83398151915254919250906111298383614f3c565b6111339190614e4f565b61113d9190614e7c565b60008052600d60205260008051602061516c83398151915255505b60008052600d60205260008051602061516c8339815191525460155461117e9087614e4f565b6111889190614e7c565b6001600160401b038216600081815260008051602061518c83398151915260209081526040822060070193909355808052600d9092526000805160206150ec833981519152805467ffffffffffffffff191690911790557f81955a0a11e65eac625c29e8882660bae4e165a75d72780094acae8ece9a29f08054879290611210908490614f3c565b90915550506001600160401b03818116600090815260008051602061518c8339815191526020908152604080832080546001600160c01b0319164290951694909417600160401b6001600160801b038b16021790935560015483516350593af760e01b8152935192936001600160a01b03909116926350593af7926004808401939192918290030181865afa1580156112ad573d6000803e3d6000fd5b505050506040513d601f19601f820116820180604052508101906112d19190614ead565b6001600160401b038316600090815260008051602061518c8339815191526020526040902060010180546001600160801b0319166001600160801b0383169081179091559091506113229087614e4f565b6001600160401b038316600090815260008051602061518c833981519152602090815260408220600201929092558052600d90527f81955a0a11e65eac625c29e8882660bae4e165a75d72780094acae8ece9a29f05461138c906001600160801b03831690614e4f565b60008052600d6020527f81955a0a11e65eac625c29e8882660bae4e165a75d72780094acae8ece9a29f2556000805160206151ac833981519152546113d19084614f4f565b6001600160401b038316600081815260008051602061518c8339815191526020908152604080832060030180546001600160801b0319166001600160801b039690961695909517909455908052600d81526000805160206151ac8339815191528690558251918252810188905281517fbab03e271351d865ca59323a9224d2c6e0826b7e61b0716daa4f92f16e5c7761929181900390910190a1505050505050565b6008546001600160a01b0316331461149d5760405162461bcd60e51b8152600401610d7890614de6565b6001600160401b038116600090815260008051602061514c83398151915260205260409020600301546001600160801b03811690600160801b900460ff16156115285760405162461bcd60e51b815260206004820181905260248201527f416c7265616479207769746864726177656420696e207468697320696e6465786044820152606401610d78565b8060000361154957604051633c54b6a360e11b815260040160405180910390fd5b60075460405163db006a7560e01b8152600481018390526001600160a01b039091169063db006a75906024016020604051808303816000875af1158015611594573d6000803e3d6000fd5b505050506040513d601f19601f820116820180604052508101906115b89190614ead565b506007546040516370a0823160e01b81523060048201526000916001600160a01b0316906370a0823190602401602060405180830381865afa158015611602573d6000803e3d6000fd5b505050506040513d601f19601f820116820180604052508101906116269190614ead565b6001600052600d60205260008051602061510c83398151915254909150810361166257604051630f8bab4760e01b815260040160405180910390fd5b60016000908152600d60205260008051602061512c833981519152805484929061168d908490614f29565b90915550506001600160401b03838116600090815260008051602061514c8339815191526020908152604080832060038101805460ff60801b1916600160801b9081179091556004918201805467ffffffffffffffff60801b1916429097169091029590951790945560015481516350593af760e01b8152915193946001600160a01b03909116936350593af793838301939092908290030181865afa15801561173b573d6000803e3d6000fd5b505050506040513d601f19601f8201168201806040525081019061175f9190614ead565b6001600160401b038516600090815260008051602061514c8339815191526020526040902060040180546001600160801b0319166001600160801b0383169081179091559091506117b09084614e4f565b6001600160401b038516600090815260008051602061514c8339815191526020908152604082206005019290925560019052600d905260008051602061512c8339815191525461180a906001600160801b03831690614e4f565b60016000908152600d6020527ffd54ff1ed53f34a900b24c5ba64f85761163b5d82d98a47b9bd80e45466993c99190915560008051602061510c833981519152805485929061185a908490614f29565b90915550506001600160401b038416600081815260008051602061514c833981519152602090815260409182902060030180546001600160801b0319169055815192835282018590527f7947802835fbf722d45a3c84bbefbe958e96c1647668d9db89cb77314688250491015b60405180910390a150505050565b6008546001600160a01b031633146118ff5760405162461bcd60e51b8152600401610d7890614de6565b6013546000906064906016908390611922906001906001600160401b0316614f6f565b6001600160401b031681526020019081526020016000205460326119469190614e4f565b6119509190614e7c565b9050806000036119735760405163371c51e160e11b815260040160405180910390fd5b600760009054906101000a90046001600160a01b03166001600160a01b0316631249c58b826040518263ffffffff1660e01b81526004016000604051808303818588803b1580156119c357600080fd5b505af11580156119d7573d6000803e3d6000fd5b50506007546040516370a0823160e01b8152306004820152600094506001600160a01b0390911692506370a082319150602401602060405180830381865afa158015611a27573d6000803e3d6000fd5b505050506040513d601f19601f82011682018060405250810190611a4b9190614ead565b6001600052600d60205260008051602061510c833981519152549091508103611a8757604051631c14f52f60e21b815260040160405180910390fd5b60016000819052600d6020527ffd54ff1ed53f34a900b24c5ba64f85761163b5d82d98a47b9bd80e45466993c6546001600160401b031690611ac99082614edc565b60016000908152600d6020527ffd54ff1ed53f34a900b24c5ba64f85761163b5d82d98a47b9bd80e45466993c6805467ffffffffffffffff19166001600160401b03841617905560008051602061512c83398151915280549293508592909190611b34908490614f3c565b90915550506001600160401b03818116600090815260008051602061514c8339815191526020908152604080832080546001600160c01b0319164290951694909417600160401b6001600160801b038916021790935560015483516350593af760e01b8152935192936001600160a01b03909116926350593af7926004808401939192918290030181865afa158015611bd1573d6000803e3d6000fd5b505050506040513d601f19601f82011682018060405250810190611bf59190614ead565b6001600160401b038316600090815260008051602061514c8339815191526020526040902060010180546001600160801b0319166001600160801b038316908117909155909150611c469085614e4f565b6001600160401b038316600090815260008051602061514c8339815191526020908152604082206002019290925560019052600d905260008051602061512c83398151915254611ca0906001600160801b03831690614e4f565b6001600052600d6020527ffd54ff1ed53f34a900b24c5ba64f85761163b5d82d98a47b9bd80e45466993c95560008051602061510c83398151915254611ce69084614f4f565b6001600160401b038316600081815260008051602061514c8339815191526020908152604080832060030180546001600160801b0319166001600160801b0396909616959095179094556001909152600d815260008051602061510c833981519152869055825191825281018690527fed55c0f11575257f860976702211fd0107cbdad286e90fd3d9ad6c1d604b8cc591016118c7565b6001600160a01b0382166000908152600c602052604081206002018054839290611da8908490614f3c565b90915550505050565b8060126000828254611dc39190614f3c565b909155505050565b6009546001600160a01b0316331480611dee57506008546001600160a01b031633145b611e605760405162461bcd60e51b815260206004820152603a60248201527f546869732066756e6374696f6e2063616e206f6e6c792063616c6c656420627960448201527f20426f72726f77696e67206f722043445320636f6e74726163740000000000006064820152608401610d78565b6001600160a01b03821615801590611e7757508015155b611e935760405162461bcd60e51b8152600401610d7890614f8f565b60025460405163095ea7b360e01b81526001600160a01b03848116600483015260248201849052600092169063095ea7b3906044015b6020604051808303816000875af1158015611ee8573d6000803e3d6000fd5b505050506040513d601f19601f82011682018060405250810190611f0c9190614fd1565b9050600181151514611f515760405162461bcd60e51b815260206004820152600e60248201526d105c1c1c9bdd994819985a5b195960921b6044820152606401610d78565b505050565b6008546001600160a01b03163314611f805760405162461bcd60e51b8152600401610d7890614de6565b6001600160401b038116600090815260008051602061518c8339815191526020526040902060030154600160801b900460ff16156120005760405162461bcd60e51b815260206004820181905260248201527f416c7265616479207769746864726177656420696e207468697320696e6465786044820152606401610d78565b6006546040516370a0823160e01b81523060048201526000916001600160a01b0316906370a0823190602401602060405180830381865afa158015612049573d6000803e3d6000fd5b505050506040513d601f19601f8201168201806040525081019061206d9190614ead565b6000808052600d6020526000805160206151ac8339815191525460155492935090916120998285614f29565b6120a39190614e4f565b6120ad9190614e7c565b6015546000808052600d60205260008051602061516c83398151915254929350916120d88483614f3c565b6120e29190614e4f565b6120ec9190614e7c565b60008051602061516c8339815191528190556015546001600160401b038616600090815260008051602061518c8339815191526020526040812060070154929350916121389084614e4f565b6121429190614e7c565b90506000600460009054906101000a90046001600160a01b03166001600160a01b031663026b1d5f6040518163ffffffff1660e01b8152600401602060405180830381865afa158015612199573d6000803e3d6000fd5b505050506040513d601f19601f820116820180604052508101906121bd9190614e90565b90506001600160a01b0381166121e657604051630a20c02560e21b815260040160405180910390fd5b600654600b5460405163095ea7b360e01b81526001600160a01b0391821660048201526024810185905291169063095ea7b3906044016020604051808303816000875af115801561223b573d6000803e3d6000fd5b505050506040513d601f19601f8201168201806040525081019061225f9190614fd1565b506001600160401b038616600090815260008051602061518c83398151915260205260409020546122a090600160401b90046001600160801b031683614f4f565b6001600160401b038716600090815260008051602061518c833981519152602052604080822060060180546001600160801b0319166001600160801b0394909416939093179092556003548251630402806960e51b81526001600160a01b03858116600483015260248201879052306044830152935193909116926380500d209260648084019391929182900301818387803b15801561233f57600080fd5b505af1158015612353573d6000803e3d6000fd5b50506006546040516370a0823160e01b8152306004820152600093506001600160a01b0390911691506370a0823190602401602060405180830381865afa1580156123a2573d6000803e3d6000fd5b505050506040513d601f19601f820116820180604052508101906123c69190614ead565b60008052600d6020526000805160206151ac8339815191525490915081036124005760405162bc94a760e31b815260040160405180910390fd5b6001600160401b03878116600090815260008051602061518c8339815191526020908152604080832060038101805460ff60801b1916600160801b9081179091556004918201805467ffffffffffffffff60801b1916429097169091029590951790945560015481516350593af760e01b8152915193946001600160a01b03909116936350593af793838301939092908290030181865afa1580156124a9573d6000803e3d6000fd5b505050506040513d601f19601f820116820180604052508101906124cd9190614ead565b6001600160401b03898116600090815260008051602061518c8339815191526020526040902060040180546001600160801b03191692909116918217905590506125178185614e4f565b6001600160401b038916600090815260008051602061518c833981519152602090815260408220600501929092558052600d90527f81955a0a11e65eac625c29e8882660bae4e165a75d72780094acae8ece9a29f054612581906001600160801b03831690614e4f565b60008052600d60209081527f81955a0a11e65eac625c29e8882660bae4e165a75d72780094acae8ece9a29f2919091556000805160206151ac833981519152839055604080516001600160401b038b16815291820186905280517fb3e5c8a48c51608dcaa5fe045f1963964839d48a0d24e62e940fa0451db9015b9281900390910190a15050505050505050565b6001600160a01b0382166000908152600c602052604090206003018054829190600a9061264d908490600160501b90046001600160801b0316614f4f565b92506101000a8154816001600160801b0302191690836001600160801b031602179055505050565b6009546001600160a01b0316331461269f5760405162461bcd60e51b8152600401610d7890614fee565b6000826001600160a01b0316826001600160801b031660405160006040518083038185875af1925050503d80600081146126f5576040519150601f19603f3d011682016040523d82523d6000602084013e6126fa565b606091505b5050905080611f5157604051633243a0f360e21b815260040160405180910390fd5b612724613cc0565b6001600160a01b0382161580159061273b57508015155b6127575760405162461bcd60e51b8152600401610d7890614f8f565b6012546011546127679190614f3c565b8111156127c25760405162461bcd60e51b815260206004820152602360248201527f547265617375727920646f6e2774206861766520656e6f75676820696e746572604482015262195cdd60ea1b6064820152608401610d78565b60025460405163a9059cbb60e01b81526001600160a01b03848116600483015260248201849052600092169063a9059cbb906044016020604051808303816000875af1158015612816573d6000803e3d6000fd5b505050506040513d601f19601f8201168201806040525081019061283a9190614fd1565b905080611f515760405162461bcd60e51b81526020600482015260146024820152732330b4b632b2103a379039b2b7321022ba3432b960611b6044820152606401610d78565b6001600160a01b0382166000908152600c6020526040812080546001600160801b0384169290611da8908490614f29565b6128b9613cc0565b6128c36000613d1a565b565b6128cd613cc0565b6001600160a01b038116158015906128ee57506001600160a01b0381163b15155b61293a5760405162461bcd60e51b815260206004820152601860248201527f496e707574206164647265737320697320696e76616c696400000000000000006044820152606401610d78565b600880546001600160a01b039092166001600160a01b0319928316811790915560018054909216179055565b8060116000828254611dc39190614f3c565b600d6020526000805160206150ec8339815191525460016000527ffd54ff1ed53f34a900b24c5ba64f85761163b5d82d98a47b9bd80e45466993c6546001600160401b0391821691168181106129ce57806129d0565b815b6013805467ffffffffffffffff19166001600160401b03929092169190911790555050565b60085460009081906001600160a01b03163314612a245760405162461bcd60e51b8152600401610d7890614de6565b6001600160a01b0385166000908152600c6020526040812060030154610100900460ff16612ac157506001600160a01b0385166000908152600c60205260408120600301805469ffffffffffffffffff001916620101001790556010805460019290612a98906001600160801b031661503b565b91906101000a8154816001600160801b0302191690836001600160801b03160217905550612b1f565b6001600160a01b0386166000908152600c602052604090206003018054600290612af9906201000090046001600160401b0316614f03565b91906101000a8154816001600160401b0302191690836001600160401b03160217905590505b6001600160a01b0386166000908152600c602052604081208054349290612b47908490614f3c565b90915550506001600160a01b0386166000908152600c602090815260408083206001600160401b0385168452600101909152902080546001600160801b0334818116600160401b0277ffffffffffffffffffffffffffffffff00000000000000001990931692909217909255612bbe918716614e4f565b600f6000828254612bcf9190614f3c565b9250508190555034600e6000828254612be89190614f3c565b90915550506001600160a01b0386166000908152600c602090815260408083206001600160401b03858116855260019182019093529220805467ffffffffffffffff191687831617815591820180546001600160801b0319166001600160801b0389161790556013546005909201805467ffffffffffffffff60801b191692909116600160801b029190911790556064612c83346032614e4f565b612c8d9190614e7c565b6013546001600160401b031660009081526016602052604081208054909190612cb7908490614f3c565b90915550600090506064612ccc346019614e4f565b612cd69190614e7c565b9050612ce181613d6a565b60008052600d60205260008051602061516c83398151915254601554612d079083614e4f565b612d119190614e7c565b6001600160a01b0388166000908152600c602090815260408083206001600160401b0387168452600101909152902060060155612d4d81614061565b6001600160a01b0388166000818152600c602090815260408083206001600160401b038816845260010182529182902060070180546001600160801b0319166001600160801b0395909516949094179093555134815290917fe1fffcc4923d04b559f4d29a8bfc6cda04eb5b0d3c460751c2402c5c5cc9109c910160405180910390a2506001600160a01b03959095166000908152600c6020526040902060030154610100900460ff16959350505050565b6001600160a01b038281166000908152600c602090815260408083206001600160401b0386811685526001918201845282852083516102408101855281548084168252600160401b8082046001600160801b03908116848a0152600160c01b92839004861684890152958401548087166060850152600160801b9081900487166080850152600285015480881660a086015281810460ff90811660c0870152600160881b918290048116151560e08701526003870154808a16610100880152838104909116151561012087015204861661014085015260048086015480881661016087015292830488166101808601529290910485166101a084015260058401548087166101c0850152049093166101e0820152600682015461020082015260079182015490931661022084015254835163bd6d894d60e01b81529351959692958795919093169363bd6d894d93818401939091829003018187875af1158015612f6d573d6000803e3d6000fd5b505050506040513d601f19601f82011682018060405250810190612f919190614ead565b90506000601454828461022001516001600160801b0316612fb29190614e4f565b612fbc9190614e7c565b9050606483602001516019612fd19190615057565b612fdb9190615082565b612fee906001600160801b031682614f29565b93505050505b92915050565b6009546001600160a01b031633146130245760405162461bcd60e51b8152600401610d7890614fee565b6001600160a01b0382161580159061303b57508015155b6130575760405162461bcd60e51b8152600401610d7890614f8f565b60055460405163095ea7b360e01b81526001600160a01b03848116600483015260248201849052600092169063095ea7b390604401611ec9565b6001600160a01b0382166000908152600c602090815260408083206001600160401b0380861685526001909101909252822060050154600160801b90041681815b6013546001600160401b03908116908216101561357f576000600d81808152602080820192909252604090810160009081206001600160401b03868116835290845282822083516101608101855281548084168252600160401b90046001600160801b03908116968201969096526001808301548716958201959095526002820154606082015260038201548087166080830152600160801b9081900460ff16151560a0830152600483015480881660c08401520490921660e083015260058101546101008301526006810154909416610120820152600790930154610140840152919250600d9082908152602080820192909252604090810160009081206001600160401b0380881680845291855291839020835161016081018552815480851682526001600160801b03600160401b909104811696820196909652600180830154871695820195909552600282015460608201526003820154808716608083015260ff600160801b9182900416151560a0830152600483015480881660c08401520490931660e084015260058101546101008401526006810154909416610120830152600790930154610140820152925014806132d957506000808052600d60205260008051602061518c833981519152906132b1600186614f6f565b6001600160401b03168152602081019190915260400160002060030154600160801b900460ff165b156133fe576001600160401b038316600090815260166020526040812054606490613305906032614e4f565b61330f9190614e7c565b6001600160a01b038a166000908152600c602090815260408083206001600160401b038d1684526001019091528120549192509060649061336190600160401b90046001600160801b03166019615057565b61336b9190615082565b6001600160801b0316905060008460a00151156133a25761012085015161339b906001600160801b031682614f3c565b90506133b8565b6133ab86613ac0565b6133b59082614f3c565b90505b600083601454846133c99190614e4f565b6133d39190614e7c565b6014549091506133e38383614e4f565b6133ed9190614e7c565b6133f79089614f3c565b9750505050505b826001600160401b03166001148061345f575060016000818152600d60205260008051602061514c833981519152916134379086614f6f565b6001600160401b03168152602081019190915260400160002060030154600160801b900460ff165b1561356a576001600160401b03831660009081526016602052604081205460649061348b906032614e4f565b6134959190614e7c565b6001600160a01b038a166000908152600c602090815260408083206001600160401b038d168452600101909152812054919250906064906134e790600160401b90046001600160801b03166019615057565b6134f19190615082565b6001600160801b0316905060008360a001511561352457610120840151613521906001600160801b031682614f3c565b90505b600083601454846135359190614e4f565b61353f9190614e7c565b60145490915061354f8383614e4f565b6135599190614e7c565b6135639089614f3c565b9750505050505b5050808061357790614f03565b9150506130d2565b50949350505050565b6001600160a01b0382166000908152600c602052604090206003018054829190600a9061264d908490600160501b90046001600160801b03166150a8565b6135ce613cc0565b6001600160a01b0381166136335760405162461bcd60e51b815260206004820152602660248201527f4f776e61626c653a206e6577206f776e657220697320746865207a65726f206160448201526564647265737360d01b6064820152608401610d78565b61363c81613d1a565b50565b6008546000906001600160a01b0316331461366c5760405162461bcd60e51b8152600401610d7890614de6565b600084116136bc5760405162461bcd60e51b815260206004820152601a60248201527f43616e6e6f74207769746864726177207a65726f2045746865720000000000006044820152606401610d78565b6001600160a01b0386166000908152600c602090815260408083206001600160401b0387168452600101909152902060020154600160801b900460ff1661371f5760405162461bcd60e51b81526020600482015260006024820152604401610d78565b6001600160a01b0386166000908152600c602090815260408083206001600160401b03871684526001908101909252909120600201548591600160801b90910460ff1690036137ce576001600160a01b0387166000818152600c602081815260408084206001600160401b038a16855260018082018452918520909101549484529190526002018054600160801b9093046001600160801b0316929091906137c8908490614f29565b90915550505b6001600160a01b0387166000908152600c60205260408120549003613898576001600160a01b0387166000908152600c6020526040902054156138465760405162461bcd60e51b815260206004820152601060248201526f496e76616c696420576974686472617760801b6044820152606401610d78565b6138508785614189565b61385a87856145f7565b60108054600090613873906001600160801b03166150c8565b91906101000a8154816001600160801b0302191690836001600160801b031602179055505b6001600160a01b0387166000908152600c602090815260408083206001600160401b0388168452600101909152812060030180548392906138e39084906001600160801b03166150a8565b82546001600160801b039182166101009390930a9283029190920219909116179055506001546001600160a01b031663661b7d3e61392a836001600160401b038716614e4f565b6040518263ffffffff1660e01b815260040161394891815260200190565b600060405180830381600087803b15801561396257600080fd5b505af1158015613976573d6000803e3d6000fd5b5050505080836001600160401b031661398f9190614e4f565b600f60008282546139a09190614f29565b9250508190555080600e60008282546139b99190614f29565b909155506139c990508785612dff565b6139d39082614f3c565b90506000866001600160a01b03168260405160006040518083038185875af1925050503d8060008114613a22576040519150601f19603f3d011682016040523d82523d6000602084013e613a27565b606091505b5050905080613a6f5760405162461bcd60e51b81526020600482015260146024820152732330b4b632b2103a379039b2b7321022ba3432b960611b6044820152606401610d78565b866001600160a01b03167f884edad9ce6fa2440d8a54cc123490eb96d2768479d49ff9c7366125a942436487604051613aaa91815260200190565b60405180910390a2506001979650505050505050565b6000808052600d6020526000805160206150ec833981519152546001600160401b039081169083161180613afb57506001600160401b038216155b15613b415760405162461bcd60e51b8152602060048201526016602482015275125b9d985b1a590818dbdd5b9d081c1c9bdd9a59195960521b6044820152606401610d78565b6006546040516370a0823160e01b81523060048201526000916001600160a01b0316906370a0823190602401602060405180830381865afa158015613b8a573d6000803e3d6000fd5b505050506040513d601f19601f82011682018060405250810190613bae9190614ead565b6000808052600d6020526000805160206151ac833981519152546015549293509091613bda8285614f29565b613be49190614e4f565b613bee9190614e7c565b6015546000808052600d60205260008051602061516c8339815191525492935091613c198483614f3c565b613c239190614e4f565b613c2d9190614e7c565b6015546001600160401b038716600090815260008051602061518c833981519152602052604081206007015492935091613c679084614e4f565b613c719190614e7c565b6001600160401b038716600090815260008051602061518c833981519152602052604081205491925090613cb590600160401b90046001600160801b031683614f29565b979650505050505050565b6000546001600160a01b031633146128c35760405162461bcd60e51b815260206004820181905260248201527f4f776e61626c653a2063616c6c6572206973206e6f7420746865206f776e65726044820152606401610d78565b600080546001600160a01b038381166001600160a01b0319831681178455604051919092169283917f8be0079c531659141344cd1fd0a4f28419497f9722a3daafe3b4186f6b6457e09190a35050565b6006546040516370a0823160e01b81523060048201526000916001600160a01b0316906370a0823190602401602060405180830381865afa158015613db3573d6000803e3d6000fd5b505050506040513d601f19601f82011682018060405250810190613dd79190614ead565b90506000600460009054906101000a90046001600160a01b03166001600160a01b031663026b1d5f6040518163ffffffff1660e01b8152600401602060405180830381865afa158015613e2e573d6000803e3d6000fd5b505050506040513d601f19601f82011682018060405250810190613e529190614e90565b90506001600160a01b038116613e7b57604051630a20c02560e21b815260040160405180910390fd5b60035460405163474cf53d60e01b81526001600160a01b038381166004830152306024830152600060448301529091169063474cf53d9085906064016000604051808303818588803b158015613ed057600080fd5b505af1158015613ee4573d6000803e3d6000fd5b50506006546040516370a0823160e01b8152306004820152600094506001600160a01b0390911692506370a082319150602401602060405180830381865afa158015613f34573d6000803e3d6000fd5b505050506040513d601f19601f82011682018060405250810190613f589190614ead565b6000808052600d6020526000805160206151ac8339815191525491925003613f9b5760155460008052600d60205260008051602061516c8339815191525561402f565b6000808052600d6020526000805160206151ac83398151915254601554613fc28287614f29565b613fcc9190614e4f565b613fd69190614e7c565b60155460008052600d60205260008051602061516c83398151915254919250906140008383614f3c565b61400a9190614e4f565b6140149190614e7c565b60008052600d60205260008051602061516c83398151915255505b80600d6000805b600181111561404757614047614ec6565b815260208101919091526040016000206003015550505050565b6000600760009054906101000a90046001600160a01b03166001600160a01b0316631249c58b836040518263ffffffff1660e01b81526004016000604051808303818588803b1580156140b357600080fd5b505af11580156140c7573d6000803e3d6000fd5b50506007546040516370a0823160e01b8152306004820152600094506001600160a01b0390911692506370a082319150602401602060405180830381865afa158015614117573d6000803e3d6000fd5b505050506040513d601f19601f8201168201806040525081019061413b9190614ead565b60016000908152600d60205260008051602061510c83398151915254919250906141659083614f29565b6001600052600d60205260008051602061510c833981519152929092555092915050565b6001600160a01b038281166000908152600c602090815260408083206001600160401b03868116855260019182018452828520835161024081018552815480841682526001600160801b03600160401b808304821698840198909852600160c01b91829004851683880152948301548086166060840152600160801b9081900486166080840152600284015480871660a085015260ff828204811660c0860152600160881b918290048116151560e08601526003860154808916610100870152838104909116151561012086015204851661014084015260048085015480871661016086015298890487166101808501529190970484166101a083015260058301548086166101c0840152969096049092166101e0830152600680820154610200840152600790910154909216610220820152905491516370a0823160e01b815230938101939093529316906370a0823190602401602060405180830381865afa1580156142fb573d6000803e3d6000fd5b505050506040513d601f19601f8201168201806040525081019061431f9190614ead565b6000808052600d6020526000805160206151ac83398151915254601554929350909161434b8285614f29565b6143559190614e4f565b61435f9190614e7c565b6015546000808052600d60205260008051602061516c833981519152549293509161438a8483614f3c565b6143949190614e4f565b61439e9190614e7c565b6000808052600d60205260008051602061516c83398151915282905560155461020087015192935090916143d29084614e4f565b6143dc9190614e7c565b90506000600460009054906101000a90046001600160a01b03166001600160a01b031663026b1d5f6040518163ffffffff1660e01b8152600401602060405180830381865afa158015614433573d6000803e3d6000fd5b505050506040513d601f19601f820116820180604052508101906144579190614e90565b90506001600160a01b03811661448057604051630a20c02560e21b815260040160405180910390fd5b600654600b5460405163095ea7b360e01b81526001600160a01b0391821660048201526024810185905291169063095ea7b3906044016020604051808303816000875af11580156144d5573d6000803e3d6000fd5b505050506040513d601f19601f820116820180604052508101906144f99190614fd1565b50600354604051630402806960e51b81526001600160a01b038381166004830152602482018590528a81166044830152909116906380500d2090606401600060405180830381600087803b15801561455057600080fd5b505af1158015614564573d6000803e3d6000fd5b50506006546040516370a0823160e01b81523060048201526001600160a01b0390911692506370a082319150602401602060405180830381865afa1580156145b0573d6000803e3d6000fd5b505050506040513d601f19601f820116820180604052508101906145d49190614ead565b60008052600d6020526000805160206151ac833981519152555050505050505050565b6001600160a01b038083166000908152600c602090815260408083206001600160401b0380871685526001918201845293829020825161024081018452815480871682526001600160801b03600160401b808304821697840197909752600160c01b91829004881683870152938301548085166060840152600160801b9081900485166080840152600284015480861660a085015260ff828204811660c0860152600160881b918290048116151560e086015260038601548088166101008701528381049091161515610120860152048816610140840152600480850154808a1661016086015297880486166101808501529190960487166101a083015260058301548085166101c0840152959095049095166101e0860152600681015461020086015260079081015490911661022085018190529054915163db006a7560e01b81529394909391169163db006a75916147579185910190815260200190565b6020604051808303816000875af1158015614776573d6000803e3d6000fd5b505050506040513d601f19601f8201168201806040525081019061479a9190614ead565b506007546040516370a0823160e01b81523060048201526001600160a01b03909116906370a0823190602401602060405180830381865afa1580156147e3573d6000803e3d6000fd5b505050506040513d601f19601f820116820180604052508101906148079190614ead565b600d60006001614036565b80356001600160401b038116811461482957600080fd5b919050565b60006020828403121561484057600080fd5b61484982614812565b9392505050565b6001600160a01b038116811461363c57600080fd5b6000806040838503121561487857600080fd5b823561488381614850565b946020939093013593505050565b6000602082840312156148a357600080fd5b5035919050565b80356001600160801b038116811461482957600080fd5b600080604083850312156148d457600080fd5b82356148df81614850565b91506148ed602084016148aa565b90509250929050565b6000806040838503121561490957600080fd5b823561491481614850565b91506148ed60208401614812565b6001600160401b0383811682528251166020820152610260810160208301516001600160801b03811660408401525060408301516001600160401b03811660608401525060608301516001600160801b03811660808401525060808301516001600160801b03811660a08401525060a08301516001600160801b03811660c08401525060c083015160ff811660e08401525060e08301516101006149c98185018315159052565b84015190506101206149e5848201836001600160801b03169052565b84015190506101406149fa8482018315159052565b8401519050610160614a16848201836001600160401b03169052565b8401519050610180614a32848201836001600160401b03169052565b84015190506101a0614a4e848201836001600160801b03169052565b84015190506101c0614a6a848201836001600160401b03169052565b84015190506101e0614a86848201836001600160801b03169052565b8401519050610200614aa2848201836001600160401b03169052565b840151610220848101919091528401516001600160801b0381166102408501529050509392505050565b600060208284031215614ade57600080fd5b813561484981614850565b801515811461363c57600080fd5b803561482981614ae9565b60008060408385031215614b1557600080fd5b8235614b2081614850565b91506020830135614b3081614ae9565b809150509250929050565b600060208284031215614b4d57600080fd5b81356002811061484957600080fd5b60405161024081016001600160401b0381118282101715614b8d57634e487b7160e01b600052604160045260246000fd5b60405290565b803560ff8116811461482957600080fd5b6000806000838503610280811215614bbb57600080fd5b8435614bc681614850565b9350614bd460208601614812565b925061024080603f1983011215614bea57600080fd5b614bf2614b5c565b9150614c0060408701614812565b8252614c0e606087016148aa565b6020830152614c1f60808701614812565b6040830152614c3060a087016148aa565b6060830152614c4160c087016148aa565b6080830152614c5260e087016148aa565b60a0830152610100614c65818801614b93565b60c0840152610120614c78818901614af7565b60e0850152610140614c8b818a016148aa565b838601526101609250614c9f838a01614af7565b828601526101809150614cb3828a01614812565b908501526101a0614cc5898201614812565b838601526101c09250614cd9838a016148aa565b828601526101e09150614ced828a01614812565b90850152610200614cff8982016148aa565b838601526102209250614d13838a01614812565b8286015283890135818601525050614d2e61026088016148aa565b818401525050809150509250925092565b600080600060608486031215614d5457600080fd5b8335614d5f81614850565b9250614d6d602085016148aa565b9150614d7b60408501614812565b90509250925092565b600080600080600060a08688031215614d9c57600080fd5b8535614da781614850565b94506020860135614db781614850565b935060408601359250614dcc60608701614812565b9150614dda60808701614812565b90509295509295909350565b60208082526033908201527f546869732066756e6374696f6e2063616e206f6e6c792063616c6c656420627960408201527208189bdc9c9bddda5b99c818dbdb9d1c9858dd606a1b606082015260800190565b634e487b7160e01b600052601160045260246000fd5b8082028115828204841417612ff457612ff4614e39565b634e487b7160e01b600052601260045260246000fd5b600082614e8b57614e8b614e66565b500490565b600060208284031215614ea257600080fd5b815161484981614850565b600060208284031215614ebf57600080fd5b5051919050565b634e487b7160e01b600052602160045260246000fd5b6001600160401b03818116838216019080821115614efc57614efc614e39565b5092915050565b60006001600160401b03808316818103614f1f57614f1f614e39565b6001019392505050565b81810381811115612ff457612ff4614e39565b80820180821115612ff457612ff4614e39565b6001600160801b03828116828216039080821115614efc57614efc614e39565b6001600160401b03828116828216039080821115614efc57614efc614e39565b60208082526022908201527f496e7075742061646472657373206f7220616d6f756e7420697320696e76616c6040820152611a5960f21b606082015260800190565b600060208284031215614fe357600080fd5b815161484981614ae9565b6020808252602d908201527f546869732066756e6374696f6e2063616e206f6e6c792063616c6c656420627960408201526c0810d114c818dbdb9d1c9858dd609a1b606082015260800190565b60006001600160801b03808316818103614f1f57614f1f614e39565b6001600160801b0381811683821602808216919082811461507a5761507a614e39565b505092915050565b60006001600160801b038084168061509c5761509c614e66565b92169190910492915050565b6001600160801b03818116838216019080821115614efc57614efc614e39565b60006001600160801b038216806150e1576150e1614e39565b600019019291505056fe81955a0a11e65eac625c29e8882660bae4e165a75d72780094acae8ece9a29effd54ff1ed53f34a900b24c5ba64f85761163b5d82d98a47b9bd80e45466993c8fd54ff1ed53f34a900b24c5ba64f85761163b5d82d98a47b9bd80e45466993c7fd54ff1ed53f34a900b24c5ba64f85761163b5d82d98a47b9bd80e45466993c581955a0a11e65eac625c29e8882660bae4e165a75d72780094acae8ece9a29f381955a0a11e65eac625c29e8882660bae4e165a75d72780094acae8ece9a29ee81955a0a11e65eac625c29e8882660bae4e165a75d72780094acae8ece9a29f1a2646970667358221220159dcb58e8bb62a9f76656cc6afddb133b4ec481c7e7c3f4675e69b71fd2a05864736f6c63430008120033","linkReferences":{}},"methodIdentifiers":{"aToken()":"a0c1f15e","aavePoolAddressProvider()":"25375dd5","aaveWETH()":"f750d07d","approveAmint(address,uint256)":"2b7f5694","approveUsdt(address,uint256)":"e6136105","borrow()":"e68d3569","borrowing(address)":"f750e3ab","borrowingContract()":"84a965ed","cEther()":"19b68c00","calculateInterestForDepositAave(uint64)":"ff2d7dc6","cdsContract()":"bc497a82","compoundAddress()":"bfc00714","deposit(address,uint128,uint64)":"dcb71f3f","depositToAave()":"06197c1c","depositToCompound()":"1b851134","externalProtocolDepositCount()":"94420dfe","getBalanceInTreasury()":"0f274495","getBorrowing(address,uint64)":"4d5c56a5","getInterestForCompoundDeposit(address,uint64)":"e00bdec4","increaseExternalProtocolCount()":"dc64177c","noOfBorrowers()":"45aeb0ce","owner()":"8da5cb5b","protocolDeposit(uint8)":"bdceaba2","renounceOwnership()":"715018a6","setBorrowingContract(address)":"78fdaf3f","totalInterest()":"bc7a36d6","totalInterestFromExternalProtocol(address,uint64)":"e9aeb2a8","totalInterestFromLiquidation()":"394612a1","totalVolumeOfBorrowersAmountinUSD()":"541b6094","totalVolumeOfBorrowersAmountinWei()":"9a52aed9","transferEthToCdsLiquidators(address,uint128)":"5822b66d","transferOwnership(address)":"f2fde38b","trinity()":"509aac34","updateDepositDetails(address,uint64,(uint64,uint128,uint64,uint128,uint128,uint128,uint8,bool,uint128,bool,uint64,uint64,uint128,uint64,uint128,uint64,uint256,uint128))":"d6103823","updateHasBorrowed(address,bool)":"b9127c5c","updateTotalBorrowedAmount(address,uint256)":"1cd081b2","updateTotalDepositedAmount(address,uint128)":"6cd4ddbc","updateTotalInterest(uint256)":"b9a221eb","updateTotalInterestFromLiquidation(uint256)":"23f1059c","updateTotalPTokensDecrease(address,uint128)":"3b7566fc","updateTotalPTokensIncrease(address,uint128)":"ef0d5dc1","usdt()":"2f48ab7d","wethGateway()":"c5e10eef","withdraw(address,address,uint256,uint64,uint64)":"fe6520ae","withdrawFromAave(uint64)":"37672410","withdrawFromCompound(uint64)":"0ddec572","withdrawInterest(address,uint256)":"5b730e69"},"id":1}