{"abi":[{"type":"receive","stateMutability":"payable"},{"type":"function","name":"UPGRADE_INTERFACE_VERSION","inputs":[],"outputs":[{"name":"","type":"string","internalType":"string"}],"stateMutability":"view"},{"type":"function","name":"abondUSDaPool","inputs":[],"outputs":[{"name":"","type":"uint256","internalType":"uint256"}],"stateMutability":"view"},{"type":"function","name":"allowInitializePath","inputs":[{"name":"origin","type":"tuple","internalType":"struct Origin","components":[{"name":"srcEid","type":"uint32","internalType":"uint32"},{"name":"sender","type":"bytes32","internalType":"bytes32"},{"name":"nonce","type":"uint64","internalType":"uint64"}]}],"outputs":[{"name":"","type":"bool","internalType":"bool"}],"stateMutability":"view"},{"type":"function","name":"approveUSDa","inputs":[{"name":"_address","type":"address","internalType":"address"},{"name":"_amount","type":"uint256","internalType":"uint256"}],"outputs":[],"stateMutability":"nonpayable"},{"type":"function","name":"approveUsdt","inputs":[{"name":"_address","type":"address","internalType":"address"},{"name":"_amount","type":"uint256","internalType":"uint256"}],"outputs":[],"stateMutability":"nonpayable"},{"type":"function","name":"borrowing","inputs":[{"name":"depositor","type":"address","internalType":"address"}],"outputs":[{"name":"depositedAmount","type":"uint256","internalType":"uint256"},{"name":"totalBorrowedAmount","type":"uint256","internalType":"uint256"},{"name":"hasBorrowed","type":"bool","internalType":"bool"},{"name":"hasDeposited","type":"bool","internalType":"bool"},{"name":"borrowerIndex","type":"uint64","internalType":"uint64"}],"stateMutability":"view"},{"type":"function","name":"calculateYieldsForExternalProtocol","inputs":[{"name":"user","type":"address","internalType":"address"},{"name":"aBondAmount","type":"uint128","internalType":"uint128"}],"outputs":[{"name":"","type":"uint256","internalType":"uint256"}],"stateMutability":"view"},{"type":"function","name":"deposit","inputs":[{"name":"_depositingAmount","type":"uint256","internalType":"uint256"},{"name":"user","type":"address","internalType":"address"},{"name":"_ethPrice","type":"uint128","internalType":"uint128"},{"name":"_depositTime","type":"uint64","internalType":"uint64"}],"outputs":[{"name":"","type":"tuple","internalType":"struct TreasuryV1.DepositResult","components":[{"name":"hasDeposited","type":"bool","internalType":"bool"},{"name":"borrowerIndex","type":"uint64","internalType":"uint64"}]}],"stateMutability":"payable"},{"type":"function","name":"endpoint","inputs":[],"outputs":[{"name":"","type":"address","internalType":"contract ILayerZeroEndpointV2"}],"stateMutability":"view"},{"type":"function","name":"getBalanceInTreasury","inputs":[],"outputs":[{"name":"","type":"uint256","internalType":"uint256"}],"stateMutability":"view"},{"type":"function","name":"getBorrowing","inputs":[{"name":"depositor","type":"address","internalType":"address"},{"name":"index","type":"uint64","internalType":"uint64"}],"outputs":[{"name":"","type":"tuple","internalType":"struct TreasuryV1.GetBorrowingResult","components":[{"name":"totalIndex","type":"uint64","internalType":"uint64"},{"name":"depositDetails","type":"tuple","internalType":"struct TreasuryV1.DepositDetails","components":[{"name":"depositedTime","type":"uint64","internalType":"uint64"},{"name":"depositedAmount","type":"uint128","internalType":"uint128"},{"name":"depositedAmountUsdValue","type":"uint128","internalType":"uint128"},{"name":"downsidePercentage","type":"uint64","internalType":"uint64"},{"name":"ethPriceAtDeposit","type":"uint128","internalType":"uint128"},{"name":"borrowedAmount","type":"uint128","internalType":"uint128"},{"name":"normalizedAmount","type":"uint128","internalType":"uint128"},{"name":"withdrawed","type":"bool","internalType":"bool"},{"name":"withdrawAmount","type":"uint128","internalType":"uint128"},{"name":"liquidated","type":"bool","internalType":"bool"},{"name":"ethPriceAtWithdraw","type":"uint64","internalType":"uint64"},{"name":"withdrawTime","type":"uint64","internalType":"uint64"},{"name":"aBondTokensAmount","type":"uint128","internalType":"uint128"},{"name":"strikePrice","type":"uint128","internalType":"uint128"},{"name":"optionFees","type":"uint128","internalType":"uint128"}]}]}],"stateMutability":"view"},{"type":"function","name":"getExternalProtocolCumulativeRate","inputs":[{"name":"maximum","type":"bool","internalType":"bool"}],"outputs":[{"name":"","type":"uint128","internalType":"uint128"}],"stateMutability":"view"},{"type":"function","name":"initialize","inputs":[{"name":"_borrowing","type":"address","internalType":"address"},{"name":"_tokenAddress","type":"address","internalType":"address"},{"name":"_abondAddress","type":"address","internalType":"address"},{"name":"_cdsContract","type":"address","internalType":"address"},{"name":"_borrowLiquidation","type":"address","internalType":"address"},{"name":"_usdt","type":"address","internalType":"address"},{"name":"_endpoint","type":"address","internalType":"address"},{"name":"_delegate","type":"address","internalType":"address"}],"outputs":[],"stateMutability":"nonpayable"},{"type":"function","name":"isComposeMsgSender","inputs":[{"name":"","type":"tuple","internalType":"struct Origin","components":[{"name":"srcEid","type":"uint32","internalType":"uint32"},{"name":"sender","type":"bytes32","internalType":"bytes32"},{"name":"nonce","type":"uint64","internalType":"uint64"}]},{"name":"","type":"bytes","internalType":"bytes"},{"name":"_sender","type":"address","internalType":"address"}],"outputs":[{"name":"","type":"bool","internalType":"bool"}],"stateMutability":"view"},{"type":"function","name":"lzReceive","inputs":[{"name":"_origin","type":"tuple","internalType":"struct Origin","components":[{"name":"srcEid","type":"uint32","internalType":"uint32"},{"name":"sender","type":"bytes32","internalType":"bytes32"},{"name":"nonce","type":"uint64","internalType":"uint64"}]},{"name":"_guid","type":"bytes32","internalType":"bytes32"},{"name":"_message","type":"bytes","internalType":"bytes"},{"name":"_executor","type":"address","internalType":"address"},{"name":"_extraData","type":"bytes","internalType":"bytes"}],"outputs":[],"stateMutability":"payable"},{"type":"function","name":"nextNonce","inputs":[{"name":"","type":"uint32","internalType":"uint32"},{"name":"","type":"bytes32","internalType":"bytes32"}],"outputs":[{"name":"nonce","type":"uint64","internalType":"uint64"}],"stateMutability":"view"},{"type":"function","name":"noOfBorrowers","inputs":[],"outputs":[{"name":"","type":"uint128","internalType":"uint128"}],"stateMutability":"view"},{"type":"function","name":"oAppVersion","inputs":[],"outputs":[{"name":"senderVersion","type":"uint64","internalType":"uint64"},{"name":"receiverVersion","type":"uint64","internalType":"uint64"}],"stateMutability":"pure"},{"type":"function","name":"oftOrNativeReceiveFromOtherChains","inputs":[{"name":"_functionToDo","type":"uint8","internalType":"enum TreasuryV1.FunctionToDo"},{"name":"_oftTransferData","type":"tuple","internalType":"struct TreasuryV1.USDaOftTransferData","components":[{"name":"recipient","type":"address","internalType":"address"},{"name":"tokensToSend","type":"uint256","internalType":"uint256"}]},{"name":"_nativeTokenTransferData","type":"tuple","internalType":"struct TreasuryV1.NativeTokenTransferData","components":[{"name":"recipient","type":"address","internalType":"address"},{"name":"nativeTokensToSend","type":"uint256","internalType":"uint256"}]}],"outputs":[{"name":"receipt","type":"tuple","internalType":"struct MessagingReceipt","components":[{"name":"guid","type":"bytes32","internalType":"bytes32"},{"name":"nonce","type":"uint64","internalType":"uint64"},{"name":"fee","type":"tuple","internalType":"struct MessagingFee","components":[{"name":"nativeFee","type":"uint256","internalType":"uint256"},{"name":"lzTokenFee","type":"uint256","internalType":"uint256"}]}]}],"stateMutability":"payable"},{"type":"function","name":"omniChainTreasuryEthProfitsOfLiquidators","inputs":[],"outputs":[{"name":"","type":"uint256","internalType":"uint256"}],"stateMutability":"view"},{"type":"function","name":"omniChainTreasuryNoOfBorrowers","inputs":[],"outputs":[{"name":"","type":"uint128","internalType":"uint128"}],"stateMutability":"view"},{"type":"function","name":"omniChainTreasuryTotalVolumeOfBorrowersAmountinUSD","inputs":[],"outputs":[{"name":"","type":"uint256","internalType":"uint256"}],"stateMutability":"view"},{"type":"function","name":"omniChainTreasuryTotalVolumeOfBorrowersAmountinWei","inputs":[],"outputs":[{"name":"","type":"uint256","internalType":"uint256"}],"stateMutability":"view"},{"type":"function","name":"owner","inputs":[],"outputs":[{"name":"","type":"address","internalType":"address"}],"stateMutability":"view"},{"type":"function","name":"peers","inputs":[{"name":"eid","type":"uint32","internalType":"uint32"}],"outputs":[{"name":"peer","type":"bytes32","internalType":"bytes32"}],"stateMutability":"view"},{"type":"function","name":"proxiableUUID","inputs":[],"outputs":[{"name":"","type":"bytes32","internalType":"bytes32"}],"stateMutability":"view"},{"type":"function","name":"quote","inputs":[{"name":"_dstEid","type":"uint32","internalType":"uint32"},{"name":"_functionToDo","type":"uint8","internalType":"enum TreasuryV1.FunctionToDo"},{"name":"_oftTransferData","type":"tuple","internalType":"struct TreasuryV1.USDaOftTransferData","components":[{"name":"recipient","type":"address","internalType":"address"},{"name":"tokensToSend","type":"uint256","internalType":"uint256"}]},{"name":"_nativeTokenTransferData","type":"tuple","internalType":"struct TreasuryV1.NativeTokenTransferData","components":[{"name":"recipient","type":"address","internalType":"address"},{"name":"nativeTokensToSend","type":"uint256","internalType":"uint256"}]},{"name":"_options","type":"bytes","internalType":"bytes"},{"name":"_payInLzToken","type":"bool","internalType":"bool"}],"outputs":[{"name":"fee","type":"tuple","internalType":"struct MessagingFee","components":[{"name":"nativeFee","type":"uint256","internalType":"uint256"},{"name":"lzTokenFee","type":"uint256","internalType":"uint256"}]}],"stateMutability":"view"},{"type":"function","name":"renounceOwnership","inputs":[],"outputs":[],"stateMutability":"nonpayable"},{"type":"function","name":"setDelegate","inputs":[{"name":"_delegate","type":"address","internalType":"address"}],"outputs":[],"stateMutability":"nonpayable"},{"type":"function","name":"setDstEid","inputs":[{"name":"_eid","type":"uint32","internalType":"uint32"}],"outputs":[],"stateMutability":"nonpayable"},{"type":"function","name":"setDstTreasuryAddress","inputs":[{"name":"_treasuryAddress","type":"address","internalType":"address"}],"outputs":[],"stateMutability":"nonpayable"},{"type":"function","name":"setExternalProtocolAddresses","inputs":[{"name":"_wethGateway","type":"address","internalType":"address"},{"name":"_comet","type":"address","internalType":"address"},{"name":"_aavePoolAddressProvider","type":"address","internalType":"address"},{"name":"_aToken","type":"address","internalType":"address"},{"name":"_weth","type":"address","internalType":"address"}],"outputs":[],"stateMutability":"nonpayable"},{"type":"function","name":"setPeer","inputs":[{"name":"_eid","type":"uint32","internalType":"uint32"},{"name":"_peer","type":"bytes32","internalType":"bytes32"}],"outputs":[],"stateMutability":"nonpayable"},{"type":"function","name":"totalVolumeOfBorrowersAmountinUSD","inputs":[],"outputs":[{"name":"","type":"uint256","internalType":"uint256"}],"stateMutability":"view"},{"type":"function","name":"totalVolumeOfBorrowersAmountinWei","inputs":[],"outputs":[{"name":"","type":"uint256","internalType":"uint256"}],"stateMutability":"view"},{"type":"function","name":"transferEthToCdsLiquidators","inputs":[{"name":"borrower","type":"address","internalType":"address"},{"name":"amount","type":"uint128","internalType":"uint128"}],"outputs":[],"stateMutability":"nonpayable"},{"type":"function","name":"transferOwnership","inputs":[{"name":"newOwner","type":"address","internalType":"address"}],"outputs":[],"stateMutability":"nonpayable"},{"type":"function","name":"updateAbondUSDaPool","inputs":[{"name":"amount","type":"uint256","internalType":"uint256"},{"name":"operation","type":"bool","internalType":"bool"}],"outputs":[],"stateMutability":"nonpayable"},{"type":"function","name":"updateDepositDetails","inputs":[{"name":"depositor","type":"address","internalType":"address"},{"name":"index","type":"uint64","internalType":"uint64"},{"name":"depositDetail","type":"tuple","internalType":"struct TreasuryV1.DepositDetails","components":[{"name":"depositedTime","type":"uint64","internalType":"uint64"},{"name":"depositedAmount","type":"uint128","internalType":"uint128"},{"name":"depositedAmountUsdValue","type":"uint128","internalType":"uint128"},{"name":"downsidePercentage","type":"uint64","internalType":"uint64"},{"name":"ethPriceAtDeposit","type":"uint128","internalType":"uint128"},{"name":"borrowedAmount","type":"uint128","internalType":"uint128"},{"name":"normalizedAmount","type":"uint128","internalType":"uint128"},{"name":"withdrawed","type":"bool","internalType":"bool"},{"name":"withdrawAmount","type":"uint128","internalType":"uint128"},{"name":"liquidated","type":"bool","internalType":"bool"},{"name":"ethPriceAtWithdraw","type":"uint64","internalType":"uint64"},{"name":"withdrawTime","type":"uint64","internalType":"uint64"},{"name":"aBondTokensAmount","type":"uint128","internalType":"uint128"},{"name":"strikePrice","type":"uint128","internalType":"uint128"},{"name":"optionFees","type":"uint128","internalType":"uint128"}]}],"outputs":[],"stateMutability":"nonpayable"},{"type":"function","name":"updateEthProfitsOfLiquidators","inputs":[{"name":"amount","type":"uint256","internalType":"uint256"},{"name":"operation","type":"bool","internalType":"bool"}],"outputs":[],"stateMutability":"nonpayable"},{"type":"function","name":"updateHasBorrowed","inputs":[{"name":"borrower","type":"address","internalType":"address"},{"name":"_bool","type":"bool","internalType":"bool"}],"outputs":[],"stateMutability":"nonpayable"},{"type":"function","name":"updateInterestFromExternalProtocol","inputs":[{"name":"amount","type":"uint256","internalType":"uint256"}],"outputs":[],"stateMutability":"nonpayable"},{"type":"function","name":"updateTotalBorrowedAmount","inputs":[{"name":"borrower","type":"address","internalType":"address"},{"name":"amount","type":"uint256","internalType":"uint256"}],"outputs":[],"stateMutability":"nonpayable"},{"type":"function","name":"updateTotalDepositedAmount","inputs":[{"name":"borrower","type":"address","internalType":"address"},{"name":"amount","type":"uint128","internalType":"uint128"}],"outputs":[],"stateMutability":"nonpayable"},{"type":"function","name":"updateTotalInterest","inputs":[{"name":"_amount","type":"uint256","internalType":"uint256"}],"outputs":[],"stateMutability":"nonpayable"},{"type":"function","name":"updateTotalInterestFromLiquidation","inputs":[{"name":"_amount","type":"uint256","internalType":"uint256"}],"outputs":[],"stateMutability":"nonpayable"},{"type":"function","name":"updateUSDaGainedFromLiquidation","inputs":[{"name":"amount","type":"uint256","internalType":"uint256"},{"name":"operation","type":"bool","internalType":"bool"}],"outputs":[],"stateMutability":"nonpayable"},{"type":"function","name":"upgradeToAndCall","inputs":[{"name":"newImplementation","type":"address","internalType":"address"},{"name":"data","type":"bytes","internalType":"bytes"}],"outputs":[],"stateMutability":"payable"},{"type":"function","name":"usdaGainedFromLiquidation","inputs":[],"outputs":[{"name":"","type":"uint256","internalType":"uint256"}],"stateMutability":"view"},{"type":"function","name":"withdraw","inputs":[{"name":"borrower","type":"address","internalType":"address"},{"name":"toAddress","type":"address","internalType":"address"},{"name":"_amount","type":"uint256","internalType":"uint256"},{"name":"index","type":"uint64","internalType":"uint64"}],"outputs":[{"name":"","type":"bool","internalType":"bool"}],"stateMutability":"payable"},{"type":"function","name":"withdrawExternalProtocolInterest","inputs":[{"name":"toAddress","type":"address","internalType":"address"},{"name":"amount","type":"uint128","internalType":"uint128"}],"outputs":[],"stateMutability":"nonpayable"},{"type":"function","name":"withdrawFromExternalProtocol","inputs":[{"name":"user","type":"address","internalType":"address"},{"name":"aBondAmount","type":"uint128","internalType":"uint128"}],"outputs":[{"name":"","type":"uint256","internalType":"uint256"}],"stateMutability":"nonpayable"},{"type":"function","name":"withdrawInterest","inputs":[{"name":"toAddress","type":"address","internalType":"address"},{"name":"amount","type":"uint256","internalType":"uint256"}],"outputs":[],"stateMutability":"nonpayable"},{"type":"event","name":"Deposit","inputs":[{"name":"user","type":"address","indexed":true,"internalType":"address"},{"name":"amount","type":"uint256","indexed":false,"internalType":"uint256"}],"anonymous":false},{"type":"event","name":"DepositToAave","inputs":[{"name":"count","type":"uint64","indexed":false,"internalType":"uint64"},{"name":"amount","type":"uint256","indexed":false,"internalType":"uint256"}],"anonymous":false},{"type":"event","name":"DepositToCompound","inputs":[{"name":"count","type":"uint64","indexed":false,"internalType":"uint64"},{"name":"amount","type":"uint256","indexed":false,"internalType":"uint256"}],"anonymous":false},{"type":"event","name":"Initialized","inputs":[{"name":"version","type":"uint64","indexed":false,"internalType":"uint64"}],"anonymous":false},{"type":"event","name":"OwnershipTransferred","inputs":[{"name":"previousOwner","type":"address","indexed":true,"internalType":"address"},{"name":"newOwner","type":"address","indexed":true,"internalType":"address"}],"anonymous":false},{"type":"event","name":"PeerSet","inputs":[{"name":"eid","type":"uint32","indexed":false,"internalType":"uint32"},{"name":"peer","type":"bytes32","indexed":false,"internalType":"bytes32"}],"anonymous":false},{"type":"event","name":"Upgraded","inputs":[{"name":"implementation","type":"address","indexed":true,"internalType":"address"}],"anonymous":false},{"type":"event","name":"Withdraw","inputs":[{"name":"user","type":"address","indexed":true,"internalType":"address"},{"name":"amount","type":"uint256","indexed":false,"internalType":"uint256"}],"anonymous":false},{"type":"event","name":"WithdrawFromAave","inputs":[{"name":"count","type":"uint64","indexed":false,"internalType":"uint64"},{"name":"amount","type":"uint256","indexed":false,"internalType":"uint256"}],"anonymous":false},{"type":"event","name":"WithdrawFromCompound","inputs":[{"name":"count","type":"uint64","indexed":false,"internalType":"uint64"},{"name":"amount","type":"uint256","indexed":false,"internalType":"uint256"}],"anonymous":false},{"type":"error","name":"AddressEmptyCode","inputs":[{"name":"target","type":"address","internalType":"address"}]},{"type":"error","name":"AddressInsufficientBalance","inputs":[{"name":"account","type":"address","internalType":"address"}]},{"type":"error","name":"ERC1967InvalidImplementation","inputs":[{"name":"implementation","type":"address","internalType":"address"}]},{"type":"error","name":"ERC1967NonPayable","inputs":[]},{"type":"error","name":"EndPointUnavailable","inputs":[]},{"type":"error","name":"FailedInnerCall","inputs":[]},{"type":"error","name":"InvalidDelegate","inputs":[]},{"type":"error","name":"InvalidEndpointCall","inputs":[]},{"type":"error","name":"InvalidInitialization","inputs":[]},{"type":"error","name":"InvalidOptionType","inputs":[{"name":"optionType","type":"uint16","internalType":"uint16"}]},{"type":"error","name":"LzTokenUnavailable","inputs":[]},{"type":"error","name":"NoPeer","inputs":[{"name":"eid","type":"uint32","internalType":"uint32"}]},{"type":"error","name":"NotEnoughNative","inputs":[{"name":"msgValue","type":"uint256","internalType":"uint256"}]},{"type":"error","name":"NotInitializing","inputs":[]},{"type":"error","name":"OnlyEndpoint","inputs":[{"name":"addr","type":"address","internalType":"address"}]},{"type":"error","name":"OnlyPeer","inputs":[{"name":"eid","type":"uint32","internalType":"uint32"},{"name":"sender","type":"bytes32","internalType":"bytes32"}]},{"type":"error","name":"OwnableInvalidOwner","inputs":[{"name":"owner","type":"address","internalType":"address"}]},{"type":"error","name":"OwnableUnauthorizedAccount","inputs":[{"name":"account","type":"address","internalType":"address"}]},{"type":"error","name":"ReentrancyGuardReentrantCall","inputs":[]},{"type":"error","name":"SafeCastOverflowedUintDowncast","inputs":[{"name":"bits","type":"uint8","internalType":"uint8"},{"name":"value","type":"uint256","internalType":"uint256"}]},{"type":"error","name":"SafeERC20FailedOperation","inputs":[{"name":"token","type":"address","internalType":"address"}]},{"type":"error","name":"Treasury_AaveDepositAndMintFailed","inputs":[]},{"type":"error","name":"Treasury_AavePoolAddressZero","inputs":[]},{"type":"error","name":"Treasury_AaveWithdrawFailed","inputs":[]},{"type":"error","name":"Treasury_CompoundDepositAndMintFailed","inputs":[]},{"type":"error","name":"Treasury_CompoundWithdrawFailed","inputs":[]},{"type":"error","name":"Treasury_EthTransferToCdsLiquidatorFailed","inputs":[]},{"type":"error","name":"Treasury_WithdrawExternalProtocolInterestFailed","inputs":[]},{"type":"error","name":"Treasury_ZeroDeposit","inputs":[]},{"type":"error","name":"Treasury_ZeroWithdraw","inputs":[]},{"type":"error","name":"UUPSUnauthorizedCallContext","inputs":[]},{"type":"error","name":"UUPSUnsupportedProxiableUUID","inputs":[{"name":"slot","type":"bytes32","internalType":"bytes32"}]}],"bytecode":{"object":"0x60a0806040523461002b57306080526159a6908162000031823960805181818161118901526112c10152f35b600080fdfe6080604052600436101561001b575b361561001957600080fd5b005b60003560e01c80630d14c92e1461036b5780630f2744951461036657806313137d65146103615780631611ae881461035c57806317442b70146103575780631cd081b2146103525780631f7330fd1461034d57806323f1059c146103485780632a4e173b146103435780632bdc0e661461033e5780633400288b1461033957806334b5244c1461033457806340d86d7b1461032f57806345aeb0ce1461032a5780634c6b2e64146103255780634d5c56a5146103205780634f1ef2861461031b57806352d1902d146103165780635303dfea14610311578063541b60941461030c5780635822b66d1461030757806358a0e6cc146103025780635b730e69146102fd5780635e280f11146102f85780635e44fb05146102f35780636cd4ddbc146102ee578063715018a6146102e957806373cf144a146102e45780637b85b739146102df5780637d25a05e146102da57806382413eac146102d55780638715a4a2146102d05780638a29e2de146102cb5780638da5cb5b146102c65780638fabe74f146102c15780639a52aed9146102bc5780639cac6251146102b7578063a9bd8672146102b2578063ad3cb1cc146102ad578063b9127c5c146102a8578063b9a221eb146102a3578063ba291f6f1461029e578063bb0b6a5314610299578063bbfe8b9014610294578063ca5eb5e11461028f578063cd0220c91461028a578063dbc3bac014610285578063e49ec3b814610280578063e61361051461027b578063f2fde38b14610276578063f5dee49314610271578063f750e3ab1461026c5763ff7bd03d0361000e57612e62565b612de9565b612b73565b612b0c565b612a73565b612917565b612826565b6127ab565b61272f565b612337565b6122fc565b612248565b612107565b612076565b612030565b611fbf565b611fa1565b611f83565b611e72565b611e3c565b611caf565b611be1565b611b83565b611b5c565b611afc565b611a47565b6119d9565b611960565b611867565b61183e565b611744565b611726565b611609565b6115eb565b6113d7565b6112ae565b611147565b610eaf565b610d36565b610d0d565b610cef565b610cd1565b610c4a565b610873565b6107ce565b610770565b6106e0565b61065e565b61063c565b61057d565b610476565b61040b565b610383565b63ffffffff81160361037e57565b600080fd5b3461037e57602036600319011261037e5763ffffffff6004356103a581610370565b6103ad61567b565b1680156103c75763ffffffff196026541617602655600080f35b60405162461bcd60e51b81526020600482015260116024820152704549442063616e2774206265207a65726f60781b6044820152606490fd5b600091031261037e57565b3461037e57600036600319011261037e57602047604051908152f35b606090600319011261037e57600490565b9181601f8401121561037e578235916001600160401b03831161037e576020838186019501011161037e57565b6001600160a01b0381160361037e57565b60e036600319011261037e5761048b36610427565b6001600160401b0360843581811161037e576104ab903690600401610438565b916104b760a435610465565b60c43590811161037e576104cf903690600401610438565b50506019546001600160a01b0316330361053d576104f46104ef84614bab565b615078565b92602081013580940361050b576100198383614db5565b6105158491614bab565b60405163309afaf360e21b815263ffffffff9190911660048201526024810191909152604490fd5b6040516391ac5e4f60e01b8152336004820152602490fd5b8015150361037e57565b610124359061056d82610555565b565b610164359061056d82610555565b3461037e57604036600319011261037e5760043560243561059d81610555565b6000546105c690336001600160a01b039182161490811561062d575b811561061f575b506130cb565b6105d1821515613878565b156105fd576012548181018091116105f8576012556022549081018091116105f857602255005b613186565b6012548181039081116105f8576012556022549081039081116105f857602255005b9050601b54163314386105c0565b809150600854163314906105b9565b3461037e57600036600319011261037e57604080516001815260026020820152f35b3461037e57604036600319011261037e5760043561067b81610465565b6000546001600160a01b0391908216331480156106d3575b80156106c6575b6106a3906130cb565b16600052600b602052600260406000200180549060243582018092116105f85755005b50601b548216331461069a565b5081600854163314610693565b3461037e57604036600319011261037e5760043560243561070081610555565b60005461072790336001600160a01b039182161490811561062d57811561061f57506130cb565b1561074e57601c548181018091116105f857601c556025549081018091116105f857602555005b601c548181039081116105f857601c556025549081039081116105f857602555005b3461037e57602036600319011261037e57600054600435906107ac90336001600160a01b039182161490811561062d57811561061f57506130cb565b6011548181018091116105f8576011556021549081018091116105f857602155005b3461037e57602036600319011261037e576000546004359061080a90336001600160a01b039182161490811561062d57811561061f57506130cb565b6014548181018091116105f8576014556024549081018091116105f857602455005b6001600160401b0381160361037e57565b6044359061056d8261082c565b60a4359061056d8261082c565b610184359061056d8261082c565b6101a4359061056d8261082c565b608036600319011261037e5760043561088b81610465565b60243561089781610465565b6064356044356108a68261082c565b60008054909485946001600160a01b0392831692913384148015610c3d575b8015610c30575b6108d5906130cb565b6108e085151561333b565b60019361092261091d60036109128a896108f988612dcf565b01906001600160401b0316600052602052604060002090565b015460801c60ff1690565b613387565b6109428561093489826108f987612dcf565b01546001600160801b031690565b813b15610c2c5760405163330dbe9f60e11b81526001600160801b0391909116600482015297908890602490829084905af1908115610c2757610ae1610b8097610b70966108f96004947f884edad9ce6fa2440d8a54cc123490eb96d2768479d49ff9c7366125a94243649c610b0097610c0e575b506109ec6109e76109df6109d38661093489826108f989612dcf565b6001600160801b031690565b600e546133b9565b600e55565b610a23610a1e610a166109d3610a0688886108f988612dcf565b5460401c6001600160801b031690565b600d546133b9565b600d55565b610a4b610a46610a3e6109d38661093489826108f989612dcf565b601e546133b9565b601e55565b610a72610a6d610a656109d3610a0688886108f988612dcf565b601d546133b9565b601d55565b610a906109d36002610a8887876108f987612dcf565b015460801c90565b610aa76002610a9e84612dcf565b019182546133b9565b9055610acd610aba85856108f985612dcf565b8054600160401b600160c01b0319169055565b610ad681612dcf565b5415610b9357612dcf565b018054610afa906001600160801b0388811691166133dc565b906131cc565b610b58610b13610b0e615343565b61535d565b60265463ffffffff16610b4982610b28611092565b8c81528c6020820152610b39611092565b908d82528d602083015284614a02565b90610b526132dc565b906148d4565b50169480808085895af1610b6a6133f5565b50613425565b6040519081529081906020820190565b0390a260405160018152602090f35b0390f35b600f54610bce90610bac906001600160801b03166133c6565b600f80546001600160801b0319166001600160801b0392909216919091179055565b601f54610c0990610be7906001600160801b03166133c6565b601f80546001600160801b0319166001600160801b0392909216919091179055565b612dcf565b80610c1b610c2192610fd0565b80610400565b386109b7565b6133ad565b8880fd5b50601b54831633146108cc565b50826008541633146108c5565b3461037e57604036600319011261037e577f238399d427b947898edb290f5ff0f9109849b1c3ba196a42e35f00c50a54b98b600435610c8881610370565b60243590610c9461567b565b63ffffffff8116600052601a60205281604060002055610ccc604051928392836020909392919363ffffffff60408201951681520152565b0390a1005b3461037e57600036600319011261037e576020602354604051908152f35b3461037e57600036600319011261037e576020601d54604051908152f35b3461037e57600036600319011261037e57600f546040516001600160801b039091168152602090f35b3461037e57600036600319011261037e576020601c54604051908152f35b61056d909291926101e060206102008301956001600160401b0381511684520151610d8b6020840182516001600160401b03169052565b60208101516001600160801b0316604084015260408101516001600160801b0316606084015260608101516001600160401b0316608084015260808101516001600160801b031660a084015260a08101516001600160801b031660c084015260c08101516001600160801b031660e084015260e0810151610e13610100918286019015159052565b8101516001600160801b031661012084810191909152810151610e3d610140918286019015159052565b810151610e5861016091828601906001600160401b03169052565b810151610e7361018091828601906001600160401b03169052565b8101516001600160801b03166101a0848101919091528101516001600160801b03166101c08481019190915201516001600160801b0316910152565b3461037e57604036600319011261037e57610b8f600435610ecf81610465565b610fa9610f8a602435610ee18161082c565b604051610eed81610fe8565b602060009182815260405192610f0284611003565b80845280838501528060408501528060608501528060808501528060a08501528060c08501528060e08501528061010085015280610120850152806101408501528061016085015280610180850152806101a08501526101c0840152015260016108f9610f846003610f7388612dcf565b015460101c6001600160401b031690565b95612dcf565b610fa4610f95611092565b6001600160401b039094168452565b6138cf565b602082015260405191829182610d54565b634e487b7160e01b600052604160045260246000fd5b6001600160401b038111610fe357604052565b610fba565b604081019081106001600160401b03821117610fe357604052565b6101e081019081106001600160401b03821117610fe357604052565b606081019081106001600160401b03821117610fe357604052565b61012081019081106001600160401b03821117610fe357604052565b60a081019081106001600160401b03821117610fe357604052565b90601f801991011681019081106001600160401b03821117610fe357604052565b6040519061056d82610fe8565b6040519061056d82611003565b6040519060e082018281106001600160401b03821117610fe357604052565b6040519061056d8261103a565b6040519061056d82611056565b6001600160401b038111610fe357601f01601f191660200190565b81601f8201121561037e57803590611117826110e5565b926111256040519485611071565b8284526020838301011161037e57816000926020809301838601378301015290565b604036600319011261037e57600480359061116182610465565b6024356001600160401b03811161037e5761117f9036908301611100565b6001600160a01b037f00000000000000000000000000000000000000000000000000000000000000008116308114908115611292575b506112815790602083926111c761567b565b6040516352d1902d60e01b8152938491829088165afa60009281611251575b50611214575050604051634c9c8ce360e01b81526001600160a01b0390921690820190815281906020010390fd5b83836000805160206158b183398151915284036112355761001983836156e3565b604051632a87526960e21b815290810184815281906020010390fd5b61127391935060203d811161127a575b61126b8183611071565b810190613468565b91386111e6565b503d611261565b60405163703e46dd60e11b81528390fd5b9050816000805160206158b183398151915254161415386111b5565b3461037e57600036600319011261037e577f00000000000000000000000000000000000000000000000000000000000000006001600160a01b031630036113075760206040516000805160206158b18339815191528152f35b60405163703e46dd60e11b8152600490fd5b6001600160801b0381160361037e57565b6064359061056d82611319565b6084359061056d82611319565b60c4359061056d82611319565b60e4359061056d82611319565b610104359061056d82611319565b610144359061056d82611319565b6101c4359061056d82611319565b6101e4359061056d82611319565b610204359061056d82611319565b359061056d82611319565b604090600319011261037e576004356113c781610465565b906024356113d481611319565b90565b3461037e57606061145a6113ea366113af565b929061141060018060a01b038060005416331490811561062d57811561061f57506130cb565b60275461142d906001600160a01b03165b6001600160a01b031690565b604051630ecc535f60e01b81526001600160a01b0390921660048301529092839190829081906024820190565b03915afa908115610c27576000916115bd575b5060208181015190926114c5916114a491611492916001600160801b03165b90613276565b6016546001600160801b0316906134ba565b60175492906114bd9084906001600160801b0316613263565b9051906132a8565b6005549091906114dd906001600160a01b0316611421565b6040516370a0823160e01b808252306004830152918590829060249082905afa8015610c2757611515916000916115a0575b506134d2565b600654909390859061152f906001600160a01b0316611421565b604051938452306004850152839060249082905afa938415610c2757611569610b709561157794610b8f98600092611583575b505061355f565b8082101561157c5750613263565b6132a8565b9050613263565b6115999250803d1061127a5761126b8183611071565b3880611562565b6115b79150863d881161127a5761126b8183611071565b3861150f565b6115de915060603d81116115e4575b6115d68183611071565b810190613477565b3861146d565b503d6115cc565b3461037e57600036600319011261037e576020600e54604051908152f35b3461037e57611617366113af565b6000805490926001600160a01b0391821633148015611719575b801561170c575b611641906130cb565b16801515806116fa575b61165490613ae5565b602354916001600160801b0316908282116116a757838281949261168261167d849685966133b9565b602355565b5af161168c6133f5565b50156116955780f35b604051633243a0f360e21b8152600490fd5b60405162461bcd60e51b815260206004820152602560248201527f547265617375727920646f6e2774206861766520656e6f7567682045544820616044820152641b5bdd5b9d60da1b6064820152608490fd5b506001600160801b038216151561164b565b50601b5482163314611638565b5081600854163314611631565b3461037e57600036600319011261037e576020601254604051908152f35b3461037e57604036600319011261037e576117ec602060043561176681610465565b6024359061177261567b565b6001600160a01b038116151580611835575b61178d90613ae5565b6117b86117b3836010546117ae6117a6601154836131eb565b831115613ba9565b6133b9565b601055565b6001546117cd906001600160a01b0316611421565b90600060405180968195829463a9059cbb60e01b845260048401613b51565b03925af18015610c2757610019916000916118075750613425565b611828915060203d811161182e575b6118208183611071565b810190613b3c565b38610b6a565b503d611816565b50811515611784565b3461037e57600036600319011261037e576019546040516001600160a01b039091168152602090f35b3461037e57604036600319011261037e576118fc602060043561188981610465565b60005460243591906001600160a01b0390811633148015611953575b8015611946575b6118b5906130cb565b811615158061193d575b6118c890613ae5565b6001546118dd906001600160a01b0316611421565b90600060405180968195829463095ea7b360e01b845260048401613b51565b03925af1908115610c27576100199160019160009161191f575b50151514613b6c565b611937915060203d811161182e576118208183611071565b38611916565b508115156118bf565b50601b54811633146118ac565b50806008541633146118a5565b3461037e5761196e366113af565b60005490916001600160a01b03918216331480156119cc575b80156119bf575b611997906130cb565b166000908152600b6020526040902080546001600160801b0390921682039182116105f85755005b50601b548216331461198e565b5081600854163314611987565b3461037e57600080600319360112611a44576119f361567b565b60008051602061589183398151915280546001600160a01b0319811690915581906001600160a01b03167f8be0079c531659141344cd1fd0a4f28419497f9722a3daafe3b4186f6b6457e08280a380f35b80fd5b3461037e57602036600319011261037e57600435611a6481610465565b611a6c61567b565b6001600160a01b03811615611aa85760268054640100000000600160c01b03191660209290921b640100000000600160c01b0316919091179055005b60405162461bcd60e51b815260206004820152602660248201527f547265617375727920616464726573732063616e2774206265207a65726f206160448201526564647265737360d01b6064820152608490fd5b3461037e57602036600319011261037e576020611b4a600435611b1e81610555565b600054611b4590336001600160a01b039182161490811561062d57811561061f57506130cb565b613a8f565b6040516001600160801b039091168152f35b3461037e57604036600319011261037e57611b78600435610370565b602060405160008152f35b3461037e5760a036600319011261037e57611b9d36610427565b506064356001600160401b03811161037e57611bbd903690600401610438565b50506020608435611bcd81610465565b6040516001600160a01b0390911630148152f35b3461037e5760a036600319011261037e57610019600435611c0181610465565b602435611c0d81610465565b611c8d60443591611c1d83610465565b60643592611c2a84610465565b60843594611c3786610465565b611c3f61567b565b600280546001600160a01b03199081166001600160a01b0393841617909155600680548216948316949094179093556028805484169682169690961790955560038054909216908516179055565b60058054919092166001600160a01b03166001600160a01b0319909116179055565b3461037e5761010036600319011261037e57600435611ccd81610465565b60243590611cda82610465565b604435611ce681610465565b606435611cf281610465565b608435611cfe81610465565b60a43590611d0b82610465565b60c43592611d1884610465565b60e43594611d2586610465565b60008051602061595183398151915254976001600160401b0360ff8a60401c1615991680159081611e34575b6001149081611e2a575b159081611e21575b50611e0f57600080516020615951833981519152805467ffffffffffffffff19166001179055611d979789611dea57612ea8565b611d9d57005b600080516020615951833981519152805460ff60401b19169055604051600181527fc7f505b2f371ae2175ee4913f4499e1f2633a7b5936321eed1cdaeb6115181d2908060208101610ccc565b600080516020615951833981519152805460ff60401b1916600160401b179055612ea8565b60405163f92ee8a960e01b8152600490fd5b90501538611d63565b303b159150611d5b565b8a9150611d51565b3461037e57600036600319011261037e57600080516020615891833981519152546040516001600160a01b039091168152602090f35b3461037e5761022036600319011261037e57600435611e9081610465565b60243590611e9d8261082c565b6101e036604319011261037e5761001991611eb661109f565b91611ebf61083d565b8352611ec961132a565b6020840152611ed6611337565b6040840152611ee361084a565b6060840152611ef0611344565b6080840152611efd611351565b60a0840152611f0a61135e565b60c0840152611f1761055f565b60e0840152611f2461136c565b610100840152611f3261056f565b610120840152611f40610857565b610140840152611f4e610865565b610160840152611f5c61137a565b610180840152611f6a611388565b6101a0840152611f78611396565b6101c08401526135eb565b3461037e57600036600319011261037e576020600d54604051908152f35b3461037e57600036600319011261037e576020601e54604051908152f35b3461037e57600036600319011261037e57601f546040516001600160801b039091168152602090f35b60005b838110611ffb5750506000910152565b8181015183820152602001611feb565b9060209161202481518092818552858086019101611fe8565b601f01601f1916010190565b3461037e57600036600319011261037e57610b8f60405161205081610fe8565b60058152640352e302e360dc1b602082015260405191829160208352602083019061200b565b3461037e57604036600319011261037e5760043561209381610465565b602435906120a082610555565b6000546001600160a01b0391908216331480156120fa575b80156120ed575b6120c8906130cb565b16600052600b60205260036040600020019060ff801983541691151516179055600080f35b50601b54821633146120bf565b50816008541633146120b8565b3461037e57602036600319011261037e576000546004359061214390336001600160a01b039182161490811561062d57811561061f57506130cb565b6010548181018091116105f8576010556020549081018091116105f857602055005b60043590600582101561037e57565b3590600582101561037e57565b604090608319011261037e576040519061219a82610fe8565b816084356121a781610465565b8152602060a435910152565b604090602319011261037e57604051906121cc82610fe8565b816024356121d981610465565b81526020604435910152565b604090606319011261037e57604051906121fe82610fe8565b8160643561220b81610465565b81526020608435910152565b919082604091031261037e5760405161222f81610fe8565b6020808294803561223f81610465565b84520135910152565b3461037e5761010036600319011261037e5760043561226681610370565b602435600581101561037e57604036604319011261037e576040519161228b83610fe8565b60443561229781610465565b835260643560208401526122aa36612181565b9160c435926001600160401b03841161037e576040946122d16122e4953690600401611100565b9260e435946122df86610555565b614afe565b6122fa8251809260208091805184520151910152565bf35b3461037e57602036600319011261037e5763ffffffff60043561231e81610370565b16600052601a6020526020604060002054604051908152f35b608036600319011261037e5760043560243561235281610465565b6044359161235f83611319565b60643561236b8161082c565b6123736130b2565b50600080546001600160a01b039290831633148015612722575b8015612715575b61239d906130cb565b6123a884341161312f565b6123c86123c460036123b988612dcf565b015460081c60ff1690565b1590565b156126bd576123f460036123db87612dcf565b01805469ffffffffffffffff0000191662010000179055565b600195612415600361240588612dcf565b01805461ff001916610100179055565b600f5461242e90610bac906001600160801b03166131b4565b601f5461244790610be7906001600160801b03166131b4565b61245086612dcf565b8581549061245d916131eb565b90556001600160801b03858116929083896124778a612dcf565b6001019061249791906001600160401b0316600052602052604060002090565b906124a1916131f8565b8216866124ae8183613263565b600e54906124bb916131eb565b600e556124c791613263565b601e54906124d4916131eb565b601e5585600d54906124e5916131eb565b600d5585601d54906124f6916131eb565b601d558761250388612dcf565b6001019061252391906001600160401b0316600052602052604060002090565b9061254391906001600160401b03166001600160401b0319825416179055565b808761254e88612dcf565b6001019061256e91906001600160401b0316600052602052604060002090565b6002019061257b916131cc565b61258491613276565b8561258e86612dcf565b600101906125ae91906001600160401b0316600052602052604060002090565b600101906125bb916131cc565b6125c483613221565b606490046125d181613d96565b6125da90613fc9565b6125e2615343565b6125eb9061535d565b60265463ffffffff1691816125fe611092565b91808352806020840152612610611092565b9080825260208201526126239285614a02565b61262b6132dc565b612634936148d4565b506040519182528216907fe1fffcc4923d04b559f4d29a8bfc6cda04eb5b0d3c460751c2402c5c5cc9109c90602090a261266d90612dcf565b6003015460081c60ff1690612680611092565b91151582526001600160401b03166020820152604051610b8f81928291909160206001600160401b03816040840195805115158552015116910152565b60036126c886612dcf565b0161270f6126e96126e483546001600160401b039060101c1690565b61319c565b825469ffffffffffffffff00001916601082901b69ffffffffffffffff00001617909255565b95612447565b50601b5483163314612394565b508260085416331461238d565b3461037e5760006020366003190112611a445760043561274e81610465565b61275661567b565b6019546001600160a01b0390811691839190833b156127a75760249083604051958694859363ca5eb5e160e01b85521660048401525af18015610c275761279b575080f35b6127a490610fd0565b80f35b8280fd5b3461037e57604036600319011261037e576004356024356127cb81610555565b6000546127f290336001600160a01b039182161490811561062d57811561061f57506130cb565b6127fd821515613878565b15612814576023549081018091116105f857602355005b6023549081018091116105f857602355005b3461037e57612834366113af565b9061283d61567b565b6001600160a01b031680151580612905575b61285890613ae5565b6014546001600160801b03909216918083116128ad5761287b83612880926133b9565b601455565b60008080809481945af16128926133f5565b501561289b5780f35b6040516357a507f360e11b8152600490fd5b60405162461bcd60e51b815260206004820152602a60248201527f547265617375727920646f6e2774206861766520656e6f75676820696e746572604482015269195cdd08185b5bdd5b9d60b21b6064820152608490fd5b506001600160801b038216151561284f565b3461037e57612925366113af565b600080546001600160a01b03929190831633148015612a66575b8015612a59575b61294f906130cb565b600554612964906001600160a01b0316611421565b6040516370a0823160e01b8082523060048301529391602091908290829060249082905afa8015610c27576129a0918591612a3c575b50613c01565b5060065481906129b8906001600160a01b0316611421565b604051958652306004870152859060249082905afa8015610c2757610b8f96612a1185946129f6869594610b709987968792612a1f575b5050613cc9565b50612a0b612a048285614223565b91846144f0565b906131eb565b968791165af1610b6a6133f5565b612a359250803d1061127a5761126b8183611071565b38806129ef565b612a539150833d851161127a5761126b8183611071565b3861299a565b50601b5483163314612946565b508260085416331461293f565b3461037e57604036600319011261037e576118fc6020600435612a9581610465565b60005460243591906001600160a01b0390811633148015612aff575b8015612af2575b612ac1906130cb565b8116151580612ae9575b612ad490613ae5565b6004546118dd906001600160a01b0316611421565b50811515612acb565b50601b5481163314612ab8565b5080600854163314612ab1565b3461037e57602036600319011261037e57610019600435612b2c81610465565b612b3461567b565b615607565b61056d909291926040806080830195805184526001600160401b036020820151166020850152015191019060208091805184520151910152565b60a036600319011261037e57612b87612165565b612b90366121b3565b90612b9a366121e5565b91612ba36146f6565b506000546001600160a01b0390811633148015612dc2575b8015612db5575b612bcb906130cb565b604092835191612bf283612be4888786602085016147d2565b03601f198101855284611071565b612bfa6130b2565b956060612c06846132cd565b600284148015612da2575b15612d6f5750612cc59650612c2c612c27615343565b6153ed565b90602654958763ffffffff881693612c50611421611421855160018060a01b031690565b906020840151612c5e6110ac565b63ffffffff88168152926020840152808484015260608301526080820152612c846147f0565b60a0820152612c916147f0565b60c0820152600154612cab906001600160a01b0316611421565b825180809d8194633b6f743b60e01b8352600483016148b7565b03915afa988915610c2757610b8f99612d3598612d1d96612d1593600093612d40575b50612d0a612cfc612cf7615343565b615422565b93516001600160801b031690565b9160201c1691615457565b948593614ad4565b905b3392612d3060265463ffffffff1690565b615132565b905191829182612b39565b612d619193508c8d3d10612d68575b612d598183611071565b810190614836565b9138612ce8565b503d612d4f565b915050612d359350600382612d87610b8f98946132cd565b03612d1f5750612d9d612d98615343565b6153b8565b612d1f565b50612dac846132cd565b60048414612c11565b50601b5481163314612bc2565b5080600854163314612bbb565b6001600160a01b03166000908152600b6020526040902090565b3461037e57602036600319011261037e57600435612e0681610465565b60018060a01b0316600052600b60205260a060406000206001600160401b038154916003600282015491015490604051938452602084015260ff81161515604084015260ff8160081c161515606084015260101c166080820152f35b3461037e57606036600319011261037e576020612e7e36610427565b63ffffffff8135612e8e81610370565b16600052601a825260406000205482604051920135148152f35b9690949291959395612eb86156b4565b612ec06156b4565b612ec933615607565b612ed16156b4565b612ed96156b4565b612ee16156b4565b6001600160a01b0394851680156130a057601980546001600160a01b0319166001600160a01b039092169190911790558482161561308e57601954612f2e906001600160a01b0316611421565b803b1561037e5760405163ca5eb5e160e01b81526001600160a01b039390931660048401526000908390602490829084905af1978815610c27578561303397612fcd82612fef94612fab613011996130559f99849a61307b575b50600880546001600160a01b0319166001600160a01b0392909216919091179055565b60008054919092166001600160a01b03166001600160a01b0319909116179055565b60018054919092166001600160a01b03166001600160a01b0319909116179055565b60278054919092166001600160a01b03166001600160a01b0319909116179055565b60048054919092166001600160a01b03166001600160a01b0319909116179055565b601b80546001600160a01b0319166001600160a01b0392909216919091179055565b613066670de0b6b3a7640000601655565b61056d6b033b2e3c9fd0803ce8000000601755565b80610c1b61308892610fd0565b38612f88565b604051632d618d8160e21b8152600490fd5b604051638ad182f960e01b8152600490fd5b604051906130bf82610fe8565b60006020838281520152565b156130d257565b60405162461bcd60e51b815260206004820152602f60248201527f546869732066756e6374696f6e2063616e206f6e6c792063616c6c656420627960448201526e20436f726520636f6e74726163747360881b6064820152608490fd5b1561313657565b60405162461bcd60e51b815260206004820152602260248201527f54726561737572793a20446f6e2774206861766520656e6f756768204c5a2066604482015261656560f01b6064820152608490fd5b634e487b7160e01b600052601160045260246000fd5b6001600160401b038091169081146105f85760010190565b6001600160801b039081169081146105f85760010190565b80546001600160801b0319166001600160801b03909216919091179055565b919082018092116105f857565b8054600160401b600160c01b03191660409290921b600160401b600160c01b0316919091179055565b906019820291808304601914901517156105f857565b906032820291808304603214901517156105f857565b906064820291808304606414901517156105f857565b818102929181159184041417156105f857565b6001600160801b0391821690821602908116919082036105f857565b634e487b7160e01b600052601260045260246000fd5b81156132b2570490565b613292565b634e487b7160e01b600052602160045260246000fd5b600511156132d757565b6132b7565b604051906132e98261103a565b601d548252601e546020830152601f546001600160801b03166040830152816020546060820152602154608082015260225460a082015260235460c082015260245460e0820152610100602554910152565b1561334257565b60405162461bcd60e51b815260206004820152601a60248201527f43616e6e6f74207769746864726177207a65726f2045746865720000000000006044820152606490fd5b1561338e57565b60405162461bcd60e51b81526020600482015260006024820152604490fd5b6040513d6000823e3d90fd5b919082039182116105f857565b6001600160801b031680156105f8576000190190565b6001600160801b0391821690821601919082116105f857565b3d15613420573d90613406826110e5565b916134146040519384611071565b82523d6000602084013e565b606090565b1561342c57565b60405162461bcd60e51b81526020600482015260146024820152732330b4b632b2103a379039b2b7321022ba3432b960611b6044820152606490fd5b9081602091031261037e575190565b9081606091031261037e5760408051916134908361101f565b8051835260208101516134a281611319565b602084015201516134b281611319565b604082015290565b6001600160801b03918216919082156132b257160490565b60008052600c60205260008051602061591183398151915254806134f857505060175490565b81039081116105f85761350e6017548092613263565b60008052600c602052600080516020615911833981519152549081156132b2570481018082116105f85760008052600c6020526132a89060056000805160206158518339815191525b015490613263565b6001600052600c6020526000805160206158d1833981519152548061358657505060175490565b81039081116105f85761359c6017548092613263565b6001600052600c6020526000805160206158d1833981519152549081156132b2570481018082116105f8576001600052600c6020526132a8906005600080516020615871833981519152613557565b6101c0600661364b61056d959461371b9460018060a01b039081600054163314801561386b575b801561385e575b613622906130cb565b16600052600b6020526001604060002001906001600160401b0316600052602052604060002090565b61367c61365f86516001600160401b031690565b825467ffffffffffffffff19166001600160401b03909116178255565b6020850151613694906001600160801b0316826131f8565b60408501516136ec9060018301906136b6906001600160801b03165b826131cc565b60608701516001600160401b0316815467ffffffffffffffff60801b191660809190911b67ffffffffffffffff60801b16179055565b608085015161373b90600283019061370c906001600160801b03166136b0565b60a08701516001600160801b03165b81546001600160801b031660809190911b6001600160801b031916179055565b60c085015161377c90600383019061375b906001600160801b03166136b0565b60e08701511515815460ff60801b191690151560801b60ff60801b16179055565b6101008501516137ff90600483019061379d906001600160801b03166136b0565b6137c86137ae610120890151151590565b825460ff60801b191690151560801b60ff60801b16178255565b6101408701516001600160401b0316815467ffffffffffffffff60881b191660889190911b67ffffffffffffffff60881b16179055565b6138336005820161381e61365f6101608901516001600160401b031690565b6101808701516001600160801b0316906131f8565b6101a085015191019390613850906001600160801b0316856131cc565b01516001600160801b031690565b50601b5482163314613619565b5081600854163314613612565b1561387f57565b60405162461bcd60e51b815260206004820152602260248201527f54726561737572793a416d6f756e742073686f756c64206e6f74206265207a65604482015261726f60f01b6064820152608490fd5b9061056d6138db61109f565b92805490613a0a60066001600160401b039261390284861689906001600160401b03169052565b6001600160801b03604095861c811660208a01526001820154808216968a0196909652608095861c85166001600160401b031660608a01526002820154808216878b0152861c60a08a015294936139f49086906139c081886139a98e60038901548781166001600160801b031660c0830152831c60ff16151560e082015260048901548781166001600160801b03166101008301529283901c60ff16151561012090910152565b60881c166101408d01906001600160401b03169052565b6139de60058501549182166101608d01906001600160401b03169052565b60401c166101808a019060018060801b03169052565b01549283166001600160801b03166101a0870152565b1c6001600160801b03166101c0840152565b600054613a4390336001600160a01b039182161490811561062d57811561061f57506130cb565b600c6020526000805160206159318339815191525460016000526000805160206158f1833981519152546113d4916001600160801b03908116911680821015613a8a575090565b905090565b600c6020526000805160206159318339815191525460016000526000805160206158f1833981519152546001600160801b039182169291169015613ad95780821115613a8a575090565b80821015613a8a575090565b15613aec57565b60405162461bcd60e51b815260206004820152602260248201527f496e7075742061646472657373206f7220616d6f756e7420697320696e76616c6044820152611a5960f21b6064820152608490fd5b9081602091031261037e57516113d481610555565b6001600160a01b039091168152602081019190915260400190565b15613b7357565b60405162461bcd60e51b815260206004820152600e60248201526d105c1c1c9bdd994819985a5b195960921b6044820152606490fd5b15613bb057565b60405162461bcd60e51b815260206004820152602360248201527f547265617375727920646f6e2774206861766520656e6f75676820696e746572604482015262195cdd60ea1b6064820152608490fd5b60008052600c60205260008051602061591183398151915254613c4157506017545b60008052600c60205260008051602061593183398151915281905590565b60008052600c6020526000805160206159118339815191525481039081116105f857613c706017548092613263565b60008052600c602052906003600080516020615851833981519152015480156132b257613ca561157791613cc49404836131eb565b60008052600c6020526005600080516020615851833981519152613557565b613c23565b6001600052600c6020526000805160206158d183398151915254613d0b57506017545b6001600052600c6020526000805160206158f183398151915281905590565b6001600052600c6020526000805160206158d18339815191525481039081116105f857613d3b6017548092613263565b6001600052600c602052906003600080516020615871833981519152015480156132b257613d7161157791613d919404836131eb565b6001600052600c6020526005600080516020615871833981519152613557565b613cec565b600080549091906001600160a01b0390811633148015613fa7575b8015613f9a575b613dc1906130cb565b600554613dd6906001600160a01b0316611421565b6040516370a0823160e01b8082523060048301529360209390928490839060249082905afa918215610c2757600492613e15918891613f835750613c01565b506003548490613e2d906001600160a01b0316611421565b60405163026b1d5f60e01b815293849182905afa918215610c27578692613f54575b50811615613f4257600254613e6c906001600160a01b0316611421565b90813b15613f3e5760405163474cf53d60e01b81526001600160a01b039190911660048201523060248201526000604482015291859183916064918391905af18015610c2757613f2b575b506005548190613ecf906001600160a01b0316611421565b604051938452306004850152839060249082905afa928315610c275792613f0e575b505060008052600c60205260008051602061591183398151915255565b613f249250803d1061127a5761126b8183611071565b3880613ef1565b80610c1b613f3892610fd0565b38613eb7565b8580fd5b604051630a20c02560e21b8152600490fd5b613f75919250843d8611613f7c575b613f6d8183611071565b810190613fb4565b9038613e4f565b503d613f63565b612a539150863d881161127a5761126b8183611071565b50601b5481163314613db8565b5080600854163314613db1565b9081602091031261037e57516113d481610465565b60008054909190613ff490336001600160a01b039182161490811561062d57811561061f57506130cb565b600654614009906001600160a01b0316611421565b6040516370a0823160e01b808252306004830152926020929091908390829060249082905afa8015610c2757614046918691614206575b50613cc9565b5060285461405c906001600160a01b0316611421565b803b1561420257848291600460405180948193630d0e30db60e41b83525af18015610c27576141ef575b506028546140d690839083906140a4906001600160a01b0316611421565b6006546140b9906001600160a01b0316611421565b8860405180968195829463095ea7b360e01b845260048401613b51565b03925af18015610c27576141d2575b506006546140fb906001600160a01b0316611421565b602854614110906001600160a01b0316611421565b813b15613f3e5791859161413b9383604051809681958294631e573fb760e31b845260048401613b51565b03925af18015610c27576141bf575b506006548190614162906001600160a01b0316611421565b604051938452306004850152839060249082905afa928315610c2757926141a2575b50506001600052600c6020526000805160206158d183398151915255565b6141b89250803d1061127a5761126b8183611071565b3880614184565b80610c1b6141cc92610fd0565b3861414a565b6141e890833d851161182e576118208183611071565b50386140e5565b80610c1b6141fc92610fd0565b38614086565b8480fd5b61421d9150843d861161127a5761126b8183611071565b38614040565b60275490919061423b906001600160a01b0316611421565b60408051630ecc535f60e01b81526001600160a01b039490941660048086019190915290939091606090829060249082905afa8015610c27576142e0916000916144d2575b506115776142d06142a261149260209761148c8987015160018060801b031690565b926142ca6142c36142be601754809760018060801b0316613263565b613237565b915161324d565b906132a8565b6142db6109d3613a1c565b613263565b9281836142f761142160035460018060a01b031690565b835163026b1d5f60e01b815294859182905afa928315610c27576000936144b3575b506001600160a01b038316156144a5576005546143779085908790614346906001600160a01b0316611421565b60025461435b906001600160a01b0316611421565b6000875180968195829463095ea7b360e01b84528a8401613b51565b03925af18015610c2757614488575b5060025461439c906001600160a01b0316611421565b803b1561037e578251630402806960e51b81526001600160a01b0390941682850190815260208101879052306040820152600091859182908490829060600103925af1918215610c2757614427938593614475575b50600554614407906001600160a01b0316611421565b90516370a0823160e01b8152309281019283529384928391829160200190565b03915afa918215610c2757600092614458575b505060008052600c6020526000805160206159118339815191525590565b61446e9250803d1061127a5761126b8183611071565b388061443a565b80610c1b61448292610fd0565b386143f1565b61449e90853d871161182e576118208183611071565b5038614386565b9051630a20c02560e21b8152fd5b6144cb919350843d8611613f7c57613f6d8183611071565b9138614319565b6144ea915060603d81116115e4576115d68183611071565b38614280565b60275461453a929160609161450d906001600160a01b0316611421565b604051630ecc535f60e01b81526001600160a01b0390921660048301529093849190829081906024820190565b03915afa908115610c2757614575926000926146c6575b506020820151611577916142d0916142a291611492916001600160801b031661148c565b60065461458a906001600160a01b0316611421565b60285461459f906001600160a01b0316611421565b90803b1561037e57826000916145cc938360405180968195829463f3fef3a360e01b845260048401613b51565b03925af18015610c27576146b3575b506006546145f1906001600160a01b0316611421565b6040516370a0823160e01b815230600482015290602090829060249082905afa908115610c2757600091614695575b506001600052600c6020526000805160206158d183398151915255602854614650906001600160a01b0316611421565b803b1561037e57604051632e1a7d4d60e01b815260048101839052906000908290602490829084905af18015610c2757614688575090565b80610c1b6113d492610fd0565b6146ad915060203d811161127a5761126b8183611071565b38614620565b80610c1b6146c092610fd0565b386145db565b6115779192506142a26114926146ec6142d09360603d81116115e4576115d68183611071565b9493505050614551565b604051906147038261101f565b81600081526000602082015260406147196130b2565b910152565b9060058210156132d75752565b9161018061056d9294936147b76101c08201966147488360019052565b601d546020840152601e546040840152601f546001600160801b0316606084015260208054608085015260215460a085015260225460c085015260235460e085015260245461010085015260255461012085015281516001600160a01b03166101408501520151610160830152565b82516001600160a01b03169101908152602091820151910152565b610180906147b761056d9496959396614748836101c081019961471e565b604051906147fd82610fe8565b6002825261060f60f31b6020830152565b919082604091031261037e5760405161482681610fe8565b6020808294805184520151910152565b9060408282031261037e576113d49161480e565b6113d49163ffffffff825116815260208201516020820152604082015160408201526060820151606082015260c06148a6614894608085015160e0608086015260e085019061200b565b60a085015184820360a086015261200b565b9201519060c081840391015261200b565b919060206148cf60009260408652604086019061484a565b930152565b9190926113d4936148e36146f6565b5060005461490b90336001600160a01b039182161490811561062d57811561061f57506130cb565b6149ed60405161491a81610fe8565b60008152600060208201526149d06040519161493583610fe8565b6000835260006020840152604051946149516020870160019052565b805160408701526020810151606087015260018060801b036040820151166080870152606081015160a0870152608081015160c087015260a081015160e087015260c081015190610100918288015260e081015161012088015201516101408601526101608501906020809160018060a01b0381511684520151910152565b80516001600160a01b03166101a0840152602001516101c0830152565b6101c081526149fb81611003565b3393615132565b614aa792614a3794614a126130b2565b506040958694614a2986519485926020840161472b565b03601f198101845283611071565b614a3f6130b2565b50601954614a55906001600160a01b0316611421565b91614a5f84615078565b614a76614a6a6110d8565b63ffffffff9096168652565b60208501528484015260608301526000608083015282518080958194631bb8518b60e31b83523090600484016150b0565b03915afa918215610c2757600092614abe57505090565b6113d49250803d10612d6857612d598183611071565b9091614a2994614a37614aa79594614aea6130b2565b5060409788968751958693602085016147d2565b9190614b2b95614aa795614b39614b8f93614b176130b2565b506040998a988951978893602085016147d2565b03601f198101865285611071565b614b416130b2565b50601954614b57906001600160a01b0316611421565b93614b6186615078565b614b78614b6c6110d8565b63ffffffff9098168852565b602087015286860152606085015215156080840152565b82518080958194631bb8518b60e31b83523090600484016150b0565b356113d481610370565b6040519061012082018281106001600160401b03821117610fe357604052816101006000918281528260208201528260408201528260608201528260808201528260a08201528260c08201528260e08201520152565b808203926101c0841261037e57614c2182612174565b936101208091601f19011261037e576113d490614c3c6110cb565b906020850135825260408501356020830152614c5a606086016113a4565b60408301526080850135606083015260a0850135608083015260c085013560a083015260e085013560c0830152610100908186013560e08401528501359082015293610180614cad826101408701612217565b9401612217565b8051601d55602080820151601e556040820151601f80546001600160801b0319166001600160801b039290921691909117905560608201519055608081015160215560a081015160225560c081015160235560e08101516024556101000151602555565b919060808382031261037e576040614719815192614d358461101f565b828496805186526020810151614d4a8161082c565b60208701520161480e565b919060c08382031261037e57806080614d716113d49386614d18565b940161480e565b919392614da7614d9260609360808652608086019061484a565b95602085019060208091805184520151910152565b6001600160a01b0316910152565b614de591614dc1614bb5565b50614dca6130b2565b50614dd36130b2565b50614ddc6130b2565b50810190614c0b565b9092614df0816132cd565b60028103614f45575050614e0390614cb4565b614e0e612c27615343565b60265463ffffffff16906020614e30611421611421865160018060a01b031690565b93015192614e4b614e3f6110ac565b63ffffffff9094168452565b6020830152604092808484015260608301526080820152614e6a6147f0565b60a0820152614e776147f0565b60c0820152600154614e91906001600160a01b0316611421565b8251633b6f743b60e01b81529190838380614eaf85600483016148b7565b0381845afa8015610c2757614ee99460c094600092614f26575b508151905180968195829463c7c7f5b360e01b8452309160048501614d78565b03925af18015610c2757614efb575b50565b614f1b9060c03d8111614f1f575b614f138183611071565b810190614d55565b5050565b503d614f09565b81614f3e9293503d8411612d6857612d598183611071565b9038614ec9565b614f51819492946132cd565b6003810361502b57505090614f68614ef892614cb4565b614fa8614f76612d98615343565b602092614fa2611421611421614f948785015160018060801b031690565b93516001600160a01b031690565b91615457565b614fb0611092565b90615023816000948585528581860152614ff3614fcb611092565b958787528783880152614fe560405197889285840161472b565b03601f198101875286611071565b60265463ffffffff1695615005611092565b908082528083830152615016611092565b9281845283015286614a02565b913393615132565b8061503a6004929593956132cd565b1461504457505050565b615050614e0e92614cb4565b61505b612d98615343565b90614fa2611421611421614f94602085015160018060801b031690565b63ffffffff1680600052601a602052604060002054908115615098575090565b6024906040519063f6ff4fb760e01b82526004820152fd5b906020909392936040835263ffffffff815116604084015281810151606084015260806151046150ee604084015160a08488015260e087019061200b565b6060840151868203603f190160a088015261200b565b910151151560c08401526001600160a01b03909416910152565b9060808282031261037e576113d491614d18565b6080936151a46151c096946151456146f6565b506020615152845161520d565b9301908151806151fe575b50601954615173906001600160a01b0316611421565b9561517d86615078565b925115159261518d614b6c6110d8565b602087015260408601526060850152151586840152565b6040518096819582946302637a4560e41b8452600484016150b0565b03925af1908115610c27576000916151d6575090565b6113d4915060803d81116151f7575b6151ef8183611071565b81019061511e565b503d6151e5565b6152079061522f565b3861515d565b8034106152175790565b6040516304fb820960e51b8152346004820152602490fd5b60195460405163393f876560e21b81526001600160a01b039182169260209290918381600481885afa908115610c2757600091615326575b501692831561531457600080916152bc9360405190868201926323b872dd60e01b845233602484015260448301526064820152606481526152a781611056565b519082875af16152b56133f5565b90846157a1565b9081519182151591826152f8575b505090506152d55750565b604051635274afe760e01b81526001600160a01b03919091166004820152602490fd5b6123c492508061530c948301019101613b3c565b8038806152ca565b6040516329b99a9560e11b8152600490fd5b61533d9150843d8611613f7c57613f6d8183611071565b38615267565b604051600360f01b6020820152600281526113d481610fe8565b61ffff60038161536c84615804565b16036153975750604051610c3560861b6020820152601081526113d49161539282610fe8565b6155c5565b6153a2602492615804565b604051633a51740d60e01b815291166004820152fd5b61ffff6003816153c784615804565b16036153975750604051611fbd60851b6020820152601081526113d49161539282610fe8565b61ffff6003816153fc84615804565b1603615397575060405161075360851b6020820152601081526113d49161539282610fe8565b61ffff60038161543184615804565b1603615397575060405161557360841b6020820152601081526113d49161539282610fe8565b61ffff9260038461546784615804565b160361550f5760405160809390931b6001600160801b031916602084015260308084019190915282526154998261101f565b6003836154a583615804565b16036155035781518381116154e45783166001019283116105f8576154d66113d4926040519485936020850161551b565b03601f198101835282611071565b604490604051906306dfcc6560e41b8252601060048301526024820152fd5b826153a2602492615804565b6024846153a284615804565b602090615532600495949382815194859201611fe8565b600160f81b910190815260f09190911b6001600160f01b0319166001820152600160f91b600382015281519161557090839085840190602001611fe8565b010190565b60209061558c600495949382815194859201611fe8565b600160f81b910181815260f09290921b6001600160f01b0319166001830152600382015281519161557090839085840190602001611fe8565b9061ffff916003836155d683615804565b16036155035781518381116154e45783166001019283116105f8576154d66113d49260405194859360208501615575565b6001600160a01b039081169081156156625760008051602061589183398151915280546001600160a01b031981168417909155167f8be0079c531659141344cd1fd0a4f28419497f9722a3daafe3b4186f6b6457e0600080a3565b604051631e4fbdf760e01b815260006004820152602490fd5b600080516020615891833981519152546001600160a01b0316330361569c57565b60405163118cdaa760e01b8152336004820152602490fd5b60ff6000805160206159518339815191525460401c16156156d157565b604051631afcd79f60e31b8152600490fd5b90813b15615766576000805160206158b183398151915280546001600160a01b0319166001600160a01b0384169081179091557fbc7cd75a20ee27fd9adebab32041f755214dbc6bffa90cc0225b39da2e5c2d3b600080a280511561574b57614ef891615787565b50503461575457565b60405163b398979f60e01b8152600490fd5b604051634c9c8ce360e01b81526001600160a01b0383166004820152602490fd5b6000806113d493602081519101845af461579f6133f5565b915b906157c857508051156157b657805190602001fd5b604051630a12f52160e11b8152600490fd5b815115806157fb575b6157d9575090565b604051639996b31560e01b81526001600160a01b039091166004820152602490fd5b50803b156157d1565b6002815110615814576002015190565b60405162461bcd60e51b8152602060048201526014602482015273746f55696e7431365f6f75744f66426f756e647360601b6044820152606490fdfe13649b2456f1b42fef0f0040b3aaeabcd21a76a0f3f5defd4f583839455116e8d421a5181c571bba3f01190c922c3b2a896fc1d84e86c9f17ac10e67ebef8b5c9016d09d72d40fdae2fd8ceac6b6234c7706214fd39c1cd1e609a0528c199300360894a13ba1a3210667c828492db98dca3e2076cc3735a920a3ca505d382bbcd421a5181c571bba3f01190c922c3b2a896fc1d84e86c9f17ac10e67ebef8b5fd421a5181c571bba3f01190c922c3b2a896fc1d84e86c9f17ac10e67ebef8b6113649b2456f1b42fef0f0040b3aaeabcd21a76a0f3f5defd4f583839455116eb13649b2456f1b42fef0f0040b3aaeabcd21a76a0f3f5defd4f583839455116edf0c57e16840df040f15088dc2f81fe391c3923bec73e23a9662efc9c229c6a00a2646970667358221220d46c65d67a14683bc0f7d2d8bc4b093d48a0ffbca13fd654cbea797c0ce9240664736f6c63430008140033","linkReferences":{}},"methodIdentifiers":{"UPGRADE_INTERFACE_VERSION()":"ad3cb1cc","abondUSDaPool()":"58a0e6cc","allowInitializePath((uint32,bytes32,uint64))":"ff7bd03d","approveUSDa(address,uint256)":"5e44fb05","approveUsdt(address,uint256)":"e6136105","borrowing(address)":"f750e3ab","calculateYieldsForExternalProtocol(address,uint128)":"5303dfea","deposit(uint256,address,uint128,uint64)":"bbfe8b90","endpoint()":"5e280f11","getBalanceInTreasury()":"0f274495","getBorrowing(address,uint64)":"4d5c56a5","getExternalProtocolCumulativeRate(bool)":"7b85b739","initialize(address,address,address,address,address,address,address,address)":"8a29e2de","isComposeMsgSender((uint32,bytes32,uint64),bytes,address)":"82413eac","lzReceive((uint32,bytes32,uint64),bytes32,bytes,address,bytes)":"13137d65","nextNonce(uint32,bytes32)":"7d25a05e","noOfBorrowers()":"45aeb0ce","oAppVersion()":"17442b70","oftOrNativeReceiveFromOtherChains(uint8,(address,uint256),(address,uint256))":"f5dee493","omniChainTreasuryEthProfitsOfLiquidators()":"34b5244c","omniChainTreasuryNoOfBorrowers()":"a9bd8672","omniChainTreasuryTotalVolumeOfBorrowersAmountinUSD()":"9cac6251","omniChainTreasuryTotalVolumeOfBorrowersAmountinWei()":"40d86d7b","owner()":"8da5cb5b","peers(uint32)":"bb0b6a53","proxiableUUID()":"52d1902d","quote(uint32,uint8,(address,uint256),(address,uint256),bytes,bool)":"ba291f6f","renounceOwnership()":"715018a6","setDelegate(address)":"ca5eb5e1","setDstEid(uint32)":"0d14c92e","setDstTreasuryAddress(address)":"73cf144a","setExternalProtocolAddresses(address,address,address,address,address)":"8715a4a2","setPeer(uint32,bytes32)":"3400288b","totalVolumeOfBorrowersAmountinUSD()":"541b6094","totalVolumeOfBorrowersAmountinWei()":"9a52aed9","transferEthToCdsLiquidators(address,uint128)":"5822b66d","transferOwnership(address)":"f2fde38b","updateAbondUSDaPool(uint256,bool)":"1611ae88","updateDepositDetails(address,uint64,(uint64,uint128,uint128,uint64,uint128,uint128,uint128,bool,uint128,bool,uint64,uint64,uint128,uint128,uint128))":"8fabe74f","updateEthProfitsOfLiquidators(uint256,bool)":"cd0220c9","updateHasBorrowed(address,bool)":"b9127c5c","updateInterestFromExternalProtocol(uint256)":"2a4e173b","updateTotalBorrowedAmount(address,uint256)":"1cd081b2","updateTotalDepositedAmount(address,uint128)":"6cd4ddbc","updateTotalInterest(uint256)":"b9a221eb","updateTotalInterestFromLiquidation(uint256)":"23f1059c","updateUSDaGainedFromLiquidation(uint256,bool)":"1f7330fd","upgradeToAndCall(address,bytes)":"4f1ef286","usdaGainedFromLiquidation()":"4c6b2e64","withdraw(address,address,uint256,uint64)":"2bdc0e66","withdrawExternalProtocolInterest(address,uint128)":"dbc3bac0","withdrawFromExternalProtocol(address,uint128)":"e49ec3b8","withdrawInterest(address,uint256)":"5b730e69"},"storageLayout":{"storage":[{"astId":4465,"contract":"contracts/Core_logic/Treasury.sol:Treasury","label":"borrow","offset":0,"slot":"0","type":"t_contract(IBorrowing)3445"},{"astId":4468,"contract":"contracts/Core_logic/Treasury.sol:Treasury","label":"usda","offset":0,"slot":"1","type":"t_contract(IUSDa)4037"},{"astId":4471,"contract":"contracts/Core_logic/Treasury.sol:Treasury","label":"wethGateway","offset":0,"slot":"2","type":"t_contract(IWrappedTokenGatewayV3)2809"},{"astId":4474,"contract":"contracts/Core_logic/Treasury.sol:Treasury","label":"aavePoolAddressProvider","offset":0,"slot":"3","type":"t_contract(IPoolAddressesProvider)2749"},{"astId":4477,"contract":"contracts/Core_logic/Treasury.sol:Treasury","label":"usdt","offset":0,"slot":"4","type":"t_contract(IERC20)8679"},{"astId":4480,"contract":"contracts/Core_logic/Treasury.sol:Treasury","label":"aToken","offset":0,"slot":"5","type":"t_contract(IERC20)8679"},{"astId":4483,"contract":"contracts/Core_logic/Treasury.sol:Treasury","label":"comet","offset":0,"slot":"6","type":"t_contract(CometMainInterface)3203"},{"astId":4485,"contract":"contracts/Core_logic/Treasury.sol:Treasury","label":"borrowingContract","offset":0,"slot":"7","type":"t_address"},{"astId":4487,"contract":"contracts/Core_logic/Treasury.sol:Treasury","label":"cdsContract","offset":0,"slot":"8","type":"t_address"},{"astId":4489,"contract":"contracts/Core_logic/Treasury.sol:Treasury","label":"compoundAddress","offset":0,"slot":"9","type":"t_address"},{"astId":4491,"contract":"contracts/Core_logic/Treasury.sol:Treasury","label":"aaveWETH","offset":0,"slot":"10","type":"t_address"},{"astId":4496,"contract":"contracts/Core_logic/Treasury.sol:Treasury","label":"borrowing","offset":0,"slot":"11","type":"t_mapping(t_address,t_struct(BorrowerDetails)4374_storage)"},{"astId":4502,"contract":"contracts/Core_logic/Treasury.sol:Treasury","label":"protocolDeposit","offset":0,"slot":"12","type":"t_mapping(t_enum(Protocol)4456,t_struct(ProtocolDeposit)4413_storage)"},{"astId":4504,"contract":"contracts/Core_logic/Treasury.sol:Treasury","label":"totalVolumeOfBorrowersAmountinWei","offset":0,"slot":"13","type":"t_uint256"},{"astId":4506,"contract":"contracts/Core_logic/Treasury.sol:Treasury","label":"totalVolumeOfBorrowersAmountinUSD","offset":0,"slot":"14","type":"t_uint256"},{"astId":4508,"contract":"contracts/Core_logic/Treasury.sol:Treasury","label":"noOfBorrowers","offset":0,"slot":"15","type":"t_uint128"},{"astId":4510,"contract":"contracts/Core_logic/Treasury.sol:Treasury","label":"totalInterest","offset":0,"slot":"16","type":"t_uint256"},{"astId":4512,"contract":"contracts/Core_logic/Treasury.sol:Treasury","label":"totalInterestFromLiquidation","offset":0,"slot":"17","type":"t_uint256"},{"astId":4514,"contract":"contracts/Core_logic/Treasury.sol:Treasury","label":"abondUSDaPool","offset":0,"slot":"18","type":"t_uint256"},{"astId":4516,"contract":"contracts/Core_logic/Treasury.sol:Treasury","label":"ethProfitsOfLiquidators","offset":0,"slot":"19","type":"t_uint256"},{"astId":4518,"contract":"contracts/Core_logic/Treasury.sol:Treasury","label":"interestFromExternalProtocolDuringLiquidation","offset":0,"slot":"20","type":"t_uint256"},{"astId":4520,"contract":"contracts/Core_logic/Treasury.sol:Treasury","label":"externalProtocolDepositCount","offset":0,"slot":"21","type":"t_uint64"},{"astId":4522,"contract":"contracts/Core_logic/Treasury.sol:Treasury","label":"PRECISION","offset":0,"slot":"22","type":"t_uint256"},{"astId":4524,"contract":"contracts/Core_logic/Treasury.sol:Treasury","label":"CUMULATIVE_PRECISION","offset":0,"slot":"23","type":"t_uint256"},{"astId":4528,"contract":"contracts/Core_logic/Treasury.sol:Treasury","label":"externalProtocolCountTotalValue","offset":0,"slot":"24","type":"t_mapping(t_uint256,t_uint256)"},{"astId":5109,"contract":"contracts/Core_logic/Treasury.sol:Treasury","label":"endpoint","offset":0,"slot":"25","type":"t_contract(ILayerZeroEndpointV2)6385"},{"astId":5113,"contract":"contracts/Core_logic/Treasury.sol:Treasury","label":"peers","offset":0,"slot":"26","type":"t_mapping(t_uint32,t_bytes32)"},{"astId":40,"contract":"contracts/Core_logic/Treasury.sol:Treasury","label":"borrowLiquidation","offset":0,"slot":"27","type":"t_address"},{"astId":42,"contract":"contracts/Core_logic/Treasury.sol:Treasury","label":"usdaGainedFromLiquidation","offset":0,"slot":"28","type":"t_uint256"},{"astId":45,"contract":"contracts/Core_logic/Treasury.sol:Treasury","label":"omniChainTreasury","offset":0,"slot":"29","type":"t_struct(OmniChainTreasuryData)4443_storage"},{"astId":50,"contract":"contracts/Core_logic/Treasury.sol:Treasury","label":"dstEid","offset":0,"slot":"38","type":"t_uint32"},{"astId":52,"contract":"contracts/Core_logic/Treasury.sol:Treasury","label":"dstTreasuryAddress","offset":4,"slot":"38","type":"t_address"},{"astId":55,"contract":"contracts/Core_logic/Treasury.sol:Treasury","label":"abond","offset":0,"slot":"39","type":"t_contract(IABONDToken)3325"},{"astId":58,"contract":"contracts/Core_logic/Treasury.sol:Treasury","label":"WETH","offset":0,"slot":"40","type":"t_contract(IWETH9)4113"}],"types":{"t_address":{"encoding":"inplace","label":"address","numberOfBytes":"20"},"t_bool":{"encoding":"inplace","label":"bool","numberOfBytes":"1"},"t_bytes32":{"encoding":"inplace","label":"bytes32","numberOfBytes":"32"},"t_contract(CometMainInterface)3203":{"encoding":"inplace","label":"contract CometMainInterface","numberOfBytes":"20"},"t_contract(IABONDToken)3325":{"encoding":"inplace","label":"contract IABONDToken","numberOfBytes":"20"},"t_contract(IBorrowing)3445":{"encoding":"inplace","label":"contract IBorrowing","numberOfBytes":"20"},"t_contract(IERC20)8679":{"encoding":"inplace","label":"contract IERC20","numberOfBytes":"20"},"t_contract(ILayerZeroEndpointV2)6385":{"encoding":"inplace","label":"contract ILayerZeroEndpointV2","numberOfBytes":"20"},"t_contract(IPoolAddressesProvider)2749":{"encoding":"inplace","label":"contract IPoolAddressesProvider","numberOfBytes":"20"},"t_contract(IUSDa)4037":{"encoding":"inplace","label":"contract IUSDa","numberOfBytes":"20"},"t_contract(IWETH9)4113":{"encoding":"inplace","label":"contract IWETH9","numberOfBytes":"20"},"t_contract(IWrappedTokenGatewayV3)2809":{"encoding":"inplace","label":"contract IWrappedTokenGatewayV3","numberOfBytes":"20"},"t_enum(Protocol)4456":{"encoding":"inplace","label":"enum TreasuryV1.Protocol","numberOfBytes":"1"},"t_mapping(t_address,t_struct(BorrowerDetails)4374_storage)":{"encoding":"mapping","key":"t_address","label":"mapping(address => struct TreasuryV1.BorrowerDetails)","numberOfBytes":"32","value":"t_struct(BorrowerDetails)4374_storage"},"t_mapping(t_enum(Protocol)4456,t_struct(ProtocolDeposit)4413_storage)":{"encoding":"mapping","key":"t_enum(Protocol)4456","label":"mapping(enum TreasuryV1.Protocol => struct TreasuryV1.ProtocolDeposit)","numberOfBytes":"32","value":"t_struct(ProtocolDeposit)4413_storage"},"t_mapping(t_uint256,t_uint256)":{"encoding":"mapping","key":"t_uint256","label":"mapping(uint256 => uint256)","numberOfBytes":"32","value":"t_uint256"},"t_mapping(t_uint32,t_bytes32)":{"encoding":"mapping","key":"t_uint32","label":"mapping(uint32 => bytes32)","numberOfBytes":"32","value":"t_bytes32"},"t_mapping(t_uint64,t_struct(DepositDetails)4358_storage)":{"encoding":"mapping","key":"t_uint64","label":"mapping(uint64 => struct TreasuryV1.DepositDetails)","numberOfBytes":"32","value":"t_struct(DepositDetails)4358_storage"},"t_mapping(t_uint64,t_struct(EachDepositToProtocol)4397_storage)":{"encoding":"mapping","key":"t_uint64","label":"mapping(uint64 => struct TreasuryV1.EachDepositToProtocol)","numberOfBytes":"32","value":"t_struct(EachDepositToProtocol)4397_storage"},"t_struct(BorrowerDetails)4374_storage":{"encoding":"inplace","label":"struct TreasuryV1.BorrowerDetails","numberOfBytes":"128","members":[{"astId":4360,"contract":"contracts/Core_logic/Treasury.sol:Treasury","label":"depositedAmount","offset":0,"slot":"0","type":"t_uint256"},{"astId":4365,"contract":"contracts/Core_logic/Treasury.sol:Treasury","label":"depositDetails","offset":0,"slot":"1","type":"t_mapping(t_uint64,t_struct(DepositDetails)4358_storage)"},{"astId":4367,"contract":"contracts/Core_logic/Treasury.sol:Treasury","label":"totalBorrowedAmount","offset":0,"slot":"2","type":"t_uint256"},{"astId":4369,"contract":"contracts/Core_logic/Treasury.sol:Treasury","label":"hasBorrowed","offset":0,"slot":"3","type":"t_bool"},{"astId":4371,"contract":"contracts/Core_logic/Treasury.sol:Treasury","label":"hasDeposited","offset":1,"slot":"3","type":"t_bool"},{"astId":4373,"contract":"contracts/Core_logic/Treasury.sol:Treasury","label":"borrowerIndex","offset":2,"slot":"3","type":"t_uint64"}]},"t_struct(DepositDetails)4358_storage":{"encoding":"inplace","label":"struct TreasuryV1.DepositDetails","numberOfBytes":"224","members":[{"astId":4329,"contract":"contracts/Core_logic/Treasury.sol:Treasury","label":"depositedTime","offset":0,"slot":"0","type":"t_uint64"},{"astId":4331,"contract":"contracts/Core_logic/Treasury.sol:Treasury","label":"depositedAmount","offset":8,"slot":"0","type":"t_uint128"},{"astId":4333,"contract":"contracts/Core_logic/Treasury.sol:Treasury","label":"depositedAmountUsdValue","offset":0,"slot":"1","type":"t_uint128"},{"astId":4335,"contract":"contracts/Core_logic/Treasury.sol:Treasury","label":"downsidePercentage","offset":16,"slot":"1","type":"t_uint64"},{"astId":4337,"contract":"contracts/Core_logic/Treasury.sol:Treasury","label":"ethPriceAtDeposit","offset":0,"slot":"2","type":"t_uint128"},{"astId":4339,"contract":"contracts/Core_logic/Treasury.sol:Treasury","label":"borrowedAmount","offset":16,"slot":"2","type":"t_uint128"},{"astId":4341,"contract":"contracts/Core_logic/Treasury.sol:Treasury","label":"normalizedAmount","offset":0,"slot":"3","type":"t_uint128"},{"astId":4343,"contract":"contracts/Core_logic/Treasury.sol:Treasury","label":"withdrawed","offset":16,"slot":"3","type":"t_bool"},{"astId":4345,"contract":"contracts/Core_logic/Treasury.sol:Treasury","label":"withdrawAmount","offset":0,"slot":"4","type":"t_uint128"},{"astId":4347,"contract":"contracts/Core_logic/Treasury.sol:Treasury","label":"liquidated","offset":16,"slot":"4","type":"t_bool"},{"astId":4349,"contract":"contracts/Core_logic/Treasury.sol:Treasury","label":"ethPriceAtWithdraw","offset":17,"slot":"4","type":"t_uint64"},{"astId":4351,"contract":"contracts/Core_logic/Treasury.sol:Treasury","label":"withdrawTime","offset":0,"slot":"5","type":"t_uint64"},{"astId":4353,"contract":"contracts/Core_logic/Treasury.sol:Treasury","label":"aBondTokensAmount","offset":8,"slot":"5","type":"t_uint128"},{"astId":4355,"contract":"contracts/Core_logic/Treasury.sol:Treasury","label":"strikePrice","offset":0,"slot":"6","type":"t_uint128"},{"astId":4357,"contract":"contracts/Core_logic/Treasury.sol:Treasury","label":"optionFees","offset":16,"slot":"6","type":"t_uint128"}]},"t_struct(EachDepositToProtocol)4397_storage":{"encoding":"inplace","label":"struct TreasuryV1.EachDepositToProtocol","numberOfBytes":"256","members":[{"astId":4376,"contract":"contracts/Core_logic/Treasury.sol:Treasury","label":"depositedTime","offset":0,"slot":"0","type":"t_uint64"},{"astId":4378,"contract":"contracts/Core_logic/Treasury.sol:Treasury","label":"depositedAmount","offset":8,"slot":"0","type":"t_uint128"},{"astId":4380,"contract":"contracts/Core_logic/Treasury.sol:Treasury","label":"ethPriceAtDeposit","offset":0,"slot":"1","type":"t_uint128"},{"astId":4382,"contract":"contracts/Core_logic/Treasury.sol:Treasury","label":"depositedUsdValue","offset":0,"slot":"2","type":"t_uint256"},{"astId":4384,"contract":"contracts/Core_logic/Treasury.sol:Treasury","label":"tokensCredited","offset":0,"slot":"3","type":"t_uint128"},{"astId":4386,"contract":"contracts/Core_logic/Treasury.sol:Treasury","label":"withdrawed","offset":16,"slot":"3","type":"t_bool"},{"astId":4388,"contract":"contracts/Core_logic/Treasury.sol:Treasury","label":"ethPriceAtWithdraw","offset":0,"slot":"4","type":"t_uint128"},{"astId":4390,"contract":"contracts/Core_logic/Treasury.sol:Treasury","label":"withdrawTime","offset":16,"slot":"4","type":"t_uint64"},{"astId":4392,"contract":"contracts/Core_logic/Treasury.sol:Treasury","label":"withdrawedUsdValue","offset":0,"slot":"5","type":"t_uint256"},{"astId":4394,"contract":"contracts/Core_logic/Treasury.sol:Treasury","label":"interestGained","offset":0,"slot":"6","type":"t_uint128"},{"astId":4396,"contract":"contracts/Core_logic/Treasury.sol:Treasury","label":"discountedPrice","offset":0,"slot":"7","type":"t_uint256"}]},"t_struct(OmniChainTreasuryData)4443_storage":{"encoding":"inplace","label":"struct TreasuryV1.OmniChainTreasuryData","numberOfBytes":"288","members":[{"astId":4426,"contract":"contracts/Core_logic/Treasury.sol:Treasury","label":"totalVolumeOfBorrowersAmountinWei","offset":0,"slot":"0","type":"t_uint256"},{"astId":4428,"contract":"contracts/Core_logic/Treasury.sol:Treasury","label":"totalVolumeOfBorrowersAmountinUSD","offset":0,"slot":"1","type":"t_uint256"},{"astId":4430,"contract":"contracts/Core_logic/Treasury.sol:Treasury","label":"noOfBorrowers","offset":0,"slot":"2","type":"t_uint128"},{"astId":4432,"contract":"contracts/Core_logic/Treasury.sol:Treasury","label":"totalInterest","offset":0,"slot":"3","type":"t_uint256"},{"astId":4434,"contract":"contracts/Core_logic/Treasury.sol:Treasury","label":"totalInterestFromLiquidation","offset":0,"slot":"4","type":"t_uint256"},{"astId":4436,"contract":"contracts/Core_logic/Treasury.sol:Treasury","label":"abondUSDaPool","offset":0,"slot":"5","type":"t_uint256"},{"astId":4438,"contract":"contracts/Core_logic/Treasury.sol:Treasury","label":"ethProfitsOfLiquidators","offset":0,"slot":"6","type":"t_uint256"},{"astId":4440,"contract":"contracts/Core_logic/Treasury.sol:Treasury","label":"interestFromExternalProtocolDuringLiquidation","offset":0,"slot":"7","type":"t_uint256"},{"astId":4442,"contract":"contracts/Core_logic/Treasury.sol:Treasury","label":"usdaGainedFromLiquidation","offset":0,"slot":"8","type":"t_uint256"}]},"t_struct(ProtocolDeposit)4413_storage":{"encoding":"inplace","label":"struct TreasuryV1.ProtocolDeposit","numberOfBytes":"192","members":[{"astId":4402,"contract":"contracts/Core_logic/Treasury.sol:Treasury","label":"eachDepositToProtocol","offset":0,"slot":"0","type":"t_mapping(t_uint64,t_struct(EachDepositToProtocol)4397_storage)"},{"astId":4404,"contract":"contracts/Core_logic/Treasury.sol:Treasury","label":"depositIndex","offset":0,"slot":"1","type":"t_uint64"},{"astId":4406,"contract":"contracts/Core_logic/Treasury.sol:Treasury","label":"depositedAmount","offset":0,"slot":"2","type":"t_uint256"},{"astId":4408,"contract":"contracts/Core_logic/Treasury.sol:Treasury","label":"totalCreditedTokens","offset":0,"slot":"3","type":"t_uint256"},{"astId":4410,"contract":"contracts/Core_logic/Treasury.sol:Treasury","label":"depositedUsdValue","offset":0,"slot":"4","type":"t_uint256"},{"astId":4412,"contract":"contracts/Core_logic/Treasury.sol:Treasury","label":"cumulativeRate","offset":0,"slot":"5","type":"t_uint256"}]},"t_uint128":{"encoding":"inplace","label":"uint128","numberOfBytes":"16"},"t_uint256":{"encoding":"inplace","label":"uint256","numberOfBytes":"32"},"t_uint32":{"encoding":"inplace","label":"uint32","numberOfBytes":"4"},"t_uint64":{"encoding":"inplace","label":"uint64","numberOfBytes":"8"}}},"id":0}