{"abi":[{"type":"constructor","inputs":[{"name":"_borrowing","type":"address","internalType":"address"},{"name":"_tokenAddress","type":"address","internalType":"address"},{"name":"_cdsContract","type":"address","internalType":"address"},{"name":"_wethGateway","type":"address","internalType":"address"},{"name":"_cEther","type":"address","internalType":"address"},{"name":"_aavePoolAddressProvider","type":"address","internalType":"address"},{"name":"_aToken","type":"address","internalType":"address"},{"name":"_usdt","type":"address","internalType":"address"}],"stateMutability":"nonpayable"},{"type":"receive","stateMutability":"payable"},{"type":"function","name":"aToken","inputs":[],"outputs":[{"name":"","type":"address","internalType":"contract IATOKEN"}],"stateMutability":"view"},{"type":"function","name":"aavePoolAddressProvider","inputs":[],"outputs":[{"name":"","type":"address","internalType":"contract IPoolAddressesProvider"}],"stateMutability":"view"},{"type":"function","name":"aaveWETH","inputs":[],"outputs":[{"name":"","type":"address","internalType":"address"}],"stateMutability":"view"},{"type":"function","name":"approveAmint","inputs":[{"name":"_address","type":"address","internalType":"address"},{"name":"_amount","type":"uint256","internalType":"uint256"}],"outputs":[],"stateMutability":"nonpayable"},{"type":"function","name":"approveUsdt","inputs":[{"name":"_address","type":"address","internalType":"address"},{"name":"_amount","type":"uint256","internalType":"uint256"}],"outputs":[],"stateMutability":"nonpayable"},{"type":"function","name":"borrow","inputs":[],"outputs":[{"name":"","type":"address","internalType":"contract IBorrowing"}],"stateMutability":"view"},{"type":"function","name":"borrowing","inputs":[{"name":"depositor","type":"address","internalType":"address"}],"outputs":[{"name":"depositedAmount","type":"uint256","internalType":"uint256"},{"name":"totalBorrowedAmount","type":"uint256","internalType":"uint256"},{"name":"hasBorrowed","type":"bool","internalType":"bool"},{"name":"hasDeposited","type":"bool","internalType":"bool"},{"name":"borrowerIndex","type":"uint64","internalType":"uint64"},{"name":"totalPTokens","type":"uint128","internalType":"uint128"}],"stateMutability":"view"},{"type":"function","name":"borrowingContract","inputs":[],"outputs":[{"name":"","type":"address","internalType":"address"}],"stateMutability":"view"},{"type":"function","name":"cEther","inputs":[],"outputs":[{"name":"","type":"address","internalType":"contract ICEther"}],"stateMutability":"view"},{"type":"function","name":"calculateInterestForDepositAave","inputs":[{"name":"count","type":"uint64","internalType":"uint64"}],"outputs":[{"name":"","type":"uint256","internalType":"uint256"}],"stateMutability":"view"},{"type":"function","name":"cdsContract","inputs":[],"outputs":[{"name":"","type":"address","internalType":"address"}],"stateMutability":"view"},{"type":"function","name":"compoundAddress","inputs":[],"outputs":[{"name":"","type":"address","internalType":"address"}],"stateMutability":"view"},{"type":"function","name":"compoundWithdraw","inputs":[{"name":"balance","type":"uint256","internalType":"uint256"}],"outputs":[],"stateMutability":"nonpayable"},{"type":"function","name":"deposit","inputs":[{"name":"user","type":"address","internalType":"address"},{"name":"_ethPrice","type":"uint128","internalType":"uint128"},{"name":"_depositTime","type":"uint64","internalType":"uint64"}],"outputs":[{"name":"","type":"bool","internalType":"bool"},{"name":"","type":"uint64","internalType":"uint64"}],"stateMutability":"payable"},{"type":"function","name":"depositToAave","inputs":[],"outputs":[],"stateMutability":"nonpayable"},{"type":"function","name":"depositToCompound","inputs":[],"outputs":[],"stateMutability":"nonpayable"},{"type":"function","name":"externalProtocolDepositCount","inputs":[],"outputs":[{"name":"","type":"uint64","internalType":"uint64"}],"stateMutability":"view"},{"type":"function","name":"getBalanceInTreasury","inputs":[],"outputs":[{"name":"","type":"uint256","internalType":"uint256"}],"stateMutability":"view"},{"type":"function","name":"getBorrowing","inputs":[{"name":"depositor","type":"address","internalType":"address"},{"name":"index","type":"uint64","internalType":"uint64"}],"outputs":[{"name":"","type":"uint64","internalType":"uint64"},{"name":"","type":"tuple","internalType":"struct Treasury.DepositDetails","components":[{"name":"depositedTime","type":"uint64","internalType":"uint64"},{"name":"depositedAmount","type":"uint128","internalType":"uint128"},{"name":"downsidePercentage","type":"uint64","internalType":"uint64"},{"name":"ethPriceAtDeposit","type":"uint128","internalType":"uint128"},{"name":"borrowedAmount","type":"uint128","internalType":"uint128"},{"name":"normalizedAmount","type":"uint128","internalType":"uint128"},{"name":"withdrawNo","type":"uint8","internalType":"uint8"},{"name":"withdrawed","type":"bool","internalType":"bool"},{"name":"withdrawAmount","type":"uint128","internalType":"uint128"},{"name":"liquidated","type":"bool","internalType":"bool"},{"name":"ethPriceAtWithdraw","type":"uint64","internalType":"uint64"},{"name":"withdrawTime","type":"uint64","internalType":"uint64"},{"name":"pTokensAmount","type":"uint128","internalType":"uint128"},{"name":"strikePrice","type":"uint64","internalType":"uint64"},{"name":"optionFees","type":"uint128","internalType":"uint128"},{"name":"externalProtocolCount","type":"uint64","internalType":"uint64"},{"name":"discountedPrice","type":"uint256","internalType":"uint256"},{"name":"cTokensCredited","type":"uint128","internalType":"uint128"}]}],"stateMutability":"view"},{"type":"function","name":"getInterestForCompoundDeposit","inputs":[{"name":"count","type":"uint64","internalType":"uint64"}],"outputs":[{"name":"","type":"uint256","internalType":"uint256"}],"stateMutability":"nonpayable"},{"type":"function","name":"increaseExternalProtocolCount","inputs":[],"outputs":[],"stateMutability":"nonpayable"},{"type":"function","name":"noOfBorrowers","inputs":[],"outputs":[{"name":"","type":"uint128","internalType":"uint128"}],"stateMutability":"view"},{"type":"function","name":"owner","inputs":[],"outputs":[{"name":"","type":"address","internalType":"address"}],"stateMutability":"view"},{"type":"function","name":"protocolDeposit","inputs":[{"name":"","type":"uint8","internalType":"enum Treasury.Protocol"}],"outputs":[{"name":"depositIndex","type":"uint64","internalType":"uint64"},{"name":"depositedAmount","type":"uint256","internalType":"uint256"},{"name":"totalCreditedTokens","type":"uint256","internalType":"uint256"},{"name":"depositedUsdValue","type":"uint256","internalType":"uint256"},{"name":"cumulativeRate","type":"uint256","internalType":"uint256"}],"stateMutability":"view"},{"type":"function","name":"renounceOwnership","inputs":[],"outputs":[],"stateMutability":"nonpayable"},{"type":"function","name":"setBorrowingContract","inputs":[{"name":"_address","type":"address","internalType":"address"}],"outputs":[],"stateMutability":"nonpayable"},{"type":"function","name":"totalInterest","inputs":[],"outputs":[{"name":"","type":"uint256","internalType":"uint256"}],"stateMutability":"view"},{"type":"function","name":"totalInterestFromExternalProtocol","inputs":[{"name":"depositor","type":"address","internalType":"address"},{"name":"index","type":"uint64","internalType":"uint64"}],"outputs":[{"name":"","type":"uint256","internalType":"uint256"}],"stateMutability":"nonpayable"},{"type":"function","name":"totalInterestFromLiquidation","inputs":[],"outputs":[{"name":"","type":"uint256","internalType":"uint256"}],"stateMutability":"view"},{"type":"function","name":"totalVolumeOfBorrowersAmountinUSD","inputs":[],"outputs":[{"name":"","type":"uint256","internalType":"uint256"}],"stateMutability":"view"},{"type":"function","name":"totalVolumeOfBorrowersAmountinWei","inputs":[],"outputs":[{"name":"","type":"uint256","internalType":"uint256"}],"stateMutability":"view"},{"type":"function","name":"transferEthToCdsLiquidators","inputs":[{"name":"borrower","type":"address","internalType":"address"},{"name":"amount","type":"uint128","internalType":"uint128"}],"outputs":[],"stateMutability":"nonpayable"},{"type":"function","name":"transferOwnership","inputs":[{"name":"newOwner","type":"address","internalType":"address"}],"outputs":[],"stateMutability":"nonpayable"},{"type":"function","name":"trinity","inputs":[],"outputs":[{"name":"","type":"address","internalType":"contract ITrinityToken"}],"stateMutability":"view"},{"type":"function","name":"updateDepositDetails","inputs":[{"name":"depositor","type":"address","internalType":"address"},{"name":"index","type":"uint64","internalType":"uint64"},{"name":"depositDetail","type":"tuple","internalType":"struct Treasury.DepositDetails","components":[{"name":"depositedTime","type":"uint64","internalType":"uint64"},{"name":"depositedAmount","type":"uint128","internalType":"uint128"},{"name":"downsidePercentage","type":"uint64","internalType":"uint64"},{"name":"ethPriceAtDeposit","type":"uint128","internalType":"uint128"},{"name":"borrowedAmount","type":"uint128","internalType":"uint128"},{"name":"normalizedAmount","type":"uint128","internalType":"uint128"},{"name":"withdrawNo","type":"uint8","internalType":"uint8"},{"name":"withdrawed","type":"bool","internalType":"bool"},{"name":"withdrawAmount","type":"uint128","internalType":"uint128"},{"name":"liquidated","type":"bool","internalType":"bool"},{"name":"ethPriceAtWithdraw","type":"uint64","internalType":"uint64"},{"name":"withdrawTime","type":"uint64","internalType":"uint64"},{"name":"pTokensAmount","type":"uint128","internalType":"uint128"},{"name":"strikePrice","type":"uint64","internalType":"uint64"},{"name":"optionFees","type":"uint128","internalType":"uint128"},{"name":"externalProtocolCount","type":"uint64","internalType":"uint64"},{"name":"discountedPrice","type":"uint256","internalType":"uint256"},{"name":"cTokensCredited","type":"uint128","internalType":"uint128"}]}],"outputs":[],"stateMutability":"nonpayable"},{"type":"function","name":"updateHasBorrowed","inputs":[{"name":"borrower","type":"address","internalType":"address"},{"name":"_bool","type":"bool","internalType":"bool"}],"outputs":[],"stateMutability":"nonpayable"},{"type":"function","name":"updateTotalBorrowedAmount","inputs":[{"name":"borrower","type":"address","internalType":"address"},{"name":"amount","type":"uint256","internalType":"uint256"}],"outputs":[],"stateMutability":"nonpayable"},{"type":"function","name":"updateTotalDepositedAmount","inputs":[{"name":"borrower","type":"address","internalType":"address"},{"name":"amount","type":"uint128","internalType":"uint128"}],"outputs":[],"stateMutability":"nonpayable"},{"type":"function","name":"updateTotalInterest","inputs":[{"name":"_amount","type":"uint256","internalType":"uint256"}],"outputs":[],"stateMutability":"nonpayable"},{"type":"function","name":"updateTotalInterestFromLiquidation","inputs":[{"name":"_amount","type":"uint256","internalType":"uint256"}],"outputs":[],"stateMutability":"nonpayable"},{"type":"function","name":"updateTotalPTokensDecrease","inputs":[{"name":"borrower","type":"address","internalType":"address"},{"name":"amount","type":"uint128","internalType":"uint128"}],"outputs":[],"stateMutability":"nonpayable"},{"type":"function","name":"updateTotalPTokensIncrease","inputs":[{"name":"borrower","type":"address","internalType":"address"},{"name":"amount","type":"uint128","internalType":"uint128"}],"outputs":[],"stateMutability":"nonpayable"},{"type":"function","name":"usdt","inputs":[],"outputs":[{"name":"","type":"address","internalType":"contract IERC20"}],"stateMutability":"view"},{"type":"function","name":"wethGateway","inputs":[],"outputs":[{"name":"","type":"address","internalType":"contract IWrappedTokenGatewayV3"}],"stateMutability":"view"},{"type":"function","name":"withdraw","inputs":[{"name":"borrower","type":"address","internalType":"address"},{"name":"toAddress","type":"address","internalType":"address"},{"name":"_amount","type":"uint256","internalType":"uint256"},{"name":"index","type":"uint64","internalType":"uint64"},{"name":"_ethPrice","type":"uint64","internalType":"uint64"}],"outputs":[{"name":"","type":"bool","internalType":"bool"}],"stateMutability":"nonpayable"},{"type":"function","name":"withdrawFromAave","inputs":[{"name":"index","type":"uint64","internalType":"uint64"}],"outputs":[],"stateMutability":"nonpayable"},{"type":"function","name":"withdrawFromCompound","inputs":[{"name":"index","type":"uint64","internalType":"uint64"}],"outputs":[],"stateMutability":"nonpayable"},{"type":"function","name":"withdrawInterest","inputs":[{"name":"toAddress","type":"address","internalType":"address"},{"name":"amount","type":"uint256","internalType":"uint256"}],"outputs":[],"stateMutability":"nonpayable"},{"type":"event","name":"Deposit","inputs":[{"name":"user","type":"address","indexed":true,"internalType":"address"},{"name":"amount","type":"uint256","indexed":false,"internalType":"uint256"}],"anonymous":false},{"type":"event","name":"DepositToAave","inputs":[{"name":"count","type":"uint64","indexed":false,"internalType":"uint64"},{"name":"amount","type":"uint256","indexed":false,"internalType":"uint256"}],"anonymous":false},{"type":"event","name":"DepositToCompound","inputs":[{"name":"count","type":"uint64","indexed":false,"internalType":"uint64"},{"name":"amount","type":"uint256","indexed":false,"internalType":"uint256"}],"anonymous":false},{"type":"event","name":"OwnershipTransferred","inputs":[{"name":"previousOwner","type":"address","indexed":true,"internalType":"address"},{"name":"newOwner","type":"address","indexed":true,"internalType":"address"}],"anonymous":false},{"type":"event","name":"Withdraw","inputs":[{"name":"user","type":"address","indexed":true,"internalType":"address"},{"name":"amount","type":"uint256","indexed":false,"internalType":"uint256"}],"anonymous":false},{"type":"event","name":"WithdrawFromAave","inputs":[{"name":"count","type":"uint64","indexed":false,"internalType":"uint64"},{"name":"amount","type":"uint256","indexed":false,"internalType":"uint256"}],"anonymous":false},{"type":"event","name":"WithdrawFromCompound","inputs":[{"name":"count","type":"uint64","indexed":false,"internalType":"uint64"},{"name":"amount","type":"uint256","indexed":false,"internalType":"uint256"}],"anonymous":false},{"type":"error","name":"Treasury_AaveDepositAndMintFailed","inputs":[]},{"type":"error","name":"Treasury_AavePoolAddressZero","inputs":[]},{"type":"error","name":"Treasury_AaveWithdrawFailed","inputs":[]},{"type":"error","name":"Treasury_CompoundDepositAndMintFailed","inputs":[]},{"type":"error","name":"Treasury_CompoundWithdrawFailed","inputs":[]},{"type":"error","name":"Treasury_EthTransferToCdsLiquidatorFailed","inputs":[]},{"type":"error","name":"Treasury_ZeroDeposit","inputs":[]},{"type":"error","name":"Treasury_ZeroWithdraw","inputs":[]}],"bytecode":{"object":"0x6080604052601380546001600160401b0319166001179055670de0b6b3a76400006014556b033b2e3c9fd0803ce80000006015553480156200004057600080fd5b5060405162004d9838038062004d9883398101604081905262000063916200018c565b6200006e336200011f565b600880546001600160a01b03199081166001600160a01b039a8b16908117909255600980548216988b169890981790975560018054881690911790556002805487169789169790971790965560038054861694881694851790556007805486169388169384179055600a80548616909317909255600480548516918716919091179055600680548416918616919091179055600b805483169091179055600580549091169190921617905562000234565b600080546001600160a01b038381166001600160a01b0319831681178455604051919092169283917f8be0079c531659141344cd1fd0a4f28419497f9722a3daafe3b4186f6b6457e09190a35050565b80516001600160a01b03811681146200018757600080fd5b919050565b600080600080600080600080610100898b031215620001aa57600080fd5b620001b5896200016f565b9750620001c560208a016200016f565b9650620001d560408a016200016f565b9550620001e560608a016200016f565b9450620001f560808a016200016f565b93506200020560a08a016200016f565b92506200021560c08a016200016f565b91506200022560e08a016200016f565b90509295985092959890939650565b614b5480620002446000396000f3fe6080604052600436106102975760003560e01c80638ca8fddd1161015a578063d6103823116100c1578063ef0d5dc11161007a578063ef0d5dc114610c18578063f2fde38b14610c38578063f750d07d14610c58578063f750e3ab14610c78578063fe6520ae14610d29578063ff2d7dc614610d5957600080fd5b8063d610382314610999578063dc64177c14610b71578063dcb71f3f14610b86578063e613610514610bb8578063e68d356914610bd8578063e9aeb2a814610bf857600080fd5b8063b9a221eb11610113578063b9a221eb1461087a578063bc497a821461089a578063bc7a36d6146108ba578063bdceaba2146108d0578063bfc0071414610959578063c5e10eef1461097957600080fd5b80638ca8fddd146107855780638da5cb5b146107a557806394420dfe146107c35780639a52aed9146107fb578063a0c1f15e14610811578063b9127c5c1461083157600080fd5b80633b7566fc116101fe5780635822b66d116101b75780635822b66d146106d05780635b730e69146106f05780636cd4ddbc14610710578063715018a61461073057806378fdaf3f1461074557806384a965ed1461076557600080fd5b80633b7566fc1461041f57806345aeb0ce1461043f57806349ba320c146104775780634d5c56a514610497578063509aac341461069a578063541b6094146106ba57600080fd5b806323f1059c1161025057806323f1059c1461036957806325375dd5146103895780632b7f5694146103a95780632f48ab7d146103c957806337672410146103e9578063394612a11461040957600080fd5b806306197c1c146102a35780630ddec572146102ba5780630f274495146102da57806319b68c00146102fc5780631b851134146103345780631cd081b21461034957600080fd5b3661029e57005b600080fd5b3480156102af57600080fd5b506102b8610d79565b005b3480156102c657600080fd5b506102b86102d5366004614197565b61149e565b3480156102e657600080fd5b50475b6040519081526020015b60405180910390f35b34801561030857600080fd5b5060075461031c906001600160a01b031681565b6040516001600160a01b0390911681526020016102f3565b34801561034057600080fd5b506102b8611926565b34801561035557600080fd5b506102b86103643660046141ce565b611dce565b34801561037557600080fd5b506102b86103843660046141fa565b611e02565b34801561039557600080fd5b5060045461031c906001600160a01b031681565b3480156103b557600080fd5b506102b86103c43660046141ce565b611e1c565b3480156103d557600080fd5b5060055461031c906001600160a01b031681565b3480156103f557600080fd5b506102b8610404366004614197565b611fa7565b34801561041557600080fd5b506102e960125481565b34801561042b57600080fd5b506102b861043a36600461422a565b612660565b34801561044b57600080fd5b5060105461045f906001600160801b031681565b6040516001600160801b0390911681526020016102f3565b34801561048357600080fd5b506102b86104923660046141fa565b6126c6565b3480156104a357600080fd5b5061068c6104b236600461425f565b6040805161024081018252600080825260208201819052918101829052606081018290526080810182905260a0810182905260c0810182905260e08101829052610100810182905261012081018290526101408101829052610160810182905261018081018290526101a081018290526101c081018290526101e081018290526102008101829052610220810182905250506001600160a01b03919091166000908152600c602090815260408083206003808201546001600160401b039687168652600192830185529483902083516102408101855281548089168252600160401b8082046001600160801b0390811698840198909852600160c01b918290048a1696830196909652938201548087166060830152600160801b9081900487166080830152600283015480881660a084015281810460ff90811660c0850152600160881b918290048116151560e08501529484015480891661010085015282810490951615156101208401529093048816610140820152600482015480891661016083015294850486166101808201529290930486166101a083015260058301548085166101c08401520485166101e082015260068201546102008201526007909101549091166102208201526201000090910490911691565b6040516102f392919061428b565b3480156106a657600080fd5b5060025461031c906001600160a01b031681565b3480156106c657600080fd5b506102e9600f5481565b3480156106dc57600080fd5b506102b86106eb36600461422a565b612739565b3480156106fc57600080fd5b506102b861070b3660046141ce565b6127e0565b34801561071c57600080fd5b506102b861072b36600461422a565b612944565b34801561073c57600080fd5b506102b8612975565b34801561075157600080fd5b506102b8610760366004614435565b612989565b34801561077157600080fd5b5060085461031c906001600160a01b031681565b34801561079157600080fd5b506102e96107a0366004614197565b612a2a565b3480156107b157600080fd5b506000546001600160a01b031661031c565b3480156107cf57600080fd5b506013546107e3906001600160401b031681565b6040516001600160401b0390911681526020016102f3565b34801561080757600080fd5b506102e9600e5481565b34801561081d57600080fd5b5060065461031c906001600160a01b031681565b34801561083d57600080fd5b506102b861084c36600461446b565b6001600160a01b03919091166000908152600c60205260409020600301805460ff1916911515919091179055565b34801561088657600080fd5b506102b86108953660046141fa565b612ba5565b3480156108a657600080fd5b5060095461031c906001600160a01b031681565b3480156108c657600080fd5b506102e960115481565b3480156108dc57600080fd5b506109276108eb3660046144a4565b600d60205260009081526040902060018101546002820154600383015460048401546005909401546001600160401b0390931693919290919085565b604080516001600160401b0390961686526020860194909452928401919091526060830152608082015260a0016102f3565b34801561096557600080fd5b50600a5461031c906001600160a01b031681565b34801561098557600080fd5b5060035461031c906001600160a01b031681565b3480156109a557600080fd5b506102b86109b436600461450d565b6001600160a01b03929092166000908152600c602090815260408083206001600160401b03948516845260019081018352928190208551815493870151928701519086166001600160c01b031994851617600160401b6001600160801b039485168102919091176001600160c01b03908116600160c01b9389168402178455606089015160808a0151908616600160801b9187168202179785019790975560a089015160028501805460c08c015160e08d015193891670ffffffffffffffffffffffffffffffffff199283161760ff9091168b021760ff60881b1916600160881b9315158402179091556101008b01516003870180546101208e01516101408f0151938b1691909416179215158b029290921767ffffffffffffffff60881b1916908b169092029190911790556101608901516004850180546101808c01516101a08d0151938c16918a1691909117908816909402939093179091169088169092029190911790556101c08601516005820180546101e08901519285169516949094179516909302939093179055610200830151600682015561022090920151600790920180546001600160801b03191692909116919091179055565b348015610b7d57600080fd5b506102b8612bb7565b610b99610b943660046146a8565b612c34565b6040805192151583526001600160401b039091166020830152016102f3565b348015610bc457600080fd5b506102b8610bd33660046141ce565b61303e565b348015610be457600080fd5b5060015461031c906001600160a01b031681565b348015610c0457600080fd5b506102e9610c1336600461425f565b6130d5565b348015610c2457600080fd5b506102b8610c3336600461422a565b6135e8565b348015610c4457600080fd5b506102b8610c53366004614435565b613626565b348015610c6457600080fd5b50600b5461031c906001600160a01b031681565b348015610c8457600080fd5b50610ce3610c93366004614435565b600c6020526000908152604090208054600282015460039092015490919060ff808216916101008104909116906201000081046001600160401b031690600160501b90046001600160801b031686565b60408051968752602087019590955292151593850193909352151560608401526001600160401b0390911660808301526001600160801b031660a082015260c0016102f3565b348015610d3557600080fd5b50610d49610d443660046146ed565b61369f565b60405190151581526020016102f3565b348015610d6557600080fd5b506102e9610d74366004614197565b613aed565b6008546001600160a01b03163314610dac5760405162461bcd60e51b8152600401610da39061474f565b60405180910390fd5b6013546001600160401b0316600090815260166020526040812054606490610dd59060326147b8565b610ddf91906147e5565b905080600003610e025760405163371c51e160e11b815260040160405180910390fd5b6000600460009054906101000a90046001600160a01b03166001600160a01b031663026b1d5f6040518163ffffffff1660e01b8152600401602060405180830381865afa158015610e57573d6000803e3d6000fd5b505050506040513d601f19601f82011682018060405250810190610e7b91906147f9565b90506001600160a01b038116610ea457604051630a20c02560e21b815260040160405180910390fd5b6006546040516370a0823160e01b81523060048201526000916001600160a01b0316906370a0823190602401602060405180830381865afa158015610eed573d6000803e3d6000fd5b505050506040513d601f19601f82011682018060405250810190610f119190614816565b60035460405163474cf53d60e01b81526001600160a01b0385811660048301523060248301526000604483015292935091169063474cf53d9085906064016000604051808303818588803b158015610f6857600080fd5b505af1158015610f7c573d6000803e3d6000fd5b50506006546040516370a0823160e01b8152306004820152600094506001600160a01b0390911692506370a082319150602401602060405180830381865afa158015610fcc573d6000803e3d6000fd5b505050506040513d601f19601f82011682018060405250810190610ff09190614816565b60008052600d602052600080516020614aff83398151915254909150810361102b57604051636b39e0e560e01b815260040160405180910390fd5b60008052600d602052600080516020614a3f833981519152546001600160401b031661105860018261482f565b601380549192506001600160401b0390911690600061107683614856565b91906101000a8154816001600160401b0302191690836001600160401b0316021790555050806001600160401b0316600114806110c9575060008052600d602052600080516020614aff83398151915254155b156110ef5760155460008052600d602052600080516020614abf83398151915255611183565b6000808052600d602052600080516020614aff83398151915254601554611116828761487c565b61112091906147b8565b61112a91906147e5565b60155460008052600d602052600080516020614abf8339815191525491925090611154838361488f565b61115e91906147b8565b61116891906147e5565b60008052600d602052600080516020614abf83398151915255505b60008052600d602052600080516020614abf833981519152546015546111a990876147b8565b6111b391906147e5565b6001600160401b0382166000818152600080516020614adf83398151915260209081526040822060070193909355808052600d909252600080516020614a3f833981519152805467ffffffffffffffff191690911790557f81955a0a11e65eac625c29e8882660bae4e165a75d72780094acae8ece9a29f0805487929061123b90849061488f565b90915550506001600160401b038181166000908152600080516020614adf8339815191526020908152604080832080546001600160c01b0319164290951694909417600160401b6001600160801b038b16021790935560015483516350593af760e01b8152935192936001600160a01b03909116926350593af7926004808401939192918290030181865afa1580156112d8573d6000803e3d6000fd5b505050506040513d601f19601f820116820180604052508101906112fc9190614816565b6001600160401b0383166000908152600080516020614adf8339815191526020526040902060010180546001600160801b0319166001600160801b03831690811790915590915061134d90876147b8565b6001600160401b0383166000908152600080516020614adf833981519152602090815260408220600201929092558052600d90527f81955a0a11e65eac625c29e8882660bae4e165a75d72780094acae8ece9a29f0546113b7906001600160801b038316906147b8565b60008052600d6020527f81955a0a11e65eac625c29e8882660bae4e165a75d72780094acae8ece9a29f255600080516020614aff833981519152546113fc90846148a2565b6001600160401b0383166000818152600080516020614adf8339815191526020908152604080832060030180546001600160801b0319166001600160801b039690961695909517909455908052600d8152600080516020614aff8339815191528690558251918252810188905281517fbab03e271351d865ca59323a9224d2c6e0826b7e61b0716daa4f92f16e5c7761929181900390910190a1505050505050565b6008546001600160a01b031633146114c85760405162461bcd60e51b8152600401610da39061474f565b6001600160401b0381166000908152600080516020614a9f83398151915260205260409020600301546001600160801b03811690600160801b900460ff16156115535760405162461bcd60e51b815260206004820181905260248201527f416c7265616479207769746864726177656420696e207468697320696e6465786044820152606401610da3565b8060000361157457604051633c54b6a360e11b815260040160405180910390fd5b60075460405163db006a7560e01b8152600481018390526001600160a01b039091169063db006a75906024016020604051808303816000875af11580156115bf573d6000803e3d6000fd5b505050506040513d601f19601f820116820180604052508101906115e39190614816565b506007546040516370a0823160e01b81523060048201526000916001600160a01b0316906370a0823190602401602060405180830381865afa15801561162d573d6000803e3d6000fd5b505050506040513d601f19601f820116820180604052508101906116519190614816565b6001600052600d602052600080516020614a5f83398151915254909150810361168d57604051630f8bab4760e01b815260040160405180910390fd5b60016000908152600d602052600080516020614a7f83398151915280548492906116b890849061487c565b90915550506001600160401b038381166000908152600080516020614a9f8339815191526020908152604080832060038101805460ff60801b1916600160801b9081179091556004918201805467ffffffffffffffff60801b1916429097169091029590951790945560015481516350593af760e01b8152915193946001600160a01b03909116936350593af793838301939092908290030181865afa158015611766573d6000803e3d6000fd5b505050506040513d601f19601f8201168201806040525081019061178a9190614816565b6001600160401b0385166000908152600080516020614a9f8339815191526020526040902060040180546001600160801b0319166001600160801b0383169081179091559091506117db90846147b8565b6001600160401b0385166000908152600080516020614a9f8339815191526020908152604082206005019290925560019052600d9052600080516020614a7f83398151915254611835906001600160801b038316906147b8565b60016000908152600d6020527ffd54ff1ed53f34a900b24c5ba64f85761163b5d82d98a47b9bd80e45466993c991909155600080516020614a5f833981519152805485929061188590849061487c565b90915550611894905084612a2a565b6001600160401b0385166000818152600080516020614a9f83398151915260209081526040918290206006810180546001600160801b03969096166001600160801b0319968716179055600301805490941690935580519182529181018590527f7947802835fbf722d45a3c84bbefbe958e96c1647668d9db89cb77314688250491015b60405180910390a150505050565b6008546001600160a01b031633146119505760405162461bcd60e51b8152600401610da39061474f565b6013546000906064906016908390611973906001906001600160401b03166148c2565b6001600160401b0316815260200190815260200160002054603261199791906147b8565b6119a191906147e5565b9050806000036119c45760405163371c51e160e11b815260040160405180910390fd5b600760009054906101000a90046001600160a01b03166001600160a01b0316631249c58b826040518263ffffffff1660e01b81526004016000604051808303818588803b158015611a1457600080fd5b505af1158015611a28573d6000803e3d6000fd5b50506007546040516370a0823160e01b8152306004820152600094506001600160a01b0390911692506370a082319150602401602060405180830381865afa158015611a78573d6000803e3d6000fd5b505050506040513d601f19601f82011682018060405250810190611a9c9190614816565b6001600052600d602052600080516020614a5f833981519152549091508103611ad857604051631c14f52f60e21b815260040160405180910390fd5b60016000819052600d6020527ffd54ff1ed53f34a900b24c5ba64f85761163b5d82d98a47b9bd80e45466993c6546001600160401b031690611b1a908261482f565b60016000908152600d6020527ffd54ff1ed53f34a900b24c5ba64f85761163b5d82d98a47b9bd80e45466993c6805467ffffffffffffffff19166001600160401b038416179055600080516020614a7f83398151915280549293508592909190611b8590849061488f565b90915550506001600160401b038181166000908152600080516020614a9f8339815191526020908152604080832080546001600160c01b0319164290951694909417600160401b6001600160801b038916021790935560015483516350593af760e01b8152935192936001600160a01b03909116926350593af7926004808401939192918290030181865afa158015611c22573d6000803e3d6000fd5b505050506040513d601f19601f82011682018060405250810190611c469190614816565b6001600160401b0383166000908152600080516020614a9f8339815191526020526040902060010180546001600160801b0319166001600160801b038316908117909155909150611c9790856147b8565b6001600160401b0383166000908152600080516020614a9f8339815191526020908152604082206002019290925560019052600d9052600080516020614a7f83398151915254611cf1906001600160801b038316906147b8565b6001600052600d6020527ffd54ff1ed53f34a900b24c5ba64f85761163b5d82d98a47b9bd80e45466993c955600080516020614a5f83398151915254611d3790846148a2565b6001600160401b0383166000818152600080516020614a9f8339815191526020908152604080832060030180546001600160801b0319166001600160801b0396909616959095179094556001909152600d8152600080516020614a5f833981519152869055825191825281018690527fed55c0f11575257f860976702211fd0107cbdad286e90fd3d9ad6c1d604b8cc59101611918565b6001600160a01b0382166000908152600c602052604081206002018054839290611df990849061488f565b90915550505050565b8060126000828254611e14919061488f565b909155505050565b6009546001600160a01b0316331480611e3f57506008546001600160a01b031633145b611eb15760405162461bcd60e51b815260206004820152603a60248201527f546869732066756e6374696f6e2063616e206f6e6c792063616c6c656420627960448201527f20426f72726f77696e67206f722043445320636f6e74726163740000000000006064820152608401610da3565b6001600160a01b03821615801590611ec857508015155b611ee45760405162461bcd60e51b8152600401610da3906148e2565b60025460405163095ea7b360e01b81526001600160a01b03848116600483015260248201849052600092169063095ea7b3906044015b6020604051808303816000875af1158015611f39573d6000803e3d6000fd5b505050506040513d601f19601f82011682018060405250810190611f5d9190614924565b9050600181151514611fa25760405162461bcd60e51b815260206004820152600e60248201526d105c1c1c9bdd994819985a5b195960921b6044820152606401610da3565b505050565b6008546001600160a01b03163314611fd15760405162461bcd60e51b8152600401610da39061474f565b6001600160401b0381166000908152600080516020614adf8339815191526020526040902060030154600160801b900460ff16156120515760405162461bcd60e51b815260206004820181905260248201527f416c7265616479207769746864726177656420696e207468697320696e6465786044820152606401610da3565b6006546040516370a0823160e01b81523060048201526000916001600160a01b0316906370a0823190602401602060405180830381865afa15801561209a573d6000803e3d6000fd5b505050506040513d601f19601f820116820180604052508101906120be9190614816565b6000808052600d602052600080516020614aff8339815191525460155492935090916120ea828561487c565b6120f491906147b8565b6120fe91906147e5565b6015546000808052600d602052600080516020614abf8339815191525492935091612129848361488f565b61213391906147b8565b61213d91906147e5565b600080516020614abf8339815191528190556015546001600160401b0386166000908152600080516020614adf83398151915260205260408120600701549293509161218990846147b8565b61219391906147e5565b90506000600460009054906101000a90046001600160a01b03166001600160a01b031663026b1d5f6040518163ffffffff1660e01b8152600401602060405180830381865afa1580156121ea573d6000803e3d6000fd5b505050506040513d601f19601f8201168201806040525081019061220e91906147f9565b90506001600160a01b03811661223757604051630a20c02560e21b815260040160405180910390fd5b600654600b5460405163095ea7b360e01b81526001600160a01b0391821660048201526024810185905291169063095ea7b3906044016020604051808303816000875af115801561228c573d6000803e3d6000fd5b505050506040513d601f19601f820116820180604052508101906122b09190614924565b506001600160401b0386166000908152600080516020614adf83398151915260205260409020546122f190600160401b90046001600160801b0316836148a2565b6001600160401b0387166000908152600080516020614adf833981519152602052604080822060060180546001600160801b0319166001600160801b0394909416939093179092556003548251630402806960e51b81526001600160a01b03858116600483015260248201879052306044830152935193909116926380500d209260648084019391929182900301818387803b15801561239057600080fd5b505af11580156123a4573d6000803e3d6000fd5b50506006546040516370a0823160e01b8152306004820152600093506001600160a01b0390911691506370a0823190602401602060405180830381865afa1580156123f3573d6000803e3d6000fd5b505050506040513d601f19601f820116820180604052508101906124179190614816565b60008052600d602052600080516020614aff8339815191525490915081036124515760405162bc94a760e31b815260040160405180910390fd5b6001600160401b038781166000908152600080516020614adf8339815191526020908152604080832060038101805460ff60801b1916600160801b9081179091556004918201805467ffffffffffffffff60801b1916429097169091029590951790945560015481516350593af760e01b8152915193946001600160a01b03909116936350593af793838301939092908290030181865afa1580156124fa573d6000803e3d6000fd5b505050506040513d601f19601f8201168201806040525081019061251e9190614816565b6001600160401b038981166000908152600080516020614adf8339815191526020526040902060040180546001600160801b031916929091169182179055905061256881856147b8565b6001600160401b0389166000908152600080516020614adf833981519152602090815260408220600501929092558052600d90527f81955a0a11e65eac625c29e8882660bae4e165a75d72780094acae8ece9a29f0546125d2906001600160801b038316906147b8565b60008052600d60209081527f81955a0a11e65eac625c29e8882660bae4e165a75d72780094acae8ece9a29f291909155600080516020614aff833981519152839055604080516001600160401b038b16815291820186905280517fb3e5c8a48c51608dcaa5fe045f1963964839d48a0d24e62e940fa0451db9015b9281900390910190a15050505050505050565b6001600160a01b0382166000908152600c602052604090206003018054829190600a9061269e908490600160501b90046001600160801b03166148a2565b92506101000a8154816001600160801b0302191690836001600160801b031602179055505050565b60075460405163db006a7560e01b8152600481018390526001600160a01b039091169063db006a75906024016020604051808303816000875af1158015612711573d6000803e3d6000fd5b505050506040513d601f19601f820116820180604052508101906127359190614816565b5050565b6009546001600160a01b031633146127635760405162461bcd60e51b8152600401610da390614941565b6000826001600160a01b0316826001600160801b031660405160006040518083038185875af1925050503d80600081146127b9576040519150601f19603f3d011682016040523d82523d6000602084013e6127be565b606091505b5050905080611fa257604051633243a0f360e21b815260040160405180910390fd5b6127e8613ced565b6001600160a01b038216158015906127ff57508015155b61281b5760405162461bcd60e51b8152600401610da3906148e2565b60125460115461282b919061488f565b8111156128865760405162461bcd60e51b815260206004820152602360248201527f547265617375727920646f6e2774206861766520656e6f75676820696e746572604482015262195cdd60ea1b6064820152608401610da3565b60025460405163a9059cbb60e01b81526001600160a01b03848116600483015260248201849052600092169063a9059cbb906044016020604051808303816000875af11580156128da573d6000803e3d6000fd5b505050506040513d601f19601f820116820180604052508101906128fe9190614924565b905080611fa25760405162461bcd60e51b81526020600482015260146024820152732330b4b632b2103a379039b2b7321022ba3432b960611b6044820152606401610da3565b6001600160a01b0382166000908152600c6020526040812080546001600160801b0384169290611df990849061487c565b61297d613ced565b6129876000613d47565b565b612991613ced565b6001600160a01b038116158015906129b257506001600160a01b0381163b15155b6129fe5760405162461bcd60e51b815260206004820152601860248201527f496e707574206164647265737320697320696e76616c696400000000000000006044820152606401610da3565b600880546001600160a01b039092166001600160a01b0319928316811790915560018054909216179055565b6001600160401b038181166000908152600080516020614a9f8339815191526020908152604080832081516101608101835281548087168252600160401b90046001600160801b039081168286015260018301548116828501526002830154606083015260038301548082166080840152600160801b9081900460ff16151560a084015260048085015480841660c08601529190910490971660e083015260058301546101008301526006830154166101208201526007918201546101408201529054825163bd6d894d60e01b815292519495919486946001600160a01b039092169363bd6d894d93818101939291829003018187875af1158015612b33573d6000803e3d6000fd5b505050506040513d601f19601f82011682018060405250810190612b579190614816565b905060006014548284608001516001600160801b0316612b7791906147b8565b612b8191906147e5565b905082602001516001600160801b031681612b9c919061487c565b95945050505050565b8060116000828254611e14919061488f565b600d602052600080516020614a3f8339815191525460016000527ffd54ff1ed53f34a900b24c5ba64f85761163b5d82d98a47b9bd80e45466993c6546001600160401b039182169116818110612c0d5780612c0f565b815b6013805467ffffffffffffffff19166001600160401b03929092169190911790555050565b60085460009081906001600160a01b03163314612c635760405162461bcd60e51b8152600401610da39061474f565b6001600160a01b0385166000908152600c6020526040812060030154610100900460ff16612d0057506001600160a01b0385166000908152600c60205260408120600301805469ffffffffffffffffff001916620101001790556010805460019290612cd7906001600160801b031661498e565b91906101000a8154816001600160801b0302191690836001600160801b03160217905550612d5e565b6001600160a01b0386166000908152600c602052604090206003018054600290612d38906201000090046001600160401b0316614856565b91906101000a8154816001600160401b0302191690836001600160401b03160217905590505b6001600160a01b0386166000908152600c602052604081208054349290612d8690849061488f565b90915550506001600160a01b0386166000908152600c602090815260408083206001600160401b0385168452600101909152902080546001600160801b0334818116600160401b0277ffffffffffffffffffffffffffffffff00000000000000001990931692909217909255612dfd9187166147b8565b600f6000828254612e0e919061488f565b9250508190555034600e6000828254612e27919061488f565b90915550506001600160a01b0386166000908152600c602090815260408083206001600160401b03858116855260019182019093529220805467ffffffffffffffff191687831617815591820180546001600160801b0319166001600160801b0389161790556013546005909201805467ffffffffffffffff60801b191692909116600160801b029190911790556064612ec23460326147b8565b612ecc91906147e5565b6013546001600160401b031660009081526016602052604081208054909190612ef690849061488f565b90915550600090506064612f0b3460196147b8565b612f1591906147e5565b9050612f2081613d97565b60008052600d602052600080516020614abf83398151915254601554612f4690836147b8565b612f5091906147e5565b6001600160a01b0388166000908152600c602090815260408083206001600160401b0387168452600101909152902060060155612f8c81614053565b6001600160a01b0388166000818152600c602090815260408083206001600160401b038816845260010182529182902060070180546001600160801b0319166001600160801b0395909516949094179093555134815290917fe1fffcc4923d04b559f4d29a8bfc6cda04eb5b0d3c460751c2402c5c5cc9109c910160405180910390a2506001600160a01b03959095166000908152600c6020526040902060030154610100900460ff16959350505050565b6009546001600160a01b031633146130685760405162461bcd60e51b8152600401610da390614941565b6001600160a01b0382161580159061307f57508015155b61309b5760405162461bcd60e51b8152600401610da3906148e2565b60055460405163095ea7b360e01b81526001600160a01b03848116600483015260248201849052600092169063095ea7b390604401611f1a565b6001600160a01b0382166000908152600c602090815260408083206001600160401b0380861685526001909101909252822060050154600160801b90041681815b6013546001600160401b0390811690821610156135dd576000600d81808152602080820192909252604090810160009081206001600160401b03868116835290845282822083516101608101855281548084168252600160401b90046001600160801b03908116968201969096526001808301548716958201959095526002820154606082015260038201548087166080830152600160801b9081900460ff16151560a0830152600483015480881660c08401520490921660e083015260058101546101008301526006810154909416610120820152600790930154610140840152919250600d9082908152602080820192909252604090810160009081206001600160401b0380881680845291855291839020835161016081018552815480851682526001600160801b03600160401b909104811696820196909652600180830154871695820195909552600282015460608201526003820154808716608083015260ff600160801b9182900416151560a0830152600483015480881660c08401520490931660e0840152600581015461010084015260068101549094166101208301526007909301546101408201529250148061331d57506000808052600d602052600080516020614adf833981519152906132f56001866148c2565b6001600160401b03168152602081019190915260400160002060030154600160801b900460ff165b15613442576001600160401b0383166000908152601660205260408120546064906133499060326147b8565b61335391906147e5565b6001600160a01b038a166000908152600c602090815260408083206001600160401b038d168452600101909152812054919250906064906133a590600160401b90046001600160801b031660196149aa565b6133af91906149d5565b6001600160801b0316905060008460a00151156133e6576101208501516133df906001600160801b03168261488f565b90506133fc565b6133ef86613aed565b6133f9908261488f565b90505b6000836014548461340d91906147b8565b61341791906147e5565b60145490915061342783836147b8565b61343191906147e5565b61343b908961488f565b9750505050505b826001600160401b0316600114806134a3575060016000818152600d602052600080516020614a9f8339815191529161347b90866148c2565b6001600160401b03168152602081019190915260400160002060030154600160801b900460ff165b156135c8576001600160401b0383166000908152601660205260408120546064906134cf9060326147b8565b6134d991906147e5565b6001600160a01b038a166000908152600c602090815260408083206001600160401b038d1684526001019091528120549192509060649061352b90600160401b90046001600160801b031660196149aa565b61353591906149d5565b6001600160801b0316905060008360a001511561356c57610120840151613565906001600160801b03168261488f565b9050613582565b61357586612a2a565b61357f908261488f565b90505b6000836014548461359391906147b8565b61359d91906147e5565b6014549091506135ad83836147b8565b6135b791906147e5565b6135c1908961488f565b9750505050505b505080806135d590614856565b915050613116565b509150505b92915050565b6001600160a01b0382166000908152600c602052604090206003018054829190600a9061269e908490600160501b90046001600160801b03166149fb565b61362e613ced565b6001600160a01b0381166136935760405162461bcd60e51b815260206004820152602660248201527f4f776e61626c653a206e6577206f776e657220697320746865207a65726f206160448201526564647265737360d01b6064820152608401610da3565b61369c81613d47565b50565b6008546000906001600160a01b031633146136cc5760405162461bcd60e51b8152600401610da39061474f565b6000841161371c5760405162461bcd60e51b815260206004820152601a60248201527f43616e6e6f74207769746864726177207a65726f2045746865720000000000006044820152606401610da3565b6001600160a01b0386166000908152600c602090815260408083206001600160401b0387168452600101909152902060020154600160801b900460ff1661377f5760405162461bcd60e51b81526020600482015260006024820152604401610da3565b60405184906000906001600160a01b0388169083908381818185875af1925050503d80600081146137cc576040519150601f19603f3d011682016040523d82523d6000602084013e6137d1565b606091505b50509050806138195760405162461bcd60e51b81526020600482015260146024820152732330b4b632b2103a379039b2b7321022ba3432b960611b6044820152606401610da3565b6001600160a01b0388166000908152600c602090815260408083206001600160401b0389168452600190810190925290912060020154600160801b900460ff1690036138c5576001600160a01b0388166000818152600c602081815260408084206001600160401b038b16855260018082018452918520909101549484529190526002018054600160801b9093046001600160801b0316929091906138bf90849061487c565b90915550505b6001600160a01b0388166000908152600c6020526040812054900361397b576001600160a01b0388166000908152600c60205260409020541561393d5760405162461bcd60e51b815260206004820152601060248201526f496e76616c696420576974686472617760801b6044820152606401610da3565b60108054600090613956906001600160801b0316614a1b565b91906101000a8154816001600160801b0302191690836001600160801b031602179055505b6001600160a01b0388166000908152600c602090815260408083206001600160401b0389168452600101909152812060030180548492906139c69084906001600160801b03166149fb565b82546001600160801b039182166101009390930a9283029190920219909116179055506001546001600160a01b031663661b7d3e613a0d846001600160401b0388166147b8565b6040518263ffffffff1660e01b8152600401613a2b91815260200190565b600060405180830381600087803b158015613a4557600080fd5b505af1158015613a59573d6000803e3d6000fd5b5050505081846001600160401b0316613a7291906147b8565b600f6000828254613a83919061487c565b9250508190555081600e6000828254613a9c919061487c565b90915550506040518681526001600160a01b038816907f884edad9ce6fa2440d8a54cc123490eb96d2768479d49ff9c7366125a94243649060200160405180910390a2506001979650505050505050565b6000808052600d602052600080516020614a3f833981519152546001600160401b039081169083161180613b2857506001600160401b038216155b15613b6e5760405162461bcd60e51b8152602060048201526016602482015275125b9d985b1a590818dbdd5b9d081c1c9bdd9a59195960521b6044820152606401610da3565b6006546040516370a0823160e01b81523060048201526000916001600160a01b0316906370a0823190602401602060405180830381865afa158015613bb7573d6000803e3d6000fd5b505050506040513d601f19601f82011682018060405250810190613bdb9190614816565b6000808052600d602052600080516020614aff833981519152546015549293509091613c07828561487c565b613c1191906147b8565b613c1b91906147e5565b6015546000808052600d602052600080516020614abf8339815191525492935091613c46848361488f565b613c5091906147b8565b613c5a91906147e5565b6015546001600160401b0387166000908152600080516020614adf833981519152602052604081206007015492935091613c9490846147b8565b613c9e91906147e5565b6001600160401b0387166000908152600080516020614adf833981519152602052604081205491925090613ce290600160401b90046001600160801b03168361487c565b979650505050505050565b6000546001600160a01b031633146129875760405162461bcd60e51b815260206004820181905260248201527f4f776e61626c653a2063616c6c6572206973206e6f7420746865206f776e65726044820152606401610da3565b600080546001600160a01b038381166001600160a01b0319831681178455604051919092169283917f8be0079c531659141344cd1fd0a4f28419497f9722a3daafe3b4186f6b6457e09190a35050565b6006546040516370a0823160e01b81523060048201526000916001600160a01b0316906370a0823190602401602060405180830381865afa158015613de0573d6000803e3d6000fd5b505050506040513d601f19601f82011682018060405250810190613e049190614816565b90506000600460009054906101000a90046001600160a01b03166001600160a01b031663026b1d5f6040518163ffffffff1660e01b8152600401602060405180830381865afa158015613e5b573d6000803e3d6000fd5b505050506040513d601f19601f82011682018060405250810190613e7f91906147f9565b60035460405163474cf53d60e01b81526001600160a01b0380841660048301523060248301526000604483015292935091169063474cf53d9085906064016000604051808303818588803b158015613ed657600080fd5b505af1158015613eea573d6000803e3d6000fd5b50506006546040516370a0823160e01b8152306004820152600094506001600160a01b0390911692506370a082319150602401602060405180830381865afa158015613f3a573d6000803e3d6000fd5b505050506040513d601f19601f82011682018060405250810190613f5e9190614816565b6000808052600d602052600080516020614aff8339815191525491925003613fa15760155460008052600d602052600080516020614abf83398151915255614035565b6000808052600d602052600080516020614aff83398151915254601554613fc8828761487c565b613fd291906147b8565b613fdc91906147e5565b60155460008052600d602052600080516020614abf8339815191525491925090614006838361488f565b61401091906147b8565b61401a91906147e5565b60008052600d602052600080516020614abf83398151915255505b60008052600d602052600080516020614aff83398151915255505050565b6000600760009054906101000a90046001600160a01b03166001600160a01b0316631249c58b836040518263ffffffff1660e01b81526004016000604051808303818588803b1580156140a557600080fd5b505af11580156140b9573d6000803e3d6000fd5b50506007546040516370a0823160e01b8152306004820152600094506001600160a01b0390911692506370a082319150602401602060405180830381865afa158015614109573d6000803e3d6000fd5b505050506040513d601f19601f8201168201806040525081019061412d9190614816565b60016000908152600d602052600080516020614a5f8339815191525491925090614157908361487c565b6001600052600d602052600080516020614a5f833981519152929092555092915050565b80356001600160401b038116811461419257600080fd5b919050565b6000602082840312156141a957600080fd5b6141b28261417b565b9392505050565b6001600160a01b038116811461369c57600080fd5b600080604083850312156141e157600080fd5b82356141ec816141b9565b946020939093013593505050565b60006020828403121561420c57600080fd5b5035919050565b80356001600160801b038116811461419257600080fd5b6000806040838503121561423d57600080fd5b8235614248816141b9565b915061425660208401614213565b90509250929050565b6000806040838503121561427257600080fd5b823561427d816141b9565b91506142566020840161417b565b6001600160401b0383811682528251166020820152610260810160208301516001600160801b03811660408401525060408301516001600160401b03811660608401525060608301516001600160801b03811660808401525060808301516001600160801b03811660a08401525060a08301516001600160801b03811660c08401525060c083015160ff811660e08401525060e08301516101006143328185018315159052565b840151905061012061434e848201836001600160801b03169052565b84015190506101406143638482018315159052565b840151905061016061437f848201836001600160401b03169052565b840151905061018061439b848201836001600160401b03169052565b84015190506101a06143b7848201836001600160801b03169052565b84015190506101c06143d3848201836001600160401b03169052565b84015190506101e06143ef848201836001600160801b03169052565b840151905061020061440b848201836001600160401b03169052565b840151610220848101919091528401516001600160801b0381166102408501529050509392505050565b60006020828403121561444757600080fd5b81356141b2816141b9565b801515811461369c57600080fd5b803561419281614452565b6000806040838503121561447e57600080fd5b8235614489816141b9565b9150602083013561449981614452565b809150509250929050565b6000602082840312156144b657600080fd5b8135600281106141b257600080fd5b60405161024081016001600160401b03811182821017156144f657634e487b7160e01b600052604160045260246000fd5b60405290565b803560ff8116811461419257600080fd5b600080600083850361028081121561452457600080fd5b843561452f816141b9565b935061453d6020860161417b565b925061024080603f198301121561455357600080fd5b61455b6144c5565b91506145696040870161417b565b825261457760608701614213565b60208301526145886080870161417b565b604083015261459960a08701614213565b60608301526145aa60c08701614213565b60808301526145bb60e08701614213565b60a08301526101006145ce8188016144fc565b60c08401526101206145e1818901614460565b60e08501526101406145f4818a01614213565b838601526101609250614608838a01614460565b82860152610180915061461c828a0161417b565b908501526101a061462e89820161417b565b838601526101c09250614642838a01614213565b828601526101e09150614656828a0161417b565b90850152610200614668898201614213565b83860152610220925061467c838a0161417b565b82860152838901358186015250506146976102608801614213565b818401525050809150509250925092565b6000806000606084860312156146bd57600080fd5b83356146c8816141b9565b92506146d660208501614213565b91506146e46040850161417b565b90509250925092565b600080600080600060a0868803121561470557600080fd5b8535614710816141b9565b94506020860135614720816141b9565b9350604086013592506147356060870161417b565b91506147436080870161417b565b90509295509295909350565b60208082526033908201527f546869732066756e6374696f6e2063616e206f6e6c792063616c6c656420627960408201527208189bdc9c9bddda5b99c818dbdb9d1c9858dd606a1b606082015260800190565b634e487b7160e01b600052601160045260246000fd5b80820281158282048414176135e2576135e26147a2565b634e487b7160e01b600052601260045260246000fd5b6000826147f4576147f46147cf565b500490565b60006020828403121561480b57600080fd5b81516141b2816141b9565b60006020828403121561482857600080fd5b5051919050565b6001600160401b0381811683821601908082111561484f5761484f6147a2565b5092915050565b60006001600160401b03808316818103614872576148726147a2565b6001019392505050565b818103818111156135e2576135e26147a2565b808201808211156135e2576135e26147a2565b6001600160801b0382811682821603908082111561484f5761484f6147a2565b6001600160401b0382811682821603908082111561484f5761484f6147a2565b60208082526022908201527f496e7075742061646472657373206f7220616d6f756e7420697320696e76616c6040820152611a5960f21b606082015260800190565b60006020828403121561493657600080fd5b81516141b281614452565b6020808252602d908201527f546869732066756e6374696f6e2063616e206f6e6c792063616c6c656420627960408201526c0810d114c818dbdb9d1c9858dd609a1b606082015260800190565b60006001600160801b03808316818103614872576148726147a2565b6001600160801b038181168382160280821691908281146149cd576149cd6147a2565b505092915050565b60006001600160801b03808416806149ef576149ef6147cf565b92169190910492915050565b6001600160801b0381811683821601908082111561484f5761484f6147a2565b60006001600160801b03821680614a3457614a346147a2565b600019019291505056fe81955a0a11e65eac625c29e8882660bae4e165a75d72780094acae8ece9a29effd54ff1ed53f34a900b24c5ba64f85761163b5d82d98a47b9bd80e45466993c8fd54ff1ed53f34a900b24c5ba64f85761163b5d82d98a47b9bd80e45466993c7fd54ff1ed53f34a900b24c5ba64f85761163b5d82d98a47b9bd80e45466993c581955a0a11e65eac625c29e8882660bae4e165a75d72780094acae8ece9a29f381955a0a11e65eac625c29e8882660bae4e165a75d72780094acae8ece9a29ee81955a0a11e65eac625c29e8882660bae4e165a75d72780094acae8ece9a29f1a264697066735822122077cba289038f9422c4829886c391e7877e34688b0718e9d8dfc013d1e4ed461764736f6c63430008120033","linkReferences":{}},"methodIdentifiers":{"aToken()":"a0c1f15e","aavePoolAddressProvider()":"25375dd5","aaveWETH()":"f750d07d","approveAmint(address,uint256)":"2b7f5694","approveUsdt(address,uint256)":"e6136105","borrow()":"e68d3569","borrowing(address)":"f750e3ab","borrowingContract()":"84a965ed","cEther()":"19b68c00","calculateInterestForDepositAave(uint64)":"ff2d7dc6","cdsContract()":"bc497a82","compoundAddress()":"bfc00714","compoundWithdraw(uint256)":"49ba320c","deposit(address,uint128,uint64)":"dcb71f3f","depositToAave()":"06197c1c","depositToCompound()":"1b851134","externalProtocolDepositCount()":"94420dfe","getBalanceInTreasury()":"0f274495","getBorrowing(address,uint64)":"4d5c56a5","getInterestForCompoundDeposit(uint64)":"8ca8fddd","increaseExternalProtocolCount()":"dc64177c","noOfBorrowers()":"45aeb0ce","owner()":"8da5cb5b","protocolDeposit(uint8)":"bdceaba2","renounceOwnership()":"715018a6","setBorrowingContract(address)":"78fdaf3f","totalInterest()":"bc7a36d6","totalInterestFromExternalProtocol(address,uint64)":"e9aeb2a8","totalInterestFromLiquidation()":"394612a1","totalVolumeOfBorrowersAmountinUSD()":"541b6094","totalVolumeOfBorrowersAmountinWei()":"9a52aed9","transferEthToCdsLiquidators(address,uint128)":"5822b66d","transferOwnership(address)":"f2fde38b","trinity()":"509aac34","updateDepositDetails(address,uint64,(uint64,uint128,uint64,uint128,uint128,uint128,uint8,bool,uint128,bool,uint64,uint64,uint128,uint64,uint128,uint64,uint256,uint128))":"d6103823","updateHasBorrowed(address,bool)":"b9127c5c","updateTotalBorrowedAmount(address,uint256)":"1cd081b2","updateTotalDepositedAmount(address,uint128)":"6cd4ddbc","updateTotalInterest(uint256)":"b9a221eb","updateTotalInterestFromLiquidation(uint256)":"23f1059c","updateTotalPTokensDecrease(address,uint128)":"3b7566fc","updateTotalPTokensIncrease(address,uint128)":"ef0d5dc1","usdt()":"2f48ab7d","wethGateway()":"c5e10eef","withdraw(address,address,uint256,uint64,uint64)":"fe6520ae","withdrawFromAave(uint64)":"37672410","withdrawFromCompound(uint64)":"0ddec572","withdrawInterest(address,uint256)":"5b730e69"},"id":1}