{"abi":[{"type":"constructor","inputs":[{"name":"_borrowing","type":"address","internalType":"address"},{"name":"_tokenAddress","type":"address","internalType":"address"},{"name":"_cdsContract","type":"address","internalType":"address"},{"name":"_wethGateway","type":"address","internalType":"address"},{"name":"_cEther","type":"address","internalType":"address"},{"name":"_aavePoolAddressProvider","type":"address","internalType":"address"},{"name":"_aToken","type":"address","internalType":"address"},{"name":"_usdt","type":"address","internalType":"address"}],"stateMutability":"nonpayable"},{"type":"receive","stateMutability":"payable"},{"type":"function","name":"aToken","inputs":[],"outputs":[{"name":"","type":"address","internalType":"contract IATOKEN"}],"stateMutability":"view"},{"type":"function","name":"aavePoolAddressProvider","inputs":[],"outputs":[{"name":"","type":"address","internalType":"contract IPoolAddressesProvider"}],"stateMutability":"view"},{"type":"function","name":"aaveWETH","inputs":[],"outputs":[{"name":"","type":"address","internalType":"address"}],"stateMutability":"view"},{"type":"function","name":"approveAmint","inputs":[{"name":"_address","type":"address","internalType":"address"},{"name":"_amount","type":"uint256","internalType":"uint256"}],"outputs":[],"stateMutability":"nonpayable"},{"type":"function","name":"approveUsdt","inputs":[{"name":"_address","type":"address","internalType":"address"},{"name":"_amount","type":"uint256","internalType":"uint256"}],"outputs":[],"stateMutability":"nonpayable"},{"type":"function","name":"borrow","inputs":[],"outputs":[{"name":"","type":"address","internalType":"contract IBorrowing"}],"stateMutability":"view"},{"type":"function","name":"borrowing","inputs":[{"name":"depositor","type":"address","internalType":"address"}],"outputs":[{"name":"depositedAmount","type":"uint256","internalType":"uint256"},{"name":"totalBorrowedAmount","type":"uint256","internalType":"uint256"},{"name":"hasBorrowed","type":"bool","internalType":"bool"},{"name":"hasDeposited","type":"bool","internalType":"bool"},{"name":"borrowerIndex","type":"uint64","internalType":"uint64"},{"name":"totalPTokens","type":"uint128","internalType":"uint128"}],"stateMutability":"view"},{"type":"function","name":"borrowingContract","inputs":[],"outputs":[{"name":"","type":"address","internalType":"address"}],"stateMutability":"view"},{"type":"function","name":"cEther","inputs":[],"outputs":[{"name":"","type":"address","internalType":"contract ICEther"}],"stateMutability":"view"},{"type":"function","name":"calculateInterestForDepositAave","inputs":[{"name":"count","type":"uint64","internalType":"uint64"}],"outputs":[{"name":"","type":"uint256","internalType":"uint256"}],"stateMutability":"view"},{"type":"function","name":"cdsContract","inputs":[],"outputs":[{"name":"","type":"address","internalType":"address"}],"stateMutability":"view"},{"type":"function","name":"compoundAddress","inputs":[],"outputs":[{"name":"","type":"address","internalType":"address"}],"stateMutability":"view"},{"type":"function","name":"deposit","inputs":[{"name":"user","type":"address","internalType":"address"},{"name":"_ethPrice","type":"uint128","internalType":"uint128"},{"name":"_depositTime","type":"uint64","internalType":"uint64"}],"outputs":[{"name":"","type":"bool","internalType":"bool"},{"name":"","type":"uint64","internalType":"uint64"}],"stateMutability":"payable"},{"type":"function","name":"depositToAave","inputs":[],"outputs":[],"stateMutability":"nonpayable"},{"type":"function","name":"depositToCompound","inputs":[],"outputs":[],"stateMutability":"nonpayable"},{"type":"function","name":"externalProtocolDepositCount","inputs":[],"outputs":[{"name":"","type":"uint64","internalType":"uint64"}],"stateMutability":"view"},{"type":"function","name":"getBalanceInTreasury","inputs":[],"outputs":[{"name":"","type":"uint256","internalType":"uint256"}],"stateMutability":"view"},{"type":"function","name":"getBorrowing","inputs":[{"name":"depositor","type":"address","internalType":"address"},{"name":"index","type":"uint64","internalType":"uint64"}],"outputs":[{"name":"","type":"uint64","internalType":"uint64"},{"name":"","type":"tuple","internalType":"struct Treasury.DepositDetails","components":[{"name":"depositedTime","type":"uint64","internalType":"uint64"},{"name":"depositedAmount","type":"uint128","internalType":"uint128"},{"name":"downsidePercentage","type":"uint64","internalType":"uint64"},{"name":"ethPriceAtDeposit","type":"uint128","internalType":"uint128"},{"name":"borrowedAmount","type":"uint128","internalType":"uint128"},{"name":"normalizedAmount","type":"uint128","internalType":"uint128"},{"name":"withdrawNo","type":"uint8","internalType":"uint8"},{"name":"withdrawed","type":"bool","internalType":"bool"},{"name":"withdrawAmount","type":"uint128","internalType":"uint128"},{"name":"liquidated","type":"bool","internalType":"bool"},{"name":"ethPriceAtWithdraw","type":"uint64","internalType":"uint64"},{"name":"withdrawTime","type":"uint64","internalType":"uint64"},{"name":"pTokensAmount","type":"uint128","internalType":"uint128"},{"name":"strikePrice","type":"uint64","internalType":"uint64"},{"name":"externalProtocolCount","type":"uint64","internalType":"uint64"}]}],"stateMutability":"view"},{"type":"function","name":"getInterestForCompoundDeposit","inputs":[{"name":"count","type":"uint64","internalType":"uint64"}],"outputs":[{"name":"","type":"uint256","internalType":"uint256"}],"stateMutability":"nonpayable"},{"type":"function","name":"increaseExternalProtocolCount","inputs":[],"outputs":[],"stateMutability":"nonpayable"},{"type":"function","name":"noOfBorrowers","inputs":[],"outputs":[{"name":"","type":"uint128","internalType":"uint128"}],"stateMutability":"view"},{"type":"function","name":"owner","inputs":[],"outputs":[{"name":"","type":"address","internalType":"address"}],"stateMutability":"view"},{"type":"function","name":"protocolDeposit","inputs":[{"name":"","type":"uint8","internalType":"enum Treasury.Protocol"}],"outputs":[{"name":"depositIndex","type":"uint64","internalType":"uint64"},{"name":"depositedAmount","type":"uint256","internalType":"uint256"},{"name":"totalCreditedTokens","type":"uint256","internalType":"uint256"},{"name":"depositedUsdValue","type":"uint256","internalType":"uint256"},{"name":"cumulativeRate","type":"uint256","internalType":"uint256"}],"stateMutability":"view"},{"type":"function","name":"renounceOwnership","inputs":[],"outputs":[],"stateMutability":"nonpayable"},{"type":"function","name":"setBorrowingContract","inputs":[{"name":"_address","type":"address","internalType":"address"}],"outputs":[],"stateMutability":"nonpayable"},{"type":"function","name":"totalInterest","inputs":[],"outputs":[{"name":"","type":"uint256","internalType":"uint256"}],"stateMutability":"view"},{"type":"function","name":"totalInterestFromExternalProtocol","inputs":[{"name":"depositor","type":"address","internalType":"address"},{"name":"index","type":"uint64","internalType":"uint64"}],"outputs":[{"name":"","type":"uint256","internalType":"uint256"}],"stateMutability":"nonpayable"},{"type":"function","name":"totalInterestFromLiquidation","inputs":[],"outputs":[{"name":"","type":"uint256","internalType":"uint256"}],"stateMutability":"view"},{"type":"function","name":"totalVolumeOfBorrowersAmountinUSD","inputs":[],"outputs":[{"name":"","type":"uint256","internalType":"uint256"}],"stateMutability":"view"},{"type":"function","name":"totalVolumeOfBorrowersAmountinWei","inputs":[],"outputs":[{"name":"","type":"uint256","internalType":"uint256"}],"stateMutability":"view"},{"type":"function","name":"transferEthToCdsLiquidators","inputs":[{"name":"borrower","type":"address","internalType":"address"},{"name":"amount","type":"uint128","internalType":"uint128"}],"outputs":[],"stateMutability":"nonpayable"},{"type":"function","name":"transferOwnership","inputs":[{"name":"newOwner","type":"address","internalType":"address"}],"outputs":[],"stateMutability":"nonpayable"},{"type":"function","name":"trinity","inputs":[],"outputs":[{"name":"","type":"address","internalType":"contract ITrinityToken"}],"stateMutability":"view"},{"type":"function","name":"updateDepositDetails","inputs":[{"name":"depositor","type":"address","internalType":"address"},{"name":"index","type":"uint64","internalType":"uint64"},{"name":"depositDetail","type":"tuple","internalType":"struct Treasury.DepositDetails","components":[{"name":"depositedTime","type":"uint64","internalType":"uint64"},{"name":"depositedAmount","type":"uint128","internalType":"uint128"},{"name":"downsidePercentage","type":"uint64","internalType":"uint64"},{"name":"ethPriceAtDeposit","type":"uint128","internalType":"uint128"},{"name":"borrowedAmount","type":"uint128","internalType":"uint128"},{"name":"normalizedAmount","type":"uint128","internalType":"uint128"},{"name":"withdrawNo","type":"uint8","internalType":"uint8"},{"name":"withdrawed","type":"bool","internalType":"bool"},{"name":"withdrawAmount","type":"uint128","internalType":"uint128"},{"name":"liquidated","type":"bool","internalType":"bool"},{"name":"ethPriceAtWithdraw","type":"uint64","internalType":"uint64"},{"name":"withdrawTime","type":"uint64","internalType":"uint64"},{"name":"pTokensAmount","type":"uint128","internalType":"uint128"},{"name":"strikePrice","type":"uint64","internalType":"uint64"},{"name":"externalProtocolCount","type":"uint64","internalType":"uint64"}]}],"outputs":[],"stateMutability":"nonpayable"},{"type":"function","name":"updateHasBorrowed","inputs":[{"name":"borrower","type":"address","internalType":"address"},{"name":"_bool","type":"bool","internalType":"bool"}],"outputs":[],"stateMutability":"nonpayable"},{"type":"function","name":"updateTotalBorrowedAmount","inputs":[{"name":"borrower","type":"address","internalType":"address"},{"name":"amount","type":"uint256","internalType":"uint256"}],"outputs":[],"stateMutability":"nonpayable"},{"type":"function","name":"updateTotalDepositedAmount","inputs":[{"name":"borrower","type":"address","internalType":"address"},{"name":"amount","type":"uint128","internalType":"uint128"}],"outputs":[],"stateMutability":"nonpayable"},{"type":"function","name":"updateTotalInterest","inputs":[{"name":"_amount","type":"uint256","internalType":"uint256"}],"outputs":[],"stateMutability":"nonpayable"},{"type":"function","name":"updateTotalInterestFromLiquidation","inputs":[{"name":"_amount","type":"uint256","internalType":"uint256"}],"outputs":[],"stateMutability":"nonpayable"},{"type":"function","name":"updateTotalPTokensDecrease","inputs":[{"name":"borrower","type":"address","internalType":"address"},{"name":"amount","type":"uint128","internalType":"uint128"}],"outputs":[],"stateMutability":"nonpayable"},{"type":"function","name":"updateTotalPTokensIncrease","inputs":[{"name":"borrower","type":"address","internalType":"address"},{"name":"amount","type":"uint128","internalType":"uint128"}],"outputs":[],"stateMutability":"nonpayable"},{"type":"function","name":"usdt","inputs":[],"outputs":[{"name":"","type":"address","internalType":"contract IERC20"}],"stateMutability":"view"},{"type":"function","name":"wethGateway","inputs":[],"outputs":[{"name":"","type":"address","internalType":"contract IWrappedTokenGatewayV3"}],"stateMutability":"view"},{"type":"function","name":"withdraw","inputs":[{"name":"borrower","type":"address","internalType":"address"},{"name":"toAddress","type":"address","internalType":"address"},{"name":"_amount","type":"uint256","internalType":"uint256"},{"name":"index","type":"uint64","internalType":"uint64"},{"name":"_ethPrice","type":"uint64","internalType":"uint64"}],"outputs":[{"name":"","type":"bool","internalType":"bool"}],"stateMutability":"nonpayable"},{"type":"function","name":"withdrawFromAave","inputs":[{"name":"index","type":"uint64","internalType":"uint64"},{"name":"amount","type":"uint256","internalType":"uint256"}],"outputs":[],"stateMutability":"nonpayable"},{"type":"function","name":"withdrawFromCompound","inputs":[{"name":"index","type":"uint64","internalType":"uint64"}],"outputs":[],"stateMutability":"nonpayable"},{"type":"function","name":"withdrawInterest","inputs":[{"name":"toAddress","type":"address","internalType":"address"},{"name":"amount","type":"uint256","internalType":"uint256"}],"outputs":[],"stateMutability":"nonpayable"},{"type":"event","name":"Deposit","inputs":[{"name":"user","type":"address","indexed":true,"internalType":"address"},{"name":"amount","type":"uint256","indexed":false,"internalType":"uint256"}],"anonymous":false},{"type":"event","name":"DepositToAave","inputs":[{"name":"count","type":"uint64","indexed":false,"internalType":"uint64"},{"name":"amount","type":"uint256","indexed":false,"internalType":"uint256"}],"anonymous":false},{"type":"event","name":"DepositToCompound","inputs":[{"name":"count","type":"uint64","indexed":false,"internalType":"uint64"},{"name":"amount","type":"uint256","indexed":false,"internalType":"uint256"}],"anonymous":false},{"type":"event","name":"OwnershipTransferred","inputs":[{"name":"previousOwner","type":"address","indexed":true,"internalType":"address"},{"name":"newOwner","type":"address","indexed":true,"internalType":"address"}],"anonymous":false},{"type":"event","name":"Withdraw","inputs":[{"name":"user","type":"address","indexed":true,"internalType":"address"},{"name":"amount","type":"uint256","indexed":false,"internalType":"uint256"}],"anonymous":false},{"type":"event","name":"WithdrawFromAave","inputs":[{"name":"count","type":"uint64","indexed":false,"internalType":"uint64"},{"name":"amount","type":"uint256","indexed":false,"internalType":"uint256"}],"anonymous":false},{"type":"event","name":"WithdrawFromCompound","inputs":[{"name":"count","type":"uint64","indexed":false,"internalType":"uint64"},{"name":"amount","type":"uint256","indexed":false,"internalType":"uint256"}],"anonymous":false},{"type":"error","name":"Treasury_AaveDepositAndMintFailed","inputs":[]},{"type":"error","name":"Treasury_AavePoolAddressZero","inputs":[]},{"type":"error","name":"Treasury_AaveWithdrawFailed","inputs":[]},{"type":"error","name":"Treasury_CompoundDepositAndMintFailed","inputs":[]},{"type":"error","name":"Treasury_CompoundWithdrawFailed","inputs":[]},{"type":"error","name":"Treasury_EthTransferToCdsLiquidatorFailed","inputs":[]},{"type":"error","name":"Treasury_ZeroDeposit","inputs":[]},{"type":"error","name":"Treasury_ZeroWithdraw","inputs":[]}],"bytecode":{"object":"0x6080346200019a57601f6200333e38819003918201601f19168301916001600160401b038311848410176200019f57808492610100946040528339810103126200019a576200004e81620001b5565b6200005c60208301620001b5565b6200006a60408401620001b5565b926200007960608201620001b5565b936200008860808301620001b5565b906200009760a08401620001b5565b92620000b460e0620000ac60c08401620001b5565b9201620001b5565b936000549060018060a01b031997889233848216176000556040519a60018060a01b03809a81988297838080988198823391167f8be0079c531659141344cd1fd0a4f28419497f9722a3daafe3b4186f6b6457e0600080a36001808060401b03196013541617601355169283836008541617600855169060095416176009558d6001541617600155168b60025416176002551695868a6003541617600355168089600754161760075588600a541617600a55168660045416176004551684600654161760065583600b541617600b55169060055416176005556131739081620001cb8239f35b600080fd5b634e487b7160e01b600052604160045260246000fd5b51906001600160a01b03821682036200019a5756fe6080604052600436101561001b575b361561001957600080fd5b005b6000803560e01c806306197c1c146125355780630ddec572146121c25780630f274495146121a657806319b68c001461217d5780631b85113414611e205780631cd081b214611de257806323f1059c14611dbc57806325375dd514611d935780632b7f569414611c865780632f48ab7d14611c5d578063394612a114611c3f5780633b7566fc14611be857806345aeb0ce14611bc157806349ab8195146117b95780634d5c56a514611527578063509aac34146114fe578063541b6094146114e05780635822b66d146114705780635b730e69146113535780636cd4ddbc14611304578063715018a6146112aa57806378fdaf3f146111f857806384a965ed146111cf5780638ca8fddd146111ab5780638da5cb5b1461118457806394420dfe1461115d5780639a52aed91461113f578063a0c1f15e14611116578063b9127c5c146110c8578063b9a221eb146110a2578063bc497a8214611079578063bc7a36d61461105b578063bdceaba214610feb578063bfc0071414610fc2578063c5e10eef14610f99578063dc64177c14610f06578063dcb71f3f14610c84578063e613610514610ba7578063e68d356914610b7e578063e9aeb2a814610a91578063ef0d5dc1146109ff578063f19aca57146106b0578063f2fde38b146105e5578063f750d07d146105bc578063f750e3ab14610534578063fe6520ae1461025a5763ff2d7dc61461022c575061000e565b3461025757602036600319011261025757602061024f61024a6129f6565b612cd6565b604051908152f35b80fd5b50346102575760a036600319011261025757610274612a4e565b6001600160a01b0390602435828116919082900361052f5760443590606435946001600160401b0380871680970361052f576102ae612a38565b926102be87600854163314612ae0565b84156104ea57861695868352600c97602098808a52600198896040872001836000528b5260ff60026040600020015460801c16156104cd5761030f868080808c8e5af1610309612bdc565b50612c1b565b808652818b52896040872001836000528b528960ff60026040600020015460801c1614610491575b808652818b52604086205415610450575b85528952876040852001906000528852600360406000200180546001600160801b03610378818916828416612c6b565b16906001600160801b0319161790558654169216916103978484612ba9565b813b1561044c57829160248392604051948593849263330dbe9f60e11b845260048401525af18015610441579087939291610427575b5050916104066103fe827f884edad9ce6fa2440d8a54cc123490eb96d2768479d49ff9c7366125a942436495612ba9565b600f54612c5e565b600f5561041581600e54612c5e565b600e55604051908152a2604051908152f35b8192935061043490612a7a565b61025757908186926103cd565b6040513d84823e3d90fd5b8280fd5b6010546001600160801b03808216801561047d576000190116906001600160801b03191617601055610348565b634e487b7160e01b89526011600452602489fd5b808652818b52896040872001836000528b52896040600020015460801c818752828c526104c660026040892001918254612c5e565b9055610337565b60448b876040519162461bcd60e51b835260048301526024820152fd5b60405162461bcd60e51b815260206004820152601a60248201527f43616e6e6f74207769746864726177207a65726f2045746865720000000000006044820152606490fd5b600080fd5b50346102575760203660031901126102575760c0906040906001600160a01b0361055c612a4e565b168152600c602052206001600160801b038154916003600282015491015490604051938452602084015260ff81161515604084015260ff8160081c16151560608401526001600160401b038160101c16608084015260501c1660a0820152f35b5034610257578060031936011261025757600b546040516001600160a01b039091168152602090f35b5034610257576020366003190112610257576105ff612a4e565b6106076130e5565b6001600160a01b0390811690811561065c57600054826bffffffffffffffffffffffff60a01b821617600055167f8be0079c531659141344cd1fd0a4f28419497f9722a3daafe3b4186f6b6457e0600080a380f35b60405162461bcd60e51b815260206004820152602660248201527f4f776e61626c653a206e6577206f776e657220697320746865207a65726f206160448201526564647265737360d01b6064820152608490fd5b503461025757610220366003190112610257576106cb612a4e565b6106d3612a0c565b6101e036604319011261044c57604051916106ed83612aa3565b6106f5612a22565b83526064356001600160801b038116810361052f576020840152610717612a38565b604084015260a4356001600160801b038116810361052f57606084015260c4356001600160801b038116810361052f57608084015260e4356001600160801b038116810361052f5760a08401526101043560ff811681036109fb5760c084015261012435801515810361052f5760e0840152610144356001600160801b038116810361052f5761010084015261016435801515810361052f576101208401526001600160401b036101843516610184350361052f57610184356101408401526001600160401b036101a435166101a4350361052f576101a4356101608401526001600160801b036101c435166101c4350361052f576101c4356101808401526001600160401b036101e435166101e4350361052f576101e4356101a08401526001600160401b036102043516610204350361052f57610204356101c084015260018060a01b03168352600c6020526001600160401b036001604085200191166000526020526001600160401b036101c0600560406000208385511684198254161781556108b16001600160801b0360208701511682612b83565b604085015181546001600160c01b031690851660c01b6001600160c01b0319161781556001600160801b036060860151166001600160801b0319608087015160801b16176001820155600281016001600160801b0360a08701511690805460ff60801b928360c08a015160801b169060ff60881b60e08b0151151560881b169271ffffffffffffffffffffffffffffffffffff1916171717905560038201906001600160801b0361010088015116825491610120890151151560801b16908760881b6101408a015160881b169266ffffffffffffff60c81b1617171790556109e460048201856101608801511686198254161781556109be6001600160801b036101808901511682612b83565b6101a087015181546001600160c01b031690871660c01b6001600160c01b031916179055565b01920151166001600160401b031982541617905580f35b8480fd5b503461025757604036600319011261025757610a8e610a1c612a4e565b610a24612a64565b6001600160a01b039091168352600c6020526040832060030180549091610a569160501c6001600160801b0316612c6b565b81546fffffffffffffffffffffffffffffffff60501b191660509190911b6fffffffffffffffffffffffffffffffff60501b16179055565b80f35b503461025757604036600319011261025757610aab612a4e565b610ab3612a0c565b9060018060a01b031690818352602091600c835260016040852001916001600160401b03809116928360005284526005604060002001541691610b07610af884612f0e565b610b0185612cd6565b90612b76565b92855260148452604085205490670de0b6b3a76400009283830292808404851490151715610b6a57906001604088610b64959461024f999a52600c8a5220019060005286526001600160801b0360406000205460401c1690612bbc565b04612ba9565b634e487b7160e01b87526011600452602487fd5b50346102575780600319360112610257576001546040516001600160a01b039091168152602090f35b503461025757604036600319011261025757610c2b6020610bc6612a4e565b6024359060018060a01b03610be081600954163314613083565b808216151580610c7b575b610bf490612fef565b60055416908560405180968195829463095ea7b360e01b84526004840160209093929193604081019460018060a01b031681520152565b03925af190811561044157610a8e916001918491610c4d575b50151514613046565b610c6e915060203d8111610c74575b610c668183612abf565b810190612ef6565b38610c44565b503d610c5c565b50821515610beb565b50606036600319011261025757610c99612a4e565b610ca1612a64565b610ca9612a22565b60085490926001600160a01b0391610cc49083163314612ae0565b16808452600c906020938285526003604087200180549060ff8260081c1615600014610ec957505081865282855260408620600301805469ffffffffffffffffff00191662010100179055601054600191906001600160801b03808216808214610eb557840116906001600160801b031916176010555b82875283865260408720610d50348254612b76565b905582875283865260016040882001946001600160401b03809316958660005287526001600160801b0390610d8b8234166040600020612b83565b16610da1610d993483612ba9565b600f54612b76565b600f55610db034600e54612b76565b600e55838852848752600160408920018660005287526040600020836001600160401b0319931683825416179055838852848752600160408920018660005287526001604060002001906001600160801b0319825416179055816013541683885284875260016040892001866000528752600560406000200191825416179055670de0b6b3a764000090813402913483041434151715610b6a579560ff9360039360409893899460135416845260148952610e728585209160021c8254612b76565b9055807fe1fffcc4923d04b559f4d29a8bfc6cda04eb5b0d3c460751c2402c5c5cc9109c898651348152a28252865220015460081c169183519215158352820152f35b634e487b7160e01b8a52601160045260248afd5b610ede6001600160401b038360101c16612b48565b9169ffffffffffffffff00008360101b169069ffffffffffffffff0000191617905590610d3b565b5034610257578060031936011261025757600d6020527f81955a0a11e65eac625c29e8882660bae4e165a75d72780094acae8ece9a29ef5460016000527ffd54ff1ed53f34a900b24c5ba64f85761163b5d82d98a47b9bd80e45466993c6546001600160401b0391821690821680821115610f9257505b166001600160401b0319601354161760135580f35b9050610f7d565b50346102575780600319360112610257576003546040516001600160a01b039091168152602090f35b5034610257578060031936011261025757600a546040516001600160a01b039091168152602090f35b5034610257576020366003190112610257576004359060028210156102575750600052600d60205260a060406000206001600160401b0360018201541690600281015490600381015460056004830154920154926040519485526020850152604084015260608301526080820152f35b50346102575780600319360112610257576020601154604051908152f35b50346102575780600319360112610257576009546040516001600160a01b039091168152602090f35b5034610257576020366003190112610257576110c2600435601154612b76565b60115580f35b5034610257576040366003190112610257576110e2612a4e565b6024359081151580920361052f5760018060a01b03168252600c602052600360408320019060ff8019835416911617905580f35b50346102575780600319360112610257576006546040516001600160a01b039091168152602090f35b50346102575780600319360112610257576020600e54604051908152f35b503461025757806003193601126102575760206001600160401b0360135416604051908152f35b5034610257578060031936011261025757546040516001600160a01b039091168152602090f35b503461025757602036600319011261025757602061024f6111ca6129f6565b612f0e565b50346102575780600319360112610257576008546040516001600160a01b039091168152602090f35b503461025757602036600319011261025757611212612a4e565b61121a6130e5565b6001600160a01b03811690811515908161129f575b501561125a576bffffffffffffffffffffffff60a01b81816008541617600855600154161760015580f35b60405162461bcd60e51b815260206004820152601860248201527f496e707574206164647265737320697320696e76616c696400000000000000006044820152606490fd5b90503b15153861122f565b50346102575780600319360112610257576112c36130e5565b600080546001600160a01b0319811682556001600160a01b03167f8be0079c531659141344cd1fd0a4f28419497f9722a3daafe3b4186f6b6457e08280a380f35b50346102575760403660031901126102575761131e612a4e565b6001600160801b0361132e612a64565b169060018060a01b03168252600c60205261134e60408320918254612c5e565b905580f35b50346102575760403660031901126102575761136d612a4e565b6024356113786130e5565b6001600160a01b0390828216151580611467575b61139590612fef565b6113a460115460125490612b76565b81116114165760025460405163a9059cbb60e01b81526001600160a01b039490941660048501526024840191909152602091839160449183918791165af1801561044157610a8e9183916113f85750612c1b565b611410915060203d8111610c7457610c668183612abf565b38610309565b60405162461bcd60e51b815260206004820152602360248201527f547265617375727920646f6e2774206861766520656e6f75676820696e746572604482015262195cdd60ea1b6064820152608490fd5b5080151561138c565b5034610257576040366003190112610257578080808061148e612a4e565b611496612a64565b6009546001600160a01b03916001600160801b03916114b89084163314613083565b1691165af16114c5612bdc565b50156114ce5780f35b604051633243a0f360e21b8152600490fd5b50346102575780600319360112610257576020600f54604051908152f35b50346102575780600319360112610257576002546040516001600160a01b039091168152602090f35b5034610257576040366003190112610257576102009060016040611549612a4e565b92611552612a0c565b93816101c0845161156281612aa3565b82815282602082015282868201528260608201528260808201528260a08201528260c08201528260e08201528261010082015282610120820152826101408201528261016082015282610180820152826101a08201520152838060a01b03168152600c602052206001600160401b0380600383015460101c169316600052016020526001600160401b036101c060406000208260056040519261160484612aa3565b805483811685526001600160801b038160401c16602086015260c01c604085015260018101546001600160801b038116606086015260801c608085015260ff60028201546001600160801b03811660a0870152818160801c1660c087015260881c16151560e08501528260038201546001600160801b03811661010087015260ff8160801c16151561012087015260881c1661014085015260048101548381166101608601526001600160801b038160401c1661018086015260c01c6101a0850152015416828201526040519384528281511660208501526001600160801b0360208201511660408501528260408201511660608501526001600160801b0360608201511660808501526001600160801b0360808201511660a08501526001600160801b0360a08201511660c085015260ff60c08201511660e085015260e081015115156101008501526001600160801b03610100820151166101208501526101208101511515610140850152826101408201511661016085015282610160820151166101808501526001600160801b03610180820151166101a0850152826101a082015116828501520151166101e0820152f35b5034610257576040366003190112610257576117d36129f6565b6008546001600160a01b0391602435916117f09084163314612ae0565b8115611baf5760008052600d60209080825260406000206001600160401b03958685169182600052845261183260ff60036040600020015460801c1615612eab565b600484828254166040519283809263026b1d5f60e01b82525afa8015611b255782918a91611b82575b50168015611b7057600654600b5460405163095ea7b360e01b81529084166001600160a01b03166004820152602481018990528a92918790829086168186816044810103925af18015611b6557611b48575b50826003541690813b1561044c578291606483926040519485938492630402806960e51b845260048401528d60248401523060448401525af1801561044157611b30575b50506024848260075416604051928380926370a0823160e01b82523060048301525afa908115611b25578991611af8575b506000805283855260036040600020015414611ae757600080805283855260408082208483528652808220600301805460ff60801b1916600160801b179055818052848652808220848352865290206004908101805467ffffffffffffffff60801b1916428a1660801b67ffffffffffffffff60801b1617905590849060015416604051928380926350593af760e01b82525afa908115611adc578891611a8d575b50907fb3e5c8a48c51608dcaa5fe045f1963964839d48a0d24e62e940fa0451db9015b96611a539216906000805283855260406000208160005285526004604060002001826001600160801b0319825416179055611a228288612ba9565b9060008052848652604060002090600052855260056040600020015560008052828452600260406000200154612ba9565b916000805252600460406000200155611a8760405192839283602090939291936001600160401b0360408201951681520152565b0390a180f35b9190508382813d8311611ad5575b611aa58183612abf565b8101031261052f5790517fb3e5c8a48c51608dcaa5fe045f1963964839d48a0d24e62e940fa0451db9015b6119c4565b503d611a9b565b6040513d8a823e3d90fd5b60405162bc94a760e31b8152600490fd5b90508481813d8311611b1e575b611b0f8183612abf565b8101031261052f575138611922565b503d611b05565b6040513d8b823e3d90fd5b611b3990612a7a565b611b445787386118f1565b8780fd5b611b5e90873d8911610c7457610c668183612abf565b50386118ad565b6040513d85823e3d90fd5b604051630a20c02560e21b8152600490fd5b611ba29150863d8811611ba8575b611b9a8183612abf565b810190612c86565b3861185b565b503d611b90565b604051633c54b6a360e11b8152600490fd5b503461025757806003193601126102575760206001600160801b0360105416604051908152f35b503461025757604036600319011261025757610a8e611c05612a4e565b611c0d612a64565b6001600160a01b039091168352600c6020526040832060030180549091610a569160501c6001600160801b0316612cbd565b50346102575780600319360112610257576020601254604051908152f35b50346102575780600319360112610257576005546040516001600160a01b039091168152602090f35b503461025757604036600319011261025757611ca0612a4e565b6009546001600160a01b039060243590821633148015611d86575b15611d1b578282602093610c2b9516151580611d12575b611cdb90612fef565b60025416908560405180968195829463095ea7b360e01b84526004840160209093929193604081019460018060a01b031681520152565b50821515611cd2565b60405162461bcd60e51b815260206004820152603a60248201527f546869732066756e6374696f6e2063616e206f6e6c792063616c6c656420627960448201527f20426f72726f77696e67206f722043445320636f6e74726163740000000000006064820152608490fd5b5081600854163314611cbb565b50346102575780600319360112610257576004546040516001600160a01b039091168152602090f35b503461025757602036600319011261025757611ddc600435601254612b76565b60125580f35b5034610257576040366003190112610257576001600160a01b03611e04612a4e565b168152600c6020526002604082200161134e6024358254612b76565b50346102575780600319360112610257576008546001600160a01b0390611e4a9082163314612ae0565b476019810290808204601914901517156121695760649004801561215757828260075416803b1561215357818391600460405180948193631249c58b60e01b83525af180156104415761213f575b5050816007541660405180916370a0823160e01b825230600483015281602460209485935afa908115612134578591612107575b5060019182600052600d9081815260036040600020015483146120f557836000528181526001600160401b0393611f0b85826040600020015416612ca5565b94816000528383526040600020908282016002828916936001600160401b031992858482541617905501611f408a8254612b76565b90558360005285855260406000208360005285526040600020914216908254161790558160005283835260406000208160005283526004836001600160801b0399611f918b8b166040600020612b83565b845416604051928380926350593af760e01b82525afa9081156120ea578a916120bd575b508861206781600361204a7fed55c0f11575257f860976702211fd0107cbdad286e90fd3d9ad6c1d604b8cc59d8d9616886000528a8a526040600020886000528a5261201a818a604060002001986001600160801b031999828b825416179055612ba9565b896000528b8b526040600020896000528b52600260406000200155886000528a8a52600260406000200154612ba9565b876000528989526040600020906004820155015416828916612cbd565b92846000528686526040600020906000528552600360406000200192169082541617905560005252600360406000200155611a8760405192839283602090939291936001600160401b0360408201951681520152565b90508381813d83116120e3575b6120d48183612abf565b8101031261052f575188611fb5565b503d6120ca565b6040513d8c823e3d90fd5b604051631c14f52f60e21b8152600490fd5b90508181813d831161212d575b61211e8183612abf565b8101031261052f575138611ecc565b503d612114565b6040513d87823e3d90fd5b61214890612a7a565b61044c578238611e98565b5080fd5b60405163371c51e160e11b8152600490fd5b634e487b7160e01b83526011600452602483fd5b50346102575780600319360112610257576007546040516001600160a01b039091168152602090f35b5034610257578060031936011261025757602047604051908152f35b503461025757602080600319360112612153576121dd6129f6565b6008546001600160a01b039291906121f89084163314612ae0565b600180600052600d80845260406000206001600160401b0394858516918260005281526001600160801b0392600393808560406000200154169786600052828452604060002085600052845261225b60ff876040600020015460801c1615612eab565b8815611baf578a848b6007541660248c604051948593849263db006a7560e01b845260048401525af190811561250157859161250c575b506024908b60075416604051928380926370a0823160e01b82523060048301525afa908115612501578c916124d4575b50876000528385528660406000200154146124c25760049961236285928960005285845260026040600020016122f98d8254612c5e565b905560008a815286855260408082208a835286528082208b01805460ff60801b1916600160801b1790558b82528786528082208a8352865290208d01805467ffffffffffffffff60801b1916429290921660801b67ffffffffffffffff60801b16919091179055565b8754166040519a8b80926350593af760e01b82525afa80156120ea578a90612475575b7f7947802835fbf722d45a3c84bbefbe958e96c1647668d9db89cb77314688250499501694806000528183526040600020846000528352846124156004604060002001976001600160801b031998818a8254161790556123e5818c612ba9565b84600052858752604060002088600052875260056040600020015583600052848652600260406000200154612ba9565b82600052838552604060002090600482015501612433898254612c5e565b9055600052815260406000209160005252604060002001908154169055611a8760405192839283602090939291936001600160401b0360408201951681520152565b508289813d83116124bb575b61248b8183612abf565b8101031261052f577f7947802835fbf722d45a3c84bbefbe958e96c1647668d9db89cb7731468825049851612385565b503d612481565b604051630f8bab4760e01b8152600490fd5b90508481813d83116124fa575b6124eb8183612abf565b8101031261052f5751386122c2565b503d6124e1565b6040513d8e823e3d90fd5b813d831161252e575b61251f8183612abf565b8101031261052f578338612292565b503d612515565b50346102575780600319360112610257576008546001600160a01b039061255f9082163314612ae0565b4760198102908082046019149015171561216957606490048015612157578160045416604051809163026b1d5f60e01b825281600460209485935afa801561213457849186916129d9575b50168015611b70576003908585835416803b156121535760648693604051948593849263474cf53d60e01b845260048401523060248401528560448401525af180156129ba576129c5575b50602490828560065416604051938480926370a0823160e01b82523060048301525afa9182156129ba57869261298b575b5060008052600d8084528160406000200154831461297957600080528084526001600160401b03936126618560016040600020015416612ca5565b946013549080612672818416612b48565b1667ffffffffffffffff19928316176013558087169160001983016128e05760008052848452670de0b6b3a76400006005604060002001555b670de0b6b3a76400008902670de0b6b3a763ffff198a8204016128cc576126e2906000805286865260056040600020015490612bbc565b6000805285855260406000208460005285526006604060002001556000805284845260026040600020600181018584825416179055016127238a8254612b76565b90556000805284845260406000208360005284526040600020914216908254161790556000805282825260406000208160005282526004826001600160801b03996127748b8b166040600020612b83565b60015416604051928380926350593af760e01b82525afa9081156120ea578a9161289f575b508861284b818761282e7fbab03e271351d865ca59323a9224d2c6e0826b7e61b0716daa4f92f16e5c77619d8d96166000805289895260406000208860005289526127fe816001604060002001986001600160801b031999828b825416179055612ba9565b600080528a8a526040600020896000528a5260026040600020015560008052898952600260406000200154612ba9565b600080528888526040600020906004820155015416828916612cbd565b9260008052858552604060002090600052845285604060002001921690825416179055600080525260406000200155611a8760405192839283602090939291936001600160401b0360408201951681520152565b90508281813d83116128c5575b6128b68183612abf565b8101031261052f575188612799565b503d6128ac565b634e487b7160e01b8c52601160045260248cfd5b600080528484526128f8866040600020015488612c5e565b670de0b6b3a764000090818102908082048314901517156129655761292c9060008052878752886040600020015490612bbc565b81018082116129655761294f906000805287875260056040600020015490612ba9565b04600080528585526005604060002001556126ab565b634e487b7160e01b8d52601160045260248dfd5b604051636b39e0e560e01b8152600490fd5b9091508281813d83116129b3575b6129a38183612abf565b8101031261052f57519038612626565b503d612999565b6040513d88823e3d90fd5b946129d260249296612a7a565b94906125f5565b6129f09150833d8511611ba857611b9a8183612abf565b386125aa565b600435906001600160401b038216820361052f57565b602435906001600160401b038216820361052f57565b604435906001600160401b038216820361052f57565b608435906001600160401b038216820361052f57565b600435906001600160a01b038216820361052f57565b602435906001600160801b038216820361052f57565b6001600160401b038111612a8d57604052565b634e487b7160e01b600052604160045260246000fd5b6101e081019081106001600160401b03821117612a8d57604052565b90601f801991011681019081106001600160401b03821117612a8d57604052565b15612ae757565b60405162461bcd60e51b815260206004820152603360248201527f546869732066756e6374696f6e2063616e206f6e6c792063616c6c656420627960448201527208189bdc9c9bddda5b99c818dbdb9d1c9858dd606a1b6064820152608490fd5b6001600160401b03809116908114612b605760010190565b634e487b7160e01b600052601160045260246000fd5b91908201809211612b6057565b90600160401b600160c01b0382549160401b1690600160401b600160c01b031916179055565b81810292918115918404141715612b6057565b8115612bc6570490565b634e487b7160e01b600052601260045260246000fd5b3d15612c16573d906001600160401b038211612a8d5760405191612c0a601f8201601f191660200184612abf565b82523d6000602084013e565b606090565b15612c2257565b60405162461bcd60e51b81526020600482015260146024820152732330b4b632b2103a379039b2b7321022ba3432b960611b6044820152606490fd5b91908203918211612b6057565b9190916001600160801b0380809416911601918211612b6057565b9081602091031261052f57516001600160a01b038116810361052f5790565b9060016001600160401b0380931601918211612b6057565b6001600160801b039182169082160391908211612b6057565b6000808052600d60208181527f81955a0a11e65eac625c29e8882660bae4e165a75d72780094acae8ece9a29ef5492949391926040926001600160401b0390811692911682118015612ea3575b612e675760065483516370a0823160e01b8152306004820152908290829060249082906001600160a01b03165afa8015612e5d578790612e2a575b612d7691508780528583526003858920015490612c5e565b670de0b6b3a76400009081810290808204831490151715612e165787805285835284882060030154612da791612bbc565b8101808211612e16579284939282612dfa8a94612dde6001600160801b03999787612e139d9e528b86526005898920015490612ba9565b0485805289845286862085875284526006878720015490612ba9565b04968380528152838320918352522054901c1690612c5e565b90565b634e487b7160e01b88526011600452602488fd5b508181813d8311612e56575b612e408183612abf565b81010312612e5257612d769051612d5e565b8680fd5b503d612e36565b84513d89823e3d90fd5b60649083519062461bcd60e51b825260048201526016602482015275125b9d985b1a590818dbdd5b9d081c1c9bdd9a59195960521b6044820152fd5b508115612d23565b15612eb257565b606460405162461bcd60e51b815260206004820152602060248201527f416c7265616479207769746864726177656420696e207468697320696e6465786044820152fd5b9081602091031261052f5751801515810361052f5790565b6001600160401b031660009081527ffd54ff1ed53f34a900b24c5ba64f85761163b5d82d98a47b9bd80e45466993c560209081526040808320600754915163bd6d894d60e01b815293949390929182908290600490829089906001600160a01b03165af1918215612134578592612fb6575b5050612e13929350670de0b6b3a7640000612fa96001600160801b039283600386015416612ba9565b04915460401c1690612c5e565b90809250813d8311612fe8575b612fcd8183612abf565b81010312612fe457612e1392935051839238612f80565b8380fd5b503d612fc3565b15612ff657565b60405162461bcd60e51b815260206004820152602260248201527f496e7075742061646472657373206f7220616d6f756e7420697320696e76616c6044820152611a5960f21b6064820152608490fd5b1561304d57565b60405162461bcd60e51b815260206004820152600e60248201526d105c1c1c9bdd994819985a5b195960921b6044820152606490fd5b1561308a57565b60405162461bcd60e51b815260206004820152602d60248201527f546869732066756e6374696f6e2063616e206f6e6c792063616c6c656420627960448201526c0810d114c818dbdb9d1c9858dd609a1b6064820152608490fd5b6000546001600160a01b031633036130f957565b606460405162461bcd60e51b815260206004820152602060248201527f4f776e61626c653a2063616c6c6572206973206e6f7420746865206f776e65726044820152fdfea26469706673582212206e88dc1a331bd21f24ec2b4c19f1211fd14876d69834a11927e31cbbb9538a4164736f6c63430008120033","linkReferences":{}},"methodIdentifiers":{"aToken()":"a0c1f15e","aavePoolAddressProvider()":"25375dd5","aaveWETH()":"f750d07d","approveAmint(address,uint256)":"2b7f5694","approveUsdt(address,uint256)":"e6136105","borrow()":"e68d3569","borrowing(address)":"f750e3ab","borrowingContract()":"84a965ed","cEther()":"19b68c00","calculateInterestForDepositAave(uint64)":"ff2d7dc6","cdsContract()":"bc497a82","compoundAddress()":"bfc00714","deposit(address,uint128,uint64)":"dcb71f3f","depositToAave()":"06197c1c","depositToCompound()":"1b851134","externalProtocolDepositCount()":"94420dfe","getBalanceInTreasury()":"0f274495","getBorrowing(address,uint64)":"4d5c56a5","getInterestForCompoundDeposit(uint64)":"8ca8fddd","increaseExternalProtocolCount()":"dc64177c","noOfBorrowers()":"45aeb0ce","owner()":"8da5cb5b","protocolDeposit(uint8)":"bdceaba2","renounceOwnership()":"715018a6","setBorrowingContract(address)":"78fdaf3f","totalInterest()":"bc7a36d6","totalInterestFromExternalProtocol(address,uint64)":"e9aeb2a8","totalInterestFromLiquidation()":"394612a1","totalVolumeOfBorrowersAmountinUSD()":"541b6094","totalVolumeOfBorrowersAmountinWei()":"9a52aed9","transferEthToCdsLiquidators(address,uint128)":"5822b66d","transferOwnership(address)":"f2fde38b","trinity()":"509aac34","updateDepositDetails(address,uint64,(uint64,uint128,uint64,uint128,uint128,uint128,uint8,bool,uint128,bool,uint64,uint64,uint128,uint64,uint64))":"f19aca57","updateHasBorrowed(address,bool)":"b9127c5c","updateTotalBorrowedAmount(address,uint256)":"1cd081b2","updateTotalDepositedAmount(address,uint128)":"6cd4ddbc","updateTotalInterest(uint256)":"b9a221eb","updateTotalInterestFromLiquidation(uint256)":"23f1059c","updateTotalPTokensDecrease(address,uint128)":"3b7566fc","updateTotalPTokensIncrease(address,uint128)":"ef0d5dc1","usdt()":"2f48ab7d","wethGateway()":"c5e10eef","withdraw(address,address,uint256,uint64,uint64)":"fe6520ae","withdrawFromAave(uint64,uint256)":"49ab8195","withdrawFromCompound(uint64)":"0ddec572","withdrawInterest(address,uint256)":"5b730e69"},"id":1}