{"abi":[{"type":"constructor","inputs":[{"name":"_borrowing","type":"address","internalType":"address"},{"name":"_tokenAddress","type":"address","internalType":"address"},{"name":"_cdsContract","type":"address","internalType":"address"},{"name":"_wethGateway","type":"address","internalType":"address"},{"name":"_cEther","type":"address","internalType":"address"},{"name":"_aavePoolAddressProvider","type":"address","internalType":"address"},{"name":"_aToken","type":"address","internalType":"address"},{"name":"_usdt","type":"address","internalType":"address"}],"stateMutability":"nonpayable"},{"type":"receive","stateMutability":"payable"},{"type":"function","name":"aToken","inputs":[],"outputs":[{"name":"","type":"address","internalType":"contract IATOKEN"}],"stateMutability":"view"},{"type":"function","name":"aavePoolAddressProvider","inputs":[],"outputs":[{"name":"","type":"address","internalType":"contract IPoolAddressesProvider"}],"stateMutability":"view"},{"type":"function","name":"aaveWETH","inputs":[],"outputs":[{"name":"","type":"address","internalType":"address"}],"stateMutability":"view"},{"type":"function","name":"approveAmint","inputs":[{"name":"_address","type":"address","internalType":"address"},{"name":"_amount","type":"uint256","internalType":"uint256"}],"outputs":[],"stateMutability":"nonpayable"},{"type":"function","name":"approveUsdt","inputs":[{"name":"_address","type":"address","internalType":"address"},{"name":"_amount","type":"uint256","internalType":"uint256"}],"outputs":[],"stateMutability":"nonpayable"},{"type":"function","name":"borrow","inputs":[],"outputs":[{"name":"","type":"address","internalType":"contract IBorrowing"}],"stateMutability":"view"},{"type":"function","name":"borrowing","inputs":[{"name":"depositor","type":"address","internalType":"address"}],"outputs":[{"name":"depositedAmount","type":"uint256","internalType":"uint256"},{"name":"totalBorrowedAmount","type":"uint256","internalType":"uint256"},{"name":"hasBorrowed","type":"bool","internalType":"bool"},{"name":"hasDeposited","type":"bool","internalType":"bool"},{"name":"borrowerIndex","type":"uint64","internalType":"uint64"},{"name":"totalPTokens","type":"uint128","internalType":"uint128"}],"stateMutability":"view"},{"type":"function","name":"borrowingContract","inputs":[],"outputs":[{"name":"","type":"address","internalType":"address"}],"stateMutability":"view"},{"type":"function","name":"cEther","inputs":[],"outputs":[{"name":"","type":"address","internalType":"contract ICEther"}],"stateMutability":"view"},{"type":"function","name":"calculateInterestForDepositAave","inputs":[{"name":"count","type":"uint64","internalType":"uint64"}],"outputs":[{"name":"","type":"uint256","internalType":"uint256"}],"stateMutability":"view"},{"type":"function","name":"cdsContract","inputs":[],"outputs":[{"name":"","type":"address","internalType":"address"}],"stateMutability":"view"},{"type":"function","name":"compoundAddress","inputs":[],"outputs":[{"name":"","type":"address","internalType":"address"}],"stateMutability":"view"},{"type":"function","name":"deposit","inputs":[{"name":"user","type":"address","internalType":"address"},{"name":"_ethPrice","type":"uint128","internalType":"uint128"},{"name":"_depositTime","type":"uint64","internalType":"uint64"}],"outputs":[{"name":"","type":"bool","internalType":"bool"},{"name":"","type":"uint64","internalType":"uint64"}],"stateMutability":"payable"},{"type":"function","name":"depositToAave","inputs":[],"outputs":[],"stateMutability":"nonpayable"},{"type":"function","name":"depositToCompound","inputs":[],"outputs":[],"stateMutability":"nonpayable"},{"type":"function","name":"externalProtocolDepositCount","inputs":[],"outputs":[{"name":"","type":"uint64","internalType":"uint64"}],"stateMutability":"view"},{"type":"function","name":"getBalanceInTreasury","inputs":[],"outputs":[{"name":"","type":"uint256","internalType":"uint256"}],"stateMutability":"view"},{"type":"function","name":"getBorrowing","inputs":[{"name":"depositor","type":"address","internalType":"address"},{"name":"index","type":"uint64","internalType":"uint64"}],"outputs":[{"name":"","type":"uint64","internalType":"uint64"},{"name":"","type":"tuple","internalType":"struct Treasury.DepositDetails","components":[{"name":"depositedTime","type":"uint64","internalType":"uint64"},{"name":"depositedAmount","type":"uint128","internalType":"uint128"},{"name":"downsidePercentage","type":"uint64","internalType":"uint64"},{"name":"ethPriceAtDeposit","type":"uint128","internalType":"uint128"},{"name":"borrowedAmount","type":"uint128","internalType":"uint128"},{"name":"normalizedAmount","type":"uint128","internalType":"uint128"},{"name":"withdrawNo","type":"uint8","internalType":"uint8"},{"name":"withdrawed","type":"bool","internalType":"bool"},{"name":"withdrawAmount","type":"uint128","internalType":"uint128"},{"name":"liquidated","type":"bool","internalType":"bool"},{"name":"ethPriceAtWithdraw","type":"uint64","internalType":"uint64"},{"name":"withdrawTime","type":"uint64","internalType":"uint64"},{"name":"pTokensAmount","type":"uint128","internalType":"uint128"},{"name":"strikePrice","type":"uint64","internalType":"uint64"},{"name":"optionFees","type":"uint128","internalType":"uint128"},{"name":"burnedAmint","type":"uint256","internalType":"uint256"},{"name":"externalProtocolCount","type":"uint64","internalType":"uint64"},{"name":"discountedPrice","type":"uint256","internalType":"uint256"},{"name":"cTokensCredited","type":"uint128","internalType":"uint128"}]}],"stateMutability":"view"},{"type":"function","name":"getInterestForCompoundDeposit","inputs":[{"name":"depositor","type":"address","internalType":"address"},{"name":"index","type":"uint64","internalType":"uint64"}],"outputs":[{"name":"","type":"uint256","internalType":"uint256"}],"stateMutability":"nonpayable"},{"type":"function","name":"increaseExternalProtocolCount","inputs":[],"outputs":[],"stateMutability":"nonpayable"},{"type":"function","name":"noOfBorrowers","inputs":[],"outputs":[{"name":"","type":"uint128","internalType":"uint128"}],"stateMutability":"view"},{"type":"function","name":"owner","inputs":[],"outputs":[{"name":"","type":"address","internalType":"address"}],"stateMutability":"view"},{"type":"function","name":"protocolDeposit","inputs":[{"name":"","type":"uint8","internalType":"enum Treasury.Protocol"}],"outputs":[{"name":"depositIndex","type":"uint64","internalType":"uint64"},{"name":"depositedAmount","type":"uint256","internalType":"uint256"},{"name":"totalCreditedTokens","type":"uint256","internalType":"uint256"},{"name":"depositedUsdValue","type":"uint256","internalType":"uint256"},{"name":"cumulativeRate","type":"uint256","internalType":"uint256"}],"stateMutability":"view"},{"type":"function","name":"renounceOwnership","inputs":[],"outputs":[],"stateMutability":"nonpayable"},{"type":"function","name":"setBorrowingContract","inputs":[{"name":"_address","type":"address","internalType":"address"}],"outputs":[],"stateMutability":"nonpayable"},{"type":"function","name":"totalInterest","inputs":[],"outputs":[{"name":"","type":"uint256","internalType":"uint256"}],"stateMutability":"view"},{"type":"function","name":"totalInterestFromExternalProtocol","inputs":[{"name":"depositor","type":"address","internalType":"address"},{"name":"index","type":"uint64","internalType":"uint64"}],"outputs":[{"name":"","type":"uint256","internalType":"uint256"}],"stateMutability":"view"},{"type":"function","name":"totalInterestFromLiquidation","inputs":[],"outputs":[{"name":"","type":"uint256","internalType":"uint256"}],"stateMutability":"view"},{"type":"function","name":"totalVolumeOfBorrowersAmountinUSD","inputs":[],"outputs":[{"name":"","type":"uint256","internalType":"uint256"}],"stateMutability":"view"},{"type":"function","name":"totalVolumeOfBorrowersAmountinWei","inputs":[],"outputs":[{"name":"","type":"uint256","internalType":"uint256"}],"stateMutability":"view"},{"type":"function","name":"transferEthToCdsLiquidators","inputs":[{"name":"borrower","type":"address","internalType":"address"},{"name":"amount","type":"uint128","internalType":"uint128"}],"outputs":[],"stateMutability":"nonpayable"},{"type":"function","name":"transferOwnership","inputs":[{"name":"newOwner","type":"address","internalType":"address"}],"outputs":[],"stateMutability":"nonpayable"},{"type":"function","name":"trinity","inputs":[],"outputs":[{"name":"","type":"address","internalType":"contract ITrinityToken"}],"stateMutability":"view"},{"type":"function","name":"updateDepositDetails","inputs":[{"name":"depositor","type":"address","internalType":"address"},{"name":"index","type":"uint64","internalType":"uint64"},{"name":"depositDetail","type":"tuple","internalType":"struct Treasury.DepositDetails","components":[{"name":"depositedTime","type":"uint64","internalType":"uint64"},{"name":"depositedAmount","type":"uint128","internalType":"uint128"},{"name":"downsidePercentage","type":"uint64","internalType":"uint64"},{"name":"ethPriceAtDeposit","type":"uint128","internalType":"uint128"},{"name":"borrowedAmount","type":"uint128","internalType":"uint128"},{"name":"normalizedAmount","type":"uint128","internalType":"uint128"},{"name":"withdrawNo","type":"uint8","internalType":"uint8"},{"name":"withdrawed","type":"bool","internalType":"bool"},{"name":"withdrawAmount","type":"uint128","internalType":"uint128"},{"name":"liquidated","type":"bool","internalType":"bool"},{"name":"ethPriceAtWithdraw","type":"uint64","internalType":"uint64"},{"name":"withdrawTime","type":"uint64","internalType":"uint64"},{"name":"pTokensAmount","type":"uint128","internalType":"uint128"},{"name":"strikePrice","type":"uint64","internalType":"uint64"},{"name":"optionFees","type":"uint128","internalType":"uint128"},{"name":"burnedAmint","type":"uint256","internalType":"uint256"},{"name":"externalProtocolCount","type":"uint64","internalType":"uint64"},{"name":"discountedPrice","type":"uint256","internalType":"uint256"},{"name":"cTokensCredited","type":"uint128","internalType":"uint128"}]}],"outputs":[],"stateMutability":"nonpayable"},{"type":"function","name":"updateHasBorrowed","inputs":[{"name":"borrower","type":"address","internalType":"address"},{"name":"_bool","type":"bool","internalType":"bool"}],"outputs":[],"stateMutability":"nonpayable"},{"type":"function","name":"updateTotalBorrowedAmount","inputs":[{"name":"borrower","type":"address","internalType":"address"},{"name":"amount","type":"uint256","internalType":"uint256"}],"outputs":[],"stateMutability":"nonpayable"},{"type":"function","name":"updateTotalDepositedAmount","inputs":[{"name":"borrower","type":"address","internalType":"address"},{"name":"amount","type":"uint128","internalType":"uint128"}],"outputs":[],"stateMutability":"nonpayable"},{"type":"function","name":"updateTotalInterest","inputs":[{"name":"_amount","type":"uint256","internalType":"uint256"}],"outputs":[],"stateMutability":"nonpayable"},{"type":"function","name":"updateTotalInterestFromLiquidation","inputs":[{"name":"_amount","type":"uint256","internalType":"uint256"}],"outputs":[],"stateMutability":"nonpayable"},{"type":"function","name":"updateTotalPTokensDecrease","inputs":[{"name":"borrower","type":"address","internalType":"address"},{"name":"amount","type":"uint128","internalType":"uint128"}],"outputs":[],"stateMutability":"nonpayable"},{"type":"function","name":"updateTotalPTokensIncrease","inputs":[{"name":"borrower","type":"address","internalType":"address"},{"name":"amount","type":"uint128","internalType":"uint128"}],"outputs":[],"stateMutability":"nonpayable"},{"type":"function","name":"usdt","inputs":[],"outputs":[{"name":"","type":"address","internalType":"contract IERC20"}],"stateMutability":"view"},{"type":"function","name":"wethGateway","inputs":[],"outputs":[{"name":"","type":"address","internalType":"contract IWrappedTokenGatewayV3"}],"stateMutability":"view"},{"type":"function","name":"withdraw","inputs":[{"name":"borrower","type":"address","internalType":"address"},{"name":"toAddress","type":"address","internalType":"address"},{"name":"_amount","type":"uint256","internalType":"uint256"},{"name":"index","type":"uint64","internalType":"uint64"},{"name":"_ethPrice","type":"uint64","internalType":"uint64"}],"outputs":[{"name":"","type":"bool","internalType":"bool"}],"stateMutability":"nonpayable"},{"type":"function","name":"withdrawFromAave","inputs":[{"name":"index","type":"uint64","internalType":"uint64"}],"outputs":[],"stateMutability":"nonpayable"},{"type":"function","name":"withdrawFromCompound","inputs":[{"name":"index","type":"uint64","internalType":"uint64"}],"outputs":[],"stateMutability":"nonpayable"},{"type":"function","name":"withdrawInterest","inputs":[{"name":"toAddress","type":"address","internalType":"address"},{"name":"amount","type":"uint256","internalType":"uint256"}],"outputs":[],"stateMutability":"nonpayable"},{"type":"event","name":"Deposit","inputs":[{"name":"user","type":"address","indexed":true,"internalType":"address"},{"name":"amount","type":"uint256","indexed":false,"internalType":"uint256"}],"anonymous":false},{"type":"event","name":"DepositToAave","inputs":[{"name":"count","type":"uint64","indexed":false,"internalType":"uint64"},{"name":"amount","type":"uint256","indexed":false,"internalType":"uint256"}],"anonymous":false},{"type":"event","name":"DepositToCompound","inputs":[{"name":"count","type":"uint64","indexed":false,"internalType":"uint64"},{"name":"amount","type":"uint256","indexed":false,"internalType":"uint256"}],"anonymous":false},{"type":"event","name":"OwnershipTransferred","inputs":[{"name":"previousOwner","type":"address","indexed":true,"internalType":"address"},{"name":"newOwner","type":"address","indexed":true,"internalType":"address"}],"anonymous":false},{"type":"event","name":"Withdraw","inputs":[{"name":"user","type":"address","indexed":true,"internalType":"address"},{"name":"amount","type":"uint256","indexed":false,"internalType":"uint256"}],"anonymous":false},{"type":"event","name":"WithdrawFromAave","inputs":[{"name":"count","type":"uint64","indexed":false,"internalType":"uint64"},{"name":"amount","type":"uint256","indexed":false,"internalType":"uint256"}],"anonymous":false},{"type":"event","name":"WithdrawFromCompound","inputs":[{"name":"count","type":"uint64","indexed":false,"internalType":"uint64"},{"name":"amount","type":"uint256","indexed":false,"internalType":"uint256"}],"anonymous":false},{"type":"error","name":"Treasury_AaveDepositAndMintFailed","inputs":[]},{"type":"error","name":"Treasury_AavePoolAddressZero","inputs":[]},{"type":"error","name":"Treasury_AaveWithdrawFailed","inputs":[]},{"type":"error","name":"Treasury_CompoundDepositAndMintFailed","inputs":[]},{"type":"error","name":"Treasury_CompoundWithdrawFailed","inputs":[]},{"type":"error","name":"Treasury_EthTransferToCdsLiquidatorFailed","inputs":[]},{"type":"error","name":"Treasury_ZeroDeposit","inputs":[]},{"type":"error","name":"Treasury_ZeroWithdraw","inputs":[]}],"bytecode":{"object":"0x6080604052601380546001600160401b0319166001179055670de0b6b3a76400006014556b033b2e3c9fd0803ce80000006015553480156200004057600080fd5b50604051620055cf380380620055cf83398101604081905262000063916200018c565b6200006e336200011f565b600880546001600160a01b03199081166001600160a01b039a8b16908117909255600980548216988b169890981790975560018054881690911790556002805487169789169790971790965560038054861694881694851790556007805486169388169384179055600a80548616909317909255600480548516918716919091179055600680548416918616919091179055600b805483169091179055600580549091169190921617905562000234565b600080546001600160a01b038381166001600160a01b0319831681178455604051919092169283917f8be0079c531659141344cd1fd0a4f28419497f9722a3daafe3b4186f6b6457e09190a35050565b80516001600160a01b03811681146200018757600080fd5b919050565b600080600080600080600080610100898b031215620001aa57600080fd5b620001b5896200016f565b9750620001c560208a016200016f565b9650620001d560408a016200016f565b9550620001e560608a016200016f565b9450620001f560808a016200016f565b93506200020560a08a016200016f565b92506200021560c08a016200016f565b91506200022560e08a016200016f565b90509295985092959890939650565b61538b80620002446000396000f3fe60806040526004361061028c5760003560e01c806384a965ed1161015a578063dc64177c116100c1578063ef0d5dc11161007a578063ef0d5dc114610c1a578063f2fde38b14610c3a578063f750d07d14610c5a578063f750e3ab14610c7a578063fe6520ae14610d2b578063ff2d7dc614610d5b57600080fd5b8063dc64177c14610b53578063dcb71f3f14610b68578063e00bdec414610b9a578063e613610514610bba578063e68d356914610bda578063e9aeb2a814610bfa57600080fd5b8063b9a221eb11610113578063b9a221eb14610a34578063bc497a8214610a54578063bc7a36d614610a74578063bdceaba214610a8a578063bfc0071414610b13578063c5e10eef14610b3357600080fd5b806384a965ed1461093f5780638da5cb5b1461095f57806394420dfe1461097d5780639a52aed9146109b5578063a0c1f15e146109cb578063b9127c5c146109eb57600080fd5b806337672410116101fe578063541b6094116101b7578063541b6094146108945780635822b66d146108aa5780635b730e69146108ca5780636cd4ddbc146108ea578063715018a61461090a57806378fdaf3f1461091f57600080fd5b806337672410146105ce578063394612a1146105ee5780633b7566fc1461060457806345aeb0ce146106245780634d5c56a51461065c578063509aac341461087457600080fd5b80631cd081b2116102505780631cd081b21461033e57806323f1059c1461035e57806325375dd51461037e5780632b7f56941461039e5780632f48ab7d146103be57806334bc9b20146103de57600080fd5b806306197c1c146102985780630ddec572146102af5780630f274495146102cf57806319b68c00146102f15780631b8511341461032957600080fd5b3661029357005b600080fd5b3480156102a457600080fd5b506102ad610d7b565b005b3480156102bb57600080fd5b506102ad6102ca3660046149b5565b6114a0565b3480156102db57600080fd5b50475b6040519081526020015b60405180910390f35b3480156102fd57600080fd5b50600754610311906001600160a01b031681565b6040516001600160a01b0390911681526020016102e8565b34801561033557600080fd5b506102ad611902565b34801561034a57600080fd5b506102ad6103593660046149ec565b611daa565b34801561036a57600080fd5b506102ad610379366004614a18565b611dde565b34801561038a57600080fd5b50600454610311906001600160a01b031681565b3480156103aa57600080fd5b506102ad6103b93660046149ec565b611df8565b3480156103ca57600080fd5b50600554610311906001600160a01b031681565b3480156103ea57600080fd5b506102ad6103f9366004614aa9565b6001600160a01b03929092166000908152600c602090815260408083206001600160401b03948516845260019081018352928190208551815493870151928701519086166001600160c01b031994851617600160401b6001600160801b039485168102919091176001600160c01b03908116600160c01b9389168402178455606089015160808a0151908616600160801b9187168202179785019790975560a089015160028501805460c08c015160e08d015193891670ffffffffffffffffffffffffffffffffff199283161760ff9091168b021760ff60881b1916600160881b9315158402179091556101008b01516003870180546101208e01516101408f0151938b169190941617921515909a029190911767ffffffffffffffff60881b1916908a16909102179096556101608801516004840180546101808b01516101a08c0151938b1691909816179686169092029590951790951693861602929092179092556101c08401516005820180546001600160801b03199081169285169290921790556101e0850151600683015561020085015160078301805467ffffffffffffffff19169190951617909355610220840151600882015561024090930151600990930180549092169216919091179055565b3480156105da57600080fd5b506102ad6105e93660046149b5565b611f83565b3480156105fa57600080fd5b506102de60125481565b34801561061057600080fd5b506102ad61061f366004614c50565b61263c565b34801561063057600080fd5b50601054610644906001600160801b031681565b6040516001600160801b0390911681526020016102e8565b34801561066857600080fd5b50610866610677366004614c85565b6040805161026081018252600080825260208201819052918101829052606081018290526080810182905260a0810182905260c0810182905260e08101829052610100810182905261012081018290526101408101829052610160810182905261018081018290526101a081018290526101c081018290526101e0810182905261020081018290526102208101829052610240810182905250506001600160a01b03919091166000908152600c602090815260408083206003808201546001600160401b039687168652600192830185529483902083516102608101855281548089168252600160401b8082046001600160801b0390811698840198909852600160c01b918290048a1696830196909652938201548087166060830152600160801b9081900487166080830152600283015480881660a084015281810460ff90811660c0850152600160881b918290048116151560e0850152948401548089166101008501529182049094161515610120830152929092048716610140830152600481015480881661016084015293840485166101808301529190920485166101a0830152600581015483166101c083015260068101546101e0830152600781015485166102008301526008810154610220830152600901549091166102408201526201000090910490911691565b6040516102e8929190614cb1565b34801561088057600080fd5b50600254610311906001600160a01b031681565b3480156108a057600080fd5b506102de600f5481565b3480156108b657600080fd5b506102ad6108c5366004614c50565b6126a2565b3480156108d657600080fd5b506102ad6108e53660046149ec565b612749565b3480156108f657600080fd5b506102ad610905366004614c50565b6128ad565b34801561091657600080fd5b506102ad6128de565b34801561092b57600080fd5b506102ad61093a366004614e68565b6128f2565b34801561094b57600080fd5b50600854610311906001600160a01b031681565b34801561096b57600080fd5b506000546001600160a01b0316610311565b34801561098957600080fd5b5060135461099d906001600160401b031681565b6040516001600160401b0390911681526020016102e8565b3480156109c157600080fd5b506102de600e5481565b3480156109d757600080fd5b50600654610311906001600160a01b031681565b3480156109f757600080fd5b506102ad610a06366004614e85565b6001600160a01b03919091166000908152600c60205260409020600301805460ff1916911515919091179055565b348015610a4057600080fd5b506102ad610a4f366004614a18565b612993565b348015610a6057600080fd5b50600954610311906001600160a01b031681565b348015610a8057600080fd5b506102de60115481565b348015610a9657600080fd5b50610ae1610aa5366004614ebe565b600d60205260009081526040902060018101546002820154600383015460048401546005909401546001600160401b0390931693919290919085565b604080516001600160401b0390961686526020860194909452928401919091526060830152608082015260a0016102e8565b348015610b1f57600080fd5b50600a54610311906001600160a01b031681565b348015610b3f57600080fd5b50600354610311906001600160a01b031681565b348015610b5f57600080fd5b506102ad6129a5565b610b7b610b76366004614edf565b612a22565b6040805192151583526001600160401b039091166020830152016102e8565b348015610ba657600080fd5b506102de610bb5366004614c85565b612e0c565b348015610bc657600080fd5b506102ad610bd53660046149ec565b613014565b348015610be657600080fd5b50600154610311906001600160a01b031681565b348015610c0657600080fd5b506102de610c15366004614c85565b6130ab565b348015610c2657600080fd5b506102ad610c35366004614c50565b61359b565b348015610c4657600080fd5b506102ad610c55366004614e68565b6135d9565b348015610c6657600080fd5b50600b54610311906001600160a01b031681565b348015610c8657600080fd5b50610ce5610c95366004614e68565b600c6020526000908152604090208054600282015460039092015490919060ff808216916101008104909116906201000081046001600160401b031690600160501b90046001600160801b031686565b60408051968752602087019590955292151593850193909352151560608401526001600160401b0390911660808301526001600160801b031660a082015260c0016102e8565b348015610d3757600080fd5b50610d4b610d46366004614f24565b613652565b60405190151581526020016102e8565b348015610d6757600080fd5b506102de610d763660046149b5565b613b3c565b6008546001600160a01b03163314610dae5760405162461bcd60e51b8152600401610da590614f86565b60405180910390fd5b6013546001600160401b0316600090815260166020526040812054606490610dd7906032614fef565b610de1919061501c565b905080600003610e045760405163371c51e160e11b815260040160405180910390fd5b6000600460009054906101000a90046001600160a01b03166001600160a01b031663026b1d5f6040518163ffffffff1660e01b8152600401602060405180830381865afa158015610e59573d6000803e3d6000fd5b505050506040513d601f19601f82011682018060405250810190610e7d9190615030565b90506001600160a01b038116610ea657604051630a20c02560e21b815260040160405180910390fd5b6006546040516370a0823160e01b81523060048201526000916001600160a01b0316906370a0823190602401602060405180830381865afa158015610eef573d6000803e3d6000fd5b505050506040513d601f19601f82011682018060405250810190610f13919061504d565b60035460405163474cf53d60e01b81526001600160a01b0385811660048301523060248301526000604483015292935091169063474cf53d9085906064016000604051808303818588803b158015610f6a57600080fd5b505af1158015610f7e573d6000803e3d6000fd5b50506006546040516370a0823160e01b8152306004820152600094506001600160a01b0390911692506370a082319150602401602060405180830381865afa158015610fce573d6000803e3d6000fd5b505050506040513d601f19601f82011682018060405250810190610ff2919061504d565b60008052600d60205260008051602061533683398151915254909150810361102d57604051636b39e0e560e01b815260040160405180910390fd5b60008052600d602052600080516020615276833981519152546001600160401b031661105a600182615066565b601380549192506001600160401b039091169060006110788361508d565b91906101000a8154816001600160401b0302191690836001600160401b0316021790555050806001600160401b0316600114806110cb575060008052600d60205260008051602061533683398151915254155b156110f15760155460008052600d6020526000805160206152f683398151915255611185565b6000808052600d6020526000805160206153368339815191525460155461111882876150b3565b6111229190614fef565b61112c919061501c565b60155460008052600d6020526000805160206152f6833981519152549192509061115683836150c6565b6111609190614fef565b61116a919061501c565b60008052600d6020526000805160206152f683398151915255505b60008052600d6020526000805160206152f6833981519152546015546111ab9087614fef565b6111b5919061501c565b6001600160401b038216600081815260008051602061531683398151915260209081526040822060070193909355808052600d909252600080516020615276833981519152805467ffffffffffffffff191690911790557f81955a0a11e65eac625c29e8882660bae4e165a75d72780094acae8ece9a29f0805487929061123d9084906150c6565b90915550506001600160401b0381811660009081526000805160206153168339815191526020908152604080832080546001600160c01b0319164290951694909417600160401b6001600160801b038b16021790935560015483516350593af760e01b8152935192936001600160a01b03909116926350593af7926004808401939192918290030181865afa1580156112da573d6000803e3d6000fd5b505050506040513d601f19601f820116820180604052508101906112fe919061504d565b6001600160401b03831660009081526000805160206153168339815191526020526040902060010180546001600160801b0319166001600160801b03831690811790915590915061134f9087614fef565b6001600160401b0383166000908152600080516020615316833981519152602090815260408220600201929092558052600d90527f81955a0a11e65eac625c29e8882660bae4e165a75d72780094acae8ece9a29f0546113b9906001600160801b03831690614fef565b60008052600d6020527f81955a0a11e65eac625c29e8882660bae4e165a75d72780094acae8ece9a29f255600080516020615336833981519152546113fe90846150d9565b6001600160401b03831660008181526000805160206153168339815191526020908152604080832060030180546001600160801b0319166001600160801b039690961695909517909455908052600d81526000805160206153368339815191528690558251918252810188905281517fbab03e271351d865ca59323a9224d2c6e0826b7e61b0716daa4f92f16e5c7761929181900390910190a1505050505050565b6008546001600160a01b031633146114ca5760405162461bcd60e51b8152600401610da590614f86565b6001600160401b03811660009081526000805160206152d683398151915260205260409020600301546001600160801b03811690600160801b900460ff16156115555760405162461bcd60e51b815260206004820181905260248201527f416c7265616479207769746864726177656420696e207468697320696e6465786044820152606401610da5565b8060000361157657604051633c54b6a360e11b815260040160405180910390fd5b60075460405163db006a7560e01b8152600481018390526001600160a01b039091169063db006a75906024016020604051808303816000875af11580156115c1573d6000803e3d6000fd5b505050506040513d601f19601f820116820180604052508101906115e5919061504d565b506007546040516370a0823160e01b81523060048201526000916001600160a01b0316906370a0823190602401602060405180830381865afa15801561162f573d6000803e3d6000fd5b505050506040513d601f19601f82011682018060405250810190611653919061504d565b6001600052600d60205260008051602061529683398151915254909150810361168f57604051630f8bab4760e01b815260040160405180910390fd5b60016000908152600d6020526000805160206152b683398151915280548492906116ba9084906150b3565b90915550506001600160401b0383811660009081526000805160206152d68339815191526020908152604080832060038101805460ff60801b1916600160801b9081179091556004918201805467ffffffffffffffff60801b1916429097169091029590951790945560015481516350593af760e01b8152915193946001600160a01b03909116936350593af793838301939092908290030181865afa158015611768573d6000803e3d6000fd5b505050506040513d601f19601f8201168201806040525081019061178c919061504d565b6001600160401b03851660009081526000805160206152d68339815191526020526040902060040180546001600160801b0319166001600160801b0383169081179091559091506117dd9084614fef565b6001600160401b03851660009081526000805160206152d68339815191526020908152604082206005019290925560019052600d90526000805160206152b683398151915254611837906001600160801b03831690614fef565b60016000908152600d6020527ffd54ff1ed53f34a900b24c5ba64f85761163b5d82d98a47b9bd80e45466993c99190915560008051602061529683398151915280548592906118879084906150b3565b90915550506001600160401b03841660008181526000805160206152d6833981519152602090815260409182902060030180546001600160801b0319169055815192835282018590527f7947802835fbf722d45a3c84bbefbe958e96c1647668d9db89cb77314688250491015b60405180910390a150505050565b6008546001600160a01b0316331461192c5760405162461bcd60e51b8152600401610da590614f86565b601354600090606490601690839061194f906001906001600160401b03166150f9565b6001600160401b031681526020019081526020016000205460326119739190614fef565b61197d919061501c565b9050806000036119a05760405163371c51e160e11b815260040160405180910390fd5b600760009054906101000a90046001600160a01b03166001600160a01b0316631249c58b826040518263ffffffff1660e01b81526004016000604051808303818588803b1580156119f057600080fd5b505af1158015611a04573d6000803e3d6000fd5b50506007546040516370a0823160e01b8152306004820152600094506001600160a01b0390911692506370a082319150602401602060405180830381865afa158015611a54573d6000803e3d6000fd5b505050506040513d601f19601f82011682018060405250810190611a78919061504d565b6001600052600d602052600080516020615296833981519152549091508103611ab457604051631c14f52f60e21b815260040160405180910390fd5b60016000819052600d6020527ffd54ff1ed53f34a900b24c5ba64f85761163b5d82d98a47b9bd80e45466993c6546001600160401b031690611af69082615066565b60016000908152600d6020527ffd54ff1ed53f34a900b24c5ba64f85761163b5d82d98a47b9bd80e45466993c6805467ffffffffffffffff19166001600160401b0384161790556000805160206152b683398151915280549293508592909190611b619084906150c6565b90915550506001600160401b0381811660009081526000805160206152d68339815191526020908152604080832080546001600160c01b0319164290951694909417600160401b6001600160801b038916021790935560015483516350593af760e01b8152935192936001600160a01b03909116926350593af7926004808401939192918290030181865afa158015611bfe573d6000803e3d6000fd5b505050506040513d601f19601f82011682018060405250810190611c22919061504d565b6001600160401b03831660009081526000805160206152d68339815191526020526040902060010180546001600160801b0319166001600160801b038316908117909155909150611c739085614fef565b6001600160401b03831660009081526000805160206152d68339815191526020908152604082206002019290925560019052600d90526000805160206152b683398151915254611ccd906001600160801b03831690614fef565b6001600052600d6020527ffd54ff1ed53f34a900b24c5ba64f85761163b5d82d98a47b9bd80e45466993c95560008051602061529683398151915254611d1390846150d9565b6001600160401b03831660008181526000805160206152d68339815191526020908152604080832060030180546001600160801b0319166001600160801b0396909616959095179094556001909152600d8152600080516020615296833981519152869055825191825281018690527fed55c0f11575257f860976702211fd0107cbdad286e90fd3d9ad6c1d604b8cc591016118f4565b6001600160a01b0382166000908152600c602052604081206002018054839290611dd59084906150c6565b90915550505050565b8060126000828254611df091906150c6565b909155505050565b6009546001600160a01b0316331480611e1b57506008546001600160a01b031633145b611e8d5760405162461bcd60e51b815260206004820152603a60248201527f546869732066756e6374696f6e2063616e206f6e6c792063616c6c656420627960448201527f20426f72726f77696e67206f722043445320636f6e74726163740000000000006064820152608401610da5565b6001600160a01b03821615801590611ea457508015155b611ec05760405162461bcd60e51b8152600401610da590615119565b60025460405163095ea7b360e01b81526001600160a01b03848116600483015260248201849052600092169063095ea7b3906044015b6020604051808303816000875af1158015611f15573d6000803e3d6000fd5b505050506040513d601f19601f82011682018060405250810190611f39919061515b565b9050600181151514611f7e5760405162461bcd60e51b815260206004820152600e60248201526d105c1c1c9bdd994819985a5b195960921b6044820152606401610da5565b505050565b6008546001600160a01b03163314611fad5760405162461bcd60e51b8152600401610da590614f86565b6001600160401b03811660009081526000805160206153168339815191526020526040902060030154600160801b900460ff161561202d5760405162461bcd60e51b815260206004820181905260248201527f416c7265616479207769746864726177656420696e207468697320696e6465786044820152606401610da5565b6006546040516370a0823160e01b81523060048201526000916001600160a01b0316906370a0823190602401602060405180830381865afa158015612076573d6000803e3d6000fd5b505050506040513d601f19601f8201168201806040525081019061209a919061504d565b6000808052600d6020526000805160206153368339815191525460155492935090916120c682856150b3565b6120d09190614fef565b6120da919061501c565b6015546000808052600d6020526000805160206152f6833981519152549293509161210584836150c6565b61210f9190614fef565b612119919061501c565b6000805160206152f68339815191528190556015546001600160401b03861660009081526000805160206153168339815191526020526040812060070154929350916121659084614fef565b61216f919061501c565b90506000600460009054906101000a90046001600160a01b03166001600160a01b031663026b1d5f6040518163ffffffff1660e01b8152600401602060405180830381865afa1580156121c6573d6000803e3d6000fd5b505050506040513d601f19601f820116820180604052508101906121ea9190615030565b90506001600160a01b03811661221357604051630a20c02560e21b815260040160405180910390fd5b600654600b5460405163095ea7b360e01b81526001600160a01b0391821660048201526024810185905291169063095ea7b3906044016020604051808303816000875af1158015612268573d6000803e3d6000fd5b505050506040513d601f19601f8201168201806040525081019061228c919061515b565b506001600160401b038616600090815260008051602061531683398151915260205260409020546122cd90600160401b90046001600160801b0316836150d9565b6001600160401b0387166000908152600080516020615316833981519152602052604080822060060180546001600160801b0319166001600160801b0394909416939093179092556003548251630402806960e51b81526001600160a01b03858116600483015260248201879052306044830152935193909116926380500d209260648084019391929182900301818387803b15801561236c57600080fd5b505af1158015612380573d6000803e3d6000fd5b50506006546040516370a0823160e01b8152306004820152600093506001600160a01b0390911691506370a0823190602401602060405180830381865afa1580156123cf573d6000803e3d6000fd5b505050506040513d601f19601f820116820180604052508101906123f3919061504d565b60008052600d60205260008051602061533683398151915254909150810361242d5760405162bc94a760e31b815260040160405180910390fd5b6001600160401b0387811660009081526000805160206153168339815191526020908152604080832060038101805460ff60801b1916600160801b9081179091556004918201805467ffffffffffffffff60801b1916429097169091029590951790945560015481516350593af760e01b8152915193946001600160a01b03909116936350593af793838301939092908290030181865afa1580156124d6573d6000803e3d6000fd5b505050506040513d601f19601f820116820180604052508101906124fa919061504d565b6001600160401b0389811660009081526000805160206153168339815191526020526040902060040180546001600160801b03191692909116918217905590506125448185614fef565b6001600160401b0389166000908152600080516020615316833981519152602090815260408220600501929092558052600d90527f81955a0a11e65eac625c29e8882660bae4e165a75d72780094acae8ece9a29f0546125ae906001600160801b03831690614fef565b60008052600d60209081527f81955a0a11e65eac625c29e8882660bae4e165a75d72780094acae8ece9a29f291909155600080516020615336833981519152839055604080516001600160401b038b16815291820186905280517fb3e5c8a48c51608dcaa5fe045f1963964839d48a0d24e62e940fa0451db9015b9281900390910190a15050505050505050565b6001600160a01b0382166000908152600c602052604090206003018054829190600a9061267a908490600160501b90046001600160801b03166150d9565b92506101000a8154816001600160801b0302191690836001600160801b031602179055505050565b6009546001600160a01b031633146126cc5760405162461bcd60e51b8152600401610da590615178565b6000826001600160a01b0316826001600160801b031660405160006040518083038185875af1925050503d8060008114612722576040519150601f19603f3d011682016040523d82523d6000602084013e612727565b606091505b5050905080611f7e57604051633243a0f360e21b815260040160405180910390fd5b612751613d3c565b6001600160a01b0382161580159061276857508015155b6127845760405162461bcd60e51b8152600401610da590615119565b60125460115461279491906150c6565b8111156127ef5760405162461bcd60e51b815260206004820152602360248201527f547265617375727920646f6e2774206861766520656e6f75676820696e746572604482015262195cdd60ea1b6064820152608401610da5565b60025460405163a9059cbb60e01b81526001600160a01b03848116600483015260248201849052600092169063a9059cbb906044016020604051808303816000875af1158015612843573d6000803e3d6000fd5b505050506040513d601f19601f82011682018060405250810190612867919061515b565b905080611f7e5760405162461bcd60e51b81526020600482015260146024820152732330b4b632b2103a379039b2b7321022ba3432b960611b6044820152606401610da5565b6001600160a01b0382166000908152600c6020526040812080546001600160801b0384169290611dd59084906150b3565b6128e6613d3c565b6128f06000613d96565b565b6128fa613d3c565b6001600160a01b0381161580159061291b57506001600160a01b0381163b15155b6129675760405162461bcd60e51b815260206004820152601860248201527f496e707574206164647265737320697320696e76616c696400000000000000006044820152606401610da5565b600880546001600160a01b039092166001600160a01b0319928316811790915560018054909216179055565b8060116000828254611df091906150c6565b600d6020526000805160206152768339815191525460016000527ffd54ff1ed53f34a900b24c5ba64f85761163b5d82d98a47b9bd80e45466993c6546001600160401b0391821691168181106129fb57806129fd565b815b6013805467ffffffffffffffff19166001600160401b03929092169190911790555050565b60085460009081906001600160a01b03163314612a515760405162461bcd60e51b8152600401610da590614f86565b6001600160a01b0385166000908152600c6020526040812060030154610100900460ff16612aee57506001600160a01b0385166000908152600c60205260408120600301805469ffffffffffffffffff001916620101001790556010805460019290612ac5906001600160801b03166151c5565b91906101000a8154816001600160801b0302191690836001600160801b03160217905550612b4c565b6001600160a01b0386166000908152600c602052604090206003018054600290612b26906201000090046001600160401b031661508d565b91906101000a8154816001600160401b0302191690836001600160401b03160217905590505b6001600160a01b0386166000908152600c602052604081208054349290612b749084906150c6565b90915550506001600160a01b0386166000908152600c602090815260408083206001600160401b0385168452600101909152902080546001600160801b0334818116600160401b02600160401b600160c01b031990931692909217909255612bdd918716614fef565b600f6000828254612bee91906150c6565b9250508190555034600e6000828254612c0791906150c6565b90915550506001600160a01b0386166000908152600c602090815260408083206001600160401b03858116855260019182019093529220805487831667ffffffffffffffff1991821617825592810180546001600160801b038a166001600160801b03199091161790556013546007909101805490931691161790556064612c90346032614fef565b612c9a919061501c565b6013546001600160401b031660009081526016602052604081208054909190612cc49084906150c6565b90915550600090506064612cd9346019614fef565b612ce3919061501c565b9050612cee81613de6565b60008052600d6020526000805160206152f683398151915254601554612d149083614fef565b612d1e919061501c565b6001600160a01b0388166000908152600c602090815260408083206001600160401b0387168452600101909152902060080155612d5a816140c9565b6001600160a01b0388166000818152600c602090815260408083206001600160401b038816845260010182529182902060090180546001600160801b0319166001600160801b0395909516949094179093555134815290917fe1fffcc4923d04b559f4d29a8bfc6cda04eb5b0d3c460751c2402c5c5cc9109c910160405180910390a2506001600160a01b03959095166000908152600c6020526040902060030154610100900460ff16959350505050565b6001600160a01b038083166000908152600c602090815260408083206001600160401b03808716855260019182018452828520835161026081018552815480841682526001600160801b03600160401b8083048216848a0152600160c01b92839004861684890152958401548082166060850152600160801b9081900482166080850152600285015480831660a086015260ff828204811660c0870152600160881b918290048116151560e087015260038701548085166101008801529283041615156101208601529004851661014084015260048085015480871661016086015296870482166101808501529190950484166101a0830152600583015485166101c083015260068301546101e083015260078084015490941661020083015260088301546102208301526009909201549093166102408401529054835163bd6d894d60e01b81529351959692958795919093169363bd6d894d93818401939091829003018187875af1158015612f87573d6000803e3d6000fd5b505050506040513d601f19601f82011682018060405250810190612fab919061504d565b90506000601454828461024001516001600160801b0316612fcc9190614fef565b612fd6919061501c565b9050606483602001516019612feb91906151e1565b612ff5919061520c565b613008906001600160801b0316826150b3565b93505050505b92915050565b6009546001600160a01b0316331461303e5760405162461bcd60e51b8152600401610da590615178565b6001600160a01b0382161580159061305557508015155b6130715760405162461bcd60e51b8152600401610da590615119565b60055460405163095ea7b360e01b81526001600160a01b03848116600483015260248201849052600092169063095ea7b390604401611ef6565b6001600160a01b0382166000908152600c602090815260408083206001600160401b03808616855260019091019092528220600701541681815b6013546001600160401b039081169082161015613592576000600d81808152602080820192909252604090810160009081206001600160401b03868116835290845282822083516101608101855281548084168252600160401b90046001600160801b03908116968201969096526001808301548716958201959095526002820154606082015260038201548087166080830152600160801b9081900460ff16151560a0830152600483015480881660c08401520490921660e083015260058101546101008301526006810154909416610120820152600790930154610140840152919250600d9082908152602080820192909252604090810160009081206001600160401b0380881680845291855291839020835161016081018552815480851682526001600160801b03600160401b909104811696820196909652600180830154871695820195909552600282015460608201526003820154808716608083015260ff600160801b9182900416151560a0830152600483015480881660c08401520490931660e084015260058101546101008401526006810154909416610120830152600790930154610140820152925014806132ec57506000808052600d602052600080516020615316833981519152906132c46001866150f9565b6001600160401b03168152602081019190915260400160002060030154600160801b900460ff165b15613411576001600160401b038316600090815260166020526040812054606490613318906032614fef565b613322919061501c565b6001600160a01b038a166000908152600c602090815260408083206001600160401b038d1684526001019091528120549192509060649061337490600160401b90046001600160801b031660196151e1565b61337e919061520c565b6001600160801b0316905060008460a00151156133b5576101208501516133ae906001600160801b0316826150c6565b90506133cb565b6133be86613b3c565b6133c890826150c6565b90505b600083601454846133dc9190614fef565b6133e6919061501c565b6014549091506133f68383614fef565b613400919061501c565b61340a90896150c6565b9750505050505b826001600160401b031660011480613472575060016000818152600d6020526000805160206152d68339815191529161344a90866150f9565b6001600160401b03168152602081019190915260400160002060030154600160801b900460ff165b1561357d576001600160401b03831660009081526016602052604081205460649061349e906032614fef565b6134a8919061501c565b6001600160a01b038a166000908152600c602090815260408083206001600160401b038d168452600101909152812054919250906064906134fa90600160401b90046001600160801b031660196151e1565b613504919061520c565b6001600160801b0316905060008360a001511561353757610120840151613534906001600160801b0316826150c6565b90505b600083601454846135489190614fef565b613552919061501c565b6014549091506135628383614fef565b61356c919061501c565b61357690896150c6565b9750505050505b5050808061358a9061508d565b9150506130e5565b50949350505050565b6001600160a01b0382166000908152600c602052604090206003018054829190600a9061267a908490600160501b90046001600160801b0316615232565b6135e1613d3c565b6001600160a01b0381166136465760405162461bcd60e51b815260206004820152602660248201527f4f776e61626c653a206e6577206f776e657220697320746865207a65726f206160448201526564647265737360d01b6064820152608401610da5565b61364f81613d96565b50565b6008546000906001600160a01b0316331461367f5760405162461bcd60e51b8152600401610da590614f86565b600084116136cf5760405162461bcd60e51b815260206004820152601a60248201527f43616e6e6f74207769746864726177207a65726f2045746865720000000000006044820152606401610da5565b6001600160a01b0386166000908152600c602090815260408083206001600160401b0387168452600101909152902060020154600160801b900460ff166137325760405162461bcd60e51b81526020600482015260006024820152604401610da5565b60015484906001600160a01b031663661b7d3e613758836001600160401b038716614fef565b6040518263ffffffff1660e01b815260040161377691815260200190565b600060405180830381600087803b15801561379057600080fd5b505af11580156137a4573d6000803e3d6000fd5b5050505080836001600160401b03166137bd9190614fef565b600f60008282546137ce91906150b3565b9250508190555080600e60008282546137e791906150b3565b90915550506001600160a01b0387166000908152600c602090815260408083206001600160401b03881684526001019091529020600290810154600160801b900460ff169003613985576001600160a01b0387166000818152600c602081815260408084206001600160401b038a16855260018082018452918520909101549484529190526002018054600160801b9093046001600160801b0316929091906138919084906150b3565b90915550506001600160a01b0387166000908152600c602090815260408083206001600160401b03881684526001019091529020600290810154600160801b900460ff16146139155760405162461bcd60e51b815260206004820152601060248201526f496e76616c696420576974686472617760801b6044820152606401610da5565b600061392188866141f1565b61392b89876144ec565b61393591906150c6565b905061394181836150c6565b6001600160a01b0389166000908152600c602090815260408083206001600160401b038a16845260010190915290208054600160401b600160c01b03191690559150505b6001600160a01b0387166000908152600c602052604081205490036139e257601080546000906139bd906001600160801b0316615252565b91906101000a8154816001600160801b0302191690836001600160801b031602179055505b6001600160a01b0387166000908152600c602090815260408083206001600160401b038816845260010190915281206003018054839290613a2d9084906001600160801b0316615232565b92506101000a8154816001600160801b0302191690836001600160801b031602179055506000866001600160a01b03168260405160006040518083038185875af1925050503d8060008114613a9e576040519150601f19603f3d011682016040523d82523d6000602084013e613aa3565b606091505b5050905080613aeb5760405162461bcd60e51b81526020600482015260146024820152732330b4b632b2103a379039b2b7321022ba3432b960611b6044820152606401610da5565b866001600160a01b03167f884edad9ce6fa2440d8a54cc123490eb96d2768479d49ff9c7366125a942436487604051613b2691815260200190565b60405180910390a2506001979650505050505050565b6000808052600d602052600080516020615276833981519152546001600160401b039081169083161180613b7757506001600160401b038216155b15613bbd5760405162461bcd60e51b8152602060048201526016602482015275125b9d985b1a590818dbdd5b9d081c1c9bdd9a59195960521b6044820152606401610da5565b6006546040516370a0823160e01b81523060048201526000916001600160a01b0316906370a0823190602401602060405180830381865afa158015613c06573d6000803e3d6000fd5b505050506040513d601f19601f82011682018060405250810190613c2a919061504d565b6000808052600d602052600080516020615336833981519152546015549293509091613c5682856150b3565b613c609190614fef565b613c6a919061501c565b6015546000808052600d6020526000805160206152f68339815191525492935091613c9584836150c6565b613c9f9190614fef565b613ca9919061501c565b6015546001600160401b0387166000908152600080516020615316833981519152602052604081206007015492935091613ce39084614fef565b613ced919061501c565b6001600160401b0387166000908152600080516020615316833981519152602052604081205491925090613d3190600160401b90046001600160801b0316836150b3565b979650505050505050565b6000546001600160a01b031633146128f05760405162461bcd60e51b815260206004820181905260248201527f4f776e61626c653a2063616c6c6572206973206e6f7420746865206f776e65726044820152606401610da5565b600080546001600160a01b038381166001600160a01b0319831681178455604051919092169283917f8be0079c531659141344cd1fd0a4f28419497f9722a3daafe3b4186f6b6457e09190a35050565b6006546040516370a0823160e01b81523060048201526000916001600160a01b0316906370a0823190602401602060405180830381865afa158015613e2f573d6000803e3d6000fd5b505050506040513d601f19601f82011682018060405250810190613e53919061504d565b90506000600460009054906101000a90046001600160a01b03166001600160a01b031663026b1d5f6040518163ffffffff1660e01b8152600401602060405180830381865afa158015613eaa573d6000803e3d6000fd5b505050506040513d601f19601f82011682018060405250810190613ece9190615030565b90506001600160a01b038116613ef757604051630a20c02560e21b815260040160405180910390fd5b60035460405163474cf53d60e01b81526001600160a01b038381166004830152306024830152600060448301529091169063474cf53d9085906064016000604051808303818588803b158015613f4c57600080fd5b505af1158015613f60573d6000803e3d6000fd5b50506006546040516370a0823160e01b8152306004820152600094506001600160a01b0390911692506370a082319150602401602060405180830381865afa158015613fb0573d6000803e3d6000fd5b505050506040513d601f19601f82011682018060405250810190613fd4919061504d565b6000808052600d60205260008051602061533683398151915254919250036140175760155460008052600d6020526000805160206152f6833981519152556140ab565b6000808052600d6020526000805160206153368339815191525460155461403e82876150b3565b6140489190614fef565b614052919061501c565b60155460008052600d6020526000805160206152f6833981519152549192509061407c83836150c6565b6140869190614fef565b614090919061501c565b60008052600d6020526000805160206152f683398151915255505b60008052600d60205260008051602061533683398151915255505050565b6000600760009054906101000a90046001600160a01b03166001600160a01b0316631249c58b836040518263ffffffff1660e01b81526004016000604051808303818588803b15801561411b57600080fd5b505af115801561412f573d6000803e3d6000fd5b50506007546040516370a0823160e01b8152306004820152600094506001600160a01b0390911692506370a082319150602401602060405180830381865afa15801561417f573d6000803e3d6000fd5b505050506040513d601f19601f820116820180604052508101906141a3919061504d565b60016000908152600d60205260008051602061529683398151915254919250906141cd90836150b3565b6001600052600d602052600080516020615296833981519152929092555092915050565b6001600160a01b038083166000908152600c602090815260408083206001600160401b03808716855260019182018452828520835161026081018552815480841682526001600160801b03600160401b8083048216848a0152600160c01b92839004861684890152958401548082166060850152600160801b9081900482166080850152600285015480831660a086015260ff828204811660c0870152600160881b918290048116151560e087015260038701548085166101008801529283041615156101208601529004851661014084015260048085015480871661016086015296870482166101808501529190950484166101a0830152600583015485166101c083015260068301546101e0830152600780840154909416610200830152600883015461022083015260099092015490931661024084018190529154845163bd6d894d60e01b815294519697939692958895919094169363bd6d894d93828401939192909190829003018187875af1158015614373573d6000803e3d6000fd5b505050506040513d601f19601f82011682018060405250810190614397919061504d565b90506000601454828561024001516001600160801b03166143b89190614fef565b6143c2919061501c565b60075460405163db006a7560e01b8152600481018690529192506001600160a01b03169063db006a75906024016020604051808303816000875af115801561440e573d6000803e3d6000fd5b505050506040513d601f19601f82011682018060405250810190614432919061504d565b506007546040516370a0823160e01b81523060048201526001600160a01b03909116906370a0823190602401602060405180830381865afa15801561447b573d6000803e3d6000fd5b505050506040513d601f19601f8201168201806040525081019061449f919061504d565b6001600052600d6020908152600080516020615296833981519152919091558401516064906144cf9060196151e1565b6144d9919061520c565b613d31906001600160801b0316826150b3565b6001600160a01b038281166000908152600c602090815260408083206001600160401b03868116855260019182018452828520835161026081018552815480841682526001600160801b03600160401b808304821698840198909852600160c01b91829004851683880152948301548086166060840152600160801b9081900486166080840152600284015480871660a085015260ff828204811660c0860152600160881b918290048116151560e08601526003860154808916610100870152928304161515610120850152900484166101408301526004808401548086166101608501529788048616610180840152960483166101a0820152600582015484166101c08201526006808301546101e0830152600783015490931661020082015260088201546102208201526009909101549092166102408301525491516370a0823160e01b81523093810193909352929384929116906370a0823190602401602060405180830381865afa158015614669573d6000803e3d6000fd5b505050506040513d601f19601f8201168201806040525081019061468d919061504d565b6000808052600d6020526000805160206153368339815191525460155492935090916146b982856150b3565b6146c39190614fef565b6146cd919061501c565b6015546000808052600d6020526000805160206152f683398151915254929350916146f884836150c6565b6147029190614fef565b61470c919061501c565b6000808052600d6020526000805160206152f683398151915282905560155461022087015192935090916147409084614fef565b61474a919061501c565b90506000600460009054906101000a90046001600160a01b03166001600160a01b031663026b1d5f6040518163ffffffff1660e01b8152600401602060405180830381865afa1580156147a1573d6000803e3d6000fd5b505050506040513d601f19601f820116820180604052508101906147c59190615030565b90506001600160a01b0381166147ee57604051630a20c02560e21b815260040160405180910390fd5b600654600b5460405163095ea7b360e01b81526001600160a01b0391821660048201526024810185905291169063095ea7b3906044016020604051808303816000875af1158015614843573d6000803e3d6000fd5b505050506040513d601f19601f82011682018060405250810190614867919061515b565b50600354604051630402806960e51b81526001600160a01b03838116600483015260248201859052306044830152909116906380500d2090606401600060405180830381600087803b1580156148bc57600080fd5b505af11580156148d0573d6000803e3d6000fd5b50506006546040516370a0823160e01b81523060048201526001600160a01b0390911692506370a082319150602401602060405180830381865afa15801561491c573d6000803e3d6000fd5b505050506040513d601f19601f82011682018060405250810190614940919061504d565b60008052600d60209081526000805160206153368339815191529190915586015160649061496f9060196151e1565b614979919061520c565b61498c906001600160801b0316836150b3565b9998505050505050505050565b80356001600160401b03811681146149b057600080fd5b919050565b6000602082840312156149c757600080fd5b6149d082614999565b9392505050565b6001600160a01b038116811461364f57600080fd5b600080604083850312156149ff57600080fd5b8235614a0a816149d7565b946020939093013593505050565b600060208284031215614a2a57600080fd5b5035919050565b60405161026081016001600160401b0381118282101715614a6257634e487b7160e01b600052604160045260246000fd5b60405290565b80356001600160801b03811681146149b057600080fd5b803560ff811681146149b057600080fd5b801515811461364f57600080fd5b80356149b081614a90565b60008060008385036102a0811215614ac057600080fd5b8435614acb816149d7565b9350614ad960208601614999565b925061026080603f1983011215614aef57600080fd5b614af7614a31565b9150614b0560408701614999565b8252614b1360608701614a68565b6020830152614b2460808701614999565b6040830152614b3560a08701614a68565b6060830152614b4660c08701614a68565b6080830152614b5760e08701614a68565b60a0830152610100614b6a818801614a7f565b60c0840152610120614b7d818901614a9e565b60e0850152610140614b90818a01614a68565b838601526101609250614ba4838a01614a9e565b828601526101809150614bb8828a01614999565b908501526101a0614bca898201614999565b838601526101c09250614bde838a01614a68565b828601526101e09150614bf2828a01614999565b90850152610200614c04898201614a68565b83860152610220925082890135828601526102409150614c25828a01614999565b908501528783013582850152614c3e6102808901614a68565b81850152505050809150509250925092565b60008060408385031215614c6357600080fd5b8235614c6e816149d7565b9150614c7c60208401614a68565b90509250929050565b60008060408385031215614c9857600080fd5b8235614ca3816149d7565b9150614c7c60208401614999565b6001600160401b0383811682528251166020820152610280810160208301516001600160801b03811660408401525060408301516001600160401b03811660608401525060608301516001600160801b03811660808401525060808301516001600160801b03811660a08401525060a08301516001600160801b03811660c08401525060c083015160ff811660e08401525060e0830151610100614d588185018315159052565b8401519050610120614d74848201836001600160801b03169052565b8401519050610140614d898482018315159052565b8401519050610160614da5848201836001600160401b03169052565b8401519050610180614dc1848201836001600160401b03169052565b84015190506101a0614ddd848201836001600160801b03169052565b84015190506101c0614df9848201836001600160401b03169052565b84015190506101e0614e15848201836001600160801b03169052565b840151610200848101919091528401519050610220614e3e818501836001600160401b03169052565b840151610240848101919091528401516001600160801b0381166102608501529050509392505050565b600060208284031215614e7a57600080fd5b81356149d0816149d7565b60008060408385031215614e9857600080fd5b8235614ea3816149d7565b91506020830135614eb381614a90565b809150509250929050565b600060208284031215614ed057600080fd5b8135600281106149d057600080fd5b600080600060608486031215614ef457600080fd5b8335614eff816149d7565b9250614f0d60208501614a68565b9150614f1b60408501614999565b90509250925092565b600080600080600060a08688031215614f3c57600080fd5b8535614f47816149d7565b94506020860135614f57816149d7565b935060408601359250614f6c60608701614999565b9150614f7a60808701614999565b90509295509295909350565b60208082526033908201527f546869732066756e6374696f6e2063616e206f6e6c792063616c6c656420627960408201527208189bdc9c9bddda5b99c818dbdb9d1c9858dd606a1b606082015260800190565b634e487b7160e01b600052601160045260246000fd5b808202811582820484141761300e5761300e614fd9565b634e487b7160e01b600052601260045260246000fd5b60008261502b5761502b615006565b500490565b60006020828403121561504257600080fd5b81516149d0816149d7565b60006020828403121561505f57600080fd5b5051919050565b6001600160401b0381811683821601908082111561508657615086614fd9565b5092915050565b60006001600160401b038083168181036150a9576150a9614fd9565b6001019392505050565b8181038181111561300e5761300e614fd9565b8082018082111561300e5761300e614fd9565b6001600160801b0382811682821603908082111561508657615086614fd9565b6001600160401b0382811682821603908082111561508657615086614fd9565b60208082526022908201527f496e7075742061646472657373206f7220616d6f756e7420697320696e76616c6040820152611a5960f21b606082015260800190565b60006020828403121561516d57600080fd5b81516149d081614a90565b6020808252602d908201527f546869732066756e6374696f6e2063616e206f6e6c792063616c6c656420627960408201526c0810d114c818dbdb9d1c9858dd609a1b606082015260800190565b60006001600160801b038083168181036150a9576150a9614fd9565b6001600160801b0381811683821602808216919082811461520457615204614fd9565b505092915050565b60006001600160801b038084168061522657615226615006565b92169190910492915050565b6001600160801b0381811683821601908082111561508657615086614fd9565b60006001600160801b0382168061526b5761526b614fd9565b600019019291505056fe81955a0a11e65eac625c29e8882660bae4e165a75d72780094acae8ece9a29effd54ff1ed53f34a900b24c5ba64f85761163b5d82d98a47b9bd80e45466993c8fd54ff1ed53f34a900b24c5ba64f85761163b5d82d98a47b9bd80e45466993c7fd54ff1ed53f34a900b24c5ba64f85761163b5d82d98a47b9bd80e45466993c581955a0a11e65eac625c29e8882660bae4e165a75d72780094acae8ece9a29f381955a0a11e65eac625c29e8882660bae4e165a75d72780094acae8ece9a29ee81955a0a11e65eac625c29e8882660bae4e165a75d72780094acae8ece9a29f1a2646970667358221220eedbae99b4c46f41447aaacb26d1d6e216efe78235c55131f0fdb9cc93da3fcf64736f6c63430008120033","linkReferences":{}},"methodIdentifiers":{"aToken()":"a0c1f15e","aavePoolAddressProvider()":"25375dd5","aaveWETH()":"f750d07d","approveAmint(address,uint256)":"2b7f5694","approveUsdt(address,uint256)":"e6136105","borrow()":"e68d3569","borrowing(address)":"f750e3ab","borrowingContract()":"84a965ed","cEther()":"19b68c00","calculateInterestForDepositAave(uint64)":"ff2d7dc6","cdsContract()":"bc497a82","compoundAddress()":"bfc00714","deposit(address,uint128,uint64)":"dcb71f3f","depositToAave()":"06197c1c","depositToCompound()":"1b851134","externalProtocolDepositCount()":"94420dfe","getBalanceInTreasury()":"0f274495","getBorrowing(address,uint64)":"4d5c56a5","getInterestForCompoundDeposit(address,uint64)":"e00bdec4","increaseExternalProtocolCount()":"dc64177c","noOfBorrowers()":"45aeb0ce","owner()":"8da5cb5b","protocolDeposit(uint8)":"bdceaba2","renounceOwnership()":"715018a6","setBorrowingContract(address)":"78fdaf3f","totalInterest()":"bc7a36d6","totalInterestFromExternalProtocol(address,uint64)":"e9aeb2a8","totalInterestFromLiquidation()":"394612a1","totalVolumeOfBorrowersAmountinUSD()":"541b6094","totalVolumeOfBorrowersAmountinWei()":"9a52aed9","transferEthToCdsLiquidators(address,uint128)":"5822b66d","transferOwnership(address)":"f2fde38b","trinity()":"509aac34","updateDepositDetails(address,uint64,(uint64,uint128,uint64,uint128,uint128,uint128,uint8,bool,uint128,bool,uint64,uint64,uint128,uint64,uint128,uint256,uint64,uint256,uint128))":"34bc9b20","updateHasBorrowed(address,bool)":"b9127c5c","updateTotalBorrowedAmount(address,uint256)":"1cd081b2","updateTotalDepositedAmount(address,uint128)":"6cd4ddbc","updateTotalInterest(uint256)":"b9a221eb","updateTotalInterestFromLiquidation(uint256)":"23f1059c","updateTotalPTokensDecrease(address,uint128)":"3b7566fc","updateTotalPTokensIncrease(address,uint128)":"ef0d5dc1","usdt()":"2f48ab7d","wethGateway()":"c5e10eef","withdraw(address,address,uint256,uint64,uint64)":"fe6520ae","withdrawFromAave(uint64)":"37672410","withdrawFromCompound(uint64)":"0ddec572","withdrawInterest(address,uint256)":"5b730e69"},"id":1}