{"abi":[{"type":"constructor","inputs":[{"name":"_borrowing","type":"address","internalType":"address"},{"name":"_tokenAddress","type":"address","internalType":"address"},{"name":"_cdsContract","type":"address","internalType":"address"},{"name":"_wethGateway","type":"address","internalType":"address"},{"name":"_cEther","type":"address","internalType":"address"},{"name":"_aavePoolAddressProvider","type":"address","internalType":"address"},{"name":"_aToken","type":"address","internalType":"address"},{"name":"_usdt","type":"address","internalType":"address"}],"stateMutability":"nonpayable"},{"type":"receive","stateMutability":"payable"},{"type":"function","name":"aToken","inputs":[],"outputs":[{"name":"","type":"address","internalType":"contract IATOKEN"}],"stateMutability":"view"},{"type":"function","name":"aavePoolAddressProvider","inputs":[],"outputs":[{"name":"","type":"address","internalType":"contract IPoolAddressesProvider"}],"stateMutability":"view"},{"type":"function","name":"aaveWETH","inputs":[],"outputs":[{"name":"","type":"address","internalType":"address"}],"stateMutability":"view"},{"type":"function","name":"approveAmint","inputs":[{"name":"_address","type":"address","internalType":"address"},{"name":"_amount","type":"uint256","internalType":"uint256"}],"outputs":[],"stateMutability":"nonpayable"},{"type":"function","name":"approveUsdt","inputs":[{"name":"_address","type":"address","internalType":"address"},{"name":"_amount","type":"uint256","internalType":"uint256"}],"outputs":[],"stateMutability":"nonpayable"},{"type":"function","name":"borrow","inputs":[],"outputs":[{"name":"","type":"address","internalType":"contract IBorrowing"}],"stateMutability":"view"},{"type":"function","name":"borrowing","inputs":[{"name":"depositor","type":"address","internalType":"address"}],"outputs":[{"name":"depositedAmount","type":"uint256","internalType":"uint256"},{"name":"totalBorrowedAmount","type":"uint256","internalType":"uint256"},{"name":"hasBorrowed","type":"bool","internalType":"bool"},{"name":"hasDeposited","type":"bool","internalType":"bool"},{"name":"borrowerIndex","type":"uint64","internalType":"uint64"},{"name":"totalPTokens","type":"uint128","internalType":"uint128"}],"stateMutability":"view"},{"type":"function","name":"borrowingContract","inputs":[],"outputs":[{"name":"","type":"address","internalType":"address"}],"stateMutability":"view"},{"type":"function","name":"cEther","inputs":[],"outputs":[{"name":"","type":"address","internalType":"contract ICEther"}],"stateMutability":"view"},{"type":"function","name":"calculateInterestForDepositAave","inputs":[{"name":"count","type":"uint64","internalType":"uint64"}],"outputs":[{"name":"","type":"uint256","internalType":"uint256"}],"stateMutability":"view"},{"type":"function","name":"cdsContract","inputs":[],"outputs":[{"name":"","type":"address","internalType":"address"}],"stateMutability":"view"},{"type":"function","name":"compoundAddress","inputs":[],"outputs":[{"name":"","type":"address","internalType":"address"}],"stateMutability":"view"},{"type":"function","name":"deposit","inputs":[{"name":"user","type":"address","internalType":"address"},{"name":"_ethPrice","type":"uint128","internalType":"uint128"},{"name":"_depositTime","type":"uint64","internalType":"uint64"}],"outputs":[{"name":"","type":"bool","internalType":"bool"},{"name":"","type":"uint64","internalType":"uint64"}],"stateMutability":"payable"},{"type":"function","name":"depositToAave","inputs":[],"outputs":[],"stateMutability":"nonpayable"},{"type":"function","name":"depositToCompound","inputs":[],"outputs":[],"stateMutability":"nonpayable"},{"type":"function","name":"externalProtocolDepositCount","inputs":[],"outputs":[{"name":"","type":"uint64","internalType":"uint64"}],"stateMutability":"view"},{"type":"function","name":"getBalanceInTreasury","inputs":[],"outputs":[{"name":"","type":"uint256","internalType":"uint256"}],"stateMutability":"view"},{"type":"function","name":"getBorrowing","inputs":[{"name":"depositor","type":"address","internalType":"address"},{"name":"index","type":"uint64","internalType":"uint64"}],"outputs":[{"name":"","type":"uint64","internalType":"uint64"},{"name":"","type":"tuple","internalType":"struct Treasury.DepositDetails","components":[{"name":"depositedTime","type":"uint64","internalType":"uint64"},{"name":"depositedAmount","type":"uint128","internalType":"uint128"},{"name":"downsidePercentage","type":"uint64","internalType":"uint64"},{"name":"ethPriceAtDeposit","type":"uint128","internalType":"uint128"},{"name":"borrowedAmount","type":"uint128","internalType":"uint128"},{"name":"normalizedAmount","type":"uint128","internalType":"uint128"},{"name":"withdrawNo","type":"uint8","internalType":"uint8"},{"name":"withdrawed","type":"bool","internalType":"bool"},{"name":"withdrawAmount","type":"uint128","internalType":"uint128"},{"name":"liquidated","type":"bool","internalType":"bool"},{"name":"ethPriceAtWithdraw","type":"uint64","internalType":"uint64"},{"name":"withdrawTime","type":"uint64","internalType":"uint64"},{"name":"pTokensAmount","type":"uint128","internalType":"uint128"},{"name":"strikePrice","type":"uint64","internalType":"uint64"},{"name":"externalProtocolCount","type":"uint64","internalType":"uint64"}]}],"stateMutability":"view"},{"type":"function","name":"getInterestForCompoundDeposit","inputs":[{"name":"count","type":"uint64","internalType":"uint64"}],"outputs":[{"name":"","type":"uint256","internalType":"uint256"}],"stateMutability":"nonpayable"},{"type":"function","name":"increaseExternalProtocolCount","inputs":[],"outputs":[],"stateMutability":"nonpayable"},{"type":"function","name":"noOfBorrowers","inputs":[],"outputs":[{"name":"","type":"uint128","internalType":"uint128"}],"stateMutability":"view"},{"type":"function","name":"owner","inputs":[],"outputs":[{"name":"","type":"address","internalType":"address"}],"stateMutability":"view"},{"type":"function","name":"protocolDeposit","inputs":[{"name":"","type":"uint8","internalType":"enum Treasury.Protocol"}],"outputs":[{"name":"depositIndex","type":"uint64","internalType":"uint64"},{"name":"depositedAmount","type":"uint256","internalType":"uint256"},{"name":"totalCreditedTokens","type":"uint256","internalType":"uint256"},{"name":"depositedUsdValue","type":"uint256","internalType":"uint256"},{"name":"cumulativeRate","type":"uint256","internalType":"uint256"}],"stateMutability":"view"},{"type":"function","name":"renounceOwnership","inputs":[],"outputs":[],"stateMutability":"nonpayable"},{"type":"function","name":"setBorrowingContract","inputs":[{"name":"_address","type":"address","internalType":"address"}],"outputs":[],"stateMutability":"nonpayable"},{"type":"function","name":"totalInterest","inputs":[],"outputs":[{"name":"","type":"uint256","internalType":"uint256"}],"stateMutability":"view"},{"type":"function","name":"totalInterestFromExternalProtocol","inputs":[{"name":"depositor","type":"address","internalType":"address"},{"name":"index","type":"uint64","internalType":"uint64"}],"outputs":[{"name":"","type":"uint256","internalType":"uint256"}],"stateMutability":"nonpayable"},{"type":"function","name":"totalInterestFromLiquidation","inputs":[],"outputs":[{"name":"","type":"uint256","internalType":"uint256"}],"stateMutability":"view"},{"type":"function","name":"totalVolumeOfBorrowersAmountinUSD","inputs":[],"outputs":[{"name":"","type":"uint256","internalType":"uint256"}],"stateMutability":"view"},{"type":"function","name":"totalVolumeOfBorrowersAmountinWei","inputs":[],"outputs":[{"name":"","type":"uint256","internalType":"uint256"}],"stateMutability":"view"},{"type":"function","name":"transferEthToCdsLiquidators","inputs":[{"name":"borrower","type":"address","internalType":"address"},{"name":"amount","type":"uint128","internalType":"uint128"}],"outputs":[],"stateMutability":"nonpayable"},{"type":"function","name":"transferOwnership","inputs":[{"name":"newOwner","type":"address","internalType":"address"}],"outputs":[],"stateMutability":"nonpayable"},{"type":"function","name":"trinity","inputs":[],"outputs":[{"name":"","type":"address","internalType":"contract ITrinityToken"}],"stateMutability":"view"},{"type":"function","name":"updateDepositDetails","inputs":[{"name":"depositor","type":"address","internalType":"address"},{"name":"index","type":"uint64","internalType":"uint64"},{"name":"depositDetail","type":"tuple","internalType":"struct Treasury.DepositDetails","components":[{"name":"depositedTime","type":"uint64","internalType":"uint64"},{"name":"depositedAmount","type":"uint128","internalType":"uint128"},{"name":"downsidePercentage","type":"uint64","internalType":"uint64"},{"name":"ethPriceAtDeposit","type":"uint128","internalType":"uint128"},{"name":"borrowedAmount","type":"uint128","internalType":"uint128"},{"name":"normalizedAmount","type":"uint128","internalType":"uint128"},{"name":"withdrawNo","type":"uint8","internalType":"uint8"},{"name":"withdrawed","type":"bool","internalType":"bool"},{"name":"withdrawAmount","type":"uint128","internalType":"uint128"},{"name":"liquidated","type":"bool","internalType":"bool"},{"name":"ethPriceAtWithdraw","type":"uint64","internalType":"uint64"},{"name":"withdrawTime","type":"uint64","internalType":"uint64"},{"name":"pTokensAmount","type":"uint128","internalType":"uint128"},{"name":"strikePrice","type":"uint64","internalType":"uint64"},{"name":"externalProtocolCount","type":"uint64","internalType":"uint64"}]}],"outputs":[],"stateMutability":"nonpayable"},{"type":"function","name":"updateHasBorrowed","inputs":[{"name":"borrower","type":"address","internalType":"address"},{"name":"_bool","type":"bool","internalType":"bool"}],"outputs":[],"stateMutability":"nonpayable"},{"type":"function","name":"updateTotalBorrowedAmount","inputs":[{"name":"borrower","type":"address","internalType":"address"},{"name":"amount","type":"uint256","internalType":"uint256"}],"outputs":[],"stateMutability":"nonpayable"},{"type":"function","name":"updateTotalDepositedAmount","inputs":[{"name":"borrower","type":"address","internalType":"address"},{"name":"amount","type":"uint128","internalType":"uint128"}],"outputs":[],"stateMutability":"nonpayable"},{"type":"function","name":"updateTotalInterest","inputs":[{"name":"_amount","type":"uint256","internalType":"uint256"}],"outputs":[],"stateMutability":"nonpayable"},{"type":"function","name":"updateTotalInterestFromLiquidation","inputs":[{"name":"_amount","type":"uint256","internalType":"uint256"}],"outputs":[],"stateMutability":"nonpayable"},{"type":"function","name":"updateTotalPTokensDecrease","inputs":[{"name":"borrower","type":"address","internalType":"address"},{"name":"amount","type":"uint128","internalType":"uint128"}],"outputs":[],"stateMutability":"nonpayable"},{"type":"function","name":"updateTotalPTokensIncrease","inputs":[{"name":"borrower","type":"address","internalType":"address"},{"name":"amount","type":"uint128","internalType":"uint128"}],"outputs":[],"stateMutability":"nonpayable"},{"type":"function","name":"usdt","inputs":[],"outputs":[{"name":"","type":"address","internalType":"contract IERC20"}],"stateMutability":"view"},{"type":"function","name":"wethGateway","inputs":[],"outputs":[{"name":"","type":"address","internalType":"contract IWrappedTokenGatewayV3"}],"stateMutability":"view"},{"type":"function","name":"withdraw","inputs":[{"name":"borrower","type":"address","internalType":"address"},{"name":"toAddress","type":"address","internalType":"address"},{"name":"_amount","type":"uint256","internalType":"uint256"},{"name":"index","type":"uint64","internalType":"uint64"},{"name":"_ethPrice","type":"uint64","internalType":"uint64"}],"outputs":[{"name":"","type":"bool","internalType":"bool"}],"stateMutability":"nonpayable"},{"type":"function","name":"withdrawFromAave","inputs":[{"name":"index","type":"uint64","internalType":"uint64"}],"outputs":[],"stateMutability":"nonpayable"},{"type":"function","name":"withdrawFromCompound","inputs":[{"name":"index","type":"uint64","internalType":"uint64"}],"outputs":[],"stateMutability":"nonpayable"},{"type":"function","name":"withdrawInterest","inputs":[{"name":"toAddress","type":"address","internalType":"address"},{"name":"amount","type":"uint256","internalType":"uint256"}],"outputs":[],"stateMutability":"nonpayable"},{"type":"event","name":"Deposit","inputs":[{"name":"user","type":"address","indexed":true,"internalType":"address"},{"name":"amount","type":"uint256","indexed":false,"internalType":"uint256"}],"anonymous":false},{"type":"event","name":"DepositToAave","inputs":[{"name":"count","type":"uint64","indexed":false,"internalType":"uint64"},{"name":"amount","type":"uint256","indexed":false,"internalType":"uint256"}],"anonymous":false},{"type":"event","name":"DepositToCompound","inputs":[{"name":"count","type":"uint64","indexed":false,"internalType":"uint64"},{"name":"amount","type":"uint256","indexed":false,"internalType":"uint256"}],"anonymous":false},{"type":"event","name":"OwnershipTransferred","inputs":[{"name":"previousOwner","type":"address","indexed":true,"internalType":"address"},{"name":"newOwner","type":"address","indexed":true,"internalType":"address"}],"anonymous":false},{"type":"event","name":"Withdraw","inputs":[{"name":"user","type":"address","indexed":true,"internalType":"address"},{"name":"amount","type":"uint256","indexed":false,"internalType":"uint256"}],"anonymous":false},{"type":"event","name":"WithdrawFromAave","inputs":[{"name":"count","type":"uint64","indexed":false,"internalType":"uint64"},{"name":"amount","type":"uint256","indexed":false,"internalType":"uint256"}],"anonymous":false},{"type":"event","name":"WithdrawFromCompound","inputs":[{"name":"count","type":"uint64","indexed":false,"internalType":"uint64"},{"name":"amount","type":"uint256","indexed":false,"internalType":"uint256"}],"anonymous":false},{"type":"error","name":"Treasury_AaveDepositAndMintFailed","inputs":[]},{"type":"error","name":"Treasury_AavePoolAddressZero","inputs":[]},{"type":"error","name":"Treasury_AaveWithdrawFailed","inputs":[]},{"type":"error","name":"Treasury_CompoundDepositAndMintFailed","inputs":[]},{"type":"error","name":"Treasury_CompoundWithdrawFailed","inputs":[]},{"type":"error","name":"Treasury_EthTransferToCdsLiquidatorFailed","inputs":[]},{"type":"error","name":"Treasury_ZeroDeposit","inputs":[]},{"type":"error","name":"Treasury_ZeroWithdraw","inputs":[]}],"bytecode":{"object":"0x6080604052601380546001600160401b0319166001179055670de0b6b3a76400006014553480156200003057600080fd5b50604051620045503803806200455083398101604081905262000053916200017c565b6200005e336200010f565b600880546001600160a01b03199081166001600160a01b039a8b16908117909255600980548216988b169890981790975560018054881690911790556002805487169789169790971790965560038054861694881694851790556007805486169388169384179055600a80548616909317909255600480548516918716919091179055600680548416918616919091179055600b805483169091179055600580549091169190921617905562000224565b600080546001600160a01b038381166001600160a01b0319831681178455604051919092169283917f8be0079c531659141344cd1fd0a4f28419497f9722a3daafe3b4186f6b6457e09190a35050565b80516001600160a01b03811681146200017757600080fd5b919050565b600080600080600080600080610100898b0312156200019a57600080fd5b620001a5896200015f565b9750620001b560208a016200015f565b9650620001c560408a016200015f565b9550620001d560608a016200015f565b9450620001e560808a016200015f565b9350620001f560a08a016200015f565b92506200020560c08a016200015f565b91506200021560e08a016200015f565b90509295985092959890939650565b61431c80620002346000396000f3fe60806040526004361061028c5760003560e01c80638ca8fddd1161015a578063dc64177c116100c1578063f19aca571161007a578063f19aca57146109fa578063f2fde38b14610ba0578063f750d07d14610bc0578063f750e3ab14610be0578063fe6520ae14610c91578063ff2d7dc614610cc157600080fd5b8063dc64177c14610933578063dcb71f3f14610948578063e61361051461097a578063e68d35691461099a578063e9aeb2a8146109ba578063ef0d5dc1146109da57600080fd5b8063b9a221eb11610113578063b9a221eb14610814578063bc497a8214610834578063bc7a36d614610854578063bdceaba21461086a578063bfc00714146108f3578063c5e10eef1461091357600080fd5b80638ca8fddd1461071f5780638da5cb5b1461073f57806394420dfe1461075d5780639a52aed914610795578063a0c1f15e146107ab578063b9127c5c146107cb57600080fd5b8063394612a1116101fe5780635822b66d116101b75780635822b66d1461066a5780635b730e691461068a5780636cd4ddbc146106aa578063715018a6146106ca57806378fdaf3f146106df57806384a965ed146106ff57600080fd5b8063394612a1146103fe5780633b7566fc1461041457806345aeb0ce146104345780634d5c56a51461046c578063509aac3414610634578063541b60941461065457600080fd5b80631cd081b2116102505780631cd081b21461033e57806323f1059c1461035e57806325375dd51461037e5780632b7f56941461039e5780632f48ab7d146103be57806337672410146103de57600080fd5b806306197c1c146102985780630ddec572146102af5780630f274495146102cf57806319b68c00146102f15780631b8511341461032957600080fd5b3661029357005b600080fd5b3480156102a457600080fd5b506102ad610ce1565b005b3480156102bb57600080fd5b506102ad6102ca366004613983565b611396565b3480156102db57600080fd5b50475b6040519081526020015b60405180910390f35b3480156102fd57600080fd5b50600754610311906001600160a01b031681565b6040516001600160a01b0390911681526020016102e8565b34801561033557600080fd5b506102ad61181e565b34801561034a57600080fd5b506102ad6103593660046139ba565b611cc6565b34801561036a57600080fd5b506102ad6103793660046139e6565b611cfa565b34801561038a57600080fd5b50600454610311906001600160a01b031681565b3480156103aa57600080fd5b506102ad6103b93660046139ba565b611d14565b3480156103ca57600080fd5b50600554610311906001600160a01b031681565b3480156103ea57600080fd5b506102ad6103f9366004613983565b611e9f565b34801561040a57600080fd5b506102de60125481565b34801561042057600080fd5b506102ad61042f366004613a16565b6124b4565b34801561044057600080fd5b50601054610454906001600160801b031681565b6040516001600160801b0390911681526020016102e8565b34801561047857600080fd5b50610626610487366004613a4b565b604080516101e081018252600080825260208201819052918101829052606081018290526080810182905260a0810182905260c0810182905260e08101829052610100810182905261012081018290526101408101829052610160810182905261018081018290526101a081018290526101c0810182905250506001600160a01b03919091166000908152600c602090815260408083206003808201546001600160401b039687168652600192830185529483902083516101e08101855281548089168252600160401b8082046001600160801b0390811698840198909852600160c01b918290048a1696830196909652938201548087166060830152600160801b9081900487166080830152600283015480881660a084015281810460ff90811660c0850152600160881b918290048116151560e08501529484015480891661010085015291820490941615156101208301529290920487166101408301526004810154808816610160840152938404909416610180820152910484166101a082015260059091015483166101c08201526201000090910490911691565b6040516102e8929190613a77565b34801561064057600080fd5b50600254610311906001600160a01b031681565b34801561066057600080fd5b506102de600f5481565b34801561067657600080fd5b506102ad610685366004613a16565b61251a565b34801561069657600080fd5b506102ad6106a53660046139ba565b6125c1565b3480156106b657600080fd5b506102ad6106c5366004613a16565b612725565b3480156106d657600080fd5b506102ad612756565b3480156106eb57600080fd5b506102ad6106fa366004613bdc565b61276a565b34801561070b57600080fd5b50600854610311906001600160a01b031681565b34801561072b57600080fd5b506102de61073a366004613983565b61280b565b34801561074b57600080fd5b506000546001600160a01b0316610311565b34801561076957600080fd5b5060135461077d906001600160401b031681565b6040516001600160401b0390911681526020016102e8565b3480156107a157600080fd5b506102de600e5481565b3480156107b757600080fd5b50600654610311906001600160a01b031681565b3480156107d757600080fd5b506102ad6107e6366004613c12565b6001600160a01b03919091166000908152600c60205260409020600301805460ff1916911515919091179055565b34801561082057600080fd5b506102ad61082f3660046139e6565b6128f4565b34801561084057600080fd5b50600954610311906001600160a01b031681565b34801561086057600080fd5b506102de60115481565b34801561087657600080fd5b506108c1610885366004613c4b565b600d60205260009081526040902060018101546002820154600383015460048401546005909401546001600160401b0390931693919290919085565b604080516001600160401b0390961686526020860194909452928401919091526060830152608082015260a0016102e8565b3480156108ff57600080fd5b50600a54610311906001600160a01b031681565b34801561091f57600080fd5b50600354610311906001600160a01b031681565b34801561093f57600080fd5b506102ad612906565b61095b610956366004613c6c565b612983565b6040805192151583526001600160401b039091166020830152016102e8565b34801561098657600080fd5b506102ad6109953660046139ba565b612ca4565b3480156109a657600080fd5b50600154610311906001600160a01b031681565b3480156109c657600080fd5b506102de6109d5366004613a4b565b612d3b565b3480156109e657600080fd5b506102ad6109f5366004613a16565b613118565b348015610a0657600080fd5b506102ad610a15366004613cf9565b6001600160a01b03929092166000908152600c602090815260408083206001600160401b03948516845260019081018352928190208551815493870151928701519086166001600160c01b031994851617600160401b6001600160801b039485168102919091176001600160c01b03908116600160c01b9389168402178455606089015160808a0151908616600160801b9187168202179785019790975560a089015160028501805460c08c015160e08d015193891670ffffffffffffffffffffffffffffffffff199283161760ff9091168b021760ff60881b1916600160881b9315158402179091556101008b01516003870180546101208e01516101408f0151938b169190941617921515909a029190911767ffffffffffffffff60881b1916908a16909102179096556101608801516004840180546101808b01516101a08c0151938b16919098161796909516909102949094179094169285169093029190911790556101c0909201516005909201805467ffffffffffffffff191692909116919091179055565b348015610bac57600080fd5b506102ad610bbb366004613bdc565b613156565b348015610bcc57600080fd5b50600b54610311906001600160a01b031681565b348015610bec57600080fd5b50610c4b610bfb366004613bdc565b600c6020526000908152604090208054600282015460039092015490919060ff808216916101008104909116906201000081046001600160401b031690600160501b90046001600160801b031686565b60408051968752602087019590955292151593850193909352151560608401526001600160401b0390911660808301526001600160801b031660a082015260c0016102e8565b348015610c9d57600080fd5b50610cb1610cac366004613e60565b6131cf565b60405190151581526020016102e8565b348015610ccd57600080fd5b506102de610cdc366004613983565b6135c4565b6008546001600160a01b03163314610d145760405162461bcd60e51b8152600401610d0b90613ec2565b60405180910390fd5b6013546001600160401b0316600090815260156020526040812054606490610d3d906032613f2b565b610d479190613f58565b905080600003610d6a5760405163371c51e160e11b815260040160405180910390fd5b6000600460009054906101000a90046001600160a01b03166001600160a01b031663026b1d5f6040518163ffffffff1660e01b8152600401602060405180830381865afa158015610dbf573d6000803e3d6000fd5b505050506040513d601f19601f82011682018060405250810190610de39190613f6c565b90506001600160a01b038116610e0c57604051630a20c02560e21b815260040160405180910390fd5b60035460405163474cf53d60e01b81526001600160a01b038381166004830152306024830152600060448301529091169063474cf53d9084906064016000604051808303818588803b158015610e6157600080fd5b505af1158015610e75573d6000803e3d6000fd5b50506006546040516370a0823160e01b8152306004820152600094506001600160a01b0390911692506370a082319150602401602060405180830381865afa158015610ec5573d6000803e3d6000fd5b505050506040513d601f19601f82011682018060405250810190610ee99190613f89565b60008052600d6020526000805160206142c7833981519152549091508103610f2457604051636b39e0e560e01b815260040160405180910390fd5b60008052600d602052600080516020614207833981519152546001600160401b0316610f51600182613fa2565b601380549192506001600160401b03909116906000610f6f83613fc9565b91906101000a8154816001600160401b0302191690836001600160401b0316021790555050806001600160401b031660011480610fc2575060008052600d6020526000805160206142c783398151915254155b15610fe85760145460008052600d6020526000805160206142878339815191525561107c565b6000808052600d6020526000805160206142c78339815191525460145461100f8286613fef565b6110199190613f2b565b6110239190613f58565b60145460008052600d602052600080516020614287833981519152549192509061104d8383614002565b6110579190613f2b565b6110619190613f58565b60008052600d60205260008051602061428783398151915255505b60008052600d602052600080516020614287833981519152546014546110a29086613f2b565b6110ac9190613f58565b6001600160401b03821660008181526000805160206142a783398151915260209081526040822060070193909355808052600d909252600080516020614207833981519152805467ffffffffffffffff191690911790557f81955a0a11e65eac625c29e8882660bae4e165a75d72780094acae8ece9a29f08054869290611134908490614002565b90915550506001600160401b0381811660009081526000805160206142a78339815191526020908152604080832080546001600160c01b0319164290951694909417600160401b6001600160801b038a16021790935560015483516350593af760e01b8152935192936001600160a01b03909116926350593af7926004808401939192918290030181865afa1580156111d1573d6000803e3d6000fd5b505050506040513d601f19601f820116820180604052508101906111f59190613f89565b6001600160401b03831660009081526000805160206142a78339815191526020526040902060010180546001600160801b0319166001600160801b0383169081179091559091506112469086613f2b565b6001600160401b03831660009081526000805160206142a7833981519152602090815260408220600201929092558052600d90527f81955a0a11e65eac625c29e8882660bae4e165a75d72780094acae8ece9a29f0546112b0906001600160801b03831690613f2b565b60008052600d6020527f81955a0a11e65eac625c29e8882660bae4e165a75d72780094acae8ece9a29f2556000805160206142c7833981519152546112f59084614015565b6001600160401b03831660008181526000805160206142a78339815191526020908152604080832060030180546001600160801b0319166001600160801b039690961695909517909455908052600d81526000805160206142c78339815191528690558251918252810187905281517fbab03e271351d865ca59323a9224d2c6e0826b7e61b0716daa4f92f16e5c7761929181900390910190a15050505050565b6008546001600160a01b031633146113c05760405162461bcd60e51b8152600401610d0b90613ec2565b6001600160401b038116600090815260008051602061426783398151915260205260409020600301546001600160801b03811690600160801b900460ff161561144b5760405162461bcd60e51b815260206004820181905260248201527f416c7265616479207769746864726177656420696e207468697320696e6465786044820152606401610d0b565b8060000361146c57604051633c54b6a360e11b815260040160405180910390fd5b60075460405163db006a7560e01b8152600481018390526001600160a01b039091169063db006a75906024016020604051808303816000875af11580156114b7573d6000803e3d6000fd5b505050506040513d601f19601f820116820180604052508101906114db9190613f89565b506007546040516370a0823160e01b81523060048201526000916001600160a01b0316906370a0823190602401602060405180830381865afa158015611525573d6000803e3d6000fd5b505050506040513d601f19601f820116820180604052508101906115499190613f89565b6001600052600d60205260008051602061422783398151915254909150810361158557604051630f8bab4760e01b815260040160405180910390fd5b60016000908152600d60205260008051602061424783398151915280548492906115b0908490613fef565b90915550506001600160401b0383811660009081526000805160206142678339815191526020908152604080832060038101805460ff60801b1916600160801b9081179091556004918201805467ffffffffffffffff60801b1916429097169091029590951790945560015481516350593af760e01b8152915193946001600160a01b03909116936350593af793838301939092908290030181865afa15801561165e573d6000803e3d6000fd5b505050506040513d601f19601f820116820180604052508101906116829190613f89565b6001600160401b03851660009081526000805160206142678339815191526020526040902060040180546001600160801b0319166001600160801b0383169081179091559091506116d39084613f2b565b6001600160401b03851660009081526000805160206142678339815191526020908152604082206005019290925560019052600d90526000805160206142478339815191525461172d906001600160801b03831690613f2b565b60016000908152600d6020527ffd54ff1ed53f34a900b24c5ba64f85761163b5d82d98a47b9bd80e45466993c991909155600080516020614227833981519152805485929061177d908490613fef565b9091555061178c90508461280b565b6001600160401b038516600081815260008051602061426783398151915260209081526040918290206006810180546001600160801b03969096166001600160801b0319968716179055600301805490941690935580519182529181018590527f7947802835fbf722d45a3c84bbefbe958e96c1647668d9db89cb77314688250491015b60405180910390a150505050565b6008546001600160a01b031633146118485760405162461bcd60e51b8152600401610d0b90613ec2565b601354600090606490601590839061186b906001906001600160401b0316614035565b6001600160401b0316815260200190815260200160002054603261188f9190613f2b565b6118999190613f58565b9050806000036118bc5760405163371c51e160e11b815260040160405180910390fd5b600760009054906101000a90046001600160a01b03166001600160a01b0316631249c58b826040518263ffffffff1660e01b81526004016000604051808303818588803b15801561190c57600080fd5b505af1158015611920573d6000803e3d6000fd5b50506007546040516370a0823160e01b8152306004820152600094506001600160a01b0390911692506370a082319150602401602060405180830381865afa158015611970573d6000803e3d6000fd5b505050506040513d601f19601f820116820180604052508101906119949190613f89565b6001600052600d6020526000805160206142278339815191525490915081036119d057604051631c14f52f60e21b815260040160405180910390fd5b60016000819052600d6020527ffd54ff1ed53f34a900b24c5ba64f85761163b5d82d98a47b9bd80e45466993c6546001600160401b031690611a129082613fa2565b60016000908152600d6020527ffd54ff1ed53f34a900b24c5ba64f85761163b5d82d98a47b9bd80e45466993c6805467ffffffffffffffff19166001600160401b03841617905560008051602061424783398151915280549293508592909190611a7d908490614002565b90915550506001600160401b0381811660009081526000805160206142678339815191526020908152604080832080546001600160c01b0319164290951694909417600160401b6001600160801b038916021790935560015483516350593af760e01b8152935192936001600160a01b03909116926350593af7926004808401939192918290030181865afa158015611b1a573d6000803e3d6000fd5b505050506040513d601f19601f82011682018060405250810190611b3e9190613f89565b6001600160401b03831660009081526000805160206142678339815191526020526040902060010180546001600160801b0319166001600160801b038316908117909155909150611b8f9085613f2b565b6001600160401b03831660009081526000805160206142678339815191526020908152604082206002019290925560019052600d905260008051602061424783398151915254611be9906001600160801b03831690613f2b565b6001600052600d6020527ffd54ff1ed53f34a900b24c5ba64f85761163b5d82d98a47b9bd80e45466993c95560008051602061422783398151915254611c2f9084614015565b6001600160401b03831660008181526000805160206142678339815191526020908152604080832060030180546001600160801b0319166001600160801b0396909616959095179094556001909152600d8152600080516020614227833981519152869055825191825281018690527fed55c0f11575257f860976702211fd0107cbdad286e90fd3d9ad6c1d604b8cc59101611810565b6001600160a01b0382166000908152600c602052604081206002018054839290611cf1908490614002565b90915550505050565b8060126000828254611d0c9190614002565b909155505050565b6009546001600160a01b0316331480611d3757506008546001600160a01b031633145b611da95760405162461bcd60e51b815260206004820152603a60248201527f546869732066756e6374696f6e2063616e206f6e6c792063616c6c656420627960448201527f20426f72726f77696e67206f722043445320636f6e74726163740000000000006064820152608401610d0b565b6001600160a01b03821615801590611dc057508015155b611ddc5760405162461bcd60e51b8152600401610d0b90614055565b60025460405163095ea7b360e01b81526001600160a01b03848116600483015260248201849052600092169063095ea7b3906044015b6020604051808303816000875af1158015611e31573d6000803e3d6000fd5b505050506040513d601f19601f82011682018060405250810190611e559190614097565b9050600181151514611e9a5760405162461bcd60e51b815260206004820152600e60248201526d105c1c1c9bdd994819985a5b195960921b6044820152606401610d0b565b505050565b6008546001600160a01b03163314611ec95760405162461bcd60e51b8152600401610d0b90613ec2565b6001600160401b0381811660009081526000805160206142a7833981519152602090815260409182902082516101608101845281548086168252600160401b90046001600160801b039081169382019390935260018201548316938101939093526002810154606084015260038101548083166080850152600160801b9081900460ff1615801560a0860152600483015480851660c08701529190910490941660e0840152600581015461010084015260068101549091166101208301526007015461014082015290611fde5760405162461bcd60e51b815260206004820181905260248201527f416c7265616479207769746864726177656420696e207468697320696e6465786044820152606401610d0b565b6006546040516370a0823160e01b81523060048201526000916001600160a01b0316906370a0823190602401602060405180830381865afa158015612027573d6000803e3d6000fd5b505050506040513d601f19601f8201168201806040525081019061204b9190613f89565b6000808052600d6020526000805160206142c78339815191525460145492935090916120778285613fef565b6120819190613f2b565b61208b9190613f58565b6014546000808052600d60205260008051602061428783398151915254929350916120b68483614002565b6120c09190613f2b565b6120ca9190613f58565b90506000601454856101400151836120e29190613f2b565b6120ec9190613f58565b90506120f78161380a565b6000600460009054906101000a90046001600160a01b03166001600160a01b031663026b1d5f6040518163ffffffff1660e01b8152600401602060405180830381865afa15801561214c573d6000803e3d6000fd5b505050506040513d601f19601f820116820180604052508101906121709190613f6c565b90506001600160a01b03811661219957604051630a20c02560e21b815260040160405180910390fd5b600654600b5460405163095ea7b360e01b81526001600160a01b0391821660048201526024810185905291169063095ea7b3906044016020604051808303816000875af11580156121ee573d6000803e3d6000fd5b505050506040513d601f19601f820116820180604052508101906122129190614097565b5061221c876135c4565b6001600160801b0316610120870152600354604051630402806960e51b81526001600160a01b03838116600483015260248201859052306044830152909116906380500d2090606401600060405180830381600087803b15801561227f57600080fd5b505af1158015612293573d6000803e3d6000fd5b50506006546040516370a0823160e01b8152306004820152600093506001600160a01b0390911691506370a0823190602401602060405180830381865afa1580156122e2573d6000803e3d6000fd5b505050506040513d601f19601f820116820180604052508101906123069190613f89565b60008052600d6020526000805160206142c78339815191525490915081036123405760405162bc94a760e31b815260040160405180910390fd5b600160a088018190526001600160401b03421660e089015254604080516350593af760e01b815290516000926001600160a01b0316916350593af79160048083019260209291908290030181865afa1580156123a0573d6000803e3d6000fd5b505050506040513d601f19601f820116820180604052508101906123c49190613f89565b6001600160401b031660c0890181905290506123e08185613f2b565b61010089015260008052600d6020527f81955a0a11e65eac625c29e8882660bae4e165a75d72780094acae8ece9a29f054612425906001600160801b03831690613f2b565b60008052600d60209081527f81955a0a11e65eac625c29e8882660bae4e165a75d72780094acae8ece9a29f2919091556000805160206142c7833981519152839055604080516001600160401b038c16815291820186905280517fb3e5c8a48c51608dcaa5fe045f1963964839d48a0d24e62e940fa0451db9015b9281900390910190a1505050505050505050565b6001600160a01b0382166000908152600c602052604090206003018054829190600a906124f2908490600160501b90046001600160801b0316614015565b92506101000a8154816001600160801b0302191690836001600160801b031602179055505050565b6009546001600160a01b031633146125445760405162461bcd60e51b8152600401610d0b906140b4565b6000826001600160a01b0316826001600160801b031660405160006040518083038185875af1925050503d806000811461259a576040519150601f19603f3d011682016040523d82523d6000602084013e61259f565b606091505b5050905080611e9a57604051633243a0f360e21b815260040160405180910390fd5b6125c961384f565b6001600160a01b038216158015906125e057508015155b6125fc5760405162461bcd60e51b8152600401610d0b90614055565b60125460115461260c9190614002565b8111156126675760405162461bcd60e51b815260206004820152602360248201527f547265617375727920646f6e2774206861766520656e6f75676820696e746572604482015262195cdd60ea1b6064820152608401610d0b565b60025460405163a9059cbb60e01b81526001600160a01b03848116600483015260248201849052600092169063a9059cbb906044016020604051808303816000875af11580156126bb573d6000803e3d6000fd5b505050506040513d601f19601f820116820180604052508101906126df9190614097565b905080611e9a5760405162461bcd60e51b81526020600482015260146024820152732330b4b632b2103a379039b2b7321022ba3432b960611b6044820152606401610d0b565b6001600160a01b0382166000908152600c6020526040812080546001600160801b0384169290611cf1908490613fef565b61275e61384f565b61276860006138a9565b565b61277261384f565b6001600160a01b0381161580159061279357506001600160a01b0381163b15155b6127df5760405162461bcd60e51b815260206004820152601860248201527f496e707574206164647265737320697320696e76616c696400000000000000006044820152606401610d0b565b600880546001600160a01b039092166001600160a01b0319928316811790915560018054909216179055565b6001600160401b038116600090815260008051602061426783398151915260209081526040808320600754825163bd6d894d60e01b81529251919385936001600160a01b039092169263bd6d894d926004808201939291829003018187875af115801561287c573d6000803e3d6000fd5b505050506040513d601f19601f820116820180604052508101906128a09190613f89565b60145460038401549192506000916128c29084906001600160801b0316613f2b565b6128cc9190613f58565b83549091506128eb90600160401b90046001600160801b031682613fef565b95945050505050565b8060116000828254611d0c9190614002565b600d6020526000805160206142078339815191525460016000527ffd54ff1ed53f34a900b24c5ba64f85761163b5d82d98a47b9bd80e45466993c6546001600160401b03918216911681811061295c578061295e565b815b6013805467ffffffffffffffff19166001600160401b03929092169190911790555050565b60085460009081906001600160a01b031633146129b25760405162461bcd60e51b8152600401610d0b90613ec2565b6001600160a01b0385166000908152600c6020526040812060030154610100900460ff16612a4f57506001600160a01b0385166000908152600c60205260408120600301805469ffffffffffffffffff001916620101001790556010805460019290612a26906001600160801b0316614101565b91906101000a8154816001600160801b0302191690836001600160801b03160217905550612aad565b6001600160a01b0386166000908152600c602052604090206003018054600290612a87906201000090046001600160401b0316613fc9565b91906101000a8154816001600160401b0302191690836001600160401b03160217905590505b6001600160a01b0386166000908152600c602052604081208054349290612ad5908490614002565b90915550506001600160a01b0386166000908152600c602090815260408083206001600160401b0385168452600101909152902080546001600160801b0334818116600160401b0277ffffffffffffffffffffffffffffffff00000000000000001990931692909217909255612b4c918716613f2b565b600f6000828254612b5d9190614002565b9250508190555034600e6000828254612b769190614002565b90915550506001600160a01b0386166000908152600c602090815260408083206001600160401b03858116855260019182019093529220805487831667ffffffffffffffff1991821617825592810180546001600160801b038a166001600160801b03199091161790556013546005909101805490931691161790556064612bff346032613f2b565b612c099190613f58565b6013546001600160401b031660009081526015602052604081208054909190612c33908490614002565b90915550506040513481526001600160a01b038716907fe1fffcc4923d04b559f4d29a8bfc6cda04eb5b0d3c460751c2402c5c5cc9109c9060200160405180910390a26001600160a01b03959095166000908152600c6020526040902060030154610100900460ff16959350505050565b6009546001600160a01b03163314612cce5760405162461bcd60e51b8152600401610d0b906140b4565b6001600160a01b03821615801590612ce557508015155b612d015760405162461bcd60e51b8152600401610d0b90614055565b60055460405163095ea7b360e01b81526001600160a01b03848116600483015260248201849052600092169063095ea7b390604401611e12565b6001600160a01b0382166000908152600c602090815260408083206001600160401b0380861685526001909101909252822060050154829116805b6013546001600160401b039081169082161015613031576000600d81808152602080820192909252604090810160009081206001600160401b03868116835290845282822083516101608101855281548084168252600160401b90046001600160801b03908116968201969096526001808301548716958201959095526002820154606082015260038201548087166080830152600160801b9081900460ff16151560a0830152600483015480881660c08401520490921660e083015260058101546101008301526006810154909416610120820152600790930154610140840152919250600d9082908152602080820192909252604090810160009081206001600160401b03808816835290845290829020825161016081018452815480841682526001600160801b03600160401b9091048116958201959095526001820154851693810193909352600281015460608401526003810154808516608085015260ff600160801b9182900416151560a080860191909152600483015480871660c08701529190910490921660e084015260058101546101008401526006810154909316610120830152600790920154610140820152908301519091508015612f4057508060a001515b15612f7557806101200151826101200151612f5b919061411d565b612f6e906001600160801b031686614002565b945061301c565b8160a00151158015612f8857508060a001515b15612fb9578061012001516001600160801b0316612fa5846135c4565b612faf9190614002565b612f6e9086614002565b8160a001518015612fcc57508060a00151155b15612ff357612fda8361280b565b8261012001516001600160801b0316612faf9190614002565b612ffc836135c4565b6130058461280b565b61300f9190614002565b6130199086614002565b94505b5050808061302990613fc9565b915050612d76565b506130626040518060400160405280600e81526020016d1513d510530812539511549154d560921b815250836138f9565b6001600160401b038181166000908152601560209081526040808320546001600160a01b038a168452600c8352818420948916845260019094019091528120546064906130c090600160401b90046001600160801b0316603261413d565b6130ca9190614168565b6001600160801b03169050600082601454836130e69190613f2b565b6130f09190613f58565b6014549091506131008683613f2b565b61310a9190613f58565b955050505050505b92915050565b6001600160a01b0382166000908152600c602052604090206003018054829190600a906124f2908490600160501b90046001600160801b031661411d565b61315e61384f565b6001600160a01b0381166131c35760405162461bcd60e51b815260206004820152602660248201527f4f776e61626c653a206e6577206f776e657220697320746865207a65726f206160448201526564647265737360d01b6064820152608401610d0b565b6131cc816138a9565b50565b6008546000906001600160a01b031633146131fc5760405162461bcd60e51b8152600401610d0b90613ec2565b6000841161324c5760405162461bcd60e51b815260206004820152601a60248201527f43616e6e6f74207769746864726177207a65726f2045746865720000000000006044820152606401610d0b565b6001600160a01b0386166000908152600c602090815260408083206001600160401b0387168452600101909152902060020154600160801b900460ff166132af5760405162461bcd60e51b81526020600482015260006024820152604401610d0b565b60405184906000906001600160a01b0388169083908381818185875af1925050503d80600081146132fc576040519150601f19603f3d011682016040523d82523d6000602084013e613301565b606091505b50509050806133495760405162461bcd60e51b81526020600482015260146024820152732330b4b632b2103a379039b2b7321022ba3432b960611b6044820152606401610d0b565b6001600160a01b0388166000908152600c602090815260408083206001600160401b0389168452600190810190925290912060020154600160801b900460ff1690036133f5576001600160a01b0388166000818152600c602081815260408084206001600160401b038b16855260018082018452918520909101549484529190526002018054600160801b9093046001600160801b0316929091906133ef908490613fef565b90915550505b6001600160a01b0388166000908152600c60205260408120549003613452576010805460009061342d906001600160801b031661418e565b91906101000a8154816001600160801b0302191690836001600160801b031602179055505b6001600160a01b0388166000908152600c602090815260408083206001600160401b03891684526001019091528120600301805484929061349d9084906001600160801b031661411d565b82546001600160801b039182166101009390930a9283029190920219909116179055506001546001600160a01b031663661b7d3e6134e4846001600160401b038816613f2b565b6040518263ffffffff1660e01b815260040161350291815260200190565b600060405180830381600087803b15801561351c57600080fd5b505af1158015613530573d6000803e3d6000fd5b5050505081846001600160401b03166135499190613f2b565b600f600082825461355a9190613fef565b9250508190555081600e60008282546135739190613fef565b90915550506040518681526001600160a01b038816907f884edad9ce6fa2440d8a54cc123490eb96d2768479d49ff9c7366125a94243649060200160405180910390a2506001979650505050505050565b6000808052600d602052600080516020614207833981519152546001600160401b0390811690831611806135ff57506001600160401b038216155b156136455760405162461bcd60e51b8152602060048201526016602482015275125b9d985b1a590818dbdd5b9d081c1c9bdd9a59195960521b6044820152606401610d0b565b6006546040516370a0823160e01b81523060048201526000916001600160a01b0316906370a0823190602401602060405180830381865afa15801561368e573d6000803e3d6000fd5b505050506040513d601f19601f820116820180604052508101906136b29190613f89565b6000808052600d6020526000805160206142c78339815191525460145492935090916136de8285613fef565b6136e89190613f2b565b6136f29190613f58565b6014546000808052600d602052600080516020614287833981519152549293509161371d8483614002565b6137279190613f2b565b6137319190613f58565b6014546001600160401b03871660009081526000805160206142a783398151915260205260408120600701549293509161376b9084613f2b565b6137759190613f58565b90506137808161380a565b6001600160401b03861660009081526000805160206142a783398151915260205260409020546137bf90600160401b90046001600160801b031661380a565b6001600160401b03861660009081526000805160206142a783398151915260205260408120546137ff90600160401b90046001600160801b031683613fef565b979650505050505050565b6131cc8160405160240161382091815260200190565b60408051601f198184030181529190526020810180516001600160e01b031663f82c50f160e01b179052613942565b6000546001600160a01b031633146127685760405162461bcd60e51b815260206004820181905260248201527f4f776e61626c653a2063616c6c6572206973206e6f7420746865206f776e65726044820152606401610d0b565b600080546001600160a01b038381166001600160a01b0319831681178455604051919092169283917f8be0079c531659141344cd1fd0a4f28419497f9722a3daafe3b4186f6b6457e09190a35050565b61393e828260405160240161390f9291906141b1565b60408051601f198184030181529190526020810180516001600160e01b0316632d839cb360e21b179052613942565b5050565b6131cc8160006a636f6e736f6c652e6c6f679050600080835160208501845afa505050565b80356001600160401b038116811461397e57600080fd5b919050565b60006020828403121561399557600080fd5b61399e82613967565b9392505050565b6001600160a01b03811681146131cc57600080fd5b600080604083850312156139cd57600080fd5b82356139d8816139a5565b946020939093013593505050565b6000602082840312156139f857600080fd5b5035919050565b80356001600160801b038116811461397e57600080fd5b60008060408385031215613a2957600080fd5b8235613a34816139a5565b9150613a42602084016139ff565b90509250929050565b60008060408385031215613a5e57600080fd5b8235613a69816139a5565b9150613a4260208401613967565b6001600160401b0383811682528251166020820152610200810160208301516001600160801b03811660408401525060408301516001600160401b03811660608401525060608301516001600160801b03811660808401525060808301516001600160801b03811660a08401525060a08301516001600160801b03811660c08401525060c083015160ff811660e08401525060e0830151610100613b1e8185018315159052565b8401519050610120613b3a848201836001600160801b03169052565b8401519050610140613b4f8482018315159052565b8401519050610160613b6b848201836001600160401b03169052565b8401519050610180613b87848201836001600160401b03169052565b84015190506101a0613ba3848201836001600160801b03169052565b84015190506101c0613bbf848201836001600160401b03169052565b8401516001600160401b0381166101e08501529050509392505050565b600060208284031215613bee57600080fd5b813561399e816139a5565b80151581146131cc57600080fd5b803561397e81613bf9565b60008060408385031215613c2557600080fd5b8235613c30816139a5565b91506020830135613c4081613bf9565b809150509250929050565b600060208284031215613c5d57600080fd5b81356002811061399e57600080fd5b600080600060608486031215613c8157600080fd5b8335613c8c816139a5565b9250613c9a602085016139ff565b9150613ca860408501613967565b90509250925092565b6040516101e081016001600160401b0381118282101715613ce257634e487b7160e01b600052604160045260246000fd5b60405290565b803560ff8116811461397e57600080fd5b6000806000838503610220811215613d1057600080fd5b8435613d1b816139a5565b9350613d2960208601613967565b92506101e080603f1983011215613d3f57600080fd5b613d47613cb1565b9150613d5560408701613967565b8252613d63606087016139ff565b6020830152613d7460808701613967565b6040830152613d8560a087016139ff565b6060830152613d9660c087016139ff565b6080830152613da760e087016139ff565b60a0830152610100613dba818801613ce8565b60c0840152610120613dcd818901613c07565b60e0850152610140613de0818a016139ff565b838601526101609250613df4838a01613c07565b828601526101809150613e08828a01613967565b908501526101a0613e1a898201613967565b838601526101c09250613e2e838a016139ff565b82860152613e3d848a01613967565b9085015250613e4f6102008801613967565b818401525050809150509250925092565b600080600080600060a08688031215613e7857600080fd5b8535613e83816139a5565b94506020860135613e93816139a5565b935060408601359250613ea860608701613967565b9150613eb660808701613967565b90509295509295909350565b60208082526033908201527f546869732066756e6374696f6e2063616e206f6e6c792063616c6c656420627960408201527208189bdc9c9bddda5b99c818dbdb9d1c9858dd606a1b606082015260800190565b634e487b7160e01b600052601160045260246000fd5b808202811582820484141761311257613112613f15565b634e487b7160e01b600052601260045260246000fd5b600082613f6757613f67613f42565b500490565b600060208284031215613f7e57600080fd5b815161399e816139a5565b600060208284031215613f9b57600080fd5b5051919050565b6001600160401b03818116838216019080821115613fc257613fc2613f15565b5092915050565b60006001600160401b03808316818103613fe557613fe5613f15565b6001019392505050565b8181038181111561311257613112613f15565b8082018082111561311257613112613f15565b6001600160801b03828116828216039080821115613fc257613fc2613f15565b6001600160401b03828116828216039080821115613fc257613fc2613f15565b60208082526022908201527f496e7075742061646472657373206f7220616d6f756e7420697320696e76616c6040820152611a5960f21b606082015260800190565b6000602082840312156140a957600080fd5b815161399e81613bf9565b6020808252602d908201527f546869732066756e6374696f6e2063616e206f6e6c792063616c6c656420627960408201526c0810d114c818dbdb9d1c9858dd609a1b606082015260800190565b60006001600160801b03808316818103613fe557613fe5613f15565b6001600160801b03818116838216019080821115613fc257613fc2613f15565b6001600160801b0381811683821602808216919082811461416057614160613f15565b505092915050565b60006001600160801b038084168061418257614182613f42565b92169190910492915050565b60006001600160801b038216806141a7576141a7613f15565b6000190192915050565b604081526000835180604084015260005b818110156141df57602081870181015160608684010152016141c2565b506000606082850101526060601f19601f830116840101915050826020830152939250505056fe81955a0a11e65eac625c29e8882660bae4e165a75d72780094acae8ece9a29effd54ff1ed53f34a900b24c5ba64f85761163b5d82d98a47b9bd80e45466993c8fd54ff1ed53f34a900b24c5ba64f85761163b5d82d98a47b9bd80e45466993c7fd54ff1ed53f34a900b24c5ba64f85761163b5d82d98a47b9bd80e45466993c581955a0a11e65eac625c29e8882660bae4e165a75d72780094acae8ece9a29f381955a0a11e65eac625c29e8882660bae4e165a75d72780094acae8ece9a29ee81955a0a11e65eac625c29e8882660bae4e165a75d72780094acae8ece9a29f1a2646970667358221220a962727325e994ddbdc74516881fff431e852560b89dae76c6952b8c3ad4677164736f6c63430008120033","linkReferences":{}},"methodIdentifiers":{"aToken()":"a0c1f15e","aavePoolAddressProvider()":"25375dd5","aaveWETH()":"f750d07d","approveAmint(address,uint256)":"2b7f5694","approveUsdt(address,uint256)":"e6136105","borrow()":"e68d3569","borrowing(address)":"f750e3ab","borrowingContract()":"84a965ed","cEther()":"19b68c00","calculateInterestForDepositAave(uint64)":"ff2d7dc6","cdsContract()":"bc497a82","compoundAddress()":"bfc00714","deposit(address,uint128,uint64)":"dcb71f3f","depositToAave()":"06197c1c","depositToCompound()":"1b851134","externalProtocolDepositCount()":"94420dfe","getBalanceInTreasury()":"0f274495","getBorrowing(address,uint64)":"4d5c56a5","getInterestForCompoundDeposit(uint64)":"8ca8fddd","increaseExternalProtocolCount()":"dc64177c","noOfBorrowers()":"45aeb0ce","owner()":"8da5cb5b","protocolDeposit(uint8)":"bdceaba2","renounceOwnership()":"715018a6","setBorrowingContract(address)":"78fdaf3f","totalInterest()":"bc7a36d6","totalInterestFromExternalProtocol(address,uint64)":"e9aeb2a8","totalInterestFromLiquidation()":"394612a1","totalVolumeOfBorrowersAmountinUSD()":"541b6094","totalVolumeOfBorrowersAmountinWei()":"9a52aed9","transferEthToCdsLiquidators(address,uint128)":"5822b66d","transferOwnership(address)":"f2fde38b","trinity()":"509aac34","updateDepositDetails(address,uint64,(uint64,uint128,uint64,uint128,uint128,uint128,uint8,bool,uint128,bool,uint64,uint64,uint128,uint64,uint64))":"f19aca57","updateHasBorrowed(address,bool)":"b9127c5c","updateTotalBorrowedAmount(address,uint256)":"1cd081b2","updateTotalDepositedAmount(address,uint128)":"6cd4ddbc","updateTotalInterest(uint256)":"b9a221eb","updateTotalInterestFromLiquidation(uint256)":"23f1059c","updateTotalPTokensDecrease(address,uint128)":"3b7566fc","updateTotalPTokensIncrease(address,uint128)":"ef0d5dc1","usdt()":"2f48ab7d","wethGateway()":"c5e10eef","withdraw(address,address,uint256,uint64,uint64)":"fe6520ae","withdrawFromAave(uint64)":"37672410","withdrawFromCompound(uint64)":"0ddec572","withdrawInterest(address,uint256)":"5b730e69"},"id":1}