{"abi":[{"type":"receive","stateMutability":"payable"},{"type":"function","name":"UPGRADE_INTERFACE_VERSION","inputs":[],"outputs":[{"name":"","type":"string","internalType":"string"}],"stateMutability":"view"},{"type":"function","name":"WETH","inputs":[],"outputs":[{"name":"","type":"address","internalType":"contract IWETH9"}],"stateMutability":"view"},{"type":"function","name":"aToken","inputs":[],"outputs":[{"name":"","type":"address","internalType":"contract IERC20"}],"stateMutability":"view"},{"type":"function","name":"aavePoolAddressProvider","inputs":[],"outputs":[{"name":"","type":"address","internalType":"contract IPoolAddressesProvider"}],"stateMutability":"view"},{"type":"function","name":"aaveWETH","inputs":[],"outputs":[{"name":"","type":"address","internalType":"address"}],"stateMutability":"view"},{"type":"function","name":"abond","inputs":[],"outputs":[{"name":"","type":"address","internalType":"contract IABONDToken"}],"stateMutability":"view"},{"type":"function","name":"abondAmintPool","inputs":[],"outputs":[{"name":"","type":"uint256","internalType":"uint256"}],"stateMutability":"view"},{"type":"function","name":"amint","inputs":[],"outputs":[{"name":"","type":"address","internalType":"contract IAMINT"}],"stateMutability":"view"},{"type":"function","name":"approveAmint","inputs":[{"name":"_address","type":"address","internalType":"address"},{"name":"_amount","type":"uint256","internalType":"uint256"}],"outputs":[],"stateMutability":"nonpayable"},{"type":"function","name":"approveUsdt","inputs":[{"name":"_address","type":"address","internalType":"address"},{"name":"_amount","type":"uint256","internalType":"uint256"}],"outputs":[],"stateMutability":"nonpayable"},{"type":"function","name":"borrow","inputs":[],"outputs":[{"name":"","type":"address","internalType":"contract IBorrowing"}],"stateMutability":"view"},{"type":"function","name":"borrowing","inputs":[{"name":"depositor","type":"address","internalType":"address"}],"outputs":[{"name":"depositedAmount","type":"uint256","internalType":"uint256"},{"name":"totalBorrowedAmount","type":"uint256","internalType":"uint256"},{"name":"hasBorrowed","type":"bool","internalType":"bool"},{"name":"hasDeposited","type":"bool","internalType":"bool"},{"name":"borrowerIndex","type":"uint64","internalType":"uint64"}],"stateMutability":"view"},{"type":"function","name":"borrowingContract","inputs":[],"outputs":[{"name":"","type":"address","internalType":"address"}],"stateMutability":"view"},{"type":"function","name":"cdsContract","inputs":[],"outputs":[{"name":"","type":"address","internalType":"address"}],"stateMutability":"view"},{"type":"function","name":"comet","inputs":[],"outputs":[{"name":"","type":"address","internalType":"contract CometMainInterface"}],"stateMutability":"view"},{"type":"function","name":"compoundAddress","inputs":[],"outputs":[{"name":"","type":"address","internalType":"address"}],"stateMutability":"view"},{"type":"function","name":"deposit","inputs":[{"name":"user","type":"address","internalType":"address"},{"name":"_ethPrice","type":"uint128","internalType":"uint128"},{"name":"_depositTime","type":"uint64","internalType":"uint64"}],"outputs":[{"name":"","type":"tuple","internalType":"struct Treasury.DepositResult","components":[{"name":"hasDeposited","type":"bool","internalType":"bool"},{"name":"borrowerIndex","type":"uint64","internalType":"uint64"}]}],"stateMutability":"payable"},{"type":"function","name":"ethProfitsOfLiquidators","inputs":[],"outputs":[{"name":"","type":"uint256","internalType":"uint256"}],"stateMutability":"view"},{"type":"function","name":"externalProtocolDepositCount","inputs":[],"outputs":[{"name":"","type":"uint64","internalType":"uint64"}],"stateMutability":"view"},{"type":"function","name":"getBalanceInTreasury","inputs":[],"outputs":[{"name":"","type":"uint256","internalType":"uint256"}],"stateMutability":"view"},{"type":"function","name":"getBorrowing","inputs":[{"name":"depositor","type":"address","internalType":"address"},{"name":"index","type":"uint64","internalType":"uint64"}],"outputs":[{"name":"","type":"tuple","internalType":"struct Treasury.GetBorrowingResult","components":[{"name":"totalIndex","type":"uint64","internalType":"uint64"},{"name":"depositDetails","type":"tuple","internalType":"struct Treasury.DepositDetails","components":[{"name":"depositedTime","type":"uint64","internalType":"uint64"},{"name":"depositedAmount","type":"uint128","internalType":"uint128"},{"name":"depositedAmountUsdValue","type":"uint128","internalType":"uint128"},{"name":"downsidePercentage","type":"uint64","internalType":"uint64"},{"name":"ethPriceAtDeposit","type":"uint128","internalType":"uint128"},{"name":"borrowedAmount","type":"uint128","internalType":"uint128"},{"name":"normalizedAmount","type":"uint128","internalType":"uint128"},{"name":"withdrawed","type":"bool","internalType":"bool"},{"name":"withdrawAmount","type":"uint128","internalType":"uint128"},{"name":"liquidated","type":"bool","internalType":"bool"},{"name":"ethPriceAtWithdraw","type":"uint64","internalType":"uint64"},{"name":"withdrawTime","type":"uint64","internalType":"uint64"},{"name":"aBondTokensAmount","type":"uint128","internalType":"uint128"},{"name":"strikePrice","type":"uint128","internalType":"uint128"},{"name":"optionFees","type":"uint128","internalType":"uint128"},{"name":"externalProtocolCount","type":"uint64","internalType":"uint64"}]}]}],"stateMutability":"view"},{"type":"function","name":"getExternalProtocolCumulativeRate","inputs":[{"name":"maximum","type":"bool","internalType":"bool"}],"outputs":[{"name":"","type":"uint128","internalType":"uint128"}],"stateMutability":"view"},{"type":"function","name":"initialize","inputs":[{"name":"_borrowing","type":"address","internalType":"address"},{"name":"_tokenAddress","type":"address","internalType":"address"},{"name":"_abondAddress","type":"address","internalType":"address"},{"name":"_cdsContract","type":"address","internalType":"address"},{"name":"_wethGateway","type":"address","internalType":"address"},{"name":"_comet","type":"address","internalType":"address"},{"name":"_aavePoolAddressProvider","type":"address","internalType":"address"},{"name":"_aToken","type":"address","internalType":"address"},{"name":"_usdt","type":"address","internalType":"address"},{"name":"_weth","type":"address","internalType":"address"}],"outputs":[],"stateMutability":"nonpayable"},{"type":"function","name":"noOfBorrowers","inputs":[],"outputs":[{"name":"","type":"uint128","internalType":"uint128"}],"stateMutability":"view"},{"type":"function","name":"owner","inputs":[],"outputs":[{"name":"","type":"address","internalType":"address"}],"stateMutability":"view"},{"type":"function","name":"protocolDeposit","inputs":[{"name":"","type":"uint8","internalType":"enum Treasury.Protocol"}],"outputs":[{"name":"depositIndex","type":"uint64","internalType":"uint64"},{"name":"depositedAmount","type":"uint256","internalType":"uint256"},{"name":"totalCreditedTokens","type":"uint256","internalType":"uint256"},{"name":"depositedUsdValue","type":"uint256","internalType":"uint256"},{"name":"cumulativeRate","type":"uint256","internalType":"uint256"}],"stateMutability":"view"},{"type":"function","name":"proxiableUUID","inputs":[],"outputs":[{"name":"","type":"bytes32","internalType":"bytes32"}],"stateMutability":"view"},{"type":"function","name":"renounceOwnership","inputs":[],"outputs":[],"stateMutability":"nonpayable"},{"type":"function","name":"totalInterest","inputs":[],"outputs":[{"name":"","type":"uint256","internalType":"uint256"}],"stateMutability":"view"},{"type":"function","name":"totalInterestFromLiquidation","inputs":[],"outputs":[{"name":"","type":"uint256","internalType":"uint256"}],"stateMutability":"view"},{"type":"function","name":"totalVolumeOfBorrowersAmountinUSD","inputs":[],"outputs":[{"name":"","type":"uint256","internalType":"uint256"}],"stateMutability":"view"},{"type":"function","name":"totalVolumeOfBorrowersAmountinWei","inputs":[],"outputs":[{"name":"","type":"uint256","internalType":"uint256"}],"stateMutability":"view"},{"type":"function","name":"transferEthToCdsLiquidators","inputs":[{"name":"borrower","type":"address","internalType":"address"},{"name":"amount","type":"uint128","internalType":"uint128"}],"outputs":[],"stateMutability":"nonpayable"},{"type":"function","name":"transferOwnership","inputs":[{"name":"newOwner","type":"address","internalType":"address"}],"outputs":[],"stateMutability":"nonpayable"},{"type":"function","name":"updateAbondAmintPool","inputs":[{"name":"amount","type":"uint256","internalType":"uint256"},{"name":"operation","type":"bool","internalType":"bool"}],"outputs":[],"stateMutability":"nonpayable"},{"type":"function","name":"updateDepositDetails","inputs":[{"name":"depositor","type":"address","internalType":"address"},{"name":"index","type":"uint64","internalType":"uint64"},{"name":"depositDetail","type":"tuple","internalType":"struct Treasury.DepositDetails","components":[{"name":"depositedTime","type":"uint64","internalType":"uint64"},{"name":"depositedAmount","type":"uint128","internalType":"uint128"},{"name":"depositedAmountUsdValue","type":"uint128","internalType":"uint128"},{"name":"downsidePercentage","type":"uint64","internalType":"uint64"},{"name":"ethPriceAtDeposit","type":"uint128","internalType":"uint128"},{"name":"borrowedAmount","type":"uint128","internalType":"uint128"},{"name":"normalizedAmount","type":"uint128","internalType":"uint128"},{"name":"withdrawed","type":"bool","internalType":"bool"},{"name":"withdrawAmount","type":"uint128","internalType":"uint128"},{"name":"liquidated","type":"bool","internalType":"bool"},{"name":"ethPriceAtWithdraw","type":"uint64","internalType":"uint64"},{"name":"withdrawTime","type":"uint64","internalType":"uint64"},{"name":"aBondTokensAmount","type":"uint128","internalType":"uint128"},{"name":"strikePrice","type":"uint128","internalType":"uint128"},{"name":"optionFees","type":"uint128","internalType":"uint128"},{"name":"externalProtocolCount","type":"uint64","internalType":"uint64"}]}],"outputs":[],"stateMutability":"nonpayable"},{"type":"function","name":"updateEthProfitsOfLiquidators","inputs":[{"name":"amount","type":"uint256","internalType":"uint256"},{"name":"operation","type":"bool","internalType":"bool"}],"outputs":[],"stateMutability":"nonpayable"},{"type":"function","name":"updateHasBorrowed","inputs":[{"name":"borrower","type":"address","internalType":"address"},{"name":"_bool","type":"bool","internalType":"bool"}],"outputs":[],"stateMutability":"nonpayable"},{"type":"function","name":"updateInterestFromExternalProtocol","inputs":[{"name":"amount","type":"uint256","internalType":"uint256"}],"outputs":[],"stateMutability":"nonpayable"},{"type":"function","name":"updateTotalBorrowedAmount","inputs":[{"name":"borrower","type":"address","internalType":"address"},{"name":"amount","type":"uint256","internalType":"uint256"}],"outputs":[],"stateMutability":"nonpayable"},{"type":"function","name":"updateTotalDepositedAmount","inputs":[{"name":"borrower","type":"address","internalType":"address"},{"name":"amount","type":"uint128","internalType":"uint128"}],"outputs":[],"stateMutability":"nonpayable"},{"type":"function","name":"updateTotalInterest","inputs":[{"name":"_amount","type":"uint256","internalType":"uint256"}],"outputs":[],"stateMutability":"nonpayable"},{"type":"function","name":"updateTotalInterestFromLiquidation","inputs":[{"name":"_amount","type":"uint256","internalType":"uint256"}],"outputs":[],"stateMutability":"nonpayable"},{"type":"function","name":"upgradeToAndCall","inputs":[{"name":"newImplementation","type":"address","internalType":"address"},{"name":"data","type":"bytes","internalType":"bytes"}],"outputs":[],"stateMutability":"payable"},{"type":"function","name":"usdt","inputs":[],"outputs":[{"name":"","type":"address","internalType":"contract IERC20"}],"stateMutability":"view"},{"type":"function","name":"wethGateway","inputs":[],"outputs":[{"name":"","type":"address","internalType":"contract IWrappedTokenGatewayV3"}],"stateMutability":"view"},{"type":"function","name":"withdraw","inputs":[{"name":"borrower","type":"address","internalType":"address"},{"name":"toAddress","type":"address","internalType":"address"},{"name":"_amount","type":"uint256","internalType":"uint256"},{"name":"index","type":"uint64","internalType":"uint64"}],"outputs":[{"name":"","type":"bool","internalType":"bool"}],"stateMutability":"nonpayable"},{"type":"function","name":"withdrawExternalProtocolInterest","inputs":[{"name":"toAddress","type":"address","internalType":"address"},{"name":"amount","type":"uint128","internalType":"uint128"}],"outputs":[],"stateMutability":"nonpayable"},{"type":"function","name":"withdrawFromExternalProtocol","inputs":[{"name":"user","type":"address","internalType":"address"},{"name":"aBondAmount","type":"uint128","internalType":"uint128"}],"outputs":[{"name":"","type":"uint256","internalType":"uint256"}],"stateMutability":"nonpayable"},{"type":"function","name":"withdrawInterest","inputs":[{"name":"toAddress","type":"address","internalType":"address"},{"name":"amount","type":"uint256","internalType":"uint256"}],"outputs":[],"stateMutability":"nonpayable"},{"type":"event","name":"Deposit","inputs":[{"name":"user","type":"address","indexed":true,"internalType":"address"},{"name":"amount","type":"uint256","indexed":false,"internalType":"uint256"}],"anonymous":false},{"type":"event","name":"DepositToAave","inputs":[{"name":"count","type":"uint64","indexed":false,"internalType":"uint64"},{"name":"amount","type":"uint256","indexed":false,"internalType":"uint256"}],"anonymous":false},{"type":"event","name":"DepositToCompound","inputs":[{"name":"count","type":"uint64","indexed":false,"internalType":"uint64"},{"name":"amount","type":"uint256","indexed":false,"internalType":"uint256"}],"anonymous":false},{"type":"event","name":"Initialized","inputs":[{"name":"version","type":"uint64","indexed":false,"internalType":"uint64"}],"anonymous":false},{"type":"event","name":"OwnershipTransferred","inputs":[{"name":"previousOwner","type":"address","indexed":true,"internalType":"address"},{"name":"newOwner","type":"address","indexed":true,"internalType":"address"}],"anonymous":false},{"type":"event","name":"Upgraded","inputs":[{"name":"implementation","type":"address","indexed":true,"internalType":"address"}],"anonymous":false},{"type":"event","name":"Withdraw","inputs":[{"name":"user","type":"address","indexed":true,"internalType":"address"},{"name":"amount","type":"uint256","indexed":false,"internalType":"uint256"}],"anonymous":false},{"type":"event","name":"WithdrawFromAave","inputs":[{"name":"count","type":"uint64","indexed":false,"internalType":"uint64"},{"name":"amount","type":"uint256","indexed":false,"internalType":"uint256"}],"anonymous":false},{"type":"event","name":"WithdrawFromCompound","inputs":[{"name":"count","type":"uint64","indexed":false,"internalType":"uint64"},{"name":"amount","type":"uint256","indexed":false,"internalType":"uint256"}],"anonymous":false},{"type":"error","name":"AddressEmptyCode","inputs":[{"name":"target","type":"address","internalType":"address"}]},{"type":"error","name":"ERC1967InvalidImplementation","inputs":[{"name":"implementation","type":"address","internalType":"address"}]},{"type":"error","name":"ERC1967NonPayable","inputs":[]},{"type":"error","name":"FailedInnerCall","inputs":[]},{"type":"error","name":"InvalidInitialization","inputs":[]},{"type":"error","name":"NotInitializing","inputs":[]},{"type":"error","name":"OwnableInvalidOwner","inputs":[{"name":"owner","type":"address","internalType":"address"}]},{"type":"error","name":"OwnableUnauthorizedAccount","inputs":[{"name":"account","type":"address","internalType":"address"}]},{"type":"error","name":"ReentrancyGuardReentrantCall","inputs":[]},{"type":"error","name":"Treasury_AaveDepositAndMintFailed","inputs":[]},{"type":"error","name":"Treasury_AavePoolAddressZero","inputs":[]},{"type":"error","name":"Treasury_AaveWithdrawFailed","inputs":[]},{"type":"error","name":"Treasury_CompoundDepositAndMintFailed","inputs":[]},{"type":"error","name":"Treasury_CompoundWithdrawFailed","inputs":[]},{"type":"error","name":"Treasury_EthTransferToCdsLiquidatorFailed","inputs":[]},{"type":"error","name":"Treasury_WithdrawExternalProtocolInterestFailed","inputs":[]},{"type":"error","name":"Treasury_ZeroDeposit","inputs":[]},{"type":"error","name":"Treasury_ZeroWithdraw","inputs":[]},{"type":"error","name":"UUPSUnauthorizedCallContext","inputs":[]},{"type":"error","name":"UUPSUnsupportedProxiableUUID","inputs":[{"name":"slot","type":"bytes32","internalType":"bytes32"}]}],"bytecode":{"object":"0x60a06040523060805234801561001457600080fd5b50608051613cf261003e600039600081816124b9015281816124e201526126230152613cf26000f3fe6080604052600436106102cd5760003560e01c806390dea7e211610175578063bfc00714116100dc578063dcb71f3f11610095578063e68d35691161006f578063e68d356914610960578063f2fde38b14610980578063f750d07d146109a0578063f750e3ab146109c057600080fd5b8063dcb71f3f146108e7578063e49ec3b814610920578063e61361051461094057600080fd5b8063bfc0071414610827578063c2fcb15b14610847578063c306b37814610867578063c5e10eef14610887578063cd0220c9146108a7578063dbc3bac0146108c757600080fd5b8063b9127c5c1161012e578063b9127c5c14610708578063b9a221eb14610728578063ba3e9c1214610748578063bc497a8214610768578063bc7a36d614610788578063bdceaba21461079e57600080fd5b806390dea7e21461062657806394420dfe1461063c5780639a52aed914610674578063a0c1f15e1461068a578063ad3cb1cc146106aa578063ad5c4648146106e857600080fd5b80634d5c56a5116102345780635822b66d116101ed578063715018a6116101c7578063715018a6146105945780637b85b739146105a957806384a965ed146105c95780638da5cb5b146105e957600080fd5b80635822b66d146105345780635b730e69146105545780636cd4ddbc1461057457600080fd5b80634d5c56a5146104895780634f1ef286146104b6578063503e6322146104c957806350d7ede2146104e957806352d1902d14610509578063541b60941461051e57600080fd5b80632bdc0e66116102865780632bdc0e66146103b55780632f48ab7d146103e5578063394612a1146104055780633ebbb1ef1461041b5780634514def81461043157806345aeb0ce1461045157600080fd5b80630f274495146102d95780631cd081b2146102fb57806323f1059c1461031d57806325375dd51461033d5780632a4e173b146103755780632b7f56941461039557600080fd5b366102d457005b600080fd5b3480156102e557600080fd5b50475b6040519081526020015b60405180910390f35b34801561030757600080fd5b5061031b61031636600461310c565b610a51565b005b34801561032957600080fd5b5061031b610338366004613138565b610ab8565b34801561034957600080fd5b5060045461035d906001600160a01b031681565b6040516001600160a01b0390911681526020016102f2565b34801561038157600080fd5b5061031b610390366004613138565b610afc565b3480156103a157600080fd5b5061031b6103b036600461310c565b610b38565b3480156103c157600080fd5b506103d56103d0366004613168565b610c6d565b60405190151581526020016102f2565b3480156103f157600080fd5b5060055461035d906001600160a01b031681565b34801561041157600080fd5b506102e860135481565b34801561042757600080fd5b506102e860145481565b34801561043d57600080fd5b5061031b61044c366004613261565b611079565b34801561045d57600080fd5b50601154610471906001600160801b031681565b6040516001600160801b0390911681526020016102f2565b34801561049557600080fd5b506104a96104a43660046133dc565b611227565b6040516102f29190613411565b61031b6104c43660046135b1565b6113fd565b3480156104d557600080fd5b5060015461035d906001600160a01b031681565b3480156104f557600080fd5b5060025461035d906001600160a01b031681565b34801561051557600080fd5b506102e861141c565b34801561052a57600080fd5b506102e860105481565b34801561054057600080fd5b5061031b61054f366004613658565b611439565b34801561056057600080fd5b5061031b61056f36600461310c565b6115a3565b34801561058057600080fd5b5061031b61058f366004613658565b6116f7565b3480156105a057600080fd5b5061031b611752565b3480156105b557600080fd5b506104716105c4366004613691565b611766565b3480156105d557600080fd5b5060095461035d906001600160a01b031681565b3480156105f557600080fd5b507f9016d09d72d40fdae2fd8ceac6b6234c7706214fd39c1cd1e609a0528c199300546001600160a01b031661035d565b34801561063257600080fd5b506102e860155481565b34801561064857600080fd5b5060175461065c906001600160401b031681565b6040516001600160401b0390911681526020016102f2565b34801561068057600080fd5b506102e8600f5481565b34801561069657600080fd5b5060065461035d906001600160a01b031681565b3480156106b657600080fd5b506106db604051806040016040528060058152602001640352e302e360dc1b81525081565b6040516102f291906136d2565b3480156106f457600080fd5b5060085461035d906001600160a01b031681565b34801561071457600080fd5b5061031b610723366004613705565b611801565b34801561073457600080fd5b5061031b610743366004613138565b611859565b34801561075457600080fd5b5060075461035d906001600160a01b031681565b34801561077457600080fd5b50600a5461035d906001600160a01b031681565b34801561079457600080fd5b506102e860125481565b3480156107aa57600080fd5b506107f56107b9366004613733565b600e60205260009081526040902060018101546002820154600383015460048401546005909401546001600160401b0390931693919290919085565b604080516001600160401b0390961686526020860194909452928401919091526060830152608082015260a0016102f2565b34801561083357600080fd5b50600b5461035d906001600160a01b031681565b34801561085357600080fd5b5061031b610862366004613754565b611895565b34801561087357600080fd5b5061031b610882366004613779565b611914565b34801561089357600080fd5b5060035461035d906001600160a01b031681565b3480156108b357600080fd5b5061031b6108c2366004613754565b611c97565b3480156108d357600080fd5b5061031b6108e2366004613658565b611d20565b6108fa6108f5366004613849565b611e6d565b604080518251151581526020928301516001600160401b031692810192909252016102f2565b34801561092c57600080fd5b506102e861093b366004613658565b612217565b34801561094c57600080fd5b5061031b61095b36600461310c565b6123d9565b34801561096c57600080fd5b5060005461035d906001600160a01b031681565b34801561098c57600080fd5b5061031b61099b366004613890565b612470565b3480156109ac57600080fd5b50600c5461035d906001600160a01b031681565b3480156109cc57600080fd5b50610a1a6109db366004613890565b600d6020526000908152604090208054600282015460039092015490919060ff808216916101008104909116906201000090046001600160401b031685565b6040805195865260208601949094529115159284019290925290151560608301526001600160401b0316608082015260a0016102f2565b6009546001600160a01b03163314610a845760405162461bcd60e51b8152600401610a7b906138ad565b60405180910390fd5b6001600160a01b0382166000908152600d602052604081206002018054839290610aaf908490613916565b90915550505050565b6009546001600160a01b03163314610ae25760405162461bcd60e51b8152600401610a7b906138ad565b8060136000828254610af49190613916565b909155505050565b6009546001600160a01b03163314610b265760405162461bcd60e51b8152600401610a7b906138ad565b8060166000828254610af49190613916565b600a546001600160a01b0316331480610b5b57506009546001600160a01b031633145b610b775760405162461bcd60e51b8152600401610a7b90613929565b6001600160a01b03821615801590610b8e57508015155b610baa5760405162461bcd60e51b8152600401610a7b90613986565b60015460405163095ea7b360e01b81526001600160a01b03848116600483015260248201849052600092169063095ea7b3906044015b6020604051808303816000875af1158015610bff573d6000803e3d6000fd5b505050506040513d601f19601f82011682018060405250810190610c2391906139c8565b9050600181151514610c685760405162461bcd60e51b815260206004820152600e60248201526d105c1c1c9bdd994819985a5b195960921b6044820152606401610a7b565b505050565b6009546000906001600160a01b03163314610c9a5760405162461bcd60e51b8152600401610a7b906138ad565b60008311610cea5760405162461bcd60e51b815260206004820152601a60248201527f43616e6e6f74207769746864726177207a65726f2045746865720000000000006044820152606401610a7b565b6001600160a01b0385166000908152600d602090815260408083206001600160401b0386168452600101909152902060030154600160801b900460ff16610d4d5760405162461bcd60e51b81526020600482015260006024820152604401610a7b565b600080546001600160a01b038781168352600d602090815260408085206001600160401b03881686526001908101909252938490200154925163330dbe9f60e11b81526001600160801b039093166004840152859291169063661b7d3e90602401600060405180830381600087803b158015610dc857600080fd5b505af1158015610ddc573d6000803e3d6000fd5b5050506001600160a01b0387166000908152600d602090815260408083206001600160401b0388168452600190810190925282200154601080546001600160801b0390921693509190610e309084906139e5565b90915550610e4190508160026139f8565b600f6000828254610e5291906139e5565b90915550506001600160a01b0386166000818152600d602081815260408084206001600160401b038916855260018101835290842060029081015495855292909152018054600160801b9093046001600160801b031692909190610eb79084906139e5565b90915550506001600160a01b0386166000818152600d602081815260408084206001600160401b03891685526001810183529084208054600160401b600160c01b03191690559383525290549003610f475760118054600090610f22906001600160801b0316613a0f565b91906101000a8154816001600160801b0302191690836001600160801b031602179055505b6001600160a01b0386166000908152600d602090815260408083206001600160401b038716845260010190915281206004018054839290610f929084906001600160801b0316613a32565b92506101000a8154816001600160801b0302191690836001600160801b031602179055506000856001600160a01b03168260405160006040518083038185875af1925050503d8060008114611003576040519150601f19603f3d011682016040523d82523d6000602084013e611008565b606091505b50509050806110295760405162461bcd60e51b8152600401610a7b90613a52565b856001600160a01b03167f884edad9ce6fa2440d8a54cc123490eb96d2768479d49ff9c7366125a94243648660405161106491815260200190565b60405180910390a25060019695505050505050565b6009546001600160a01b031633146110a35760405162461bcd60e51b8152600401610a7b906138ad565b6001600160a01b03929092166000908152600d602090815260408083206001600160401b039485168452600190810183529281902085518154938701519086166001600160c01b031994851617600160401b6001600160801b039283168102919091178355928701519482018054606089015196831690861617600160801b9688168702179055608087015160a0880151908216908216860217600283015560c087015160038301805460e08a015192841670ffffffffffffffffffffffffffffffffff199182161792151588029290921790556101008801516004840180546101208b01516101408c0151938616919094161792151588029290921767ffffffffffffffff60881b1916600160881b918916919091021790556101608701516005830180546101808a0151928916961695909517908216909302929092179092556101a08501516101c086015190821691169092029190911760068201556101e0909201516007909201805467ffffffffffffffff191692909116919091179055565b6112be60408051808201825260008082528251610200810184528181526020818101839052938101829052606081018290526080810182905260a0810182905260c0810182905260e08101829052610100810182905261012081018290526101408101829052610160810182905261018081018290526101a081018290526101c081018290526101e0810191909152909182015290565b506040805180820182526001600160a01b0384166000908152600d60209081528382206003808201546001600160401b03620100009091048116865287811685526001928301845293869020865161020081018852815480871682526001600160801b03600160401b918290048116838801529483015480861699830199909952600160801b988990048716606083015260028301548086166080840152899004851660a08301529282015480851660c083015260ff908990048116151560e083015260048301548086166101008401528981049091161515610120830152600160881b90048616610140820152600582015480871661016083015292909204831661018083015260068101548084166101a0840152969096049091166101c08201526007909401549091166101e08401528101919091525b92915050565b6114056124ae565b61140e82612553565b611418828261255b565b5050565b6000611426612618565b50600080516020613c9d83398151915290565b600a546001600160a01b031633146114635760405162461bcd60e51b8152600401610a7b90613a80565b6001600160a01b0382161580159061148357506001600160801b03811615155b61149f5760405162461bcd60e51b8152600401610a7b90613986565b601554816001600160801b031611156115085760405162461bcd60e51b815260206004820152602560248201527f547265617375727920646f6e2774206861766520656e6f7567682045544820616044820152641b5bdd5b9d60da1b6064820152608401610a7b565b806001600160801b03166015600082825461152391906139e5565b90915550506040516000906001600160a01b038416906001600160801b038416908381818185875af1925050503d806000811461157c576040519150601f19603f3d011682016040523d82523d6000602084013e611581565b606091505b5050905080610c6857604051633243a0f360e21b815260040160405180910390fd5b6115ab612661565b6001600160a01b038216158015906115c257508015155b6115de5760405162461bcd60e51b8152600401610a7b90613986565b6013546012546115ee9190613916565b8111156116495760405162461bcd60e51b815260206004820152602360248201527f547265617375727920646f6e2774206861766520656e6f75676820696e746572604482015262195cdd60ea1b6064820152608401610a7b565b806012600082825461165b91906139e5565b909155505060015460405163a9059cbb60e01b81526001600160a01b03848116600483015260248201849052600092169063a9059cbb906044016020604051808303816000875af11580156116b4573d6000803e3d6000fd5b505050506040513d601f19601f820116820180604052508101906116d891906139c8565b905080610c685760405162461bcd60e51b8152600401610a7b90613a52565b6009546001600160a01b031633146117215760405162461bcd60e51b8152600401610a7b906138ad565b6001600160a01b0382166000908152600d6020526040812080546001600160801b0384169290610aaf9084906139e5565b61175a612661565b61176460006126bc565b565b6009546000906001600160a01b031633146117935760405162461bcd60e51b8152600401610a7b906138ad565b600061179d61272d565b905060006117a961275c565b905083156117db57806001600160801b0316826001600160801b031611156117d2575092915050565b91506117fc9050565b806001600160801b0316826001600160801b031610156117d2575092915050565b919050565b6009546001600160a01b0316331461182b5760405162461bcd60e51b8152600401610a7b906138ad565b6001600160a01b03919091166000908152600d60205260409020600301805460ff1916911515919091179055565b6009546001600160a01b031633146118835760405162461bcd60e51b8152600401610a7b906138ad565b8060126000828254610af49190613916565b6009546001600160a01b031633146118bf5760405162461bcd60e51b8152600401610a7b906138ad565b816000036118df5760405162461bcd60e51b8152600401610a7b90613acd565b80156119025781601460008282546118f79190613916565b909155506114189050565b8160146000828254610aaf91906139e5565b7ff0c57e16840df040f15088dc2f81fe391c3923bec73e23a9662efc9c229c6a008054600160401b810460ff1615906001600160401b03166000811580156119595750825b90506000826001600160401b031660011480156119755750303b155b905081158015611983575080155b156119a15760405163f92ee8a960e01b815260040160405180910390fd5b845467ffffffffffffffff1916600117855583156119cb57845460ff60401b1916600160401b1785555b6119d433612768565b6119dc612779565b8e600960006101000a8154816001600160a01b0302191690836001600160a01b031602179055508b600a60006101000a8154816001600160a01b0302191690836001600160a01b031602179055508e6000806101000a8154816001600160a01b0302191690836001600160a01b031602179055508d600160006101000a8154816001600160a01b0302191690836001600160a01b031602179055508c600260006101000a8154816001600160a01b0302191690836001600160a01b031602179055508a600360006101000a8154816001600160a01b0302191690836001600160a01b0316021790555089600760006101000a8154816001600160a01b0302191690836001600160a01b0316021790555089600b60006101000a8154816001600160a01b0302191690836001600160a01b0316021790555085600860006101000a8154816001600160a01b0302191690836001600160a01b0316021790555088600460006101000a8154816001600160a01b0302191690836001600160a01b0316021790555087600660006101000a8154816001600160a01b0302191690836001600160a01b031602179055508a600c60006101000a8154816001600160a01b0302191690836001600160a01b0316021790555086600560006101000a8154816001600160a01b0302191690836001600160a01b031602179055506001601760006101000a8154816001600160401b0302191690836001600160401b03160217905550670de0b6b3a7640000601760086101000a8154816001600160801b0302191690836001600160801b031602179055506b033b2e3c9fd0803ce80000006018819055508315611c8657845460ff60401b19168555604051600181527fc7f505b2f371ae2175ee4913f4499e1f2633a7b5936321eed1cdaeb6115181d29060200160405180910390a15b505050505050505050505050505050565b600a546001600160a01b0316331480611cba57506009546001600160a01b031633145b611cd65760405162461bcd60e51b8152600401610a7b90613929565b81600003611cf65760405162461bcd60e51b8152600401610a7b90613acd565b8015611d0e5781601560008282546118f79190613916565b8160156000828254610aaf91906139e5565b611d28612661565b6001600160a01b03821615801590611d4857506001600160801b03811615155b611d645760405162461bcd60e51b8152600401610a7b90613986565b601654816001600160801b03161115611dd25760405162461bcd60e51b815260206004820152602a60248201527f547265617375727920646f6e2774206861766520656e6f75676820696e746572604482015269195cdd08185b5bdd5b9d60b21b6064820152608401610a7b565b806001600160801b031660166000828254611ded91906139e5565b90915550506040516000906001600160a01b038416906001600160801b038416908381818185875af1925050503d8060008114611e46576040519150601f19603f3d011682016040523d82523d6000602084013e611e4b565b606091505b5050905080610c68576040516357a507f360e11b815260040160405180910390fd5b60408051808201909152600080825260208201526009546001600160a01b03163314611eab5760405162461bcd60e51b8152600401610a7b906138ad565b6001600160a01b0384166000908152600d6020526040812060030154610100900460ff16611f4857506001600160a01b0384166000908152600d60205260408120600301805469ffffffffffffffffff001916620101001790556011805460019290611f1f906001600160801b0316613b0f565b91906101000a8154816001600160801b0302191690836001600160801b03160217905550611fa6565b6001600160a01b0385166000908152600d602052604090206003018054600290611f80906201000090046001600160401b0316613b35565b91906101000a8154816001600160401b0302191690836001600160401b03160217905590505b6001600160a01b0385166000908152600d602052604081208054349290611fce908490613916565b90915550506001600160a01b0385166000908152600d602090815260408083206001600160401b0385168452600101909152902080546001600160801b0334818116600160401b02600160401b600160c01b0319909316929092179092556120379186166139f8565b601060008282546120489190613916565b9250508190555034600f60008282546120619190613916565b90915550506001600160a01b0385166000908152600d602090815260408083206001600160401b0385811685526001909101909252909120805467ffffffffffffffff191691851691909117815560020180546001600160801b0319166001600160801b0386161790556120d58434613b51565b6001600160a01b0386166000908152600d602090815260408083206001600160401b0386811685526001918201909352922091820180546001600160801b0319166001600160801b039490941693909317909255601754600790910180549190921667ffffffffffffffff1990911617905560646121543460326139f8565b61215e9190613b92565b6017546001600160401b031660009081526019602052604081208054909190612188908490613916565b90915550506040513481526001600160a01b038616907fe1fffcc4923d04b559f4d29a8bfc6cda04eb5b0d3c460751c2402c5c5cc9109c9060200160405180910390a26040805180820182526001600160a01b0387166000908152600d60209081529290206003015460ff61010090910416151581526001600160401b039092169082015290505b9392505050565b6009546000906001600160a01b031633146122445760405162461bcd60e51b8152600401610a7b906138ad565b6006546040516370a0823160e01b81523060048201526000916001600160a01b0316906370a0823190602401602060405180830381865afa15801561228d573d6000803e3d6000fd5b505050506040513d601f19601f820116820180604052508101906122b19190613ba6565b90506122be816000612781565b506007546040516370a0823160e01b81523060048201526000916001600160a01b0316906370a0823190602401602060405180830381865afa158015612308573d6000803e3d6000fd5b505050506040513d601f19601f8201168201806040525081019061232c9190613ba6565b9050612339816001612781565b506000612346868661290a565b6123508787612b90565b61235a9190613916565b90506000866001600160a01b03168260405160006040518083038185875af1925050503d80600081146123a9576040519150601f19603f3d011682016040523d82523d6000602084013e6123ae565b606091505b50509050806123cf5760405162461bcd60e51b8152600401610a7b90613a52565b5095945050505050565b600a546001600160a01b031633146124035760405162461bcd60e51b8152600401610a7b90613a80565b6001600160a01b0382161580159061241a57508015155b6124365760405162461bcd60e51b8152600401610a7b90613986565b60055460405163095ea7b360e01b81526001600160a01b03848116600483015260248201849052600092169063095ea7b390604401610be0565b612478612661565b6001600160a01b0381166124a257604051631e4fbdf760e01b815260006004820152602401610a7b565b6124ab816126bc565b50565b306001600160a01b037f000000000000000000000000000000000000000000000000000000000000000016148061253557507f00000000000000000000000000000000000000000000000000000000000000006001600160a01b0316612529600080516020613c9d833981519152546001600160a01b031690565b6001600160a01b031614155b156117645760405163703e46dd60e11b815260040160405180910390fd5b6124ab612661565b816001600160a01b03166352d1902d6040518163ffffffff1660e01b8152600401602060405180830381865afa9250505080156125b5575060408051601f3d908101601f191682019092526125b291810190613ba6565b60015b6125dd57604051634c9c8ce360e01b81526001600160a01b0383166004820152602401610a7b565b600080516020613c9d833981519152811461260e57604051632a87526960e21b815260048101829052602401610a7b565b610c688383612ed1565b306001600160a01b037f000000000000000000000000000000000000000000000000000000000000000016146117645760405163703e46dd60e11b815260040160405180910390fd5b336126937f9016d09d72d40fdae2fd8ceac6b6234c7706214fd39c1cd1e609a0528c199300546001600160a01b031690565b6001600160a01b0316146117645760405163118cdaa760e01b8152336004820152602401610a7b565b7f9016d09d72d40fdae2fd8ceac6b6234c7706214fd39c1cd1e609a0528c19930080546001600160a01b031981166001600160a01b03848116918217845560405192169182907f8be0079c531659141344cd1fd0a4f28419497f9722a3daafe3b4186f6b6457e090600090a3505050565b6000600e81805b600181111561274557612745613bbf565b815260200190815260200160002060050154905090565b6000600e816001612734565b612770612f27565b6124ab81612f70565b611764612f27565b600080600e600084600181111561279a5761279a613bbf565b60018111156127ab576127ab613bbf565b8152602001908152602001600020600301546000036127cd57506018546128c7565b6000600e60008560018111156127e5576127e5613bbf565b60018111156127f6576127f6613bbf565b815260200190815260200160002060030154601854600e600087600181111561282157612821613bbf565b600181111561283257612832613bbf565b8152602001908152602001600020600301548761284f91906139e5565b61285991906139f8565b6128639190613b92565b9050601854600e600086600181111561287e5761287e613bbf565b600181111561288f5761288f613bbf565b815260200190815260200160002060050154826018546128af9190613916565b6128b991906139f8565b6128c39190613b92565b9150505b80600e60008560018111156128de576128de613bbf565b60018111156128ef576128ef613bbf565b81526020810191909152604001600020600501559392505050565b600254604051630ecc535f60e01b81526001600160a01b0384811660048301526000928392911690630ecc535f906024016060604051808303816000875af115801561295a573d6000803e3d6000fd5b505050506040513d601f19601f8201168201806040525081019061297e9190613bd5565b90506000601760089054906101000a90046001600160801b03168260200151856129a89190613b51565b6129b29190613c3d565b82519091506000906129c59060646139f8565b6018546129db906001600160801b0385166139f8565b6129e69060326139f8565b6129f09190613b92565b9050600060185482612a026000611766565b6001600160801b0316612a1591906139f8565b612a1f9190613b92565b60075460085460405163f3fef3a360e01b81526001600160a01b03918216600482015260248101849052929350169063f3fef3a390604401600060405180830381600087803b158015612a7157600080fd5b505af1158015612a85573d6000803e3d6000fd5b50506007546040516370a0823160e01b81523060048201526001600160a01b0390911692506370a082319150602401602060405180830381865afa158015612ad1573d6000803e3d6000fd5b505050506040513d601f19601f82011682018060405250810190612af59190613ba6565b60016000908152600e6020527fa7c5ba7114a813b50159add3a36832908dc83db71d0b9a24c2ad0f83be95820a9190915560085460408051632e1a7d4d60e01b81526004810185905290516001600160a01b0390921692632e1a7d4d9260248084019382900301818387803b158015612b6d57600080fd5b505af1158015612b81573d6000803e3d6000fd5b50929998505050505050505050565b600254604051630ecc535f60e01b81526001600160a01b0384811660048301526000928392911690630ecc535f906024016060604051808303816000875af1158015612be0573d6000803e3d6000fd5b505050506040513d601f19601f82011682018060405250810190612c049190613bd5565b90506000601760089054906101000a90046001600160801b0316826020015185612c2e9190613b51565b612c389190613c3d565b8251909150600090612c4b9060646139f8565b601854612c61906001600160801b0385166139f8565b612c6c9060326139f8565b612c769190613b92565b9050600060185482612c886000611766565b6001600160801b0316612c9b91906139f8565b612ca59190613b92565b90506000600460009054906101000a90046001600160a01b03166001600160a01b031663026b1d5f6040518163ffffffff1660e01b8152600401602060405180830381865afa158015612cfc573d6000803e3d6000fd5b505050506040513d601f19601f82011682018060405250810190612d209190613c63565b90506001600160a01b038116612d4957604051630a20c02560e21b815260040160405180910390fd5b600654600c5460405163095ea7b360e01b81526001600160a01b0391821660048201526024810185905291169063095ea7b3906044016020604051808303816000875af1158015612d9e573d6000803e3d6000fd5b505050506040513d601f19601f82011682018060405250810190612dc291906139c8565b50600354604051630402806960e51b81526001600160a01b03838116600483015260248201859052306044830152909116906380500d2090606401600060405180830381600087803b158015612e1757600080fd5b505af1158015612e2b573d6000803e3d6000fd5b50506006546040516370a0823160e01b81523060048201526001600160a01b0390911692506370a082319150602401602060405180830381865afa158015612e77573d6000803e3d6000fd5b505050506040513d601f19601f82011682018060405250810190612e9b9190613ba6565b60008052600e6020527fe710864318d4a32f37d6ce54cb3fadbef648dd12d8dbdf53973564d56b7f881f55509695505050505050565b612eda82612f78565b6040516001600160a01b038316907fbc7cd75a20ee27fd9adebab32041f755214dbc6bffa90cc0225b39da2e5c2d3b90600090a2805115612f1f57610c688282612fdd565b611418613053565b7ff0c57e16840df040f15088dc2f81fe391c3923bec73e23a9662efc9c229c6a0054600160401b900460ff1661176457604051631afcd79f60e31b815260040160405180910390fd5b612478612f27565b806001600160a01b03163b600003612fae57604051634c9c8ce360e01b81526001600160a01b0382166004820152602401610a7b565b600080516020613c9d83398151915280546001600160a01b0319166001600160a01b0392909216919091179055565b6060600080846001600160a01b031684604051612ffa9190613c80565b600060405180830381855af49150503d8060008114613035576040519150601f19603f3d011682016040523d82523d6000602084013e61303a565b606091505b509150915061304a858383613072565b95945050505050565b34156117645760405163b398979f60e01b815260040160405180910390fd5b60608261308757613082826130ce565b612210565b815115801561309e57506001600160a01b0384163b155b156130c757604051639996b31560e01b81526001600160a01b0385166004820152602401610a7b565b5080612210565b8051156130de5780518082602001fd5b604051630a12f52160e11b815260040160405180910390fd5b6001600160a01b03811681146124ab57600080fd5b6000806040838503121561311f57600080fd5b823561312a816130f7565b946020939093013593505050565b60006020828403121561314a57600080fd5b5035919050565b80356001600160401b03811681146117fc57600080fd5b6000806000806080858703121561317e57600080fd5b8435613189816130f7565b93506020850135613199816130f7565b9250604085013591506131ae60608601613151565b905092959194509250565b634e487b7160e01b600052604160045260246000fd5b60405161020081016001600160401b03811182821017156131f2576131f26131b9565b60405290565b604051601f8201601f191681016001600160401b0381118282101715613220576132206131b9565b604052919050565b6001600160801b03811681146124ab57600080fd5b80356117fc81613228565b80151581146124ab57600080fd5b80356117fc81613248565b600080600083850361024081121561327857600080fd5b8435613283816130f7565b935061329160208601613151565b925061020080603f19830112156132a757600080fd5b6132af6131cf565b91506132bd60408701613151565b82526132cb6060870161323d565b60208301526132dc6080870161323d565b60408301526132ed60a08701613151565b60608301526132fe60c0870161323d565b608083015261330f60e0870161323d565b60a083015261010061332281880161323d565b60c0840152610120613335818901613256565b60e0850152610140613348818a0161323d565b83860152610160925061335c838a01613256565b828601526101809150613370828a01613151565b908501526101a0613382898201613151565b838601526101c09250613396838a0161323d565b828601526101e091506133aa828a0161323d565b908501526133b988840161323d565b828501526133ca6102208901613151565b81850152505050809150509250925092565b600080604083850312156133ef57600080fd5b82356133fa816130f7565b915061340860208401613151565b90509250929050565b6000610220820190506001600160401b03835116825260208301516134426020840182516001600160401b03169052565b60208101516001600160801b03811660408501525060408101516001600160801b03811660608501525060608101516001600160401b03811660808501525060808101516001600160801b03811660a08501525060a08101516001600160801b03811660c08501525060c08101516001600160801b03811660e08501525060e08101516101006134d58186018315159052565b82015190506101206134f1858201836001600160801b03169052565b82015190506101406135068582018315159052565b8201519050610160613522858201836001600160401b03169052565b820151905061018061353e858201836001600160401b03169052565b82015190506101a061355a858201836001600160801b03169052565b82015190506101c0613576858201836001600160801b03169052565b82015190506101e0613592858201836001600160801b03169052565b91909101516001600160401b03811661020085015290505b5092915050565b600080604083850312156135c457600080fd5b82356135cf816130f7565b91506020838101356001600160401b03808211156135ec57600080fd5b818601915086601f83011261360057600080fd5b813581811115613612576136126131b9565b613624601f8201601f191685016131f8565b9150808252878482850101111561363a57600080fd5b80848401858401376000848284010152508093505050509250929050565b6000806040838503121561366b57600080fd5b8235613676816130f7565b9150602083013561368681613228565b809150509250929050565b6000602082840312156136a357600080fd5b813561221081613248565b60005b838110156136c95781810151838201526020016136b1565b50506000910152565b60208152600082518060208401526136f18160408501602087016136ae565b601f01601f19169190910160400192915050565b6000806040838503121561371857600080fd5b8235613723816130f7565b9150602083013561368681613248565b60006020828403121561374557600080fd5b81356002811061221057600080fd5b6000806040838503121561376757600080fd5b82359150602083013561368681613248565b6000806000806000806000806000806101408b8d03121561379957600080fd5b8a356137a4816130f7565b995060208b01356137b4816130f7565b985060408b01356137c4816130f7565b975060608b01356137d4816130f7565b965060808b01356137e4816130f7565b955060a08b01356137f4816130f7565b945060c08b0135613804816130f7565b935060e08b0135613814816130f7565b92506101008b0135613825816130f7565b91506101208b0135613836816130f7565b809150509295989b9194979a5092959850565b60008060006060848603121561385e57600080fd5b8335613869816130f7565b9250602084013561387981613228565b915061388760408501613151565b90509250925092565b6000602082840312156138a257600080fd5b8135612210816130f7565b60208082526033908201527f546869732066756e6374696f6e2063616e206f6e6c792063616c6c656420627960408201527208189bdc9c9bddda5b99c818dbdb9d1c9858dd606a1b606082015260800190565b634e487b7160e01b600052601160045260246000fd5b808201808211156113f7576113f7613900565b6020808252603a908201527f546869732066756e6374696f6e2063616e206f6e6c792063616c6c656420627960408201527f20426f72726f77696e67206f722043445320636f6e7472616374000000000000606082015260800190565b60208082526022908201527f496e7075742061646472657373206f7220616d6f756e7420697320696e76616c6040820152611a5960f21b606082015260800190565b6000602082840312156139da57600080fd5b815161221081613248565b818103818111156113f7576113f7613900565b80820281158282048414176113f7576113f7613900565b60006001600160801b03821680613a2857613a28613900565b6000190192915050565b6001600160801b038181168382160190808211156135aa576135aa613900565b6020808252601490820152732330b4b632b2103a379039b2b7321022ba3432b960611b604082015260600190565b6020808252602d908201527f546869732066756e6374696f6e2063616e206f6e6c792063616c6c656420627960408201526c0810d114c818dbdb9d1c9858dd609a1b606082015260800190565b60208082526022908201527f54726561737572793a416d6f756e742073686f756c64206e6f74206265207a65604082015261726f60f01b606082015260800190565b60006001600160801b03808316818103613b2b57613b2b613900565b6001019392505050565b60006001600160401b03808316818103613b2b57613b2b613900565b6001600160801b03818116838216028082169190828114613b7457613b74613900565b505092915050565b634e487b7160e01b600052601260045260246000fd5b600082613ba157613ba1613b7c565b500490565b600060208284031215613bb857600080fd5b5051919050565b634e487b7160e01b600052602160045260246000fd5b600060608284031215613be757600080fd5b604051606081018181106001600160401b0382111715613c0957613c096131b9565b604052825181526020830151613c1e81613228565b60208201526040830151613c3181613228565b60408201529392505050565b60006001600160801b0380841680613c5757613c57613b7c565b92169190910492915050565b600060208284031215613c7557600080fd5b8151612210816130f7565b60008251613c928184602087016136ae565b919091019291505056fe360894a13ba1a3210667c828492db98dca3e2076cc3735a920a3ca505d382bbca264697066735822122006f39cbcacb19ca38a21d7c4c4f6ea7d936c90e084b641e0eb33a5da0d992f4464736f6c63430008140033","linkReferences":{}},"methodIdentifiers":{"UPGRADE_INTERFACE_VERSION()":"ad3cb1cc","WETH()":"ad5c4648","aToken()":"a0c1f15e","aavePoolAddressProvider()":"25375dd5","aaveWETH()":"f750d07d","abond()":"50d7ede2","abondAmintPool()":"3ebbb1ef","amint()":"503e6322","approveAmint(address,uint256)":"2b7f5694","approveUsdt(address,uint256)":"e6136105","borrow()":"e68d3569","borrowing(address)":"f750e3ab","borrowingContract()":"84a965ed","cdsContract()":"bc497a82","comet()":"ba3e9c12","compoundAddress()":"bfc00714","deposit(address,uint128,uint64)":"dcb71f3f","ethProfitsOfLiquidators()":"90dea7e2","externalProtocolDepositCount()":"94420dfe","getBalanceInTreasury()":"0f274495","getBorrowing(address,uint64)":"4d5c56a5","getExternalProtocolCumulativeRate(bool)":"7b85b739","initialize(address,address,address,address,address,address,address,address,address,address)":"c306b378","noOfBorrowers()":"45aeb0ce","owner()":"8da5cb5b","protocolDeposit(uint8)":"bdceaba2","proxiableUUID()":"52d1902d","renounceOwnership()":"715018a6","totalInterest()":"bc7a36d6","totalInterestFromLiquidation()":"394612a1","totalVolumeOfBorrowersAmountinUSD()":"541b6094","totalVolumeOfBorrowersAmountinWei()":"9a52aed9","transferEthToCdsLiquidators(address,uint128)":"5822b66d","transferOwnership(address)":"f2fde38b","updateAbondAmintPool(uint256,bool)":"c2fcb15b","updateDepositDetails(address,uint64,(uint64,uint128,uint128,uint64,uint128,uint128,uint128,bool,uint128,bool,uint64,uint64,uint128,uint128,uint128,uint64))":"4514def8","updateEthProfitsOfLiquidators(uint256,bool)":"cd0220c9","updateHasBorrowed(address,bool)":"b9127c5c","updateInterestFromExternalProtocol(uint256)":"2a4e173b","updateTotalBorrowedAmount(address,uint256)":"1cd081b2","updateTotalDepositedAmount(address,uint128)":"6cd4ddbc","updateTotalInterest(uint256)":"b9a221eb","updateTotalInterestFromLiquidation(uint256)":"23f1059c","upgradeToAndCall(address,bytes)":"4f1ef286","usdt()":"2f48ab7d","wethGateway()":"c5e10eef","withdraw(address,address,uint256,uint64)":"2bdc0e66","withdrawExternalProtocolInterest(address,uint128)":"dbc3bac0","withdrawFromExternalProtocol(address,uint128)":"e49ec3b8","withdrawInterest(address,uint256)":"5b730e69"},"id":1}