{"abi":[{"type":"constructor","inputs":[],"stateMutability":"nonpayable"},{"type":"function","name":"allowance","inputs":[{"name":"owner","type":"address","internalType":"address"},{"name":"spender","type":"address","internalType":"address"}],"outputs":[{"name":"","type":"uint256","internalType":"uint256"}],"stateMutability":"view"},{"type":"function","name":"approve","inputs":[{"name":"spender","type":"address","internalType":"address"},{"name":"amount","type":"uint256","internalType":"uint256"}],"outputs":[{"name":"","type":"bool","internalType":"bool"}],"stateMutability":"nonpayable"},{"type":"function","name":"balanceOf","inputs":[{"name":"account","type":"address","internalType":"address"}],"outputs":[{"name":"","type":"uint256","internalType":"uint256"}],"stateMutability":"view"},{"type":"function","name":"burn","inputs":[{"name":"amount","type":"uint256","internalType":"uint256"}],"outputs":[],"stateMutability":"nonpayable"},{"type":"function","name":"burnFrom","inputs":[{"name":"account","type":"address","internalType":"address"},{"name":"amount","type":"uint256","internalType":"uint256"}],"outputs":[],"stateMutability":"nonpayable"},{"type":"function","name":"burnFromUser","inputs":[{"name":"to","type":"address","internalType":"address"},{"name":"amount","type":"uint256","internalType":"uint256"}],"outputs":[{"name":"","type":"bool","internalType":"bool"}],"stateMutability":"nonpayable"},{"type":"function","name":"decimals","inputs":[],"outputs":[{"name":"","type":"uint8","internalType":"uint8"}],"stateMutability":"pure"},{"type":"function","name":"decreaseAllowance","inputs":[{"name":"spender","type":"address","internalType":"address"},{"name":"subtractedValue","type":"uint256","internalType":"uint256"}],"outputs":[{"name":"","type":"bool","internalType":"bool"}],"stateMutability":"nonpayable"},{"type":"function","name":"increaseAllowance","inputs":[{"name":"spender","type":"address","internalType":"address"},{"name":"addedValue","type":"uint256","internalType":"uint256"}],"outputs":[{"name":"","type":"bool","internalType":"bool"}],"stateMutability":"nonpayable"},{"type":"function","name":"mint","inputs":[{"name":"to","type":"address","internalType":"address"},{"name":"amount","type":"uint256","internalType":"uint256"}],"outputs":[{"name":"","type":"bool","internalType":"bool"}],"stateMutability":"nonpayable"},{"type":"function","name":"name","inputs":[],"outputs":[{"name":"","type":"string","internalType":"string"}],"stateMutability":"view"},{"type":"function","name":"owner","inputs":[],"outputs":[{"name":"","type":"address","internalType":"address"}],"stateMutability":"view"},{"type":"function","name":"pause","inputs":[],"outputs":[],"stateMutability":"nonpayable"},{"type":"function","name":"paused","inputs":[],"outputs":[{"name":"","type":"bool","internalType":"bool"}],"stateMutability":"view"},{"type":"function","name":"renounceOwnership","inputs":[],"outputs":[],"stateMutability":"nonpayable"},{"type":"function","name":"symbol","inputs":[],"outputs":[{"name":"","type":"string","internalType":"string"}],"stateMutability":"view"},{"type":"function","name":"totalSupply","inputs":[],"outputs":[{"name":"","type":"uint256","internalType":"uint256"}],"stateMutability":"view"},{"type":"function","name":"transfer","inputs":[{"name":"to","type":"address","internalType":"address"},{"name":"amount","type":"uint256","internalType":"uint256"}],"outputs":[{"name":"","type":"bool","internalType":"bool"}],"stateMutability":"nonpayable"},{"type":"function","name":"transferFrom","inputs":[{"name":"from","type":"address","internalType":"address"},{"name":"to","type":"address","internalType":"address"},{"name":"amount","type":"uint256","internalType":"uint256"}],"outputs":[{"name":"","type":"bool","internalType":"bool"}],"stateMutability":"nonpayable"},{"type":"function","name":"transferOwnership","inputs":[{"name":"newOwner","type":"address","internalType":"address"}],"outputs":[],"stateMutability":"nonpayable"},{"type":"function","name":"unpause","inputs":[],"outputs":[],"stateMutability":"nonpayable"},{"type":"function","name":"whitelist","inputs":[{"name":"","type":"address","internalType":"address"}],"outputs":[{"name":"","type":"bool","internalType":"bool"}],"stateMutability":"view"},{"type":"event","name":"Approval","inputs":[{"name":"owner","type":"address","indexed":true,"internalType":"address"},{"name":"spender","type":"address","indexed":true,"internalType":"address"},{"name":"value","type":"uint256","indexed":false,"internalType":"uint256"}],"anonymous":false},{"type":"event","name":"OwnershipTransferred","inputs":[{"name":"previousOwner","type":"address","indexed":true,"internalType":"address"},{"name":"newOwner","type":"address","indexed":true,"internalType":"address"}],"anonymous":false},{"type":"event","name":"Paused","inputs":[{"name":"account","type":"address","indexed":false,"internalType":"address"}],"anonymous":false},{"type":"event","name":"Transfer","inputs":[{"name":"from","type":"address","indexed":true,"internalType":"address"},{"name":"to","type":"address","indexed":true,"internalType":"address"},{"name":"value","type":"uint256","indexed":false,"internalType":"uint256"}],"anonymous":false},{"type":"event","name":"Unpaused","inputs":[{"name":"account","type":"address","indexed":false,"internalType":"address"}],"anonymous":false}],"bytecode":{"object":"0x60803462000368576001600160401b03906040908082018381118282101762000269578252600b81526020906a20a127a722102a37b5b2b760a91b82820152825193838501858110828211176200026957845260059485815264105093d39160da1b84820152825182811162000269576003918254916001958684811c941680156200035d575b8885101462000347578190601f94858111620002f2575b5088908583116001146200028b576000926200027f575b505060001982861b1c191690861b1783555b8051938411620002695760049586548681811c911680156200025e575b82821014620002495783811162000200575b508092851160011462000192575093839491849260009562000186575b50501b92600019911b1c19161790555b81546001600160a81b0319811633600881811b610100600160a81b031692909217909455915192911c6001600160a01b03167f8be0079c531659141344cd1fd0a4f28419497f9722a3daafe3b4186f6b6457e0600080a3610eff90816200036e8239f35b01519350388062000112565b92919084601f1981168860005285600020956000905b89838310620001e55750505010620001ca575b50505050811b01905562000122565b01519060f884600019921b161c1916905538808080620001bb565b858701518955909701969485019488935090810190620001a8565b8760005281600020848088018c1c8201928489106200023f575b018b1c019087905b82811062000232575050620000f5565b6000815501879062000222565b925081926200021a565b602288634e487b7160e01b6000525260246000fd5b90607f1690620000e3565b634e487b7160e01b600052604160045260246000fd5b015190503880620000b4565b90889350601f19831691876000528a6000209260005b8c828210620002db5750508411620002c2575b505050811b018355620000c6565b015160001983881b60f8161c19169055388080620002b4565b8385015186558c97909501949384019301620002a1565b9091508560005288600020858085018d1c8201928b86106200033d575b918d8b928796959401901c01915b8281106200032d5750506200009d565b600081558594508a91016200031d565b925081926200030f565b634e487b7160e01b600052602260045260246000fd5b93607f169362000086565b600080fdfe6080604081815260048036101561001557600080fd5b600092833560e01c90816306fdde031461087957508063095ea7b31461084f57806318160ddd1461083057806323b872dd146107f3578063313ce567146107d757806339509351146107875780633f4ba83a146106f257806340c10f191461062857806342966c681461060a5780635c975abb146105e657806370a08231146105af578063715018a61461054e57806379cc67901461052f5780638456cb59146104d45780638da5cb5b146104a757806395d89b41146103875780639b19251a14610349578063a457c2d7146102a2578063a9059cbb14610278578063c753e1261461023d578063dd62ed3e146101f05763f2fde38b1461011557600080fd5b346101ec5760203660031901126101ec5761012e6109b7565b6101366109e8565b6001600160a01b0381811693909290841561019a57505060058054610100600160a81b03198116600893841b610100600160a81b031617909155901c167f8be0079c531659141344cd1fd0a4f28419497f9722a3daafe3b4186f6b6457e08380a380f35b906020608492519162461bcd60e51b8352820152602660248201527f4f776e61626c653a206e6577206f776e657220697320746865207a65726f206160448201526564647265737360d01b6064820152fd5b8280fd5b5050346102395780600319360112610239578060209261020e6109b7565b6102166109d2565b6001600160a01b0391821683526001865283832091168252845220549051908152f35b5080fd5b50503461023957806003193601126102395760209061027161025d6109b7565b6024359061026c823383610d22565b610dba565b5160018152f35b5050346102395780600319360112610239576020906102716102986109b7565b6024359033610aaa565b5082346103465782600319360112610346576102bc6109b7565b918360243592338152600160205281812060018060a01b03861682526020522054908282106102f5576020856102718585038733610c20565b608490602086519162461bcd60e51b8352820152602560248201527f45524332303a2064656372656173656420616c6c6f77616e63652062656c6f77604482015264207a65726f60d81b6064820152fd5b80fd5b5050346102395760203660031901126102395760209160ff9082906001600160a01b036103746109b7565b1681526006855220541690519015158152f35b50919034610239578160031936011261023957805190828454600181811c9080831692831561049d575b602093848410811461048a5783885290811561046e5750600114610419575b505050829003601f01601f191682019267ffffffffffffffff841183851017610406575082918261040292528261096e565b0390f35b634e487b7160e01b815260418552602490fd5b8787529192508591837f8a35acfbc15ff81a39ae7d344fd709f28e8600b4aa8c65c6b64bfe7fe36bd19b5b83851061045a57505050508301013880806103d0565b805488860183015293019284908201610444565b60ff1916878501525050151560051b84010190503880806103d0565b634e487b7160e01b895260228a52602489fd5b91607f16916103b1565b505034610239578160031936011261023957600554905160089190911c6001600160a01b03168152602090f35b50503461023957816003193601126102395760207f62e78cea01bee320cd4e420270b5ea74000d11b0c9f74754ebdbfc544b05a258916105126109e8565b61051a610a43565b600160ff19600554161760055551338152a180f35b505034610239573660031901126103465761054b61025d6109b7565b80f35b83346103465780600319360112610346576105676109e8565b60058054610100600160a81b03198116909155819060081c6001600160a01b03167f8be0079c531659141344cd1fd0a4f28419497f9722a3daafe3b4186f6b6457e08280a380f35b5050346102395760203660031901126102395760209181906001600160a01b036105d76109b7565b16815280845220549051908152f35b50503461023957816003193601126102395760209060ff6005541690519015158152f35b8382346102395760203660031901126102395761054b903533610dba565b5091346103465781600319360112610346576106426109b7565b6001600160a01b03169060243582156106af5760208095507fddf252ad1be2c89b69c2b068fc378daa952ba7f163c4a11628f55a4df523b3ef91610684610a43565b61069081600254610a87565b6002558484528382528584208181540190558551908152a35160018152f35b835162461bcd60e51b8152602081870152601f60248201527f45524332303a206d696e7420746f20746865207a65726f2061646472657373006044820152606490fd5b50346101ec57826003193601126101ec5761070b6109e8565b6005549060ff82161561074d575060ff1916600555513381527f5db9ee0a495bf2e6ff9c91a7834c1ba4fdd244a5e8aa4e537bd38aeae4b073aa90602090a180f35b606490602084519162461bcd60e51b8352820152601460248201527314185d5cd8589b194e881b9bdd081c185d5cd95960621b6044820152fd5b5050346102395780600319360112610239576102716020926107d06107aa6109b7565b338352600186528483206001600160a01b03821684528652918490205460243590610a87565b9033610c20565b5050346102395781600319360112610239576020905160068152f35b505034610239576060366003190112610239576020906102716108146109b7565b61081c6109d2565b6044359161082b833383610d22565b610aaa565b5050346102395781600319360112610239576020906002549051908152f35b50503461023957806003193601126102395760209061027161086f6109b7565b6024359033610c20565b84915083346101ec57826003193601126101ec5782600354600181811c90808316928315610964575b602093848410811461048a5783885290811561094857506001146108f257505050829003601f01601f191682019267ffffffffffffffff841183851017610406575082918261040292528261096e565b600387529192508591837fc2575a0e9e593c00f959f8c92f12db2869c3395a3b0502d05e2516446f71f85b5b83851061093457505050508301018580806103d0565b80548886018301529301928490820161091e565b60ff1916878501525050151560051b84010190508580806103d0565b91607f16916108a2565b6020808252825181830181905290939260005b8281106109a357505060409293506000838284010152601f8019910116010190565b818101860151848201604001528501610981565b600435906001600160a01b03821682036109cd57565b600080fd5b602435906001600160a01b03821682036109cd57565b60055460081c6001600160a01b031633036109ff57565b606460405162461bcd60e51b815260206004820152602060248201527f4f776e61626c653a2063616c6c6572206973206e6f7420746865206f776e65726044820152fd5b60ff60055416610a4f57565b60405162461bcd60e51b815260206004820152601060248201526f14185d5cd8589b194e881c185d5cd95960821b6044820152606490fd5b91908201809211610a9457565b634e487b7160e01b600052601160045260246000fd5b6001600160a01b03908116918215610bcd5716918215610b7c57610acc610a43565b600082815280602052604081205491808310610b2857604082827fddf252ad1be2c89b69c2b068fc378daa952ba7f163c4a11628f55a4df523b3ef958760209652828652038282205586815220818154019055604051908152a3565b60405162461bcd60e51b815260206004820152602660248201527f45524332303a207472616e7366657220616d6f756e7420657863656564732062604482015265616c616e636560d01b6064820152608490fd5b60405162461bcd60e51b815260206004820152602360248201527f45524332303a207472616e7366657220746f20746865207a65726f206164647260448201526265737360e81b6064820152608490fd5b60405162461bcd60e51b815260206004820152602560248201527f45524332303a207472616e736665722066726f6d20746865207a65726f206164604482015264647265737360d81b6064820152608490fd5b6001600160a01b03908116918215610cd15716918215610c815760207f8c5be1e5ebec7d5bd14f71427d1e84f3dd0314c0f7b2291e5b200ac8c7c3b925918360005260018252604060002085600052825280604060002055604051908152a3565b60405162461bcd60e51b815260206004820152602260248201527f45524332303a20617070726f766520746f20746865207a65726f206164647265604482015261737360f01b6064820152608490fd5b60405162461bcd60e51b8152602060048201526024808201527f45524332303a20617070726f76652066726f6d20746865207a65726f206164646044820152637265737360e01b6064820152608490fd5b9060018060a01b0380831660005260016020526040600020908216600052602052604060002054926000198403610d5a575b50505050565b808410610d7557610d6c930391610c20565b38808080610d54565b60405162461bcd60e51b815260206004820152601d60248201527f45524332303a20696e73756666696369656e7420616c6c6f77616e63650000006044820152606490fd5b6001600160a01b03168015610e7a57610dd1610a43565b600091818352826020526040832054818110610e2a57817fddf252ad1be2c89b69c2b068fc378daa952ba7f163c4a11628f55a4df523b3ef926020928587528684520360408620558060025403600255604051908152a3565b60405162461bcd60e51b815260206004820152602260248201527f45524332303a206275726e20616d6f756e7420657863656564732062616c616e604482015261636560f01b6064820152608490fd5b60405162461bcd60e51b815260206004820152602160248201527f45524332303a206275726e2066726f6d20746865207a65726f206164647265736044820152607360f81b6064820152608490fdfea2646970667358221220e39ac15ec0e401c4865cf4bf922911857808bfe5ce42526af55f83eed0e093d064736f6c63430008120033","linkReferences":{}},"methodIdentifiers":{"allowance(address,address)":"dd62ed3e","approve(address,uint256)":"095ea7b3","balanceOf(address)":"70a08231","burn(uint256)":"42966c68","burnFrom(address,uint256)":"79cc6790","burnFromUser(address,uint256)":"c753e126","decimals()":"313ce567","decreaseAllowance(address,uint256)":"a457c2d7","increaseAllowance(address,uint256)":"39509351","mint(address,uint256)":"40c10f19","name()":"06fdde03","owner()":"8da5cb5b","pause()":"8456cb59","paused()":"5c975abb","renounceOwnership()":"715018a6","symbol()":"95d89b41","totalSupply()":"18160ddd","transfer(address,uint256)":"a9059cbb","transferFrom(address,address,uint256)":"23b872dd","transferOwnership(address)":"f2fde38b","unpause()":"3f4ba83a","whitelist(address)":"9b19251a"},"id":6}