{"abi":[{"type":"function","name":"UPGRADE_INTERFACE_VERSION","inputs":[],"outputs":[{"name":"","type":"string","internalType":"string"}],"stateMutability":"view"},{"type":"function","name":"allowance","inputs":[{"name":"owner","type":"address","internalType":"address"},{"name":"spender","type":"address","internalType":"address"}],"outputs":[{"name":"","type":"uint256","internalType":"uint256"}],"stateMutability":"view"},{"type":"function","name":"approve","inputs":[{"name":"spender","type":"address","internalType":"address"},{"name":"value","type":"uint256","internalType":"uint256"}],"outputs":[{"name":"","type":"bool","internalType":"bool"}],"stateMutability":"nonpayable"},{"type":"function","name":"balanceOf","inputs":[{"name":"account","type":"address","internalType":"address"}],"outputs":[{"name":"","type":"uint256","internalType":"uint256"}],"stateMutability":"view"},{"type":"function","name":"burn","inputs":[{"name":"value","type":"uint256","internalType":"uint256"}],"outputs":[],"stateMutability":"nonpayable"},{"type":"function","name":"burnFrom","inputs":[{"name":"account","type":"address","internalType":"address"},{"name":"value","type":"uint256","internalType":"uint256"}],"outputs":[],"stateMutability":"nonpayable"},{"type":"function","name":"burnFromUser","inputs":[{"name":"to","type":"address","internalType":"address"},{"name":"amount","type":"uint256","internalType":"uint256"}],"outputs":[{"name":"","type":"bool","internalType":"bool"}],"stateMutability":"nonpayable"},{"type":"function","name":"decimals","inputs":[],"outputs":[{"name":"","type":"uint8","internalType":"uint8"}],"stateMutability":"view"},{"type":"function","name":"initialize","inputs":[],"outputs":[],"stateMutability":"nonpayable"},{"type":"function","name":"mint","inputs":[{"name":"to","type":"address","internalType":"address"},{"name":"index","type":"uint64","internalType":"uint64"},{"name":"amount","type":"uint256","internalType":"uint256"}],"outputs":[{"name":"","type":"bool","internalType":"bool"}],"stateMutability":"nonpayable"},{"type":"function","name":"name","inputs":[],"outputs":[{"name":"","type":"string","internalType":"string"}],"stateMutability":"view"},{"type":"function","name":"owner","inputs":[],"outputs":[{"name":"","type":"address","internalType":"address"}],"stateMutability":"view"},{"type":"function","name":"pause","inputs":[],"outputs":[],"stateMutability":"nonpayable"},{"type":"function","name":"paused","inputs":[],"outputs":[{"name":"","type":"bool","internalType":"bool"}],"stateMutability":"view"},{"type":"function","name":"proxiableUUID","inputs":[],"outputs":[{"name":"","type":"bytes32","internalType":"bytes32"}],"stateMutability":"view"},{"type":"function","name":"renounceOwnership","inputs":[],"outputs":[],"stateMutability":"nonpayable"},{"type":"function","name":"setAbondData","inputs":[{"name":"user","type":"address","internalType":"address"},{"name":"index","type":"uint64","internalType":"uint64"},{"name":"ethBacked","type":"uint128","internalType":"uint128"},{"name":"cumulativeRate","type":"uint128","internalType":"uint128"}],"outputs":[],"stateMutability":"nonpayable"},{"type":"function","name":"setBorrowingContract","inputs":[{"name":"_address","type":"address","internalType":"address"}],"outputs":[],"stateMutability":"nonpayable"},{"type":"function","name":"symbol","inputs":[],"outputs":[{"name":"","type":"string","internalType":"string"}],"stateMutability":"view"},{"type":"function","name":"totalSupply","inputs":[],"outputs":[{"name":"","type":"uint256","internalType":"uint256"}],"stateMutability":"view"},{"type":"function","name":"transfer","inputs":[{"name":"to","type":"address","internalType":"address"},{"name":"value","type":"uint256","internalType":"uint256"}],"outputs":[{"name":"","type":"bool","internalType":"bool"}],"stateMutability":"nonpayable"},{"type":"function","name":"transferFrom","inputs":[{"name":"from","type":"address","internalType":"address"},{"name":"to","type":"address","internalType":"address"},{"name":"value","type":"uint256","internalType":"uint256"}],"outputs":[{"name":"","type":"bool","internalType":"bool"}],"stateMutability":"nonpayable"},{"type":"function","name":"transferOwnership","inputs":[{"name":"newOwner","type":"address","internalType":"address"}],"outputs":[],"stateMutability":"nonpayable"},{"type":"function","name":"unpause","inputs":[],"outputs":[],"stateMutability":"nonpayable"},{"type":"function","name":"upgradeToAndCall","inputs":[{"name":"newImplementation","type":"address","internalType":"address"},{"name":"data","type":"bytes","internalType":"bytes"}],"outputs":[],"stateMutability":"payable"},{"type":"function","name":"userStates","inputs":[{"name":"user","type":"address","internalType":"address"}],"outputs":[{"name":"cumulativeRate","type":"uint256","internalType":"uint256"},{"name":"ethBacked","type":"uint128","internalType":"uint128"},{"name":"aBondBalance","type":"uint128","internalType":"uint128"}],"stateMutability":"view"},{"type":"function","name":"userStatesAtDeposits","inputs":[{"name":"user","type":"address","internalType":"address"},{"name":"index","type":"uint64","internalType":"uint64"}],"outputs":[{"name":"cumulativeRate","type":"uint256","internalType":"uint256"},{"name":"ethBacked","type":"uint128","internalType":"uint128"},{"name":"aBondBalance","type":"uint128","internalType":"uint128"}],"stateMutability":"view"},{"type":"event","name":"Approval","inputs":[{"name":"owner","type":"address","indexed":true,"internalType":"address"},{"name":"spender","type":"address","indexed":true,"internalType":"address"},{"name":"value","type":"uint256","indexed":false,"internalType":"uint256"}],"anonymous":false},{"type":"event","name":"Initialized","inputs":[{"name":"version","type":"uint64","indexed":false,"internalType":"uint64"}],"anonymous":false},{"type":"event","name":"OwnershipTransferred","inputs":[{"name":"previousOwner","type":"address","indexed":true,"internalType":"address"},{"name":"newOwner","type":"address","indexed":true,"internalType":"address"}],"anonymous":false},{"type":"event","name":"Paused","inputs":[{"name":"account","type":"address","indexed":false,"internalType":"address"}],"anonymous":false},{"type":"event","name":"Transfer","inputs":[{"name":"from","type":"address","indexed":true,"internalType":"address"},{"name":"to","type":"address","indexed":true,"internalType":"address"},{"name":"value","type":"uint256","indexed":false,"internalType":"uint256"}],"anonymous":false},{"type":"event","name":"Unpaused","inputs":[{"name":"account","type":"address","indexed":false,"internalType":"address"}],"anonymous":false},{"type":"event","name":"Upgraded","inputs":[{"name":"implementation","type":"address","indexed":true,"internalType":"address"}],"anonymous":false},{"type":"error","name":"AddressEmptyCode","inputs":[{"name":"target","type":"address","internalType":"address"}]},{"type":"error","name":"ERC1967InvalidImplementation","inputs":[{"name":"implementation","type":"address","internalType":"address"}]},{"type":"error","name":"ERC1967NonPayable","inputs":[]},{"type":"error","name":"ERC20InsufficientAllowance","inputs":[{"name":"spender","type":"address","internalType":"address"},{"name":"allowance","type":"uint256","internalType":"uint256"},{"name":"needed","type":"uint256","internalType":"uint256"}]},{"type":"error","name":"ERC20InsufficientBalance","inputs":[{"name":"sender","type":"address","internalType":"address"},{"name":"balance","type":"uint256","internalType":"uint256"},{"name":"needed","type":"uint256","internalType":"uint256"}]},{"type":"error","name":"ERC20InvalidApprover","inputs":[{"name":"approver","type":"address","internalType":"address"}]},{"type":"error","name":"ERC20InvalidReceiver","inputs":[{"name":"receiver","type":"address","internalType":"address"}]},{"type":"error","name":"ERC20InvalidSender","inputs":[{"name":"sender","type":"address","internalType":"address"}]},{"type":"error","name":"ERC20InvalidSpender","inputs":[{"name":"spender","type":"address","internalType":"address"}]},{"type":"error","name":"EnforcedPause","inputs":[]},{"type":"error","name":"ExpectedPause","inputs":[]},{"type":"error","name":"FailedInnerCall","inputs":[]},{"type":"error","name":"InsufficientBalance","inputs":[]},{"type":"error","name":"InvalidInitialization","inputs":[]},{"type":"error","name":"NotInitializing","inputs":[]},{"type":"error","name":"OwnableInvalidOwner","inputs":[{"name":"owner","type":"address","internalType":"address"}]},{"type":"error","name":"OwnableUnauthorizedAccount","inputs":[{"name":"account","type":"address","internalType":"address"}]},{"type":"error","name":"UUPSUnauthorizedCallContext","inputs":[]},{"type":"error","name":"UUPSUnsupportedProxiableUUID","inputs":[{"name":"slot","type":"bytes32","internalType":"bytes32"}]}],"bytecode":{"object":"0x60a0806040523461002a5730608052611e8690816100308239608051818181610ee20152610fae0152f35b600080fdfe60806040908082526004918236101561001757600080fd5b600092833560e01c92836306fdde031461149c57508263095ea7b3146113f25782630ecc535f1461139157826318160ddd1461136557826323b872dd14611239578263313ce5671461121d5782633f4ba83a146111a457826342966c68146111715782634f1ef28614610f3457826352d1902d14610ecd5782635c975abb14610e9c57826370a0823114610e57578263715018a614610ded57826378fdaf3f14610d4b57826379cc679014610d165782637fe7adfc14610b4d5782638129fc1c146107245782638456cb59146106bc5782638da5cb5b1461068657826391e74c361461060957826395d89b411461052c5782639992f4b71461044e578263a9059cbb146102d757508163ad3cb1cc14610296578163c753e126146101ca578163dd62ed3e1461017f575063f2fde38b1461015057600080fd5b3461017c57602036600319011261017c5761017961016c6115b5565b6101746119e1565b61196d565b80f35b80fd5b9050346101c657806003193601126101c6578060209261019d6115b5565b6101ae6101a86115d0565b916115e6565b6001600160a01b039091168252845220549051908152f35b5080fd5b9050346101c657806003193601126101c65761028f6020926101ea6115b5565b61027f6024359260018060a01b0390610208826001541633146116bd565b600182851680835260028a52888084209361024e848351966102298861161f565b80548852015495858060801b03968781168f83015260801c84820152868b16906118c8565b92815260028c522092815184558a820151169089838060801b031991015160801b16179101556001541633146116bd565b61028a823383611b79565b611c4f565b5160018152f35b9050346101c657816003193601126101c65780516102d3916102b782611650565b60058252640352e302e360dc1b6020830152519182918261156c565b0390f35b91503461044a578060031936011261044a576102f16115b5565b6024359033151580610438575b61030790611725565b3385526020936002855283862060018551916103228361161f565b8054835201549060018060801b0392838316888301528682019260801c835260018060a01b03851690818a52600289528685898c209560018b51976103668961161f565b8054895201548281168d89015260801c8b8801525116106103f557509580806103d16001958b9c95839c8861028f9d6103a38c8f168096866117f8565b908a52600283528b878b2093825185558201511690828060801b0319998a91015160801b16179101556118c8565b9333815260028c522094835186558a8401511692015160801b161791015533611a95565b875162461bcd60e51b8152908101899052601a60248201527f496e73756666696369656e742061426f6e642062616c616e63650000000000006044820152606490fd5b506001600160a01b03811615156102fe565b8280fd5b8382346101c65760803660031901126101c6576104696115b5565b6104716116a7565b916001600160801b0360443581811692908390036105285760643590828216809203610524576001805490956001600160a01b03916104b390831633146116bd565b169586885260036020526001600160401b0382892091169081895260205281882096868351986104e28a61161f565b0154956020890194848a019760801c88528952845288526003602052818820908852602052862094518555511690828060801b0319905160801b161791015580f35b8680fd5b8580fd5b8382346101c657816003193601126101c657805190827f52c63247e1f47db19d5ce0460030c497f067ca4cebf71ba98eeadabe20bace04805461056e81611a5b565b808652916001918083169081156105de57506001146105a3575b6102d38686610599828b038361166b565b519182918261156c565b835260208084209096505b8284106105cb57505050826102d394610599928201019486610588565b80548685018801529286019281016105ae565b90506102d397506105999450602092508693915060ff191682840152151560051b8201019486610588565b8382346101c657806003193601126101c65780916106256115b5565b61062d6116a7565b6001600160a01b03919091168252600360209081528383206001600160401b039092168352908152919020805460019091015492519081526001600160801b0383169181019190915260809190911c6040820152606090f35b8382346101c657816003193601126101c657600080516020611db18339815191525490516001600160a01b039091168152602090f35b8382346101c657816003193601126101c65760207f62e78cea01bee320cd4e420270b5ea74000d11b0c9f74754ebdbfc544b05a258916106fa6119e1565b610702611d02565b600080516020611e31833981519152805460ff1916600117905551338152a180f35b9091503461044a578260031936011261044a577ff0c57e16840df040f15088dc2f81fe391c3923bec73e23a9662efc9c229c6a009182549060ff82821c16156001600160401b039384841693841580610b46575b60018096149081610b3c575b159081610b33575b50610b245767ffffffffffffffff1981168517875582610b05575b5082516107b381611650565b600b81526020956a20a127a722102a37b5b2b760a91b878301528451916107d983611650565b6005835264105093d39160da1b888401526107f2611a1a565b6107fa611a1a565b8051828111610af257807f52c63247e1f47db19d5ce0460030c497f067ca4cebf71ba98eeadabe20bace03926108308454611a5b565b601f8111610a9f575b508a908d601f8411600114610a3e5792610a33575b5050600019600383901b1c191690881b1790555b8151908111610a2057807f52c63247e1f47db19d5ce0460030c497f067ca4cebf71ba98eeadabe20bace04926108988454611a5b565b601f81116109d0575b508890601f8311600114610971578b92610966575b5050600019600383901b1c191690861b1790555b6108d2611a1a565b6108da611a1a565b6108e2611a1a565b600080516020611e31833981519152805460ff191690556109023361196d565b61090a611a1a565b80546001600160801b031916670de0b6b3a764000017905561092a578480f35b835460ff60401b191690935591519182527fc7f505b2f371ae2175ee4913f4499e1f2633a7b5936321eed1cdaeb6115181d291a1388080808480f35b0151905038806108b6565b848c52898c208994509190601f1984168d5b8c8282106109ba57505084116109a1575b505050811b0190556108ca565b015160001960f88460031b161c19169055388080610994565b8385015186558c97909501949384019301610983565b909150838b52888b20601f840160051c8101918a8510610a16575b84939291601f8b920160051c01915b828110610a085750506108a1565b8d81558594508a91016109fa565b90915081906109eb565b634e487b7160e01b895260418352602489fd5b01519050388061084e565b8581528c81208c9550929190601f198516908e5b828210610a885750508411610a6f575b505050811b019055610862565b015160001960f88460031b161c19169055388080610a62565b8385015186558e979095019493840193018e610a52565b909150838d528a8d20601f840160051c8101918c8510610ae8575b8e85949392601f8e930160051c0192905b838210610ada57505050610839565b81558594508c91018f610acb565b9091508190610aba565b634e487b7160e01b8b526041855260248bfd5b68ffffffffffffffffff191668010000000000000001178655386107a7565b50825163f92ee8a960e01b8152fd5b9050153861078c565b303b159150610784565b5082610778565b91503461044a57606036600319011261044a57610b686115b5565b91610b716116a7565b93604435600160a01b60019003600195818754163314610b90906116bd565b16928315610b9e8115611725565b84845281878660209a60038c52898820906001600160401b0316908189528c528b83888c8b8181209484835196610bd48861161f565b8054885201549681870193600160801b600190039b8c96878b168752828a019a60801c8b528b8652600285528780848820938b865195610c138761161f565b8054875201548281168987015260801c8686015281808b5116915416610c3891611760565b92169182610c4591611792565b168752610c52918a6117f8565b9984526003835283209252528d8c20935184555116600160801b600190031980945160801b161791015588885260028c528980892094835186558d8401511692015160801b1617910155610cff575085600080516020611e1183398151915291610cba611d02565b600080516020611dd1833981519152610cd4828254611960565b9055848452600080516020611d9183398151915282528584208181540190558551908152a351908152f35b845163ec442f0560e01b8152908101839052602490fd5b8382346101c65736600319011261017c57610179610d326115b5565b6024359061027f60018060a01b036001541633146116bd565b9091503461044a57602036600319011261044a57610d676115b5565b91610d706119e1565b6001600160a01b038316928315159081610de2575b5015610da4575050600180546001600160a01b03191691909117905580f35b906020606492519162461bcd60e51b83528201526018602482015277125b9c1d5d081859191c995cdcc81a5cc81a5b9d985b1a5960421b6044820152fd5b90503b151538610d85565b833461017c578060031936011261017c57610e066119e1565b600080516020611db183398151915280546001600160a01b0319811690915581906001600160a01b03167f8be0079c531659141344cd1fd0a4f28419497f9722a3daafe3b4186f6b6457e08280a380f35b8382346101c65760203660031901126101c65760209181906001600160a01b03610e7f6115b5565b168152600080516020611d91833981519152845220549051908152f35b8382346101c657816003193601126101c65760209060ff600080516020611e31833981519152541690519015158152f35b90833461017c578060031936011261017c57507f00000000000000000000000000000000000000000000000000000000000000006001600160a01b03163003610f275760209051600080516020611df18339815191528152f35b5163703e46dd60e11b8152fd5b91508060031936011261044a57610f496115b5565b9060249384356001600160401b0381116101c657366023820112156101c65780850135610f758161168c565b94610f828551968761166b565b81865260209182870193368a8383010111610528578186928b8693018737880101526001600160a01b037f00000000000000000000000000000000000000000000000000000000000000008116308114908115611155575b5061114557610fe76119e1565b81169585516352d1902d60e01b815283818a818b5afa869181611116575b50611021575050505050505191634c9c8ce360e01b8352820152fd5b9088888894938c600080516020611df1833981519152918281036111015750853b156110ed575080546001600160a01b031916821790558451889392917fbc7cd75a20ee27fd9adebab32041f755214dbc6bffa90cc0225b39da2e5c2d3b8580a28251156110cf5750506110c19582915190845af4913d156110c5573d6110b36110aa8261168c565b9251928361166b565b81528581943d92013e611d2d565b5080f35b5060609250611d2d565b9550955050505050346110e157505080f35b63b398979f60e01b8152fd5b8651634c9c8ce360e01b8152808501849052fd5b8751632a87526960e21b815280860191909152fd5b9091508481813d831161113e575b61112e818361166b565b8101031261052457519038611005565b503d611124565b855163703e46dd60e11b81528890fd5b905081600080516020611df18339815191525416141538610fda565b8390346101c65760203660031901126101c6576101799061119d60018060a01b036001541633146116bd565b3533611c4f565b9091503461044a578260031936011261044a576111bf6119e1565b600080516020611e318339815191529081549060ff82161561120f575060ff19169055513381527f5db9ee0a495bf2e6ff9c91a7834c1ba4fdd244a5e8aa4e537bd38aeae4b073aa90602090a180f35b8351638dfc202b60e01b8152fd5b8382346101c657816003193601126101c6576020905160128152f35b8382346101c65760603660031901126101c65761028f81926112596115b5565b6112616115d0565b90600180604435948785838060a01b03928387168015158061135a575b61128790611725565b815260209b8c91600283526002828220936113348d85519b8c976112aa8961161f565b805489520154998a9887858a01998e8060801b03809c168b52019b60801c8c52168086528484526113048d8a898920948f8b51966112e78861161f565b8054885201548281168988015260801c8b870152169384916117f8565b9086528484528b87872091805183558a868201511690828060801b03199c8d91015160801b16179101558b6118c8565b503383525220955186555116915160801b1617910155611355833383611b79565b611a95565b50828516151561127e565b8382346101c657816003193601126101c657602090600080516020611dd1833981519152549051908152f35b8382346101c65760203660031901126101c6579081906001600160a01b036113b76115b5565b16815260026020908152919020805460019091015492519081526001600160801b0383169181019190915260809190911c6040820152606090f35b9091503461044a578160031936011261044a5761140d6115b5565b602435903315611485576001600160a01b031691821561146e57508083602095611436336115e6565b8582528752205582519081527f8c5be1e5ebec7d5bd14f71427d1e84f3dd0314c0f7b2291e5b200ac8c7c3b925843392a35160018152f35b8351634a1406b160e11b8152908101859052602490fd5b835163e602df0560e01b8152808401869052602490fd5b9250503461044a578260031936011261044a57827f52c63247e1f47db19d5ce0460030c497f067ca4cebf71ba98eeadabe20bace0380546114dc81611a5b565b808652916001918083169081156115415750600114611506576102d38686610599828b038361166b565b835260208084209096505b82841061152e57505050826102d394610599928201019438610588565b8054868501880152928601928101611511565b90506102d397506105999450602092508693915060ff191682840152151560051b8201019438610588565b6020808252825181830181905290939260005b8281106115a157505060409293506000838284010152601f8019910116010190565b81810186015184820160400152850161157f565b600435906001600160a01b03821682036115cb57565b600080fd5b602435906001600160a01b03821682036115cb57565b6001600160a01b031660009081527f52c63247e1f47db19d5ce0460030c497f067ca4cebf71ba98eeadabe20bace016020526040902090565b606081019081106001600160401b0382111761163a57604052565b634e487b7160e01b600052604160045260246000fd5b604081019081106001600160401b0382111761163a57604052565b90601f801991011681019081106001600160401b0382111761163a57604052565b6001600160401b03811161163a57601f01601f191660200190565b602435906001600160401b03821682036115cb57565b156116c457565b60405162461bcd60e51b815260206004820152603360248201527f546869732066756e6374696f6e2063616e206f6e6c792063616c6c656420627960448201527208189bdc9c9bddda5b99c818dbdb9d1c9858dd606a1b6064820152608490fd5b1561172c57565b60405162461bcd60e51b815260206004820152600c60248201526b24b73b30b634b2102ab9b2b960a11b6044820152606490fd5b6001600160801b03918216908216029081169190820361177c57565b634e487b7160e01b600052601160045260246000fd5b6001600160801b03918216919082156117aa57160490565b634e487b7160e01b600052601260045260246000fd5b604051906117cd8261161f565b60006040838281528260208201520152565b6001600160801b03918216908216019190821161177c57565b90916118026117c0565b506040830180518351855192946001600160801b039492851693909183861680156118b657869261184361183c611850946118499461194d565b918861194d565b90611960565b94846117df565b1680156117aa576118b093048652836118a481602081895116940151169261189e61189760208b019561189161188a87895116928a611760565b9185611760565b906117df565b91866117df565b90611792565b169052828451166117df565b16905290565b604051631e9acf1760e31b8152600490fd5b906118d16117c0565b5060408201805190916001600160801b0391908216908216818110611912570381811161177c5716809152156119045790565b600081526000602082015290565b60405162461bcd60e51b8152602060048201526013602482015272496e73756666696369656e7442616c616e636560681b6044820152606490fd5b8181029291811591840414171561177c57565b9190820180921161177c57565b6001600160a01b039081169081156119c857600080516020611db183398151915280546001600160a01b031981168417909155167f8be0079c531659141344cd1fd0a4f28419497f9722a3daafe3b4186f6b6457e0600080a3565b604051631e4fbdf760e01b815260006004820152602490fd5b600080516020611db1833981519152546001600160a01b03163303611a0257565b60405163118cdaa760e01b8152336004820152602490fd5b60ff7ff0c57e16840df040f15088dc2f81fe391c3923bec73e23a9662efc9c229c6a005460401c1615611a4957565b604051631afcd79f60e31b8152600490fd5b90600182811c92168015611a8b575b6020831014611a7557565b634e487b7160e01b600052602260045260246000fd5b91607f1691611a6a565b916001600160a01b03808416928315611b605716928315611b4757611ab8611d02565b600090838252600080516020611d9183398151915280602052604083205491848310611b1457508284600080516020611e11833981519152959360409388602097528652038282205586815220818154019055604051908152a3565b60405163391434e360e21b81526001600160a01b0391909116600482015260248101929092525060448101839052606490fd5b60405163ec442f0560e01b815260006004820152602490fd5b604051634b637e8f60e11b815260006004820152602490fd5b9190611b84836115e6565b9260018060a01b0390818316916000958387526020526040862054936000198503611bb3575b50505050505050565b858510611c1e5750811615611c05578115611bec5790611bd660409493926115e6565b9085526020520391205538808080808080611baa565b604051634a1406b160e11b815260048101869052602490fd5b60405163e602df0560e01b815260048101869052602490fd5b604051637dc7a0d960e11b81526001600160a01b039190911660048201526024810185905260448101869052606490fd5b91906001600160a01b038316908115611b6057611c6a611d02565b81600052600080516020611d918339815191528060205260406000205494828610611cd1575081600080516020611e1183398151915292600095966020938688528452036040862055600080516020611dd1833981519152818154039055604051908152a3565b60405163391434e360e21b81526001600160a01b039190911660048201526024810186905260448101839052606490fd5b60ff600080516020611e318339815191525416611d1b57565b60405163d93c066560e01b8152600490fd5b90611d545750805115611d4257805190602001fd5b604051630a12f52160e11b8152600490fd5b81511580611d87575b611d65575090565b604051639996b31560e01b81526001600160a01b039091166004820152602490fd5b50803b15611d5d56fe52c63247e1f47db19d5ce0460030c497f067ca4cebf71ba98eeadabe20bace009016d09d72d40fdae2fd8ceac6b6234c7706214fd39c1cd1e609a0528c19930052c63247e1f47db19d5ce0460030c497f067ca4cebf71ba98eeadabe20bace02360894a13ba1a3210667c828492db98dca3e2076cc3735a920a3ca505d382bbcddf252ad1be2c89b69c2b068fc378daa952ba7f163c4a11628f55a4df523b3efcd5ed15c6e187e77e9aee88184c21f4f2182ab5827cb3b7e07fbedcd63f03300a2646970667358221220e34ea91dff2cb3f290be00510a92bbeb6c7023155514b8147f187c25bc5d1e0364736f6c63430008140033","linkReferences":{}},"methodIdentifiers":{"UPGRADE_INTERFACE_VERSION()":"ad3cb1cc","allowance(address,address)":"dd62ed3e","approve(address,uint256)":"095ea7b3","balanceOf(address)":"70a08231","burn(uint256)":"42966c68","burnFrom(address,uint256)":"79cc6790","burnFromUser(address,uint256)":"c753e126","decimals()":"313ce567","initialize()":"8129fc1c","mint(address,uint64,uint256)":"7fe7adfc","name()":"06fdde03","owner()":"8da5cb5b","pause()":"8456cb59","paused()":"5c975abb","proxiableUUID()":"52d1902d","renounceOwnership()":"715018a6","setAbondData(address,uint64,uint128,uint128)":"9992f4b7","setBorrowingContract(address)":"78fdaf3f","symbol()":"95d89b41","totalSupply()":"18160ddd","transfer(address,uint256)":"a9059cbb","transferFrom(address,address,uint256)":"23b872dd","transferOwnership(address)":"f2fde38b","unpause()":"3f4ba83a","upgradeToAndCall(address,bytes)":"4f1ef286","userStates(address)":"0ecc535f","userStatesAtDeposits(address,uint64)":"91e74c36"},"storageLayout":{"storage":[{"astId":899,"contract":"contracts/Token/Abond_Token.sol:ABONDTokenV2","label":"whitelist","offset":0,"slot":"0","type":"t_mapping(t_address,t_bool)"},{"astId":901,"contract":"contracts/Token/Abond_Token.sol:ABONDTokenV2","label":"borrowingContract","offset":0,"slot":"1","type":"t_address"},{"astId":31,"contract":"contracts/Token/Abond_Token.sol:ABONDTokenV2","label":"userStates","offset":0,"slot":"2","type":"t_mapping(t_address,t_struct(State)573_storage)"},{"astId":38,"contract":"contracts/Token/Abond_Token.sol:ABONDTokenV2","label":"userStatesAtDeposits","offset":0,"slot":"3","type":"t_mapping(t_address,t_mapping(t_uint64,t_struct(State)573_storage))"},{"astId":40,"contract":"contracts/Token/Abond_Token.sol:ABONDTokenV2","label":"PRECISION","offset":0,"slot":"4","type":"t_uint128"}],"types":{"t_address":{"encoding":"inplace","label":"address","numberOfBytes":"20"},"t_bool":{"encoding":"inplace","label":"bool","numberOfBytes":"1"},"t_mapping(t_address,t_bool)":{"encoding":"mapping","key":"t_address","label":"mapping(address => bool)","numberOfBytes":"32","value":"t_bool"},"t_mapping(t_address,t_mapping(t_uint64,t_struct(State)573_storage))":{"encoding":"mapping","key":"t_address","label":"mapping(address => mapping(uint64 => struct State))","numberOfBytes":"32","value":"t_mapping(t_uint64,t_struct(State)573_storage)"},"t_mapping(t_address,t_struct(State)573_storage)":{"encoding":"mapping","key":"t_address","label":"mapping(address => struct State)","numberOfBytes":"32","value":"t_struct(State)573_storage"},"t_mapping(t_uint64,t_struct(State)573_storage)":{"encoding":"mapping","key":"t_uint64","label":"mapping(uint64 => struct State)","numberOfBytes":"32","value":"t_struct(State)573_storage"},"t_struct(State)573_storage":{"encoding":"inplace","label":"struct State","numberOfBytes":"64","members":[{"astId":568,"contract":"contracts/Token/Abond_Token.sol:ABONDTokenV2","label":"cumulativeRate","offset":0,"slot":"0","type":"t_uint256"},{"astId":570,"contract":"contracts/Token/Abond_Token.sol:ABONDTokenV2","label":"ethBacked","offset":0,"slot":"1","type":"t_uint128"},{"astId":572,"contract":"contracts/Token/Abond_Token.sol:ABONDTokenV2","label":"aBondBalance","offset":16,"slot":"1","type":"t_uint128"}]},"t_uint128":{"encoding":"inplace","label":"uint128","numberOfBytes":"16"},"t_uint256":{"encoding":"inplace","label":"uint256","numberOfBytes":"32"},"t_uint64":{"encoding":"inplace","label":"uint64","numberOfBytes":"8"}}},"id":0}