{"abi":[{"type":"function","name":"approvedToUpdate","inputs":[{"name":"","type":"uint8","internalType":"enum MultiSignV1.SetterFunctions"},{"name":"owner","type":"address","internalType":"address"}],"outputs":[{"name":"approved","type":"bool","internalType":"bool"}],"stateMutability":"view"},{"type":"function","name":"functionState","inputs":[{"name":"","type":"uint8","internalType":"enum MultiSignV1.Functions"}],"outputs":[{"name":"paused","type":"bool","internalType":"bool"}],"stateMutability":"view"},{"type":"function","name":"isOwner","inputs":[{"name":"","type":"address","internalType":"address"}],"outputs":[{"name":"","type":"bool","internalType":"bool"}],"stateMutability":"view"}],"bytecode":{"object":"0x608080604052346100165761014e908161001c8239f35b600080fdfe60806040818152600436101561001457600080fd5b600091823560e01c9081632f54bf6e146100da575080638a1276391461008157639b4a95441461004357600080fd5b3461007d57602036600319011261007d57600435600781101561007957818360ff92602095526007855220541690519015158152f35b8280fd5b5080fd5b503461007d578060031936011261007d57600435600a811015610079576024356001600160a01b03811691908290036100d6578360ff9284926020965260048652828220908252855220541690519015158152f35b8380fd5b91905034610079576020366003190112610079576004356001600160a01b038116908190036100d65783526002602090815292205460ff1615158152f3fea264697066735822122075039de470e85849642cf55d7b025e259d00366578527583a4a2dee5298a04be64736f6c63430008140033","linkReferences":{}},"methodIdentifiers":{"approvedToUpdate(uint8,address)":"8a127639","functionState(uint8)":"9b4a9544","isOwner(address)":"2f54bf6e"},"storageLayout":{"storage":[{"astId":4,"contract":"contracts/v1Contracts/multiSignV1.sol:MultiSignV1","label":"owners","offset":0,"slot":"0","type":"t_array(t_address)dyn_storage"},{"astId":6,"contract":"contracts/v1Contracts/multiSignV1.sol:MultiSignV1","label":"maxOwners","offset":0,"slot":"1","type":"t_uint8"},{"astId":8,"contract":"contracts/v1Contracts/multiSignV1.sol:MultiSignV1","label":"noOfOwners","offset":1,"slot":"1","type":"t_uint8"},{"astId":12,"contract":"contracts/v1Contracts/multiSignV1.sol:MultiSignV1","label":"isOwner","offset":0,"slot":"2","type":"t_mapping(t_address,t_bool)"},{"astId":14,"contract":"contracts/v1Contracts/multiSignV1.sol:MultiSignV1","label":"requiredApprovals","offset":0,"slot":"3","type":"t_uint64"},{"astId":40,"contract":"contracts/v1Contracts/multiSignV1.sol:MultiSignV1","label":"approvedToUpdate","offset":0,"slot":"4","type":"t_mapping(t_enum(SetterFunctions)25,t_mapping(t_address,t_bool))"},{"astId":47,"contract":"contracts/v1Contracts/multiSignV1.sol:MultiSignV1","label":"pauseApproved","offset":0,"slot":"5","type":"t_mapping(t_enum(Functions)33,t_mapping(t_address,t_bool))"},{"astId":54,"contract":"contracts/v1Contracts/multiSignV1.sol:MultiSignV1","label":"unpauseApproved","offset":0,"slot":"6","type":"t_mapping(t_enum(Functions)33,t_mapping(t_address,t_bool))"},{"astId":59,"contract":"contracts/v1Contracts/multiSignV1.sol:MultiSignV1","label":"functionState","offset":0,"slot":"7","type":"t_mapping(t_enum(Functions)33,t_bool)"}],"types":{"t_address":{"encoding":"inplace","label":"address","numberOfBytes":"20"},"t_array(t_address)dyn_storage":{"encoding":"dynamic_array","label":"address[]","numberOfBytes":"32","base":"t_address"},"t_bool":{"encoding":"inplace","label":"bool","numberOfBytes":"1"},"t_enum(Functions)33":{"encoding":"inplace","label":"enum MultiSignV1.Functions","numberOfBytes":"1"},"t_enum(SetterFunctions)25":{"encoding":"inplace","label":"enum MultiSignV1.SetterFunctions","numberOfBytes":"1"},"t_mapping(t_address,t_bool)":{"encoding":"mapping","key":"t_address","label":"mapping(address => bool)","numberOfBytes":"32","value":"t_bool"},"t_mapping(t_enum(Functions)33,t_bool)":{"encoding":"mapping","key":"t_enum(Functions)33","label":"mapping(enum MultiSignV1.Functions => bool)","numberOfBytes":"32","value":"t_bool"},"t_mapping(t_enum(Functions)33,t_mapping(t_address,t_bool))":{"encoding":"mapping","key":"t_enum(Functions)33","label":"mapping(enum MultiSignV1.Functions => mapping(address => bool))","numberOfBytes":"32","value":"t_mapping(t_address,t_bool)"},"t_mapping(t_enum(SetterFunctions)25,t_mapping(t_address,t_bool))":{"encoding":"mapping","key":"t_enum(SetterFunctions)25","label":"mapping(enum MultiSignV1.SetterFunctions => mapping(address => bool))","numberOfBytes":"32","value":"t_mapping(t_address,t_bool)"},"t_uint64":{"encoding":"inplace","label":"uint64","numberOfBytes":"8"},"t_uint8":{"encoding":"inplace","label":"uint8","numberOfBytes":"1"}}},"id":0}