{"abi":[{"type":"function","name":"abondUSDaPool","inputs":[],"outputs":[{"name":"","type":"uint256","internalType":"uint256"}],"stateMutability":"view"},{"type":"function","name":"borrowing","inputs":[{"name":"depositor","type":"address","internalType":"address"}],"outputs":[{"name":"depositedAmount","type":"uint256","internalType":"uint256"},{"name":"totalBorrowedAmount","type":"uint256","internalType":"uint256"},{"name":"hasBorrowed","type":"bool","internalType":"bool"},{"name":"hasDeposited","type":"bool","internalType":"bool"},{"name":"borrowerIndex","type":"uint64","internalType":"uint64"}],"stateMutability":"view"},{"type":"function","name":"noOfBorrowers","inputs":[],"outputs":[{"name":"","type":"uint128","internalType":"uint128"}],"stateMutability":"view"},{"type":"function","name":"totalVolumeOfBorrowersAmountinUSD","inputs":[],"outputs":[{"name":"","type":"uint256","internalType":"uint256"}],"stateMutability":"view"},{"type":"function","name":"totalVolumeOfBorrowersAmountinWei","inputs":[],"outputs":[{"name":"","type":"uint256","internalType":"uint256"}],"stateMutability":"view"},{"type":"event","name":"Deposit","inputs":[{"name":"user","type":"address","indexed":true,"internalType":"address"},{"name":"amount","type":"uint256","indexed":false,"internalType":"uint256"}],"anonymous":false},{"type":"event","name":"DepositToAave","inputs":[{"name":"count","type":"uint64","indexed":false,"internalType":"uint64"},{"name":"amount","type":"uint256","indexed":false,"internalType":"uint256"}],"anonymous":false},{"type":"event","name":"DepositToCompound","inputs":[{"name":"count","type":"uint64","indexed":false,"internalType":"uint64"},{"name":"amount","type":"uint256","indexed":false,"internalType":"uint256"}],"anonymous":false},{"type":"event","name":"Withdraw","inputs":[{"name":"user","type":"address","indexed":true,"internalType":"address"},{"name":"amount","type":"uint256","indexed":false,"internalType":"uint256"}],"anonymous":false},{"type":"event","name":"WithdrawFromAave","inputs":[{"name":"count","type":"uint64","indexed":false,"internalType":"uint64"},{"name":"amount","type":"uint256","indexed":false,"internalType":"uint256"}],"anonymous":false},{"type":"event","name":"WithdrawFromCompound","inputs":[{"name":"count","type":"uint64","indexed":false,"internalType":"uint64"},{"name":"amount","type":"uint256","indexed":false,"internalType":"uint256"}],"anonymous":false},{"type":"error","name":"Treasury_AaveDepositAndMintFailed","inputs":[]},{"type":"error","name":"Treasury_AavePoolAddressZero","inputs":[]},{"type":"error","name":"Treasury_AaveWithdrawFailed","inputs":[]},{"type":"error","name":"Treasury_CompoundDepositAndMintFailed","inputs":[]},{"type":"error","name":"Treasury_CompoundWithdrawFailed","inputs":[]},{"type":"error","name":"Treasury_EthTransferToCdsLiquidatorFailed","inputs":[]},{"type":"error","name":"Treasury_WithdrawExternalProtocolInterestFailed","inputs":[]},{"type":"error","name":"Treasury_ZeroDeposit","inputs":[]},{"type":"error","name":"Treasury_ZeroWithdraw","inputs":[]}],"bytecode":{"object":"0x608080604052346100165761018d908161001c8239f35b600080fdfe60806040818152600436101561001457600080fd5b600091823560e01c90816345aeb0ce1461013257508063541b60941461011457806358a0e6cc146100f65780639a52aed9146100d85763f750e3ab1461005957600080fd5b346100d45760203660031901126100d4576004356001600160a01b038116908190036100d057818367ffffffffffffffff9260a09552600b6020522080549260036002830154920154918151948552602085015260ff821615159084015260ff8160081c161515606084015260101c166080820152f35b8280fd5b5080fd5b50346100d457816003193601126100d457602090600d549051908152f35b50346100d457816003193601126100d4576020906012549051908152f35b50346100d457816003193601126100d457602090600e549051908152f35b8390346100d457816003193601126100d457600f546001600160801b03168152602090f3fea2646970667358221220224df0759bedc699e1b080d162d7e925aecffcbb782a6265430ac28914356bdc64736f6c63430008140033","linkReferences":{}},"methodIdentifiers":{"abondUSDaPool()":"58a0e6cc","borrowing(address)":"f750e3ab","noOfBorrowers()":"45aeb0ce","totalVolumeOfBorrowersAmountinUSD()":"541b6094","totalVolumeOfBorrowersAmountinWei()":"9a52aed9"},"storageLayout":{"storage":[{"astId":4465,"contract":"contracts/v1Contracts/TreasuryV1.sol:TreasuryV1","label":"borrow","offset":0,"slot":"0","type":"t_contract(IBorrowing)3445"},{"astId":4468,"contract":"contracts/v1Contracts/TreasuryV1.sol:TreasuryV1","label":"usda","offset":0,"slot":"1","type":"t_contract(IUSDa)4037"},{"astId":4471,"contract":"contracts/v1Contracts/TreasuryV1.sol:TreasuryV1","label":"wethGateway","offset":0,"slot":"2","type":"t_contract(IWrappedTokenGatewayV3)2809"},{"astId":4474,"contract":"contracts/v1Contracts/TreasuryV1.sol:TreasuryV1","label":"aavePoolAddressProvider","offset":0,"slot":"3","type":"t_contract(IPoolAddressesProvider)2749"},{"astId":4477,"contract":"contracts/v1Contracts/TreasuryV1.sol:TreasuryV1","label":"usdt","offset":0,"slot":"4","type":"t_contract(IERC20)8679"},{"astId":4480,"contract":"contracts/v1Contracts/TreasuryV1.sol:TreasuryV1","label":"aToken","offset":0,"slot":"5","type":"t_contract(IERC20)8679"},{"astId":4483,"contract":"contracts/v1Contracts/TreasuryV1.sol:TreasuryV1","label":"comet","offset":0,"slot":"6","type":"t_contract(CometMainInterface)3203"},{"astId":4485,"contract":"contracts/v1Contracts/TreasuryV1.sol:TreasuryV1","label":"borrowingContract","offset":0,"slot":"7","type":"t_address"},{"astId":4487,"contract":"contracts/v1Contracts/TreasuryV1.sol:TreasuryV1","label":"cdsContract","offset":0,"slot":"8","type":"t_address"},{"astId":4489,"contract":"contracts/v1Contracts/TreasuryV1.sol:TreasuryV1","label":"compoundAddress","offset":0,"slot":"9","type":"t_address"},{"astId":4491,"contract":"contracts/v1Contracts/TreasuryV1.sol:TreasuryV1","label":"aaveWETH","offset":0,"slot":"10","type":"t_address"},{"astId":4496,"contract":"contracts/v1Contracts/TreasuryV1.sol:TreasuryV1","label":"borrowing","offset":0,"slot":"11","type":"t_mapping(t_address,t_struct(BorrowerDetails)4374_storage)"},{"astId":4502,"contract":"contracts/v1Contracts/TreasuryV1.sol:TreasuryV1","label":"protocolDeposit","offset":0,"slot":"12","type":"t_mapping(t_enum(Protocol)4456,t_struct(ProtocolDeposit)4413_storage)"},{"astId":4504,"contract":"contracts/v1Contracts/TreasuryV1.sol:TreasuryV1","label":"totalVolumeOfBorrowersAmountinWei","offset":0,"slot":"13","type":"t_uint256"},{"astId":4506,"contract":"contracts/v1Contracts/TreasuryV1.sol:TreasuryV1","label":"totalVolumeOfBorrowersAmountinUSD","offset":0,"slot":"14","type":"t_uint256"},{"astId":4508,"contract":"contracts/v1Contracts/TreasuryV1.sol:TreasuryV1","label":"noOfBorrowers","offset":0,"slot":"15","type":"t_uint128"},{"astId":4510,"contract":"contracts/v1Contracts/TreasuryV1.sol:TreasuryV1","label":"totalInterest","offset":0,"slot":"16","type":"t_uint256"},{"astId":4512,"contract":"contracts/v1Contracts/TreasuryV1.sol:TreasuryV1","label":"totalInterestFromLiquidation","offset":0,"slot":"17","type":"t_uint256"},{"astId":4514,"contract":"contracts/v1Contracts/TreasuryV1.sol:TreasuryV1","label":"abondUSDaPool","offset":0,"slot":"18","type":"t_uint256"},{"astId":4516,"contract":"contracts/v1Contracts/TreasuryV1.sol:TreasuryV1","label":"ethProfitsOfLiquidators","offset":0,"slot":"19","type":"t_uint256"},{"astId":4518,"contract":"contracts/v1Contracts/TreasuryV1.sol:TreasuryV1","label":"interestFromExternalProtocolDuringLiquidation","offset":0,"slot":"20","type":"t_uint256"},{"astId":4520,"contract":"contracts/v1Contracts/TreasuryV1.sol:TreasuryV1","label":"externalProtocolDepositCount","offset":0,"slot":"21","type":"t_uint64"},{"astId":4522,"contract":"contracts/v1Contracts/TreasuryV1.sol:TreasuryV1","label":"PRECISION","offset":0,"slot":"22","type":"t_uint256"},{"astId":4524,"contract":"contracts/v1Contracts/TreasuryV1.sol:TreasuryV1","label":"CUMULATIVE_PRECISION","offset":0,"slot":"23","type":"t_uint256"},{"astId":4528,"contract":"contracts/v1Contracts/TreasuryV1.sol:TreasuryV1","label":"externalProtocolCountTotalValue","offset":0,"slot":"24","type":"t_mapping(t_uint256,t_uint256)"}],"types":{"t_address":{"encoding":"inplace","label":"address","numberOfBytes":"20"},"t_bool":{"encoding":"inplace","label":"bool","numberOfBytes":"1"},"t_contract(CometMainInterface)3203":{"encoding":"inplace","label":"contract CometMainInterface","numberOfBytes":"20"},"t_contract(IBorrowing)3445":{"encoding":"inplace","label":"contract IBorrowing","numberOfBytes":"20"},"t_contract(IERC20)8679":{"encoding":"inplace","label":"contract IERC20","numberOfBytes":"20"},"t_contract(IPoolAddressesProvider)2749":{"encoding":"inplace","label":"contract IPoolAddressesProvider","numberOfBytes":"20"},"t_contract(IUSDa)4037":{"encoding":"inplace","label":"contract IUSDa","numberOfBytes":"20"},"t_contract(IWrappedTokenGatewayV3)2809":{"encoding":"inplace","label":"contract IWrappedTokenGatewayV3","numberOfBytes":"20"},"t_enum(Protocol)4456":{"encoding":"inplace","label":"enum TreasuryV1.Protocol","numberOfBytes":"1"},"t_mapping(t_address,t_struct(BorrowerDetails)4374_storage)":{"encoding":"mapping","key":"t_address","label":"mapping(address => struct TreasuryV1.BorrowerDetails)","numberOfBytes":"32","value":"t_struct(BorrowerDetails)4374_storage"},"t_mapping(t_enum(Protocol)4456,t_struct(ProtocolDeposit)4413_storage)":{"encoding":"mapping","key":"t_enum(Protocol)4456","label":"mapping(enum TreasuryV1.Protocol => struct TreasuryV1.ProtocolDeposit)","numberOfBytes":"32","value":"t_struct(ProtocolDeposit)4413_storage"},"t_mapping(t_uint256,t_uint256)":{"encoding":"mapping","key":"t_uint256","label":"mapping(uint256 => uint256)","numberOfBytes":"32","value":"t_uint256"},"t_mapping(t_uint64,t_struct(DepositDetails)4358_storage)":{"encoding":"mapping","key":"t_uint64","label":"mapping(uint64 => struct TreasuryV1.DepositDetails)","numberOfBytes":"32","value":"t_struct(DepositDetails)4358_storage"},"t_mapping(t_uint64,t_struct(EachDepositToProtocol)4397_storage)":{"encoding":"mapping","key":"t_uint64","label":"mapping(uint64 => struct TreasuryV1.EachDepositToProtocol)","numberOfBytes":"32","value":"t_struct(EachDepositToProtocol)4397_storage"},"t_struct(BorrowerDetails)4374_storage":{"encoding":"inplace","label":"struct TreasuryV1.BorrowerDetails","numberOfBytes":"128","members":[{"astId":4360,"contract":"contracts/v1Contracts/TreasuryV1.sol:TreasuryV1","label":"depositedAmount","offset":0,"slot":"0","type":"t_uint256"},{"astId":4365,"contract":"contracts/v1Contracts/TreasuryV1.sol:TreasuryV1","label":"depositDetails","offset":0,"slot":"1","type":"t_mapping(t_uint64,t_struct(DepositDetails)4358_storage)"},{"astId":4367,"contract":"contracts/v1Contracts/TreasuryV1.sol:TreasuryV1","label":"totalBorrowedAmount","offset":0,"slot":"2","type":"t_uint256"},{"astId":4369,"contract":"contracts/v1Contracts/TreasuryV1.sol:TreasuryV1","label":"hasBorrowed","offset":0,"slot":"3","type":"t_bool"},{"astId":4371,"contract":"contracts/v1Contracts/TreasuryV1.sol:TreasuryV1","label":"hasDeposited","offset":1,"slot":"3","type":"t_bool"},{"astId":4373,"contract":"contracts/v1Contracts/TreasuryV1.sol:TreasuryV1","label":"borrowerIndex","offset":2,"slot":"3","type":"t_uint64"}]},"t_struct(DepositDetails)4358_storage":{"encoding":"inplace","label":"struct TreasuryV1.DepositDetails","numberOfBytes":"224","members":[{"astId":4329,"contract":"contracts/v1Contracts/TreasuryV1.sol:TreasuryV1","label":"depositedTime","offset":0,"slot":"0","type":"t_uint64"},{"astId":4331,"contract":"contracts/v1Contracts/TreasuryV1.sol:TreasuryV1","label":"depositedAmount","offset":8,"slot":"0","type":"t_uint128"},{"astId":4333,"contract":"contracts/v1Contracts/TreasuryV1.sol:TreasuryV1","label":"depositedAmountUsdValue","offset":0,"slot":"1","type":"t_uint128"},{"astId":4335,"contract":"contracts/v1Contracts/TreasuryV1.sol:TreasuryV1","label":"downsidePercentage","offset":16,"slot":"1","type":"t_uint64"},{"astId":4337,"contract":"contracts/v1Contracts/TreasuryV1.sol:TreasuryV1","label":"ethPriceAtDeposit","offset":0,"slot":"2","type":"t_uint128"},{"astId":4339,"contract":"contracts/v1Contracts/TreasuryV1.sol:TreasuryV1","label":"borrowedAmount","offset":16,"slot":"2","type":"t_uint128"},{"astId":4341,"contract":"contracts/v1Contracts/TreasuryV1.sol:TreasuryV1","label":"normalizedAmount","offset":0,"slot":"3","type":"t_uint128"},{"astId":4343,"contract":"contracts/v1Contracts/TreasuryV1.sol:TreasuryV1","label":"withdrawed","offset":16,"slot":"3","type":"t_bool"},{"astId":4345,"contract":"contracts/v1Contracts/TreasuryV1.sol:TreasuryV1","label":"withdrawAmount","offset":0,"slot":"4","type":"t_uint128"},{"astId":4347,"contract":"contracts/v1Contracts/TreasuryV1.sol:TreasuryV1","label":"liquidated","offset":16,"slot":"4","type":"t_bool"},{"astId":4349,"contract":"contracts/v1Contracts/TreasuryV1.sol:TreasuryV1","label":"ethPriceAtWithdraw","offset":17,"slot":"4","type":"t_uint64"},{"astId":4351,"contract":"contracts/v1Contracts/TreasuryV1.sol:TreasuryV1","label":"withdrawTime","offset":0,"slot":"5","type":"t_uint64"},{"astId":4353,"contract":"contracts/v1Contracts/TreasuryV1.sol:TreasuryV1","label":"aBondTokensAmount","offset":8,"slot":"5","type":"t_uint128"},{"astId":4355,"contract":"contracts/v1Contracts/TreasuryV1.sol:TreasuryV1","label":"strikePrice","offset":0,"slot":"6","type":"t_uint128"},{"astId":4357,"contract":"contracts/v1Contracts/TreasuryV1.sol:TreasuryV1","label":"optionFees","offset":16,"slot":"6","type":"t_uint128"}]},"t_struct(EachDepositToProtocol)4397_storage":{"encoding":"inplace","label":"struct TreasuryV1.EachDepositToProtocol","numberOfBytes":"256","members":[{"astId":4376,"contract":"contracts/v1Contracts/TreasuryV1.sol:TreasuryV1","label":"depositedTime","offset":0,"slot":"0","type":"t_uint64"},{"astId":4378,"contract":"contracts/v1Contracts/TreasuryV1.sol:TreasuryV1","label":"depositedAmount","offset":8,"slot":"0","type":"t_uint128"},{"astId":4380,"contract":"contracts/v1Contracts/TreasuryV1.sol:TreasuryV1","label":"ethPriceAtDeposit","offset":0,"slot":"1","type":"t_uint128"},{"astId":4382,"contract":"contracts/v1Contracts/TreasuryV1.sol:TreasuryV1","label":"depositedUsdValue","offset":0,"slot":"2","type":"t_uint256"},{"astId":4384,"contract":"contracts/v1Contracts/TreasuryV1.sol:TreasuryV1","label":"tokensCredited","offset":0,"slot":"3","type":"t_uint128"},{"astId":4386,"contract":"contracts/v1Contracts/TreasuryV1.sol:TreasuryV1","label":"withdrawed","offset":16,"slot":"3","type":"t_bool"},{"astId":4388,"contract":"contracts/v1Contracts/TreasuryV1.sol:TreasuryV1","label":"ethPriceAtWithdraw","offset":0,"slot":"4","type":"t_uint128"},{"astId":4390,"contract":"contracts/v1Contracts/TreasuryV1.sol:TreasuryV1","label":"withdrawTime","offset":16,"slot":"4","type":"t_uint64"},{"astId":4392,"contract":"contracts/v1Contracts/TreasuryV1.sol:TreasuryV1","label":"withdrawedUsdValue","offset":0,"slot":"5","type":"t_uint256"},{"astId":4394,"contract":"contracts/v1Contracts/TreasuryV1.sol:TreasuryV1","label":"interestGained","offset":0,"slot":"6","type":"t_uint128"},{"astId":4396,"contract":"contracts/v1Contracts/TreasuryV1.sol:TreasuryV1","label":"discountedPrice","offset":0,"slot":"7","type":"t_uint256"}]},"t_struct(ProtocolDeposit)4413_storage":{"encoding":"inplace","label":"struct TreasuryV1.ProtocolDeposit","numberOfBytes":"192","members":[{"astId":4402,"contract":"contracts/v1Contracts/TreasuryV1.sol:TreasuryV1","label":"eachDepositToProtocol","offset":0,"slot":"0","type":"t_mapping(t_uint64,t_struct(EachDepositToProtocol)4397_storage)"},{"astId":4404,"contract":"contracts/v1Contracts/TreasuryV1.sol:TreasuryV1","label":"depositIndex","offset":0,"slot":"1","type":"t_uint64"},{"astId":4406,"contract":"contracts/v1Contracts/TreasuryV1.sol:TreasuryV1","label":"depositedAmount","offset":0,"slot":"2","type":"t_uint256"},{"astId":4408,"contract":"contracts/v1Contracts/TreasuryV1.sol:TreasuryV1","label":"totalCreditedTokens","offset":0,"slot":"3","type":"t_uint256"},{"astId":4410,"contract":"contracts/v1Contracts/TreasuryV1.sol:TreasuryV1","label":"depositedUsdValue","offset":0,"slot":"4","type":"t_uint256"},{"astId":4412,"contract":"contracts/v1Contracts/TreasuryV1.sol:TreasuryV1","label":"cumulativeRate","offset":0,"slot":"5","type":"t_uint256"}]},"t_uint128":{"encoding":"inplace","label":"uint128","numberOfBytes":"16"},"t_uint256":{"encoding":"inplace","label":"uint256","numberOfBytes":"32"},"t_uint64":{"encoding":"inplace","label":"uint64","numberOfBytes":"8"}}},"id":11}