{"abi":[{"type":"function","name":"APY","inputs":[],"outputs":[{"name":"","type":"uint8","internalType":"uint8"}],"stateMutability":"view"},{"type":"function","name":"DOMAIN_SEPARATOR","inputs":[],"outputs":[{"name":"","type":"bytes32","internalType":"bytes32"}],"stateMutability":"view"},{"type":"function","name":"PERMIT_TYPEHASH","inputs":[],"outputs":[{"name":"","type":"bytes32","internalType":"bytes32"}],"stateMutability":"view"},{"type":"function","name":"UPGRADE_INTERFACE_VERSION","inputs":[],"outputs":[{"name":"","type":"string","internalType":"string"}],"stateMutability":"view"},{"type":"function","name":"abond","inputs":[],"outputs":[{"name":"","type":"address","internalType":"contract IABONDToken"}],"stateMutability":"view"},{"type":"function","name":"amint","inputs":[],"outputs":[{"name":"","type":"address","internalType":"contract IAMINT"}],"stateMutability":"view"},{"type":"function","name":"calculateCumulativeRate","inputs":[],"outputs":[{"name":"","type":"uint256","internalType":"uint256"}],"stateMutability":"nonpayable"},{"type":"function","name":"calculateRatio","inputs":[{"name":"_amount","type":"uint256","internalType":"uint256"},{"name":"currentEthPrice","type":"uint256","internalType":"uint256"}],"outputs":[{"name":"","type":"uint64","internalType":"uint64"}],"stateMutability":"nonpayable"},{"type":"function","name":"cds","inputs":[],"outputs":[{"name":"","type":"address","internalType":"contract CDSInterface"}],"stateMutability":"view"},{"type":"function","name":"cdsAddress","inputs":[],"outputs":[{"name":"","type":"address","internalType":"address"}],"stateMutability":"view"},{"type":"function","name":"depositTokens","inputs":[{"name":"_ethPrice","type":"uint128","internalType":"uint128"},{"name":"_depositTime","type":"uint64","internalType":"uint64"},{"name":"_strikePercent","type":"uint8","internalType":"enum IOptions.StrikePrice"},{"name":"_strikePrice","type":"uint64","internalType":"uint64"},{"name":"_volatility","type":"uint256","internalType":"uint256"}],"outputs":[],"stateMutability":"payable"},{"type":"function","name":"getLTV","inputs":[],"outputs":[{"name":"","type":"uint8","internalType":"uint8"}],"stateMutability":"view"},{"type":"function","name":"getLastEthVaultValue","inputs":[],"outputs":[{"name":"","type":"uint256","internalType":"uint256"}],"stateMutability":"view"},{"type":"function","name":"getUSDValue","inputs":[],"outputs":[{"name":"","type":"uint256","internalType":"uint256"}],"stateMutability":"view"},{"type":"function","name":"initialize","inputs":[{"name":"_tokenAddress","type":"address","internalType":"address"},{"name":"_cds","type":"address","internalType":"address"},{"name":"_abondToken","type":"address","internalType":"address"},{"name":"_multiSign","type":"address","internalType":"address"},{"name":"_priceFeedAddress","type":"address","internalType":"address"},{"name":"chainId","type":"uint64","internalType":"uint64"}],"outputs":[],"stateMutability":"nonpayable"},{"type":"function","name":"isContract","inputs":[{"name":"addr","type":"address","internalType":"address"}],"outputs":[{"name":"","type":"bool","internalType":"bool"}],"stateMutability":"view"},{"type":"function","name":"lastCDSPoolValue","inputs":[],"outputs":[{"name":"","type":"uint256","internalType":"uint256"}],"stateMutability":"view"},{"type":"function","name":"lastCumulativeRate","inputs":[],"outputs":[{"name":"","type":"uint256","internalType":"uint256"}],"stateMutability":"view"},{"type":"function","name":"lastEthVaultValue","inputs":[],"outputs":[{"name":"","type":"uint256","internalType":"uint256"}],"stateMutability":"view"},{"type":"function","name":"liquidate","inputs":[{"name":"_user","type":"address","internalType":"address"},{"name":"_index","type":"uint64","internalType":"uint64"},{"name":"currentEthPrice","type":"uint64","internalType":"uint64"}],"outputs":[],"stateMutability":"nonpayable"},{"type":"function","name":"multiSign","inputs":[],"outputs":[{"name":"","type":"address","internalType":"contract IMultiSign"}],"stateMutability":"view"},{"type":"function","name":"name","inputs":[],"outputs":[{"name":"","type":"string","internalType":"string"}],"stateMutability":"view"},{"type":"function","name":"noOfLiquidations","inputs":[],"outputs":[{"name":"","type":"uint128","internalType":"uint128"}],"stateMutability":"view"},{"type":"function","name":"options","inputs":[],"outputs":[{"name":"","type":"address","internalType":"contract IOptions"}],"stateMutability":"view"},{"type":"function","name":"owner","inputs":[],"outputs":[{"name":"","type":"address","internalType":"address"}],"stateMutability":"view"},{"type":"function","name":"priceFeedAddress","inputs":[],"outputs":[{"name":"","type":"address","internalType":"address"}],"stateMutability":"view"},{"type":"function","name":"proxiableUUID","inputs":[],"outputs":[{"name":"","type":"bytes32","internalType":"bytes32"}],"stateMutability":"view"},{"type":"function","name":"ratePerSec","inputs":[],"outputs":[{"name":"","type":"uint128","internalType":"uint128"}],"stateMutability":"view"},{"type":"function","name":"redeemYields","inputs":[{"name":"user","type":"address","internalType":"address"},{"name":"aBondAmount","type":"uint128","internalType":"uint128"}],"outputs":[{"name":"","type":"uint256","internalType":"uint256"}],"stateMutability":"nonpayable"},{"type":"function","name":"renounceOwnership","inputs":[],"outputs":[],"stateMutability":"nonpayable"},{"type":"function","name":"setAPR","inputs":[{"name":"_ratePerSec","type":"uint128","internalType":"uint128"}],"outputs":[],"stateMutability":"nonpayable"},{"type":"function","name":"setAdmin","inputs":[{"name":"_admin","type":"address","internalType":"address"}],"outputs":[],"stateMutability":"nonpayable"},{"type":"function","name":"setBondRatio","inputs":[{"name":"_bondRatio","type":"uint64","internalType":"uint64"}],"outputs":[],"stateMutability":"nonpayable"},{"type":"function","name":"setLTV","inputs":[{"name":"_LTV","type":"uint8","internalType":"uint8"}],"outputs":[],"stateMutability":"nonpayable"},{"type":"function","name":"setOptions","inputs":[{"name":"_options","type":"address","internalType":"address"}],"outputs":[],"stateMutability":"nonpayable"},{"type":"function","name":"setTreasury","inputs":[{"name":"_treasury","type":"address","internalType":"address"}],"outputs":[],"stateMutability":"nonpayable"},{"type":"function","name":"setWithdrawTimeLimit","inputs":[{"name":"_timeLimit","type":"uint64","internalType":"uint64"}],"outputs":[],"stateMutability":"nonpayable"},{"type":"function","name":"totalNormalizedAmount","inputs":[],"outputs":[{"name":"","type":"uint256","internalType":"uint256"}],"stateMutability":"view"},{"type":"function","name":"transferOwnership","inputs":[{"name":"newOwner","type":"address","internalType":"address"}],"outputs":[],"stateMutability":"nonpayable"},{"type":"function","name":"treasury","inputs":[],"outputs":[{"name":"","type":"address","internalType":"contract ITreasury"}],"stateMutability":"view"},{"type":"function","name":"treasuryAddress","inputs":[],"outputs":[{"name":"","type":"address","internalType":"address"}],"stateMutability":"view"},{"type":"function","name":"updateLastEthVaultValue","inputs":[{"name":"_amount","type":"uint256","internalType":"uint256"}],"outputs":[],"stateMutability":"nonpayable"},{"type":"function","name":"upgradeToAndCall","inputs":[{"name":"newImplementation","type":"address","internalType":"address"},{"name":"data","type":"bytes","internalType":"bytes"}],"outputs":[],"stateMutability":"payable"},{"type":"function","name":"version","inputs":[],"outputs":[{"name":"","type":"string","internalType":"string"}],"stateMutability":"view"},{"type":"function","name":"withDraw","inputs":[{"name":"_toAddress","type":"address","internalType":"address"},{"name":"_index","type":"uint64","internalType":"uint64"},{"name":"_ethPrice","type":"uint64","internalType":"uint64"},{"name":"_withdrawTime","type":"uint64","internalType":"uint64"}],"outputs":[],"stateMutability":"nonpayable"},{"type":"event","name":"Deposit","inputs":[{"name":"index","type":"uint64","indexed":false,"internalType":"uint64"},{"name":"depositedAmount","type":"uint256","indexed":false,"internalType":"uint256"},{"name":"borrowAmount","type":"uint256","indexed":false,"internalType":"uint256"},{"name":"normalizedAmount","type":"uint256","indexed":false,"internalType":"uint256"}],"anonymous":false},{"type":"event","name":"Initialized","inputs":[{"name":"version","type":"uint64","indexed":false,"internalType":"uint64"}],"anonymous":false},{"type":"event","name":"Liquidate","inputs":[{"name":"index","type":"uint64","indexed":false,"internalType":"uint64"},{"name":"liquidationAmount","type":"uint128","indexed":false,"internalType":"uint128"},{"name":"profits","type":"uint128","indexed":false,"internalType":"uint128"},{"name":"ethAmount","type":"uint128","indexed":false,"internalType":"uint128"},{"name":"availableLiquidationAmount","type":"uint256","indexed":false,"internalType":"uint256"}],"anonymous":false},{"type":"event","name":"OwnershipTransferred","inputs":[{"name":"previousOwner","type":"address","indexed":true,"internalType":"address"},{"name":"newOwner","type":"address","indexed":true,"internalType":"address"}],"anonymous":false},{"type":"event","name":"Upgraded","inputs":[{"name":"implementation","type":"address","indexed":true,"internalType":"address"}],"anonymous":false},{"type":"event","name":"Withdraw","inputs":[{"name":"borrowDebt","type":"uint256","indexed":false,"internalType":"uint256"},{"name":"withdrawAmount","type":"uint128","indexed":false,"internalType":"uint128"},{"name":"noOfAbond","type":"uint128","indexed":false,"internalType":"uint128"}],"anonymous":false},{"type":"error","name":"AddressEmptyCode","inputs":[{"name":"target","type":"address","internalType":"address"}]},{"type":"error","name":"Borrowing_DepositFailed","inputs":[]},{"type":"error","name":"Borrowing_GettingETHPriceFailed","inputs":[]},{"type":"error","name":"Borrowing_LiquidateBurnFailed","inputs":[]},{"type":"error","name":"Borrowing_LiquidateEthTransferToCdsFailed","inputs":[]},{"type":"error","name":"Borrowing_WithdrawAMINTTransferFailed","inputs":[]},{"type":"error","name":"Borrowing_WithdrawBurnFailed","inputs":[]},{"type":"error","name":"Borrowing_WithdrawEthTransferFailed","inputs":[]},{"type":"error","name":"Borrowing_abondMintFailed","inputs":[]},{"type":"error","name":"Borrowing_amintMintFailed","inputs":[]},{"type":"error","name":"ERC1967InvalidImplementation","inputs":[{"name":"implementation","type":"address","internalType":"address"}]},{"type":"error","name":"ERC1967NonPayable","inputs":[]},{"type":"error","name":"FailedInnerCall","inputs":[]},{"type":"error","name":"InvalidInitialization","inputs":[]},{"type":"error","name":"NotInitializing","inputs":[]},{"type":"error","name":"OwnableInvalidOwner","inputs":[{"name":"owner","type":"address","internalType":"address"}]},{"type":"error","name":"OwnableUnauthorizedAccount","inputs":[{"name":"account","type":"address","internalType":"address"}]},{"type":"error","name":"ReentrancyGuardReentrantCall","inputs":[]},{"type":"error","name":"UUPSUnauthorizedCallContext","inputs":[]},{"type":"error","name":"UUPSUnsupportedProxiableUUID","inputs":[{"name":"slot","type":"bytes32","internalType":"bytes32"}]}],"bytecode":{"object":"0x60a06040523060805234801561001457600080fd5b506080516156056200003f600039600081816140ad015281816140d6015261421c01526156056000f3fe6080604052600436106102725760003560e01c8063715018a61161014f578063ad3cb1cc116100c1578063d5c28dba1161007a578063d5c28dba146107d9578063e0abca0b146107f9578063ef8bd30514610819578063f0f442601461083a578063f2fde38b1461085a578063fe9258841461087a57600080fd5b8063ad3cb1cc146106f0578063ada0b0ed14610721578063b4eb10ce14610759578063c1bab32d14610779578063c5f956af14610799578063c8101461146107b957600080fd5b8063868c10d211610113578063868c10d2146106275780638da5cb5b146106475780638e4db39a1461068457806399eb2f6c1461069a5780639e6fe439146106b0578063aad2476d146106d057600080fd5b8063715018a6146105a7578063715cad17146105bc5780637d6dff7d146105d157806380ddebcb146105f157806384e921281461061157600080fd5b8063503e6322116101e85780635a606b41116101ac5780635a606b41146104fe5780635e34783e1461051e57806361d027b314610531578063661b7d3e146105515780636fdc520314610571578063704b6c021461058757600080fd5b8063503e63221461046757806350593af71461048757806350d7ede21461049c57806352d1902d146104bc57806354fd4d50146104d157600080fd5b806330adf81f1161023a57806330adf81f146103775780633644e515146103ab57806338a912d5146103c15780633b486a25146104005780634ed2b8ac146104275780634f1ef2861461045457600080fd5b806306fdde03146102775780631069143a146102c95780631627905514610301578063181ab6db14610332578063276eb3ac14610355575b600080fd5b34801561028357600080fd5b506102b36040518060400160405280601081526020016f20a6a4a72a1029ba30b13632b1b7b4b760811b81525081565b6040516102c09190614a8d565b60405180910390f35b3480156102d557600080fd5b506004546102e9906001600160a01b031681565b6040516001600160a01b0390911681526020016102c0565b34801561030d57600080fd5b5061032261031c366004614abc565b3b151590565b60405190151581526020016102c0565b34801561033e57600080fd5b5061034761089a565b6040519081526020016102c0565b34801561036157600080fd5b50610375610370366004614aec565b6109c9565b005b34801561038357600080fd5b506103477ff48167ebcd5a3b4ca5517473931d60b9a75b03f56e5e6363767fa277375eb08081565b3480156103b757600080fd5b5061034760135481565b3480156103cd57600080fd5b506011546103e890600160801b90046001600160801b031681565b6040516001600160801b0390911681526020016102c0565b34801561040c57600080fd5b506012546103e890600160401b90046001600160801b031681565b34801561043357600080fd5b50600954600160a01b900460ff165b60405160ff90911681526020016102c0565b610375610462366004614b9a565b610af8565b34801561047357600080fd5b506000546102e9906001600160a01b031681565b34801561049357600080fd5b50610347610b17565b3480156104a857600080fd5b506002546102e9906001600160a01b031681565b3480156104c857600080fd5b50610347610bad565b3480156104dd57600080fd5b506102b3604051806040016040528060018152602001603160f81b81525081565b34801561050a57600080fd5b50610375610519366004614c3f565b610bca565b61037561052c366004614ccc565b610ea6565b34801561053d57600080fd5b506003546102e9906001600160a01b031681565b34801561055d57600080fd5b5061037561056c366004614d34565b6116df565b34801561057d57600080fd5b50610347600a5481565b34801561059357600080fd5b506103756105a2366004614abc565b6117c1565b3480156105b357600080fd5b506103756118e5565b3480156105c857600080fd5b506103476118f9565b3480156105dd57600080fd5b506103756105ec366004614abc565b61190f565b3480156105fd57600080fd5b5061034761060c366004614d4d565b6119e5565b34801561061d57600080fd5b50610347600e5481565b34801561063357600080fd5b50610375610642366004614aec565b611e8b565b34801561065357600080fd5b507f9016d09d72d40fdae2fd8ceac6b6234c7706214fd39c1cd1e609a0528c199300546001600160a01b03166102e9565b34801561069057600080fd5b5061034760105481565b3480156106a657600080fd5b50610347600d5481565b3480156106bc57600080fd5b506005546102e9906001600160a01b031681565b3480156106dc57600080fd5b506103756106eb366004614d84565b611fb6565b3480156106fc57600080fd5b506102b3604051806040016040528060058152602001640352e302e360dc1b81525081565b34801561072d57600080fd5b5061074161073c366004614da7565b6120c2565b6040516001600160401b0390911681526020016102c0565b34801561076557600080fd5b506001546102e9906001600160a01b031681565b34801561078557600080fd5b50610375610794366004614dc9565b612469565b3480156107a557600080fd5b506007546102e9906001600160a01b031681565b3480156107c557600080fd5b506103756107d4366004614de6565b612633565b3480156107e557600080fd5b506103756107f4366004614e40565b613247565b34801561080557600080fd5b50600b546102e9906001600160a01b031681565b34801561082557600080fd5b5060095461044290600160a81b900460ff1681565b34801561084657600080fd5b50610375610855366004614abc565b613e4b565b34801561086657600080fd5b50610375610875366004614abc565b613fa6565b34801561088657600080fd5b506008546102e9906001600160a01b031681565b600080600360009054906101000a90046001600160a01b03166001600160a01b03166345aeb0ce6040518163ffffffff1660e01b8152600401602060405180830381865afa1580156108f0573d6000803e3d6000fd5b505050506040513d601f19601f820116820180604052508101906109149190614e94565b90506000816001600160801b03166000036109475750601254600160401b90046001600160801b031660108190556109c3565b601154600090610960906001600160801b031642614ec7565b6012546015546001600160801b03928316935061099192600160401b9092048216918491600160801b900416613fe4565b60105461099e9190614eee565b6015549092506109be90600160801b90046001600160801b031683614f1b565b601055505b92915050565b6009546001600160a01b031633146109fc5760405162461bcd60e51b81526004016109f390614f2f565b60405180910390fd5b806001600160401b0316600003610a555760405162461bcd60e51b815260206004820152601860248201527f426f6e6420526174696f2063616e2774206265207a65726f000000000000000060448201526064016109f3565b6005546001600160a01b031663fb8c927860086040518263ffffffff1660e01b8152600401610a849190614f75565b6020604051808303816000875af1158015610aa3573d6000803e3d6000fd5b505050506040513d601f19601f82011682018060405250810190610ac79190614f9f565b610ad057600080fd5b601280546001600160401b03909216600160c01b026001600160c01b03909216919091179055565b610b006140a2565b610b0982614147565b610b13828261414f565b5050565b600b5460408051633fabe5a360e21b815290516000926001600160a01b0316918391839163feaf968c9160048083019260a09291908290030181865afa158015610b65573d6000803e3d6000fd5b505050506040513d601f19601f82011682018060405250810190610b899190614fd4565b5050601454919350610ba69250506001600160801b031682614f1b565b9250505090565b6000610bb7614211565b506000805160206155b083398151915290565b7ff0c57e16840df040f15088dc2f81fe391c3923bec73e23a9662efc9c229c6a008054600160401b810460ff1615906001600160401b0316600081158015610c0f5750825b90506000826001600160401b03166001148015610c2b5750303b155b905081158015610c39575080155b15610c575760405163f92ee8a960e01b815260040160405180910390fd5b845467ffffffffffffffff191660011785558315610c8157845460ff60401b1916600160401b1785555b610c8a3361425a565b610c9261426b565b600080546001600160a01b03199081166001600160a01b038e8116919091179092556001805482168d8416908117825560088054841690911790556002805483168d85161790556005805483168c8516179055600b8054909216928a16929092179055604080518082018252601081526f20a6a4a72a1029ba30b13632b1b7b4b760811b60209182015281518083018352928352603160f81b9281019290925280517f2010028ec63295361a00945794d4fce5b1046c419f60af448db7aaeb91e918f8928101929092527fb6715a9c407638b44c957bf0380ac52778ea690cd439f34f0943ed73c1effc28908201527fc89efdaa54c0f20c7adf612882df0950f5a951637e0307cdcb4c672f298b8bc660608201526001600160401b03871660808201523060a082015260c00160408051601f19818403018152919052805160209091012060135572989680000000000000000000000000000f4240601455612710676765c793fa10079d609b1b01601555601680546001600160801b03191664e8d4a51000179055610e23610b17565b600c80546001600160801b03199081166001600160801b039384161790915560118054909116429092169190911790558315610e9957845460ff60401b19168555604051600181527fc7f505b2f371ae2175ee4913f4499e1f2633a7b5936321eed1cdaeb6115181d29060200160405180910390a15b5050505050505050505050565b610eae614273565b6005546040516326d2a55160e21b81526000916001600160a01b031690639b4a954490610edf908490600401615024565b6020604051808303816000875af1158015610efe573d6000803e3d6000fd5b505050506040513d601f19601f82011682018060405250810190610f229190614f9f565b15610f3f5760405162461bcd60e51b81526004016109f390615038565b60003411610f8f5760405162461bcd60e51b815260206004820152601a60248201527f43616e6e6f74206465706f736974207a65726f20746f6b656e7300000000000060448201526064016109f3565b6000610fa434886001600160801b03166120c2565b601554909150610fbe906001600160801b03166002615058565b6001600160801b0316816001600160401b031610156110185760405162461bcd60e51b81526020600482015260166024820152754e6f7420656e6f7567682066756e6420696e2043445360501b60448201526064016109f3565b60048054604051636916a18160e11b81526000926001600160a01b039092169163d22d430291611050918c91899134918d9101615083565b6020604051808303816000875af115801561106f573d6000803e3d6000fd5b505050506040513d601f19601f8201168201806040525081019061109391906150c0565b6015546016549192506000916110b5916001600160801b039081169116615058565b6001600160801b0316600960149054906101000a900460ff1660ff168a6001600160801b0316346110e69190614eee565b6110f09190614eee565b6110fa9190614f1b565b905061112c6040518060400160405280600e81526020016d1513d2d15394c81513c81311539160921b815250826142bd565b6111586040518060400160405280600a8152602001694f5054494f4e2046454560b01b815250836142bd565b600061116483836150d9565b60035460405163dcb71f3f60e01b81523360048201526001600160801b038d1660248201526001600160401b038c1660448201529192506000916001600160a01b039091169063dcb71f3f903490606401604080518083038185885af11580156111d2573d6000803e3d6000fd5b50505050506040513d601f19601f820116820180604052508101906111f791906150f7565b602081015181519192509061121f57604051634fad3b0960e01b815260040160405180910390fd5b6002546001600160a01b0316639992f4b73383606461123f346032615058565b6112499190615136565b600354604051637b85b73960e01b8152600160048201526001600160a01b0390911690637b85b73990602401602060405180830381865afa158015611292573d6000803e3d6000fd5b505050506040513d601f19601f820116820180604052508101906112b69190614e94565b6040516001600160e01b031960e087901b1681526001600160a01b0390941660048501526001600160401b0390921660248401526001600160801b039081166044840152166064820152608401600060405180830381600087803b15801561131d57600080fd5b505af1158015611331573d6000803e3d6000fd5b5050505061134133348e88614302565b60015460405163b87c3dc360e01b81526001600160801b03871660048201526001600160a01b039091169063b87c3dc390602401600060405180830381600087803b15801561138f57600080fd5b505af11580156113a3573d6000803e3d6000fd5b5050600354604051634d5c56a560e01b81523360048201526001600160401b0385166024820152600093506001600160a01b039091169150634d5c56a59060440161022060405180830381865afa158015611402573d6000803e3d6000fd5b505050506040513d601f19601f82011682018060405250810190611426919061515c565b60208101516001600160801b0386811660a083015288166101c0820152600354604051632e449f1760e21b81523360048201526001602482015292935090916001600160a01b039091169063b9127c5c90604401600060405180830381600087803b15801561149457600080fd5b505af11580156114a8573d6000803e3d6000fd5b5050600354604051630e6840d960e11b8152336004820152602481018990526001600160a01b039091169250631cd081b29150604401600060405180830381600087803b1580156114f857600080fd5b505af115801561150c573d6000803e3d6000fd5b50505050600061151a61089a565b601180546001600160801b031916426001600160801b03908116919091179091556015549192506000918391600160801b90910416611559818a614eee565b6115639190614eee565b61156d9190614f1b565b6001600160801b03811660c08501529050611591346001600160401b038f16615058565b6001600160801b03166101a08401526003546040516308a29bdf60e31b81526001600160a01b0390911690634514def8906115d4903390899088906004016152ce565b600060405180830381600087803b1580156115ee57600080fd5b505af1158015611602573d6000803e3d6000fd5b5050505080600a6000828254611618919061546b565b925050819055508f600c60006101000a8154816001600160801b0302191690836001600160801b031602179055507f3f7c04c09b19100060129256b7d82f055d0aa72cf17042fb3f2d41d1fffc02608534898460405161169c94939291906001600160401b0394909416845260208401929092526040830152606082015260800190565b60405180910390a150505050505050505050506116d860017f9b779b17422d0df92223018b32b4d1fa46e071723d6817e2486d003becc55f0055565b5050505050565b6007546001600160a01b0316331461174c5760405162461bcd60e51b815260206004820152602a60248201527f46756e6374696f6e2073686f756c64206f6e6c792062652063616c6c656420626044820152697920747265617375727960b01b60648201526084016109f3565b806000036117a75760405162461bcd60e51b815260206004820152602260248201527f4c61737420455448207661756c742076616c75652063616e2774206265207a65604482015261726f60f01b60648201526084016109f3565b80600d60008282546117b991906150d9565b909155505050565b6117c961458c565b6001600160a01b038116158015906117e557506001813b151514155b6118485760405162461bcd60e51b815260206004820152602e60248201527f41646d696e2063616e277420626520636f6e747261637420616464726573732060448201526d26207a65726f206164647265737360901b60648201526084016109f3565b6005546001600160a01b031663fb8c927860046040518263ffffffff1660e01b81526004016118779190614f75565b6020604051808303816000875af1158015611896573d6000803e3d6000fd5b505050506040513d601f19601f820116820180604052508101906118ba9190614f9f565b6118c357600080fd5b600980546001600160a01b0319166001600160a01b0392909216919091179055565b6118ed61458c565b6118f760006145e7565b565b60006064600d5461190a9190614f1b565b905090565b6009546001600160a01b031633146119395760405162461bcd60e51b81526004016109f390614f2f565b6001600160a01b038116158015906119515750803b15155b6119c35760405162461bcd60e51b815260206004820152603860248201527f4f7074696f6e73206d75737420626520636f6e7472616374206164647265737360448201527f20262063616e2774206265207a65726f2061646472657373000000000000000060648201526084016109f3565b600480546001600160a01b0319166001600160a01b0392909216919091179055565b600254604051630ecc535f60e01b81526001600160a01b0384811660048301526000928392911690630ecc535f906024016060604051808303816000875af1158015611a35573d6000803e3d6000fd5b505050506040513d601f19601f82011682018060405250810190611a59919061547e565b905080604001516001600160801b0316836001600160801b03161115611ac15760405162461bcd60e51b815260206004820152601c60248201527f596f7520646f6e2774206861766520656e6f7567682061426f6e64730000000060448201526064016109f3565b600254604080516318160ddd60e01b815290516000926001600160a01b0316916318160ddd9160048083019260209291908290030181865afa158015611b0b573d6000803e3d6000fd5b505050506040513d601f19601f82011682018060405250810190611b2f91906150c0565b60155460035460408051633ebbb1ef60e01b81529051600160801b9093046001600160801b0316926001600160a01b0390921691633ebbb1ef916004808201926020929091908290030181865afa158015611b8e573d6000803e3d6000fd5b505050506040513d601f19601f82011682018060405250810190611bb291906150c0565b611bbc9190614eee565b611bc69190614f1b565b6015546001600160401b03919091169150600090600160801b90046001600160801b0316611bf48684615058565b611bfe9190615136565b60035460405163c2fcb15b60e01b81526001600160801b0392909216600483018190526000602484015292506001600160a01b03169063c2fcb15b90604401600060405180830381600087803b158015611c5757600080fd5b505af1158015611c6b573d6000803e3d6000fd5b5050600354604051630adfd5a560e21b8152306004820152602481018590526001600160a01b039091169250632b7f56949150604401600060405180830381600087803b158015611cbb57600080fd5b505af1158015611ccf573d6000803e3d6000fd5b5050600080546007546040516363a9f09360e11b81526001600160a01b0391821660048201526024810187905292945016915063c753e126906044016020604051808303816000875af1158015611d2a573d6000803e3d6000fd5b505050506040513d601f19601f82011682018060405250810190611d4e9190614f9f565b905080611d6e576040516303f7009160e51b815260040160405180910390fd5b600354604051631c93d87760e31b81526000916001600160a01b03169063e49ec3b890611da1908b908b906004016154e6565b6020604051808303816000875af1158015611dc0573d6000803e3d6000fd5b505050506040513d601f19601f82011682018060405250810190611de491906150c0565b6002546040516363a9f09360e11b81529192506000916001600160a01b039091169063c753e12690611e1c9033908c906004016154e6565b6020604051808303816000875af1158015611e3b573d6000803e3d6000fd5b505050506040513d601f19601f82011682018060405250810190611e5f9190614f9f565b905080611e7f576040516303f7009160e51b815260040160405180910390fd5b50979650505050505050565b6009546001600160a01b03163314611eb55760405162461bcd60e51b81526004016109f390614f2f565b806001600160401b0316600003611f185760405162461bcd60e51b815260206004820152602160248201527f57697468647261772074696d65206c696d69742063616e2774206265207a65726044820152606f60f81b60648201526084016109f3565b6005546001600160a01b031663fb8c927860026040518263ffffffff1660e01b8152600401611f479190614f75565b6020604051808303816000875af1158015611f66573d6000803e3d6000fd5b505050506040513d601f19601f82011682018060405250810190611f8a9190614f9f565b611f9357600080fd5b6012805467ffffffffffffffff19166001600160401b0392909216919091179055565b6009546001600160a01b03163314611fe05760405162461bcd60e51b81526004016109f390614f2f565b8060ff166000036120275760405162461bcd60e51b81526020600482015260116024820152704c54562063616e2774206265207a65726f60781b60448201526064016109f3565b6005546001600160a01b031663fb8c927860006040518263ffffffff1660e01b81526004016120569190614f75565b6020604051808303816000875af1158015612075573d6000803e3d6000fd5b505050506040513d601f19601f820116820180604052508101906120999190614f9f565b6120a257600080fd5b6009805460ff909216600160a01b0260ff60a01b19909216919091179055565b600080826000036120e6576040516315e73e9f60e01b815260040160405180910390fd5b600354604080516322d7586760e11b815290516000926001600160a01b0316916345aeb0ce9160048083019260209291908290030181865afa158015612130573d6000803e3d6000fd5b505050506040513d601f19601f820116820180604052508101906121549190614e94565b600c549091506001600160801b031684111561219557600c546001600160801b03808316916121849116866150d9565b61218e9190614eee565b91506121bd565b600c546001600160801b03808316916121b0918791166150d9565b6121ba9190614eee565b91505b600080826001600160801b03166000036122b1576121db8688614eee565b600d819055600154604080516315d9753160e11b815290519294506001600160a01b0390911691632bb2ea62916004808201926020929091908290030181865afa15801561222d573d6000803e3d6000fd5b505050506040513d601f19601f820116820180604052508101906122519190614e94565b6001600160801b03908116600f55600c5416861061227f5783600f54612277919061546b565b600e55612291565b83600f5461228d91906150d9565b600e555b601654600e546122aa916001600160801b031690614eee565b9050612431565b6122bb8688614eee565b600d546122c8919061546b565b915081600d819055506000600160009054906101000a90046001600160a01b03166001600160a01b0316632bb2ea626040518163ffffffff1660e01b8152600401602060405180830381865afa158015612326573d6000803e3d6000fd5b505050506040513d601f19601f8201168201806040525081019061234a9190614e94565b600c546001600160801b0391821692501687106123b557600f548111156123995784600f548261237a91906150d9565b600e54612387919061546b565b612391919061546b565b600e5561240f565b8481600f546123a891906150d9565b600e5461238791906150d9565b600f548111156123e55784600f54826123ce91906150d9565b600e546123db919061546b565b61239191906150d9565b8481600f546123f491906150d9565b600e5461240191906150d9565b61240b91906150d9565b600e555b600f819055601654600e5461242d916001600160801b031690614eee565b9150505b601454600090839061245390600160801b90046001600160801b031684614eee565b61245d9190614f1b565b98975050505050505050565b6005546040516326d2a55160e21b81526003916001600160a01b031690639b4a95449061249a908490600401615024565b6020604051808303816000875af11580156124b9573d6000803e3d6000fd5b505050506040513d601f19601f820116820180604052508101906124dd9190614f9f565b156124fa5760405162461bcd60e51b81526004016109f390615038565b6009546001600160a01b031633146125245760405162461bcd60e51b81526004016109f390614f2f565b816001600160801b031660000361257d5760405162461bcd60e51b815260206004820152601760248201527f526174652073686f756c64206e6f74206265207a65726f00000000000000000060448201526064016109f3565b6005546001600160a01b031663fb8c927860016040518263ffffffff1660e01b81526004016125ac9190614f75565b6020604051808303816000875af11580156125cb573d6000803e3d6000fd5b505050506040513d601f19601f820116820180604052508101906125ef9190614f9f565b6125f857600080fd5b50601280546001600160801b03909216600160401b0277ffffffffffffffffffffffffffffffff000000000000000019909216919091179055565b61263b614273565b6005546040516326d2a55160e21b81526001916001600160a01b031690639b4a95449061266c908490600401615024565b6020604051808303816000875af115801561268b573d6000803e3d6000fd5b505050506040513d601f19601f820116820180604052508101906126af9190614f9f565b156126cc5760405162461bcd60e51b81526004016109f390615038565b6001600160a01b038516158015906126e857506001853b151514155b61274d5760405162461bcd60e51b815260206004820152603060248201527f546f20616464726573732063616e6e6f742062652061207a65726f20616e642060448201526f636f6e7472616374206164647265737360801b60648201526084016109f3565b6127616000846001600160401b03166120c2565b50600c80546001600160801b0319166001600160401b038516179055600354604051634d5c56a560e01b81526000916001600160a01b031690634d5c56a5906127cd90339089906004016001600160a01b039290921682526001600160401b0316602082015260400190565b61022060405180830381865afa1580156127eb573d6000803e3d6000fd5b505050506040513d601f19601f8201168201806040525081019061280f919061515c565b60208101518151919250906001600160401b038088169116106131be578061012001511561287f5760405162461bcd60e51b815260206004820152601f60248201527f5573657220616d6f756e7420686173206265656e206c6971756964617465640060448201526064016109f3565b60e0810151151560000361316a5760808101516000906128a187612710615508565b6001600160401b03166128b49190615136565b9050611f40816001600160801b0316116129095760405162461bcd60e51b8152602060048201526016602482015275426f72726f77696e674865616c7468206973204c6f7760501b60448201526064016109f3565b60155460105460c08401516000926001600160801b03600160801b90910481169261293692909116614eee565b6129409190614f1b565b601554909150600160801b90046001600160801b031661295e61089a565b6129689190614f1b565b601055601180546001600160801b031916426001600160801b03161790556000546040516370a0823160e01b815233600482015282916001600160a01b0316906370a0823190602401602060405180830381865afa1580156129ce573d6000803e3d6000fd5b505050506040513d601f19601f820116820180604052508101906129f291906150c0565b1015612a4b5760405162461bcd60e51b815260206004820152602260248201527f557365722062616c616e6365206973206c657373207468616e20726571756972604482015261195960f21b60648201526084016109f3565b6001600160401b038088166101408501819052600160e086015290871661016085015260165460208501516000926001600160801b039092169160649182908190612a97906032615058565b612aa19190615136565b612aac906050615058565b612ab69190615136565b612ac09190615058565b612aca9190615136565b612ad49190615136565b60035460405163c2fcb15b60e01b81526001600160801b0392909216600483018190526001602484015292506001600160a01b03169063c2fcb15b90604401600060405180830381600087803b158015612b2d57600080fd5b505af1158015612b41573d6000803e3d6000fd5b50505050612b836040518060400160405280600f81526020016e1093d49493d5d15108105353d55395608a1b8152508560a001516001600160801b03166142bd565b612bb36040518060400160405280600e81526020016d08892a6869eaa9ca88a88408aa8960931b815250826142bd565b6000818560a001516001600160801b0316612bce91906150d9565b9050612bfc6040518060400160405280600a8152602001694255524e2056414c554560b01b815250826142bd565b600080546040516363a9f09360e11b8152336004820152602481018490526001600160a01b039091169063c753e126906044016020604051808303816000875af1158015612c4e573d6000803e3d6000fd5b505050506040513d601f19601f82011682018060405250810190612c729190614f9f565b905080612c92576040516303f7009160e51b815260040160405180910390fd5b600080546007546001600160a01b03918216916323b872dd91339116612cb8878a6150d9565b6040516001600160e01b031960e086901b1681526001600160a01b03938416600482015292909116602483015260448201526064016020604051808303816000875af1158015612d0c573d6000803e3d6000fd5b505050506040513d601f19601f82011682018060405250810190612d309190614f9f565b905080612d5057604051637e74fa1d60e01b815260040160405180910390fd5b8660c001516001600160801b0316600a6000828254612d6f91906150d9565b909155505060408051808201909152600c81526b189bdc9c9bddd95c9119589d60a21b6020820152612da190866142bd565b60035460a08801516001600160a01b039091169063b9a221eb90612dce906001600160801b0316886150d9565b6040518263ffffffff1660e01b8152600401612dec91815260200190565b600060405180830381600087803b158015612e0657600080fd5b505af1158015612e1a573d6000803e3d6000fd5b505050506000612e2b338e87614658565b9050808861018001906001600160801b031690816001600160801b031681525050600360009054906101000a90046001600160a01b03166001600160a01b0316634514def8338f8b6040518463ffffffff1660e01b8152600401612e91939291906152ce565b600060405180830381600087803b158015612eab57600080fd5b505af1158015612ebf573d6000803e3d6000fd5b505050505050505050600080886001600160401b031685608001518660200151612ee99190615058565b612ef39190615136565b9050612710846001600160801b03161115612fb0576004805460208701516101a0880151604051630e1fab4360e01b81526001600160801b03928316948101949094521660248301526001600160401b038b1660448301526001600160a01b031690630e1fab4390606401602060405180830381865afa158015612f7b573d6000803e3d6000fd5b505050506040513d601f19601f82011682018060405250810190612f9f9190614e94565b612fa9908261552b565b9150613040565b836001600160801b031661271003612fca57809150613040565b836001600160801b0316611f40108015612fee5750612710846001600160801b0316105b15612fff5784602001519150613040565b60405162461bcd60e51b8152602060048201526016602482015275426f72726f77696e674865616c7468206973204c6f7760501b60448201526064016109f3565b606461304d836032615058565b6130579190615136565b6003546040516315ee073360e11b81523360048201526001600160a01b038e811660248301526001600160801b03841660448301526001600160401b038e16606483015292945060009290911690632bdc0e66906084016020604051808303816000875af11580156130cd573d6000803e3d6000fd5b505050506040513d601f19601f820116820180604052508101906130f19190614f9f565b90508061311157604051635e5e86d560e01b815260040160405180910390fd5b610180860151604080518681526001600160801b03868116602083015290921682820152517f2dc3b614e32706dcf24286e69af4692f4b2c24fc339d659e80b26d49379b69149181900360600190a15050505050613215565b60405162461bcd60e51b815260206004820152602360248201527f5573657220616c726561647920776974686472617720656e7469726520616d6f6044820152621d5b9d60ea1b60648201526084016109f3565b60405162461bcd60e51b815260206004820152602660248201527f5573657220646f656e73277420686176652074686520706572746963756c6172604482015265040d2dcc8caf60d31b60648201526084016109f3565b50505061324160017f9b779b17422d0df92223018b32b4d1fa46e071723d6817e2486d003becc55f0055565b50505050565b6005546040516326d2a55160e21b81526002916001600160a01b031690639b4a954490613278908490600401615024565b6020604051808303816000875af1158015613297573d6000803e3d6000fd5b505050506040513d601f19601f820116820180604052508101906132bb9190614f9f565b156132d85760405162461bcd60e51b81526004016109f390615038565b6009546001600160a01b031633146133025760405162461bcd60e51b81526004016109f390614f2f565b6001600160a01b0384166133645760405162461bcd60e51b815260206004820152602360248201527f546f20616464726573732063616e6e6f742062652061207a65726f206164647260448201526265737360e81b60648201526084016109f3565b6001600160a01b03841633036133ca5760405162461bcd60e51b815260206004820152602560248201527f596f752063616e6e6f74206c697175696461746520796f7572206f776e206173604482015264736574732160d81b60648201526084016109f3565b60118054859185916010906133ee90600160801b90046001600160801b031661554b565b82546001600160801b039182166101009390930a9283029190920219909116179055600354604051634d5c56a560e01b81526001600160a01b0384811660048301526001600160401b03841660248301526000921690634d5c56a59060440161022060405180830381865afa15801561346b573d6000803e3d6000fd5b505050506040513d601f19601f8201168201806040525081019061348f919061515c565b602081015161012081015191925090156134e05760405162461bcd60e51b8152602060048201526012602482015271105b1c9958591e48131a5c5d5a59185d195960721b60448201526064016109f3565b600360009054906101000a90046001600160a01b03166001600160a01b03166390dea7e26040518163ffffffff1660e01b8152600401602060405180830381865afa158015613533573d6000803e3d6000fd5b505050506040513d601f19601f8201168201806040525081019061355791906150c0565b600360009054906101000a90046001600160a01b03166001600160a01b0316639a52aed96040518163ffffffff1660e01b8152600401602060405180830381865afa1580156135aa573d6000803e3d6000fd5b505050506040513d601f19601f820116820180604052508101906135ce91906150c0565b6135d891906150d9565b81602001516001600160801b031611156136345760405162461bcd60e51b815260206004820152601c60248201527f4e6f7420656e6f7567682066756e647320696e2074726561737572790000000060448201526064016109f3565b608081015160009061364888612710615508565b6001600160401b031661365b9190615136565b9050611f40816001600160801b031611156136af5760405162461bcd60e51b8152602060048201526014602482015273596f752063616e6e6f74206c697175696461746560601b60448201526064016109f3565b600161012083015260155460105460c08401516000926001600160801b03600160801b9091048116926136e492909116614eee565b6136ee9190614f1b565b601554909150600160801b90046001600160801b031661370c61089a565b6137169190614f1b565b601055601654608084015160208501518392600092606492859284926001600160801b03909116916137489190615058565b6137529190615136565b61375c9190615136565b6137669190614ec7565b613771906014615058565b61377b9190615136565b9050600081836064601660009054906101000a90046001600160801b031689608001518a602001516137ad9190615058565b6137b79190615136565b6137c19190615136565b6137cb9190614ec7565b6137d59190614ec7565b905060006137e3838561552b565b9050806001600160801b0316600160009054906101000a90046001600160a01b03166001600160a01b031663dc91e7526040518163ffffffff1660e01b81526004016020604051808303816000875af1158015613844573d6000803e3d6000fd5b505050506040513d601f19601f8201168201806040525081019061386891906150c0565b10156138ca5760405162461bcd60e51b815260206004820152602b60248201527f446f6e2774206861766520656e6f75676820414d494e5420696e20434453207460448201526a6f206c697175696461746560a81b60648201526084016109f3565b6040805160808101825260008082526020820181905291810182905260608101919091526040518060800160405280836001600160801b03168152602001846001600160801b0316815260200189602001516001600160801b03168152602001600160009054906101000a90046001600160a01b03166001600160a01b031663dc91e7526040518163ffffffff1660e01b81526004016020604051808303816000875af115801561397f573d6000803e3d6000fd5b505050506040513d601f19601f820116820180604052508101906139a391906150c0565b90526001546011546040805163b3013d4d60e01b8152600160801b9092046001600160801b03908116600484015284518116602484015260208501518116604484015290840151166064820152606083015160848201529192506001600160a01b03169063b3013d4d9060a401600060405180830381600087803b158015613a2a57600080fd5b505af1158015613a3e573d6000803e3d6000fd5b505060015460405163dc55b19360e01b81526001600160801b03861660048201526001600160a01b03909116925063dc55b1939150602401600060405180830381600087803b158015613a9057600080fd5b505af1158015613aa4573d6000803e3d6000fd5b5050600154604051634baf580d60e01b81526001600160801b03861660048201526001600160a01b039091169250634baf580d9150602401600060405180830381600087803b158015613af657600080fd5b505af1158015613b0a573d6000803e3d6000fd5b5050600154604051634cae95d360e01b81526001600160801b03861660048201526001600160a01b039091169250634cae95d39150602401600060405180830381600087803b158015613b5c57600080fd5b505af1158015613b70573d6000803e3d6000fd5b505060035460208b015160405163cd0220c960e01b81526001600160801b039091166004820152600160248201526001600160a01b03909116925063cd0220c99150604401600060405180830381600087803b158015613bcf57600080fd5b505af1158015613be3573d6000803e3d6000fd5b50506003546040516308a29bdf60e31b81526001600160a01b039091169250634514def89150613c1b908e908e908d906004016152ce565b600060405180830381600087803b158015613c3557600080fd5b505af1158015613c49573d6000803e3d6000fd5b505060035460a08b0151604051630adfd5a560e21b81526001600160a01b039092169350632b7f56949250613c83913091906004016154e6565b600060405180830381600087803b158015613c9d57600080fd5b505af1158015613cb1573d6000803e3d6000fd5b50506000805460075460a08d01516040516363a9f09360e11b81529395506001600160a01b03928316945063c753e12693613cf293909216916004016154e6565b6020604051808303816000875af1158015613d11573d6000803e3d6000fd5b505050506040513d601f19601f82011682018060405250810190613d359190614f9f565b905080613d5557604051632105f02360e11b815260040160405180910390fd5b7f7a965b40f4fbf2d5cd719f1d8acff4dd4de67b89356211ec5a7e474d8f861db08b84868c60200151600160009054906101000a90046001600160a01b03166001600160a01b031663dc91e7526040518163ffffffff1660e01b81526004016020604051808303816000875af1158015613dd3573d6000803e3d6000fd5b505050506040513d601f19601f82011682018060405250810190613df791906150c0565b604080516001600160401b039690961686526001600160801b03948516602087015292841685840152921660608401526080830191909152519081900360a00190a150505050505050505050505050505050565b6009546001600160a01b03163314613e755760405162461bcd60e51b81526004016109f390614f2f565b6001600160a01b03811615801590613e8d5750803b15155b613eff5760405162461bcd60e51b815260206004820152603960248201527f5472656173757279206d75737420626520636f6e74726163742061646472657360448201527f7320262063616e2774206265207a65726f20616464726573730000000000000060648201526084016109f3565b6005546001600160a01b031663fb8c927860066040518263ffffffff1660e01b8152600401613f2e9190614f75565b6020604051808303816000875af1158015613f4d573d6000803e3d6000fd5b505050506040513d601f19601f82011682018060405250810190613f719190614f9f565b613f7a57600080fd5b600380546001600160a01b039092166001600160a01b0319928316811790915560078054909216179055565b613fae61458c565b6001600160a01b038116613fd857604051631e4fbdf760e01b8152600060048201526024016109f3565b613fe1816145e7565b50565b600083801561408457600184168015613fff57859250614003565b8392505b50600283046002850494505b841561407e57858602868782041461402657600080fd5b8181018181101561403657600080fd5b859004965050600185161561407357858302838782041415871515161561405c57600080fd5b8181018181101561406c57600080fd5b8590049350505b60028504945061400f565b5061409a565b8380156140945760009250614098565b8392505b505b509392505050565b306001600160a01b037f000000000000000000000000000000000000000000000000000000000000000016148061412957507f00000000000000000000000000000000000000000000000000000000000000006001600160a01b031661411d6000805160206155b0833981519152546001600160a01b031690565b6001600160a01b031614155b156118f75760405163703e46dd60e11b815260040160405180910390fd5b613fe161458c565b816001600160a01b03166352d1902d6040518163ffffffff1660e01b8152600401602060405180830381865afa9250505080156141a9575060408051601f3d908101601f191682019092526141a6918101906150c0565b60015b6141d157604051634c9c8ce360e01b81526001600160a01b03831660048201526024016109f3565b6000805160206155b0833981519152811461420257604051632a87526960e21b8152600481018290526024016109f3565b61420c83836147ed565b505050565b306001600160a01b037f000000000000000000000000000000000000000000000000000000000000000016146118f75760405163703e46dd60e11b815260040160405180910390fd5b614262614843565b613fe18161488c565b6118f7614843565b7f9b779b17422d0df92223018b32b4d1fa46e071723d6817e2486d003becc55f008054600119016142b757604051633ee5aeb560e01b815260040160405180910390fd5b60029055565b610b1382826040516024016142d3929190615571565b60408051601f198184030181529190526020810180516001600160e01b0316632d839cb360e21b179052614894565b6001600160a01b0384166143585760405162461bcd60e51b815260206004820152601f60248201527f426f72726f7765722063616e6e6f74206265207a65726f20616464726573730060448201526064016109f3565b600954600160a01b900460ff166000036143da5760405162461bcd60e51b815260206004820152603860248201527f4c5456206d7573742062652073657420746f206e6f6e2d7a65726f2076616c7560448201527f65206265666f72652070726f766964696e67206c6f616e73000000000000000060648201526084016109f3565b6016546000906001600160801b03908116906143f890851686614eee565b6144029190614f1b565b6015546009549192506000916001600160801b039091169061442e90600160a01b900460ff1684614eee565b6144389190614f1b565b60008054919250906001600160a01b03166340c10f198861445987866150d9565b6040516001600160e01b031960e085901b1681526001600160a01b03909216600483015260248201526044016020604051808303816000875af11580156144a4573d6000803e3d6000fd5b505050506040513d601f19601f820116820180604052508101906144c89190614f9f565b9050806144e857604051630a9b6d3960e41b815260040160405180910390fd5b600080546007546040516340c10f1960e01b81526001600160a01b039182166004820152602481018890529116906340c10f19906044016020604051808303816000875af115801561453e573d6000803e3d6000fd5b505050506040513d601f19601f820116820180604052508101906145629190614f9f565b90508061458257604051630a9b6d3960e41b815260040160405180910390fd5b5050505050505050565b336145be7f9016d09d72d40fdae2fd8ceac6b6234c7706214fd39c1cd1e609a0528c199300546001600160a01b031690565b6001600160a01b0316146118f75760405163118cdaa760e01b81523360048201526024016109f3565b7f9016d09d72d40fdae2fd8ceac6b6234c7706214fd39c1cd1e609a0528c19930080546001600160a01b031981166001600160a01b03848116918217845560405192169182907f8be0079c531659141344cd1fd0a4f28419497f9722a3daafe3b4186f6b6457e090600090a3505050565b60006001600160a01b0384166146b05760405162461bcd60e51b815260206004820152601f60248201527f426f72726f7765722063616e6e6f74206265207a65726f20616464726573730060448201526064016109f3565b816000036146f75760405162461bcd60e51b8152602060048201526014602482015273416d6f756e742063616e2774206265207a65726f60601b60448201526064016109f3565b601254601654600091600160c01b90046001600160401b031690614724906001600160801b031685615058565b61472e9190615136565b600254604051631ff9eb7f60e21b81526001600160a01b0388811660048301526001600160401b03881660248301526001600160801b038416604483015292935060009290911690637fe7adfc906064016020604051808303816000875af115801561479e573d6000803e3d6000fd5b505050506040513d601f19601f820116820180604052508101906147c29190614f9f565b9050806147e2576040516328eca99f60e21b815260040160405180910390fd5b5090505b9392505050565b6147f68261489d565b6040516001600160a01b038316907fbc7cd75a20ee27fd9adebab32041f755214dbc6bffa90cc0225b39da2e5c2d3b90600090a280511561483b5761420c8282614902565b610b13614978565b7ff0c57e16840df040f15088dc2f81fe391c3923bec73e23a9662efc9c229c6a0054600160401b900460ff166118f757604051631afcd79f60e31b815260040160405180910390fd5b613fae614843565b613fe181614997565b806001600160a01b03163b6000036148d357604051634c9c8ce360e01b81526001600160a01b03821660048201526024016109f3565b6000805160206155b083398151915280546001600160a01b0319166001600160a01b0392909216919091179055565b6060600080846001600160a01b03168460405161491f9190615593565b600060405180830381855af49150503d806000811461495a576040519150601f19603f3d011682016040523d82523d6000602084013e61495f565b606091505b509150915061496f8583836149b8565b95945050505050565b34156118f75760405163b398979f60e01b815260040160405180910390fd5b60006a636f6e736f6c652e6c6f679050600080835160208501845afa505050565b6060826149cd576149c882614a14565b6147e6565b81511580156149e457506001600160a01b0384163b155b15614a0d57604051639996b31560e01b81526001600160a01b03851660048201526024016109f3565b50806147e6565b805115614a245780518082602001fd5b604051630a12f52160e11b815260040160405180910390fd5b60005b83811015614a58578181015183820152602001614a40565b50506000910152565b60008151808452614a79816020860160208601614a3d565b601f01601f19169290920160200192915050565b6020815260006147e66020830184614a61565b80356001600160a01b0381168114614ab757600080fd5b919050565b600060208284031215614ace57600080fd5b6147e682614aa0565b6001600160401b0381168114613fe157600080fd5b600060208284031215614afe57600080fd5b81356147e681614ad7565b634e487b7160e01b600052604160045260246000fd5b604080519081016001600160401b0381118282101715614b4157614b41614b09565b60405290565b60405161020081016001600160401b0381118282101715614b4157614b41614b09565b604051601f8201601f191681016001600160401b0381118282101715614b9257614b92614b09565b604052919050565b60008060408385031215614bad57600080fd5b614bb683614aa0565b91506020808401356001600160401b0380821115614bd357600080fd5b818601915086601f830112614be757600080fd5b813581811115614bf957614bf9614b09565b614c0b601f8201601f19168501614b6a565b91508082528784828501011115614c2157600080fd5b80848401858401376000848284010152508093505050509250929050565b60008060008060008060c08789031215614c5857600080fd5b614c6187614aa0565b9550614c6f60208801614aa0565b9450614c7d60408801614aa0565b9350614c8b60608801614aa0565b9250614c9960808801614aa0565b915060a0870135614ca981614ad7565b809150509295509295509295565b6001600160801b0381168114613fe157600080fd5b600080600080600060a08688031215614ce457600080fd5b8535614cef81614cb7565b94506020860135614cff81614ad7565b9350604086013560058110614d1357600080fd5b92506060860135614d2381614ad7565b949793965091946080013592915050565b600060208284031215614d4657600080fd5b5035919050565b60008060408385031215614d6057600080fd5b614d6983614aa0565b91506020830135614d7981614cb7565b809150509250929050565b600060208284031215614d9657600080fd5b813560ff811681146147e657600080fd5b60008060408385031215614dba57600080fd5b50508035926020909101359150565b600060208284031215614ddb57600080fd5b81356147e681614cb7565b60008060008060808587031215614dfc57600080fd5b614e0585614aa0565b93506020850135614e1581614ad7565b92506040850135614e2581614ad7565b91506060850135614e3581614ad7565b939692955090935050565b600080600060608486031215614e5557600080fd5b614e5e84614aa0565b92506020840135614e6e81614ad7565b91506040840135614e7e81614ad7565b809150509250925092565b8051614ab781614cb7565b600060208284031215614ea657600080fd5b81516147e681614cb7565b634e487b7160e01b600052601160045260246000fd5b6001600160801b03828116828216039080821115614ee757614ee7614eb1565b5092915050565b80820281158282048414176109c3576109c3614eb1565b634e487b7160e01b600052601260045260246000fd5b600082614f2a57614f2a614f05565b500490565b60208082526016908201527521b0b63632b91034b9903737ba1030b71030b236b4b760511b604082015260600190565b634e487b7160e01b600052602160045260246000fd5b60208101600b8310614f8957614f89614f5f565b91905290565b80518015158114614ab757600080fd5b600060208284031215614fb157600080fd5b6147e682614f8f565b805169ffffffffffffffffffff81168114614ab757600080fd5b600080600080600060a08688031215614fec57600080fd5b614ff586614fba565b945060208601519350604086015192506060860151915061501860808701614fba565b90509295509295909350565b6020810160078310614f8957614f89614f5f565b60208082526006908201526514185d5cd95960d21b604082015260600190565b6001600160801b0381811683821602808216919082811461507b5761507b614eb1565b505092915050565b6001600160801b0385168152602081018490526040810183905260808101600583106150b1576150b1614f5f565b82606083015295945050505050565b6000602082840312156150d257600080fd5b5051919050565b818103818111156109c3576109c3614eb1565b8051614ab781614ad7565b60006040828403121561510957600080fd5b615111614b1f565b61511a83614f8f565b8152602083015161512a81614ad7565b60208201529392505050565b60006001600160801b038084168061515057615150614f05565b92169190910492915050565b600081830361022081121561517057600080fd5b615178614b1f565b835161518381614ad7565b8152610200601f19830181131561519957600080fd5b6151a1614b47565b92506151af602086016150ec565b83526151bd60408601614e89565b60208401526151ce60608601614e89565b60408401526151df608086016150ec565b60608401526151f060a08601614e89565b608084015261520160c08601614e89565b60a084015261521260e08601614e89565b60c0840152610100615225818701614f8f565b60e0850152610120615238818801614e89565b82860152610140915061524c828801614f8f565b9085015261016061525e8782016150ec565b8286015261018091506152728288016150ec565b908501526101a0615284878201614e89565b828601526101c09150615298828801614e89565b908501526101e06152aa878201614e89565b828601526152b98388016150ec565b90850152505060208101919091529392505050565b6001600160a01b03841681526001600160401b0383811660208301528251166040820152610240810160208301516001600160801b03811660608401525060408301516001600160801b03811660808401525060608301516001600160401b03811660a08401525060808301516001600160801b03811660c08401525060a08301516001600160801b03811660e08401525060c083015161010061537c818501836001600160801b03169052565b60e085015191506101206153938186018415159052565b908501519150610140906153b1858301846001600160801b03169052565b85015191506101606153c68582018415159052565b908501519150610180906153e4858301846001600160401b03169052565b85015191506101a0615400858201846001600160401b03169052565b9085015191506101c09061541e858301846001600160801b03169052565b85015191506101e061543a858201846001600160801b03169052565b908501516001600160801b03166102008501528401516001600160401b038116610220850152905050949350505050565b808201808211156109c3576109c3614eb1565b60006060828403121561549057600080fd5b604051606081018181106001600160401b03821117156154b2576154b2614b09565b6040528251815260208301516154c781614cb7565b602082015260408301516154da81614cb7565b60408201529392505050565b6001600160a01b039290921682526001600160801b0316602082015260400190565b6001600160401b0381811683821602808216919082811461507b5761507b614eb1565b6001600160801b03818116838216019080821115614ee757614ee7614eb1565b60006001600160801b0380831681810361556757615567614eb1565b6001019392505050565b6040815260006155846040830185614a61565b90508260208301529392505050565b600082516155a5818460208701614a3d565b919091019291505056fe360894a13ba1a3210667c828492db98dca3e2076cc3735a920a3ca505d382bbca26469706673582212209b18262ec229c2226ea605e8b4bee4564e49eaff741afea62abe82b7d18426d564736f6c63430008140033","linkReferences":{}},"methodIdentifiers":{"APY()":"ef8bd305","DOMAIN_SEPARATOR()":"3644e515","PERMIT_TYPEHASH()":"30adf81f","UPGRADE_INTERFACE_VERSION()":"ad3cb1cc","abond()":"50d7ede2","amint()":"503e6322","calculateCumulativeRate()":"181ab6db","calculateRatio(uint256,uint256)":"ada0b0ed","cds()":"b4eb10ce","cdsAddress()":"fe925884","depositTokens(uint128,uint64,uint8,uint64,uint256)":"5e34783e","getLTV()":"4ed2b8ac","getLastEthVaultValue()":"715cad17","getUSDValue()":"50593af7","initialize(address,address,address,address,address,uint64)":"5a606b41","isContract(address)":"16279055","lastCDSPoolValue()":"84e92128","lastCumulativeRate()":"8e4db39a","lastEthVaultValue()":"99eb2f6c","liquidate(address,uint64,uint64)":"d5c28dba","multiSign()":"9e6fe439","name()":"06fdde03","noOfLiquidations()":"38a912d5","options()":"1069143a","owner()":"8da5cb5b","priceFeedAddress()":"e0abca0b","proxiableUUID()":"52d1902d","ratePerSec()":"3b486a25","redeemYields(address,uint128)":"80ddebcb","renounceOwnership()":"715018a6","setAPR(uint128)":"c1bab32d","setAdmin(address)":"704b6c02","setBondRatio(uint64)":"276eb3ac","setLTV(uint8)":"aad2476d","setOptions(address)":"7d6dff7d","setTreasury(address)":"f0f44260","setWithdrawTimeLimit(uint64)":"868c10d2","totalNormalizedAmount()":"6fdc5203","transferOwnership(address)":"f2fde38b","treasury()":"61d027b3","treasuryAddress()":"c5f956af","updateLastEthVaultValue(uint256)":"661b7d3e","upgradeToAndCall(address,bytes)":"4f1ef286","version()":"54fd4d50","withDraw(address,uint64,uint64,uint64)":"c8101461"},"id":4}