{"abi":[{"type":"constructor","inputs":[{"name":"_tokenAddress","type":"address","internalType":"address"},{"name":"_cds","type":"address","internalType":"address"},{"name":"_protocolToken","type":"address","internalType":"address"},{"name":"_priceFeedAddress","type":"address","internalType":"address"}],"stateMutability":"nonpayable"},{"type":"function","name":"APY","inputs":[],"outputs":[{"name":"","type":"uint8","internalType":"uint8"}],"stateMutability":"view"},{"type":"function","name":"Trinity","inputs":[],"outputs":[{"name":"","type":"address","internalType":"contract ITrinityToken"}],"stateMutability":"view"},{"type":"function","name":"admin","inputs":[],"outputs":[{"name":"","type":"address","internalType":"address"}],"stateMutability":"view"},{"type":"function","name":"calculateCumulativeRate","inputs":[],"outputs":[{"name":"","type":"uint256","internalType":"uint256"}],"stateMutability":"nonpayable"},{"type":"function","name":"cds","inputs":[],"outputs":[{"name":"","type":"address","internalType":"contract CDSInterface"}],"stateMutability":"view"},{"type":"function","name":"cdsAddress","inputs":[],"outputs":[{"name":"","type":"address","internalType":"address"}],"stateMutability":"view"},{"type":"function","name":"depositToAaveProtocol","inputs":[],"outputs":[],"stateMutability":"nonpayable"},{"type":"function","name":"depositToCompoundProtocol","inputs":[],"outputs":[],"stateMutability":"nonpayable"},{"type":"function","name":"depositTokens","inputs":[{"name":"_ethPrice","type":"uint128","internalType":"uint128"},{"name":"_depositTime","type":"uint64","internalType":"uint64"},{"name":"_strikePrice","type":"uint64","internalType":"uint64"}],"outputs":[],"stateMutability":"payable"},{"type":"function","name":"getAPY","inputs":[],"outputs":[{"name":"","type":"uint8","internalType":"uint8"}],"stateMutability":"view"},{"type":"function","name":"getLTV","inputs":[],"outputs":[{"name":"","type":"uint8","internalType":"uint8"}],"stateMutability":"view"},{"type":"function","name":"getUSDValue","inputs":[],"outputs":[{"name":"","type":"uint256","internalType":"uint256"}],"stateMutability":"view"},{"type":"function","name":"initializeTreasury","inputs":[{"name":"_treasury","type":"address","internalType":"address"}],"outputs":[],"stateMutability":"nonpayable"},{"type":"function","name":"lastCDSPoolValue","inputs":[],"outputs":[{"name":"","type":"uint256","internalType":"uint256"}],"stateMutability":"view"},{"type":"function","name":"lastCumulativeRate","inputs":[],"outputs":[{"name":"","type":"uint256","internalType":"uint256"}],"stateMutability":"view"},{"type":"function","name":"lastEthVaultValue","inputs":[],"outputs":[{"name":"","type":"uint256","internalType":"uint256"}],"stateMutability":"view"},{"type":"function","name":"lastEthprice","inputs":[],"outputs":[{"name":"","type":"uint128","internalType":"uint128"}],"stateMutability":"view"},{"type":"function","name":"lastTotalCDSPool","inputs":[],"outputs":[{"name":"","type":"uint256","internalType":"uint256"}],"stateMutability":"view"},{"type":"function","name":"liquidate","inputs":[{"name":"_user","type":"address","internalType":"address"},{"name":"_index","type":"uint64","internalType":"uint64"},{"name":"currentEthPrice","type":"uint64","internalType":"uint64"}],"outputs":[],"stateMutability":"nonpayable"},{"type":"function","name":"noOfLiquidations","inputs":[],"outputs":[{"name":"","type":"uint128","internalType":"uint128"}],"stateMutability":"view"},{"type":"function","name":"options","inputs":[],"outputs":[{"name":"","type":"address","internalType":"contract IOptions"}],"stateMutability":"view"},{"type":"function","name":"owner","inputs":[],"outputs":[{"name":"","type":"address","internalType":"address"}],"stateMutability":"view"},{"type":"function","name":"priceFeedAddress","inputs":[],"outputs":[{"name":"","type":"address","internalType":"address"}],"stateMutability":"view"},{"type":"function","name":"protocolToken","inputs":[],"outputs":[{"name":"","type":"address","internalType":"contract IProtocolToken"}],"stateMutability":"view"},{"type":"function","name":"renounceOwnership","inputs":[],"outputs":[],"stateMutability":"nonpayable"},{"type":"function","name":"setAPY","inputs":[{"name":"_apy","type":"uint8","internalType":"uint8"}],"outputs":[],"stateMutability":"nonpayable"},{"type":"function","name":"setAdmin","inputs":[{"name":"_admin","type":"address","internalType":"address"}],"outputs":[],"stateMutability":"nonpayable"},{"type":"function","name":"setLTV","inputs":[{"name":"_LTV","type":"uint8","internalType":"uint8"}],"outputs":[],"stateMutability":"nonpayable"},{"type":"function","name":"setOptions","inputs":[{"name":"_options","type":"address","internalType":"address"}],"outputs":[],"stateMutability":"nonpayable"},{"type":"function","name":"totalAmintSupply","inputs":[],"outputs":[{"name":"","type":"uint256","internalType":"uint256"}],"stateMutability":"view"},{"type":"function","name":"totalDiracSupply","inputs":[],"outputs":[{"name":"","type":"uint256","internalType":"uint256"}],"stateMutability":"view"},{"type":"function","name":"totalNormalizedAmount","inputs":[],"outputs":[{"name":"","type":"uint256","internalType":"uint256"}],"stateMutability":"view"},{"type":"function","name":"transferOwnership","inputs":[{"name":"newOwner","type":"address","internalType":"address"}],"outputs":[],"stateMutability":"nonpayable"},{"type":"function","name":"treasury","inputs":[],"outputs":[{"name":"","type":"address","internalType":"contract ITreasury"}],"stateMutability":"view"},{"type":"function","name":"treasuryAddress","inputs":[],"outputs":[{"name":"","type":"address","internalType":"address"}],"stateMutability":"view"},{"type":"function","name":"updateLastEthVaultValue","inputs":[{"name":"_amount","type":"uint256","internalType":"uint256"}],"outputs":[],"stateMutability":"nonpayable"},{"type":"function","name":"withDraw","inputs":[{"name":"_toAddress","type":"address","internalType":"address"},{"name":"_index","type":"uint64","internalType":"uint64"},{"name":"_ethPrice","type":"uint64","internalType":"uint64"},{"name":"_withdrawTime","type":"uint64","internalType":"uint64"},{"name":"_bondRatio","type":"uint64","internalType":"uint64"}],"outputs":[],"stateMutability":"nonpayable"},{"type":"function","name":"withdrawFromAaveProtocol","inputs":[{"name":"index","type":"uint64","internalType":"uint64"},{"name":"amount","type":"uint256","internalType":"uint256"}],"outputs":[],"stateMutability":"nonpayable"},{"type":"function","name":"withdrawFromCompoundProtocol","inputs":[{"name":"index","type":"uint64","internalType":"uint64"}],"outputs":[],"stateMutability":"nonpayable"},{"type":"event","name":"Deposit","inputs":[{"name":"index","type":"uint64","indexed":false,"internalType":"uint64"},{"name":"depositedAmount","type":"uint256","indexed":false,"internalType":"uint256"},{"name":"borrowAmount","type":"uint256","indexed":false,"internalType":"uint256"},{"name":"normalizedAmount","type":"uint256","indexed":false,"internalType":"uint256"}],"anonymous":false},{"type":"event","name":"OwnershipTransferred","inputs":[{"name":"previousOwner","type":"address","indexed":true,"internalType":"address"},{"name":"newOwner","type":"address","indexed":true,"internalType":"address"}],"anonymous":false},{"type":"event","name":"Withdraw","inputs":[{"name":"borrowDebt","type":"uint256","indexed":false,"internalType":"uint256"},{"name":"withdrawAmount","type":"uint128","indexed":false,"internalType":"uint128"},{"name":"noOfAbond","type":"uint128","indexed":false,"internalType":"uint128"}],"anonymous":false},{"type":"error","name":"Borrowing_DepositFailed","inputs":[]},{"type":"error","name":"Borrowing_GettingETHPriceFailed","inputs":[]},{"type":"error","name":"Borrowing_LiquidateBurnFailed","inputs":[]},{"type":"error","name":"Borrowing_LiquidateEthTransferToCdsFailed","inputs":[]},{"type":"error","name":"Borrowing_MUSDMintFailed","inputs":[]},{"type":"error","name":"Borrowing_WithdrawBurnFailed","inputs":[]},{"type":"error","name":"Borrowing_WithdrawEthTransferFailed","inputs":[]},{"type":"error","name":"Borrowing_WithdrawMUSDTransferFailed","inputs":[]},{"type":"error","name":"Borrowing_pTokenMintFailed","inputs":[]}],"bytecode":{"object":"0x60808060405234620001e75760808162003e348038038091620000238285620001ec565b833981010312620001e757620000398162000226565b9060a06200004a6020830162000226565b926004620000696060620000616040870162000226565b950162000226565b946000958693845491600180881b0319923384821617875560405198899788966001808c1b038096819582947f8be0079c531659141344cd1fd0a4f28419497f9722a3daafe3b4186f6b6457e0843393169180a372989680000000000000000000000000000f42406014557b033b2e3c9fd0803ce80000000000000000000000000000000000271060155516876001541617600155168086600254161760025585600854161760085516836003541617600355168091600b541617600b55633fabe5a360e21b82525afa918215620001db5780926200017f575b8260018060801b0380620f424060018060801b031993041682600c541617600c554216906011541617601155604051613be39081620002518239f35b90915060a0823d8211620001d2575b816200019d60a09383620001ec565b81010312620001cf5750620001b2816200023b565b50620001c66080602083015192016200023b565b50388062000143565b80fd5b3d91506200018e565b604051903d90823e3d90fd5b600080fd5b601f909101601f19168101906001600160401b038211908210176200021057604052565b634e487b7160e01b600052604160045260246000fd5b51906001600160a01b0382168203620001e757565b51906001600160501b0382168203620001e75756fe6080604052600436101561001257600080fd5b60003560e01c80630e93f616146102825780631069143a1461027d578063181ab6db146102785780631a465fe1146102735780632bf169271461026e5780632feabb521461026957806338a912d5146102645780633ed086f41461025f5780633f3006b41461025a5780634ed2b8ac1461025557806350593af714610250578063606303f81461024b57806361d027b314610246578063661b7d3e146102415780636fdc52031461023c578063704b6c0214610237578063715018a61461023257806373ca55a21461022d5780637d6dff7d146102285780638196b0a31461022357806384e921281461021e5780638da5cb5b146102195780638e4db39a1461021457806398afda431461020f57806399eb2f6c1461020a578063aad2476d14610205578063b3aebb9c14610200578063b4eb10ce146101fb578063b8f49090146101f6578063c5f956af146101f1578063d2cbf7ad146101d8578063d5c28dba146101ec578063e0abca0b146101e7578063e42f8090146101e2578063e6d97f17146101dd578063ef8bd305146101d8578063f2fde38b146101d3578063f851a440146101ce5763fe925884146101c957600080fd5b61243b565b612412565b61234f565b611b38565b612326565b612308565b6122df565b611b5c565b611b0f565b611abb565b611a92565b611a74565b611a30565b611a12565b6119bb565b61199d565b611974565b611956565b6118dd565b61180a565b61177f565b611719565b611656565b611638565b6115a4565b61157b565b61155d565b611492565b61146e565b6113ea565b6112f0565b6112cf565b6112a8565b610780565b610741565b61071e565b6106f5565b6102ae565b6001600160801b0381160361029857565b600080fd5b6001600160401b0381160361029857565b60603660031901126102985760048035906102c882610287565b6103af602435926102d88461029d565b6044356102e48161029d565b6102ef341515612464565b6102fb343331116124b0565b6001600160801b039461034d610313878516346136a8565b6001600160401b036103446103386103336015546001600160801b031690565b612538565b6001600160801b031690565b911610156125f5565b8454610369906001600160a01b03165b6001600160a01b031690565b6040805163dcb71f3f60e01b8152338882019081526001600160801b03871660208201526001600160401b03909416848301529590928392879290918391829160600190565b039134905af193841561064d5760009081956106b8575b50156106a9576103d7833433612afb565b85549095906103ee906001600160a01b031661035d565b8251634d5c56a560e01b8152338184019081526001600160401b0388166020820152610200939291908490829081906040010381855afa93841561064d57600094610678575b50506001600160801b03888a16166080840152803b15610298578351632e449f1760e21b81523383820190815260016020820152909160009183919082908490829060400103925af1801561064d57610665575b50805461049d906001600160a01b031661035d565b803b15610298578351630e6840d960e11b815233838201908152602081018a9052909160009183919082908490829060400103925af1801561064d57610652575b506105366105136104ed613959565b61050e6104ff61033860155460801c90565b610509818d612864565b612864565b61288d565b6001600160801b038a82161660a0850152946001600160401b03166101a0840152565b805461054a906001600160a01b031661035d565b91823b156102985761057792876000809487519687958694859363f19aca5760e01b85523390850161289c565b03925af196871561064d576105e561062f95610603937f3f7c04c09b19100060129256b7d82f055d0aa72cf17042fb3f2d41d1fffc02609a610634575b506105c96105c487600a54612a0d565b600a55565b6001600160801b03166001600160801b0319600c541617600c55565b42166001600160801b03166001600160801b03196011541617601155565b51938493349085909493926060926001600160401b036080840197168352602083015260408201520152565b0390a1005b8061064161064792612650565b806106ea565b386105b4565b6126c9565b8061064161065f92612650565b386104de565b8061064161067292612650565b38610488565b610698929450803d106106a2575b6106908183612668565b81019061272a565b9050913880610434565b503d610686565b51634fad3b0960e01b81528490fd5b9050816106db9295503d86116106e3575b6106d38183612668565b8101906126a3565b9390386103c6565b503d6106c9565b600091031261029857565b34610298576000366003190112610298576005546040516001600160a01b039091168152602090f35b34610298576000366003190112610298576020610739613959565b604051908152f35b34610298576000366003190112610298576003546040516001600160a01b039091168152602090f35b600435906001600160a01b038216820361029857565b346102985760a03660031901126102985761079961076a565b6107a460243561029d565b6107af60443561029d565b6107ba60643561029d565b6107c560843561029d565b6001600160a01b03811615158061129a575b6107e090612c3b565b6001600160401b039061080d82604435166001600160801b03166001600160801b0319600c541617600c55565b601180546fffffffffffffffffffffffffffffffff1916426001600160801b0316179055600454610846906001600160a01b031661035d565b604051634d5c56a560e01b8152336004820152602480356001600160401b0316908201529290610200908190859081806044810103915afa93841561064d576000918295611276575b5050602435821690821610611222576108bb6108b66108b2610120860151151590565b1590565b612ca0565b60e08301516111d15760ff6108d460c085015160ff1690565b16806110ba57506001600160801b0361090d6108f1604435612cec565b8361090660608801516001600160801b031690565b9116612d23565b1661091b611f408211612d3b565b61095c61094761093560a08701516001600160801b031690565b6001600160801b036010549116612864565b61095661033860155460801c90565b9061288d565b9161097061096b610947613959565b601055565b600154610985906001600160a01b031661035d565b6040516370a0823160e01b815233600482015290602082602481845afa90811561064d576020610a9c600092610a7289610a6d610a5d6103388f6109d8856103389c8f9e8d9161109d575b501015612d42565b6001600160401b03604435166101408201526001600160401b0360643516610160820152600160c0820152610a58610a48610a438b610a2f6080860199610a296103388c516001600160801b031690565b90612d99565b9f604435169401516001600160801b031690565b61256b565b6001600160801b03606491160490565b6125d7565b978892516001600160801b031690565b612d99565b6040516363a9f09360e11b8152336004820152602481019190915293849283919082906044820190565b03925af190811561064d5760009161107e575b501561106c57600154610b14906020908390610ad3906001600160a01b031661035d565b6007546040516323b872dd60e01b81523360048201526001600160a01b03909116602482015260448101929092529092839190829060009082906064820190565b03925af190811561064d5760009161104d575b501561103b57610b3c6105c486600a54612d99565b600454610b51906001600160a01b031661035d565b803b156102985760405163b9a221eb60e01b815260048101939093526000908390602490829084905af191821561064d57610b9692611028575b506084359033612eb6565b6001600160801b038116610180870152600454610bbb906001600160a01b031661035d565b803b156102985760405163ef0d5dc160e01b8152916000918391829084908290610be9903360048401612da6565b03925af1801561064d57611015575b50600454610c0e906001600160a01b031661035d565b90813b15610298576000604051809363f19aca5760e01b8252818381610c3b8c602435336004850161289c565b03925af191821561064d57610c8c92611002575b50610c87610c6760208801516001600160801b031690565b916044351691610c8160608901516001600160801b031690565b906125d7565b612d23565b9061271080821115610f68575050600554610d219190602090610cb7906001600160a01b031661035d565b868201516001600160801b031690610cda6101a08901516001600160401b031690565b6040518096819482936310335d6b60e21b845260443591600485019160409194936001600160801b0360608501961684526001600160401b03809216602085015216910152565b03915afa91821561064d57610d51610a48610d4c600095602095610da9958892610f39575b50612dde565b612586565b94610d6d610d5d612df9565b6001600160801b03881690613b16565b600454610d82906001600160a01b031661035d565b90604051948580948193637f32905760e11b8352604435908b602435913360048701612e32565b03925af190811561064d57600091610f0a575b5015610ef857600154610dd7906001600160a01b031661035d565b926040516020816004816318160ddd60e01b988982525afa801561064d57610e0791600091610ed9575b50601255565b600354602090610e1f906001600160a01b031661035d565b9460046040518097819382525afa93841561064d5761018061062f92610e727f2dc3b614e32706dcf24286e69af4692f4b2c24fc339d659e80b26d49379b691497610e8094600091610eaa575b50601355565b01516001600160801b031690565b60405193849384916040919493606084019584526001600160801b03809216602085015216910152565b610ecc915060203d602011610ed2575b610ec48183612668565b810190612aec565b38610e6c565b503d610eba565b610ef2915060203d602011610ed257610ec48183612668565b38610e01565b604051635e5e86d560e01b8152600490fd5b610f2c915060203d602011610f32575b610f248183612668565b810190612ad8565b38610dbc565b503d610f1a565b610f5a919250873d8911610f61575b610f528183612668565b810190612dc9565b9038610d46565b503d610f48565b818103610f845750506020610da9610d51610a48600094612586565b90809250611f40109182610ff8575b505015610fba5760006020610da9610d51610a48610d4c848901516001600160801b031690565b60405162461bcd60e51b8152602060048201526016602482015275426f72726f77696e674865616c7468206973204c6f7760501b6044820152606490fd5b1090503880610f93565b8061064161100f92612650565b38610c4f565b8061064161102292612650565b38610bf8565b8061064161103592612650565b38610b8b565b604051630aae388960e41b8152600490fd5b611066915060203d602011610f3257610f248183612668565b38610b27565b6040516303f7009160e51b8152600490fd5b611097915060203d602011610f3257610f248183612668565b38610aaf565b6110b491508c3d8e11610ed257610ec48183612668565b386109d0565b6001141590506111d157816110dd6101606111159401516001600160401b031690565b6111076101006110f86101808501516001600160801b031690565b9301516001600160801b031690565b9260443590602435906130a2565b60015461112a906001600160a01b031661035d565b60405190816318160ddd60e01b9182825281600460209586935afa801561064d5761115c916000916111ba5750601255565b6003548290611173906001600160a01b031661035d565b9160046040518094819382525afa90811561064d5761119b9260009261119d575b5050601355565b005b6111b39250803d10610ed257610ec48183612668565b3880611194565b610ef29150843d8611610ed257610ec48183612668565b60405162461bcd60e51b815260206004820152602360248201527f5573657220616c726561647920776974686472617720656e7469726520616d6f6044820152621d5b9d60ea1b6064820152608490fd5b60405162461bcd60e51b815260206004820152602660248201527f5573657220646f656e73277420686176652074686520706572746963756c6172604482015265040d2dcc8caf60d31b6064820152608490fd5b61129193955080919250903d106106a2576106908183612668565b9290388061088f565b50803b1515600114156107d7565b346102985760003660031901126102985760206001600160801b03600c5416604051908152f35b3461029857600036600319011261029857602060115460801c604051908152f35b346102985760203660031901126102985761130961076a565b611311613abe565b6001600160a01b03811690811515806113e0575b156113755761135361119b9260018060a01b03166bffffffffffffffffffffffff60a01b6004541617600455565b60018060a01b03166bffffffffffffffffffffffff60a01b6007541617600755565b60405162461bcd60e51b815260206004820152603960248201527f5472656173757279206d75737420626520636f6e74726163742061646472657360448201527f7320262063616e2774206265207a65726f2061646472657373000000000000006064820152608490fd5b50803b1515611325565b34610298576000602036600319011261146b576004356114098161029d565b611411613abe565b6004546001600160a01b0316908290823b156114675760246001600160401b03918360405195869485936306ef62b960e11b85521660048401525af1801561064d5761145b575080f35b61146490612650565b80f35b5080fd5b80fd5b3461029857600036600319011261029857602060ff60095460a01c16604051908152f35b346102985760008060031936011261146b57600b54604051633fabe5a360e21b81529060a090829060049082906001600160a01b03165afa91821561064d578092611508575b6115046114f4846109566103386014546001600160801b031690565b6040519081529081906020820190565b0390f35b90915060a0823d8211611555575b8161152360a09383612668565b8101031261146b57506114f48161153c61150493613691565b5061154e608060208301519201613691565b50916114d8565b3d9150611516565b34610298576000366003190112610298576020601354604051908152f35b34610298576000366003190112610298576004546040516001600160a01b039091168152602090f35b3461029857602036600319011261029857600754600435906001600160a01b031633036102985780156115e857600d549081039081116115e357600d55005b612522565b60405162461bcd60e51b815260206004820152602260248201527f4c61737420455448207661756c742076616c75652063616e2774206265207a65604482015261726f60f01b6064820152608490fd5b34610298576000366003190112610298576020600a54604051908152f35b346102985760203660031901126102985761166f61076a565b611677613abe565b6001600160a01b03811615158061170b575b156116af57600980546001600160a01b0319166001600160a01b03909216919091179055005b60405162461bcd60e51b815260206004820152602e60248201527f41646d696e2063616e277420626520636f6e747261637420616464726573732060448201526d26207a65726f206164647265737360901b6064820152608490fd5b506001813b15151415611689565b346102985760008060031936011261146b57611733613abe565b80546001600160a01b03198116825581906001600160a01b03167f8be0079c531659141344cd1fd0a4f28419497f9722a3daafe3b4186f6b6457e08280a380f35b60ff81160361029857565b346102985760203660031901126102985760043561179c81611774565b6117a4613abe565b60ff8116156117cc576009805460ff60a81b191660a89290921b60ff60a81b16919091179055005b60405162461bcd60e51b81526020600482015260166024820152754150592073686f756c64206e6f74206265207a65726f60501b6044820152606490fd5b346102985760203660031901126102985761182361076a565b61182b613abe565b6001600160a01b0381169081151590816118d2575b501561186757600580546001600160a01b0319166001600160a01b03909216919091179055005b60405162461bcd60e51b815260206004820152603860248201527f4f7074696f6e73206d75737420626520636f6e7472616374206164647265737360448201527f20262063616e2774206265207a65726f206164647265737300000000000000006064820152608490fd5b90503b151538611840565b34610298576000604036600319011261146b576004356118fc8161029d565b611904613abe565b6004546001600160a01b0316908290823b156114675760446001600160401b03918360405195869485936349ab819560e01b855216600484015260243560248401525af1801561064d5761145b575080f35b34610298576000366003190112610298576020600e54604051908152f35b34610298576000366003190112610298576000546040516001600160a01b039091168152602090f35b34610298576000366003190112610298576020601054604051908152f35b346102985760008060031936011261146b576119d5613abe565b60045481906001600160a01b0316803b15611a0f5781906004604051809481936301865f0760e21b83525af1801561064d5761145b575080f35b50fd5b34610298576000366003190112610298576020600d54604051908152f35b3461029857602036600319011261029857600435611a4d81611774565b611a55613abe565b6009805460ff60a01b191660a09290921b60ff60a01b16919091179055005b34610298576000366003190112610298576020601254604051908152f35b34610298576000366003190112610298576002546040516001600160a01b039091168152602090f35b346102985760008060031936011261146b57611ad5613abe565b60045481906001600160a01b0316803b15611a0f5781906004604051809481936306e1444d60e21b83525af1801561064d5761145b575080f35b34610298576000366003190112610298576007546040516001600160a01b039091168152602090f35b3461029857600036600319011261029857602060ff60095460a81c16604051908152f35b3461029857606036600319011261029857611b7561076a565b602435611b818161029d565b60443590611b8e8261029d565b6009546001600160a01b03908116330361029857611bbb908416611bb38115156134a9565b331415613501565b611bed611bd2611bcd60115460801c90565b61355b565b6001600160801b036011549181199060801b16911617601155565b60048054909290611c06906001600160a01b031661035d565b60408051634d5c56a560e01b81526001600160a01b0387168682019081526001600160401b03861660208201529296919461020094929390929190859082908190890103818b5afa94851561064d576000956122be575b505085610120850197611c7b611c766108b28b51151590565b613573565b602098898701938a611c9486516001600160801b031690565b938a5195868092630f27449560e01b82525afa801561064d578a946000916122a1575b506001600160801b038094161115611cce906135b4565b611cd790612cec565b908260608901928351611cf0906001600160801b031690565b611d02916001600160401b0316612d23565b16611f401015611d1190613600565b6001905260a08701516001600160801b0316601054611d31918416612864565b60155460801c6001600160801b0316611d499161288d565b611d51613959565b60155460801c6001600160801b0316611d699161288d565b601055828116938492838751611d85906001600160801b031690565b82516001600160801b0316611d99916125d7565b60646001600160801b039091160490611db191613643565b611dba906125a1565b60646001600160801b03909116049586918851611ddd906001600160801b031690565b90516001600160801b0316611df1916125d7565b60646001600160801b039091160490611e0991613643565b90611e1391613643565b611e1d8685612dde565b96611e2661365c565b50516001600160801b03166002548e906001600160a01b03166001600160a01b03168d51636e48f3a960e11b815294859182905a90600091f190811561064d578e9360009261227c575b50611e9e611ead9293611e816126d5565b6001600160801b038c168152958601906001600160801b03169052565b6001600160801b0316838d0152565b6060820152600254611ec7906001600160a01b031661035d565b90611ed460115460801c90565b90823b1561029857611f3a92600092838f8f519687958694859363b3013d4d60e01b85528401909291606060809160a08401956001600160801b038091168552808251166020860152806020830151166040860152604082015116828501520151910152565b03925af1801561064d57612269575b50600254611f5f906001600160a01b031661035d565b803b1561029857895163dc55b19360e01b81526001600160801b038716818d01908152909160009183919082908490829060200103925af1801561064d57612256575b50600254611fb8906001600160a01b031661035d565b803b15610298578951634cae95d360e01b81526001600160801b03909616868c01908152600091879182908490829060200103925af191821561064d576120109561200893612243575b50612d99565b911690612a0d565b8554612024906001600160a01b031661035d565b803b156102985785516308fc416760e21b815287810192835291600091839182908490829060200103925af1801561064d57612230575b508454612070906001600160a01b031661035d565b91823b156102985761209d9260009283869388519687958694859363f19aca5760e01b85528d850161289c565b03925af1801561064d5761221d575b5082546080906120c4906001600160a01b031661035d565b910180516001600160801b031691803b15610298578351630adfd5a560e21b81529260009184918290849082906120fe90308c8401612da6565b03925af190811561064d5761216592869261220a575b5060015461212a906001600160a01b031661035d565b600754612148906001600160a01b031692516001600160801b031690565b91600086518096819582946363a9f09360e11b84528b8401612da6565b03925af190811561064d576000916121ed575b50156121e057600154839190612196906001600160a01b031661035d565b90516318160ddd60e01b815292839182905afa90811561064d5761119b926000926121c3575b5050601255565b6121d99250803d10610ed257610ec48183612668565b38806121bc565b51632105f02360e11b8152fd5b6122049150843d8611610f3257610f248183612668565b38612178565b8061064161221792612650565b38612114565b8061064161222a92612650565b386120ac565b8061064161223d92612650565b3861205b565b8061064161225092612650565b38612002565b8061064161226392612650565b38611fa2565b8061064161227692612650565b38611f49565b611ead925061229a611e9e91863d8811610ed257610ec48183612668565b9250611e70565b6122b891508c8d3d10610ed257610ec48183612668565b38611cb7565b6122d5929550803d106106a2576106908183612668565b9050923880611c5d565b3461029857600036600319011261029857600b546040516001600160a01b039091168152602090f35b34610298576000366003190112610298576020600f54604051908152f35b34610298576000366003190112610298576001546040516001600160a01b039091168152602090f35b346102985760203660031901126102985761236861076a565b612370613abe565b6001600160a01b0390811680156123be57600080546001600160a01b03198116831782559092167f8be0079c531659141344cd1fd0a4f28419497f9722a3daafe3b4186f6b6457e08380a380f35b60405162461bcd60e51b815260206004820152602660248201527f4f776e61626c653a206e6577206f776e657220697320746865207a65726f206160448201526564647265737360d01b6064820152608490fd5b34610298576000366003190112610298576009546040516001600160a01b039091168152602090f35b34610298576000366003190112610298576008546040516001600160a01b039091168152602090f35b1561246b57565b60405162461bcd60e51b815260206004820152601a60248201527f43616e6e6f74206465706f736974207a65726f20746f6b656e730000000000006044820152606490fd5b156124b757565b60405162461bcd60e51b815260206004820152603e60248201527f596f7520646f206e6f7420686176652073756666696369656e742062616c616e60448201527f636520746f20657865637574652074686973207472616e73616374696f6e00006064820152608490fd5b634e487b7160e01b600052601160045260246000fd5b60011b907001fffffffffffffffffffffffffffffffe6ffffffffffffffffffffffffffffffffe8316921682036115e357565b906001600160801b03809216600a029182169182036115e357565b9060326001600160801b03809316029182169182036115e357565b90600a6001600160801b03809316029182169182036115e357565b9060646001600160801b03809316029182169182036115e357565b9190916001600160801b03808094169116029182169182036115e357565b156125fc57565b60405162461bcd60e51b81526020600482015260166024820152754e6f7420656e6f7567682066756e6420696e2043445360501b6044820152606490fd5b634e487b7160e01b600052604160045260246000fd5b6001600160401b03811161266357604052565b61263a565b90601f801991011681019081106001600160401b0382111761266357604052565b5190811515820361029857565b51906126a18261029d565b565b91908260409103126102985760206126ba83612689565b9201516126c68161029d565b90565b6040513d6000823e3d90fd5b60405190608082018281106001600160401b0382111761266357604052565b604051906101e082018281106001600160401b0382111761266357604052565b51906126a182610287565b51906126a182611774565b8092910361020081126102985782516127428161029d565b926101e08092601f1901126102985761285d61275c6126f4565b9261276960208401612696565b845261277760408401612714565b602085015261278860608401612696565b604085015261279960808401612714565b60608501526127aa60a08401612714565b60808501526127bb60c08401612714565b60a08501526127cc60e0840161271f565b60c0850152610100926127e0848201612689565b60e0860152610120936127f4858301612714565b9086015261014093612807858301612689565b908601526101609361281a858301612696565b908601526101809361282d858301612696565b908601526101a093612840858301612714565b908601526101c093612853858301612696565b9086015201612696565b9082015290565b818102929181159184041417156115e357565b634e487b7160e01b600052601260045260246000fd5b8115612897570490565b612877565b6001600160a01b0390911681526001600160401b03918216602082015282519091166040820152610220810192916126a191906102009060208101516001600160801b0316606084015260408101516001600160401b0316608084015260608101516001600160801b031660a084015260808101516001600160801b031660c084015260a08101516001600160801b031660e084015260c08101519061294a610100928386019060ff169052565b6129fd60e082015192612964610120948588019015159052565b8201519261298061014094858801906001600160801b03169052565b82015192612995610160948588019015159052565b820151926129b161018094858801906001600160401b03169052565b820151926129cd6101a094858801906001600160401b03169052565b820151926129e96101c094858801906001600160801b03169052565b8201516001600160401b03166101e0860152565b01516001600160401b0316910152565b919082018092116115e357565b15612a2157565b60405162461bcd60e51b815260206004820152601f60248201527f426f72726f7765722063616e6e6f74206265207a65726f2061646472657373006044820152606490fd5b15612a6d57565b60405162461bcd60e51b815260206004820152603860248201527f4c5456206d7573742062652073657420746f206e6f6e2d7a65726f2076616c7560448201527f65206265666f72652070726f766964696e67206c6f616e7300000000000000006064820152608490fd5b90816020910312610298576126c690612689565b90816020910312610298575190565b91612b6091612b4b919061050990612b1d6001600160a01b0387161515612a1a565b6001600160801b0360ff612b3760095460ff9060a01c1690565b1693612b44851515612a66565b1690612864565b6109566103386015546001600160801b031690565b60015490918291612b79906001600160a01b031661035d565b6040516340c10f1960e01b81526001600160a01b0392909216600483015260248201929092526020918290829060449082906000905af190811561064d57600091612c1e575b5015612c0c576001546004908290612bdf906001600160a01b031661035d565b6040516318160ddd60e01b815292839182905afa90811561064d576126c6926000926121c3575050601255565b6040516309ad720160e01b8152600490fd5b612c359150823d8411610f3257610f248183612668565b38612bbf565b15612c4257565b60405162461bcd60e51b815260206004820152603060248201527f546f20616464726573732063616e6e6f742062652061207a65726f20616e642060448201526f636f6e7472616374206164647265737360801b6064820152608490fd5b15612ca757565b60405162461bcd60e51b815260206004820152601f60248201527f5573657220616d6f756e7420686173206265656e206c697175696461746564006044820152606490fd5b906127106001600160401b03809316029182169182036115e357565b9060646001600160401b03809316029182169182036115e357565b906001600160801b0380911691821561289757160490565b15610fba57565b15612d4957565b60405162461bcd60e51b815260206004820152602260248201527f557365722062616c616e6365206973206c657373207468616e20726571756972604482015261195960f21b6064820152608490fd5b919082039182116115e357565b6001600160a01b0390911681526001600160801b03909116602082015260400190565b9081602091031261029857516126c681610287565b9190916001600160801b03808094169116019182116115e357565b60405190604082018281106001600160401b0382111761266357604052600d82526c32ba34103a37903932ba3ab93760991b6020830152565b6001600160a01b039182168152911660208201526001600160801b0390911660408201526001600160401b0391821660608201529116608082015260a00190565b15612e7a57565b60405162461bcd60e51b8152602060048201526014602482015273416d6f756e742063616e2774206265207a65726f60601b6044820152606490fd5b91612f02612ef6612ef06001600160801b03612f0895612edf60018060a01b0389161515612a1a565b612eea811515612e73565b166125bc565b92612d08565b6001600160401b031690565b90612d23565b60035490918291612f21906001600160a01b031661035d565b9060405180926340c10f1960e01b825281600081612f46602098899760048401612da6565b03925af190811561064d57600091612fb8575b5015612fa6576003546004908290612f79906001600160a01b031661035d565b6040516318160ddd60e01b815292839182905afa90811561064d576126c69260009261119d575050601355565b6040516368a3803760e11b8152600490fd5b612fcf9150823d8411610f3257610f248183612668565b38612f59565b9062278d006001600160401b03809316019182116115e357565b15612ff657565b60405162461bcd60e51b815260206004820152602860248201527f41206d6f6e7468206e6f742079657420636f6d706c657465642073696e636520604482015267776974686472617760c01b6064820152608490fd5b1561305357565b60405162461bcd60e51b815260206004820152602160248201527f446f6e2774206861766520656e6f7567682050726f746f636f6c20546f6b656e6044820152607360f81b6064820152608490fd5b92916130c06130b8612ef6613105989495612fd5565b421015612fef565b6003546130d5906001600160a01b031661035d565b604080516370a0823160e01b81523360048083019190915298919760209793909288918391829081906024820190565b03915afa801561064d5761312c9160009161348c575b506001600160801b0383161461304c565b87548590613142906001600160a01b031661035d565b8851634d5c56a560e01b8152338b82019081526001600160401b039093166020840152610200928390829081906040010381855afa92831561064d5760009361346b575b505081880180516001600160801b031691803b15610298576131c2926000918d838e51809781958294631b35376f60e21b845233908401612da6565b03925af191821561064d57600092613458575b5052600160e0820152600260c082015288546131f9906001600160a01b031661035d565b803b1561029857600083613224928c838d51809681958294630edd59bf60e21b845233908401612da6565b03925af1801561064d57613445575b5060006101808201528854613250906001600160a01b031661035d565b803b156102985760008261327d9289838e8e519687958694859363f19aca5760e01b85523390850161289c565b03925af1801561064d578a926132f2928a92613432575b506001546132aa906001600160a01b031661035d565b6007546132d490610a4890610d4c906080906001600160a01b03169501516001600160801b031690565b9160008d518096819582946363a9f09360e11b9a8b85528401612da6565b03925af190811561064d57600091613415575b50156134055761333d9187918a600061332861035d60035460018060a01b031690565b928c5196879586948593845233908401612da6565b03925af190811561064d576000916133e8575b50156133d8579084929160008861339061337361035d835460018060a01b031690565b948a5198899788968795637f32905760e11b875233908701612e32565b03925af191821561064d576000926133bb575b5050156133ae575050565b51635e5e86d560e01b8152fd5b6133d19250803d10610f3257610f248183612668565b38806133a3565b85516303f7009160e51b81528790fd5b6133ff9150863d8811610f3257610f248183612668565b38613350565b87516303f7009160e51b81528990fd5b61342c9150883d8a11610f3257610f248183612668565b38613305565b8061064161343f92612650565b38613294565b8061064161345292612650565b38613233565b8061064161346592612650565b386131d5565b613482929350803d106106a2576106908183612668565b9050903880613186565b6134a39150883d8a11610ed257610ec48183612668565b3861311b565b156134b057565b60405162461bcd60e51b815260206004820152602360248201527f546f20616464726573732063616e6e6f742062652061207a65726f206164647260448201526265737360e81b6064820152608490fd5b1561350857565b60405162461bcd60e51b815260206004820152602560248201527f596f752063616e6e6f74206c697175696461746520796f7572206f776e206173604482015264736574732160d81b6064820152608490fd5b6001600160801b038091169081146115e35760010190565b1561357a57565b60405162461bcd60e51b8152602060048201526012602482015271105b1c9958591e48131a5c5d5a59185d195960721b6044820152606490fd5b156135bb57565b60405162461bcd60e51b815260206004820152601c60248201527f4e6f7420656e6f7567682066756e647320696e207472656173757279000000006044820152606490fd5b1561360757565b60405162461bcd60e51b8152602060048201526014602482015273596f752063616e6e6f74206c697175696461746560601b6044820152606490fd5b6001600160801b0391821690821603919082116115e357565b60405190608082018281106001600160401b038211176126635760405260006060838281528260208201528260408201520152565b519069ffffffffffffffffffff8216820361029857565b6000918015613947576004548391906136c9906001600160a01b031661035d565b604051906322d7586760e11b82528160048160209687945af194851561064d5794613928575b50613705610338600c546001600160801b031690565b81818111156139155761372b9161371b91612d99565b6001600160801b03861690612864565b905b60006001600160801b0380961615600014613827575061375761375282600096612864565b600d55565b600d546002549093908190613774906001600160a01b031661035d565b6004604051809881936315d9753160e11b83525af195861561064d576126c696612ef6966137ac9360009261380a575b505016600f55565b6137c1610338600c546001600160801b031690565b116137f6576137d56137da91600f54612a0d565b600e55565b61050e600e545b6137f061033860145460801c90565b90612864565b6137d561380591600f54612d99565b6137da565b6138209250803d10610f6157610f528183612668565b38806137a4565b613842819561383c84600d9796975492612864565b90612a0d565b9361384c85600d55565b6002548490613863906001600160a01b031661035d565b6004604051809981936315d9753160e11b83525af196871561064d576126c697612ef69761050e966138d495926138f8575b505016926138ae610338600c546001600160801b031690565b116138e2576138ce906138c9600e5461383c600f5487612d99565b612a0d565b91600f55565b6138dd81600e55565b6137e1565b6138ce90610a6d600e5461383c600f5487612d99565b61390e9250803d10610f6157610f528183612668565b3880613895565b61371b9061392292612d99565b9061372d565b613940919450823d8411610f6157610f528183612668565b92386136ef565b6040516315e73e9f60e01b8152600490fd5b600454600090602090613974906001600160a01b031661035d565b6004604051809481936322d7586760e11b83525af190811561064d57600091613a17575b506001600160801b039081166139cb57506b033b2e3cb548ff197d3905a16126c66b033b2e3cb548ff197d3905a1601055565b6126c661096b613a106139f46103386139ec6011546001600160801b031690565b864216613643565b936137f060105491613a0860155460801c90565b168096613a35565b928361288d565b613a2f915060203d8111610f6157610f528183612668565b38613998565b91906b033b2e3cb548ff197d3905a19060019081851615613ab75782945b81831c90831c93845b613a67575050505050565b8080029080820403610298578181019081106102985782900493838116613a92575b831c9384613a5c565b9584810290858204141585151516610298578181019081106102985782900495613a89565b8094613a53565b6000546001600160a01b03163303613ad257565b606460405162461bcd60e51b815260206004820152602060248201527f4f776e61626c653a2063616c6c6572206973206e6f7420746865206f776e65726044820152fd5b919060405190602090632d839cb360e21b828401526040602484015284519182606485015260005b838110613b7e5750506126a19394508282608492600084613b7996850101526044830152601f80199101168101036064810184520182612668565b613b92565b868101820151858201608401528101613b3e565b600080916020815191016a636f6e736f6c652e6c6f675afa5056fea2646970667358221220748e420e1cd701b6cef72828810b2534578b20f74e136b0f35bce35f19b1dc9f64736f6c63430008120033","linkReferences":{}},"methodIdentifiers":{"APY()":"ef8bd305","Trinity()":"e6d97f17","admin()":"f851a440","calculateCumulativeRate()":"181ab6db","cds()":"b4eb10ce","cdsAddress()":"fe925884","depositToAaveProtocol()":"98afda43","depositToCompoundProtocol()":"b8f49090","depositTokens(uint128,uint64,uint64)":"0e93f616","getAPY()":"d2cbf7ad","getLTV()":"4ed2b8ac","getUSDValue()":"50593af7","initializeTreasury(address)":"3ed086f4","lastCDSPoolValue()":"84e92128","lastCumulativeRate()":"8e4db39a","lastEthVaultValue()":"99eb2f6c","lastEthprice()":"2feabb52","lastTotalCDSPool()":"e42f8090","liquidate(address,uint64,uint64)":"d5c28dba","noOfLiquidations()":"38a912d5","options()":"1069143a","owner()":"8da5cb5b","priceFeedAddress()":"e0abca0b","protocolToken()":"1a465fe1","renounceOwnership()":"715018a6","setAPY(uint8)":"73ca55a2","setAdmin(address)":"704b6c02","setLTV(uint8)":"aad2476d","setOptions(address)":"7d6dff7d","totalAmintSupply()":"b3aebb9c","totalDiracSupply()":"606303f8","totalNormalizedAmount()":"6fdc5203","transferOwnership(address)":"f2fde38b","treasury()":"61d027b3","treasuryAddress()":"c5f956af","updateLastEthVaultValue(uint256)":"661b7d3e","withDraw(address,uint64,uint64,uint64,uint64)":"2bf16927","withdrawFromAaveProtocol(uint64,uint256)":"8196b0a3","withdrawFromCompoundProtocol(uint64)":"3f3006b4"},"id":2}