{"abi":[{"type":"constructor","inputs":[{"name":"_tokenAddress","type":"address","internalType":"address"},{"name":"_cds","type":"address","internalType":"address"},{"name":"_abondToken","type":"address","internalType":"address"},{"name":"_multiSign","type":"address","internalType":"address"},{"name":"_priceFeedAddress","type":"address","internalType":"address"},{"name":"chainId","type":"uint64","internalType":"uint64"}],"stateMutability":"nonpayable"},{"type":"function","name":"APY","inputs":[],"outputs":[{"name":"","type":"uint8","internalType":"uint8"}],"stateMutability":"view"},{"type":"function","name":"DOMAIN_SEPARATOR","inputs":[],"outputs":[{"name":"","type":"bytes32","internalType":"bytes32"}],"stateMutability":"view"},{"type":"function","name":"PERMIT_TYPEHASH","inputs":[],"outputs":[{"name":"","type":"bytes32","internalType":"bytes32"}],"stateMutability":"view"},{"type":"function","name":"abond","inputs":[],"outputs":[{"name":"","type":"address","internalType":"contract IABONDToken"}],"stateMutability":"view"},{"type":"function","name":"amint","inputs":[],"outputs":[{"name":"","type":"address","internalType":"contract IAMINT"}],"stateMutability":"view"},{"type":"function","name":"calculateCumulativeRate","inputs":[],"outputs":[{"name":"","type":"uint256","internalType":"uint256"}],"stateMutability":"nonpayable"},{"type":"function","name":"calculateRatio","inputs":[{"name":"_amount","type":"uint256","internalType":"uint256"},{"name":"currentEthPrice","type":"uint256","internalType":"uint256"}],"outputs":[{"name":"","type":"uint64","internalType":"uint64"}],"stateMutability":"nonpayable"},{"type":"function","name":"cds","inputs":[],"outputs":[{"name":"","type":"address","internalType":"contract CDSInterface"}],"stateMutability":"view"},{"type":"function","name":"cdsAddress","inputs":[],"outputs":[{"name":"","type":"address","internalType":"address"}],"stateMutability":"view"},{"type":"function","name":"depositToAaveProtocol","inputs":[],"outputs":[],"stateMutability":"nonpayable"},{"type":"function","name":"depositToCompoundProtocol","inputs":[],"outputs":[],"stateMutability":"nonpayable"},{"type":"function","name":"depositTokens","inputs":[{"name":"_ethPrice","type":"uint128","internalType":"uint128"},{"name":"_depositTime","type":"uint64","internalType":"uint64"},{"name":"_strikePercent","type":"uint8","internalType":"enum IOptions.StrikePrice"},{"name":"_strikePrice","type":"uint64","internalType":"uint64"},{"name":"_volatility","type":"uint256","internalType":"uint256"}],"outputs":[],"stateMutability":"payable"},{"type":"function","name":"getLTV","inputs":[],"outputs":[{"name":"","type":"uint8","internalType":"uint8"}],"stateMutability":"view"},{"type":"function","name":"getUSDValue","inputs":[],"outputs":[{"name":"","type":"uint256","internalType":"uint256"}],"stateMutability":"view"},{"type":"function","name":"initializeTreasury","inputs":[{"name":"_treasury","type":"address","internalType":"address"}],"outputs":[],"stateMutability":"nonpayable"},{"type":"function","name":"isContract","inputs":[{"name":"addr","type":"address","internalType":"address"}],"outputs":[{"name":"","type":"bool","internalType":"bool"}],"stateMutability":"view"},{"type":"function","name":"lastCDSPoolValue","inputs":[],"outputs":[{"name":"","type":"uint256","internalType":"uint256"}],"stateMutability":"view"},{"type":"function","name":"lastCumulativeRate","inputs":[],"outputs":[{"name":"","type":"uint256","internalType":"uint256"}],"stateMutability":"view"},{"type":"function","name":"lastEthVaultValue","inputs":[],"outputs":[{"name":"","type":"uint256","internalType":"uint256"}],"stateMutability":"view"},{"type":"function","name":"lastEthprice","inputs":[],"outputs":[{"name":"","type":"uint128","internalType":"uint128"}],"stateMutability":"view"},{"type":"function","name":"lastTotalCDSPool","inputs":[],"outputs":[{"name":"","type":"uint256","internalType":"uint256"}],"stateMutability":"view"},{"type":"function","name":"liquidate","inputs":[{"name":"_user","type":"address","internalType":"address"},{"name":"_index","type":"uint64","internalType":"uint64"},{"name":"currentEthPrice","type":"uint64","internalType":"uint64"}],"outputs":[],"stateMutability":"nonpayable"},{"type":"function","name":"multiSign","inputs":[],"outputs":[{"name":"","type":"address","internalType":"contract IMultiSign"}],"stateMutability":"view"},{"type":"function","name":"name","inputs":[],"outputs":[{"name":"","type":"string","internalType":"string"}],"stateMutability":"view"},{"type":"function","name":"noOfLiquidations","inputs":[],"outputs":[{"name":"","type":"uint128","internalType":"uint128"}],"stateMutability":"view"},{"type":"function","name":"options","inputs":[],"outputs":[{"name":"","type":"address","internalType":"contract IOptions"}],"stateMutability":"view"},{"type":"function","name":"owner","inputs":[],"outputs":[{"name":"","type":"address","internalType":"address"}],"stateMutability":"view"},{"type":"function","name":"permit","inputs":[{"name":"holder","type":"address","internalType":"address"},{"name":"spender","type":"address","internalType":"address"},{"name":"allowedAmount","type":"uint256","internalType":"uint256"},{"name":"allowed","type":"bool","internalType":"bool"},{"name":"expiry","type":"uint256","internalType":"uint256"},{"name":"v","type":"uint8","internalType":"uint8"},{"name":"r","type":"bytes32","internalType":"bytes32"},{"name":"s","type":"bytes32","internalType":"bytes32"}],"outputs":[{"name":"","type":"bool","internalType":"bool"}],"stateMutability":"view"},{"type":"function","name":"priceFeedAddress","inputs":[],"outputs":[{"name":"","type":"address","internalType":"address"}],"stateMutability":"view"},{"type":"function","name":"ratePerSec","inputs":[],"outputs":[{"name":"","type":"uint128","internalType":"uint128"}],"stateMutability":"view"},{"type":"function","name":"renounceOwnership","inputs":[],"outputs":[],"stateMutability":"nonpayable"},{"type":"function","name":"setAPR","inputs":[{"name":"_ratePerSec","type":"uint128","internalType":"uint128"}],"outputs":[],"stateMutability":"nonpayable"},{"type":"function","name":"setAdmin","inputs":[{"name":"_admin","type":"address","internalType":"address"}],"outputs":[],"stateMutability":"nonpayable"},{"type":"function","name":"setLTV","inputs":[{"name":"_LTV","type":"uint8","internalType":"uint8"}],"outputs":[],"stateMutability":"nonpayable"},{"type":"function","name":"setOptions","inputs":[{"name":"_options","type":"address","internalType":"address"}],"outputs":[],"stateMutability":"nonpayable"},{"type":"function","name":"setWithdrawTimeLimit","inputs":[{"name":"_timeLimit","type":"uint64","internalType":"uint64"}],"outputs":[],"stateMutability":"nonpayable"},{"type":"function","name":"totalAmintSupply","inputs":[],"outputs":[{"name":"","type":"uint256","internalType":"uint256"}],"stateMutability":"view"},{"type":"function","name":"totalDiracSupply","inputs":[],"outputs":[{"name":"","type":"uint256","internalType":"uint256"}],"stateMutability":"view"},{"type":"function","name":"totalNormalizedAmount","inputs":[],"outputs":[{"name":"","type":"uint256","internalType":"uint256"}],"stateMutability":"view"},{"type":"function","name":"transferOwnership","inputs":[{"name":"newOwner","type":"address","internalType":"address"}],"outputs":[],"stateMutability":"nonpayable"},{"type":"function","name":"treasury","inputs":[],"outputs":[{"name":"","type":"address","internalType":"contract ITreasury"}],"stateMutability":"view"},{"type":"function","name":"treasuryAddress","inputs":[],"outputs":[{"name":"","type":"address","internalType":"address"}],"stateMutability":"view"},{"type":"function","name":"updateLastEthVaultValue","inputs":[{"name":"_amount","type":"uint256","internalType":"uint256"}],"outputs":[],"stateMutability":"nonpayable"},{"type":"function","name":"version","inputs":[],"outputs":[{"name":"","type":"string","internalType":"string"}],"stateMutability":"view"},{"type":"function","name":"withDraw","inputs":[{"name":"_toAddress","type":"address","internalType":"address"},{"name":"_index","type":"uint64","internalType":"uint64"},{"name":"_ethPrice","type":"uint64","internalType":"uint64"},{"name":"_withdrawTime","type":"uint64","internalType":"uint64"},{"name":"_bondRatio","type":"uint64","internalType":"uint64"}],"outputs":[],"stateMutability":"nonpayable"},{"type":"function","name":"withdrawFromAaveProtocol","inputs":[{"name":"index","type":"uint64","internalType":"uint64"}],"outputs":[],"stateMutability":"nonpayable"},{"type":"function","name":"withdrawFromCompoundProtocol","inputs":[{"name":"index","type":"uint64","internalType":"uint64"}],"outputs":[],"stateMutability":"nonpayable"},{"type":"function","name":"withdrawTimeLimit","inputs":[],"outputs":[{"name":"","type":"uint64","internalType":"uint64"}],"stateMutability":"view"},{"type":"event","name":"Deposit","inputs":[{"name":"index","type":"uint64","indexed":false,"internalType":"uint64"},{"name":"depositedAmount","type":"uint256","indexed":false,"internalType":"uint256"},{"name":"borrowAmount","type":"uint256","indexed":false,"internalType":"uint256"},{"name":"normalizedAmount","type":"uint256","indexed":false,"internalType":"uint256"}],"anonymous":false},{"type":"event","name":"OwnershipTransferred","inputs":[{"name":"previousOwner","type":"address","indexed":true,"internalType":"address"},{"name":"newOwner","type":"address","indexed":true,"internalType":"address"}],"anonymous":false},{"type":"event","name":"Withdraw","inputs":[{"name":"borrowDebt","type":"uint256","indexed":false,"internalType":"uint256"},{"name":"withdrawAmount","type":"uint128","indexed":false,"internalType":"uint128"},{"name":"noOfAbond","type":"uint128","indexed":false,"internalType":"uint128"}],"anonymous":false},{"type":"error","name":"Borrowing_DepositFailed","inputs":[]},{"type":"error","name":"Borrowing_GettingETHPriceFailed","inputs":[]},{"type":"error","name":"Borrowing_LiquidateBurnFailed","inputs":[]},{"type":"error","name":"Borrowing_LiquidateEthTransferToCdsFailed","inputs":[]},{"type":"error","name":"Borrowing_WithdrawAMINTTransferFailed","inputs":[]},{"type":"error","name":"Borrowing_WithdrawBurnFailed","inputs":[]},{"type":"error","name":"Borrowing_WithdrawEthTransferFailed","inputs":[]},{"type":"error","name":"Borrowing_abondMintFailed","inputs":[]},{"type":"error","name":"Borrowing_amintMintFailed","inputs":[]}],"bytecode":{"object":"0x608060409080825234620002e85760c08162004a9980380380916200002582856200031f565b833981010312620002e8576200003b8162000343565b620000496020830162000343565b926200005781840162000343565b93620000666060850162000343565b92620000756080860162000343565b60a0958601516001600160401b03978882169691879003620002e857879160009586948554600160a01b600190031993338583161788558a51978896600160a01b600190038096819582948333921690807f8be0079c531659141344cd1fd0a4f28419497f9722a3daafe3b4186f6b6457e091a372989680000000000000000000000000000f42406017557b033b2e3c9fd0803ce80000000000000000000000000000000000271060185581600160801b60019003199d8e6019541664e8d4a51000176019551689600154161760015516808860025416176002558760095416176009551685600354161760035516836006541617600655168091600c541617600c55633fabe5a360e21b8252815a91600492fa8015620002de57839062000285575b620f4240915060018060801b03918291041682600d541617600d554216906012541617601255601060208351620001cf81620002ed565b828152016f20a6a4a72a1029ba30b13632b1b7b4b760811b81522093600160208451620001fc81620002ed565b82815201603160f81b8152209383519460208601967f2010028ec63295361a00945794d4fce5b1046c419f60af448db7aaeb91e918f8885285870152606086015260808501523081850152835260c08301948386109086111762000271575083905251902060165561472b90816200036e8239f35b634e487b7160e01b81526041600452602490fd5b508581813d8311620002d6575b6200029e81836200031f565b81010312620002d25780620002b7620f42409262000358565b50620002cb60806020830151920162000358565b5062000198565b8280fd5b503d62000292565b84513d85823e3d90fd5b600080fd5b604081019081106001600160401b038211176200030957604052565b634e487b7160e01b600052604160045260246000fd5b601f909101601f19168101906001600160401b038211908210176200030957604052565b51906001600160a01b0382168203620002e857565b51906001600160501b0382168203620002e85756fe6080604052600436101561001257600080fd5b60003560e01c806306fdde03146103175780631069143a14610312578063162790551461030d578063181ab6db146103085780632bf16927146103035780632ccd9ed4146102fe5780632feabb52146102f957806330adf81f146102f45780633644e515146102ef57806338a912d5146102ea5780633b486a25146102e55780633ed086f4146102e05780633f3006b4146102db5780634ed2b8ac146102d65780634f04a86b146102d1578063503e6322146102cc57806350593af7146102c757806350d7ede2146102c257806354fd4d50146102bd5780635e34783e146102b8578063606303f8146102b357806361d027b3146102ae578063661b7d3e146102a95780636fdc5203146102a4578063704b6c021461029f578063715018a61461029a5780637d6dff7d1461029557806384e9212814610290578063868c10d21461028b5780638da5cb5b146102865780638e4db39a1461028157806398afda431461027c57806399eb2f6c146102775780639e6fe43914610272578063aad2476d1461026d578063ada0b0ed14610268578063b3aebb9c14610263578063b4eb10ce1461025e578063b8f4909014610259578063c1bab32d14610254578063c5f956af1461024f578063d5c28dba1461024a578063e0abca0b14610245578063e42f809014610240578063ec11dab21461023b578063ef8bd30514610236578063f2fde38b146102315763fe9258841461022c57600080fd5b6114d3565b611410565b6113ec565b61137b565b61135d565b611334565b6112af565b611286565b611216565b6111c2565b611199565b61117b565b611149565b611105565b6110dc565b6110be565b611067565b611049565b611020565b610f87565b610f69565b610e96565b610e3b565b610d78565b610d5a565b610c6e565b610c45565b610c27565b610b92565b610b47565b610b1e565b610a45565b610a1c565b6109f5565b6109d1565b61094d565b610853565b610829565b610808565b6107ea565b6107af565b610788565b610603565b61051a565b6104e6565b6104c0565b61046b565b61041e565b600091031261032757565b600080fd5b634e487b7160e01b600052604160045260246000fd5b6001600160401b03811161035557604052565b61032c565b604081019081106001600160401b0382111761035557604052565b90601f801991011681019081106001600160401b0382111761035557604052565b6040519061028082018281106001600160401b0382111761035557604052565b60405190608082018281106001600160401b0382111761035557604052565b6020808252825181830181905290939260005b82811061040a57505060409293506000838284010152601f8019910116010190565b8181018601518482016040015285016103e8565b346103275760003660031901126103275761046760405161043e8161035a565b601081526f20a6a4a72a1029ba30b13632b1b7b4b760811b6020820152604051918291826103d5565b0390f35b34610327576000366003190112610327576005546040516001600160a01b039091168152602090f35b600435906001600160a01b038216820361032757565b602435906001600160a01b038216820361032757565b346103275760203660031901126103275760206104db610494565b3b1515604051908152f35b34610327576000366003190112610327576020610501614452565b604051908152f35b6001600160401b0381160361032757565b346103275760a036600319011261032757610533610494565b60243561053f81610509565b60443561054b81610509565b6064359061055882610509565b6084359261056584610509565b6006546040516326d2a55160e21b8152600160048201529590602090879060249082906000906001600160a01b03165af19586156105e9576105b9966105b4916000916105bb575b501561152d565b6125c7565b005b6105dc915060203d81116105e2575b6105d48183610375565b810190611509565b386105ad565b503d6105ca565b611521565b8015150361032757565b60ff81160361032757565b34610327576101003660031901126103275761061d610494565b602060006106296104aa565b606435610635816105ee565b61070261070e60843560a4359461064b866105f8565b8115801561077e575b61065d90614546565b601654604080517ff48167ebcd5a3b4ca5517473931d60b9a75b03f56e5e6363767fa277375eb0808b82019081526001600160a01b038d8116602083015294909416918401919091526044356060840152951515608083015260a080830193909352858203928301865294601f19926106d99060c00182610375565b5190206040519384918983019687909160429261190160f01b8352600283015260228201520190565b03908101835282610375565b5190206001600160a01b0390941693610728851515614583565b6040805191825260ff92909216602082015260c4359181019190915260e435606082015281805260809060015afa156105e95760005161077291906001600160a01b0316146145c8565b60405160018152602090f35b5042821015610654565b346103275760003660031901126103275760206001600160801b03600d5416604051908152f35b346103275760003660031901126103275760206040517ff48167ebcd5a3b4ca5517473931d60b9a75b03f56e5e6363767fa277375eb0808152f35b34610327576000366003190112610327576020601654604051908152f35b3461032757600036600319011261032757602060125460801c604051908152f35b346103275760003660031901126103275760206015546001600160801b036040519160401c168152f35b346103275760203660031901126103275761086c610494565b61087461469d565b6001600160a01b0381169081151580610943575b156108d8576108b66105b99260018060a01b03166bffffffffffffffffffffffff60a01b6004541617600455565b60018060a01b03166bffffffffffffffffffffffff60a01b6008541617600855565b60405162461bcd60e51b815260206004820152603960248201527f5472656173757279206d75737420626520636f6e74726163742061646472657360448201527f7320262063616e2774206265207a65726f2061646472657373000000000000006064820152608490fd5b50803b1515610888565b3461032757600060203660031901126109ce5760043561096c81610509565b61097461469d565b6004546001600160a01b0316908290823b156109ca5760246001600160401b03918360405195869485936306ef62b960e11b85521660048401525af180156105e9576109be575080f35b6109c790610342565b80f35b5080fd5b80fd5b3461032757600036600319011261032757602060ff600a5460a01c16604051908152f35b346103275760003660031901126103275760206001600160401b0360155416604051908152f35b34610327576000366003190112610327576001546040516001600160a01b039091168152602090f35b34610327576000806003193601126109ce57600c54604051633fabe5a360e21b81529060a090829060049082906001600160a01b03165afa9182156105e9578092610ac9575b610467610ab984610ab3610aa76017546001600160801b031690565b6001600160801b031690565b9061199b565b6040519081529081906020820190565b90915060a0823d8211610b16575b81610ae460a09383610375565b810103126109ce5750610ab981610afd61046793614065565b50610b0f608060208301519201614065565b5091610a8b565b3d9150610ad7565b34610327576000366003190112610327576003546040516001600160a01b039091168152602090f35b3461032757600036600319011261032757610467604051610b678161035a565b60018152603160f81b6020820152604051918291826103d5565b6001600160801b0381160361032757565b60a036600319011261032757600435610baa81610b81565b60243590610bb782610509565b60443560058110156103275760643590610bd082610509565b6006546040516326d2a55160e21b8152600060048201819052909591602091879160249183916001600160a01b03165af19485156105e9576105b995610c1e916000916105bb57501561152d565b60843593611b9b565b34610327576000366003190112610327576020601454604051908152f35b34610327576000366003190112610327576004546040516001600160a01b039091168152602090f35b3461032757602036600319011261032757600854600435906001600160a01b03163303610d02578015610cb257600e54908103908111610cad57600e55005b611620565b60405162461bcd60e51b815260206004820152602260248201527f4c61737420455448207661756c742076616c75652063616e2774206265207a65604482015261726f60f01b6064820152608490fd5b60405162461bcd60e51b815260206004820152602a60248201527f46756e6374696f6e2073686f756c64206f6e6c792062652063616c6c656420626044820152697920747265617375727960b01b6064820152608490fd5b34610327576000366003190112610327576020600b54604051908152f35b3461032757602036600319011261032757610d91610494565b610d9961469d565b6001600160a01b038116151580610e2d575b15610dd157600a80546001600160a01b0319166001600160a01b03909216919091179055005b60405162461bcd60e51b815260206004820152602e60248201527f41646d696e2063616e277420626520636f6e747261637420616464726573732060448201526d26207a65726f206164647265737360901b6064820152608490fd5b506001813b15151415610dab565b34610327576000806003193601126109ce57610e5561469d565b80546001600160a01b03198116825581906001600160a01b03167f8be0079c531659141344cd1fd0a4f28419497f9722a3daafe3b4186f6b6457e08280a380f35b3461032757602036600319011261032757610eaf610494565b610eb761469d565b6001600160a01b038116908115159081610f5e575b5015610ef357600580546001600160a01b0319166001600160a01b03909216919091179055005b60405162461bcd60e51b815260206004820152603860248201527f4f7074696f6e73206d75737420626520636f6e7472616374206164647265737360448201527f20262063616e2774206265207a65726f206164647265737300000000000000006064820152608490fd5b90503b151538610ecc565b34610327576000366003190112610327576020600f54604051908152f35b34610327576020366003190112610327576001600160401b03600435610fac81610509565b610fb461469d565b168015610fd1576001600160401b03196015541617601555600080f35b60405162461bcd60e51b815260206004820152602160248201527f57697468647261772074696d65206c696d69742063616e2774206265207a65726044820152606f60f81b6064820152608490fd5b34610327576000366003190112610327576000546040516001600160a01b039091168152602090f35b34610327576000366003190112610327576020601154604051908152f35b34610327576000806003193601126109ce5761108161469d565b60045481906001600160a01b0316803b156110bb5781906004604051809481936301865f0760e21b83525af180156105e9576109be575080f35b50fd5b34610327576000366003190112610327576020600e54604051908152f35b34610327576000366003190112610327576006546040516001600160a01b039091168152602090f35b3461032757602036600319011261032757600435611122816105f8565b61112a61469d565b600a805460ff60a01b191660a09290921b60ff60a01b16919091179055005b3461032757604036600319011261032757602061116a60243560043561407c565b6001600160401b0360405191168152f35b34610327576000366003190112610327576020601354604051908152f35b34610327576000366003190112610327576002546040516001600160a01b039091168152602090f35b34610327576000806003193601126109ce576111dc61469d565b60045481906001600160a01b0316803b156110bb5781906004604051809481936306e1444d60e21b83525af180156105e9576109be575080f35b346103275760203660031901126103275760043561123381610b81565b6006546040516326d2a55160e21b8152600360048201529190602090839060249082906000906001600160a01b03165af19182156105e9576105b992611281916000916105bb57501561152d565b61436f565b34610327576000366003190112610327576008546040516001600160a01b039091168152602090f35b34610327576060366003190112610327576112c8610494565b6024356112d481610509565b604435906112e182610509565b6006546040516326d2a55160e21b8152600260048201529390602090859060249082906000906001600160a01b03165af19384156105e9576105b99461132f916000916105bb57501561152d565b6136e1565b3461032757600036600319011261032757600c546040516001600160a01b039091168152602090f35b34610327576000366003190112610327576020601054604051908152f35b3461032757600060203660031901126109ce5760043561139a81610509565b6113a261469d565b6004546001600160a01b0316908290823b156109ca5760246001600160401b0391836040519586948593630376724160e41b85521660048401525af180156105e9576109be575080f35b3461032757600036600319011261032757602060ff600a5460a81c16604051908152f35b3461032757602036600319011261032757611429610494565b61143161469d565b6001600160a01b03908116801561147f57600080546001600160a01b03198116831782559092167f8be0079c531659141344cd1fd0a4f28419497f9722a3daafe3b4186f6b6457e08380a380f35b60405162461bcd60e51b815260206004820152602660248201527f4f776e61626c653a206e6577206f776e657220697320746865207a65726f206160448201526564647265737360d01b6064820152608490fd5b34610327576000366003190112610327576009546040516001600160a01b039091168152602090f35b5190611507826105ee565b565b90816020910312610327575161151e816105ee565b90565b6040513d6000823e3d90fd5b1561153457565b60405162461bcd60e51b815260206004820152600660248201526514185d5cd95960d21b6044820152606490fd5b1561156957565b60405162461bcd60e51b815260206004820152601a60248201527f43616e6e6f74206465706f736974207a65726f20746f6b656e730000000000006044820152606490fd5b156115b557565b60405162461bcd60e51b815260206004820152603e60248201527f596f7520646f206e6f7420686176652073756666696369656e742062616c616e60448201527f636520746f20657865637574652074686973207472616e73616374696f6e00006064820152608490fd5b634e487b7160e01b600052601160045260246000fd5b60011b907001fffffffffffffffffffffffffffffffe6ffffffffffffffffffffffffffffffffe831692168203610cad57565b9060326001600160801b0380931602918216918203610cad57565b906001600160801b03809216601402918216918203610cad57565b9060646001600160801b0380931602918216918203610cad57565b90600a6001600160801b0380931602918216918203610cad57565b9190916001600160801b0380809416911602918216918203610cad57565b156116fa57565b60405162461bcd60e51b81526020600482015260166024820152754e6f7420656e6f7567682066756e6420696e2043445360501b6044820152606490fd5b519061150782610509565b9190826040910312610327576020825161175c816105ee565b92015161151e81610509565b90816020910312610327575190565b9194939290946001600160801b0360808401961683526020830152604082015260058210156117a65760600152565b634e487b7160e01b600052602160045260246000fd5b519061150782610b81565b90816020910312610327575161151e81610b81565b5190611507826105f8565b809291036102a081126103275782516117ff81610509565b926102808092601f1901126103275761196b611819610396565b9261182660208401611738565b8452611834604084016117bc565b6020850152611845606084016117bc565b604085015261185660808401611738565b606085015261186760a084016117bc565b608085015261187860c084016117bc565b60a085015261188960e084016117bc565b60c08501526101009261189d8482016117dc565b60e0860152610120936118b18583016114fc565b90860152610140936118c48583016117bc565b90860152610160936118d78583016114fc565b90860152610180936118ea858301611738565b908601526101a0936118fd858301611738565b908601526101c0936119108583016117bc565b908601526101e0936119238583016117bc565b90860152610200936119368583016117bc565b9086015261022093848201519086015261024093611955858301611738565b90860152610260938482015190860152016117bc565b9082015290565b81810292918115918404141715610cad57565b634e487b7160e01b600052601260045260246000fd5b81156119a5570490565b611985565b6001600160a01b0390911681526001600160401b039182166020820152825190911660408201526102c08101929161150791906102a09060208101516001600160801b0316606084015260408101516001600160801b0316608084015260608101516001600160401b031660a084015260808101516001600160801b031660c084015260a08101516001600160801b031660e084015260c081015190611a5e61010092838601906001600160801b03169052565b60e081015191611a76610120938487019060ff169052565b81015191611a8b610140938487019015159052565b81015191611aa761016093848701906001600160801b03169052565b81015191611abc610180938487019015159052565b81015191611ad86101a093848701906001600160401b03169052565b81015191611af46101c093848701906001600160401b03169052565b81015191611b106101e093848701906001600160801b03169052565b81015191611b2c61020093848701906001600160801b03169052565b81015191611b4861022093848701906001600160801b03169052565b81015191610240928386015281015191611b7061026093848701906001600160401b03169052565b81015161028085015201516001600160801b0316910152565b91908201809211610cad57565b601055565b9092611c689293611bad341515611562565b611bb9343331116115ae565b6001600160801b0395611bce8785163461407c565b92611c01611bef610aa7611bea6018546001600160801b031690565b611636565b6001600160401b0380961610156116f3565b60048054909190611c22906001600160a01b03165b6001600160a01b031690565b6040805163dcb71f3f60e01b8152338582019081526001600160801b038a1660208201526001600160401b039097168783015298909586928a9290918391829160600190565b039134905af19687156105e95760009081986120a3575b506005546001600160a01b03166001600160a01b03169385518095636916a18160e11b825281808b60209e8f9634908b850193611cbb94611777565b03915a90600091f19384156105e957600094612074575b501561206557611ce4838734336121a0565b6002549098908a90611cfe906001600160a01b0316611c16565b941693818651809263b87c3dc360e01b825281600081611d308b8b83019190916001600160801b036020820193169052565b03925af180156105e957612037575b50508154611d55906001600160a01b0316611c16565b8451634d5c56a560e01b8152338482019081526001600160401b038a1660208201526102a09591908690829081906040010381865afa9586156105e957600096612000575b50506001600160801b038a8c161660a0860152611dc2906001600160801b03166101e0860152565b803b15610327578451632e449f1760e21b81523384820190815260016020820152909160009183919082908490829060400103925af180156105e957611fed575b508154611e18906001600160a01b0316611c16565b90813b15610327578451630e6840d960e11b815233848201908152602081018b9052909260009184919082908490829060400103925af19081156105e957611ec392611eb292611fda575b50611e96611e6f614452565b611e918c611e8c611e85610aa760185460801c90565b8092611972565b611972565b61199b565b6001600160801b038c82161660c0870152968b341691166116d5565b6001600160801b03166101c0840152565b8054611ed7906001600160a01b0316611c16565b91823b1561032757611f04928760008094875196879586948593634222066960e11b8552339085016119aa565b03925af19687156105e957611f72611fbc95611f90937f3f7c04c09b19100060129256b7d82f055d0aa72cf17042fb3f2d41d1fffc02609a611fc1575b50611f56611f5187600b54611b89565b600b55565b6001600160801b03166001600160801b0319600d541617600d55565b42166001600160801b03166001600160801b03196012541617601255565b51938493349085909493926060926001600160401b036080840197168352602083015260408201520152565b0390a1565b80611fce611fd492610342565b8061031c565b38611f41565b80611fce611fe792610342565b38611e63565b80611fce611ffa92610342565b38611e03565b611dc2929650908161202692903d10612030575b61201e8183610375565b8101906117e7565b9050949038611d9a565b503d612014565b8161205692903d1061205e575b61204e8183610375565b8101906117c7565b503880611d3f565b503d612044565b508251634fad3b0960e01b8152fd5b612095919450893d8b1161209c575b61208d8183610375565b810190611768565b9238611cd2565b503d612083565b90506120c6919750843d86116120ce575b6120be8183610375565b810190611743565b969038611c7f565b503d6120b4565b156120dc57565b60405162461bcd60e51b815260206004820152601f60248201527f426f72726f7765722063616e6e6f74206265207a65726f2061646472657373006044820152606490fd5b1561212857565b60405162461bcd60e51b815260206004820152603860248201527f4c5456206d7573742062652073657420746f206e6f6e2d7a65726f2076616c7560448201527f65206265666f72652070726f766964696e67206c6f616e7300000000000000006064820152608490fd5b91908203918211610cad57565b929161221f9161220a9190611e8c906121f5906121c76001600160a01b03891615156120d5565b6001600160801b0360ff6121e1600a5460ff9060a01c1690565b16946121ee861515612121565b1690611972565b610ab3610aa76019546001600160801b031690565b610ab3610aa76018546001600160801b031690565b600154612234906001600160a01b0316611c16565b9261223f8383612193565b6040516340c10f1960e01b8082526001600160a01b0393909316600482015260248101919091526020949091908590839060449082906000905af19081156105e9578486916122d794600094612394575b506001546122a6906001600160a01b0316611c16565b6008546040519283526001600160a01b03166004830152602482019290925293849190829060009082906044820190565b03925af19182156105e957600092612375575b5015612363571561236357600154600493908190612310906001600160a01b0316611c16565b6040516318160ddd60e01b815295869182905afa80156105e95761151e9461234192600092612346575b5050601355565b612193565b61235c9250803d1061209c5761208d8183610375565b388061233a565b604051630a9b6d3960e41b8152600490fd5b61238d919250853d87116105e2576105d48183610375565b90386122ea565b6123ac919450833d85116105e2576105d48183610375565b9238612290565b156123ba57565b60405162461bcd60e51b815260206004820152603060248201527f546f20616464726573732063616e6e6f742062652061207a65726f20616e642060448201526f636f6e7472616374206164647265737360801b6064820152608490fd5b1561241f57565b60405162461bcd60e51b815260206004820152601f60248201527f5573657220616d6f756e7420686173206265656e206c697175696461746564006044820152606490fd5b906127106001600160401b0380931602918216918203610cad57565b9060646001600160401b0380931602918216918203610cad57565b906001600160801b038091169182156119a557160490565b156124ba57565b60405162461bcd60e51b8152602060048201526016602482015275426f72726f77696e674865616c7468206973204c6f7760501b6044820152606490fd5b156124ff57565b60405162461bcd60e51b815260206004820152602260248201527f557365722062616c616e6365206973206c657373207468616e20726571756972604482015261195960f21b6064820152608490fd5b6001600160a01b0390911681526001600160801b03909116602082015260400190565b9190916001600160801b0380809416911601918211610cad57565b6001600160a01b039182168152911660208201526001600160801b0390911660408201526001600160401b03909116606082015260800190565b91936001600160a01b038316151580613026575b6125e4906123b3565b6001600160401b039461260f8682166001600160801b03166001600160801b0319600d541617600d55565b600454612624906001600160a01b0316611c16565b604051634d5c56a560e01b81523360048201526001600160401b0385166024820152906102a0908190839060449082905afa9182156105e9576000918293613004575b505084881690881610612fb05761269161268c612688610140840151151590565b1590565b612418565b610100810151612f5f5760ff6126ab60e083015160ff1690565b169687612e4a576126e9959697506126c283612464565b6001600160801b03968791836126e260808701516001600160801b031690565b911661249b565b16936126f8611f4086116124b3565b61274361272f61272061271560c08701516001600160801b031690565b8a6011549116611972565b610ab3610aa760185460801c90565b97611f7261273e612720614452565b601155565b600154612758906001600160a01b0316611c16565b6040516370a0823160e01b815233600482015290996020826024818e5afa80156105e95789612795916127b694600091612e2b575b5010156124f8565b6001600160401b0386166101608601526001600160401b0316610180850152565b600160e084015261281e610aa761280b6127f18588166128066127f16128016127f16127ec60208d01516001600160801b031690565b611669565b6001600160801b03606491160490565b611684565b6116d5565b6019546001600160801b03165b9061249b565b906000602061287361284785612341610aa76127f16127ec60a08d01516001600160801b031690565b6040516363a9f09360e11b815233600482015260248101829052909d9093849283919082906044820190565b03925af19081156105e957600091612e0c575b5015612dfa576001546128fc906020908c906128aa906001600160a01b0316611c16565b6008546128c1906001600160a01b0316928d612193565b6040516323b872dd60e01b81523360048201526001600160a01b03909316602484015260448301529092839190829060009082906064820190565b03925af19081156105e957600091612ddb575b5015612dc95761293a611f51612932610aa760c08801516001600160801b031690565b600b54612193565b60045461294f906001600160a01b0316611c16565b9161297061296a610aa760a08801516001600160801b031690565b8a612193565b92803b156103275760405163b9a221eb60e01b815260048101949094526000908490602490829084905af19283156105e9576129b293612db6575b5033613077565b976102008301526101a08201976129d2818a906001600160801b03169052565b6004546129e7906001600160a01b0316611c16565b803b156103275760405163d9b74cc360e01b8152916000918391829084908290612a1590336004840161254f565b03925af180156105e957612da3575b50600454612a3a906001600160a01b0316611c16565b90813b156103275760006040518093634222066960e11b8252818381612a65898d33600485016119aa565b03925af19182156105e957612aaf92612d90575b50612aaa612a9160208501516001600160801b031690565b6080850151928616926001600160801b03165b906116d5565b61249b565b9261271080821115612d30575050612b47929391602091612ada611c1660055460018060a01b031690565b90612b036101c0612af4868401516001600160801b031690565b9201516001600160801b031690565b6040516310335d6b60e21b81526001600160801b039283166004820152911660248201526001600160401b0390921660448301529093849190829081906064820190565b03915afa80156105e9576127f16127ec612b7092612ba796602096600092612d11575b50612572565b94856000612b88611c1660045460018060a01b031690565b92604051968795869485936315ee073360e11b8552336004860161258d565b03925af19081156105e957600091612cf2575b5015612ce057600154612bd5906001600160a01b0316611c16565b6040516020816004816318160ddd60e01b958682525afa80156105e957612c0491600091612cc1575b50601355565b600354602090612c1c906001600160a01b0316611c16565b9160046040518094819382525afa80156105e9577f2dc3b614e32706dcf24286e69af4692f4b2c24fc339d659e80b26d49379b691494612c6b612c7892611fbc94600091612ca2575b50601455565b516001600160801b031690565b60405193849384916040919493606084019584526001600160801b03809216602085015216910152565b612cbb915060203d60201161209c5761208d8183610375565b38612c65565b612cda915060203d60201161209c5761208d8183610375565b38612bfe565b604051635e5e86d560e01b8152600490fd5b612d0b915060203d6020116105e2576105d48183610375565b38612bba565b612d29919250873d891161205e5761204e8183610375565b9038612b6a565b91925090808203612d5057505050612ba791612b706127f1602093611669565b9080929350611f40109182612d86575b5050156124ba57612ba791612b706127f16127ec6020809501516001600160801b031690565b1090503880612d60565b80611fce612d9d92610342565b38612a79565b80611fce612db092610342565b38612a24565b80611fce612dc392610342565b386129ab565b604051637e74fa1d60e01b8152600490fd5b612df4915060203d6020116105e2576105d48183610375565b3861290f565b6040516303f7009160e51b8152600490fd5b612e25915060203d6020116105e2576105d48183610375565b38612886565b612e44915060203d60201161209c5761208d8183610375565b3861278d565b50939450505092600114600014612f5f57612ea592612e746101808301516001600160401b031690565b90612e9f610120612e906101a08601516001600160801b031690565b9401516001600160801b031690565b93613259565b600154612eba906001600160a01b0316611c16565b60405190816318160ddd60e01b9182825281600460209586935afa80156105e957612eec91600091612f485750601355565b6003548290612f03906001600160a01b0316611c16565b9160046040518094819382525afa9081156105e95761150792600092612f2b575b5050601455565b612f419250803d1061209c5761208d8183610375565b3880612f24565b612cda9150843d861161209c5761208d8183610375565b60405162461bcd60e51b815260206004820152602360248201527f5573657220616c726561647920776974686472617720656e7469726520616d6f6044820152621d5b9d60ea1b6064820152608490fd5b60405162461bcd60e51b815260206004820152602660248201527f5573657220646f656e73277420686176652074686520706572746963756c6172604482015265040d2dcc8caf60d31b6064820152608490fd5b61301e935080919250903d106120305761201e8183610375565b903880612667565b50823b1515600114156125db565b1561303b57565b60405162461bcd60e51b8152602060048201526014602482015273416d6f756e742063616e2774206265207a65726f60601b6044820152606490fd5b916128186130b76130b16001600160801b036130c3956130a060018060a01b03891615156120d5565b6130ab811515613034565b1661169f565b92612480565b6001600160401b031690565b600354909182916130dc906001600160a01b0316611c16565b9060405180926340c10f1960e01b82528160008161310160209889976004840161254f565b03925af19081156105e957600091613173575b5015613161576003546004908290613134906001600160a01b0316611c16565b6040516318160ddd60e01b815292839182905afa9081156105e95761151e92600092612f2b575050601455565b6040516328eca99f60e21b8152600490fd5b61318a9150823d84116105e2576105d48183610375565b38613114565b9190916001600160401b0380809416911601918211610cad57565b156131b257565b60405162461bcd60e51b815260206004820152602d60248201527f43616e2774207769746864726177206265666f7265207468652077697468647260448201526c185dc81d1a5b59481b1a5b5a5d609a1b6064820152608490fd5b1561321457565b60405162461bcd60e51b815260206004820152601e60248201527f446f6e2774206861766520656e6f7567682041424f4e4420546f6b656e7300006044820152606490fd5b93929161327e6130b7613286926132786015546001600160401b031690565b90613190565b4210156131ab565b60035461329b906001600160a01b0316611c16565b604080516370a0823160e01b8152336004808301919091529691956020959293909291908690829060249082905afa80156105e9576132ed916000916136c4575b506001600160801b0383161461320d565b86548490613303906001600160a01b0316611c16565b8751634d5c56a560e01b8152338a82019081526001600160401b0390931660208401526102a0928390829081906040010381855afa9283156105e9576000936136a3575b5050818701516001600160801b031690803b1561032757613382916000918b838c51809681958294631b35376f60e21b84523390840161254f565b03925af180156105e957613690575b506001610100820152600260e082015287546133b5906001600160a01b0316611c16565b803b15610327576000836133e0928b838c51809681958294637e2ce58360e11b84523390840161254f565b03925af180156105e95761367d575b5060006101a0820152875461340c906001600160a01b0316611c16565b803b15610327576000826134399288838d8d5196879586948593634222066960e11b8552339085016119aa565b03925af180156105e95761366a575b50875461345d906001600160a01b0316611c16565b6134776127f16127ec60a08501516001600160801b031690565b90803b15610327576134a3916000918b838c51809681958294630adfd5a560e21b84523090840161254f565b03925af180156105e9578992613516928992613657575b506001546134d0906001600160a01b0316611c16565b600854610200906001600160a01b03169201519160008c518096819582946363a9f09360e11b9a8b8552840160209093929193604081019460018060a01b031681520152565b03925af19081156105e95760009161363a575b501561362a5761356191869189600061354c611c1660035460018060a01b031690565b928b519687958694859384523390840161254f565b03925af19081156105e95760009161360d575b50156135fd579183916135b5936000613596611c168a5460018060a01b031690565b88516315ee073360e11b815296879591948694859391338e860161258d565b03925af19182156105e9576000926135e0575b5050156135d3575050565b51635e5e86d560e01b8152fd5b6135f69250803d106105e2576105d48183610375565b38806135c8565b84516303f7009160e51b81528690fd5b6136249150853d87116105e2576105d48183610375565b38613574565b86516303f7009160e51b81528890fd5b6136519150873d89116105e2576105d48183610375565b38613529565b80611fce61366492610342565b386134ba565b80611fce61367792610342565b38613448565b80611fce61368a92610342565b386133ef565b80611fce61369d92610342565b38613391565b6136ba929350803d106120305761201e8183610375565b9050903880613347565b6136db9150873d891161209c5761208d8183610375565b386132dc565b600a54909291906001600160a01b039081163303613e3f5761371290841661370a811515613e7d565b331415613ed5565b61374461372961372460125460801c90565b613f2f565b6001600160801b036012549181199060801b16911617601255565b6004805490929061375d906001600160a01b0316611c16565b60408051634d5c56a560e01b81526001600160a01b0387168682019081526001600160401b0386166020820152929691946102a094929390929190859082908190890103818b5afa9485156105e957600095613e1e575b505061014084016137d06137cb6126888351151590565b613f47565b60209788860192888a6137ea86516001600160801b031690565b938a5192838092630f27449560e01b82525afa9081156105e957600091613e01575b506001600160801b03809316111561382390613f88565b61382c90612464565b918160808801938451613845906001600160801b031690565b613857916001600160401b031661249b565b16611f40101561386690613fd4565b6001905260c08601516001600160801b0316601154613886918316611972565b60185460801c6001600160801b031661389e9161199b565b6138a6614452565b60185460801c6001600160801b03166138be9161199b565b601155818116908985516138d8906001600160801b031690565b85516001600160801b03166138ec916116d5565b948380601954613902906001600160801b031690565b978861390d9161249b565b60646001600160801b03909116049061392591614017565b61392e906116ba565b60646001600160801b03909116049687928951613951906001600160801b031690565b90516001600160801b0316613965916116d5565b9061396f9161249b565b60646001600160801b03909116049061398791614017565b9061399191614017565b61399b8685612572565b966139a4614030565b50516001600160801b03166002548e906001600160a01b03166001600160a01b03168d51636e48f3a960e11b815294859182905a90600091f19081156105e9578e93600092613ddc575b50613a1c613a2b92936139ff6103b6565b6001600160801b038c168152958601906001600160801b03169052565b6001600160801b0316838d0152565b6060820152600254613a45906001600160a01b0316611c16565b90613a5260125460801c90565b90823b1561032757613ab892600092838f8f519687958694859363b3013d4d60e01b85528401909291606060809160a08401956001600160801b038091168552808251166020860152806020830151166040860152604082015116828501520151910152565b03925af180156105e957613dc9575b50600254613add906001600160a01b0316611c16565b803b1561032757895163dc55b19360e01b81526001600160801b038716818d01908152909160009183919082908490829060200103925af180156105e957613db6575b50600254613b36906001600160a01b0316611c16565b803b15610327578951634cae95d360e01b81526001600160801b03909616868c01908152600091879182908490829060200103925af19182156105e957613b8e95613b8693613da3575b50612193565b911690611b89565b8554613ba2906001600160a01b0316611c16565b803b156103275785516308fc416760e21b815287810192835291600091839182908490829060200103925af180156105e957613d90575b508454613bee906001600160a01b0316611c16565b91823b1561032757613c1b92600092838693885196879586948593634222066960e11b85528d85016119aa565b03925af180156105e957613d7d575b50825460a090613c42906001600160a01b0316611c16565b910180516001600160801b031691803b15610327578351630adfd5a560e21b8152926000918491829084908290613c7c90308c840161254f565b03925af19081156105e957613ce3928692613d6a575b50600154613ca8906001600160a01b0316611c16565b600854613cc6906001600160a01b031692516001600160801b031690565b91600086518096819582946363a9f09360e11b84528b840161254f565b03925af19081156105e957600091613d4d575b5015613d4057600154839190613d14906001600160a01b0316611c16565b90516318160ddd60e01b815292839182905afa9081156105e95761150792600092612346575050601355565b51632105f02360e11b8152fd5b613d649150843d86116105e2576105d48183610375565b38613cf6565b80611fce613d7792610342565b38613c92565b80611fce613d8a92610342565b38613c2a565b80611fce613d9d92610342565b38613bd9565b80611fce613db092610342565b38613b80565b80611fce613dc392610342565b38613b20565b80611fce613dd692610342565b38613ac7565b613a2b9250613dfa613a1c91863d881161209c5761208d8183610375565b92506139ee565b613e1891508b3d8d1161209c5761208d8183610375565b3861380c565b613e35929550803d106120305761201e8183610375565b90509238806137b4565b60405162461bcd60e51b815260206004820152601660248201527521b0b63632b91034b9903737ba1030b71030b236b4b760511b6044820152606490fd5b15613e8457565b60405162461bcd60e51b815260206004820152602360248201527f546f20616464726573732063616e6e6f742062652061207a65726f206164647260448201526265737360e81b6064820152608490fd5b15613edc57565b60405162461bcd60e51b815260206004820152602560248201527f596f752063616e6e6f74206c697175696461746520796f7572206f776e206173604482015264736574732160d81b6064820152608490fd5b6001600160801b03809116908114610cad5760010190565b15613f4e57565b60405162461bcd60e51b8152602060048201526012602482015271105b1c9958591e48131a5c5d5a59185d195960721b6044820152606490fd5b15613f8f57565b60405162461bcd60e51b815260206004820152601c60248201527f4e6f7420656e6f7567682066756e647320696e207472656173757279000000006044820152606490fd5b15613fdb57565b60405162461bcd60e51b8152602060048201526014602482015273596f752063616e6e6f74206c697175696461746560601b6044820152606490fd5b6001600160801b039182169082160391908211610cad57565b60405190608082018281106001600160401b038211176103555760405260006060838281528260208201528260408201520152565b519069ffffffffffffffffffff8216820361032757565b90600090801561435d57600454829061409d906001600160a01b0316611c16565b604051906322d7586760e11b82528160048160209788945af19182156105e95791614340575b506140d9610aa7600d546001600160801b031690565b828181111561432d576140ff916140ef91612193565b6001600160801b03831690611972565b905b6000906001600160801b0316614205575061412661412183600496611972565b600e55565b600e546002549092908490614143906001600160a01b0316611c16565b6040516315d9753160e11b815296879182905afa80156105e957611b96610aa761418a9261151e986130b7986000926141e8575b50506019546001600160801b0316612aa4565b61419f610aa7600d546001600160801b031690565b116141d4576141b36141b891601054611b89565b600f55565b611e91600f545b6141ce610aa760175460801c90565b90611972565b6141b36141e391601054612193565b6141b8565b6141fe9250803d1061205e5761204e8183610375565b3880614177565b929361421e9061421884600e5492611972565b90611b89565b9161422883600e55565b6002546004908690614242906001600160a01b0316611c16565b6040516315d9753160e11b815292839182905afa9283156105e95761428b610aa7611e91956142d19461151e9a6130b79a926141e85750506019546001600160801b0316612aa4565b926142a1610aa7600d546001600160801b031690565b116142f95760105490818411156142df576142c66142cb92614218600f549187612193565b611b89565b91601055565b6142da81600f55565b6141bf565b6142c66142cb926142f386600f5492612193565b90612193565b6010549081841115614319576123416142cb92614218600f549187612193565b6123416142cb926142f386600f5492612193565b6140ef9061433a92612193565b90614101565b6143579150833d851161205e5761204e8183610375565b386140c3565b6040516315e73e9f60e01b8152600490fd5b61437761469d565b60065460405163c722f56b60e01b815290602090829060049082906000906001600160a01b03165af19081156105e957600091614434575b5015610327576001600160801b038116156143ef5761150790600160401b600160c01b036015549160401b1690600160401b600160c01b03191617601555565b60405162461bcd60e51b815260206004820152601760248201527f526174652073686f756c64206e6f74206265207a65726f0000000000000000006044820152606490fd5b61444c915060203d81116105e2576105d48183610375565b386143af565b60045460009060209061446d906001600160a01b0316611c16565b6004604051809481936322d7586760e11b83525af19081156105e957600091614528575b506001600160801b039081166144c357506015546144ba9060401c6001600160801b0316610aa7565b61151e81601155565b61151e61273e6145216144ec610aa76144e46012546001600160801b031690565b864216614017565b6141ce601154916145096015546001600160801b039060401c1690565b908761451760185460801c90565b169788921661460c565b928361199b565b614540915060203d811161205e5761204e8183610375565b38614491565b1561454d57565b60405162461bcd60e51b815260206004820152600e60248201526d14195c9b5a5d0bd95e1c1a5c995960921b6044820152606490fd5b1561458a57565b60405162461bcd60e51b81526020600482015260166024820152755065726d69742f496e76616c6964206164647265737360501b6044820152606490fd5b156145cf57565b60405162461bcd60e51b815260206004820152601560248201527414195c9b5a5d0bda5b9d985b1a590b5c195c9b5a5d605a1b6044820152606490fd5b909291811561468e57600190848216156146875782945b81831c90831c93845b614637575050505050565b8080029080820403610327578181019081106103275782900493838116614662575b831c938461462c565b9584810290858204141585151516610327578181019081106103275782900495614659565b8094614623565b919215905061151e5750600090565b6000546001600160a01b031633036146b157565b606460405162461bcd60e51b815260206004820152602060248201527f4f776e61626c653a2063616c6c6572206973206e6f7420746865206f776e65726044820152fdfea2646970667358221220ebfbfc78c4cbf6be85a865e607a2c956e44ef7405a4595ae881cc6081a4f92c264736f6c63430008130033","linkReferences":{}},"methodIdentifiers":{"APY()":"ef8bd305","DOMAIN_SEPARATOR()":"3644e515","PERMIT_TYPEHASH()":"30adf81f","abond()":"50d7ede2","amint()":"503e6322","calculateCumulativeRate()":"181ab6db","calculateRatio(uint256,uint256)":"ada0b0ed","cds()":"b4eb10ce","cdsAddress()":"fe925884","depositToAaveProtocol()":"98afda43","depositToCompoundProtocol()":"b8f49090","depositTokens(uint128,uint64,uint8,uint64,uint256)":"5e34783e","getLTV()":"4ed2b8ac","getUSDValue()":"50593af7","initializeTreasury(address)":"3ed086f4","isContract(address)":"16279055","lastCDSPoolValue()":"84e92128","lastCumulativeRate()":"8e4db39a","lastEthVaultValue()":"99eb2f6c","lastEthprice()":"2feabb52","lastTotalCDSPool()":"e42f8090","liquidate(address,uint64,uint64)":"d5c28dba","multiSign()":"9e6fe439","name()":"06fdde03","noOfLiquidations()":"38a912d5","options()":"1069143a","owner()":"8da5cb5b","permit(address,address,uint256,bool,uint256,uint8,bytes32,bytes32)":"2ccd9ed4","priceFeedAddress()":"e0abca0b","ratePerSec()":"3b486a25","renounceOwnership()":"715018a6","setAPR(uint128)":"c1bab32d","setAdmin(address)":"704b6c02","setLTV(uint8)":"aad2476d","setOptions(address)":"7d6dff7d","setWithdrawTimeLimit(uint64)":"868c10d2","totalAmintSupply()":"b3aebb9c","totalDiracSupply()":"606303f8","totalNormalizedAmount()":"6fdc5203","transferOwnership(address)":"f2fde38b","treasury()":"61d027b3","treasuryAddress()":"c5f956af","updateLastEthVaultValue(uint256)":"661b7d3e","version()":"54fd4d50","withDraw(address,uint64,uint64,uint64,uint64)":"2bf16927","withdrawFromAaveProtocol(uint64)":"ec11dab2","withdrawFromCompoundProtocol(uint64)":"3f3006b4","withdrawTimeLimit()":"4f04a86b"},"id":3}