{"abi":[{"type":"constructor","inputs":[{"name":"_tokenAddress","type":"address","internalType":"address"},{"name":"_cds","type":"address","internalType":"address"},{"name":"_abondToken","type":"address","internalType":"address"},{"name":"_multiSign","type":"address","internalType":"address"},{"name":"_priceFeedAddress","type":"address","internalType":"address"},{"name":"chainId","type":"uint64","internalType":"uint64"}],"stateMutability":"nonpayable"},{"type":"function","name":"APY","inputs":[],"outputs":[{"name":"","type":"uint8","internalType":"uint8"}],"stateMutability":"view"},{"type":"function","name":"DOMAIN_SEPARATOR","inputs":[],"outputs":[{"name":"","type":"bytes32","internalType":"bytes32"}],"stateMutability":"view"},{"type":"function","name":"PERMIT_TYPEHASH","inputs":[],"outputs":[{"name":"","type":"bytes32","internalType":"bytes32"}],"stateMutability":"view"},{"type":"function","name":"abond","inputs":[],"outputs":[{"name":"","type":"address","internalType":"contract IABONDToken"}],"stateMutability":"view"},{"type":"function","name":"admin","inputs":[],"outputs":[{"name":"","type":"address","internalType":"address"}],"stateMutability":"view"},{"type":"function","name":"amint","inputs":[],"outputs":[{"name":"","type":"address","internalType":"contract IAMINT"}],"stateMutability":"view"},{"type":"function","name":"calculateCumulativeRate","inputs":[],"outputs":[{"name":"","type":"uint256","internalType":"uint256"}],"stateMutability":"nonpayable"},{"type":"function","name":"cds","inputs":[],"outputs":[{"name":"","type":"address","internalType":"contract CDSInterface"}],"stateMutability":"view"},{"type":"function","name":"cdsAddress","inputs":[],"outputs":[{"name":"","type":"address","internalType":"address"}],"stateMutability":"view"},{"type":"function","name":"depositToAaveProtocol","inputs":[],"outputs":[],"stateMutability":"nonpayable"},{"type":"function","name":"depositToCompoundProtocol","inputs":[],"outputs":[],"stateMutability":"nonpayable"},{"type":"function","name":"depositTokens","inputs":[{"name":"_ethPrice","type":"uint128","internalType":"uint128"},{"name":"_depositTime","type":"uint64","internalType":"uint64"},{"name":"_strikePercent","type":"uint8","internalType":"enum IOptions.StrikePrice"},{"name":"_strikePrice","type":"uint64","internalType":"uint64"},{"name":"_volatility","type":"uint256","internalType":"uint256"}],"outputs":[],"stateMutability":"payable"},{"type":"function","name":"getLTV","inputs":[],"outputs":[{"name":"","type":"uint8","internalType":"uint8"}],"stateMutability":"view"},{"type":"function","name":"getMessageHash","inputs":[{"name":"message","type":"bytes","internalType":"bytes"}],"outputs":[{"name":"","type":"bytes32","internalType":"bytes32"}],"stateMutability":"nonpayable"},{"type":"function","name":"getUSDValue","inputs":[],"outputs":[{"name":"","type":"uint256","internalType":"uint256"}],"stateMutability":"view"},{"type":"function","name":"initializeTreasury","inputs":[{"name":"_treasury","type":"address","internalType":"address"}],"outputs":[],"stateMutability":"nonpayable"},{"type":"function","name":"isContract","inputs":[{"name":"addr","type":"address","internalType":"address"}],"outputs":[{"name":"","type":"bool","internalType":"bool"}],"stateMutability":"view"},{"type":"function","name":"lastCDSPoolValue","inputs":[],"outputs":[{"name":"","type":"uint256","internalType":"uint256"}],"stateMutability":"view"},{"type":"function","name":"lastCumulativeRate","inputs":[],"outputs":[{"name":"","type":"uint256","internalType":"uint256"}],"stateMutability":"view"},{"type":"function","name":"lastEthVaultValue","inputs":[],"outputs":[{"name":"","type":"uint256","internalType":"uint256"}],"stateMutability":"view"},{"type":"function","name":"lastEthprice","inputs":[],"outputs":[{"name":"","type":"uint128","internalType":"uint128"}],"stateMutability":"view"},{"type":"function","name":"lastTotalCDSPool","inputs":[],"outputs":[{"name":"","type":"uint256","internalType":"uint256"}],"stateMutability":"view"},{"type":"function","name":"liquidate","inputs":[{"name":"_user","type":"address","internalType":"address"},{"name":"_index","type":"uint64","internalType":"uint64"},{"name":"currentEthPrice","type":"uint64","internalType":"uint64"}],"outputs":[],"stateMutability":"nonpayable"},{"type":"function","name":"multiSign","inputs":[],"outputs":[{"name":"","type":"address","internalType":"contract IMultiSign"}],"stateMutability":"view"},{"type":"function","name":"name","inputs":[],"outputs":[{"name":"","type":"string","internalType":"string"}],"stateMutability":"view"},{"type":"function","name":"noOfLiquidations","inputs":[],"outputs":[{"name":"","type":"uint128","internalType":"uint128"}],"stateMutability":"view"},{"type":"function","name":"options","inputs":[],"outputs":[{"name":"","type":"address","internalType":"contract IOptions"}],"stateMutability":"view"},{"type":"function","name":"owner","inputs":[],"outputs":[{"name":"","type":"address","internalType":"address"}],"stateMutability":"view"},{"type":"function","name":"permit","inputs":[{"name":"holder","type":"address","internalType":"address"},{"name":"spender","type":"address","internalType":"address"},{"name":"allowedAmount","type":"uint256","internalType":"uint256"},{"name":"allowed","type":"bool","internalType":"bool"},{"name":"expiry","type":"uint256","internalType":"uint256"},{"name":"v","type":"uint8","internalType":"uint8"},{"name":"r","type":"bytes32","internalType":"bytes32"},{"name":"s","type":"bytes32","internalType":"bytes32"}],"outputs":[{"name":"","type":"bool","internalType":"bool"}],"stateMutability":"view"},{"type":"function","name":"priceFeedAddress","inputs":[],"outputs":[{"name":"","type":"address","internalType":"address"}],"stateMutability":"view"},{"type":"function","name":"ratePerSec","inputs":[],"outputs":[{"name":"","type":"uint128","internalType":"uint128"}],"stateMutability":"view"},{"type":"function","name":"renounceOwnership","inputs":[],"outputs":[],"stateMutability":"nonpayable"},{"type":"function","name":"setAPR","inputs":[{"name":"_ratePerSec","type":"uint128","internalType":"uint128"}],"outputs":[],"stateMutability":"nonpayable"},{"type":"function","name":"setAdmin","inputs":[{"name":"_admin","type":"address","internalType":"address"}],"outputs":[],"stateMutability":"nonpayable"},{"type":"function","name":"setLTV","inputs":[{"name":"_LTV","type":"uint8","internalType":"uint8"}],"outputs":[],"stateMutability":"nonpayable"},{"type":"function","name":"setOptions","inputs":[{"name":"_options","type":"address","internalType":"address"}],"outputs":[],"stateMutability":"nonpayable"},{"type":"function","name":"setWithdrawTimeLimit","inputs":[{"name":"_timeLimit","type":"uint64","internalType":"uint64"}],"outputs":[],"stateMutability":"nonpayable"},{"type":"function","name":"totalAmintSupply","inputs":[],"outputs":[{"name":"","type":"uint256","internalType":"uint256"}],"stateMutability":"view"},{"type":"function","name":"totalDiracSupply","inputs":[],"outputs":[{"name":"","type":"uint256","internalType":"uint256"}],"stateMutability":"view"},{"type":"function","name":"totalNormalizedAmount","inputs":[],"outputs":[{"name":"","type":"uint256","internalType":"uint256"}],"stateMutability":"view"},{"type":"function","name":"transferOwnership","inputs":[{"name":"newOwner","type":"address","internalType":"address"}],"outputs":[],"stateMutability":"nonpayable"},{"type":"function","name":"treasury","inputs":[],"outputs":[{"name":"","type":"address","internalType":"contract ITreasury"}],"stateMutability":"view"},{"type":"function","name":"treasuryAddress","inputs":[],"outputs":[{"name":"","type":"address","internalType":"address"}],"stateMutability":"view"},{"type":"function","name":"updateLastEthVaultValue","inputs":[{"name":"_amount","type":"uint256","internalType":"uint256"}],"outputs":[],"stateMutability":"nonpayable"},{"type":"function","name":"version","inputs":[],"outputs":[{"name":"","type":"string","internalType":"string"}],"stateMutability":"view"},{"type":"function","name":"withDraw","inputs":[{"name":"_toAddress","type":"address","internalType":"address"},{"name":"_index","type":"uint64","internalType":"uint64"},{"name":"_ethPrice","type":"uint64","internalType":"uint64"},{"name":"_withdrawTime","type":"uint64","internalType":"uint64"},{"name":"_bondRatio","type":"uint64","internalType":"uint64"}],"outputs":[],"stateMutability":"nonpayable"},{"type":"function","name":"withdrawFromAaveProtocol","inputs":[{"name":"index","type":"uint64","internalType":"uint64"}],"outputs":[],"stateMutability":"nonpayable"},{"type":"function","name":"withdrawFromCompoundProtocol","inputs":[{"name":"index","type":"uint64","internalType":"uint64"}],"outputs":[],"stateMutability":"nonpayable"},{"type":"function","name":"withdrawTimeLimit","inputs":[],"outputs":[{"name":"","type":"uint64","internalType":"uint64"}],"stateMutability":"view"},{"type":"event","name":"Deposit","inputs":[{"name":"index","type":"uint64","indexed":false,"internalType":"uint64"},{"name":"depositedAmount","type":"uint256","indexed":false,"internalType":"uint256"},{"name":"borrowAmount","type":"uint256","indexed":false,"internalType":"uint256"},{"name":"normalizedAmount","type":"uint256","indexed":false,"internalType":"uint256"}],"anonymous":false},{"type":"event","name":"OwnershipTransferred","inputs":[{"name":"previousOwner","type":"address","indexed":true,"internalType":"address"},{"name":"newOwner","type":"address","indexed":true,"internalType":"address"}],"anonymous":false},{"type":"event","name":"Withdraw","inputs":[{"name":"borrowDebt","type":"uint256","indexed":false,"internalType":"uint256"},{"name":"withdrawAmount","type":"uint128","indexed":false,"internalType":"uint128"},{"name":"noOfAbond","type":"uint128","indexed":false,"internalType":"uint128"}],"anonymous":false},{"type":"error","name":"Borrowing_DepositFailed","inputs":[]},{"type":"error","name":"Borrowing_GettingETHPriceFailed","inputs":[]},{"type":"error","name":"Borrowing_LiquidateBurnFailed","inputs":[]},{"type":"error","name":"Borrowing_LiquidateEthTransferToCdsFailed","inputs":[]},{"type":"error","name":"Borrowing_WithdrawAMINTTransferFailed","inputs":[]},{"type":"error","name":"Borrowing_WithdrawBurnFailed","inputs":[]},{"type":"error","name":"Borrowing_WithdrawEthTransferFailed","inputs":[]},{"type":"error","name":"Borrowing_abondMintFailed","inputs":[]},{"type":"error","name":"Borrowing_amintMintFailed","inputs":[]}],"bytecode":{"object":"0x608060409080825234620002e85760c08162004b3f80380380916200002582856200031f565b833981010312620002e8576200003b8162000343565b620000496020830162000343565b926200005781840162000343565b93620000666060850162000343565b92620000756080860162000343565b60a0958601516001600160401b03978882169691879003620002e857879160009586948554600160a01b600190031993338583161788558a51978896600160a01b600190038096819582948333921690807f8be0079c531659141344cd1fd0a4f28419497f9722a3daafe3b4186f6b6457e091a372989680000000000000000000000000000f42406017557b033b2e3c9fd0803ce80000000000000000000000000000000000271060185581600160801b60019003199d8e6019541664e8d4a51000176019551689600154161760015516808860025416176002558760095416176009551685600354161760035516836006541617600655168091600c541617600c55633fabe5a360e21b8252815a91600492fa8015620002de57839062000285575b620f4240915060018060801b03918291041682600d541617600d554216906012541617601255601060208351620001cf81620002ed565b828152016f20a6a4a72a1029ba30b13632b1b7b4b760811b81522093600160208451620001fc81620002ed565b82815201603160f81b8152209383519460208601967f2010028ec63295361a00945794d4fce5b1046c419f60af448db7aaeb91e918f8885285870152606086015260808501523081850152835260c0830194838610908611176200027157508390525190206016556147d190816200036e8239f35b634e487b7160e01b81526041600452602490fd5b508581813d8311620002d6575b6200029e81836200031f565b81010312620002d25780620002b7620f42409262000358565b50620002cb60806020830151920162000358565b5062000198565b8280fd5b503d62000292565b84513d85823e3d90fd5b600080fd5b604081019081106001600160401b038211176200030957604052565b634e487b7160e01b600052604160045260246000fd5b601f909101601f19168101906001600160401b038211908210176200030957604052565b51906001600160a01b0382168203620002e857565b51906001600160501b0382168203620002e85756fe6080604052600436101561001257600080fd5b60003560e01c806306fdde03146103275780630a1028c4146103225780631069143a1461031d5780631627905514610318578063181ab6db146103135780632bf169271461030e5780632ccd9ed4146103095780632feabb521461030457806330adf81f146102ff5780633644e515146102fa57806338a912d5146102f55780633b486a25146102f05780633ed086f4146102eb5780633f3006b4146102e65780634ed2b8ac146102e15780634f04a86b146102dc578063503e6322146102d757806350593af7146102d257806350d7ede2146102cd57806354fd4d50146102c85780635e34783e146102c3578063606303f8146102be57806361d027b3146102b9578063661b7d3e146102b45780636fdc5203146102af578063704b6c02146102aa578063715018a6146102a55780637d6dff7d146102a057806384e921281461029b578063868c10d2146102965780638da5cb5b146102915780638e4db39a1461028c57806398afda431461028757806399eb2f6c146102825780639e6fe4391461027d578063aad2476d14610278578063b3aebb9c14610273578063b4eb10ce1461026e578063b8f4909014610269578063c1bab32d14610264578063c5f956af1461025f578063d5c28dba1461025a578063e0abca0b14610255578063e42f809014610250578063ec11dab21461024b578063ef8bd30514610246578063f2fde38b14610241578063f851a4401461023c5763fe9258841461023757600080fd5b61156a565b611541565b61147e565b61145a565b6113e9565b6113cb565b6113a2565b61131d565b6112f4565b611284565b611230565b611207565b6111e9565b6111a5565b61117c565b61115e565b611107565b6110e9565b6110c0565b611027565b611009565b610f36565b610edb565b610e18565b610dfa565b610d0e565b610ce5565b610cc7565b610c32565b610be7565b610bbe565b610af5565b610acc565b610aa5565b610a81565b6109fd565b610903565b6108d9565b6108b8565b61089a565b61085f565b610838565b6106b3565b6105ca565b610596565b610570565b61051b565b610496565b610449565b600091031261033757565b600080fd5b634e487b7160e01b600052604160045260246000fd5b6001600160401b03811161036557604052565b61033c565b604081019081106001600160401b0382111761036557604052565b90601f801991011681019081106001600160401b0382111761036557604052565b6040519061028082018281106001600160401b0382111761036557604052565b60405190608082018281106001600160401b0382111761036557604052565b6001600160401b03811161036557601f01601f191660200190565b6020808252825181830181905290939260005b82811061043557505060409293506000838284010152601f8019910116010190565b818101860151848201604001528501610413565b34610337576000366003190112610337576104926040516104698161036a565b601081526f20a6a4a72a1029ba30b13632b1b7b4b760811b602082015260405191829182610400565b0390f35b34610337576020366003190112610337576004356001600160401b0381116103375736602382011215610337578060040135906104d2826103e5565b6104df6040519182610385565b828152366024848401011161033757600060208461049295602461050b96018386013783010152614674565b6040519081529081906020820190565b34610337576000366003190112610337576005546040516001600160a01b039091168152602090f35b600435906001600160a01b038216820361033757565b602435906001600160a01b038216820361033757565b3461033757602036600319011261033757602061058b610544565b3b1515604051908152f35b346103375760003660031901126103375760206105b16144ba565b604051908152f35b6001600160401b0381160361033757565b346103375760a0366003190112610337576105e3610544565b6024356105ef816105b9565b6044356105fb816105b9565b60643590610608826105b9565b60843592610615846105b9565b6006546040516326d2a55160e21b8152600160048201529590602090879060249082906000906001600160a01b03165af195861561069957610669966106649160009161066b575b50156115c4565b612665565b005b61068c915060203d8111610692575b6106848183610385565b8101906115a0565b3861065d565b503d61067a565b6115b8565b8015150361033757565b60ff81160361033757565b3461033757610100366003190112610337576106cd610544565b602060006106d961055a565b6064356106e58161069e565b6107b26107be60843560a435946106fb866106a8565b8115801561082e575b61070d906145ae565b601654604080517ff48167ebcd5a3b4ca5517473931d60b9a75b03f56e5e6363767fa277375eb0808b82019081526001600160a01b038d8116602083015294909416918401919091526044356060840152951515608083015260a080830193909352858203928301865294601f19926107899060c00182610385565b5190206040519384918983019687909160429261190160f01b8352600283015260228201520190565b03908101835282610385565b5190206001600160a01b03909416936107d88515156145eb565b6040805191825260ff92909216602082015260c4359181019190915260e435606082015281805260809060015afa156106995760005161082291906001600160a01b031614614630565b60405160018152602090f35b5042821015610704565b346103375760003660031901126103375760206001600160801b03600d5416604051908152f35b346103375760003660031901126103375760206040517ff48167ebcd5a3b4ca5517473931d60b9a75b03f56e5e6363767fa277375eb0808152f35b34610337576000366003190112610337576020601654604051908152f35b3461033757600036600319011261033757602060125460801c604051908152f35b346103375760003660031901126103375760206015546001600160801b036040519160401c168152f35b346103375760203660031901126103375761091c610544565b610924614743565b6001600160a01b03811690811515806109f3575b15610988576109666106699260018060a01b03166bffffffffffffffffffffffff60a01b6004541617600455565b60018060a01b03166bffffffffffffffffffffffff60a01b6008541617600855565b60405162461bcd60e51b815260206004820152603960248201527f5472656173757279206d75737420626520636f6e74726163742061646472657360448201527f7320262063616e2774206265207a65726f2061646472657373000000000000006064820152608490fd5b50803b1515610938565b346103375760006020366003190112610a7e57600435610a1c816105b9565b610a24614743565b6004546001600160a01b0316908290823b15610a7a5760246001600160401b03918360405195869485936306ef62b960e11b85521660048401525af1801561069957610a6e575080f35b610a7790610352565b80f35b5080fd5b80fd5b3461033757600036600319011261033757602060ff600a5460a01c16604051908152f35b346103375760003660031901126103375760206001600160401b0360155416604051908152f35b34610337576000366003190112610337576001546040516001600160a01b039091168152602090f35b3461033757600080600319360112610a7e57600c54604051633fabe5a360e21b81529060a090829060049082906001600160a01b03165afa918215610699578092610b69575b61049261050b84610b63610b576017546001600160801b031690565b6001600160801b031690565b90611a32565b90915060a0823d8211610bb6575b81610b8460a09383610385565b81010312610a7e575061050b81610b9d6104929361410f565b50610baf60806020830151920161410f565b5091610b3b565b3d9150610b77565b34610337576000366003190112610337576003546040516001600160a01b039091168152602090f35b3461033757600036600319011261033757610492604051610c078161036a565b60018152603160f81b602082015260405191829182610400565b6001600160801b0381160361033757565b60a036600319011261033757600435610c4a81610c21565b60243590610c57826105b9565b60443560058110156103375760643590610c70826105b9565b6006546040516326d2a55160e21b8152600060048201819052909591602091879160249183916001600160a01b03165af19485156106995761066995610cbe9160009161066b5750156115c4565b60843593611c32565b34610337576000366003190112610337576020601454604051908152f35b34610337576000366003190112610337576004546040516001600160a01b039091168152602090f35b3461033757602036600319011261033757600854600435906001600160a01b03163303610da2578015610d5257600e54908103908111610d4d57600e55005b6116b7565b60405162461bcd60e51b815260206004820152602260248201527f4c61737420455448207661756c742076616c75652063616e2774206265207a65604482015261726f60f01b6064820152608490fd5b60405162461bcd60e51b815260206004820152602a60248201527f46756e6374696f6e2073686f756c64206f6e6c792062652063616c6c656420626044820152697920747265617375727960b01b6064820152608490fd5b34610337576000366003190112610337576020600b54604051908152f35b3461033757602036600319011261033757610e31610544565b610e39614743565b6001600160a01b038116151580610ecd575b15610e7157600a80546001600160a01b0319166001600160a01b03909216919091179055005b60405162461bcd60e51b815260206004820152602e60248201527f41646d696e2063616e277420626520636f6e747261637420616464726573732060448201526d26207a65726f206164647265737360901b6064820152608490fd5b506001813b15151415610e4b565b3461033757600080600319360112610a7e57610ef5614743565b80546001600160a01b03198116825581906001600160a01b03167f8be0079c531659141344cd1fd0a4f28419497f9722a3daafe3b4186f6b6457e08280a380f35b3461033757602036600319011261033757610f4f610544565b610f57614743565b6001600160a01b038116908115159081610ffe575b5015610f9357600580546001600160a01b0319166001600160a01b03909216919091179055005b60405162461bcd60e51b815260206004820152603860248201527f4f7074696f6e73206d75737420626520636f6e7472616374206164647265737360448201527f20262063616e2774206265207a65726f206164647265737300000000000000006064820152608490fd5b90503b151538610f6c565b34610337576000366003190112610337576020600f54604051908152f35b34610337576020366003190112610337576001600160401b0360043561104c816105b9565b611054614743565b168015611071576001600160401b03196015541617601555600080f35b60405162461bcd60e51b815260206004820152602160248201527f57697468647261772074696d65206c696d69742063616e2774206265207a65726044820152606f60f81b6064820152608490fd5b34610337576000366003190112610337576000546040516001600160a01b039091168152602090f35b34610337576000366003190112610337576020601154604051908152f35b3461033757600080600319360112610a7e57611121614743565b60045481906001600160a01b0316803b1561115b5781906004604051809481936301865f0760e21b83525af1801561069957610a6e575080f35b50fd5b34610337576000366003190112610337576020600e54604051908152f35b34610337576000366003190112610337576006546040516001600160a01b039091168152602090f35b34610337576020366003190112610337576004356111c2816106a8565b6111ca614743565b600a805460ff60a01b191660a09290921b60ff60a01b16919091179055005b34610337576000366003190112610337576020601354604051908152f35b34610337576000366003190112610337576002546040516001600160a01b039091168152602090f35b3461033757600080600319360112610a7e5761124a614743565b60045481906001600160a01b0316803b1561115b5781906004604051809481936306e1444d60e21b83525af1801561069957610a6e575080f35b34610337576020366003190112610337576004356112a181610c21565b6006546040516326d2a55160e21b8152600360048201529190602090839060249082906000906001600160a01b03165af191821561069957610669926112ef9160009161066b5750156115c4565b6143d7565b34610337576000366003190112610337576008546040516001600160a01b039091168152602090f35b3461033757606036600319011261033757611336610544565b602435611342816105b9565b6044359061134f826105b9565b6006546040516326d2a55160e21b8152600260048201529390602090859060249082906000906001600160a01b03165af1938415610699576106699461139d9160009161066b5750156115c4565b61378b565b3461033757600036600319011261033757600c546040516001600160a01b039091168152602090f35b34610337576000366003190112610337576020601054604051908152f35b346103375760006020366003190112610a7e57600435611408816105b9565b611410614743565b6004546001600160a01b0316908290823b15610a7a5760246001600160401b0391836040519586948593630376724160e41b85521660048401525af1801561069957610a6e575080f35b3461033757600036600319011261033757602060ff600a5460a81c16604051908152f35b3461033757602036600319011261033757611497610544565b61149f614743565b6001600160a01b0390811680156114ed57600080546001600160a01b03198116831782559092167f8be0079c531659141344cd1fd0a4f28419497f9722a3daafe3b4186f6b6457e08380a380f35b60405162461bcd60e51b815260206004820152602660248201527f4f776e61626c653a206e6577206f776e657220697320746865207a65726f206160448201526564647265737360d01b6064820152608490fd5b3461033757600036600319011261033757600a546040516001600160a01b039091168152602090f35b34610337576000366003190112610337576009546040516001600160a01b039091168152602090f35b519061159e8261069e565b565b9081602091031261033757516115b58161069e565b90565b6040513d6000823e3d90fd5b156115cb57565b60405162461bcd60e51b815260206004820152600660248201526514185d5cd95960d21b6044820152606490fd5b1561160057565b60405162461bcd60e51b815260206004820152601a60248201527f43616e6e6f74206465706f736974207a65726f20746f6b656e730000000000006044820152606490fd5b1561164c57565b60405162461bcd60e51b815260206004820152603e60248201527f596f7520646f206e6f7420686176652073756666696369656e742062616c616e60448201527f636520746f20657865637574652074686973207472616e73616374696f6e00006064820152608490fd5b634e487b7160e01b600052601160045260246000fd5b60011b907001fffffffffffffffffffffffffffffffe6ffffffffffffffffffffffffffffffffe831692168203610d4d57565b9060326001600160801b0380931602918216918203610d4d57565b906001600160801b03809216601402918216918203610d4d57565b9060646001600160801b0380931602918216918203610d4d57565b90600a6001600160801b0380931602918216918203610d4d57565b9190916001600160801b0380809416911602918216918203610d4d57565b1561179157565b60405162461bcd60e51b81526020600482015260166024820152754e6f7420656e6f7567682066756e6420696e2043445360501b6044820152606490fd5b519061159e826105b9565b919082604091031261033757602082516117f38161069e565b9201516115b5816105b9565b90816020910312610337575190565b9194939290946001600160801b03608084019616835260208301526040820152600582101561183d5760600152565b634e487b7160e01b600052602160045260246000fd5b519061159e82610c21565b9081602091031261033757516115b581610c21565b519061159e826106a8565b809291036102a08112610337578251611896816105b9565b926102808092601f19011261033757611a026118b06103a6565b926118bd602084016117cf565b84526118cb60408401611853565b60208501526118dc60608401611853565b60408501526118ed608084016117cf565b60608501526118fe60a08401611853565b608085015261190f60c08401611853565b60a085015261192060e08401611853565b60c085015261010092611934848201611873565b60e086015261012093611948858301611593565b908601526101409361195b858301611853565b908601526101609361196e858301611593565b90860152610180936119818583016117cf565b908601526101a0936119948583016117cf565b908601526101c0936119a7858301611853565b908601526101e0936119ba858301611853565b90860152610200936119cd858301611853565b90860152610220938482015190860152610240936119ec8583016117cf565b9086015261026093848201519086015201611853565b9082015290565b81810292918115918404141715610d4d57565b634e487b7160e01b600052601260045260246000fd5b8115611a3c570490565b611a1c565b6001600160a01b0390911681526001600160401b039182166020820152825190911660408201526102c08101929161159e91906102a09060208101516001600160801b0316606084015260408101516001600160801b0316608084015260608101516001600160401b031660a084015260808101516001600160801b031660c084015260a08101516001600160801b031660e084015260c081015190611af561010092838601906001600160801b03169052565b60e081015191611b0d610120938487019060ff169052565b81015191611b22610140938487019015159052565b81015191611b3e61016093848701906001600160801b03169052565b81015191611b53610180938487019015159052565b81015191611b6f6101a093848701906001600160401b03169052565b81015191611b8b6101c093848701906001600160401b03169052565b81015191611ba76101e093848701906001600160801b03169052565b81015191611bc361020093848701906001600160801b03169052565b81015191611bdf61022093848701906001600160801b03169052565b81015191610240928386015281015191611c0761026093848701906001600160401b03169052565b81015161028085015201516001600160801b0316910152565b91908201809211610d4d57565b601055565b9092611cff9293611c443415156115f9565b611c5034333111611645565b6001600160801b0395611c6587851634614126565b92611c98611c86610b57611c816018546001600160801b031690565b6116cd565b6001600160401b03809616101561178a565b60048054909190611cb9906001600160a01b03165b6001600160a01b031690565b6040805163dcb71f3f60e01b8152338582019081526001600160801b038a1660208201526001600160401b039097168783015298909586928a9290918391829160600190565b039134905af196871561069957600090819861213a575b506005546001600160a01b03166001600160a01b03169385518095636916a18160e11b825281808b60209e8f9634908b850193611d529461180e565b03915a90600091f19384156106995760009461210b575b50156120fc57611d7b83873433612237565b6002549098908a90611d95906001600160a01b0316611cad565b941693818651809263b87c3dc360e01b825281600081611dc78b8b83019190916001600160801b036020820193169052565b03925af18015610699576120ce575b50508154611dec906001600160a01b0316611cad565b8451634d5c56a560e01b8152338482019081526001600160401b038a1660208201526102a09591908690829081906040010381865afa95861561069957600096612097575b50506001600160801b038a8c161660a0860152611e59906001600160801b03166101e0860152565b803b15610337578451632e449f1760e21b81523384820190815260016020820152909160009183919082908490829060400103925af1801561069957612084575b508154611eaf906001600160a01b0316611cad565b90813b15610337578451630e6840d960e11b815233848201908152602081018b9052909260009184919082908490829060400103925af190811561069957611f5a92611f4992612071575b50611f2d611f066144ba565b611f288c611f23611f1c610b5760185460801c90565b8092611a09565b611a09565b611a32565b6001600160801b038c82161660c0870152968b3416911661176c565b6001600160801b03166101c0840152565b8054611f6e906001600160a01b0316611cad565b91823b1561033757611f9b928760008094875196879586948593634222066960e11b855233908501611a41565b03925af19687156106995761200961205395612027937f3f7c04c09b19100060129256b7d82f055d0aa72cf17042fb3f2d41d1fffc02609a612058575b50611fed611fe887600b54611c20565b600b55565b6001600160801b03166001600160801b0319600d541617600d55565b42166001600160801b03166001600160801b03196012541617601255565b51938493349085909493926060926001600160401b036080840197168352602083015260408201520152565b0390a1565b8061206561206b92610352565b8061032c565b38611fd8565b8061206561207e92610352565b38611efa565b8061206561209192610352565b38611e9a565b611e5992965090816120bd92903d106120c7575b6120b58183610385565b81019061187e565b9050949038611e31565b503d6120ab565b816120ed92903d106120f5575b6120e58183610385565b81019061185e565b503880611dd6565b503d6120db565b508251634fad3b0960e01b8152fd5b61212c919450893d8b11612133575b6121248183610385565b8101906117ff565b9238611d69565b503d61211a565b905061215d919750843d8611612165575b6121558183610385565b8101906117da565b969038611d16565b503d61214b565b1561217357565b60405162461bcd60e51b815260206004820152601f60248201527f426f72726f7765722063616e6e6f74206265207a65726f2061646472657373006044820152606490fd5b156121bf57565b60405162461bcd60e51b815260206004820152603860248201527f4c5456206d7573742062652073657420746f206e6f6e2d7a65726f2076616c7560448201527f65206265666f72652070726f766964696e67206c6f616e7300000000000000006064820152608490fd5b91908203918211610d4d57565b92916122b6916122a19190611f239061228c9061225e6001600160a01b038916151561216c565b6001600160801b0360ff612278600a5460ff9060a01c1690565b16946122858615156121b8565b1690611a09565b610b63610b576019546001600160801b031690565b610b63610b576018546001600160801b031690565b6001546122cb906001600160a01b0316611cad565b926122d6838361222a565b6040516340c10f1960e01b8082526001600160a01b0393909316600482015260248101919091526020949091908590839060449082906000905af19081156106995784869161236e9460009461242b575b5060015461233d906001600160a01b0316611cad565b6008546040519283526001600160a01b03166004830152602482019290925293849190829060009082906044820190565b03925af19182156106995760009261240c575b50156123fa57156123fa576001546004939081906123a7906001600160a01b0316611cad565b6040516318160ddd60e01b815295869182905afa8015610699576115b5946123d8926000926123dd575b5050601355565b61222a565b6123f39250803d10612133576121248183610385565b38806123d1565b604051630a9b6d3960e41b8152600490fd5b612424919250853d8711610692576106848183610385565b9038612381565b612443919450833d8511610692576106848183610385565b9238612327565b1561245157565b60405162461bcd60e51b815260206004820152603060248201527f546f20616464726573732063616e6e6f742062652061207a65726f20616e642060448201526f636f6e7472616374206164647265737360801b6064820152608490fd5b156124b657565b60405162461bcd60e51b815260206004820152601f60248201527f5573657220616d6f756e7420686173206265656e206c697175696461746564006044820152606490fd5b906127106001600160401b0380931602918216918203610d4d57565b9060646001600160401b0380931602918216918203610d4d57565b906001600160801b03809116918215611a3c57160490565b1561255157565b60405162461bcd60e51b8152602060048201526016602482015275426f72726f77696e674865616c7468206973204c6f7760501b6044820152606490fd5b1561259657565b60405162461bcd60e51b815260206004820152602260248201527f557365722062616c616e6365206973206c657373207468616e20726571756972604482015261195960f21b6064820152608490fd5b6001600160a01b0390911681526001600160801b03909116602082015260400190565b9190916001600160801b0380809416911601918211610d4d57565b6001600160a01b039182168152911660208201526001600160801b0390911660408201526001600160401b0391821660608201529116608082015260a00190565b90939091906001600160a01b0383161515806130c8575b6126859061244a565b6001600160401b03946126b08684166001600160801b03166001600160801b0319600d541617600d55565b6004546126c5906001600160a01b0316611cad565b604051634d5c56a560e01b81523360048201526001600160401b038316602482015296906102a0908190899060449082905afa9788156106995760009182996130a4575b5050828216908216106130505761273361272e61272a6101408a0151151590565b1590565b6124af565b610100870151612fff5760ff61274d60e089015160ff1690565b169687612ee95761278b95969750612764856124fb565b6001600160801b039687918461278460808601516001600160801b031690565b9116612532565b169361279a611f40861161254a565b6127e56127d16127c26127b760c08601516001600160801b031690565b8a6011549116611a09565b610b63610b5760185460801c90565b976120096127e06127c26144ba565b601155565b6001546127fa906001600160a01b0316611cad565b6040516370a0823160e01b815233600482015290996020826024818e5afa801561069957896128379161285894600091612eca575b50101561258f565b6001600160401b0388166101608501526001600160401b0316610180840152565b600160e08301526128c0610b576128ad612893868a166128a86128936128a361289361288e60208c01516001600160801b031690565b611700565b6001600160801b03606491160490565b61171b565b61176c565b6019546001600160801b03165b90612532565b90600060206129156128e9856123d8610b5761289361288e60a08c01516001600160801b031690565b6040516363a9f09360e11b815233600482015260248101829052909d9093849283919082906044820190565b03925af190811561069957600091612eab575b5015612e995760015461299e906020908c9061294c906001600160a01b0316611cad565b600854612963906001600160a01b0316928d61222a565b6040516323b872dd60e01b81523360048201526001600160a01b03909316602484015260448301529092839190829060009082906064820190565b03925af190811561069957600091612e7a575b5015612e68576129dc611fe86129d4610b5760c08701516001600160801b031690565b600b5461222a565b6004546129f1906001600160a01b0316611cad565b91612a12612a0c610b5760a08701516001600160801b031690565b8a61222a565b92803b156103375760405163b9a221eb60e01b815260048101949094526000908490602490829084905af192831561069957612a5493612e55575b5033613119565b976102008201526101a0810197612a74818a906001600160801b03169052565b600454612a89906001600160a01b0316611cad565b803b156103375760405163d9b74cc360e01b8152916000918391829084908290612ab79033600484016125e6565b03925af1801561069957612e42575b50600454612adc906001600160a01b0316611cad565b91823b156103375760006040518094634222066960e11b8252818381612b07888b3360048501611a41565b03925af1908115610699578693612b5392612e2f575b50612b4e612b3560208501516001600160801b031690565b6080850151928616926001600160801b03165b9061176c565b612532565b9361271080821115612dd7575050600554612bed94926020929091612b80906001600160a01b0316611cad565b90612ba96101c0612b9a868401516001600160801b031690565b9201516001600160801b031690565b6040516310335d6b60e21b81526001600160801b039283166004820152911660248201526001600160401b0390921660448301529094859190829081906064820190565b03915afa9081156106995761288e612c149261289392602096600092612db8575b50612609565b94856000612c2c611cad60045460018060a01b031690565b92612c4e60405197889687958694637f32905760e11b86523360048701612624565b03925af190811561069957600091612d99575b5015612d8757600154612c7c906001600160a01b0316611cad565b6040516020816004816318160ddd60e01b958682525afa801561069957612cab91600091612d68575b50601355565b600354602090612cc3906001600160a01b0316611cad565b9160046040518094819382525afa8015610699577f2dc3b614e32706dcf24286e69af4692f4b2c24fc339d659e80b26d49379b691494612d12612d1f9261205394600091612d49575b50601455565b516001600160801b031690565b60405193849384916040919493606084019584526001600160801b03809216602085015216910152565b612d62915060203d602011612133576121248183610385565b38612d0c565b612d81915060203d602011612133576121248183610385565b38612ca5565b604051635e5e86d560e01b8152600490fd5b612db2915060203d602011610692576106848183610385565b38612c61565b612dd0919250873d89116120f5576120e58183610385565b9038612c0e565b91925090808203612df357505050612c14612893602093611700565b9080929450611f40109182612e25575b50501561255157612c1461289361288e6020809501516001600160801b031690565b1090503880612e03565b80612065612e3c92610352565b38612b1d565b80612065612e4f92610352565b38612ac6565b80612065612e6292610352565b38612a4d565b604051637e74fa1d60e01b8152600490fd5b612e93915060203d602011610692576106848183610385565b386129b1565b6040516303f7009160e51b8152600490fd5b612ec4915060203d602011610692576106848183610385565b38612928565b612ee3915060203d602011612133576121248183610385565b3861282f565b9495505091946001915014600014612fff57612f4593612f146101808401516001600160401b031690565b91612f3f610120612f306101a08701516001600160801b031690565b9501516001600160801b031690565b946132fb565b600154612f5a906001600160a01b0316611cad565b60405190816318160ddd60e01b9182825281600460209586935afa801561069957612f8c91600091612fe85750601355565b6003548290612fa3906001600160a01b0316611cad565b9160046040518094819382525afa9081156106995761159e92600092612fcb575b5050601455565b612fe19250803d10612133576121248183610385565b3880612fc4565b612d819150843d8611612133576121248183610385565b60405162461bcd60e51b815260206004820152602360248201527f5573657220616c726561647920776974686472617720656e7469726520616d6f6044820152621d5b9d60ea1b6064820152608490fd5b60405162461bcd60e51b815260206004820152602660248201527f5573657220646f656e73277420686176652074686520706572746963756c6172604482015265040d2dcc8caf60d31b6064820152608490fd5b6130bf93995080919250903d106120c7576120b58183610385565b96903880612709565b50823b15156001141561267c565b156130dd57565b60405162461bcd60e51b8152602060048201526014602482015273416d6f756e742063616e2774206265207a65726f60601b6044820152606490fd5b916128ba6131596131536001600160801b036131659561314260018060a01b038916151561216c565b61314d8115156130d6565b16611736565b92612517565b6001600160401b031690565b6003549091829161317e906001600160a01b0316611cad565b9060405180926340c10f1960e01b8252816000816131a36020988997600484016125e6565b03925af190811561069957600091613215575b50156132035760035460049082906131d6906001600160a01b0316611cad565b6040516318160ddd60e01b815292839182905afa908115610699576115b592600092612fcb575050601455565b6040516328eca99f60e21b8152600490fd5b61322c9150823d8411610692576106848183610385565b386131b6565b9190916001600160401b0380809416911601918211610d4d57565b1561325457565b60405162461bcd60e51b815260206004820152602d60248201527f43616e2774207769746864726177206265666f7265207468652077697468647260448201526c185dc81d1a5b59481b1a5b5a5d609a1b6064820152608490fd5b156132b657565b60405162461bcd60e51b815260206004820152601e60248201527f446f6e2774206861766520656e6f7567682041424f4e4420546f6b656e7300006044820152606490fd5b929161332c61332461315961337198949561331e6015546001600160401b031690565b90613232565b42101561324d565b600354613341906001600160a01b0316611cad565b604080516370a0823160e01b81523360048083019190915298919760209793909288918391829081906024820190565b03915afa8015610699576133989160009161376e575b506001600160801b038316146132af565b875485906133ae906001600160a01b0316611cad565b8851634d5c56a560e01b8152338b82019081526001600160401b0390931660208401526102a0928390829081906040010381855afa9283156106995760009361374d575b5050818801516001600160801b031690803b156103375761342d916000918c838d51809681958294631b35376f60e21b8452339084016125e6565b03925af180156106995761373a575b506001610100820152600260e08201528854613460906001600160a01b0316611cad565b803b156103375760008361348b928c838d51809681958294637e2ce58360e11b8452339084016125e6565b03925af1801561069957613727575b5060006101a082015288546134b7906001600160a01b0316611cad565b803b15610337576000826134e49289838e8e5196879586948593634222066960e11b855233908501611a41565b03925af1801561069957613714575b508854613508906001600160a01b0316611cad565b61352261289361288e60a08501516001600160801b031690565b90803b156103375761354e916000918c838d51809681958294630adfd5a560e21b8452309084016125e6565b03925af18015610699578a926135c1928a92613701575b5060015461357b906001600160a01b0316611cad565b600854610200906001600160a01b03169201519160008d518096819582946363a9f09360e11b9a8b8552840160209093929193604081019460018060a01b031681520152565b03925af1908115610699576000916136e4575b50156136d45761360c9187918a60006135f7611cad60035460018060a01b031690565b928c51968795869485938452339084016125e6565b03925af1908115610699576000916136b7575b50156136a7579084929160008861365f613642611cad835460018060a01b031690565b948a5198899788968795637f32905760e11b875233908701612624565b03925af19182156106995760009261368a575b50501561367d575050565b51635e5e86d560e01b8152fd5b6136a09250803d10610692576106848183610385565b3880613672565b85516303f7009160e51b81528790fd5b6136ce9150863d8811610692576106848183610385565b3861361f565b87516303f7009160e51b81528990fd5b6136fb9150883d8a11610692576106848183610385565b386135d4565b8061206561370e92610352565b38613565565b8061206561372192610352565b386134f3565b8061206561373492610352565b3861349a565b8061206561374792610352565b3861343c565b613764929350803d106120c7576120b58183610385565b90509038806133f2565b6137859150883d8a11612133576121248183610385565b38613387565b600a54909291906001600160a01b039081163303613ee9576137bc9084166137b4811515613f27565b331415613f7f565b6137ee6137d36137ce60125460801c90565b613fd9565b6001600160801b036012549181199060801b16911617601255565b60048054909290613807906001600160a01b0316611cad565b60408051634d5c56a560e01b81526001600160a01b0387168682019081526001600160401b0386166020820152929691946102a094929390929190859082908190890103818b5afa94851561069957600095613ec8575b5050610140840161387a61387561272a8351151590565b613ff1565b60209788860192888a61389486516001600160801b031690565b938a5192838092630f27449560e01b82525afa90811561069957600091613eab575b506001600160801b0380931611156138cd90614032565b6138d6906124fb565b9181608088019384516138ef906001600160801b031690565b613901916001600160401b0316612532565b16611f4010156139109061407e565b6001905260c08601516001600160801b0316601154613930918316611a09565b60185460801c6001600160801b031661394891611a32565b6139506144ba565b60185460801c6001600160801b031661396891611a32565b60115581811690898551613982906001600160801b031690565b85516001600160801b03166139969161176c565b9483806019546139ac906001600160801b031690565b97886139b791612532565b60646001600160801b0390911604906139cf916140c1565b6139d890611751565b60646001600160801b039091160496879289516139fb906001600160801b031690565b90516001600160801b0316613a0f9161176c565b90613a1991612532565b60646001600160801b039091160490613a31916140c1565b90613a3b916140c1565b613a458685612609565b96613a4e6140da565b50516001600160801b03166002548e906001600160a01b03166001600160a01b03168d51636e48f3a960e11b815294859182905a90600091f1908115610699578e93600092613e86575b50613ac6613ad59293613aa96103c6565b6001600160801b038c168152958601906001600160801b03169052565b6001600160801b0316838d0152565b6060820152600254613aef906001600160a01b0316611cad565b90613afc60125460801c90565b90823b1561033757613b6292600092838f8f519687958694859363b3013d4d60e01b85528401909291606060809160a08401956001600160801b038091168552808251166020860152806020830151166040860152604082015116828501520151910152565b03925af1801561069957613e73575b50600254613b87906001600160a01b0316611cad565b803b1561033757895163dc55b19360e01b81526001600160801b038716818d01908152909160009183919082908490829060200103925af1801561069957613e60575b50600254613be0906001600160a01b0316611cad565b803b15610337578951634cae95d360e01b81526001600160801b03909616868c01908152600091879182908490829060200103925af191821561069957613c3895613c3093613e4d575b5061222a565b911690611c20565b8554613c4c906001600160a01b0316611cad565b803b156103375785516308fc416760e21b815287810192835291600091839182908490829060200103925af1801561069957613e3a575b508454613c98906001600160a01b0316611cad565b91823b1561033757613cc592600092838693885196879586948593634222066960e11b85528d8501611a41565b03925af1801561069957613e27575b50825460a090613cec906001600160a01b0316611cad565b910180516001600160801b031691803b15610337578351630adfd5a560e21b8152926000918491829084908290613d2690308c84016125e6565b03925af190811561069957613d8d928692613e14575b50600154613d52906001600160a01b0316611cad565b600854613d70906001600160a01b031692516001600160801b031690565b91600086518096819582946363a9f09360e11b84528b84016125e6565b03925af190811561069957600091613df7575b5015613dea57600154839190613dbe906001600160a01b0316611cad565b90516318160ddd60e01b815292839182905afa9081156106995761159e926000926123dd575050601355565b51632105f02360e11b8152fd5b613e0e9150843d8611610692576106848183610385565b38613da0565b80612065613e2192610352565b38613d3c565b80612065613e3492610352565b38613cd4565b80612065613e4792610352565b38613c83565b80612065613e5a92610352565b38613c2a565b80612065613e6d92610352565b38613bca565b80612065613e8092610352565b38613b71565b613ad59250613ea4613ac691863d8811612133576121248183610385565b9250613a98565b613ec291508b3d8d11612133576121248183610385565b386138b6565b613edf929550803d106120c7576120b58183610385565b905092388061385e565b60405162461bcd60e51b815260206004820152601660248201527521b0b63632b91034b9903737ba1030b71030b236b4b760511b6044820152606490fd5b15613f2e57565b60405162461bcd60e51b815260206004820152602360248201527f546f20616464726573732063616e6e6f742062652061207a65726f206164647260448201526265737360e81b6064820152608490fd5b15613f8657565b60405162461bcd60e51b815260206004820152602560248201527f596f752063616e6e6f74206c697175696461746520796f7572206f776e206173604482015264736574732160d81b6064820152608490fd5b6001600160801b03809116908114610d4d5760010190565b15613ff857565b60405162461bcd60e51b8152602060048201526012602482015271105b1c9958591e48131a5c5d5a59185d195960721b6044820152606490fd5b1561403957565b60405162461bcd60e51b815260206004820152601c60248201527f4e6f7420656e6f7567682066756e647320696e207472656173757279000000006044820152606490fd5b1561408557565b60405162461bcd60e51b8152602060048201526014602482015273596f752063616e6e6f74206c697175696461746560601b6044820152606490fd5b6001600160801b039182169082160391908211610d4d57565b60405190608082018281106001600160401b038211176103655760405260006060838281528260208201528260408201520152565b519069ffffffffffffffffffff8216820361033757565b9060009080156143c5576004548290614147906001600160a01b0316611cad565b604051906322d7586760e11b82528160048160209788945af191821561069957916143a8575b50614183610b57600d546001600160801b031690565b8281811115614395576141a9916141999161222a565b6001600160801b03831690611a09565b905b6000906001600160801b03166142af57506141d06141cb83600496611a09565b600e55565b600e5460025490929084906141ed906001600160a01b0316611cad565b6040516315d9753160e11b815296879182905afa801561069957611c2d610b57614234926115b59861315998600092614292575b50506019546001600160801b0316612b48565b614249610b57600d546001600160801b031690565b1161427e5761425d61426291601054611c20565b600f55565b611f28600f545b614278610b5760175460801c90565b90611a09565b61425d61428d9160105461222a565b614262565b6142a89250803d106120f5576120e58183610385565b3880614221565b92936142c8906142c284600e5492611a09565b90611c20565b916142d283600e55565b60025460049086906142ec906001600160a01b0316611cad565b6040516315d9753160e11b815292839182905afa92831561069957614335610b57611f2895614371946115b59a6131599a926142925750506019546001600160801b0316612b48565b9261434b610b57600d546001600160801b031690565b1161437f5761436b90614366600f546142c26010548761222a565b611c20565b91601055565b61437a81600f55565b614269565b61436b906123d8600f546142c26010548761222a565b614199906143a29261222a565b906141ab565b6143bf9150833d85116120f5576120e58183610385565b3861416d565b6040516315e73e9f60e01b8152600490fd5b6143df614743565b60065460405163c722f56b60e01b815290602090829060049082906000906001600160a01b03165af19081156106995760009161449c575b5015610337576001600160801b038116156144575761159e90600160401b600160c01b036015549160401b1690600160401b600160c01b03191617601555565b60405162461bcd60e51b815260206004820152601760248201527f526174652073686f756c64206e6f74206265207a65726f0000000000000000006044820152606490fd5b6144b4915060203d8111610692576106848183610385565b38614417565b6004546000906020906144d5906001600160a01b0316611cad565b6004604051809481936322d7586760e11b83525af190811561069957600091614590575b506001600160801b0390811661452b57506015546145229060401c6001600160801b0316610b57565b6115b581601155565b6115b56127e0614589614554610b5761454c6012546001600160801b031690565b8642166140c1565b614278601154916145716015546001600160801b039060401c1690565b908761457f60185460801c90565b16978892166146b2565b9283611a32565b6145a8915060203d81116120f5576120e58183610385565b386144f9565b156145b557565b60405162461bcd60e51b815260206004820152600e60248201526d14195c9b5a5d0bd95e1c1a5c995960921b6044820152606490fd5b156145f257565b60405162461bcd60e51b81526020600482015260166024820152755065726d69742f496e76616c6964206164647265737360501b6044820152606490fd5b1561463757565b60405162461bcd60e51b815260206004820152601560248201527414195c9b5a5d0bda5b9d985b1a590b5c195c9b5a5d605a1b6044820152606490fd5b601654815160209283012060405161190160f01b938101938452602281019290925260428083019190915281526146ac606282610385565b51902090565b9092918115614734576001908482161561472d5782945b81831c90831c93845b6146dd575050505050565b8080029080820403610337578181019081106103375782900493838116614708575b831c93846146d2565b95848102908582041415851515166103375781810190811061033757829004956146ff565b80946146c9565b91921590506115b55750600090565b6000546001600160a01b0316330361475757565b606460405162461bcd60e51b815260206004820152602060248201527f4f776e61626c653a2063616c6c6572206973206e6f7420746865206f776e65726044820152fdfea2646970667358221220619f66468baf5894ebc29105873921d3b96a7ffe8f44e24221674ed2d94cc8fd64736f6c63430008120033","linkReferences":{}},"methodIdentifiers":{"APY()":"ef8bd305","DOMAIN_SEPARATOR()":"3644e515","PERMIT_TYPEHASH()":"30adf81f","abond()":"50d7ede2","admin()":"f851a440","amint()":"503e6322","calculateCumulativeRate()":"181ab6db","cds()":"b4eb10ce","cdsAddress()":"fe925884","depositToAaveProtocol()":"98afda43","depositToCompoundProtocol()":"b8f49090","depositTokens(uint128,uint64,uint8,uint64,uint256)":"5e34783e","getLTV()":"4ed2b8ac","getMessageHash(bytes)":"0a1028c4","getUSDValue()":"50593af7","initializeTreasury(address)":"3ed086f4","isContract(address)":"16279055","lastCDSPoolValue()":"84e92128","lastCumulativeRate()":"8e4db39a","lastEthVaultValue()":"99eb2f6c","lastEthprice()":"2feabb52","lastTotalCDSPool()":"e42f8090","liquidate(address,uint64,uint64)":"d5c28dba","multiSign()":"9e6fe439","name()":"06fdde03","noOfLiquidations()":"38a912d5","options()":"1069143a","owner()":"8da5cb5b","permit(address,address,uint256,bool,uint256,uint8,bytes32,bytes32)":"2ccd9ed4","priceFeedAddress()":"e0abca0b","ratePerSec()":"3b486a25","renounceOwnership()":"715018a6","setAPR(uint128)":"c1bab32d","setAdmin(address)":"704b6c02","setLTV(uint8)":"aad2476d","setOptions(address)":"7d6dff7d","setWithdrawTimeLimit(uint64)":"868c10d2","totalAmintSupply()":"b3aebb9c","totalDiracSupply()":"606303f8","totalNormalizedAmount()":"6fdc5203","transferOwnership(address)":"f2fde38b","treasury()":"61d027b3","treasuryAddress()":"c5f956af","updateLastEthVaultValue(uint256)":"661b7d3e","version()":"54fd4d50","withDraw(address,uint64,uint64,uint64,uint64)":"2bf16927","withdrawFromAaveProtocol(uint64)":"ec11dab2","withdrawFromCompoundProtocol(uint64)":"3f3006b4","withdrawTimeLimit()":"4f04a86b"},"id":3}