{"abi":[{"type":"constructor","inputs":[{"name":"_tokenAddress","type":"address","internalType":"address"},{"name":"_cds","type":"address","internalType":"address"},{"name":"_protocolToken","type":"address","internalType":"address"},{"name":"_priceFeedAddress","type":"address","internalType":"address"}],"stateMutability":"nonpayable"},{"type":"function","name":"APY","inputs":[],"outputs":[{"name":"","type":"uint8","internalType":"uint8"}],"stateMutability":"view"},{"type":"function","name":"Trinity","inputs":[],"outputs":[{"name":"","type":"address","internalType":"contract ITrinityToken"}],"stateMutability":"view"},{"type":"function","name":"admin","inputs":[],"outputs":[{"name":"","type":"address","internalType":"address"}],"stateMutability":"view"},{"type":"function","name":"calculateCumulativeRate","inputs":[],"outputs":[{"name":"","type":"uint256","internalType":"uint256"}],"stateMutability":"nonpayable"},{"type":"function","name":"cds","inputs":[],"outputs":[{"name":"","type":"address","internalType":"contract CDSInterface"}],"stateMutability":"view"},{"type":"function","name":"cdsAddress","inputs":[],"outputs":[{"name":"","type":"address","internalType":"address"}],"stateMutability":"view"},{"type":"function","name":"depositToAaveProtocol","inputs":[],"outputs":[],"stateMutability":"nonpayable"},{"type":"function","name":"depositToCompoundProtocol","inputs":[],"outputs":[],"stateMutability":"nonpayable"},{"type":"function","name":"depositTokens","inputs":[{"name":"_ethPrice","type":"uint128","internalType":"uint128"},{"name":"_depositTime","type":"uint64","internalType":"uint64"},{"name":"_strikePrice","type":"uint64","internalType":"uint64"},{"name":"_volatility","type":"uint256","internalType":"uint256"}],"outputs":[],"stateMutability":"payable"},{"type":"function","name":"getAPY","inputs":[],"outputs":[{"name":"","type":"uint8","internalType":"uint8"}],"stateMutability":"view"},{"type":"function","name":"getLTV","inputs":[],"outputs":[{"name":"","type":"uint8","internalType":"uint8"}],"stateMutability":"view"},{"type":"function","name":"getUSDValue","inputs":[],"outputs":[{"name":"","type":"uint256","internalType":"uint256"}],"stateMutability":"view"},{"type":"function","name":"initializeTreasury","inputs":[{"name":"_treasury","type":"address","internalType":"address"}],"outputs":[],"stateMutability":"nonpayable"},{"type":"function","name":"lastCDSPoolValue","inputs":[],"outputs":[{"name":"","type":"uint256","internalType":"uint256"}],"stateMutability":"view"},{"type":"function","name":"lastCumulativeRate","inputs":[],"outputs":[{"name":"","type":"uint256","internalType":"uint256"}],"stateMutability":"view"},{"type":"function","name":"lastEthVaultValue","inputs":[],"outputs":[{"name":"","type":"uint256","internalType":"uint256"}],"stateMutability":"view"},{"type":"function","name":"lastEthprice","inputs":[],"outputs":[{"name":"","type":"uint128","internalType":"uint128"}],"stateMutability":"view"},{"type":"function","name":"lastTotalCDSPool","inputs":[],"outputs":[{"name":"","type":"uint256","internalType":"uint256"}],"stateMutability":"view"},{"type":"function","name":"liquidate","inputs":[{"name":"_user","type":"address","internalType":"address"},{"name":"_index","type":"uint64","internalType":"uint64"},{"name":"currentEthPrice","type":"uint64","internalType":"uint64"}],"outputs":[],"stateMutability":"nonpayable"},{"type":"function","name":"noOfLiquidations","inputs":[],"outputs":[{"name":"","type":"uint128","internalType":"uint128"}],"stateMutability":"view"},{"type":"function","name":"options","inputs":[],"outputs":[{"name":"","type":"address","internalType":"contract IOptions"}],"stateMutability":"view"},{"type":"function","name":"owner","inputs":[],"outputs":[{"name":"","type":"address","internalType":"address"}],"stateMutability":"view"},{"type":"function","name":"priceFeedAddress","inputs":[],"outputs":[{"name":"","type":"address","internalType":"address"}],"stateMutability":"view"},{"type":"function","name":"protocolToken","inputs":[],"outputs":[{"name":"","type":"address","internalType":"contract IProtocolToken"}],"stateMutability":"view"},{"type":"function","name":"renounceOwnership","inputs":[],"outputs":[],"stateMutability":"nonpayable"},{"type":"function","name":"setAPY","inputs":[{"name":"_apy","type":"uint8","internalType":"uint8"}],"outputs":[],"stateMutability":"nonpayable"},{"type":"function","name":"setAdmin","inputs":[{"name":"_admin","type":"address","internalType":"address"}],"outputs":[],"stateMutability":"nonpayable"},{"type":"function","name":"setLTV","inputs":[{"name":"_LTV","type":"uint8","internalType":"uint8"}],"outputs":[],"stateMutability":"nonpayable"},{"type":"function","name":"setOptions","inputs":[{"name":"_options","type":"address","internalType":"address"}],"outputs":[],"stateMutability":"nonpayable"},{"type":"function","name":"totalAmintSupply","inputs":[],"outputs":[{"name":"","type":"uint256","internalType":"uint256"}],"stateMutability":"view"},{"type":"function","name":"totalDiracSupply","inputs":[],"outputs":[{"name":"","type":"uint256","internalType":"uint256"}],"stateMutability":"view"},{"type":"function","name":"totalNormalizedAmount","inputs":[],"outputs":[{"name":"","type":"uint256","internalType":"uint256"}],"stateMutability":"view"},{"type":"function","name":"transferOwnership","inputs":[{"name":"newOwner","type":"address","internalType":"address"}],"outputs":[],"stateMutability":"nonpayable"},{"type":"function","name":"treasury","inputs":[],"outputs":[{"name":"","type":"address","internalType":"contract ITreasury"}],"stateMutability":"view"},{"type":"function","name":"treasuryAddress","inputs":[],"outputs":[{"name":"","type":"address","internalType":"address"}],"stateMutability":"view"},{"type":"function","name":"updateLastEthVaultValue","inputs":[{"name":"_amount","type":"uint256","internalType":"uint256"}],"outputs":[],"stateMutability":"nonpayable"},{"type":"function","name":"withDraw","inputs":[{"name":"_toAddress","type":"address","internalType":"address"},{"name":"_index","type":"uint64","internalType":"uint64"},{"name":"_ethPrice","type":"uint64","internalType":"uint64"},{"name":"_withdrawTime","type":"uint64","internalType":"uint64"},{"name":"_bondRatio","type":"uint64","internalType":"uint64"}],"outputs":[],"stateMutability":"nonpayable"},{"type":"function","name":"withdrawFromAaveProtocol","inputs":[{"name":"index","type":"uint64","internalType":"uint64"}],"outputs":[],"stateMutability":"nonpayable"},{"type":"function","name":"withdrawFromCompoundProtocol","inputs":[{"name":"index","type":"uint64","internalType":"uint64"}],"outputs":[],"stateMutability":"nonpayable"},{"type":"event","name":"Deposit","inputs":[{"name":"index","type":"uint64","indexed":false,"internalType":"uint64"},{"name":"depositedAmount","type":"uint256","indexed":false,"internalType":"uint256"},{"name":"borrowAmount","type":"uint256","indexed":false,"internalType":"uint256"},{"name":"normalizedAmount","type":"uint256","indexed":false,"internalType":"uint256"}],"anonymous":false},{"type":"event","name":"OwnershipTransferred","inputs":[{"name":"previousOwner","type":"address","indexed":true,"internalType":"address"},{"name":"newOwner","type":"address","indexed":true,"internalType":"address"}],"anonymous":false},{"type":"event","name":"Withdraw","inputs":[{"name":"borrowDebt","type":"uint256","indexed":false,"internalType":"uint256"},{"name":"withdrawAmount","type":"uint128","indexed":false,"internalType":"uint128"},{"name":"noOfAbond","type":"uint128","indexed":false,"internalType":"uint128"}],"anonymous":false},{"type":"error","name":"Borrowing_DepositFailed","inputs":[]},{"type":"error","name":"Borrowing_GettingETHPriceFailed","inputs":[]},{"type":"error","name":"Borrowing_LiquidateBurnFailed","inputs":[]},{"type":"error","name":"Borrowing_LiquidateEthTransferToCdsFailed","inputs":[]},{"type":"error","name":"Borrowing_MUSDMintFailed","inputs":[]},{"type":"error","name":"Borrowing_WithdrawBurnFailed","inputs":[]},{"type":"error","name":"Borrowing_WithdrawEthTransferFailed","inputs":[]},{"type":"error","name":"Borrowing_WithdrawMUSDTransferFailed","inputs":[]},{"type":"error","name":"Borrowing_pTokenMintFailed","inputs":[]}],"bytecode":{"object":"0x608060405272989680000000000000000000000000000f42406014557b033b2e3c9fd0803ce8000000000000000000000000000000000027106015553480156200004857600080fd5b5060405162004344380380620043448339810160408190526200006b916200021a565b620000763362000112565b600180546001600160a01b038087166001600160a01b031992831617909255600280548684169083168117909155600880548316909117905560038054858416908316179055600b805492841692909116919091179055620000d762000162565b600c80546001600160801b03199081166001600160801b03938416179091556011805490911642909216919091179055506200030792505050565b600080546001600160a01b038381166001600160a01b0319831681178455604051919092169283917f8be0079c531659141344cd1fd0a4f28419497f9722a3daafe3b4186f6b6457e09190a35050565b600b5460408051633fabe5a360e21b815290516000926001600160a01b0316918391839163feaf968c9160048083019260a09291908290030181865afa158015620001b1573d6000803e3d6000fd5b505050506040513d601f19601f82011682018060405250810190620001d791906200028f565b5050601454919350620001f69250506001600160801b031682620002e4565b9250505090565b80516001600160a01b03811681146200021557600080fd5b919050565b600080600080608085870312156200023157600080fd5b6200023c85620001fd565b93506200024c60208601620001fd565b92506200025c60408601620001fd565b91506200026c60608601620001fd565b905092959194509250565b80516001600160501b03811681146200021557600080fd5b600080600080600060a08688031215620002a857600080fd5b620002b38662000277565b9450602086015193506040860151925060608601519150620002d86080870162000277565b90509295509295909350565b6000826200030257634e487b7160e01b600052601260045260246000fd5b500490565b61402d80620003176000396000f3fe6080604052600436106102305760003560e01c806384e921281161012e578063d2cbf7ad116100ab578063ec11dab21161006f578063ec11dab214610641578063ef8bd30514610661578063f2fde38b14610682578063f851a440146106a2578063fe925884146106c257600080fd5b8063d2cbf7ad146105ac578063d5c28dba146105cb578063e0abca0b146105eb578063e42f80901461060b578063e6d97f171461062157600080fd5b8063aad2476d116100f2578063aad2476d14610521578063b3aebb9c14610541578063b4eb10ce14610557578063b8f4909014610577578063c5f956af1461058c57600080fd5b806384e92128146104ac5780638da5cb5b146104c25780638e4db39a146104e057806398afda43146104f657806399eb2f6c1461050b57600080fd5b806350593af7116101bc5780636fdc5203116101805780636fdc520314610421578063704b6c0214610437578063715018a61461045757806373ca55a21461046c5780637d6dff7d1461048c57600080fd5b806350593af7146103a35780635e2e251b146103b8578063606303f8146103cb57806361d027b3146103e1578063661b7d3e1461040157600080fd5b80632feabb52116102035780632feabb52146102d757806338a912d51461030f5780633ed086f4146103365780633f3006b4146103565780634ed2b8ac1461037657600080fd5b80631069143a14610235578063181ab6db146102725780631a465fe1146102955780632bf16927146102b5575b600080fd5b34801561024157600080fd5b50600554610255906001600160a01b031681565b6040516001600160a01b0390911681526020015b60405180910390f35b34801561027e57600080fd5b506102876106e2565b604051908152602001610269565b3480156102a157600080fd5b50600354610255906001600160a01b031681565b3480156102c157600080fd5b506102d56102d03660046137dd565b610800565b005b3480156102e357600080fd5b50600c546102f7906001600160801b031681565b6040516001600160801b039091168152602001610269565b34801561031b57600080fd5b506011546102f790600160801b90046001600160801b031681565b34801561034257600080fd5b506102d561035136600461384c565b61142e565b34801561036257600080fd5b506102d5610371366004613867565b6114ec565b34801561038257600080fd5b50600954600160a01b900460ff165b60405160ff9091168152602001610269565b3480156103af57600080fd5b5061028761155f565b6102d56103c6366004613899565b6115f5565b3480156103d757600080fd5b5061028760135481565b3480156103ed57600080fd5b50600454610255906001600160a01b031681565b34801561040d57600080fd5b506102d561041c3660046138ea565b611bbf565b34801561042d57600080fd5b50610287600a5481565b34801561044357600080fd5b506102d561045236600461384c565b611c4b565b34801561046357600080fd5b506102d5611cf4565b34801561047857600080fd5b506102d5610487366004613912565b611d08565b34801561049857600080fd5b506102d56104a736600461384c565b611d7c565b3480156104b857600080fd5b50610287600e5481565b3480156104ce57600080fd5b506000546001600160a01b0316610255565b3480156104ec57600080fd5b5061028760105481565b34801561050257600080fd5b506102d5611e30565b34801561051757600080fd5b50610287600d5481565b34801561052d57600080fd5b506102d561053c366004613912565b611e95565b34801561054d57600080fd5b5061028760125481565b34801561056357600080fd5b50600254610255906001600160a01b031681565b34801561058357600080fd5b506102d5611ebd565b34801561059857600080fd5b50600754610255906001600160a01b031681565b3480156105b857600080fd5b50600954600160a81b900460ff16610391565b3480156105d757600080fd5b506102d56105e636600461392f565b611f08565b3480156105f757600080fd5b50600b54610255906001600160a01b031681565b34801561061757600080fd5b50610287600f5481565b34801561062d57600080fd5b50600154610255906001600160a01b031681565b34801561064d57600080fd5b506102d561065c366004613867565b6127f7565b34801561066d57600080fd5b5060095461039190600160a81b900460ff1681565b34801561068e57600080fd5b506102d561069d36600461384c565b612839565b3480156106ae57600080fd5b50600954610255906001600160a01b031681565b3480156106ce57600080fd5b50600854610255906001600160a01b031681565b60048054604080516322d7586760e11b8152905160009384936001600160a01b0316926345aeb0ce9281830192602092829003018187875af115801561072c573d6000803e3d6000fd5b505050506040513d601f19601f820116820180604052508101906107509190613983565b90506b033b2e3cb548ff197d3905a160006001600160801b038316810361078657506001600160801b03811660108190556107f9565b60115460009061079f906001600160801b0316426139b6565b6015546001600160801b0391821692506107c791858116918491600160801b909104166128b2565b6010546107d491906139dd565b6015549092506107f490600160801b90046001600160801b031683613a0a565b601055505b9392505050565b6001600160a01b0385161580159061081c57506001853b151514155b6108865760405162461bcd60e51b815260206004820152603060248201527f546f20616464726573732063616e6e6f742062652061207a65726f20616e642060448201526f636f6e7472616374206164647265737360801b60648201526084015b60405180910390fd5b600c80546001600160401b0385166001600160801b031991821617909155601180549091166001600160801b03421617905560048054604051634d5c56a560e01b815260009283926001600160a01b031691634d5c56a5916108ec9133918b9101613a1e565b61020060405180830381865afa15801561090a573d6000803e3d6000fd5b505050506040513d601f19601f8201168201806040525081019061092e9190613a9d565b91509150856001600160401b0316826001600160401b0316106113ce578061012001511561099e5760405162461bcd60e51b815260206004820152601f60248201527f5573657220616d6f756e7420686173206265656e206c69717569646174656400604482015260640161087d565b60e0810151151560000361137a578060c0015160ff1660000361125e5760608101516000906109cf87612710613bf1565b6001600160401b03166109e29190613c1c565b9050611f40816001600160801b031611610a375760405162461bcd60e51b8152602060048201526016602482015275426f72726f77696e674865616c7468206973204c6f7760501b604482015260640161087d565b60155460105460a08401516000926001600160801b03600160801b909104811692610a64929091166139dd565b610a6e9190613a0a565b601554909150600160801b90046001600160801b0316610a8c6106e2565b610a969190613a0a565b6010556001546040516370a0823160e01b815233600482015282916001600160a01b0316906370a0823190602401602060405180830381865afa158015610ae1573d6000803e3d6000fd5b505050506040513d601f19601f82011682018060405250810190610b059190613c42565b1015610b5e5760405162461bcd60e51b815260206004820152602260248201527f557365722062616c616e6365206973206c657373207468616e20726571756972604482015261195960f21b606482015260840161087d565b6001600160401b038088166101408501819052908716610160850152600160c0850152602084015160009190606490610b9890600a613c5b565b610ba29190613c1c565b610bac9190613c5b565b6001600160801b0316905060008185608001516001600160801b0316610bd29190613c7e565b6001546040516363a9f09360e11b8152336004820152602481018390529192506000916001600160a01b039091169063c753e126906044016020604051808303816000875af1158015610c29573d6000803e3d6000fd5b505050506040513d601f19601f82011682018060405250810190610c4d9190613c91565b905080610c6d576040516303f7009160e51b815260040160405180910390fd5b6001546007546040516323b872dd60e01b81523360048201526001600160a01b0391821660248201526044810186905260009291909116906323b872dd906064016020604051808303816000875af1158015610ccd573d6000803e3d6000fd5b505050506040513d601f19601f82011682018060405250810190610cf19190613c91565b905080610d1157604051630aae388960e41b815260040160405180910390fd5b84600a6000828254610d239190613c7e565b909155505060045460808801516001600160a01b039091169063b9a221eb90610d55906001600160801b031688613c7e565b6040518263ffffffff1660e01b8152600401610d7391815260200190565b600060405180830381600087803b158015610d8d57600080fd5b505af1158015610da1573d6000803e3d6000fd5b505050506000610db233868c612970565b6001600160801b0381166101808a01526004805460405163ef0d5dc160e01b81529293506001600160a01b03169163ef0d5dc191610df4913391869101613cac565b600060405180830381600087803b158015610e0e57600080fd5b505af1158015610e22573d6000803e3d6000fd5b50505050600460009054906101000a90046001600160a01b03166001600160a01b031663f19aca57338f8b6040518463ffffffff1660e01b8152600401610e6b93929190613cce565b600060405180830381600087803b158015610e8557600080fd5b505af1158015610e99573d6000803e3d6000fd5b505050505050505050600080886001600160401b031685606001518660200151610ec39190613c5b565b610ecd9190613c1c565b9050612710846001600160801b03161115610f8b5760055460208601516101a08701516040516310335d6b60e21b81526001600160801b0390921660048301526001600160401b0390811660248301528b1660448201526001600160a01b03909116906340cd75ac90606401602060405180830381865afa158015610f56573d6000803e3d6000fd5b505050506040513d601f19601f82011682018060405250810190610f7a9190613983565b610f849082613e43565b915061101b565b836001600160801b031661271003610fa55780915061101b565b836001600160801b0316611f40108015610fc95750612710846001600160801b0316105b15610fda578460200151915061101b565b60405162461bcd60e51b8152602060048201526016602482015275426f72726f77696e674865616c7468206973204c6f7760501b604482015260640161087d565b6064611028836032613c5b565b6110329190613c1c565b915061106c6040518060400160405280600d81526020016c32ba34103a37903932ba3ab93760991b815250836001600160801b0316612b58565b6000600460009054906101000a90046001600160a01b03166001600160a01b031663fe6520ae338e868f8f6040518663ffffffff1660e01b81526004016110b7959493929190613e63565b6020604051808303816000875af11580156110d6573d6000803e3d6000fd5b505050506040513d601f19601f820116820180604052508101906110fa9190613c91565b90508061111a57604051635e5e86d560e01b815260040160405180910390fd5b600160009054906101000a90046001600160a01b03166001600160a01b03166318160ddd6040518163ffffffff1660e01b8152600401602060405180830381865afa15801561116d573d6000803e3d6000fd5b505050506040513d601f19601f820116820180604052508101906111919190613c42565b601255600354604080516318160ddd60e01b815290516001600160a01b03909216916318160ddd916004808201926020929091908290030181865afa1580156111de573d6000803e3d6000fd5b505050506040513d601f19601f820116820180604052508101906112029190613c42565b601355610180860151604080518681526001600160801b03868116602083015290921682820152517f2dc3b614e32706dcf24286e69af4692f4b2c24fc339d659e80b26d49379b69149181900360600190a15050505050611425565b8060c0015160ff1660010361137a5761128a878787846101600151856101800151866101000151612ba1565b600160009054906101000a90046001600160a01b03166001600160a01b03166318160ddd6040518163ffffffff1660e01b8152600401602060405180830381865afa1580156112dd573d6000803e3d6000fd5b505050506040513d601f19601f820116820180604052508101906113019190613c42565b601255600354604080516318160ddd60e01b815290516001600160a01b03909216916318160ddd916004808201926020929091908290030181865afa15801561134e573d6000803e3d6000fd5b505050506040513d601f19601f820116820180604052508101906113729190613c42565b601355611425565b60405162461bcd60e51b815260206004820152602360248201527f5573657220616c726561647920776974686472617720656e7469726520616d6f6044820152621d5b9d60ea1b606482015260840161087d565b60405162461bcd60e51b815260206004820152602660248201527f5573657220646f656e73277420686176652074686520706572746963756c6172604482015265040d2dcc8caf60d31b606482015260840161087d565b50505050505050565b6114366130b5565b6001600160a01b0381161580159061144e5750803b15155b6114c05760405162461bcd60e51b815260206004820152603960248201527f5472656173757279206d75737420626520636f6e74726163742061646472657360448201527f7320262063616e2774206265207a65726f206164647265737300000000000000606482015260840161087d565b600480546001600160a01b039092166001600160a01b0319928316811790915560078054909216179055565b6114f46130b5565b600480546040516306ef62b960e11b81526001600160401b038416928101929092526001600160a01b031690630ddec572906024015b600060405180830381600087803b15801561154457600080fd5b505af1158015611558573d6000803e3d6000fd5b5050505050565b600b5460408051633fabe5a360e21b815290516000926001600160a01b0316918391839163feaf968c9160048083019260a09291908290030181865afa1580156115ad573d6000803e3d6000fd5b505050506040513d601f19601f820116820180604052508101906115d19190613ec2565b50506014549193506115ee9250506001600160801b031682613a0a565b9250505090565b600034116116455760405162461bcd60e51b815260206004820152601a60248201527f43616e6e6f74206465706f736974207a65726f20746f6b656e73000000000000604482015260640161087d565b343331116116bb5760405162461bcd60e51b815260206004820152603e60248201527f596f7520646f206e6f7420686176652073756666696369656e742062616c616e60448201527f636520746f20657865637574652074686973207472616e73616374696f6e0000606482015260840161087d565b60006116d034866001600160801b031661310f565b6015549091506116ea906001600160801b03166002613c5b565b6001600160801b0316816001600160401b031610156117445760405162461bcd60e51b81526020600482015260166024820152754e6f7420656e6f7567682066756e6420696e2043445360501b604482015260640161087d565b6004805460405163dcb71f3f60e01b815233928101929092526001600160801b03871660248301526001600160401b038616604483015260009182916001600160a01b03169063dcb71f3f903490606401604080518083038185885af11580156117b2573d6000803e3d6000fd5b50505050506040513d601f19601f820116820180604052508101906117d79190613f12565b6005546040516390abf0ed60e01b8152600481018890523460248201529294509092506000916001600160a01b03909116906390abf0ed906044016020604051808303816000875af1158015611831573d6000803e3d6000fd5b505050506040513d601f19601f820116820180604052508101906118559190613c42565b90508261187557604051634fad3b0960e01b815260040160405180910390fd5b600061188333348b8561343d565b60025460405163b87c3dc360e01b81526001600160801b03851660048201529192506001600160a01b03169063b87c3dc3906024016020604051808303816000875af11580156118d7573d6000803e3d6000fd5b505050506040513d601f19601f820116820180604052508101906118fb9190613983565b5060048054604051634d5c56a560e01b81526000926001600160a01b0390921691634d5c56a591611930913391899101613a1e565b61020060405180830381865afa15801561194e573d6000803e3d6000fd5b505050506040513d601f19601f820116820180604052508101906119729190613a9d565b6001600160801b038416608082015260048054604051632e449f1760e21b81523392810192909252600160248301529193506001600160a01b03909116915063b9127c5c90604401600060405180830381600087803b1580156119d457600080fd5b505af11580156119e8573d6000803e3d6000fd5b505060048054604051630e6840d960e11b81523392810192909252602482018690526001600160a01b03169250631cd081b29150604401600060405180830381600087803b158015611a3957600080fd5b505af1158015611a4d573d6000803e3d6000fd5b505050506000611a5b6106e2565b6015549091506000908290600160801b90046001600160801b0316611a8081876139dd565b611a8a91906139dd565b611a949190613a0a565b6001600160801b03811660a08501526001600160401b038b166101a08501526004805460405163f19aca5760e01b81529293506001600160a01b03169163f19aca5791611ae79133918b91899101613cce565b600060405180830381600087803b158015611b0157600080fd5b505af1158015611b15573d6000803e3d6000fd5b5050505080600a6000828254611b2b9190613f49565b9091555050600c80546001600160801b038e81166001600160801b031992831617909255601180544290931692909116919091179055604080516001600160401b0388168152346020820152908101859052606081018290527f3f7c04c09b19100060129256b7d82f055d0aa72cf17042fb3f2d41d1fffc02609060800160405180910390a1505050505050505050505050565b6007546001600160a01b03163314611bd657600080fd5b80600003611c315760405162461bcd60e51b815260206004820152602260248201527f4c61737420455448207661756c742076616c75652063616e2774206265207a65604482015261726f60f01b606482015260840161087d565b80600d6000828254611c439190613c7e565b909155505050565b611c536130b5565b6001600160a01b03811615801590611c6f57506001813b151514155b611cd25760405162461bcd60e51b815260206004820152602e60248201527f41646d696e2063616e277420626520636f6e747261637420616464726573732060448201526d26207a65726f206164647265737360901b606482015260840161087d565b600980546001600160a01b0319166001600160a01b0392909216919091179055565b611cfc6130b5565b611d066000613737565b565b611d106130b5565b8060ff16600003611d5c5760405162461bcd60e51b81526020600482015260166024820152754150592073686f756c64206e6f74206265207a65726f60501b604482015260640161087d565b6009805460ff909216600160a81b0260ff60a81b19909216919091179055565b611d846130b5565b6001600160a01b03811615801590611d9c5750803b15155b611e0e5760405162461bcd60e51b815260206004820152603860248201527f4f7074696f6e73206d75737420626520636f6e7472616374206164647265737360448201527f20262063616e2774206265207a65726f20616464726573730000000000000000606482015260840161087d565b600580546001600160a01b0319166001600160a01b0392909216919091179055565b611e386130b5565b60048054604080516301865f0760e21b815290516001600160a01b03909216926306197c1c92828201926000929082900301818387803b158015611e7b57600080fd5b505af1158015611e8f573d6000803e3d6000fd5b50505050565b611e9d6130b5565b6009805460ff909216600160a01b0260ff60a01b19909216919091179055565b611ec56130b5565b60048054604080516306e1444d60e21b815290516001600160a01b0390921692631b85113492828201926000929082900301818387803b158015611e7b57600080fd5b6009546001600160a01b03163314611f1f57600080fd5b6001600160a01b038316611f815760405162461bcd60e51b815260206004820152602360248201527f546f20616464726573732063616e6e6f742062652061207a65726f206164647260448201526265737360e81b606482015260840161087d565b6001600160a01b0383163303611fe75760405162461bcd60e51b815260206004820152602560248201527f596f752063616e6e6f74206c697175696461746520796f7572206f776e206173604482015264736574732160d81b606482015260840161087d565b601180548491849160109061200b90600160801b90046001600160801b0316613f5c565b82546001600160801b039182166101009390930a928302919092021990911617905560048054604051634d5c56a560e01b81526000926001600160a01b0390921691634d5c56a591612061918791879101613a1e565b61020060405180830381865afa15801561207f573d6000803e3d6000fd5b505050506040513d601f19601f820116820180604052508101906120a39190613a9d565b915050806101200151156120ee5760405162461bcd60e51b8152602060048201526012602482015271105b1c9958591e48131a5c5d5a59185d195960721b604482015260640161087d565b6004805460408051630f27449560e01b815290516001600160a01b0390921692630f2744959282820192602092908290030181865afa158015612135573d6000803e3d6000fd5b505050506040513d601f19601f820116820180604052508101906121599190613c42565b81602001516001600160801b031611156121b55760405162461bcd60e51b815260206004820152601c60248201527f4e6f7420656e6f7567682066756e647320696e20747265617375727900000000604482015260640161087d565b60608101516000906121c986612710613bf1565b6001600160401b03166121dc9190613c1c565b9050611f40816001600160801b031611156122305760405162461bcd60e51b8152602060048201526014602482015273596f752063616e6e6f74206c697175696461746560601b604482015260640161087d565b600161012083015260155460105460a08401516000926001600160801b03600160801b909104811692612265929091166139dd565b61226f9190613a0a565b601554909150600160801b90046001600160801b031661228d6106e2565b6122979190613a0a565b601055606083015160208401518291600091606491849183916122b991613c5b565b6122c39190613c1c565b6122cd91906139b6565b6122d890600a613c5b565b6122e29190613c1c565b9050600081836064886060015189602001516122fe9190613c5b565b6123089190613c1c565b61231291906139b6565b61231c91906139b6565b9050600061232a8385613e43565b6040805160808101825260008082526020820181905291810182905260608101919091529091506040518060800160405280836001600160801b03168152602001846001600160801b0316815260200189602001516001600160801b03168152602001600260009054906101000a90046001600160a01b03166001600160a01b031663dc91e7526040518163ffffffff1660e01b81526004016020604051808303816000875af11580156123e2573d6000803e3d6000fd5b505050506040513d601f19601f820116820180604052508101906124069190613c42565b90526002546011546040805163b3013d4d60e01b8152600160801b9092046001600160801b03908116600484015284518116602484015260208501518116604484015290840151166064820152606083015160848201529192506001600160a01b03169063b3013d4d9060a401600060405180830381600087803b15801561248d57600080fd5b505af11580156124a1573d6000803e3d6000fd5b505060025460405163dc55b19360e01b81526001600160801b03861660048201526001600160a01b03909116925063dc55b1939150602401600060405180830381600087803b1580156124f357600080fd5b505af1158015612507573d6000803e3d6000fd5b5050600254604051634cae95d360e01b81526001600160801b03861660048201526001600160a01b039091169250634cae95d39150602401600060405180830381600087803b15801561255957600080fd5b505af115801561256d573d6000803e3d6000fd5b505050506000846001600160801b031687876001600160801b03166125929190613c7e565b61259c9190613f49565b600480546040516308fc416760e21b81529293506001600160a01b0316916323f1059c916125d09185910190815260200190565b600060405180830381600087803b1580156125ea57600080fd5b505af11580156125fe573d6000803e3d6000fd5b50506004805460405163f19aca5760e01b81526001600160a01b03909116935063f19aca579250612635918f918f918f9101613cce565b600060405180830381600087803b15801561264f57600080fd5b505af1158015612663573d6000803e3d6000fd5b50506004805460808d0151604051630adfd5a560e21b81526001600160a01b039092169450632b7f5694935061269b92309201613cac565b600060405180830381600087803b1580156126b557600080fd5b505af11580156126c9573d6000803e3d6000fd5b505060015460075460808d01516040516363a9f09360e11b8152600095506001600160a01b03938416945063c753e1269361270993169190600401613cac565b6020604051808303816000875af1158015612728573d6000803e3d6000fd5b505050506040513d601f19601f8201168201806040525081019061274c9190613c91565b90508061276c57604051632105f02360e11b815260040160405180910390fd5b600160009054906101000a90046001600160a01b03166001600160a01b03166318160ddd6040518163ffffffff1660e01b8152600401602060405180830381865afa1580156127bf573d6000803e3d6000fd5b505050506040513d601f19601f820116820180604052508101906127e39190613c42565b601255505050505050505050505050505050565b6127ff6130b5565b60048054604051630376724160e41b81526001600160401b038416928101929092526001600160a01b03169063376724109060240161152a565b6128416130b5565b6001600160a01b0381166128a65760405162461bcd60e51b815260206004820152602660248201527f4f776e61626c653a206e6577206f776e657220697320746865207a65726f206160448201526564647265737360d01b606482015260840161087d565b6128af81613737565b50565b6000838015612952576001841680156128cd578592506128d1565b8392505b50600283046002850494505b841561294c5785860286878204146128f457600080fd5b8181018181101561290457600080fd5b859004965050600185161561294157858302838782041415871515161561292a57600080fd5b8181018181101561293a57600080fd5b8590049350505b6002850494506128dd565b50612968565b8380156129625760009250612966565b8392505b505b509392505050565b60006001600160a01b0384166129c85760405162461bcd60e51b815260206004820152601f60248201527f426f72726f7765722063616e6e6f74206265207a65726f206164647265737300604482015260640161087d565b82600003612a0f5760405162461bcd60e51b8152602060048201526014602482015273416d6f756e742063616e2774206265207a65726f60601b604482015260640161087d565b6000612a1c836064613bf1565b6001600160401b0316612a30856064613c5b565b612a3a9190613c1c565b6003546040516340c10f1960e01b81529192506000916001600160a01b03909116906340c10f1990612a729089908690600401613cac565b6020604051808303816000875af1158015612a91573d6000803e3d6000fd5b505050506040513d601f19601f82011682018060405250810190612ab59190613c91565b905080612ad5576040516368a3803760e11b815260040160405180910390fd5b600360009054906101000a90046001600160a01b03166001600160a01b03166318160ddd6040518163ffffffff1660e01b8152600401602060405180830381865afa158015612b28573d6000803e3d6000fd5b505050506040513d601f19601f82011682018060405250810190612b4c9190613c42565b60135550949350505050565b612b9d8282604051602401612b6e929190613f82565b60408051601f198184030181529190526020810180516001600160e01b0316632d839cb360e21b179052613787565b5050565b612bae8362278d00613fd7565b6001600160401b0316421015612c175760405162461bcd60e51b815260206004820152602860248201527f41206d6f6e7468206e6f742079657420636f6d706c657465642073696e636520604482015267776974686472617760c01b606482015260840161087d565b6003546040516370a0823160e01b81523360048201526001600160801b038416916001600160a01b0316906370a0823190602401602060405180830381865afa158015612c68573d6000803e3d6000fd5b505050506040513d601f19601f82011682018060405250810190612c8c9190613c42565b14612ce35760405162461bcd60e51b815260206004820152602160248201527f446f6e2774206861766520656e6f7567682050726f746f636f6c20546f6b656e6044820152607360f81b606482015260840161087d565b60048054604051634d5c56a560e01b81526000926001600160a01b0390921691634d5c56a591612d179133918b9101613a1e565b61020060405180830381865afa158015612d35573d6000803e3d6000fd5b505050506040513d601f19601f82011682018060405250810190612d599190613a9d565b600480546020830151604051631b35376f60e21b81529395506001600160a01b039091169350636cd4ddbc92612d929233929101613cac565b600060405180830381600087803b158015612dac57600080fd5b505af1158015612dc0573d6000803e3d6000fd5b5050600060208401525050600160e0820152600260c082015260048054604051630edd59bf60e21b81526001600160a01b0390911691633b7566fc91612e0a913391889101613cac565b600060405180830381600087803b158015612e2457600080fd5b505af1158015612e38573d6000803e3d6000fd5b5050600061018084015250506004805460405163f19aca5760e01b81526001600160a01b039091169163f19aca5791612e779133918b91879101613cce565b600060405180830381600087803b158015612e9157600080fd5b505af1158015612ea5573d6000803e3d6000fd5b50506001546007546080850151600094506001600160a01b03928316935063c753e1269290911690606490612edb906032613c5b565b612ee59190613c1c565b6040518363ffffffff1660e01b8152600401612f02929190613cac565b6020604051808303816000875af1158015612f21573d6000803e3d6000fd5b505050506040513d601f19601f82011682018060405250810190612f459190613c91565b905080612f65576040516303f7009160e51b815260040160405180910390fd5b6003546040516363a9f09360e11b81526000916001600160a01b03169063c753e12690612f989033908990600401613cac565b6020604051808303816000875af1158015612fb7573d6000803e3d6000fd5b505050506040513d601f19601f82011682018060405250810190612fdb9190613c91565b905080612ffb576040516303f7009160e51b815260040160405180910390fd5b6000600460009054906101000a90046001600160a01b03166001600160a01b031663fe6520ae338c888d8d6040518663ffffffff1660e01b8152600401613046959493929190613e63565b6020604051808303816000875af1158015613065573d6000803e3d6000fd5b505050506040513d601f19601f820116820180604052508101906130899190613c91565b9050806130a957604051635e5e86d560e01b815260040160405180910390fd5b50505050505050505050565b6000546001600160a01b03163314611d065760405162461bcd60e51b815260206004820181905260248201527f4f776e61626c653a2063616c6c6572206973206e6f7420746865206f776e6572604482015260640161087d565b60008082600003613133576040516315e73e9f60e01b815260040160405180910390fd5b6000600460009054906101000a90046001600160a01b03166001600160a01b03166345aeb0ce6040518163ffffffff1660e01b81526004016020604051808303816000875af115801561318a573d6000803e3d6000fd5b505050506040513d601f19601f820116820180604052508101906131ae9190613983565b600c549091506001600160801b03168411156131ef57600c546001600160801b03808316916131de911686613c7e565b6131e891906139dd565b9150613217565b600c546001600160801b038083169161320a91879116613c7e565b61321491906139dd565b91505b600080826001600160801b03166000036132f45761323586886139dd565b600d819055600254604080516315d9753160e11b815290519294506001600160a01b0390911691632bb2ea62916004808201926020929091908290030181865afa158015613287573d6000803e3d6000fd5b505050506040513d601f19601f820116820180604052508101906132ab9190613983565b6001600160801b03908116600f55600c541686106132d95783600f546132d19190613f49565b600e556132eb565b83600f546132e79190613c7e565b600e555b50600e54613403565b6132fe86886139dd565b600d5461330b9190613f49565b915081600d819055506000600260009054906101000a90046001600160a01b03166001600160a01b0316632bb2ea626040518163ffffffff1660e01b8152600401602060405180830381865afa158015613369573d6000803e3d6000fd5b505050506040513d601f19601f8201168201806040525081019061338d9190613983565b600c546001600160801b0391821692501687106133d15784600f54826133b39190613c7e565b600e546133c09190613f49565b6133ca9190613f49565b91506133fa565b84600f54826133e09190613c7e565b600e546133ed9190613f49565b6133f79190613c7e565b91505b600f55600e8190555b601454600090839061342590600160801b90046001600160801b0316846139dd565b61342f9190613a0a565b955050505050505b92915050565b60006001600160a01b0385166134955760405162461bcd60e51b815260206004820152601f60248201527f426f72726f7765722063616e6e6f74206265207a65726f206164647265737300604482015260640161087d565b600954600160a01b900460ff166000036135175760405162461bcd60e51b815260206004820152603860248201527f4c5456206d7573742062652073657420746f206e6f6e2d7a65726f2076616c7560448201527f65206265666f72652070726f766964696e67206c6f616e730000000000000000606482015260840161087d565b600061352c6001600160801b038516866139dd565b6015546009549192506000916001600160801b039091169061355890600160a01b900460ff16846139dd565b6135629190613a0a565b6001549091506000906001600160a01b03166340c10f19896135848886613c7e565b6040516001600160e01b031960e085901b1681526001600160a01b03909216600483015260248201526044016020604051808303816000875af11580156135cf573d6000803e3d6000fd5b505050506040513d601f19601f820116820180604052508101906135f39190613c91565b6001546007546040516340c10f1960e01b81526001600160a01b039182166004820152602481018990529293506000929116906340c10f19906044016020604051808303816000875af115801561364e573d6000803e3d6000fd5b505050506040513d601f19601f820116820180604052508101906136729190613c91565b905081613692576040516309ad720160e01b815260040160405180910390fd5b806136b0576040516309ad720160e01b815260040160405180910390fd5b600160009054906101000a90046001600160a01b03166001600160a01b03166318160ddd6040518163ffffffff1660e01b8152600401602060405180830381865afa158015613703573d6000803e3d6000fd5b505050506040513d601f19601f820116820180604052508101906137279190613c42565b6012555090979650505050505050565b600080546001600160a01b038381166001600160a01b0319831681178455604051919092169283917f8be0079c531659141344cd1fd0a4f28419497f9722a3daafe3b4186f6b6457e09190a35050565b6128af8160006a636f6e736f6c652e6c6f679050600080835160208501845afa505050565b80356001600160a01b03811681146137c357600080fd5b919050565b6001600160401b03811681146128af57600080fd5b600080600080600060a086880312156137f557600080fd5b6137fe866137ac565b9450602086013561380e816137c8565b9350604086013561381e816137c8565b9250606086013561382e816137c8565b9150608086013561383e816137c8565b809150509295509295909350565b60006020828403121561385e57600080fd5b6107f9826137ac565b60006020828403121561387957600080fd5b81356107f9816137c8565b6001600160801b03811681146128af57600080fd5b600080600080608085870312156138af57600080fd5b84356138ba81613884565b935060208501356138ca816137c8565b925060408501356138da816137c8565b9396929550929360600135925050565b6000602082840312156138fc57600080fd5b5035919050565b60ff811681146128af57600080fd5b60006020828403121561392457600080fd5b81356107f981613903565b60008060006060848603121561394457600080fd5b61394d846137ac565b9250602084013561395d816137c8565b9150604084013561396d816137c8565b809150509250925092565b80516137c381613884565b60006020828403121561399557600080fd5b81516107f981613884565b634e487b7160e01b600052601160045260246000fd5b6001600160801b038281168282160390808211156139d6576139d66139a0565b5092915050565b8082028115828204841417613437576134376139a0565b634e487b7160e01b600052601260045260246000fd5b600082613a1957613a196139f4565b500490565b6001600160a01b039290921682526001600160401b0316602082015260400190565b80516137c3816137c8565b6040516101e081016001600160401b0381118282101715613a7c57634e487b7160e01b600052604160045260246000fd5b60405290565b80516137c381613903565b805180151581146137c357600080fd5b600080828403610200811215613ab257600080fd5b8351613abd816137c8565b92506101e0601f198201811315613ad357600080fd5b613adb613a4b565b9150613ae960208601613a40565b8252613af760408601613978565b6020830152613b0860608601613a40565b6040830152613b1960808601613978565b6060830152613b2a60a08601613978565b6080830152613b3b60c08601613978565b60a0830152613b4c60e08601613a82565b60c0830152610100613b5f818701613a8d565b60e0840152610120613b72818801613978565b828501526101409150613b86828801613a8d565b90840152610160613b98878201613a40565b828501526101809150613bac828801613a40565b908401526101a0613bbe878201613978565b828501526101c09150613bd2828801613a40565b90840152613be1868301613a40565b9083015250919491935090915050565b6001600160401b03818116838216028082169190828114613c1457613c146139a0565b505092915050565b60006001600160801b0380841680613c3657613c366139f4565b92169190910492915050565b600060208284031215613c5457600080fd5b5051919050565b6001600160801b03818116838216028082169190828114613c1457613c146139a0565b81810381811115613437576134376139a0565b600060208284031215613ca357600080fd5b6107f982613a8d565b6001600160a01b039290921682526001600160801b0316602082015260400190565b6001600160a01b03841681526001600160401b0383811660208301528251166040820152610220810160208301516001600160801b03811660608401525060408301516001600160401b03811660808401525060608301516001600160801b03811660a08401525060808301516001600160801b03811660c08401525060a08301516001600160801b03811660e08401525060c0830151610100613d768185018360ff169052565b60e08501519150610120613d8d8186018415159052565b90850151915061014090613dab858301846001600160801b03169052565b8501519150610160613dc08582018415159052565b90850151915061018090613dde858301846001600160401b03169052565b85015191506101a0613dfa858201846001600160401b03169052565b9085015191506101c090613e18858301846001600160801b03169052565b8501516001600160401b039081166101e0860152940151909316610200909201919091529392505050565b6001600160801b038181168382160190808211156139d6576139d66139a0565b6001600160a01b0395861681529390941660208401526001600160801b039190911660408301526001600160401b039081166060830152909116608082015260a00190565b805169ffffffffffffffffffff811681146137c357600080fd5b600080600080600060a08688031215613eda57600080fd5b613ee386613ea8565b9450602086015193506040860151925060608601519150613f0660808701613ea8565b90509295509295909350565b60008060408385031215613f2557600080fd5b613f2e83613a8d565b91506020830151613f3e816137c8565b809150509250929050565b80820180821115613437576134376139a0565b60006001600160801b03808316818103613f7857613f786139a0565b6001019392505050565b604081526000835180604084015260005b81811015613fb05760208187018101516060868401015201613f93565b506000606082850101526060601f19601f8301168401019150508260208301529392505050565b6001600160401b038181168382160190808211156139d6576139d66139a056fea2646970667358221220df6ff89fbe150b70e540e4f5837d8463c062f33c0a9c76370bcbbe3b81c0c9c864736f6c63430008120033","linkReferences":{}},"methodIdentifiers":{"APY()":"ef8bd305","Trinity()":"e6d97f17","admin()":"f851a440","calculateCumulativeRate()":"181ab6db","cds()":"b4eb10ce","cdsAddress()":"fe925884","depositToAaveProtocol()":"98afda43","depositToCompoundProtocol()":"b8f49090","depositTokens(uint128,uint64,uint64,uint256)":"5e2e251b","getAPY()":"d2cbf7ad","getLTV()":"4ed2b8ac","getUSDValue()":"50593af7","initializeTreasury(address)":"3ed086f4","lastCDSPoolValue()":"84e92128","lastCumulativeRate()":"8e4db39a","lastEthVaultValue()":"99eb2f6c","lastEthprice()":"2feabb52","lastTotalCDSPool()":"e42f8090","liquidate(address,uint64,uint64)":"d5c28dba","noOfLiquidations()":"38a912d5","options()":"1069143a","owner()":"8da5cb5b","priceFeedAddress()":"e0abca0b","protocolToken()":"1a465fe1","renounceOwnership()":"715018a6","setAPY(uint8)":"73ca55a2","setAdmin(address)":"704b6c02","setLTV(uint8)":"aad2476d","setOptions(address)":"7d6dff7d","totalAmintSupply()":"b3aebb9c","totalDiracSupply()":"606303f8","totalNormalizedAmount()":"6fdc5203","transferOwnership(address)":"f2fde38b","treasury()":"61d027b3","treasuryAddress()":"c5f956af","updateLastEthVaultValue(uint256)":"661b7d3e","withDraw(address,uint64,uint64,uint64,uint64)":"2bf16927","withdrawFromAaveProtocol(uint64)":"ec11dab2","withdrawFromCompoundProtocol(uint64)":"3f3006b4"},"id":2}