{"abi":[{"type":"constructor","inputs":[{"name":"_tokenAddress","type":"address","internalType":"address"},{"name":"_cds","type":"address","internalType":"address"},{"name":"_protocolToken","type":"address","internalType":"address"},{"name":"_priceFeedAddress","type":"address","internalType":"address"}],"stateMutability":"nonpayable"},{"type":"function","name":"APY","inputs":[],"outputs":[{"name":"","type":"uint8","internalType":"uint8"}],"stateMutability":"view"},{"type":"function","name":"Trinity","inputs":[],"outputs":[{"name":"","type":"address","internalType":"contract ITrinityToken"}],"stateMutability":"view"},{"type":"function","name":"admin","inputs":[],"outputs":[{"name":"","type":"address","internalType":"address"}],"stateMutability":"view"},{"type":"function","name":"calculateCumulativeRate","inputs":[],"outputs":[{"name":"","type":"uint256","internalType":"uint256"}],"stateMutability":"nonpayable"},{"type":"function","name":"cds","inputs":[],"outputs":[{"name":"","type":"address","internalType":"contract CDSInterface"}],"stateMutability":"view"},{"type":"function","name":"cdsAddress","inputs":[],"outputs":[{"name":"","type":"address","internalType":"address"}],"stateMutability":"view"},{"type":"function","name":"depositToAaveProtocol","inputs":[],"outputs":[],"stateMutability":"nonpayable"},{"type":"function","name":"depositToCompoundProtocol","inputs":[],"outputs":[],"stateMutability":"nonpayable"},{"type":"function","name":"depositTokens","inputs":[{"name":"_ethPrice","type":"uint128","internalType":"uint128"},{"name":"_depositTime","type":"uint64","internalType":"uint64"},{"name":"_strikePercent","type":"uint8","internalType":"enum IOptions.StrikePrice"},{"name":"_strikePrice","type":"uint64","internalType":"uint64"},{"name":"_volatility","type":"uint256","internalType":"uint256"}],"outputs":[],"stateMutability":"payable"},{"type":"function","name":"getAPY","inputs":[],"outputs":[{"name":"","type":"uint8","internalType":"uint8"}],"stateMutability":"view"},{"type":"function","name":"getLTV","inputs":[],"outputs":[{"name":"","type":"uint8","internalType":"uint8"}],"stateMutability":"view"},{"type":"function","name":"getUSDValue","inputs":[],"outputs":[{"name":"","type":"uint256","internalType":"uint256"}],"stateMutability":"view"},{"type":"function","name":"initializeTreasury","inputs":[{"name":"_treasury","type":"address","internalType":"address"}],"outputs":[],"stateMutability":"nonpayable"},{"type":"function","name":"lastCDSPoolValue","inputs":[],"outputs":[{"name":"","type":"uint256","internalType":"uint256"}],"stateMutability":"view"},{"type":"function","name":"lastCumulativeRate","inputs":[],"outputs":[{"name":"","type":"uint256","internalType":"uint256"}],"stateMutability":"view"},{"type":"function","name":"lastEthVaultValue","inputs":[],"outputs":[{"name":"","type":"uint256","internalType":"uint256"}],"stateMutability":"view"},{"type":"function","name":"lastEthprice","inputs":[],"outputs":[{"name":"","type":"uint128","internalType":"uint128"}],"stateMutability":"view"},{"type":"function","name":"lastTotalCDSPool","inputs":[],"outputs":[{"name":"","type":"uint256","internalType":"uint256"}],"stateMutability":"view"},{"type":"function","name":"liquidate","inputs":[{"name":"_user","type":"address","internalType":"address"},{"name":"_index","type":"uint64","internalType":"uint64"},{"name":"currentEthPrice","type":"uint64","internalType":"uint64"}],"outputs":[],"stateMutability":"nonpayable"},{"type":"function","name":"noOfLiquidations","inputs":[],"outputs":[{"name":"","type":"uint128","internalType":"uint128"}],"stateMutability":"view"},{"type":"function","name":"options","inputs":[],"outputs":[{"name":"","type":"address","internalType":"contract IOptions"}],"stateMutability":"view"},{"type":"function","name":"owner","inputs":[],"outputs":[{"name":"","type":"address","internalType":"address"}],"stateMutability":"view"},{"type":"function","name":"priceFeedAddress","inputs":[],"outputs":[{"name":"","type":"address","internalType":"address"}],"stateMutability":"view"},{"type":"function","name":"protocolToken","inputs":[],"outputs":[{"name":"","type":"address","internalType":"contract IProtocolToken"}],"stateMutability":"view"},{"type":"function","name":"renounceOwnership","inputs":[],"outputs":[],"stateMutability":"nonpayable"},{"type":"function","name":"setAPY","inputs":[{"name":"_apy","type":"uint8","internalType":"uint8"}],"outputs":[],"stateMutability":"nonpayable"},{"type":"function","name":"setAdmin","inputs":[{"name":"_admin","type":"address","internalType":"address"}],"outputs":[],"stateMutability":"nonpayable"},{"type":"function","name":"setLTV","inputs":[{"name":"_LTV","type":"uint8","internalType":"uint8"}],"outputs":[],"stateMutability":"nonpayable"},{"type":"function","name":"setOptions","inputs":[{"name":"_options","type":"address","internalType":"address"}],"outputs":[],"stateMutability":"nonpayable"},{"type":"function","name":"totalAmintSupply","inputs":[],"outputs":[{"name":"","type":"uint256","internalType":"uint256"}],"stateMutability":"view"},{"type":"function","name":"totalDiracSupply","inputs":[],"outputs":[{"name":"","type":"uint256","internalType":"uint256"}],"stateMutability":"view"},{"type":"function","name":"totalNormalizedAmount","inputs":[],"outputs":[{"name":"","type":"uint256","internalType":"uint256"}],"stateMutability":"view"},{"type":"function","name":"transferOwnership","inputs":[{"name":"newOwner","type":"address","internalType":"address"}],"outputs":[],"stateMutability":"nonpayable"},{"type":"function","name":"treasury","inputs":[],"outputs":[{"name":"","type":"address","internalType":"contract ITreasury"}],"stateMutability":"view"},{"type":"function","name":"treasuryAddress","inputs":[],"outputs":[{"name":"","type":"address","internalType":"address"}],"stateMutability":"view"},{"type":"function","name":"updateLastEthVaultValue","inputs":[{"name":"_amount","type":"uint256","internalType":"uint256"}],"outputs":[],"stateMutability":"nonpayable"},{"type":"function","name":"withDraw","inputs":[{"name":"_toAddress","type":"address","internalType":"address"},{"name":"_index","type":"uint64","internalType":"uint64"},{"name":"_ethPrice","type":"uint64","internalType":"uint64"},{"name":"_withdrawTime","type":"uint64","internalType":"uint64"},{"name":"_bondRatio","type":"uint64","internalType":"uint64"}],"outputs":[],"stateMutability":"nonpayable"},{"type":"function","name":"withdrawFromAaveProtocol","inputs":[{"name":"index","type":"uint64","internalType":"uint64"}],"outputs":[],"stateMutability":"nonpayable"},{"type":"function","name":"withdrawFromCompoundProtocol","inputs":[{"name":"index","type":"uint64","internalType":"uint64"}],"outputs":[],"stateMutability":"nonpayable"},{"type":"event","name":"Deposit","inputs":[{"name":"index","type":"uint64","indexed":false,"internalType":"uint64"},{"name":"depositedAmount","type":"uint256","indexed":false,"internalType":"uint256"},{"name":"borrowAmount","type":"uint256","indexed":false,"internalType":"uint256"},{"name":"normalizedAmount","type":"uint256","indexed":false,"internalType":"uint256"}],"anonymous":false},{"type":"event","name":"OwnershipTransferred","inputs":[{"name":"previousOwner","type":"address","indexed":true,"internalType":"address"},{"name":"newOwner","type":"address","indexed":true,"internalType":"address"}],"anonymous":false},{"type":"event","name":"Withdraw","inputs":[{"name":"borrowDebt","type":"uint256","indexed":false,"internalType":"uint256"},{"name":"withdrawAmount","type":"uint128","indexed":false,"internalType":"uint128"},{"name":"noOfAbond","type":"uint128","indexed":false,"internalType":"uint128"}],"anonymous":false},{"type":"error","name":"Borrowing_DepositFailed","inputs":[]},{"type":"error","name":"Borrowing_GettingETHPriceFailed","inputs":[]},{"type":"error","name":"Borrowing_LiquidateBurnFailed","inputs":[]},{"type":"error","name":"Borrowing_LiquidateEthTransferToCdsFailed","inputs":[]},{"type":"error","name":"Borrowing_MUSDMintFailed","inputs":[]},{"type":"error","name":"Borrowing_WithdrawBurnFailed","inputs":[]},{"type":"error","name":"Borrowing_WithdrawEthTransferFailed","inputs":[]},{"type":"error","name":"Borrowing_WithdrawMUSDTransferFailed","inputs":[]},{"type":"error","name":"Borrowing_pTokenMintFailed","inputs":[]}],"bytecode":{"object":"0x608060405272989680000000000000000000000000000f42406014557b033b2e3c9fd0803ce8000000000000000000000000000000000027106015553480156200004857600080fd5b5060405162004498380380620044988339810160408190526200006b916200021a565b620000763362000112565b600180546001600160a01b038087166001600160a01b031992831617909255600280548684169083168117909155600880548316909117905560038054858416908316179055600b805492841692909116919091179055620000d762000162565b600c80546001600160801b03199081166001600160801b03938416179091556011805490911642909216919091179055506200030792505050565b600080546001600160a01b038381166001600160a01b0319831681178455604051919092169283917f8be0079c531659141344cd1fd0a4f28419497f9722a3daafe3b4186f6b6457e09190a35050565b600b5460408051633fabe5a360e21b815290516000926001600160a01b0316918391839163feaf968c9160048083019260a09291908290030181865afa158015620001b1573d6000803e3d6000fd5b505050506040513d601f19601f82011682018060405250810190620001d791906200028f565b5050601454919350620001f69250506001600160801b031682620002e4565b9250505090565b80516001600160a01b03811681146200021557600080fd5b919050565b600080600080608085870312156200023157600080fd5b6200023c85620001fd565b93506200024c60208601620001fd565b92506200025c60408601620001fd565b91506200026c60608601620001fd565b905092959194509250565b80516001600160501b03811681146200021557600080fd5b600080600080600060a08688031215620002a857600080fd5b620002b38662000277565b9450602086015193506040860151925060608601519150620002d86080870162000277565b90509295509295909350565b6000826200030257634e487b7160e01b600052601260045260246000fd5b500490565b61418180620003176000396000f3fe6080604052600436106102305760003560e01c806384e921281161012e578063d2cbf7ad116100ab578063ec11dab21161006f578063ec11dab214610641578063ef8bd30514610661578063f2fde38b14610682578063f851a440146106a2578063fe925884146106c257600080fd5b8063d2cbf7ad146105ac578063d5c28dba146105cb578063e0abca0b146105eb578063e42f80901461060b578063e6d97f171461062157600080fd5b8063aad2476d116100f2578063aad2476d14610521578063b3aebb9c14610541578063b4eb10ce14610557578063b8f4909014610577578063c5f956af1461058c57600080fd5b806384e92128146104ac5780638da5cb5b146104c25780638e4db39a146104e057806398afda43146104f657806399eb2f6c1461050b57600080fd5b806350593af7116101bc5780636fdc5203116101805780636fdc520314610421578063704b6c0214610437578063715018a61461045757806373ca55a21461046c5780637d6dff7d1461048c57600080fd5b806350593af7146103a35780635e34783e146103b8578063606303f8146103cb57806361d027b3146103e1578063661b7d3e1461040157600080fd5b80632feabb52116102035780632feabb52146102d757806338a912d51461030f5780633ed086f4146103365780633f3006b4146103565780634ed2b8ac1461037657600080fd5b80631069143a14610235578063181ab6db146102725780631a465fe1146102955780632bf16927146102b5575b600080fd5b34801561024157600080fd5b50600554610255906001600160a01b031681565b6040516001600160a01b0390911681526020015b60405180910390f35b34801561027e57600080fd5b506102876106e2565b604051908152602001610269565b3480156102a157600080fd5b50600354610255906001600160a01b031681565b3480156102c157600080fd5b506102d56102d03660046138ac565b610800565b005b3480156102e357600080fd5b50600c546102f7906001600160801b031681565b6040516001600160801b039091168152602001610269565b34801561031b57600080fd5b506011546102f790600160801b90046001600160801b031681565b34801561034257600080fd5b506102d561035136600461391b565b611437565b34801561036257600080fd5b506102d5610371366004613936565b6114f5565b34801561038257600080fd5b50600954600160a01b900460ff165b60405160ff9091168152602001610269565b3480156103af57600080fd5b50610287611568565b6102d56103c6366004613968565b6115fe565b3480156103d757600080fd5b5061028760135481565b3480156103ed57600080fd5b50600454610255906001600160a01b031681565b34801561040d57600080fd5b506102d561041c3660046139d0565b611c01565b34801561042d57600080fd5b50610287600a5481565b34801561044357600080fd5b506102d561045236600461391b565b611c8d565b34801561046357600080fd5b506102d5611d36565b34801561047857600080fd5b506102d56104873660046139f8565b611d4a565b34801561049857600080fd5b506102d56104a736600461391b565b611dbe565b3480156104b857600080fd5b50610287600e5481565b3480156104ce57600080fd5b506000546001600160a01b0316610255565b3480156104ec57600080fd5b5061028760105481565b34801561050257600080fd5b506102d5611e72565b34801561051757600080fd5b50610287600d5481565b34801561052d57600080fd5b506102d561053c3660046139f8565b611ed7565b34801561054d57600080fd5b5061028760125481565b34801561056357600080fd5b50600254610255906001600160a01b031681565b34801561058357600080fd5b506102d5611eff565b34801561059857600080fd5b50600754610255906001600160a01b031681565b3480156105b857600080fd5b50600954600160a81b900460ff16610391565b3480156105d757600080fd5b506102d56105e6366004613a15565b611f4a565b3480156105f757600080fd5b50600b54610255906001600160a01b031681565b34801561061757600080fd5b50610287600f5481565b34801561062d57600080fd5b50600154610255906001600160a01b031681565b34801561064d57600080fd5b506102d561065c366004613936565b612839565b34801561066d57600080fd5b5060095461039190600160a81b900460ff1681565b34801561068e57600080fd5b506102d561069d36600461391b565b61287b565b3480156106ae57600080fd5b50600954610255906001600160a01b031681565b3480156106ce57600080fd5b50600854610255906001600160a01b031681565b60048054604080516322d7586760e11b8152905160009384936001600160a01b0316926345aeb0ce9281830192602092829003018187875af115801561072c573d6000803e3d6000fd5b505050506040513d601f19601f820116820180604052508101906107509190613a69565b90506b033b2e3cb548ff197d3905a160006001600160801b038316810361078657506001600160801b03811660108190556107f9565b60115460009061079f906001600160801b031642613a9c565b6015546001600160801b0391821692506107c791858116918491600160801b909104166128f4565b6010546107d49190613ac3565b6015549092506107f490600160801b90046001600160801b031683613af0565b601055505b9392505050565b6001600160a01b0385161580159061081c57506001853b151514155b6108865760405162461bcd60e51b815260206004820152603060248201527f546f20616464726573732063616e6e6f742062652061207a65726f20616e642060448201526f636f6e7472616374206164647265737360801b60648201526084015b60405180910390fd5b600c80546001600160401b0385166fffffffffffffffffffffffffffffffff1991821617909155601180549091166001600160801b03421617905560048054604051634d5c56a560e01b815260009283926001600160a01b031691634d5c56a5916108f59133918b9101613b04565b61022060405180830381865afa158015610913573d6000803e3d6000fd5b505050506040513d601f19601f820116820180604052508101906109379190613b83565b91509150856001600160401b0316826001600160401b0316106113d757806101200151156109a75760405162461bcd60e51b815260206004820152601f60248201527f5573657220616d6f756e7420686173206265656e206c69717569646174656400604482015260640161087d565b60e08101511515600003611383578060c0015160ff166000036112675760608101516000906109d887612710613ce9565b6001600160401b03166109eb9190613d14565b9050611f40816001600160801b031611610a405760405162461bcd60e51b8152602060048201526016602482015275426f72726f77696e674865616c7468206973204c6f7760501b604482015260640161087d565b60155460105460a08401516000926001600160801b03600160801b909104811692610a6d92909116613ac3565b610a779190613af0565b601554909150600160801b90046001600160801b0316610a956106e2565b610a9f9190613af0565b6010556001546040516370a0823160e01b815233600482015282916001600160a01b0316906370a0823190602401602060405180830381865afa158015610aea573d6000803e3d6000fd5b505050506040513d601f19601f82011682018060405250810190610b0e9190613d3a565b1015610b675760405162461bcd60e51b815260206004820152602260248201527f557365722062616c616e6365206973206c657373207468616e20726571756972604482015261195960f21b606482015260840161087d565b6001600160401b038088166101408501819052908716610160850152600160c0850152602084015160009190606490610ba190600a613d53565b610bab9190613d14565b610bb59190613d53565b6001600160801b0316905060008185608001516001600160801b0316610bdb9190613d76565b6001546040516363a9f09360e11b8152336004820152602481018390529192506000916001600160a01b039091169063c753e126906044016020604051808303816000875af1158015610c32573d6000803e3d6000fd5b505050506040513d601f19601f82011682018060405250810190610c569190613d89565b905080610c76576040516303f7009160e51b815260040160405180910390fd5b6001546007546040516323b872dd60e01b81523360048201526001600160a01b0391821660248201526044810186905260009291909116906323b872dd906064016020604051808303816000875af1158015610cd6573d6000803e3d6000fd5b505050506040513d601f19601f82011682018060405250810190610cfa9190613d89565b905080610d1a57604051630aae388960e41b815260040160405180910390fd5b84600a6000828254610d2c9190613d76565b909155505060045460808801516001600160a01b039091169063b9a221eb90610d5e906001600160801b031688613d76565b6040518263ffffffff1660e01b8152600401610d7c91815260200190565b600060405180830381600087803b158015610d9657600080fd5b505af1158015610daa573d6000803e3d6000fd5b505050506000610dbb33868c6129b2565b6001600160801b0381166101808a01526004805460405163ef0d5dc160e01b81529293506001600160a01b03169163ef0d5dc191610dfd913391869101613da4565b600060405180830381600087803b158015610e1757600080fd5b505af1158015610e2b573d6000803e3d6000fd5b50505050600460009054906101000a90046001600160a01b03166001600160a01b031663b1be155c338f8b6040518463ffffffff1660e01b8152600401610e7493929190613dc6565b600060405180830381600087803b158015610e8e57600080fd5b505af1158015610ea2573d6000803e3d6000fd5b505050505050505050600080886001600160401b031685606001518660200151610ecc9190613d53565b610ed69190613d14565b9050612710846001600160801b03161115610f945760055460208601516101a08701516040516310335d6b60e21b81526001600160801b0390921660048301526001600160401b0390811660248301528b1660448201526001600160a01b03909116906340cd75ac90606401602060405180830381865afa158015610f5f573d6000803e3d6000fd5b505050506040513d601f19601f82011682018060405250810190610f839190613a69565b610f8d9082613f5d565b9150611024565b836001600160801b031661271003610fae57809150611024565b836001600160801b0316611f40108015610fd25750612710846001600160801b0316105b15610fe35784602001519150611024565b60405162461bcd60e51b8152602060048201526016602482015275426f72726f77696e674865616c7468206973204c6f7760501b604482015260640161087d565b6064611031836032613d53565b61103b9190613d14565b91506110756040518060400160405280600d81526020016c32ba34103a37903932ba3ab93760991b815250836001600160801b0316612b9a565b6000600460009054906101000a90046001600160a01b03166001600160a01b031663fe6520ae338e868f8f6040518663ffffffff1660e01b81526004016110c0959493929190613f7d565b6020604051808303816000875af11580156110df573d6000803e3d6000fd5b505050506040513d601f19601f820116820180604052508101906111039190613d89565b90508061112357604051635e5e86d560e01b815260040160405180910390fd5b600160009054906101000a90046001600160a01b03166001600160a01b03166318160ddd6040518163ffffffff1660e01b8152600401602060405180830381865afa158015611176573d6000803e3d6000fd5b505050506040513d601f19601f8201168201806040525081019061119a9190613d3a565b601255600354604080516318160ddd60e01b815290516001600160a01b03909216916318160ddd916004808201926020929091908290030181865afa1580156111e7573d6000803e3d6000fd5b505050506040513d601f19601f8201168201806040525081019061120b9190613d3a565b601355610180860151604080518681526001600160801b03868116602083015290921682820152517f2dc3b614e32706dcf24286e69af4692f4b2c24fc339d659e80b26d49379b69149181900360600190a1505050505061142e565b8060c0015160ff1660010361138357611293878787846101600151856101800151866101000151612be3565b600160009054906101000a90046001600160a01b03166001600160a01b03166318160ddd6040518163ffffffff1660e01b8152600401602060405180830381865afa1580156112e6573d6000803e3d6000fd5b505050506040513d601f19601f8201168201806040525081019061130a9190613d3a565b601255600354604080516318160ddd60e01b815290516001600160a01b03909216916318160ddd916004808201926020929091908290030181865afa158015611357573d6000803e3d6000fd5b505050506040513d601f19601f8201168201806040525081019061137b9190613d3a565b60135561142e565b60405162461bcd60e51b815260206004820152602360248201527f5573657220616c726561647920776974686472617720656e7469726520616d6f6044820152621d5b9d60ea1b606482015260840161087d565b60405162461bcd60e51b815260206004820152602660248201527f5573657220646f656e73277420686176652074686520706572746963756c6172604482015265040d2dcc8caf60d31b606482015260840161087d565b50505050505050565b61143f61317a565b6001600160a01b038116158015906114575750803b15155b6114c95760405162461bcd60e51b815260206004820152603960248201527f5472656173757279206d75737420626520636f6e74726163742061646472657360448201527f7320262063616e2774206265207a65726f206164647265737300000000000000606482015260840161087d565b600480546001600160a01b039092166001600160a01b0319928316811790915560078054909216179055565b6114fd61317a565b600480546040516306ef62b960e11b81526001600160401b038416928101929092526001600160a01b031690630ddec572906024015b600060405180830381600087803b15801561154d57600080fd5b505af1158015611561573d6000803e3d6000fd5b5050505050565b600b5460408051633fabe5a360e21b815290516000926001600160a01b0316918391839163feaf968c9160048083019260a09291908290030181865afa1580156115b6573d6000803e3d6000fd5b505050506040513d601f19601f820116820180604052508101906115da9190613fdc565b50506014549193506115f79250506001600160801b031682613af0565b9250505090565b6000341161164e5760405162461bcd60e51b815260206004820152601a60248201527f43616e6e6f74206465706f736974207a65726f20746f6b656e73000000000000604482015260640161087d565b343331116116c45760405162461bcd60e51b815260206004820152603e60248201527f596f7520646f206e6f7420686176652073756666696369656e742062616c616e60448201527f636520746f20657865637574652074686973207472616e73616374696f6e0000606482015260840161087d565b60006116d934876001600160801b03166131d4565b6015549091506116f3906001600160801b03166002613d53565b6001600160801b0316816001600160401b0316101561174d5760405162461bcd60e51b81526020600482015260166024820152754e6f7420656e6f7567682066756e6420696e2043445360501b604482015260640161087d565b6004805460405163dcb71f3f60e01b815233928101929092526001600160801b03881660248301526001600160401b038716604483015260009182916001600160a01b03169063dcb71f3f903490606401604080518083038185885af11580156117bb573d6000803e3d6000fd5b50505050506040513d601f19601f820116820180604052508101906117e0919061402c565b60055460405163338271f960e21b81529294509092506000916001600160a01b039091169063ce09c7e49061181d90889034908c90600401614063565b6020604051808303816000875af115801561183c573d6000803e3d6000fd5b505050506040513d601f19601f820116820180604052508101906118609190613d3a565b90508261188057604051634fad3b0960e01b815260040160405180910390fd5b600061188e33348c85613502565b60025460405163b87c3dc360e01b81526001600160801b03851660048201529192506001600160a01b03169063b87c3dc3906024016020604051808303816000875af11580156118e2573d6000803e3d6000fd5b505050506040513d601f19601f820116820180604052508101906119069190613a69565b5060048054604051634d5c56a560e01b81526000926001600160a01b0390921691634d5c56a59161193b913391899101613b04565b61022060405180830381865afa158015611959573d6000803e3d6000fd5b505050506040513d601f19601f8201168201806040525081019061197d9190613b83565b6001600160801b03848116608083015285166101c082015260048054604051632e449f1760e21b81523392810192909252600160248301529193506001600160a01b03909116915063b9127c5c90604401600060405180830381600087803b1580156119e857600080fd5b505af11580156119fc573d6000803e3d6000fd5b505060048054604051630e6840d960e11b81523392810192909252602482018690526001600160a01b03169250631cd081b29150604401600060405180830381600087803b158015611a4d57600080fd5b505af1158015611a61573d6000803e3d6000fd5b505050506000611a6f6106e2565b6015549091506000908290600160801b90046001600160801b0316611a948187613ac3565b611a9e9190613ac3565b611aa89190613af0565b6001600160801b03811660a08501526001600160401b038b166101a085015260048054604051632c6f855760e21b81529293506001600160a01b03169163b1be155c91611afb9133918b91899101613dc6565b600060405180830381600087803b158015611b1557600080fd5b505af1158015611b29573d6000803e3d6000fd5b5050505080600a6000828254611b3f919061409d565b925050819055508c600c60006101000a8154816001600160801b0302191690836001600160801b0316021790555042601160006101000a8154816001600160801b0302191690836001600160801b031602179055507f3f7c04c09b19100060129256b7d82f055d0aa72cf17042fb3f2d41d1fffc026086348684604051611bea94939291906001600160401b0394909416845260208401929092526040830152606082015260800190565b60405180910390a150505050505050505050505050565b6007546001600160a01b03163314611c1857600080fd5b80600003611c735760405162461bcd60e51b815260206004820152602260248201527f4c61737420455448207661756c742076616c75652063616e2774206265207a65604482015261726f60f01b606482015260840161087d565b80600d6000828254611c859190613d76565b909155505050565b611c9561317a565b6001600160a01b03811615801590611cb157506001813b151514155b611d145760405162461bcd60e51b815260206004820152602e60248201527f41646d696e2063616e277420626520636f6e747261637420616464726573732060448201526d26207a65726f206164647265737360901b606482015260840161087d565b600980546001600160a01b0319166001600160a01b0392909216919091179055565b611d3e61317a565b611d486000613806565b565b611d5261317a565b8060ff16600003611d9e5760405162461bcd60e51b81526020600482015260166024820152754150592073686f756c64206e6f74206265207a65726f60501b604482015260640161087d565b6009805460ff909216600160a81b0260ff60a81b19909216919091179055565b611dc661317a565b6001600160a01b03811615801590611dde5750803b15155b611e505760405162461bcd60e51b815260206004820152603860248201527f4f7074696f6e73206d75737420626520636f6e7472616374206164647265737360448201527f20262063616e2774206265207a65726f20616464726573730000000000000000606482015260840161087d565b600580546001600160a01b0319166001600160a01b0392909216919091179055565b611e7a61317a565b60048054604080516301865f0760e21b815290516001600160a01b03909216926306197c1c92828201926000929082900301818387803b158015611ebd57600080fd5b505af1158015611ed1573d6000803e3d6000fd5b50505050565b611edf61317a565b6009805460ff909216600160a01b0260ff60a01b19909216919091179055565b611f0761317a565b60048054604080516306e1444d60e21b815290516001600160a01b0390921692631b85113492828201926000929082900301818387803b158015611ebd57600080fd5b6009546001600160a01b03163314611f6157600080fd5b6001600160a01b038316611fc35760405162461bcd60e51b815260206004820152602360248201527f546f20616464726573732063616e6e6f742062652061207a65726f206164647260448201526265737360e81b606482015260840161087d565b6001600160a01b03831633036120295760405162461bcd60e51b815260206004820152602560248201527f596f752063616e6e6f74206c697175696461746520796f7572206f776e206173604482015264736574732160d81b606482015260840161087d565b601180548491849160109061204d90600160801b90046001600160801b03166140b0565b82546001600160801b039182166101009390930a928302919092021990911617905560048054604051634d5c56a560e01b81526000926001600160a01b0390921691634d5c56a5916120a3918791879101613b04565b61022060405180830381865afa1580156120c1573d6000803e3d6000fd5b505050506040513d601f19601f820116820180604052508101906120e59190613b83565b915050806101200151156121305760405162461bcd60e51b8152602060048201526012602482015271105b1c9958591e48131a5c5d5a59185d195960721b604482015260640161087d565b6004805460408051630f27449560e01b815290516001600160a01b0390921692630f2744959282820192602092908290030181865afa158015612177573d6000803e3d6000fd5b505050506040513d601f19601f8201168201806040525081019061219b9190613d3a565b81602001516001600160801b031611156121f75760405162461bcd60e51b815260206004820152601c60248201527f4e6f7420656e6f7567682066756e647320696e20747265617375727900000000604482015260640161087d565b606081015160009061220b86612710613ce9565b6001600160401b031661221e9190613d14565b9050611f40816001600160801b031611156122725760405162461bcd60e51b8152602060048201526014602482015273596f752063616e6e6f74206c697175696461746560601b604482015260640161087d565b600161012083015260155460105460a08401516000926001600160801b03600160801b9091048116926122a792909116613ac3565b6122b19190613af0565b601554909150600160801b90046001600160801b03166122cf6106e2565b6122d99190613af0565b601055606083015160208401518291600091606491849183916122fb91613d53565b6123059190613d14565b61230f9190613a9c565b61231a90600a613d53565b6123249190613d14565b9050600081836064886060015189602001516123409190613d53565b61234a9190613d14565b6123549190613a9c565b61235e9190613a9c565b9050600061236c8385613f5d565b6040805160808101825260008082526020820181905291810182905260608101919091529091506040518060800160405280836001600160801b03168152602001846001600160801b0316815260200189602001516001600160801b03168152602001600260009054906101000a90046001600160a01b03166001600160a01b031663dc91e7526040518163ffffffff1660e01b81526004016020604051808303816000875af1158015612424573d6000803e3d6000fd5b505050506040513d601f19601f820116820180604052508101906124489190613d3a565b90526002546011546040805163b3013d4d60e01b8152600160801b9092046001600160801b03908116600484015284518116602484015260208501518116604484015290840151166064820152606083015160848201529192506001600160a01b03169063b3013d4d9060a401600060405180830381600087803b1580156124cf57600080fd5b505af11580156124e3573d6000803e3d6000fd5b505060025460405163dc55b19360e01b81526001600160801b03861660048201526001600160a01b03909116925063dc55b1939150602401600060405180830381600087803b15801561253557600080fd5b505af1158015612549573d6000803e3d6000fd5b5050600254604051634cae95d360e01b81526001600160801b03861660048201526001600160a01b039091169250634cae95d39150602401600060405180830381600087803b15801561259b57600080fd5b505af11580156125af573d6000803e3d6000fd5b505050506000846001600160801b031687876001600160801b03166125d49190613d76565b6125de919061409d565b600480546040516308fc416760e21b81529293506001600160a01b0316916323f1059c916126129185910190815260200190565b600060405180830381600087803b15801561262c57600080fd5b505af1158015612640573d6000803e3d6000fd5b505060048054604051632c6f855760e21b81526001600160a01b03909116935063b1be155c9250612677918f918f918f9101613dc6565b600060405180830381600087803b15801561269157600080fd5b505af11580156126a5573d6000803e3d6000fd5b50506004805460808d0151604051630adfd5a560e21b81526001600160a01b039092169450632b7f569493506126dd92309201613da4565b600060405180830381600087803b1580156126f757600080fd5b505af115801561270b573d6000803e3d6000fd5b505060015460075460808d01516040516363a9f09360e11b8152600095506001600160a01b03938416945063c753e1269361274b93169190600401613da4565b6020604051808303816000875af115801561276a573d6000803e3d6000fd5b505050506040513d601f19601f8201168201806040525081019061278e9190613d89565b9050806127ae57604051632105f02360e11b815260040160405180910390fd5b600160009054906101000a90046001600160a01b03166001600160a01b03166318160ddd6040518163ffffffff1660e01b8152600401602060405180830381865afa158015612801573d6000803e3d6000fd5b505050506040513d601f19601f820116820180604052508101906128259190613d3a565b601255505050505050505050505050505050565b61284161317a565b60048054604051630376724160e41b81526001600160401b038416928101929092526001600160a01b031690633767241090602401611533565b61288361317a565b6001600160a01b0381166128e85760405162461bcd60e51b815260206004820152602660248201527f4f776e61626c653a206e6577206f776e657220697320746865207a65726f206160448201526564647265737360d01b606482015260840161087d565b6128f181613806565b50565b60008380156129945760018416801561290f57859250612913565b8392505b50600283046002850494505b841561298e57858602868782041461293657600080fd5b8181018181101561294657600080fd5b859004965050600185161561298357858302838782041415871515161561296c57600080fd5b8181018181101561297c57600080fd5b8590049350505b60028504945061291f565b506129aa565b8380156129a457600092506129a8565b8392505b505b509392505050565b60006001600160a01b038416612a0a5760405162461bcd60e51b815260206004820152601f60248201527f426f72726f7765722063616e6e6f74206265207a65726f206164647265737300604482015260640161087d565b82600003612a515760405162461bcd60e51b8152602060048201526014602482015273416d6f756e742063616e2774206265207a65726f60601b604482015260640161087d565b6000612a5e836064613ce9565b6001600160401b0316612a72856064613d53565b612a7c9190613d14565b6003546040516340c10f1960e01b81529192506000916001600160a01b03909116906340c10f1990612ab49089908690600401613da4565b6020604051808303816000875af1158015612ad3573d6000803e3d6000fd5b505050506040513d601f19601f82011682018060405250810190612af79190613d89565b905080612b17576040516368a3803760e11b815260040160405180910390fd5b600360009054906101000a90046001600160a01b03166001600160a01b03166318160ddd6040518163ffffffff1660e01b8152600401602060405180830381865afa158015612b6a573d6000803e3d6000fd5b505050506040513d601f19601f82011682018060405250810190612b8e9190613d3a565b60135550949350505050565b612bdf8282604051602401612bb09291906140d6565b60408051601f198184030181529190526020810180516001600160e01b0316632d839cb360e21b179052613856565b5050565b612bf08362278d0061412b565b6001600160401b0316421015612c595760405162461bcd60e51b815260206004820152602860248201527f41206d6f6e7468206e6f742079657420636f6d706c657465642073696e636520604482015267776974686472617760c01b606482015260840161087d565b6003546040516370a0823160e01b81523360048201526001600160801b038416916001600160a01b0316906370a0823190602401602060405180830381865afa158015612caa573d6000803e3d6000fd5b505050506040513d601f19601f82011682018060405250810190612cce9190613d3a565b14612d255760405162461bcd60e51b815260206004820152602160248201527f446f6e2774206861766520656e6f7567682050726f746f636f6c20546f6b656e6044820152607360f81b606482015260840161087d565b60048054604051634d5c56a560e01b81526000926001600160a01b0390921691634d5c56a591612d599133918b9101613b04565b61022060405180830381865afa158015612d77573d6000803e3d6000fd5b505050506040513d601f19601f82011682018060405250810190612d9b9190613b83565b600480546020830151604051631b35376f60e21b81529395506001600160a01b039091169350636cd4ddbc92612dd49233929101613da4565b600060405180830381600087803b158015612dee57600080fd5b505af1158015612e02573d6000803e3d6000fd5b5050600060208401525050600160e0820152600260c082015260048054604051630edd59bf60e21b81526001600160a01b0390911691633b7566fc91612e4c913391889101613da4565b600060405180830381600087803b158015612e6657600080fd5b505af1158015612e7a573d6000803e3d6000fd5b50506000610180840152505060048054604051632c6f855760e21b81526001600160a01b039091169163b1be155c91612eb99133918b91879101613dc6565b600060405180830381600087803b158015612ed357600080fd5b505af1158015612ee7573d6000803e3d6000fd5b505060045460808401516001600160a01b039091169250632b7f569491503090606490612f15906032613d53565b612f1f9190613d14565b6040518363ffffffff1660e01b8152600401612f3c929190613da4565b600060405180830381600087803b158015612f5657600080fd5b505af1158015612f6a573d6000803e3d6000fd5b50506001546007546080850151600094506001600160a01b03928316935063c753e1269290911690606490612fa0906032613d53565b612faa9190613d14565b6040518363ffffffff1660e01b8152600401612fc7929190613da4565b6020604051808303816000875af1158015612fe6573d6000803e3d6000fd5b505050506040513d601f19601f8201168201806040525081019061300a9190613d89565b90508061302a576040516303f7009160e51b815260040160405180910390fd5b6003546040516363a9f09360e11b81526000916001600160a01b03169063c753e1269061305d9033908990600401613da4565b6020604051808303816000875af115801561307c573d6000803e3d6000fd5b505050506040513d601f19601f820116820180604052508101906130a09190613d89565b9050806130c0576040516303f7009160e51b815260040160405180910390fd5b6000600460009054906101000a90046001600160a01b03166001600160a01b031663fe6520ae338c888d8d6040518663ffffffff1660e01b815260040161310b959493929190613f7d565b6020604051808303816000875af115801561312a573d6000803e3d6000fd5b505050506040513d601f19601f8201168201806040525081019061314e9190613d89565b90508061316e57604051635e5e86d560e01b815260040160405180910390fd5b50505050505050505050565b6000546001600160a01b03163314611d485760405162461bcd60e51b815260206004820181905260248201527f4f776e61626c653a2063616c6c6572206973206e6f7420746865206f776e6572604482015260640161087d565b600080826000036131f8576040516315e73e9f60e01b815260040160405180910390fd5b6000600460009054906101000a90046001600160a01b03166001600160a01b03166345aeb0ce6040518163ffffffff1660e01b81526004016020604051808303816000875af115801561324f573d6000803e3d6000fd5b505050506040513d601f19601f820116820180604052508101906132739190613a69565b600c549091506001600160801b03168411156132b457600c546001600160801b03808316916132a3911686613d76565b6132ad9190613ac3565b91506132dc565b600c546001600160801b03808316916132cf91879116613d76565b6132d99190613ac3565b91505b600080826001600160801b03166000036133b9576132fa8688613ac3565b600d819055600254604080516315d9753160e11b815290519294506001600160a01b0390911691632bb2ea62916004808201926020929091908290030181865afa15801561334c573d6000803e3d6000fd5b505050506040513d601f19601f820116820180604052508101906133709190613a69565b6001600160801b03908116600f55600c5416861061339e5783600f54613396919061409d565b600e556133b0565b83600f546133ac9190613d76565b600e555b50600e546134c8565b6133c38688613ac3565b600d546133d0919061409d565b915081600d819055506000600260009054906101000a90046001600160a01b03166001600160a01b0316632bb2ea626040518163ffffffff1660e01b8152600401602060405180830381865afa15801561342e573d6000803e3d6000fd5b505050506040513d601f19601f820116820180604052508101906134529190613a69565b600c546001600160801b0391821692501687106134965784600f54826134789190613d76565b600e54613485919061409d565b61348f919061409d565b91506134bf565b84600f54826134a59190613d76565b600e546134b2919061409d565b6134bc9190613d76565b91505b600f55600e8190555b60145460009083906134ea90600160801b90046001600160801b031684613ac3565b6134f49190613af0565b955050505050505b92915050565b60006001600160a01b03851661355a5760405162461bcd60e51b815260206004820152601f60248201527f426f72726f7765722063616e6e6f74206265207a65726f206164647265737300604482015260640161087d565b600954600160a01b900460ff166000036135dc5760405162461bcd60e51b815260206004820152603860248201527f4c5456206d7573742062652073657420746f206e6f6e2d7a65726f2076616c7560448201527f65206265666f72652070726f766964696e67206c6f616e730000000000000000606482015260840161087d565b60006135f16001600160801b03851686613ac3565b6015546009549192506000916001600160801b039091169061361d90600160a01b900460ff1684613ac3565b6136279190613af0565b6001549091506000906001600160a01b03166340c10f19896136498886613d76565b6040516001600160e01b031960e085901b1681526001600160a01b03909216600483015260248201526044016020604051808303816000875af1158015613694573d6000803e3d6000fd5b505050506040513d601f19601f820116820180604052508101906136b89190613d89565b6001546007546040516340c10f1960e01b81526001600160a01b039182166004820152602481018990529293506000929116906340c10f19906044016020604051808303816000875af1158015613713573d6000803e3d6000fd5b505050506040513d601f19601f820116820180604052508101906137379190613d89565b905081613757576040516309ad720160e01b815260040160405180910390fd5b80613775576040516309ad720160e01b815260040160405180910390fd5b600160009054906101000a90046001600160a01b03166001600160a01b03166318160ddd6040518163ffffffff1660e01b8152600401602060405180830381865afa1580156137c8573d6000803e3d6000fd5b505050506040513d601f19601f820116820180604052508101906137ec9190613d3a565b6012556137f98684613d76565b9998505050505050505050565b600080546001600160a01b038381166001600160a01b0319831681178455604051919092169283917f8be0079c531659141344cd1fd0a4f28419497f9722a3daafe3b4186f6b6457e09190a35050565b6128f18160006a636f6e736f6c652e6c6f679050600080835160208501845afa505050565b80356001600160a01b038116811461389257600080fd5b919050565b6001600160401b03811681146128f157600080fd5b600080600080600060a086880312156138c457600080fd5b6138cd8661387b565b945060208601356138dd81613897565b935060408601356138ed81613897565b925060608601356138fd81613897565b9150608086013561390d81613897565b809150509295509295909350565b60006020828403121561392d57600080fd5b6107f98261387b565b60006020828403121561394857600080fd5b81356107f981613897565b6001600160801b03811681146128f157600080fd5b600080600080600060a0868803121561398057600080fd5b853561398b81613953565b9450602086013561399b81613897565b93506040860135600581106139af57600080fd5b925060608601356139bf81613897565b949793965091946080013592915050565b6000602082840312156139e257600080fd5b5035919050565b60ff811681146128f157600080fd5b600060208284031215613a0a57600080fd5b81356107f9816139e9565b600080600060608486031215613a2a57600080fd5b613a338461387b565b92506020840135613a4381613897565b91506040840135613a5381613897565b809150509250925092565b805161389281613953565b600060208284031215613a7b57600080fd5b81516107f981613953565b634e487b7160e01b600052601160045260246000fd5b6001600160801b03828116828216039080821115613abc57613abc613a86565b5092915050565b80820281158282048414176134fc576134fc613a86565b634e487b7160e01b600052601260045260246000fd5b600082613aff57613aff613ada565b500490565b6001600160a01b039290921682526001600160401b0316602082015260400190565b805161389281613897565b60405161020081016001600160401b0381118282101715613b6257634e487b7160e01b600052604160045260246000fd5b60405290565b8051613892816139e9565b8051801515811461389257600080fd5b600080828403610220811215613b9857600080fd5b8351613ba381613897565b9250610200601f198201811315613bb957600080fd5b613bc1613b31565b9150613bcf60208601613b26565b8252613bdd60408601613a5e565b6020830152613bee60608601613b26565b6040830152613bff60808601613a5e565b6060830152613c1060a08601613a5e565b6080830152613c2160c08601613a5e565b60a0830152613c3260e08601613b68565b60c0830152610100613c45818701613b73565b60e0840152610120613c58818801613a5e565b828501526101409150613c6c828801613b73565b90840152610160613c7e878201613b26565b828501526101809150613c92828801613b26565b908401526101a0613ca4878201613a5e565b828501526101c09150613cb8828801613b26565b908401526101e0613cca878201613a5e565b82850152613cd9838801613b26565b9084015250929590945092505050565b6001600160401b03818116838216028082169190828114613d0c57613d0c613a86565b505092915050565b60006001600160801b0380841680613d2e57613d2e613ada565b92169190910492915050565b600060208284031215613d4c57600080fd5b5051919050565b6001600160801b03818116838216028082169190828114613d0c57613d0c613a86565b818103818111156134fc576134fc613a86565b600060208284031215613d9b57600080fd5b6107f982613b73565b6001600160a01b039290921682526001600160801b0316602082015260400190565b6001600160a01b03841681526001600160401b0383811660208301528251166040820152610240810160208301516001600160801b03811660608401525060408301516001600160401b03811660808401525060608301516001600160801b03811660a08401525060808301516001600160801b03811660c08401525060a08301516001600160801b03811660e08401525060c0830151610100613e6e8185018360ff169052565b60e08501519150610120613e858186018415159052565b90850151915061014090613ea3858301846001600160801b03169052565b8501519150610160613eb88582018415159052565b90850151915061018090613ed6858301846001600160401b03169052565b85015191506101a0613ef2858201846001600160401b03169052565b9085015191506101c090613f10858301846001600160801b03169052565b85015191506101e0613f2c858201846001600160401b03169052565b908501516001600160801b03166102008501528401516001600160401b038116610220850152905050949350505050565b6001600160801b03818116838216019080821115613abc57613abc613a86565b6001600160a01b0395861681529390941660208401526001600160801b039190911660408301526001600160401b039081166060830152909116608082015260a00190565b805169ffffffffffffffffffff8116811461389257600080fd5b600080600080600060a08688031215613ff457600080fd5b613ffd86613fc2565b945060208601519350604086015192506060860151915061402060808701613fc2565b90509295509295909350565b6000806040838503121561403f57600080fd5b61404883613b73565b9150602083015161405881613897565b809150509250929050565b83815260208101839052606081016005831061408f57634e487b7160e01b600052602160045260246000fd5b826040830152949350505050565b808201808211156134fc576134fc613a86565b60006001600160801b038083168181036140cc576140cc613a86565b6001019392505050565b604081526000835180604084015260005b8181101561410457602081870181015160608684010152016140e7565b506000606082850101526060601f19601f8301168401019150508260208301529392505050565b6001600160401b03818116838216019080821115613abc57613abc613a8656fea26469706673582212205575394ba1867e8c0af606561fb94f0754f153681e8b20a2e4e575ad6bf7ec0764736f6c63430008120033","linkReferences":{}},"methodIdentifiers":{"APY()":"ef8bd305","Trinity()":"e6d97f17","admin()":"f851a440","calculateCumulativeRate()":"181ab6db","cds()":"b4eb10ce","cdsAddress()":"fe925884","depositToAaveProtocol()":"98afda43","depositToCompoundProtocol()":"b8f49090","depositTokens(uint128,uint64,uint8,uint64,uint256)":"5e34783e","getAPY()":"d2cbf7ad","getLTV()":"4ed2b8ac","getUSDValue()":"50593af7","initializeTreasury(address)":"3ed086f4","lastCDSPoolValue()":"84e92128","lastCumulativeRate()":"8e4db39a","lastEthVaultValue()":"99eb2f6c","lastEthprice()":"2feabb52","lastTotalCDSPool()":"e42f8090","liquidate(address,uint64,uint64)":"d5c28dba","noOfLiquidations()":"38a912d5","options()":"1069143a","owner()":"8da5cb5b","priceFeedAddress()":"e0abca0b","protocolToken()":"1a465fe1","renounceOwnership()":"715018a6","setAPY(uint8)":"73ca55a2","setAdmin(address)":"704b6c02","setLTV(uint8)":"aad2476d","setOptions(address)":"7d6dff7d","totalAmintSupply()":"b3aebb9c","totalDiracSupply()":"606303f8","totalNormalizedAmount()":"6fdc5203","transferOwnership(address)":"f2fde38b","treasury()":"61d027b3","treasuryAddress()":"c5f956af","updateLastEthVaultValue(uint256)":"661b7d3e","withDraw(address,uint64,uint64,uint64,uint64)":"2bf16927","withdrawFromAaveProtocol(uint64)":"ec11dab2","withdrawFromCompoundProtocol(uint64)":"3f3006b4"},"id":2}