{"abi":[{"type":"function","name":"APY","inputs":[],"outputs":[{"name":"","type":"uint8","internalType":"uint8"}],"stateMutability":"view"},{"type":"function","name":"DOMAIN_SEPARATOR","inputs":[],"outputs":[{"name":"","type":"bytes32","internalType":"bytes32"}],"stateMutability":"view"},{"type":"function","name":"PERMIT_TYPEHASH","inputs":[],"outputs":[{"name":"","type":"bytes32","internalType":"bytes32"}],"stateMutability":"view"},{"type":"function","name":"UPGRADE_INTERFACE_VERSION","inputs":[],"outputs":[{"name":"","type":"string","internalType":"string"}],"stateMutability":"view"},{"type":"function","name":"abond","inputs":[],"outputs":[{"name":"","type":"address","internalType":"contract IABONDToken"}],"stateMutability":"view"},{"type":"function","name":"amint","inputs":[],"outputs":[{"name":"","type":"address","internalType":"contract IAMINT"}],"stateMutability":"view"},{"type":"function","name":"calculateCumulativeRate","inputs":[],"outputs":[{"name":"","type":"uint256","internalType":"uint256"}],"stateMutability":"nonpayable"},{"type":"function","name":"calculateRatio","inputs":[{"name":"_amount","type":"uint256","internalType":"uint256"},{"name":"currentEthPrice","type":"uint256","internalType":"uint256"}],"outputs":[{"name":"","type":"uint64","internalType":"uint64"}],"stateMutability":"nonpayable"},{"type":"function","name":"cds","inputs":[],"outputs":[{"name":"","type":"address","internalType":"contract CDSInterface"}],"stateMutability":"view"},{"type":"function","name":"cdsAddress","inputs":[],"outputs":[{"name":"","type":"address","internalType":"address"}],"stateMutability":"view"},{"type":"function","name":"depositTokens","inputs":[{"name":"_ethPrice","type":"uint128","internalType":"uint128"},{"name":"_depositTime","type":"uint64","internalType":"uint64"},{"name":"_strikePercent","type":"uint8","internalType":"enum IOptions.StrikePrice"},{"name":"_strikePrice","type":"uint64","internalType":"uint64"},{"name":"_volatility","type":"uint256","internalType":"uint256"}],"outputs":[],"stateMutability":"payable"},{"type":"function","name":"ethRemainingInWithdraw","inputs":[],"outputs":[{"name":"","type":"uint256","internalType":"uint256"}],"stateMutability":"view"},{"type":"function","name":"ethValueRemainingInWithdraw","inputs":[],"outputs":[{"name":"","type":"uint256","internalType":"uint256"}],"stateMutability":"view"},{"type":"function","name":"getLTV","inputs":[],"outputs":[{"name":"","type":"uint8","internalType":"uint8"}],"stateMutability":"view"},{"type":"function","name":"getLastEthVaultValue","inputs":[],"outputs":[{"name":"","type":"uint256","internalType":"uint256"}],"stateMutability":"view"},{"type":"function","name":"getUSDValue","inputs":[],"outputs":[{"name":"","type":"uint256","internalType":"uint256"}],"stateMutability":"view"},{"type":"function","name":"initialize","inputs":[{"name":"_tokenAddress","type":"address","internalType":"address"},{"name":"_cds","type":"address","internalType":"address"},{"name":"_abondToken","type":"address","internalType":"address"},{"name":"_multiSign","type":"address","internalType":"address"},{"name":"_priceFeedAddress","type":"address","internalType":"address"},{"name":"chainId","type":"uint64","internalType":"uint64"}],"outputs":[],"stateMutability":"nonpayable"},{"type":"function","name":"isContract","inputs":[{"name":"addr","type":"address","internalType":"address"}],"outputs":[{"name":"","type":"bool","internalType":"bool"}],"stateMutability":"view"},{"type":"function","name":"lastCDSPoolValue","inputs":[],"outputs":[{"name":"","type":"uint256","internalType":"uint256"}],"stateMutability":"view"},{"type":"function","name":"lastCumulativeRate","inputs":[],"outputs":[{"name":"","type":"uint256","internalType":"uint256"}],"stateMutability":"view"},{"type":"function","name":"lastEthVaultValue","inputs":[],"outputs":[{"name":"","type":"uint256","internalType":"uint256"}],"stateMutability":"view"},{"type":"function","name":"liquidate","inputs":[{"name":"_user","type":"address","internalType":"address"},{"name":"_index","type":"uint64","internalType":"uint64"},{"name":"currentEthPrice","type":"uint64","internalType":"uint64"}],"outputs":[],"stateMutability":"nonpayable"},{"type":"function","name":"multiSign","inputs":[],"outputs":[{"name":"","type":"address","internalType":"contract IMultiSign"}],"stateMutability":"view"},{"type":"function","name":"name","inputs":[],"outputs":[{"name":"","type":"string","internalType":"string"}],"stateMutability":"view"},{"type":"function","name":"noOfLiquidations","inputs":[],"outputs":[{"name":"","type":"uint128","internalType":"uint128"}],"stateMutability":"view"},{"type":"function","name":"options","inputs":[],"outputs":[{"name":"","type":"address","internalType":"contract IOptions"}],"stateMutability":"view"},{"type":"function","name":"owner","inputs":[],"outputs":[{"name":"","type":"address","internalType":"address"}],"stateMutability":"view"},{"type":"function","name":"priceFeedAddress","inputs":[],"outputs":[{"name":"","type":"address","internalType":"address"}],"stateMutability":"view"},{"type":"function","name":"proxiableUUID","inputs":[],"outputs":[{"name":"","type":"bytes32","internalType":"bytes32"}],"stateMutability":"view"},{"type":"function","name":"ratePerSec","inputs":[],"outputs":[{"name":"","type":"uint128","internalType":"uint128"}],"stateMutability":"view"},{"type":"function","name":"redeemYields","inputs":[{"name":"user","type":"address","internalType":"address"},{"name":"aBondAmount","type":"uint128","internalType":"uint128"}],"outputs":[{"name":"","type":"uint256","internalType":"uint256"}],"stateMutability":"nonpayable"},{"type":"function","name":"renounceOwnership","inputs":[],"outputs":[],"stateMutability":"nonpayable"},{"type":"function","name":"setAPR","inputs":[{"name":"_ratePerSec","type":"uint128","internalType":"uint128"}],"outputs":[],"stateMutability":"nonpayable"},{"type":"function","name":"setAdmin","inputs":[{"name":"_admin","type":"address","internalType":"address"}],"outputs":[],"stateMutability":"nonpayable"},{"type":"function","name":"setBondRatio","inputs":[{"name":"_bondRatio","type":"uint64","internalType":"uint64"}],"outputs":[],"stateMutability":"nonpayable"},{"type":"function","name":"setLTV","inputs":[{"name":"_LTV","type":"uint8","internalType":"uint8"}],"outputs":[],"stateMutability":"nonpayable"},{"type":"function","name":"setOptions","inputs":[{"name":"_options","type":"address","internalType":"address"}],"outputs":[],"stateMutability":"nonpayable"},{"type":"function","name":"setTreasury","inputs":[{"name":"_treasury","type":"address","internalType":"address"}],"outputs":[],"stateMutability":"nonpayable"},{"type":"function","name":"setWithdrawTimeLimit","inputs":[{"name":"_timeLimit","type":"uint64","internalType":"uint64"}],"outputs":[],"stateMutability":"nonpayable"},{"type":"function","name":"totalNormalizedAmount","inputs":[],"outputs":[{"name":"","type":"uint256","internalType":"uint256"}],"stateMutability":"view"},{"type":"function","name":"transferOwnership","inputs":[{"name":"newOwner","type":"address","internalType":"address"}],"outputs":[],"stateMutability":"nonpayable"},{"type":"function","name":"treasury","inputs":[],"outputs":[{"name":"","type":"address","internalType":"contract ITreasury"}],"stateMutability":"view"},{"type":"function","name":"treasuryAddress","inputs":[],"outputs":[{"name":"","type":"address","internalType":"address"}],"stateMutability":"view"},{"type":"function","name":"updateLastEthVaultValue","inputs":[{"name":"_amount","type":"uint256","internalType":"uint256"}],"outputs":[],"stateMutability":"nonpayable"},{"type":"function","name":"upgradeToAndCall","inputs":[{"name":"newImplementation","type":"address","internalType":"address"},{"name":"data","type":"bytes","internalType":"bytes"}],"outputs":[],"stateMutability":"payable"},{"type":"function","name":"version","inputs":[],"outputs":[{"name":"","type":"string","internalType":"string"}],"stateMutability":"view"},{"type":"function","name":"withDraw","inputs":[{"name":"_toAddress","type":"address","internalType":"address"},{"name":"_index","type":"uint64","internalType":"uint64"},{"name":"_ethPrice","type":"uint64","internalType":"uint64"},{"name":"_withdrawTime","type":"uint64","internalType":"uint64"}],"outputs":[],"stateMutability":"nonpayable"},{"type":"event","name":"Deposit","inputs":[{"name":"index","type":"uint64","indexed":false,"internalType":"uint64"},{"name":"depositedAmount","type":"uint256","indexed":false,"internalType":"uint256"},{"name":"borrowAmount","type":"uint256","indexed":false,"internalType":"uint256"},{"name":"normalizedAmount","type":"uint256","indexed":false,"internalType":"uint256"}],"anonymous":false},{"type":"event","name":"Initialized","inputs":[{"name":"version","type":"uint64","indexed":false,"internalType":"uint64"}],"anonymous":false},{"type":"event","name":"Liquidate","inputs":[{"name":"index","type":"uint64","indexed":false,"internalType":"uint64"},{"name":"liquidationAmount","type":"uint128","indexed":false,"internalType":"uint128"},{"name":"profits","type":"uint128","indexed":false,"internalType":"uint128"},{"name":"ethAmount","type":"uint128","indexed":false,"internalType":"uint128"},{"name":"availableLiquidationAmount","type":"uint256","indexed":false,"internalType":"uint256"}],"anonymous":false},{"type":"event","name":"OwnershipTransferred","inputs":[{"name":"previousOwner","type":"address","indexed":true,"internalType":"address"},{"name":"newOwner","type":"address","indexed":true,"internalType":"address"}],"anonymous":false},{"type":"event","name":"Upgraded","inputs":[{"name":"implementation","type":"address","indexed":true,"internalType":"address"}],"anonymous":false},{"type":"event","name":"Withdraw","inputs":[{"name":"borrowDebt","type":"uint256","indexed":false,"internalType":"uint256"},{"name":"withdrawAmount","type":"uint128","indexed":false,"internalType":"uint128"},{"name":"noOfAbond","type":"uint128","indexed":false,"internalType":"uint128"}],"anonymous":false},{"type":"error","name":"AddressEmptyCode","inputs":[{"name":"target","type":"address","internalType":"address"}]},{"type":"error","name":"Borrowing_DepositFailed","inputs":[]},{"type":"error","name":"Borrowing_GettingETHPriceFailed","inputs":[]},{"type":"error","name":"Borrowing_LiquidateBurnFailed","inputs":[]},{"type":"error","name":"Borrowing_LiquidateEthTransferToCdsFailed","inputs":[]},{"type":"error","name":"Borrowing_WithdrawAMINTTransferFailed","inputs":[]},{"type":"error","name":"Borrowing_WithdrawBurnFailed","inputs":[]},{"type":"error","name":"Borrowing_WithdrawEthTransferFailed","inputs":[]},{"type":"error","name":"Borrowing_abondMintFailed","inputs":[]},{"type":"error","name":"Borrowing_amintMintFailed","inputs":[]},{"type":"error","name":"ERC1967InvalidImplementation","inputs":[{"name":"implementation","type":"address","internalType":"address"}]},{"type":"error","name":"ERC1967NonPayable","inputs":[]},{"type":"error","name":"FailedInnerCall","inputs":[]},{"type":"error","name":"InvalidInitialization","inputs":[]},{"type":"error","name":"NotInitializing","inputs":[]},{"type":"error","name":"OwnableInvalidOwner","inputs":[{"name":"owner","type":"address","internalType":"address"}]},{"type":"error","name":"OwnableUnauthorizedAccount","inputs":[{"name":"account","type":"address","internalType":"address"}]},{"type":"error","name":"ReentrancyGuardReentrantCall","inputs":[]},{"type":"error","name":"UUPSUnauthorizedCallContext","inputs":[]},{"type":"error","name":"UUPSUnsupportedProxiableUUID","inputs":[{"name":"slot","type":"bytes32","internalType":"bytes32"}]}],"bytecode":{"object":"0x60a06040523060805234801561001457600080fd5b506080516157066200003f600039600081816141ae015281816141d7015261431d01526157066000f3fe6080604052600436106102885760003560e01c8063704b6c021161015a578063ad3cb1cc116100c1578063d5c28dba1161007a578063d5c28dba14610817578063e0abca0b14610837578063ef8bd30514610857578063f0f4426014610878578063f2fde38b14610898578063fe925884146108b857600080fd5b8063ad3cb1cc1461072e578063ada0b0ed1461075f578063b4eb10ce14610797578063c1bab32d146107b7578063c5f956af146107d7578063c8101461146107f757600080fd5b8063868c10d211610113578063868c10d2146106655780638da5cb5b146106855780638e4db39a146106c257806399eb2f6c146106d85780639e6fe439146106ee578063aad2476d1461070e57600080fd5b8063704b6c02146105c5578063715018a6146105e5578063715cad17146105fa5780637d6dff7d1461060f57806380ddebcb1461062f57806384e921281461064f57600080fd5b80634ed2b8ac116101fe57806354fd4d50116101b757806354fd4d501461050f5780635a606b411461053c5780635e34783e1461055c57806361d027b31461056f578063661b7d3e1461058f5780636fdc5203146105af57600080fd5b80634ed2b8ac146104655780634f1ef28614610492578063503e6322146104a557806350593af7146104c557806350d7ede2146104da57806352d1902d146104fa57600080fd5b8063276eb3ac11610250578063276eb3ac1461037d57806328ab6afe1461039f57806330adf81f146103b55780633644e515146103e957806338a912d5146103ff5780633b486a251461043e57600080fd5b8063019a442e1461028d57806306fdde03146102b65780631069143a146102ff5780631627905514610337578063181ab6db14610368575b600080fd5b34801561029957600080fd5b506102a360185481565b6040519081526020015b60405180910390f35b3480156102c257600080fd5b506102f26040518060400160405280601081526020016f20a6a4a72a1029ba30b13632b1b7b4b760811b81525081565b6040516102ad9190614b8e565b34801561030b57600080fd5b5060045461031f906001600160a01b031681565b6040516001600160a01b0390911681526020016102ad565b34801561034357600080fd5b50610358610352366004614bbd565b3b151590565b60405190151581526020016102ad565b34801561037457600080fd5b506102a36108d8565b34801561038957600080fd5b5061039d610398366004614bed565b610a07565b005b3480156103ab57600080fd5b506102a360175481565b3480156103c157600080fd5b506102a37ff48167ebcd5a3b4ca5517473931d60b9a75b03f56e5e6363767fa277375eb08081565b3480156103f557600080fd5b506102a360135481565b34801561040b57600080fd5b5060115461042690600160801b90046001600160801b031681565b6040516001600160801b0390911681526020016102ad565b34801561044a57600080fd5b5060125461042690600160401b90046001600160801b031681565b34801561047157600080fd5b50600954600160a01b900460ff165b60405160ff90911681526020016102ad565b61039d6104a0366004614c9b565b610b36565b3480156104b157600080fd5b5060005461031f906001600160a01b031681565b3480156104d157600080fd5b506102a3610b55565b3480156104e657600080fd5b5060025461031f906001600160a01b031681565b34801561050657600080fd5b506102a3610beb565b34801561051b57600080fd5b506102f2604051806040016040528060018152602001603160f81b81525081565b34801561054857600080fd5b5061039d610557366004614d40565b610c08565b61039d61056a366004614dcd565b610ee4565b34801561057b57600080fd5b5060035461031f906001600160a01b031681565b34801561059b57600080fd5b5061039d6105aa366004614e35565b61171d565b3480156105bb57600080fd5b506102a3600a5481565b3480156105d157600080fd5b5061039d6105e0366004614bbd565b6117ff565b3480156105f157600080fd5b5061039d611923565b34801561060657600080fd5b506102a3611937565b34801561061b57600080fd5b5061039d61062a366004614bbd565b61194d565b34801561063b57600080fd5b506102a361064a366004614e4e565b611a23565b34801561065b57600080fd5b506102a3600e5481565b34801561067157600080fd5b5061039d610680366004614bed565b611ec9565b34801561069157600080fd5b507f9016d09d72d40fdae2fd8ceac6b6234c7706214fd39c1cd1e609a0528c199300546001600160a01b031661031f565b3480156106ce57600080fd5b506102a360105481565b3480156106e457600080fd5b506102a3600d5481565b3480156106fa57600080fd5b5060055461031f906001600160a01b031681565b34801561071a57600080fd5b5061039d610729366004614e85565b611ff4565b34801561073a57600080fd5b506102f2604051806040016040528060058152602001640352e302e360dc1b81525081565b34801561076b57600080fd5b5061077f61077a366004614ea8565b612100565b6040516001600160401b0390911681526020016102ad565b3480156107a357600080fd5b5060015461031f906001600160a01b031681565b3480156107c357600080fd5b5061039d6107d2366004614eca565b6124a7565b3480156107e357600080fd5b5060075461031f906001600160a01b031681565b34801561080357600080fd5b5061039d610812366004614ee7565b612671565b34801561082357600080fd5b5061039d610832366004614f41565b6132e2565b34801561084357600080fd5b50600b5461031f906001600160a01b031681565b34801561086357600080fd5b5060095461048090600160a81b900460ff1681565b34801561088457600080fd5b5061039d610893366004614bbd565b613f4c565b3480156108a457600080fd5b5061039d6108b3366004614bbd565b6140a7565b3480156108c457600080fd5b5060085461031f906001600160a01b031681565b600080600360009054906101000a90046001600160a01b03166001600160a01b03166345aeb0ce6040518163ffffffff1660e01b8152600401602060405180830381865afa15801561092e573d6000803e3d6000fd5b505050506040513d601f19601f820116820180604052508101906109529190614f95565b90506000816001600160801b03166000036109855750601254600160401b90046001600160801b03166010819055610a01565b60115460009061099e906001600160801b031642614fc8565b6012546015546001600160801b0392831693506109cf92600160401b9092048216918491600160801b9004166140e5565b6010546109dc9190614fef565b6015549092506109fc90600160801b90046001600160801b03168361501c565b601055505b92915050565b6009546001600160a01b03163314610a3a5760405162461bcd60e51b8152600401610a3190615030565b60405180910390fd5b806001600160401b0316600003610a935760405162461bcd60e51b815260206004820152601860248201527f426f6e6420526174696f2063616e2774206265207a65726f00000000000000006044820152606401610a31565b6005546001600160a01b031663fb8c927860086040518263ffffffff1660e01b8152600401610ac29190615076565b6020604051808303816000875af1158015610ae1573d6000803e3d6000fd5b505050506040513d601f19601f82011682018060405250810190610b0591906150a0565b610b0e57600080fd5b601280546001600160401b03909216600160c01b026001600160c01b03909216919091179055565b610b3e6141a3565b610b4782614248565b610b518282614250565b5050565b600b5460408051633fabe5a360e21b815290516000926001600160a01b0316918391839163feaf968c9160048083019260a09291908290030181865afa158015610ba3573d6000803e3d6000fd5b505050506040513d601f19601f82011682018060405250810190610bc791906150d5565b5050601454919350610be49250506001600160801b03168261501c565b9250505090565b6000610bf5614312565b506000805160206156b183398151915290565b7ff0c57e16840df040f15088dc2f81fe391c3923bec73e23a9662efc9c229c6a008054600160401b810460ff1615906001600160401b0316600081158015610c4d5750825b90506000826001600160401b03166001148015610c695750303b155b905081158015610c77575080155b15610c955760405163f92ee8a960e01b815260040160405180910390fd5b845467ffffffffffffffff191660011785558315610cbf57845460ff60401b1916600160401b1785555b610cc83361435b565b610cd061436c565b600080546001600160a01b03199081166001600160a01b038e8116919091179092556001805482168d8416908117825560088054841690911790556002805483168d85161790556005805483168c8516179055600b8054909216928a16929092179055604080518082018252601081526f20a6a4a72a1029ba30b13632b1b7b4b760811b60209182015281518083018352928352603160f81b9281019290925280517f2010028ec63295361a00945794d4fce5b1046c419f60af448db7aaeb91e918f8928101929092527fb6715a9c407638b44c957bf0380ac52778ea690cd439f34f0943ed73c1effc28908201527fc89efdaa54c0f20c7adf612882df0950f5a951637e0307cdcb4c672f298b8bc660608201526001600160401b03871660808201523060a082015260c00160408051601f19818403018152919052805160209091012060135572989680000000000000000000000000000f4240601455612710676765c793fa10079d609b1b01601555601680546001600160801b03191664e8d4a51000179055610e61610b55565b600c80546001600160801b03199081166001600160801b039384161790915560118054909116429092169190911790558315610ed757845460ff60401b19168555604051600181527fc7f505b2f371ae2175ee4913f4499e1f2633a7b5936321eed1cdaeb6115181d29060200160405180910390a15b5050505050505050505050565b610eec614374565b6005546040516326d2a55160e21b81526000916001600160a01b031690639b4a954490610f1d908490600401615125565b6020604051808303816000875af1158015610f3c573d6000803e3d6000fd5b505050506040513d601f19601f82011682018060405250810190610f6091906150a0565b15610f7d5760405162461bcd60e51b8152600401610a3190615139565b60003411610fcd5760405162461bcd60e51b815260206004820152601a60248201527f43616e6e6f74206465706f736974207a65726f20746f6b656e730000000000006044820152606401610a31565b6000610fe234886001600160801b0316612100565b601554909150610ffc906001600160801b03166002615159565b6001600160801b0316816001600160401b031610156110565760405162461bcd60e51b81526020600482015260166024820152754e6f7420656e6f7567682066756e6420696e2043445360501b6044820152606401610a31565b60048054604051636916a18160e11b81526000926001600160a01b039092169163d22d43029161108e918c91899134918d9101615184565b6020604051808303816000875af11580156110ad573d6000803e3d6000fd5b505050506040513d601f19601f820116820180604052508101906110d191906151c1565b6015546016549192506000916110f3916001600160801b039081169116615159565b6001600160801b0316600960149054906101000a900460ff1660ff168a6001600160801b0316346111249190614fef565b61112e9190614fef565b611138919061501c565b905061116a6040518060400160405280600e81526020016d1513d2d15394c81513c81311539160921b815250826143be565b6111966040518060400160405280600a8152602001694f5054494f4e2046454560b01b815250836143be565b60006111a283836151da565b60035460405163dcb71f3f60e01b81523360048201526001600160801b038d1660248201526001600160401b038c1660448201529192506000916001600160a01b039091169063dcb71f3f903490606401604080518083038185885af1158015611210573d6000803e3d6000fd5b50505050506040513d601f19601f8201168201806040525081019061123591906151f8565b602081015181519192509061125d57604051634fad3b0960e01b815260040160405180910390fd5b6002546001600160a01b0316639992f4b73383606461127d346032615159565b6112879190615237565b600354604051637b85b73960e01b8152600160048201526001600160a01b0390911690637b85b73990602401602060405180830381865afa1580156112d0573d6000803e3d6000fd5b505050506040513d601f19601f820116820180604052508101906112f49190614f95565b6040516001600160e01b031960e087901b1681526001600160a01b0390941660048501526001600160401b0390921660248401526001600160801b039081166044840152166064820152608401600060405180830381600087803b15801561135b57600080fd5b505af115801561136f573d6000803e3d6000fd5b5050505061137f33348e88614403565b60015460405163b87c3dc360e01b81526001600160801b03871660048201526001600160a01b039091169063b87c3dc390602401600060405180830381600087803b1580156113cd57600080fd5b505af11580156113e1573d6000803e3d6000fd5b5050600354604051634d5c56a560e01b81523360048201526001600160401b0385166024820152600093506001600160a01b039091169150634d5c56a59060440161022060405180830381865afa158015611440573d6000803e3d6000fd5b505050506040513d601f19601f82011682018060405250810190611464919061525d565b60208101516001600160801b0386811660a083015288166101c0820152600354604051632e449f1760e21b81523360048201526001602482015292935090916001600160a01b039091169063b9127c5c90604401600060405180830381600087803b1580156114d257600080fd5b505af11580156114e6573d6000803e3d6000fd5b5050600354604051630e6840d960e11b8152336004820152602481018990526001600160a01b039091169250631cd081b29150604401600060405180830381600087803b15801561153657600080fd5b505af115801561154a573d6000803e3d6000fd5b5050505060006115586108d8565b601180546001600160801b031916426001600160801b03908116919091179091556015549192506000918391600160801b90910416611597818a614fef565b6115a19190614fef565b6115ab919061501c565b6001600160801b03811660c085015290506115cf346001600160401b038f16615159565b6001600160801b03166101a08401526003546040516308a29bdf60e31b81526001600160a01b0390911690634514def890611612903390899088906004016153cf565b600060405180830381600087803b15801561162c57600080fd5b505af1158015611640573d6000803e3d6000fd5b5050505080600a6000828254611656919061556c565b925050819055508f600c60006101000a8154816001600160801b0302191690836001600160801b031602179055507f3f7c04c09b19100060129256b7d82f055d0aa72cf17042fb3f2d41d1fffc0260853489846040516116da94939291906001600160401b0394909416845260208401929092526040830152606082015260800190565b60405180910390a1505050505050505050505061171660017f9b779b17422d0df92223018b32b4d1fa46e071723d6817e2486d003becc55f0055565b5050505050565b6007546001600160a01b0316331461178a5760405162461bcd60e51b815260206004820152602a60248201527f46756e6374696f6e2073686f756c64206f6e6c792062652063616c6c656420626044820152697920747265617375727960b01b6064820152608401610a31565b806000036117e55760405162461bcd60e51b815260206004820152602260248201527f4c61737420455448207661756c742076616c75652063616e2774206265207a65604482015261726f60f01b6064820152608401610a31565b80600d60008282546117f791906151da565b909155505050565b61180761468d565b6001600160a01b0381161580159061182357506001813b151514155b6118865760405162461bcd60e51b815260206004820152602e60248201527f41646d696e2063616e277420626520636f6e747261637420616464726573732060448201526d26207a65726f206164647265737360901b6064820152608401610a31565b6005546001600160a01b031663fb8c927860046040518263ffffffff1660e01b81526004016118b59190615076565b6020604051808303816000875af11580156118d4573d6000803e3d6000fd5b505050506040513d601f19601f820116820180604052508101906118f891906150a0565b61190157600080fd5b600980546001600160a01b0319166001600160a01b0392909216919091179055565b61192b61468d565b61193560006146e8565b565b60006064600d54611948919061501c565b905090565b6009546001600160a01b031633146119775760405162461bcd60e51b8152600401610a3190615030565b6001600160a01b0381161580159061198f5750803b15155b611a015760405162461bcd60e51b815260206004820152603860248201527f4f7074696f6e73206d75737420626520636f6e7472616374206164647265737360448201527f20262063616e2774206265207a65726f206164647265737300000000000000006064820152608401610a31565b600480546001600160a01b0319166001600160a01b0392909216919091179055565b600254604051630ecc535f60e01b81526001600160a01b0384811660048301526000928392911690630ecc535f906024016060604051808303816000875af1158015611a73573d6000803e3d6000fd5b505050506040513d601f19601f82011682018060405250810190611a97919061557f565b905080604001516001600160801b0316836001600160801b03161115611aff5760405162461bcd60e51b815260206004820152601c60248201527f596f7520646f6e2774206861766520656e6f7567682061426f6e6473000000006044820152606401610a31565b600254604080516318160ddd60e01b815290516000926001600160a01b0316916318160ddd9160048083019260209291908290030181865afa158015611b49573d6000803e3d6000fd5b505050506040513d601f19601f82011682018060405250810190611b6d91906151c1565b60155460035460408051633ebbb1ef60e01b81529051600160801b9093046001600160801b0316926001600160a01b0390921691633ebbb1ef916004808201926020929091908290030181865afa158015611bcc573d6000803e3d6000fd5b505050506040513d601f19601f82011682018060405250810190611bf091906151c1565b611bfa9190614fef565b611c04919061501c565b6015546001600160401b03919091169150600090600160801b90046001600160801b0316611c328684615159565b611c3c9190615237565b60035460405163c2fcb15b60e01b81526001600160801b0392909216600483018190526000602484015292506001600160a01b03169063c2fcb15b90604401600060405180830381600087803b158015611c9557600080fd5b505af1158015611ca9573d6000803e3d6000fd5b5050600354604051630adfd5a560e21b8152306004820152602481018590526001600160a01b039091169250632b7f56949150604401600060405180830381600087803b158015611cf957600080fd5b505af1158015611d0d573d6000803e3d6000fd5b5050600080546007546040516363a9f09360e11b81526001600160a01b0391821660048201526024810187905292945016915063c753e126906044016020604051808303816000875af1158015611d68573d6000803e3d6000fd5b505050506040513d601f19601f82011682018060405250810190611d8c91906150a0565b905080611dac576040516303f7009160e51b815260040160405180910390fd5b600354604051631c93d87760e31b81526000916001600160a01b03169063e49ec3b890611ddf908b908b906004016155e7565b6020604051808303816000875af1158015611dfe573d6000803e3d6000fd5b505050506040513d601f19601f82011682018060405250810190611e2291906151c1565b6002546040516363a9f09360e11b81529192506000916001600160a01b039091169063c753e12690611e5a9033908c906004016155e7565b6020604051808303816000875af1158015611e79573d6000803e3d6000fd5b505050506040513d601f19601f82011682018060405250810190611e9d91906150a0565b905080611ebd576040516303f7009160e51b815260040160405180910390fd5b50979650505050505050565b6009546001600160a01b03163314611ef35760405162461bcd60e51b8152600401610a3190615030565b806001600160401b0316600003611f565760405162461bcd60e51b815260206004820152602160248201527f57697468647261772074696d65206c696d69742063616e2774206265207a65726044820152606f60f81b6064820152608401610a31565b6005546001600160a01b031663fb8c927860026040518263ffffffff1660e01b8152600401611f859190615076565b6020604051808303816000875af1158015611fa4573d6000803e3d6000fd5b505050506040513d601f19601f82011682018060405250810190611fc891906150a0565b611fd157600080fd5b6012805467ffffffffffffffff19166001600160401b0392909216919091179055565b6009546001600160a01b0316331461201e5760405162461bcd60e51b8152600401610a3190615030565b8060ff166000036120655760405162461bcd60e51b81526020600482015260116024820152704c54562063616e2774206265207a65726f60781b6044820152606401610a31565b6005546001600160a01b031663fb8c927860006040518263ffffffff1660e01b81526004016120949190615076565b6020604051808303816000875af11580156120b3573d6000803e3d6000fd5b505050506040513d601f19601f820116820180604052508101906120d791906150a0565b6120e057600080fd5b6009805460ff909216600160a01b0260ff60a01b19909216919091179055565b60008082600003612124576040516315e73e9f60e01b815260040160405180910390fd5b600354604080516322d7586760e11b815290516000926001600160a01b0316916345aeb0ce9160048083019260209291908290030181865afa15801561216e573d6000803e3d6000fd5b505050506040513d601f19601f820116820180604052508101906121929190614f95565b600c549091506001600160801b03168411156121d357600c546001600160801b03808316916121c29116866151da565b6121cc9190614fef565b91506121fb565b600c546001600160801b03808316916121ee918791166151da565b6121f89190614fef565b91505b600080826001600160801b03166000036122ef576122198688614fef565b600d819055600154604080516315d9753160e11b815290519294506001600160a01b0390911691632bb2ea62916004808201926020929091908290030181865afa15801561226b573d6000803e3d6000fd5b505050506040513d601f19601f8201168201806040525081019061228f9190614f95565b6001600160801b03908116600f55600c541686106122bd5783600f546122b5919061556c565b600e556122cf565b83600f546122cb91906151da565b600e555b601654600e546122e8916001600160801b031690614fef565b905061246f565b6122f98688614fef565b600d54612306919061556c565b915081600d819055506000600160009054906101000a90046001600160a01b03166001600160a01b0316632bb2ea626040518163ffffffff1660e01b8152600401602060405180830381865afa158015612364573d6000803e3d6000fd5b505050506040513d601f19601f820116820180604052508101906123889190614f95565b600c546001600160801b0391821692501687106123f357600f548111156123d75784600f54826123b891906151da565b600e546123c5919061556c565b6123cf919061556c565b600e5561244d565b8481600f546123e691906151da565b600e546123c591906151da565b600f548111156124235784600f548261240c91906151da565b600e54612419919061556c565b6123cf91906151da565b8481600f5461243291906151da565b600e5461243f91906151da565b61244991906151da565b600e555b600f819055601654600e5461246b916001600160801b031690614fef565b9150505b601454600090839061249190600160801b90046001600160801b031684614fef565b61249b919061501c565b98975050505050505050565b6005546040516326d2a55160e21b81526003916001600160a01b031690639b4a9544906124d8908490600401615125565b6020604051808303816000875af11580156124f7573d6000803e3d6000fd5b505050506040513d601f19601f8201168201806040525081019061251b91906150a0565b156125385760405162461bcd60e51b8152600401610a3190615139565b6009546001600160a01b031633146125625760405162461bcd60e51b8152600401610a3190615030565b816001600160801b03166000036125bb5760405162461bcd60e51b815260206004820152601760248201527f526174652073686f756c64206e6f74206265207a65726f0000000000000000006044820152606401610a31565b6005546001600160a01b031663fb8c927860016040518263ffffffff1660e01b81526004016125ea9190615076565b6020604051808303816000875af1158015612609573d6000803e3d6000fd5b505050506040513d601f19601f8201168201806040525081019061262d91906150a0565b61263657600080fd5b50601280546001600160801b03909216600160401b0277ffffffffffffffffffffffffffffffff000000000000000019909216919091179055565b612679614374565b6005546040516326d2a55160e21b81526001916001600160a01b031690639b4a9544906126aa908490600401615125565b6020604051808303816000875af11580156126c9573d6000803e3d6000fd5b505050506040513d601f19601f820116820180604052508101906126ed91906150a0565b1561270a5760405162461bcd60e51b8152600401610a3190615139565b6001600160a01b0385161580159061272657506001853b151514155b61278b5760405162461bcd60e51b815260206004820152603060248201527f546f20616464726573732063616e6e6f742062652061207a65726f20616e642060448201526f636f6e7472616374206164647265737360801b6064820152608401610a31565b61279f6000846001600160401b0316612100565b50600c80546001600160801b0319166001600160401b038516179055600354604051634d5c56a560e01b81526000916001600160a01b031690634d5c56a59061280b90339089906004016001600160a01b039290921682526001600160401b0316602082015260400190565b61022060405180830381865afa158015612829573d6000803e3d6000fd5b505050506040513d601f19601f8201168201806040525081019061284d919061525d565b60208101518151919250906001600160401b0380881691161061325957806101200151156128bd5760405162461bcd60e51b815260206004820152601f60248201527f5573657220616d6f756e7420686173206265656e206c697175696461746564006044820152606401610a31565b60e081015115156000036132055760808101516000906128df87612710615609565b6001600160401b03166128f29190615237565b9050611f40816001600160801b0316116129475760405162461bcd60e51b8152602060048201526016602482015275426f72726f77696e674865616c7468206973204c6f7760501b6044820152606401610a31565b60155460105460c08401516000926001600160801b03600160801b90910481169261297492909116614fef565b61297e919061501c565b601554909150600160801b90046001600160801b031661299c6108d8565b6129a6919061501c565b601055601180546001600160801b031916426001600160801b03161790556000546040516370a0823160e01b815233600482015282916001600160a01b0316906370a0823190602401602060405180830381865afa158015612a0c573d6000803e3d6000fd5b505050506040513d601f19601f82011682018060405250810190612a3091906151c1565b1015612a895760405162461bcd60e51b815260206004820152602260248201527f557365722062616c616e6365206973206c657373207468616e20726571756972604482015261195960f21b6064820152608401610a31565b6001600160401b038088166101408501819052600160e086015290871661016085015260165460208501516000926001600160801b039092169160649182908190612ad5906032615159565b612adf9190615237565b612aea906050615159565b612af49190615237565b612afe9190615159565b612b089190615237565b612b129190615237565b60035460405163c2fcb15b60e01b81526001600160801b0392909216600483018190526001602484015292506001600160a01b03169063c2fcb15b90604401600060405180830381600087803b158015612b6b57600080fd5b505af1158015612b7f573d6000803e3d6000fd5b50505050612bc16040518060400160405280600f81526020016e1093d49493d5d15108105353d55395608a1b8152508560a001516001600160801b03166143be565b612bf16040518060400160405280600e81526020016d08892a6869eaa9ca88a88408aa8960931b815250826143be565b6000818560a001516001600160801b0316612c0c91906151da565b9050612c3a6040518060400160405280600a8152602001694255524e2056414c554560b01b815250826143be565b600080546040516363a9f09360e11b8152336004820152602481018490526001600160a01b039091169063c753e126906044016020604051808303816000875af1158015612c8c573d6000803e3d6000fd5b505050506040513d601f19601f82011682018060405250810190612cb091906150a0565b905080612cd0576040516303f7009160e51b815260040160405180910390fd5b600080546007546001600160a01b03918216916323b872dd91339116612cf6878a6151da565b6040516001600160e01b031960e086901b1681526001600160a01b03938416600482015292909116602483015260448201526064016020604051808303816000875af1158015612d4a573d6000803e3d6000fd5b505050506040513d601f19601f82011682018060405250810190612d6e91906150a0565b905080612d8e57604051637e74fa1d60e01b815260040160405180910390fd5b8660c001516001600160801b0316600a6000828254612dad91906151da565b909155505060408051808201909152600c81526b189bdc9c9bddd95c9119589d60a21b6020820152612ddf90866143be565b60035460a08801516001600160a01b039091169063b9a221eb90612e0c906001600160801b0316886151da565b6040518263ffffffff1660e01b8152600401612e2a91815260200190565b600060405180830381600087803b158015612e4457600080fd5b505af1158015612e58573d6000803e3d6000fd5b505050506000612e69338e87614759565b9050808861018001906001600160801b031690816001600160801b031681525050600360009054906101000a90046001600160a01b03166001600160a01b0316634514def8338f8b6040518463ffffffff1660e01b8152600401612ecf939291906153cf565b600060405180830381600087803b158015612ee957600080fd5b505af1158015612efd573d6000803e3d6000fd5b505050505050505050600080886001600160401b031685608001518660200151612f279190615159565b612f319190615237565b9050612710846001600160801b0316111561304b576004805460208701516101a0880151604051630e1fab4360e01b81526001600160801b03928316948101949094521660248301526001600160401b038b1660448301526001600160a01b031690630e1fab4390606401602060405180830381865afa158015612fb9573d6000803e3d6000fd5b505050506040513d601f19601f82011682018060405250810190612fdd9190614f95565b612fe7908261562c565b9150846020015182612ff99190614fc8565b6001600160801b031660176000828254613013919061556c565b909155505060175461302f906001600160401b038b1690614fef565b60186000828254613040919061556c565b909155506130db9050565b836001600160801b031661271003613065578091506130db565b836001600160801b0316611f401080156130895750612710846001600160801b0316105b1561309a57846020015191506130db565b60405162461bcd60e51b8152602060048201526016602482015275426f72726f77696e674865616c7468206973204c6f7760501b6044820152606401610a31565b60646130e8836032615159565b6130f29190615237565b6003546040516315ee073360e11b81523360048201526001600160a01b038e811660248301526001600160801b03841660448301526001600160401b038e16606483015292945060009290911690632bdc0e66906084016020604051808303816000875af1158015613168573d6000803e3d6000fd5b505050506040513d601f19601f8201168201806040525081019061318c91906150a0565b9050806131ac57604051635e5e86d560e01b815260040160405180910390fd5b610180860151604080518681526001600160801b03868116602083015290921682820152517f2dc3b614e32706dcf24286e69af4692f4b2c24fc339d659e80b26d49379b69149181900360600190a150505050506132b0565b60405162461bcd60e51b815260206004820152602360248201527f5573657220616c726561647920776974686472617720656e7469726520616d6f6044820152621d5b9d60ea1b6064820152608401610a31565b60405162461bcd60e51b815260206004820152602660248201527f5573657220646f656e73277420686176652074686520706572746963756c6172604482015265040d2dcc8caf60d31b6064820152608401610a31565b5050506132dc60017f9b779b17422d0df92223018b32b4d1fa46e071723d6817e2486d003becc55f0055565b50505050565b6005546040516326d2a55160e21b81526002916001600160a01b031690639b4a954490613313908490600401615125565b6020604051808303816000875af1158015613332573d6000803e3d6000fd5b505050506040513d601f19601f8201168201806040525081019061335691906150a0565b156133735760405162461bcd60e51b8152600401610a3190615139565b6009546001600160a01b0316331461339d5760405162461bcd60e51b8152600401610a3190615030565b6001600160a01b0384166133ff5760405162461bcd60e51b815260206004820152602360248201527f546f20616464726573732063616e6e6f742062652061207a65726f206164647260448201526265737360e81b6064820152608401610a31565b6001600160a01b03841633036134655760405162461bcd60e51b815260206004820152602560248201527f596f752063616e6e6f74206c697175696461746520796f7572206f776e206173604482015264736574732160d81b6064820152608401610a31565b601180548591859160109061348990600160801b90046001600160801b031661564c565b82546001600160801b039182166101009390930a9283029190920219909116179055600354604051634d5c56a560e01b81526001600160a01b0384811660048301526001600160401b03841660248301526000921690634d5c56a59060440161022060405180830381865afa158015613506573d6000803e3d6000fd5b505050506040513d601f19601f8201168201806040525081019061352a919061525d565b6020810151610120810151919250901561357b5760405162461bcd60e51b8152602060048201526012602482015271105b1c9958591e48131a5c5d5a59185d195960721b6044820152606401610a31565b600360009054906101000a90046001600160a01b03166001600160a01b03166390dea7e26040518163ffffffff1660e01b8152600401602060405180830381865afa1580156135ce573d6000803e3d6000fd5b505050506040513d601f19601f820116820180604052508101906135f291906151c1565b600360009054906101000a90046001600160a01b03166001600160a01b0316639a52aed96040518163ffffffff1660e01b8152600401602060405180830381865afa158015613645573d6000803e3d6000fd5b505050506040513d601f19601f8201168201806040525081019061366991906151c1565b61367391906151da565b81602001516001600160801b031611156136cf5760405162461bcd60e51b815260206004820152601c60248201527f4e6f7420656e6f7567682066756e647320696e207472656173757279000000006044820152606401610a31565b60808101516000906136e388612710615609565b6001600160401b03166136f69190615237565b9050611f40816001600160801b0316111561374a5760405162461bcd60e51b8152602060048201526014602482015273596f752063616e6e6f74206c697175696461746560601b6044820152606401610a31565b6001610120830152601554600160801b90046001600160801b031661376d6108d8565b613777919061501c565b601081905560155460c08401516000926001600160801b03600160801b9093048316926137a49216614fef565b6137ae919061501c565b601654608085015160208601519293508392600092606492859284926001600160801b0316916137dd91615159565b6137e79190615237565b6137f19190615237565b6137fb9190614fc8565b613806906014615159565b6138109190615237565b60035460405163c2fcb15b60e01b81526001600160801b0383166004820152600160248201529192506001600160a01b03169063c2fcb15b90604401600060405180830381600087803b15801561386657600080fd5b505af115801561387a573d6000803e3d6000fd5b50505050600081836064601660009054906101000a90046001600160801b031689608001518a602001516138ae9190615159565b6138b89190615237565b6138c29190615237565b6138cc9190614fc8565b6138d69190614fc8565b905060006138e4838561562c565b9050806001600160801b0316600160009054906101000a90046001600160a01b03166001600160a01b031663dc91e7526040518163ffffffff1660e01b81526004016020604051808303816000875af1158015613945573d6000803e3d6000fd5b505050506040513d601f19601f8201168201806040525081019061396991906151c1565b10156139cb5760405162461bcd60e51b815260206004820152602b60248201527f446f6e2774206861766520656e6f75676820414d494e5420696e20434453207460448201526a6f206c697175696461746560a81b6064820152608401610a31565b6040805160808101825260008082526020820181905291810182905260608101919091526040518060800160405280836001600160801b03168152602001846001600160801b0316815260200189602001516001600160801b03168152602001600160009054906101000a90046001600160a01b03166001600160a01b031663dc91e7526040518163ffffffff1660e01b81526004016020604051808303816000875af1158015613a80573d6000803e3d6000fd5b505050506040513d601f19601f82011682018060405250810190613aa491906151c1565b90526001546011546040805163b3013d4d60e01b8152600160801b9092046001600160801b03908116600484015284518116602484015260208501518116604484015290840151166064820152606083015160848201529192506001600160a01b03169063b3013d4d9060a401600060405180830381600087803b158015613b2b57600080fd5b505af1158015613b3f573d6000803e3d6000fd5b505060015460405163dc55b19360e01b81526001600160801b03861660048201526001600160a01b03909116925063dc55b1939150602401600060405180830381600087803b158015613b9157600080fd5b505af1158015613ba5573d6000803e3d6000fd5b5050600154604051634baf580d60e01b81526001600160801b03861660048201526001600160a01b039091169250634baf580d9150602401600060405180830381600087803b158015613bf757600080fd5b505af1158015613c0b573d6000803e3d6000fd5b5050600154604051634cae95d360e01b81526001600160801b03861660048201526001600160a01b039091169250634cae95d39150602401600060405180830381600087803b158015613c5d57600080fd5b505af1158015613c71573d6000803e3d6000fd5b505060035460208b015160405163cd0220c960e01b81526001600160801b039091166004820152600160248201526001600160a01b03909116925063cd0220c99150604401600060405180830381600087803b158015613cd057600080fd5b505af1158015613ce4573d6000803e3d6000fd5b50506003546040516308a29bdf60e31b81526001600160a01b039091169250634514def89150613d1c908e908e908d906004016153cf565b600060405180830381600087803b158015613d3657600080fd5b505af1158015613d4a573d6000803e3d6000fd5b505060035460a08b0151604051630adfd5a560e21b81526001600160a01b039092169350632b7f56949250613d84913091906004016155e7565b600060405180830381600087803b158015613d9e57600080fd5b505af1158015613db2573d6000803e3d6000fd5b50506000805460075460a08d01516040516363a9f09360e11b81529395506001600160a01b03928316945063c753e12693613df393909216916004016155e7565b6020604051808303816000875af1158015613e12573d6000803e3d6000fd5b505050506040513d601f19601f82011682018060405250810190613e3691906150a0565b905080613e5657604051632105f02360e11b815260040160405180910390fd5b7f7a965b40f4fbf2d5cd719f1d8acff4dd4de67b89356211ec5a7e474d8f861db08b84868c60200151600160009054906101000a90046001600160a01b03166001600160a01b031663dc91e7526040518163ffffffff1660e01b81526004016020604051808303816000875af1158015613ed4573d6000803e3d6000fd5b505050506040513d601f19601f82011682018060405250810190613ef891906151c1565b604080516001600160401b039690961686526001600160801b03948516602087015292841685840152921660608401526080830191909152519081900360a00190a150505050505050505050505050505050565b6009546001600160a01b03163314613f765760405162461bcd60e51b8152600401610a3190615030565b6001600160a01b03811615801590613f8e5750803b15155b6140005760405162461bcd60e51b815260206004820152603960248201527f5472656173757279206d75737420626520636f6e74726163742061646472657360448201527f7320262063616e2774206265207a65726f2061646472657373000000000000006064820152608401610a31565b6005546001600160a01b031663fb8c927860066040518263ffffffff1660e01b815260040161402f9190615076565b6020604051808303816000875af115801561404e573d6000803e3d6000fd5b505050506040513d601f19601f8201168201806040525081019061407291906150a0565b61407b57600080fd5b600380546001600160a01b039092166001600160a01b0319928316811790915560078054909216179055565b6140af61468d565b6001600160a01b0381166140d957604051631e4fbdf760e01b815260006004820152602401610a31565b6140e2816146e8565b50565b60008380156141855760018416801561410057859250614104565b8392505b50600283046002850494505b841561417f57858602868782041461412757600080fd5b8181018181101561413757600080fd5b859004965050600185161561417457858302838782041415871515161561415d57600080fd5b8181018181101561416d57600080fd5b8590049350505b600285049450614110565b5061419b565b8380156141955760009250614199565b8392505b505b509392505050565b306001600160a01b037f000000000000000000000000000000000000000000000000000000000000000016148061422a57507f00000000000000000000000000000000000000000000000000000000000000006001600160a01b031661421e6000805160206156b1833981519152546001600160a01b031690565b6001600160a01b031614155b156119355760405163703e46dd60e11b815260040160405180910390fd5b6140e261468d565b816001600160a01b03166352d1902d6040518163ffffffff1660e01b8152600401602060405180830381865afa9250505080156142aa575060408051601f3d908101601f191682019092526142a7918101906151c1565b60015b6142d257604051634c9c8ce360e01b81526001600160a01b0383166004820152602401610a31565b6000805160206156b1833981519152811461430357604051632a87526960e21b815260048101829052602401610a31565b61430d83836148ee565b505050565b306001600160a01b037f000000000000000000000000000000000000000000000000000000000000000016146119355760405163703e46dd60e11b815260040160405180910390fd5b614363614944565b6140e28161498d565b611935614944565b7f9b779b17422d0df92223018b32b4d1fa46e071723d6817e2486d003becc55f008054600119016143b857604051633ee5aeb560e01b815260040160405180910390fd5b60029055565b610b5182826040516024016143d4929190615672565b60408051601f198184030181529190526020810180516001600160e01b0316632d839cb360e21b179052614995565b6001600160a01b0384166144595760405162461bcd60e51b815260206004820152601f60248201527f426f72726f7765722063616e6e6f74206265207a65726f2061646472657373006044820152606401610a31565b600954600160a01b900460ff166000036144db5760405162461bcd60e51b815260206004820152603860248201527f4c5456206d7573742062652073657420746f206e6f6e2d7a65726f2076616c7560448201527f65206265666f72652070726f766964696e67206c6f616e7300000000000000006064820152608401610a31565b6016546000906001600160801b03908116906144f990851686614fef565b614503919061501c565b6015546009549192506000916001600160801b039091169061452f90600160a01b900460ff1684614fef565b614539919061501c565b60008054919250906001600160a01b03166340c10f198861455a87866151da565b6040516001600160e01b031960e085901b1681526001600160a01b03909216600483015260248201526044016020604051808303816000875af11580156145a5573d6000803e3d6000fd5b505050506040513d601f19601f820116820180604052508101906145c991906150a0565b9050806145e957604051630a9b6d3960e41b815260040160405180910390fd5b600080546007546040516340c10f1960e01b81526001600160a01b039182166004820152602481018890529116906340c10f19906044016020604051808303816000875af115801561463f573d6000803e3d6000fd5b505050506040513d601f19601f8201168201806040525081019061466391906150a0565b90508061468357604051630a9b6d3960e41b815260040160405180910390fd5b5050505050505050565b336146bf7f9016d09d72d40fdae2fd8ceac6b6234c7706214fd39c1cd1e609a0528c199300546001600160a01b031690565b6001600160a01b0316146119355760405163118cdaa760e01b8152336004820152602401610a31565b7f9016d09d72d40fdae2fd8ceac6b6234c7706214fd39c1cd1e609a0528c19930080546001600160a01b031981166001600160a01b03848116918217845560405192169182907f8be0079c531659141344cd1fd0a4f28419497f9722a3daafe3b4186f6b6457e090600090a3505050565b60006001600160a01b0384166147b15760405162461bcd60e51b815260206004820152601f60248201527f426f72726f7765722063616e6e6f74206265207a65726f2061646472657373006044820152606401610a31565b816000036147f85760405162461bcd60e51b8152602060048201526014602482015273416d6f756e742063616e2774206265207a65726f60601b6044820152606401610a31565b601254601654600091600160c01b90046001600160401b031690614825906001600160801b031685615159565b61482f9190615237565b600254604051631ff9eb7f60e21b81526001600160a01b0388811660048301526001600160401b03881660248301526001600160801b038416604483015292935060009290911690637fe7adfc906064016020604051808303816000875af115801561489f573d6000803e3d6000fd5b505050506040513d601f19601f820116820180604052508101906148c391906150a0565b9050806148e3576040516328eca99f60e21b815260040160405180910390fd5b5090505b9392505050565b6148f78261499e565b6040516001600160a01b038316907fbc7cd75a20ee27fd9adebab32041f755214dbc6bffa90cc0225b39da2e5c2d3b90600090a280511561493c5761430d8282614a03565b610b51614a79565b7ff0c57e16840df040f15088dc2f81fe391c3923bec73e23a9662efc9c229c6a0054600160401b900460ff1661193557604051631afcd79f60e31b815260040160405180910390fd5b6140af614944565b6140e281614a98565b806001600160a01b03163b6000036149d457604051634c9c8ce360e01b81526001600160a01b0382166004820152602401610a31565b6000805160206156b183398151915280546001600160a01b0319166001600160a01b0392909216919091179055565b6060600080846001600160a01b031684604051614a209190615694565b600060405180830381855af49150503d8060008114614a5b576040519150601f19603f3d011682016040523d82523d6000602084013e614a60565b606091505b5091509150614a70858383614ab9565b95945050505050565b34156119355760405163b398979f60e01b815260040160405180910390fd5b60006a636f6e736f6c652e6c6f679050600080835160208501845afa505050565b606082614ace57614ac982614b15565b6148e7565b8151158015614ae557506001600160a01b0384163b155b15614b0e57604051639996b31560e01b81526001600160a01b0385166004820152602401610a31565b50806148e7565b805115614b255780518082602001fd5b604051630a12f52160e11b815260040160405180910390fd5b60005b83811015614b59578181015183820152602001614b41565b50506000910152565b60008151808452614b7a816020860160208601614b3e565b601f01601f19169290920160200192915050565b6020815260006148e76020830184614b62565b80356001600160a01b0381168114614bb857600080fd5b919050565b600060208284031215614bcf57600080fd5b6148e782614ba1565b6001600160401b03811681146140e257600080fd5b600060208284031215614bff57600080fd5b81356148e781614bd8565b634e487b7160e01b600052604160045260246000fd5b604080519081016001600160401b0381118282101715614c4257614c42614c0a565b60405290565b60405161020081016001600160401b0381118282101715614c4257614c42614c0a565b604051601f8201601f191681016001600160401b0381118282101715614c9357614c93614c0a565b604052919050565b60008060408385031215614cae57600080fd5b614cb783614ba1565b91506020808401356001600160401b0380821115614cd457600080fd5b818601915086601f830112614ce857600080fd5b813581811115614cfa57614cfa614c0a565b614d0c601f8201601f19168501614c6b565b91508082528784828501011115614d2257600080fd5b80848401858401376000848284010152508093505050509250929050565b60008060008060008060c08789031215614d5957600080fd5b614d6287614ba1565b9550614d7060208801614ba1565b9450614d7e60408801614ba1565b9350614d8c60608801614ba1565b9250614d9a60808801614ba1565b915060a0870135614daa81614bd8565b809150509295509295509295565b6001600160801b03811681146140e257600080fd5b600080600080600060a08688031215614de557600080fd5b8535614df081614db8565b94506020860135614e0081614bd8565b9350604086013560058110614e1457600080fd5b92506060860135614e2481614bd8565b949793965091946080013592915050565b600060208284031215614e4757600080fd5b5035919050565b60008060408385031215614e6157600080fd5b614e6a83614ba1565b91506020830135614e7a81614db8565b809150509250929050565b600060208284031215614e9757600080fd5b813560ff811681146148e757600080fd5b60008060408385031215614ebb57600080fd5b50508035926020909101359150565b600060208284031215614edc57600080fd5b81356148e781614db8565b60008060008060808587031215614efd57600080fd5b614f0685614ba1565b93506020850135614f1681614bd8565b92506040850135614f2681614bd8565b91506060850135614f3681614bd8565b939692955090935050565b600080600060608486031215614f5657600080fd5b614f5f84614ba1565b92506020840135614f6f81614bd8565b91506040840135614f7f81614bd8565b809150509250925092565b8051614bb881614db8565b600060208284031215614fa757600080fd5b81516148e781614db8565b634e487b7160e01b600052601160045260246000fd5b6001600160801b03828116828216039080821115614fe857614fe8614fb2565b5092915050565b8082028115828204841417610a0157610a01614fb2565b634e487b7160e01b600052601260045260246000fd5b60008261502b5761502b615006565b500490565b60208082526016908201527521b0b63632b91034b9903737ba1030b71030b236b4b760511b604082015260600190565b634e487b7160e01b600052602160045260246000fd5b60208101600b831061508a5761508a615060565b91905290565b80518015158114614bb857600080fd5b6000602082840312156150b257600080fd5b6148e782615090565b805169ffffffffffffffffffff81168114614bb857600080fd5b600080600080600060a086880312156150ed57600080fd5b6150f6866150bb565b9450602086015193506040860151925060608601519150615119608087016150bb565b90509295509295909350565b602081016007831061508a5761508a615060565b60208082526006908201526514185d5cd95960d21b604082015260600190565b6001600160801b0381811683821602808216919082811461517c5761517c614fb2565b505092915050565b6001600160801b0385168152602081018490526040810183905260808101600583106151b2576151b2615060565b82606083015295945050505050565b6000602082840312156151d357600080fd5b5051919050565b81810381811115610a0157610a01614fb2565b8051614bb881614bd8565b60006040828403121561520a57600080fd5b615212614c20565b61521b83615090565b8152602083015161522b81614bd8565b60208201529392505050565b60006001600160801b038084168061525157615251615006565b92169190910492915050565b600081830361022081121561527157600080fd5b615279614c20565b835161528481614bd8565b8152610200601f19830181131561529a57600080fd5b6152a2614c48565b92506152b0602086016151ed565b83526152be60408601614f8a565b60208401526152cf60608601614f8a565b60408401526152e0608086016151ed565b60608401526152f160a08601614f8a565b608084015261530260c08601614f8a565b60a084015261531360e08601614f8a565b60c0840152610100615326818701615090565b60e0850152610120615339818801614f8a565b82860152610140915061534d828801615090565b9085015261016061535f8782016151ed565b8286015261018091506153738288016151ed565b908501526101a0615385878201614f8a565b828601526101c09150615399828801614f8a565b908501526101e06153ab878201614f8a565b828601526153ba8388016151ed565b90850152505060208101919091529392505050565b6001600160a01b03841681526001600160401b0383811660208301528251166040820152610240810160208301516001600160801b03811660608401525060408301516001600160801b03811660808401525060608301516001600160401b03811660a08401525060808301516001600160801b03811660c08401525060a08301516001600160801b03811660e08401525060c083015161010061547d818501836001600160801b03169052565b60e085015191506101206154948186018415159052565b908501519150610140906154b2858301846001600160801b03169052565b85015191506101606154c78582018415159052565b908501519150610180906154e5858301846001600160401b03169052565b85015191506101a0615501858201846001600160401b03169052565b9085015191506101c09061551f858301846001600160801b03169052565b85015191506101e061553b858201846001600160801b03169052565b908501516001600160801b03166102008501528401516001600160401b038116610220850152905050949350505050565b80820180821115610a0157610a01614fb2565b60006060828403121561559157600080fd5b604051606081018181106001600160401b03821117156155b3576155b3614c0a565b6040528251815260208301516155c881614db8565b602082015260408301516155db81614db8565b60408201529392505050565b6001600160a01b039290921682526001600160801b0316602082015260400190565b6001600160401b0381811683821602808216919082811461517c5761517c614fb2565b6001600160801b03818116838216019080821115614fe857614fe8614fb2565b60006001600160801b0380831681810361566857615668614fb2565b6001019392505050565b6040815260006156856040830185614b62565b90508260208301529392505050565b600082516156a6818460208701614b3e565b919091019291505056fe360894a13ba1a3210667c828492db98dca3e2076cc3735a920a3ca505d382bbca264697066735822122038b3e6c6c7b4f4c6ac5f8d136c63f4987d75276d5fe7c3345bcb2f04ecba450b64736f6c63430008140033","linkReferences":{}},"methodIdentifiers":{"APY()":"ef8bd305","DOMAIN_SEPARATOR()":"3644e515","PERMIT_TYPEHASH()":"30adf81f","UPGRADE_INTERFACE_VERSION()":"ad3cb1cc","abond()":"50d7ede2","amint()":"503e6322","calculateCumulativeRate()":"181ab6db","calculateRatio(uint256,uint256)":"ada0b0ed","cds()":"b4eb10ce","cdsAddress()":"fe925884","depositTokens(uint128,uint64,uint8,uint64,uint256)":"5e34783e","ethRemainingInWithdraw()":"28ab6afe","ethValueRemainingInWithdraw()":"019a442e","getLTV()":"4ed2b8ac","getLastEthVaultValue()":"715cad17","getUSDValue()":"50593af7","initialize(address,address,address,address,address,uint64)":"5a606b41","isContract(address)":"16279055","lastCDSPoolValue()":"84e92128","lastCumulativeRate()":"8e4db39a","lastEthVaultValue()":"99eb2f6c","liquidate(address,uint64,uint64)":"d5c28dba","multiSign()":"9e6fe439","name()":"06fdde03","noOfLiquidations()":"38a912d5","options()":"1069143a","owner()":"8da5cb5b","priceFeedAddress()":"e0abca0b","proxiableUUID()":"52d1902d","ratePerSec()":"3b486a25","redeemYields(address,uint128)":"80ddebcb","renounceOwnership()":"715018a6","setAPR(uint128)":"c1bab32d","setAdmin(address)":"704b6c02","setBondRatio(uint64)":"276eb3ac","setLTV(uint8)":"aad2476d","setOptions(address)":"7d6dff7d","setTreasury(address)":"f0f44260","setWithdrawTimeLimit(uint64)":"868c10d2","totalNormalizedAmount()":"6fdc5203","transferOwnership(address)":"f2fde38b","treasury()":"61d027b3","treasuryAddress()":"c5f956af","updateLastEthVaultValue(uint256)":"661b7d3e","upgradeToAndCall(address,bytes)":"4f1ef286","version()":"54fd4d50","withDraw(address,uint64,uint64,uint64)":"c8101461"},"id":4}