{"abi":[{"type":"constructor","inputs":[{"name":"_tokenAddress","type":"address","internalType":"address"},{"name":"_cds","type":"address","internalType":"address"},{"name":"_abondToken","type":"address","internalType":"address"},{"name":"_multiSign","type":"address","internalType":"address"},{"name":"_priceFeedAddress","type":"address","internalType":"address"},{"name":"chainId","type":"uint64","internalType":"uint64"}],"stateMutability":"nonpayable"},{"type":"function","name":"APY","inputs":[],"outputs":[{"name":"","type":"uint8","internalType":"uint8"}],"stateMutability":"view"},{"type":"function","name":"DOMAIN_SEPARATOR","inputs":[],"outputs":[{"name":"","type":"bytes32","internalType":"bytes32"}],"stateMutability":"view"},{"type":"function","name":"PERMIT_TYPEHASH","inputs":[],"outputs":[{"name":"","type":"bytes32","internalType":"bytes32"}],"stateMutability":"view"},{"type":"function","name":"abond","inputs":[],"outputs":[{"name":"","type":"address","internalType":"contract IABONDToken"}],"stateMutability":"view"},{"type":"function","name":"admin","inputs":[],"outputs":[{"name":"","type":"address","internalType":"address"}],"stateMutability":"view"},{"type":"function","name":"amint","inputs":[],"outputs":[{"name":"","type":"address","internalType":"contract IAMINT"}],"stateMutability":"view"},{"type":"function","name":"calculateCumulativeRate","inputs":[],"outputs":[{"name":"","type":"uint256","internalType":"uint256"}],"stateMutability":"nonpayable"},{"type":"function","name":"cds","inputs":[],"outputs":[{"name":"","type":"address","internalType":"contract CDSInterface"}],"stateMutability":"view"},{"type":"function","name":"cdsAddress","inputs":[],"outputs":[{"name":"","type":"address","internalType":"address"}],"stateMutability":"view"},{"type":"function","name":"depositToAaveProtocol","inputs":[],"outputs":[],"stateMutability":"nonpayable"},{"type":"function","name":"depositToCompoundProtocol","inputs":[],"outputs":[],"stateMutability":"nonpayable"},{"type":"function","name":"depositTokens","inputs":[{"name":"_ethPrice","type":"uint128","internalType":"uint128"},{"name":"_depositTime","type":"uint64","internalType":"uint64"},{"name":"_strikePercent","type":"uint8","internalType":"enum IOptions.StrikePrice"},{"name":"_strikePrice","type":"uint64","internalType":"uint64"},{"name":"_volatility","type":"uint256","internalType":"uint256"}],"outputs":[],"stateMutability":"payable"},{"type":"function","name":"getLTV","inputs":[],"outputs":[{"name":"","type":"uint8","internalType":"uint8"}],"stateMutability":"view"},{"type":"function","name":"getMessageHash","inputs":[{"name":"message","type":"bytes","internalType":"bytes"}],"outputs":[{"name":"","type":"bytes32","internalType":"bytes32"}],"stateMutability":"nonpayable"},{"type":"function","name":"getUSDValue","inputs":[],"outputs":[{"name":"","type":"uint256","internalType":"uint256"}],"stateMutability":"view"},{"type":"function","name":"initializeTreasury","inputs":[{"name":"_treasury","type":"address","internalType":"address"}],"outputs":[],"stateMutability":"nonpayable"},{"type":"function","name":"isContract","inputs":[{"name":"addr","type":"address","internalType":"address"}],"outputs":[{"name":"","type":"bool","internalType":"bool"}],"stateMutability":"view"},{"type":"function","name":"lastCDSPoolValue","inputs":[],"outputs":[{"name":"","type":"uint256","internalType":"uint256"}],"stateMutability":"view"},{"type":"function","name":"lastCumulativeRate","inputs":[],"outputs":[{"name":"","type":"uint256","internalType":"uint256"}],"stateMutability":"view"},{"type":"function","name":"lastEthVaultValue","inputs":[],"outputs":[{"name":"","type":"uint256","internalType":"uint256"}],"stateMutability":"view"},{"type":"function","name":"lastEthprice","inputs":[],"outputs":[{"name":"","type":"uint128","internalType":"uint128"}],"stateMutability":"view"},{"type":"function","name":"lastTotalCDSPool","inputs":[],"outputs":[{"name":"","type":"uint256","internalType":"uint256"}],"stateMutability":"view"},{"type":"function","name":"liquidate","inputs":[{"name":"_user","type":"address","internalType":"address"},{"name":"_index","type":"uint64","internalType":"uint64"},{"name":"currentEthPrice","type":"uint64","internalType":"uint64"}],"outputs":[],"stateMutability":"nonpayable"},{"type":"function","name":"multiSign","inputs":[],"outputs":[{"name":"","type":"address","internalType":"contract IMultiSign"}],"stateMutability":"view"},{"type":"function","name":"name","inputs":[],"outputs":[{"name":"","type":"string","internalType":"string"}],"stateMutability":"view"},{"type":"function","name":"noOfLiquidations","inputs":[],"outputs":[{"name":"","type":"uint128","internalType":"uint128"}],"stateMutability":"view"},{"type":"function","name":"options","inputs":[],"outputs":[{"name":"","type":"address","internalType":"contract IOptions"}],"stateMutability":"view"},{"type":"function","name":"owner","inputs":[],"outputs":[{"name":"","type":"address","internalType":"address"}],"stateMutability":"view"},{"type":"function","name":"permit","inputs":[{"name":"holder","type":"address","internalType":"address"},{"name":"spender","type":"address","internalType":"address"},{"name":"allowedAmount","type":"uint256","internalType":"uint256"},{"name":"allowed","type":"bool","internalType":"bool"},{"name":"expiry","type":"uint256","internalType":"uint256"},{"name":"v","type":"uint8","internalType":"uint8"},{"name":"r","type":"bytes32","internalType":"bytes32"},{"name":"s","type":"bytes32","internalType":"bytes32"}],"outputs":[{"name":"","type":"bool","internalType":"bool"}],"stateMutability":"view"},{"type":"function","name":"priceFeedAddress","inputs":[],"outputs":[{"name":"","type":"address","internalType":"address"}],"stateMutability":"view"},{"type":"function","name":"ratePerSec","inputs":[],"outputs":[{"name":"","type":"uint128","internalType":"uint128"}],"stateMutability":"view"},{"type":"function","name":"renounceOwnership","inputs":[],"outputs":[],"stateMutability":"nonpayable"},{"type":"function","name":"setAPR","inputs":[{"name":"_ratePerSec","type":"uint128","internalType":"uint128"}],"outputs":[],"stateMutability":"nonpayable"},{"type":"function","name":"setAdmin","inputs":[{"name":"_admin","type":"address","internalType":"address"}],"outputs":[],"stateMutability":"nonpayable"},{"type":"function","name":"setLTV","inputs":[{"name":"_LTV","type":"uint8","internalType":"uint8"}],"outputs":[],"stateMutability":"nonpayable"},{"type":"function","name":"setOptions","inputs":[{"name":"_options","type":"address","internalType":"address"}],"outputs":[],"stateMutability":"nonpayable"},{"type":"function","name":"setWithdrawTimeLimit","inputs":[{"name":"_timeLimit","type":"uint64","internalType":"uint64"}],"outputs":[],"stateMutability":"nonpayable"},{"type":"function","name":"totalAmintSupply","inputs":[],"outputs":[{"name":"","type":"uint256","internalType":"uint256"}],"stateMutability":"view"},{"type":"function","name":"totalDiracSupply","inputs":[],"outputs":[{"name":"","type":"uint256","internalType":"uint256"}],"stateMutability":"view"},{"type":"function","name":"totalNormalizedAmount","inputs":[],"outputs":[{"name":"","type":"uint256","internalType":"uint256"}],"stateMutability":"view"},{"type":"function","name":"transferOwnership","inputs":[{"name":"newOwner","type":"address","internalType":"address"}],"outputs":[],"stateMutability":"nonpayable"},{"type":"function","name":"treasury","inputs":[],"outputs":[{"name":"","type":"address","internalType":"contract ITreasury"}],"stateMutability":"view"},{"type":"function","name":"treasuryAddress","inputs":[],"outputs":[{"name":"","type":"address","internalType":"address"}],"stateMutability":"view"},{"type":"function","name":"updateLastEthVaultValue","inputs":[{"name":"_amount","type":"uint256","internalType":"uint256"}],"outputs":[],"stateMutability":"nonpayable"},{"type":"function","name":"version","inputs":[],"outputs":[{"name":"","type":"string","internalType":"string"}],"stateMutability":"view"},{"type":"function","name":"withDraw","inputs":[{"name":"_toAddress","type":"address","internalType":"address"},{"name":"_index","type":"uint64","internalType":"uint64"},{"name":"_ethPrice","type":"uint64","internalType":"uint64"},{"name":"_withdrawTime","type":"uint64","internalType":"uint64"},{"name":"_bondRatio","type":"uint64","internalType":"uint64"}],"outputs":[],"stateMutability":"nonpayable"},{"type":"function","name":"withdrawFromAaveProtocol","inputs":[{"name":"index","type":"uint64","internalType":"uint64"}],"outputs":[],"stateMutability":"nonpayable"},{"type":"function","name":"withdrawFromCompoundProtocol","inputs":[{"name":"index","type":"uint64","internalType":"uint64"}],"outputs":[],"stateMutability":"nonpayable"},{"type":"function","name":"withdrawTimeLimit","inputs":[],"outputs":[{"name":"","type":"uint64","internalType":"uint64"}],"stateMutability":"view"},{"type":"event","name":"Deposit","inputs":[{"name":"index","type":"uint64","indexed":false,"internalType":"uint64"},{"name":"depositedAmount","type":"uint256","indexed":false,"internalType":"uint256"},{"name":"borrowAmount","type":"uint256","indexed":false,"internalType":"uint256"},{"name":"normalizedAmount","type":"uint256","indexed":false,"internalType":"uint256"}],"anonymous":false},{"type":"event","name":"OwnershipTransferred","inputs":[{"name":"previousOwner","type":"address","indexed":true,"internalType":"address"},{"name":"newOwner","type":"address","indexed":true,"internalType":"address"}],"anonymous":false},{"type":"event","name":"Withdraw","inputs":[{"name":"borrowDebt","type":"uint256","indexed":false,"internalType":"uint256"},{"name":"withdrawAmount","type":"uint128","indexed":false,"internalType":"uint128"},{"name":"noOfAbond","type":"uint128","indexed":false,"internalType":"uint128"}],"anonymous":false},{"type":"error","name":"Borrowing_DepositFailed","inputs":[]},{"type":"error","name":"Borrowing_GettingETHPriceFailed","inputs":[]},{"type":"error","name":"Borrowing_LiquidateBurnFailed","inputs":[]},{"type":"error","name":"Borrowing_LiquidateEthTransferToCdsFailed","inputs":[]},{"type":"error","name":"Borrowing_WithdrawAMINTTransferFailed","inputs":[]},{"type":"error","name":"Borrowing_WithdrawBurnFailed","inputs":[]},{"type":"error","name":"Borrowing_WithdrawEthTransferFailed","inputs":[]},{"type":"error","name":"Borrowing_abondMintFailed","inputs":[]},{"type":"error","name":"Borrowing_amintMintFailed","inputs":[]}],"bytecode":{"object":"0x608060409080825234620002e85760c08162004a9280380380916200002582856200031f565b833981010312620002e8576200003b8162000343565b620000496020830162000343565b926200005781840162000343565b93620000666060850162000343565b92620000756080860162000343565b60a0958601516001600160401b03978882169691879003620002e857879160009586948554600160a01b600190031993338583161788558a51978896600160a01b600190038096819582948333921690807f8be0079c531659141344cd1fd0a4f28419497f9722a3daafe3b4186f6b6457e091a372989680000000000000000000000000000f42406017557b033b2e3c9fd0803ce80000000000000000000000000000000000271060185581600160801b60019003199d8e6019541664e8d4a51000176019551689600154161760015516808860025416176002558760095416176009551685600354161760035516836006541617600655168091600c541617600c55633fabe5a360e21b8252815a91600492fa8015620002de57839062000285575b620f4240915060018060801b03918291041682600d541617600d554216906012541617601255601060208351620001cf81620002ed565b828152016f20a6a4a72a1029ba30b13632b1b7b4b760811b81522093600160208451620001fc81620002ed565b82815201603160f81b8152209383519460208601967f2010028ec63295361a00945794d4fce5b1046c419f60af448db7aaeb91e918f8885285870152606086015260808501523081850152835260c08301948386109086111762000271575083905251902060165561472490816200036e8239f35b634e487b7160e01b81526041600452602490fd5b508581813d8311620002d6575b6200029e81836200031f565b81010312620002d25780620002b7620f42409262000358565b50620002cb60806020830151920162000358565b5062000198565b8280fd5b503d62000292565b84513d85823e3d90fd5b600080fd5b604081019081106001600160401b038211176200030957604052565b634e487b7160e01b600052604160045260246000fd5b601f909101601f19168101906001600160401b038211908210176200030957604052565b51906001600160a01b0382168203620002e857565b51906001600160501b0382168203620002e85756fe6080604052600436101561001257600080fd5b60003560e01c806306fdde03146103275780630a1028c4146103225780631069143a1461031d5780631627905514610318578063181ab6db146103135780632bf169271461030e5780632ccd9ed4146103095780632feabb521461030457806330adf81f146102ff5780633644e515146102fa57806338a912d5146102f55780633b486a25146102f05780633ed086f4146102eb5780633f3006b4146102e65780634ed2b8ac146102e15780634f04a86b146102dc578063503e6322146102d757806350593af7146102d257806350d7ede2146102cd57806354fd4d50146102c85780635e34783e146102c3578063606303f8146102be57806361d027b3146102b9578063661b7d3e146102b45780636fdc5203146102af578063704b6c02146102aa578063715018a6146102a55780637d6dff7d146102a057806384e921281461029b578063868c10d2146102965780638da5cb5b146102915780638e4db39a1461028c57806398afda431461028757806399eb2f6c146102825780639e6fe4391461027d578063aad2476d14610278578063b3aebb9c14610273578063b4eb10ce1461026e578063b8f4909014610269578063c1bab32d14610264578063c5f956af1461025f578063d5c28dba1461025a578063e0abca0b14610255578063e42f809014610250578063ec11dab21461024b578063ef8bd30514610246578063f2fde38b14610241578063f851a4401461023c5763fe9258841461023757600080fd5b61156a565b611541565b61147e565b61145a565b6113e9565b6113cb565b6113a2565b61131d565b6112f4565b611284565b611230565b611207565b6111e9565b6111a5565b61117c565b61115e565b611107565b6110e9565b6110c0565b611027565b611009565b610f36565b610edb565b610e18565b610dfa565b610d0e565b610ce5565b610cc7565b610c32565b610be7565b610bbe565b610af5565b610acc565b610aa5565b610a81565b6109fd565b610903565b6108d9565b6108b8565b61089a565b61085f565b610838565b6106b3565b6105ca565b610596565b610570565b61051b565b610496565b610449565b600091031261033757565b600080fd5b634e487b7160e01b600052604160045260246000fd5b6001600160401b03811161036557604052565b61033c565b604081019081106001600160401b0382111761036557604052565b90601f801991011681019081106001600160401b0382111761036557604052565b6040519061028082018281106001600160401b0382111761036557604052565b60405190608082018281106001600160401b0382111761036557604052565b6001600160401b03811161036557601f01601f191660200190565b6020808252825181830181905290939260005b82811061043557505060409293506000838284010152601f8019910116010190565b818101860151848201604001528501610413565b34610337576000366003190112610337576104926040516104698161036a565b601081526f20a6a4a72a1029ba30b13632b1b7b4b760811b602082015260405191829182610400565b0390f35b34610337576020366003190112610337576004356001600160401b0381116103375736602382011215610337578060040135906104d2826103e5565b6104df6040519182610385565b828152366024848401011161033757600060208461049295602461050b960183860137830101526145c7565b6040519081529081906020820190565b34610337576000366003190112610337576005546040516001600160a01b039091168152602090f35b600435906001600160a01b038216820361033757565b602435906001600160a01b038216820361033757565b3461033757602036600319011261033757602061058b610544565b3b1515604051908152f35b346103375760003660031901126103375760206105b161440d565b604051908152f35b6001600160401b0381160361033757565b346103375760a0366003190112610337576105e3610544565b6024356105ef816105b9565b6044356105fb816105b9565b60643590610608826105b9565b60843592610615846105b9565b6006546040516326d2a55160e21b8152600160048201529590602090879060249082906000906001600160a01b03165af195861561069957610669966106649160009161066b575b50156115c4565b61264d565b005b61068c915060203d8111610692575b6106848183610385565b8101906115a0565b3861065d565b503d61067a565b6115b8565b8015150361033757565b60ff81160361033757565b3461033757610100366003190112610337576106cd610544565b602060006106d961055a565b6064356106e58161069e565b6107b26107be60843560a435946106fb866106a8565b8115801561082e575b61070d90614501565b601654604080517ff48167ebcd5a3b4ca5517473931d60b9a75b03f56e5e6363767fa277375eb0808b82019081526001600160a01b038d8116602083015294909416918401919091526044356060840152951515608083015260a080830193909352858203928301865294601f19926107899060c00182610385565b5190206040519384918983019687909160429261190160f01b8352600283015260228201520190565b03908101835282610385565b5190206001600160a01b03909416936107d885151561453e565b6040805191825260ff92909216602082015260c4359181019190915260e435606082015281805260809060015afa156106995760005161082291906001600160a01b031614614583565b60405160018152602090f35b5042821015610704565b346103375760003660031901126103375760206001600160801b03600d5416604051908152f35b346103375760003660031901126103375760206040517ff48167ebcd5a3b4ca5517473931d60b9a75b03f56e5e6363767fa277375eb0808152f35b34610337576000366003190112610337576020601654604051908152f35b3461033757600036600319011261033757602060125460801c604051908152f35b346103375760003660031901126103375760206015546001600160801b036040519160401c168152f35b346103375760203660031901126103375761091c610544565b610924614696565b6001600160a01b03811690811515806109f3575b15610988576109666106699260018060a01b03166bffffffffffffffffffffffff60a01b6004541617600455565b60018060a01b03166bffffffffffffffffffffffff60a01b6008541617600855565b60405162461bcd60e51b815260206004820152603960248201527f5472656173757279206d75737420626520636f6e74726163742061646472657360448201527f7320262063616e2774206265207a65726f2061646472657373000000000000006064820152608490fd5b50803b1515610938565b346103375760006020366003190112610a7e57600435610a1c816105b9565b610a24614696565b6004546001600160a01b0316908290823b15610a7a5760246001600160401b03918360405195869485936306ef62b960e11b85521660048401525af1801561069957610a6e575080f35b610a7790610352565b80f35b5080fd5b80fd5b3461033757600036600319011261033757602060ff600a5460a01c16604051908152f35b346103375760003660031901126103375760206001600160401b0360155416604051908152f35b34610337576000366003190112610337576001546040516001600160a01b039091168152602090f35b3461033757600080600319360112610a7e57600c54604051633fabe5a360e21b81529060a090829060049082906001600160a01b03165afa918215610699578092610b69575b61049261050b84610b63610b576017546001600160801b031690565b6001600160801b031690565b90611a32565b90915060a0823d8211610bb6575b81610b8460a09383610385565b81010312610a7e575061050b81610b9d61049293614062565b50610baf608060208301519201614062565b5091610b3b565b3d9150610b77565b34610337576000366003190112610337576003546040516001600160a01b039091168152602090f35b3461033757600036600319011261033757610492604051610c078161036a565b60018152603160f81b602082015260405191829182610400565b6001600160801b0381160361033757565b60a036600319011261033757600435610c4a81610c21565b60243590610c57826105b9565b60443560058110156103375760643590610c70826105b9565b6006546040516326d2a55160e21b8152600060048201819052909591602091879160249183916001600160a01b03165af19485156106995761066995610cbe9160009161066b5750156115c4565b60843593611c32565b34610337576000366003190112610337576020601454604051908152f35b34610337576000366003190112610337576004546040516001600160a01b039091168152602090f35b3461033757602036600319011261033757600854600435906001600160a01b03163303610da2578015610d5257600e54908103908111610d4d57600e55005b6116b7565b60405162461bcd60e51b815260206004820152602260248201527f4c61737420455448207661756c742076616c75652063616e2774206265207a65604482015261726f60f01b6064820152608490fd5b60405162461bcd60e51b815260206004820152602a60248201527f46756e6374696f6e2073686f756c64206f6e6c792062652063616c6c656420626044820152697920747265617375727960b01b6064820152608490fd5b34610337576000366003190112610337576020600b54604051908152f35b3461033757602036600319011261033757610e31610544565b610e39614696565b6001600160a01b038116151580610ecd575b15610e7157600a80546001600160a01b0319166001600160a01b03909216919091179055005b60405162461bcd60e51b815260206004820152602e60248201527f41646d696e2063616e277420626520636f6e747261637420616464726573732060448201526d26207a65726f206164647265737360901b6064820152608490fd5b506001813b15151415610e4b565b3461033757600080600319360112610a7e57610ef5614696565b80546001600160a01b03198116825581906001600160a01b03167f8be0079c531659141344cd1fd0a4f28419497f9722a3daafe3b4186f6b6457e08280a380f35b3461033757602036600319011261033757610f4f610544565b610f57614696565b6001600160a01b038116908115159081610ffe575b5015610f9357600580546001600160a01b0319166001600160a01b03909216919091179055005b60405162461bcd60e51b815260206004820152603860248201527f4f7074696f6e73206d75737420626520636f6e7472616374206164647265737360448201527f20262063616e2774206265207a65726f206164647265737300000000000000006064820152608490fd5b90503b151538610f6c565b34610337576000366003190112610337576020600f54604051908152f35b34610337576020366003190112610337576001600160401b0360043561104c816105b9565b611054614696565b168015611071576001600160401b03196015541617601555600080f35b60405162461bcd60e51b815260206004820152602160248201527f57697468647261772074696d65206c696d69742063616e2774206265207a65726044820152606f60f81b6064820152608490fd5b34610337576000366003190112610337576000546040516001600160a01b039091168152602090f35b34610337576000366003190112610337576020601154604051908152f35b3461033757600080600319360112610a7e57611121614696565b60045481906001600160a01b0316803b1561115b5781906004604051809481936301865f0760e21b83525af1801561069957610a6e575080f35b50fd5b34610337576000366003190112610337576020600e54604051908152f35b34610337576000366003190112610337576006546040516001600160a01b039091168152602090f35b34610337576020366003190112610337576004356111c2816106a8565b6111ca614696565b600a805460ff60a01b191660a09290921b60ff60a01b16919091179055005b34610337576000366003190112610337576020601354604051908152f35b34610337576000366003190112610337576002546040516001600160a01b039091168152602090f35b3461033757600080600319360112610a7e5761124a614696565b60045481906001600160a01b0316803b1561115b5781906004604051809481936306e1444d60e21b83525af1801561069957610a6e575080f35b34610337576020366003190112610337576004356112a181610c21565b6006546040516326d2a55160e21b8152600360048201529190602090839060249082906000906001600160a01b03165af191821561069957610669926112ef9160009161066b5750156115c4565b61432a565b34610337576000366003190112610337576008546040516001600160a01b039091168152602090f35b3461033757606036600319011261033757611336610544565b602435611342816105b9565b6044359061134f826105b9565b6006546040516326d2a55160e21b8152600260048201529390602090859060249082906000906001600160a01b03165af1938415610699576106699461139d9160009161066b5750156115c4565b6136de565b3461033757600036600319011261033757600c546040516001600160a01b039091168152602090f35b34610337576000366003190112610337576020601054604051908152f35b346103375760006020366003190112610a7e57600435611408816105b9565b611410614696565b6004546001600160a01b0316908290823b15610a7a5760246001600160401b0391836040519586948593630376724160e41b85521660048401525af1801561069957610a6e575080f35b3461033757600036600319011261033757602060ff600a5460a81c16604051908152f35b3461033757602036600319011261033757611497610544565b61149f614696565b6001600160a01b0390811680156114ed57600080546001600160a01b03198116831782559092167f8be0079c531659141344cd1fd0a4f28419497f9722a3daafe3b4186f6b6457e08380a380f35b60405162461bcd60e51b815260206004820152602660248201527f4f776e61626c653a206e6577206f776e657220697320746865207a65726f206160448201526564647265737360d01b6064820152608490fd5b3461033757600036600319011261033757600a546040516001600160a01b039091168152602090f35b34610337576000366003190112610337576009546040516001600160a01b039091168152602090f35b519061159e8261069e565b565b9081602091031261033757516115b58161069e565b90565b6040513d6000823e3d90fd5b156115cb57565b60405162461bcd60e51b815260206004820152600660248201526514185d5cd95960d21b6044820152606490fd5b1561160057565b60405162461bcd60e51b815260206004820152601a60248201527f43616e6e6f74206465706f736974207a65726f20746f6b656e730000000000006044820152606490fd5b1561164c57565b60405162461bcd60e51b815260206004820152603e60248201527f596f7520646f206e6f7420686176652073756666696369656e742062616c616e60448201527f636520746f20657865637574652074686973207472616e73616374696f6e00006064820152608490fd5b634e487b7160e01b600052601160045260246000fd5b60011b907001fffffffffffffffffffffffffffffffe6ffffffffffffffffffffffffffffffffe831692168203610d4d57565b9060326001600160801b0380931602918216918203610d4d57565b906001600160801b03809216601402918216918203610d4d57565b9060646001600160801b0380931602918216918203610d4d57565b90600a6001600160801b0380931602918216918203610d4d57565b9190916001600160801b0380809416911602918216918203610d4d57565b1561179157565b60405162461bcd60e51b81526020600482015260166024820152754e6f7420656e6f7567682066756e6420696e2043445360501b6044820152606490fd5b519061159e826105b9565b919082604091031261033757602082516117f38161069e565b9201516115b5816105b9565b90816020910312610337575190565b9194939290946001600160801b03608084019616835260208301526040820152600582101561183d5760600152565b634e487b7160e01b600052602160045260246000fd5b519061159e82610c21565b9081602091031261033757516115b581610c21565b519061159e826106a8565b809291036102a08112610337578251611896816105b9565b926102808092601f19011261033757611a026118b06103a6565b926118bd602084016117cf565b84526118cb60408401611853565b60208501526118dc60608401611853565b60408501526118ed608084016117cf565b60608501526118fe60a08401611853565b608085015261190f60c08401611853565b60a085015261192060e08401611853565b60c085015261010092611934848201611873565b60e086015261012093611948858301611593565b908601526101409361195b858301611853565b908601526101609361196e858301611593565b90860152610180936119818583016117cf565b908601526101a0936119948583016117cf565b908601526101c0936119a7858301611853565b908601526101e0936119ba8583016117cf565b90860152610200936119cd858301611853565b90860152610220938482015190860152610240936119ec8583016117cf565b9086015261026093848201519086015201611853565b9082015290565b81810292918115918404141715610d4d57565b634e487b7160e01b600052601260045260246000fd5b8115611a3c570490565b611a1c565b6001600160a01b0390911681526001600160401b039182166020820152825190911660408201526102c08101929161159e91906102a09060208101516001600160801b0316606084015260408101516001600160801b0316608084015260608101516001600160401b031660a084015260808101516001600160801b031660c084015260a08101516001600160801b031660e084015260c081015190611af561010092838601906001600160801b03169052565b60e081015191611b0d610120938487019060ff169052565b81015191611b22610140938487019015159052565b81015191611b3e61016093848701906001600160801b03169052565b81015191611b53610180938487019015159052565b81015191611b6f6101a093848701906001600160401b03169052565b81015191611b8b6101c093848701906001600160401b03169052565b81015191611ba76101e093848701906001600160801b03169052565b81015191611bc361020093848701906001600160401b03169052565b81015191611bdf61022093848701906001600160801b03169052565b81015191610240928386015281015191611c0761026093848701906001600160401b03169052565b81015161028085015201516001600160801b0316910152565b91908201809211610d4d57565b601055565b9092611cfa9293611c443415156115f9565b611c5034333111611645565b6001600160801b0395611c96611c6888861634614079565b6001600160401b03611c8d610b57611c886018546001600160801b031690565b6116cd565b9116101561178a565b60048054611cb4906001600160a01b03165b6001600160a01b031690565b6040805163dcb71f3f60e01b8152338482019081526001600160801b03891660208201526001600160401b03909616868301529790948592899290918391829160600190565b039134905af1958615610699576000908197612122575b506005546001600160a01b03166001600160a01b03169284518094636916a18160e11b825281808a60209d8e9634908a850193611d4d9461180e565b03915a90600091f1928315610699576000936120f3575b50156120e557611d768286343361221f565b6002549097908990611d90906001600160a01b0316611ca8565b931692818551809263b87c3dc360e01b825281600081611dc28a8a83019190916001600160801b036020820193169052565b03925af18015610699576120b7575b50508054611de7906001600160a01b0316611ca8565b8351634d5c56a560e01b8152338382019081526001600160401b03891660208201526102a09491908590829081906040010381865afa94851561069957600095612080575b50506001600160801b03898b161660a0850152611e54906001600160801b03166101e0850152565b803b15610337578351632e449f1760e21b81523383820190815260016020820152909160009183919082908490829060400103925af180156106995761206d575b508054611eaa906001600160a01b0316611ca8565b803b15610337578351630e6840d960e11b815233838201908152602081018a9052909160009183919082908490829060400103925af180156106995761205a575b50611f43611f20611efa61440d565b611f1b611f0c610b5760185460801c90565b611f16818d611a09565b611a09565b611a32565b6001600160801b038a82161660c0850152946001600160401b03166101c0840152565b8054611f57906001600160a01b0316611ca8565b91823b1561033757611f8492876000809487519687958694859363401cecc560e01b855233908501611a41565b03925af196871561069957611ff261203c95612010937f3f7c04c09b19100060129256b7d82f055d0aa72cf17042fb3f2d41d1fffc02609a612041575b50611fd6611fd187600b54611c20565b600b55565b6001600160801b03166001600160801b0319600d541617600d55565b42166001600160801b03166001600160801b03196012541617601255565b51938493349085909493926060926001600160401b036080840197168352602083015260408201520152565b0390a1565b8061204e61205492610352565b8061032c565b38611fc1565b8061204e61206792610352565b38611eeb565b8061204e61207a92610352565b38611e95565b611e5492955090816120a692903d106120b0575b61209e8183610385565b81019061187e565b9050939038611e2c565b503d612094565b816120d692903d106120de575b6120ce8183610385565b81019061185e565b503880611dd1565b503d6120c4565b8251634fad3b0960e01b8152fd5b612114919350883d8a1161211b575b61210c8183610385565b8101906117ff565b9138611d64565b503d612102565b9050612145919650833d851161214d575b61213d8183610385565b8101906117da565b959038611d11565b503d612133565b1561215b57565b60405162461bcd60e51b815260206004820152601f60248201527f426f72726f7765722063616e6e6f74206265207a65726f2061646472657373006044820152606490fd5b156121a757565b60405162461bcd60e51b815260206004820152603860248201527f4c5456206d7573742062652073657420746f206e6f6e2d7a65726f2076616c7560448201527f65206265666f72652070726f766964696e67206c6f616e7300000000000000006064820152608490fd5b91908203918211610d4d57565b929161229e916122899190611f1690612274906122466001600160a01b0389161515612154565b6001600160801b0360ff612260600a5460ff9060a01c1690565b169461226d8615156121a0565b1690611a09565b610b63610b576019546001600160801b031690565b610b63610b576018546001600160801b031690565b6001546122b3906001600160a01b0316611ca8565b926122be8383612212565b6040516340c10f1960e01b8082526001600160a01b0393909316600482015260248101919091526020949091908590839060449082906000905af19081156106995784869161235694600094612413575b50600154612325906001600160a01b0316611ca8565b6008546040519283526001600160a01b03166004830152602482019290925293849190829060009082906044820190565b03925af1918215610699576000926123f4575b50156123e257156123e25760015460049390819061238f906001600160a01b0316611ca8565b6040516318160ddd60e01b815295869182905afa8015610699576115b5946123c0926000926123c5575b5050601355565b612212565b6123db9250803d1061211b5761210c8183610385565b38806123b9565b604051630a9b6d3960e41b8152600490fd5b61240c919250853d8711610692576106848183610385565b9038612369565b61242b919450833d8511610692576106848183610385565b923861230f565b1561243957565b60405162461bcd60e51b815260206004820152603060248201527f546f20616464726573732063616e6e6f742062652061207a65726f20616e642060448201526f636f6e7472616374206164647265737360801b6064820152608490fd5b1561249e57565b60405162461bcd60e51b815260206004820152601f60248201527f5573657220616d6f756e7420686173206265656e206c697175696461746564006044820152606490fd5b906127106001600160401b0380931602918216918203610d4d57565b9060646001600160401b0380931602918216918203610d4d57565b906001600160801b03809116918215611a3c57160490565b1561253957565b60405162461bcd60e51b8152602060048201526016602482015275426f72726f77696e674865616c7468206973204c6f7760501b6044820152606490fd5b1561257e57565b60405162461bcd60e51b815260206004820152602260248201527f557365722062616c616e6365206973206c657373207468616e20726571756972604482015261195960f21b6064820152608490fd5b6001600160a01b0390911681526001600160801b03909116602082015260400190565b9190916001600160801b0380809416911601918211610d4d57565b6001600160a01b039182168152911660208201526001600160801b0390911660408201526001600160401b0391821660608201529116608082015260a00190565b929391906001600160a01b03841615158061301b575b61266c90612432565b6001600160401b03906126978284166001600160801b03166001600160801b0319600d541617600d55565b6001600160801b03916126c28342166001600160801b03166001600160801b03196012541617601255565b6004546126d7906001600160a01b0316611ca8565b604051634d5c56a560e01b81523360048201526001600160401b0384166024820152906102a0908190839060449082905afa918215610699576000918293612ff9575b505083831690831610612fa55761274461273f61273b610140840151151590565b1590565b612497565b610100810151612f545760ff61275e60e083015160ff1690565b1680612e3d57506127ca6127bb85612794612778896124e3565b8661278d60808801516001600160801b031690565b911661251a565b16956127a3611f408811612532565b60c08401516001600160801b03166011549116611a09565b610b63610b5760185460801c90565b956127de6127d96127bb61440d565b601155565b6001546127f3906001600160a01b0316611ca8565b6040516370a0823160e01b815233600482015290996020826024818e5afa801561069957896128309161285194600091612e1e575b501015612577565b6001600160401b0388166101608501526001600160401b0316610180840152565b600160e08301526128b9610b576128a661288c868a166128a161288c61289c61288c61288760208c01516001600160801b031690565b611700565b6001600160801b03606491160490565b61171b565b61176c565b6019546001600160801b03165b9061251a565b906000602061290e6128e2856123c0610b5761288c61288760a08c01516001600160801b031690565b6040516363a9f09360e11b815233600482015260248101829052909d9093849283919082906044820190565b03925af190811561069957600091612dff575b5015612ded57600154612997906020908c90612945906001600160a01b0316611ca8565b60085461295c906001600160a01b0316928d612212565b6040516323b872dd60e01b81523360048201526001600160a01b03909316602484015260448301529092839190829060009082906064820190565b03925af190811561069957600091612dce575b5015612dbc576129ba913361306c565b976102008201526101a08101976129da818a906001600160801b03169052565b6004546129ef906001600160a01b0316611ca8565b803b156103375760405163d9b74cc360e01b8152916000918391829084908290612a1d9033600484016125ce565b03925af1801561069957612da9575b50600454612a42906001600160a01b0316611ca8565b91823b15610337576000604051809463401cecc560e01b8252818381612a6d888b3360048501611a41565b03925af1908115610699578693612ab992612d96575b50612ab4612a9b60208501516001600160801b031690565b6080850151928616926001600160801b03165b9061176c565b61251a565b9361271080821115612d3e575050600554612b5494926020929091612ae6906001600160a01b0316611ca8565b90612b0f6101c0612b00868401516001600160801b031690565b9201516001600160401b031690565b6040516310335d6b60e21b81526001600160801b0390921660048301526001600160401b03908116602483015290921660448301529094859190829081906064820190565b03915afa90811561069957612887612b7b9261288c92602096600092612d1f575b506125f1565b94856000612b93611ca860045460018060a01b031690565b92612bb560405197889687958694637f32905760e11b8652336004870161260c565b03925af190811561069957600091612d00575b5015612cee57600154612be3906001600160a01b0316611ca8565b6040516020816004816318160ddd60e01b958682525afa801561069957612c1291600091612ccf575b50601355565b600354602090612c2a906001600160a01b0316611ca8565b9160046040518094819382525afa8015610699577f2dc3b614e32706dcf24286e69af4692f4b2c24fc339d659e80b26d49379b691494612c79612c869261203c94600091612cb0575b50601455565b516001600160801b031690565b60405193849384916040919493606084019584526001600160801b03809216602085015216910152565b612cc9915060203d60201161211b5761210c8183610385565b38612c73565b612ce8915060203d60201161211b5761210c8183610385565b38612c0c565b604051635e5e86d560e01b8152600490fd5b612d19915060203d602011610692576106848183610385565b38612bc8565b612d37919250873d89116120de576120ce8183610385565b9038612b75565b91925090808203612d5a57505050612b7b61288c602093611700565b9080929450611f40109182612d8c575b50501561253957612b7b61288c6128876020809501516001600160801b031690565b1090503880612d6a565b8061204e612da392610352565b38612a83565b8061204e612db692610352565b38612a2c565b604051637e74fa1d60e01b8152600490fd5b612de7915060203d602011610692576106848183610385565b386129aa565b6040516303f7009160e51b8152600490fd5b612e18915060203d602011610692576106848183610385565b38612921565b612e37915060203d60201161211b5761210c8183610385565b38612828565b929497509450506001915014600014612f5457612e9a93612e696101808401516001600160401b031690565b91612e94610120612e856101a08701516001600160801b031690565b9501516001600160801b031690565b9461324e565b600154612eaf906001600160a01b0316611ca8565b60405190816318160ddd60e01b9182825281600460209586935afa801561069957612ee191600091612f3d5750601355565b6003548290612ef8906001600160a01b0316611ca8565b9160046040518094819382525afa9081156106995761159e92600092612f20575b5050601455565b612f369250803d1061211b5761210c8183610385565b3880612f19565b612ce89150843d861161211b5761210c8183610385565b60405162461bcd60e51b815260206004820152602360248201527f5573657220616c726561647920776974686472617720656e7469726520616d6f6044820152621d5b9d60ea1b6064820152608490fd5b60405162461bcd60e51b815260206004820152602660248201527f5573657220646f656e73277420686176652074686520706572746963756c6172604482015265040d2dcc8caf60d31b6064820152608490fd5b613013935080919250903d106120b05761209e8183610385565b90388061271a565b50833b151560011415612663565b1561303057565b60405162461bcd60e51b8152602060048201526014602482015273416d6f756e742063616e2774206265207a65726f60601b6044820152606490fd5b916128b36130ac6130a66001600160801b036130b89561309560018060a01b0389161515612154565b6130a0811515613029565b16611736565b926124ff565b6001600160401b031690565b600354909182916130d1906001600160a01b0316611ca8565b9060405180926340c10f1960e01b8252816000816130f66020988997600484016125ce565b03925af190811561069957600091613168575b5015613156576003546004908290613129906001600160a01b0316611ca8565b6040516318160ddd60e01b815292839182905afa908115610699576115b592600092612f20575050601455565b6040516328eca99f60e21b8152600490fd5b61317f9150823d8411610692576106848183610385565b38613109565b9190916001600160401b0380809416911601918211610d4d57565b156131a757565b60405162461bcd60e51b815260206004820152602d60248201527f43616e2774207769746864726177206265666f7265207468652077697468647260448201526c185dc81d1a5b59481b1a5b5a5d609a1b6064820152608490fd5b1561320957565b60405162461bcd60e51b815260206004820152601e60248201527f446f6e2774206861766520656e6f7567682041424f4e4420546f6b656e7300006044820152606490fd5b929161327f6132776130ac6132c49894956132716015546001600160401b031690565b90613185565b4210156131a0565b600354613294906001600160a01b0316611ca8565b604080516370a0823160e01b81523360048083019190915298919760209793909288918391829081906024820190565b03915afa8015610699576132eb916000916136c1575b506001600160801b03831614613202565b87548590613301906001600160a01b0316611ca8565b8851634d5c56a560e01b8152338b82019081526001600160401b0390931660208401526102a0928390829081906040010381855afa928315610699576000936136a0575b5050818801516001600160801b031690803b1561033757613380916000918c838d51809681958294631b35376f60e21b8452339084016125ce565b03925af180156106995761368d575b506001610100820152600260e082015288546133b3906001600160a01b0316611ca8565b803b15610337576000836133de928c838d51809681958294637e2ce58360e11b8452339084016125ce565b03925af180156106995761367a575b5060006101a0820152885461340a906001600160a01b0316611ca8565b803b15610337576000826134379289838e8e519687958694859363401cecc560e01b855233908501611a41565b03925af1801561069957613667575b50885461345b906001600160a01b0316611ca8565b61347561288c61288760a08501516001600160801b031690565b90803b15610337576134a1916000918c838d51809681958294630adfd5a560e21b8452309084016125ce565b03925af18015610699578a92613514928a92613654575b506001546134ce906001600160a01b0316611ca8565b600854610200906001600160a01b03169201519160008d518096819582946363a9f09360e11b9a8b8552840160209093929193604081019460018060a01b031681520152565b03925af190811561069957600091613637575b50156136275761355f9187918a600061354a611ca860035460018060a01b031690565b928c51968795869485938452339084016125ce565b03925af19081156106995760009161360a575b50156135fa57908492916000886135b2613595611ca8835460018060a01b031690565b948a5198899788968795637f32905760e11b87523390870161260c565b03925af1918215610699576000926135dd575b5050156135d0575050565b51635e5e86d560e01b8152fd5b6135f39250803d10610692576106848183610385565b38806135c5565b85516303f7009160e51b81528790fd5b6136219150863d8811610692576106848183610385565b38613572565b87516303f7009160e51b81528990fd5b61364e9150883d8a11610692576106848183610385565b38613527565b8061204e61366192610352565b386134b8565b8061204e61367492610352565b38613446565b8061204e61368792610352565b386133ed565b8061204e61369a92610352565b3861338f565b6136b7929350803d106120b05761209e8183610385565b9050903880613345565b6136d89150883d8a1161211b5761210c8183610385565b386132da565b600a54909291906001600160a01b039081163303613e3c5761370f908416613707811515613e7a565b331415613ed2565b61374161372661372160125460801c90565b613f2c565b6001600160801b036012549181199060801b16911617601255565b6004805490929061375a906001600160a01b0316611ca8565b60408051634d5c56a560e01b81526001600160a01b0387168682019081526001600160401b0386166020820152929691946102a094929390929190859082908190890103818b5afa94851561069957600095613e1b575b505061014084016137cd6137c861273b8351151590565b613f44565b60209788860192888a6137e786516001600160801b031690565b938a5192838092630f27449560e01b82525afa90811561069957600091613dfe575b506001600160801b03809316111561382090613f85565b613829906124e3565b918160808801938451613842906001600160801b031690565b613854916001600160401b031661251a565b16611f40101561386390613fd1565b6001905260c08601516001600160801b0316601154613883918316611a09565b60185460801c6001600160801b031661389b91611a32565b6138a361440d565b60185460801c6001600160801b03166138bb91611a32565b601155818116908985516138d5906001600160801b031690565b85516001600160801b03166138e99161176c565b9483806019546138ff906001600160801b031690565b978861390a9161251a565b60646001600160801b03909116049061392291614014565b61392b90611751565b60646001600160801b0390911604968792895161394e906001600160801b031690565b90516001600160801b03166139629161176c565b9061396c9161251a565b60646001600160801b03909116049061398491614014565b9061398e91614014565b61399886856125f1565b966139a161402d565b50516001600160801b03166002548e906001600160a01b03166001600160a01b03168d51636e48f3a960e11b815294859182905a90600091f1908115610699578e93600092613dd9575b50613a19613a2892936139fc6103c6565b6001600160801b038c168152958601906001600160801b03169052565b6001600160801b0316838d0152565b6060820152600254613a42906001600160a01b0316611ca8565b90613a4f60125460801c90565b90823b1561033757613ab592600092838f8f519687958694859363b3013d4d60e01b85528401909291606060809160a08401956001600160801b038091168552808251166020860152806020830151166040860152604082015116828501520151910152565b03925af1801561069957613dc6575b50600254613ada906001600160a01b0316611ca8565b803b1561033757895163dc55b19360e01b81526001600160801b038716818d01908152909160009183919082908490829060200103925af1801561069957613db3575b50600254613b33906001600160a01b0316611ca8565b803b15610337578951634cae95d360e01b81526001600160801b03909616868c01908152600091879182908490829060200103925af191821561069957613b8b95613b8393613da0575b50612212565b911690611c20565b8554613b9f906001600160a01b0316611ca8565b803b156103375785516308fc416760e21b815287810192835291600091839182908490829060200103925af1801561069957613d8d575b508454613beb906001600160a01b0316611ca8565b91823b1561033757613c189260009283869388519687958694859363401cecc560e01b85528d8501611a41565b03925af1801561069957613d7a575b50825460a090613c3f906001600160a01b0316611ca8565b910180516001600160801b031691803b15610337578351630adfd5a560e21b8152926000918491829084908290613c7990308c84016125ce565b03925af190811561069957613ce0928692613d67575b50600154613ca5906001600160a01b0316611ca8565b600854613cc3906001600160a01b031692516001600160801b031690565b91600086518096819582946363a9f09360e11b84528b84016125ce565b03925af190811561069957600091613d4a575b5015613d3d57600154839190613d11906001600160a01b0316611ca8565b90516318160ddd60e01b815292839182905afa9081156106995761159e926000926123c5575050601355565b51632105f02360e11b8152fd5b613d619150843d8611610692576106848183610385565b38613cf3565b8061204e613d7492610352565b38613c8f565b8061204e613d8792610352565b38613c27565b8061204e613d9a92610352565b38613bd6565b8061204e613dad92610352565b38613b7d565b8061204e613dc092610352565b38613b1d565b8061204e613dd392610352565b38613ac4565b613a289250613df7613a1991863d881161211b5761210c8183610385565b92506139eb565b613e1591508b3d8d1161211b5761210c8183610385565b38613809565b613e32929550803d106120b05761209e8183610385565b90509238806137b1565b60405162461bcd60e51b815260206004820152601660248201527521b0b63632b91034b9903737ba1030b71030b236b4b760511b6044820152606490fd5b15613e8157565b60405162461bcd60e51b815260206004820152602360248201527f546f20616464726573732063616e6e6f742062652061207a65726f206164647260448201526265737360e81b6064820152608490fd5b15613ed957565b60405162461bcd60e51b815260206004820152602560248201527f596f752063616e6e6f74206c697175696461746520796f7572206f776e206173604482015264736574732160d81b6064820152608490fd5b6001600160801b03809116908114610d4d5760010190565b15613f4b57565b60405162461bcd60e51b8152602060048201526012602482015271105b1c9958591e48131a5c5d5a59185d195960721b6044820152606490fd5b15613f8c57565b60405162461bcd60e51b815260206004820152601c60248201527f4e6f7420656e6f7567682066756e647320696e207472656173757279000000006044820152606490fd5b15613fd857565b60405162461bcd60e51b8152602060048201526014602482015273596f752063616e6e6f74206c697175696461746560601b6044820152606490fd5b6001600160801b039182169082160391908211610d4d57565b60405190608082018281106001600160401b038211176103655760405260006060838281528260208201528260408201520152565b519069ffffffffffffffffffff8216820361033757565b90600090801561431857600454829061409a906001600160a01b0316611ca8565b604051906322d7586760e11b82528160048160209788945af191821561069957916142fb575b506140d6610b57600d546001600160801b031690565b82818111156142e8576140fc916140ec91612212565b6001600160801b03831690611a09565b905b6000906001600160801b0316614202575061412361411e83600496611a09565b600e55565b600e546002549092908490614140906001600160a01b0316611ca8565b6040516315d9753160e11b815296879182905afa801561069957611c2d610b57614187926115b5986130ac986000926141e5575b50506019546001600160801b0316612aae565b61419c610b57600d546001600160801b031690565b116141d1576141b06141b591601054611c20565b600f55565b611f1b600f545b6141cb610b5760175460801c90565b90611a09565b6141b06141e091601054612212565b6141b5565b6141fb9250803d106120de576120ce8183610385565b3880614174565b929361421b9061421584600e5492611a09565b90611c20565b9161422583600e55565b600254600490869061423f906001600160a01b0316611ca8565b6040516315d9753160e11b815292839182905afa92831561069957614288610b57611f1b956142c4946115b59a6130ac9a926141e55750506019546001600160801b0316612aae565b9261429e610b57600d546001600160801b031690565b116142d2576142be906142b9600f5461421560105487612212565b611c20565b91601055565b6142cd81600f55565b6141bc565b6142be906123c0600f5461421560105487612212565b6140ec906142f592612212565b906140fe565b6143129150833d85116120de576120ce8183610385565b386140c0565b6040516315e73e9f60e01b8152600490fd5b614332614696565b60065460405163c722f56b60e01b815290602090829060049082906000906001600160a01b03165af1908115610699576000916143ef575b5015610337576001600160801b038116156143aa5761159e90600160401b600160c01b036015549160401b1690600160401b600160c01b03191617601555565b60405162461bcd60e51b815260206004820152601760248201527f526174652073686f756c64206e6f74206265207a65726f0000000000000000006044820152606490fd5b614407915060203d8111610692576106848183610385565b3861436a565b600454600090602090614428906001600160a01b0316611ca8565b6004604051809481936322d7586760e11b83525af1908115610699576000916144e3575b506001600160801b0390811661447e57506015546144759060401c6001600160801b0316610b57565b6115b581601155565b6115b56127d96144dc6144a7610b5761449f6012546001600160801b031690565b864216614014565b6141cb601154916144c46015546001600160801b039060401c1690565b90876144d260185460801c90565b1697889216614605565b9283611a32565b6144fb915060203d81116120de576120ce8183610385565b3861444c565b1561450857565b60405162461bcd60e51b815260206004820152600e60248201526d14195c9b5a5d0bd95e1c1a5c995960921b6044820152606490fd5b1561454557565b60405162461bcd60e51b81526020600482015260166024820152755065726d69742f496e76616c6964206164647265737360501b6044820152606490fd5b1561458a57565b60405162461bcd60e51b815260206004820152601560248201527414195c9b5a5d0bda5b9d985b1a590b5c195c9b5a5d605a1b6044820152606490fd5b601654815160209283012060405161190160f01b938101938452602281019290925260428083019190915281526145ff606282610385565b51902090565b909291811561468757600190848216156146805782945b81831c90831c93845b614630575050505050565b808002908082040361033757818101908110610337578290049383811661465b575b831c9384614625565b9584810290858204141585151516610337578181019081106103375782900495614652565b809461461c565b91921590506115b55750600090565b6000546001600160a01b031633036146aa57565b606460405162461bcd60e51b815260206004820152602060248201527f4f776e61626c653a2063616c6c6572206973206e6f7420746865206f776e65726044820152fdfea2646970667358221220c89cf98f66488a0f1ed9668c9e44005cb239cc027fa451a67d9e8b8730b044a164736f6c63430008120033","linkReferences":{}},"methodIdentifiers":{"APY()":"ef8bd305","DOMAIN_SEPARATOR()":"3644e515","PERMIT_TYPEHASH()":"30adf81f","abond()":"50d7ede2","admin()":"f851a440","amint()":"503e6322","calculateCumulativeRate()":"181ab6db","cds()":"b4eb10ce","cdsAddress()":"fe925884","depositToAaveProtocol()":"98afda43","depositToCompoundProtocol()":"b8f49090","depositTokens(uint128,uint64,uint8,uint64,uint256)":"5e34783e","getLTV()":"4ed2b8ac","getMessageHash(bytes)":"0a1028c4","getUSDValue()":"50593af7","initializeTreasury(address)":"3ed086f4","isContract(address)":"16279055","lastCDSPoolValue()":"84e92128","lastCumulativeRate()":"8e4db39a","lastEthVaultValue()":"99eb2f6c","lastEthprice()":"2feabb52","lastTotalCDSPool()":"e42f8090","liquidate(address,uint64,uint64)":"d5c28dba","multiSign()":"9e6fe439","name()":"06fdde03","noOfLiquidations()":"38a912d5","options()":"1069143a","owner()":"8da5cb5b","permit(address,address,uint256,bool,uint256,uint8,bytes32,bytes32)":"2ccd9ed4","priceFeedAddress()":"e0abca0b","ratePerSec()":"3b486a25","renounceOwnership()":"715018a6","setAPR(uint128)":"c1bab32d","setAdmin(address)":"704b6c02","setLTV(uint8)":"aad2476d","setOptions(address)":"7d6dff7d","setWithdrawTimeLimit(uint64)":"868c10d2","totalAmintSupply()":"b3aebb9c","totalDiracSupply()":"606303f8","totalNormalizedAmount()":"6fdc5203","transferOwnership(address)":"f2fde38b","treasury()":"61d027b3","treasuryAddress()":"c5f956af","updateLastEthVaultValue(uint256)":"661b7d3e","version()":"54fd4d50","withDraw(address,uint64,uint64,uint64,uint64)":"2bf16927","withdrawFromAaveProtocol(uint64)":"ec11dab2","withdrawFromCompoundProtocol(uint64)":"3f3006b4","withdrawTimeLimit()":"4f04a86b"},"id":3}