{"abi":[{"type":"constructor","inputs":[{"name":"_tokenAddress","type":"address","internalType":"address"},{"name":"_cds","type":"address","internalType":"address"},{"name":"_protocolToken","type":"address","internalType":"address"},{"name":"_priceFeedAddress","type":"address","internalType":"address"},{"name":"chainId","type":"uint64","internalType":"uint64"}],"stateMutability":"nonpayable"},{"type":"function","name":"APY","inputs":[],"outputs":[{"name":"","type":"uint8","internalType":"uint8"}],"stateMutability":"view"},{"type":"function","name":"DOMAIN_SEPARATOR","inputs":[],"outputs":[{"name":"","type":"bytes32","internalType":"bytes32"}],"stateMutability":"view"},{"type":"function","name":"PERMIT_TYPEHASH","inputs":[],"outputs":[{"name":"","type":"bytes32","internalType":"bytes32"}],"stateMutability":"view"},{"type":"function","name":"Trinity","inputs":[],"outputs":[{"name":"","type":"address","internalType":"contract ITrinityToken"}],"stateMutability":"view"},{"type":"function","name":"admin","inputs":[],"outputs":[{"name":"","type":"address","internalType":"address"}],"stateMutability":"view"},{"type":"function","name":"calculateCumulativeRate","inputs":[],"outputs":[{"name":"","type":"uint256","internalType":"uint256"}],"stateMutability":"nonpayable"},{"type":"function","name":"cds","inputs":[],"outputs":[{"name":"","type":"address","internalType":"contract CDSInterface"}],"stateMutability":"view"},{"type":"function","name":"cdsAddress","inputs":[],"outputs":[{"name":"","type":"address","internalType":"address"}],"stateMutability":"view"},{"type":"function","name":"depositToAaveProtocol","inputs":[],"outputs":[],"stateMutability":"nonpayable"},{"type":"function","name":"depositToCompoundProtocol","inputs":[],"outputs":[],"stateMutability":"nonpayable"},{"type":"function","name":"depositTokens","inputs":[{"name":"_ethPrice","type":"uint128","internalType":"uint128"},{"name":"_depositTime","type":"uint64","internalType":"uint64"},{"name":"_strikePercent","type":"uint8","internalType":"enum IOptions.StrikePrice"},{"name":"_strikePrice","type":"uint64","internalType":"uint64"},{"name":"_volatility","type":"uint256","internalType":"uint256"}],"outputs":[],"stateMutability":"payable"},{"type":"function","name":"getAPY","inputs":[],"outputs":[{"name":"","type":"uint8","internalType":"uint8"}],"stateMutability":"view"},{"type":"function","name":"getLTV","inputs":[],"outputs":[{"name":"","type":"uint8","internalType":"uint8"}],"stateMutability":"view"},{"type":"function","name":"getMessageHash","inputs":[{"name":"message","type":"bytes","internalType":"bytes"}],"outputs":[{"name":"","type":"bytes32","internalType":"bytes32"}],"stateMutability":"nonpayable"},{"type":"function","name":"getUSDValue","inputs":[],"outputs":[{"name":"","type":"uint256","internalType":"uint256"}],"stateMutability":"view"},{"type":"function","name":"initializeTreasury","inputs":[{"name":"_treasury","type":"address","internalType":"address"}],"outputs":[],"stateMutability":"nonpayable"},{"type":"function","name":"lastCDSPoolValue","inputs":[],"outputs":[{"name":"","type":"uint256","internalType":"uint256"}],"stateMutability":"view"},{"type":"function","name":"lastCumulativeRate","inputs":[],"outputs":[{"name":"","type":"uint256","internalType":"uint256"}],"stateMutability":"view"},{"type":"function","name":"lastEthVaultValue","inputs":[],"outputs":[{"name":"","type":"uint256","internalType":"uint256"}],"stateMutability":"view"},{"type":"function","name":"lastEthprice","inputs":[],"outputs":[{"name":"","type":"uint128","internalType":"uint128"}],"stateMutability":"view"},{"type":"function","name":"lastTotalCDSPool","inputs":[],"outputs":[{"name":"","type":"uint256","internalType":"uint256"}],"stateMutability":"view"},{"type":"function","name":"liquidate","inputs":[{"name":"_user","type":"address","internalType":"address"},{"name":"_index","type":"uint64","internalType":"uint64"},{"name":"currentEthPrice","type":"uint64","internalType":"uint64"}],"outputs":[],"stateMutability":"nonpayable"},{"type":"function","name":"multiSign","inputs":[],"outputs":[{"name":"","type":"address","internalType":"contract MultiSign"}],"stateMutability":"view"},{"type":"function","name":"name","inputs":[],"outputs":[{"name":"","type":"string","internalType":"string"}],"stateMutability":"view"},{"type":"function","name":"noOfLiquidations","inputs":[],"outputs":[{"name":"","type":"uint128","internalType":"uint128"}],"stateMutability":"view"},{"type":"function","name":"options","inputs":[],"outputs":[{"name":"","type":"address","internalType":"contract IOptions"}],"stateMutability":"view"},{"type":"function","name":"owner","inputs":[],"outputs":[{"name":"","type":"address","internalType":"address"}],"stateMutability":"view"},{"type":"function","name":"pause","inputs":[],"outputs":[],"stateMutability":"nonpayable"},{"type":"function","name":"paused","inputs":[],"outputs":[{"name":"","type":"bool","internalType":"bool"}],"stateMutability":"view"},{"type":"function","name":"permit","inputs":[{"name":"holder","type":"address","internalType":"address"},{"name":"spender","type":"address","internalType":"address"},{"name":"allowedAmount","type":"uint256","internalType":"uint256"},{"name":"allowed","type":"bool","internalType":"bool"},{"name":"expiry","type":"uint256","internalType":"uint256"},{"name":"v","type":"uint8","internalType":"uint8"},{"name":"r","type":"bytes32","internalType":"bytes32"},{"name":"s","type":"bytes32","internalType":"bytes32"}],"outputs":[{"name":"","type":"bool","internalType":"bool"}],"stateMutability":"view"},{"type":"function","name":"priceFeedAddress","inputs":[],"outputs":[{"name":"","type":"address","internalType":"address"}],"stateMutability":"view"},{"type":"function","name":"protocolToken","inputs":[],"outputs":[{"name":"","type":"address","internalType":"contract IProtocolToken"}],"stateMutability":"view"},{"type":"function","name":"renounceOwnership","inputs":[],"outputs":[],"stateMutability":"nonpayable"},{"type":"function","name":"setAPY","inputs":[{"name":"_apy","type":"uint8","internalType":"uint8"}],"outputs":[],"stateMutability":"nonpayable"},{"type":"function","name":"setAdmin","inputs":[{"name":"_admin","type":"address","internalType":"address"}],"outputs":[],"stateMutability":"nonpayable"},{"type":"function","name":"setLTV","inputs":[{"name":"_LTV","type":"uint8","internalType":"uint8"}],"outputs":[],"stateMutability":"nonpayable"},{"type":"function","name":"setOptions","inputs":[{"name":"_options","type":"address","internalType":"address"}],"outputs":[],"stateMutability":"nonpayable"},{"type":"function","name":"setWithdrawTimeLimit","inputs":[{"name":"_timeLimit","type":"uint64","internalType":"uint64"}],"outputs":[],"stateMutability":"nonpayable"},{"type":"function","name":"totalAmintSupply","inputs":[],"outputs":[{"name":"","type":"uint256","internalType":"uint256"}],"stateMutability":"view"},{"type":"function","name":"totalDiracSupply","inputs":[],"outputs":[{"name":"","type":"uint256","internalType":"uint256"}],"stateMutability":"view"},{"type":"function","name":"totalNormalizedAmount","inputs":[],"outputs":[{"name":"","type":"uint256","internalType":"uint256"}],"stateMutability":"view"},{"type":"function","name":"transferOwnership","inputs":[{"name":"newOwner","type":"address","internalType":"address"}],"outputs":[],"stateMutability":"nonpayable"},{"type":"function","name":"treasury","inputs":[],"outputs":[{"name":"","type":"address","internalType":"contract ITreasury"}],"stateMutability":"view"},{"type":"function","name":"treasuryAddress","inputs":[],"outputs":[{"name":"","type":"address","internalType":"address"}],"stateMutability":"view"},{"type":"function","name":"unpause","inputs":[],"outputs":[],"stateMutability":"nonpayable"},{"type":"function","name":"updateLastEthVaultValue","inputs":[{"name":"_amount","type":"uint256","internalType":"uint256"}],"outputs":[],"stateMutability":"nonpayable"},{"type":"function","name":"version","inputs":[],"outputs":[{"name":"","type":"string","internalType":"string"}],"stateMutability":"view"},{"type":"function","name":"withDraw","inputs":[{"name":"_toAddress","type":"address","internalType":"address"},{"name":"_index","type":"uint64","internalType":"uint64"},{"name":"_ethPrice","type":"uint64","internalType":"uint64"},{"name":"_withdrawTime","type":"uint64","internalType":"uint64"},{"name":"_bondRatio","type":"uint64","internalType":"uint64"}],"outputs":[],"stateMutability":"nonpayable"},{"type":"function","name":"withdrawFromAaveProtocol","inputs":[{"name":"index","type":"uint64","internalType":"uint64"}],"outputs":[],"stateMutability":"nonpayable"},{"type":"function","name":"withdrawFromCompoundProtocol","inputs":[{"name":"index","type":"uint64","internalType":"uint64"}],"outputs":[],"stateMutability":"nonpayable"},{"type":"function","name":"withdrawTimeLimit","inputs":[],"outputs":[{"name":"","type":"uint64","internalType":"uint64"}],"stateMutability":"view"},{"type":"event","name":"Deposit","inputs":[{"name":"index","type":"uint64","indexed":false,"internalType":"uint64"},{"name":"depositedAmount","type":"uint256","indexed":false,"internalType":"uint256"},{"name":"borrowAmount","type":"uint256","indexed":false,"internalType":"uint256"},{"name":"normalizedAmount","type":"uint256","indexed":false,"internalType":"uint256"}],"anonymous":false},{"type":"event","name":"OwnershipTransferred","inputs":[{"name":"previousOwner","type":"address","indexed":true,"internalType":"address"},{"name":"newOwner","type":"address","indexed":true,"internalType":"address"}],"anonymous":false},{"type":"event","name":"Paused","inputs":[{"name":"account","type":"address","indexed":false,"internalType":"address"}],"anonymous":false},{"type":"event","name":"Unpaused","inputs":[{"name":"account","type":"address","indexed":false,"internalType":"address"}],"anonymous":false},{"type":"event","name":"Withdraw","inputs":[{"name":"borrowDebt","type":"uint256","indexed":false,"internalType":"uint256"},{"name":"withdrawAmount","type":"uint128","indexed":false,"internalType":"uint128"},{"name":"noOfAbond","type":"uint128","indexed":false,"internalType":"uint128"}],"anonymous":false},{"type":"error","name":"Borrowing_DepositFailed","inputs":[]},{"type":"error","name":"Borrowing_GettingETHPriceFailed","inputs":[]},{"type":"error","name":"Borrowing_LiquidateBurnFailed","inputs":[]},{"type":"error","name":"Borrowing_LiquidateEthTransferToCdsFailed","inputs":[]},{"type":"error","name":"Borrowing_MUSDMintFailed","inputs":[]},{"type":"error","name":"Borrowing_WithdrawBurnFailed","inputs":[]},{"type":"error","name":"Borrowing_WithdrawEthTransferFailed","inputs":[]},{"type":"error","name":"Borrowing_WithdrawMUSDTransferFailed","inputs":[]},{"type":"error","name":"Borrowing_pTokenMintFailed","inputs":[]}],"bytecode":{"object":"0x608060405272989680000000000000000000000000000f42406017557b033b2e3c9fd0803ce8000000000000000000000000000000000027106018553480156200004857600080fd5b5060405162004fb338038062004fb38339810160408190526200006b916200030e565b620000763362000206565b6000805460ff60a01b19169055600180546001600160a01b038088166001600160a01b031992831617909255600280548784169083168117909155600980548316909117905560038054868416908316179055600c805492851692909116919091179055620000e462000256565b600d80546001600160801b03199081166001600160801b03938416179091556012805490911642909216919091179055604080518082018252601081526f20a6a4a72a1029ba30b13632b1b7b4b760811b6020918201528151808301835260018152603160f81b9082015281517f2010028ec63295361a00945794d4fce5b1046c419f60af448db7aaeb91e918f8918101919091527fb6715a9c407638b44c957bf0380ac52778ea690cd439f34f0943ed73c1effc28918101919091527fc89efdaa54c0f20c7adf612882df0950f5a951637e0307cdcb4c672f298b8bc660608201526001600160401b03821660808201523060a082015260c0016040516020818303038152906040528051906020012060168190555050505050506200041e565b600080546001600160a01b038381166001600160a01b0319831681178455604051919092169283917f8be0079c531659141344cd1fd0a4f28419497f9722a3daafe3b4186f6b6457e09190a35050565b600c5460408051633fabe5a360e21b815290516000926001600160a01b0316918391839163feaf968c9160048083019260a09291908290030181865afa158015620002a5573d6000803e3d6000fd5b505050506040513d601f19601f82011682018060405250810190620002cb9190620003a6565b5050601754919350620002ea9250506001600160801b031682620003fb565b9250505090565b80516001600160a01b03811681146200030957600080fd5b919050565b600080600080600060a086880312156200032757600080fd5b6200033286620002f1565b94506200034260208701620002f1565b93506200035260408701620002f1565b92506200036260608701620002f1565b60808701519092506001600160401b03811681146200038057600080fd5b809150509295509295909350565b80516001600160501b03811681146200030957600080fd5b600080600080600060a08688031215620003bf57600080fd5b620003ca866200038e565b9450602086015193506040860151925060608601519150620003ef608087016200038e565b90509295509295909350565b6000826200041957634e487b7160e01b600052601260045260246000fd5b500490565b614b85806200042e6000396000f3fe6080604052600436106102e45760003560e01c8063715018a611610190578063b4eb10ce116100dc578063e42f809011610095578063ef8bd3051161006f578063ef8bd305146108ea578063f2fde38b1461090b578063f851a4401461092b578063fe9258841461094b57600080fd5b8063e42f809014610894578063e6d97f17146108aa578063ec11dab2146108ca57600080fd5b8063b4eb10ce146107e0578063b8f4909014610800578063c5f956af14610815578063d2cbf7ad14610835578063d5c28dba14610854578063e0abca0b1461087457600080fd5b80638da5cb5b1161014957806399eb2f6c1161012357806399eb2f6c146107745780639e6fe4391461078a578063aad2476d146107aa578063b3aebb9c146107ca57600080fd5b80638da5cb5b1461072b5780638e4db39a1461074957806398afda431461075f57600080fd5b8063715018a61461068b57806373ca55a2146106a05780637d6dff7d146106c05780638456cb59146106e057806384e92128146106f5578063868c10d21461070b57600080fd5b80633f3006b41161024f5780635c975abb1161020857806361d027b3116101e257806361d027b314610615578063661b7d3e146106355780636fdc520314610655578063704b6c021461066b57600080fd5b80635c975abb146105cd5780635e34783e146105ec578063606303f8146105ff57600080fd5b80633f3006b4146104f15780633f4ba83a146105115780634ed2b8ac146105265780634f04a86b1461055357806350593af71461058b57806354fd4d50146105a057600080fd5b80632ccd9ed4116102a15780632ccd9ed4146103f85780632feabb521461042857806330adf81f146104605780633644e5151461049457806338a912d5146104aa5780633ed086f4146104d157600080fd5b806306fdde03146102e95780630a1028c41461033b5780631069143a14610369578063181ab6db146103a15780631a465fe1146103b65780632bf16927146103d6575b600080fd5b3480156102f557600080fd5b506103256040518060400160405280601081526020016f20a6a4a72a1029ba30b13632b1b7b4b760811b81525081565b60405161033291906140ed565b60405180910390f35b34801561034757600080fd5b5061035b61035636600461413f565b61096b565b604051908152602001610332565b34801561037557600080fd5b50600554610389906001600160a01b031681565b6040516001600160a01b039091168152602001610332565b3480156103ad57600080fd5b5061035b6109bf565b3480156103c257600080fd5b50600354610389906001600160a01b031681565b3480156103e257600080fd5b506103f66103f1366004614220565b610add565b005b34801561040457600080fd5b506104186104133660046142ac565b611763565b6040519015158152602001610332565b34801561043457600080fd5b50600d54610448906001600160801b031681565b6040516001600160801b039091168152602001610332565b34801561046c57600080fd5b5061035b7ff48167ebcd5a3b4ca5517473931d60b9a75b03f56e5e6363767fa277375eb08081565b3480156104a057600080fd5b5061035b60165481565b3480156104b657600080fd5b5060125461044890600160801b90046001600160801b031681565b3480156104dd57600080fd5b506103f66104ec36600461432b565b61197e565b3480156104fd57600080fd5b506103f661050c366004614346565b611a3c565b34801561051d57600080fd5b506103f6611aaf565b34801561053257600080fd5b50600a54600160a01b900460ff165b60405160ff9091168152602001610332565b34801561055f57600080fd5b50601554610573906001600160401b031681565b6040516001600160401b039091168152602001610332565b34801561059757600080fd5b5061035b611b43565b3480156105ac57600080fd5b50610325604051806040016040528060018152602001603160f81b81525081565b3480156105d957600080fd5b50600054600160a01b900460ff16610418565b6103f66105fa366004614378565b611bd9565b34801561060b57600080fd5b5061035b60145481565b34801561062157600080fd5b50600454610389906001600160a01b031681565b34801561064157600080fd5b506103f66106503660046143e0565b6121e4565b34801561066157600080fd5b5061035b600b5481565b34801561067757600080fd5b506103f661068636600461432b565b612270565b34801561069757600080fd5b506103f6612319565b3480156106ac57600080fd5b506103f66106bb3660046143f9565b61232b565b3480156106cc57600080fd5b506103f66106db36600461432b565b61239f565b3480156106ec57600080fd5b506103f6612453565b34801561070157600080fd5b5061035b600f5481565b34801561071757600080fd5b506103f6610726366004614346565b6124e5565b34801561073757600080fd5b506000546001600160a01b0316610389565b34801561075557600080fd5b5061035b60115481565b34801561076b57600080fd5b506103f6612573565b34801561078057600080fd5b5061035b600e5481565b34801561079657600080fd5b50600654610389906001600160a01b031681565b3480156107b657600080fd5b506103f66107c53660046143f9565b6125d8565b3480156107d657600080fd5b5061035b60135481565b3480156107ec57600080fd5b50600254610389906001600160a01b031681565b34801561080c57600080fd5b506103f6612600565b34801561082157600080fd5b50600854610389906001600160a01b031681565b34801561084157600080fd5b50600a54600160a81b900460ff16610541565b34801561086057600080fd5b506103f661086f366004614416565b61264b565b34801561088057600080fd5b50600c54610389906001600160a01b031681565b3480156108a057600080fd5b5061035b60105481565b3480156108b657600080fd5b50600154610389906001600160a01b031681565b3480156108d657600080fd5b506103f66108e5366004614346565b612f42565b3480156108f657600080fd5b50600a5461054190600160a81b900460ff1681565b34801561091757600080fd5b506103f661092636600461432b565b612f84565b34801561093757600080fd5b50600a54610389906001600160a01b031681565b34801561095757600080fd5b50600954610389906001600160a01b031681565b60008060165483805190602001206040516020016109a092919061190160f01b81526002810192909252602282015260420190565b60408051601f1981840301815291905280516020909101209392505050565b60048054604080516322d7586760e11b8152905160009384936001600160a01b0316926345aeb0ce9281830192602092829003018187875af1158015610a09573d6000803e3d6000fd5b505050506040513d601f19601f82011682018060405250810190610a2d919061446a565b90506b033b2e3cb548ff197d3905a160006001600160801b0383168103610a6357506001600160801b0381166011819055610ad6565b601254600090610a7c906001600160801b03164261449d565b6018546001600160801b039182169250610aa491858116918491600160801b90910416612ffd565b601154610ab191906144c4565b601854909250610ad190600160801b90046001600160801b0316836144f1565b601155505b9392505050565b610ae56130bb565b6001600160a01b03851615801590610b0157506001853b151514155b610b6b5760405162461bcd60e51b815260206004820152603060248201527f546f20616464726573732063616e6e6f742062652061207a65726f20616e642060448201526f636f6e7472616374206164647265737360801b60648201526084015b60405180910390fd5b600d80546001600160401b0385166fffffffffffffffffffffffffffffffff1991821617909155601280549091166001600160801b03421617905560048054604051634d5c56a560e01b815260009283926001600160a01b031691634d5c56a591610bda9133918b9101614505565b61028060405180830381865afa158015610bf8573d6000803e3d6000fd5b505050506040513d601f19601f82011682018060405250810190610c1c9190614548565b91509150856001600160401b0316826001600160401b0316106117035780610120015115610c8c5760405162461bcd60e51b815260206004820152601f60248201527f5573657220616d6f756e7420686173206265656e206c697175696461746564006044820152606401610b62565b60e081015115156000036116af578060c0015160ff16600003611593576060810151600090610cbd876127106146dc565b6001600160401b0316610cd09190614707565b9050611f40816001600160801b031611610d255760405162461bcd60e51b8152602060048201526016602482015275426f72726f77696e674865616c7468206973204c6f7760501b6044820152606401610b62565b60185460115460a08401516000926001600160801b03600160801b909104811692610d52929091166144c4565b610d5c91906144f1565b601854909150600160801b90046001600160801b0316610d7a6109bf565b610d8491906144f1565b6011556001546040516370a0823160e01b815233600482015282916001600160a01b0316906370a0823190602401602060405180830381865afa158015610dcf573d6000803e3d6000fd5b505050506040513d601f19601f82011682018060405250810190610df3919061472d565b1015610e4c5760405162461bcd60e51b815260206004820152602260248201527f557365722062616c616e6365206973206c657373207468616e20726571756972604482015261195960f21b6064820152608401610b62565b6001600160401b038088166101408501819052908716610160850152600160c0850152602084015160009160649182908190610e89906032614746565b610e939190614707565b610e9e906014614746565b610ea89190614707565b610eb29190614746565b610ebc9190614707565b6001600160801b03169050600081606486608001516032610edd9190614746565b610ee79190614707565b6001600160801b0316610efa9190614769565b6001546040516363a9f09360e11b8152336004820152602481018390529192506000916001600160a01b039091169063c753e126906044016020604051808303816000875af1158015610f51573d6000803e3d6000fd5b505050506040513d601f19601f82011682018060405250810190610f75919061477c565b905080610f95576040516303f7009160e51b815260040160405180910390fd5b6001546008546000916001600160a01b03908116916323b872dd91339116610fbd878a614769565b6040516001600160e01b031960e086901b1681526001600160a01b03938416600482015292909116602483015260448201526064016020604051808303816000875af1158015611011573d6000803e3d6000fd5b505050506040513d601f19601f82011682018060405250810190611035919061477c565b90508061105557604051630aae388960e41b815260040160405180910390fd5b60045460808801516001600160a01b039091169063b9a221eb90611082906001600160801b031688614769565b6040518263ffffffff1660e01b81526004016110a091815260200190565b600060405180830381600087803b1580156110ba57600080fd5b505af11580156110ce573d6000803e3d6000fd5b5050505060006110df33868c613108565b6101e089018590526001600160801b0381166101808a01526004805460405163ef0d5dc160e01b81529293506001600160a01b03169163ef0d5dc191611129913391869101614799565b600060405180830381600087803b15801561114357600080fd5b505af1158015611157573d6000803e3d6000fd5b50505050600460009054906101000a90046001600160a01b03166001600160a01b03166334bc9b20338f8b6040518463ffffffff1660e01b81526004016111a0939291906147bb565b600060405180830381600087803b1580156111ba57600080fd5b505af11580156111ce573d6000803e3d6000fd5b505050505050505050600080886001600160401b0316856060015186602001516111f89190614746565b6112029190614707565b9050612710846001600160801b031611156112c05760055460208601516101a08701516040516310335d6b60e21b81526001600160801b0390921660048301526001600160401b0390811660248301528b1660448201526001600160a01b03909116906340cd75ac90606401602060405180830381865afa15801561128b573d6000803e3d6000fd5b505050506040513d601f19601f820116820180604052508101906112af919061446a565b6112b99082614991565b9150611350565b836001600160801b0316612710036112da57809150611350565b836001600160801b0316611f401080156112fe5750612710846001600160801b0316105b1561130f5784602001519150611350565b60405162461bcd60e51b8152602060048201526016602482015275426f72726f77696e674865616c7468206973204c6f7760501b6044820152606401610b62565b606461135d836032614746565b6113679190614707565b91506113a16040518060400160405280600d81526020016c32ba34103a37903932ba3ab93760991b815250836001600160801b03166132f0565b6000600460009054906101000a90046001600160a01b03166001600160a01b031663fe6520ae338e868f8f6040518663ffffffff1660e01b81526004016113ec9594939291906149b1565b6020604051808303816000875af115801561140b573d6000803e3d6000fd5b505050506040513d601f19601f8201168201806040525081019061142f919061477c565b90508061144f57604051635e5e86d560e01b815260040160405180910390fd5b600160009054906101000a90046001600160a01b03166001600160a01b03166318160ddd6040518163ffffffff1660e01b8152600401602060405180830381865afa1580156114a2573d6000803e3d6000fd5b505050506040513d601f19601f820116820180604052508101906114c6919061472d565b601355600354604080516318160ddd60e01b815290516001600160a01b03909216916318160ddd916004808201926020929091908290030181865afa158015611513573d6000803e3d6000fd5b505050506040513d601f19601f82011682018060405250810190611537919061472d565b601455610180860151604080518681526001600160801b03868116602083015290921682820152517f2dc3b614e32706dcf24286e69af4692f4b2c24fc339d659e80b26d49379b69149181900360600190a1505050505061175a565b8060c0015160ff166001036116af576115bf878787846101600151856101800151866101000151613339565b600160009054906101000a90046001600160a01b03166001600160a01b03166318160ddd6040518163ffffffff1660e01b8152600401602060405180830381865afa158015611612573d6000803e3d6000fd5b505050506040513d601f19601f82011682018060405250810190611636919061472d565b601355600354604080516318160ddd60e01b815290516001600160a01b03909216916318160ddd916004808201926020929091908290030181865afa158015611683573d6000803e3d6000fd5b505050506040513d601f19601f820116820180604052508101906116a7919061472d565b60145561175a565b60405162461bcd60e51b815260206004820152602360248201527f5573657220616c726561647920776974686472617720656e7469726520616d6f6044820152621d5b9d60ea1b6064820152608401610b62565b60405162461bcd60e51b815260206004820152602660248201527f5573657220646f656e73277420686176652074686520706572746963756c6172604482015265040d2dcc8caf60d31b6064820152608401610b62565b50505050505050565b60008415806117725750844211155b6117af5760405162461bcd60e51b815260206004820152600e60248201526d14195c9b5a5d0bd95e1c1a5c995960921b6044820152606401610b62565b601654604080517ff48167ebcd5a3b4ca5517473931d60b9a75b03f56e5e6363767fa277375eb08060208201526001600160a01b03808d1692820192909252908a1660608201526080810189905287151560a082015260c081018790526000919060e0016040516020818303038152906040528051906020012060405160200161185092919061190160f01b81526002810192909252602282015260420190565b60408051601f19818403018152919052805160209091012090506001600160a01b038a166118b95760405162461bcd60e51b81526020600482015260166024820152755065726d69742f496e76616c6964206164647265737360501b6044820152606401610b62565b60408051600081526020810180835283905260ff871691810191909152606081018590526080810184905260019060a0016020604051602081039080840390855afa15801561190c573d6000803e3d6000fd5b505050602060405103516001600160a01b03168a6001600160a01b03161461196e5760405162461bcd60e51b815260206004820152601560248201527414195c9b5a5d0bda5b9d985b1a590b5c195c9b5a5d605a1b6044820152606401610b62565b5060019998505050505050505050565b6119866138b9565b6001600160a01b0381161580159061199e5750803b15155b611a105760405162461bcd60e51b815260206004820152603960248201527f5472656173757279206d75737420626520636f6e74726163742061646472657360448201527f7320262063616e2774206265207a65726f2061646472657373000000000000006064820152608401610b62565b600480546001600160a01b039092166001600160a01b0319928316811790915560088054909216179055565b611a446138b9565b600480546040516306ef62b960e11b81526001600160401b038416928101929092526001600160a01b031690630ddec572906024015b600060405180830381600087803b158015611a9457600080fd5b505af1158015611aa8573d6000803e3d6000fd5b5050505050565b611ab76138b9565b600660009054906101000a90046001600160a01b03166001600160a01b031663614619546040518163ffffffff1660e01b81526004016020604051808303816000875af1158015611b0c573d6000803e3d6000fd5b505050506040513d601f19601f82011682018060405250810190611b30919061477c565b611b3957600080fd5b611b41613913565b565b600c5460408051633fabe5a360e21b815290516000926001600160a01b0316918391839163feaf968c9160048083019260a09291908290030181865afa158015611b91573d6000803e3d6000fd5b505050506040513d601f19601f82011682018060405250810190611bb59190614a10565b5050601754919350611bd29250506001600160801b0316826144f1565b9250505090565b611be16130bb565b60003411611c315760405162461bcd60e51b815260206004820152601a60248201527f43616e6e6f74206465706f736974207a65726f20746f6b656e730000000000006044820152606401610b62565b34333111611ca75760405162461bcd60e51b815260206004820152603e60248201527f596f7520646f206e6f7420686176652073756666696369656e742062616c616e60448201527f636520746f20657865637574652074686973207472616e73616374696f6e00006064820152608401610b62565b6000611cbc34876001600160801b0316613968565b601854909150611cd6906001600160801b03166002614746565b6001600160801b0316816001600160401b03161015611d305760405162461bcd60e51b81526020600482015260166024820152754e6f7420656e6f7567682066756e6420696e2043445360501b6044820152606401610b62565b6004805460405163dcb71f3f60e01b815233928101929092526001600160801b03881660248301526001600160401b038716604483015260009182916001600160a01b03169063dcb71f3f903490606401604080518083038185885af1158015611d9e573d6000803e3d6000fd5b50505050506040513d601f19601f82011682018060405250810190611dc39190614a60565b60055460405163338271f960e21b81529294509092506000916001600160a01b039091169063ce09c7e490611e0090889034908c90600401614a9a565b6020604051808303816000875af1158015611e1f573d6000803e3d6000fd5b505050506040513d601f19601f82011682018060405250810190611e43919061472d565b905082611e6357604051634fad3b0960e01b815260040160405180910390fd5b6000611e7133348c85613c96565b60025460405163b87c3dc360e01b81526001600160801b03851660048201529192506001600160a01b03169063b87c3dc3906024016020604051808303816000875af1158015611ec5573d6000803e3d6000fd5b505050506040513d601f19601f82011682018060405250810190611ee9919061446a565b5060048054604051634d5c56a560e01b81526000926001600160a01b0390921691634d5c56a591611f1e913391899101614505565b61028060405180830381865afa158015611f3c573d6000803e3d6000fd5b505050506040513d601f19601f82011682018060405250810190611f609190614548565b6001600160801b03848116608083015285166101c082015260048054604051632e449f1760e21b81523392810192909252600160248301529193506001600160a01b03909116915063b9127c5c90604401600060405180830381600087803b158015611fcb57600080fd5b505af1158015611fdf573d6000803e3d6000fd5b505060048054604051630e6840d960e11b81523392810192909252602482018690526001600160a01b03169250631cd081b29150604401600060405180830381600087803b15801561203057600080fd5b505af1158015612044573d6000803e3d6000fd5b5050505060006120526109bf565b6018549091506000908290600160801b90046001600160801b031661207781876144c4565b61208191906144c4565b61208b91906144f1565b6001600160801b03811660a08501526001600160401b038b166101a0850152600480546040516301a5e4d960e51b81529293506001600160a01b0316916334bc9b20916120de9133918b918991016147bb565b600060405180830381600087803b1580156120f857600080fd5b505af115801561210c573d6000803e3d6000fd5b5050505080600b60008282546121229190614ad4565b925050819055508c600d60006101000a8154816001600160801b0302191690836001600160801b0316021790555042601260006101000a8154816001600160801b0302191690836001600160801b031602179055507f3f7c04c09b19100060129256b7d82f055d0aa72cf17042fb3f2d41d1fffc0260863486846040516121cd94939291906001600160401b0394909416845260208401929092526040830152606082015260800190565b60405180910390a150505050505050505050505050565b6008546001600160a01b031633146121fb57600080fd5b806000036122565760405162461bcd60e51b815260206004820152602260248201527f4c61737420455448207661756c742076616c75652063616e2774206265207a65604482015261726f60f01b6064820152608401610b62565b80600e60008282546122689190614769565b909155505050565b6122786138b9565b6001600160a01b0381161580159061229457506001813b151514155b6122f75760405162461bcd60e51b815260206004820152602e60248201527f41646d696e2063616e277420626520636f6e747261637420616464726573732060448201526d26207a65726f206164647265737360901b6064820152608401610b62565b600a80546001600160a01b0319166001600160a01b0392909216919091179055565b6123216138b9565b611b416000613f9a565b6123336138b9565b8060ff1660000361237f5760405162461bcd60e51b81526020600482015260166024820152754150592073686f756c64206e6f74206265207a65726f60501b6044820152606401610b62565b600a805460ff909216600160a81b0260ff60a81b19909216919091179055565b6123a76138b9565b6001600160a01b038116158015906123bf5750803b15155b6124315760405162461bcd60e51b815260206004820152603860248201527f4f7074696f6e73206d75737420626520636f6e7472616374206164647265737360448201527f20262063616e2774206265207a65726f206164647265737300000000000000006064820152608401610b62565b600580546001600160a01b0319166001600160a01b0392909216919091179055565b61245b6138b9565b600660009054906101000a90046001600160a01b03166001600160a01b031663614619546040518163ffffffff1660e01b81526004016020604051808303816000875af11580156124b0573d6000803e3d6000fd5b505050506040513d601f19601f820116820180604052508101906124d4919061477c565b6124dd57600080fd5b611b41613fea565b6124ed6138b9565b806001600160401b03166000036125505760405162461bcd60e51b815260206004820152602160248201527f57697468647261772074696d65206c696d69742063616e2774206265207a65726044820152606f60f81b6064820152608401610b62565b6015805467ffffffffffffffff19166001600160401b0392909216919091179055565b61257b6138b9565b60048054604080516301865f0760e21b815290516001600160a01b03909216926306197c1c92828201926000929082900301818387803b1580156125be57600080fd5b505af11580156125d2573d6000803e3d6000fd5b50505050565b6125e06138b9565b600a805460ff909216600160a01b0260ff60a01b19909216919091179055565b6126086138b9565b60048054604080516306e1444d60e21b815290516001600160a01b0390921692631b85113492828201926000929082900301818387803b1580156125be57600080fd5b6126536130bb565b600a546001600160a01b0316331461266a57600080fd5b6001600160a01b0383166126cc5760405162461bcd60e51b815260206004820152602360248201527f546f20616464726573732063616e6e6f742062652061207a65726f206164647260448201526265737360e81b6064820152608401610b62565b6001600160a01b03831633036127325760405162461bcd60e51b815260206004820152602560248201527f596f752063616e6e6f74206c697175696461746520796f7572206f776e206173604482015264736574732160d81b6064820152608401610b62565b601280548491849160109061275690600160801b90046001600160801b0316614ae7565b82546001600160801b039182166101009390930a928302919092021990911617905560048054604051634d5c56a560e01b81526000926001600160a01b0390921691634d5c56a5916127ac918791879101614505565b61028060405180830381865afa1580156127ca573d6000803e3d6000fd5b505050506040513d601f19601f820116820180604052508101906127ee9190614548565b915050806101200151156128395760405162461bcd60e51b8152602060048201526012602482015271105b1c9958591e48131a5c5d5a59185d195960721b6044820152606401610b62565b6004805460408051630f27449560e01b815290516001600160a01b0390921692630f2744959282820192602092908290030181865afa158015612880573d6000803e3d6000fd5b505050506040513d601f19601f820116820180604052508101906128a4919061472d565b81602001516001600160801b031611156129005760405162461bcd60e51b815260206004820152601c60248201527f4e6f7420656e6f7567682066756e647320696e207472656173757279000000006044820152606401610b62565b6060810151600090612914866127106146dc565b6001600160401b03166129279190614707565b9050611f40816001600160801b0316111561297b5760405162461bcd60e51b8152602060048201526014602482015273596f752063616e6e6f74206c697175696461746560601b6044820152606401610b62565b600161012083015260185460115460a08401516000926001600160801b03600160801b9091048116926129b0929091166144c4565b6129ba91906144f1565b601854909150600160801b90046001600160801b03166129d86109bf565b6129e291906144f1565b60115560608301516020840151829160009160649184918391612a0491614746565b612a0e9190614707565b612a18919061449d565b612a2390600a614746565b612a2d9190614707565b905060008183606488606001518960200151612a499190614746565b612a539190614707565b612a5d919061449d565b612a67919061449d565b90506000612a758385614991565b6040805160808101825260008082526020820181905291810182905260608101919091529091506040518060800160405280836001600160801b03168152602001846001600160801b0316815260200189602001516001600160801b03168152602001600260009054906101000a90046001600160a01b03166001600160a01b031663dc91e7526040518163ffffffff1660e01b81526004016020604051808303816000875af1158015612b2d573d6000803e3d6000fd5b505050506040513d601f19601f82011682018060405250810190612b51919061472d565b90526002546012546040805163b3013d4d60e01b8152600160801b9092046001600160801b03908116600484015284518116602484015260208501518116604484015290840151166064820152606083015160848201529192506001600160a01b03169063b3013d4d9060a401600060405180830381600087803b158015612bd857600080fd5b505af1158015612bec573d6000803e3d6000fd5b505060025460405163dc55b19360e01b81526001600160801b03861660048201526001600160a01b03909116925063dc55b1939150602401600060405180830381600087803b158015612c3e57600080fd5b505af1158015612c52573d6000803e3d6000fd5b5050600254604051634cae95d360e01b81526001600160801b03861660048201526001600160a01b039091169250634cae95d39150602401600060405180830381600087803b158015612ca457600080fd5b505af1158015612cb8573d6000803e3d6000fd5b505050506000846001600160801b031687876001600160801b0316612cdd9190614769565b612ce79190614ad4565b600480546040516308fc416760e21b81529293506001600160a01b0316916323f1059c91612d1b9185910190815260200190565b600060405180830381600087803b158015612d3557600080fd5b505af1158015612d49573d6000803e3d6000fd5b5050600480546040516301a5e4d960e51b81526001600160a01b0390911693506334bc9b209250612d80918f918f918f91016147bb565b600060405180830381600087803b158015612d9a57600080fd5b505af1158015612dae573d6000803e3d6000fd5b50506004805460808d0151604051630adfd5a560e21b81526001600160a01b039092169450632b7f56949350612de692309201614799565b600060405180830381600087803b158015612e0057600080fd5b505af1158015612e14573d6000803e3d6000fd5b505060015460085460808d01516040516363a9f09360e11b8152600095506001600160a01b03938416945063c753e12693612e5493169190600401614799565b6020604051808303816000875af1158015612e73573d6000803e3d6000fd5b505050506040513d601f19601f82011682018060405250810190612e97919061477c565b905080612eb757604051632105f02360e11b815260040160405180910390fd5b600160009054906101000a90046001600160a01b03166001600160a01b03166318160ddd6040518163ffffffff1660e01b8152600401602060405180830381865afa158015612f0a573d6000803e3d6000fd5b505050506040513d601f19601f82011682018060405250810190612f2e919061472d565b601355505050505050505050505050505050565b612f4a6138b9565b60048054604051630376724160e41b81526001600160401b038416928101929092526001600160a01b031690633767241090602401611a7a565b612f8c6138b9565b6001600160a01b038116612ff15760405162461bcd60e51b815260206004820152602660248201527f4f776e61626c653a206e6577206f776e657220697320746865207a65726f206160448201526564647265737360d01b6064820152608401610b62565b612ffa81613f9a565b50565b600083801561309d576001841680156130185785925061301c565b8392505b50600283046002850494505b841561309757858602868782041461303f57600080fd5b8181018181101561304f57600080fd5b859004965050600185161561308c57858302838782041415871515161561307557600080fd5b8181018181101561308557600080fd5b8590049350505b600285049450613028565b506130b3565b8380156130ad57600092506130b1565b8392505b505b509392505050565b600054600160a01b900460ff1615611b415760405162461bcd60e51b815260206004820152601060248201526f14185d5cd8589b194e881c185d5cd95960821b6044820152606401610b62565b60006001600160a01b0384166131605760405162461bcd60e51b815260206004820152601f60248201527f426f72726f7765722063616e6e6f74206265207a65726f2061646472657373006044820152606401610b62565b826000036131a75760405162461bcd60e51b8152602060048201526014602482015273416d6f756e742063616e2774206265207a65726f60601b6044820152606401610b62565b60006131b48360646146dc565b6001600160401b03166131c8856064614746565b6131d29190614707565b6003546040516340c10f1960e01b81529192506000916001600160a01b03909116906340c10f199061320a9089908690600401614799565b6020604051808303816000875af1158015613229573d6000803e3d6000fd5b505050506040513d601f19601f8201168201806040525081019061324d919061477c565b90508061326d576040516368a3803760e11b815260040160405180910390fd5b600360009054906101000a90046001600160a01b03166001600160a01b03166318160ddd6040518163ffffffff1660e01b8152600401602060405180830381865afa1580156132c0573d6000803e3d6000fd5b505050506040513d601f19601f820116820180604052508101906132e4919061472d565b60145550949350505050565b6133358282604051602401613306929190614b0d565b60408051601f198184030181529190526020810180516001600160e01b0316632d839cb360e21b17905261402d565b5050565b60155461334f906001600160401b031684614b2f565b6001600160401b03164210156133b85760405162461bcd60e51b815260206004820152602860248201527f41206d6f6e7468206e6f742079657420636f6d706c657465642073696e636520604482015267776974686472617760c01b6064820152608401610b62565b6003546040516370a0823160e01b81523360048201526001600160801b038416916001600160a01b0316906370a0823190602401602060405180830381865afa158015613409573d6000803e3d6000fd5b505050506040513d601f19601f8201168201806040525081019061342d919061472d565b146134845760405162461bcd60e51b815260206004820152602160248201527f446f6e2774206861766520656e6f7567682050726f746f636f6c20546f6b656e6044820152607360f81b6064820152608401610b62565b60048054604051634d5c56a560e01b81526000926001600160a01b0390921691634d5c56a5916134b89133918b9101614505565b61028060405180830381865afa1580156134d6573d6000803e3d6000fd5b505050506040513d601f19601f820116820180604052508101906134fa9190614548565b600480546020830151604051631b35376f60e21b81529395506001600160a01b039091169350636cd4ddbc926135339233929101614799565b600060405180830381600087803b15801561354d57600080fd5b505af1158015613561573d6000803e3d6000fd5b5050600160e08401525050600260c082015260048054604051630edd59bf60e21b81526001600160a01b0390911691633b7566fc916135a4913391889101614799565b600060405180830381600087803b1580156135be57600080fd5b505af11580156135d2573d6000803e3d6000fd5b505060006101808401525050600480546040516301a5e4d960e51b81526001600160a01b03909116916334bc9b20916136119133918b918791016147bb565b600060405180830381600087803b15801561362b57600080fd5b505af115801561363f573d6000803e3d6000fd5b505060045460808401516001600160a01b039091169250632b7f56949150309060649061366d906032614746565b6136779190614707565b6040518363ffffffff1660e01b8152600401613694929190614799565b600060405180830381600087803b1580156136ae57600080fd5b505af11580156136c2573d6000803e3d6000fd5b50506001546008546101e08501516040516363a9f09360e11b81526001600160a01b0392831660048201526024810191909152600094509116915063c753e126906044016020604051808303816000875af1158015613725573d6000803e3d6000fd5b505050506040513d601f19601f82011682018060405250810190613749919061477c565b905080613769576040516303f7009160e51b815260040160405180910390fd5b6003546040516363a9f09360e11b81526000916001600160a01b03169063c753e1269061379c9033908990600401614799565b6020604051808303816000875af11580156137bb573d6000803e3d6000fd5b505050506040513d601f19601f820116820180604052508101906137df919061477c565b9050806137ff576040516303f7009160e51b815260040160405180910390fd5b6000600460009054906101000a90046001600160a01b03166001600160a01b031663fe6520ae338c888d8d6040518663ffffffff1660e01b815260040161384a9594939291906149b1565b6020604051808303816000875af1158015613869573d6000803e3d6000fd5b505050506040513d601f19601f8201168201806040525081019061388d919061477c565b9050806138ad57604051635e5e86d560e01b815260040160405180910390fd5b50505050505050505050565b6000546001600160a01b03163314611b415760405162461bcd60e51b815260206004820181905260248201527f4f776e61626c653a2063616c6c6572206973206e6f7420746865206f776e65726044820152606401610b62565b61391b614036565b6000805460ff60a01b191690557f5db9ee0a495bf2e6ff9c91a7834c1ba4fdd244a5e8aa4e537bd38aeae4b073aa335b6040516001600160a01b03909116815260200160405180910390a1565b6000808260000361398c576040516315e73e9f60e01b815260040160405180910390fd5b6000600460009054906101000a90046001600160a01b03166001600160a01b03166345aeb0ce6040518163ffffffff1660e01b81526004016020604051808303816000875af11580156139e3573d6000803e3d6000fd5b505050506040513d601f19601f82011682018060405250810190613a07919061446a565b600d549091506001600160801b0316841115613a4857600d546001600160801b0380831691613a37911686614769565b613a4191906144c4565b9150613a70565b600d546001600160801b0380831691613a6391879116614769565b613a6d91906144c4565b91505b600080826001600160801b0316600003613b4d57613a8e86886144c4565b600e819055600254604080516315d9753160e11b815290519294506001600160a01b0390911691632bb2ea62916004808201926020929091908290030181865afa158015613ae0573d6000803e3d6000fd5b505050506040513d601f19601f82011682018060405250810190613b04919061446a565b6001600160801b03908116601055600d54168610613b325783601054613b2a9190614ad4565b600f55613b44565b83601054613b409190614769565b600f555b50600f54613c5c565b613b5786886144c4565b600e54613b649190614ad4565b915081600e819055506000600260009054906101000a90046001600160a01b03166001600160a01b0316632bb2ea626040518163ffffffff1660e01b8152600401602060405180830381865afa158015613bc2573d6000803e3d6000fd5b505050506040513d601f19601f82011682018060405250810190613be6919061446a565b600d546001600160801b039182169250168710613c2a578460105482613c0c9190614769565b600f54613c199190614ad4565b613c239190614ad4565b9150613c53565b8460105482613c399190614769565b600f54613c469190614ad4565b613c509190614769565b91505b601055600f8190555b6017546000908390613c7e90600160801b90046001600160801b0316846144c4565b613c8891906144f1565b955050505050505b92915050565b60006001600160a01b038516613cee5760405162461bcd60e51b815260206004820152601f60248201527f426f72726f7765722063616e6e6f74206265207a65726f2061646472657373006044820152606401610b62565b600a54600160a01b900460ff16600003613d705760405162461bcd60e51b815260206004820152603860248201527f4c5456206d7573742062652073657420746f206e6f6e2d7a65726f2076616c7560448201527f65206265666f72652070726f766964696e67206c6f616e7300000000000000006064820152608401610b62565b6000613d856001600160801b038516866144c4565b601854600a549192506000916001600160801b0390911690613db190600160a01b900460ff16846144c4565b613dbb91906144f1565b6001549091506000906001600160a01b03166340c10f1989613ddd8886614769565b6040516001600160e01b031960e085901b1681526001600160a01b03909216600483015260248201526044016020604051808303816000875af1158015613e28573d6000803e3d6000fd5b505050506040513d601f19601f82011682018060405250810190613e4c919061477c565b6001546008546040516340c10f1960e01b81526001600160a01b039182166004820152602481018990529293506000929116906340c10f19906044016020604051808303816000875af1158015613ea7573d6000803e3d6000fd5b505050506040513d601f19601f82011682018060405250810190613ecb919061477c565b905081613eeb576040516309ad720160e01b815260040160405180910390fd5b80613f09576040516309ad720160e01b815260040160405180910390fd5b600160009054906101000a90046001600160a01b03166001600160a01b03166318160ddd6040518163ffffffff1660e01b8152600401602060405180830381865afa158015613f5c573d6000803e3d6000fd5b505050506040513d601f19601f82011682018060405250810190613f80919061472d565b601355613f8d8684614769565b9998505050505050505050565b600080546001600160a01b038381166001600160a01b0319831681178455604051919092169283917f8be0079c531659141344cd1fd0a4f28419497f9722a3daafe3b4186f6b6457e09190a35050565b613ff26130bb565b6000805460ff60a01b1916600160a01b1790557f62e78cea01bee320cd4e420270b5ea74000d11b0c9f74754ebdbfc544b05a25861394b3390565b612ffa81614086565b600054600160a01b900460ff16611b415760405162461bcd60e51b815260206004820152601460248201527314185d5cd8589b194e881b9bdd081c185d5cd95960621b6044820152606401610b62565b60006a636f6e736f6c652e6c6f679050600080835160208501845afa505050565b6000815180845260005b818110156140cd576020818501810151868301820152016140b1565b506000602082860101526020601f19601f83011685010191505092915050565b602081526000610ad660208301846140a7565b634e487b7160e01b600052604160045260246000fd5b60405161026081016001600160401b038111828210171561413957614139614100565b60405290565b60006020828403121561415157600080fd5b81356001600160401b038082111561416857600080fd5b818401915084601f83011261417c57600080fd5b81358181111561418e5761418e614100565b604051601f8201601f19908116603f011681019083821181831017156141b6576141b6614100565b816040528281528760208487010111156141cf57600080fd5b826020860160208301376000928101602001929092525095945050505050565b80356001600160a01b038116811461420657600080fd5b919050565b6001600160401b0381168114612ffa57600080fd5b600080600080600060a0868803121561423857600080fd5b614241866141ef565b945060208601356142518161420b565b935060408601356142618161420b565b925060608601356142718161420b565b915060808601356142818161420b565b809150509295509295909350565b8015158114612ffa57600080fd5b60ff81168114612ffa57600080fd5b600080600080600080600080610100898b0312156142c957600080fd5b6142d2896141ef565b97506142e060208a016141ef565b96506040890135955060608901356142f78161428f565b94506080890135935060a089013561430e8161429d565b979a969950949793969295929450505060c08201359160e0013590565b60006020828403121561433d57600080fd5b610ad6826141ef565b60006020828403121561435857600080fd5b8135610ad68161420b565b6001600160801b0381168114612ffa57600080fd5b600080600080600060a0868803121561439057600080fd5b853561439b81614363565b945060208601356143ab8161420b565b93506040860135600581106143bf57600080fd5b925060608601356143cf8161420b565b949793965091946080013592915050565b6000602082840312156143f257600080fd5b5035919050565b60006020828403121561440b57600080fd5b8135610ad68161429d565b60008060006060848603121561442b57600080fd5b614434846141ef565b925060208401356144448161420b565b915060408401356144548161420b565b809150509250925092565b805161420681614363565b60006020828403121561447c57600080fd5b8151610ad681614363565b634e487b7160e01b600052601160045260246000fd5b6001600160801b038281168282160390808211156144bd576144bd614487565b5092915050565b8082028115828204841417613c9057613c90614487565b634e487b7160e01b600052601260045260246000fd5b600082614500576145006144db565b500490565b6001600160a01b039290921682526001600160401b0316602082015260400190565b80516142068161420b565b80516142068161429d565b80516142068161428f565b60008082840361028081121561455d57600080fd5b83516145688161420b565b9250610260601f19820181131561457e57600080fd5b614586614116565b915061459460208601614527565b82526145a26040860161445f565b60208301526145b360608601614527565b60408301526145c46080860161445f565b60608301526145d560a0860161445f565b60808301526145e660c0860161445f565b60a08301526145f760e08601614532565b60c083015261010061460a81870161453d565b60e084015261012061461d81880161445f565b82850152610140915061463182880161453d565b90840152610160614643878201614527565b828501526101809150614657828801614527565b908401526101a061466987820161445f565b828501526101c0915061467d828801614527565b908401526101e061468f87820161445f565b8285015261020091508187015181850152506102206146af818801614527565b8285015261024091508187015181850152506146cc82870161445f565b9083015250919491935090915050565b6001600160401b038181168382160280821691908281146146ff576146ff614487565b505092915050565b60006001600160801b0380841680614721576147216144db565b92169190910492915050565b60006020828403121561473f57600080fd5b5051919050565b6001600160801b038181168382160280821691908281146146ff576146ff614487565b81810381811115613c9057613c90614487565b60006020828403121561478e57600080fd5b8151610ad68161428f565b6001600160a01b039290921682526001600160801b0316602082015260400190565b6001600160a01b03841681526001600160401b03838116602083015282511660408201526102a0810160208301516001600160801b03811660608401525060408301516001600160401b03811660808401525060608301516001600160801b03811660a08401525060808301516001600160801b03811660c08401525060a08301516001600160801b03811660e08401525060c08301516101006148638185018360ff169052565b60e0850151915061012061487a8186018415159052565b90850151915061014090614898858301846001600160801b03169052565b85015191506101606148ad8582018415159052565b908501519150610180906148cb858301846001600160401b03169052565b85015191506101a06148e7858201846001600160401b03169052565b9085015191506101c090614905858301846001600160801b03169052565b85015191506101e0614921858201846001600160401b03169052565b9085015191506102009061493f858301846001600160801b03169052565b850151610220858101919091529085015191506102409061496a828601846001600160401b03169052565b8501516102608501528401516001600160801b038116610280850152905050949350505050565b6001600160801b038181168382160190808211156144bd576144bd614487565b6001600160a01b0395861681529390941660208401526001600160801b039190911660408301526001600160401b039081166060830152909116608082015260a00190565b805169ffffffffffffffffffff8116811461420657600080fd5b600080600080600060a08688031215614a2857600080fd5b614a31866149f6565b9450602086015193506040860151925060608601519150614a54608087016149f6565b90509295509295909350565b60008060408385031215614a7357600080fd5b8251614a7e8161428f565b6020840151909250614a8f8161420b565b809150509250929050565b838152602081018390526060810160058310614ac657634e487b7160e01b600052602160045260246000fd5b826040830152949350505050565b80820180821115613c9057613c90614487565b60006001600160801b03808316818103614b0357614b03614487565b6001019392505050565b604081526000614b2060408301856140a7565b90508260208301529392505050565b6001600160401b038181168382160190808211156144bd576144bd61448756fea2646970667358221220f332983a500af9bc866cd61c0e2e0fd9de29a0b0b309c0624718be19fd40bb6f64736f6c63430008120033","linkReferences":{}},"methodIdentifiers":{"APY()":"ef8bd305","DOMAIN_SEPARATOR()":"3644e515","PERMIT_TYPEHASH()":"30adf81f","Trinity()":"e6d97f17","admin()":"f851a440","calculateCumulativeRate()":"181ab6db","cds()":"b4eb10ce","cdsAddress()":"fe925884","depositToAaveProtocol()":"98afda43","depositToCompoundProtocol()":"b8f49090","depositTokens(uint128,uint64,uint8,uint64,uint256)":"5e34783e","getAPY()":"d2cbf7ad","getLTV()":"4ed2b8ac","getMessageHash(bytes)":"0a1028c4","getUSDValue()":"50593af7","initializeTreasury(address)":"3ed086f4","lastCDSPoolValue()":"84e92128","lastCumulativeRate()":"8e4db39a","lastEthVaultValue()":"99eb2f6c","lastEthprice()":"2feabb52","lastTotalCDSPool()":"e42f8090","liquidate(address,uint64,uint64)":"d5c28dba","multiSign()":"9e6fe439","name()":"06fdde03","noOfLiquidations()":"38a912d5","options()":"1069143a","owner()":"8da5cb5b","pause()":"8456cb59","paused()":"5c975abb","permit(address,address,uint256,bool,uint256,uint8,bytes32,bytes32)":"2ccd9ed4","priceFeedAddress()":"e0abca0b","protocolToken()":"1a465fe1","renounceOwnership()":"715018a6","setAPY(uint8)":"73ca55a2","setAdmin(address)":"704b6c02","setLTV(uint8)":"aad2476d","setOptions(address)":"7d6dff7d","setWithdrawTimeLimit(uint64)":"868c10d2","totalAmintSupply()":"b3aebb9c","totalDiracSupply()":"606303f8","totalNormalizedAmount()":"6fdc5203","transferOwnership(address)":"f2fde38b","treasury()":"61d027b3","treasuryAddress()":"c5f956af","unpause()":"3f4ba83a","updateLastEthVaultValue(uint256)":"661b7d3e","version()":"54fd4d50","withDraw(address,uint64,uint64,uint64,uint64)":"2bf16927","withdrawFromAaveProtocol(uint64)":"ec11dab2","withdrawFromCompoundProtocol(uint64)":"3f3006b4","withdrawTimeLimit()":"4f04a86b"},"id":3}