{"abi":[{"type":"constructor","inputs":[{"name":"_tokenAddress","type":"address","internalType":"address"},{"name":"_cds","type":"address","internalType":"address"},{"name":"_protocolToken","type":"address","internalType":"address"},{"name":"_priceFeedAddress","type":"address","internalType":"address"}],"stateMutability":"nonpayable"},{"type":"function","name":"APY","inputs":[],"outputs":[{"name":"","type":"uint8","internalType":"uint8"}],"stateMutability":"view"},{"type":"function","name":"Trinity","inputs":[],"outputs":[{"name":"","type":"address","internalType":"contract ITrinityToken"}],"stateMutability":"view"},{"type":"function","name":"admin","inputs":[],"outputs":[{"name":"","type":"address","internalType":"address"}],"stateMutability":"view"},{"type":"function","name":"calculateCumulativeRate","inputs":[],"outputs":[{"name":"","type":"uint256","internalType":"uint256"}],"stateMutability":"nonpayable"},{"type":"function","name":"cds","inputs":[],"outputs":[{"name":"","type":"address","internalType":"contract CDSInterface"}],"stateMutability":"view"},{"type":"function","name":"cdsAddress","inputs":[],"outputs":[{"name":"","type":"address","internalType":"address"}],"stateMutability":"view"},{"type":"function","name":"depositToAaveProtocol","inputs":[],"outputs":[],"stateMutability":"nonpayable"},{"type":"function","name":"depositToCompoundProtocol","inputs":[],"outputs":[],"stateMutability":"nonpayable"},{"type":"function","name":"depositTokens","inputs":[{"name":"_ethPrice","type":"uint128","internalType":"uint128"},{"name":"_depositTime","type":"uint64","internalType":"uint64"},{"name":"_strikePrice","type":"uint64","internalType":"uint64"}],"outputs":[],"stateMutability":"payable"},{"type":"function","name":"getAPY","inputs":[],"outputs":[{"name":"","type":"uint8","internalType":"uint8"}],"stateMutability":"view"},{"type":"function","name":"getLTV","inputs":[],"outputs":[{"name":"","type":"uint8","internalType":"uint8"}],"stateMutability":"view"},{"type":"function","name":"getUSDValue","inputs":[],"outputs":[{"name":"","type":"uint256","internalType":"uint256"}],"stateMutability":"view"},{"type":"function","name":"initializeTreasury","inputs":[{"name":"_treasury","type":"address","internalType":"address"}],"outputs":[],"stateMutability":"nonpayable"},{"type":"function","name":"lastCDSPoolValue","inputs":[],"outputs":[{"name":"","type":"uint256","internalType":"uint256"}],"stateMutability":"view"},{"type":"function","name":"lastCumulativeRate","inputs":[],"outputs":[{"name":"","type":"uint256","internalType":"uint256"}],"stateMutability":"view"},{"type":"function","name":"lastEthVaultValue","inputs":[],"outputs":[{"name":"","type":"uint256","internalType":"uint256"}],"stateMutability":"view"},{"type":"function","name":"lastEthprice","inputs":[],"outputs":[{"name":"","type":"uint128","internalType":"uint128"}],"stateMutability":"view"},{"type":"function","name":"lastTotalCDSPool","inputs":[],"outputs":[{"name":"","type":"uint256","internalType":"uint256"}],"stateMutability":"view"},{"type":"function","name":"liquidate","inputs":[{"name":"_user","type":"address","internalType":"address"},{"name":"_index","type":"uint64","internalType":"uint64"},{"name":"currentEthPrice","type":"uint64","internalType":"uint64"}],"outputs":[],"stateMutability":"nonpayable"},{"type":"function","name":"noOfLiquidations","inputs":[],"outputs":[{"name":"","type":"uint128","internalType":"uint128"}],"stateMutability":"view"},{"type":"function","name":"options","inputs":[],"outputs":[{"name":"","type":"address","internalType":"contract IOptions"}],"stateMutability":"view"},{"type":"function","name":"owner","inputs":[],"outputs":[{"name":"","type":"address","internalType":"address"}],"stateMutability":"view"},{"type":"function","name":"priceFeedAddress","inputs":[],"outputs":[{"name":"","type":"address","internalType":"address"}],"stateMutability":"view"},{"type":"function","name":"protocolToken","inputs":[],"outputs":[{"name":"","type":"address","internalType":"contract IProtocolToken"}],"stateMutability":"view"},{"type":"function","name":"renounceOwnership","inputs":[],"outputs":[],"stateMutability":"nonpayable"},{"type":"function","name":"setAPY","inputs":[{"name":"_apy","type":"uint8","internalType":"uint8"}],"outputs":[],"stateMutability":"nonpayable"},{"type":"function","name":"setAdmin","inputs":[{"name":"_admin","type":"address","internalType":"address"}],"outputs":[],"stateMutability":"nonpayable"},{"type":"function","name":"setLTV","inputs":[{"name":"_LTV","type":"uint8","internalType":"uint8"}],"outputs":[],"stateMutability":"nonpayable"},{"type":"function","name":"setOptions","inputs":[{"name":"_options","type":"address","internalType":"address"}],"outputs":[],"stateMutability":"nonpayable"},{"type":"function","name":"totalAmintSupply","inputs":[],"outputs":[{"name":"","type":"uint256","internalType":"uint256"}],"stateMutability":"view"},{"type":"function","name":"totalDiracSupply","inputs":[],"outputs":[{"name":"","type":"uint256","internalType":"uint256"}],"stateMutability":"view"},{"type":"function","name":"totalNormalizedAmount","inputs":[],"outputs":[{"name":"","type":"uint256","internalType":"uint256"}],"stateMutability":"view"},{"type":"function","name":"transferOwnership","inputs":[{"name":"newOwner","type":"address","internalType":"address"}],"outputs":[],"stateMutability":"nonpayable"},{"type":"function","name":"treasury","inputs":[],"outputs":[{"name":"","type":"address","internalType":"contract ITreasury"}],"stateMutability":"view"},{"type":"function","name":"treasuryAddress","inputs":[],"outputs":[{"name":"","type":"address","internalType":"address"}],"stateMutability":"view"},{"type":"function","name":"updateLastEthVaultValue","inputs":[{"name":"_amount","type":"uint256","internalType":"uint256"}],"outputs":[],"stateMutability":"nonpayable"},{"type":"function","name":"withDraw","inputs":[{"name":"_toAddress","type":"address","internalType":"address"},{"name":"_index","type":"uint64","internalType":"uint64"},{"name":"_ethPrice","type":"uint64","internalType":"uint64"},{"name":"_withdrawTime","type":"uint64","internalType":"uint64"},{"name":"_bondRatio","type":"uint64","internalType":"uint64"}],"outputs":[],"stateMutability":"nonpayable"},{"type":"function","name":"withdrawFromAaveProtocol","inputs":[{"name":"index","type":"uint64","internalType":"uint64"}],"outputs":[],"stateMutability":"nonpayable"},{"type":"function","name":"withdrawFromCompoundProtocol","inputs":[{"name":"index","type":"uint64","internalType":"uint64"}],"outputs":[],"stateMutability":"nonpayable"},{"type":"event","name":"Deposit","inputs":[{"name":"index","type":"uint64","indexed":false,"internalType":"uint64"},{"name":"depositedAmount","type":"uint256","indexed":false,"internalType":"uint256"},{"name":"borrowAmount","type":"uint256","indexed":false,"internalType":"uint256"},{"name":"normalizedAmount","type":"uint256","indexed":false,"internalType":"uint256"}],"anonymous":false},{"type":"event","name":"OwnershipTransferred","inputs":[{"name":"previousOwner","type":"address","indexed":true,"internalType":"address"},{"name":"newOwner","type":"address","indexed":true,"internalType":"address"}],"anonymous":false},{"type":"event","name":"Withdraw","inputs":[{"name":"borrowDebt","type":"uint256","indexed":false,"internalType":"uint256"},{"name":"withdrawAmount","type":"uint128","indexed":false,"internalType":"uint128"},{"name":"noOfAbond","type":"uint128","indexed":false,"internalType":"uint128"}],"anonymous":false},{"type":"error","name":"Borrowing_DepositFailed","inputs":[]},{"type":"error","name":"Borrowing_GettingETHPriceFailed","inputs":[]},{"type":"error","name":"Borrowing_LiquidateBurnFailed","inputs":[]},{"type":"error","name":"Borrowing_LiquidateEthTransferToCdsFailed","inputs":[]},{"type":"error","name":"Borrowing_MUSDMintFailed","inputs":[]},{"type":"error","name":"Borrowing_WithdrawBurnFailed","inputs":[]},{"type":"error","name":"Borrowing_WithdrawEthTransferFailed","inputs":[]},{"type":"error","name":"Borrowing_WithdrawMUSDTransferFailed","inputs":[]},{"type":"error","name":"Borrowing_pTokenMintFailed","inputs":[]}],"bytecode":{"object":"0x608060405272989680000000000000000000000000000f42406014557b033b2e3c9fd0803ce8000000000000000000000000000000000027106015553480156200004857600080fd5b506040516200416e3803806200416e8339810160408190526200006b916200021a565b620000763362000112565b600180546001600160a01b038087166001600160a01b031992831617909255600280548684169083168117909155600880548316909117905560038054858416908316179055600b805492841692909116919091179055620000d762000162565b600c80546001600160801b03199081166001600160801b03938416179091556011805490911642909216919091179055506200030792505050565b600080546001600160a01b038381166001600160a01b0319831681178455604051919092169283917f8be0079c531659141344cd1fd0a4f28419497f9722a3daafe3b4186f6b6457e09190a35050565b600b5460408051633fabe5a360e21b815290516000926001600160a01b0316918391839163feaf968c9160048083019260a09291908290030181865afa158015620001b1573d6000803e3d6000fd5b505050506040513d601f19601f82011682018060405250810190620001d791906200028f565b5050601454919350620001f69250506001600160801b031682620002e4565b9250505090565b80516001600160a01b03811681146200021557600080fd5b919050565b600080600080608085870312156200023157600080fd5b6200023c85620001fd565b93506200024c60208601620001fd565b92506200025c60408601620001fd565b91506200026c60608601620001fd565b905092959194509250565b80516001600160501b03811681146200021557600080fd5b600080600080600060a08688031215620002a857600080fd5b620002b38662000277565b9450602086015193506040860151925060608601519150620002d86080870162000277565b90509295509295909350565b6000826200030257634e487b7160e01b600052601260045260246000fd5b500490565b613e5780620003176000396000f3fe6080604052600436106102305760003560e01c806384e921281161012e578063d2cbf7ad116100ab578063ec11dab21161006f578063ec11dab214610641578063ef8bd30514610661578063f2fde38b14610682578063f851a440146106a2578063fe925884146106c257600080fd5b8063d2cbf7ad146105ac578063d5c28dba146105cb578063e0abca0b146105eb578063e42f80901461060b578063e6d97f171461062157600080fd5b8063aad2476d116100f2578063aad2476d14610521578063b3aebb9c14610541578063b4eb10ce14610557578063b8f4909014610577578063c5f956af1461058c57600080fd5b806384e92128146104ac5780638da5cb5b146104c25780638e4db39a146104e057806398afda43146104f657806399eb2f6c1461050b57600080fd5b80634ed2b8ac116101bc5780636fdc5203116101805780636fdc520314610421578063704b6c0214610437578063715018a61461045757806373ca55a21461046c5780637d6dff7d1461048c57600080fd5b80634ed2b8ac1461038957806350593af7146103b6578063606303f8146103cb57806361d027b3146103e1578063661b7d3e1461040157600080fd5b80632bf16927116102035780632bf16927146102ca5780632feabb52146102ea57806338a912d5146103225780633ed086f4146103495780633f3006b41461036957600080fd5b80630e93f616146102355780631069143a1461024a578063181ab6db146102875780631a465fe1146102aa575b600080fd5b610248610243366004613631565b6106e2565b005b34801561025657600080fd5b5060055461026a906001600160a01b031681565b6040516001600160a01b0390911681526020015b60405180910390f35b34801561029357600080fd5b5061029c610bbc565b60405190815260200161027e565b3480156102b657600080fd5b5060035461026a906001600160a01b031681565b3480156102d657600080fd5b506102486102e5366004613698565b610cda565b3480156102f657600080fd5b50600c5461030a906001600160801b031681565b6040516001600160801b03909116815260200161027e565b34801561032e57600080fd5b5060115461030a90600160801b90046001600160801b031681565b34801561035557600080fd5b50610248610364366004613707565b611903565b34801561037557600080fd5b50610248610384366004613722565b6119c1565b34801561039557600080fd5b50600954600160a01b900460ff165b60405160ff909116815260200161027e565b3480156103c257600080fd5b5061029c611a34565b3480156103d757600080fd5b5061029c60135481565b3480156103ed57600080fd5b5060045461026a906001600160a01b031681565b34801561040d57600080fd5b5061024861041c36600461373f565b611aca565b34801561042d57600080fd5b5061029c600a5481565b34801561044357600080fd5b50610248610452366004613707565b611b56565b34801561046357600080fd5b50610248611bff565b34801561047857600080fd5b50610248610487366004613767565b611c13565b34801561049857600080fd5b506102486104a7366004613707565b611c87565b3480156104b857600080fd5b5061029c600e5481565b3480156104ce57600080fd5b506000546001600160a01b031661026a565b3480156104ec57600080fd5b5061029c60105481565b34801561050257600080fd5b50610248611d3b565b34801561051757600080fd5b5061029c600d5481565b34801561052d57600080fd5b5061024861053c366004613767565b611da0565b34801561054d57600080fd5b5061029c60125481565b34801561056357600080fd5b5060025461026a906001600160a01b031681565b34801561058357600080fd5b50610248611dc8565b34801561059857600080fd5b5060075461026a906001600160a01b031681565b3480156105b857600080fd5b50600954600160a81b900460ff166103a4565b3480156105d757600080fd5b506102486105e6366004613784565b611e13565b3480156105f757600080fd5b50600b5461026a906001600160a01b031681565b34801561061757600080fd5b5061029c600f5481565b34801561062d57600080fd5b5060015461026a906001600160a01b031681565b34801561064d57600080fd5b5061024861065c366004613722565b612702565b34801561066d57600080fd5b506009546103a490600160a81b900460ff1681565b34801561068e57600080fd5b5061024861069d366004613707565b612744565b3480156106ae57600080fd5b5060095461026a906001600160a01b031681565b3480156106ce57600080fd5b5060085461026a906001600160a01b031681565b600034116107375760405162461bcd60e51b815260206004820152601a60248201527f43616e6e6f74206465706f736974207a65726f20746f6b656e7300000000000060448201526064015b60405180910390fd5b343331116107ad5760405162461bcd60e51b815260206004820152603e60248201527f596f7520646f206e6f7420686176652073756666696369656e742062616c616e60448201527f636520746f20657865637574652074686973207472616e73616374696f6e0000606482015260840161072e565b60006107c234856001600160801b03166127bd565b6015549091506107dc906001600160801b031660026137b8565b6001600160801b0316816001600160401b031610156108365760405162461bcd60e51b81526020600482015260166024820152754e6f7420656e6f7567682066756e6420696e2043445360501b604482015260640161072e565b6004805460405163dcb71f3f60e01b815233928101929092526001600160801b03861660248301526001600160401b038516604483015260009182916001600160a01b03169063dcb71f3f903490606401604080518083038185885af11580156108a4573d6000803e3d6000fd5b50505050506040513d601f19601f820116820180604052508101906108c991906137fe565b91509150816108eb57604051634fad3b0960e01b815260040160405180910390fd5b60006108f8333489612aef565b60048054604051634d5c56a560e01b81529293506000926001600160a01b0390911691634d5c56a59161092f913391889101613835565b61020060405180830381865afa15801561094d573d6000803e3d6000fd5b505050506040513d601f19601f8201168201806040525081019061097191906138a4565b6001600160801b038416608082015260048054604051632e449f1760e21b81523392810192909252600160248301529193506001600160a01b03909116915063b9127c5c90604401600060405180830381600087803b1580156109d357600080fd5b505af11580156109e7573d6000803e3d6000fd5b505060048054604051630e6840d960e11b81523392810192909252602482018690526001600160a01b03169250631cd081b29150604401600060405180830381600087803b158015610a3857600080fd5b505af1158015610a4c573d6000803e3d6000fd5b505050506000610a5a610bbc565b6015549091506000908290600160801b90046001600160801b0316610a7f81876139f8565b610a8991906139f8565b610a939190613a25565b6001600160801b03811660a08501526001600160401b0389166101a08501526004805460405163f19aca5760e01b81529293506001600160a01b03169163f19aca5791610ae69133918a91899101613a39565b600060405180830381600087803b158015610b0057600080fd5b505af1158015610b14573d6000803e3d6000fd5b5050505080600a6000828254610b2a9190613bae565b9091555050600c80546001600160801b038c81166001600160801b031992831617909255601180544290931692909116919091179055604080516001600160401b0387168152346020820152908101859052606081018290527f3f7c04c09b19100060129256b7d82f055d0aa72cf17042fb3f2d41d1fffc02609060800160405180910390a150505050505050505050565b60048054604080516322d7586760e11b8152905160009384936001600160a01b0316926345aeb0ce9281830192602092829003018187875af1158015610c06573d6000803e3d6000fd5b505050506040513d601f19601f82011682018060405250810190610c2a9190613bc1565b90506b033b2e3cb548ff197d3905a160006001600160801b0383168103610c6057506001600160801b0381166010819055610cd3565b601154600090610c79906001600160801b031642613bde565b6015546001600160801b039182169250610ca191858116918491600160801b90910416612d35565b601054610cae91906139f8565b601554909250610cce90600160801b90046001600160801b031683613a25565b601055505b9392505050565b6001600160a01b03851615801590610cf657506001853b151514155b610d5b5760405162461bcd60e51b815260206004820152603060248201527f546f20616464726573732063616e6e6f742062652061207a65726f20616e642060448201526f636f6e7472616374206164647265737360801b606482015260840161072e565b600c80546001600160401b0385166001600160801b031991821617909155601180549091166001600160801b03421617905560048054604051634d5c56a560e01b815260009283926001600160a01b031691634d5c56a591610dc19133918b9101613835565b61020060405180830381865afa158015610ddf573d6000803e3d6000fd5b505050506040513d601f19601f82011682018060405250810190610e0391906138a4565b91509150856001600160401b0316826001600160401b0316106118a35780610120015115610e735760405162461bcd60e51b815260206004820152601f60248201527f5573657220616d6f756e7420686173206265656e206c69717569646174656400604482015260640161072e565b60e0810151151560000361184f578060c0015160ff16600003611733576060810151600090610ea487612710613c05565b6001600160401b0316610eb79190613c28565b9050611f40816001600160801b031611610f0c5760405162461bcd60e51b8152602060048201526016602482015275426f72726f77696e674865616c7468206973204c6f7760501b604482015260640161072e565b60155460105460a08401516000926001600160801b03600160801b909104811692610f39929091166139f8565b610f439190613a25565b601554909150600160801b90046001600160801b0316610f61610bbc565b610f6b9190613a25565b6010556001546040516370a0823160e01b815233600482015282916001600160a01b0316906370a0823190602401602060405180830381865afa158015610fb6573d6000803e3d6000fd5b505050506040513d601f19601f82011682018060405250810190610fda9190613c4e565b10156110335760405162461bcd60e51b815260206004820152602260248201527f557365722062616c616e6365206973206c657373207468616e20726571756972604482015261195960f21b606482015260840161072e565b6001600160401b038088166101408501819052908716610160850152600160c085015260208401516000919060649061106d90600a6137b8565b6110779190613c28565b61108191906137b8565b6001600160801b0316905060008185608001516001600160801b03166110a79190613c67565b6001546040516363a9f09360e11b8152336004820152602481018390529192506000916001600160a01b039091169063c753e126906044016020604051808303816000875af11580156110fe573d6000803e3d6000fd5b505050506040513d601f19601f820116820180604052508101906111229190613c7a565b905080611142576040516303f7009160e51b815260040160405180910390fd5b6001546007546040516323b872dd60e01b81523360048201526001600160a01b0391821660248201526044810186905260009291909116906323b872dd906064016020604051808303816000875af11580156111a2573d6000803e3d6000fd5b505050506040513d601f19601f820116820180604052508101906111c69190613c7a565b9050806111e657604051630aae388960e41b815260040160405180910390fd5b84600a60008282546111f89190613c67565b909155505060045460808801516001600160a01b039091169063b9a221eb9061122a906001600160801b031688613c67565b6040518263ffffffff1660e01b815260040161124891815260200190565b600060405180830381600087803b15801561126257600080fd5b505af1158015611276573d6000803e3d6000fd5b50505050600061128733868c612df3565b6001600160801b0381166101808a01526004805460405163ef0d5dc160e01b81529293506001600160a01b03169163ef0d5dc1916112c9913391869101613c95565b600060405180830381600087803b1580156112e357600080fd5b505af11580156112f7573d6000803e3d6000fd5b50505050600460009054906101000a90046001600160a01b03166001600160a01b031663f19aca57338f8b6040518463ffffffff1660e01b815260040161134093929190613a39565b600060405180830381600087803b15801561135a57600080fd5b505af115801561136e573d6000803e3d6000fd5b505050505050505050600080886001600160401b03168560600151866020015161139891906137b8565b6113a29190613c28565b9050612710846001600160801b031611156114605760055460208601516101a08701516040516310335d6b60e21b81526001600160801b0390921660048301526001600160401b0390811660248301528b1660448201526001600160a01b03909116906340cd75ac90606401602060405180830381865afa15801561142b573d6000803e3d6000fd5b505050506040513d601f19601f8201168201806040525081019061144f9190613bc1565b6114599082613cb7565b91506114f0565b836001600160801b03166127100361147a578091506114f0565b836001600160801b0316611f4010801561149e5750612710846001600160801b0316105b156114af57846020015191506114f0565b60405162461bcd60e51b8152602060048201526016602482015275426f72726f77696e674865616c7468206973204c6f7760501b604482015260640161072e565b60646114fd8360326137b8565b6115079190613c28565b91506115416040518060400160405280600d81526020016c32ba34103a37903932ba3ab93760991b815250836001600160801b0316612fdb565b6000600460009054906101000a90046001600160a01b03166001600160a01b031663fe6520ae338e868f8f6040518663ffffffff1660e01b815260040161158c959493929190613cd7565b6020604051808303816000875af11580156115ab573d6000803e3d6000fd5b505050506040513d601f19601f820116820180604052508101906115cf9190613c7a565b9050806115ef57604051635e5e86d560e01b815260040160405180910390fd5b600160009054906101000a90046001600160a01b03166001600160a01b03166318160ddd6040518163ffffffff1660e01b8152600401602060405180830381865afa158015611642573d6000803e3d6000fd5b505050506040513d601f19601f820116820180604052508101906116669190613c4e565b601255600354604080516318160ddd60e01b815290516001600160a01b03909216916318160ddd916004808201926020929091908290030181865afa1580156116b3573d6000803e3d6000fd5b505050506040513d601f19601f820116820180604052508101906116d79190613c4e565b601355610180860151604080518681526001600160801b03868116602083015290921682820152517f2dc3b614e32706dcf24286e69af4692f4b2c24fc339d659e80b26d49379b69149181900360600190a150505050506118fa565b8060c0015160ff1660010361184f5761175f878787846101600151856101800151866101000151613024565b600160009054906101000a90046001600160a01b03166001600160a01b03166318160ddd6040518163ffffffff1660e01b8152600401602060405180830381865afa1580156117b2573d6000803e3d6000fd5b505050506040513d601f19601f820116820180604052508101906117d69190613c4e565b601255600354604080516318160ddd60e01b815290516001600160a01b03909216916318160ddd916004808201926020929091908290030181865afa158015611823573d6000803e3d6000fd5b505050506040513d601f19601f820116820180604052508101906118479190613c4e565b6013556118fa565b60405162461bcd60e51b815260206004820152602360248201527f5573657220616c726561647920776974686472617720656e7469726520616d6f6044820152621d5b9d60ea1b606482015260840161072e565b60405162461bcd60e51b815260206004820152602660248201527f5573657220646f656e73277420686176652074686520706572746963756c6172604482015265040d2dcc8caf60d31b606482015260840161072e565b50505050505050565b61190b613538565b6001600160a01b038116158015906119235750803b15155b6119955760405162461bcd60e51b815260206004820152603960248201527f5472656173757279206d75737420626520636f6e74726163742061646472657360448201527f7320262063616e2774206265207a65726f206164647265737300000000000000606482015260840161072e565b600480546001600160a01b039092166001600160a01b0319928316811790915560078054909216179055565b6119c9613538565b600480546040516306ef62b960e11b81526001600160401b038416928101929092526001600160a01b031690630ddec572906024015b600060405180830381600087803b158015611a1957600080fd5b505af1158015611a2d573d6000803e3d6000fd5b5050505050565b600b5460408051633fabe5a360e21b815290516000926001600160a01b0316918391839163feaf968c9160048083019260a09291908290030181865afa158015611a82573d6000803e3d6000fd5b505050506040513d601f19601f82011682018060405250810190611aa69190613d36565b5050601454919350611ac39250506001600160801b031682613a25565b9250505090565b6007546001600160a01b03163314611ae157600080fd5b80600003611b3c5760405162461bcd60e51b815260206004820152602260248201527f4c61737420455448207661756c742076616c75652063616e2774206265207a65604482015261726f60f01b606482015260840161072e565b80600d6000828254611b4e9190613c67565b909155505050565b611b5e613538565b6001600160a01b03811615801590611b7a57506001813b151514155b611bdd5760405162461bcd60e51b815260206004820152602e60248201527f41646d696e2063616e277420626520636f6e747261637420616464726573732060448201526d26207a65726f206164647265737360901b606482015260840161072e565b600980546001600160a01b0319166001600160a01b0392909216919091179055565b611c07613538565b611c116000613592565b565b611c1b613538565b8060ff16600003611c675760405162461bcd60e51b81526020600482015260166024820152754150592073686f756c64206e6f74206265207a65726f60501b604482015260640161072e565b6009805460ff909216600160a81b0260ff60a81b19909216919091179055565b611c8f613538565b6001600160a01b03811615801590611ca75750803b15155b611d195760405162461bcd60e51b815260206004820152603860248201527f4f7074696f6e73206d75737420626520636f6e7472616374206164647265737360448201527f20262063616e2774206265207a65726f20616464726573730000000000000000606482015260840161072e565b600580546001600160a01b0319166001600160a01b0392909216919091179055565b611d43613538565b60048054604080516301865f0760e21b815290516001600160a01b03909216926306197c1c92828201926000929082900301818387803b158015611d8657600080fd5b505af1158015611d9a573d6000803e3d6000fd5b50505050565b611da8613538565b6009805460ff909216600160a01b0260ff60a01b19909216919091179055565b611dd0613538565b60048054604080516306e1444d60e21b815290516001600160a01b0390921692631b85113492828201926000929082900301818387803b158015611d8657600080fd5b6009546001600160a01b03163314611e2a57600080fd5b6001600160a01b038316611e8c5760405162461bcd60e51b815260206004820152602360248201527f546f20616464726573732063616e6e6f742062652061207a65726f206164647260448201526265737360e81b606482015260840161072e565b6001600160a01b0383163303611ef25760405162461bcd60e51b815260206004820152602560248201527f596f752063616e6e6f74206c697175696461746520796f7572206f776e206173604482015264736574732160d81b606482015260840161072e565b6011805484918491601090611f1690600160801b90046001600160801b0316613d86565b82546001600160801b039182166101009390930a928302919092021990911617905560048054604051634d5c56a560e01b81526000926001600160a01b0390921691634d5c56a591611f6c918791879101613835565b61020060405180830381865afa158015611f8a573d6000803e3d6000fd5b505050506040513d601f19601f82011682018060405250810190611fae91906138a4565b91505080610120015115611ff95760405162461bcd60e51b8152602060048201526012602482015271105b1c9958591e48131a5c5d5a59185d195960721b604482015260640161072e565b6004805460408051630f27449560e01b815290516001600160a01b0390921692630f2744959282820192602092908290030181865afa158015612040573d6000803e3d6000fd5b505050506040513d601f19601f820116820180604052508101906120649190613c4e565b81602001516001600160801b031611156120c05760405162461bcd60e51b815260206004820152601c60248201527f4e6f7420656e6f7567682066756e647320696e20747265617375727900000000604482015260640161072e565b60608101516000906120d486612710613c05565b6001600160401b03166120e79190613c28565b9050611f40816001600160801b0316111561213b5760405162461bcd60e51b8152602060048201526014602482015273596f752063616e6e6f74206c697175696461746560601b604482015260640161072e565b600161012083015260155460105460a08401516000926001600160801b03600160801b909104811692612170929091166139f8565b61217a9190613a25565b601554909150600160801b90046001600160801b0316612198610bbc565b6121a29190613a25565b601055606083015160208401518291600091606491849183916121c4916137b8565b6121ce9190613c28565b6121d89190613bde565b6121e390600a6137b8565b6121ed9190613c28565b90506000818360648860600151896020015161220991906137b8565b6122139190613c28565b61221d9190613bde565b6122279190613bde565b905060006122358385613cb7565b6040805160808101825260008082526020820181905291810182905260608101919091529091506040518060800160405280836001600160801b03168152602001846001600160801b0316815260200189602001516001600160801b03168152602001600260009054906101000a90046001600160a01b03166001600160a01b031663dc91e7526040518163ffffffff1660e01b81526004016020604051808303816000875af11580156122ed573d6000803e3d6000fd5b505050506040513d601f19601f820116820180604052508101906123119190613c4e565b90526002546011546040805163b3013d4d60e01b8152600160801b9092046001600160801b03908116600484015284518116602484015260208501518116604484015290840151166064820152606083015160848201529192506001600160a01b03169063b3013d4d9060a401600060405180830381600087803b15801561239857600080fd5b505af11580156123ac573d6000803e3d6000fd5b505060025460405163dc55b19360e01b81526001600160801b03861660048201526001600160a01b03909116925063dc55b1939150602401600060405180830381600087803b1580156123fe57600080fd5b505af1158015612412573d6000803e3d6000fd5b5050600254604051634cae95d360e01b81526001600160801b03861660048201526001600160a01b039091169250634cae95d39150602401600060405180830381600087803b15801561246457600080fd5b505af1158015612478573d6000803e3d6000fd5b505050506000846001600160801b031687876001600160801b031661249d9190613c67565b6124a79190613bae565b600480546040516308fc416760e21b81529293506001600160a01b0316916323f1059c916124db9185910190815260200190565b600060405180830381600087803b1580156124f557600080fd5b505af1158015612509573d6000803e3d6000fd5b50506004805460405163f19aca5760e01b81526001600160a01b03909116935063f19aca579250612540918f918f918f9101613a39565b600060405180830381600087803b15801561255a57600080fd5b505af115801561256e573d6000803e3d6000fd5b50506004805460808d0151604051630adfd5a560e21b81526001600160a01b039092169450632b7f569493506125a692309201613c95565b600060405180830381600087803b1580156125c057600080fd5b505af11580156125d4573d6000803e3d6000fd5b505060015460075460808d01516040516363a9f09360e11b8152600095506001600160a01b03938416945063c753e1269361261493169190600401613c95565b6020604051808303816000875af1158015612633573d6000803e3d6000fd5b505050506040513d601f19601f820116820180604052508101906126579190613c7a565b90508061267757604051632105f02360e11b815260040160405180910390fd5b600160009054906101000a90046001600160a01b03166001600160a01b03166318160ddd6040518163ffffffff1660e01b8152600401602060405180830381865afa1580156126ca573d6000803e3d6000fd5b505050506040513d601f19601f820116820180604052508101906126ee9190613c4e565b601255505050505050505050505050505050565b61270a613538565b60048054604051630376724160e41b81526001600160401b038416928101929092526001600160a01b0316906337672410906024016119ff565b61274c613538565b6001600160a01b0381166127b15760405162461bcd60e51b815260206004820152602660248201527f4f776e61626c653a206e6577206f776e657220697320746865207a65726f206160448201526564647265737360d01b606482015260840161072e565b6127ba81613592565b50565b600080826000036127e1576040516315e73e9f60e01b815260040160405180910390fd5b6000600460009054906101000a90046001600160a01b03166001600160a01b03166345aeb0ce6040518163ffffffff1660e01b81526004016020604051808303816000875af1158015612838573d6000803e3d6000fd5b505050506040513d601f19601f8201168201806040525081019061285c9190613bc1565b600c549091506001600160801b031684111561289d57600c546001600160801b038083169161288c911686613c67565b61289691906139f8565b91506128c5565b600c546001600160801b03808316916128b891879116613c67565b6128c291906139f8565b91505b600080826001600160801b03166000036129a4576128e386886139f8565b600d819055600254604080516315d9753160e11b815290519294506001600160a01b0390911691632bb2ea629160048082019260209290919082900301816000875af1158015612937573d6000803e3d6000fd5b505050506040513d601f19601f8201168201806040525081019061295b9190613bc1565b6001600160801b03908116600f55600c541686106129895783600f546129819190613bae565b600e5561299b565b83600f546129979190613c67565b600e555b50600e54612ab5565b6129ae86886139f8565b600d546129bb9190613bae565b915081600d819055506000600260009054906101000a90046001600160a01b03166001600160a01b0316632bb2ea626040518163ffffffff1660e01b81526004016020604051808303816000875af1158015612a1b573d6000803e3d6000fd5b505050506040513d601f19601f82011682018060405250810190612a3f9190613bc1565b600c546001600160801b039182169250168710612a835784600f5482612a659190613c67565b600e54612a729190613bae565b612a7c9190613bae565b9150612aac565b84600f5482612a929190613c67565b600e54612a9f9190613bae565b612aa99190613c67565b91505b600f55600e8190555b6014546000908390612ad790600160801b90046001600160801b0316846139f8565b612ae19190613a25565b955050505050505b92915050565b60006001600160a01b038416612b475760405162461bcd60e51b815260206004820152601f60248201527f426f72726f7765722063616e6e6f74206265207a65726f206164647265737300604482015260640161072e565b600954600160a01b900460ff16600003612bc95760405162461bcd60e51b815260206004820152603860248201527f4c5456206d7573742062652073657420746f206e6f6e2d7a65726f2076616c7560448201527f65206265666f72652070726f766964696e67206c6f616e730000000000000000606482015260840161072e565b6000612bde6001600160801b038416856139f8565b6015546009549192506000916001600160801b0390911690612c0a90600160a01b900460ff16846139f8565b612c149190613a25565b6001546040516340c10f1960e01b81526001600160a01b03898116600483015260248201849052929350600092909116906340c10f19906044016020604051808303816000875af1158015612c6d573d6000803e3d6000fd5b505050506040513d601f19601f82011682018060405250810190612c919190613c7a565b905080612cb1576040516309ad720160e01b815260040160405180910390fd5b600160009054906101000a90046001600160a01b03166001600160a01b03166318160ddd6040518163ffffffff1660e01b8152600401602060405180830381865afa158015612d04573d6000803e3d6000fd5b505050506040513d601f19601f82011682018060405250810190612d289190613c4e565b6012555095945050505050565b6000838015612dd557600184168015612d5057859250612d54565b8392505b50600283046002850494505b8415612dcf578586028687820414612d7757600080fd5b81810181811015612d8757600080fd5b8590049650506001851615612dc4578583028387820414158715151615612dad57600080fd5b81810181811015612dbd57600080fd5b8590049350505b600285049450612d60565b50612deb565b838015612de55760009250612de9565b8392505b505b509392505050565b60006001600160a01b038416612e4b5760405162461bcd60e51b815260206004820152601f60248201527f426f72726f7765722063616e6e6f74206265207a65726f206164647265737300604482015260640161072e565b82600003612e925760405162461bcd60e51b8152602060048201526014602482015273416d6f756e742063616e2774206265207a65726f60601b604482015260640161072e565b6000612e9f836064613c05565b6001600160401b0316612eb38560646137b8565b612ebd9190613c28565b6003546040516340c10f1960e01b81529192506000916001600160a01b03909116906340c10f1990612ef59089908690600401613c95565b6020604051808303816000875af1158015612f14573d6000803e3d6000fd5b505050506040513d601f19601f82011682018060405250810190612f389190613c7a565b905080612f58576040516368a3803760e11b815260040160405180910390fd5b600360009054906101000a90046001600160a01b03166001600160a01b03166318160ddd6040518163ffffffff1660e01b8152600401602060405180830381865afa158015612fab573d6000803e3d6000fd5b505050506040513d601f19601f82011682018060405250810190612fcf9190613c4e565b60135550949350505050565b6130208282604051602401612ff1929190613dac565b60408051601f198184030181529190526020810180516001600160e01b0316632d839cb360e21b1790526135e2565b5050565b6130318362278d00613e01565b6001600160401b031642101561309a5760405162461bcd60e51b815260206004820152602860248201527f41206d6f6e7468206e6f742079657420636f6d706c657465642073696e636520604482015267776974686472617760c01b606482015260840161072e565b6003546040516370a0823160e01b81523360048201526001600160801b038416916001600160a01b0316906370a0823190602401602060405180830381865afa1580156130eb573d6000803e3d6000fd5b505050506040513d601f19601f8201168201806040525081019061310f9190613c4e565b146131665760405162461bcd60e51b815260206004820152602160248201527f446f6e2774206861766520656e6f7567682050726f746f636f6c20546f6b656e6044820152607360f81b606482015260840161072e565b60048054604051634d5c56a560e01b81526000926001600160a01b0390921691634d5c56a59161319a9133918b9101613835565b61020060405180830381865afa1580156131b8573d6000803e3d6000fd5b505050506040513d601f19601f820116820180604052508101906131dc91906138a4565b600480546020830151604051631b35376f60e21b81529395506001600160a01b039091169350636cd4ddbc926132159233929101613c95565b600060405180830381600087803b15801561322f57600080fd5b505af1158015613243573d6000803e3d6000fd5b5050600060208401525050600160e0820152600260c082015260048054604051630edd59bf60e21b81526001600160a01b0390911691633b7566fc9161328d913391889101613c95565b600060405180830381600087803b1580156132a757600080fd5b505af11580156132bb573d6000803e3d6000fd5b5050600061018084015250506004805460405163f19aca5760e01b81526001600160a01b039091169163f19aca57916132fa9133918b91879101613a39565b600060405180830381600087803b15801561331457600080fd5b505af1158015613328573d6000803e3d6000fd5b50506001546007546080850151600094506001600160a01b03928316935063c753e126929091169060649061335e9060326137b8565b6133689190613c28565b6040518363ffffffff1660e01b8152600401613385929190613c95565b6020604051808303816000875af11580156133a4573d6000803e3d6000fd5b505050506040513d601f19601f820116820180604052508101906133c89190613c7a565b9050806133e8576040516303f7009160e51b815260040160405180910390fd5b6003546040516363a9f09360e11b81526000916001600160a01b03169063c753e1269061341b9033908990600401613c95565b6020604051808303816000875af115801561343a573d6000803e3d6000fd5b505050506040513d601f19601f8201168201806040525081019061345e9190613c7a565b90508061347e576040516303f7009160e51b815260040160405180910390fd5b6000600460009054906101000a90046001600160a01b03166001600160a01b031663fe6520ae338c888d8d6040518663ffffffff1660e01b81526004016134c9959493929190613cd7565b6020604051808303816000875af11580156134e8573d6000803e3d6000fd5b505050506040513d601f19601f8201168201806040525081019061350c9190613c7a565b90508061352c57604051635e5e86d560e01b815260040160405180910390fd5b50505050505050505050565b6000546001600160a01b03163314611c115760405162461bcd60e51b815260206004820181905260248201527f4f776e61626c653a2063616c6c6572206973206e6f7420746865206f776e6572604482015260640161072e565b600080546001600160a01b038381166001600160a01b0319831681178455604051919092169283917f8be0079c531659141344cd1fd0a4f28419497f9722a3daafe3b4186f6b6457e09190a35050565b6127ba8160006a636f6e736f6c652e6c6f679050600080835160208501845afa505050565b6001600160801b03811681146127ba57600080fd5b6001600160401b03811681146127ba57600080fd5b60008060006060848603121561364657600080fd5b833561365181613607565b925060208401356136618161361c565b915060408401356136718161361c565b809150509250925092565b80356001600160a01b038116811461369357600080fd5b919050565b600080600080600060a086880312156136b057600080fd5b6136b98661367c565b945060208601356136c98161361c565b935060408601356136d98161361c565b925060608601356136e98161361c565b915060808601356136f98161361c565b809150509295509295909350565b60006020828403121561371957600080fd5b610cd38261367c565b60006020828403121561373457600080fd5b8135610cd38161361c565b60006020828403121561375157600080fd5b5035919050565b60ff811681146127ba57600080fd5b60006020828403121561377957600080fd5b8135610cd381613758565b60008060006060848603121561379957600080fd5b6136518461367c565b634e487b7160e01b600052601160045260246000fd5b6001600160801b038181168382160280821691908281146137db576137db6137a2565b505092915050565b8051801515811461369357600080fd5b80516136938161361c565b6000806040838503121561381157600080fd5b61381a836137e3565b9150602083015161382a8161361c565b809150509250929050565b6001600160a01b039290921682526001600160401b0316602082015260400190565b6040516101e081016001600160401b038111828210171561388857634e487b7160e01b600052604160045260246000fd5b60405290565b805161369381613607565b805161369381613758565b6000808284036102008112156138b957600080fd5b83516138c48161361c565b92506101e0601f1982018113156138da57600080fd5b6138e2613857565b91506138f0602086016137f3565b82526138fe6040860161388e565b602083015261390f606086016137f3565b60408301526139206080860161388e565b606083015261393160a0860161388e565b608083015261394260c0860161388e565b60a083015261395360e08601613899565b60c08301526101006139668187016137e3565b60e084015261012061397981880161388e565b82850152610140915061398d8288016137e3565b9084015261016061399f8782016137f3565b8285015261018091506139b38288016137f3565b908401526101a06139c587820161388e565b828501526101c091506139d98288016137f3565b908401526139e88683016137f3565b9083015250919491935090915050565b8082028115828204841417612ae957612ae96137a2565b634e487b7160e01b600052601260045260246000fd5b600082613a3457613a34613a0f565b500490565b6001600160a01b03841681526001600160401b0383811660208301528251166040820152610220810160208301516001600160801b03811660608401525060408301516001600160401b03811660808401525060608301516001600160801b03811660a08401525060808301516001600160801b03811660c08401525060a08301516001600160801b03811660e08401525060c0830151610100613ae18185018360ff169052565b60e08501519150610120613af88186018415159052565b90850151915061014090613b16858301846001600160801b03169052565b8501519150610160613b2b8582018415159052565b90850151915061018090613b49858301846001600160401b03169052565b85015191506101a0613b65858201846001600160401b03169052565b9085015191506101c090613b83858301846001600160801b03169052565b8501516001600160401b039081166101e0860152940151909316610200909201919091529392505050565b80820180821115612ae957612ae96137a2565b600060208284031215613bd357600080fd5b8151610cd381613607565b6001600160801b03828116828216039080821115613bfe57613bfe6137a2565b5092915050565b6001600160401b038181168382160280821691908281146137db576137db6137a2565b60006001600160801b0380841680613c4257613c42613a0f565b92169190910492915050565b600060208284031215613c6057600080fd5b5051919050565b81810381811115612ae957612ae96137a2565b600060208284031215613c8c57600080fd5b610cd3826137e3565b6001600160a01b039290921682526001600160801b0316602082015260400190565b6001600160801b03818116838216019080821115613bfe57613bfe6137a2565b6001600160a01b0395861681529390941660208401526001600160801b039190911660408301526001600160401b039081166060830152909116608082015260a00190565b805169ffffffffffffffffffff8116811461369357600080fd5b600080600080600060a08688031215613d4e57600080fd5b613d5786613d1c565b9450602086015193506040860151925060608601519150613d7a60808701613d1c565b90509295509295909350565b60006001600160801b03808316818103613da257613da26137a2565b6001019392505050565b604081526000835180604084015260005b81811015613dda5760208187018101516060868401015201613dbd565b506000606082850101526060601f19601f8301168401019150508260208301529392505050565b6001600160401b03818116838216019080821115613bfe57613bfe6137a256fea2646970667358221220457b78ae288f052800ee9d132a4e1615de28f8711c3c195ea7b51e636424afc464736f6c63430008120033","linkReferences":{}},"methodIdentifiers":{"APY()":"ef8bd305","Trinity()":"e6d97f17","admin()":"f851a440","calculateCumulativeRate()":"181ab6db","cds()":"b4eb10ce","cdsAddress()":"fe925884","depositToAaveProtocol()":"98afda43","depositToCompoundProtocol()":"b8f49090","depositTokens(uint128,uint64,uint64)":"0e93f616","getAPY()":"d2cbf7ad","getLTV()":"4ed2b8ac","getUSDValue()":"50593af7","initializeTreasury(address)":"3ed086f4","lastCDSPoolValue()":"84e92128","lastCumulativeRate()":"8e4db39a","lastEthVaultValue()":"99eb2f6c","lastEthprice()":"2feabb52","lastTotalCDSPool()":"e42f8090","liquidate(address,uint64,uint64)":"d5c28dba","noOfLiquidations()":"38a912d5","options()":"1069143a","owner()":"8da5cb5b","priceFeedAddress()":"e0abca0b","protocolToken()":"1a465fe1","renounceOwnership()":"715018a6","setAPY(uint8)":"73ca55a2","setAdmin(address)":"704b6c02","setLTV(uint8)":"aad2476d","setOptions(address)":"7d6dff7d","totalAmintSupply()":"b3aebb9c","totalDiracSupply()":"606303f8","totalNormalizedAmount()":"6fdc5203","transferOwnership(address)":"f2fde38b","treasury()":"61d027b3","treasuryAddress()":"c5f956af","updateLastEthVaultValue(uint256)":"661b7d3e","withDraw(address,uint64,uint64,uint64,uint64)":"2bf16927","withdrawFromAaveProtocol(uint64)":"ec11dab2","withdrawFromCompoundProtocol(uint64)":"3f3006b4"},"id":2}