{"abi":[{"type":"constructor","inputs":[{"name":"_tokenAddress","type":"address","internalType":"address"},{"name":"_cds","type":"address","internalType":"address"},{"name":"_protocolToken","type":"address","internalType":"address"},{"name":"_priceFeedAddress","type":"address","internalType":"address"},{"name":"chainId","type":"uint64","internalType":"uint64"}],"stateMutability":"nonpayable"},{"type":"function","name":"APY","inputs":[],"outputs":[{"name":"","type":"uint8","internalType":"uint8"}],"stateMutability":"view"},{"type":"function","name":"DOMAIN_SEPARATOR","inputs":[],"outputs":[{"name":"","type":"bytes32","internalType":"bytes32"}],"stateMutability":"view"},{"type":"function","name":"PERMIT_TYPEHASH","inputs":[],"outputs":[{"name":"","type":"bytes32","internalType":"bytes32"}],"stateMutability":"view"},{"type":"function","name":"Trinity","inputs":[],"outputs":[{"name":"","type":"address","internalType":"contract ITrinityToken"}],"stateMutability":"view"},{"type":"function","name":"admin","inputs":[],"outputs":[{"name":"","type":"address","internalType":"address"}],"stateMutability":"view"},{"type":"function","name":"calculateCumulativeRate","inputs":[],"outputs":[{"name":"","type":"uint256","internalType":"uint256"}],"stateMutability":"nonpayable"},{"type":"function","name":"cds","inputs":[],"outputs":[{"name":"","type":"address","internalType":"contract CDSInterface"}],"stateMutability":"view"},{"type":"function","name":"cdsAddress","inputs":[],"outputs":[{"name":"","type":"address","internalType":"address"}],"stateMutability":"view"},{"type":"function","name":"depositToAaveProtocol","inputs":[],"outputs":[],"stateMutability":"nonpayable"},{"type":"function","name":"depositToCompoundProtocol","inputs":[],"outputs":[],"stateMutability":"nonpayable"},{"type":"function","name":"depositTokens","inputs":[{"name":"_ethPrice","type":"uint128","internalType":"uint128"},{"name":"_depositTime","type":"uint64","internalType":"uint64"},{"name":"_strikePercent","type":"uint8","internalType":"enum IOptions.StrikePrice"},{"name":"_strikePrice","type":"uint64","internalType":"uint64"},{"name":"_volatility","type":"uint256","internalType":"uint256"}],"outputs":[],"stateMutability":"payable"},{"type":"function","name":"getAPY","inputs":[],"outputs":[{"name":"","type":"uint8","internalType":"uint8"}],"stateMutability":"view"},{"type":"function","name":"getLTV","inputs":[],"outputs":[{"name":"","type":"uint8","internalType":"uint8"}],"stateMutability":"view"},{"type":"function","name":"getUSDValue","inputs":[],"outputs":[{"name":"","type":"uint256","internalType":"uint256"}],"stateMutability":"view"},{"type":"function","name":"initializeTreasury","inputs":[{"name":"_treasury","type":"address","internalType":"address"}],"outputs":[],"stateMutability":"nonpayable"},{"type":"function","name":"lastCDSPoolValue","inputs":[],"outputs":[{"name":"","type":"uint256","internalType":"uint256"}],"stateMutability":"view"},{"type":"function","name":"lastCumulativeRate","inputs":[],"outputs":[{"name":"","type":"uint256","internalType":"uint256"}],"stateMutability":"view"},{"type":"function","name":"lastEthVaultValue","inputs":[],"outputs":[{"name":"","type":"uint256","internalType":"uint256"}],"stateMutability":"view"},{"type":"function","name":"lastEthprice","inputs":[],"outputs":[{"name":"","type":"uint128","internalType":"uint128"}],"stateMutability":"view"},{"type":"function","name":"lastTotalCDSPool","inputs":[],"outputs":[{"name":"","type":"uint256","internalType":"uint256"}],"stateMutability":"view"},{"type":"function","name":"liquidate","inputs":[{"name":"_user","type":"address","internalType":"address"},{"name":"_index","type":"uint64","internalType":"uint64"},{"name":"currentEthPrice","type":"uint64","internalType":"uint64"}],"outputs":[],"stateMutability":"nonpayable"},{"type":"function","name":"name","inputs":[],"outputs":[{"name":"","type":"string","internalType":"string"}],"stateMutability":"view"},{"type":"function","name":"noOfLiquidations","inputs":[],"outputs":[{"name":"","type":"uint128","internalType":"uint128"}],"stateMutability":"view"},{"type":"function","name":"options","inputs":[],"outputs":[{"name":"","type":"address","internalType":"contract IOptions"}],"stateMutability":"view"},{"type":"function","name":"owner","inputs":[],"outputs":[{"name":"","type":"address","internalType":"address"}],"stateMutability":"view"},{"type":"function","name":"permit","inputs":[{"name":"holder","type":"address","internalType":"address"},{"name":"spender","type":"address","internalType":"address"},{"name":"allowedAmount","type":"uint256","internalType":"uint256"},{"name":"allowed","type":"bool","internalType":"bool"},{"name":"expiry","type":"uint256","internalType":"uint256"},{"name":"v","type":"uint8","internalType":"uint8"},{"name":"r","type":"bytes32","internalType":"bytes32"},{"name":"s","type":"bytes32","internalType":"bytes32"}],"outputs":[{"name":"","type":"bool","internalType":"bool"}],"stateMutability":"nonpayable"},{"type":"function","name":"priceFeedAddress","inputs":[],"outputs":[{"name":"","type":"address","internalType":"address"}],"stateMutability":"view"},{"type":"function","name":"protocolToken","inputs":[],"outputs":[{"name":"","type":"address","internalType":"contract IProtocolToken"}],"stateMutability":"view"},{"type":"function","name":"renounceOwnership","inputs":[],"outputs":[],"stateMutability":"nonpayable"},{"type":"function","name":"setAPY","inputs":[{"name":"_apy","type":"uint8","internalType":"uint8"}],"outputs":[],"stateMutability":"nonpayable"},{"type":"function","name":"setAdmin","inputs":[{"name":"_admin","type":"address","internalType":"address"}],"outputs":[],"stateMutability":"nonpayable"},{"type":"function","name":"setLTV","inputs":[{"name":"_LTV","type":"uint8","internalType":"uint8"}],"outputs":[],"stateMutability":"nonpayable"},{"type":"function","name":"setOptions","inputs":[{"name":"_options","type":"address","internalType":"address"}],"outputs":[],"stateMutability":"nonpayable"},{"type":"function","name":"setWithdrawTimeLimit","inputs":[{"name":"_timeLimit","type":"uint64","internalType":"uint64"}],"outputs":[],"stateMutability":"nonpayable"},{"type":"function","name":"totalAmintSupply","inputs":[],"outputs":[{"name":"","type":"uint256","internalType":"uint256"}],"stateMutability":"view"},{"type":"function","name":"totalDiracSupply","inputs":[],"outputs":[{"name":"","type":"uint256","internalType":"uint256"}],"stateMutability":"view"},{"type":"function","name":"totalNormalizedAmount","inputs":[],"outputs":[{"name":"","type":"uint256","internalType":"uint256"}],"stateMutability":"view"},{"type":"function","name":"transferOwnership","inputs":[{"name":"newOwner","type":"address","internalType":"address"}],"outputs":[],"stateMutability":"nonpayable"},{"type":"function","name":"treasury","inputs":[],"outputs":[{"name":"","type":"address","internalType":"contract ITreasury"}],"stateMutability":"view"},{"type":"function","name":"treasuryAddress","inputs":[],"outputs":[{"name":"","type":"address","internalType":"address"}],"stateMutability":"view"},{"type":"function","name":"updateLastEthVaultValue","inputs":[{"name":"_amount","type":"uint256","internalType":"uint256"}],"outputs":[],"stateMutability":"nonpayable"},{"type":"function","name":"version","inputs":[],"outputs":[{"name":"","type":"string","internalType":"string"}],"stateMutability":"view"},{"type":"function","name":"withDraw","inputs":[{"name":"_toAddress","type":"address","internalType":"address"},{"name":"_index","type":"uint64","internalType":"uint64"},{"name":"_ethPrice","type":"uint64","internalType":"uint64"},{"name":"_withdrawTime","type":"uint64","internalType":"uint64"},{"name":"_bondRatio","type":"uint64","internalType":"uint64"}],"outputs":[],"stateMutability":"nonpayable"},{"type":"function","name":"withdrawFromAaveProtocol","inputs":[{"name":"index","type":"uint64","internalType":"uint64"}],"outputs":[],"stateMutability":"nonpayable"},{"type":"function","name":"withdrawFromCompoundProtocol","inputs":[{"name":"index","type":"uint64","internalType":"uint64"}],"outputs":[],"stateMutability":"nonpayable"},{"type":"function","name":"withdrawTimeLimit","inputs":[],"outputs":[{"name":"","type":"uint64","internalType":"uint64"}],"stateMutability":"view"},{"type":"event","name":"Deposit","inputs":[{"name":"index","type":"uint64","indexed":false,"internalType":"uint64"},{"name":"depositedAmount","type":"uint256","indexed":false,"internalType":"uint256"},{"name":"borrowAmount","type":"uint256","indexed":false,"internalType":"uint256"},{"name":"normalizedAmount","type":"uint256","indexed":false,"internalType":"uint256"}],"anonymous":false},{"type":"event","name":"OwnershipTransferred","inputs":[{"name":"previousOwner","type":"address","indexed":true,"internalType":"address"},{"name":"newOwner","type":"address","indexed":true,"internalType":"address"}],"anonymous":false},{"type":"event","name":"Withdraw","inputs":[{"name":"borrowDebt","type":"uint256","indexed":false,"internalType":"uint256"},{"name":"withdrawAmount","type":"uint128","indexed":false,"internalType":"uint128"},{"name":"noOfAbond","type":"uint128","indexed":false,"internalType":"uint128"}],"anonymous":false},{"type":"error","name":"Borrowing_DepositFailed","inputs":[]},{"type":"error","name":"Borrowing_GettingETHPriceFailed","inputs":[]},{"type":"error","name":"Borrowing_LiquidateBurnFailed","inputs":[]},{"type":"error","name":"Borrowing_LiquidateEthTransferToCdsFailed","inputs":[]},{"type":"error","name":"Borrowing_MUSDMintFailed","inputs":[]},{"type":"error","name":"Borrowing_WithdrawBurnFailed","inputs":[]},{"type":"error","name":"Borrowing_WithdrawEthTransferFailed","inputs":[]},{"type":"error","name":"Borrowing_WithdrawMUSDTransferFailed","inputs":[]},{"type":"error","name":"Borrowing_pTokenMintFailed","inputs":[]}],"bytecode":{"object":"0x608060405272989680000000000000000000000000000f42406016557b033b2e3c9fd0803ce8000000000000000000000000000000000027106017553480156200004857600080fd5b5060405162004b3438038062004b348339810160408190526200006b9162000301565b6200007633620001f9565b600180546001600160a01b038088166001600160a01b031992831617909255600280548784169083168117909155600880548316909117905560038054868416908316179055600b805492851692909116919091179055620000d762000249565b600c80546001600160801b03199081166001600160801b03938416179091556011805490911642909216919091179055604080518082018252601081526f20a6a4a72a1029ba30b13632b1b7b4b760811b6020918201528151808301835260018152603160f81b9082015281517f2010028ec63295361a00945794d4fce5b1046c419f60af448db7aaeb91e918f8918101919091527fb6715a9c407638b44c957bf0380ac52778ea690cd439f34f0943ed73c1effc28918101919091527fc89efdaa54c0f20c7adf612882df0950f5a951637e0307cdcb4c672f298b8bc660608201526001600160401b03821660808201523060a082015260c00160405160208183030381529060405280519060200120601581905550505050505062000411565b600080546001600160a01b038381166001600160a01b0319831681178455604051919092169283917f8be0079c531659141344cd1fd0a4f28419497f9722a3daafe3b4186f6b6457e09190a35050565b600b5460408051633fabe5a360e21b815290516000926001600160a01b0316918391839163feaf968c9160048083019260a09291908290030181865afa15801562000298573d6000803e3d6000fd5b505050506040513d601f19601f82011682018060405250810190620002be919062000399565b5050601654919350620002dd9250506001600160801b031682620003ee565b9250505090565b80516001600160a01b0381168114620002fc57600080fd5b919050565b600080600080600060a086880312156200031a57600080fd5b6200032586620002e4565b94506200033560208701620002e4565b93506200034560408701620002e4565b92506200035560608701620002e4565b60808701519092506001600160401b03811681146200037357600080fd5b809150509295509295909350565b80516001600160501b0381168114620002fc57600080fd5b600080600080600060a08688031215620003b257600080fd5b620003bd8662000381565b9450602086015193506040860151925060608601519150620003e26080870162000381565b90509295509295909350565b6000826200040c57634e487b7160e01b600052601260045260246000fd5b500490565b61471380620004216000396000f3fe60806040526004361061027d5760003560e01c806373ca55a21161014f578063b8f49090116100c1578063e6d97f171161007a578063e6d97f17146107ba578063ec11dab2146107da578063ef8bd305146107fa578063f2fde38b1461081b578063f851a4401461083b578063fe9258841461085b57600080fd5b8063b8f4909014610710578063c5f956af14610725578063d2cbf7ad14610745578063d5c28dba14610764578063e0abca0b14610784578063e42f8090146107a457600080fd5b80638e4db39a116101135780638e4db39a1461067957806398afda431461068f57806399eb2f6c146106a4578063aad2476d146106ba578063b3aebb9c146106da578063b4eb10ce146106f057600080fd5b806373ca55a2146105e55780637d6dff7d1461060557806384e9212814610625578063868c10d21461063b5780638da5cb5b1461065b57600080fd5b80633f3006b4116101f3578063606303f8116101ac578063606303f81461054457806361d027b31461055a578063661b7d3e1461057a5780636fdc52031461059a578063704b6c02146105b0578063715018a6146105d057600080fd5b80633f3006b41461046a5780634ed2b8ac1461048a5780634f04a86b146104b757806350593af7146104ef57806354fd4d50146105045780635e34783e1461053157600080fd5b80632ccd9ed4116102455780632ccd9ed4146103715780632feabb52146103a157806330adf81f146103d95780633644e5151461040d57806338a912d5146104235780633ed086f41461044a57600080fd5b806306fdde03146102825780631069143a146102d4578063181ab6db1461030c5780631a465fe11461032f5780632bf169271461034f575b600080fd5b34801561028e57600080fd5b506102be6040518060400160405280601081526020016f20a6a4a72a1029ba30b13632b1b7b4b760811b81525081565b6040516102cb9190613d33565b60405180910390f35b3480156102e057600080fd5b506005546102f4906001600160a01b031681565b6040516001600160a01b0390911681526020016102cb565b34801561031857600080fd5b5061032161087b565b6040519081526020016102cb565b34801561033b57600080fd5b506003546102f4906001600160a01b031681565b34801561035b57600080fd5b5061036f61036a366004613d77565b610999565b005b34801561037d57600080fd5b5061039161038c366004613e03565b611617565b60405190151581526020016102cb565b3480156103ad57600080fd5b50600c546103c1906001600160801b031681565b6040516001600160801b0390911681526020016102cb565b3480156103e557600080fd5b506103217ff48167ebcd5a3b4ca5517473931d60b9a75b03f56e5e6363767fa277375eb08081565b34801561041957600080fd5b5061032160155481565b34801561042f57600080fd5b506011546103c190600160801b90046001600160801b031681565b34801561045657600080fd5b5061036f610465366004613e82565b611832565b34801561047657600080fd5b5061036f610485366004613e9d565b6118f0565b34801561049657600080fd5b50600954600160a01b900460ff165b60405160ff90911681526020016102cb565b3480156104c357600080fd5b506014546104d7906001600160401b031681565b6040516001600160401b0390911681526020016102cb565b3480156104fb57600080fd5b50610321611963565b34801561051057600080fd5b506102be604051806040016040528060018152602001603160f81b81525081565b61036f61053f366004613ecf565b6119f9565b34801561055057600080fd5b5061032160135481565b34801561056657600080fd5b506004546102f4906001600160a01b031681565b34801561058657600080fd5b5061036f610595366004613f37565b611ffc565b3480156105a657600080fd5b50610321600a5481565b3480156105bc57600080fd5b5061036f6105cb366004613e82565b612088565b3480156105dc57600080fd5b5061036f612131565b3480156105f157600080fd5b5061036f610600366004613f50565b612145565b34801561061157600080fd5b5061036f610620366004613e82565b6121b9565b34801561063157600080fd5b50610321600e5481565b34801561064757600080fd5b5061036f610656366004613e9d565b61226d565b34801561066757600080fd5b506000546001600160a01b03166102f4565b34801561068557600080fd5b5061032160105481565b34801561069b57600080fd5b5061036f6122fb565b3480156106b057600080fd5b50610321600d5481565b3480156106c657600080fd5b5061036f6106d5366004613f50565b612360565b3480156106e657600080fd5b5061032160125481565b3480156106fc57600080fd5b506002546102f4906001600160a01b031681565b34801561071c57600080fd5b5061036f612388565b34801561073157600080fd5b506007546102f4906001600160a01b031681565b34801561075157600080fd5b50600954600160a81b900460ff166104a5565b34801561077057600080fd5b5061036f61077f366004613f6d565b6123d3565b34801561079057600080fd5b50600b546102f4906001600160a01b031681565b3480156107b057600080fd5b50610321600f5481565b3480156107c657600080fd5b506001546102f4906001600160a01b031681565b3480156107e657600080fd5b5061036f6107f5366004613e9d565b612cc2565b34801561080657600080fd5b506009546104a590600160a81b900460ff1681565b34801561082757600080fd5b5061036f610836366004613e82565b612d04565b34801561084757600080fd5b506009546102f4906001600160a01b031681565b34801561086757600080fd5b506008546102f4906001600160a01b031681565b60048054604080516322d7586760e11b8152905160009384936001600160a01b0316926345aeb0ce9281830192602092829003018187875af11580156108c5573d6000803e3d6000fd5b505050506040513d601f19601f820116820180604052508101906108e99190613fc1565b90506b033b2e3cb548ff197d3905a160006001600160801b038316810361091f57506001600160801b0381166010819055610992565b601154600090610938906001600160801b031642613ff4565b6017546001600160801b03918216925061096091858116918491600160801b90910416612d7d565b60105461096d919061401b565b60175490925061098d90600160801b90046001600160801b031683614048565b601055505b9392505050565b6001600160a01b038516158015906109b557506001853b151514155b610a1f5760405162461bcd60e51b815260206004820152603060248201527f546f20616464726573732063616e6e6f742062652061207a65726f20616e642060448201526f636f6e7472616374206164647265737360801b60648201526084015b60405180910390fd5b600c80546001600160401b0385166fffffffffffffffffffffffffffffffff1991821617909155601180549091166001600160801b03421617905560048054604051634d5c56a560e01b815260009283926001600160a01b031691634d5c56a591610a8e9133918b910161405c565b61028060405180830381865afa158015610aac573d6000803e3d6000fd5b505050506040513d601f19601f82011682018060405250810190610ad091906140d6565b91509150856001600160401b0316826001600160401b0316106115b75780610120015115610b405760405162461bcd60e51b815260206004820152601f60248201527f5573657220616d6f756e7420686173206265656e206c697175696461746564006044820152606401610a16565b60e08101511515600003611563578060c0015160ff16600003611447576060810151600090610b718761271061426a565b6001600160401b0316610b849190614295565b9050611f40816001600160801b031611610bd95760405162461bcd60e51b8152602060048201526016602482015275426f72726f77696e674865616c7468206973204c6f7760501b6044820152606401610a16565b60175460105460a08401516000926001600160801b03600160801b909104811692610c069290911661401b565b610c109190614048565b601754909150600160801b90046001600160801b0316610c2e61087b565b610c389190614048565b6010556001546040516370a0823160e01b815233600482015282916001600160a01b0316906370a0823190602401602060405180830381865afa158015610c83573d6000803e3d6000fd5b505050506040513d601f19601f82011682018060405250810190610ca791906142bb565b1015610d005760405162461bcd60e51b815260206004820152602260248201527f557365722062616c616e6365206973206c657373207468616e20726571756972604482015261195960f21b6064820152608401610a16565b6001600160401b038088166101408501819052908716610160850152600160c0850152602084015160009160649182908190610d3d9060326142d4565b610d479190614295565b610d529060146142d4565b610d5c9190614295565b610d6691906142d4565b610d709190614295565b6001600160801b03169050600081606486608001516032610d9191906142d4565b610d9b9190614295565b6001600160801b0316610dae91906142f7565b6001546040516363a9f09360e11b8152336004820152602481018390529192506000916001600160a01b039091169063c753e126906044016020604051808303816000875af1158015610e05573d6000803e3d6000fd5b505050506040513d601f19601f82011682018060405250810190610e29919061430a565b905080610e49576040516303f7009160e51b815260040160405180910390fd5b6001546007546000916001600160a01b03908116916323b872dd91339116610e71878a6142f7565b6040516001600160e01b031960e086901b1681526001600160a01b03938416600482015292909116602483015260448201526064016020604051808303816000875af1158015610ec5573d6000803e3d6000fd5b505050506040513d601f19601f82011682018060405250810190610ee9919061430a565b905080610f0957604051630aae388960e41b815260040160405180910390fd5b60045460808801516001600160a01b039091169063b9a221eb90610f36906001600160801b0316886142f7565b6040518263ffffffff1660e01b8152600401610f5491815260200190565b600060405180830381600087803b158015610f6e57600080fd5b505af1158015610f82573d6000803e3d6000fd5b505050506000610f9333868c612e3b565b6101e089018590526001600160801b0381166101808a01526004805460405163ef0d5dc160e01b81529293506001600160a01b03169163ef0d5dc191610fdd913391869101614327565b600060405180830381600087803b158015610ff757600080fd5b505af115801561100b573d6000803e3d6000fd5b50505050600460009054906101000a90046001600160a01b03166001600160a01b03166334bc9b20338f8b6040518463ffffffff1660e01b815260040161105493929190614349565b600060405180830381600087803b15801561106e57600080fd5b505af1158015611082573d6000803e3d6000fd5b505050505050505050600080886001600160401b0316856060015186602001516110ac91906142d4565b6110b69190614295565b9050612710846001600160801b031611156111745760055460208601516101a08701516040516310335d6b60e21b81526001600160801b0390921660048301526001600160401b0390811660248301528b1660448201526001600160a01b03909116906340cd75ac90606401602060405180830381865afa15801561113f573d6000803e3d6000fd5b505050506040513d601f19601f820116820180604052508101906111639190613fc1565b61116d908261451f565b9150611204565b836001600160801b03166127100361118e57809150611204565b836001600160801b0316611f401080156111b25750612710846001600160801b0316105b156111c35784602001519150611204565b60405162461bcd60e51b8152602060048201526016602482015275426f72726f77696e674865616c7468206973204c6f7760501b6044820152606401610a16565b60646112118360326142d4565b61121b9190614295565b91506112556040518060400160405280600d81526020016c32ba34103a37903932ba3ab93760991b815250836001600160801b0316613023565b6000600460009054906101000a90046001600160a01b03166001600160a01b031663fe6520ae338e868f8f6040518663ffffffff1660e01b81526004016112a095949392919061453f565b6020604051808303816000875af11580156112bf573d6000803e3d6000fd5b505050506040513d601f19601f820116820180604052508101906112e3919061430a565b90508061130357604051635e5e86d560e01b815260040160405180910390fd5b600160009054906101000a90046001600160a01b03166001600160a01b03166318160ddd6040518163ffffffff1660e01b8152600401602060405180830381865afa158015611356573d6000803e3d6000fd5b505050506040513d601f19601f8201168201806040525081019061137a91906142bb565b601255600354604080516318160ddd60e01b815290516001600160a01b03909216916318160ddd916004808201926020929091908290030181865afa1580156113c7573d6000803e3d6000fd5b505050506040513d601f19601f820116820180604052508101906113eb91906142bb565b601355610180860151604080518681526001600160801b03868116602083015290921682820152517f2dc3b614e32706dcf24286e69af4692f4b2c24fc339d659e80b26d49379b69149181900360600190a1505050505061160e565b8060c0015160ff166001036115635761147387878784610160015185610180015186610100015161306c565b600160009054906101000a90046001600160a01b03166001600160a01b03166318160ddd6040518163ffffffff1660e01b8152600401602060405180830381865afa1580156114c6573d6000803e3d6000fd5b505050506040513d601f19601f820116820180604052508101906114ea91906142bb565b601255600354604080516318160ddd60e01b815290516001600160a01b03909216916318160ddd916004808201926020929091908290030181865afa158015611537573d6000803e3d6000fd5b505050506040513d601f19601f8201168201806040525081019061155b91906142bb565b60135561160e565b60405162461bcd60e51b815260206004820152602360248201527f5573657220616c726561647920776974686472617720656e7469726520616d6f6044820152621d5b9d60ea1b6064820152608401610a16565b60405162461bcd60e51b815260206004820152602660248201527f5573657220646f656e73277420686176652074686520706572746963756c6172604482015265040d2dcc8caf60d31b6064820152608401610a16565b50505050505050565b60008415806116265750844211155b6116635760405162461bcd60e51b815260206004820152600e60248201526d14195c9b5a5d0bd95e1c1a5c995960921b6044820152606401610a16565b601554604080517ff48167ebcd5a3b4ca5517473931d60b9a75b03f56e5e6363767fa277375eb08060208201526001600160a01b03808d1692820192909252908a1660608201526080810189905287151560a082015260c081018790526000919060e0016040516020818303038152906040528051906020012060405160200161170492919061190160f01b81526002810192909252602282015260420190565b60408051601f19818403018152919052805160209091012090506001600160a01b038a1661176d5760405162461bcd60e51b81526020600482015260166024820152755065726d69742f496e76616c6964206164647265737360501b6044820152606401610a16565b60408051600081526020810180835283905260ff871691810191909152606081018590526080810184905260019060a0016020604051602081039080840390855afa1580156117c0573d6000803e3d6000fd5b505050602060405103516001600160a01b03168a6001600160a01b0316146118225760405162461bcd60e51b815260206004820152601560248201527414195c9b5a5d0bda5b9d985b1a590b5c195c9b5a5d605a1b6044820152606401610a16565b5060019998505050505050505050565b61183a6135ec565b6001600160a01b038116158015906118525750803b15155b6118c45760405162461bcd60e51b815260206004820152603960248201527f5472656173757279206d75737420626520636f6e74726163742061646472657360448201527f7320262063616e2774206265207a65726f2061646472657373000000000000006064820152608401610a16565b600480546001600160a01b039092166001600160a01b0319928316811790915560078054909216179055565b6118f86135ec565b600480546040516306ef62b960e11b81526001600160401b038416928101929092526001600160a01b031690630ddec572906024015b600060405180830381600087803b15801561194857600080fd5b505af115801561195c573d6000803e3d6000fd5b5050505050565b600b5460408051633fabe5a360e21b815290516000926001600160a01b0316918391839163feaf968c9160048083019260a09291908290030181865afa1580156119b1573d6000803e3d6000fd5b505050506040513d601f19601f820116820180604052508101906119d5919061459e565b50506016549193506119f29250506001600160801b031682614048565b9250505090565b60003411611a495760405162461bcd60e51b815260206004820152601a60248201527f43616e6e6f74206465706f736974207a65726f20746f6b656e730000000000006044820152606401610a16565b34333111611abf5760405162461bcd60e51b815260206004820152603e60248201527f596f7520646f206e6f7420686176652073756666696369656e742062616c616e60448201527f636520746f20657865637574652074686973207472616e73616374696f6e00006064820152608401610a16565b6000611ad434876001600160801b0316613646565b601754909150611aee906001600160801b031660026142d4565b6001600160801b0316816001600160401b03161015611b485760405162461bcd60e51b81526020600482015260166024820152754e6f7420656e6f7567682066756e6420696e2043445360501b6044820152606401610a16565b6004805460405163dcb71f3f60e01b815233928101929092526001600160801b03881660248301526001600160401b038716604483015260009182916001600160a01b03169063dcb71f3f903490606401604080518083038185885af1158015611bb6573d6000803e3d6000fd5b50505050506040513d601f19601f82011682018060405250810190611bdb91906145ee565b60055460405163338271f960e21b81529294509092506000916001600160a01b039091169063ce09c7e490611c1890889034908c90600401614628565b6020604051808303816000875af1158015611c37573d6000803e3d6000fd5b505050506040513d601f19601f82011682018060405250810190611c5b91906142bb565b905082611c7b57604051634fad3b0960e01b815260040160405180910390fd5b6000611c8933348c85613974565b60025460405163b87c3dc360e01b81526001600160801b03851660048201529192506001600160a01b03169063b87c3dc3906024016020604051808303816000875af1158015611cdd573d6000803e3d6000fd5b505050506040513d601f19601f82011682018060405250810190611d019190613fc1565b5060048054604051634d5c56a560e01b81526000926001600160a01b0390921691634d5c56a591611d3691339189910161405c565b61028060405180830381865afa158015611d54573d6000803e3d6000fd5b505050506040513d601f19601f82011682018060405250810190611d7891906140d6565b6001600160801b03848116608083015285166101c082015260048054604051632e449f1760e21b81523392810192909252600160248301529193506001600160a01b03909116915063b9127c5c90604401600060405180830381600087803b158015611de357600080fd5b505af1158015611df7573d6000803e3d6000fd5b505060048054604051630e6840d960e11b81523392810192909252602482018690526001600160a01b03169250631cd081b29150604401600060405180830381600087803b158015611e4857600080fd5b505af1158015611e5c573d6000803e3d6000fd5b505050506000611e6a61087b565b6017549091506000908290600160801b90046001600160801b0316611e8f818761401b565b611e99919061401b565b611ea39190614048565b6001600160801b03811660a08501526001600160401b038b166101a0850152600480546040516301a5e4d960e51b81529293506001600160a01b0316916334bc9b2091611ef69133918b91899101614349565b600060405180830381600087803b158015611f1057600080fd5b505af1158015611f24573d6000803e3d6000fd5b5050505080600a6000828254611f3a9190614662565b925050819055508c600c60006101000a8154816001600160801b0302191690836001600160801b0316021790555042601160006101000a8154816001600160801b0302191690836001600160801b031602179055507f3f7c04c09b19100060129256b7d82f055d0aa72cf17042fb3f2d41d1fffc026086348684604051611fe594939291906001600160401b0394909416845260208401929092526040830152606082015260800190565b60405180910390a150505050505050505050505050565b6007546001600160a01b0316331461201357600080fd5b8060000361206e5760405162461bcd60e51b815260206004820152602260248201527f4c61737420455448207661756c742076616c75652063616e2774206265207a65604482015261726f60f01b6064820152608401610a16565b80600d600082825461208091906142f7565b909155505050565b6120906135ec565b6001600160a01b038116158015906120ac57506001813b151514155b61210f5760405162461bcd60e51b815260206004820152602e60248201527f41646d696e2063616e277420626520636f6e747261637420616464726573732060448201526d26207a65726f206164647265737360901b6064820152608401610a16565b600980546001600160a01b0319166001600160a01b0392909216919091179055565b6121396135ec565b6121436000613c78565b565b61214d6135ec565b8060ff166000036121995760405162461bcd60e51b81526020600482015260166024820152754150592073686f756c64206e6f74206265207a65726f60501b6044820152606401610a16565b6009805460ff909216600160a81b0260ff60a81b19909216919091179055565b6121c16135ec565b6001600160a01b038116158015906121d95750803b15155b61224b5760405162461bcd60e51b815260206004820152603860248201527f4f7074696f6e73206d75737420626520636f6e7472616374206164647265737360448201527f20262063616e2774206265207a65726f206164647265737300000000000000006064820152608401610a16565b600580546001600160a01b0319166001600160a01b0392909216919091179055565b6122756135ec565b806001600160401b03166000036122d85760405162461bcd60e51b815260206004820152602160248201527f57697468647261772074696d65206c696d69742063616e2774206265207a65726044820152606f60f81b6064820152608401610a16565b6014805467ffffffffffffffff19166001600160401b0392909216919091179055565b6123036135ec565b60048054604080516301865f0760e21b815290516001600160a01b03909216926306197c1c92828201926000929082900301818387803b15801561234657600080fd5b505af115801561235a573d6000803e3d6000fd5b50505050565b6123686135ec565b6009805460ff909216600160a01b0260ff60a01b19909216919091179055565b6123906135ec565b60048054604080516306e1444d60e21b815290516001600160a01b0390921692631b85113492828201926000929082900301818387803b15801561234657600080fd5b6009546001600160a01b031633146123ea57600080fd5b6001600160a01b03831661244c5760405162461bcd60e51b815260206004820152602360248201527f546f20616464726573732063616e6e6f742062652061207a65726f206164647260448201526265737360e81b6064820152608401610a16565b6001600160a01b03831633036124b25760405162461bcd60e51b815260206004820152602560248201527f596f752063616e6e6f74206c697175696461746520796f7572206f776e206173604482015264736574732160d81b6064820152608401610a16565b60118054849184916010906124d690600160801b90046001600160801b0316614675565b82546001600160801b039182166101009390930a928302919092021990911617905560048054604051634d5c56a560e01b81526000926001600160a01b0390921691634d5c56a59161252c91879187910161405c565b61028060405180830381865afa15801561254a573d6000803e3d6000fd5b505050506040513d601f19601f8201168201806040525081019061256e91906140d6565b915050806101200151156125b95760405162461bcd60e51b8152602060048201526012602482015271105b1c9958591e48131a5c5d5a59185d195960721b6044820152606401610a16565b6004805460408051630f27449560e01b815290516001600160a01b0390921692630f2744959282820192602092908290030181865afa158015612600573d6000803e3d6000fd5b505050506040513d601f19601f8201168201806040525081019061262491906142bb565b81602001516001600160801b031611156126805760405162461bcd60e51b815260206004820152601c60248201527f4e6f7420656e6f7567682066756e647320696e207472656173757279000000006044820152606401610a16565b60608101516000906126948661271061426a565b6001600160401b03166126a79190614295565b9050611f40816001600160801b031611156126fb5760405162461bcd60e51b8152602060048201526014602482015273596f752063616e6e6f74206c697175696461746560601b6044820152606401610a16565b600161012083015260175460105460a08401516000926001600160801b03600160801b9091048116926127309290911661401b565b61273a9190614048565b601754909150600160801b90046001600160801b031661275861087b565b6127629190614048565b60105560608301516020840151829160009160649184918391612784916142d4565b61278e9190614295565b6127989190613ff4565b6127a390600a6142d4565b6127ad9190614295565b9050600081836064886060015189602001516127c991906142d4565b6127d39190614295565b6127dd9190613ff4565b6127e79190613ff4565b905060006127f5838561451f565b6040805160808101825260008082526020820181905291810182905260608101919091529091506040518060800160405280836001600160801b03168152602001846001600160801b0316815260200189602001516001600160801b03168152602001600260009054906101000a90046001600160a01b03166001600160a01b031663dc91e7526040518163ffffffff1660e01b81526004016020604051808303816000875af11580156128ad573d6000803e3d6000fd5b505050506040513d601f19601f820116820180604052508101906128d191906142bb565b90526002546011546040805163b3013d4d60e01b8152600160801b9092046001600160801b03908116600484015284518116602484015260208501518116604484015290840151166064820152606083015160848201529192506001600160a01b03169063b3013d4d9060a401600060405180830381600087803b15801561295857600080fd5b505af115801561296c573d6000803e3d6000fd5b505060025460405163dc55b19360e01b81526001600160801b03861660048201526001600160a01b03909116925063dc55b1939150602401600060405180830381600087803b1580156129be57600080fd5b505af11580156129d2573d6000803e3d6000fd5b5050600254604051634cae95d360e01b81526001600160801b03861660048201526001600160a01b039091169250634cae95d39150602401600060405180830381600087803b158015612a2457600080fd5b505af1158015612a38573d6000803e3d6000fd5b505050506000846001600160801b031687876001600160801b0316612a5d91906142f7565b612a679190614662565b600480546040516308fc416760e21b81529293506001600160a01b0316916323f1059c91612a9b9185910190815260200190565b600060405180830381600087803b158015612ab557600080fd5b505af1158015612ac9573d6000803e3d6000fd5b5050600480546040516301a5e4d960e51b81526001600160a01b0390911693506334bc9b209250612b00918f918f918f9101614349565b600060405180830381600087803b158015612b1a57600080fd5b505af1158015612b2e573d6000803e3d6000fd5b50506004805460808d0151604051630adfd5a560e21b81526001600160a01b039092169450632b7f56949350612b6692309201614327565b600060405180830381600087803b158015612b8057600080fd5b505af1158015612b94573d6000803e3d6000fd5b505060015460075460808d01516040516363a9f09360e11b8152600095506001600160a01b03938416945063c753e12693612bd493169190600401614327565b6020604051808303816000875af1158015612bf3573d6000803e3d6000fd5b505050506040513d601f19601f82011682018060405250810190612c17919061430a565b905080612c3757604051632105f02360e11b815260040160405180910390fd5b600160009054906101000a90046001600160a01b03166001600160a01b03166318160ddd6040518163ffffffff1660e01b8152600401602060405180830381865afa158015612c8a573d6000803e3d6000fd5b505050506040513d601f19601f82011682018060405250810190612cae91906142bb565b601255505050505050505050505050505050565b612cca6135ec565b60048054604051630376724160e41b81526001600160401b038416928101929092526001600160a01b03169063376724109060240161192e565b612d0c6135ec565b6001600160a01b038116612d715760405162461bcd60e51b815260206004820152602660248201527f4f776e61626c653a206e6577206f776e657220697320746865207a65726f206160448201526564647265737360d01b6064820152608401610a16565b612d7a81613c78565b50565b6000838015612e1d57600184168015612d9857859250612d9c565b8392505b50600283046002850494505b8415612e17578586028687820414612dbf57600080fd5b81810181811015612dcf57600080fd5b8590049650506001851615612e0c578583028387820414158715151615612df557600080fd5b81810181811015612e0557600080fd5b8590049350505b600285049450612da8565b50612e33565b838015612e2d5760009250612e31565b8392505b505b509392505050565b60006001600160a01b038416612e935760405162461bcd60e51b815260206004820152601f60248201527f426f72726f7765722063616e6e6f74206265207a65726f2061646472657373006044820152606401610a16565b82600003612eda5760405162461bcd60e51b8152602060048201526014602482015273416d6f756e742063616e2774206265207a65726f60601b6044820152606401610a16565b6000612ee783606461426a565b6001600160401b0316612efb8560646142d4565b612f059190614295565b6003546040516340c10f1960e01b81529192506000916001600160a01b03909116906340c10f1990612f3d9089908690600401614327565b6020604051808303816000875af1158015612f5c573d6000803e3d6000fd5b505050506040513d601f19601f82011682018060405250810190612f80919061430a565b905080612fa0576040516368a3803760e11b815260040160405180910390fd5b600360009054906101000a90046001600160a01b03166001600160a01b03166318160ddd6040518163ffffffff1660e01b8152600401602060405180830381865afa158015612ff3573d6000803e3d6000fd5b505050506040513d601f19601f8201168201806040525081019061301791906142bb565b60135550949350505050565b613068828260405160240161303992919061469b565b60408051601f198184030181529190526020810180516001600160e01b0316632d839cb360e21b179052613cc8565b5050565b601454613082906001600160401b0316846146bd565b6001600160401b03164210156130eb5760405162461bcd60e51b815260206004820152602860248201527f41206d6f6e7468206e6f742079657420636f6d706c657465642073696e636520604482015267776974686472617760c01b6064820152608401610a16565b6003546040516370a0823160e01b81523360048201526001600160801b038416916001600160a01b0316906370a0823190602401602060405180830381865afa15801561313c573d6000803e3d6000fd5b505050506040513d601f19601f8201168201806040525081019061316091906142bb565b146131b75760405162461bcd60e51b815260206004820152602160248201527f446f6e2774206861766520656e6f7567682050726f746f636f6c20546f6b656e6044820152607360f81b6064820152608401610a16565b60048054604051634d5c56a560e01b81526000926001600160a01b0390921691634d5c56a5916131eb9133918b910161405c565b61028060405180830381865afa158015613209573d6000803e3d6000fd5b505050506040513d601f19601f8201168201806040525081019061322d91906140d6565b600480546020830151604051631b35376f60e21b81529395506001600160a01b039091169350636cd4ddbc926132669233929101614327565b600060405180830381600087803b15801561328057600080fd5b505af1158015613294573d6000803e3d6000fd5b5050600160e08401525050600260c082015260048054604051630edd59bf60e21b81526001600160a01b0390911691633b7566fc916132d7913391889101614327565b600060405180830381600087803b1580156132f157600080fd5b505af1158015613305573d6000803e3d6000fd5b505060006101808401525050600480546040516301a5e4d960e51b81526001600160a01b03909116916334bc9b20916133449133918b91879101614349565b600060405180830381600087803b15801561335e57600080fd5b505af1158015613372573d6000803e3d6000fd5b505060045460808401516001600160a01b039091169250632b7f5694915030906064906133a09060326142d4565b6133aa9190614295565b6040518363ffffffff1660e01b81526004016133c7929190614327565b600060405180830381600087803b1580156133e157600080fd5b505af11580156133f5573d6000803e3d6000fd5b50506001546007546101e08501516040516363a9f09360e11b81526001600160a01b0392831660048201526024810191909152600094509116915063c753e126906044016020604051808303816000875af1158015613458573d6000803e3d6000fd5b505050506040513d601f19601f8201168201806040525081019061347c919061430a565b90508061349c576040516303f7009160e51b815260040160405180910390fd5b6003546040516363a9f09360e11b81526000916001600160a01b03169063c753e126906134cf9033908990600401614327565b6020604051808303816000875af11580156134ee573d6000803e3d6000fd5b505050506040513d601f19601f82011682018060405250810190613512919061430a565b905080613532576040516303f7009160e51b815260040160405180910390fd5b6000600460009054906101000a90046001600160a01b03166001600160a01b031663fe6520ae338c888d8d6040518663ffffffff1660e01b815260040161357d95949392919061453f565b6020604051808303816000875af115801561359c573d6000803e3d6000fd5b505050506040513d601f19601f820116820180604052508101906135c0919061430a565b9050806135e057604051635e5e86d560e01b815260040160405180910390fd5b50505050505050505050565b6000546001600160a01b031633146121435760405162461bcd60e51b815260206004820181905260248201527f4f776e61626c653a2063616c6c6572206973206e6f7420746865206f776e65726044820152606401610a16565b6000808260000361366a576040516315e73e9f60e01b815260040160405180910390fd5b6000600460009054906101000a90046001600160a01b03166001600160a01b03166345aeb0ce6040518163ffffffff1660e01b81526004016020604051808303816000875af11580156136c1573d6000803e3d6000fd5b505050506040513d601f19601f820116820180604052508101906136e59190613fc1565b600c549091506001600160801b031684111561372657600c546001600160801b03808316916137159116866142f7565b61371f919061401b565b915061374e565b600c546001600160801b0380831691613741918791166142f7565b61374b919061401b565b91505b600080826001600160801b031660000361382b5761376c868861401b565b600d819055600254604080516315d9753160e11b815290519294506001600160a01b0390911691632bb2ea62916004808201926020929091908290030181865afa1580156137be573d6000803e3d6000fd5b505050506040513d601f19601f820116820180604052508101906137e29190613fc1565b6001600160801b03908116600f55600c541686106138105783600f546138089190614662565b600e55613822565b83600f5461381e91906142f7565b600e555b50600e5461393a565b613835868861401b565b600d546138429190614662565b915081600d819055506000600260009054906101000a90046001600160a01b03166001600160a01b0316632bb2ea626040518163ffffffff1660e01b8152600401602060405180830381865afa1580156138a0573d6000803e3d6000fd5b505050506040513d601f19601f820116820180604052508101906138c49190613fc1565b600c546001600160801b0391821692501687106139085784600f54826138ea91906142f7565b600e546138f79190614662565b6139019190614662565b9150613931565b84600f548261391791906142f7565b600e546139249190614662565b61392e91906142f7565b91505b600f55600e8190555b601654600090839061395c90600160801b90046001600160801b03168461401b565b6139669190614048565b955050505050505b92915050565b60006001600160a01b0385166139cc5760405162461bcd60e51b815260206004820152601f60248201527f426f72726f7765722063616e6e6f74206265207a65726f2061646472657373006044820152606401610a16565b600954600160a01b900460ff16600003613a4e5760405162461bcd60e51b815260206004820152603860248201527f4c5456206d7573742062652073657420746f206e6f6e2d7a65726f2076616c7560448201527f65206265666f72652070726f766964696e67206c6f616e7300000000000000006064820152608401610a16565b6000613a636001600160801b0385168661401b565b6017546009549192506000916001600160801b0390911690613a8f90600160a01b900460ff168461401b565b613a999190614048565b6001549091506000906001600160a01b03166340c10f1989613abb88866142f7565b6040516001600160e01b031960e085901b1681526001600160a01b03909216600483015260248201526044016020604051808303816000875af1158015613b06573d6000803e3d6000fd5b505050506040513d601f19601f82011682018060405250810190613b2a919061430a565b6001546007546040516340c10f1960e01b81526001600160a01b039182166004820152602481018990529293506000929116906340c10f19906044016020604051808303816000875af1158015613b85573d6000803e3d6000fd5b505050506040513d601f19601f82011682018060405250810190613ba9919061430a565b905081613bc9576040516309ad720160e01b815260040160405180910390fd5b80613be7576040516309ad720160e01b815260040160405180910390fd5b600160009054906101000a90046001600160a01b03166001600160a01b03166318160ddd6040518163ffffffff1660e01b8152600401602060405180830381865afa158015613c3a573d6000803e3d6000fd5b505050506040513d601f19601f82011682018060405250810190613c5e91906142bb565b601255613c6b86846142f7565b9998505050505050505050565b600080546001600160a01b038381166001600160a01b0319831681178455604051919092169283917f8be0079c531659141344cd1fd0a4f28419497f9722a3daafe3b4186f6b6457e09190a35050565b612d7a8160006a636f6e736f6c652e6c6f679050600080835160208501845afa505050565b6000815180845260005b81811015613d1357602081850181015186830182015201613cf7565b506000602082860101526020601f19601f83011685010191505092915050565b6020815260006109926020830184613ced565b80356001600160a01b0381168114613d5d57600080fd5b919050565b6001600160401b0381168114612d7a57600080fd5b600080600080600060a08688031215613d8f57600080fd5b613d9886613d46565b94506020860135613da881613d62565b93506040860135613db881613d62565b92506060860135613dc881613d62565b91506080860135613dd881613d62565b809150509295509295909350565b8015158114612d7a57600080fd5b60ff81168114612d7a57600080fd5b600080600080600080600080610100898b031215613e2057600080fd5b613e2989613d46565b9750613e3760208a01613d46565b9650604089013595506060890135613e4e81613de6565b94506080890135935060a0890135613e6581613df4565b979a969950949793969295929450505060c08201359160e0013590565b600060208284031215613e9457600080fd5b61099282613d46565b600060208284031215613eaf57600080fd5b813561099281613d62565b6001600160801b0381168114612d7a57600080fd5b600080600080600060a08688031215613ee757600080fd5b8535613ef281613eba565b94506020860135613f0281613d62565b9350604086013560058110613f1657600080fd5b92506060860135613f2681613d62565b949793965091946080013592915050565b600060208284031215613f4957600080fd5b5035919050565b600060208284031215613f6257600080fd5b813561099281613df4565b600080600060608486031215613f8257600080fd5b613f8b84613d46565b92506020840135613f9b81613d62565b91506040840135613fab81613d62565b809150509250925092565b8051613d5d81613eba565b600060208284031215613fd357600080fd5b815161099281613eba565b634e487b7160e01b600052601160045260246000fd5b6001600160801b0382811682821603908082111561401457614014613fde565b5092915050565b808202811582820484141761396e5761396e613fde565b634e487b7160e01b600052601260045260246000fd5b60008261405757614057614032565b500490565b6001600160a01b039290921682526001600160401b0316602082015260400190565b8051613d5d81613d62565b60405161026081016001600160401b03811182821017156140ba57634e487b7160e01b600052604160045260246000fd5b60405290565b8051613d5d81613df4565b8051613d5d81613de6565b6000808284036102808112156140eb57600080fd5b83516140f681613d62565b9250610260601f19820181131561410c57600080fd5b614114614089565b91506141226020860161407e565b825261413060408601613fb6565b60208301526141416060860161407e565b604083015261415260808601613fb6565b606083015261416360a08601613fb6565b608083015261417460c08601613fb6565b60a083015261418560e086016140c0565b60c08301526101006141988187016140cb565b60e08401526101206141ab818801613fb6565b8285015261014091506141bf8288016140cb565b908401526101606141d187820161407e565b8285015261018091506141e582880161407e565b908401526101a06141f7878201613fb6565b828501526101c0915061420b82880161407e565b908401526101e061421d878201613fb6565b82850152610200915081870151818501525061022061423d81880161407e565b82850152610240915081870151818501525061425a828701613fb6565b9083015250919491935090915050565b6001600160401b0381811683821602808216919082811461428d5761428d613fde565b505092915050565b60006001600160801b03808416806142af576142af614032565b92169190910492915050565b6000602082840312156142cd57600080fd5b5051919050565b6001600160801b0381811683821602808216919082811461428d5761428d613fde565b8181038181111561396e5761396e613fde565b60006020828403121561431c57600080fd5b815161099281613de6565b6001600160a01b039290921682526001600160801b0316602082015260400190565b6001600160a01b03841681526001600160401b03838116602083015282511660408201526102a0810160208301516001600160801b03811660608401525060408301516001600160401b03811660808401525060608301516001600160801b03811660a08401525060808301516001600160801b03811660c08401525060a08301516001600160801b03811660e08401525060c08301516101006143f18185018360ff169052565b60e085015191506101206144088186018415159052565b90850151915061014090614426858301846001600160801b03169052565b850151915061016061443b8582018415159052565b90850151915061018090614459858301846001600160401b03169052565b85015191506101a0614475858201846001600160401b03169052565b9085015191506101c090614493858301846001600160801b03169052565b85015191506101e06144af858201846001600160401b03169052565b908501519150610200906144cd858301846001600160801b03169052565b85015161022085810191909152908501519150610240906144f8828601846001600160401b03169052565b8501516102608501528401516001600160801b038116610280850152905050949350505050565b6001600160801b0381811683821601908082111561401457614014613fde565b6001600160a01b0395861681529390941660208401526001600160801b039190911660408301526001600160401b039081166060830152909116608082015260a00190565b805169ffffffffffffffffffff81168114613d5d57600080fd5b600080600080600060a086880312156145b657600080fd5b6145bf86614584565b94506020860151935060408601519250606086015191506145e260808701614584565b90509295509295909350565b6000806040838503121561460157600080fd5b825161460c81613de6565b602084015190925061461d81613d62565b809150509250929050565b83815260208101839052606081016005831061465457634e487b7160e01b600052602160045260246000fd5b826040830152949350505050565b8082018082111561396e5761396e613fde565b60006001600160801b0380831681810361469157614691613fde565b6001019392505050565b6040815260006146ae6040830185613ced565b90508260208301529392505050565b6001600160401b0381811683821601908082111561401457614014613fde56fea26469706673582212208d772ba71b9ef2c93d632aa53b65d9c725a263ea979b01c1e7d84120474f202e64736f6c63430008120033","linkReferences":{}},"methodIdentifiers":{"APY()":"ef8bd305","DOMAIN_SEPARATOR()":"3644e515","PERMIT_TYPEHASH()":"30adf81f","Trinity()":"e6d97f17","admin()":"f851a440","calculateCumulativeRate()":"181ab6db","cds()":"b4eb10ce","cdsAddress()":"fe925884","depositToAaveProtocol()":"98afda43","depositToCompoundProtocol()":"b8f49090","depositTokens(uint128,uint64,uint8,uint64,uint256)":"5e34783e","getAPY()":"d2cbf7ad","getLTV()":"4ed2b8ac","getUSDValue()":"50593af7","initializeTreasury(address)":"3ed086f4","lastCDSPoolValue()":"84e92128","lastCumulativeRate()":"8e4db39a","lastEthVaultValue()":"99eb2f6c","lastEthprice()":"2feabb52","lastTotalCDSPool()":"e42f8090","liquidate(address,uint64,uint64)":"d5c28dba","name()":"06fdde03","noOfLiquidations()":"38a912d5","options()":"1069143a","owner()":"8da5cb5b","permit(address,address,uint256,bool,uint256,uint8,bytes32,bytes32)":"2ccd9ed4","priceFeedAddress()":"e0abca0b","protocolToken()":"1a465fe1","renounceOwnership()":"715018a6","setAPY(uint8)":"73ca55a2","setAdmin(address)":"704b6c02","setLTV(uint8)":"aad2476d","setOptions(address)":"7d6dff7d","setWithdrawTimeLimit(uint64)":"868c10d2","totalAmintSupply()":"b3aebb9c","totalDiracSupply()":"606303f8","totalNormalizedAmount()":"6fdc5203","transferOwnership(address)":"f2fde38b","treasury()":"61d027b3","treasuryAddress()":"c5f956af","updateLastEthVaultValue(uint256)":"661b7d3e","version()":"54fd4d50","withDraw(address,uint64,uint64,uint64,uint64)":"2bf16927","withdrawFromAaveProtocol(uint64)":"ec11dab2","withdrawFromCompoundProtocol(uint64)":"3f3006b4","withdrawTimeLimit()":"4f04a86b"},"id":2}