{"abi":[{"type":"function","name":"UPGRADE_INTERFACE_VERSION","inputs":[],"outputs":[{"name":"","type":"string","internalType":"string"}],"stateMutability":"view"},{"type":"function","name":"allowInitializePath","inputs":[{"name":"origin","type":"tuple","internalType":"struct Origin","components":[{"name":"srcEid","type":"uint32","internalType":"uint32"},{"name":"sender","type":"bytes32","internalType":"bytes32"},{"name":"nonce","type":"uint64","internalType":"uint64"}]}],"outputs":[{"name":"","type":"bool","internalType":"bool"}],"stateMutability":"view"},{"type":"function","name":"calculateCumulativeRate","inputs":[],"outputs":[{"name":"","type":"uint256","internalType":"uint256"}],"stateMutability":"nonpayable"},{"type":"function","name":"calculateRatio","inputs":[{"name":"_amount","type":"uint256","internalType":"uint256"},{"name":"currentEthPrice","type":"uint256","internalType":"uint256"}],"outputs":[{"name":"","type":"uint64","internalType":"uint64"}],"stateMutability":"nonpayable"},{"type":"function","name":"depositTokens","inputs":[{"name":"_ethPrice","type":"uint128","internalType":"uint128"},{"name":"_depositTime","type":"uint64","internalType":"uint64"},{"name":"_strikePercent","type":"uint8","internalType":"enum IOptions.StrikePrice"},{"name":"_strikePrice","type":"uint64","internalType":"uint64"},{"name":"_volatility","type":"uint256","internalType":"uint256"},{"name":"_depositingAmount","type":"uint256","internalType":"uint256"}],"outputs":[],"stateMutability":"payable"},{"type":"function","name":"endpoint","inputs":[],"outputs":[{"name":"","type":"address","internalType":"contract ILayerZeroEndpointV2"}],"stateMutability":"view"},{"type":"function","name":"getAbondYields","inputs":[{"name":"user","type":"address","internalType":"address"},{"name":"aBondAmount","type":"uint128","internalType":"uint128"}],"outputs":[{"name":"","type":"uint128","internalType":"uint128"},{"name":"","type":"uint256","internalType":"uint256"},{"name":"","type":"uint256","internalType":"uint256"}],"stateMutability":"view"},{"type":"function","name":"getLTV","inputs":[],"outputs":[{"name":"","type":"uint8","internalType":"uint8"}],"stateMutability":"view"},{"type":"function","name":"getUSDValue","inputs":[],"outputs":[{"name":"","type":"uint256","internalType":"uint256"}],"stateMutability":"view"},{"type":"function","name":"initialize","inputs":[{"name":"_tokenAddress","type":"address","internalType":"address"},{"name":"_cds","type":"address","internalType":"address"},{"name":"_abondToken","type":"address","internalType":"address"},{"name":"_multiSign","type":"address","internalType":"address"},{"name":"_priceFeedAddress","type":"address","internalType":"address"},{"name":"chainId","type":"uint64","internalType":"uint64"},{"name":"_endpoint","type":"address","internalType":"address"},{"name":"_delegate","type":"address","internalType":"address"}],"outputs":[],"stateMutability":"nonpayable"},{"type":"function","name":"isComposeMsgSender","inputs":[{"name":"","type":"tuple","internalType":"struct Origin","components":[{"name":"srcEid","type":"uint32","internalType":"uint32"},{"name":"sender","type":"bytes32","internalType":"bytes32"},{"name":"nonce","type":"uint64","internalType":"uint64"}]},{"name":"","type":"bytes","internalType":"bytes"},{"name":"_sender","type":"address","internalType":"address"}],"outputs":[{"name":"","type":"bool","internalType":"bool"}],"stateMutability":"view"},{"type":"function","name":"isContract","inputs":[{"name":"addr","type":"address","internalType":"address"}],"outputs":[{"name":"","type":"bool","internalType":"bool"}],"stateMutability":"view"},{"type":"function","name":"lastCumulativeRate","inputs":[],"outputs":[{"name":"","type":"uint256","internalType":"uint256"}],"stateMutability":"view"},{"type":"function","name":"liquidate","inputs":[{"name":"user","type":"address","internalType":"address"},{"name":"index","type":"uint64","internalType":"uint64"},{"name":"currentEthPrice","type":"uint64","internalType":"uint64"}],"outputs":[],"stateMutability":"payable"},{"type":"function","name":"lzReceive","inputs":[{"name":"_origin","type":"tuple","internalType":"struct Origin","components":[{"name":"srcEid","type":"uint32","internalType":"uint32"},{"name":"sender","type":"bytes32","internalType":"bytes32"},{"name":"nonce","type":"uint64","internalType":"uint64"}]},{"name":"_guid","type":"bytes32","internalType":"bytes32"},{"name":"_message","type":"bytes","internalType":"bytes"},{"name":"_executor","type":"address","internalType":"address"},{"name":"_extraData","type":"bytes","internalType":"bytes"}],"outputs":[],"stateMutability":"payable"},{"type":"function","name":"nextNonce","inputs":[{"name":"","type":"uint32","internalType":"uint32"},{"name":"","type":"bytes32","internalType":"bytes32"}],"outputs":[{"name":"nonce","type":"uint64","internalType":"uint64"}],"stateMutability":"view"},{"type":"function","name":"oAppVersion","inputs":[],"outputs":[{"name":"senderVersion","type":"uint64","internalType":"uint64"},{"name":"receiverVersion","type":"uint64","internalType":"uint64"}],"stateMutability":"pure"},{"type":"function","name":"omniChainBorrowingCDSPoolValue","inputs":[],"outputs":[{"name":"","type":"uint256","internalType":"uint256"}],"stateMutability":"view"},{"type":"function","name":"omniChainBorrowingNoOfLiquidations","inputs":[],"outputs":[{"name":"","type":"uint128","internalType":"uint128"}],"stateMutability":"view"},{"type":"function","name":"owner","inputs":[],"outputs":[{"name":"","type":"address","internalType":"address"}],"stateMutability":"view"},{"type":"function","name":"peers","inputs":[{"name":"eid","type":"uint32","internalType":"uint32"}],"outputs":[{"name":"peer","type":"bytes32","internalType":"bytes32"}],"stateMutability":"view"},{"type":"function","name":"proxiableUUID","inputs":[],"outputs":[{"name":"","type":"bytes32","internalType":"bytes32"}],"stateMutability":"view"},{"type":"function","name":"quote","inputs":[{"name":"_dstEid","type":"uint32","internalType":"uint32"},{"name":"_message","type":"tuple","internalType":"struct IBorrowing.OmniChainBorrowingData","components":[{"name":"normalizedAmount","type":"uint256","internalType":"uint256"},{"name":"ethVaultValue","type":"uint256","internalType":"uint256"},{"name":"cdsPoolValue","type":"uint256","internalType":"uint256"},{"name":"totalCDSPool","type":"uint256","internalType":"uint256"},{"name":"noOfLiquidations","type":"uint128","internalType":"uint128"},{"name":"ethRemainingInWithdraw","type":"uint256","internalType":"uint256"},{"name":"ethValueRemainingInWithdraw","type":"uint256","internalType":"uint256"},{"name":"nonce","type":"uint64","internalType":"uint64"}]},{"name":"_options","type":"bytes","internalType":"bytes"},{"name":"_payInLzToken","type":"bool","internalType":"bool"}],"outputs":[{"name":"fee","type":"tuple","internalType":"struct MessagingFee","components":[{"name":"nativeFee","type":"uint256","internalType":"uint256"},{"name":"lzTokenFee","type":"uint256","internalType":"uint256"}]}],"stateMutability":"view"},{"type":"function","name":"redeemYields","inputs":[{"name":"user","type":"address","internalType":"address"},{"name":"aBondAmount","type":"uint128","internalType":"uint128"}],"outputs":[{"name":"","type":"uint256","internalType":"uint256"}],"stateMutability":"nonpayable"},{"type":"function","name":"renounceOwnership","inputs":[],"outputs":[],"stateMutability":"nonpayable"},{"type":"function","name":"setAPR","inputs":[{"name":"_ratePerSec","type":"uint128","internalType":"uint128"}],"outputs":[],"stateMutability":"nonpayable"},{"type":"function","name":"setAdmin","inputs":[{"name":"_admin","type":"address","internalType":"address"}],"outputs":[],"stateMutability":"nonpayable"},{"type":"function","name":"setBondRatio","inputs":[{"name":"_bondRatio","type":"uint64","internalType":"uint64"}],"outputs":[],"stateMutability":"nonpayable"},{"type":"function","name":"setBorrowLiquidation","inputs":[{"name":"_borrowLiquidation","type":"address","internalType":"address"}],"outputs":[],"stateMutability":"nonpayable"},{"type":"function","name":"setDelegate","inputs":[{"name":"_delegate","type":"address","internalType":"address"}],"outputs":[],"stateMutability":"nonpayable"},{"type":"function","name":"setDstEid","inputs":[{"name":"_eid","type":"uint32","internalType":"uint32"}],"outputs":[],"stateMutability":"nonpayable"},{"type":"function","name":"setLTV","inputs":[{"name":"_LTV","type":"uint8","internalType":"uint8"}],"outputs":[],"stateMutability":"nonpayable"},{"type":"function","name":"setOptions","inputs":[{"name":"_options","type":"address","internalType":"address"}],"outputs":[],"stateMutability":"nonpayable"},{"type":"function","name":"setPeer","inputs":[{"name":"_eid","type":"uint32","internalType":"uint32"},{"name":"_peer","type":"bytes32","internalType":"bytes32"}],"outputs":[],"stateMutability":"nonpayable"},{"type":"function","name":"setTreasury","inputs":[{"name":"_treasury","type":"address","internalType":"address"}],"outputs":[],"stateMutability":"nonpayable"},{"type":"function","name":"transferOwnership","inputs":[{"name":"newOwner","type":"address","internalType":"address"}],"outputs":[],"stateMutability":"nonpayable"},{"type":"function","name":"updateLastEthVaultValue","inputs":[{"name":"_amount","type":"uint256","internalType":"uint256"}],"outputs":[],"stateMutability":"nonpayable"},{"type":"function","name":"upgradeToAndCall","inputs":[{"name":"newImplementation","type":"address","internalType":"address"},{"name":"data","type":"bytes","internalType":"bytes"}],"outputs":[],"stateMutability":"payable"},{"type":"function","name":"withDraw","inputs":[{"name":"_toAddress","type":"address","internalType":"address"},{"name":"_index","type":"uint64","internalType":"uint64"},{"name":"_ethPrice","type":"uint64","internalType":"uint64"},{"name":"_withdrawTime","type":"uint64","internalType":"uint64"}],"outputs":[],"stateMutability":"payable"},{"type":"event","name":"Deposit","inputs":[{"name":"user","type":"address","indexed":false,"internalType":"address"},{"name":"index","type":"uint64","indexed":false,"internalType":"uint64"},{"name":"depositedAmount","type":"uint256","indexed":false,"internalType":"uint256"},{"name":"normalizedAmount","type":"uint256","indexed":false,"internalType":"uint256"},{"name":"depositedTime","type":"uint256","indexed":false,"internalType":"uint256"},{"name":"ethPrice","type":"uint128","indexed":false,"internalType":"uint128"},{"name":"borrowAmount","type":"uint256","indexed":false,"internalType":"uint256"},{"name":"strikePrice","type":"uint64","indexed":false,"internalType":"uint64"},{"name":"optionsFees","type":"uint256","indexed":false,"internalType":"uint256"},{"name":"strikePricePercent","type":"uint8","indexed":false,"internalType":"enum IOptions.StrikePrice"}],"anonymous":false},{"type":"event","name":"Initialized","inputs":[{"name":"version","type":"uint64","indexed":false,"internalType":"uint64"}],"anonymous":false},{"type":"event","name":"Liquidate","inputs":[{"name":"index","type":"uint64","indexed":false,"internalType":"uint64"},{"name":"liquidationAmount","type":"uint128","indexed":false,"internalType":"uint128"},{"name":"profits","type":"uint128","indexed":false,"internalType":"uint128"},{"name":"ethAmount","type":"uint128","indexed":false,"internalType":"uint128"},{"name":"availableLiquidationAmount","type":"uint256","indexed":false,"internalType":"uint256"}],"anonymous":false},{"type":"event","name":"OwnershipTransferred","inputs":[{"name":"previousOwner","type":"address","indexed":true,"internalType":"address"},{"name":"newOwner","type":"address","indexed":true,"internalType":"address"}],"anonymous":false},{"type":"event","name":"PeerSet","inputs":[{"name":"eid","type":"uint32","indexed":false,"internalType":"uint32"},{"name":"peer","type":"bytes32","indexed":false,"internalType":"bytes32"}],"anonymous":false},{"type":"event","name":"Upgraded","inputs":[{"name":"implementation","type":"address","indexed":true,"internalType":"address"}],"anonymous":false},{"type":"event","name":"Withdraw","inputs":[{"name":"user","type":"address","indexed":false,"internalType":"address"},{"name":"index","type":"uint64","indexed":false,"internalType":"uint64"},{"name":"withdrawTime","type":"uint256","indexed":false,"internalType":"uint256"},{"name":"withdrawAmount","type":"uint128","indexed":false,"internalType":"uint128"},{"name":"noOfAbond","type":"uint128","indexed":false,"internalType":"uint128"},{"name":"borrowDebt","type":"uint256","indexed":false,"internalType":"uint256"}],"anonymous":false},{"type":"error","name":"AddressEmptyCode","inputs":[{"name":"target","type":"address","internalType":"address"}]},{"type":"error","name":"AddressInsufficientBalance","inputs":[{"name":"account","type":"address","internalType":"address"}]},{"type":"error","name":"Borrowing_DepositFailed","inputs":[]},{"type":"error","name":"Borrowing_GettingETHPriceFailed","inputs":[]},{"type":"error","name":"Borrowing_LiquidateBurnFailed","inputs":[]},{"type":"error","name":"Borrowing_LiquidateEthTransferToCdsFailed","inputs":[]},{"type":"error","name":"Borrowing_WithdrawBurnFailed","inputs":[]},{"type":"error","name":"Borrowing_WithdrawEthTransferFailed","inputs":[]},{"type":"error","name":"Borrowing_WithdrawUSDaTransferFailed","inputs":[]},{"type":"error","name":"Borrowing_abondMintFailed","inputs":[]},{"type":"error","name":"Borrowing_usdaMintFailed","inputs":[]},{"type":"error","name":"ERC1967InvalidImplementation","inputs":[{"name":"implementation","type":"address","internalType":"address"}]},{"type":"error","name":"ERC1967NonPayable","inputs":[]},{"type":"error","name":"EndPointUnavailable","inputs":[]},{"type":"error","name":"FailedInnerCall","inputs":[]},{"type":"error","name":"InvalidDelegate","inputs":[]},{"type":"error","name":"InvalidEndpointCall","inputs":[]},{"type":"error","name":"InvalidInitialization","inputs":[]},{"type":"error","name":"InvalidOptionType","inputs":[{"name":"optionType","type":"uint16","internalType":"uint16"}]},{"type":"error","name":"LzTokenUnavailable","inputs":[]},{"type":"error","name":"NoPeer","inputs":[{"name":"eid","type":"uint32","internalType":"uint32"}]},{"type":"error","name":"NotEnoughNative","inputs":[{"name":"msgValue","type":"uint256","internalType":"uint256"}]},{"type":"error","name":"NotInitializing","inputs":[]},{"type":"error","name":"OnlyEndpoint","inputs":[{"name":"addr","type":"address","internalType":"address"}]},{"type":"error","name":"OnlyPeer","inputs":[{"name":"eid","type":"uint32","internalType":"uint32"},{"name":"sender","type":"bytes32","internalType":"bytes32"}]},{"type":"error","name":"OwnableInvalidOwner","inputs":[{"name":"owner","type":"address","internalType":"address"}]},{"type":"error","name":"OwnableUnauthorizedAccount","inputs":[{"name":"account","type":"address","internalType":"address"}]},{"type":"error","name":"ReentrancyGuardReentrantCall","inputs":[]},{"type":"error","name":"SafeCastOverflowedUintDowncast","inputs":[{"name":"bits","type":"uint8","internalType":"uint8"},{"name":"value","type":"uint256","internalType":"uint256"}]},{"type":"error","name":"SafeERC20FailedOperation","inputs":[{"name":"token","type":"address","internalType":"address"}]},{"type":"error","name":"UUPSUnauthorizedCallContext","inputs":[]},{"type":"error","name":"UUPSUnsupportedProxiableUUID","inputs":[{"name":"slot","type":"bytes32","internalType":"bytes32"}]}],"bytecode":{"object":"0x60a0806040523461002a573060805261532390816100308239608051818181610a1f0152610b720152f35b600080fdfe6080604052600436101561001257600080fd5b60003560e01c80630d14c92e1461028757806313137d6514610282578063162790551461027d57806317442b7014610278578063181ab6db14610273578063276eb3ac1461026e5780633400288b14610269578063495b416a146102645780634d818c9c1461025f5780634ed2b8ac1461025a5780634f1ef2861461025557806350593af71461025057806352d1902d1461024b5780635e280f1114610246578063661b7d3e14610241578063704b6c021461023c578063715018a6146102375780637d25a05e146102325780637d6dff7d1461022d57806380ddebcb1461022857806382413eac146102235780638da5cb5b1461021e5780638e4db39a14610219578063a4cdc59714610214578063a7d46ab21461020f578063aad2476d1461020a578063ab2f40ee14610205578063ad3cb1cc14610200578063ada0b0ed146101fb578063bb0b6a53146101f6578063c1bab32d146101f1578063c2a3bde2146101ec578063c8101461146101e7578063ca5eb5e1146101e2578063d5c28dba146101dd578063e54a6bc3146101d8578063f0f44260146101d3578063f2fde38b146101ce5763ff7bd03d146101c957600080fd5b611a46565b611a19565b611927565b611887565b611803565b611788565b6116c7565b6116a9565b61161a565b6115df565b6115ad565b611567565b611441565b611353565b6111c6565b6110da565b6110bc565b611086565b611028565b610f3d565b610e3a565b610e13565b610da5565b610cdf565b610bf3565b610bca565b610b5f565b610b44565b6109dd565b6109b9565b610990565b6108c4565b61063f565b6104ff565b6104b0565b61048e565b610459565b610378565b61029f565b63ffffffff81160361029a57565b600080fd5b3461029a57602036600319011261029a5763ffffffff6004356102c18161028c565b6102d660018060a01b03600b54163314611d7d565b1680156102f05763ffffffff196018541617601855600080f35b60405162461bcd60e51b81526020600482015260116024820152704549442063616e2774206265207a65726f60781b6044820152606490fd5b606090600319011261029a57600490565b9181601f8401121561029a578235916001600160401b03831161029a576020838186019501011161029a57565b6001600160a01b0381160361029a57565b60e036600319011261029a5761038d36610329565b6001600160401b0360843581811161029a576103ad90369060040161033a565b916103b960a435610367565b60c43590811161029a576103d190369060040161033a565b50506000546001600160a01b03163303610441576103f66103f184614b81565b614c75565b92602081013580940361040f5761040d8383614b8b565b005b6104198491614b81565b60405163309afaf360e21b815263ffffffff9190911660048201526024810191909152604490fd5b6040516391ac5e4f60e01b8152336004820152602490fd5b3461029a57602036600319011261029a57602060043561047881610367565b3b1515604051908152f35b600091031261029a57565b3461029a57600036600319011261029a57604080516001815260026020820152f35b3461029a57600036600319011261029a5760206104cb614771565b604051908152f35b6001600160401b0381160361029a57565b61010435906104f2826104d3565b565b35906104f2826104d3565b3461029a57602036600319011261029a5760043561051c816104d3565b61053160018060a01b03600b54163314611d7d565b6001600160401b038116156105ff5760075461055d906001600160a01b03165b6001600160a01b031690565b604051631f71924f60e31b8152600760048201529190602090839060249082906000905af19182156105fa5761040d9261059f916000916105cc575b50611e5c565b6014805467ffffffffffffffff60801b191660809290921b67ffffffffffffffff60801b16919091179055565b6105ed915060203d81116105f3575b6105e58183610746565b810190611e3b565b38610599565b503d6105db565b611e50565b60405162461bcd60e51b8152602060048201526018602482015277426f6e6420526174696f2063616e2774206265207a65726f60401b6044820152606490fd5b3461029a57604036600319011261029a577f238399d427b947898edb290f5ff0f9109849b1c3ba196a42e35f00c50a54b98b60043561067d8161028c565b60243590610689615046565b63ffffffff81166000526001602052816040600020556106c1604051928392836020909392919363ffffffff60408201951681520152565b0390a1005b634e487b7160e01b600052604160045260246000fd5b61010081019081106001600160401b038211176106f857604052565b6106c6565b6001600160401b0381116106f857604052565b604081019081106001600160401b038211176106f857604052565b606081019081106001600160401b038211176106f857604052565b90601f801991011681019081106001600160401b038211176106f857604052565b604051906101e082018281106001600160401b038211176106f857604052565b60405190608082018281106001600160401b038211176106f857604052565b6040519060a082018281106001600160401b038211176106f857604052565b6001600160801b0381160361029a57565b60a435906104f2826107c5565b91908261010091031261029a576040516107fc816106dc565b60e0610853818395803585526020810135602086015260408101356040860152606081013560608601526080810135610834816107c5565b608086015260a081013560a086015260c081013560c0860152016104f4565b910152565b6001600160401b0381116106f857601f01601f191660200190565b81601f8201121561029a5780359061088a82610858565b926108986040519485610746565b8284526020838301011161029a57816000926020809301838601378301015290565b8015150361029a57565b3461029a5761016036600319011261029a576004356108e28161028c565b61010036602319011261029a57604051906108fc826106dc565b60243582526044356020830152606435604083015260843560608301526109216107d6565b608083015260c43560a083015260e43560c083015261093e6104e4565b60e083015261012435906001600160401b03821161029a5760409261096a61097e933690600401610873565b906101443592610979846108ba565b614ae5565b60208251918051835201516020820152f35b3461029a57600036600319011261029a57601d546040516001600160801b039091168152602090f35b3461029a57600036600319011261029a57602060ff600b5460a01c16604051908152f35b604036600319011261029a5760048035906109f782610367565b6024356001600160401b03811161029a57610a159036908301610873565b6001600160a01b037f00000000000000000000000000000000000000000000000000000000000000008116308114908115610b28575b50610b17579060208392610a5d615046565b6040516352d1902d60e01b8152938491829088165afa60009281610ae7575b50610aaa575050604051634c9c8ce360e01b81526001600160a01b0390921690820190815281906020010390fd5b83836000805160206152ae8339815191528403610acb5761040d83836150f0565b604051632a87526960e21b815290810184815281906020010390fd5b610b0991935060203d8111610b10575b610b018183610746565b81019061212e565b9138610a7c565b503d610af7565b60405163703e46dd60e11b81528390fd5b9050816000805160206152ae8339815191525416141538610a4b565b3461029a57600036600319011261029a5760206104cb614192565b3461029a57600036600319011261029a577f00000000000000000000000000000000000000000000000000000000000000006001600160a01b03163003610bb85760206040516000805160206152ae8339815191528152f35b60405163703e46dd60e11b8152600490fd5b3461029a57600036600319011261029a576000546040516001600160a01b039091168152602090f35b3461029a57602036600319011261029a57600a54600435906001600160a01b03163303610c87578015610c3757601a54908103908111610c3257601a55005b6120b7565b60405162461bcd60e51b815260206004820152602260248201527f4c61737420455448207661756c742076616c75652063616e2774206265207a65604482015261726f60f01b6064820152608490fd5b60405162461bcd60e51b815260206004820152602a60248201527f46756e6374696f6e2073686f756c64206f6e6c792062652063616c6c656420626044820152697920747265617375727960b01b6064820152608490fd5b3461029a57602036600319011261029a57600435610cfc81610367565b610d04615046565b6001600160a01b038116151580610d97575b610d1f90611e63565b600754610d34906001600160a01b0316610551565b604051631f71924f60e31b8152600360048201529190602090839060249082906000905af19182156105fa5761040d92610d75916000916105cc5750611e5c565b600b80546001600160a01b0319166001600160a01b0392909216919091179055565b50803b151560011415610d16565b3461029a57600080600319360112610e1057610dbf615046565b60008051602061528e83398151915280546001600160a01b0319811690915581906001600160a01b03167f8be0079c531659141344cd1fd0a4f28419497f9722a3daafe3b4186f6b6457e08280a380f35b80fd5b3461029a57604036600319011261029a57610e2f60043561028c565b602060405160008152f35b3461029a57602036600319011261029a57600435610e5781610367565b600b546001600160a01b0390610e709082163314611d7d565b8116908115159081610f0a575b5015610ea457600680546001600160a01b0319166001600160a01b03909216919091179055005b60405162461bcd60e51b815260206004820152603860248201527f4f7074696f6e73206d75737420626520636f6e7472616374206164647265737360448201527720262063616e2774206265207a65726f206164647265737360401b6064820152608490fd5b90503b151538610e7d565b604090600319011261029a57600435610f2d81610367565b90602435610f3a816107c5565b90565b3461029a576020610f4d36610f15565b6002546004546001600160a01b03918216949391610fca9116600554610f7b906001600160a01b0316610551565b60405163d4222e2b60e01b81526001600160a01b0394851660048201526001600160801b03909516602486015295831660448501528216606484015293166084820152918290819060a4820190565b038173__$87511a64ad1cd7dc6108642f468c9b94de$__5af480156105fa576110069160009161100a575b506040519081529081906020820190565b0390f35b611022915060203d8111610b1057610b018183610746565b38610ff5565b3461029a5760a036600319011261029a5761104236610329565b506064356001600160401b03811161029a5761106290369060040161033a565b5050602060843561107281610367565b6040516001600160a01b0390911630148152f35b3461029a57600036600319011261029a5760008051602061528e833981519152546040516001600160a01b039091168152602090f35b3461029a57600036600319011261029a576020601254604051908152f35b3461029a57602036600319011261029a576004356110f781610367565b600b546001600160a01b03906111109082163314611d7d565b81169081151590816111bb575b501561114457600880546001600160a01b0319166001600160a01b03909216919091179055005b60405162461bcd60e51b815260206004820152604360248201527f426f72726f77204c69717569646174696f6e206d75737420626520636f6e747260448201527f616374206164647265737320262063616e2774206265207a65726f206164647260648201526265737360e81b608482015260a490fd5b90503b15153861111d565b3461029a5761010036600319011261029a576004356111e481610367565b602435906111f182610367565b6044356111fd81610367565b60643561120981610367565b60843561121581610367565b60a43590611222826104d3565b60c4359261122f84610367565b60e4359461123c86610367565b6000805160206152ce83398151915254976001600160401b0360ff8a60401c161599168015908161134b575b6001149081611341575b159081611338575b50611326576000805160206152ce833981519152805467ffffffffffffffff191660011790556112ae978961130157611ad3565b6112b457005b6000805160206152ce833981519152805460ff60401b19169055604051600181527fc7f505b2f371ae2175ee4913f4499e1f2633a7b5936321eed1cdaeb6115181d29080602081016106c1565b6000805160206152ce833981519152805460ff60401b1916600160401b179055611ad3565b60405163f92ee8a960e01b8152600490fd5b9050153861127a565b303b159150611272565b8a9150611268565b3461029a57602036600319011261029a5760043560ff811680820361029a5761138760018060a01b03600b54163314611d7d565b15611408576007546113a1906001600160a01b0316610551565b9060206040518093631f71924f60e31b8252816000816113c960048201906000602083019252565b03925af19182156105fa5761040d926113e9916000916105cc5750611e5c565b600b805460ff60a01b191660a09290921b60ff60a01b16919091179055565b60405162461bcd60e51b81526020600482015260116024820152704c54562063616e2774206265207a65726f60781b6044820152606490fd5b3461029a5761144f36610f15565b60048054600554604051630d22c2ff60e31b81526001600160a01b03958616938101939093526001600160801b039093166024830152831660448201529116606482015260608160848173__$87511a64ad1cd7dc6108642f468c9b94de$__5af480156105fa57600090819282916114e9575b50604080516001600160801b03939093168352602083019390935291810191909152606090f35b90506110069250611511915060603d8111611518575b6115098183610746565b810190613ec6565b90926114c2565b503d6114ff565b60005b8381106115325750506000910152565b8181015183820152602001611522565b9060209161155b8151809281855285808601910161151f565b601f01601f1916010190565b3461029a57600036600319011261029a5761100660405161158781610710565b60058152640352e302e360dc1b6020820152604051918291602083526020830190611542565b3461029a57604036600319011261029a5760206115ce6024356004356145a1565b6001600160401b0360405191168152f35b3461029a57602036600319011261029a5763ffffffff6004356116018161028c565b1660005260016020526020604060002054604051908152f35b3461029a57602036600319011261029a57600435611637816107c5565b6007546040516326d2a55160e21b8152600360048201529190602090839060249082906000906001600160a01b03165af19182156105fa5761040d926116869160009161168b575b5015611ec6565b614696565b6116a3915060203d81116105f3576105e58183610746565b3861167f565b3461029a57600036600319011261029a576020601b54604051908152f35b608036600319011261029a576004356116df81610367565b6024356116eb816104d3565b6044356116f7816104d3565b60643591611704836104d3565b61170c6150ae565b6007546040516326d2a55160e21b8152600160048201529490602090869060249082906000906001600160a01b03165af19485156105fa5761175f9561175a9160009161168b575015611ec6565b6131b9565b61040d60017f9b779b17422d0df92223018b32b4d1fa46e071723d6817e2486d003becc55f0055565b3461029a5760006020366003190112610e10576004356117a781610367565b6117af615046565b81546001600160a01b0390811691839190833b156117ff5760249083604051958694859363ca5eb5e160e01b85521660048401525af180156105fa576117f3575080f35b6117fc906106fd565b80f35b8280fd5b606036600319011261029a5760043561181b81610367565b602435611827816104d3565b60443590611834826104d3565b6007546040516326d2a55160e21b8152600260048201529390602090859060249082906000906001600160a01b03165af19384156105fa5761040d946118829160009161168b575015611ec6565b613eea565b60c036600319011261029a5760043561189f816107c5565b6024356118ab816104d3565b60443591600583101561029a576064356118c4816104d3565b6118cc6150ae565b6007546040516326d2a55160e21b8152600060048201819052909591602091879160249183916001600160a01b03165af19485156105fa5761175f9561191a9160009161168b575015611ec6565b60a4359360843593612526565b3461029a57602036600319011261029a5760043561194481610367565b600b546001600160a01b039061195d9082163314611d7d565b81169081151580611a0f575b61197290611dc2565b600754611987906001600160a01b0316610551565b604051631f71924f60e31b8152600560048201529290602090849060249082906000905af19081156105fa576119cb6119ed9261040d956000916105cc5750611e5c565b600580546001600160a01b0319166001600160a01b0392909216919091179055565b600a80546001600160a01b0319166001600160a01b0392909216919091179055565b50803b1515611969565b3461029a57602036600319011261029a5761040d600435611a3981610367565b611a41615046565b614fd2565b3461029a57606036600319011261029a576020611a6236610329565b63ffffffff8135611a728161028c565b166000526001825260406000205482604051920135148152f35b60405190611a9982610710565b600e82526d105d5d1bdb9bdb5a5b9d081554d160921b6020830152565b60405190611ac382610710565b60018252603160f81b6020830152565b92909694959196611ae261507f565b611aea61507f565b611af333614fd2565b611afb61507f565b611b0361507f565b611b0b61507f565b6001600160a01b039283168015611d6b57600080546001600160a01b0319166001600160a01b0390921691909117905582861615611d5957600054611b58906001600160a01b0316610551565b803b1561029a5760405163ca5eb5e160e01b81526001600160a01b039790971660048801526000908790602490829084905af19586156105fa57611ce798611bf685611c1894611bd482611c3a9a8197611c5c9e611d40575b5060028054919092166001600160a01b03166001600160a01b0319909116179055565b60038054919092166001600160a01b03166001600160a01b0319909116179055565b60048054919092166001600160a01b03166001600160a01b0319909116179055565b60078054919092166001600160a01b03166001600160a01b0319909116179055565b600d80546001600160a01b0319166001600160a01b0392909216919091179055565b611c64611a8c565b60208151910120611cdf611c76611ab6565b8051602091820120604080517f2010028ec63295361a00945794d4fce5b1046c419f60af448db7aaeb91e918f89381019384529081019490945260608401526001600160401b0390931660808301523060a08301528160c081015b03601f198101835282610746565b519020601555565b611d23611d01611cf5614192565b6001600160801b031690565b600e80546001600160801b0319166001600160801b0392909216919091179055565b601380546001600160801b031916426001600160801b0316179055565b80611d4d611d53926106fd565b80610483565b38611bb1565b604051632d618d8160e21b8152600490fd5b604051638ad182f960e01b8152600490fd5b15611d8457565b60405162461bcd60e51b815260206004820152601660248201527521b0b63632b91034b9903737ba1030b71030b236b4b760511b6044820152606490fd5b15611dc957565b60405162461bcd60e51b815260206004820152603960248201527f5472656173757279206d75737420626520636f6e7472616374206164647265736044820152787320262063616e2774206265207a65726f206164647265737360381b6064820152608490fd5b51906104f2826108ba565b9081602091031261029a5751610f3a816108ba565b6040513d6000823e3d90fd5b1561029a57565b15611e6a57565b60405162461bcd60e51b815260206004820152602e60248201527f41646d696e2063616e277420626520636f6e747261637420616464726573732060448201526d26207a65726f206164647265737360901b6064820152608490fd5b15611ecd57565b60405162461bcd60e51b815260206004820152600660248201526514185d5cd95960d21b6044820152606490fd5b15611f0257565b60405162461bcd60e51b815260206004820152601a60248201527f43616e6e6f74206465706f736974207a65726f20746f6b656e730000000000006044820152606490fd5b15611f4e57565b60405162461bcd60e51b815260206004820152602360248201527f426f72726f77696e673a20446f6e2774206861766520656e6f756768204c5a2060448201526266656560e81b6064820152608490fd5b60405190611fac826106dc565b6019548252601a54602080840191909152601b546040840152601c546060840152601d546001600160801b03166080840152601e5460a0840152601f5460c0840152546001600160401b031660e0830152565b919082604091031261029a5760405161201781610710565b6020808294805184520151910152565b9060408282031261029a57610f3a91611fff565b93926120b290606060009463ffffffff6101609516885260016020890152856040890152858289015285608089015260018060801b038082511660a08a01528060208301511660c08a015260408201511660e089015201516101008701528361012087015261018080610140880152860190611542565b930152565b634e487b7160e01b600052601160045260246000fd5b6001600160801b039182169082160290811691908203610c3257565b156120f057565b60405162461bcd60e51b81526020600482015260166024820152754e6f7420656e6f7567682066756e6420696e2043445360501b6044820152606490fd5b9081602091031261029a575190565b90600582101561214a5752565b634e487b7160e01b600052602160045260246000fd5b6104f293606092969593608083019760018060801b0316835260208301526040820152019061213d565b91908203918211610c3257565b51906104f2826104d3565b9081604091031261029a576020604051916121bc83610710565b80516121c7816108ba565b835201516121d4816104d3565b602082015290565b51906104f2826107c5565b9081602091031261029a5751610f3a816107c5565b809103610200811261029a576040519161221583610710565b8051612220816104d3565b83526101e08092601f19011261029a5761233c61223b610767565b9261224860208401612197565b8452612256604084016121dc565b6020850152612267606084016121dc565b604085015261227860808401612197565b606085015261228960a084016121dc565b608085015261229a60c084016121dc565b60a08501526122ab60e084016121dc565b60c0850152610100926122bf848201611e30565b60e0860152610120936122d38583016121dc565b90860152610140936122e6858301611e30565b90860152610160936122f9858301612197565b908601526101809361230c858301612197565b908601526101a09361231f8583016121dc565b908601526101c0936123328583016121dc565b90860152016121dc565b90820152602082015290565b6001600160a01b0390911681526001600160401b03918216602082015282519091166040820152610220810192916104f291906102009060208101516001600160801b0316606084015260408101516001600160801b0316608084015260608101516001600160401b031660a084015260808101516001600160801b031660c084015260a08101516001600160801b031660e084015260c08101516001600160801b031661010084810191909152906124a060e082015192612411610120948588019015159052565b8201516001600160801b031661014086810191909152928201519261243d610160948588019015159052565b8201519261245961018094858801906001600160401b03169052565b820151926124756101a094858801906001600160401b03169052565b8201516001600160801b03166101c086810191909152928201516001600160801b03166101e0860152565b01516001600160801b0316910152565b91908201809211610c3257565b95909a99979293916104f29995610120989361014089019d60018060a01b031689526001600160401b03968780941660208b015260408a0152606089015216608087015260018060801b031660a086015260c08501521660e0830152610100820152019061213d565b94939092916125ca9261253a861515611efb565b612545863411611f47565b612555612550614ea7565b614ec1565b60185463ffffffff16976040826125748161256e611f9f565b8d614a12565b600354909b9061258c906001600160a01b0316610551565b90612595610787565b9060008252600060208301526000858301526000606083015284519a8b9485938493632b4a4c0d60e21b85526004850161203b565b03915afa9485156105fa578896600096612d0b575b5084602091612612614e206001600160401b0361260a61264b9a9b9c60018060801b038916906145a1565b1610156120e9565b6006548b9060009061262c906001600160a01b0316610551565b92604051998a9586948593636916a18160e11b85528a60048601612160565b03925af19384156105fa57600094612cea575b50600b54604051636812dc0360e01b8152600481018a90526001600160801b038316602482015260a09190911c60ff1660448201529660208860648173__$87511a64ad1cd7dc6108642f468c9b94de$__5af49283156105fa5761273f98600094612cc9575b506040828c858d6126f68d6126ee6126e661055160055460018060a01b031690565b95513461218a565b90519061218a565b8551630bbfe8b960e41b815260048101929092523360248301526001600160801b0390921660448201526001600160401b039093166064840152919b8c92839182906084820190565b03925af19889156105fa57600099612c98575b5061277861277461276d60208c01516001600160401b031690565b9a51151590565b1590565b612c8657600454612791906001600160a01b0316610551565b604051632af2698d60e11b8152600481018c905260208160248173__$87511a64ad1cd7dc6108642f468c9b94de$__5af49081156105fa57600091612c67575b506005546127e7906001600160a01b0316610551565b604051637b85b73960e01b81526001600482015290602090829060249082905afa9081156105fa57600091612c38575b50823b1561029a57604051639992f4b760e01b81523360048201526001600160401b038d1660248201526001600160801b03928316604482015291166064820152906000908290608490829084905af180156105fa57612c25575b5061287f86848c33612e15565b600354612894906001600160a01b0316610551565b975197803b1561029a5760405163b87c3dc360e01b81526001600160801b03881660048201819052999091600091839160249183915af180156105fa57612c12575b506005546128ec906001600160a01b0316610551565b604051634d5c56a560e01b81523360048201526001600160401b038b1660248201526102008082604481865afa80156105fa5761295392602092600092612be5575b505001516001600160801b03871660a0820152996001600160801b03166101c08b0152565b803b1561029a57604051632e449f1760e21b815233600482015260016024820152906000908290604490829084905af180156105fa57612bd2575b506005546129a4906001600160a01b0316610551565b90813b1561029a57604051630e6840d960e11b815233600482015260248101869052916000908390604490829084905af19182156105fa57612a3892612bbf575b506129ee614771565b50601380546001600160801b031916426001600160801b0316179055601254604051633460dd8b60e11b815260048101879052602481019190915291602090839081906044820190565b038173__$87511a64ad1cd7dc6108642f468c9b94de$__5af49182156105fa57600092612b9e575b506001600160801b03821660c08a0152612aa0612a8f6001600160801b038d166001600160401b0389166120cd565b6001600160801b03166101a08b0152565b600554612ab5906001600160a01b0316610551565b803b1561029a57612ae2996000918c83604051809e81958294638fabe74f60e01b84523360048501612348565b03925af19081156105fa577f9669857a255f156ba0982057c1be0e843f0f4ae5e263b847ced8ea7a7d718cf39c612b869a612b7893612b8b575b50612b31612b2c85600c546124b0565b600c55565b600e80546001600160801b0319166001600160801b038816179055612b60612b5b856019546124b0565b601955565b60185463ffffffff165b612b72611f9f565b906148fc565b50604051998a99338b6124bd565b0390a1565b80611d4d612b98926106fd565b38612b1c565b612bb891925060203d602011610b1057610b018183610746565b9038612a60565b80611d4d612bcc926106fd565b386129e5565b80611d4d612bdf926106fd565b3861298e565b612c049250803d10612c0b575b612bfc8183610746565b8101906121fc565b388061292e565b503d612bf2565b80611d4d612c1f926106fd565b386128d6565b80611d4d612c32926106fd565b38612872565b612c5a915060203d602011612c60575b612c528183610746565b8101906121e7565b38612817565b503d612c48565b612c80915060203d602011612c6057612c528183610746565b386127d1565b604051634fad3b0960e01b8152600490fd5b612cbb91995060403d604011612cc2575b612cb38183610746565b8101906121a2565b9738612752565b503d612ca9565b612ce391945060203d602011610b1057610b018183610746565b92386126c4565b612d0491945060203d602011610b1057610b018183610746565b923861265e565b85965094602091612612614e206001600160401b0361260a612d4761264b9b60403d604011612d55575b612d3f8183610746565b810190612027565b9b9a505050505091506125df565b503d612d35565b15612d6357565b60405162461bcd60e51b815260206004820152601f60248201527f426f72726f7765722063616e6e6f74206265207a65726f2061646472657373006044820152606490fd5b15612daf57565b60405162461bcd60e51b815260206004820152603860248201527f4c5456206d7573742062652073657420746f206e6f6e2d7a65726f2076616c7560448201527765206265666f72652070726f766964696e67206c6f616e7360401b6064820152608490fd5b91929190612e8890612e316001600160a01b0384161515612d5c565b600b5460a01c60ff16612e4860ff82161515612da8565b604051636812dc0360e01b815260048101929092526001600160801b03909516602482015260ff9094166044850152602093908490829081906064820190565b038173__$87511a64ad1cd7dc6108642f468c9b94de$__5af480156105fa57612f0d85916000938491612fdc575b50600254612ed8908790612ed2906001600160a01b0316610551565b9261218a565b6040516340c10f1960e01b8082526001600160a01b039097166004820152602481019190915293849283919082906044820190565b03925af19081156105fa57600091612fbf575b5015612f9057600254612f749284929091612f43906001600160a01b0316610551565b600a546040519283526001600160a01b03166004830152602482019290925292839190829060009082906044820190565b03925af19182156105fa57600092612fa2575b505015612f9057565b60405163035f563160e31b8152600490fd5b612fb89250803d106105f3576105e58183610746565b3880612f87565b612fd69150843d86116105f3576105e58183610746565b38612f20565b612ff39150833d8511610b1057610b018183610746565b38612eb6565b1561300057565b60405162461bcd60e51b815260206004820152603060248201527f546f20616464726573732063616e6e6f742062652061207a65726f20616e642060448201526f636f6e7472616374206164647265737360801b6064820152608490fd5b1561306557565b60405162461bcd60e51b815260206004820152601f60248201527f5573657220616d6f756e7420686173206265656e206c697175696461746564006044820152606490fd5b156130b157565b60405162461bcd60e51b8152602060048201526016602482015275426f72726f77696e674865616c7468206973204c6f7760501b6044820152606490fd5b156130f657565b60405162461bcd60e51b815260206004820152602260248201527f557365722062616c616e6365206973206c657373207468616e20726571756972604482015261195960f21b6064820152608490fd5b6001600160801b039182169190821561315e57160490565b634e487b7160e01b600052601260045260246000fd5b6001600160801b039182169082160191908211610c3257565b6001600160801b039182169082160391908211610c3257565b81810292918115918404141715610c3257565b91926001600160a01b038316151580613d1f575b6131d690612ff9565b6001600160401b03926131ea848616614434565b50600e80546001600160801b0319166001600160801b038787161617905560055461321d906001600160a01b0316610551565b604051634d5c56a560e01b81523360048201526001600160401b038516602482015261020096918790829060449082905afa9687156105fa57600097613d00575b5050602086015195516001600160401b031684861690861610613cac5761329461328f612774610120890151151590565b61305e565b60e0860151613c5b576080860151604051636614cc0560e01b81526001600160801b0390911660048201526001600160401b03821660248201529560208760448173__$87511a64ad1cd7dc6108642f468c9b94de$__5af49384156105fa5761334f97600095613c3a575b50613316611f406001600160801b038716116130aa565b60c08201516012546040516350ad67e160e11b81526001600160801b039092166004830152602482015297602090899081906044820190565b038173__$87511a64ad1cd7dc6108642f468c9b94de$__5af49788156105fa57600098613c19575b50613380614771565b50601380546001600160801b031916426001600160801b03161790556002546133b1906001600160a01b0316610551565b6040516370a0823160e01b81523360048201529190602090839060249082905afa80156105fa57896133f19161341994600091613bfa575b5010156130ef565b6001600160401b038416610140840152600160e08401526001600160401b0316610160830152565b60208181015160405163684d536d60e11b81526001600160801b0390911660048201526001600160401b0384166024820152908160448173__$87511a64ad1cd7dc6108642f468c9b94de$__5af49081156105fa57600091613bdb575b5060055461348c906001600160a01b0316610551565b803b1561029a576040516302c235d160e31b81526004810183905260016024820152906000908290604490829084905af180156105fa57613bc8575b5060a08201516134eb9082906134e6906001600160801b0316611cf5565b61218a565b600254613500906001600160a01b0316610551565b6040516363a9f09360e11b81523360048201526024810183905290602090829060449082906000905af19081156105fa57600091613ba9575b5015613b97576002546135ad9160209161355b906001600160a01b0316610551565b600a54613572906001600160a01b0316928d61218a565b6040516323b872dd60e01b81523360048201526001600160a01b03909316602484015260448301529092839190829060009082906064820190565b03925af19081156105fa57600091613b78575b5015613b665760c08201516135ed90612b2c906135e5906001600160801b0316611cf5565b600c5461218a565b60c082015161361490612b5b9061360c906001600160801b0316611cf5565b60195461218a565b600554613629906001600160a01b0316610551565b60a083015190919061364d90613647906001600160801b0316611cf5565b8a61218a565b91803b1561029a5760405163b9a221eb60e01b815260048101939093526000908390602490829084905af19182156105fa5761369092613b53575b508633613d70565b6001600160801b03166101808201908152936005546136b7906001600160a01b0316610551565b803b1561029a57604051638fabe74f60e01b81529060009082908183816136e3898e3360048501612348565b03925af180156105fa57613b40575b506020820151613726906001600160801b03166080840151858a1691613721916001600160801b0316906120cd565b613146565b906127106001600160801b038216811015613ad05750506006546137ab9190602090859061375c906001600160a01b0316610551565b828601516101a0870151604051630e1fab4360e01b81526001600160801b039283166004820152911660248201526001600160401b039290921660448301529093849190829081906064820190565b03915afa9081156105fa576138c5986020956137da6138979461388f9461389c97600092613ab1575b50613174565b8787015190969087906001600160801b03166001600160801b038181169083161115613a825750613858611cf56138528b8561384461383f613837611cf561386099613831876138659d015160018060801b031690565b9061318d565b6016546124b0565b601655565b01516001600160801b031690565b8a61318d565b601e546124b0565b601e55565b6138866138816138798484166016546131a6565b6017546124b0565b601755565b166016546131a6565b601f546124b0565b601f55565b604051632af2698d60e11b81526001600160801b03909116600482015294859081906024820190565b038173__$87511a64ad1cd7dc6108642f468c9b94de$__5af49384156105fa57600094613a5a575b506020836139a59286613901612550614ea7565b9161393161391460185463ffffffff1690565b9361392781613921611f9f565b87614a12565b8095612b72611f9f565b506005546139539061394b906001600160a01b0316610551565b93513461218a565b6040516315ee073360e11b81523360048201526001600160a01b0390921660248301526001600160801b0390921660448201526001600160401b03909316606484015291938492839182906084820190565b03925af19081156105fa57600091613a3b575b5015613a295751604080513381526001600160401b0393909316602084015242908301526001600160801b03928316606083015291909116608082015260a08101919091527f59c54db06277209213236b5f864552e9ee789e1ca98ed9988d78cdea7bd4d9d4908060c08101612b86565b604051635e5e86d560e01b8152600490fd5b613a54915060203d6020116105f3576105e58183610746565b386139b8565b6139a591945083613a79602092833d8511612c6057612c528183610746565b959250506138ed565b611cf582613aa78c613aac9661384461383f613837611cf56138609a6138589a61318d565b61318d565b613865565b613ac99192508a3d8c11612c6057612c528183610746565b90386137d4565b9197509192506001600160801b0382168103613af45750505060206138c59461389c565b9195506001600160801b038116611f4010919082613b2d575b5050156130b1576020938401516138c594906001600160801b031661389c565b6001600160801b03161090503880613b0d565b80611d4d613b4d926106fd565b386136f2565b80611d4d613b60926106fd565b38613688565b60405163a07c821960e01b8152600490fd5b613b91915060203d6020116105f3576105e58183610746565b386135c0565b6040516303f7009160e51b8152600490fd5b613bc2915060203d6020116105f3576105e58183610746565b38613539565b80611d4d613bd5926106fd565b386134c8565b613bf4915060203d602011610b1057610b018183610746565b38613476565b613c13915060203d602011610b1057610b018183610746565b386133e9565b613c3391985060203d602011610b1057610b018183610746565b9638613377565b613c5491955060203d602011612c6057612c528183610746565b93386132ff565b60405162461bcd60e51b815260206004820152602360248201527f5573657220616c726561647920776974686472617720656e7469726520616d6f6044820152621d5b9d60ea1b6064820152608490fd5b60405162461bcd60e51b815260206004820152602660248201527f5573657220646f656e73277420686176652074686520706572746963756c6172604482015265040d2dcc8caf60d31b6064820152608490fd5b613d17929750803d10612c0b57612bfc8183610746565b94388061325e565b50823b1515600114156131cd565b15613d3457565b60405162461bcd60e51b8152602060048201526014602482015273416d6f756e742063616e2774206265207a65726f60601b6044820152606490fd5b613d846001600160a01b0382161515612d5c565b613d8f831515613d2d565b601454604051631f79572960e11b8152600481019490945260801c6001600160401b03166024840152602091828460448173__$87511a64ad1cd7dc6108642f468c9b94de$__5af49384156105fa57600094613e9f575b50600454613e539284928692600090613e07906001600160a01b0316610551565b604051631ff9eb7f60e21b81526001600160a01b0390941660048501526001600160401b0390921660248401526001600160801b03909316604483015290938492839182906064820190565b03925af19182156105fa57600092613e82575b505015613e705790565b6040516328eca99f60e21b8152600490fd5b613e989250803d106105f3576105e58183610746565b3880613e66565b613e5392945090613ebd8492833d8511612c6057612c528183610746565b94925090613de6565b9081606091031261029a578051613edc816107c5565b916040602083015192015190565b9091613f1a60018060a01b03613f0581600b54163314611d7d565b8316613f128115156140b1565b331415614109565b613f22614771565b50613f2e612550614ea7565b91613f5083613f4260185463ffffffff1690565b613f4a611f9f565b90614a12565b91613f8d613f68613f6360135460801c90565b614163565b601380546001600160801b031660809290921b6001600160801b031916919091179055565b601d54613fc890613fa6906001600160801b0316614163565b601d80546001600160801b0319166001600160801b0392909216919091179055565b600854613fdd906001600160a01b0316610551565b613fe884513461218a565b601d549096906001600160801b0316966012549461400b60185463ffffffff1690565b95843b1561029a576040516391ba123160e01b81526001600160a01b0390921660048301526001600160401b0393841660248301529290941660448501526001600160801b039097166064840152608483015263ffffffff90921660a482015293600091859182908160c4810103925af19283156105fa5761409b9361409e575b5060185463ffffffff16612b6a565b50565b80611d4d6140ab926106fd565b3861408c565b156140b857565b60405162461bcd60e51b815260206004820152602360248201527f546f20616464726573732063616e6e6f742062652061207a65726f206164647260448201526265737360e81b6064820152608490fd5b1561411057565b60405162461bcd60e51b815260206004820152602560248201527f596f752063616e6e6f74206c697175696461746520796f7572206f776e206173604482015264736574732160d81b6064820152608490fd5b6001600160801b03908116908114610c325760010190565b519069ffffffffffffffffffff8216820361029a57565b600d54604051633fabe5a360e21b81529060a090829060049082906001600160a01b03165afa80156105fa576000906141d0575b620f424091500490565b60a0823d8211614217575b816141e860a09383610746565b81010312610e105750806141ff620f42409261417b565b5061421160806020830151920161417b565b506141c6565b3d91506141db565b8092910391610120831261029a578051614238816104d3565b926101008091601f19011261029a576142a89060405192614258846106dc565b6020810151845260408101516020850152606081015160408501526080810151606085015261428960a082016121dc565b608085015260c081015160a085015260e081015160c085015201612197565b60e082015290565b6000815260208101919091526001600160801b0391821660408201529181166060830152608082019290925260195460a0820152601a5460c0820152601b5460e0820152601c54610100820152601d546101a0820193926104f2929161432391165b6001600160801b0316610120830152565b601e54610140820152601f5461016082015261018061434a6020546001600160401b031690565b6001600160401b0316910152565b90815260208101919091526001600160801b0391821660408201529181166060830152608082019290925260195460a0820152601a5460c0820152601b5460e0820152601c54610100820152601d546101a0820193926104f292916143239116614312565b6001600160401b0360e06104f29280516019556020810151601a556040810151601b556060810151601c5560018060801b0360808201511660018060801b0319601d541617601d5560a0810151601e5560c0810151601f550151166001600160401b03166001600160401b03196020541617602055565b801561458f57600e546001600160801b031660055490919061445e906001600160a01b0316610551565b9060405180926354dec33960e11b825281600460209586935afa80156105fa57600491600091614572575b5060035484906144a1906001600160a01b0316610551565b604051636a7889f360e11b815293849182905afa9182156105fa576144eb94600093614553575b50506040519384928392637a0a270360e01b8452610120978896600486016142b0565b038173__$87511a64ad1cd7dc6108642f468c9b94de$__5af49081156105fa576000928392614520575b5050610f3a906143bd565b610f3a93506145449250803d1061454c575b61453c8183610746565b81019061421f565b909138614515565b503d614532565b61456a929350803d10610b1057610b018183610746565b9038806144c8565b6145899150843d8611612c6057612c528183610746565b38614489565b6040516315e73e9f60e01b8152600490fd5b811561458f57600e546001600160801b03166005549091906145cb906001600160a01b0316610551565b6040519283916354dec33960e11b835282600460209687935afa9182156105fa57600092614677575b50600354600490859061460f906001600160a01b0316610551565b604051636a7889f360e11b815292839182905afa9485156105fa57600095614658575b50506144eb6040519485938493637a0a270360e01b855261012098899760048701614358565b61466f929550803d10610b1057610b018183610746565b923880614632565b61468f919250843d8611612c6057612c528183610746565b90386145f4565b6146ab60018060a01b03600b54163314611d7d565b6001600160801b03811615614732576007546146cf906001600160a01b0316610551565b604051631f71924f60e31b8152600160048201529190602090839060249082906000905af19182156105fa576104f292614710916000916105cc5750611e5c565b601480546001600160801b0319166001600160801b0392909216919091179055565b60405162461bcd60e51b8152602060048201526017602482015276526174652073686f756c64206e6f74206265207a65726f60481b6044820152606490fd5b600554614786906001600160a01b0316610551565b60405180916322d7586760e11b825281600460209485935afa9081156105fa5760009161483f575b50601454601354601254604051635529dfd560e01b81526001600160801b0394851660048201529284166024840152921660448201526064810191909152818160848173__$87511a64ad1cd7dc6108642f468c9b94de$__5af49182156105fa57600092614822575b5050610f3a81601255565b6148389250803d10610b1057610b018183610746565b3880614817565b6148569150823d8411612c6057612c528183610746565b386147ae565b6040519061486982610710565b60006020838281520152565b604051906148828261072b565b816000815260006020820152604061085361485c565b91909160e06001600160401b03816101008401958051855260208101516020860152604081015160408601526060810151606086015260018060801b03608082015116608086015260a081015160a086015260c081015160c0860152015116910152565b614926906149a7608094956149346149c595614916614875565b5060405195869160208301614898565b03601f198101865285610746565b61493c614875565b5060206149498851614d5d565b970190815180614a03575b5060005461496a906001600160a01b0316610551565b9461497485614c75565b92511515926149906149846107a6565b63ffffffff9097168752565b602086015260408501526060840152151585830152565b6040519485809481936302637a4560e41b8352339060048401614cad565b03925af19081156105fa576000916149db575090565b610f3a915060803d81116149fc575b6149f48183610746565b810190614d1b565b503d6149ea565b614a0c90614d7f565b38614954565b90614ab891614a3a614a4894614a2661485c565b506040958694855193849160208301614898565b03601f198101845283610746565b614a5061485c565b50600054614a66906001600160a01b0316610551565b91614a7084614c75565b614a87614a7b6107a6565b63ffffffff9096168652565b60208501528484015260608301526000608083015282518080958194631bb8518b60e31b8352309060048401614cad565b03915afa9182156105fa57600092614acf57505090565b610f3a9250803d10612d5557612d3f8183610746565b614926614b65614b0f95614ab895614afb61485c565b506040978896875195869160208301614898565b614b1761485c565b50600054614b2d906001600160a01b0316610551565b93614b3786614c75565b614b4e614b426107a6565b63ffffffff9098168852565b602087015286860152606085015215156080840152565b82518080958194631bb8518b60e31b8352309060048401614cad565b35610f3a8161028c565b60e091604051614b9a816106dc565b60009381858093528260208201528260408201528260608201528260808201528260a08201528260c0820152015281019161010082840312610e10575060e0614be96104f293614c59936107e3565b614bf38151601955565b614c006020820151601a55565b614c0d6040820151601b55565b614c1a6060820151601c55565b6080810151614c31906001600160801b0316613fa6565b614c3e60a0820151601e55565b614c4b60c0820151601f55565b01516001600160401b031690565b6001600160401b03166001600160401b03196020541617602055565b63ffffffff16806000526001602052604060002054908115614c95575090565b6024906040519063f6ff4fb760e01b82526004820152fd5b906020909392936040835263ffffffff81511660408401528181015160608401526080614d01614ceb604084015160a08488015260e0870190611542565b6060840151868203603f190160a0880152611542565b910151151560c08401526001600160a01b03909416910152565b9060808282031261029a57614d55906040805193614d388561072b565b805185526020810151614d4a816104d3565b602086015201611fff565b604082015290565b803410614d675790565b6040516304fb820960e51b8152346004820152602490fd5b6000805460405163393f876560e21b81526020926001600160a01b039283169290918481600481875afa9081156105fa578391614e71575b5016938415614e5f576040516323b872dd60e01b8582019081523360248301526001600160a01b0390941660448201526064810191909152614e17928291614e028160848101611cd1565b519082875af1614e10615194565b90846151de565b8051918215159283614e46575b505050614e2e5750565b60249060405190635274afe760e01b82526004820152fd5b614e569350820181019101611e3b565b15388080614e24565b6040516329b99a9560e11b8152600490fd5b90508481813d8311614ea0575b614e888183610746565b810103126117ff5751614e9a81610367565b38614db7565b503d614e7e565b604051600360f01b602082015260028152610f3a81610710565b61ffff90600382614ed183615241565b1603614f7157604051610c3560861b60208201526010815290614ef382610710565b600383614eff83615241565b1603614f4f578151838111614f30578316600101928311610c3257611cd1610f3a9260405194859360208501614f7d565b604490604051906306dfcc6560e41b8252601060048301526024820152fd5b82614f5b602492615241565b604051633a51740d60e01b815291166004820152fd5b90614f5b602492615241565b602090614f9460049594938281519485920161151f565b600160f81b910181815260f09290921b6001600160f01b03191660018301526003820152815191614fcd9083908584019060200161151f565b010190565b6001600160a01b0390811690811561502d5760008051602061528e83398151915280546001600160a01b031981168417909155167f8be0079c531659141344cd1fd0a4f28419497f9722a3daafe3b4186f6b6457e0600080a3565b604051631e4fbdf760e01b815260006004820152602490fd5b60008051602061528e833981519152546001600160a01b0316330361506757565b60405163118cdaa760e01b8152336004820152602490fd5b60ff6000805160206152ce8339815191525460401c161561509c57565b604051631afcd79f60e31b8152600490fd5b7f9b779b17422d0df92223018b32b4d1fa46e071723d6817e2486d003becc55f0060028154146150de5760029055565b604051633ee5aeb560e01b8152600490fd5b90813b15615173576000805160206152ae83398151915280546001600160a01b0319166001600160a01b0384169081179091557fbc7cd75a20ee27fd9adebab32041f755214dbc6bffa90cc0225b39da2e5c2d3b600080a28051156151585761409b916151c4565b50503461516157565b60405163b398979f60e01b8152600490fd5b604051634c9c8ce360e01b81526001600160a01b0383166004820152602490fd5b3d156151bf573d906151a582610858565b916151b36040519384610746565b82523d6000602084013e565b606090565b600080610f3a93602081519101845af46151dc615194565b915b9061520557508051156151f357805190602001fd5b604051630a12f52160e11b8152600490fd5b81511580615238575b615216575090565b604051639996b31560e01b81526001600160a01b039091166004820152602490fd5b50803b1561520e565b6002815110615251576002015190565b60405162461bcd60e51b8152602060048201526014602482015273746f55696e7431365f6f75744f66426f756e647360601b6044820152606490fdfe9016d09d72d40fdae2fd8ceac6b6234c7706214fd39c1cd1e609a0528c199300360894a13ba1a3210667c828492db98dca3e2076cc3735a920a3ca505d382bbcf0c57e16840df040f15088dc2f81fe391c3923bec73e23a9662efc9c229c6a00a26469706673582212207056876dcd4405508c0dd38fe272d3894e8047b6f3b6dbb4ee974383ff9617b864736f6c63430008140033","linkReferences":{"contracts/lib/BorrowLib.sol":{"BorrowLib":[{"start":4094,"length":20},{"start":5323,"length":20},{"start":9932,"length":20},{"start":10205,"length":20},{"start":10860,"length":20},{"start":11964,"length":20},{"start":13063,"length":20},{"start":13187,"length":20},{"start":13442,"length":20},{"start":14585,"length":20},{"start":15858,"length":20},{"start":17695,"length":20},{"start":18467,"length":20}]}}},"methodIdentifiers":{"UPGRADE_INTERFACE_VERSION()":"ad3cb1cc","allowInitializePath((uint32,bytes32,uint64))":"ff7bd03d","calculateCumulativeRate()":"181ab6db","calculateRatio(uint256,uint256)":"ada0b0ed","depositTokens(uint128,uint64,uint8,uint64,uint256,uint256)":"e54a6bc3","endpoint()":"5e280f11","getAbondYields(address,uint128)":"ab2f40ee","getLTV()":"4ed2b8ac","getUSDValue()":"50593af7","initialize(address,address,address,address,address,uint64,address,address)":"a7d46ab2","isComposeMsgSender((uint32,bytes32,uint64),bytes,address)":"82413eac","isContract(address)":"16279055","lastCumulativeRate()":"8e4db39a","liquidate(address,uint64,uint64)":"d5c28dba","lzReceive((uint32,bytes32,uint64),bytes32,bytes,address,bytes)":"13137d65","nextNonce(uint32,bytes32)":"7d25a05e","oAppVersion()":"17442b70","omniChainBorrowingCDSPoolValue()":"c2a3bde2","omniChainBorrowingNoOfLiquidations()":"4d818c9c","owner()":"8da5cb5b","peers(uint32)":"bb0b6a53","proxiableUUID()":"52d1902d","quote(uint32,(uint256,uint256,uint256,uint256,uint128,uint256,uint256,uint64),bytes,bool)":"495b416a","redeemYields(address,uint128)":"80ddebcb","renounceOwnership()":"715018a6","setAPR(uint128)":"c1bab32d","setAdmin(address)":"704b6c02","setBondRatio(uint64)":"276eb3ac","setBorrowLiquidation(address)":"a4cdc597","setDelegate(address)":"ca5eb5e1","setDstEid(uint32)":"0d14c92e","setLTV(uint8)":"aad2476d","setOptions(address)":"7d6dff7d","setPeer(uint32,bytes32)":"3400288b","setTreasury(address)":"f0f44260","transferOwnership(address)":"f2fde38b","updateLastEthVaultValue(uint256)":"661b7d3e","upgradeToAndCall(address,bytes)":"4f1ef286","withDraw(address,uint64,uint64,uint64)":"c8101461"},"id":4}