{"abi":[{"type":"constructor","inputs":[{"name":"_tokenAddress","type":"address","internalType":"address"},{"name":"_cds","type":"address","internalType":"address"},{"name":"_protocolToken","type":"address","internalType":"address"},{"name":"_priceFeedAddress","type":"address","internalType":"address"}],"stateMutability":"nonpayable"},{"type":"function","name":"APY","inputs":[],"outputs":[{"name":"","type":"uint8","internalType":"uint8"}],"stateMutability":"view"},{"type":"function","name":"Trinity","inputs":[],"outputs":[{"name":"","type":"address","internalType":"contract ITrinityToken"}],"stateMutability":"view"},{"type":"function","name":"admin","inputs":[],"outputs":[{"name":"","type":"address","internalType":"address"}],"stateMutability":"view"},{"type":"function","name":"calculateCumulativeRate","inputs":[],"outputs":[{"name":"","type":"uint256","internalType":"uint256"}],"stateMutability":"nonpayable"},{"type":"function","name":"cds","inputs":[],"outputs":[{"name":"","type":"address","internalType":"contract CDSInterface"}],"stateMutability":"view"},{"type":"function","name":"cdsAddress","inputs":[],"outputs":[{"name":"","type":"address","internalType":"address"}],"stateMutability":"view"},{"type":"function","name":"depositToAaveProtocol","inputs":[],"outputs":[],"stateMutability":"nonpayable"},{"type":"function","name":"depositToCompoundProtocol","inputs":[],"outputs":[],"stateMutability":"nonpayable"},{"type":"function","name":"depositTokens","inputs":[{"name":"_ethPrice","type":"uint128","internalType":"uint128"},{"name":"_depositTime","type":"uint64","internalType":"uint64"},{"name":"_strikePercent","type":"uint8","internalType":"enum IOptions.StrikePrice"},{"name":"_strikePrice","type":"uint64","internalType":"uint64"},{"name":"_volatility","type":"uint256","internalType":"uint256"}],"outputs":[],"stateMutability":"payable"},{"type":"function","name":"getAPY","inputs":[],"outputs":[{"name":"","type":"uint8","internalType":"uint8"}],"stateMutability":"view"},{"type":"function","name":"getLTV","inputs":[],"outputs":[{"name":"","type":"uint8","internalType":"uint8"}],"stateMutability":"view"},{"type":"function","name":"getUSDValue","inputs":[],"outputs":[{"name":"","type":"uint256","internalType":"uint256"}],"stateMutability":"view"},{"type":"function","name":"initializeTreasury","inputs":[{"name":"_treasury","type":"address","internalType":"address"}],"outputs":[],"stateMutability":"nonpayable"},{"type":"function","name":"lastCDSPoolValue","inputs":[],"outputs":[{"name":"","type":"uint256","internalType":"uint256"}],"stateMutability":"view"},{"type":"function","name":"lastCumulativeRate","inputs":[],"outputs":[{"name":"","type":"uint256","internalType":"uint256"}],"stateMutability":"view"},{"type":"function","name":"lastEthVaultValue","inputs":[],"outputs":[{"name":"","type":"uint256","internalType":"uint256"}],"stateMutability":"view"},{"type":"function","name":"lastEthprice","inputs":[],"outputs":[{"name":"","type":"uint128","internalType":"uint128"}],"stateMutability":"view"},{"type":"function","name":"lastTotalCDSPool","inputs":[],"outputs":[{"name":"","type":"uint256","internalType":"uint256"}],"stateMutability":"view"},{"type":"function","name":"liquidate","inputs":[{"name":"_user","type":"address","internalType":"address"},{"name":"_index","type":"uint64","internalType":"uint64"},{"name":"currentEthPrice","type":"uint64","internalType":"uint64"}],"outputs":[],"stateMutability":"nonpayable"},{"type":"function","name":"noOfLiquidations","inputs":[],"outputs":[{"name":"","type":"uint128","internalType":"uint128"}],"stateMutability":"view"},{"type":"function","name":"options","inputs":[],"outputs":[{"name":"","type":"address","internalType":"contract IOptions"}],"stateMutability":"view"},{"type":"function","name":"owner","inputs":[],"outputs":[{"name":"","type":"address","internalType":"address"}],"stateMutability":"view"},{"type":"function","name":"priceFeedAddress","inputs":[],"outputs":[{"name":"","type":"address","internalType":"address"}],"stateMutability":"view"},{"type":"function","name":"protocolToken","inputs":[],"outputs":[{"name":"","type":"address","internalType":"contract IProtocolToken"}],"stateMutability":"view"},{"type":"function","name":"renounceOwnership","inputs":[],"outputs":[],"stateMutability":"nonpayable"},{"type":"function","name":"setAPY","inputs":[{"name":"_apy","type":"uint8","internalType":"uint8"}],"outputs":[],"stateMutability":"nonpayable"},{"type":"function","name":"setAdmin","inputs":[{"name":"_admin","type":"address","internalType":"address"}],"outputs":[],"stateMutability":"nonpayable"},{"type":"function","name":"setLTV","inputs":[{"name":"_LTV","type":"uint8","internalType":"uint8"}],"outputs":[],"stateMutability":"nonpayable"},{"type":"function","name":"setOptions","inputs":[{"name":"_options","type":"address","internalType":"address"}],"outputs":[],"stateMutability":"nonpayable"},{"type":"function","name":"setWithdrawTimeLimit","inputs":[{"name":"_timeLimit","type":"uint64","internalType":"uint64"}],"outputs":[],"stateMutability":"nonpayable"},{"type":"function","name":"totalAmintSupply","inputs":[],"outputs":[{"name":"","type":"uint256","internalType":"uint256"}],"stateMutability":"view"},{"type":"function","name":"totalDiracSupply","inputs":[],"outputs":[{"name":"","type":"uint256","internalType":"uint256"}],"stateMutability":"view"},{"type":"function","name":"totalNormalizedAmount","inputs":[],"outputs":[{"name":"","type":"uint256","internalType":"uint256"}],"stateMutability":"view"},{"type":"function","name":"transferOwnership","inputs":[{"name":"newOwner","type":"address","internalType":"address"}],"outputs":[],"stateMutability":"nonpayable"},{"type":"function","name":"treasury","inputs":[],"outputs":[{"name":"","type":"address","internalType":"contract ITreasury"}],"stateMutability":"view"},{"type":"function","name":"treasuryAddress","inputs":[],"outputs":[{"name":"","type":"address","internalType":"address"}],"stateMutability":"view"},{"type":"function","name":"updateLastEthVaultValue","inputs":[{"name":"_amount","type":"uint256","internalType":"uint256"}],"outputs":[],"stateMutability":"nonpayable"},{"type":"function","name":"withDraw","inputs":[{"name":"_toAddress","type":"address","internalType":"address"},{"name":"_index","type":"uint64","internalType":"uint64"},{"name":"_ethPrice","type":"uint64","internalType":"uint64"},{"name":"_withdrawTime","type":"uint64","internalType":"uint64"},{"name":"_bondRatio","type":"uint64","internalType":"uint64"}],"outputs":[],"stateMutability":"nonpayable"},{"type":"function","name":"withdrawFromAaveProtocol","inputs":[{"name":"index","type":"uint64","internalType":"uint64"}],"outputs":[],"stateMutability":"nonpayable"},{"type":"function","name":"withdrawFromCompoundProtocol","inputs":[{"name":"index","type":"uint64","internalType":"uint64"}],"outputs":[],"stateMutability":"nonpayable"},{"type":"function","name":"withdrawTimeLimit","inputs":[],"outputs":[{"name":"","type":"uint64","internalType":"uint64"}],"stateMutability":"view"},{"type":"event","name":"Deposit","inputs":[{"name":"index","type":"uint64","indexed":false,"internalType":"uint64"},{"name":"depositedAmount","type":"uint256","indexed":false,"internalType":"uint256"},{"name":"borrowAmount","type":"uint256","indexed":false,"internalType":"uint256"},{"name":"normalizedAmount","type":"uint256","indexed":false,"internalType":"uint256"}],"anonymous":false},{"type":"event","name":"OwnershipTransferred","inputs":[{"name":"previousOwner","type":"address","indexed":true,"internalType":"address"},{"name":"newOwner","type":"address","indexed":true,"internalType":"address"}],"anonymous":false},{"type":"event","name":"Withdraw","inputs":[{"name":"borrowDebt","type":"uint256","indexed":false,"internalType":"uint256"},{"name":"withdrawAmount","type":"uint128","indexed":false,"internalType":"uint128"},{"name":"noOfAbond","type":"uint128","indexed":false,"internalType":"uint128"}],"anonymous":false},{"type":"error","name":"Borrowing_DepositFailed","inputs":[]},{"type":"error","name":"Borrowing_GettingETHPriceFailed","inputs":[]},{"type":"error","name":"Borrowing_LiquidateBurnFailed","inputs":[]},{"type":"error","name":"Borrowing_LiquidateEthTransferToCdsFailed","inputs":[]},{"type":"error","name":"Borrowing_MUSDMintFailed","inputs":[]},{"type":"error","name":"Borrowing_WithdrawBurnFailed","inputs":[]},{"type":"error","name":"Borrowing_WithdrawEthTransferFailed","inputs":[]},{"type":"error","name":"Borrowing_WithdrawMUSDTransferFailed","inputs":[]},{"type":"error","name":"Borrowing_pTokenMintFailed","inputs":[]}],"bytecode":{"object":"0x6080604052601480546a0f42400000000000000000600160401b600160c01b031990911617905571271000000000000000000000000000989680601555601680546001600160801b0319166b033b2e3c9fd0803ce80000001790553480156200006757600080fd5b506040516200463c3803806200463c8339810160408190526200008a9162000245565b620000953362000131565b600180546001600160a01b038087166001600160a01b031992831617909255600280548684169083168117909155600880548316909117905560038054858416908316179055600b805492841692909116919091179055620000f662000181565b600c80546001600160801b03199081166001600160801b03938416179091556011805490911642909216919091179055506200033292505050565b600080546001600160a01b038381166001600160a01b0319831681178455604051919092169283917f8be0079c531659141344cd1fd0a4f28419497f9722a3daafe3b4186f6b6457e09190a35050565b600b5460408051633fabe5a360e21b815290516000926001600160a01b0316918391839163feaf968c9160048083019260a09291908290030181865afa158015620001d0573d6000803e3d6000fd5b505050506040513d601f19601f82011682018060405250810190620001f69190620002ba565b5050601454919350620002219250506801000000000000000090046001600160801b0316826200030f565b9250505090565b80516001600160a01b03811681146200024057600080fd5b919050565b600080600080608085870312156200025c57600080fd5b620002678562000228565b9350620002776020860162000228565b9250620002876040860162000228565b9150620002976060860162000228565b905092959194509250565b80516001600160501b03811681146200024057600080fd5b600080600080600060a08688031215620002d357600080fd5b620002de86620002a2565b94506020860151935060408601519250606086015191506200030360808701620002a2565b90509295509295909350565b6000826200032d57634e487b7160e01b600052601260045260246000fd5b500490565b6142fa80620003426000396000f3fe6080604052600436106102465760003560e01c806384e9212811610139578063c5f956af116100b6578063e6d97f171161007a578063e6d97f171461068f578063ec11dab2146106af578063ef8bd305146106cf578063f2fde38b146106f0578063f851a44014610710578063fe9258841461073057600080fd5b8063c5f956af146105fa578063d2cbf7ad1461061a578063d5c28dba14610639578063e0abca0b14610659578063e42f80901461067957600080fd5b806399eb2f6c116100fd57806399eb2f6c14610579578063aad2476d1461058f578063b3aebb9c146105af578063b4eb10ce146105c5578063b8f49090146105e557600080fd5b806384e92128146104fa578063868c10d2146105105780638da5cb5b146105305780638e4db39a1461054e57806398afda431461056457600080fd5b806350593af7116101c75780636fdc52031161018b5780636fdc52031461046f578063704b6c0214610485578063715018a6146104a557806373ca55a2146104ba5780637d6dff7d146104da57600080fd5b806350593af7146103f15780635e34783e14610406578063606303f81461041957806361d027b31461042f578063661b7d3e1461044f57600080fd5b806338a912d51161020e57806338a912d5146103255780633ed086f41461034c5780633f3006b41461036c5780634ed2b8ac1461038c5780634f04a86b146103b957600080fd5b80631069143a1461024b578063181ab6db146102885780631a465fe1146102ab5780632bf16927146102cb5780632feabb52146102ed575b600080fd5b34801561025757600080fd5b5060055461026b906001600160a01b031681565b6040516001600160a01b0390911681526020015b60405180910390f35b34801561029457600080fd5b5061029d610750565b60405190815260200161027f565b3480156102b757600080fd5b5060035461026b906001600160a01b031681565b3480156102d757600080fd5b506102eb6102e63660046139b8565b61085f565b005b3480156102f957600080fd5b50600c5461030d906001600160801b031681565b6040516001600160801b03909116815260200161027f565b34801561033157600080fd5b5060115461030d90600160801b90046001600160801b031681565b34801561035857600080fd5b506102eb610367366004613a27565b6114cf565b34801561037857600080fd5b506102eb610387366004613a42565b61158d565b34801561039857600080fd5b50600954600160a01b900460ff165b60405160ff909116815260200161027f565b3480156103c557600080fd5b506014546103d9906001600160401b031681565b6040516001600160401b03909116815260200161027f565b3480156103fd57600080fd5b5061029d611600565b6102eb610414366004613a74565b6116a2565b34801561042557600080fd5b5061029d60135481565b34801561043b57600080fd5b5060045461026b906001600160a01b031681565b34801561045b57600080fd5b506102eb61046a366004613adc565b611ca5565b34801561047b57600080fd5b5061029d600a5481565b34801561049157600080fd5b506102eb6104a0366004613a27565b611d31565b3480156104b157600080fd5b506102eb611dda565b3480156104c657600080fd5b506102eb6104d5366004613b04565b611dee565b3480156104e657600080fd5b506102eb6104f5366004613a27565b611e62565b34801561050657600080fd5b5061029d600e5481565b34801561051c57600080fd5b506102eb61052b366004613a42565b611f16565b34801561053c57600080fd5b506000546001600160a01b031661026b565b34801561055a57600080fd5b5061029d60105481565b34801561057057600080fd5b506102eb611fa4565b34801561058557600080fd5b5061029d600d5481565b34801561059b57600080fd5b506102eb6105aa366004613b04565b612009565b3480156105bb57600080fd5b5061029d60125481565b3480156105d157600080fd5b5060025461026b906001600160a01b031681565b3480156105f157600080fd5b506102eb612031565b34801561060657600080fd5b5060075461026b906001600160a01b031681565b34801561062657600080fd5b50600954600160a81b900460ff166103a7565b34801561064557600080fd5b506102eb610654366004613b21565b61207c565b34801561066557600080fd5b50600b5461026b906001600160a01b031681565b34801561068557600080fd5b5061029d600f5481565b34801561069b57600080fd5b5060015461026b906001600160a01b031681565b3480156106bb57600080fd5b506102eb6106ca366004613a42565b61295d565b3480156106db57600080fd5b506009546103a790600160a81b900460ff1681565b3480156106fc57600080fd5b506102eb61070b366004613a27565b61299f565b34801561071c57600080fd5b5060095461026b906001600160a01b031681565b34801561073c57600080fd5b5060085461026b906001600160a01b031681565b60048054604080516322d7586760e11b8152905160009384936001600160a01b0316926345aeb0ce9281830192602092829003018187875af115801561079a573d6000803e3d6000fd5b505050506040513d601f19601f820116820180604052508101906107be9190613b75565b90506b033b2e3cb548ff197d3905a160006001600160801b03831681036107f457506001600160801b0381166010819055610858565b60115460009061080d906001600160801b031642613ba8565b6016546001600160801b03918216925061082d9185811691849116612a18565b60105461083a9190613bcf565b601654909250610853906001600160801b031683613bfc565b601055505b9392505050565b6001600160a01b0385161580159061087b57506001853b151514155b6108e55760405162461bcd60e51b815260206004820152603060248201527f546f20616464726573732063616e6e6f742062652061207a65726f20616e642060448201526f636f6e7472616374206164647265737360801b60648201526084015b60405180910390fd5b600c80546001600160401b0385166fffffffffffffffffffffffffffffffff1991821617909155601180549091166001600160801b03421617905560048054604051634d5c56a560e01b815260009283926001600160a01b031691634d5c56a5916109549133918b9101613c10565b61028060405180830381865afa158015610972573d6000803e3d6000fd5b505050506040513d601f19601f820116820180604052508101906109969190613c8f565b91509150856001600160401b0316826001600160401b03161061146f5780610120015115610a065760405162461bcd60e51b815260206004820152601f60248201527f5573657220616d6f756e7420686173206265656e206c6971756964617465640060448201526064016108dc565b60e0810151151560000361141b578060c0015160ff166000036112ff576060810151600090610a3787612710613e23565b6001600160401b0316610a4a9190613e4e565b9050611f40816001600160801b031611610a9f5760405162461bcd60e51b8152602060048201526016602482015275426f72726f77696e674865616c7468206973204c6f7760501b60448201526064016108dc565b60165460105460a08401516000926001600160801b0390811692610ac592909116613bcf565b610acf9190613bfc565b6016549091506001600160801b0316610ae6610750565b610af09190613bfc565b6010556001546040516370a0823160e01b815233600482015282916001600160a01b0316906370a0823190602401602060405180830381865afa158015610b3b573d6000803e3d6000fd5b505050506040513d601f19601f82011682018060405250810190610b5f9190613e74565b1015610bb85760405162461bcd60e51b815260206004820152602260248201527f557365722062616c616e6365206973206c657373207468616e20726571756972604482015261195960f21b60648201526084016108dc565b6001600160401b038088166101408501819052908716610160850152600160c0850152602084015160009160649182908190610bf5906032613e8d565b610bff9190613e4e565b610c0a906014613e8d565b610c149190613e4e565b610c1e9190613e8d565b610c289190613e4e565b6001600160801b03169050600081606486608001516032610c499190613e8d565b610c539190613e4e565b6001600160801b0316610c669190613eb0565b6001546040516363a9f09360e11b8152336004820152602481018390529192506000916001600160a01b039091169063c753e126906044016020604051808303816000875af1158015610cbd573d6000803e3d6000fd5b505050506040513d601f19601f82011682018060405250810190610ce19190613ec3565b905080610d01576040516303f7009160e51b815260040160405180910390fd5b6001546007546000916001600160a01b03908116916323b872dd91339116610d29878a613eb0565b6040516001600160e01b031960e086901b1681526001600160a01b03938416600482015292909116602483015260448201526064016020604051808303816000875af1158015610d7d573d6000803e3d6000fd5b505050506040513d601f19601f82011682018060405250810190610da19190613ec3565b905080610dc157604051630aae388960e41b815260040160405180910390fd5b60045460808801516001600160a01b039091169063b9a221eb90610dee906001600160801b031688613eb0565b6040518263ffffffff1660e01b8152600401610e0c91815260200190565b600060405180830381600087803b158015610e2657600080fd5b505af1158015610e3a573d6000803e3d6000fd5b505050506000610e4b33868c612ad6565b6101e089018590526001600160801b0381166101808a01526004805460405163ef0d5dc160e01b81529293506001600160a01b03169163ef0d5dc191610e95913391869101613ede565b600060405180830381600087803b158015610eaf57600080fd5b505af1158015610ec3573d6000803e3d6000fd5b50505050600460009054906101000a90046001600160a01b03166001600160a01b03166334bc9b20338f8b6040518463ffffffff1660e01b8152600401610f0c93929190613f00565b600060405180830381600087803b158015610f2657600080fd5b505af1158015610f3a573d6000803e3d6000fd5b505050505050505050600080886001600160401b031685606001518660200151610f649190613e8d565b610f6e9190613e4e565b9050612710846001600160801b0316111561102c5760055460208601516101a08701516040516310335d6b60e21b81526001600160801b0390921660048301526001600160401b0390811660248301528b1660448201526001600160a01b03909116906340cd75ac90606401602060405180830381865afa158015610ff7573d6000803e3d6000fd5b505050506040513d601f19601f8201168201806040525081019061101b9190613b75565b61102590826140d6565b91506110bc565b836001600160801b031661271003611046578091506110bc565b836001600160801b0316611f4010801561106a5750612710846001600160801b0316105b1561107b57846020015191506110bc565b60405162461bcd60e51b8152602060048201526016602482015275426f72726f77696e674865616c7468206973204c6f7760501b60448201526064016108dc565b60646110c9836032613e8d565b6110d39190613e4e565b915061110d6040518060400160405280600d81526020016c32ba34103a37903932ba3ab93760991b815250836001600160801b0316612cbe565b6000600460009054906101000a90046001600160a01b03166001600160a01b031663fe6520ae338e868f8f6040518663ffffffff1660e01b81526004016111589594939291906140f6565b6020604051808303816000875af1158015611177573d6000803e3d6000fd5b505050506040513d601f19601f8201168201806040525081019061119b9190613ec3565b9050806111bb57604051635e5e86d560e01b815260040160405180910390fd5b600160009054906101000a90046001600160a01b03166001600160a01b03166318160ddd6040518163ffffffff1660e01b8152600401602060405180830381865afa15801561120e573d6000803e3d6000fd5b505050506040513d601f19601f820116820180604052508101906112329190613e74565b601255600354604080516318160ddd60e01b815290516001600160a01b03909216916318160ddd916004808201926020929091908290030181865afa15801561127f573d6000803e3d6000fd5b505050506040513d601f19601f820116820180604052508101906112a39190613e74565b601355610180860151604080518681526001600160801b03868116602083015290921682820152517f2dc3b614e32706dcf24286e69af4692f4b2c24fc339d659e80b26d49379b69149181900360600190a150505050506114c6565b8060c0015160ff1660010361141b5761132b878787846101600151856101800151866101000151612d07565b600160009054906101000a90046001600160a01b03166001600160a01b03166318160ddd6040518163ffffffff1660e01b8152600401602060405180830381865afa15801561137e573d6000803e3d6000fd5b505050506040513d601f19601f820116820180604052508101906113a29190613e74565b601255600354604080516318160ddd60e01b815290516001600160a01b03909216916318160ddd916004808201926020929091908290030181865afa1580156113ef573d6000803e3d6000fd5b505050506040513d601f19601f820116820180604052508101906114139190613e74565b6013556114c6565b60405162461bcd60e51b815260206004820152602360248201527f5573657220616c726561647920776974686472617720656e7469726520616d6f6044820152621d5b9d60ea1b60648201526084016108dc565b60405162461bcd60e51b815260206004820152602660248201527f5573657220646f656e73277420686176652074686520706572746963756c6172604482015265040d2dcc8caf60d31b60648201526084016108dc565b50505050505050565b6114d7613287565b6001600160a01b038116158015906114ef5750803b15155b6115615760405162461bcd60e51b815260206004820152603960248201527f5472656173757279206d75737420626520636f6e74726163742061646472657360448201527f7320262063616e2774206265207a65726f20616464726573730000000000000060648201526084016108dc565b600480546001600160a01b039092166001600160a01b0319928316811790915560078054909216179055565b611595613287565b600480546040516306ef62b960e11b81526001600160401b038416928101929092526001600160a01b031690630ddec572906024015b600060405180830381600087803b1580156115e557600080fd5b505af11580156115f9573d6000803e3d6000fd5b5050505050565b600b5460408051633fabe5a360e21b815290516000926001600160a01b0316918391839163feaf968c9160048083019260a09291908290030181865afa15801561164e573d6000803e3d6000fd5b505050506040513d601f19601f820116820180604052508101906116729190614155565b505060145491935061169b9250506801000000000000000090046001600160801b031682613bfc565b9250505090565b600034116116f25760405162461bcd60e51b815260206004820152601a60248201527f43616e6e6f74206465706f736974207a65726f20746f6b656e7300000000000060448201526064016108dc565b343331116117685760405162461bcd60e51b815260206004820152603e60248201527f596f7520646f206e6f7420686176652073756666696369656e742062616c616e60448201527f636520746f20657865637574652074686973207472616e73616374696f6e000060648201526084016108dc565b600061177d34876001600160801b03166132e1565b60155490915061179e90600160801b90046001600160801b03166002613e8d565b6001600160801b0316816001600160401b031610156117f85760405162461bcd60e51b81526020600482015260166024820152754e6f7420656e6f7567682066756e6420696e2043445360501b60448201526064016108dc565b6004805460405163dcb71f3f60e01b815233928101929092526001600160801b03881660248301526001600160401b038716604483015260009182916001600160a01b03169063dcb71f3f903490606401604080518083038185885af1158015611866573d6000803e3d6000fd5b50505050506040513d601f19601f8201168201806040525081019061188b91906141a5565b60055460405163338271f960e21b81529294509092506000916001600160a01b039091169063ce09c7e4906118c890889034908c906004016141dc565b6020604051808303816000875af11580156118e7573d6000803e3d6000fd5b505050506040513d601f19601f8201168201806040525081019061190b9190613e74565b90508261192b57604051634fad3b0960e01b815260040160405180910390fd5b600061193933348c85613608565b60025460405163b87c3dc360e01b81526001600160801b03851660048201529192506001600160a01b03169063b87c3dc3906024016020604051808303816000875af115801561198d573d6000803e3d6000fd5b505050506040513d601f19601f820116820180604052508101906119b19190613b75565b5060048054604051634d5c56a560e01b81526000926001600160a01b0390921691634d5c56a5916119e6913391899101613c10565b61028060405180830381865afa158015611a04573d6000803e3d6000fd5b505050506040513d601f19601f82011682018060405250810190611a289190613c8f565b6001600160801b03848116608083015285166101c082015260048054604051632e449f1760e21b81523392810192909252600160248301529193506001600160a01b03909116915063b9127c5c90604401600060405180830381600087803b158015611a9357600080fd5b505af1158015611aa7573d6000803e3d6000fd5b505060048054604051630e6840d960e11b81523392810192909252602482018690526001600160a01b03169250631cd081b29150604401600060405180830381600087803b158015611af857600080fd5b505af1158015611b0c573d6000803e3d6000fd5b505050506000611b1a610750565b60165490915060009082906001600160801b0316611b388187613bcf565b611b429190613bcf565b611b4c9190613bfc565b6001600160801b03811660a08501526001600160401b038b166101a0850152600480546040516301a5e4d960e51b81529293506001600160a01b0316916334bc9b2091611b9f9133918b91899101613f00565b600060405180830381600087803b158015611bb957600080fd5b505af1158015611bcd573d6000803e3d6000fd5b5050505080600a6000828254611be39190614216565b925050819055508c600c60006101000a8154816001600160801b0302191690836001600160801b0316021790555042601160006101000a8154816001600160801b0302191690836001600160801b031602179055507f3f7c04c09b19100060129256b7d82f055d0aa72cf17042fb3f2d41d1fffc026086348684604051611c8e94939291906001600160401b0394909416845260208401929092526040830152606082015260800190565b60405180910390a150505050505050505050505050565b6007546001600160a01b03163314611cbc57600080fd5b80600003611d175760405162461bcd60e51b815260206004820152602260248201527f4c61737420455448207661756c742076616c75652063616e2774206265207a65604482015261726f60f01b60648201526084016108dc565b80600d6000828254611d299190613eb0565b909155505050565b611d39613287565b6001600160a01b03811615801590611d5557506001813b151514155b611db85760405162461bcd60e51b815260206004820152602e60248201527f41646d696e2063616e277420626520636f6e747261637420616464726573732060448201526d26207a65726f206164647265737360901b60648201526084016108dc565b600980546001600160a01b0319166001600160a01b0392909216919091179055565b611de2613287565b611dec6000613912565b565b611df6613287565b8060ff16600003611e425760405162461bcd60e51b81526020600482015260166024820152754150592073686f756c64206e6f74206265207a65726f60501b60448201526064016108dc565b6009805460ff909216600160a81b0260ff60a81b19909216919091179055565b611e6a613287565b6001600160a01b03811615801590611e825750803b15155b611ef45760405162461bcd60e51b815260206004820152603860248201527f4f7074696f6e73206d75737420626520636f6e7472616374206164647265737360448201527f20262063616e2774206265207a65726f2061646472657373000000000000000060648201526084016108dc565b600580546001600160a01b0319166001600160a01b0392909216919091179055565b611f1e613287565b806001600160401b0316600003611f815760405162461bcd60e51b815260206004820152602160248201527f57697468647261772074696d65206c696d69742063616e2774206265207a65726044820152606f60f81b60648201526084016108dc565b6014805467ffffffffffffffff19166001600160401b0392909216919091179055565b611fac613287565b60048054604080516301865f0760e21b815290516001600160a01b03909216926306197c1c92828201926000929082900301818387803b158015611fef57600080fd5b505af1158015612003573d6000803e3d6000fd5b50505050565b612011613287565b6009805460ff909216600160a01b0260ff60a01b19909216919091179055565b612039613287565b60048054604080516306e1444d60e21b815290516001600160a01b0390921692631b85113492828201926000929082900301818387803b158015611fef57600080fd5b6009546001600160a01b0316331461209357600080fd5b6001600160a01b0383166120f55760405162461bcd60e51b815260206004820152602360248201527f546f20616464726573732063616e6e6f742062652061207a65726f206164647260448201526265737360e81b60648201526084016108dc565b6001600160a01b038316330361215b5760405162461bcd60e51b815260206004820152602560248201527f596f752063616e6e6f74206c697175696461746520796f7572206f776e206173604482015264736574732160d81b60648201526084016108dc565b601180548491849160109061217f90600160801b90046001600160801b0316614229565b82546001600160801b039182166101009390930a928302919092021990911617905560048054604051634d5c56a560e01b81526000926001600160a01b0390921691634d5c56a5916121d5918791879101613c10565b61028060405180830381865afa1580156121f3573d6000803e3d6000fd5b505050506040513d601f19601f820116820180604052508101906122179190613c8f565b915050806101200151156122625760405162461bcd60e51b8152602060048201526012602482015271105b1c9958591e48131a5c5d5a59185d195960721b60448201526064016108dc565b6004805460408051630f27449560e01b815290516001600160a01b0390921692630f2744959282820192602092908290030181865afa1580156122a9573d6000803e3d6000fd5b505050506040513d601f19601f820116820180604052508101906122cd9190613e74565b81602001516001600160801b031611156123295760405162461bcd60e51b815260206004820152601c60248201527f4e6f7420656e6f7567682066756e647320696e2074726561737572790000000060448201526064016108dc565b606081015160009061233d86612710613e23565b6001600160401b03166123509190613e4e565b9050611f40816001600160801b031611156123a45760405162461bcd60e51b8152602060048201526014602482015273596f752063616e6e6f74206c697175696461746560601b60448201526064016108dc565b600161012083015260165460105460a08401516000926001600160801b03908116926123d292909116613bcf565b6123dc9190613bfc565b6016549091506001600160801b03166123f3610750565b6123fd9190613bfc565b6010556060830151602084015182916000916064918491839161241f91613e8d565b6124299190613e4e565b6124339190613ba8565b61243e90600a613e8d565b6124489190613e4e565b9050600081836064886060015189602001516124649190613e8d565b61246e9190613e4e565b6124789190613ba8565b6124829190613ba8565b9050600061249083856140d6565b6040805160808101825260008082526020820181905291810182905260608101919091529091506040518060800160405280836001600160801b03168152602001846001600160801b0316815260200189602001516001600160801b03168152602001600260009054906101000a90046001600160a01b03166001600160a01b031663dc91e7526040518163ffffffff1660e01b81526004016020604051808303816000875af1158015612548573d6000803e3d6000fd5b505050506040513d601f19601f8201168201806040525081019061256c9190613e74565b90526002546011546040805163b3013d4d60e01b8152600160801b9092046001600160801b03908116600484015284518116602484015260208501518116604484015290840151166064820152606083015160848201529192506001600160a01b03169063b3013d4d9060a401600060405180830381600087803b1580156125f357600080fd5b505af1158015612607573d6000803e3d6000fd5b505060025460405163dc55b19360e01b81526001600160801b03861660048201526001600160a01b03909116925063dc55b1939150602401600060405180830381600087803b15801561265957600080fd5b505af115801561266d573d6000803e3d6000fd5b5050600254604051634cae95d360e01b81526001600160801b03861660048201526001600160a01b039091169250634cae95d39150602401600060405180830381600087803b1580156126bf57600080fd5b505af11580156126d3573d6000803e3d6000fd5b505050506000846001600160801b031687876001600160801b03166126f89190613eb0565b6127029190614216565b600480546040516308fc416760e21b81529293506001600160a01b0316916323f1059c916127369185910190815260200190565b600060405180830381600087803b15801561275057600080fd5b505af1158015612764573d6000803e3d6000fd5b5050600480546040516301a5e4d960e51b81526001600160a01b0390911693506334bc9b20925061279b918f918f918f9101613f00565b600060405180830381600087803b1580156127b557600080fd5b505af11580156127c9573d6000803e3d6000fd5b50506004805460808d0151604051630adfd5a560e21b81526001600160a01b039092169450632b7f5694935061280192309201613ede565b600060405180830381600087803b15801561281b57600080fd5b505af115801561282f573d6000803e3d6000fd5b505060015460075460808d01516040516363a9f09360e11b8152600095506001600160a01b03938416945063c753e1269361286f93169190600401613ede565b6020604051808303816000875af115801561288e573d6000803e3d6000fd5b505050506040513d601f19601f820116820180604052508101906128b29190613ec3565b9050806128d257604051632105f02360e11b815260040160405180910390fd5b600160009054906101000a90046001600160a01b03166001600160a01b03166318160ddd6040518163ffffffff1660e01b8152600401602060405180830381865afa158015612925573d6000803e3d6000fd5b505050506040513d601f19601f820116820180604052508101906129499190613e74565b601255505050505050505050505050505050565b612965613287565b60048054604051630376724160e41b81526001600160401b038416928101929092526001600160a01b0316906337672410906024016115cb565b6129a7613287565b6001600160a01b038116612a0c5760405162461bcd60e51b815260206004820152602660248201527f4f776e61626c653a206e6577206f776e657220697320746865207a65726f206160448201526564647265737360d01b60648201526084016108dc565b612a1581613912565b50565b6000838015612ab857600184168015612a3357859250612a37565b8392505b50600283046002850494505b8415612ab2578586028687820414612a5a57600080fd5b81810181811015612a6a57600080fd5b8590049650506001851615612aa7578583028387820414158715151615612a9057600080fd5b81810181811015612aa057600080fd5b8590049350505b600285049450612a43565b50612ace565b838015612ac85760009250612acc565b8392505b505b509392505050565b60006001600160a01b038416612b2e5760405162461bcd60e51b815260206004820152601f60248201527f426f72726f7765722063616e6e6f74206265207a65726f20616464726573730060448201526064016108dc565b82600003612b755760405162461bcd60e51b8152602060048201526014602482015273416d6f756e742063616e2774206265207a65726f60601b60448201526064016108dc565b6000612b82836064613e23565b6001600160401b0316612b96856064613e8d565b612ba09190613e4e565b6003546040516340c10f1960e01b81529192506000916001600160a01b03909116906340c10f1990612bd89089908690600401613ede565b6020604051808303816000875af1158015612bf7573d6000803e3d6000fd5b505050506040513d601f19601f82011682018060405250810190612c1b9190613ec3565b905080612c3b576040516368a3803760e11b815260040160405180910390fd5b600360009054906101000a90046001600160a01b03166001600160a01b03166318160ddd6040518163ffffffff1660e01b8152600401602060405180830381865afa158015612c8e573d6000803e3d6000fd5b505050506040513d601f19601f82011682018060405250810190612cb29190613e74565b60135550949350505050565b612d038282604051602401612cd492919061424f565b60408051601f198184030181529190526020810180516001600160e01b0316632d839cb360e21b179052613962565b5050565b601454612d1d906001600160401b0316846142a4565b6001600160401b0316421015612d865760405162461bcd60e51b815260206004820152602860248201527f41206d6f6e7468206e6f742079657420636f6d706c657465642073696e636520604482015267776974686472617760c01b60648201526084016108dc565b6003546040516370a0823160e01b81523360048201526001600160801b038416916001600160a01b0316906370a0823190602401602060405180830381865afa158015612dd7573d6000803e3d6000fd5b505050506040513d601f19601f82011682018060405250810190612dfb9190613e74565b14612e525760405162461bcd60e51b815260206004820152602160248201527f446f6e2774206861766520656e6f7567682050726f746f636f6c20546f6b656e6044820152607360f81b60648201526084016108dc565b60048054604051634d5c56a560e01b81526000926001600160a01b0390921691634d5c56a591612e869133918b9101613c10565b61028060405180830381865afa158015612ea4573d6000803e3d6000fd5b505050506040513d601f19601f82011682018060405250810190612ec89190613c8f565b600480546020830151604051631b35376f60e21b81529395506001600160a01b039091169350636cd4ddbc92612f019233929101613ede565b600060405180830381600087803b158015612f1b57600080fd5b505af1158015612f2f573d6000803e3d6000fd5b5050600160e08401525050600260c082015260048054604051630edd59bf60e21b81526001600160a01b0390911691633b7566fc91612f72913391889101613ede565b600060405180830381600087803b158015612f8c57600080fd5b505af1158015612fa0573d6000803e3d6000fd5b505060006101808401525050600480546040516301a5e4d960e51b81526001600160a01b03909116916334bc9b2091612fdf9133918b91879101613f00565b600060405180830381600087803b158015612ff957600080fd5b505af115801561300d573d6000803e3d6000fd5b505060045460808401516001600160a01b039091169250632b7f56949150309060649061303b906032613e8d565b6130459190613e4e565b6040518363ffffffff1660e01b8152600401613062929190613ede565b600060405180830381600087803b15801561307c57600080fd5b505af1158015613090573d6000803e3d6000fd5b50506001546007546101e08501516040516363a9f09360e11b81526001600160a01b0392831660048201526024810191909152600094509116915063c753e126906044016020604051808303816000875af11580156130f3573d6000803e3d6000fd5b505050506040513d601f19601f820116820180604052508101906131179190613ec3565b905080613137576040516303f7009160e51b815260040160405180910390fd5b6003546040516363a9f09360e11b81526000916001600160a01b03169063c753e1269061316a9033908990600401613ede565b6020604051808303816000875af1158015613189573d6000803e3d6000fd5b505050506040513d601f19601f820116820180604052508101906131ad9190613ec3565b9050806131cd576040516303f7009160e51b815260040160405180910390fd5b6000600460009054906101000a90046001600160a01b03166001600160a01b031663fe6520ae338c888d8d6040518663ffffffff1660e01b81526004016132189594939291906140f6565b6020604051808303816000875af1158015613237573d6000803e3d6000fd5b505050506040513d601f19601f8201168201806040525081019061325b9190613ec3565b90508061327b57604051635e5e86d560e01b815260040160405180910390fd5b50505050505050505050565b6000546001600160a01b03163314611dec5760405162461bcd60e51b815260206004820181905260248201527f4f776e61626c653a2063616c6c6572206973206e6f7420746865206f776e657260448201526064016108dc565b60008082600003613305576040516315e73e9f60e01b815260040160405180910390fd5b6000600460009054906101000a90046001600160a01b03166001600160a01b03166345aeb0ce6040518163ffffffff1660e01b81526004016020604051808303816000875af115801561335c573d6000803e3d6000fd5b505050506040513d601f19601f820116820180604052508101906133809190613b75565b600c549091506001600160801b03168411156133c157600c546001600160801b03808316916133b0911686613eb0565b6133ba9190613bcf565b91506133e9565b600c546001600160801b03808316916133dc91879116613eb0565b6133e69190613bcf565b91505b600080826001600160801b03166000036134c6576134078688613bcf565b600d819055600254604080516315d9753160e11b815290519294506001600160a01b0390911691632bb2ea62916004808201926020929091908290030181865afa158015613459573d6000803e3d6000fd5b505050506040513d601f19601f8201168201806040525081019061347d9190613b75565b6001600160801b03908116600f55600c541686106134ab5783600f546134a39190614216565b600e556134bd565b83600f546134b99190613eb0565b600e555b50600e546135d5565b6134d08688613bcf565b600d546134dd9190614216565b915081600d819055506000600260009054906101000a90046001600160a01b03166001600160a01b0316632bb2ea626040518163ffffffff1660e01b8152600401602060405180830381865afa15801561353b573d6000803e3d6000fd5b505050506040513d601f19601f8201168201806040525081019061355f9190613b75565b600c546001600160801b0391821692501687106135a35784600f54826135859190613eb0565b600e546135929190614216565b61359c9190614216565b91506135cc565b84600f54826135b29190613eb0565b600e546135bf9190614216565b6135c99190613eb0565b91505b600f55600e8190555b60155460009083906135f0906001600160801b031684613bcf565b6135fa9190613bfc565b955050505050505b92915050565b60006001600160a01b0385166136605760405162461bcd60e51b815260206004820152601f60248201527f426f72726f7765722063616e6e6f74206265207a65726f20616464726573730060448201526064016108dc565b600954600160a01b900460ff166000036136e25760405162461bcd60e51b815260206004820152603860248201527f4c5456206d7573742062652073657420746f206e6f6e2d7a65726f2076616c7560448201527f65206265666f72652070726f766964696e67206c6f616e73000000000000000060648201526084016108dc565b60006136f76001600160801b03851686613bcf565b601554600954919250600091600160801b9091046001600160801b03169061372990600160a01b900460ff1684613bcf565b6137339190613bfc565b6001549091506000906001600160a01b03166340c10f19896137558886613eb0565b6040516001600160e01b031960e085901b1681526001600160a01b03909216600483015260248201526044016020604051808303816000875af11580156137a0573d6000803e3d6000fd5b505050506040513d601f19601f820116820180604052508101906137c49190613ec3565b6001546007546040516340c10f1960e01b81526001600160a01b039182166004820152602481018990529293506000929116906340c10f19906044016020604051808303816000875af115801561381f573d6000803e3d6000fd5b505050506040513d601f19601f820116820180604052508101906138439190613ec3565b905081613863576040516309ad720160e01b815260040160405180910390fd5b80613881576040516309ad720160e01b815260040160405180910390fd5b600160009054906101000a90046001600160a01b03166001600160a01b03166318160ddd6040518163ffffffff1660e01b8152600401602060405180830381865afa1580156138d4573d6000803e3d6000fd5b505050506040513d601f19601f820116820180604052508101906138f89190613e74565b6012556139058684613eb0565b9998505050505050505050565b600080546001600160a01b038381166001600160a01b0319831681178455604051919092169283917f8be0079c531659141344cd1fd0a4f28419497f9722a3daafe3b4186f6b6457e09190a35050565b612a158160006a636f6e736f6c652e6c6f679050600080835160208501845afa505050565b80356001600160a01b038116811461399e57600080fd5b919050565b6001600160401b0381168114612a1557600080fd5b600080600080600060a086880312156139d057600080fd5b6139d986613987565b945060208601356139e9816139a3565b935060408601356139f9816139a3565b92506060860135613a09816139a3565b91506080860135613a19816139a3565b809150509295509295909350565b600060208284031215613a3957600080fd5b61085882613987565b600060208284031215613a5457600080fd5b8135610858816139a3565b6001600160801b0381168114612a1557600080fd5b600080600080600060a08688031215613a8c57600080fd5b8535613a9781613a5f565b94506020860135613aa7816139a3565b9350604086013560058110613abb57600080fd5b92506060860135613acb816139a3565b949793965091946080013592915050565b600060208284031215613aee57600080fd5b5035919050565b60ff81168114612a1557600080fd5b600060208284031215613b1657600080fd5b813561085881613af5565b600080600060608486031215613b3657600080fd5b613b3f84613987565b92506020840135613b4f816139a3565b91506040840135613b5f816139a3565b809150509250925092565b805161399e81613a5f565b600060208284031215613b8757600080fd5b815161085881613a5f565b634e487b7160e01b600052601160045260246000fd5b6001600160801b03828116828216039080821115613bc857613bc8613b92565b5092915050565b808202811582820484141761360257613602613b92565b634e487b7160e01b600052601260045260246000fd5b600082613c0b57613c0b613be6565b500490565b6001600160a01b039290921682526001600160401b0316602082015260400190565b805161399e816139a3565b60405161026081016001600160401b0381118282101715613c6e57634e487b7160e01b600052604160045260246000fd5b60405290565b805161399e81613af5565b8051801515811461399e57600080fd5b600080828403610280811215613ca457600080fd5b8351613caf816139a3565b9250610260601f198201811315613cc557600080fd5b613ccd613c3d565b9150613cdb60208601613c32565b8252613ce960408601613b6a565b6020830152613cfa60608601613c32565b6040830152613d0b60808601613b6a565b6060830152613d1c60a08601613b6a565b6080830152613d2d60c08601613b6a565b60a0830152613d3e60e08601613c74565b60c0830152610100613d51818701613c7f565b60e0840152610120613d64818801613b6a565b828501526101409150613d78828801613c7f565b90840152610160613d8a878201613c32565b828501526101809150613d9e828801613c32565b908401526101a0613db0878201613b6a565b828501526101c09150613dc4828801613c32565b908401526101e0613dd6878201613b6a565b828501526102009150818701518185015250610220613df6818801613c32565b828501526102409150818701518185015250613e13828701613b6a565b9083015250919491935090915050565b6001600160401b03818116838216028082169190828114613e4657613e46613b92565b505092915050565b60006001600160801b0380841680613e6857613e68613be6565b92169190910492915050565b600060208284031215613e8657600080fd5b5051919050565b6001600160801b03818116838216028082169190828114613e4657613e46613b92565b8181038181111561360257613602613b92565b600060208284031215613ed557600080fd5b61085882613c7f565b6001600160a01b039290921682526001600160801b0316602082015260400190565b6001600160a01b03841681526001600160401b03838116602083015282511660408201526102a0810160208301516001600160801b03811660608401525060408301516001600160401b03811660808401525060608301516001600160801b03811660a08401525060808301516001600160801b03811660c08401525060a08301516001600160801b03811660e08401525060c0830151610100613fa88185018360ff169052565b60e08501519150610120613fbf8186018415159052565b90850151915061014090613fdd858301846001600160801b03169052565b8501519150610160613ff28582018415159052565b90850151915061018090614010858301846001600160401b03169052565b85015191506101a061402c858201846001600160401b03169052565b9085015191506101c09061404a858301846001600160801b03169052565b85015191506101e0614066858201846001600160401b03169052565b90850151915061020090614084858301846001600160801b03169052565b85015161022085810191909152908501519150610240906140af828601846001600160401b03169052565b8501516102608501528401516001600160801b038116610280850152905050949350505050565b6001600160801b03818116838216019080821115613bc857613bc8613b92565b6001600160a01b0395861681529390941660208401526001600160801b039190911660408301526001600160401b039081166060830152909116608082015260a00190565b805169ffffffffffffffffffff8116811461399e57600080fd5b600080600080600060a0868803121561416d57600080fd5b6141768661413b565b94506020860151935060408601519250606086015191506141996080870161413b565b90509295509295909350565b600080604083850312156141b857600080fd5b6141c183613c7f565b915060208301516141d1816139a3565b809150509250929050565b83815260208101839052606081016005831061420857634e487b7160e01b600052602160045260246000fd5b826040830152949350505050565b8082018082111561360257613602613b92565b60006001600160801b0380831681810361424557614245613b92565b6001019392505050565b604081526000835180604084015260005b8181101561427d5760208187018101516060868401015201614260565b506000606082850101526060601f19601f8301168401019150508260208301529392505050565b6001600160401b03818116838216019080821115613bc857613bc8613b9256fea2646970667358221220535359c1820b5aab8b696f101297d36cbc27a9765f9d86ea40e0e6d0a03674f764736f6c63430008120033","linkReferences":{}},"methodIdentifiers":{"APY()":"ef8bd305","Trinity()":"e6d97f17","admin()":"f851a440","calculateCumulativeRate()":"181ab6db","cds()":"b4eb10ce","cdsAddress()":"fe925884","depositToAaveProtocol()":"98afda43","depositToCompoundProtocol()":"b8f49090","depositTokens(uint128,uint64,uint8,uint64,uint256)":"5e34783e","getAPY()":"d2cbf7ad","getLTV()":"4ed2b8ac","getUSDValue()":"50593af7","initializeTreasury(address)":"3ed086f4","lastCDSPoolValue()":"84e92128","lastCumulativeRate()":"8e4db39a","lastEthVaultValue()":"99eb2f6c","lastEthprice()":"2feabb52","lastTotalCDSPool()":"e42f8090","liquidate(address,uint64,uint64)":"d5c28dba","noOfLiquidations()":"38a912d5","options()":"1069143a","owner()":"8da5cb5b","priceFeedAddress()":"e0abca0b","protocolToken()":"1a465fe1","renounceOwnership()":"715018a6","setAPY(uint8)":"73ca55a2","setAdmin(address)":"704b6c02","setLTV(uint8)":"aad2476d","setOptions(address)":"7d6dff7d","setWithdrawTimeLimit(uint64)":"868c10d2","totalAmintSupply()":"b3aebb9c","totalDiracSupply()":"606303f8","totalNormalizedAmount()":"6fdc5203","transferOwnership(address)":"f2fde38b","treasury()":"61d027b3","treasuryAddress()":"c5f956af","updateLastEthVaultValue(uint256)":"661b7d3e","withDraw(address,uint64,uint64,uint64,uint64)":"2bf16927","withdrawFromAaveProtocol(uint64)":"ec11dab2","withdrawFromCompoundProtocol(uint64)":"3f3006b4","withdrawTimeLimit()":"4f04a86b"},"id":2}