{"abi":[{"type":"function","name":"APY","inputs":[],"outputs":[{"name":"","type":"uint8","internalType":"uint8"}],"stateMutability":"view"},{"type":"function","name":"DOMAIN_SEPARATOR","inputs":[],"outputs":[{"name":"","type":"bytes32","internalType":"bytes32"}],"stateMutability":"view"},{"type":"function","name":"PERMIT_TYPEHASH","inputs":[],"outputs":[{"name":"","type":"bytes32","internalType":"bytes32"}],"stateMutability":"view"},{"type":"function","name":"UPGRADE_INTERFACE_VERSION","inputs":[],"outputs":[{"name":"","type":"string","internalType":"string"}],"stateMutability":"view"},{"type":"function","name":"abond","inputs":[],"outputs":[{"name":"","type":"address","internalType":"contract IABONDToken"}],"stateMutability":"view"},{"type":"function","name":"amint","inputs":[],"outputs":[{"name":"","type":"address","internalType":"contract IAMINT"}],"stateMutability":"view"},{"type":"function","name":"calculateCumulativeRate","inputs":[],"outputs":[{"name":"","type":"uint256","internalType":"uint256"}],"stateMutability":"nonpayable"},{"type":"function","name":"calculateRatio","inputs":[{"name":"_amount","type":"uint256","internalType":"uint256"},{"name":"currentEthPrice","type":"uint256","internalType":"uint256"}],"outputs":[{"name":"","type":"uint64","internalType":"uint64"}],"stateMutability":"nonpayable"},{"type":"function","name":"cds","inputs":[],"outputs":[{"name":"","type":"address","internalType":"contract CDSInterface"}],"stateMutability":"view"},{"type":"function","name":"cdsAddress","inputs":[],"outputs":[{"name":"","type":"address","internalType":"address"}],"stateMutability":"view"},{"type":"function","name":"depositTokens","inputs":[{"name":"_ethPrice","type":"uint128","internalType":"uint128"},{"name":"_depositTime","type":"uint64","internalType":"uint64"},{"name":"_strikePercent","type":"uint8","internalType":"enum IOptions.StrikePrice"},{"name":"_strikePrice","type":"uint64","internalType":"uint64"},{"name":"_volatility","type":"uint256","internalType":"uint256"}],"outputs":[],"stateMutability":"payable"},{"type":"function","name":"getLTV","inputs":[],"outputs":[{"name":"","type":"uint8","internalType":"uint8"}],"stateMutability":"view"},{"type":"function","name":"getLastEthVaultValue","inputs":[],"outputs":[{"name":"","type":"uint256","internalType":"uint256"}],"stateMutability":"view"},{"type":"function","name":"getUSDValue","inputs":[],"outputs":[{"name":"","type":"uint256","internalType":"uint256"}],"stateMutability":"view"},{"type":"function","name":"initialize","inputs":[{"name":"_tokenAddress","type":"address","internalType":"address"},{"name":"_cds","type":"address","internalType":"address"},{"name":"_abondToken","type":"address","internalType":"address"},{"name":"_multiSign","type":"address","internalType":"address"},{"name":"_priceFeedAddress","type":"address","internalType":"address"},{"name":"chainId","type":"uint64","internalType":"uint64"}],"outputs":[],"stateMutability":"nonpayable"},{"type":"function","name":"isContract","inputs":[{"name":"addr","type":"address","internalType":"address"}],"outputs":[{"name":"","type":"bool","internalType":"bool"}],"stateMutability":"view"},{"type":"function","name":"lastCDSPoolValue","inputs":[],"outputs":[{"name":"","type":"uint256","internalType":"uint256"}],"stateMutability":"view"},{"type":"function","name":"lastCumulativeRate","inputs":[],"outputs":[{"name":"","type":"uint256","internalType":"uint256"}],"stateMutability":"view"},{"type":"function","name":"lastEthVaultValue","inputs":[],"outputs":[{"name":"","type":"uint256","internalType":"uint256"}],"stateMutability":"view"},{"type":"function","name":"liquidate","inputs":[{"name":"_user","type":"address","internalType":"address"},{"name":"_index","type":"uint64","internalType":"uint64"},{"name":"currentEthPrice","type":"uint64","internalType":"uint64"}],"outputs":[],"stateMutability":"nonpayable"},{"type":"function","name":"multiSign","inputs":[],"outputs":[{"name":"","type":"address","internalType":"contract IMultiSign"}],"stateMutability":"view"},{"type":"function","name":"name","inputs":[],"outputs":[{"name":"","type":"string","internalType":"string"}],"stateMutability":"view"},{"type":"function","name":"noOfLiquidations","inputs":[],"outputs":[{"name":"","type":"uint128","internalType":"uint128"}],"stateMutability":"view"},{"type":"function","name":"options","inputs":[],"outputs":[{"name":"","type":"address","internalType":"contract IOptions"}],"stateMutability":"view"},{"type":"function","name":"owner","inputs":[],"outputs":[{"name":"","type":"address","internalType":"address"}],"stateMutability":"view"},{"type":"function","name":"priceFeedAddress","inputs":[],"outputs":[{"name":"","type":"address","internalType":"address"}],"stateMutability":"view"},{"type":"function","name":"proxiableUUID","inputs":[],"outputs":[{"name":"","type":"bytes32","internalType":"bytes32"}],"stateMutability":"view"},{"type":"function","name":"ratePerSec","inputs":[],"outputs":[{"name":"","type":"uint128","internalType":"uint128"}],"stateMutability":"view"},{"type":"function","name":"redeemYields","inputs":[{"name":"user","type":"address","internalType":"address"},{"name":"aBondAmount","type":"uint128","internalType":"uint128"}],"outputs":[{"name":"","type":"uint256","internalType":"uint256"}],"stateMutability":"nonpayable"},{"type":"function","name":"renounceOwnership","inputs":[],"outputs":[],"stateMutability":"nonpayable"},{"type":"function","name":"setAPR","inputs":[{"name":"_ratePerSec","type":"uint128","internalType":"uint128"}],"outputs":[],"stateMutability":"nonpayable"},{"type":"function","name":"setAdmin","inputs":[{"name":"_admin","type":"address","internalType":"address"}],"outputs":[],"stateMutability":"nonpayable"},{"type":"function","name":"setBondRatio","inputs":[{"name":"_bondRatio","type":"uint64","internalType":"uint64"}],"outputs":[],"stateMutability":"nonpayable"},{"type":"function","name":"setLTV","inputs":[{"name":"_LTV","type":"uint8","internalType":"uint8"}],"outputs":[],"stateMutability":"nonpayable"},{"type":"function","name":"setOptions","inputs":[{"name":"_options","type":"address","internalType":"address"}],"outputs":[],"stateMutability":"nonpayable"},{"type":"function","name":"setTreasury","inputs":[{"name":"_treasury","type":"address","internalType":"address"}],"outputs":[],"stateMutability":"nonpayable"},{"type":"function","name":"setWithdrawTimeLimit","inputs":[{"name":"_timeLimit","type":"uint64","internalType":"uint64"}],"outputs":[],"stateMutability":"nonpayable"},{"type":"function","name":"totalNormalizedAmount","inputs":[],"outputs":[{"name":"","type":"uint256","internalType":"uint256"}],"stateMutability":"view"},{"type":"function","name":"transferOwnership","inputs":[{"name":"newOwner","type":"address","internalType":"address"}],"outputs":[],"stateMutability":"nonpayable"},{"type":"function","name":"treasury","inputs":[],"outputs":[{"name":"","type":"address","internalType":"contract ITreasury"}],"stateMutability":"view"},{"type":"function","name":"treasuryAddress","inputs":[],"outputs":[{"name":"","type":"address","internalType":"address"}],"stateMutability":"view"},{"type":"function","name":"updateLastEthVaultValue","inputs":[{"name":"_amount","type":"uint256","internalType":"uint256"}],"outputs":[],"stateMutability":"nonpayable"},{"type":"function","name":"upgradeToAndCall","inputs":[{"name":"newImplementation","type":"address","internalType":"address"},{"name":"data","type":"bytes","internalType":"bytes"}],"outputs":[],"stateMutability":"payable"},{"type":"function","name":"version","inputs":[],"outputs":[{"name":"","type":"string","internalType":"string"}],"stateMutability":"view"},{"type":"function","name":"withDraw","inputs":[{"name":"_toAddress","type":"address","internalType":"address"},{"name":"_index","type":"uint64","internalType":"uint64"},{"name":"_ethPrice","type":"uint64","internalType":"uint64"},{"name":"_withdrawTime","type":"uint64","internalType":"uint64"}],"outputs":[],"stateMutability":"nonpayable"},{"type":"event","name":"Deposit","inputs":[{"name":"index","type":"uint64","indexed":false,"internalType":"uint64"},{"name":"depositedAmount","type":"uint256","indexed":false,"internalType":"uint256"},{"name":"borrowAmount","type":"uint256","indexed":false,"internalType":"uint256"},{"name":"normalizedAmount","type":"uint256","indexed":false,"internalType":"uint256"}],"anonymous":false},{"type":"event","name":"Initialized","inputs":[{"name":"version","type":"uint64","indexed":false,"internalType":"uint64"}],"anonymous":false},{"type":"event","name":"Liquidate","inputs":[{"name":"index","type":"uint64","indexed":false,"internalType":"uint64"},{"name":"liquidationAmount","type":"uint128","indexed":false,"internalType":"uint128"},{"name":"profits","type":"uint128","indexed":false,"internalType":"uint128"},{"name":"ethAmount","type":"uint128","indexed":false,"internalType":"uint128"},{"name":"availableLiquidationAmount","type":"uint256","indexed":false,"internalType":"uint256"}],"anonymous":false},{"type":"event","name":"OwnershipTransferred","inputs":[{"name":"previousOwner","type":"address","indexed":true,"internalType":"address"},{"name":"newOwner","type":"address","indexed":true,"internalType":"address"}],"anonymous":false},{"type":"event","name":"Upgraded","inputs":[{"name":"implementation","type":"address","indexed":true,"internalType":"address"}],"anonymous":false},{"type":"event","name":"Withdraw","inputs":[{"name":"borrowDebt","type":"uint256","indexed":false,"internalType":"uint256"},{"name":"withdrawAmount","type":"uint128","indexed":false,"internalType":"uint128"},{"name":"noOfAbond","type":"uint128","indexed":false,"internalType":"uint128"}],"anonymous":false},{"type":"error","name":"AddressEmptyCode","inputs":[{"name":"target","type":"address","internalType":"address"}]},{"type":"error","name":"Borrowing_DepositFailed","inputs":[]},{"type":"error","name":"Borrowing_GettingETHPriceFailed","inputs":[]},{"type":"error","name":"Borrowing_LiquidateBurnFailed","inputs":[]},{"type":"error","name":"Borrowing_LiquidateEthTransferToCdsFailed","inputs":[]},{"type":"error","name":"Borrowing_WithdrawAMINTTransferFailed","inputs":[]},{"type":"error","name":"Borrowing_WithdrawBurnFailed","inputs":[]},{"type":"error","name":"Borrowing_WithdrawEthTransferFailed","inputs":[]},{"type":"error","name":"Borrowing_abondMintFailed","inputs":[]},{"type":"error","name":"Borrowing_amintMintFailed","inputs":[]},{"type":"error","name":"ERC1967InvalidImplementation","inputs":[{"name":"implementation","type":"address","internalType":"address"}]},{"type":"error","name":"ERC1967NonPayable","inputs":[]},{"type":"error","name":"FailedInnerCall","inputs":[]},{"type":"error","name":"InvalidInitialization","inputs":[]},{"type":"error","name":"NotInitializing","inputs":[]},{"type":"error","name":"OwnableInvalidOwner","inputs":[{"name":"owner","type":"address","internalType":"address"}]},{"type":"error","name":"OwnableUnauthorizedAccount","inputs":[{"name":"account","type":"address","internalType":"address"}]},{"type":"error","name":"ReentrancyGuardReentrantCall","inputs":[]},{"type":"error","name":"UUPSUnauthorizedCallContext","inputs":[]},{"type":"error","name":"UUPSUnsupportedProxiableUUID","inputs":[{"name":"slot","type":"bytes32","internalType":"bytes32"}]}],"bytecode":{"object":"0x60a06040523060805234801561001457600080fd5b5060805161536461003e60003960008181613ea901528181613ed2015261401801526153646000f3fe6080604052600436106102725760003560e01c8063715018a61161014f578063ad3cb1cc116100c1578063d5c28dba1161007a578063d5c28dba146107d9578063e0abca0b146107f9578063ef8bd30514610819578063f0f442601461083a578063f2fde38b1461085a578063fe9258841461087a57600080fd5b8063ad3cb1cc146106f0578063ada0b0ed14610721578063b4eb10ce14610759578063c1bab32d14610779578063c5f956af14610799578063c8101461146107b957600080fd5b8063868c10d211610113578063868c10d2146106275780638da5cb5b146106475780638e4db39a1461068457806399eb2f6c1461069a5780639e6fe439146106b0578063aad2476d146106d057600080fd5b8063715018a6146105a7578063715cad17146105bc5780637d6dff7d146105d157806380ddebcb146105f157806384e921281461061157600080fd5b8063503e6322116101e85780635a606b41116101ac5780635a606b41146104fe5780635e34783e1461051e57806361d027b314610531578063661b7d3e146105515780636fdc520314610571578063704b6c021461058757600080fd5b8063503e63221461046757806350593af71461048757806350d7ede21461049c57806352d1902d146104bc57806354fd4d50146104d157600080fd5b806330adf81f1161023a57806330adf81f146103775780633644e515146103ab57806338a912d5146103c15780633b486a25146104005780634ed2b8ac146104275780634f1ef2861461045457600080fd5b806306fdde03146102775780631069143a146102c95780631627905514610301578063181ab6db14610332578063276eb3ac14610355575b600080fd5b34801561028357600080fd5b506102b36040518060400160405280601081526020016f20a6a4a72a1029ba30b13632b1b7b4b760811b81525081565b6040516102c091906147ee565b60405180910390f35b3480156102d557600080fd5b506004546102e9906001600160a01b031681565b6040516001600160a01b0390911681526020016102c0565b34801561030d57600080fd5b5061032261031c36600461483d565b3b151590565b60405190151581526020016102c0565b34801561033e57600080fd5b5061034761089a565b6040519081526020016102c0565b34801561036157600080fd5b5061037561037036600461486d565b6109c9565b005b34801561038357600080fd5b506103477ff48167ebcd5a3b4ca5517473931d60b9a75b03f56e5e6363767fa277375eb08081565b3480156103b757600080fd5b5061034760135481565b3480156103cd57600080fd5b506011546103e890600160801b90046001600160801b031681565b6040516001600160801b0390911681526020016102c0565b34801561040c57600080fd5b506012546103e890600160401b90046001600160801b031681565b34801561043357600080fd5b50600954600160a01b900460ff165b60405160ff90911681526020016102c0565b61037561046236600461491b565b610af8565b34801561047357600080fd5b506000546102e9906001600160a01b031681565b34801561049357600080fd5b50610347610b17565b3480156104a857600080fd5b506002546102e9906001600160a01b031681565b3480156104c857600080fd5b50610347610bad565b3480156104dd57600080fd5b506102b3604051806040016040528060018152602001603160f81b81525081565b34801561050a57600080fd5b506103756105193660046149c0565b610bca565b61037561052c366004614a4d565b610ea6565b34801561053d57600080fd5b506003546102e9906001600160a01b031681565b34801561055d57600080fd5b5061037561056c366004614ab5565b611683565b34801561057d57600080fd5b50610347600a5481565b34801561059357600080fd5b506103756105a236600461483d565b611765565b3480156105b357600080fd5b50610375611889565b3480156105c857600080fd5b5061034761189d565b3480156105dd57600080fd5b506103756105ec36600461483d565b6118b3565b3480156105fd57600080fd5b5061034761060c366004614ace565b611989565b34801561061d57600080fd5b50610347600e5481565b34801561063357600080fd5b5061037561064236600461486d565b611e2f565b34801561065357600080fd5b507f9016d09d72d40fdae2fd8ceac6b6234c7706214fd39c1cd1e609a0528c199300546001600160a01b03166102e9565b34801561069057600080fd5b5061034760105481565b3480156106a657600080fd5b50610347600d5481565b3480156106bc57600080fd5b506005546102e9906001600160a01b031681565b3480156106dc57600080fd5b506103756106eb366004614b05565b611f5a565b3480156106fc57600080fd5b506102b3604051806040016040528060058152602001640352e302e360dc1b81525081565b34801561072d57600080fd5b5061074161073c366004614b28565b612066565b6040516001600160401b0390911681526020016102c0565b34801561076557600080fd5b506001546102e9906001600160a01b031681565b34801561078557600080fd5b50610375610794366004614b4a565b61240d565b3480156107a557600080fd5b506007546102e9906001600160a01b031681565b3480156107c557600080fd5b506103756107d4366004614b67565b6125d7565b3480156107e557600080fd5b506103756107f4366004614bc1565b613127565b34801561080557600080fd5b50600b546102e9906001600160a01b031681565b34801561082557600080fd5b5060095461044290600160a81b900460ff1681565b34801561084657600080fd5b5061037561085536600461483d565b613c47565b34801561086657600080fd5b5061037561087536600461483d565b613da2565b34801561088657600080fd5b506008546102e9906001600160a01b031681565b600080600360009054906101000a90046001600160a01b03166001600160a01b03166345aeb0ce6040518163ffffffff1660e01b8152600401602060405180830381865afa1580156108f0573d6000803e3d6000fd5b505050506040513d601f19601f820116820180604052508101906109149190614c15565b90506000816001600160801b03166000036109475750601254600160401b90046001600160801b031660108190556109c3565b601154600090610960906001600160801b031642614c48565b6012546015546001600160801b03928316935061099192600160401b9092048216918491600160801b900416613de0565b60105461099e9190614c6f565b6015549092506109be90600160801b90046001600160801b031683614c9c565b601055505b92915050565b6009546001600160a01b031633146109fc5760405162461bcd60e51b81526004016109f390614cb0565b60405180910390fd5b806001600160401b0316600003610a555760405162461bcd60e51b815260206004820152601860248201527f426f6e6420526174696f2063616e2774206265207a65726f000000000000000060448201526064016109f3565b6005546001600160a01b031663fb8c927860086040518263ffffffff1660e01b8152600401610a849190614cf6565b6020604051808303816000875af1158015610aa3573d6000803e3d6000fd5b505050506040513d601f19601f82011682018060405250810190610ac79190614d20565b610ad057600080fd5b601280546001600160401b03909216600160c01b026001600160c01b03909216919091179055565b610b00613e9e565b610b0982613f43565b610b138282613f4b565b5050565b600b5460408051633fabe5a360e21b815290516000926001600160a01b0316918391839163feaf968c9160048083019260a09291908290030181865afa158015610b65573d6000803e3d6000fd5b505050506040513d601f19601f82011682018060405250810190610b899190614d55565b5050601454919350610ba69250506001600160801b031682614c9c565b9250505090565b6000610bb761400d565b5060008051602061530f83398151915290565b7ff0c57e16840df040f15088dc2f81fe391c3923bec73e23a9662efc9c229c6a008054600160401b810460ff1615906001600160401b0316600081158015610c0f5750825b90506000826001600160401b03166001148015610c2b5750303b155b905081158015610c39575080155b15610c575760405163f92ee8a960e01b815260040160405180910390fd5b845467ffffffffffffffff191660011785558315610c8157845460ff60401b1916600160401b1785555b610c8a33614056565b610c92614067565b600080546001600160a01b03199081166001600160a01b038e8116919091179092556001805482168d8416908117825560088054841690911790556002805483168d85161790556005805483168c8516179055600b8054909216928a16929092179055604080518082018252601081526f20a6a4a72a1029ba30b13632b1b7b4b760811b60209182015281518083018352928352603160f81b9281019290925280517f2010028ec63295361a00945794d4fce5b1046c419f60af448db7aaeb91e918f8928101929092527fb6715a9c407638b44c957bf0380ac52778ea690cd439f34f0943ed73c1effc28908201527fc89efdaa54c0f20c7adf612882df0950f5a951637e0307cdcb4c672f298b8bc660608201526001600160401b03871660808201523060a082015260c00160408051601f19818403018152919052805160209091012060135572989680000000000000000000000000000f4240601455612710676765c793fa10079d609b1b01601555601680546001600160801b03191664e8d4a51000179055610e23610b17565b600c80546001600160801b03199081166001600160801b039384161790915560118054909116429092169190911790558315610e9957845460ff60401b19168555604051600181527fc7f505b2f371ae2175ee4913f4499e1f2633a7b5936321eed1cdaeb6115181d29060200160405180910390a15b5050505050505050505050565b610eae61406f565b6005546040516326d2a55160e21b81526000916001600160a01b031690639b4a954490610edf908490600401614da5565b6020604051808303816000875af1158015610efe573d6000803e3d6000fd5b505050506040513d601f19601f82011682018060405250810190610f229190614d20565b15610f3f5760405162461bcd60e51b81526004016109f390614db9565b60003411610f8f5760405162461bcd60e51b815260206004820152601a60248201527f43616e6e6f74206465706f736974207a65726f20746f6b656e7300000000000060448201526064016109f3565b6000610fa434886001600160801b0316612066565b601554909150610fbe906001600160801b03166002614dd9565b6001600160801b0316816001600160401b031610156110185760405162461bcd60e51b81526020600482015260166024820152754e6f7420656e6f7567682066756e6420696e2043445360501b60448201526064016109f3565b60048054604051636916a18160e11b81526000926001600160a01b039092169163d22d430291611050918c91899134918d9101614e04565b6020604051808303816000875af115801561106f573d6000803e3d6000fd5b505050506040513d601f19601f820116820180604052508101906110939190614e41565b6015546016549192506000916110b5916001600160801b039081169116614dd9565b6001600160801b0316600960149054906101000a900460ff1660ff168a6001600160801b0316346110e69190614c6f565b6110f09190614c6f565b6110fa9190614c9c565b905060006111088383614e5a565b60035460405163dcb71f3f60e01b81523360048201526001600160801b038d1660248201526001600160401b038c1660448201529192506000916001600160a01b039091169063dcb71f3f903490606401604080518083038185885af1158015611176573d6000803e3d6000fd5b50505050506040513d601f19601f8201168201806040525081019061119b9190614e78565b60208101518151919250906111c357604051634fad3b0960e01b815260040160405180910390fd5b6002546001600160a01b0316639992f4b7338360646111e3346032614dd9565b6111ed9190614eb7565b600354604051637b85b73960e01b8152600160048201526001600160a01b0390911690637b85b73990602401602060405180830381865afa158015611236573d6000803e3d6000fd5b505050506040513d601f19601f8201168201806040525081019061125a9190614c15565b6040516001600160e01b031960e087901b1681526001600160a01b0390941660048501526001600160401b0390921660248401526001600160801b039081166044840152166064820152608401600060405180830381600087803b1580156112c157600080fd5b505af11580156112d5573d6000803e3d6000fd5b505050506112e533348e886140b9565b60015460405163b87c3dc360e01b81526001600160801b03871660048201526001600160a01b039091169063b87c3dc390602401600060405180830381600087803b15801561133357600080fd5b505af1158015611347573d6000803e3d6000fd5b5050600354604051634d5c56a560e01b81523360048201526001600160401b0385166024820152600093506001600160a01b039091169150634d5c56a59060440161022060405180830381865afa1580156113a6573d6000803e3d6000fd5b505050506040513d601f19601f820116820180604052508101906113ca9190614edd565b60208101516001600160801b0386811660a083015288166101c0820152600354604051632e449f1760e21b81523360048201526001602482015292935090916001600160a01b039091169063b9127c5c90604401600060405180830381600087803b15801561143857600080fd5b505af115801561144c573d6000803e3d6000fd5b5050600354604051630e6840d960e11b8152336004820152602481018990526001600160a01b039091169250631cd081b29150604401600060405180830381600087803b15801561149c57600080fd5b505af11580156114b0573d6000803e3d6000fd5b5050505060006114be61089a565b601180546001600160801b031916426001600160801b03908116919091179091556015549192506000918391600160801b909104166114fd818a614c6f565b6115079190614c6f565b6115119190614c9c565b6001600160801b03811660c08501529050611535346001600160401b038f16614dd9565b6001600160801b03166101a08401526003546040516308a29bdf60e31b81526001600160a01b0390911690634514def8906115789033908990889060040161504f565b600060405180830381600087803b15801561159257600080fd5b505af11580156115a6573d6000803e3d6000fd5b5050505080600a60008282546115bc91906151ec565b925050819055508f600c60006101000a8154816001600160801b0302191690836001600160801b031602179055507f3f7c04c09b19100060129256b7d82f055d0aa72cf17042fb3f2d41d1fffc02608534898460405161164094939291906001600160401b0394909416845260208401929092526040830152606082015260800190565b60405180910390a1505050505050505050505061167c60017f9b779b17422d0df92223018b32b4d1fa46e071723d6817e2486d003becc55f0055565b5050505050565b6007546001600160a01b031633146116f05760405162461bcd60e51b815260206004820152602a60248201527f46756e6374696f6e2073686f756c64206f6e6c792062652063616c6c656420626044820152697920747265617375727960b01b60648201526084016109f3565b8060000361174b5760405162461bcd60e51b815260206004820152602260248201527f4c61737420455448207661756c742076616c75652063616e2774206265207a65604482015261726f60f01b60648201526084016109f3565b80600d600082825461175d9190614e5a565b909155505050565b61176d614343565b6001600160a01b0381161580159061178957506001813b151514155b6117ec5760405162461bcd60e51b815260206004820152602e60248201527f41646d696e2063616e277420626520636f6e747261637420616464726573732060448201526d26207a65726f206164647265737360901b60648201526084016109f3565b6005546001600160a01b031663fb8c927860046040518263ffffffff1660e01b815260040161181b9190614cf6565b6020604051808303816000875af115801561183a573d6000803e3d6000fd5b505050506040513d601f19601f8201168201806040525081019061185e9190614d20565b61186757600080fd5b600980546001600160a01b0319166001600160a01b0392909216919091179055565b611891614343565b61189b600061439e565b565b60006064600d546118ae9190614c9c565b905090565b6009546001600160a01b031633146118dd5760405162461bcd60e51b81526004016109f390614cb0565b6001600160a01b038116158015906118f55750803b15155b6119675760405162461bcd60e51b815260206004820152603860248201527f4f7074696f6e73206d75737420626520636f6e7472616374206164647265737360448201527f20262063616e2774206265207a65726f2061646472657373000000000000000060648201526084016109f3565b600480546001600160a01b0319166001600160a01b0392909216919091179055565b600254604051630ecc535f60e01b81526001600160a01b0384811660048301526000928392911690630ecc535f906024016060604051808303816000875af11580156119d9573d6000803e3d6000fd5b505050506040513d601f19601f820116820180604052508101906119fd91906151ff565b905080604001516001600160801b0316836001600160801b03161115611a655760405162461bcd60e51b815260206004820152601c60248201527f596f7520646f6e2774206861766520656e6f7567682061426f6e64730000000060448201526064016109f3565b600254604080516318160ddd60e01b815290516000926001600160a01b0316916318160ddd9160048083019260209291908290030181865afa158015611aaf573d6000803e3d6000fd5b505050506040513d601f19601f82011682018060405250810190611ad39190614e41565b60155460035460408051633ebbb1ef60e01b81529051600160801b9093046001600160801b0316926001600160a01b0390921691633ebbb1ef916004808201926020929091908290030181865afa158015611b32573d6000803e3d6000fd5b505050506040513d601f19601f82011682018060405250810190611b569190614e41565b611b609190614c6f565b611b6a9190614c9c565b6015546001600160401b03919091169150600090600160801b90046001600160801b0316611b988684614dd9565b611ba29190614eb7565b60035460405163c2fcb15b60e01b81526001600160801b0392909216600483018190526000602484015292506001600160a01b03169063c2fcb15b90604401600060405180830381600087803b158015611bfb57600080fd5b505af1158015611c0f573d6000803e3d6000fd5b5050600354604051630adfd5a560e21b8152306004820152602481018590526001600160a01b039091169250632b7f56949150604401600060405180830381600087803b158015611c5f57600080fd5b505af1158015611c73573d6000803e3d6000fd5b5050600080546007546040516363a9f09360e11b81526001600160a01b0391821660048201526024810187905292945016915063c753e126906044016020604051808303816000875af1158015611cce573d6000803e3d6000fd5b505050506040513d601f19601f82011682018060405250810190611cf29190614d20565b905080611d12576040516303f7009160e51b815260040160405180910390fd5b600354604051631c93d87760e31b81526000916001600160a01b03169063e49ec3b890611d45908b908b90600401615267565b6020604051808303816000875af1158015611d64573d6000803e3d6000fd5b505050506040513d601f19601f82011682018060405250810190611d889190614e41565b6002546040516363a9f09360e11b81529192506000916001600160a01b039091169063c753e12690611dc09033908c90600401615267565b6020604051808303816000875af1158015611ddf573d6000803e3d6000fd5b505050506040513d601f19601f82011682018060405250810190611e039190614d20565b905080611e23576040516303f7009160e51b815260040160405180910390fd5b50979650505050505050565b6009546001600160a01b03163314611e595760405162461bcd60e51b81526004016109f390614cb0565b806001600160401b0316600003611ebc5760405162461bcd60e51b815260206004820152602160248201527f57697468647261772074696d65206c696d69742063616e2774206265207a65726044820152606f60f81b60648201526084016109f3565b6005546001600160a01b031663fb8c927860026040518263ffffffff1660e01b8152600401611eeb9190614cf6565b6020604051808303816000875af1158015611f0a573d6000803e3d6000fd5b505050506040513d601f19601f82011682018060405250810190611f2e9190614d20565b611f3757600080fd5b6012805467ffffffffffffffff19166001600160401b0392909216919091179055565b6009546001600160a01b03163314611f845760405162461bcd60e51b81526004016109f390614cb0565b8060ff16600003611fcb5760405162461bcd60e51b81526020600482015260116024820152704c54562063616e2774206265207a65726f60781b60448201526064016109f3565b6005546001600160a01b031663fb8c927860006040518263ffffffff1660e01b8152600401611ffa9190614cf6565b6020604051808303816000875af1158015612019573d6000803e3d6000fd5b505050506040513d601f19601f8201168201806040525081019061203d9190614d20565b61204657600080fd5b6009805460ff909216600160a01b0260ff60a01b19909216919091179055565b6000808260000361208a576040516315e73e9f60e01b815260040160405180910390fd5b600354604080516322d7586760e11b815290516000926001600160a01b0316916345aeb0ce9160048083019260209291908290030181865afa1580156120d4573d6000803e3d6000fd5b505050506040513d601f19601f820116820180604052508101906120f89190614c15565b600c549091506001600160801b031684111561213957600c546001600160801b0380831691612128911686614e5a565b6121329190614c6f565b9150612161565b600c546001600160801b038083169161215491879116614e5a565b61215e9190614c6f565b91505b600080826001600160801b03166000036122555761217f8688614c6f565b600d819055600154604080516315d9753160e11b815290519294506001600160a01b0390911691632bb2ea62916004808201926020929091908290030181865afa1580156121d1573d6000803e3d6000fd5b505050506040513d601f19601f820116820180604052508101906121f59190614c15565b6001600160801b03908116600f55600c541686106122235783600f5461221b91906151ec565b600e55612235565b83600f546122319190614e5a565b600e555b601654600e5461224e916001600160801b031690614c6f565b90506123d5565b61225f8688614c6f565b600d5461226c91906151ec565b915081600d819055506000600160009054906101000a90046001600160a01b03166001600160a01b0316632bb2ea626040518163ffffffff1660e01b8152600401602060405180830381865afa1580156122ca573d6000803e3d6000fd5b505050506040513d601f19601f820116820180604052508101906122ee9190614c15565b600c546001600160801b03918216925016871061235957600f5481111561233d5784600f548261231e9190614e5a565b600e5461232b91906151ec565b61233591906151ec565b600e556123b3565b8481600f5461234c9190614e5a565b600e5461232b9190614e5a565b600f548111156123895784600f54826123729190614e5a565b600e5461237f91906151ec565b6123359190614e5a565b8481600f546123989190614e5a565b600e546123a59190614e5a565b6123af9190614e5a565b600e555b600f819055601654600e546123d1916001600160801b031690614c6f565b9150505b60145460009083906123f790600160801b90046001600160801b031684614c6f565b6124019190614c9c565b98975050505050505050565b6005546040516326d2a55160e21b81526003916001600160a01b031690639b4a95449061243e908490600401614da5565b6020604051808303816000875af115801561245d573d6000803e3d6000fd5b505050506040513d601f19601f820116820180604052508101906124819190614d20565b1561249e5760405162461bcd60e51b81526004016109f390614db9565b6009546001600160a01b031633146124c85760405162461bcd60e51b81526004016109f390614cb0565b816001600160801b03166000036125215760405162461bcd60e51b815260206004820152601760248201527f526174652073686f756c64206e6f74206265207a65726f00000000000000000060448201526064016109f3565b6005546001600160a01b031663fb8c927860016040518263ffffffff1660e01b81526004016125509190614cf6565b6020604051808303816000875af115801561256f573d6000803e3d6000fd5b505050506040513d601f19601f820116820180604052508101906125939190614d20565b61259c57600080fd5b50601280546001600160801b03909216600160401b0277ffffffffffffffffffffffffffffffff000000000000000019909216919091179055565b6125df61406f565b6005546040516326d2a55160e21b81526001916001600160a01b031690639b4a954490612610908490600401614da5565b6020604051808303816000875af115801561262f573d6000803e3d6000fd5b505050506040513d601f19601f820116820180604052508101906126539190614d20565b156126705760405162461bcd60e51b81526004016109f390614db9565b6001600160a01b0385161580159061268c57506001853b151514155b6126f15760405162461bcd60e51b815260206004820152603060248201527f546f20616464726573732063616e6e6f742062652061207a65726f20616e642060448201526f636f6e7472616374206164647265737360801b60648201526084016109f3565b6127056000846001600160401b0316612066565b50600c80546001600160801b0319166001600160401b038516179055600354604051634d5c56a560e01b81526000916001600160a01b031690634d5c56a59061277190339089906004016001600160a01b039290921682526001600160401b0316602082015260400190565b61022060405180830381865afa15801561278f573d6000803e3d6000fd5b505050506040513d601f19601f820116820180604052508101906127b39190614edd565b60208101518151919250906001600160401b0380881691161061309e57806101200151156128235760405162461bcd60e51b815260206004820152601f60248201527f5573657220616d6f756e7420686173206265656e206c6971756964617465640060448201526064016109f3565b60e0810151151560000361304a57608081015160009061284587612710615289565b6001600160401b03166128589190614eb7565b9050611f40816001600160801b0316116128ad5760405162461bcd60e51b8152602060048201526016602482015275426f72726f77696e674865616c7468206973204c6f7760501b60448201526064016109f3565b60155460105460c08401516000926001600160801b03600160801b9091048116926128da92909116614c6f565b6128e49190614c9c565b601554909150600160801b90046001600160801b031661290261089a565b61290c9190614c9c565b601055601180546001600160801b031916426001600160801b03161790556000546040516370a0823160e01b815233600482015282916001600160a01b0316906370a0823190602401602060405180830381865afa158015612972573d6000803e3d6000fd5b505050506040513d601f19601f820116820180604052508101906129969190614e41565b10156129ef5760405162461bcd60e51b815260206004820152602260248201527f557365722062616c616e6365206973206c657373207468616e20726571756972604482015261195960f21b60648201526084016109f3565b6001600160401b038088166101408501819052600160e086015290871661016085015260165460208501516000926001600160801b039092169160649182908190612a3b906032614dd9565b612a459190614eb7565b612a50906050614dd9565b612a5a9190614eb7565b612a649190614dd9565b612a6e9190614eb7565b612a789190614eb7565b60035460405163c2fcb15b60e01b81526001600160801b0392909216600483018190526001602484015292506001600160a01b03169063c2fcb15b90604401600060405180830381600087803b158015612ad157600080fd5b505af1158015612ae5573d6000803e3d6000fd5b505050506000818560a001516001600160801b0316612b049190614e5a565b600080546040516363a9f09360e11b81523360048201526024810184905292935090916001600160a01b039091169063c753e126906044016020604051808303816000875af1158015612b5b573d6000803e3d6000fd5b505050506040513d601f19601f82011682018060405250810190612b7f9190614d20565b905080612b9f576040516303f7009160e51b815260040160405180910390fd5b600080546007546001600160a01b03918216916323b872dd91339116612bc5878a614e5a565b6040516001600160e01b031960e086901b1681526001600160a01b03938416600482015292909116602483015260448201526064016020604051808303816000875af1158015612c19573d6000803e3d6000fd5b505050506040513d601f19601f82011682018060405250810190612c3d9190614d20565b905080612c5d57604051637e74fa1d60e01b815260040160405180910390fd5b8660c001516001600160801b0316600a6000828254612c7c9190614e5a565b909155505060035460a08801516001600160a01b039091169063b9a221eb90612cae906001600160801b031688614e5a565b6040518263ffffffff1660e01b8152600401612ccc91815260200190565b600060405180830381600087803b158015612ce657600080fd5b505af1158015612cfa573d6000803e3d6000fd5b505050506000612d0b338e8761440f565b9050808861018001906001600160801b031690816001600160801b031681525050600360009054906101000a90046001600160a01b03166001600160a01b0316634514def8338f8b6040518463ffffffff1660e01b8152600401612d719392919061504f565b600060405180830381600087803b158015612d8b57600080fd5b505af1158015612d9f573d6000803e3d6000fd5b505050505050505050600080886001600160401b031685608001518660200151612dc99190614dd9565b612dd39190614eb7565b9050612710846001600160801b03161115612e90576004805460208701516101a0880151604051630e1fab4360e01b81526001600160801b03928316948101949094521660248301526001600160401b038b1660448301526001600160a01b031690630e1fab4390606401602060405180830381865afa158015612e5b573d6000803e3d6000fd5b505050506040513d601f19601f82011682018060405250810190612e7f9190614c15565b612e8990826152ac565b9150612f20565b836001600160801b031661271003612eaa57809150612f20565b836001600160801b0316611f40108015612ece5750612710846001600160801b0316105b15612edf5784602001519150612f20565b60405162461bcd60e51b8152602060048201526016602482015275426f72726f77696e674865616c7468206973204c6f7760501b60448201526064016109f3565b6064612f2d836032614dd9565b612f379190614eb7565b6003546040516315ee073360e11b81523360048201526001600160a01b038e811660248301526001600160801b03841660448301526001600160401b038e16606483015292945060009290911690632bdc0e66906084016020604051808303816000875af1158015612fad573d6000803e3d6000fd5b505050506040513d601f19601f82011682018060405250810190612fd19190614d20565b905080612ff157604051635e5e86d560e01b815260040160405180910390fd5b610180860151604080518681526001600160801b03868116602083015290921682820152517f2dc3b614e32706dcf24286e69af4692f4b2c24fc339d659e80b26d49379b69149181900360600190a150505050506130f5565b60405162461bcd60e51b815260206004820152602360248201527f5573657220616c726561647920776974686472617720656e7469726520616d6f6044820152621d5b9d60ea1b60648201526084016109f3565b60405162461bcd60e51b815260206004820152602660248201527f5573657220646f656e73277420686176652074686520706572746963756c6172604482015265040d2dcc8caf60d31b60648201526084016109f3565b50505061312160017f9b779b17422d0df92223018b32b4d1fa46e071723d6817e2486d003becc55f0055565b50505050565b6005546040516326d2a55160e21b81526002916001600160a01b031690639b4a954490613158908490600401614da5565b6020604051808303816000875af1158015613177573d6000803e3d6000fd5b505050506040513d601f19601f8201168201806040525081019061319b9190614d20565b156131b85760405162461bcd60e51b81526004016109f390614db9565b6009546001600160a01b031633146131e25760405162461bcd60e51b81526004016109f390614cb0565b6001600160a01b0384166132445760405162461bcd60e51b815260206004820152602360248201527f546f20616464726573732063616e6e6f742062652061207a65726f206164647260448201526265737360e81b60648201526084016109f3565b6001600160a01b03841633036132aa5760405162461bcd60e51b815260206004820152602560248201527f596f752063616e6e6f74206c697175696461746520796f7572206f776e206173604482015264736574732160d81b60648201526084016109f3565b60118054859185916010906132ce90600160801b90046001600160801b03166152cc565b82546001600160801b039182166101009390930a9283029190920219909116179055600354604051634d5c56a560e01b81526001600160a01b0384811660048301526001600160401b03841660248301526000921690634d5c56a59060440161022060405180830381865afa15801561334b573d6000803e3d6000fd5b505050506040513d601f19601f8201168201806040525081019061336f9190614edd565b602081015161012081015191925090156133c05760405162461bcd60e51b8152602060048201526012602482015271105b1c9958591e48131a5c5d5a59185d195960721b60448201526064016109f3565b600360009054906101000a90046001600160a01b03166001600160a01b03166390dea7e26040518163ffffffff1660e01b8152600401602060405180830381865afa158015613413573d6000803e3d6000fd5b505050506040513d601f19601f820116820180604052508101906134379190614e41565b600360009054906101000a90046001600160a01b03166001600160a01b0316639a52aed96040518163ffffffff1660e01b8152600401602060405180830381865afa15801561348a573d6000803e3d6000fd5b505050506040513d601f19601f820116820180604052508101906134ae9190614e41565b6134b89190614e5a565b81602001516001600160801b031611156135145760405162461bcd60e51b815260206004820152601c60248201527f4e6f7420656e6f7567682066756e647320696e2074726561737572790000000060448201526064016109f3565b608081015160009061352888612710615289565b6001600160401b031661353b9190614eb7565b9050611f40816001600160801b0316111561358f5760405162461bcd60e51b8152602060048201526014602482015273596f752063616e6e6f74206c697175696461746560601b60448201526064016109f3565b600161012083015260155460105460c08401516000926001600160801b03600160801b9091048116926135c492909116614c6f565b6135ce9190614c9c565b601554909150600160801b90046001600160801b03166135ec61089a565b6135f69190614c9c565b601055601654608084015160208501518392600092606492859284926001600160801b03909116916136289190614dd9565b6136329190614eb7565b61363c9190614eb7565b6136469190614c48565b613651906014614dd9565b61365b9190614eb7565b9050600081836064601660009054906101000a90046001600160801b031689608001518a6020015161368d9190614dd9565b6136979190614eb7565b6136a19190614eb7565b6136ab9190614c48565b6136b59190614c48565b905060006136c383856152ac565b6040805160808101825260008082526020820181905291810182905260608101919091529091506040518060800160405280836001600160801b03168152602001846001600160801b0316815260200189602001516001600160801b03168152602001600160009054906101000a90046001600160a01b03166001600160a01b031663dc91e7526040518163ffffffff1660e01b81526004016020604051808303816000875af115801561377b573d6000803e3d6000fd5b505050506040513d601f19601f8201168201806040525081019061379f9190614e41565b90526001546011546040805163b3013d4d60e01b8152600160801b9092046001600160801b03908116600484015284518116602484015260208501518116604484015290840151166064820152606083015160848201529192506001600160a01b03169063b3013d4d9060a401600060405180830381600087803b15801561382657600080fd5b505af115801561383a573d6000803e3d6000fd5b505060015460405163dc55b19360e01b81526001600160801b03861660048201526001600160a01b03909116925063dc55b1939150602401600060405180830381600087803b15801561388c57600080fd5b505af11580156138a0573d6000803e3d6000fd5b5050600154604051634baf580d60e01b81526001600160801b03861660048201526001600160a01b039091169250634baf580d9150602401600060405180830381600087803b1580156138f257600080fd5b505af1158015613906573d6000803e3d6000fd5b5050600154604051634cae95d360e01b81526001600160801b03861660048201526001600160a01b039091169250634cae95d39150602401600060405180830381600087803b15801561395857600080fd5b505af115801561396c573d6000803e3d6000fd5b505060035460208b015160405163cd0220c960e01b81526001600160801b039091166004820152600160248201526001600160a01b03909116925063cd0220c99150604401600060405180830381600087803b1580156139cb57600080fd5b505af11580156139df573d6000803e3d6000fd5b50506003546040516308a29bdf60e31b81526001600160a01b039091169250634514def89150613a17908e908e908d9060040161504f565b600060405180830381600087803b158015613a3157600080fd5b505af1158015613a45573d6000803e3d6000fd5b505060035460a08b0151604051630adfd5a560e21b81526001600160a01b039092169350632b7f56949250613a7f91309190600401615267565b600060405180830381600087803b158015613a9957600080fd5b505af1158015613aad573d6000803e3d6000fd5b50506000805460075460a08d01516040516363a9f09360e11b81529395506001600160a01b03928316945063c753e12693613aee9390921691600401615267565b6020604051808303816000875af1158015613b0d573d6000803e3d6000fd5b505050506040513d601f19601f82011682018060405250810190613b319190614d20565b905080613b5157604051632105f02360e11b815260040160405180910390fd5b7f7a965b40f4fbf2d5cd719f1d8acff4dd4de67b89356211ec5a7e474d8f861db08b84868c60200151600160009054906101000a90046001600160a01b03166001600160a01b031663dc91e7526040518163ffffffff1660e01b81526004016020604051808303816000875af1158015613bcf573d6000803e3d6000fd5b505050506040513d601f19601f82011682018060405250810190613bf39190614e41565b604080516001600160401b039690961686526001600160801b03948516602087015292841685840152921660608401526080830191909152519081900360a00190a150505050505050505050505050505050565b6009546001600160a01b03163314613c715760405162461bcd60e51b81526004016109f390614cb0565b6001600160a01b03811615801590613c895750803b15155b613cfb5760405162461bcd60e51b815260206004820152603960248201527f5472656173757279206d75737420626520636f6e74726163742061646472657360448201527f7320262063616e2774206265207a65726f20616464726573730000000000000060648201526084016109f3565b6005546001600160a01b031663fb8c927860066040518263ffffffff1660e01b8152600401613d2a9190614cf6565b6020604051808303816000875af1158015613d49573d6000803e3d6000fd5b505050506040513d601f19601f82011682018060405250810190613d6d9190614d20565b613d7657600080fd5b600380546001600160a01b039092166001600160a01b0319928316811790915560078054909216179055565b613daa614343565b6001600160a01b038116613dd457604051631e4fbdf760e01b8152600060048201526024016109f3565b613ddd8161439e565b50565b6000838015613e8057600184168015613dfb57859250613dff565b8392505b50600283046002850494505b8415613e7a578586028687820414613e2257600080fd5b81810181811015613e3257600080fd5b8590049650506001851615613e6f578583028387820414158715151615613e5857600080fd5b81810181811015613e6857600080fd5b8590049350505b600285049450613e0b565b50613e96565b838015613e905760009250613e94565b8392505b505b509392505050565b306001600160a01b037f0000000000000000000000000000000000000000000000000000000000000000161480613f2557507f00000000000000000000000000000000000000000000000000000000000000006001600160a01b0316613f1960008051602061530f833981519152546001600160a01b031690565b6001600160a01b031614155b1561189b5760405163703e46dd60e11b815260040160405180910390fd5b613ddd614343565b816001600160a01b03166352d1902d6040518163ffffffff1660e01b8152600401602060405180830381865afa925050508015613fa5575060408051601f3d908101601f19168201909252613fa291810190614e41565b60015b613fcd57604051634c9c8ce360e01b81526001600160a01b03831660048201526024016109f3565b60008051602061530f8339815191528114613ffe57604051632a87526960e21b8152600481018290526024016109f3565b61400883836145a4565b505050565b306001600160a01b037f0000000000000000000000000000000000000000000000000000000000000000161461189b5760405163703e46dd60e11b815260040160405180910390fd5b61405e6145fa565b613ddd81614643565b61189b6145fa565b7f9b779b17422d0df92223018b32b4d1fa46e071723d6817e2486d003becc55f008054600119016140b357604051633ee5aeb560e01b815260040160405180910390fd5b60029055565b6001600160a01b03841661410f5760405162461bcd60e51b815260206004820152601f60248201527f426f72726f7765722063616e6e6f74206265207a65726f20616464726573730060448201526064016109f3565b600954600160a01b900460ff166000036141915760405162461bcd60e51b815260206004820152603860248201527f4c5456206d7573742062652073657420746f206e6f6e2d7a65726f2076616c7560448201527f65206265666f72652070726f766964696e67206c6f616e73000000000000000060648201526084016109f3565b6016546000906001600160801b03908116906141af90851686614c6f565b6141b99190614c9c565b6015546009549192506000916001600160801b03909116906141e590600160a01b900460ff1684614c6f565b6141ef9190614c9c565b60008054919250906001600160a01b03166340c10f19886142108786614e5a565b6040516001600160e01b031960e085901b1681526001600160a01b03909216600483015260248201526044016020604051808303816000875af115801561425b573d6000803e3d6000fd5b505050506040513d601f19601f8201168201806040525081019061427f9190614d20565b90508061429f57604051630a9b6d3960e41b815260040160405180910390fd5b600080546007546040516340c10f1960e01b81526001600160a01b039182166004820152602481018890529116906340c10f19906044016020604051808303816000875af11580156142f5573d6000803e3d6000fd5b505050506040513d601f19601f820116820180604052508101906143199190614d20565b90508061433957604051630a9b6d3960e41b815260040160405180910390fd5b5050505050505050565b336143757f9016d09d72d40fdae2fd8ceac6b6234c7706214fd39c1cd1e609a0528c199300546001600160a01b031690565b6001600160a01b03161461189b5760405163118cdaa760e01b81523360048201526024016109f3565b7f9016d09d72d40fdae2fd8ceac6b6234c7706214fd39c1cd1e609a0528c19930080546001600160a01b031981166001600160a01b03848116918217845560405192169182907f8be0079c531659141344cd1fd0a4f28419497f9722a3daafe3b4186f6b6457e090600090a3505050565b60006001600160a01b0384166144675760405162461bcd60e51b815260206004820152601f60248201527f426f72726f7765722063616e6e6f74206265207a65726f20616464726573730060448201526064016109f3565b816000036144ae5760405162461bcd60e51b8152602060048201526014602482015273416d6f756e742063616e2774206265207a65726f60601b60448201526064016109f3565b601254601654600091600160c01b90046001600160401b0316906144db906001600160801b031685614dd9565b6144e59190614eb7565b600254604051631ff9eb7f60e21b81526001600160a01b0388811660048301526001600160401b03881660248301526001600160801b038416604483015292935060009290911690637fe7adfc906064016020604051808303816000875af1158015614555573d6000803e3d6000fd5b505050506040513d601f19601f820116820180604052508101906145799190614d20565b905080614599576040516328eca99f60e21b815260040160405180910390fd5b5090505b9392505050565b6145ad8261464b565b6040516001600160a01b038316907fbc7cd75a20ee27fd9adebab32041f755214dbc6bffa90cc0225b39da2e5c2d3b90600090a28051156145f25761400882826146b0565b610b13614726565b7ff0c57e16840df040f15088dc2f81fe391c3923bec73e23a9662efc9c229c6a0054600160401b900460ff1661189b57604051631afcd79f60e31b815260040160405180910390fd5b613daa6145fa565b806001600160a01b03163b60000361468157604051634c9c8ce360e01b81526001600160a01b03821660048201526024016109f3565b60008051602061530f83398151915280546001600160a01b0319166001600160a01b0392909216919091179055565b6060600080846001600160a01b0316846040516146cd91906152f2565b600060405180830381855af49150503d8060008114614708576040519150601f19603f3d011682016040523d82523d6000602084013e61470d565b606091505b509150915061471d858383614745565b95945050505050565b341561189b5760405163b398979f60e01b815260040160405180910390fd5b60608261475a57614755826147a1565b61459d565b815115801561477157506001600160a01b0384163b155b1561479a57604051639996b31560e01b81526001600160a01b03851660048201526024016109f3565b508061459d565b8051156147b15780518082602001fd5b604051630a12f52160e11b815260040160405180910390fd5b60005b838110156147e55781810151838201526020016147cd565b50506000910152565b602081526000825180602084015261480d8160408501602087016147ca565b601f01601f19169190910160400192915050565b80356001600160a01b038116811461483857600080fd5b919050565b60006020828403121561484f57600080fd5b61459d82614821565b6001600160401b0381168114613ddd57600080fd5b60006020828403121561487f57600080fd5b813561459d81614858565b634e487b7160e01b600052604160045260246000fd5b604080519081016001600160401b03811182821017156148c2576148c261488a565b60405290565b60405161020081016001600160401b03811182821017156148c2576148c261488a565b604051601f8201601f191681016001600160401b03811182821017156149135761491361488a565b604052919050565b6000806040838503121561492e57600080fd5b61493783614821565b91506020808401356001600160401b038082111561495457600080fd5b818601915086601f83011261496857600080fd5b81358181111561497a5761497a61488a565b61498c601f8201601f191685016148eb565b915080825287848285010111156149a257600080fd5b80848401858401376000848284010152508093505050509250929050565b60008060008060008060c087890312156149d957600080fd5b6149e287614821565b95506149f060208801614821565b94506149fe60408801614821565b9350614a0c60608801614821565b9250614a1a60808801614821565b915060a0870135614a2a81614858565b809150509295509295509295565b6001600160801b0381168114613ddd57600080fd5b600080600080600060a08688031215614a6557600080fd5b8535614a7081614a38565b94506020860135614a8081614858565b9350604086013560058110614a9457600080fd5b92506060860135614aa481614858565b949793965091946080013592915050565b600060208284031215614ac757600080fd5b5035919050565b60008060408385031215614ae157600080fd5b614aea83614821565b91506020830135614afa81614a38565b809150509250929050565b600060208284031215614b1757600080fd5b813560ff8116811461459d57600080fd5b60008060408385031215614b3b57600080fd5b50508035926020909101359150565b600060208284031215614b5c57600080fd5b813561459d81614a38565b60008060008060808587031215614b7d57600080fd5b614b8685614821565b93506020850135614b9681614858565b92506040850135614ba681614858565b91506060850135614bb681614858565b939692955090935050565b600080600060608486031215614bd657600080fd5b614bdf84614821565b92506020840135614bef81614858565b91506040840135614bff81614858565b809150509250925092565b805161483881614a38565b600060208284031215614c2757600080fd5b815161459d81614a38565b634e487b7160e01b600052601160045260246000fd5b6001600160801b03828116828216039080821115614c6857614c68614c32565b5092915050565b80820281158282048414176109c3576109c3614c32565b634e487b7160e01b600052601260045260246000fd5b600082614cab57614cab614c86565b500490565b60208082526016908201527521b0b63632b91034b9903737ba1030b71030b236b4b760511b604082015260600190565b634e487b7160e01b600052602160045260246000fd5b60208101600b8310614d0a57614d0a614ce0565b91905290565b8051801515811461483857600080fd5b600060208284031215614d3257600080fd5b61459d82614d10565b805169ffffffffffffffffffff8116811461483857600080fd5b600080600080600060a08688031215614d6d57600080fd5b614d7686614d3b565b9450602086015193506040860151925060608601519150614d9960808701614d3b565b90509295509295909350565b6020810160078310614d0a57614d0a614ce0565b60208082526006908201526514185d5cd95960d21b604082015260600190565b6001600160801b03818116838216028082169190828114614dfc57614dfc614c32565b505092915050565b6001600160801b038516815260208101849052604081018390526080810160058310614e3257614e32614ce0565b82606083015295945050505050565b600060208284031215614e5357600080fd5b5051919050565b818103818111156109c3576109c3614c32565b805161483881614858565b600060408284031215614e8a57600080fd5b614e926148a0565b614e9b83614d10565b81526020830151614eab81614858565b60208201529392505050565b60006001600160801b0380841680614ed157614ed1614c86565b92169190910492915050565b6000818303610220811215614ef157600080fd5b614ef96148a0565b8351614f0481614858565b8152610200601f198301811315614f1a57600080fd5b614f226148c8565b9250614f3060208601614e6d565b8352614f3e60408601614c0a565b6020840152614f4f60608601614c0a565b6040840152614f6060808601614e6d565b6060840152614f7160a08601614c0a565b6080840152614f8260c08601614c0a565b60a0840152614f9360e08601614c0a565b60c0840152610100614fa6818701614d10565b60e0850152610120614fb9818801614c0a565b828601526101409150614fcd828801614d10565b90850152610160614fdf878201614e6d565b828601526101809150614ff3828801614e6d565b908501526101a0615005878201614c0a565b828601526101c09150615019828801614c0a565b908501526101e061502b878201614c0a565b8286015261503a838801614e6d565b90850152505060208101919091529392505050565b6001600160a01b03841681526001600160401b0383811660208301528251166040820152610240810160208301516001600160801b03811660608401525060408301516001600160801b03811660808401525060608301516001600160401b03811660a08401525060808301516001600160801b03811660c08401525060a08301516001600160801b03811660e08401525060c08301516101006150fd818501836001600160801b03169052565b60e085015191506101206151148186018415159052565b90850151915061014090615132858301846001600160801b03169052565b85015191506101606151478582018415159052565b90850151915061018090615165858301846001600160401b03169052565b85015191506101a0615181858201846001600160401b03169052565b9085015191506101c09061519f858301846001600160801b03169052565b85015191506101e06151bb858201846001600160801b03169052565b908501516001600160801b03166102008501528401516001600160401b038116610220850152905050949350505050565b808201808211156109c3576109c3614c32565b60006060828403121561521157600080fd5b604051606081018181106001600160401b03821117156152335761523361488a565b60405282518152602083015161524881614a38565b6020820152604083015161525b81614a38565b60408201529392505050565b6001600160a01b039290921682526001600160801b0316602082015260400190565b6001600160401b03818116838216028082169190828114614dfc57614dfc614c32565b6001600160801b03818116838216019080821115614c6857614c68614c32565b60006001600160801b038083168181036152e8576152e8614c32565b6001019392505050565b600082516153048184602087016147ca565b919091019291505056fe360894a13ba1a3210667c828492db98dca3e2076cc3735a920a3ca505d382bbca26469706673582212203e952122c0ff939773af6e18db6181d7a493f5b0c7618db3e5068632363a6e0664736f6c63430008140033","linkReferences":{}},"methodIdentifiers":{"APY()":"ef8bd305","DOMAIN_SEPARATOR()":"3644e515","PERMIT_TYPEHASH()":"30adf81f","UPGRADE_INTERFACE_VERSION()":"ad3cb1cc","abond()":"50d7ede2","amint()":"503e6322","calculateCumulativeRate()":"181ab6db","calculateRatio(uint256,uint256)":"ada0b0ed","cds()":"b4eb10ce","cdsAddress()":"fe925884","depositTokens(uint128,uint64,uint8,uint64,uint256)":"5e34783e","getLTV()":"4ed2b8ac","getLastEthVaultValue()":"715cad17","getUSDValue()":"50593af7","initialize(address,address,address,address,address,uint64)":"5a606b41","isContract(address)":"16279055","lastCDSPoolValue()":"84e92128","lastCumulativeRate()":"8e4db39a","lastEthVaultValue()":"99eb2f6c","liquidate(address,uint64,uint64)":"d5c28dba","multiSign()":"9e6fe439","name()":"06fdde03","noOfLiquidations()":"38a912d5","options()":"1069143a","owner()":"8da5cb5b","priceFeedAddress()":"e0abca0b","proxiableUUID()":"52d1902d","ratePerSec()":"3b486a25","redeemYields(address,uint128)":"80ddebcb","renounceOwnership()":"715018a6","setAPR(uint128)":"c1bab32d","setAdmin(address)":"704b6c02","setBondRatio(uint64)":"276eb3ac","setLTV(uint8)":"aad2476d","setOptions(address)":"7d6dff7d","setTreasury(address)":"f0f44260","setWithdrawTimeLimit(uint64)":"868c10d2","totalNormalizedAmount()":"6fdc5203","transferOwnership(address)":"f2fde38b","treasury()":"61d027b3","treasuryAddress()":"c5f956af","updateLastEthVaultValue(uint256)":"661b7d3e","upgradeToAndCall(address,bytes)":"4f1ef286","version()":"54fd4d50","withDraw(address,uint64,uint64,uint64)":"c8101461"},"id":4}