{"abi":[{"type":"function","name":"SEND","inputs":[],"outputs":[{"name":"","type":"uint16","internalType":"uint16"}],"stateMutability":"view"},{"type":"function","name":"SEND_AND_CALL","inputs":[],"outputs":[{"name":"","type":"uint16","internalType":"uint16"}],"stateMutability":"view"},{"type":"function","name":"UPGRADE_INTERFACE_VERSION","inputs":[],"outputs":[{"name":"","type":"string","internalType":"string"}],"stateMutability":"view"},{"type":"function","name":"__OAppOptionsType3_init","inputs":[{"name":"_owner","type":"address","internalType":"address"}],"outputs":[],"stateMutability":"nonpayable"},{"type":"function","name":"__OAppPreCrimeSimulator_init","inputs":[{"name":"_owner","type":"address","internalType":"address"}],"outputs":[],"stateMutability":"nonpayable"},{"type":"function","name":"__OFTCore_init","inputs":[{"name":"_localDecimals","type":"uint8","internalType":"uint8"},{"name":"_endpoint","type":"address","internalType":"address"},{"name":"_delegate","type":"address","internalType":"address"}],"outputs":[],"stateMutability":"nonpayable"},{"type":"function","name":"__OFT_init","inputs":[{"name":"_name","type":"string","internalType":"string"},{"name":"_symbol","type":"string","internalType":"string"},{"name":"_lzEndpoint","type":"address","internalType":"address"},{"name":"_delegate","type":"address","internalType":"address"}],"outputs":[],"stateMutability":"nonpayable"},{"type":"function","name":"allowInitializePath","inputs":[{"name":"origin","type":"tuple","internalType":"struct Origin","components":[{"name":"srcEid","type":"uint32","internalType":"uint32"},{"name":"sender","type":"bytes32","internalType":"bytes32"},{"name":"nonce","type":"uint64","internalType":"uint64"}]}],"outputs":[{"name":"","type":"bool","internalType":"bool"}],"stateMutability":"view"},{"type":"function","name":"allowance","inputs":[{"name":"owner","type":"address","internalType":"address"},{"name":"spender","type":"address","internalType":"address"}],"outputs":[{"name":"","type":"uint256","internalType":"uint256"}],"stateMutability":"view"},{"type":"function","name":"approvalRequired","inputs":[],"outputs":[{"name":"","type":"bool","internalType":"bool"}],"stateMutability":"pure"},{"type":"function","name":"approve","inputs":[{"name":"spender","type":"address","internalType":"address"},{"name":"value","type":"uint256","internalType":"uint256"}],"outputs":[{"name":"","type":"bool","internalType":"bool"}],"stateMutability":"nonpayable"},{"type":"function","name":"balanceOf","inputs":[{"name":"account","type":"address","internalType":"address"}],"outputs":[{"name":"","type":"uint256","internalType":"uint256"}],"stateMutability":"view"},{"type":"function","name":"burn","inputs":[{"name":"value","type":"uint256","internalType":"uint256"}],"outputs":[],"stateMutability":"nonpayable"},{"type":"function","name":"burnFrom","inputs":[{"name":"account","type":"address","internalType":"address"},{"name":"value","type":"uint256","internalType":"uint256"}],"outputs":[],"stateMutability":"nonpayable"},{"type":"function","name":"burnFromUser","inputs":[{"name":"to","type":"address","internalType":"address"},{"name":"amount","type":"uint256","internalType":"uint256"}],"outputs":[{"name":"","type":"bool","internalType":"bool"}],"stateMutability":"nonpayable"},{"type":"function","name":"combineOptions","inputs":[{"name":"_eid","type":"uint32","internalType":"uint32"},{"name":"_msgType","type":"uint16","internalType":"uint16"},{"name":"_extraOptions","type":"bytes","internalType":"bytes"}],"outputs":[{"name":"","type":"bytes","internalType":"bytes"}],"stateMutability":"view"},{"type":"function","name":"decimalConversionRate","inputs":[],"outputs":[{"name":"","type":"uint256","internalType":"uint256"}],"stateMutability":"view"},{"type":"function","name":"decimals","inputs":[],"outputs":[{"name":"","type":"uint8","internalType":"uint8"}],"stateMutability":"pure"},{"type":"function","name":"endpoint","inputs":[],"outputs":[{"name":"","type":"address","internalType":"contract ILayerZeroEndpointV2"}],"stateMutability":"view"},{"type":"function","name":"enforcedOptions","inputs":[{"name":"eid","type":"uint32","internalType":"uint32"},{"name":"msgType","type":"uint16","internalType":"uint16"}],"outputs":[{"name":"enforcedOption","type":"bytes","internalType":"bytes"}],"stateMutability":"view"},{"type":"function","name":"initialize","inputs":[{"name":"_lzEndpoint","type":"address","internalType":"address"},{"name":"_delegate","type":"address","internalType":"address"}],"outputs":[],"stateMutability":"nonpayable"},{"type":"function","name":"isComposeMsgSender","inputs":[{"name":"","type":"tuple","internalType":"struct Origin","components":[{"name":"srcEid","type":"uint32","internalType":"uint32"},{"name":"sender","type":"bytes32","internalType":"bytes32"},{"name":"nonce","type":"uint64","internalType":"uint64"}]},{"name":"","type":"bytes","internalType":"bytes"},{"name":"_sender","type":"address","internalType":"address"}],"outputs":[{"name":"","type":"bool","internalType":"bool"}],"stateMutability":"view"},{"type":"function","name":"isPeer","inputs":[{"name":"_eid","type":"uint32","internalType":"uint32"},{"name":"_peer","type":"bytes32","internalType":"bytes32"}],"outputs":[{"name":"","type":"bool","internalType":"bool"}],"stateMutability":"view"},{"type":"function","name":"lzReceive","inputs":[{"name":"_origin","type":"tuple","internalType":"struct Origin","components":[{"name":"srcEid","type":"uint32","internalType":"uint32"},{"name":"sender","type":"bytes32","internalType":"bytes32"},{"name":"nonce","type":"uint64","internalType":"uint64"}]},{"name":"_guid","type":"bytes32","internalType":"bytes32"},{"name":"_message","type":"bytes","internalType":"bytes"},{"name":"_executor","type":"address","internalType":"address"},{"name":"_extraData","type":"bytes","internalType":"bytes"}],"outputs":[],"stateMutability":"payable"},{"type":"function","name":"lzReceiveAndRevert","inputs":[{"name":"_packets","type":"tuple[]","internalType":"struct InboundPacket[]","components":[{"name":"origin","type":"tuple","internalType":"struct Origin","components":[{"name":"srcEid","type":"uint32","internalType":"uint32"},{"name":"sender","type":"bytes32","internalType":"bytes32"},{"name":"nonce","type":"uint64","internalType":"uint64"}]},{"name":"dstEid","type":"uint32","internalType":"uint32"},{"name":"receiver","type":"address","internalType":"address"},{"name":"guid","type":"bytes32","internalType":"bytes32"},{"name":"value","type":"uint256","internalType":"uint256"},{"name":"executor","type":"address","internalType":"address"},{"name":"message","type":"bytes","internalType":"bytes"},{"name":"extraData","type":"bytes","internalType":"bytes"}]}],"outputs":[],"stateMutability":"payable"},{"type":"function","name":"lzReceiveSimulate","inputs":[{"name":"_origin","type":"tuple","internalType":"struct Origin","components":[{"name":"srcEid","type":"uint32","internalType":"uint32"},{"name":"sender","type":"bytes32","internalType":"bytes32"},{"name":"nonce","type":"uint64","internalType":"uint64"}]},{"name":"_guid","type":"bytes32","internalType":"bytes32"},{"name":"_message","type":"bytes","internalType":"bytes"},{"name":"_executor","type":"address","internalType":"address"},{"name":"_extraData","type":"bytes","internalType":"bytes"}],"outputs":[],"stateMutability":"payable"},{"type":"function","name":"mint","inputs":[{"name":"to","type":"address","internalType":"address"},{"name":"amount","type":"uint256","internalType":"uint256"}],"outputs":[{"name":"","type":"bool","internalType":"bool"}],"stateMutability":"nonpayable"},{"type":"function","name":"msgInspector","inputs":[],"outputs":[{"name":"","type":"address","internalType":"address"}],"stateMutability":"view"},{"type":"function","name":"name","inputs":[],"outputs":[{"name":"","type":"string","internalType":"string"}],"stateMutability":"view"},{"type":"function","name":"nextNonce","inputs":[{"name":"","type":"uint32","internalType":"uint32"},{"name":"","type":"bytes32","internalType":"bytes32"}],"outputs":[{"name":"nonce","type":"uint64","internalType":"uint64"}],"stateMutability":"view"},{"type":"function","name":"oApp","inputs":[],"outputs":[{"name":"","type":"address","internalType":"address"}],"stateMutability":"view"},{"type":"function","name":"oAppVersion","inputs":[],"outputs":[{"name":"senderVersion","type":"uint64","internalType":"uint64"},{"name":"receiverVersion","type":"uint64","internalType":"uint64"}],"stateMutability":"pure"},{"type":"function","name":"oftVersion","inputs":[],"outputs":[{"name":"interfaceId","type":"bytes4","internalType":"bytes4"},{"name":"version","type":"uint64","internalType":"uint64"}],"stateMutability":"pure"},{"type":"function","name":"owner","inputs":[],"outputs":[{"name":"","type":"address","internalType":"address"}],"stateMutability":"view"},{"type":"function","name":"pause","inputs":[],"outputs":[],"stateMutability":"nonpayable"},{"type":"function","name":"paused","inputs":[],"outputs":[{"name":"","type":"bool","internalType":"bool"}],"stateMutability":"view"},{"type":"function","name":"peers","inputs":[{"name":"eid","type":"uint32","internalType":"uint32"}],"outputs":[{"name":"peer","type":"bytes32","internalType":"bytes32"}],"stateMutability":"view"},{"type":"function","name":"preCrime","inputs":[],"outputs":[{"name":"","type":"address","internalType":"address"}],"stateMutability":"view"},{"type":"function","name":"proxiableUUID","inputs":[],"outputs":[{"name":"","type":"bytes32","internalType":"bytes32"}],"stateMutability":"view"},{"type":"function","name":"quoteOFT","inputs":[{"name":"_sendParam","type":"tuple","internalType":"struct SendParam","components":[{"name":"dstEid","type":"uint32","internalType":"uint32"},{"name":"to","type":"bytes32","internalType":"bytes32"},{"name":"amountLD","type":"uint256","internalType":"uint256"},{"name":"minAmountLD","type":"uint256","internalType":"uint256"},{"name":"extraOptions","type":"bytes","internalType":"bytes"},{"name":"composeMsg","type":"bytes","internalType":"bytes"},{"name":"oftCmd","type":"bytes","internalType":"bytes"}]}],"outputs":[{"name":"oftLimit","type":"tuple","internalType":"struct OFTLimit","components":[{"name":"minAmountLD","type":"uint256","internalType":"uint256"},{"name":"maxAmountLD","type":"uint256","internalType":"uint256"}]},{"name":"oftFeeDetails","type":"tuple[]","internalType":"struct OFTFeeDetail[]","components":[{"name":"feeAmountLD","type":"int256","internalType":"int256"},{"name":"description","type":"string","internalType":"string"}]},{"name":"oftReceipt","type":"tuple","internalType":"struct OFTReceipt","components":[{"name":"amountSentLD","type":"uint256","internalType":"uint256"},{"name":"amountReceivedLD","type":"uint256","internalType":"uint256"}]}],"stateMutability":"view"},{"type":"function","name":"quoteSend","inputs":[{"name":"_sendParam","type":"tuple","internalType":"struct SendParam","components":[{"name":"dstEid","type":"uint32","internalType":"uint32"},{"name":"to","type":"bytes32","internalType":"bytes32"},{"name":"amountLD","type":"uint256","internalType":"uint256"},{"name":"minAmountLD","type":"uint256","internalType":"uint256"},{"name":"extraOptions","type":"bytes","internalType":"bytes"},{"name":"composeMsg","type":"bytes","internalType":"bytes"},{"name":"oftCmd","type":"bytes","internalType":"bytes"}]},{"name":"_payInLzToken","type":"bool","internalType":"bool"}],"outputs":[{"name":"msgFee","type":"tuple","internalType":"struct MessagingFee","components":[{"name":"nativeFee","type":"uint256","internalType":"uint256"},{"name":"lzTokenFee","type":"uint256","internalType":"uint256"}]}],"stateMutability":"view"},{"type":"function","name":"renounceOwnership","inputs":[],"outputs":[],"stateMutability":"nonpayable"},{"type":"function","name":"send","inputs":[{"name":"_sendParam","type":"tuple","internalType":"struct SendParam","components":[{"name":"dstEid","type":"uint32","internalType":"uint32"},{"name":"to","type":"bytes32","internalType":"bytes32"},{"name":"amountLD","type":"uint256","internalType":"uint256"},{"name":"minAmountLD","type":"uint256","internalType":"uint256"},{"name":"extraOptions","type":"bytes","internalType":"bytes"},{"name":"composeMsg","type":"bytes","internalType":"bytes"},{"name":"oftCmd","type":"bytes","internalType":"bytes"}]},{"name":"_fee","type":"tuple","internalType":"struct MessagingFee","components":[{"name":"nativeFee","type":"uint256","internalType":"uint256"},{"name":"lzTokenFee","type":"uint256","internalType":"uint256"}]},{"name":"_refundAddress","type":"address","internalType":"address"}],"outputs":[{"name":"msgReceipt","type":"tuple","internalType":"struct MessagingReceipt","components":[{"name":"guid","type":"bytes32","internalType":"bytes32"},{"name":"nonce","type":"uint64","internalType":"uint64"},{"name":"fee","type":"tuple","internalType":"struct MessagingFee","components":[{"name":"nativeFee","type":"uint256","internalType":"uint256"},{"name":"lzTokenFee","type":"uint256","internalType":"uint256"}]}]},{"name":"oftReceipt","type":"tuple","internalType":"struct OFTReceipt","components":[{"name":"amountSentLD","type":"uint256","internalType":"uint256"},{"name":"amountReceivedLD","type":"uint256","internalType":"uint256"}]}],"stateMutability":"payable"},{"type":"function","name":"setDelegate","inputs":[{"name":"_delegate","type":"address","internalType":"address"}],"outputs":[],"stateMutability":"nonpayable"},{"type":"function","name":"setDstEid","inputs":[{"name":"_eid","type":"uint32","internalType":"uint32"}],"outputs":[],"stateMutability":"nonpayable"},{"type":"function","name":"setEnforcedOptions","inputs":[{"name":"_enforcedOptions","type":"tuple[]","internalType":"struct EnforcedOptionParam[]","components":[{"name":"eid","type":"uint32","internalType":"uint32"},{"name":"msgType","type":"uint16","internalType":"uint16"},{"name":"options","type":"bytes","internalType":"bytes"}]}],"outputs":[],"stateMutability":"nonpayable"},{"type":"function","name":"setMsgInspector","inputs":[{"name":"_msgInspector","type":"address","internalType":"address"}],"outputs":[],"stateMutability":"nonpayable"},{"type":"function","name":"setPeer","inputs":[{"name":"_eid","type":"uint32","internalType":"uint32"},{"name":"_peer","type":"bytes32","internalType":"bytes32"}],"outputs":[],"stateMutability":"nonpayable"},{"type":"function","name":"setPreCrime","inputs":[{"name":"_preCrime","type":"address","internalType":"address"}],"outputs":[],"stateMutability":"nonpayable"},{"type":"function","name":"sharedDecimals","inputs":[],"outputs":[{"name":"","type":"uint8","internalType":"uint8"}],"stateMutability":"view"},{"type":"function","name":"symbol","inputs":[],"outputs":[{"name":"","type":"string","internalType":"string"}],"stateMutability":"view"},{"type":"function","name":"token","inputs":[],"outputs":[{"name":"","type":"address","internalType":"address"}],"stateMutability":"view"},{"type":"function","name":"totalSupply","inputs":[],"outputs":[{"name":"","type":"uint256","internalType":"uint256"}],"stateMutability":"view"},{"type":"function","name":"transfer","inputs":[{"name":"to","type":"address","internalType":"address"},{"name":"value","type":"uint256","internalType":"uint256"}],"outputs":[{"name":"","type":"bool","internalType":"bool"}],"stateMutability":"nonpayable"},{"type":"function","name":"transferFrom","inputs":[{"name":"from","type":"address","internalType":"address"},{"name":"to","type":"address","internalType":"address"},{"name":"value","type":"uint256","internalType":"uint256"}],"outputs":[{"name":"","type":"bool","internalType":"bool"}],"stateMutability":"nonpayable"},{"type":"function","name":"transferOwnership","inputs":[{"name":"newOwner","type":"address","internalType":"address"}],"outputs":[],"stateMutability":"nonpayable"},{"type":"function","name":"unpause","inputs":[],"outputs":[],"stateMutability":"nonpayable"},{"type":"function","name":"upgradeToAndCall","inputs":[{"name":"newImplementation","type":"address","internalType":"address"},{"name":"data","type":"bytes","internalType":"bytes"}],"outputs":[],"stateMutability":"payable"},{"type":"event","name":"Approval","inputs":[{"name":"owner","type":"address","indexed":true,"internalType":"address"},{"name":"spender","type":"address","indexed":true,"internalType":"address"},{"name":"value","type":"uint256","indexed":false,"internalType":"uint256"}],"anonymous":false},{"type":"event","name":"EnforcedOptionSet","inputs":[{"name":"_enforcedOptions","type":"tuple[]","indexed":false,"internalType":"struct EnforcedOptionParam[]","components":[{"name":"eid","type":"uint32","internalType":"uint32"},{"name":"msgType","type":"uint16","internalType":"uint16"},{"name":"options","type":"bytes","internalType":"bytes"}]}],"anonymous":false},{"type":"event","name":"Initialized","inputs":[{"name":"version","type":"uint64","indexed":false,"internalType":"uint64"}],"anonymous":false},{"type":"event","name":"MsgInspectorSet","inputs":[{"name":"inspector","type":"address","indexed":false,"internalType":"address"}],"anonymous":false},{"type":"event","name":"OFTReceived","inputs":[{"name":"guid","type":"bytes32","indexed":true,"internalType":"bytes32"},{"name":"srcEid","type":"uint32","indexed":false,"internalType":"uint32"},{"name":"toAddress","type":"address","indexed":true,"internalType":"address"},{"name":"amountReceivedLD","type":"uint256","indexed":false,"internalType":"uint256"}],"anonymous":false},{"type":"event","name":"OFTSent","inputs":[{"name":"guid","type":"bytes32","indexed":true,"internalType":"bytes32"},{"name":"dstEid","type":"uint32","indexed":false,"internalType":"uint32"},{"name":"fromAddress","type":"address","indexed":true,"internalType":"address"},{"name":"amountSentLD","type":"uint256","indexed":false,"internalType":"uint256"},{"name":"amountReceivedLD","type":"uint256","indexed":false,"internalType":"uint256"}],"anonymous":false},{"type":"event","name":"OwnershipTransferred","inputs":[{"name":"previousOwner","type":"address","indexed":true,"internalType":"address"},{"name":"newOwner","type":"address","indexed":true,"internalType":"address"}],"anonymous":false},{"type":"event","name":"Paused","inputs":[{"name":"account","type":"address","indexed":false,"internalType":"address"}],"anonymous":false},{"type":"event","name":"PeerSet","inputs":[{"name":"eid","type":"uint32","indexed":false,"internalType":"uint32"},{"name":"peer","type":"bytes32","indexed":false,"internalType":"bytes32"}],"anonymous":false},{"type":"event","name":"PreCrimeSet","inputs":[{"name":"preCrimeAddress","type":"address","indexed":false,"internalType":"address"}],"anonymous":false},{"type":"event","name":"Transfer","inputs":[{"name":"from","type":"address","indexed":true,"internalType":"address"},{"name":"to","type":"address","indexed":true,"internalType":"address"},{"name":"value","type":"uint256","indexed":false,"internalType":"uint256"}],"anonymous":false},{"type":"event","name":"Unpaused","inputs":[{"name":"account","type":"address","indexed":false,"internalType":"address"}],"anonymous":false},{"type":"event","name":"Upgraded","inputs":[{"name":"implementation","type":"address","indexed":true,"internalType":"address"}],"anonymous":false},{"type":"error","name":"AddressEmptyCode","inputs":[{"name":"target","type":"address","internalType":"address"}]},{"type":"error","name":"AddressInsufficientBalance","inputs":[{"name":"account","type":"address","internalType":"address"}]},{"type":"error","name":"ERC1967InvalidImplementation","inputs":[{"name":"implementation","type":"address","internalType":"address"}]},{"type":"error","name":"ERC1967NonPayable","inputs":[]},{"type":"error","name":"ERC20InsufficientAllowance","inputs":[{"name":"spender","type":"address","internalType":"address"},{"name":"allowance","type":"uint256","internalType":"uint256"},{"name":"needed","type":"uint256","internalType":"uint256"}]},{"type":"error","name":"ERC20InsufficientBalance","inputs":[{"name":"sender","type":"address","internalType":"address"},{"name":"balance","type":"uint256","internalType":"uint256"},{"name":"needed","type":"uint256","internalType":"uint256"}]},{"type":"error","name":"ERC20InvalidApprover","inputs":[{"name":"approver","type":"address","internalType":"address"}]},{"type":"error","name":"ERC20InvalidReceiver","inputs":[{"name":"receiver","type":"address","internalType":"address"}]},{"type":"error","name":"ERC20InvalidSender","inputs":[{"name":"sender","type":"address","internalType":"address"}]},{"type":"error","name":"ERC20InvalidSpender","inputs":[{"name":"spender","type":"address","internalType":"address"}]},{"type":"error","name":"EndPointUnavailable","inputs":[]},{"type":"error","name":"EnforcedPause","inputs":[]},{"type":"error","name":"ExpectedPause","inputs":[]},{"type":"error","name":"FailedInnerCall","inputs":[]},{"type":"error","name":"InvalidDelegate","inputs":[]},{"type":"error","name":"InvalidEndpointCall","inputs":[]},{"type":"error","name":"InvalidInitialization","inputs":[]},{"type":"error","name":"InvalidLocalDecimals","inputs":[]},{"type":"error","name":"InvalidOptions","inputs":[{"name":"options","type":"bytes","internalType":"bytes"}]},{"type":"error","name":"LzTokenUnavailable","inputs":[]},{"type":"error","name":"NoPeer","inputs":[{"name":"eid","type":"uint32","internalType":"uint32"}]},{"type":"error","name":"NotEnoughNative","inputs":[{"name":"msgValue","type":"uint256","internalType":"uint256"}]},{"type":"error","name":"NotInitializing","inputs":[]},{"type":"error","name":"OnlyEndpoint","inputs":[{"name":"addr","type":"address","internalType":"address"}]},{"type":"error","name":"OnlyPeer","inputs":[{"name":"eid","type":"uint32","internalType":"uint32"},{"name":"sender","type":"bytes32","internalType":"bytes32"}]},{"type":"error","name":"OnlySelf","inputs":[]},{"type":"error","name":"OwnableInvalidOwner","inputs":[{"name":"owner","type":"address","internalType":"address"}]},{"type":"error","name":"OwnableUnauthorizedAccount","inputs":[{"name":"account","type":"address","internalType":"address"}]},{"type":"error","name":"SafeERC20FailedOperation","inputs":[{"name":"token","type":"address","internalType":"address"}]},{"type":"error","name":"SimulationResult","inputs":[{"name":"result","type":"bytes","internalType":"bytes"}]},{"type":"error","name":"SlippageExceeded","inputs":[{"name":"amountLD","type":"uint256","internalType":"uint256"},{"name":"minAmountLD","type":"uint256","internalType":"uint256"}]},{"type":"error","name":"UUPSUnauthorizedCallContext","inputs":[]},{"type":"error","name":"UUPSUnsupportedProxiableUUID","inputs":[{"name":"slot","type":"bytes32","internalType":"bytes32"}]}],"bytecode":{"object":"0x60a0806040523461002a5730608052613a359081610030823960805181818161128d01526113e00152f35b600080fdfe6080604052600436101561001257600080fd5b60003560e01c806306fdde03146103a8578063095ea7b3146103a35780630d14c92e1461039e5780630d35b41514610399578063111ecdad1461039457806313137d651461038f578063134d4f251461038a578063156a0d0f1461038557806317442b701461038057806318160ddd1461037b5780631f5e13341461037657806323b872dd146103715780632f86121b1461036c578063313ce567146103085780633400288b146103675780633b6f743b146103625780633f4ba83a1461035d57806340c10f191461035857806342966c6814610353578063485cc9551461034e5780634f1ef2861461034957806352ae28791461029f57806352d1902d146103445780635535d4611461033f5780635a0dfe4d1461033a5780635c975abb146103355780635e280f11146103305780636013987f146102f95780636fc1b31e1461032b57806370a0823114610326578063715018a61461032157806379cc67901461031c5780637d25a05e1461031757806382413eac146103125780638456cb591461030d578063857749b0146103085780638da5cb5b1461030357806395d89b41146102fe57806395e99458146102f9578063963efcaa146102f45780639f68b964146102ef578063a9059cbb146102ea578063ad3cb1cc146102e5578063b731ea0a146102e0578063b98bd070146102db578063bb0b6a53146102d6578063bc70b354146102d1578063bd815db0146102cc578063c753e126146102c7578063c7c7f5b3146102c2578063ca5eb5e1146102bd578063d00c06cc146102b8578063d045a0dc146102b3578063d4243885146102ae578063dd62ed3e146102a9578063f2fde38b146102a4578063fc0c546a1461029f5763ff7bd03d1461029a57600080fd5b612343565b6113b2565b61231b565b6122f5565b612285565b61213b565b611fe2565b611f66565b611e1a565b611da9565b611c53565b611bff565b611bc4565b611afb565b611a86565b611a40565b611a16565b6119fa565b6119dc565b61167e565b611948565b611912565b610e0c565b6118ab565b61184d565b611826565b6117f2565b611787565b61172b565b6116bb565b611655565b611625565b6115dd565b61155e565b6113cd565b61124b565b611125565b6110e3565b6110ba565b611043565b610eb9565b610e28565b610ca3565b610b16565b610afa565b610acf565b610aad565b610a86565b610a6a565b610888565b6107bd565b610717565b6105d1565b6104fd565b610419565b60009103126103b857565b600080fd5b60005b8381106103d05750506000910152565b81810151838201526020016103c0565b906020916103f9815180928185528580860191016103bd565b601f01601f1916010190565b9060206104169281815201906103e0565b90565b346103b8576000806003193601126104e957604051816000805160206138e0833981519152805461044981611458565b808552916001918083169081156104be5750600114610483575b61047f8561047381890382610bfb565b60405191829182610405565b0390f35b835260208084209095505b8284106104ab575050508161047f93610473928201019338610463565b805485850187015292850192810161048e565b905061047f96506104739450602092508593915060ff191682840152151560051b8201019338610463565b80fd5b6001600160a01b038116036103b857565b346103b85760403660031901126103b85760043561051a816104ec565b60243533156105aa576001600160a01b03821691821561059157610559829161054233613462565b9060018060a01b0316600052602052604060002090565b556040519081527f8c5be1e5ebec7d5bd14f71427d1e84f3dd0314c0f7b2291e5b200ac8c7c3b92560203392a3602060405160018152f35b604051634a1406b160e11b815260006004820152602490fd5b60405163e602df0560e01b815260006004820152602490fd5b63ffffffff8116036103b857565b346103b85760203660031901126103b8576004356105ee816105c3565b6105f6613310565b63ffffffff811615610627576006805463ffffffff60a01b191660a09290921b63ffffffff60a01b16919091179055005b60405162461bcd60e51b81526020600482015260116024820152704549442063616e2774206265207a65726f60781b6044820152606490fd5b908160e09103126103b85790565b9392916106898560a081019360208091805184520151910152565b60409160a083870152815180915260c086019160c08260051b880101936020809201936000915b8483106106d8575050505050509060606106d69294019060208091805184520151910152565b565b90919293949584806107076001938d60bf1990820301875285838c5180518452015191818582015201906103e0565b98019301930191949392906106b0565b346103b85760203660031901126103b8576001600160401b036004358181116103b857610748903690600401610660565b90610751612ac6565b5061075a612ac6565b506040519061076882610b77565b60008252602082015261047f6107a16040519361078485610bc5565b60008552610791816124d6565b506040606082013591013561302d565b6107a9610c1c565b91825260208201526040519384938461066e565b346103b85760003660031901126103b8576006546040516001600160a01b039091168152602090f35b60609060031901126103b857600490565b9181601f840112156103b8578235916001600160401b0383116103b857602083818601950101116103b857565b600319810160e081126103b8576060136103b857600491606435916001600160401b03906084358281116103b8578161085e9187016107f7565b9390939260a43561086e816104ec565b9260c4359182116103b8576108849188016107f7565b9091565b61089136610824565b50506001549294926001600160a01b0392915082163303610a525782356108b7816105c3565b6108c0816124e0565b906020850135809203610a1d5750506108e86108dc8287613151565b6001600160a01b031690565b906108fb6108f6828861315d565b612ff8565b8096610906866124d6565b5061091182856135b0565b6028831161095f575b50505061095a610938600080516020613960833981519152946124d6565b956040519384931696836020909392919363ffffffff60408201951681520152565b0390a3005b9061098a929161098461097460408901612fb0565b9361097e896124d6565b9261316f565b92613069565b60015461099f906001600160a01b03166108dc565b803b156103b857604051633e5ac80960e11b81529160009183918290849082906109ce908c8a60048501612fba565b03925af18015610a18576000805160206139608339815191529461095a92610938926109ff575b509487915061091a565b80610a0c610a1292610bb2565b806103ad565b386109f5565b6124ca565b610a26816105c3565b60405163309afaf360e21b815263ffffffff9190911660048201526024810191909152604490fd5b0390fd5b6040516391ac5e4f60e01b8152336004820152602490fd5b346103b85760003660031901126103b857602060405160028152f35b346103b85760003660031901126103b8576040805162b9270b60e21b815260016020820152f35b346103b85760003660031901126103b857604080516001815260026020820152f35b346103b85760003660031901126103b857602060008051602061394083398151915254604051908152f35b346103b85760003660031901126103b857602060405160018152f35b346103b85760603660031901126103b857610b56600435610b36816104ec565b602435610b42816104ec565b60443591610b518333836136b5565b6134d4565b602060405160018152f35b634e487b7160e01b600052604160045260246000fd5b604081019081106001600160401b03821117610b9257604052565b610b61565b606081019081106001600160401b03821117610b9257604052565b6001600160401b038111610b9257604052565b602081019081106001600160401b03821117610b9257604052565b60a081019081106001600160401b03821117610b9257604052565b90601f801991011681019081106001600160401b03821117610b9257604052565b604051906106d682610b77565b604051906106d682610be0565b6001600160401b038111610b9257601f01601f191660200190565b929192610c5d82610c36565b91610c6b6040519384610bfb565b8294818452818301116103b8578281602093846000960137010152565b9080601f830112156103b85781602061041693359101610c51565b346103b85760803660031901126103b8576001600160401b036004358181116103b857610cd4903690600401610c88565b906024358181116103b857610ced903690600401610c88565b9160443590610cfb826104ec565b60643592610d08846104ec565b610d10613349565b610d18613349565b610d20613349565b8151908111610b92576000805160206138e083398151915291610d4c82610d478554611458565b6125ab565b60209081601f8411600114610d9b57509180610d899492610d8e9894600092610d90575b50508160011b916000199060031b1c1916179055613387565b6129e8565b005b015190503880610d70565b9190601f198416610daa611492565b936000905b828210610df4575050926001928592610d8e9a96610d89989610610ddb575b505050811b019055613387565b015160001960f88460031b161c19169055388080610dce565b80600186978294978701518155019601940190610daf565b346103b85760003660031901126103b857602060405160068152f35b346103b85760403660031901126103b8577f238399d427b947898edb290f5ff0f9109849b1c3ba196a42e35f00c50a54b98b600435610e66816105c3565b60243590610e72613310565b63ffffffff8116600052600260205281604060002055610eaa604051928392836020909392919363ffffffff60408201951681520152565b0390a1005b801515036103b857565b346103b8576040806003193601126103b8576004356001600160401b0381116103b857610eea903690600401610660565b90602435610ef781610eaf565b610eff612ac6565b506060830135833593610f11856105c3565b610f29600554610f24818785013561300d565b612fe5565b91808310611026575091610fa7610f45610fc396938695612ec2565b610f51859492946105c3565b610f59612ac6565b50600154610f6f906001600160a01b03166108dc565b93610f79866124e0565b610f90610f84610c29565b63ffffffff9098168852565b602087015286860152606085015215156080840152565b82518080968194631bb8518b60e31b8352309060048401612b1b565b03915afa908115610a185761047f92600092610ff7575b505191829182815181526020918201519181019190915260400190565b816110189293503d841161101f575b6110108183610bfb565b810190612b07565b9038610fda565b503d611006565b826044918651916371c4efed60e01b835260048301526024820152fd5b346103b85760003660031901126103b85761105c613310565b6000805160206139c0833981519152805460ff8116156110a85760ff191690557f5db9ee0a495bf2e6ff9c91a7834c1ba4fdd244a5e8aa4e537bd38aeae4b073aa6020604051338152a1005b604051638dfc202b60e01b8152600490fd5b346103b85760403660031901126103b857610b566004356110da816104ec565b602435906135b0565b346103b85760203660031901126103b857610d8e60043533613615565b60409060031901126103b857600435611118816104ec565b90602435610416816104ec565b346103b85761113336611100565b906000805160206139e083398151915254916001600160401b0360ff8460401c1615931680159081611243575b6001149081611239575b159081611230575b5061121e576000805160206139e0833981519152805467ffffffffffffffff191660011790556111a691836111f957612389565b6111ac57005b6000805160206139e0833981519152805460ff60401b19169055604051600181527fc7f505b2f371ae2175ee4913f4499e1f2633a7b5936321eed1cdaeb6115181d2908060208101610eaa565b6000805160206139e0833981519152805460ff60401b1916600160401b179055612389565b60405163f92ee8a960e01b8152600490fd5b90501538611172565b303b15915061116a565b849150611160565b60403660031901126103b8576004803590611265826104ec565b6024356001600160401b0381116103b8576112839036908301610c88565b6001600160a01b037f00000000000000000000000000000000000000000000000000000000000000008116308114908115611396575b506113855790602083926112cb613310565b6040516352d1902d60e01b8152938491829088165afa60009281611355575b50611318575050604051634c9c8ce360e01b81526001600160a01b0390921690820190815281906020010390fd5b8383600080516020613980833981519152840361133957610d8e838361378e565b604051632a87526960e21b815290810184815281906020010390fd5b61137791935060203d811161137e575b61136f8183610bfb565b810190613378565b91386112ea565b503d611365565b60405163703e46dd60e11b81528390fd5b90508160008051602061398083398151915254161415386112b9565b346103b85760003660031901126103b8576020604051308152f35b346103b85760003660031901126103b8577f00000000000000000000000000000000000000000000000000000000000000006001600160a01b031630036114265760206040516000805160206139808339815191528152f35b60405163703e46dd60e11b8152600490fd5b6024359061ffff821682036103b857565b359061ffff821682036103b857565b90600182811c92168015611488575b602083101461147257565b634e487b7160e01b600052602260045260246000fd5b91607f1691611467565b6000805160206138e08339815191526000527f2ae08a8e29253f69ac5d979a101956ab8f8d9d7ded63fa7a83b16fc47648eab090565b90600092918054916114d983611458565b91828252600193848116908160001461153b57506001146114fb575b50505050565b90919394506000526020928360002092846000945b8386106115275750505050010190388080806114f5565b805485870183015294019385908201611510565b9294505050602093945060ff191683830152151560051b010190388080806114f5565b346103b85760403660031901126103b85761047f6115c26115c96115b6600435611587816105c3565b63ffffffff611594611438565b9116600052600460205260406000209061ffff16600052602052604060002090565b604051928380926114c8565b0382610bfb565b6040519182916020835260208301906103e0565b346103b85760403660031901126103b857602061161b6004356115ff816105c3565b6024359063ffffffff1660005260026020526040600020541490565b6040519015158152f35b346103b85760003660031901126103b857602060ff6000805160206139c083398151915254166040519015158152f35b346103b85760003660031901126103b8576001546040516001600160a01b039091168152602090f35b346103b85760203660031901126103b857610d8e60043561169e816104ec565b6116a6613349565b6116ae613349565b6116b6613349565b61329c565b346103b85760203660031901126103b8577ff0be4f1e87349231d80c36b33f9e8639658eeaf474014dee15a3e6a4d441419760206004356116fb816104ec565b611703613310565b600680546001600160a01b0319166001600160a01b03929092169182179055604051908152a1005b346103b85760203660031901126103b857600435611748816104ec565b60018060a01b03166000527f52c63247e1f47db19d5ce0460030c497f067ca4cebf71ba98eeadabe20bace006020526020604060002054604051908152f35b346103b8576000806003193601126104e9576117a1613310565b60008051602061392083398151915280546001600160a01b0319811690915581906001600160a01b03167f8be0079c531659141344cd1fd0a4f28419497f9722a3daafe3b4186f6b6457e08280a380f35b346103b85760403660031901126103b857610d8e600435611812816104ec565b602435906118218233836136b5565b613615565b346103b85760403660031901126103b8576118426004356105c3565b602060405160008152f35b346103b85760a03660031901126103b857611867366107e6565b506064356001600160401b0381116103b8576118879036906004016107f7565b50506020608435611897816104ec565b6040516001600160a01b0390911630148152f35b346103b85760003660031901126103b8576118c4613310565b6118cc613763565b6000805160206139c0833981519152600160ff198254161790557f62e78cea01bee320cd4e420270b5ea74000d11b0c9f74754ebdbfc544b05a2586020604051338152a1005b346103b85760003660031901126103b857600080516020613920833981519152546040516001600160a01b039091168152602090f35b346103b8576000806003193601126104e95760405181600080516020613900833981519152805461197881611458565b808552916001918083169081156104be57506001146119a15761047f8561047381890382610bfb565b835260208084209095505b8284106119c9575050508161047f93610473928201019338610463565b80548585018701529285019281016119ac565b346103b85760003660031901126103b8576020600554604051908152f35b346103b85760003660031901126103b857602060405160008152f35b346103b85760403660031901126103b857610b56600435611a36816104ec565b60243590336134d4565b346103b85760003660031901126103b85761047f604051611a6081610b77565b60058152640352e302e360dc1b60208201526040519182916020835260208301906103e0565b346103b85760003660031901126103b8576003546040516001600160a01b039091168152602090f35b9060206003198301126103b8576004356001600160401b03928382116103b857806023830112156103b85781600401359384116103b85760248460051b830101116103b8576024019190565b346103b857611b0936611aaf565b90611b12613310565b611b1b82612524565b906040611b2a81519384610bfb565b8383526020938484019060051b8301923684116103b85780915b848310611b5457610d8e866127d5565b6001600160401b039083358281116103b8578301906060823603126103b8578551611b7e81610b97565b8235611b89816105c3565b8152611b968a8401611449565b8a820152868301359384116103b857611bb58a94938594369101610c88565b87820152815201920191611b44565b346103b85760203660031901126103b85763ffffffff600435611be6816105c3565b1660005260026020526020604060002054604051908152f35b346103b85760603660031901126103b857600435611c1c816105c3565b611c24611438565b604435906001600160401b0382116103b85761047f92611c4b6115c99336906004016107f7565b92909161290d565b611c5c36611aaf565b60005b818110611cc957604051638e9e709960e01b8152600081600481335afa8015610a1857610a4e91600091611ca8575b50604051638351eea760e01b815291829160048301610405565b611cc3913d8091833e611cbb8183610bfb565b810190613232565b82611c8e565b611cd481838561318b565b90611d06611d02611ce4846124d6565b60208501359063ffffffff1660005260026020526040600020541490565b1590565b611d9f57611d18610100830183612e56565b92611d2560e082016131ae565b90611d34610120820182612e56565b959095303b156103b857600094611d6a60c092604051998a9788968795633411683760e21b875260a08a01358a600489016131b8565b03920135305af1918215610a1857611d8792611d8c575b50612551565b611c5f565b80610a0c611d9992610bb2565b38611d81565b611d879150612551565b346103b85760403660031901126103b857610b56600435611812816104ec565b9160806106d6929493611e09604060c0830197805184526001600160401b0360208201511660208501520151604083019060208091805184520151910152565b019060208091805184520151910152565b60803660031901126103b8576004356001600160401b0381116103b857611e45903690600401610660565b60403660231901126103b857606435611e5d816104ec565b611e65612b89565b50611e6e612ac6565b50606082013590611e7f83356105c3565b611e93600554610f2481604087013561300d565b91808310611f485750611ecd90611eaa8333613615565b611eb48385612ec2565b611ebd866124d6565b91611ec736612bb1565b92612c2c565b90611ed6610c1c565b928184528160208501527f85496b760a4b7f8d66384b9df21b381f5d1b1e79f229a47aaf4c232edc2fe59a611f36611f0f8551936124d6565b936040519181839233978460409194939263ffffffff606083019616825260208201520152565b0390a361047f60405192839283611dc9565b82604491604051916371c4efed60e01b835260048301526024820152fd5b346103b857600060203660031901126104e957600435611f85816104ec565b611f8d613310565b6001546001600160a01b0390811691839190833b15611fde5760249083604051958694859363ca5eb5e160e01b85521660048401525af18015610a1857611fd2575080f35b611fdb90610bb2565b80f35b8280fd5b346103b85760603660031901126103b85760043560ff81168082036103b8576024359061200e826104ec565b6044359161201b836104ec565b612023613349565b61202b613349565b612033613349565b6001600160a01b03908116801561212957600180546001600160a01b0319166001600160a01b039092169190911790558216156121175760015461207f906001600160a01b03166108dc565b91823b156103b85760405163ca5eb5e160e01b81526001600160a01b0382166004820152926000908490602490829084905af1908115610a18576006936120d492612104575b506120cf81612518565b612518565b106120f2576120ed6120e8610d8e92612aa2565b612ab5565b600555565b6040516301e9714b60e41b8152600490fd5b80610a0c61211192610bb2565b386120c5565b604051632d618d8160e21b8152600490fd5b604051638ad182f960e01b8152600490fd5b61214436610824565b50505092903033036122735761215d6108dc8583613151565b9361216b6108f6828461315d565b91612175846124d6565b5061218083876135b0565b602882116121cf575b50506121a3600080516020613960833981519152926124d6565b6040805163ffffffff909216825260208201929092526001600160a01b0390941693908190810161095a565b90826121ee926109846121e460408801612fb0565b9361097e886124d6565b600154909290612206906001600160a01b03166108dc565b803b156103b857604051633e5ac80960e11b8152936000918591829084908290612235908b8d60048501612fba565b03925af1908115610a1857600080516020613960833981519152936121a392612260575b5092612189565b80610a0c61226d92610bb2565b38612259565b60405163029a949d60e31b8152600490fd5b346103b85760203660031901126103b8577fd48d879cef83a1c0bdda516f27b13ddb1b3f8bbac1c9e1511bb2a659c242776060206004356122c5816104ec565b6122cd613310565b600380546001600160a01b0319166001600160a01b03929092169182179055604051908152a1005b346103b857602061231261054261230b36611100565b9190613462565b54604051908152f35b346103b85760203660031901126103b857610d8e60043561233b816104ec565b6116b6613310565b346103b85760603660031901126103b857602061235f366107e6565b63ffffffff813561236f816105c3565b166000526002825260406000205482604051920135148152f35b91906040519261239884610b77565b600b84526020936a2a32b9ba102a32ba3432b960a91b85820152604051946123bf86610b77565b6005865264151554d11560da1b818701526123d8613349565b6123e0613349565b6123e8613349565b8151906001600160401b038211610b92576000805160206138e08339815191529261241783610d478654611458565b81601f841160011461247257509180610d899492612451989994600092610d905750508160011b916000199060031b1c1916179055613387565b612459613349565b61246161373a565b612469613349565b6106d633613290565b9190601f198416612481611492565b936000905b8282106124b25750509260019285926124519a9b96610d89989610610ddb57505050811b019055613387565b80600186978294978701518155019601940190612486565b6040513d6000823e3d90fd5b35610416816105c3565b63ffffffff16806000526002602052604060002054908115612500575090565b6024906040519063f6ff4fb760e01b82526004820152fd5b6106d6906116a6613349565b6001600160401b038111610b925760051b60200190565b634e487b7160e01b600052601160045260246000fd5b60001981146125605760010190565b61253b565b634e487b7160e01b600052603260045260246000fd5b805182101561258f5760209160051b010190565b612565565b81811061259f575050565b60008155600101612594565b90601f82116125b8575050565b6106d6916000805160206138e08339815191526000526020600020906020601f840160051c830193106125f3575b601f0160051c0190612594565b90915081906125e6565b90601f821161260a575050565b6106d6916000805160206139008339815191526000526020600020906020601f840160051c830193106125f357601f0160051c0190612594565b9190601f811161265357505050565b6106d6926000526020600020906020601f840160051c830193106125f357601f0160051c0190612594565b91909182516001600160401b038111610b92576126a58161269f8454611458565b84612644565b602080601f83116001146126e15750819293946000926126d6575b50508160011b916000199060031b1c1916179055565b0151905038806126c0565b90601f198316956126f785600052602060002090565b926000905b8882106127345750508360019596971061271b575b505050811b019055565b015160001960f88460031b161c19169055388080612711565b806001859682949686015181550195019301906126fc565b602080820190808352835180925260409283810182858560051b8401019601946000925b858410612781575050505050505090565b9091929394959685806127c4600193603f19868203018852868c5163ffffffff815116835261ffff858201511685840152015190606090818982015201906103e0565b990194019401929594939190612770565b90600091825b8151811015612865576128609061285b6040612803816127fb858861257b565b5101516129b0565b61285681612811858861257b565b5101519163ffffffff612824868961257b565b515116895261ffff602091600483528a2091612840878a61257b565b5101511661ffff16600052602052604060002090565b61267e565b612551565b6127db565b507fbe4864a8e820971c0247f5992e2da559595f7bf076a21cb5928d443d2a13b67491925061289a906040519182918261274c565b0390a1565b602090836106d69395949560405196836128c289955180928880890191016103bd565b8401918583013701600083820152038085520183610bfb565b908060209392818452848401376000828201840152601f01601f1916010190565b9160206104169381815201916128db565b6115b66115c29263ffffffff61293e9316600052600460205260406000209061ffff16600052602052604060002090565b8051156129a457821561299e5760028310156129715750610a4e604051928392639a6d49cd60e01b8452600484016128fc565b61298461297f368585610c51565b6129b0565b826002116103b8576104169260011901916002019061289f565b91505090565b50610416913691610c51565b600361ffff600283015116036129c35750565b604051639a6d49cd60e01b815260206004820152908190610a4e9060248301906103e0565b6129f0613349565b6129f8613349565b612a00613349565b6001600160a01b03908116801561212957600180546001600160a01b0319166001600160a01b0390921691909117905581161561211757600154612a4c906001600160a01b03166108dc565b90813b156103b85760405163ca5eb5e160e01b81526001600160a01b0382166004820152916000908390602490829084905af1918215610a1857612a989261210457506120cf81612518565b6106d66001600555565b60ff6005199116019060ff821161256057565b60ff16604d811161256057600a0a90565b60405190612ad382610b77565b60006020838281520152565b91908260409103126103b857604051612af781610b77565b6020808294805184520151910152565b906040828203126103b85761041691612adf565b906020909392936040835263ffffffff81511660408401528181015160608401526080612b6f612b59604084015160a08488015260e08701906103e0565b6060840151868203603f190160a08801526103e0565b910151151560c08401526001600160a01b03909416910152565b60405190612b9682610b97565b8160008152600060208201526040612bac612ac6565b910152565b60409060231901126103b85760405190612bca82610b77565b60243582526044356020830152565b6001600160401b038116036103b857565b906080828203126103b857612c24906040805193612c0785610b97565b805185526020810151612c1981612bd9565b602086015201612adf565b604082015290565b608093612c9e612cba9694612c3f612b89565b506020612c4c8451612d07565b930190815180612cf8575b50600154612c6d906001600160a01b03166108dc565b95612c77866124e0565b9251151592612c87610f84610c29565b602087015260408601526060850152151586840152565b6040518096819582946302637a4560e41b845260048401612b1b565b03925af1908115610a1857600091612cd0575090565b610416915060803d8111612cf1575b612ce98183610bfb565b810190612bea565b503d612cdf565b612d0190612d29565b38612c57565b803410612d115790565b6040516304fb820960e51b8152346004820152602490fd5b60015460405163393f876560e21b81526001600160a01b039182169260209290918381600481885afa908115610a1857600091612e20575b5016928315612e0e5760008091612db69360405190868201926323b872dd60e01b84523360248401526044830152606482015260648152612da181610be0565b519082875af1612daf613832565b908461387c565b908151918215159182612df2575b50509050612dcf5750565b604051635274afe760e01b81526001600160a01b03919091166004820152602490fd5b611d02925080612e06948301019101612e88565b803880612dc4565b6040516329b99a9560e11b8152600490fd5b908482813d8311612e4f575b612e368183610bfb565b810103126104e9575051612e49816104ec565b38612d61565b503d612e2c565b903590601e19813603018212156103b857018035906001600160401b0382116103b8576020019181360383136103b857565b908160209103126103b8575161041681610eaf565b9091612eb4610416936040845260408401906103e0565b9160208184039101526103e0565b9091612f08612ee6612eda612f2f956005549061300d565b6001600160401b031690565b612efd612ef660a0860186612e56565b3691610c51565b9060208501356130c6565b9390928394600014612fa8576002905b611c4b612f24826124d6565b916080810190612e56565b60065490926001600160a01b03909116908382612f4b57505050565b60405163043a78eb60e01b815292602092849283918291612f6f9160048401612e9d565b03915afa8015610a1857612f81575b50565b612f7e9060203d8111612fa1575b612f998183610bfb565b810190612e88565b503d612f8f565b600190612f18565b3561041681612bd9565b610416939260809260018060a01b0316825260208201526000604082015281606082015201906103e0565b8181029291811591840414171561256057565b600554610416916001600160401b0316612fe5565b8115613017570490565b634e487b7160e01b600052601260045260246000fd5b61303e90610f24600554809261300d565b91829180841061304b5750565b83604491604051916371c4efed60e01b835260048301526024820152fd5b604c9193610416936040519586936001600160401b0360c01b9060c01b16602085015263ffffffff60e01b9060e01b166028840152602c8301526130b681518092602086860191016103bd565b810103602c810184520182610bfb565b82511580159390613124576131219160689160405194859260208401526001600160401b0360c01b9060c01b16604083015233604883015261311181518092602086860191016103bd565b8101036048810184520182610bfb565b91565b50906040519160208301526001600160401b0360c01b9060c01b1660408201526028815261312181610b97565b906020116103b8573590565b906028116103b8576020013560c01c90565b90806028116103b8576104169136916027190190602801610c51565b919081101561258f5760051b8101359061013e19813603018212156103b8570190565b35610416816104ec565b929093613214926001600160401b0360406104169a98999763ffffffff81356131e0816105c3565b1688526020810135602089015201356131f881612bd9565b166040860152606085015260e0608085015260e08401916128db565b6001600160a01b0390941660a082015280840360c0909101526128db565b6020818303126103b8578051906001600160401b0382116103b8570181601f820112156103b857805161326481610c36565b926132726040519485610bfb565b818452602082840101116103b85761041691602080850191016103bd565b6106d6906116ae613349565b6001600160a01b039081169081156132f75760008051602061392083398151915280546001600160a01b031981168417909155167f8be0079c531659141344cd1fd0a4f28419497f9722a3daafe3b4186f6b6457e0600080a3565b604051631e4fbdf760e01b815260006004820152602490fd5b600080516020613920833981519152546001600160a01b0316330361333157565b60405163118cdaa760e01b8152336004820152602490fd5b60ff6000805160206139e08339815191525460401c161561336657565b604051631afcd79f60e31b8152600490fd5b908160209103126103b8575190565b9081516001600160401b038111610b9257600080516020613900833981519152906133bb816133b68454611458565b6125fd565b602080601f83116001146133eb5750819293946000926126d65750508160011b916000199060031b1c1916179055565b600080516020613900833981519152600052601f198316959091907f46a2803e59a4de4e7a4c574b1243f25977ac4c77d5a1a4a609b5394cebb4a2aa926000905b88821061344a5750508360019596971061271b57505050811b019055565b8060018596829496860151815501950193019061342c565b6001600160a01b031660009081527f52c63247e1f47db19d5ce0460030c497f067ca4cebf71ba98eeadabe20bace016020526040902090565b6001600160a01b031660009081527f52c63247e1f47db19d5ce0460030c497f067ca4cebf71ba98eeadabe20bace006020526040902090565b916001600160a01b038084169290831561359757811693841561357e576134f9613763565b6135028161349b565b5483811061354f5761354a92849261352e6000805160206139a08339815191529661353494039161349b565b5561349b565b8054820190556040519081529081906020820190565b0390a3565b60405163391434e360e21b81526001600160a01b03929092166004830152602482015260448101839052606490fd5b60405163ec442f0560e01b815260006004820152602490fd5b604051634b637e8f60e11b815260006004820152602490fd5b6001600160a01b0381169190821561357e576135ca613763565b60008051602061394083398151915291825490808201809211612560576136066000805160206139a0833981519152936020936000965561349b565b818154019055604051908152a3565b91906001600160a01b03831690811561359757613630613763565b6136398461349b565b549381851061368357816020916136646000805160206139a08339815191529460009798039161349b565b55600080516020613940833981519152818154039055604051908152a3565b60405163391434e360e21b81526001600160a01b03919091166004820152602481018590526044810191909152606490fd5b91906136c48161054285613462565b54600181016136d35750505050565b82811061370a576001600160a01b03848116156105aa578216156105915761370092610542910393613462565b55388080806114f5565b604051637dc7a0d960e11b81526001600160a01b0392909216600483015260248201526044810191909152606490fd5b613742613349565b61374a613349565b6000805160206139c0833981519152805460ff19169055565b60ff6000805160206139c0833981519152541661377c57565b60405163d93c066560e01b8152600490fd5b90813b156138115760008051602061398083398151915280546001600160a01b0319166001600160a01b0384169081179091557fbc7cd75a20ee27fd9adebab32041f755214dbc6bffa90cc0225b39da2e5c2d3b600080a28051156137f657612f7e91613862565b5050346137ff57565b60405163b398979f60e01b8152600490fd5b604051634c9c8ce360e01b81526001600160a01b0383166004820152602490fd5b3d1561385d573d9061384382610c36565b916138516040519384610bfb565b82523d6000602084013e565b606090565b60008061041693602081519101845af461387a613832565b915b906138a3575080511561389157805190602001fd5b604051630a12f52160e11b8152600490fd5b815115806138d6575b6138b4575090565b604051639996b31560e01b81526001600160a01b039091166004820152602490fd5b50803b156138ac56fe52c63247e1f47db19d5ce0460030c497f067ca4cebf71ba98eeadabe20bace0352c63247e1f47db19d5ce0460030c497f067ca4cebf71ba98eeadabe20bace049016d09d72d40fdae2fd8ceac6b6234c7706214fd39c1cd1e609a0528c19930052c63247e1f47db19d5ce0460030c497f067ca4cebf71ba98eeadabe20bace02efed6d3500546b29533b128a29e3a94d70788727f0507505ac12eaf2e578fd9c360894a13ba1a3210667c828492db98dca3e2076cc3735a920a3ca505d382bbcddf252ad1be2c89b69c2b068fc378daa952ba7f163c4a11628f55a4df523b3efcd5ed15c6e187e77e9aee88184c21f4f2182ab5827cb3b7e07fbedcd63f03300f0c57e16840df040f15088dc2f81fe391c3923bec73e23a9662efc9c229c6a00a264697066735822122049524d13f12c097502037d666f9dcdb1803dd2abea839af02495dc2ff5341e5964736f6c63430008140033","linkReferences":{}},"methodIdentifiers":{"SEND()":"1f5e1334","SEND_AND_CALL()":"134d4f25","UPGRADE_INTERFACE_VERSION()":"ad3cb1cc","__OAppOptionsType3_init(address)":"95e99458","__OAppPreCrimeSimulator_init(address)":"6013987f","__OFTCore_init(uint8,address,address)":"d00c06cc","__OFT_init(string,string,address,address)":"2f86121b","allowInitializePath((uint32,bytes32,uint64))":"ff7bd03d","allowance(address,address)":"dd62ed3e","approvalRequired()":"9f68b964","approve(address,uint256)":"095ea7b3","balanceOf(address)":"70a08231","burn(uint256)":"42966c68","burnFrom(address,uint256)":"79cc6790","burnFromUser(address,uint256)":"c753e126","combineOptions(uint32,uint16,bytes)":"bc70b354","decimalConversionRate()":"963efcaa","decimals()":"313ce567","endpoint()":"5e280f11","enforcedOptions(uint32,uint16)":"5535d461","initialize(address,address)":"485cc955","isComposeMsgSender((uint32,bytes32,uint64),bytes,address)":"82413eac","isPeer(uint32,bytes32)":"5a0dfe4d","lzReceive((uint32,bytes32,uint64),bytes32,bytes,address,bytes)":"13137d65","lzReceiveAndRevert(((uint32,bytes32,uint64),uint32,address,bytes32,uint256,address,bytes,bytes)[])":"bd815db0","lzReceiveSimulate((uint32,bytes32,uint64),bytes32,bytes,address,bytes)":"d045a0dc","mint(address,uint256)":"40c10f19","msgInspector()":"111ecdad","name()":"06fdde03","nextNonce(uint32,bytes32)":"7d25a05e","oApp()":"52ae2879","oAppVersion()":"17442b70","oftVersion()":"156a0d0f","owner()":"8da5cb5b","pause()":"8456cb59","paused()":"5c975abb","peers(uint32)":"bb0b6a53","preCrime()":"b731ea0a","proxiableUUID()":"52d1902d","quoteOFT((uint32,bytes32,uint256,uint256,bytes,bytes,bytes))":"0d35b415","quoteSend((uint32,bytes32,uint256,uint256,bytes,bytes,bytes),bool)":"3b6f743b","renounceOwnership()":"715018a6","send((uint32,bytes32,uint256,uint256,bytes,bytes,bytes),(uint256,uint256),address)":"c7c7f5b3","setDelegate(address)":"ca5eb5e1","setDstEid(uint32)":"0d14c92e","setEnforcedOptions((uint32,uint16,bytes)[])":"b98bd070","setMsgInspector(address)":"6fc1b31e","setPeer(uint32,bytes32)":"3400288b","setPreCrime(address)":"d4243885","sharedDecimals()":"857749b0","symbol()":"95d89b41","token()":"fc0c546a","totalSupply()":"18160ddd","transfer(address,uint256)":"a9059cbb","transferFrom(address,address,uint256)":"23b872dd","transferOwnership(address)":"f2fde38b","unpause()":"3f4ba83a","upgradeToAndCall(address,bytes)":"4f1ef286"},"storageLayout":{"storage":[{"astId":175,"contract":"contracts/TestContracts/CopyUsdt.sol:TestUSDT","label":"whitelist","offset":0,"slot":"0","type":"t_mapping(t_address,t_bool)"},{"astId":245,"contract":"contracts/TestContracts/CopyUsdt.sol:TestUSDT","label":"endpoint","offset":0,"slot":"1","type":"t_contract(ILayerZeroEndpointV2)2911"},{"astId":249,"contract":"contracts/TestContracts/CopyUsdt.sol:TestUSDT","label":"peers","offset":0,"slot":"2","type":"t_mapping(t_uint32,t_bytes32)"},{"astId":2251,"contract":"contracts/TestContracts/CopyUsdt.sol:TestUSDT","label":"preCrime","offset":0,"slot":"3","type":"t_address"},{"astId":884,"contract":"contracts/TestContracts/CopyUsdt.sol:TestUSDT","label":"enforcedOptions","offset":0,"slot":"4","type":"t_mapping(t_uint32,t_mapping(t_uint16,t_bytes_storage))"},{"astId":1198,"contract":"contracts/TestContracts/CopyUsdt.sol:TestUSDT","label":"decimalConversionRate","offset":0,"slot":"5","type":"t_uint256"},{"astId":1206,"contract":"contracts/TestContracts/CopyUsdt.sol:TestUSDT","label":"msgInspector","offset":0,"slot":"6","type":"t_address"},{"astId":27,"contract":"contracts/TestContracts/CopyUsdt.sol:TestUSDT","label":"dstEid","offset":20,"slot":"6","type":"t_uint32"}],"types":{"t_address":{"encoding":"inplace","label":"address","numberOfBytes":"20"},"t_bool":{"encoding":"inplace","label":"bool","numberOfBytes":"1"},"t_bytes32":{"encoding":"inplace","label":"bytes32","numberOfBytes":"32"},"t_bytes_storage":{"encoding":"bytes","label":"bytes","numberOfBytes":"32"},"t_contract(ILayerZeroEndpointV2)2911":{"encoding":"inplace","label":"contract ILayerZeroEndpointV2","numberOfBytes":"20"},"t_mapping(t_address,t_bool)":{"encoding":"mapping","key":"t_address","label":"mapping(address => bool)","numberOfBytes":"32","value":"t_bool"},"t_mapping(t_uint16,t_bytes_storage)":{"encoding":"mapping","key":"t_uint16","label":"mapping(uint16 => bytes)","numberOfBytes":"32","value":"t_bytes_storage"},"t_mapping(t_uint32,t_bytes32)":{"encoding":"mapping","key":"t_uint32","label":"mapping(uint32 => bytes32)","numberOfBytes":"32","value":"t_bytes32"},"t_mapping(t_uint32,t_mapping(t_uint16,t_bytes_storage))":{"encoding":"mapping","key":"t_uint32","label":"mapping(uint32 => mapping(uint16 => bytes))","numberOfBytes":"32","value":"t_mapping(t_uint16,t_bytes_storage)"},"t_uint16":{"encoding":"inplace","label":"uint16","numberOfBytes":"2"},"t_uint256":{"encoding":"inplace","label":"uint256","numberOfBytes":"32"},"t_uint32":{"encoding":"inplace","label":"uint32","numberOfBytes":"4"}}},"id":0}