{"abi":[{"type":"function","name":"UPGRADE_INTERFACE_VERSION","inputs":[],"outputs":[{"name":"","type":"string","internalType":"string"}],"stateMutability":"view"},{"type":"function","name":"allowance","inputs":[{"name":"owner","type":"address","internalType":"address"},{"name":"spender","type":"address","internalType":"address"}],"outputs":[{"name":"","type":"uint256","internalType":"uint256"}],"stateMutability":"view"},{"type":"function","name":"approve","inputs":[{"name":"spender","type":"address","internalType":"address"},{"name":"value","type":"uint256","internalType":"uint256"}],"outputs":[{"name":"","type":"bool","internalType":"bool"}],"stateMutability":"nonpayable"},{"type":"function","name":"balanceOf","inputs":[{"name":"account","type":"address","internalType":"address"}],"outputs":[{"name":"","type":"uint256","internalType":"uint256"}],"stateMutability":"view"},{"type":"function","name":"burn","inputs":[{"name":"value","type":"uint256","internalType":"uint256"}],"outputs":[],"stateMutability":"nonpayable"},{"type":"function","name":"burnFrom","inputs":[{"name":"account","type":"address","internalType":"address"},{"name":"value","type":"uint256","internalType":"uint256"}],"outputs":[],"stateMutability":"nonpayable"},{"type":"function","name":"burnFromUser","inputs":[{"name":"to","type":"address","internalType":"address"},{"name":"amount","type":"uint256","internalType":"uint256"}],"outputs":[{"name":"","type":"bool","internalType":"bool"}],"stateMutability":"nonpayable"},{"type":"function","name":"decimals","inputs":[],"outputs":[{"name":"","type":"uint8","internalType":"uint8"}],"stateMutability":"pure"},{"type":"function","name":"initialize","inputs":[],"outputs":[],"stateMutability":"nonpayable"},{"type":"function","name":"mint","inputs":[{"name":"to","type":"address","internalType":"address"},{"name":"amount","type":"uint256","internalType":"uint256"}],"outputs":[{"name":"","type":"bool","internalType":"bool"}],"stateMutability":"nonpayable"},{"type":"function","name":"name","inputs":[],"outputs":[{"name":"","type":"string","internalType":"string"}],"stateMutability":"view"},{"type":"function","name":"owner","inputs":[],"outputs":[{"name":"","type":"address","internalType":"address"}],"stateMutability":"view"},{"type":"function","name":"pause","inputs":[],"outputs":[],"stateMutability":"nonpayable"},{"type":"function","name":"paused","inputs":[],"outputs":[{"name":"","type":"bool","internalType":"bool"}],"stateMutability":"view"},{"type":"function","name":"proxiableUUID","inputs":[],"outputs":[{"name":"","type":"bytes32","internalType":"bytes32"}],"stateMutability":"view"},{"type":"function","name":"renounceOwnership","inputs":[],"outputs":[],"stateMutability":"nonpayable"},{"type":"function","name":"symbol","inputs":[],"outputs":[{"name":"","type":"string","internalType":"string"}],"stateMutability":"view"},{"type":"function","name":"totalSupply","inputs":[],"outputs":[{"name":"","type":"uint256","internalType":"uint256"}],"stateMutability":"view"},{"type":"function","name":"transfer","inputs":[{"name":"to","type":"address","internalType":"address"},{"name":"value","type":"uint256","internalType":"uint256"}],"outputs":[{"name":"","type":"bool","internalType":"bool"}],"stateMutability":"nonpayable"},{"type":"function","name":"transferFrom","inputs":[{"name":"from","type":"address","internalType":"address"},{"name":"to","type":"address","internalType":"address"},{"name":"value","type":"uint256","internalType":"uint256"}],"outputs":[{"name":"","type":"bool","internalType":"bool"}],"stateMutability":"nonpayable"},{"type":"function","name":"transferOwnership","inputs":[{"name":"newOwner","type":"address","internalType":"address"}],"outputs":[],"stateMutability":"nonpayable"},{"type":"function","name":"unpause","inputs":[],"outputs":[],"stateMutability":"nonpayable"},{"type":"function","name":"upgradeToAndCall","inputs":[{"name":"newImplementation","type":"address","internalType":"address"},{"name":"data","type":"bytes","internalType":"bytes"}],"outputs":[],"stateMutability":"payable"},{"type":"event","name":"Approval","inputs":[{"name":"owner","type":"address","indexed":true,"internalType":"address"},{"name":"spender","type":"address","indexed":true,"internalType":"address"},{"name":"value","type":"uint256","indexed":false,"internalType":"uint256"}],"anonymous":false},{"type":"event","name":"Initialized","inputs":[{"name":"version","type":"uint64","indexed":false,"internalType":"uint64"}],"anonymous":false},{"type":"event","name":"OwnershipTransferred","inputs":[{"name":"previousOwner","type":"address","indexed":true,"internalType":"address"},{"name":"newOwner","type":"address","indexed":true,"internalType":"address"}],"anonymous":false},{"type":"event","name":"Paused","inputs":[{"name":"account","type":"address","indexed":false,"internalType":"address"}],"anonymous":false},{"type":"event","name":"Transfer","inputs":[{"name":"from","type":"address","indexed":true,"internalType":"address"},{"name":"to","type":"address","indexed":true,"internalType":"address"},{"name":"value","type":"uint256","indexed":false,"internalType":"uint256"}],"anonymous":false},{"type":"event","name":"Unpaused","inputs":[{"name":"account","type":"address","indexed":false,"internalType":"address"}],"anonymous":false},{"type":"event","name":"Upgraded","inputs":[{"name":"implementation","type":"address","indexed":true,"internalType":"address"}],"anonymous":false},{"type":"error","name":"AddressEmptyCode","inputs":[{"name":"target","type":"address","internalType":"address"}]},{"type":"error","name":"ERC1967InvalidImplementation","inputs":[{"name":"implementation","type":"address","internalType":"address"}]},{"type":"error","name":"ERC1967NonPayable","inputs":[]},{"type":"error","name":"ERC20InsufficientAllowance","inputs":[{"name":"spender","type":"address","internalType":"address"},{"name":"allowance","type":"uint256","internalType":"uint256"},{"name":"needed","type":"uint256","internalType":"uint256"}]},{"type":"error","name":"ERC20InsufficientBalance","inputs":[{"name":"sender","type":"address","internalType":"address"},{"name":"balance","type":"uint256","internalType":"uint256"},{"name":"needed","type":"uint256","internalType":"uint256"}]},{"type":"error","name":"ERC20InvalidApprover","inputs":[{"name":"approver","type":"address","internalType":"address"}]},{"type":"error","name":"ERC20InvalidReceiver","inputs":[{"name":"receiver","type":"address","internalType":"address"}]},{"type":"error","name":"ERC20InvalidSender","inputs":[{"name":"sender","type":"address","internalType":"address"}]},{"type":"error","name":"ERC20InvalidSpender","inputs":[{"name":"spender","type":"address","internalType":"address"}]},{"type":"error","name":"EnforcedPause","inputs":[]},{"type":"error","name":"ExpectedPause","inputs":[]},{"type":"error","name":"FailedInnerCall","inputs":[]},{"type":"error","name":"InvalidInitialization","inputs":[]},{"type":"error","name":"NotInitializing","inputs":[]},{"type":"error","name":"OwnableInvalidOwner","inputs":[{"name":"owner","type":"address","internalType":"address"}]},{"type":"error","name":"OwnableUnauthorizedAccount","inputs":[{"name":"account","type":"address","internalType":"address"}]},{"type":"error","name":"UUPSUnauthorizedCallContext","inputs":[]},{"type":"error","name":"UUPSUnsupportedProxiableUUID","inputs":[{"name":"slot","type":"bytes32","internalType":"bytes32"}]}],"bytecode":{"object":"0x60a06040523060805234801561001457600080fd5b5060805161169961003e60003960008181610a7401528181610a9d0152610bde01526116996000f3fe6080604052600436106101405760003560e01c806370a08231116100b657806395d89b411161006f57806395d89b41146103a7578063a9059cbb146103bc578063ad3cb1cc146103dc578063c753e1261461040d578063dd62ed3e1461042d578063f2fde38b1461044d57600080fd5b806370a08231146102be578063715018a61461030157806379cc6790146103165780638129fc1c146103365780638456cb591461034b5780638da5cb5b1461036057600080fd5b80633f4ba83a116101085780633f4ba83a1461021a57806340c10f191461023157806342966c68146102515780634f1ef2861461027157806352d1902d146102845780635c975abb1461029957600080fd5b806306fdde0314610145578063095ea7b31461017057806318160ddd146101a057806323b872dd146101de578063313ce567146101fe575b600080fd5b34801561015157600080fd5b5061015a61046d565b6040516101679190611271565b60405180910390f35b34801561017c57600080fd5b5061019061018b3660046112c0565b610530565b6040519015158152602001610167565b3480156101ac57600080fd5b507f52c63247e1f47db19d5ce0460030c497f067ca4cebf71ba98eeadabe20bace02545b604051908152602001610167565b3480156101ea57600080fd5b506101906101f93660046112ea565b61054a565b34801561020a57600080fd5b5060405160068152602001610167565b34801561022657600080fd5b5061022f610570565b005b34801561023d57600080fd5b5061019061024c3660046112c0565b610582565b34801561025d57600080fd5b5061022f61026c366004611326565b610597565b61022f61027f366004611355565b6105a4565b34801561029057600080fd5b506101d06105c3565b3480156102a557600080fd5b506000805160206116448339815191525460ff16610190565b3480156102ca57600080fd5b506101d06102d9366004611417565b6001600160a01b03166000908152600080516020611604833981519152602052604090205490565b34801561030d57600080fd5b5061022f6105e0565b34801561032257600080fd5b5061022f6103313660046112c0565b6105f2565b34801561034257600080fd5b5061022f610607565b34801561035757600080fd5b5061022f610778565b34801561036c57600080fd5b507f9016d09d72d40fdae2fd8ceac6b6234c7706214fd39c1cd1e609a0528c199300546040516001600160a01b039091168152602001610167565b3480156103b357600080fd5b5061015a610788565b3480156103c857600080fd5b506101906103d73660046112c0565b6107c7565b3480156103e857600080fd5b5061015a604051806040016040528060058152602001640352e302e360dc1b81525081565b34801561041957600080fd5b506101906104283660046112c0565b6107d5565b34801561043957600080fd5b506101d0610448366004611432565b6107e1565b34801561045957600080fd5b5061022f610468366004611417565b61082b565b7f52c63247e1f47db19d5ce0460030c497f067ca4cebf71ba98eeadabe20bace038054606091600080516020611604833981519152916104ac90611465565b80601f01602080910402602001604051908101604052809291908181526020018280546104d890611465565b80156105255780601f106104fa57610100808354040283529160200191610525565b820191906000526020600020905b81548152906001019060200180831161050857829003601f168201915b505050505091505090565b60003361053e81858561086b565b60019150505b92915050565b60003361055885828561087d565b6105638585856108e3565b60019150505b9392505050565b610578610942565b61058061099d565b565b600061058e83836109fd565b50600192915050565b6105a13382610a33565b50565b6105ac610a69565b6105b582610b0e565b6105bf8282610b16565b5050565b60006105cd610bd3565b5060008051602061162483398151915290565b6105e8610942565b6105806000610c1c565b6105fd82338361087d565b6105bf8282610a33565b7ff0c57e16840df040f15088dc2f81fe391c3923bec73e23a9662efc9c229c6a008054600160401b810460ff16159067ffffffffffffffff1660008115801561064d5750825b905060008267ffffffffffffffff16600114801561066a5750303b155b905081158015610678575080155b156106965760405163f92ee8a960e01b815260040160405180910390fd5b845467ffffffffffffffff1916600117855583156106c057845460ff60401b1916600160401b1785555b61070a6040518060400160405280600b81526020016a2a32b9ba102a32ba3432b960a91b81525060405180604001604052806005815260200164151554d11560da1b815250610c8d565b610712610c9f565b61071a610ca7565b61072333610cb7565b61072b610c9f565b831561077157845460ff60401b19168555604051600181527fc7f505b2f371ae2175ee4913f4499e1f2633a7b5936321eed1cdaeb6115181d29060200160405180910390a15b5050505050565b610780610942565b610580610cc8565b7f52c63247e1f47db19d5ce0460030c497f067ca4cebf71ba98eeadabe20bace048054606091600080516020611604833981519152916104ac90611465565b60003361053e8185856108e3565b600061058e83836105f2565b6001600160a01b0391821660009081527f52c63247e1f47db19d5ce0460030c497f067ca4cebf71ba98eeadabe20bace016020908152604080832093909416825291909152205490565b610833610942565b6001600160a01b03811661086257604051631e4fbdf760e01b8152600060048201526024015b60405180910390fd5b6105a181610c1c565b6108788383836001610d11565b505050565b600061088984846107e1565b905060001981146108dd57818110156108ce57604051637dc7a0d960e11b81526001600160a01b03841660048201526024810182905260448101839052606401610859565b6108dd84848484036000610d11565b50505050565b6001600160a01b03831661090d57604051634b637e8f60e11b815260006004820152602401610859565b6001600160a01b0382166109375760405163ec442f0560e01b815260006004820152602401610859565b610878838383610df8565b336109747f9016d09d72d40fdae2fd8ceac6b6234c7706214fd39c1cd1e609a0528c199300546001600160a01b031690565b6001600160a01b0316146105805760405163118cdaa760e01b8152336004820152602401610859565b6109a5610e03565b600080516020611644833981519152805460ff191681557f5db9ee0a495bf2e6ff9c91a7834c1ba4fdd244a5e8aa4e537bd38aeae4b073aa335b6040516001600160a01b03909116815260200160405180910390a150565b6001600160a01b038216610a275760405163ec442f0560e01b815260006004820152602401610859565b6105bf60008383610df8565b6001600160a01b038216610a5d57604051634b637e8f60e11b815260006004820152602401610859565b6105bf82600083610df8565b306001600160a01b037f0000000000000000000000000000000000000000000000000000000000000000161480610af057507f00000000000000000000000000000000000000000000000000000000000000006001600160a01b0316610ae4600080516020611624833981519152546001600160a01b031690565b6001600160a01b031614155b156105805760405163703e46dd60e11b815260040160405180910390fd5b6105a1610942565b816001600160a01b03166352d1902d6040518163ffffffff1660e01b8152600401602060405180830381865afa925050508015610b70575060408051601f3d908101601f19168201909252610b6d9181019061149f565b60015b610b9857604051634c9c8ce360e01b81526001600160a01b0383166004820152602401610859565b6000805160206116248339815191528114610bc957604051632a87526960e21b815260048101829052602401610859565b6108788383610e33565b306001600160a01b037f000000000000000000000000000000000000000000000000000000000000000016146105805760405163703e46dd60e11b815260040160405180910390fd5b7f9016d09d72d40fdae2fd8ceac6b6234c7706214fd39c1cd1e609a0528c19930080546001600160a01b031981166001600160a01b03848116918217845560405192169182907f8be0079c531659141344cd1fd0a4f28419497f9722a3daafe3b4186f6b6457e090600090a3505050565b610c95610e89565b6105bf8282610ed2565b610580610e89565b610caf610e89565b610580610f23565b610cbf610e89565b6105a181610f44565b610cd0610f4c565b600080516020611644833981519152805460ff191660011781557f62e78cea01bee320cd4e420270b5ea74000d11b0c9f74754ebdbfc544b05a258336109df565b6000805160206116048339815191526001600160a01b038516610d4a5760405163e602df0560e01b815260006004820152602401610859565b6001600160a01b038416610d7457604051634a1406b160e11b815260006004820152602401610859565b6001600160a01b0380861660009081526001830160209081526040808320938816835292905220839055811561077157836001600160a01b0316856001600160a01b03167f8c5be1e5ebec7d5bd14f71427d1e84f3dd0314c0f7b2291e5b200ac8c7c3b92585604051610de991815260200190565b60405180910390a35050505050565b610878838383610f7d565b6000805160206116448339815191525460ff1661058057604051638dfc202b60e01b815260040160405180910390fd5b610e3c82610f90565b6040516001600160a01b038316907fbc7cd75a20ee27fd9adebab32041f755214dbc6bffa90cc0225b39da2e5c2d3b90600090a2805115610e81576108788282610ff5565b6105bf61106b565b7ff0c57e16840df040f15088dc2f81fe391c3923bec73e23a9662efc9c229c6a0054600160401b900460ff1661058057604051631afcd79f60e31b815260040160405180910390fd5b610eda610e89565b6000805160206116048339815191527f52c63247e1f47db19d5ce0460030c497f067ca4cebf71ba98eeadabe20bace03610f148482611506565b50600481016108dd8382611506565b610f2b610e89565b600080516020611644833981519152805460ff19169055565b610833610e89565b6000805160206116448339815191525460ff16156105805760405163d93c066560e01b815260040160405180910390fd5b610f85610f4c565b61087883838361108a565b806001600160a01b03163b600003610fc657604051634c9c8ce360e01b81526001600160a01b0382166004820152602401610859565b60008051602061162483398151915280546001600160a01b0319166001600160a01b0392909216919091179055565b6060600080846001600160a01b03168460405161101291906115c6565b600060405180830381855af49150503d806000811461104d576040519150601f19603f3d011682016040523d82523d6000602084013e611052565b606091505b50915091506110628583836111c8565b95945050505050565b34156105805760405163b398979f60e01b815260040160405180910390fd5b6000805160206116048339815191526001600160a01b0384166110c657818160020160008282546110bb91906115e2565b909155506111389050565b6001600160a01b038416600090815260208290526040902054828110156111195760405163391434e360e21b81526001600160a01b03861660048201526024810182905260448101849052606401610859565b6001600160a01b03851660009081526020839052604090209083900390555b6001600160a01b038316611156576002810180548390039055611175565b6001600160a01b03831660009081526020829052604090208054830190555b826001600160a01b0316846001600160a01b03167fddf252ad1be2c89b69c2b068fc378daa952ba7f163c4a11628f55a4df523b3ef846040516111ba91815260200190565b60405180910390a350505050565b6060826111dd576111d882611224565b610569565b81511580156111f457506001600160a01b0384163b155b1561121d57604051639996b31560e01b81526001600160a01b0385166004820152602401610859565b5080610569565b8051156112345780518082602001fd5b604051630a12f52160e11b815260040160405180910390fd5b60005b83811015611268578181015183820152602001611250565b50506000910152565b602081526000825180602084015261129081604085016020870161124d565b601f01601f19169190910160400192915050565b80356001600160a01b03811681146112bb57600080fd5b919050565b600080604083850312156112d357600080fd5b6112dc836112a4565b946020939093013593505050565b6000806000606084860312156112ff57600080fd5b611308846112a4565b9250611316602085016112a4565b9150604084013590509250925092565b60006020828403121561133857600080fd5b5035919050565b634e487b7160e01b600052604160045260246000fd5b6000806040838503121561136857600080fd5b611371836112a4565b9150602083013567ffffffffffffffff8082111561138e57600080fd5b818501915085601f8301126113a257600080fd5b8135818111156113b4576113b461133f565b604051601f8201601f19908116603f011681019083821181831017156113dc576113dc61133f565b816040528281528860208487010111156113f557600080fd5b8260208601602083013760006020848301015280955050505050509250929050565b60006020828403121561142957600080fd5b610569826112a4565b6000806040838503121561144557600080fd5b61144e836112a4565b915061145c602084016112a4565b90509250929050565b600181811c9082168061147957607f821691505b60208210810361149957634e487b7160e01b600052602260045260246000fd5b50919050565b6000602082840312156114b157600080fd5b5051919050565b601f82111561087857600081815260208120601f850160051c810160208610156114df5750805b601f850160051c820191505b818110156114fe578281556001016114eb565b505050505050565b815167ffffffffffffffff8111156115205761152061133f565b6115348161152e8454611465565b846114b8565b602080601f83116001811461156957600084156115515750858301515b600019600386901b1c1916600185901b1785556114fe565b600085815260208120601f198616915b8281101561159857888601518255948401946001909101908401611579565b50858210156115b65787850151600019600388901b60f8161c191681555b5050505050600190811b01905550565b600082516115d881846020870161124d565b9190910192915050565b8082018082111561054457634e487b7160e01b600052601160045260246000fdfe52c63247e1f47db19d5ce0460030c497f067ca4cebf71ba98eeadabe20bace00360894a13ba1a3210667c828492db98dca3e2076cc3735a920a3ca505d382bbccd5ed15c6e187e77e9aee88184c21f4f2182ab5827cb3b7e07fbedcd63f03300a2646970667358221220e37220e63adc3072d1273d3d6e14804b72dd2ad641a53ce71427b1f50091b7c564736f6c63430008140033","linkReferences":{}},"methodIdentifiers":{"UPGRADE_INTERFACE_VERSION()":"ad3cb1cc","allowance(address,address)":"dd62ed3e","approve(address,uint256)":"095ea7b3","balanceOf(address)":"70a08231","burn(uint256)":"42966c68","burnFrom(address,uint256)":"79cc6790","burnFromUser(address,uint256)":"c753e126","decimals()":"313ce567","initialize()":"8129fc1c","mint(address,uint256)":"40c10f19","name()":"06fdde03","owner()":"8da5cb5b","pause()":"8456cb59","paused()":"5c975abb","proxiableUUID()":"52d1902d","renounceOwnership()":"715018a6","symbol()":"95d89b41","totalSupply()":"18160ddd","transfer(address,uint256)":"a9059cbb","transferFrom(address,address,uint256)":"23b872dd","transferOwnership(address)":"f2fde38b","unpause()":"3f4ba83a","upgradeToAndCall(address,bytes)":"4f1ef286"},"id":6}