{"abi":[{"type":"function","name":"SEND","inputs":[],"outputs":[{"name":"","type":"uint16","internalType":"uint16"}],"stateMutability":"view"},{"type":"function","name":"SEND_AND_CALL","inputs":[],"outputs":[{"name":"","type":"uint16","internalType":"uint16"}],"stateMutability":"view"},{"type":"function","name":"UPGRADE_INTERFACE_VERSION","inputs":[],"outputs":[{"name":"","type":"string","internalType":"string"}],"stateMutability":"view"},{"type":"function","name":"__OAppOptionsType3_init","inputs":[{"name":"_owner","type":"address","internalType":"address"}],"outputs":[],"stateMutability":"nonpayable"},{"type":"function","name":"__OAppPreCrimeSimulator_init","inputs":[{"name":"_owner","type":"address","internalType":"address"}],"outputs":[],"stateMutability":"nonpayable"},{"type":"function","name":"__OFTCore_init","inputs":[{"name":"_localDecimals","type":"uint8","internalType":"uint8"},{"name":"_endpoint","type":"address","internalType":"address"},{"name":"_delegate","type":"address","internalType":"address"}],"outputs":[],"stateMutability":"nonpayable"},{"type":"function","name":"__OFT_init","inputs":[{"name":"_name","type":"string","internalType":"string"},{"name":"_symbol","type":"string","internalType":"string"},{"name":"_lzEndpoint","type":"address","internalType":"address"},{"name":"_delegate","type":"address","internalType":"address"}],"outputs":[],"stateMutability":"nonpayable"},{"type":"function","name":"allowInitializePath","inputs":[{"name":"origin","type":"tuple","internalType":"struct Origin","components":[{"name":"srcEid","type":"uint32","internalType":"uint32"},{"name":"sender","type":"bytes32","internalType":"bytes32"},{"name":"nonce","type":"uint64","internalType":"uint64"}]}],"outputs":[{"name":"","type":"bool","internalType":"bool"}],"stateMutability":"view"},{"type":"function","name":"allowance","inputs":[{"name":"owner","type":"address","internalType":"address"},{"name":"spender","type":"address","internalType":"address"}],"outputs":[{"name":"","type":"uint256","internalType":"uint256"}],"stateMutability":"view"},{"type":"function","name":"approvalRequired","inputs":[],"outputs":[{"name":"","type":"bool","internalType":"bool"}],"stateMutability":"pure"},{"type":"function","name":"approve","inputs":[{"name":"spender","type":"address","internalType":"address"},{"name":"value","type":"uint256","internalType":"uint256"}],"outputs":[{"name":"","type":"bool","internalType":"bool"}],"stateMutability":"nonpayable"},{"type":"function","name":"balanceOf","inputs":[{"name":"account","type":"address","internalType":"address"}],"outputs":[{"name":"","type":"uint256","internalType":"uint256"}],"stateMutability":"view"},{"type":"function","name":"burn","inputs":[{"name":"value","type":"uint256","internalType":"uint256"}],"outputs":[],"stateMutability":"nonpayable"},{"type":"function","name":"burnFrom","inputs":[{"name":"account","type":"address","internalType":"address"},{"name":"value","type":"uint256","internalType":"uint256"}],"outputs":[],"stateMutability":"nonpayable"},{"type":"function","name":"burnFromUser","inputs":[{"name":"to","type":"address","internalType":"address"},{"name":"amount","type":"uint256","internalType":"uint256"}],"outputs":[{"name":"","type":"bool","internalType":"bool"}],"stateMutability":"nonpayable"},{"type":"function","name":"combineOptions","inputs":[{"name":"_eid","type":"uint32","internalType":"uint32"},{"name":"_msgType","type":"uint16","internalType":"uint16"},{"name":"_extraOptions","type":"bytes","internalType":"bytes"}],"outputs":[{"name":"","type":"bytes","internalType":"bytes"}],"stateMutability":"view"},{"type":"function","name":"decimalConversionRate","inputs":[],"outputs":[{"name":"","type":"uint256","internalType":"uint256"}],"stateMutability":"view"},{"type":"function","name":"decimals","inputs":[],"outputs":[{"name":"","type":"uint8","internalType":"uint8"}],"stateMutability":"pure"},{"type":"function","name":"endpoint","inputs":[],"outputs":[{"name":"","type":"address","internalType":"contract ILayerZeroEndpointV2"}],"stateMutability":"view"},{"type":"function","name":"enforcedOptions","inputs":[{"name":"eid","type":"uint32","internalType":"uint32"},{"name":"msgType","type":"uint16","internalType":"uint16"}],"outputs":[{"name":"enforcedOption","type":"bytes","internalType":"bytes"}],"stateMutability":"view"},{"type":"function","name":"initialize","inputs":[{"name":"_lzEndpoint","type":"address","internalType":"address"},{"name":"_delegate","type":"address","internalType":"address"}],"outputs":[],"stateMutability":"nonpayable"},{"type":"function","name":"isComposeMsgSender","inputs":[{"name":"","type":"tuple","internalType":"struct Origin","components":[{"name":"srcEid","type":"uint32","internalType":"uint32"},{"name":"sender","type":"bytes32","internalType":"bytes32"},{"name":"nonce","type":"uint64","internalType":"uint64"}]},{"name":"","type":"bytes","internalType":"bytes"},{"name":"_sender","type":"address","internalType":"address"}],"outputs":[{"name":"","type":"bool","internalType":"bool"}],"stateMutability":"view"},{"type":"function","name":"isPeer","inputs":[{"name":"_eid","type":"uint32","internalType":"uint32"},{"name":"_peer","type":"bytes32","internalType":"bytes32"}],"outputs":[{"name":"","type":"bool","internalType":"bool"}],"stateMutability":"view"},{"type":"function","name":"lzReceive","inputs":[{"name":"_origin","type":"tuple","internalType":"struct Origin","components":[{"name":"srcEid","type":"uint32","internalType":"uint32"},{"name":"sender","type":"bytes32","internalType":"bytes32"},{"name":"nonce","type":"uint64","internalType":"uint64"}]},{"name":"_guid","type":"bytes32","internalType":"bytes32"},{"name":"_message","type":"bytes","internalType":"bytes"},{"name":"_executor","type":"address","internalType":"address"},{"name":"_extraData","type":"bytes","internalType":"bytes"}],"outputs":[],"stateMutability":"payable"},{"type":"function","name":"lzReceiveAndRevert","inputs":[{"name":"_packets","type":"tuple[]","internalType":"struct InboundPacket[]","components":[{"name":"origin","type":"tuple","internalType":"struct Origin","components":[{"name":"srcEid","type":"uint32","internalType":"uint32"},{"name":"sender","type":"bytes32","internalType":"bytes32"},{"name":"nonce","type":"uint64","internalType":"uint64"}]},{"name":"dstEid","type":"uint32","internalType":"uint32"},{"name":"receiver","type":"address","internalType":"address"},{"name":"guid","type":"bytes32","internalType":"bytes32"},{"name":"value","type":"uint256","internalType":"uint256"},{"name":"executor","type":"address","internalType":"address"},{"name":"message","type":"bytes","internalType":"bytes"},{"name":"extraData","type":"bytes","internalType":"bytes"}]}],"outputs":[],"stateMutability":"payable"},{"type":"function","name":"lzReceiveSimulate","inputs":[{"name":"_origin","type":"tuple","internalType":"struct Origin","components":[{"name":"srcEid","type":"uint32","internalType":"uint32"},{"name":"sender","type":"bytes32","internalType":"bytes32"},{"name":"nonce","type":"uint64","internalType":"uint64"}]},{"name":"_guid","type":"bytes32","internalType":"bytes32"},{"name":"_message","type":"bytes","internalType":"bytes"},{"name":"_executor","type":"address","internalType":"address"},{"name":"_extraData","type":"bytes","internalType":"bytes"}],"outputs":[],"stateMutability":"payable"},{"type":"function","name":"mint","inputs":[{"name":"to","type":"address","internalType":"address"},{"name":"amount","type":"uint256","internalType":"uint256"}],"outputs":[{"name":"","type":"bool","internalType":"bool"}],"stateMutability":"nonpayable"},{"type":"function","name":"msgInspector","inputs":[],"outputs":[{"name":"","type":"address","internalType":"address"}],"stateMutability":"view"},{"type":"function","name":"name","inputs":[],"outputs":[{"name":"","type":"string","internalType":"string"}],"stateMutability":"view"},{"type":"function","name":"nextNonce","inputs":[{"name":"","type":"uint32","internalType":"uint32"},{"name":"","type":"bytes32","internalType":"bytes32"}],"outputs":[{"name":"nonce","type":"uint64","internalType":"uint64"}],"stateMutability":"view"},{"type":"function","name":"oApp","inputs":[],"outputs":[{"name":"","type":"address","internalType":"address"}],"stateMutability":"view"},{"type":"function","name":"oAppVersion","inputs":[],"outputs":[{"name":"senderVersion","type":"uint64","internalType":"uint64"},{"name":"receiverVersion","type":"uint64","internalType":"uint64"}],"stateMutability":"pure"},{"type":"function","name":"oftVersion","inputs":[],"outputs":[{"name":"interfaceId","type":"bytes4","internalType":"bytes4"},{"name":"version","type":"uint64","internalType":"uint64"}],"stateMutability":"pure"},{"type":"function","name":"owner","inputs":[],"outputs":[{"name":"","type":"address","internalType":"address"}],"stateMutability":"view"},{"type":"function","name":"pause","inputs":[],"outputs":[],"stateMutability":"nonpayable"},{"type":"function","name":"paused","inputs":[],"outputs":[{"name":"","type":"bool","internalType":"bool"}],"stateMutability":"view"},{"type":"function","name":"peers","inputs":[{"name":"eid","type":"uint32","internalType":"uint32"}],"outputs":[{"name":"peer","type":"bytes32","internalType":"bytes32"}],"stateMutability":"view"},{"type":"function","name":"preCrime","inputs":[],"outputs":[{"name":"","type":"address","internalType":"address"}],"stateMutability":"view"},{"type":"function","name":"proxiableUUID","inputs":[],"outputs":[{"name":"","type":"bytes32","internalType":"bytes32"}],"stateMutability":"view"},{"type":"function","name":"quoteOFT","inputs":[{"name":"_sendParam","type":"tuple","internalType":"struct SendParam","components":[{"name":"dstEid","type":"uint32","internalType":"uint32"},{"name":"to","type":"bytes32","internalType":"bytes32"},{"name":"amountLD","type":"uint256","internalType":"uint256"},{"name":"minAmountLD","type":"uint256","internalType":"uint256"},{"name":"extraOptions","type":"bytes","internalType":"bytes"},{"name":"composeMsg","type":"bytes","internalType":"bytes"},{"name":"oftCmd","type":"bytes","internalType":"bytes"}]}],"outputs":[{"name":"oftLimit","type":"tuple","internalType":"struct OFTLimit","components":[{"name":"minAmountLD","type":"uint256","internalType":"uint256"},{"name":"maxAmountLD","type":"uint256","internalType":"uint256"}]},{"name":"oftFeeDetails","type":"tuple[]","internalType":"struct OFTFeeDetail[]","components":[{"name":"feeAmountLD","type":"int256","internalType":"int256"},{"name":"description","type":"string","internalType":"string"}]},{"name":"oftReceipt","type":"tuple","internalType":"struct OFTReceipt","components":[{"name":"amountSentLD","type":"uint256","internalType":"uint256"},{"name":"amountReceivedLD","type":"uint256","internalType":"uint256"}]}],"stateMutability":"view"},{"type":"function","name":"quoteSend","inputs":[{"name":"_sendParam","type":"tuple","internalType":"struct SendParam","components":[{"name":"dstEid","type":"uint32","internalType":"uint32"},{"name":"to","type":"bytes32","internalType":"bytes32"},{"name":"amountLD","type":"uint256","internalType":"uint256"},{"name":"minAmountLD","type":"uint256","internalType":"uint256"},{"name":"extraOptions","type":"bytes","internalType":"bytes"},{"name":"composeMsg","type":"bytes","internalType":"bytes"},{"name":"oftCmd","type":"bytes","internalType":"bytes"}]},{"name":"_payInLzToken","type":"bool","internalType":"bool"}],"outputs":[{"name":"msgFee","type":"tuple","internalType":"struct MessagingFee","components":[{"name":"nativeFee","type":"uint256","internalType":"uint256"},{"name":"lzTokenFee","type":"uint256","internalType":"uint256"}]}],"stateMutability":"view"},{"type":"function","name":"renounceOwnership","inputs":[],"outputs":[],"stateMutability":"nonpayable"},{"type":"function","name":"send","inputs":[{"name":"_sendParam","type":"tuple","internalType":"struct SendParam","components":[{"name":"dstEid","type":"uint32","internalType":"uint32"},{"name":"to","type":"bytes32","internalType":"bytes32"},{"name":"amountLD","type":"uint256","internalType":"uint256"},{"name":"minAmountLD","type":"uint256","internalType":"uint256"},{"name":"extraOptions","type":"bytes","internalType":"bytes"},{"name":"composeMsg","type":"bytes","internalType":"bytes"},{"name":"oftCmd","type":"bytes","internalType":"bytes"}]},{"name":"_fee","type":"tuple","internalType":"struct MessagingFee","components":[{"name":"nativeFee","type":"uint256","internalType":"uint256"},{"name":"lzTokenFee","type":"uint256","internalType":"uint256"}]},{"name":"_refundAddress","type":"address","internalType":"address"}],"outputs":[{"name":"msgReceipt","type":"tuple","internalType":"struct MessagingReceipt","components":[{"name":"guid","type":"bytes32","internalType":"bytes32"},{"name":"nonce","type":"uint64","internalType":"uint64"},{"name":"fee","type":"tuple","internalType":"struct MessagingFee","components":[{"name":"nativeFee","type":"uint256","internalType":"uint256"},{"name":"lzTokenFee","type":"uint256","internalType":"uint256"}]}]},{"name":"oftReceipt","type":"tuple","internalType":"struct OFTReceipt","components":[{"name":"amountSentLD","type":"uint256","internalType":"uint256"},{"name":"amountReceivedLD","type":"uint256","internalType":"uint256"}]}],"stateMutability":"payable"},{"type":"function","name":"setDelegate","inputs":[{"name":"_delegate","type":"address","internalType":"address"}],"outputs":[],"stateMutability":"nonpayable"},{"type":"function","name":"setDstEid","inputs":[{"name":"_eid","type":"uint32","internalType":"uint32"}],"outputs":[],"stateMutability":"nonpayable"},{"type":"function","name":"setEnforcedOptions","inputs":[{"name":"_enforcedOptions","type":"tuple[]","internalType":"struct EnforcedOptionParam[]","components":[{"name":"eid","type":"uint32","internalType":"uint32"},{"name":"msgType","type":"uint16","internalType":"uint16"},{"name":"options","type":"bytes","internalType":"bytes"}]}],"outputs":[],"stateMutability":"nonpayable"},{"type":"function","name":"setMsgInspector","inputs":[{"name":"_msgInspector","type":"address","internalType":"address"}],"outputs":[],"stateMutability":"nonpayable"},{"type":"function","name":"setPeer","inputs":[{"name":"_eid","type":"uint32","internalType":"uint32"},{"name":"_peer","type":"bytes32","internalType":"bytes32"}],"outputs":[],"stateMutability":"nonpayable"},{"type":"function","name":"setPreCrime","inputs":[{"name":"_preCrime","type":"address","internalType":"address"}],"outputs":[],"stateMutability":"nonpayable"},{"type":"function","name":"sharedDecimals","inputs":[],"outputs":[{"name":"","type":"uint8","internalType":"uint8"}],"stateMutability":"view"},{"type":"function","name":"symbol","inputs":[],"outputs":[{"name":"","type":"string","internalType":"string"}],"stateMutability":"view"},{"type":"function","name":"token","inputs":[],"outputs":[{"name":"","type":"address","internalType":"address"}],"stateMutability":"view"},{"type":"function","name":"totalSupply","inputs":[],"outputs":[{"name":"","type":"uint256","internalType":"uint256"}],"stateMutability":"view"},{"type":"function","name":"transfer","inputs":[{"name":"to","type":"address","internalType":"address"},{"name":"value","type":"uint256","internalType":"uint256"}],"outputs":[{"name":"","type":"bool","internalType":"bool"}],"stateMutability":"nonpayable"},{"type":"function","name":"transferFrom","inputs":[{"name":"from","type":"address","internalType":"address"},{"name":"to","type":"address","internalType":"address"},{"name":"value","type":"uint256","internalType":"uint256"}],"outputs":[{"name":"","type":"bool","internalType":"bool"}],"stateMutability":"nonpayable"},{"type":"function","name":"transferOwnership","inputs":[{"name":"newOwner","type":"address","internalType":"address"}],"outputs":[],"stateMutability":"nonpayable"},{"type":"function","name":"unpause","inputs":[],"outputs":[],"stateMutability":"nonpayable"},{"type":"function","name":"upgradeToAndCall","inputs":[{"name":"newImplementation","type":"address","internalType":"address"},{"name":"data","type":"bytes","internalType":"bytes"}],"outputs":[],"stateMutability":"payable"},{"type":"event","name":"Approval","inputs":[{"name":"owner","type":"address","indexed":true,"internalType":"address"},{"name":"spender","type":"address","indexed":true,"internalType":"address"},{"name":"value","type":"uint256","indexed":false,"internalType":"uint256"}],"anonymous":false},{"type":"event","name":"EnforcedOptionSet","inputs":[{"name":"_enforcedOptions","type":"tuple[]","indexed":false,"internalType":"struct EnforcedOptionParam[]","components":[{"name":"eid","type":"uint32","internalType":"uint32"},{"name":"msgType","type":"uint16","internalType":"uint16"},{"name":"options","type":"bytes","internalType":"bytes"}]}],"anonymous":false},{"type":"event","name":"Initialized","inputs":[{"name":"version","type":"uint64","indexed":false,"internalType":"uint64"}],"anonymous":false},{"type":"event","name":"MsgInspectorSet","inputs":[{"name":"inspector","type":"address","indexed":false,"internalType":"address"}],"anonymous":false},{"type":"event","name":"OFTReceived","inputs":[{"name":"guid","type":"bytes32","indexed":true,"internalType":"bytes32"},{"name":"srcEid","type":"uint32","indexed":false,"internalType":"uint32"},{"name":"toAddress","type":"address","indexed":true,"internalType":"address"},{"name":"amountReceivedLD","type":"uint256","indexed":false,"internalType":"uint256"}],"anonymous":false},{"type":"event","name":"OFTSent","inputs":[{"name":"guid","type":"bytes32","indexed":true,"internalType":"bytes32"},{"name":"dstEid","type":"uint32","indexed":false,"internalType":"uint32"},{"name":"fromAddress","type":"address","indexed":true,"internalType":"address"},{"name":"amountSentLD","type":"uint256","indexed":false,"internalType":"uint256"},{"name":"amountReceivedLD","type":"uint256","indexed":false,"internalType":"uint256"}],"anonymous":false},{"type":"event","name":"OwnershipTransferred","inputs":[{"name":"previousOwner","type":"address","indexed":true,"internalType":"address"},{"name":"newOwner","type":"address","indexed":true,"internalType":"address"}],"anonymous":false},{"type":"event","name":"Paused","inputs":[{"name":"account","type":"address","indexed":false,"internalType":"address"}],"anonymous":false},{"type":"event","name":"PeerSet","inputs":[{"name":"eid","type":"uint32","indexed":false,"internalType":"uint32"},{"name":"peer","type":"bytes32","indexed":false,"internalType":"bytes32"}],"anonymous":false},{"type":"event","name":"PreCrimeSet","inputs":[{"name":"preCrimeAddress","type":"address","indexed":false,"internalType":"address"}],"anonymous":false},{"type":"event","name":"Transfer","inputs":[{"name":"from","type":"address","indexed":true,"internalType":"address"},{"name":"to","type":"address","indexed":true,"internalType":"address"},{"name":"value","type":"uint256","indexed":false,"internalType":"uint256"}],"anonymous":false},{"type":"event","name":"Unpaused","inputs":[{"name":"account","type":"address","indexed":false,"internalType":"address"}],"anonymous":false},{"type":"event","name":"Upgraded","inputs":[{"name":"implementation","type":"address","indexed":true,"internalType":"address"}],"anonymous":false},{"type":"error","name":"AddressEmptyCode","inputs":[{"name":"target","type":"address","internalType":"address"}]},{"type":"error","name":"AddressInsufficientBalance","inputs":[{"name":"account","type":"address","internalType":"address"}]},{"type":"error","name":"ERC1967InvalidImplementation","inputs":[{"name":"implementation","type":"address","internalType":"address"}]},{"type":"error","name":"ERC1967NonPayable","inputs":[]},{"type":"error","name":"ERC20InsufficientAllowance","inputs":[{"name":"spender","type":"address","internalType":"address"},{"name":"allowance","type":"uint256","internalType":"uint256"},{"name":"needed","type":"uint256","internalType":"uint256"}]},{"type":"error","name":"ERC20InsufficientBalance","inputs":[{"name":"sender","type":"address","internalType":"address"},{"name":"balance","type":"uint256","internalType":"uint256"},{"name":"needed","type":"uint256","internalType":"uint256"}]},{"type":"error","name":"ERC20InvalidApprover","inputs":[{"name":"approver","type":"address","internalType":"address"}]},{"type":"error","name":"ERC20InvalidReceiver","inputs":[{"name":"receiver","type":"address","internalType":"address"}]},{"type":"error","name":"ERC20InvalidSender","inputs":[{"name":"sender","type":"address","internalType":"address"}]},{"type":"error","name":"ERC20InvalidSpender","inputs":[{"name":"spender","type":"address","internalType":"address"}]},{"type":"error","name":"EndPointUnavailable","inputs":[]},{"type":"error","name":"EnforcedPause","inputs":[]},{"type":"error","name":"ExpectedPause","inputs":[]},{"type":"error","name":"FailedInnerCall","inputs":[]},{"type":"error","name":"InvalidDelegate","inputs":[]},{"type":"error","name":"InvalidEndpointCall","inputs":[]},{"type":"error","name":"InvalidInitialization","inputs":[]},{"type":"error","name":"InvalidLocalDecimals","inputs":[]},{"type":"error","name":"InvalidOptions","inputs":[{"name":"options","type":"bytes","internalType":"bytes"}]},{"type":"error","name":"LzTokenUnavailable","inputs":[]},{"type":"error","name":"NoPeer","inputs":[{"name":"eid","type":"uint32","internalType":"uint32"}]},{"type":"error","name":"NotEnoughNative","inputs":[{"name":"msgValue","type":"uint256","internalType":"uint256"}]},{"type":"error","name":"NotInitializing","inputs":[]},{"type":"error","name":"OnlyEndpoint","inputs":[{"name":"addr","type":"address","internalType":"address"}]},{"type":"error","name":"OnlyPeer","inputs":[{"name":"eid","type":"uint32","internalType":"uint32"},{"name":"sender","type":"bytes32","internalType":"bytes32"}]},{"type":"error","name":"OnlySelf","inputs":[]},{"type":"error","name":"OwnableInvalidOwner","inputs":[{"name":"owner","type":"address","internalType":"address"}]},{"type":"error","name":"OwnableUnauthorizedAccount","inputs":[{"name":"account","type":"address","internalType":"address"}]},{"type":"error","name":"SafeERC20FailedOperation","inputs":[{"name":"token","type":"address","internalType":"address"}]},{"type":"error","name":"SimulationResult","inputs":[{"name":"result","type":"bytes","internalType":"bytes"}]},{"type":"error","name":"SlippageExceeded","inputs":[{"name":"amountLD","type":"uint256","internalType":"uint256"},{"name":"minAmountLD","type":"uint256","internalType":"uint256"}]},{"type":"error","name":"UUPSUnauthorizedCallContext","inputs":[]},{"type":"error","name":"UUPSUnsupportedProxiableUUID","inputs":[{"name":"slot","type":"bytes32","internalType":"bytes32"}]}],"bytecode":{"object":"0x60a0806040523461002a5730608052613a599081610030823960805181818161129601526113e90152f35b600080fdfe6080604052600436101561001257600080fd5b60003560e01c806306fdde03146103a8578063095ea7b3146103a35780630d14c92e1461039e5780630d35b41514610399578063111ecdad1461039457806313137d651461038f578063134d4f251461038a578063156a0d0f1461038557806317442b701461038057806318160ddd1461037b5780631f5e13341461037657806323b872dd146103715780632f86121b1461036c578063313ce567146103085780633400288b146103675780633b6f743b146103625780633f4ba83a1461035d57806340c10f191461035857806342966c6814610353578063485cc9551461034e5780634f1ef2861461034957806352ae28791461029f57806352d1902d146103445780635535d4611461033f5780635a0dfe4d1461033a5780635c975abb146103355780635e280f11146103305780636013987f146102f95780636fc1b31e1461032b57806370a0823114610326578063715018a61461032157806379cc67901461031c5780637d25a05e1461031757806382413eac146103125780638456cb591461030d578063857749b0146103085780638da5cb5b1461030357806395d89b41146102fe57806395e99458146102f9578063963efcaa146102f45780639f68b964146102ef578063a9059cbb146102ea578063ad3cb1cc146102e5578063b731ea0a146102e0578063b98bd070146102db578063bb0b6a53146102d6578063bc70b354146102d1578063bd815db0146102cc578063c753e126146102c7578063c7c7f5b3146102c2578063ca5eb5e1146102bd578063d00c06cc146102b8578063d045a0dc146102b3578063d4243885146102ae578063dd62ed3e146102a9578063f2fde38b146102a4578063fc0c546a1461029f5763ff7bd03d1461029a57600080fd5b612349565b6113bb565b612321565b6122fb565b61228b565b612146565b611fe6565b611f6f565b611e23565b611db2565b611c5c565b611c08565b611bcd565b611b04565b611a8f565b611a49565b611a1f565b611a03565b6119e5565b611687565b611951565b61191b565b610e15565b6118b4565b611856565b61182f565b6117fb565b611790565b611734565b6116c4565b61165e565b61162e565b6115e6565b611567565b6113d6565b611254565b61112e565b6110ec565b6110c3565b61104c565b610ec2565b610e31565b610cac565b610b1f565b610b03565b610ad8565b610ab6565b610a8f565b610a73565b610888565b6107bd565b610717565b6105d1565b6104fd565b610419565b60009103126103b857565b600080fd5b60005b8381106103d05750506000910152565b81810151838201526020016103c0565b906020916103f9815180928185528580860191016103bd565b601f01601f1916010190565b9060206104169281815201906103e0565b90565b346103b8576000806003193601126104e95760405181600080516020613904833981519152805461044981611461565b808552916001918083169081156104be5750600114610483575b61047f8561047381890382610c04565b60405191829182610405565b0390f35b835260208084209095505b8284106104ab575050508161047f93610473928201019338610463565b805485850187015292850192810161048e565b905061047f96506104739450602092508593915060ff191682840152151560051b8201019338610463565b80fd5b6001600160a01b038116036103b857565b346103b85760403660031901126103b85760043561051a816104ec565b60243533156105aa576001600160a01b03821691821561059157610559829161054233613486565b9060018060a01b0316600052602052604060002090565b556040519081527f8c5be1e5ebec7d5bd14f71427d1e84f3dd0314c0f7b2291e5b200ac8c7c3b92560203392a3602060405160018152f35b604051634a1406b160e11b815260006004820152602490fd5b60405163e602df0560e01b815260006004820152602490fd5b63ffffffff8116036103b857565b346103b85760203660031901126103b8576004356105ee816105c3565b6105f6613334565b63ffffffff811615610627576005805463ffffffff60a01b191660a09290921b63ffffffff60a01b16919091179055005b60405162461bcd60e51b81526020600482015260116024820152704549442063616e2774206265207a65726f60781b6044820152606490fd5b908160e09103126103b85790565b9392916106898560a081019360208091805184520151910152565b60409160a083870152815180915260c086019160c08260051b880101936020809201936000915b8483106106d8575050505050509060606106d69294019060208091805184520151910152565b565b90919293949584806107076001938d60bf1990820301875285838c5180518452015191818582015201906103e0565b98019301930191949392906106b0565b346103b85760203660031901126103b8576001600160401b036004358181116103b857610748903690600401610660565b90610751612aec565b5061075a612aec565b506040519061076882610b80565b60008252602082015261047f6107a16040519361078485610bce565b60008552610791816124dc565b5060406060820135910135613051565b6107a9610c25565b91825260208201526040519384938461066e565b346103b85760003660031901126103b8576005546040516001600160a01b039091168152602090f35b60609060031901126103b857600490565b9181601f840112156103b8578235916001600160401b0383116103b857602083818601950101116103b857565b600319810160e081126103b8576060136103b857600491606435916001600160401b03906084358281116103b8578161085e9187016107f7565b9390939260a43561086e816104ec565b9260c4359182116103b8576108849188016107f7565b9091565b61089136610824565b5050600080549095939493926001600160a01b0392509082163303610a5b5782356108bb816105c3565b6108c4816124e6565b906020850135809203610a26575050856108ed6108e18388613175565b6001600160a01b031690565b916109006108fb8289613181565b61301c565b809761090b876124dc565b5061091682866135d4565b60288311610966575b5050505061096061093e600080516020613984833981519152946124dc565b956040519384931696836020909392919363ffffffff60408201951681520152565b0390a380f35b90610991929161098b61097b60408a01612fd4565b936109858a6124dc565b92613193565b9261308d565b81546109a5906001600160a01b03166108e1565b90813b15610a225782916109d191604051948580948193633e5ac80960e11b83528c8a60048501612fde565b03925af18015610a1d57600080516020613984833981519152946109609261093e92610a04575b8891965089935061091f565b80610a11610a1792610bbb565b806103ad565b386109f8565b6124d0565b8280fd5b610a2f816105c3565b60405163309afaf360e21b815263ffffffff9190911660048201526024810191909152604490fd5b0390fd5b6040516391ac5e4f60e01b8152336004820152602490fd5b346103b85760003660031901126103b857602060405160028152f35b346103b85760003660031901126103b8576040805162b9270b60e21b815260016020820152f35b346103b85760003660031901126103b857604080516001815260026020820152f35b346103b85760003660031901126103b857602060008051602061396483398151915254604051908152f35b346103b85760003660031901126103b857602060405160018152f35b346103b85760603660031901126103b857610b5f600435610b3f816104ec565b602435610b4b816104ec565b60443591610b5a8333836136d9565b6134f8565b602060405160018152f35b634e487b7160e01b600052604160045260246000fd5b604081019081106001600160401b03821117610b9b57604052565b610b6a565b606081019081106001600160401b03821117610b9b57604052565b6001600160401b038111610b9b57604052565b602081019081106001600160401b03821117610b9b57604052565b60a081019081106001600160401b03821117610b9b57604052565b90601f801991011681019081106001600160401b03821117610b9b57604052565b604051906106d682610b80565b604051906106d682610be9565b6001600160401b038111610b9b57601f01601f191660200190565b929192610c6682610c3f565b91610c746040519384610c04565b8294818452818301116103b8578281602093846000960137010152565b9080601f830112156103b85781602061041693359101610c5a565b346103b85760803660031901126103b8576001600160401b036004358181116103b857610cdd903690600401610c91565b906024358181116103b857610cf6903690600401610c91565b9160443590610d04826104ec565b60643592610d11846104ec565b610d1961336d565b610d2161336d565b610d2961336d565b8151908111610b9b5760008051602061390483398151915291610d5582610d508554611461565b6125b1565b60209081601f8411600114610da457509180610d929492610d979894600092610d99575b50508160011b916000199060031b1c19161790556133ab565b612a0e565b005b015190503880610d79565b9190601f198416610db361149b565b936000905b828210610dfd575050926001928592610d979a96610d92989610610de4575b505050811b0190556133ab565b015160001960f88460031b161c19169055388080610dd7565b80600186978294978701518155019601940190610db8565b346103b85760003660031901126103b857602060405160068152f35b346103b85760403660031901126103b8577f238399d427b947898edb290f5ff0f9109849b1c3ba196a42e35f00c50a54b98b600435610e6f816105c3565b60243590610e7b613334565b63ffffffff8116600052600160205281604060002055610eb3604051928392836020909392919363ffffffff60408201951681520152565b0390a1005b801515036103b857565b346103b8576040806003193601126103b8576004356001600160401b0381116103b857610ef3903690600401610660565b90602435610f0081610eb8565b610f08612aec565b506060830135833593610f1a856105c3565b610f32600454610f2d8187850135613031565b613009565b9180831061102f575091610fb0610f4e610fcc96938695612ee6565b610f5a859492946105c3565b610f62612aec565b50600054610f78906001600160a01b03166108e1565b93610f82866124e6565b610f99610f8d610c32565b63ffffffff9098168852565b602087015286860152606085015215156080840152565b82518080968194631bb8518b60e31b8352309060048401612b41565b03915afa908115610a1d5761047f92600092611000575b505191829182815181526020918201519181019190915260400190565b816110219293503d8411611028575b6110198183610c04565b810190612b2d565b9038610fe3565b503d61100f565b826044918651916371c4efed60e01b835260048301526024820152fd5b346103b85760003660031901126103b857611065613334565b6000805160206139e4833981519152805460ff8116156110b15760ff191690557f5db9ee0a495bf2e6ff9c91a7834c1ba4fdd244a5e8aa4e537bd38aeae4b073aa6020604051338152a1005b604051638dfc202b60e01b8152600490fd5b346103b85760403660031901126103b857610b5f6004356110e3816104ec565b602435906135d4565b346103b85760203660031901126103b857610d9760043533613639565b60409060031901126103b857600435611121816104ec565b90602435610416816104ec565b346103b85761113c36611109565b90600080516020613a0483398151915254916001600160401b0360ff8460401c161593168015908161124c575b6001149081611242575b159081611239575b5061122757600080516020613a04833981519152805467ffffffffffffffff191660011790556111af91836112025761238f565b6111b557005b600080516020613a04833981519152805460ff60401b19169055604051600181527fc7f505b2f371ae2175ee4913f4499e1f2633a7b5936321eed1cdaeb6115181d2908060208101610eb3565b600080516020613a04833981519152805460ff60401b1916600160401b17905561238f565b60405163f92ee8a960e01b8152600490fd5b9050153861117b565b303b159150611173565b849150611169565b60403660031901126103b857600480359061126e826104ec565b6024356001600160401b0381116103b85761128c9036908301610c91565b6001600160a01b037f0000000000000000000000000000000000000000000000000000000000000000811630811490811561139f575b5061138e5790602083926112d4613334565b6040516352d1902d60e01b8152938491829088165afa6000928161135e575b50611321575050604051634c9c8ce360e01b81526001600160a01b0390921690820190815281906020010390fd5b83836000805160206139a4833981519152840361134257610d9783836137b2565b604051632a87526960e21b815290810184815281906020010390fd5b61138091935060203d8111611387575b6113788183610c04565b81019061339c565b91386112f3565b503d61136e565b60405163703e46dd60e11b81528390fd5b9050816000805160206139a483398151915254161415386112c2565b346103b85760003660031901126103b8576020604051308152f35b346103b85760003660031901126103b8577f00000000000000000000000000000000000000000000000000000000000000006001600160a01b0316300361142f5760206040516000805160206139a48339815191528152f35b60405163703e46dd60e11b8152600490fd5b6024359061ffff821682036103b857565b359061ffff821682036103b857565b90600182811c92168015611491575b602083101461147b57565b634e487b7160e01b600052602260045260246000fd5b91607f1691611470565b6000805160206139048339815191526000527f2ae08a8e29253f69ac5d979a101956ab8f8d9d7ded63fa7a83b16fc47648eab090565b90600092918054916114e283611461565b9182825260019384811690816000146115445750600114611504575b50505050565b90919394506000526020928360002092846000945b8386106115305750505050010190388080806114fe565b805485870183015294019385908201611519565b9294505050602093945060ff191683830152151560051b010190388080806114fe565b346103b85760403660031901126103b85761047f6115cb6115d26115bf600435611590816105c3565b63ffffffff61159d611441565b9116600052600360205260406000209061ffff16600052602052604060002090565b604051928380926114d1565b0382610c04565b6040519182916020835260208301906103e0565b346103b85760403660031901126103b8576020611624600435611608816105c3565b6024359063ffffffff1660005260016020526040600020541490565b6040519015158152f35b346103b85760003660031901126103b857602060ff6000805160206139e483398151915254166040519015158152f35b346103b85760003660031901126103b8576000546040516001600160a01b039091168152602090f35b346103b85760203660031901126103b857610d976004356116a7816104ec565b6116af61336d565b6116b761336d565b6116bf61336d565b6132c0565b346103b85760203660031901126103b8577ff0be4f1e87349231d80c36b33f9e8639658eeaf474014dee15a3e6a4d44141976020600435611704816104ec565b61170c613334565b600580546001600160a01b0319166001600160a01b03929092169182179055604051908152a1005b346103b85760203660031901126103b857600435611751816104ec565b60018060a01b03166000527f52c63247e1f47db19d5ce0460030c497f067ca4cebf71ba98eeadabe20bace006020526020604060002054604051908152f35b346103b8576000806003193601126104e9576117aa613334565b60008051602061394483398151915280546001600160a01b0319811690915581906001600160a01b03167f8be0079c531659141344cd1fd0a4f28419497f9722a3daafe3b4186f6b6457e08280a380f35b346103b85760403660031901126103b857610d9760043561181b816104ec565b6024359061182a8233836136d9565b613639565b346103b85760403660031901126103b85761184b6004356105c3565b602060405160008152f35b346103b85760a03660031901126103b857611870366107e6565b506064356001600160401b0381116103b8576118909036906004016107f7565b505060206084356118a0816104ec565b6040516001600160a01b0390911630148152f35b346103b85760003660031901126103b8576118cd613334565b6118d5613787565b6000805160206139e4833981519152600160ff198254161790557f62e78cea01bee320cd4e420270b5ea74000d11b0c9f74754ebdbfc544b05a2586020604051338152a1005b346103b85760003660031901126103b857600080516020613944833981519152546040516001600160a01b039091168152602090f35b346103b8576000806003193601126104e95760405181600080516020613924833981519152805461198181611461565b808552916001918083169081156104be57506001146119aa5761047f8561047381890382610c04565b835260208084209095505b8284106119d2575050508161047f93610473928201019338610463565b80548585018701529285019281016119b5565b346103b85760003660031901126103b8576020600454604051908152f35b346103b85760003660031901126103b857602060405160008152f35b346103b85760403660031901126103b857610b5f600435611a3f816104ec565b60243590336134f8565b346103b85760003660031901126103b85761047f604051611a6981610b80565b60058152640352e302e360dc1b60208201526040519182916020835260208301906103e0565b346103b85760003660031901126103b8576002546040516001600160a01b039091168152602090f35b9060206003198301126103b8576004356001600160401b03928382116103b857806023830112156103b85781600401359384116103b85760248460051b830101116103b8576024019190565b346103b857611b1236611ab8565b90611b1b613334565b611b248261252a565b906040611b3381519384610c04565b8383526020938484019060051b8301923684116103b85780915b848310611b5d57610d97866127db565b6001600160401b039083358281116103b8578301906060823603126103b8578551611b8781610ba0565b8235611b92816105c3565b8152611b9f8a8401611452565b8a820152868301359384116103b857611bbe8a94938594369101610c91565b87820152815201920191611b4d565b346103b85760203660031901126103b85763ffffffff600435611bef816105c3565b1660005260016020526020604060002054604051908152f35b346103b85760603660031901126103b857600435611c25816105c3565b611c2d611441565b604435906001600160401b0382116103b85761047f92611c546115d29336906004016107f7565b929091612930565b611c6536611ab8565b60005b818110611cd257604051638e9e709960e01b8152600081600481335afa8015610a1d57610a5791600091611cb1575b50604051638351eea760e01b815291829160048301610405565b611ccc913d8091833e611cc48183610c04565b810190613256565b82611c97565b611cdd8183856131af565b90611d0f611d0b611ced846124dc565b60208501359063ffffffff1660005260016020526040600020541490565b1590565b611da857611d21610100830183612e7a565b92611d2e60e082016131d2565b90611d3d610120820182612e7a565b959095303b156103b857600094611d7360c092604051998a9788968795633411683760e21b875260a08a01358a600489016131dc565b03920135305af1918215610a1d57611d9092611d95575b50612557565b611c68565b80610a11611da292610bbb565b38611d8a565b611d909150612557565b346103b85760403660031901126103b857610b5f60043561181b816104ec565b9160806106d6929493611e12604060c0830197805184526001600160401b0360208201511660208501520151604083019060208091805184520151910152565b019060208091805184520151910152565b60803660031901126103b8576004356001600160401b0381116103b857611e4e903690600401610660565b60403660231901126103b857606435611e66816104ec565b611e6e612baf565b50611e77612aec565b50606082013590611e8883356105c3565b611e9c600454610f2d816040870135613031565b91808310611f515750611ed690611eb38333613639565b611ebd8385612ee6565b611ec6866124dc565b91611ed036612bd7565b92612c52565b90611edf610c25565b928184528160208501527f85496b760a4b7f8d66384b9df21b381f5d1b1e79f229a47aaf4c232edc2fe59a611f3f611f188551936124dc565b936040519181839233978460409194939263ffffffff606083019616825260208201520152565b0390a361047f60405192839283611dd2565b82604491604051916371c4efed60e01b835260048301526024820152fd5b346103b857600060203660031901126104e957600435611f8e816104ec565b611f96613334565b81546001600160a01b0390811691839190833b15610a225760249083604051958694859363ca5eb5e160e01b85521660048401525af18015610a1d57611fda575080f35b611fe390610bbb565b80f35b346103b85760603660031901126103b85760043560ff8116908181036103b857602435612012816104ec565b6044359061201f826104ec565b61202761336d565b61202f61336d565b61203761336d565b6001600160a01b03908116801561213457600080546001600160a01b0319166001600160a01b039092169190911790558116156121225760008054909390612087906001600160a01b03166108e1565b91823b1561211e5760405163ca5eb5e160e01b81526001600160a01b03821660048201529285908490602490829084905af1908115610a1d576006936120db9261210b575b506120d68161251e565b61251e565b106120f9576120f46120ef611fe392612ac8565b612adb565b600455565b6040516301e9714b60e41b8152600490fd5b80610a1161211892610bbb565b386120cc565b8480fd5b604051632d618d8160e21b8152600490fd5b604051638ad182f960e01b8152600490fd5b61214f36610824565b5050509290303303612279576121686108e18583613175565b936121766108fb8284613181565b91612180846124dc565b5061218b83876135d4565b602882116121d5575b50506121ae600080516020613984833981519152926124dc565b6040805163ffffffff92909216825260208201929092526001600160a01b039490941693a3005b90826121f49261098b6121ea60408801612fd4565b93610985886124dc565b60005490929061220c906001600160a01b03166108e1565b803b156103b857604051633e5ac80960e11b815293600091859182908490829061223b908b8d60048501612fde565b03925af1908115610a1d57600080516020613984833981519152936121ae92612266575b5092612194565b80610a1161227392610bbb565b3861225f565b60405163029a949d60e31b8152600490fd5b346103b85760203660031901126103b8577fd48d879cef83a1c0bdda516f27b13ddb1b3f8bbac1c9e1511bb2a659c242776060206004356122cb816104ec565b6122d3613334565b600280546001600160a01b0319166001600160a01b03929092169182179055604051908152a1005b346103b857602061231861054261231136611109565b9190613486565b54604051908152f35b346103b85760203660031901126103b857610d97600435612341816104ec565b6116bf613334565b346103b85760603660031901126103b8576020612365366107e6565b63ffffffff8135612375816105c3565b166000526001825260406000205482604051920135148152f35b91906040519261239e84610b80565b600b84526020936a2a32b9ba102a32ba3432b960a91b85820152604051946123c586610b80565b6005865264151554d11560da1b818701526123de61336d565b6123e661336d565b6123ee61336d565b8151906001600160401b038211610b9b576000805160206139048339815191529261241d83610d508654611461565b81601f841160011461247857509180610d929492612457989994600092610d995750508160011b916000199060031b1c19161790556133ab565b61245f61336d565b61246761375e565b61246f61336d565b6106d6336132b4565b9190601f19841661248761149b565b936000905b8282106124b85750509260019285926124579a9b96610d92989610610de457505050811b0190556133ab565b8060018697829497870151815501960194019061248c565b6040513d6000823e3d90fd5b35610416816105c3565b63ffffffff16806000526001602052604060002054908115612506575090565b6024906040519063f6ff4fb760e01b82526004820152fd5b6106d6906116af61336d565b6001600160401b038111610b9b5760051b60200190565b634e487b7160e01b600052601160045260246000fd5b60001981146125665760010190565b612541565b634e487b7160e01b600052603260045260246000fd5b80518210156125955760209160051b010190565b61256b565b8181106125a5575050565b6000815560010161259a565b90601f82116125be575050565b6106d6916000805160206139048339815191526000526020600020906020601f840160051c830193106125f9575b601f0160051c019061259a565b90915081906125ec565b90601f8211612610575050565b6106d6916000805160206139248339815191526000526020600020906020601f840160051c830193106125f957601f0160051c019061259a565b9190601f811161265957505050565b6106d6926000526020600020906020601f840160051c830193106125f957601f0160051c019061259a565b91909182516001600160401b038111610b9b576126ab816126a58454611461565b8461264a565b602080601f83116001146126e75750819293946000926126dc575b50508160011b916000199060031b1c1916179055565b0151905038806126c6565b90601f198316956126fd85600052602060002090565b926000905b88821061273a57505083600195969710612721575b505050811b019055565b015160001960f88460031b161c19169055388080612717565b80600185968294968601518155019501930190612702565b602080820190808352835180925260409283810182858560051b8401019601946000925b858410612787575050505050505090565b9091929394959685806127ca600193603f19868203018852868c5163ffffffff815116835261ffff858201511685840152015190606090818982015201906103e0565b990194019401929594939190612776565b90600091825b815181101561286b57612866906128616040612809816128018588612581565b5101516129d6565b61285c816128178588612581565b5101519163ffffffff61282a8689612581565b515116895261ffff602091600383528a2091612846878a612581565b5101511661ffff16600052602052604060002090565b612684565b612557565b6127e1565b507fbe4864a8e820971c0247f5992e2da559595f7bf076a21cb5928d443d2a13b6749192506128a09060405191829182612752565b0390a1565b90929192836002116103b85783116103b857600201916001190190565b602090836106d69395949560405196836128e589955180928880890191016103bd565b8401918583013701600083820152038085520183610c04565b908060209392818452848401376000828201840152601f01601f1916010190565b9160206104169381815201916128fe565b6115bf6115cb9263ffffffff612965939795969716600052600360205260406000209061ffff16600052602052604060002090565b8051156129c85783156129c2576002841015612999575050610a57604051928392639a6d49cd60e01b84526004840161291f565b9092806129bc91610416946129b76129b2368484610c5a565b6129d6565b6128a5565b916128c2565b92509050565b509190610416913691610c5a565b600361ffff600283015116036129e95750565b604051639a6d49cd60e01b815260206004820152908190610a579060248301906103e0565b612a1661336d565b612a1e61336d565b612a2661336d565b6001600160a01b03908116801561213457600080546001600160a01b0319166001600160a01b0390921691909117905581161561212257600054612a72906001600160a01b03166108e1565b90813b156103b85760405163ca5eb5e160e01b81526001600160a01b0382166004820152916000908390602490829084905af1918215610a1d57612abe9261210b57506120d68161251e565b6106d66001600455565b60ff6005199116019060ff821161256657565b60ff16604d811161256657600a0a90565b60405190612af982610b80565b60006020838281520152565b91908260409103126103b857604051612b1d81610b80565b6020808294805184520151910152565b906040828203126103b85761041691612b05565b906020909392936040835263ffffffff81511660408401528181015160608401526080612b95612b7f604084015160a08488015260e08701906103e0565b6060840151868203603f190160a08801526103e0565b910151151560c08401526001600160a01b03909416910152565b60405190612bbc82610ba0565b8160008152600060208201526040612bd2612aec565b910152565b60409060231901126103b85760405190612bf082610b80565b60243582526044356020830152565b6001600160401b038116036103b857565b906080828203126103b857612c4a906040805193612c2d85610ba0565b805185526020810151612c3f81612bff565b602086015201612b05565b604082015290565b608093612cc4612ce09694612c65612baf565b506020612c728451612d2d565b930190815180612d1e575b50600054612c93906001600160a01b03166108e1565b95612c9d866124e6565b9251151592612cad610f8d610c32565b602087015260408601526060850152151586840152565b6040518096819582946302637a4560e41b845260048401612b41565b03925af1908115610a1d57600091612cf6575090565b610416915060803d8111612d17575b612d0f8183610c04565b810190612c10565b503d612d05565b612d2790612d4f565b38612c7d565b803410612d375790565b6040516304fb820960e51b8152346004820152602490fd5b6000805460405163393f876560e21b81526020926001600160a01b039283169290918481600481875afa908115610a1d578391612e44575b5016938415612e3257612dda92829160405190868201926323b872dd60e01b84523360248401526044830152606482015260648152612dc581610be9565b519082875af1612dd3613856565b90846138a0565b908151918215159182612e16575b50509050612df35750565b604051635274afe760e01b81526001600160a01b03919091166004820152602490fd5b611d0b925080612e2a948301019101612eac565b803880612de8565b6040516329b99a9560e11b8152600490fd5b90508481813d8311612e73575b612e5b8183610c04565b81010312610a225751612e6d816104ec565b38612d87565b503d612e51565b903590601e19813603018212156103b857018035906001600160401b0382116103b8576020019181360383136103b857565b908160209103126103b8575161041681610eb8565b9091612ed8610416936040845260408401906103e0565b9160208184039101526103e0565b9091612f2c612f0a612efe612f539560045490613031565b6001600160401b031690565b612f21612f1a60a0860186612e7a565b3691610c5a565b9060208501356130ea565b9390928394600014612fcc576002905b611c54612f48826124dc565b916080810190612e7a565b60055490926001600160a01b03909116908382612f6f57505050565b60405163043a78eb60e01b815292602092849283918291612f939160048401612ec1565b03915afa8015610a1d57612fa5575b50565b612fa29060203d8111612fc5575b612fbd8183610c04565b810190612eac565b503d612fb3565b600190612f3c565b3561041681612bff565b610416939260809260018060a01b0316825260208201526000604082015281606082015201906103e0565b8181029291811591840414171561256657565b600454610416916001600160401b0316613009565b811561303b570490565b634e487b7160e01b600052601260045260246000fd5b61306290610f2d6004548092613031565b91829180841061306f5750565b83604491604051916371c4efed60e01b835260048301526024820152fd5b604c9193610416936040519586936001600160401b0360c01b9060c01b16602085015263ffffffff60e01b9060e01b166028840152602c8301526130da81518092602086860191016103bd565b810103602c810184520182610c04565b82511580159390613148576131459160689160405194859260208401526001600160401b0360c01b9060c01b16604083015233604883015261313581518092602086860191016103bd565b8101036048810184520182610c04565b91565b50906040519160208301526001600160401b0360c01b9060c01b1660408201526028815261314581610ba0565b906020116103b8573590565b906028116103b8576020013560c01c90565b90806028116103b8576104169136916027190190602801610c5a565b91908110156125955760051b8101359061013e19813603018212156103b8570190565b35610416816104ec565b929093613238926001600160401b0360406104169a98999763ffffffff8135613204816105c3565b16885260208101356020890152013561321c81612bff565b166040860152606085015260e0608085015260e08401916128fe565b6001600160a01b0390941660a082015280840360c0909101526128fe565b6020818303126103b8578051906001600160401b0382116103b8570181601f820112156103b857805161328881610c3f565b926132966040519485610c04565b818452602082840101116103b85761041691602080850191016103bd565b6106d6906116b761336d565b6001600160a01b0390811690811561331b5760008051602061394483398151915280546001600160a01b031981168417909155167f8be0079c531659141344cd1fd0a4f28419497f9722a3daafe3b4186f6b6457e0600080a3565b604051631e4fbdf760e01b815260006004820152602490fd5b600080516020613944833981519152546001600160a01b0316330361335557565b60405163118cdaa760e01b8152336004820152602490fd5b60ff600080516020613a048339815191525460401c161561338a57565b604051631afcd79f60e31b8152600490fd5b908160209103126103b8575190565b9081516001600160401b038111610b9b57600080516020613924833981519152906133df816133da8454611461565b612603565b602080601f831160011461340f5750819293946000926126dc5750508160011b916000199060031b1c1916179055565b600080516020613924833981519152600052601f198316959091907f46a2803e59a4de4e7a4c574b1243f25977ac4c77d5a1a4a609b5394cebb4a2aa926000905b88821061346e5750508360019596971061272157505050811b019055565b80600185968294968601518155019501930190613450565b6001600160a01b031660009081527f52c63247e1f47db19d5ce0460030c497f067ca4cebf71ba98eeadabe20bace016020526040902090565b6001600160a01b031660009081527f52c63247e1f47db19d5ce0460030c497f067ca4cebf71ba98eeadabe20bace006020526040902090565b916001600160a01b03808416929083156135bb5781169384156135a25761351d613787565b613526816134bf565b548381106135735761356e9284926135526000805160206139c4833981519152966135589403916134bf565b556134bf565b8054820190556040519081529081906020820190565b0390a3565b60405163391434e360e21b81526001600160a01b03929092166004830152602482015260448101839052606490fd5b60405163ec442f0560e01b815260006004820152602490fd5b604051634b637e8f60e11b815260006004820152602490fd5b6001600160a01b038116919082156135a2576135ee613787565b600080516020613964833981519152918254908082018092116125665761362a6000805160206139c483398151915293602093600096556134bf565b818154019055604051908152a3565b91906001600160a01b0383169081156135bb57613654613787565b61365d846134bf565b54938185106136a757816020916136886000805160206139c4833981519152946000979803916134bf565b55600080516020613964833981519152818154039055604051908152a3565b60405163391434e360e21b81526001600160a01b03919091166004820152602481018590526044810191909152606490fd5b91906136e88161054285613486565b54600181016136f75750505050565b82811061372e576001600160a01b03848116156105aa578216156105915761372492610542910393613486565b55388080806114fe565b604051637dc7a0d960e11b81526001600160a01b0392909216600483015260248201526044810191909152606490fd5b61376661336d565b61376e61336d565b6000805160206139e4833981519152805460ff19169055565b60ff6000805160206139e483398151915254166137a057565b60405163d93c066560e01b8152600490fd5b90813b15613835576000805160206139a483398151915280546001600160a01b0319166001600160a01b0384169081179091557fbc7cd75a20ee27fd9adebab32041f755214dbc6bffa90cc0225b39da2e5c2d3b600080a280511561381a57612fa291613886565b50503461382357565b60405163b398979f60e01b8152600490fd5b604051634c9c8ce360e01b81526001600160a01b0383166004820152602490fd5b3d15613881573d9061386782610c3f565b916138756040519384610c04565b82523d6000602084013e565b606090565b60008061041693602081519101845af461389e613856565b915b906138c757508051156138b557805190602001fd5b604051630a12f52160e11b8152600490fd5b815115806138fa575b6138d8575090565b604051639996b31560e01b81526001600160a01b039091166004820152602490fd5b50803b156138d056fe52c63247e1f47db19d5ce0460030c497f067ca4cebf71ba98eeadabe20bace0352c63247e1f47db19d5ce0460030c497f067ca4cebf71ba98eeadabe20bace049016d09d72d40fdae2fd8ceac6b6234c7706214fd39c1cd1e609a0528c19930052c63247e1f47db19d5ce0460030c497f067ca4cebf71ba98eeadabe20bace02efed6d3500546b29533b128a29e3a94d70788727f0507505ac12eaf2e578fd9c360894a13ba1a3210667c828492db98dca3e2076cc3735a920a3ca505d382bbcddf252ad1be2c89b69c2b068fc378daa952ba7f163c4a11628f55a4df523b3efcd5ed15c6e187e77e9aee88184c21f4f2182ab5827cb3b7e07fbedcd63f03300f0c57e16840df040f15088dc2f81fe391c3923bec73e23a9662efc9c229c6a00a26469706673582212207220fdfcd6d79136927679a87c03f485e7c85c904eb33db284be1dd6dd554d2364736f6c63430008140033","linkReferences":{}},"methodIdentifiers":{"SEND()":"1f5e1334","SEND_AND_CALL()":"134d4f25","UPGRADE_INTERFACE_VERSION()":"ad3cb1cc","__OAppOptionsType3_init(address)":"95e99458","__OAppPreCrimeSimulator_init(address)":"6013987f","__OFTCore_init(uint8,address,address)":"d00c06cc","__OFT_init(string,string,address,address)":"2f86121b","allowInitializePath((uint32,bytes32,uint64))":"ff7bd03d","allowance(address,address)":"dd62ed3e","approvalRequired()":"9f68b964","approve(address,uint256)":"095ea7b3","balanceOf(address)":"70a08231","burn(uint256)":"42966c68","burnFrom(address,uint256)":"79cc6790","burnFromUser(address,uint256)":"c753e126","combineOptions(uint32,uint16,bytes)":"bc70b354","decimalConversionRate()":"963efcaa","decimals()":"313ce567","endpoint()":"5e280f11","enforcedOptions(uint32,uint16)":"5535d461","initialize(address,address)":"485cc955","isComposeMsgSender((uint32,bytes32,uint64),bytes,address)":"82413eac","isPeer(uint32,bytes32)":"5a0dfe4d","lzReceive((uint32,bytes32,uint64),bytes32,bytes,address,bytes)":"13137d65","lzReceiveAndRevert(((uint32,bytes32,uint64),uint32,address,bytes32,uint256,address,bytes,bytes)[])":"bd815db0","lzReceiveSimulate((uint32,bytes32,uint64),bytes32,bytes,address,bytes)":"d045a0dc","mint(address,uint256)":"40c10f19","msgInspector()":"111ecdad","name()":"06fdde03","nextNonce(uint32,bytes32)":"7d25a05e","oApp()":"52ae2879","oAppVersion()":"17442b70","oftVersion()":"156a0d0f","owner()":"8da5cb5b","pause()":"8456cb59","paused()":"5c975abb","peers(uint32)":"bb0b6a53","preCrime()":"b731ea0a","proxiableUUID()":"52d1902d","quoteOFT((uint32,bytes32,uint256,uint256,bytes,bytes,bytes))":"0d35b415","quoteSend((uint32,bytes32,uint256,uint256,bytes,bytes,bytes),bool)":"3b6f743b","renounceOwnership()":"715018a6","send((uint32,bytes32,uint256,uint256,bytes,bytes,bytes),(uint256,uint256),address)":"c7c7f5b3","setDelegate(address)":"ca5eb5e1","setDstEid(uint32)":"0d14c92e","setEnforcedOptions((uint32,uint16,bytes)[])":"b98bd070","setMsgInspector(address)":"6fc1b31e","setPeer(uint32,bytes32)":"3400288b","setPreCrime(address)":"d4243885","sharedDecimals()":"857749b0","symbol()":"95d89b41","token()":"fc0c546a","totalSupply()":"18160ddd","transfer(address,uint256)":"a9059cbb","transferFrom(address,address,uint256)":"23b872dd","transferOwnership(address)":"f2fde38b","unpause()":"3f4ba83a","upgradeToAndCall(address,bytes)":"4f1ef286"},"id":7}