{"abi":[{"type":"function","name":"UPGRADE_INTERFACE_VERSION","inputs":[],"outputs":[{"name":"","type":"string","internalType":"string"}],"stateMutability":"view"},{"type":"function","name":"allowance","inputs":[{"name":"owner","type":"address","internalType":"address"},{"name":"spender","type":"address","internalType":"address"}],"outputs":[{"name":"","type":"uint256","internalType":"uint256"}],"stateMutability":"view"},{"type":"function","name":"approve","inputs":[{"name":"spender","type":"address","internalType":"address"},{"name":"value","type":"uint256","internalType":"uint256"}],"outputs":[{"name":"","type":"bool","internalType":"bool"}],"stateMutability":"nonpayable"},{"type":"function","name":"balanceOf","inputs":[{"name":"account","type":"address","internalType":"address"}],"outputs":[{"name":"","type":"uint256","internalType":"uint256"}],"stateMutability":"view"},{"type":"function","name":"burn","inputs":[{"name":"value","type":"uint256","internalType":"uint256"}],"outputs":[],"stateMutability":"nonpayable"},{"type":"function","name":"burnFrom","inputs":[{"name":"account","type":"address","internalType":"address"},{"name":"value","type":"uint256","internalType":"uint256"}],"outputs":[],"stateMutability":"nonpayable"},{"type":"function","name":"burnFromUser","inputs":[{"name":"to","type":"address","internalType":"address"},{"name":"amount","type":"uint256","internalType":"uint256"}],"outputs":[{"name":"","type":"bool","internalType":"bool"}],"stateMutability":"nonpayable"},{"type":"function","name":"decimals","inputs":[],"outputs":[{"name":"","type":"uint8","internalType":"uint8"}],"stateMutability":"view"},{"type":"function","name":"initialize","inputs":[],"outputs":[],"stateMutability":"nonpayable"},{"type":"function","name":"mint","inputs":[{"name":"to","type":"address","internalType":"address"},{"name":"index","type":"uint64","internalType":"uint64"},{"name":"amount","type":"uint256","internalType":"uint256"}],"outputs":[{"name":"","type":"bool","internalType":"bool"}],"stateMutability":"nonpayable"},{"type":"function","name":"name","inputs":[],"outputs":[{"name":"","type":"string","internalType":"string"}],"stateMutability":"view"},{"type":"function","name":"owner","inputs":[],"outputs":[{"name":"","type":"address","internalType":"address"}],"stateMutability":"view"},{"type":"function","name":"pause","inputs":[],"outputs":[],"stateMutability":"nonpayable"},{"type":"function","name":"paused","inputs":[],"outputs":[{"name":"","type":"bool","internalType":"bool"}],"stateMutability":"view"},{"type":"function","name":"proxiableUUID","inputs":[],"outputs":[{"name":"","type":"bytes32","internalType":"bytes32"}],"stateMutability":"view"},{"type":"function","name":"renounceOwnership","inputs":[],"outputs":[],"stateMutability":"nonpayable"},{"type":"function","name":"setAbondData","inputs":[{"name":"user","type":"address","internalType":"address"},{"name":"index","type":"uint64","internalType":"uint64"},{"name":"ethBacked","type":"uint128","internalType":"uint128"},{"name":"cumulativeRate","type":"uint128","internalType":"uint128"}],"outputs":[],"stateMutability":"nonpayable"},{"type":"function","name":"setBorrowingContract","inputs":[{"name":"_address","type":"address","internalType":"address"}],"outputs":[],"stateMutability":"nonpayable"},{"type":"function","name":"symbol","inputs":[],"outputs":[{"name":"","type":"string","internalType":"string"}],"stateMutability":"view"},{"type":"function","name":"totalSupply","inputs":[],"outputs":[{"name":"","type":"uint256","internalType":"uint256"}],"stateMutability":"view"},{"type":"function","name":"transfer","inputs":[{"name":"to","type":"address","internalType":"address"},{"name":"value","type":"uint256","internalType":"uint256"}],"outputs":[{"name":"","type":"bool","internalType":"bool"}],"stateMutability":"nonpayable"},{"type":"function","name":"transferFrom","inputs":[{"name":"from","type":"address","internalType":"address"},{"name":"to","type":"address","internalType":"address"},{"name":"value","type":"uint256","internalType":"uint256"}],"outputs":[{"name":"","type":"bool","internalType":"bool"}],"stateMutability":"nonpayable"},{"type":"function","name":"transferOwnership","inputs":[{"name":"newOwner","type":"address","internalType":"address"}],"outputs":[],"stateMutability":"nonpayable"},{"type":"function","name":"unpause","inputs":[],"outputs":[],"stateMutability":"nonpayable"},{"type":"function","name":"upgradeToAndCall","inputs":[{"name":"newImplementation","type":"address","internalType":"address"},{"name":"data","type":"bytes","internalType":"bytes"}],"outputs":[],"stateMutability":"payable"},{"type":"function","name":"userStates","inputs":[{"name":"user","type":"address","internalType":"address"}],"outputs":[{"name":"cumulativeRate","type":"uint256","internalType":"uint256"},{"name":"ethBacked","type":"uint128","internalType":"uint128"},{"name":"aBondBalance","type":"uint128","internalType":"uint128"}],"stateMutability":"view"},{"type":"function","name":"userStatesAtDeposits","inputs":[{"name":"user","type":"address","internalType":"address"},{"name":"index","type":"uint64","internalType":"uint64"}],"outputs":[{"name":"cumulativeRate","type":"uint256","internalType":"uint256"},{"name":"ethBacked","type":"uint128","internalType":"uint128"},{"name":"aBondBalance","type":"uint128","internalType":"uint128"}],"stateMutability":"view"},{"type":"function","name":"whitelist","inputs":[{"name":"","type":"address","internalType":"address"}],"outputs":[{"name":"","type":"bool","internalType":"bool"}],"stateMutability":"view"},{"type":"event","name":"Approval","inputs":[{"name":"owner","type":"address","indexed":true,"internalType":"address"},{"name":"spender","type":"address","indexed":true,"internalType":"address"},{"name":"value","type":"uint256","indexed":false,"internalType":"uint256"}],"anonymous":false},{"type":"event","name":"Initialized","inputs":[{"name":"version","type":"uint64","indexed":false,"internalType":"uint64"}],"anonymous":false},{"type":"event","name":"OwnershipTransferred","inputs":[{"name":"previousOwner","type":"address","indexed":true,"internalType":"address"},{"name":"newOwner","type":"address","indexed":true,"internalType":"address"}],"anonymous":false},{"type":"event","name":"Paused","inputs":[{"name":"account","type":"address","indexed":false,"internalType":"address"}],"anonymous":false},{"type":"event","name":"Transfer","inputs":[{"name":"from","type":"address","indexed":true,"internalType":"address"},{"name":"to","type":"address","indexed":true,"internalType":"address"},{"name":"value","type":"uint256","indexed":false,"internalType":"uint256"}],"anonymous":false},{"type":"event","name":"Unpaused","inputs":[{"name":"account","type":"address","indexed":false,"internalType":"address"}],"anonymous":false},{"type":"event","name":"Upgraded","inputs":[{"name":"implementation","type":"address","indexed":true,"internalType":"address"}],"anonymous":false},{"type":"error","name":"AddressEmptyCode","inputs":[{"name":"target","type":"address","internalType":"address"}]},{"type":"error","name":"ERC1967InvalidImplementation","inputs":[{"name":"implementation","type":"address","internalType":"address"}]},{"type":"error","name":"ERC1967NonPayable","inputs":[]},{"type":"error","name":"ERC20InsufficientAllowance","inputs":[{"name":"spender","type":"address","internalType":"address"},{"name":"allowance","type":"uint256","internalType":"uint256"},{"name":"needed","type":"uint256","internalType":"uint256"}]},{"type":"error","name":"ERC20InsufficientBalance","inputs":[{"name":"sender","type":"address","internalType":"address"},{"name":"balance","type":"uint256","internalType":"uint256"},{"name":"needed","type":"uint256","internalType":"uint256"}]},{"type":"error","name":"ERC20InvalidApprover","inputs":[{"name":"approver","type":"address","internalType":"address"}]},{"type":"error","name":"ERC20InvalidReceiver","inputs":[{"name":"receiver","type":"address","internalType":"address"}]},{"type":"error","name":"ERC20InvalidSender","inputs":[{"name":"sender","type":"address","internalType":"address"}]},{"type":"error","name":"ERC20InvalidSpender","inputs":[{"name":"spender","type":"address","internalType":"address"}]},{"type":"error","name":"EnforcedPause","inputs":[]},{"type":"error","name":"ExpectedPause","inputs":[]},{"type":"error","name":"FailedInnerCall","inputs":[]},{"type":"error","name":"InsufficientBalance","inputs":[]},{"type":"error","name":"InvalidInitialization","inputs":[]},{"type":"error","name":"NotInitializing","inputs":[]},{"type":"error","name":"OwnableInvalidOwner","inputs":[{"name":"owner","type":"address","internalType":"address"}]},{"type":"error","name":"OwnableUnauthorizedAccount","inputs":[{"name":"account","type":"address","internalType":"address"}]},{"type":"error","name":"UUPSUnauthorizedCallContext","inputs":[]},{"type":"error","name":"UUPSUnsupportedProxiableUUID","inputs":[{"name":"slot","type":"bytes32","internalType":"bytes32"}]}],"bytecode":{"object":"0x60a0806040523461002a5730608052611eca90816100308239608051818181610f270152610ff30152f35b600080fdfe60806040908082526004918236101561001757600080fd5b600092833560e01c92836306fdde03146114e057508263095ea7b3146114365782630ecc535f146113d757826318160ddd146113ab57826323b872dd14611281578263313ce567146112655782633f4ba83a146111ec57826342966c68146111ba5782634f1ef28614610f7957826352d1902d14610f125782635c975abb14610ee157826370a0823114610e9c578263715018a614610e3257826378fdaf3f14610d9857826379cc679014610d635782637fe7adfc14610ba65782638129fc1c146107635782638456cb59146106fb5782638da5cb5b146106c557826391e74c361461064d57826395d89b41146105705782639992f4b7146104925782639b19251a14610454578263a9059cbb146102e5578263ad3cb1cc146102a4578263c753e126146101d557508163dd62ed3e1461018a575063f2fde38b1461015b57600080fd5b34610187576020366003190112610187576101846101776115f9565b61017f611a25565b6119b1565b80f35b80fd5b9050346101d157806003193601126101d157806020926101a86115f9565b6101b96101b3611614565b9161162a565b6001600160a01b039091168252845220549051908152f35b5080fd5b909150346102a057816003193601126102a057610299906020936102896101fa6115f9565b916024359360018060a01b0391610215838354163314611701565b6001838616808352828b52898084209361025b8483519661023588611663565b80548852015495858060801b0396878116602083015260801c84820152868c169061190c565b928152808d522092815184558b82015116908a838060801b031991015160801b161791015554163314611701565b610294823383611bbd565b611c93565b5160018152f35b8280fd5b8382346101d157816003193601126101d15780516102e1916102c582611694565b60058252640352e302e360dc1b602083015251918291826115b0565b0390f35b9150346102a057806003193601126102a0576102ff6115f9565b6024359033151580610442575b61031590611769565b338552602093858552838620600185519161032f83611663565b8054835201549060018060801b0392838316888301528682019260801c835260018060a01b03851690818a528989528685898c209560018b519761037289611663565b8054895201548281168d89015260801c8b8801525116106103ff57509580806103dc6001958b9c95839c886102999d6103af8c8f1680968661183c565b908a528983528b878b2093825185558201511690828060801b0319998a91015160801b161791015561190c565b93338152808c522094835186558a8401511692015160801b161791015533611ad9565b875162461bcd60e51b8152908101899052601a60248201527f496e73756666696369656e742061426f6e642062616c616e63650000000000006044820152606490fd5b506001600160a01b038116151561030c565b8382346101d15760203660031901126101d15760209160ff9082906001600160a01b0361047f6115f9565b1681526003855220541690519015158152f35b909150346102a05760803660031901126102a0576104ae6115f9565b906104b76116eb565b926001600160801b036044358181169391929084900361056c576064359183831680930361056857546001956001600160a01b03916104f99083163314611701565b1695868852856020526001600160401b0382892091169081895260205281882096868351986105278a611663565b0154956020890194848a019760801c885289528452885285602052818820908852602052862094518555511690828060801b0319905160801b161791015580f35b8780fd5b8680fd5b8382346101d157816003193601126101d157805190827f52c63247e1f47db19d5ce0460030c497f067ca4cebf71ba98eeadabe20bace0480546105b281611a9f565b8086529160019180831690811561062257506001146105e7575b6102e186866105dd828b03836116af565b51918291826115b0565b835260208084209096505b82841061060f57505050826102e1946105dd9282010194866105cc565b80548685018801529286019281016105f2565b90506102e197506105dd9450602092508693915060ff191682840152151560051b82010194866105cc565b8382346101d157806003193601126101d15780916106696115f9565b6106716116eb565b6001600160a01b03919091168252600160208181528484206001600160401b03909316845291825292909120805492015492519182526001600160801b0383169082015260809190911c6040820152606090f35b8382346101d157816003193601126101d157600080516020611df58339815191525490516001600160a01b039091168152602090f35b8382346101d157816003193601126101d15760207f62e78cea01bee320cd4e420270b5ea74000d11b0c9f74754ebdbfc544b05a25891610739611a25565b610741611d46565b600080516020611e75833981519152805460ff1916600117905551338152a180f35b909150346102a057826003193601126102a0577ff0c57e16840df040f15088dc2f81fe391c3923bec73e23a9662efc9c229c6a009182549060ff82821c16156001600160401b0380841693841580610b9f575b60018096149081610b95575b159081610b8c575b50610b7c5767ffffffffffffffff1981168517875582610b5d575b508251906107f282611694565b601082526020956f2a32b9ba1020a127a722102a37b5b2b760811b8784015284519261081d84611694565b600684526515105093d39160d21b88850152610837611a5e565b61083f611a5e565b8051838111610b4a57807f52c63247e1f47db19d5ce0460030c497f067ca4cebf71ba98eeadabe20bace03926108758454611a9f565b601f8111610af7575b508a908d601f8411600114610a965792610a8b575b5050600019600383901b1c191690881b1790555b8251918211610a785750807f52c63247e1f47db19d5ce0460030c497f067ca4cebf71ba98eeadabe20bace04926108de8454611a9f565b601f8111610a28575b508790601f83116001146109c9578a926109be575b5050600019600383901b1c191690851b1790555b610918611a5e565b610920611a5e565b610928611a5e565b600080516020611e75833981519152805460ff19169055610947611a5e565b61094f611a5e565b610958336119b1565b610960611a5e565b600280546001600160801b031916670de0b6b3a7640000179055610982578480f35b835460ff60401b191690935591519182527fc7f505b2f371ae2175ee4913f4499e1f2633a7b5936321eed1cdaeb6115181d291a1388080808480f35b0151905038806108fc565b848b52888b208894509190601f1984168c5b8b828210610a1257505084116109f9575b505050811b019055610910565b015160001960f88460031b161c191690553880806109ec565b8385015186558b979095019493840193016109db565b909150838a52878a20601f840160051c810191898510610a6e575b84939291601f8a920160051c01915b828110610a605750506108e7565b8c8155859450899101610a52565b9091508190610a43565b634e487b7160e01b895260419052602488fd5b015190503880610893565b8581528c81208c9550929190601f198516908e5b828210610ae05750508411610ac7575b505050811b0190556108a7565b015160001960f88460031b161c19169055388080610aba565b8385015186558e979095019493840193018e610aaa565b909150838d528a8d20601f840160051c8101918c8510610b40575b8e85949392601f8e930160051c0192905b838210610b325750505061087e565b81558594508c91018f610b23565b9091508190610b12565b634e487b7160e01b8b526041835260248bfd5b68ffffffffffffffffff191668010000000000000001178655386107e5565b835163f92ee8a960e01b81528690fd5b905015386107ca565b303b1591506107c2565b50826107b6565b9150346102a05760603660031901126102a057610bc16115f9565b610bc96116eb565b936044359160018060a01b0390610be4828754163314611701565b1691821594610bf38615611769565b838352600195610ca3878660209a828c526001600160401b038a89209116908189528c528b83888c8b8181209484835196610c2d88611663565b805488520154968187019360018060801b039b8c96878b168752828a019a60801c8b528b865285855282862089845191610c6683611663565b8054835201548981168783015260801c8482015288610c9a81610c91818c51168260025416906117a4565b941680946117d6565b1688528a61183c565b99845286835283209252528d8c2093518455511660018060801b031980945160801b1617910155888852878c528980892094835186558d8401511692015160801b1617910155610d4c575085600080516020611e5583398151915291610d07611d46565b600080516020611e15833981519152610d218282546119a4565b9055848452600080516020611dd583398151915282528584208181540190558551908152a351908152f35b845163ec442f0560e01b8152908101839052602490fd5b9150346102a0573660031901126101d15761018490610d806115f9565b6102896024359260018060a01b039054163314611701565b9150346102a05760203660031901126102a057610db36115f9565b90610dbc611a25565b6001600160a01b038216918215159081610e27575b5015610dea575081546001600160a01b03191617905580f35b5162461bcd60e51b81526020818401526018602482015277125b9c1d5d081859191c995cdcc81a5cc81a5b9d985b1a5960421b6044820152606490fd5b90503b151538610dd1565b8334610187578060031936011261018757610e4b611a25565b600080516020611df583398151915280546001600160a01b0319811690915581906001600160a01b03167f8be0079c531659141344cd1fd0a4f28419497f9722a3daafe3b4186f6b6457e08280a380f35b8382346101d15760203660031901126101d15760209181906001600160a01b03610ec46115f9565b168152600080516020611dd5833981519152845220549051908152f35b8382346101d157816003193601126101d15760209060ff600080516020611e75833981519152541690519015158152f35b908334610187578060031936011261018757507f00000000000000000000000000000000000000000000000000000000000000006001600160a01b03163003610f6c5760209051600080516020611e358339815191528152f35b5163703e46dd60e11b8152fd5b9150806003193601126102a057610f8e6115f9565b9060249384356001600160401b0381116101d157366023820112156101d15780850135610fba816116d0565b94610fc7855196876116af565b81865260209182870193368a83830101116111b6578186928b8693018737880101526001600160a01b037f0000000000000000000000000000000000000000000000000000000000000000811630811490811561119a575b5061118a5761102c611a25565b81169585516352d1902d60e01b815283818a818b5afa86918161115b575b50611066575050505050505191634c9c8ce360e01b8352820152fd5b9088888894938c600080516020611e35833981519152918281036111465750853b15611132575080546001600160a01b031916821790558451889392917fbc7cd75a20ee27fd9adebab32041f755214dbc6bffa90cc0225b39da2e5c2d3b8580a28251156111145750506111069582915190845af4913d1561110a573d6110f86110ef826116d0565b925192836116af565b81528581943d92013e611d71565b5080f35b5060609250611d71565b95509550505050503461112657505080f35b63b398979f60e01b8152fd5b8651634c9c8ce360e01b8152808501849052fd5b8751632a87526960e21b815280860191909152fd5b9091508481813d8311611183575b61117381836116af565b8101031261056c5751903861104a565b503d611169565b855163703e46dd60e11b81528890fd5b905081600080516020611e35833981519152541614153861101f565b8580fd5b8390346101d15760203660031901126101d157610184906111e560018060a01b038254163314611701565b3533611c93565b909150346102a057826003193601126102a057611207611a25565b600080516020611e758339815191529081549060ff821615611257575060ff19169055513381527f5db9ee0a495bf2e6ff9c91a7834c1ba4fdd244a5e8aa4e537bd38aeae4b073aa90602090a180f35b8351638dfc202b60e01b8152fd5b8382346101d157816003193601126101d1576020905160128152f35b8382346101d15760603660031901126101d15761029981926112a16115f9565b6112a9611614565b90600180604435948785838060a01b0392838716801515806113a0575b6112cf90611769565b815260209b818d928352808281209361137a8d85519b8c976112f089611663565b805489520154998a9887858a01998e8060801b03809c168b52019b60801c8c521680855284845261134a8d8a898820948f8b519661132d88611663565b8054885201548281168988015260801c8b8701521693849161183c565b9085528484528b87862091805183558a868201511690828060801b03199c8d91015160801b16179101558b61190c565b503382525220955186555116915160801b161791015561139b833383611bbd565b611ad9565b5082851615156112c6565b8382346101d157816003193601126101d157602090600080516020611e15833981519152549051908152f35b8382346101d15760203660031901126101d1579081906001600160a01b036113fd6115f9565b1681526020818152919020805460019091015492519081526001600160801b0383169181019190915260809190911c6040820152606090f35b909150346102a057816003193601126102a0576114516115f9565b6024359033156114c9576001600160a01b03169182156114b25750808360209561147a3361162a565b8582528752205582519081527f8c5be1e5ebec7d5bd14f71427d1e84f3dd0314c0f7b2291e5b200ac8c7c3b925843392a35160018152f35b8351634a1406b160e11b8152908101859052602490fd5b835163e602df0560e01b8152808401869052602490fd5b925050346102a057826003193601126102a057827f52c63247e1f47db19d5ce0460030c497f067ca4cebf71ba98eeadabe20bace03805461152081611a9f565b80865291600191808316908115611585575060011461154a576102e186866105dd828b03836116af565b835260208084209096505b82841061157257505050826102e1946105dd9282010194386105cc565b8054868501880152928601928101611555565b90506102e197506105dd9450602092508693915060ff191682840152151560051b82010194386105cc565b6020808252825181830181905290939260005b8281106115e557505060409293506000838284010152601f8019910116010190565b8181018601518482016040015285016115c3565b600435906001600160a01b038216820361160f57565b600080fd5b602435906001600160a01b038216820361160f57565b6001600160a01b031660009081527f52c63247e1f47db19d5ce0460030c497f067ca4cebf71ba98eeadabe20bace016020526040902090565b606081019081106001600160401b0382111761167e57604052565b634e487b7160e01b600052604160045260246000fd5b604081019081106001600160401b0382111761167e57604052565b90601f801991011681019081106001600160401b0382111761167e57604052565b6001600160401b03811161167e57601f01601f191660200190565b602435906001600160401b038216820361160f57565b1561170857565b60405162461bcd60e51b815260206004820152603360248201527f546869732066756e6374696f6e2063616e206f6e6c792063616c6c656420627960448201527208189bdc9c9bddda5b99c818dbdb9d1c9858dd606a1b6064820152608490fd5b1561177057565b60405162461bcd60e51b815260206004820152600c60248201526b24b73b30b634b2102ab9b2b960a11b6044820152606490fd5b6001600160801b0391821690821602908116919082036117c057565b634e487b7160e01b600052601160045260246000fd5b6001600160801b03918216919082156117ee57160490565b634e487b7160e01b600052601260045260246000fd5b6040519061181182611663565b60006040838281528260208201520152565b6001600160801b0391821690821601919082116117c057565b9091611846611804565b506040830180518351855192946001600160801b039492851693909183861680156118fa5786926118876118806118949461188d94611991565b9188611991565b906119a4565b9484611823565b1680156117ee576118f493048652836118e88160208189511694015116926118e26118db60208b01956118d56118ce87895116928a6117a4565b91856117a4565b90611823565b9186611823565b906117d6565b16905282845116611823565b16905290565b604051631e9acf1760e31b8152600490fd5b90611915611804565b5060408201805190916001600160801b039190821690821681811061195657038181116117c05716809152156119485790565b600081526000602082015290565b60405162461bcd60e51b8152602060048201526013602482015272496e73756666696369656e7442616c616e636560681b6044820152606490fd5b818102929181159184041417156117c057565b919082018092116117c057565b6001600160a01b03908116908115611a0c57600080516020611df583398151915280546001600160a01b031981168417909155167f8be0079c531659141344cd1fd0a4f28419497f9722a3daafe3b4186f6b6457e0600080a3565b604051631e4fbdf760e01b815260006004820152602490fd5b600080516020611df5833981519152546001600160a01b03163303611a4657565b60405163118cdaa760e01b8152336004820152602490fd5b60ff7ff0c57e16840df040f15088dc2f81fe391c3923bec73e23a9662efc9c229c6a005460401c1615611a8d57565b604051631afcd79f60e31b8152600490fd5b90600182811c92168015611acf575b6020831014611ab957565b634e487b7160e01b600052602260045260246000fd5b91607f1691611aae565b916001600160a01b03808416928315611ba45716928315611b8b57611afc611d46565b600090838252600080516020611dd583398151915280602052604083205491848310611b5857508284600080516020611e55833981519152959360409388602097528652038282205586815220818154019055604051908152a3565b60405163391434e360e21b81526001600160a01b0391909116600482015260248101929092525060448101839052606490fd5b60405163ec442f0560e01b815260006004820152602490fd5b604051634b637e8f60e11b815260006004820152602490fd5b9190611bc88361162a565b9260018060a01b0390818316916000958387526020526040862054936000198503611bf7575b50505050505050565b858510611c625750811615611c49578115611c305790611c1a604094939261162a565b9085526020520391205538808080808080611bee565b604051634a1406b160e11b815260048101869052602490fd5b60405163e602df0560e01b815260048101869052602490fd5b604051637dc7a0d960e11b81526001600160a01b039190911660048201526024810185905260448101869052606490fd5b91906001600160a01b038316908115611ba457611cae611d46565b81600052600080516020611dd58339815191528060205260406000205494828610611d15575081600080516020611e5583398151915292600095966020938688528452036040862055600080516020611e15833981519152818154039055604051908152a3565b60405163391434e360e21b81526001600160a01b039190911660048201526024810186905260448101839052606490fd5b60ff600080516020611e758339815191525416611d5f57565b60405163d93c066560e01b8152600490fd5b90611d985750805115611d8657805190602001fd5b604051630a12f52160e11b8152600490fd5b81511580611dcb575b611da9575090565b604051639996b31560e01b81526001600160a01b039091166004820152602490fd5b50803b15611da156fe52c63247e1f47db19d5ce0460030c497f067ca4cebf71ba98eeadabe20bace009016d09d72d40fdae2fd8ceac6b6234c7706214fd39c1cd1e609a0528c19930052c63247e1f47db19d5ce0460030c497f067ca4cebf71ba98eeadabe20bace02360894a13ba1a3210667c828492db98dca3e2076cc3735a920a3ca505d382bbcddf252ad1be2c89b69c2b068fc378daa952ba7f163c4a11628f55a4df523b3efcd5ed15c6e187e77e9aee88184c21f4f2182ab5827cb3b7e07fbedcd63f03300a2646970667358221220aa97d0d29426f76911a0081a80f04e90125560f09601ef92f59bd8a89325f39364736f6c63430008140033","linkReferences":{}},"methodIdentifiers":{"UPGRADE_INTERFACE_VERSION()":"ad3cb1cc","allowance(address,address)":"dd62ed3e","approve(address,uint256)":"095ea7b3","balanceOf(address)":"70a08231","burn(uint256)":"42966c68","burnFrom(address,uint256)":"79cc6790","burnFromUser(address,uint256)":"c753e126","decimals()":"313ce567","initialize()":"8129fc1c","mint(address,uint64,uint256)":"7fe7adfc","name()":"06fdde03","owner()":"8da5cb5b","pause()":"8456cb59","paused()":"5c975abb","proxiableUUID()":"52d1902d","renounceOwnership()":"715018a6","setAbondData(address,uint64,uint128,uint128)":"9992f4b7","setBorrowingContract(address)":"78fdaf3f","symbol()":"95d89b41","totalSupply()":"18160ddd","transfer(address,uint256)":"a9059cbb","transferFrom(address,address,uint256)":"23b872dd","transferOwnership(address)":"f2fde38b","unpause()":"3f4ba83a","upgradeToAndCall(address,bytes)":"4f1ef286","userStates(address)":"0ecc535f","userStatesAtDeposits(address,uint64)":"91e74c36","whitelist(address)":"9b19251a"},"id":8}