{"abi":[{"type":"function","name":"UPGRADE_INTERFACE_VERSION","inputs":[],"outputs":[{"name":"","type":"string","internalType":"string"}],"stateMutability":"view"},{"type":"function","name":"allowance","inputs":[{"name":"owner","type":"address","internalType":"address"},{"name":"spender","type":"address","internalType":"address"}],"outputs":[{"name":"","type":"uint256","internalType":"uint256"}],"stateMutability":"view"},{"type":"function","name":"approve","inputs":[{"name":"spender","type":"address","internalType":"address"},{"name":"value","type":"uint256","internalType":"uint256"}],"outputs":[{"name":"","type":"bool","internalType":"bool"}],"stateMutability":"nonpayable"},{"type":"function","name":"balanceOf","inputs":[{"name":"account","type":"address","internalType":"address"}],"outputs":[{"name":"","type":"uint256","internalType":"uint256"}],"stateMutability":"view"},{"type":"function","name":"burn","inputs":[{"name":"value","type":"uint256","internalType":"uint256"}],"outputs":[],"stateMutability":"nonpayable"},{"type":"function","name":"burnFrom","inputs":[{"name":"account","type":"address","internalType":"address"},{"name":"value","type":"uint256","internalType":"uint256"}],"outputs":[],"stateMutability":"nonpayable"},{"type":"function","name":"burnFromUser","inputs":[{"name":"to","type":"address","internalType":"address"},{"name":"amount","type":"uint256","internalType":"uint256"}],"outputs":[{"name":"","type":"bool","internalType":"bool"}],"stateMutability":"nonpayable"},{"type":"function","name":"decimals","inputs":[],"outputs":[{"name":"","type":"uint8","internalType":"uint8"}],"stateMutability":"view"},{"type":"function","name":"initialize","inputs":[],"outputs":[],"stateMutability":"nonpayable"},{"type":"function","name":"mint","inputs":[{"name":"to","type":"address","internalType":"address"},{"name":"index","type":"uint64","internalType":"uint64"},{"name":"amount","type":"uint256","internalType":"uint256"}],"outputs":[{"name":"","type":"bool","internalType":"bool"}],"stateMutability":"nonpayable"},{"type":"function","name":"name","inputs":[],"outputs":[{"name":"","type":"string","internalType":"string"}],"stateMutability":"view"},{"type":"function","name":"owner","inputs":[],"outputs":[{"name":"","type":"address","internalType":"address"}],"stateMutability":"view"},{"type":"function","name":"pause","inputs":[],"outputs":[],"stateMutability":"nonpayable"},{"type":"function","name":"paused","inputs":[],"outputs":[{"name":"","type":"bool","internalType":"bool"}],"stateMutability":"view"},{"type":"function","name":"proxiableUUID","inputs":[],"outputs":[{"name":"","type":"bytes32","internalType":"bytes32"}],"stateMutability":"view"},{"type":"function","name":"renounceOwnership","inputs":[],"outputs":[],"stateMutability":"nonpayable"},{"type":"function","name":"setAbondData","inputs":[{"name":"user","type":"address","internalType":"address"},{"name":"index","type":"uint64","internalType":"uint64"},{"name":"ethBacked","type":"uint128","internalType":"uint128"},{"name":"cumulativeRate","type":"uint128","internalType":"uint128"}],"outputs":[],"stateMutability":"nonpayable"},{"type":"function","name":"setBorrowingContract","inputs":[{"name":"_address","type":"address","internalType":"address"}],"outputs":[],"stateMutability":"nonpayable"},{"type":"function","name":"symbol","inputs":[],"outputs":[{"name":"","type":"string","internalType":"string"}],"stateMutability":"view"},{"type":"function","name":"totalSupply","inputs":[],"outputs":[{"name":"","type":"uint256","internalType":"uint256"}],"stateMutability":"view"},{"type":"function","name":"transfer","inputs":[{"name":"to","type":"address","internalType":"address"},{"name":"value","type":"uint256","internalType":"uint256"}],"outputs":[{"name":"","type":"bool","internalType":"bool"}],"stateMutability":"nonpayable"},{"type":"function","name":"transferFrom","inputs":[{"name":"from","type":"address","internalType":"address"},{"name":"to","type":"address","internalType":"address"},{"name":"value","type":"uint256","internalType":"uint256"}],"outputs":[{"name":"","type":"bool","internalType":"bool"}],"stateMutability":"nonpayable"},{"type":"function","name":"transferOwnership","inputs":[{"name":"newOwner","type":"address","internalType":"address"}],"outputs":[],"stateMutability":"nonpayable"},{"type":"function","name":"unpause","inputs":[],"outputs":[],"stateMutability":"nonpayable"},{"type":"function","name":"upgradeToAndCall","inputs":[{"name":"newImplementation","type":"address","internalType":"address"},{"name":"data","type":"bytes","internalType":"bytes"}],"outputs":[],"stateMutability":"payable"},{"type":"function","name":"userStates","inputs":[{"name":"user","type":"address","internalType":"address"}],"outputs":[{"name":"cumulativeRate","type":"uint256","internalType":"uint256"},{"name":"ethBacked","type":"uint128","internalType":"uint128"},{"name":"aBondBalance","type":"uint128","internalType":"uint128"}],"stateMutability":"view"},{"type":"function","name":"userStatesAtDeposits","inputs":[{"name":"user","type":"address","internalType":"address"},{"name":"index","type":"uint64","internalType":"uint64"}],"outputs":[{"name":"cumulativeRate","type":"uint256","internalType":"uint256"},{"name":"ethBacked","type":"uint128","internalType":"uint128"},{"name":"aBondBalance","type":"uint128","internalType":"uint128"}],"stateMutability":"view"},{"type":"function","name":"whitelist","inputs":[{"name":"","type":"address","internalType":"address"}],"outputs":[{"name":"","type":"bool","internalType":"bool"}],"stateMutability":"view"},{"type":"event","name":"Approval","inputs":[{"name":"owner","type":"address","indexed":true,"internalType":"address"},{"name":"spender","type":"address","indexed":true,"internalType":"address"},{"name":"value","type":"uint256","indexed":false,"internalType":"uint256"}],"anonymous":false},{"type":"event","name":"Initialized","inputs":[{"name":"version","type":"uint64","indexed":false,"internalType":"uint64"}],"anonymous":false},{"type":"event","name":"OwnershipTransferred","inputs":[{"name":"previousOwner","type":"address","indexed":true,"internalType":"address"},{"name":"newOwner","type":"address","indexed":true,"internalType":"address"}],"anonymous":false},{"type":"event","name":"Paused","inputs":[{"name":"account","type":"address","indexed":false,"internalType":"address"}],"anonymous":false},{"type":"event","name":"Transfer","inputs":[{"name":"from","type":"address","indexed":true,"internalType":"address"},{"name":"to","type":"address","indexed":true,"internalType":"address"},{"name":"value","type":"uint256","indexed":false,"internalType":"uint256"}],"anonymous":false},{"type":"event","name":"Unpaused","inputs":[{"name":"account","type":"address","indexed":false,"internalType":"address"}],"anonymous":false},{"type":"event","name":"Upgraded","inputs":[{"name":"implementation","type":"address","indexed":true,"internalType":"address"}],"anonymous":false},{"type":"error","name":"AddressEmptyCode","inputs":[{"name":"target","type":"address","internalType":"address"}]},{"type":"error","name":"ERC1967InvalidImplementation","inputs":[{"name":"implementation","type":"address","internalType":"address"}]},{"type":"error","name":"ERC1967NonPayable","inputs":[]},{"type":"error","name":"ERC20InsufficientAllowance","inputs":[{"name":"spender","type":"address","internalType":"address"},{"name":"allowance","type":"uint256","internalType":"uint256"},{"name":"needed","type":"uint256","internalType":"uint256"}]},{"type":"error","name":"ERC20InsufficientBalance","inputs":[{"name":"sender","type":"address","internalType":"address"},{"name":"balance","type":"uint256","internalType":"uint256"},{"name":"needed","type":"uint256","internalType":"uint256"}]},{"type":"error","name":"ERC20InvalidApprover","inputs":[{"name":"approver","type":"address","internalType":"address"}]},{"type":"error","name":"ERC20InvalidReceiver","inputs":[{"name":"receiver","type":"address","internalType":"address"}]},{"type":"error","name":"ERC20InvalidSender","inputs":[{"name":"sender","type":"address","internalType":"address"}]},{"type":"error","name":"ERC20InvalidSpender","inputs":[{"name":"spender","type":"address","internalType":"address"}]},{"type":"error","name":"EnforcedPause","inputs":[]},{"type":"error","name":"ExpectedPause","inputs":[]},{"type":"error","name":"FailedInnerCall","inputs":[]},{"type":"error","name":"InsufficientBalance","inputs":[]},{"type":"error","name":"InvalidInitialization","inputs":[]},{"type":"error","name":"NotInitializing","inputs":[]},{"type":"error","name":"OwnableInvalidOwner","inputs":[{"name":"owner","type":"address","internalType":"address"}]},{"type":"error","name":"OwnableUnauthorizedAccount","inputs":[{"name":"account","type":"address","internalType":"address"}]},{"type":"error","name":"UUPSUnauthorizedCallContext","inputs":[]},{"type":"error","name":"UUPSUnsupportedProxiableUUID","inputs":[{"name":"slot","type":"bytes32","internalType":"bytes32"}]}],"bytecode":{"object":"0x60a06040523060805234801561001457600080fd5b506080516123c661003e600039600081816113330152818161135c015261149d01526123c66000f3fe6080604052600436106101b75760003560e01c806379cc6790116100ec5780639992f4b71161008a578063ad3cb1cc11610064578063ad3cb1cc14610580578063c753e126146105b1578063dd62ed3e146105d1578063f2fde38b146105f157600080fd5b80639992f4b7146105105780639b19251a14610530578063a9059cbb1461056057600080fd5b80638456cb59116100c65780638456cb591461044f5780638da5cb5b1461046457806391e74c36146104ab57806395d89b41146104fb57600080fd5b806379cc6790146103fa5780637fe7adfc1461041a5780638129fc1c1461043a57600080fd5b806342966c68116101595780635c975abb116101335780635c975abb1461035d57806370a0823114610382578063715018a6146103c557806378fdaf3f146103da57600080fd5b806342966c68146103155780634f1ef2861461033557806352d1902d1461034857600080fd5b806318160ddd1161019557806318160ddd1461028457806323b872dd146102c2578063313ce567146102e25780633f4ba83a146102fe57600080fd5b806306fdde03146101bc578063095ea7b3146101e75780630ecc535f14610217575b600080fd5b3480156101c857600080fd5b506101d1610611565b6040516101de9190611d6b565b60405180910390f35b3480156101f357600080fd5b50610207610202366004611dba565b6106d4565b60405190151581526020016101de565b34801561022357600080fd5b5061025f610232366004611de4565b600060208190529081526040902080546001909101546001600160801b0380821691600160801b90041683565b604080519384526001600160801b0392831660208501529116908201526060016101de565b34801561029057600080fd5b507f52c63247e1f47db19d5ce0460030c497f067ca4cebf71ba98eeadabe20bace02545b6040519081526020016101de565b3480156102ce57600080fd5b506102076102dd366004611dff565b6106ee565b3480156102ee57600080fd5b50604051601281526020016101de565b34801561030a57600080fd5b50610313610863565b005b34801561032157600080fd5b50610313610330366004611e3b565b610875565b610313610343366004611e6a565b6108ab565b34801561035457600080fd5b506102b46108ca565b34801561036957600080fd5b506000805160206123718339815191525460ff16610207565b34801561038e57600080fd5b506102b461039d366004611de4565b6001600160a01b03166000908152600080516020612331833981519152602052604090205490565b3480156103d157600080fd5b506103136108e7565b3480156103e657600080fd5b506103136103f5366004611de4565b6108f9565b34801561040657600080fd5b50610313610415366004611dba565b610990565b34801561042657600080fd5b50610207610435366004611f44565b6109c4565b34801561044657600080fd5b50610313610b70565b34801561045b57600080fd5b50610313610d0a565b34801561047057600080fd5b507f9016d09d72d40fdae2fd8ceac6b6234c7706214fd39c1cd1e609a0528c199300546040516001600160a01b0390911681526020016101de565b3480156104b757600080fd5b5061025f6104c6366004611f70565b6001602081815260009384526040808520909152918352912080549101546001600160801b0380821691600160801b90041683565b34801561050757600080fd5b506101d1610d1a565b34801561051c57600080fd5b5061031361052b366004611fba565b610d59565b34801561053c57600080fd5b5061020761054b366004611de4565b60036020526000908152604090205460ff1681565b34801561056c57600080fd5b5061020761057b366004611dba565b610e08565b34801561058c57600080fd5b506101d1604051806040016040528060058152602001640352e302e360dc1b81525081565b3480156105bd57600080fd5b506102076105cc366004611dba565b610fac565b3480156105dd57600080fd5b506102b46105ec36600461200e565b611081565b3480156105fd57600080fd5b5061031361060c366004611de4565b6110cb565b7f52c63247e1f47db19d5ce0460030c497f067ca4cebf71ba98eeadabe20bace0380546060916000805160206123318339815191529161065090612038565b80601f016020809104026020016040519081016040528092919081815260200182805461067c90612038565b80156106c95780601f1061069e576101008083540402835291602001916106c9565b820191906000526020600020905b8154815290600101906020018083116106ac57829003601f168201915b505050505091505090565b6000336106e2818585611106565b60019150505b92915050565b60006001600160a01b0384161580159061071057506001600160a01b03831615155b6107355760405162461bcd60e51b815260040161072c90612072565b60405180910390fd5b6001600160a01b03808516600090815260208181526040808320815160608082018452825482526001928301546001600160801b0380821684880152600160801b91829004811684870152978b16875286865295849020845191820185528054825290920154808716948301949094529390920490931692810192909252906107bf828286611118565b6001600160a01b038616600090815260208181526040918290208351815590830151918301516001600160801b03908116600160801b02921691909117600190910155905061080e828561119b565b5033600090815260208181526040918290208451815590840151918401516001600160801b03908116600160801b0292169190911760019091015561085486868661123f565b506001925050505b9392505050565b61086b611263565b6108736112be565b565b6004546001600160a01b0316331461089f5760405162461bcd60e51b815260040161072c90612098565b6108a88161131e565b50565b6108b3611328565b6108bc826113cd565b6108c682826113d5565b5050565b60006108d4611492565b5060008051602061235183398151915290565b6108ef611263565b61087360006114db565b610901611263565b6001600160a01b0381161580159061092257506001600160a01b0381163b15155b61096e5760405162461bcd60e51b815260206004820152601860248201527f496e707574206164647265737320697320696e76616c69640000000000000000604482015260640161072c565b600480546001600160a01b0319166001600160a01b0392909216919091179055565b6004546001600160a01b031633146109ba5760405162461bcd60e51b815260040161072c90612098565b6108c6828261154c565b6004546000906001600160a01b031633146109f15760405162461bcd60e51b815260040161072c90612098565b6001600160a01b038416610a175760405162461bcd60e51b815260040161072c90612072565b6001600160a01b038416600081815260016020818152604080842067ffffffffffffffff89168552825280842081516060808201845282548252918501546001600160801b03808216838701908152600160801b928390048216848701529888528786529684902084519384018552805484529095015480871694830194909452939092048416908201526002549351919390928692610aba9290911690612101565b610ac49190612142565b6001600160801b03166020830152610add828286611118565b6001600160a01b038716600081815260016020818152604080842067ffffffffffffffff8c16855282528084208851815588830151898301516001600160801b03918216600160801b91831682021792860192909255958552848352938190208651815591860151908601519085169416909202929092179101559050610b648685611561565b50600195945050505050565b7ff0c57e16840df040f15088dc2f81fe391c3923bec73e23a9662efc9c229c6a008054600160401b810460ff16159067ffffffffffffffff16600081158015610bb65750825b905060008267ffffffffffffffff166001148015610bd35750303b155b905081158015610be1575080155b15610bff5760405163f92ee8a960e01b815260040160405180910390fd5b845467ffffffffffffffff191660011785558315610c2957845460ff60401b1916600160401b1785555b610c796040518060400160405280601081526020016f2a32b9ba1020a127a722102a37b5b2b760811b8152506040518060400160405280600681526020016515105093d39160d21b815250611597565b610c816115a9565b610c896115b1565b610c92336115c1565b610c9a6115a9565b600280546fffffffffffffffffffffffffffffffff1916670de0b6b3a76400001790558315610d0357845460ff60401b19168555604051600181527fc7f505b2f371ae2175ee4913f4499e1f2633a7b5936321eed1cdaeb6115181d29060200160405180910390a15b5050505050565b610d12611263565b6108736115d2565b7f52c63247e1f47db19d5ce0460030c497f067ca4cebf71ba98eeadabe20bace0480546060916000805160206123318339815191529161065090612038565b6004546001600160a01b03163314610d835760405162461bcd60e51b815260040161072c90612098565b6001600160a01b03909316600090815260016020818152604080842067ffffffffffffffff90961680855286835281852082516060810184529481018054600160801b908190046001600160801b039081169588019586529a8b168752978a168686019081529290965296909252915190945592519251841690910291909216179055565b60003315801590610e2157506001600160a01b03831615155b610e3d5760405162461bcd60e51b815260040161072c90612072565b33600090815260208181526040808320815160608082018452825482526001928301546001600160801b0380821684880152600160801b9182900481168487019081526001600160a01b038c16895288885297869020865193840187528054845290940154808516968301969096529094048216928401929092529251909216841115610f0c5760405162461bcd60e51b815260206004820152601a60248201527f496e73756666696369656e742061426f6e642062616c616e6365000000000000604482015260640161072c565b610f17828286611118565b6001600160a01b038616600090815260208181526040918290208351815590830151918301516001600160801b03908116600160801b029216919091176001909101559050610f66828561119b565b33600090815260208181526040918290208351815590830151918301516001600160801b03908116600160801b029216919091176001909101559150610b64858561161b565b6004546000906001600160a01b03163314610fd95760405162461bcd60e51b815260040161072c90612098565b6001600160a01b038316600090815260208181526040918290208251606081018452815481526001909101546001600160801b0380821693830193909352600160801b900490911691810191909152611032818461119b565b6001600160a01b038516600090815260208181526040918290208351815590830151918301516001600160801b03908116600160801b0292169190911760019091015590506106e28484610990565b6001600160a01b0391821660009081527f52c63247e1f47db19d5ce0460030c497f067ca4cebf71ba98eeadabe20bace016020908152604080832093909416825291909152205490565b6110d3611263565b6001600160a01b0381166110fd57604051631e4fbdf760e01b81526000600482015260240161072c565b6108a8816114db565b6111138383836001611629565b505050565b604080516060810182526000808252602082018190528183015290830151845184516111479285929091611710565b83526040830151602080860151908501516111659285929091611797565b6001600160801b03166020840152604083018051839190611187908390612168565b6001600160801b0316905250919392505050565b6040805160608101825260008082526020820181905281830152908301516001600160801b03838116908216101561120b5760405162461bcd60e51b8152602060048201526013602482015272496e73756666696369656e7442616c616e636560681b604482015260640161072c565b611215838261218f565b6001600160801b03166040850181905260000361123757600080855260208501525b509192915050565b60003361124d8582856117f7565b61125885858561185d565b506001949350505050565b336112957f9016d09d72d40fdae2fd8ceac6b6234c7706214fd39c1cd1e609a0528c199300546001600160a01b031690565b6001600160a01b0316146108735760405163118cdaa760e01b815233600482015260240161072c565b6112c66118bc565b600080516020612371833981519152805460ff191681557f5db9ee0a495bf2e6ff9c91a7834c1ba4fdd244a5e8aa4e537bd38aeae4b073aa335b6040516001600160a01b03909116815260200160405180910390a150565b6108a833826118ec565b306001600160a01b037f00000000000000000000000000000000000000000000000000000000000000001614806113af57507f00000000000000000000000000000000000000000000000000000000000000006001600160a01b03166113a3600080516020612351833981519152546001600160a01b031690565b6001600160a01b031614155b156108735760405163703e46dd60e11b815260040160405180910390fd5b6108a8611263565b816001600160a01b03166352d1902d6040518163ffffffff1660e01b8152600401602060405180830381865afa92505050801561142f575060408051601f3d908101601f1916820190925261142c918101906121af565b60015b61145757604051634c9c8ce360e01b81526001600160a01b038316600482015260240161072c565b600080516020612351833981519152811461148857604051632a87526960e21b81526004810182905260240161072c565b6111138383611922565b306001600160a01b037f000000000000000000000000000000000000000000000000000000000000000016146108735760405163703e46dd60e11b815260040160405180910390fd5b7f9016d09d72d40fdae2fd8ceac6b6234c7706214fd39c1cd1e609a0528c19930080546001600160a01b031981166001600160a01b03848116918217845560405192169182907f8be0079c531659141344cd1fd0a4f28419497f9722a3daafe3b4186f6b6457e090600090a3505050565b6115578233836117f7565b6108c682826118ec565b6001600160a01b03821661158b5760405163ec442f0560e01b81526000600482015260240161072c565b6108c660008383611978565b61159f611983565b6108c682826119cc565b610873611983565b6115b9611983565b610873611a1d565b6115c9611983565b6108a881611a3e565b6115da611a46565b600080516020612371833981519152805460ff191660011781557f62e78cea01bee320cd4e420270b5ea74000d11b0c9f74754ebdbfc544b05a25833611300565b6000336106e281858561185d565b6000805160206123318339815191526001600160a01b0385166116625760405163e602df0560e01b81526000600482015260240161072c565b6001600160a01b03841661168c57604051634a1406b160e11b81526000600482015260240161072c565b6001600160a01b03808616600090815260018301602090815260408083209388168352929052208390558115610d0357836001600160a01b0316856001600160a01b03167f8c5be1e5ebec7d5bd14f71427d1e84f3dd0314c0f7b2291e5b200ac8c7c3b9258560405161170191815260200190565b60405180910390a35050505050565b6000846001600160801b031660000361173c57604051631e9acf1760e31b815260040160405180910390fd5b60006117488587612168565b6001600160801b031683866001600160801b031661176691906121c8565b611779866001600160801b038a166121c8565b61178391906121df565b61178d91906121f2565b9695505050505050565b6000846001600160801b03166000036117c357604051631e9acf1760e31b815260040160405180910390fd5b60006117cf8587612168565b6117d98487612101565b6117e38689612101565b6117ed9190612168565b61178d9190612142565b60006118038484611081565b90506000198114611857578181101561184857604051637dc7a0d960e11b81526001600160a01b0384166004820152602481018290526044810183905260640161072c565b61185784848484036000611629565b50505050565b6001600160a01b03831661188757604051634b637e8f60e11b81526000600482015260240161072c565b6001600160a01b0382166118b15760405163ec442f0560e01b81526000600482015260240161072c565b611113838383611978565b6000805160206123718339815191525460ff1661087357604051638dfc202b60e01b815260040160405180910390fd5b6001600160a01b03821661191657604051634b637e8f60e11b81526000600482015260240161072c565b6108c682600083611978565b61192b82611a77565b6040516001600160a01b038316907fbc7cd75a20ee27fd9adebab32041f755214dbc6bffa90cc0225b39da2e5c2d3b90600090a2805115611970576111138282611adc565b6108c6611b52565b611113838383611b71565b7ff0c57e16840df040f15088dc2f81fe391c3923bec73e23a9662efc9c229c6a0054600160401b900460ff1661087357604051631afcd79f60e31b815260040160405180910390fd5b6119d4611983565b6000805160206123318339815191527f52c63247e1f47db19d5ce0460030c497f067ca4cebf71ba98eeadabe20bace03611a0e8482612254565b50600481016118578382612254565b611a25611983565b600080516020612371833981519152805460ff19169055565b6110d3611983565b6000805160206123718339815191525460ff16156108735760405163d93c066560e01b815260040160405180910390fd5b806001600160a01b03163b600003611aad57604051634c9c8ce360e01b81526001600160a01b038216600482015260240161072c565b60008051602061235183398151915280546001600160a01b0319166001600160a01b0392909216919091179055565b6060600080846001600160a01b031684604051611af99190612314565b600060405180830381855af49150503d8060008114611b34576040519150601f19603f3d011682016040523d82523d6000602084013e611b39565b606091505b5091509150611b49858383611b84565b95945050505050565b34156108735760405163b398979f60e01b815260040160405180910390fd5b611b79611a46565b611113838383611be0565b606082611b9957611b9482611d1e565b61085c565b8151158015611bb057506001600160a01b0384163b155b15611bd957604051639996b31560e01b81526001600160a01b038516600482015260240161072c565b508061085c565b6000805160206123318339815191526001600160a01b038416611c1c5781816002016000828254611c1191906121df565b90915550611c8e9050565b6001600160a01b03841660009081526020829052604090205482811015611c6f5760405163391434e360e21b81526001600160a01b0386166004820152602481018290526044810184905260640161072c565b6001600160a01b03851660009081526020839052604090209083900390555b6001600160a01b038316611cac576002810180548390039055611ccb565b6001600160a01b03831660009081526020829052604090208054830190555b826001600160a01b0316846001600160a01b03167fddf252ad1be2c89b69c2b068fc378daa952ba7f163c4a11628f55a4df523b3ef84604051611d1091815260200190565b60405180910390a350505050565b805115611d2e5780518082602001fd5b604051630a12f52160e11b815260040160405180910390fd5b60005b83811015611d62578181015183820152602001611d4a565b50506000910152565b6020815260008251806020840152611d8a816040850160208701611d47565b601f01601f19169190910160400192915050565b80356001600160a01b0381168114611db557600080fd5b919050565b60008060408385031215611dcd57600080fd5b611dd683611d9e565b946020939093013593505050565b600060208284031215611df657600080fd5b61085c82611d9e565b600080600060608486031215611e1457600080fd5b611e1d84611d9e565b9250611e2b60208501611d9e565b9150604084013590509250925092565b600060208284031215611e4d57600080fd5b5035919050565b634e487b7160e01b600052604160045260246000fd5b60008060408385031215611e7d57600080fd5b611e8683611d9e565b9150602083013567ffffffffffffffff80821115611ea357600080fd5b818501915085601f830112611eb757600080fd5b813581811115611ec957611ec9611e54565b604051601f8201601f19908116603f01168101908382118183101715611ef157611ef1611e54565b81604052828152886020848701011115611f0a57600080fd5b8260208601602083013760006020848301015280955050505050509250929050565b803567ffffffffffffffff81168114611db557600080fd5b600080600060608486031215611f5957600080fd5b611f6284611d9e565b9250611e2b60208501611f2c565b60008060408385031215611f8357600080fd5b611f8c83611d9e565b9150611f9a60208401611f2c565b90509250929050565b80356001600160801b0381168114611db557600080fd5b60008060008060808587031215611fd057600080fd5b611fd985611d9e565b9350611fe760208601611f2c565b9250611ff560408601611fa3565b915061200360608601611fa3565b905092959194509250565b6000806040838503121561202157600080fd5b61202a83611d9e565b9150611f9a60208401611d9e565b600181811c9082168061204c57607f821691505b60208210810361206c57634e487b7160e01b600052602260045260246000fd5b50919050565b6020808252600c908201526b24b73b30b634b2102ab9b2b960a11b604082015260600190565b60208082526033908201527f546869732066756e6374696f6e2063616e206f6e6c792063616c6c656420627960408201527208189bdc9c9bddda5b99c818dbdb9d1c9858dd606a1b606082015260800190565b634e487b7160e01b600052601160045260246000fd5b6001600160801b03818116838216028082169190828114612124576121246120eb565b505092915050565b634e487b7160e01b600052601260045260246000fd5b60006001600160801b038084168061215c5761215c61212c565b92169190910492915050565b6001600160801b03818116838216019080821115612188576121886120eb565b5092915050565b6001600160801b03828116828216039080821115612188576121886120eb565b6000602082840312156121c157600080fd5b5051919050565b80820281158282048414176106e8576106e86120eb565b808201808211156106e8576106e86120eb565b6000826122015761220161212c565b500490565b601f82111561111357600081815260208120601f850160051c8101602086101561222d5750805b601f850160051c820191505b8181101561224c57828155600101612239565b505050505050565b815167ffffffffffffffff81111561226e5761226e611e54565b6122828161227c8454612038565b84612206565b602080601f8311600181146122b7576000841561229f5750858301515b600019600386901b1c1916600185901b17855561224c565b600085815260208120601f198616915b828110156122e6578886015182559484019460019091019084016122c7565b50858210156123045787850151600019600388901b60f8161c191681555b5050505050600190811b01905550565b60008251612326818460208701611d47565b919091019291505056fe52c63247e1f47db19d5ce0460030c497f067ca4cebf71ba98eeadabe20bace00360894a13ba1a3210667c828492db98dca3e2076cc3735a920a3ca505d382bbccd5ed15c6e187e77e9aee88184c21f4f2182ab5827cb3b7e07fbedcd63f03300a26469706673582212200d2ddab39abdebd5b7998ee95170a6c52f39e907e62b19e894eda93fda85525664736f6c63430008140033","linkReferences":{}},"methodIdentifiers":{"UPGRADE_INTERFACE_VERSION()":"ad3cb1cc","allowance(address,address)":"dd62ed3e","approve(address,uint256)":"095ea7b3","balanceOf(address)":"70a08231","burn(uint256)":"42966c68","burnFrom(address,uint256)":"79cc6790","burnFromUser(address,uint256)":"c753e126","decimals()":"313ce567","initialize()":"8129fc1c","mint(address,uint64,uint256)":"7fe7adfc","name()":"06fdde03","owner()":"8da5cb5b","pause()":"8456cb59","paused()":"5c975abb","proxiableUUID()":"52d1902d","renounceOwnership()":"715018a6","setAbondData(address,uint64,uint128,uint128)":"9992f4b7","setBorrowingContract(address)":"78fdaf3f","symbol()":"95d89b41","totalSupply()":"18160ddd","transfer(address,uint256)":"a9059cbb","transferFrom(address,address,uint256)":"23b872dd","transferOwnership(address)":"f2fde38b","unpause()":"3f4ba83a","upgradeToAndCall(address,bytes)":"4f1ef286","userStates(address)":"0ecc535f","userStatesAtDeposits(address,uint64)":"91e74c36","whitelist(address)":"9b19251a"},"id":7}