{"abi":[{"type":"function","name":"UPGRADE_INTERFACE_VERSION","inputs":[],"outputs":[{"name":"","type":"string","internalType":"string"}],"stateMutability":"view"},{"type":"function","name":"allowInitializePath","inputs":[{"name":"origin","type":"tuple","internalType":"struct Origin","components":[{"name":"srcEid","type":"uint32","internalType":"uint32"},{"name":"sender","type":"bytes32","internalType":"bytes32"},{"name":"nonce","type":"uint64","internalType":"uint64"}]}],"outputs":[{"name":"","type":"bool","internalType":"bool"}],"stateMutability":"view"},{"type":"function","name":"calculateCumulativeRate","inputs":[{"name":"fees","type":"uint128","internalType":"uint128"}],"outputs":[],"stateMutability":"payable"},{"type":"function","name":"callLzSendFromExternal","inputs":[{"name":"_dstEid","type":"uint32","internalType":"uint32"},{"name":"functionToDo","type":"uint8","internalType":"enum CDSInterface.FunctionToDo"},{"name":"optionsFeesToGetFromOtherChain","type":"uint256","internalType":"uint256"},{"name":"cdsAmountToGetFromOtherChain","type":"uint256","internalType":"uint256"},{"name":"liqAmountToGetFromOtherChain","type":"uint256","internalType":"uint256"},{"name":"liquidationInfo","type":"tuple","internalType":"struct CDSInterface.LiquidationInfo","components":[{"name":"liquidationAmount","type":"uint128","internalType":"uint128"},{"name":"profits","type":"uint128","internalType":"uint128"},{"name":"ethAmount","type":"uint128","internalType":"uint128"},{"name":"availableLiquidationAmount","type":"uint256","internalType":"uint256"}]},{"name":"liqIndex","type":"uint128","internalType":"uint128"},{"name":"fee","type":"tuple","internalType":"struct MessagingFee","components":[{"name":"nativeFee","type":"uint256","internalType":"uint256"},{"name":"lzTokenFee","type":"uint256","internalType":"uint256"}]},{"name":"_options","type":"bytes","internalType":"bytes"}],"outputs":[{"name":"receipt","type":"tuple","internalType":"struct MessagingReceipt","components":[{"name":"guid","type":"bytes32","internalType":"bytes32"},{"name":"nonce","type":"uint64","internalType":"uint64"},{"name":"fee","type":"tuple","internalType":"struct MessagingFee","components":[{"name":"nativeFee","type":"uint256","internalType":"uint256"},{"name":"lzTokenFee","type":"uint256","internalType":"uint256"}]}]}],"stateMutability":"payable"},{"type":"function","name":"cdsCount","inputs":[],"outputs":[{"name":"","type":"uint64","internalType":"uint64"}],"stateMutability":"view"},{"type":"function","name":"cdsDetails","inputs":[{"name":"","type":"address","internalType":"address"}],"outputs":[{"name":"index","type":"uint64","internalType":"uint64"},{"name":"hasDeposited","type":"bool","internalType":"bool"}],"stateMutability":"view"},{"type":"function","name":"deposit","inputs":[{"name":"usdtAmount","type":"uint128","internalType":"uint128"},{"name":"usdaAmount","type":"uint128","internalType":"uint128"},{"name":"_liquidate","type":"bool","internalType":"bool"},{"name":"_liquidationAmount","type":"uint128","internalType":"uint128"}],"outputs":[],"stateMutability":"payable"},{"type":"function","name":"endpoint","inputs":[],"outputs":[{"name":"","type":"address","internalType":"contract ILayerZeroEndpointV2"}],"stateMutability":"view"},{"type":"function","name":"getCDSDepositDetails","inputs":[{"name":"depositor","type":"address","internalType":"address"},{"name":"index","type":"uint64","internalType":"uint64"}],"outputs":[{"name":"","type":"tuple","internalType":"struct CDSInterface.CdsAccountDetails","components":[{"name":"depositedTime","type":"uint64","internalType":"uint64"},{"name":"depositedAmount","type":"uint256","internalType":"uint256"},{"name":"withdrawedTime","type":"uint64","internalType":"uint64"},{"name":"withdrawedAmount","type":"uint256","internalType":"uint256"},{"name":"withdrawed","type":"bool","internalType":"bool"},{"name":"depositPrice","type":"uint128","internalType":"uint128"},{"name":"depositValue","type":"uint128","internalType":"uint128"},{"name":"depositValueSign","type":"bool","internalType":"bool"},{"name":"optedLiquidation","type":"bool","internalType":"bool"},{"name":"InitialLiquidationAmount","type":"uint128","internalType":"uint128"},{"name":"liquidationAmount","type":"uint128","internalType":"uint128"},{"name":"liquidationindex","type":"uint128","internalType":"uint128"},{"name":"normalizedAmount","type":"uint256","internalType":"uint256"}]},{"name":"","type":"uint64","internalType":"uint64"}],"stateMutability":"view"},{"type":"function","name":"initialize","inputs":[{"name":"_usda","type":"address","internalType":"address"},{"name":"priceFeed","type":"address","internalType":"address"},{"name":"_usdt","type":"address","internalType":"address"},{"name":"_multiSign","type":"address","internalType":"address"},{"name":"_endpoint","type":"address","internalType":"address"},{"name":"_delegate","type":"address","internalType":"address"}],"outputs":[],"stateMutability":"nonpayable"},{"type":"function","name":"isComposeMsgSender","inputs":[{"name":"","type":"tuple","internalType":"struct Origin","components":[{"name":"srcEid","type":"uint32","internalType":"uint32"},{"name":"sender","type":"bytes32","internalType":"bytes32"},{"name":"nonce","type":"uint64","internalType":"uint64"}]},{"name":"","type":"bytes","internalType":"bytes"},{"name":"_sender","type":"address","internalType":"address"}],"outputs":[{"name":"","type":"bool","internalType":"bool"}],"stateMutability":"view"},{"type":"function","name":"lzReceive","inputs":[{"name":"_origin","type":"tuple","internalType":"struct Origin","components":[{"name":"srcEid","type":"uint32","internalType":"uint32"},{"name":"sender","type":"bytes32","internalType":"bytes32"},{"name":"nonce","type":"uint64","internalType":"uint64"}]},{"name":"_guid","type":"bytes32","internalType":"bytes32"},{"name":"_message","type":"bytes","internalType":"bytes"},{"name":"_executor","type":"address","internalType":"address"},{"name":"_extraData","type":"bytes","internalType":"bytes"}],"outputs":[],"stateMutability":"payable"},{"type":"function","name":"nextNonce","inputs":[{"name":"","type":"uint32","internalType":"uint32"},{"name":"","type":"bytes32","internalType":"bytes32"}],"outputs":[{"name":"nonce","type":"uint64","internalType":"uint64"}],"stateMutability":"view"},{"type":"function","name":"oAppVersion","inputs":[],"outputs":[{"name":"senderVersion","type":"uint64","internalType":"uint64"},{"name":"receiverVersion","type":"uint64","internalType":"uint64"}],"stateMutability":"pure"},{"type":"function","name":"omniChainCDSTotalAvailableLiquidationAmount","inputs":[],"outputs":[{"name":"","type":"uint256","internalType":"uint256"}],"stateMutability":"view"},{"type":"function","name":"omniChainCDSTotalCdsDepositedAmount","inputs":[],"outputs":[{"name":"","type":"uint256","internalType":"uint256"}],"stateMutability":"view"},{"type":"function","name":"owner","inputs":[],"outputs":[{"name":"","type":"address","internalType":"address"}],"stateMutability":"view"},{"type":"function","name":"peers","inputs":[{"name":"eid","type":"uint32","internalType":"uint32"}],"outputs":[{"name":"peer","type":"bytes32","internalType":"bytes32"}],"stateMutability":"view"},{"type":"function","name":"proxiableUUID","inputs":[],"outputs":[{"name":"","type":"bytes32","internalType":"bytes32"}],"stateMutability":"view"},{"type":"function","name":"quote","inputs":[{"name":"_dstEid","type":"uint32","internalType":"uint32"},{"name":"_functionToDo","type":"uint8","internalType":"enum CDSInterface.FunctionToDo"},{"name":"optionsFeesToGetFromOtherChain","type":"uint256","internalType":"uint256"},{"name":"cdsAmountToGetFromOtherChain","type":"uint256","internalType":"uint256"},{"name":"liqAmountToGetFromOtherChain","type":"uint256","internalType":"uint256"},{"name":"liquidationInfo","type":"tuple","internalType":"struct CDSInterface.LiquidationInfo","components":[{"name":"liquidationAmount","type":"uint128","internalType":"uint128"},{"name":"profits","type":"uint128","internalType":"uint128"},{"name":"ethAmount","type":"uint128","internalType":"uint128"},{"name":"availableLiquidationAmount","type":"uint256","internalType":"uint256"}]},{"name":"liqIndex","type":"uint128","internalType":"uint128"},{"name":"_options","type":"bytes","internalType":"bytes"},{"name":"_payInLzToken","type":"bool","internalType":"bool"}],"outputs":[{"name":"fee","type":"tuple","internalType":"struct MessagingFee","components":[{"name":"nativeFee","type":"uint256","internalType":"uint256"},{"name":"lzTokenFee","type":"uint256","internalType":"uint256"}]}],"stateMutability":"view"},{"type":"function","name":"redeemUSDT","inputs":[{"name":"_usdaAmount","type":"uint128","internalType":"uint128"},{"name":"usdaPrice","type":"uint64","internalType":"uint64"},{"name":"usdtPrice","type":"uint64","internalType":"uint64"}],"outputs":[],"stateMutability":"payable"},{"type":"function","name":"renounceOwnership","inputs":[],"outputs":[],"stateMutability":"nonpayable"},{"type":"function","name":"setAdmin","inputs":[{"name":"_admin","type":"address","internalType":"address"}],"outputs":[],"stateMutability":"nonpayable"},{"type":"function","name":"setBorrowLiquidation","inputs":[{"name":"_address","type":"address","internalType":"address"}],"outputs":[],"stateMutability":"nonpayable"},{"type":"function","name":"setBorrowingContract","inputs":[{"name":"_address","type":"address","internalType":"address"}],"outputs":[],"stateMutability":"nonpayable"},{"type":"function","name":"setDelegate","inputs":[{"name":"_delegate","type":"address","internalType":"address"}],"outputs":[],"stateMutability":"nonpayable"},{"type":"function","name":"setDstEid","inputs":[{"name":"_eid","type":"uint32","internalType":"uint32"}],"outputs":[],"stateMutability":"nonpayable"},{"type":"function","name":"setPeer","inputs":[{"name":"_eid","type":"uint32","internalType":"uint32"},{"name":"_peer","type":"bytes32","internalType":"bytes32"}],"outputs":[],"stateMutability":"nonpayable"},{"type":"function","name":"setTreasury","inputs":[{"name":"_treasury","type":"address","internalType":"address"}],"outputs":[],"stateMutability":"nonpayable"},{"type":"function","name":"setUSDaLimit","inputs":[{"name":"percent","type":"uint8","internalType":"uint8"}],"outputs":[],"stateMutability":"nonpayable"},{"type":"function","name":"setUsdtLimit","inputs":[{"name":"amount","type":"uint64","internalType":"uint64"}],"outputs":[],"stateMutability":"nonpayable"},{"type":"function","name":"setWithdrawTimeLimit","inputs":[{"name":"_timeLimit","type":"uint64","internalType":"uint64"}],"outputs":[],"stateMutability":"nonpayable"},{"type":"function","name":"totalAvailableLiquidationAmount","inputs":[],"outputs":[{"name":"","type":"uint256","internalType":"uint256"}],"stateMutability":"view"},{"type":"function","name":"totalCdsDepositedAmount","inputs":[],"outputs":[{"name":"","type":"uint256","internalType":"uint256"}],"stateMutability":"view"},{"type":"function","name":"transferOwnership","inputs":[{"name":"newOwner","type":"address","internalType":"address"}],"outputs":[],"stateMutability":"nonpayable"},{"type":"function","name":"updateLiquidationInfo","inputs":[{"name":"index","type":"uint128","internalType":"uint128"},{"name":"liquidationData","type":"tuple","internalType":"struct CDSInterface.LiquidationInfo","components":[{"name":"liquidationAmount","type":"uint128","internalType":"uint128"},{"name":"profits","type":"uint128","internalType":"uint128"},{"name":"ethAmount","type":"uint128","internalType":"uint128"},{"name":"availableLiquidationAmount","type":"uint256","internalType":"uint256"}]}],"outputs":[],"stateMutability":"nonpayable"},{"type":"function","name":"updateTotalAvailableLiquidationAmount","inputs":[{"name":"amount","type":"uint256","internalType":"uint256"}],"outputs":[],"stateMutability":"nonpayable"},{"type":"function","name":"updateTotalCdsDepositedAmount","inputs":[{"name":"_amount","type":"uint128","internalType":"uint128"}],"outputs":[],"stateMutability":"nonpayable"},{"type":"function","name":"updateTotalCdsDepositedAmountWithOptionFees","inputs":[{"name":"_amount","type":"uint128","internalType":"uint128"}],"outputs":[],"stateMutability":"nonpayable"},{"type":"function","name":"upgradeToAndCall","inputs":[{"name":"newImplementation","type":"address","internalType":"address"},{"name":"data","type":"bytes","internalType":"bytes"}],"outputs":[],"stateMutability":"payable"},{"type":"function","name":"usdaLimit","inputs":[],"outputs":[{"name":"","type":"uint8","internalType":"uint8"}],"stateMutability":"view"},{"type":"function","name":"usdtAmountDepositedTillNow","inputs":[],"outputs":[{"name":"","type":"uint256","internalType":"uint256"}],"stateMutability":"view"},{"type":"function","name":"usdtLimit","inputs":[],"outputs":[{"name":"","type":"uint64","internalType":"uint64"}],"stateMutability":"view"},{"type":"function","name":"withdraw","inputs":[{"name":"_index","type":"uint64","internalType":"uint64"}],"outputs":[],"stateMutability":"payable"},{"type":"event","name":"Deposit","inputs":[{"name":"user","type":"address","indexed":false,"internalType":"address"},{"name":"index","type":"uint64","indexed":false,"internalType":"uint64"},{"name":"depositedUSDa","type":"uint128","indexed":false,"internalType":"uint128"},{"name":"depositedUSDT","type":"uint128","indexed":false,"internalType":"uint128"},{"name":"depositedTime","type":"uint256","indexed":false,"internalType":"uint256"},{"name":"ethPriceAtDeposit","type":"uint128","indexed":false,"internalType":"uint128"},{"name":"lockingPeriod","type":"uint128","indexed":false,"internalType":"uint128"},{"name":"liquidationAmount","type":"uint128","indexed":false,"internalType":"uint128"},{"name":"optedForLiquidation","type":"bool","indexed":false,"internalType":"bool"}],"anonymous":false},{"type":"event","name":"Initialized","inputs":[{"name":"version","type":"uint64","indexed":false,"internalType":"uint64"}],"anonymous":false},{"type":"event","name":"OwnershipTransferred","inputs":[{"name":"previousOwner","type":"address","indexed":true,"internalType":"address"},{"name":"newOwner","type":"address","indexed":true,"internalType":"address"}],"anonymous":false},{"type":"event","name":"PeerSet","inputs":[{"name":"eid","type":"uint32","indexed":false,"internalType":"uint32"},{"name":"peer","type":"bytes32","indexed":false,"internalType":"bytes32"}],"anonymous":false},{"type":"event","name":"Upgraded","inputs":[{"name":"implementation","type":"address","indexed":true,"internalType":"address"}],"anonymous":false},{"type":"event","name":"Withdraw","inputs":[{"name":"user","type":"address","indexed":false,"internalType":"address"},{"name":"index","type":"uint64","indexed":false,"internalType":"uint64"},{"name":"withdrawUSDa","type":"uint256","indexed":false,"internalType":"uint256"},{"name":"withdrawTime","type":"uint256","indexed":false,"internalType":"uint256"},{"name":"withdrawETH","type":"uint128","indexed":false,"internalType":"uint128"},{"name":"ethPriceAtWithdraw","type":"uint128","indexed":false,"internalType":"uint128"},{"name":"optionsFees","type":"uint256","indexed":false,"internalType":"uint256"},{"name":"optionsFeesWithdrawn","type":"uint256","indexed":false,"internalType":"uint256"}],"anonymous":false},{"type":"error","name":"AddressEmptyCode","inputs":[{"name":"target","type":"address","internalType":"address"}]},{"type":"error","name":"AddressInsufficientBalance","inputs":[{"name":"account","type":"address","internalType":"address"}]},{"type":"error","name":"ERC1967InvalidImplementation","inputs":[{"name":"implementation","type":"address","internalType":"address"}]},{"type":"error","name":"ERC1967NonPayable","inputs":[]},{"type":"error","name":"EndPointUnavailable","inputs":[]},{"type":"error","name":"FailedInnerCall","inputs":[]},{"type":"error","name":"InvalidDelegate","inputs":[]},{"type":"error","name":"InvalidEndpointCall","inputs":[]},{"type":"error","name":"InvalidInitialization","inputs":[]},{"type":"error","name":"InvalidOptionType","inputs":[{"name":"optionType","type":"uint16","internalType":"uint16"}]},{"type":"error","name":"LzTokenUnavailable","inputs":[]},{"type":"error","name":"NoPeer","inputs":[{"name":"eid","type":"uint32","internalType":"uint32"}]},{"type":"error","name":"NotEnoughNative","inputs":[{"name":"msgValue","type":"uint256","internalType":"uint256"}]},{"type":"error","name":"NotInitializing","inputs":[]},{"type":"error","name":"OnlyEndpoint","inputs":[{"name":"addr","type":"address","internalType":"address"}]},{"type":"error","name":"OnlyPeer","inputs":[{"name":"eid","type":"uint32","internalType":"uint32"},{"name":"sender","type":"bytes32","internalType":"bytes32"}]},{"type":"error","name":"OwnableInvalidOwner","inputs":[{"name":"owner","type":"address","internalType":"address"}]},{"type":"error","name":"OwnableUnauthorizedAccount","inputs":[{"name":"account","type":"address","internalType":"address"}]},{"type":"error","name":"ReentrancyGuardReentrantCall","inputs":[]},{"type":"error","name":"SafeCastOverflowedUintDowncast","inputs":[{"name":"bits","type":"uint8","internalType":"uint8"},{"name":"value","type":"uint256","internalType":"uint256"}]},{"type":"error","name":"SafeERC20FailedOperation","inputs":[{"name":"token","type":"address","internalType":"address"}]},{"type":"error","name":"UUPSUnauthorizedCallContext","inputs":[]},{"type":"error","name":"UUPSUnsupportedProxiableUUID","inputs":[{"name":"slot","type":"bytes32","internalType":"bytes32"}]}],"bytecode":{"object":"0x60a0806040523461002b5730608052615af99081620000318239608051818181610c220152610d5a0152f35b600080fdfe6080604052600436101561001257600080fd5b60003560e01c80630d14c92e146102d757806313137d65146102d257806317442b70146102cd5780632bb2ea62146102c85780633400288b146102c357806341eddbbd146102be57806346696df3146102b95780634721bae8146102b45780634baf580d146102af5780634cae95d3146102aa5780634f1ef286146102a557806352d1902d146102a05780635e280f111461029b5780636f71ccb114610296578063704b6c0214610291578063715018a61461028c578063750f0acc1461028757806376a3fb3e1461028257806378fdaf3f1461027d5780637bf5e245146102785780637d25a05e1461027357806382413eac1461026e578063868c10d214610269578063880e8e3b146102645780638da5cb5b1461025f578063a4cdc5971461025a578063a736596c14610255578063ad29303414610250578063ad3cb1cc1461024b578063b0b6f3c614610246578063b3013d4d14610241578063b87c3dc31461023c578063bb0b6a5314610237578063ca5eb5e114610232578063cc2a9a5b1461022d578063d4f113e614610228578063dc55b19314610223578063dc91e7521461021e578063df6f05e714610219578063ef543d5c14610214578063f0f442601461020f578063f2fde38b1461020a578063f57ff39c146102055763ff7bd03d1461020057600080fd5b612d0d565b612ce3565b612cb6565b612bc5565b612b15565b612ab4565b612a96565b612a2e565b612a10565b61289d565b612822565b6127e7565b6125f7565b61255e565b6124c7565b612481565b6122b4565b612170565b612124565b6120ee565b61209d565b611f70565b611f12565b611eeb565b611de7565b611d7d565b611d5f565b610f32565b610ec4565b610dff565b610ddb565b610db2565b610d47565b610be0565b6109ed565b610971565b61088f565b6106d1565b61057b565b6104f4565b6104d6565b6104b4565b6103c8565b6102ef565b63ffffffff8116036102ea57565b600080fd5b346102ea5760203660031901126102ea5763ffffffff600435610311816102dc565b61032660018060a01b03600854163314613147565b1680156103405763ffffffff19601d541617601d55600080f35b60405162461bcd60e51b81526020600482015260116024820152704549442063616e2774206265207a65726f60781b6044820152606490fd5b60609060031901126102ea57600490565b9181601f840112156102ea578235916001600160401b0383116102ea57602083818601950101116102ea57565b6001600160a01b038116036102ea57565b60e03660031901126102ea576103dd36610379565b6001600160401b036084358181116102ea576103fd90369060040161038a565b9161040960a4356103b7565b60c4359081116102ea5761042190369060040161038a565b50506000546001600160a01b0316330361049157610446610441846151c5565b6153c8565b92602081013580940361045f5761045d83836152e5565b005b61046984916151c5565b60405163309afaf360e21b815263ffffffff9190911660048201526024810191909152604490fd5b6040516391ac5e4f60e01b8152336004820152602490fd5b60009103126102ea57565b346102ea5760003660031901126102ea57604080516001815260026020820152f35b346102ea5760003660031901126102ea576020600d54604051908152f35b346102ea5760403660031901126102ea577f238399d427b947898edb290f5ff0f9109849b1c3ba196a42e35f00c50a54b98b600435610532816102dc565b6024359061053e61581e565b63ffffffff8116600052600160205281604060002055610576604051928392836020909392919363ffffffff60408201951681520152565b0390a1005b346102ea5760203660031901126102ea5760043560ff81168082036102ea576105af60018060a01b03600854163314613147565b15610662576006546105d1906001600160a01b03165b6001600160a01b031690565b604051631f71924f60e31b8152600860048201529190602090839060249082906000905af191821561065d5761045d926106139160009161062f575b50613140565b60105460ff60801b191660809190911b60ff60801b1617601055565b610650915060203d8111610656575b6106488183610b17565b810190613128565b3861060d565b503d61063e565b612fd4565b60405162461bcd60e51b815260206004820152601860248201527755534461206c696d69742063616e2774206265207a65726f60401b6044820152606490fd5b6001600160801b038116036102ea57565b35906106be826106a2565b565b6001600160401b038116036102ea57565b60603660031901126102ea576004356106e9816106a2565b6024356106f5816106c0565b60443590610702826106c0565b61070a615886565b600680546040516326d2a55160e21b81526004810192909252909390602090859060249082906000906001600160a01b03165af193841561065d576107619461075c91600091610778575b501561318c565b6145e3565b61045d6001600080516020615a8483398151915255565b610790915060203d8111610656576106488183610b17565b38610755565b916101a06106be9294936101c08101956107b98282516001600160401b03169052565b602081015160208301526107dd604082015160408401906001600160401b03169052565b606081015160608301526107fa6080820151608084019015159052565b60a0818101516001600160801b03169083015260c0818101516001600160801b03169083015260e08181015115159083015261010081810151151590830152610120818101516001600160801b031690830152610140818101516001600160801b031690830152610160818101516001600160801b031690830152610180809101519082015201906001600160401b03169052565b346102ea5760403660031901126102ea576004356108ac816103b7565b61095e61095861094b6109456024356108c4816106c0565b6040516108d081610a5b565b6101806000918281528260208201528260408201528260608201528260808201528260a08201528260c08201528260e0820152826101008201528261012082015282610140820152826101608201520152600161092c87612083565b01906001600160401b0316600052602052604060002090565b93612083565b546001600160401b031690565b916150be565b61096d60405192839283610796565b0390f35b346102ea5760203660031901126102ea5760043561098e816106a2565b6003546109b090336001600160a01b03918216149081156109df575b506149c2565b60018060801b0316600e548181039081116109da57600e556018549081039081116109da57601855005b612ff6565b9050600a54163314386109aa565b346102ea5760203660031901126102ea5760035460043590610a2390336001600160a01b03918216149081156109df57506149c2565b600f548181039081116109da57600f556019549081039081116109da57601955005b634e487b7160e01b600052604160045260246000fd5b6101a081019081106001600160401b03821117610a7757604052565b610a45565b608081019081106001600160401b03821117610a7757604052565b6001600160401b038111610a7757604052565b604081019081106001600160401b03821117610a7757604052565b60e081019081106001600160401b03821117610a7757604052565b606081019081106001600160401b03821117610a7757604052565b61022081019081106001600160401b03821117610a7757604052565b90601f801991011681019081106001600160401b03821117610a7757604052565b604051906106be82610a7c565b604051906106be82610aaa565b6040519060a082018281106001600160401b03821117610a7757604052565b604051906106be82610a5b565b6001600160401b038111610a7757601f01601f191660200190565b81601f820112156102ea57803590610bb082610b7e565b92610bbe6040519485610b17565b828452602083830101116102ea57816000926020809301838601378301015290565b60403660031901126102ea576004803590610bfa826103b7565b6024356001600160401b0381116102ea57610c189036908301610b99565b6001600160a01b037f00000000000000000000000000000000000000000000000000000000000000008116308114908115610d2b575b50610d1a579060208392610c6061581e565b6040516352d1902d60e01b8152938491829088165afa60009281610cea575b50610cad575050604051634c9c8ce360e01b81526001600160a01b0390921690820190815281906020010390fd5b8383600080516020615a648339815191528403610cce5761045d83836158b6565b604051632a87526960e21b815290810184815281906020010390fd5b610d0c91935060203d8111610d13575b610d048183610b17565b81019061332c565b9138610c7f565b503d610cfa565b60405163703e46dd60e11b81528390fd5b905081600080516020615a648339815191525416141538610c4e565b346102ea5760003660031901126102ea577f00000000000000000000000000000000000000000000000000000000000000006001600160a01b03163003610da0576020604051600080516020615a648339815191528152f35b60405163703e46dd60e11b8152600490fd5b346102ea5760003660031901126102ea576000546040516001600160a01b039091168152602090f35b346102ea5760003660031901126102ea57602060ff60105460801c16604051908152f35b346102ea5760203660031901126102ea57600435610e1c816103b7565b610e2461581e565b6001600160a01b038116151580610eb6575b610e3f906130af565b600654610e54906001600160a01b03166105c5565b604051631f71924f60e31b81526004808201529190602090839060249082906000905af191821561065d5761045d92610e949160009161062f5750613140565b600880546001600160a01b0319166001600160a01b0392909216919091179055565b50803b151560011415610e36565b346102ea57600080600319360112610f2f57610ede61581e565b600080516020615a2483398151915280546001600160a01b0319811690915581906001600160a01b03167f8be0079c531659141344cd1fd0a4f28419497f9722a3daafe3b4186f6b6457e08280a380f35b80fd5b60203660031901126102ea57610f496004356106c0565b610f51615886565b6006546040516326d2a55160e21b81526005600482015290602090829060249082906000906001600160a01b03165af1801561065d57610f9991600091611d4657501561318c565b6001600160401b03610fc0610fb061094b33612083565b8260043516928391161015613fe7565b610fe6610fe06004610fd88135600161092c33612083565b015460ff1690565b15614041565b6001600160401b03421690611031826001600160401b0361102961101461094b600435600161092c33612083565b600c5460401c6001600160401b031690614081565b16111561409c565b61105460046110468135600161092c33612083565b01805460ff19166001179055565b60016001600160401b0361106a61094b33612083565b16149081611d3b575b50611cfd575b61108161301b565b906110966001600160801b03831615156133f2565b6110fc6110e26110d760086110b2600435600161092c33612083565b0154601c546110d1906001600160801b03165b6001600160801b031690565b906132cd565b64e8d4a51000900490565b60016110f46004358261092c33612083565b015490614115565b9061111a8260016111136004358261092c33612083565b0154613399565b9161116d61112782614b52565b9284600361113c600435600161092c33612083565b01556002611151600435600161092c33612083565b01906001600160401b03166001600160401b0319825416179055565b61117d61117861567f565b615699565b936111b985611191601d5463ffffffff1690565b8561119a610b38565b9160008352600060208401526000604084015260006060840152615073565b946000946111de60056111d3600435600161092c33612083565b015460881c60ff1690565b15611b0f5761120e906112086110c56006611200600435600161092c33612083565b015460801c90565b90614115565b93600460206112276105c560035460018060a01b031690565b604051631360632760e21b815292839182905afa90811561065d57600091611ae0575b5061126f6007611261600435600161092c33612083565b01546001600160801b031690565b6001600160801b03818116908316101561148a575b50505b600480546020906112a0906001600160a01b03166105c5565b604051639cac625160e01b815292839182905afa90811561065d5760009161146b575b506113a2575b9161132d849392600080516020615a448339815191529861134096946112f96110c5600b5460018060801b031690565b6001600160801b03861603611394575b801580611383575b61135a575b601d5463ffffffff16611327613625565b90614efc565b506040519586954290600435338961438f565b0390a161045d6001600080516020615a8483398151915255565b61137e600080808061136d875134614115565b335af1611378614442565b50614472565b611316565b506001600160801b038a1615611311565b61139d85613fc2565b611309565b600354909392906113bb906001600160a01b03166105c5565b60405163ada0b0ed60e01b81526000600482018190526001600160801b0384166024830152909391602091859160449183915af190811561065d57600080516020615a44833981519152986113409661142e614e206001600160401b0361132d968a9960009161143c575b5016116143f6565b9395509850929450506112c9565b61145e915060203d602011611464575b6114568183610b17565b8101906143e1565b38611426565b503d61144c565b611484915060203d602011610d1357610d048183610b17565b386112c3565b611493906131c1565b6001600160801b0382811690821611156119d65750506114cb6114c56110c56006611200600435600161092c33612083565b86613399565b6001600160801b03871661192d576115006114fb60016114f16004358261092c33612083565b0154600d54614115565b600d55565b61152761152260016115186004358261092c33612083565b0154601754614115565b601755565b61156161155c61155460016115426004358261092c33612083565b015461154e868a614115565b90613399565b600e54614115565b600e55565b61158a61158561157d8760016111136004358261092c33612083565b601854614115565b601855565b81158015906000828061191c575b156118cd57506002915b906118bb575b6117e8575b508060036115c2600435600161092c33612083565b01556004546115d9906001600160a01b03166105c5565b803b156102ea57604051635e44fb0560e01b815230600482015260248101839052906000908290604490829084905af1801561065d576117d5575b5060025461165f906020908390611633906001600160a01b03166105c5565b6009546001600160a01b031660006040518096819582946323b872dd60e01b8452339060048501614212565b03925af190811561065d57611682916001916000916117b6575b50151514614343565b866001600160801b0381166116c4575b600080516020615a44833981519152916116ba8780886040519586954290600435338961438f565b0390a13880611284565b506004546116da906001600160a01b03166105c5565b803b156102ea5760405163cd0220c960e01b81526001600160801b038916600482015260006024820181905290918290604490829084905af1801561065d576117a3575b50600454611734906001600160a01b03166105c5565b90813b156102ea57604051635822b66d60e01b81529160009083908183816117608e3360048401613593565b03925af190811561065d57600080516020615a4483398151915292899261178a575b509150611692565b8061179761179d92610a97565b806104a9565b38611782565b806117976117b092610a97565b3861171e565b6117cf915060203d602011610656576106488183610b17565b38611679565b806117976117e292610a97565b38611614565b60045461187e91608091611804906001600160a01b03166105c5565b61180f8c5134614115565b6009546001600160a01b03169290611825610b45565b6001600160a01b038516815291886020840152611852611843610b45565b6001600160a01b039096168652565b6000196001871b018e16602086015260405163f5dee49360e01b815296879586948593600485016141d6565b03925af1801561065d57156115ad576118ad9060803d81116118b4575b6118a58183610b17565b81019061414a565b50386115ad565b503d61189b565b506001600160801b03881615156115a8565b818061190a575b156118e257506003916115a2565b9180806118f8575b156115a257600492506115a2565b506001600160801b038a1615156118ea565b506001600160801b038a1615156118d4565b506001600160801b038a1615611598565b61196b6114fb61196360016119486004358261092c33612083565b01546112086110c56006611200600435600161092c33612083565b600d54614115565b61198e61152261198660016119486004358261092c33612083565b601754614115565b6119b261155c611554846119ad60016119486004358261092c33612083565b613399565b6119d161158561157d876119ad60016119486004358261092c33612083565b61158a565b6119ec6006611200600435600161092c33612083565b6001600160801b038116611a0a575b50611a0590614280565b611493565b8198611ad3611a82611ad993611a7d6040611a62611a4e611a48611a43611a059b60018060801b03166000526015602052604060002090565b614298565b946142d7565b60608501516001600160801b031690614312565b92611ac5611a97611a8286611a7d855160018060801b031690565b6142f6565b6402540be4006001600160801b039091160490565b611abf6006611aad600435600161092c33612083565b0191611aba835460801c90565b61432a565b90612d72565b01516001600160801b031690565b906131d9565b97906119fb565b611b02915060203d602011611b08575b611afa8183610b17565b810190613446565b3861124a565b503d611af0565b9380611c44575b611b2e6114fb60016114f16004358261092c33612083565b611b3e61155c6115548388614115565b611b5661152260016115186004358261092c33612083565b611b6561158586601854614115565b846003611b79600435600161092c33612083565b0155600454611b90906001600160a01b03166105c5565b803b156102ea57604051635e44fb0560e01b815230600482015260248101879052906000908290604490829084905af1801561065d57611c31575b50600254611bea906020908790611633906001600160a01b03166105c5565b03925af190811561065d57611c0d91600191600091611c12575b50151514614234565b611287565b611c2b915060203d602011610656576106488183610b17565b38611c04565b80611797611c3e92610a97565b38611bcb565b600454611cca90608090611c60906001600160a01b03166105c5565b611c6b8a5134614115565b6009549091906001600160a01b0316611c94611c85610b45565b6001600160a01b039092168252565b856020820152611ca2610b45565b92600084526000602085015260405180968195829463f5dee49360e01b84526004840161418c565b03925af1801561065d57611cdf575b50611b16565b611cf69060803d81116118b4576118a58183610b17565b5038611cd9565b611d36611d1a611d15600c546001600160401b031690565b6140ff565b6001600160401b03166001600160401b0319600c541617600c55565b611079565b600191501438611073565b610790915060203d602011610656576106488183610b17565b346102ea5760003660031901126102ea576020601154604051908152f35b346102ea5760203660031901126102ea57600435611d9a816103b7565b611dc660018060a01b03611db381600854163314613147565b8216918215159081611ddc575b50614825565b600380546001600160a01b031916919091179055005b90503b151538611dc0565b346102ea5760203660031901126102ea57600435611e04816106c0565b611e1960018060a01b03600854163314613147565b6001600160401b03811615611eab57600654611e3d906001600160a01b03166105c5565b604051631f71924f60e31b8152600960048201529190602090839060249082906000905af191821561065d5761045d92611e7e9160009161062f5750613140565b6010805467ffffffffffffffff60881b191660889290921b67ffffffffffffffff60881b16919091179055565b60405162461bcd60e51b815260206004820152601860248201527755534454206c696d69742063616e2774206265207a65726f60401b6044820152606490fd5b346102ea5760403660031901126102ea57611f076004356102dc565b602060405160008152f35b346102ea5760a03660031901126102ea57611f2c36610379565b506064356001600160401b0381116102ea57611f4c90369060040161038a565b50506020608435611f5c816103b7565b6040516001600160a01b0390911630148152f35b346102ea5760203660031901126102ea57600435611f8d816106c0565b611fa260018060a01b03600854163314613147565b6001600160401b0381161561203457600654611fc6906001600160a01b03166105c5565b604051631f71924f60e31b8152600260048201529190602090839060249082906000905af191821561065d5761045d926120079160009161062f5750613140565b600c805467ffffffffffffffff60401b191660409290921b67ffffffffffffffff60401b16919091179055565b60405162461bcd60e51b815260206004820152602160248201527f57697468647261772074696d65206c696d69742063616e2774206265207a65726044820152606f60f81b6064820152608490fd5b6001600160a01b0316600090815260146020526040902090565b346102ea5760203660031901126102ea576004356120ba816103b7565b60018060a01b031660005260146020526040806000205460ff8251916001600160401b0381168352831c1615156020820152f35b346102ea5760003660031901126102ea57600080516020615a24833981519152546040516001600160a01b039091168152602090f35b346102ea5760203660031901126102ea57600435612141816103b7565b61215a60018060a01b03611db381600854163314613147565b600a80546001600160a01b031916919091179055005b346102ea5760003660031901126102ea576020601954604051908152f35b6024359060038210156102ea57565b359060038210156102ea57565b60809060a31901126102ea57604051906121c382610a7c565b8160a4356121d0816106a2565b815260c4356121de816106a2565b602082015260e4356121ef816106a2565b6040820152606061010435910152565b60809060231901126102ea576040519061221882610a7c565b81602435612225816106a2565b8152604435612233816106a2565b6020820152606435612244816106a2565b60408201526060608435910152565b91908260809103126102ea5760405161226b81610a7c565b6060808294803561227b816106a2565b8452602081013561228b816106a2565b6020850152604081013561229e816106a2565b60408501520135910152565b801515036102ea57565b346102ea576101803660031901126102ea576004356122d2816102dc565b6122da61218e565b6122e3366121aa565b9161012435906122f2826106a2565b61014435936001600160401b0385116102ea576123ba6123569461231d6123d6973690600401610b99565b612364610164359261232e846122aa565b61233661486c565b506040988998895197889360843590606435906044359060208801614d8e565b03601f198101865285610b17565b61236c61486c565b50600054612382906001600160a01b03166105c5565b9361238c866153c8565b6123a3612397610b52565b63ffffffff9098168852565b602087015286860152606085015215156080840152565b82518080968194631bb8518b60e31b8352309060048401615414565b03915afa90811561065d5761096d9260009261240a575b505191829182815181526020918201519181019190915260400190565b8161242b9293503d8411612432575b6124238183610b17565b810190615400565b90386123ed565b503d612419565b60005b83811061244c5750506000910152565b818101518382015260200161243c565b9060209161247581518092818552858086019101612439565b601f01601f1916010190565b346102ea5760003660031901126102ea5761096d6040516124a181610aaa565b60058152640352e302e360dc1b602082015260405191829160208352602083019061245c565b60803660031901126102ea576004356124df816106a2565b6024356124eb816106a2565b6044356124f7816122aa565b60643591612504836106a2565b61250c615886565b6006546040516326d2a55160e21b81526004808201529490602090869060249082906000906001600160a01b03165af194851561065d57610761956125599160009161077857501561318c565b61367b565b346102ea5760a03660031901126102ea5760043561257b816106a2565b60026060612588366121ff565b6003546125a990336001600160a01b03918216149081156109df57506149c2565b60018060801b0380941660005260156020526125f06040600020946125d18184511687612d53565b6125e18160208501511687612d72565b60408301511660018601612d53565b0151910155005b60203660031901126102ea5760043561260f816106a2565b60035461263090336001600160a01b03918216149081156109df57506149c2565b600d54600e54601854601c5491939092916004906001600160801b03168154602090612664906001600160a01b03166105c5565b6040516354dec33960e11b815293849182905afa90811561065d576060956126df936000936127c7575b5060405163bbfefd7360e01b81526001600160801b0395861660048201526024810196909652604486019790975260648501969096529482166084840152931660a4820152918290819060c4820190565b038173__$f36c2562f94d083e3ab2b3584d2e5eda55$__5af490811561065d5761273a916000908190829061278b575b601c80546001600160801b0319166001600160801b0390921691909117905590915061155c90601855565b61045d61274861117861567f565b601d5463ffffffff1661277c8261275d610b38565b6000815260006020820152600060408201526000606082015283614fa0565b90612785613625565b90614e4a565b50505061155c6127b46115859260603d81116127c0575b6127ac8183610b17565b810190614a3f565b9193508392509061270f565b503d6127a2565b6127e091935060203d8111611b0857611afa8183610b17565b913861268e565b346102ea5760203660031901126102ea5763ffffffff600435612809816102dc565b1660005260016020526020604060002054604051908152f35b346102ea5760006020366003190112610f2f57600435612841816103b7565b61284961581e565b81546001600160a01b0390811691839190833b156128995760249083604051958694859363ca5eb5e160e01b85521660048401525af1801561065d5761288d575080f35b61289690610a97565b80f35b8280fd5b346102ea5760c03660031901126102ea576004356128ba816103b7565b602435906128c7826103b7565b6044356128d3816103b7565b6064356128df816103b7565b608435906128ec826103b7565b60a435926128f9846103b7565b600080516020615aa483398151915254956001600160401b0360ff8860401c1615971680159081612a08575b60011490816129fe575b1590816129f5575b506129e357600080516020615aa4833981519152805467ffffffffffffffff1916600117905561296b95876129be57612db1565b61297157005b600080516020615aa4833981519152805460ff60401b19169055604051600181527fc7f505b2f371ae2175ee4913f4499e1f2633a7b5936321eed1cdaeb6115181d2908060208101610576565b600080516020615aa4833981519152805460ff60401b1916600160401b179055612db1565b60405163f92ee8a960e01b8152600490fd5b90501538612937565b303b15915061292f565b889150612925565b346102ea5760003660031901126102ea576020601754604051908152f35b346102ea5760203660031901126102ea57600435612a4b816106a2565b600354612a6c90336001600160a01b03918216149081156109df57506149c2565b60018060801b0316600d548181039081116109da57600d556017549081039081116109da57601755005b346102ea5760003660031901126102ea576020600f54604051908152f35b346102ea5760003660031901126102ea5760206001600160401b03600c5416604051908152f35b6106be909291926040806080830195805184526001600160401b036020820151166020850152015191019060208091805184520151910152565b6101a03660031901126102ea57600435612b2e816102dc565b612b3661218e565b612b3f366121aa565b9061012435612b4d816106a2565b6040366101431901126102ea5760405190612b6782610aaa565b61014435825261016435602083015261018435936001600160401b0385116102ea5761096d95612b9e612bb9963690600401610b99565b94612ba7614bce565b50608435916064359160443591614bf6565b60405191829182612adb565b346102ea5760203660031901126102ea57600435612be2816103b7565b6008546001600160a01b0390612bfb9082163314613147565b811680151580612cac575b612c0f90614825565b600654612c24906001600160a01b03166105c5565b604051631f71924f60e31b8152600660048201529290602090849060249082906000905af190811561065d57612c68612c8a9261045d9560009161062f5750613140565b600980546001600160a01b0319166001600160a01b0392909216919091179055565b600480546001600160a01b0319166001600160a01b0392909216919091179055565b50813b1515612c06565b346102ea5760203660031901126102ea5761045d600435612cd6816103b7565b612cde61581e565b6157aa565b346102ea5760003660031901126102ea5760206001600160401b0360105460881c16604051908152f35b346102ea5760603660031901126102ea576020612d2936610379565b63ffffffff8135612d39816102dc565b166000526001825260406000205482604051920135148152f35b80546001600160801b0319166001600160801b03909216919091179055565b80546001600160801b031660809290921b6001600160801b031916919091179055565b60135460ff60801b191690151560801b60ff60801b1617601355565b949092612dbc615857565b612dc4615857565b612dcd336157aa565b612dd5615857565b612ddd615857565b612de5615857565b6001600160a01b039485168015612fab57600080546001600160a01b0319166001600160a01b0390921691909117905584821615612f9957600054612e32906001600160a01b03166105c5565b803b156102ea5760405163ca5eb5e160e01b81526001600160a01b039390931660048401526000908390602490829084905af1801561065d5785612eea94612ea682612f0c9a8197612ec896612f86575b5060028054919092166001600160a01b03166001600160a01b0319909116179055565b60078054919092166001600160a01b03166001600160a01b0319909116179055565b60068054919092166001600160a01b03166001600160a01b0319909116179055565b60058054919092166001600160a01b03166001600160a01b0319909116179055565b612f39612f1761301b565b600b80546001600160801b0319166001600160801b0392909216919091179055565b600b80546001600160801b0319608082901b166001600160801b03909116179055601c80546001600160801b03191664e8d4a510001790556013805460ff60801b1916600160801b179055565b80611797612f9392610a97565b38612e83565b604051632d618d8160e21b8152600490fd5b604051638ad182f960e01b8152600490fd5b519069ffffffffffffffffffff821682036102ea57565b6040513d6000823e3d90fd5b634e487b7160e01b600052601260045260246000fd5b634e487b7160e01b600052601160045260246000fd5b8115613016570490565b612fe0565b600554604051633fabe5a360e21b81529060a090829060049082906001600160a01b03165afa90811561065d57600091613063575b50620f424090046001600160801b031690565b9060a0823d82116130a7575b8161307c60a09383610b17565b81010312610f2f575061308e81612fbd565b506130a0608060208301519201612fbd565b5038613050565b3d915061306f565b156130b657565b60405162461bcd60e51b815260206004820152602e60248201527f41646d696e2063616e277420626520636f6e747261637420616464726573732060448201526d26207a65726f206164647265737360901b6064820152608490fd5b634e487b7160e01b600052602160045260246000fd5b908160209103126102ea575161313d816122aa565b90565b156102ea57565b1561314e57565b60405162461bcd60e51b815260206004820152601660248201527521b0b63632b91034b9903737ba1030b71030b236b4b760511b6044820152606490fd5b1561319357565b60405162461bcd60e51b815260206004820152600660248201526514185d5cd95960d21b6044820152606490fd5b6001600160801b03908116600101919082116109da57565b6001600160801b0391821690821601919082116109da57565b156131f957565b60405162461bcd60e51b815260206004820152602160248201527f4465706f73697420616d6f756e742073686f756c64206e6f74206265207a65726044820152606f60f81b6064820152608490fd5b1561324f57565b60405162461bcd60e51b815260206004820152603660248201527f4c69717569646174696f6e20616d6f756e742063616e27742067726561746572604482015275081d1a185b8819195c1bdcda5d195908185b5bdd5b9d60521b6064820152608490fd5b9064e8d4a51000918281029281840414901517156109da57565b818102929181159184041417156109da57565b156132e757565b60405162461bcd60e51b815260206004820152601c60248201527f5265717569726564205553446120616d6f756e74206e6f74206d6574000000006044820152606490fd5b908160209103126102ea575190565b1561334257565b60405162461bcd60e51b815260206004820152602960248201527f496e73756666696369656e7420555344612062616c616e63652077697468206d60448201526839b39739b2b73232b960b91b6064820152608490fd5b919082018092116109da57565b156133ad57565b60405162461bcd60e51b815260206004820152601b60248201527f31303025206f6620616d6f756e74206d757374206265205553445400000000006044820152606490fd5b156133f957565b60405162461bcd60e51b815260206004820152600d60248201526c13dc9858db194811985a5b1959609a1b6044820152606490fd5b6001600160401b038091169081146109da5760010190565b908160209103126102ea575161313d816106a2565b1561346257565b60405162461bcd60e51b815260206004820152602960248201527f496e73756666696369656e7420555344542062616c616e63652077697468206d60448201526839b39739b2b73232b960b91b6064820152608490fd5b6001600160a01b039182168152911660208201526001600160801b03909116604082015260600190565b156134ea57565b60405162461bcd60e51b815260206004820152602360248201527f55534454205472616e73666572206661696c656420696e20434453206465706f6044820152621cda5d60ea1b6064820152608490fd5b1561354257565b60405162461bcd60e51b815260206004820152602360248201527f55534461205472616e73666572206661696c656420696e20434453206465706f6044820152621cda5d60ea1b6064820152608490fd5b6001600160a01b0390911681526001600160801b03909116602082015260400190565b156135bd57565b60405162461bcd60e51b815260206004820152602b60248201527f55534461206d696e7420746f207472656173757279206661696c656420696e2060448201526a10d114c819195c1bdcda5d60aa1b6064820152608490fd5b6003111561362057565b613112565b6040519061363282610ac5565b6016546001600160401b03168252601754602083015260185460408301526019546060830152601a546080830152601b5460a0830152601c546001600160801b031660c0830152565b919261368a6110c583856131d9565b6136958115156131f2565b6001600160801b036136ab838216831015613248565b60115491601054926001600160401b039382858260881c1691828410600014613f245750506136dd8489168093613399565b11613ee957816136ed91146133a6565b6136f561301b565b9261370383851615156133f2565b61372061371c61371233612083565b5460401c60ff1690565b1590565b15613ea65761374461373133612083565b805460ff60401b1916600160401b179055565b61376461375033612083565b805467ffffffffffffffff19166001179055565b600192613784611d1a61377f600c546001600160401b031690565b61342e565b6137b861379c61377f6016546001600160401b031690565b6001600160401b03166001600160401b03196016541617601655565b60019183836137cb878261092c33612083565b01556138078660046137e1888761092c33612083565b018054610100600160881b03191660089290921b610100600160881b0316919091179055565b61394e613933613816886148bf565b8051909690613836906001600160801b0316602098890151151590614a85565b60135461385c906001600160801b031660056138568b8a61092c33612083565b01612d53565b6013546138989060801c60ff1660056138798b8a61092c33612083565b018054909160ff60801b1990911690151560801b60ff60801b16179055565b6138a76114fb82600d54613399565b6138b661155c82600e54613399565b6138c561152282601754613399565b6138d461158582601854613399565b61392e858d16946138ef6138ea87601154613399565b601155565b6139036138fe87601a54613399565b601a55565b42166139138a8961092c33612083565b906001600160401b03166001600160401b0319825416179055565b6132b3565b601c54613948906001600160801b03166110c5565b9061300c565b600861395e878661092c33612083565b015589613993816005613975898861092c33612083565b01805460ff60881b191691151560881b60ff60881b16919091179055565b613dd9575b600b546139ad906001600160801b03166110c5565b82871603613dcb575b8015801580938194613dbf575b5015613cc057506007546139df906001600160a01b03166105c5565b6040516370a0823160e01b815233600482015290918582602481865afa801561065d57613a1692600091613ca3575b50101561345b565b6009546000908590613a4c906001600160a01b0316938c6040519485809481936323b872dd60e01b998a845233600485016134b9565b03925af190811561065d57613ab292613a748688948d94600091613c86575b501515146134e3565b600254613a89906001600160a01b03166105c5565b6009549091906000906001600160a01b03169160405196879586948593845233600485016134b9565b03925af190811561065d57613ad4918491600091613c69575b5015151461353b565b613baf575b5091613baa9391613b4b7f135b90494e4bfddd44112e8e67fd1a5958d33a1944a77f8a4b1ac6e945e684da9894613b1161117861567f565b9061277c82613b25601d5463ffffffff1690565b926000613b30610b38565b91818352820152600060408201526000606082015283614fa0565b50604080513381526001600160401b0390921660208301526001600160801b03968716908201529585166060870152426080870152841660a0860152603c60c08601529290921660e08401529015156101008301528190610120820190565b0390a1565b939181613bf798949288613bcd6105c560025460018060a01b031690565b6009546001600160a01b03166000604051809e819582946340c10f1960e01b845260048401613593565b03925af190811561065d57613c40613baa97613b4b937f135b90494e4bfddd44112e8e67fd1a5958d33a1944a77f8a4b1ac6e945e684da9c600091613c4c575b501515146135b6565b92949850509193613ad9565b613c639150843d8611610656576106488183610b17565b38613c37565b613c809150863d8811610656576106488183610b17565b38613acb565b613c9d9150863d8811610656576106488183610b17565b38613a6b565b613cba9150873d8911610d1357610d048183610b17565b38613a0e565b15613d345750600254613d0e9084908990613ce3906001600160a01b03166105c5565b6009546001600160a01b031660006040518096819582946323b872dd60e01b845233600485016134b9565b03925af190811561065d57613d2f918491600091613c69575015151461353b565b613ad4565b600754613d49906001600160a01b03166105c5565b6040516370a0823160e01b815233600482015291908583602481845afa90811561065d57613ce387938d93613d8796600091613da85750101561345b565b03925af190811561065d57613d2f918491600091613c8657501515146134e3565b613cba9150863d8811610d1357610d048183610b17565b905089161515386139c3565b613dd486613fc2565b6139b6565b6003546004908590613df3906001600160a01b03166105c5565b604051631360632760e21b815292839182905afa801561065d57613e2a91600091613e89575b506007613856888761092c33612083565b613e44876006613e3e888761092c33612083565b01612d72565b613e58876006613856888761092c33612083565b613e6e613e69838916600f54613399565b600f55565b613e84613e7f838916601954613399565b601955565b613998565b613ea09150863d8811611b0857611afa8183610b17565b38613e19565b613eaf33612083565b613ee3613ec661377f83546001600160401b031690565b825467ffffffffffffffff19166001600160401b03821617909255565b926137b8565b60405162461bcd60e51b815260206004820152601360248201527214dd5c9c1b1d5cc81554d11508185b5bdd5b9d606a1b6044820152606490fd5b613f409350613f39925060801c60ff166132cd565b6064900490565b613f4f838716918210156132e0565b600254613f64906001600160a01b03166105c5565b6040516370a0823160e01b81523360048201529190602090839060249082905afa801561065d57613f9f92600091613fa4575b50101561333b565b6136ed565b613fbc915060203d8111610d1357610d048183610b17565b38613f97565b600b805460801b6001600160801b0319166001600160801b0392909216919091179055565b15613fee57565b60405162461bcd60e51b815260206004820152602560248201527f7573657220646f65736e277420686176652074686520737065636966696564206044820152640d2dcc8caf60db1b6064820152608490fd5b1561404857565b60405162461bcd60e51b815260206004820152601160248201527020b63932b0b23c903bb4ba34323930bbb760791b6044820152606490fd5b9190916001600160401b03808094169116019182116109da57565b156140a357565b60405162461bcd60e51b815260206004820152602e60248201527f63616e6e6f74207769746864726177206265666f72652074686520776974686460448201526d1c985dc81d1a5b59481b1a5b5a5d60921b6064820152608490fd5b6001600160401b031680156109da576000190190565b919082039182116109da57565b91908260409103126102ea5760405161413a81610aaa565b6020808294805184520151910152565b906080828203126102ea5761418490604080519361416785610ae0565b805185526020810151614179816106c0565b602086015201614122565b604082015290565b6002815281516001600160a01b031660208083019190915290910151604082015260a0810192916106be916060905b82516001600160a01b03169101908152602091820151910152565b9392909160a085019460058410156136205792835280516001600160a01b0316602080850191909152015160408301526106be916060906141bb565b6001600160a01b03918216815291166020820152604081019190915260600190565b1561423b57565b60405162461bcd60e51b815260206004820152601f60248201527f5472616e73666572206661696c656420696e20636473207769746864726177006044820152606490fd5b6001600160801b039081169081146109da5760010190565b906040516142a581610a7c565b82546001600160801b03808216835260809190911c602083015260018401541660408201526002909201546060830152565b6001600160801b039081166402540be40002908116919082036109da57565b6001600160801b0391821690821602908116919082036109da57565b6001600160801b039182169190821561301657160490565b6001600160801b0391821690821603919082116109da57565b1561434a57565b60405162461bcd60e51b815260206004820152601e60248201527f5472616e7373756363657373656420696e2063647320776974686472617700006044820152606490fd5b94926001600160401b0360e097939a999895929a61010088019b60018060a01b031688521660208701526040860152606085015260018060801b0380921660808501521660a083015260c08201520152565b908160209103126102ea575161313d816106c0565b156143fd57565b60405162461bcd60e51b815260206004820152601b60248201527f4344533a204e6f7420656e6f7567682066756e6420696e2043445300000000006044820152606490fd5b3d1561446d573d9061445382610b7e565b916144616040519384610b17565b82523d6000602084013e565b606090565b1561447957565b60405162461bcd60e51b81526020600482015260146024820152732330b4b632b2103a379039b2b7321022ba3432b960611b6044820152606490fd5b156144bc57565b60405162461bcd60e51b8152602060048201526019602482015278416d6f756e742073686f756c64206e6f74206265207a65726f60381b6044820152606490fd5b1561450457565b60405162461bcd60e51b8152602060048201526014602482015273496e73756666696369656e742062616c616e636560601b6044820152606490fd5b1561454757565b60405162461bcd60e51b815260206004820152601e60248201527f55534461204275726e206661696c656420696e2072656465656d5553445400006044820152606490fd5b1561459357565b60405162461bcd60e51b815260206004820152602260248201527f55534454205472616e73666572206661696c656420696e2072656465656d5553604482015261111560f21b6064820152608490fd5b6001600160801b0381169290916145fb8415156144b5565b600254614610906001600160a01b03166105c5565b6040516370a0823160e01b8152336004820152602095918690829060249082905afa91821561065d57614655816146769461467194600091614808575b5010156144fd565b61466961466482601254613399565b601255565b601b54613399565b601b55565b60025461468b906001600160a01b03166105c5565b8460405180926363a9f09360e11b8252816000816146ad8a3360048401613593565b03925af193841561065d576146d660016146ee966146e6946000916147eb575b50151514614540565b6001600160401b038093166142f6565b911690614312565b600454909190614706906001600160a01b03166105c5565b91823b156102ea576000604051809463e613610560e01b8252818381614730873060048401613593565b03925af190811561065d576147889383926147d8575b5060075461475c906001600160a01b03166105c5565b6009546001600160a01b031660006040518097819582946323b872dd60e01b84523390600485016134b9565b03925af1801561065d5760016147ad916147b8946000916147bb575b5015151461458c565b613b1161117861567f565b50565b6147d29150843d8611610656576106488183610b17565b386147a4565b806117976147e592610a97565b38614746565b6148029150893d8b11610656576106488183610b17565b386146cd565b61481f91508a3d8c11610d1357610d048183610b17565b3861464d565b1561482c57565b60405162461bcd60e51b8152602060048201526018602482015277125b9c1d5d081859191c995cdcc81a5cc81a5b9d985b1a5960421b6044820152606490fd5b6040519061487982610aaa565b60006020838281520152565b908160409103126102ea5760206040519161489f83610aaa565b80516148aa816106a2565b835201516148b7816122aa565b602082015290565b6004906148ca61486c565b5081546020906148e2906001600160a01b03166105c5565b6040516340d86d7b60e01b815293849182905afa91821561065d5760009261499f575b50600d54600b546040805163083fa09560e11b81526001600160801b0394851660048201526024810193909352928116604483015260801c606482015260848101929092528160a48173__$f36c2562f94d083e3ab2b3584d2e5eda55$__5af490811561065d57600091614977575090565b61313d915060403d8111614998575b6149908183610b17565b810190614885565b503d614986565b60409192506149bb9060203d8111610d1357610d048183610b17565b9190614905565b156149c957565b60405162461bcd60e51b815260206004820152604260248201527f546869732066756e6374696f6e2063616e206f6e6c792063616c6c656420627960448201527f20626f72726f77696e67206f72204c69717569646174696f6e20636f6e74726160648201526118dd60f21b608482015260a490fd5b908160609103126102ea578051916040602083015192015161313d816106a2565b91908260409103126102ea5760208251614a79816122aa565b92015161313d816106a2565b60135460408051632142426760e01b81526001600160801b0393841660048201529315156024850152608082901c60ff1615156044850152911660648301528160848173__$f36c2562f94d083e3ab2b3584d2e5eda55$__5af490811561065d576106be916000918291614b1e575b50601380546001600160801b0319166001600160801b03909216919091179055612d95565b612d95565b614b199250614b44915060403d8111614b4b575b614b3c8183610b17565b810190614a60565b9091614af4565b503d614b32565b600d54601754600e54906018549260405194630a1f144d60e01b86526004860152602485015260448401526064830152608482015260208160a48173__$f36c2562f94d083e3ab2b3584d2e5eda55$__5af490811561065d57600091614bb6575090565b61313d915060203d8111610d1357610d048183610b17565b60405190614bdb82610ae0565b8160008152600060208201526040614bf161486c565b910152565b969561313d9895614c34929395614c4295614c2560018060a01b03806003541633149081156109df57506149c2565b60405197889660208801614d8e565b03601f198101835282610b17565b3393615482565b9060038210156136205752565b6060809160018060801b0380825116855280602083015116602086015260408201511660408501520151910152565b60018152610200810192916000916101e091614d05906016546001600160401b03166020840152601754604084015260185460608401526019546080840152601a5460a0840152601b5460c0840152601c546001600160801b031660e0840152846101008401528461012084015284610140840152610160830190614c56565b0152565b6101e090614d056000939594610200830196614d258460029052565b6016546001600160401b03166020850152601754604085015260185460608501526019546080850152601a5460a0850152601b5460c0850152601c546001600160801b031660e08501526101008401528461012084015284610140840152610160830190614c56565b9194614e15919796946101e0946106be97614dae8661020081019c614c49565b6016546001600160401b03166020870152601754604087015260185460608701526019546080870152601a5460a0870152601b5460c0870152601c546001600160801b031660e0870152610100860152610120850152610140840152610160830190614c56565b6001600160801b03909216910152565b60405190614e3282610a7c565b60006060838281528260208201528260408201520152565b91909261313d93614e59614bce565b50614ee8614e65614e25565b60405160016020820152926001600160401b0381511660408501526020810151606085015260408101516080850152606081015160a0850152608081015160c085015260a081015160e085015260c060018060801b0391015116610100840152600061012084015260006101408401526000610160840152610180830190614c56565b6102006000818301528152614c4281610afb565b929190614ee861313d9592614f0f614bce565b50614f18614e25565b9060405193614f2a6020860160029052565b6001600160401b0381511660408601526020810151606086015260408101516080860152606081015160a0860152608081015160c086015260a081015160e086015260c060018060801b039101511661010085015261012084015260006101408401526000610160840152610180830190614c56565b9061504691614fc8614fd694614fb461486c565b506040958694855193849160208301614c85565b03601f198101845283610b17565b614fde61486c565b50600054614ff4906001600160a01b03166105c5565b91614ffe846153c8565b615015615009610b52565b63ffffffff9096168652565b60208501528484015260608301526000608083015282518080958194631bb8518b60e31b8352309060048401615414565b03915afa91821561065d5760009261505d57505090565b61313d9250803d10612432576124238183610b17565b61504692614fd69461508361486c565b506040958694614fc8865194859260208401614d09565b9060606002916150b760018060801b036125d18184511687612d53565b0151910155565b9060086150c9610b71565b926150eb6150de82546001600160401b031690565b6001600160401b03168552565b6001810154602085015261511c61510c60028301546001600160401b031690565b6001600160401b03166040860152565b60038101546060850152600481015460ff8116151560808601526151a790831c6001600160801b0390811660a087015260058301546001600160801b038282161660c08801526151859060ff90608081901c8216151560e08a015260881c161515610100880152565b60068301549081166001600160801b031661012087015260801c610140860152565b60078101546001600160801b03166101608501520154610180830152565b3561313d816102dc565b8082039261020084126102ea5760e06151e78361219d565b94601f1901126102ea576040516151fd81610ac5565b602083013561520b816106c0565b815260408301356020820152606083013560408201526080830135606082015260a0830135608082015260c083013560a082015260e083013561524d816106a2565b60c082015292610100830135926101208101359261313d6101e061527b610140850135956101608601612253565b93016106b3565b6001600160401b038151166001600160401b031960165416176016556020810151601755604081015160185560608101516019556080810151601a5560a0810151601b5560c060018060801b039101511660018060801b0319601c541617601c55565b61532e916040516152f581610ac5565b60c06000918281528260208201528260408201528260608201528260808201528260a08201520152615325614e25565b508101906151cf565b90929561533a81613616565b600181036153515750505050506106be9150615282565b8061535d600292613616565b1461536b575b505050505050565b615399613e696153b3936153916114fb6153bd9a61196361155c6153b89b600e54614115565b600f54614115565b6001600160801b0316600090815260156020526040902090565b61509a565b615282565b388080808080615363565b63ffffffff168060005260016020526040600020549081156153e8575090565b6024906040519063f6ff4fb760e01b82526004820152fd5b906040828203126102ea5761313d91614122565b906020909392936040835263ffffffff81511660408401528181015160608401526080615468615452604084015160a08488015260e087019061245c565b6060840151868203603f190160a088015261245c565b910151151560c08401526001600160a01b03909416910152565b6080936154f46155109694615495614bce565b5060206154a2845161554d565b93019081518061553e575b506000546154c3906001600160a01b03166105c5565b956154cd866153c8565b92511515926154dd612397610b52565b602087015260408601526060850152151586840152565b6040518096819582946302637a4560e41b845260048401615414565b03925af190811561065d57600091615526575090565b61313d915060803d81116118b4576118a58183610b17565b6155479061556f565b386154ad565b8034106155575790565b6040516304fb820960e51b8152346004820152602490fd5b6000805460405163393f876560e21b81526020926001600160a01b039283169290918481600481875afa90811561065d578391615649575b5016938415615637576155ef92614c346155da8493604051928391898301956323b872dd60e01b87523360248501614212565b519082875af16155e8614442565b9084615974565b805191821515928361561e575b5050506156065750565b60249060405190635274afe760e01b82526004820152fd5b61562e9350820181019101613128565b153880806155fc565b6040516329b99a9560e11b8152600490fd5b90508481813d8311615678575b6156608183610b17565b810103126128995751615672816103b7565b386155a7565b503d615656565b604051600360f01b60208201526002815261313d81610aaa565b61ffff906003826156a9836159d7565b160361574957604051610c3560861b602082015260108152906156cb82610aaa565b6003836156d7836159d7565b16036157275781518381116157085783166001019283116109da57614c3461313d9260405194859360208501615755565b604490604051906306dfcc6560e41b8252601060048301526024820152fd5b826157336024926159d7565b604051633a51740d60e01b815291166004820152fd5b906157336024926159d7565b60209061576c600495949382815194859201612439565b600160f81b910181815260f09290921b6001600160f01b031916600183015260038201528151916157a590839085840190602001612439565b010190565b6001600160a01b0390811690811561580557600080516020615a2483398151915280546001600160a01b031981168417909155167f8be0079c531659141344cd1fd0a4f28419497f9722a3daafe3b4186f6b6457e0600080a3565b604051631e4fbdf760e01b815260006004820152602490fd5b600080516020615a24833981519152546001600160a01b0316330361583f57565b60405163118cdaa760e01b8152336004820152602490fd5b60ff600080516020615aa48339815191525460401c161561587457565b604051631afcd79f60e31b8152600490fd5b600080516020615a8483398151915260028154146158a45760029055565b604051633ee5aeb560e01b8152600490fd5b90813b1561593957600080516020615a6483398151915280546001600160a01b0319166001600160a01b0384169081179091557fbc7cd75a20ee27fd9adebab32041f755214dbc6bffa90cc0225b39da2e5c2d3b600080a280511561591e576147b89161595a565b50503461592757565b60405163b398979f60e01b8152600490fd5b604051634c9c8ce360e01b81526001600160a01b0383166004820152602490fd5b60008061313d93602081519101845af4615972614442565b915b9061599b575080511561598957805190602001fd5b604051630a12f52160e11b8152600490fd5b815115806159ce575b6159ac575090565b604051639996b31560e01b81526001600160a01b039091166004820152602490fd5b50803b156159a4565b60028151106159e7576002015190565b60405162461bcd60e51b8152602060048201526014602482015273746f55696e7431365f6f75744f66426f756e647360601b6044820152606490fdfe9016d09d72d40fdae2fd8ceac6b6234c7706214fd39c1cd1e609a0528c199300fec39177008e086efb56cf5eab6824a48fecc42b4cb5acfede2d604e90ddaa94360894a13ba1a3210667c828492db98dca3e2076cc3735a920a3ca505d382bbc9b779b17422d0df92223018b32b4d1fa46e071723d6817e2486d003becc55f00f0c57e16840df040f15088dc2f81fe391c3923bec73e23a9662efc9c229c6a00a264697066735822122001cec2e2022a46ca08fb7596ea67cc5550d8e04daf865ea714f2edc719d54a8064736f6c63430008140033","linkReferences":{"contracts/lib/CDSLib.sol":{"CDSLib":[{"start":10004,"length":20},{"start":18817,"length":20},{"start":19195,"length":20},{"start":19392,"length":20}]}}},"methodIdentifiers":{"UPGRADE_INTERFACE_VERSION()":"ad3cb1cc","allowInitializePath((uint32,bytes32,uint64))":"ff7bd03d","calculateCumulativeRate(uint128)":"b87c3dc3","callLzSendFromExternal(uint32,uint8,uint256,uint256,uint256,(uint128,uint128,uint128,uint256),uint128,(uint256,uint256),bytes)":"ef543d5c","cdsCount()":"df6f05e7","cdsDetails(address)":"880e8e3b","deposit(uint128,uint128,bool,uint128)":"b0b6f3c6","endpoint()":"5e280f11","getCDSDepositDetails(address,uint64)":"4721bae8","initialize(address,address,address,address,address,address)":"cc2a9a5b","isComposeMsgSender((uint32,bytes32,uint64),bytes,address)":"82413eac","lzReceive((uint32,bytes32,uint64),bytes32,bytes,address,bytes)":"13137d65","nextNonce(uint32,bytes32)":"7d25a05e","oAppVersion()":"17442b70","omniChainCDSTotalAvailableLiquidationAmount()":"a736596c","omniChainCDSTotalCdsDepositedAmount()":"d4f113e6","owner()":"8da5cb5b","peers(uint32)":"bb0b6a53","proxiableUUID()":"52d1902d","quote(uint32,uint8,uint256,uint256,uint256,(uint128,uint128,uint128,uint256),uint128,bytes,bool)":"ad293034","redeemUSDT(uint128,uint64,uint64)":"46696df3","renounceOwnership()":"715018a6","setAdmin(address)":"704b6c02","setBorrowLiquidation(address)":"a4cdc597","setBorrowingContract(address)":"78fdaf3f","setDelegate(address)":"ca5eb5e1","setDstEid(uint32)":"0d14c92e","setPeer(uint32,bytes32)":"3400288b","setTreasury(address)":"f0f44260","setUSDaLimit(uint8)":"41eddbbd","setUsdtLimit(uint64)":"7bf5e245","setWithdrawTimeLimit(uint64)":"868c10d2","totalAvailableLiquidationAmount()":"dc91e752","totalCdsDepositedAmount()":"2bb2ea62","transferOwnership(address)":"f2fde38b","updateLiquidationInfo(uint128,(uint128,uint128,uint128,uint256))":"b3013d4d","updateTotalAvailableLiquidationAmount(uint256)":"4cae95d3","updateTotalCdsDepositedAmount(uint128)":"dc55b193","updateTotalCdsDepositedAmountWithOptionFees(uint128)":"4baf580d","upgradeToAndCall(address,bytes)":"4f1ef286","usdaLimit()":"6f71ccb1","usdtAmountDepositedTillNow()":"76a3fb3e","usdtLimit()":"f57ff39c","withdraw(uint64)":"750f0acc"},"id":5}