{"abi":[{"type":"function","name":"PRECISION","inputs":[],"outputs":[{"name":"","type":"uint128","internalType":"uint128"}],"stateMutability":"view"},{"type":"function","name":"UPGRADE_INTERFACE_VERSION","inputs":[],"outputs":[{"name":"","type":"string","internalType":"string"}],"stateMutability":"view"},{"type":"function","name":"amint","inputs":[],"outputs":[{"name":"","type":"address","internalType":"contract IAMINT"}],"stateMutability":"view"},{"type":"function","name":"amintLimit","inputs":[],"outputs":[{"name":"","type":"uint8","internalType":"uint8"}],"stateMutability":"view"},{"type":"function","name":"borrowing","inputs":[],"outputs":[{"name":"","type":"address","internalType":"contract IBorrowing"}],"stateMutability":"view"},{"type":"function","name":"borrowingContract","inputs":[],"outputs":[{"name":"","type":"address","internalType":"address"}],"stateMutability":"view"},{"type":"function","name":"burnedAmintInRedeem","inputs":[],"outputs":[{"name":"","type":"uint256","internalType":"uint256"}],"stateMutability":"view"},{"type":"function","name":"calculateCumulativeRate","inputs":[{"name":"fees","type":"uint128","internalType":"uint128"}],"outputs":[],"stateMutability":"nonpayable"},{"type":"function","name":"cdsCount","inputs":[],"outputs":[{"name":"","type":"uint64","internalType":"uint64"}],"stateMutability":"view"},{"type":"function","name":"cdsDetails","inputs":[{"name":"","type":"address","internalType":"address"}],"outputs":[{"name":"index","type":"uint64","internalType":"uint64"},{"name":"hasDeposited","type":"bool","internalType":"bool"}],"stateMutability":"view"},{"type":"function","name":"cumulativeValue","inputs":[],"outputs":[{"name":"","type":"uint128","internalType":"uint128"}],"stateMutability":"view"},{"type":"function","name":"cumulativeValueSign","inputs":[],"outputs":[{"name":"","type":"bool","internalType":"bool"}],"stateMutability":"view"},{"type":"function","name":"deposit","inputs":[{"name":"usdtAmount","type":"uint128","internalType":"uint128"},{"name":"amintAmount","type":"uint128","internalType":"uint128"},{"name":"_liquidate","type":"bool","internalType":"bool"},{"name":"_liquidationAmount","type":"uint128","internalType":"uint128"},{"name":"ethPrice","type":"uint128","internalType":"uint128"}],"outputs":[],"stateMutability":"nonpayable"},{"type":"function","name":"fallbackEthPrice","inputs":[],"outputs":[{"name":"","type":"uint128","internalType":"uint128"}],"stateMutability":"view"},{"type":"function","name":"initialize","inputs":[{"name":"_amint","type":"address","internalType":"address"},{"name":"priceFeed","type":"address","internalType":"address"},{"name":"_usdt","type":"address","internalType":"address"},{"name":"_multiSign","type":"address","internalType":"address"}],"outputs":[],"stateMutability":"nonpayable"},{"type":"function","name":"lastCumulativeRate","inputs":[],"outputs":[{"name":"","type":"uint128","internalType":"uint128"}],"stateMutability":"view"},{"type":"function","name":"lastEthPrice","inputs":[],"outputs":[{"name":"","type":"uint128","internalType":"uint128"}],"stateMutability":"view"},{"type":"function","name":"liquidationIndexToInfo","inputs":[{"name":"liquidationIndex","type":"uint128","internalType":"uint128"}],"outputs":[{"name":"liquidationAmount","type":"uint128","internalType":"uint128"},{"name":"profits","type":"uint128","internalType":"uint128"},{"name":"ethAmount","type":"uint128","internalType":"uint128"},{"name":"availableLiquidationAmount","type":"uint256","internalType":"uint256"}],"stateMutability":"view"},{"type":"function","name":"multiSign","inputs":[],"outputs":[{"name":"","type":"address","internalType":"contract IMultiSign"}],"stateMutability":"view"},{"type":"function","name":"owner","inputs":[],"outputs":[{"name":"","type":"address","internalType":"address"}],"stateMutability":"view"},{"type":"function","name":"proxiableUUID","inputs":[],"outputs":[{"name":"","type":"bytes32","internalType":"bytes32"}],"stateMutability":"view"},{"type":"function","name":"redeemUSDT","inputs":[{"name":"_amintAmount","type":"uint128","internalType":"uint128"},{"name":"amintPrice","type":"uint64","internalType":"uint64"},{"name":"usdtPrice","type":"uint64","internalType":"uint64"}],"outputs":[],"stateMutability":"nonpayable"},{"type":"function","name":"renounceOwnership","inputs":[],"outputs":[],"stateMutability":"nonpayable"},{"type":"function","name":"setAdmin","inputs":[{"name":"_admin","type":"address","internalType":"address"}],"outputs":[],"stateMutability":"nonpayable"},{"type":"function","name":"setAmintLimit","inputs":[{"name":"percent","type":"uint8","internalType":"uint8"}],"outputs":[],"stateMutability":"nonpayable"},{"type":"function","name":"setBorrowingContract","inputs":[{"name":"_address","type":"address","internalType":"address"}],"outputs":[],"stateMutability":"nonpayable"},{"type":"function","name":"setTreasury","inputs":[{"name":"_treasury","type":"address","internalType":"address"}],"outputs":[],"stateMutability":"nonpayable"},{"type":"function","name":"setUsdtLimit","inputs":[{"name":"amount","type":"uint64","internalType":"uint64"}],"outputs":[],"stateMutability":"nonpayable"},{"type":"function","name":"setWithdrawTimeLimit","inputs":[{"name":"_timeLimit","type":"uint64","internalType":"uint64"}],"outputs":[],"stateMutability":"nonpayable"},{"type":"function","name":"totalAvailableLiquidationAmount","inputs":[],"outputs":[{"name":"","type":"uint256","internalType":"uint256"}],"stateMutability":"view"},{"type":"function","name":"totalCdsDepositedAmount","inputs":[],"outputs":[{"name":"","type":"uint256","internalType":"uint256"}],"stateMutability":"view"},{"type":"function","name":"totalCdsDepositedAmountWithOptionFees","inputs":[],"outputs":[{"name":"","type":"uint256","internalType":"uint256"}],"stateMutability":"view"},{"type":"function","name":"transferOwnership","inputs":[{"name":"newOwner","type":"address","internalType":"address"}],"outputs":[],"stateMutability":"nonpayable"},{"type":"function","name":"treasury","inputs":[],"outputs":[{"name":"","type":"address","internalType":"contract ITreasury"}],"stateMutability":"view"},{"type":"function","name":"treasuryAddress","inputs":[],"outputs":[{"name":"","type":"address","internalType":"address"}],"stateMutability":"view"},{"type":"function","name":"updateLiquidationInfo","inputs":[{"name":"index","type":"uint128","internalType":"uint128"},{"name":"liquidationData","type":"tuple","internalType":"struct CDSTest.LiquidationInfo","components":[{"name":"liquidationAmount","type":"uint128","internalType":"uint128"},{"name":"profits","type":"uint128","internalType":"uint128"},{"name":"ethAmount","type":"uint128","internalType":"uint128"},{"name":"availableLiquidationAmount","type":"uint256","internalType":"uint256"}]}],"outputs":[],"stateMutability":"nonpayable"},{"type":"function","name":"updateTotalAvailableLiquidationAmount","inputs":[{"name":"amount","type":"uint256","internalType":"uint256"}],"outputs":[],"stateMutability":"nonpayable"},{"type":"function","name":"updateTotalCdsDepositedAmount","inputs":[{"name":"_amount","type":"uint128","internalType":"uint128"}],"outputs":[],"stateMutability":"nonpayable"},{"type":"function","name":"updateTotalCdsDepositedAmountWithOptionFees","inputs":[{"name":"_amount","type":"uint128","internalType":"uint128"}],"outputs":[],"stateMutability":"nonpayable"},{"type":"function","name":"upgradeToAndCall","inputs":[{"name":"newImplementation","type":"address","internalType":"address"},{"name":"data","type":"bytes","internalType":"bytes"}],"outputs":[],"stateMutability":"payable"},{"type":"function","name":"usdt","inputs":[],"outputs":[{"name":"","type":"address","internalType":"contract IERC20"}],"stateMutability":"view"},{"type":"function","name":"usdtAmountDepositedTillNow","inputs":[],"outputs":[{"name":"","type":"uint256","internalType":"uint256"}],"stateMutability":"view"},{"type":"function","name":"usdtLimit","inputs":[],"outputs":[{"name":"","type":"uint64","internalType":"uint64"}],"stateMutability":"view"},{"type":"function","name":"withdraw","inputs":[{"name":"_index","type":"uint64","internalType":"uint64"},{"name":"ethPrice","type":"uint128","internalType":"uint128"}],"outputs":[],"stateMutability":"nonpayable"},{"type":"function","name":"withdrawTimeLimit","inputs":[],"outputs":[{"name":"","type":"uint64","internalType":"uint64"}],"stateMutability":"view"},{"type":"event","name":"Deposit","inputs":[{"name":"depositedAmint","type":"uint256","indexed":false,"internalType":"uint256"},{"name":"index","type":"uint64","indexed":false,"internalType":"uint64"},{"name":"liquidationAmount","type":"uint128","indexed":false,"internalType":"uint128"},{"name":"normalizedAmount","type":"uint256","indexed":false,"internalType":"uint256"},{"name":"depositVal","type":"uint128","indexed":false,"internalType":"uint128"}],"anonymous":false},{"type":"event","name":"Initialized","inputs":[{"name":"version","type":"uint64","indexed":false,"internalType":"uint64"}],"anonymous":false},{"type":"event","name":"OwnershipTransferred","inputs":[{"name":"previousOwner","type":"address","indexed":true,"internalType":"address"},{"name":"newOwner","type":"address","indexed":true,"internalType":"address"}],"anonymous":false},{"type":"event","name":"Upgraded","inputs":[{"name":"implementation","type":"address","indexed":true,"internalType":"address"}],"anonymous":false},{"type":"event","name":"Withdraw","inputs":[{"name":"withdrewAmint","type":"uint256","indexed":false,"internalType":"uint256"},{"name":"withdrawETH","type":"uint128","indexed":false,"internalType":"uint128"}],"anonymous":false},{"type":"error","name":"AddressEmptyCode","inputs":[{"name":"target","type":"address","internalType":"address"}]},{"type":"error","name":"ERC1967InvalidImplementation","inputs":[{"name":"implementation","type":"address","internalType":"address"}]},{"type":"error","name":"ERC1967NonPayable","inputs":[]},{"type":"error","name":"FailedInnerCall","inputs":[]},{"type":"error","name":"InvalidInitialization","inputs":[]},{"type":"error","name":"NotInitializing","inputs":[]},{"type":"error","name":"OwnableInvalidOwner","inputs":[{"name":"owner","type":"address","internalType":"address"}]},{"type":"error","name":"OwnableUnauthorizedAccount","inputs":[{"name":"account","type":"address","internalType":"address"}]},{"type":"error","name":"ReentrancyGuardReentrantCall","inputs":[]},{"type":"error","name":"UUPSUnauthorizedCallContext","inputs":[]},{"type":"error","name":"UUPSUnsupportedProxiableUUID","inputs":[{"name":"slot","type":"bytes32","internalType":"bytes32"}]}],"bytecode":{"object":"0x60a06040523060805234801561001457600080fd5b5060805161498f61003e600039600081816137c3015281816137ec015261392d015261498f6000f3fe6080604052600436106102725760003560e01c8063868c10d21161014f578063c5f956af116100c1578063df6f05e71161007a578063df6f05e71461087e578063e356b1201461089e578063f0f44260146108b4578063f2fde38b146108d4578063f57ff39c146108f4578063f8c8765e1461091b57600080fd5b8063c5f956af1461076b578063cba875171461078b578063d3e3413f146107a1578063dabd360a14610828578063dc55b19314610848578063dc91e7521461086857600080fd5b8063aaf5eb6811610113578063aaf5eb681461067c578063ad3cb1cc1461069c578063b3013d4d146106da578063b87c3dc3146106fa578063b9934fee1461071a578063ba397b411461073a57600080fd5b8063868c10d21461057e578063880e8e3b1461059e5780638da5cb5b146105ff5780638e4db39a1461063c5780639e6fe4391461065c57600080fd5b806360b415ed116101e857806376a3fb3e116101ac57806376a3fb3e146104c157806377b7cda6146104d757806378fdaf3f146104fe5780637bf5e2451461051e57806384637c261461053e57806384a965ed1461055e57600080fd5b806360b415ed1461041457806361d027b3146104345780637038fc4e14610454578063704b6c021461048c578063715018a6146104ac57600080fd5b80634baf580d1161023a5780634baf580d1461034d5780634cae95d31461036d5780634f04a86b1461038d5780634f1ef286146103cc578063503e6322146103df57806352d1902d146103ff57600080fd5b8063254bba5c146102775780632bb2ea62146102995780632f48ab7d146102c2578063412cfc94146102fa57806346696df31461032d575b600080fd5b34801561028357600080fd5b5061029761029236600461409c565b61093b565b005b3480156102a557600080fd5b506102af600b5481565b6040519081526020015b60405180910390f35b3480156102ce57600080fd5b506005546102e2906001600160a01b031681565b6040516001600160a01b0390911681526020016102b9565b34801561030657600080fd5b50600e5461031b90600160801b900460ff1681565b60405160ff90911681526020016102b9565b34801561033957600080fd5b506102976103483660046140d5565b611730565b34801561035957600080fd5b50610297610368366004614120565b611b52565b34801561037957600080fd5b5061029761038836600461413d565b611b9f565b34801561039957600080fd5b50600a546103b490600160401b90046001600160401b031681565b6040516001600160401b0390911681526020016102b9565b6102976103da3660046141b8565b611bdb565b3480156103eb57600080fd5b506000546102e2906001600160a01b031681565b34801561040b57600080fd5b506102af611bf6565b34801561042057600080fd5b506001546102e2906001600160a01b031681565b34801561044057600080fd5b506002546102e2906001600160a01b031681565b34801561046057600080fd5b50600954610474906001600160801b031681565b6040516001600160801b0390911681526020016102b9565b34801561049857600080fd5b506102976104a736600461425d565b611c13565b3480156104b857600080fd5b50610297611d40565b3480156104cd57600080fd5b506102af600f5481565b3480156104e357600080fd5b5060095461047490600160801b90046001600160801b031681565b34801561050a57600080fd5b5061029761051936600461425d565b611d54565b34801561052a57600080fd5b50610297610539366004614278565b611e12565b34801561054a57600080fd5b50610297610559366004614295565b611f3d565b34801561056a57600080fd5b506007546102e2906001600160a01b031681565b34801561058a57600080fd5b50610297610599366004614278565b612055565b3480156105aa57600080fd5b506105e06105b936600461425d565b6013602052600090815260409020546001600160401b03811690600160401b900460ff1682565b604080516001600160401b0390931683529015156020830152016102b9565b34801561060b57600080fd5b507f9016d09d72d40fdae2fd8ceac6b6234c7706214fd39c1cd1e609a0528c199300546001600160a01b03166102e2565b34801561064857600080fd5b50600e54610474906001600160801b031681565b34801561066857600080fd5b506004546102e2906001600160a01b031681565b34801561068857600080fd5b50601254610474906001600160801b031681565b3480156106a857600080fd5b506106cd604051806040016040528060058152602001640352e302e360dc1b81525081565b6040516102b991906142dc565b3480156106e657600080fd5b506102976106f536600461430f565b61218f565b34801561070657600080fd5b50610297610715366004614120565b612218565b34801561072657600080fd5b50601154610474906001600160801b031681565b34801561074657600080fd5b5060115461075b90600160801b900460ff1681565b60405190151581526020016102b9565b34801561077757600080fd5b506008546102e2906001600160a01b031681565b34801561079757600080fd5b506102af600c5481565b3480156107ad57600080fd5b506107f36107bc366004614120565b6014602052600090815260409020805460018201546002909201546001600160801b0380831693600160801b909304811692169084565b6040516102b994939291906001600160801b039485168152928416602084015292166040820152606081019190915260800190565b34801561083457600080fd5b506102976108433660046143bf565b61242c565b34801561085457600080fd5b50610297610863366004614120565b6131f3565b34801561087457600080fd5b506102af600d5481565b34801561088a57600080fd5b50600a546103b4906001600160401b031681565b3480156108aa57600080fd5b506102af60105481565b3480156108c057600080fd5b506102976108cf36600461425d565b613238565b3480156108e057600080fd5b506102976108ef36600461425d565b613371565b34801561090057600080fd5b50600e546103b490600160881b90046001600160401b031681565b34801561092757600080fd5b50610297610936366004614430565b6133af565b61094361356f565b6005600480546040516326d2a55160e21b81526001600160a01b0390911691639b4a9544916109749185910161449a565b6020604051808303816000875af1158015610993573d6000803e3d6000fd5b505050506040513d601f19601f820116820180604052508101906109b791906144b4565b156109dd5760405162461bcd60e51b81526004016109d4906144d1565b60405180910390fd5b336000908152601360205260409020546001600160401b0380851691161015610a565760405162461bcd60e51b815260206004820152602560248201527f7573657220646f65736e277420686176652074686520737065636966696564206044820152640d2dcc8caf60db1b60648201526084016109d4565b3360009081526013602090815260408083206001600160401b038716845260010190915290206004015460ff1615610ac45760405162461bcd60e51b815260206004820152601160248201527020b63932b0b23c903bb4ba34323930bbb760791b60448201526064016109d4565b600a543360009081526013602090815260408083206001600160401b038881168552600190910190925290912054429282841692610b0d92600160401b90920481169116614507565b6001600160401b03161115610b7b5760405162461bcd60e51b815260206004820152602e60248201527f63616e6e6f74207769746864726177206265666f72652074686520776974686460448201526d1c985dc81d1a5b59481b1a5b5a5d60921b60648201526084016109d4565b3360008181526013602081815260408084206001600160401b03808b16865260018281018552928620600401805460ff191684179055959094529190529054909116148015610bd35750836001600160401b03166001145b15610c1657600a8054600090610bf1906001600160401b031661452e565b91906101000a8154816001600160401b0302191690836001600160401b031602179055505b3360009081526013602090815260408083206001600160401b03881684526001908101909252822090810154601254600e5460089093015491926001600160801b0391821692610c699290911690614551565b610c73919061457e565b610c7e3388886135a7565b610c889190614592565b610c9291906145a5565b3360009081526013602090815260408083206001600160401b038a8116855260019091019092529091206003810183905560028101805467ffffffffffffffff19169286169290921790915560050154909150600160881b900460ff161561139a573360009081526013602090815260408083206001600160401b0389168452600101909152902060060154610d3890600160801b90046001600160801b0316826145a5565b90506000600160009054906101000a90046001600160a01b03166001600160a01b03166338a912d56040518163ffffffff1660e01b8152600401602060405180830381865afa158015610d8f573d6000803e3d6000fd5b505050506040513d601f19601f82011682018060405250810190610db391906145b8565b3360009081526013602090815260408083206001600160401b038b1684526001019091528120600701549192506001600160801b0390911690815b836001600160801b0316816001600160801b031611611064573360009081526013602090815260408083206001600160401b038d168452600101909152902060060154600160801b90046001600160801b03168015611051576001600160801b038083166000908152601460209081526040808320815160808101835281548087168252600160801b900486169381019390935260018101549094169082015260029092015460608301819052610eaa846402540be4006145d5565b610eb49190614600565b905060006402540be400828460200151610ece91906145d5565b610ed89190614600565b90508060136000336001600160a01b03166001600160a01b0316815260200190815260200160002060010160008f6001600160401b03166001600160401b0316815260200190815260200160002060060160108282829054906101000a90046001600160801b0316610f4a9190614626565b92506101000a8154816001600160801b0302191690836001600160801b031602179055506402540be400828460000151610f8491906145d5565b610f8e9190614600565b60136000336001600160a01b03166001600160a01b0316815260200190815260200160002060010160008f6001600160401b03166001600160401b0316815260200190815260200160002060060160108282829054906101000a90046001600160801b0316610ffd9190614646565b92506101000a8154816001600160801b0302191690836001600160801b031602179055506402540be40082846040015161103791906145d5565b6110419190614600565b61104b9087614626565b95505050505b508061105c81614666565b915050610dee565b503360009081526013602090815260408083206001600160401b038c1684526001019091528120600601546110a990600160801b90046001600160801b031686614592565b3360009081526013602090815260408083206001600160401b038e168452600190810190925282200154600b805493945090929091906110ea9084906145a5565b9250508190555080600c600082825461110391906145a5565b90915550503360009081526013602090815260408083206001600160401b038d168452600101909152908190206003018290556002549051630adfd5a560e21b8152306004820152602481018390526001600160a01b0390911690632b7f569490604401600060405180830381600087803b15801561118157600080fd5b505af1158015611195573d6000803e3d6000fd5b5050600080546008546040516323b872dd60e01b81526001600160a01b039182166004820152336024820152604481018790529294501691506323b872dd906064016020604051808303816000875af11580156111f6573d6000803e3d6000fd5b505050506040513d601f19601f8201168201806040525081019061121a91906144b4565b905060018115151461126e5760405162461bcd60e51b815260206004820152601e60248201527f5472616e7373756363657373656420696e20636473207769746864726177000060448201526064016109d4565b6001600160801b0383161561134f5760025460405163cd0220c960e01b81526001600160801b0385166004820152600060248201526001600160a01b039091169063cd0220c990604401600060405180830381600087803b1580156112d257600080fd5b505af11580156112e6573d6000803e3d6000fd5b5050600254604051635822b66d60e01b81526001600160a01b039091169250635822b66d915061131c903390879060040161468c565b600060405180830381600087803b15801561133657600080fd5b505af115801561134a573d6000803e3d6000fd5b505050505b604080518381526001600160801b03851660208201527fd34ad3981afdf23db33825e66e2466a17cb9567dfd6b8c14a210ea42a3efecfd910160405180910390a150505050506116bb565b3360009081526013602090815260408083206001600160401b0389168452600190810190925282200154600b8054919290916113d79084906145a5565b9250508190555080600c60008282546113f091906145a5565b90915550503360009081526013602090815260408083206001600160401b03891684526001018252918290206003018390556002548251631506d82560e21b815292516001600160a01b039091169263541b60949260048083019391928290030181865afa158015611466573d6000803e3d6000fd5b505050506040513d601f19601f8201168201806040525081019061148a91906146ae565b15611580576012546114ad90600160801b90046001600160801b031660026145d5565b60015460405163ada0b0ed60e01b8152600060048201526001600160801b03878116602483015292909216916001600160a01b039091169063ada0b0ed906044016020604051808303816000875af115801561150d573d6000803e3d6000fd5b505050506040513d601f19601f8201168201806040525081019061153191906146c7565b6001600160401b0316116115805760405162461bcd60e51b81526020600482015260166024820152754e6f7420656e6f7567682066756e6420696e2043445360501b60448201526064016109d4565b600254604051630adfd5a560e21b8152306004820152602481018390526001600160a01b0390911690632b7f569490604401600060405180830381600087803b1580156115cc57600080fd5b505af11580156115e0573d6000803e3d6000fd5b5050600080546008546040516323b872dd60e01b81526001600160a01b039182166004820152336024820152604481018790529294501691506323b872dd906064016020604051808303816000875af1158015611641573d6000803e3d6000fd5b505050506040513d601f19601f8201168201806040525081019061166591906144b4565b90506001811515146116b95760405162461bcd60e51b815260206004820152601f60248201527f5472616e73666572206661696c656420696e206364732077697468647261770060448201526064016109d4565b505b6009546001600160801b038581169116146116d9576116d98461378f565b60408051828152600060208201527fd34ad3981afdf23db33825e66e2466a17cb9567dfd6b8c14a210ea42a3efecfd910160405180910390a150505061172c600160008051602061493a83398151915255565b5050565b61173861356f565b6006600480546040516326d2a55160e21b81526001600160a01b0390911691639b4a9544916117699185910161449a565b6020604051808303816000875af1158015611788573d6000803e3d6000fd5b505050506040513d601f19601f820116820180604052508101906117ac91906144b4565b156117c95760405162461bcd60e51b81526004016109d4906144d1565b836001600160801b03166000036118225760405162461bcd60e51b815260206004820152601960248201527f416d6f756e742073686f756c64206e6f74206265207a65726f0000000000000060448201526064016109d4565b6000546040516370a0823160e01b81523360048201526001600160801b038616916001600160a01b0316906370a0823190602401602060405180830381865afa158015611873573d6000803e3d6000fd5b505050506040513d601f19601f8201168201806040525081019061189791906146ae565b10156118dc5760405162461bcd60e51b8152602060048201526014602482015273496e73756666696369656e742062616c616e636560601b60448201526064016109d4565b836001600160801b0316601060008282546118f79190614592565b9091555050600080546040516363a9f09360e11b81526001600160a01b039091169063c753e1269061192f903390899060040161468c565b6020604051808303816000875af115801561194e573d6000803e3d6000fd5b505050506040513d601f19601f8201168201806040525081019061197291906144b4565b90506001811515146119c65760405162461bcd60e51b815260206004820152601f60248201527f414d494e54204275726e206661696c656420696e2072656465656d555344540060448201526064016109d4565b6000836001600160401b031686866001600160401b03166119e791906145d5565b6119f19190614600565b60025460405163e613610560e01b81529192506001600160a01b03169063e613610590611a24903090859060040161468c565b600060405180830381600087803b158015611a3e57600080fd5b505af1158015611a52573d6000803e3d6000fd5b50506005546008546040516323b872dd60e01b8152600094506001600160a01b0392831693506323b872dd92611a90921690339087906004016146e4565b6020604051808303816000875af1158015611aaf573d6000803e3d6000fd5b505050506040513d601f19601f82011682018060405250810190611ad391906144b4565b9050600181151514611b325760405162461bcd60e51b815260206004820152602260248201527f55534454205472616e73666572206661696c656420696e2072656465656d5553604482015261111560f21b60648201526084016109d4565b50505050611b4d600160008051602061493a83398151915255565b505050565b6007546001600160a01b03163314611b7c5760405162461bcd60e51b81526004016109d490614710565b806001600160801b0316600c6000828254611b9791906145a5565b909155505050565b6007546001600160a01b03163314611bc95760405162461bcd60e51b81526004016109d490614710565b80600d6000828254611b9791906145a5565b611be36137b8565b611bec8261385d565b61172c8282613865565b6000611c00613922565b5060008051602061491a83398151915290565b611c1b61396b565b6001600160a01b03811615801590611c40575060016001600160a01b0382163b151514155b611ca35760405162461bcd60e51b815260206004820152602e60248201527f41646d696e2063616e277420626520636f6e747261637420616464726573732060448201526d26207a65726f206164647265737360901b60648201526084016109d4565b6004546001600160a01b031663fb8c927860056040518263ffffffff1660e01b8152600401611cd29190614763565b6020604051808303816000875af1158015611cf1573d6000803e3d6000fd5b505050506040513d601f19601f82011682018060405250810190611d1591906144b4565b611d1e57600080fd5b600680546001600160a01b0319166001600160a01b0392909216919091179055565b611d4861396b565b611d5260006139c6565b565b6006546001600160a01b03163314611d7e5760405162461bcd60e51b81526004016109d490614777565b6001600160a01b03811615801590611d9f57506001600160a01b0381163b15155b611de65760405162461bcd60e51b8152602060048201526018602482015277125b9c1d5d081859191c995cdcc81a5cc81a5b9d985b1a5960421b60448201526064016109d4565b600780546001600160a01b039092166001600160a01b0319928316811790915560018054909216179055565b6006546001600160a01b03163314611e3c5760405162461bcd60e51b81526004016109d490614777565b806001600160401b0316600003611e955760405162461bcd60e51b815260206004820152601860248201527f55534454206c696d69742063616e2774206265207a65726f000000000000000060448201526064016109d4565b6004546001600160a01b031663fb8c9278600a6040518263ffffffff1660e01b8152600401611ec49190614763565b6020604051808303816000875af1158015611ee3573d6000803e3d6000fd5b505050506040513d601f19601f82011682018060405250810190611f0791906144b4565b611f1057600080fd5b600e80546001600160401b03909216600160881b0267ffffffffffffffff60881b19909216919091179055565b6006546001600160a01b03163314611f675760405162461bcd60e51b81526004016109d490614777565b8060ff16600003611fba5760405162461bcd60e51b815260206004820152601960248201527f416d696e74206c696d69742063616e2774206265207a65726f0000000000000060448201526064016109d4565b6004546001600160a01b031663fb8c927860096040518263ffffffff1660e01b8152600401611fe99190614763565b6020604051808303816000875af1158015612008573d6000803e3d6000fd5b505050506040513d601f19601f8201168201806040525081019061202c91906144b4565b61203557600080fd5b600e805460ff909216600160801b0260ff60801b19909216919091179055565b6006546001600160a01b0316331461207f5760405162461bcd60e51b81526004016109d490614777565b806001600160401b03166000036120e25760405162461bcd60e51b815260206004820152602160248201527f57697468647261772074696d65206c696d69742063616e2774206265207a65726044820152606f60f81b60648201526084016109d4565b6004546001600160a01b031663fb8c927860036040518263ffffffff1660e01b81526004016121119190614763565b6020604051808303816000875af1158015612130573d6000803e3d6000fd5b505050506040513d601f19601f8201168201806040525081019061215491906144b4565b61215d57600080fd5b600a80546001600160401b03909216600160401b026fffffffffffffffff000000000000000019909216919091179055565b6007546001600160a01b031633146121b95760405162461bcd60e51b81526004016109d490614710565b6001600160801b039182166000908152601460209081526040918290208351918401518516600160801b0291851691909117815590820151600182018054919094166001600160801b0319919091161790925560600151600290910155565b6007546001600160a01b031633146122425760405162461bcd60e51b81526004016109d490614710565b806001600160801b031660000361229b5760405162461bcd60e51b815260206004820152601760248201527f466565732073686f756c64206e6f74206265207a65726f00000000000000000060448201526064016109d4565b806001600160801b0316600c60008282546122b69190614592565b9091555050600c5460125460009082906122d9906001600160801b0316856145d5565b6122e39190614600565b90506000600260009054906101000a90046001600160a01b03166001600160a01b03166345aeb0ce6040518163ffffffff1660e01b8152600401602060405180830381865afa15801561233a573d6000803e3d6000fd5b505050506040513d601f19601f8201168201806040525081019061235e91906145b8565b6001600160801b03166000036123b3576012548290612387906001600160801b031660016145d5565b6123919190614626565b600e80546001600160801b0319166001600160801b0383161790559050612426565b60125482906123cc906001600160801b031660016145d5565b6123d69190614626565b600e546123ec91906001600160801b03166145d5565b601254909150612405906001600160801b031682614600565b600e80546001600160801b0319166001600160801b03929092169190911790555b50505050565b61243461356f565b60048080546040516326d2a55160e21b81526001600160a01b0390911691639b4a9544916124649185910161449a565b6020604051808303816000875af1158015612483573d6000803e3d6000fd5b505050506040513d601f19601f820116820180604052508101906124a791906144b4565b156124c45760405162461bcd60e51b81526004016109d4906144d1565b60006124d08688614626565b6001600160801b03169050806000036125355760405162461bcd60e51b815260206004820152602160248201527f4465706f73697420616d6f756e742073686f756c64206e6f74206265207a65726044820152606f60f81b60648201526084016109d4565b80846001600160801b031611156125ad5760405162461bcd60e51b815260206004820152603660248201527f4c69717569646174696f6e20616d6f756e742063616e27742067726561746572604482015275081d1a185b8819195c1bdcda5d195908185b5bdd5b9d60521b60648201526084016109d4565b600e54600f54600160881b9091046001600160401b0316906125d9906001600160801b038a1690614592565b1161263b5780876001600160801b0316146126365760405162461bcd60e51b815260206004820152601b60248201527f31303025206f6620616d6f756e74206d7573742062652055534454000000000060448201526064016109d4565b61278e565b600e54606490612656908390600160801b900460ff16614551565b612660919061457e565b866001600160801b031610156126b85760405162461bcd60e51b815260206004820152601d60248201527f526571756972656420414d494e5420616d6f756e74206e6f74206d657400000060448201526064016109d4565b6000546040516370a0823160e01b81523360048201526001600160801b038816916001600160a01b0316906370a0823190602401602060405180830381865afa158015612709573d6000803e3d6000fd5b505050506040513d601f19601f8201168201806040525081019061272d91906146ae565b101561278e5760405162461bcd60e51b815260206004820152602a60248201527f496e73756666696369656e7420414d494e542062616c616e636520776974682060448201526936b9b39739b2b73232b960b11b60648201526084016109d4565b33600090815260136020526040812054600160401b900460ff1661281a5750336000908152601360205260408120805468ffffffffffffffffff191668010000000000000001179055600a8054600192906127f1906001600160401b03166147a7565b91906101000a8154816001600160401b0302191690836001600160401b03160217905550612866565b3360009081526013602052604081208054909190612840906001600160401b03166147a7565b91906101000a8154816001600160401b0302191690836001600160401b03160217905590505b3360009081526013602090815260408083206001600160401b038516845260019081019092528220908101849055600401805470ffffffffffffffffffffffffffffffff0019166101006001600160801b038816021790556128c785613a37565b90506128db81600001518260200151613c28565b601180543360009081526013602090815260408083206001600160401b0388168452600101909152812060050180546001600160801b031981166001600160801b039094169384178255935460ff600160801b91829004161515026001600160881b0319909416909217929092179055600b805485929061295d908490614592565b9250508190555082600c60008282546129769190614592565b92505081905550886001600160801b0316600f60008282546129989190614592565b90915550503360009081526013602090815260408083206001600160401b0386811685526001909101909252909120805467ffffffffffffffff191642909216919091179055600e546012546001600160801b03918216916129fb911685614551565b612a05919061457e565b3360009081526013602090815260408083206001600160401b038716845260010190915290206008810191909155600501805488158015600160881b0260ff60881b1990921691909117909155612c4357600160009054906101000a90046001600160a01b03166001600160a01b03166338a912d56040518163ffffffff1660e01b8152600401602060405180830381865afa158015612aa9573d6000803e3d6000fd5b505050506040513d601f19601f82011682018060405250810190612acd91906145b8565b6001600160801b0316600003612b1f573360009081526013602090815260408083206001600160401b0386168452600190810190925290912060070180546001600160801b0319169091179055612bde565b600160009054906101000a90046001600160a01b03166001600160a01b03166338a912d56040518163ffffffff1660e01b8152600401602060405180830381865afa158015612b72573d6000803e3d6000fd5b505050506040513d601f19601f82011682018060405250810190612b9691906145b8565b3360009081526013602090815260408083206001600160401b0387168452600101909152902060070180546001600160801b0319166001600160801b03929092169190911790555b3360009081526013602090815260408083206001600160401b038616845260010190915281206001600160801b038816600160801b81026001600160801b0319168117600690920191909155600d805491929091612c3d908490614592565b90915550505b6009546001600160801b03868116911614612c6157612c618561378f565b6001600160801b03891615801590612c8157506001600160801b03881615155b15612e62576005546040516370a0823160e01b81523360048201526001600160801b038b16916001600160a01b0316906370a0823190602401602060405180830381865afa158015612cd7573d6000803e3d6000fd5b505050506040513d601f19601f82011682018060405250810190612cfb91906146ae565b1015612d195760405162461bcd60e51b81526004016109d4906147c3565b6005546008546040516323b872dd60e01b81526000926001600160a01b03908116926323b872dd92612d5392339216908f906004016146e4565b6020604051808303816000875af1158015612d72573d6000803e3d6000fd5b505050506040513d601f19601f82011682018060405250810190612d9691906144b4565b9050600181151514612dba5760405162461bcd60e51b81526004016109d49061480c565b600080546008546040516323b872dd60e01b81526001600160a01b03928316926323b872dd92612df4923392909116908f906004016146e4565b6020604051808303816000875af1158015612e13573d6000803e3d6000fd5b505050506040513d601f19601f82011682018060405250810190612e3791906144b4565b9050600181151514612e5b5760405162461bcd60e51b81526004016109d49061484f565b5050613050565b886001600160801b0316600003612f1a57600080546008546040516323b872dd60e01b81526001600160a01b03928316926323b872dd92612ead923392909116908e906004016146e4565b6020604051808303816000875af1158015612ecc573d6000803e3d6000fd5b505050506040513d601f19601f82011682018060405250810190612ef091906144b4565b9050600181151514612f145760405162461bcd60e51b81526004016109d49061484f565b50613050565b6005546040516370a0823160e01b81523360048201526001600160801b038b16916001600160a01b0316906370a0823190602401602060405180830381865afa158015612f6b573d6000803e3d6000fd5b505050506040513d601f19601f82011682018060405250810190612f8f91906146ae565b1015612fad5760405162461bcd60e51b81526004016109d4906147c3565b6005546008546040516323b872dd60e01b81526000926001600160a01b03908116926323b872dd92612fe792339216908f906004016146e4565b6020604051808303816000875af1158015613006573d6000803e3d6000fd5b505050506040513d601f19601f8201168201806040525081019061302a91906144b4565b905060018115151461304e5760405162461bcd60e51b81526004016109d49061480c565b505b6001600160801b0389161561314457600080546008546040516340c10f1960e01b81526001600160a01b03928316926340c10f1992613096929116908e9060040161468c565b6020604051808303816000875af11580156130b5573d6000803e3d6000fd5b505050506040513d601f19601f820116820180604052508101906130d991906144b4565b90506001811515146131425760405162461bcd60e51b815260206004820152602c60248201527f414d494e54206d696e7420746f207472656173757279206661696c656420696e60448201526b0810d114c819195c1bdcda5d60a21b60648201526084016109d4565b505b3360009081526013602090815260408083206001600160401b038616808552600190910183529281902060088101546005909101548251888152938401949094526001600160801b03808b1692840192909252606083015290911660808201527fcdd1e645b3bff8dc4c192ceeb358900b0903593c0778b65f0493d608c1a8daf69060a00160405180910390a1505050506131ec600160008051602061493a83398151915255565b5050505050565b6007546001600160a01b0316331461321d5760405162461bcd60e51b81526004016109d490614710565b806001600160801b0316600b6000828254611b9791906145a5565b6006546001600160a01b031633146132625760405162461bcd60e51b81526004016109d490614777565b6001600160a01b0381161580159061328357506001600160a01b0381163b15155b6132ca5760405162461bcd60e51b8152602060048201526018602482015277125b9c1d5d081859191c995cdcc81a5cc81a5b9d985b1a5960421b60448201526064016109d4565b6004546001600160a01b031663fb8c927860076040518263ffffffff1660e01b81526004016132f99190614763565b6020604051808303816000875af1158015613318573d6000803e3d6000fd5b505050506040513d601f19601f8201168201806040525081019061333c91906144b4565b61334557600080fd5b600880546001600160a01b039092166001600160a01b0319928316811790915560028054909216179055565b61337961396b565b6001600160a01b0381166133a357604051631e4fbdf760e01b8152600060048201526024016109d4565b6133ac816139c6565b50565b7ff0c57e16840df040f15088dc2f81fe391c3923bec73e23a9662efc9c229c6a008054600160401b810460ff1615906001600160401b03166000811580156133f45750825b90506000826001600160401b031660011480156134105750303b155b90508115801561341e575080155b1561343c5760405163f92ee8a960e01b815260040160405180910390fd5b845467ffffffffffffffff19166001178555831561346657845460ff60401b1916600160401b1785555b61346f33613d98565b613477613da9565b600080546001600160a01b03808c166001600160a01b031992831617909255600580548a84169083161790556004805489841690831617905560038054928b16929091169190911790556134c9613db1565b600160801b6001600160801b0391909116818102176009557127100000000000000000000000e8d4a51000601255600e80546001600160801b03191664e8d4a510001790556011805460ff60801b19169091179055831561356457845460ff60401b19168555604051600181527fc7f505b2f371ae2175ee4913f4499e1f2633a7b5936321eed1cdaeb6115181d29060200160405180910390a15b505050505050505050565b60008051602061493a8339815191528054600119016135a157604051633ee5aeb560e01b815260040160405180910390fd5b60029055565b6000806135b383613a37565b90506135c781600001518260200151613c28565b6001600160a01b03851660009081526013602081815260408084206001600160401b038916808652600191820184528286208201543387529484528286209086520190915282206005015460115491926001600160801b038083169360ff600160801b94859004811694928216929091041615158315150361375b57806001600160801b0316846001600160801b0316111561366e576136678185614646565b915061367b565b6136788482614646565b91505b821561370b57806001600160801b0316846001600160801b031611156136da57600064174876e8006136b66001600160801b03851688614551565b6136c0919061457e565b90506136cc81876145a5565b975050505050505050613788565b600064174876e8006136f56001600160801b03851688614551565b6136ff919061457e565b90506136cc8187614592565b806001600160801b0316846001600160801b0316111561374057600064174876e8006136f56001600160801b03851688614551565b600064174876e8006136b66001600160801b03851688614551565b6137658185614626565b915082156136da57600064174876e8006136b66001600160801b03851688614551565b9392505050565b600980546001600160801b03196001600160801b03918216600160801b02169216919091179055565b306001600160a01b037f000000000000000000000000000000000000000000000000000000000000000016148061383f57507f00000000000000000000000000000000000000000000000000000000000000006001600160a01b031661383360008051602061491a833981519152546001600160a01b031690565b6001600160a01b031614155b15611d525760405163703e46dd60e11b815260040160405180910390fd5b6133ac61396b565b816001600160a01b03166352d1902d6040518163ffffffff1660e01b8152600401602060405180830381865afa9250505080156138bf575060408051601f3d908101601f191682019092526138bc918101906146ae565b60015b6138e757604051634c9c8ce360e01b81526001600160a01b03831660048201526024016109d4565b60008051602061491a833981519152811461391857604051632a87526960e21b8152600481018290526024016109d4565b611b4d8383613e4a565b306001600160a01b037f00000000000000000000000000000000000000000000000000000000000000001614611d525760405163703e46dd60e11b815260040160405180910390fd5b3361399d7f9016d09d72d40fdae2fd8ceac6b6234c7706214fd39c1cd1e609a0528c199300546001600160a01b031690565b6001600160a01b031614611d525760405163118cdaa760e01b81523360048201526024016109d4565b7f9016d09d72d40fdae2fd8ceac6b6234c7706214fd39c1cd1e609a0528c19930080546001600160a01b031981166001600160a01b03848116918217845560405192169182907f8be0079c531659141344cd1fd0a4f28419497f9722a3daafe3b4186f6b6457e090600090a3505050565b604080518082018252600080825260208083018290526002548451639a52aed960e01b8152945193946103e8946001600160a01b0390921692639a52aed9926004808401938290030181865afa158015613a95573d6000803e3d6000fd5b505050506040513d601f19601f82011682018060405250810190613ab991906146ae565b90506000806000600b54600003613ad65750600090506001613c01565b6009546001600160801b03888116911614613b45576009546001600160801b039081169088161115613b2357600954613b18906001600160801b031688614646565b925060019050613ba5565b600954613b3a9088906001600160801b0316614646565b925060009050613ba5565b6009546001600160801b03600160801b90910481169088161115613b8057600954613b1890600160801b90046001600160801b031688614646565b600954613b9e908890600160801b90046001600160801b0316614646565b9250600090505b600b54601254613bbe91906001600160801b0316614551565b836001600160801b031685876001600160801b0316613bdd9190614551565b613be79190614551565b613bf490620f4240614551565b613bfe919061457e565b91505b604080518082019091526001600160801b0390921682521515602082015295945050505050565b8015613cfa57601154600160801b900460ff1615613c865760118054839190600090613c5e9084906001600160801b0316614626565b92506101000a8154816001600160801b0302191690836001600160801b031602179055505050565b6011546001600160801b0380841691161115613cba5760118054839190600090613c5e9084906001600160801b0316614646565b601154613cd0906001600160801b031683614646565b601180546001600160881b0319166001600160801b039290921691909117600160801b1790555050565b601154600160801b900460ff1615613d7a576011546001600160801b0380841691161115613d405760118054839190600090613c5e9084906001600160801b0316614646565b601154613d56906001600160801b031683614646565b601180546001600160881b0319166001600160801b03929092169190911790555050565b60118054839190600090613c5e9084906001600160801b0316614626565b613da0613ea0565b6133ac81613ee9565b611d52613ea0565b600080600360009054906101000a90046001600160a01b03166001600160a01b031663feaf968c6040518163ffffffff1660e01b815260040160a060405180830381865afa158015613e07573d6000803e3d6000fd5b505050506040513d601f19601f82011682018060405250810190613e2b91906148ad565b50919350839250613e439150620f424090508261457e565b9250505090565b613e5382613ef1565b6040516001600160a01b038316907fbc7cd75a20ee27fd9adebab32041f755214dbc6bffa90cc0225b39da2e5c2d3b90600090a2805115613e9857611b4d8282613f56565b61172c613fce565b7ff0c57e16840df040f15088dc2f81fe391c3923bec73e23a9662efc9c229c6a0054600160401b900460ff16611d5257604051631afcd79f60e31b815260040160405180910390fd5b613379613ea0565b806001600160a01b03163b600003613f2757604051634c9c8ce360e01b81526001600160a01b03821660048201526024016109d4565b60008051602061491a83398151915280546001600160a01b0319166001600160a01b0392909216919091179055565b6060600080846001600160a01b031684604051613f7391906148fd565b600060405180830381855af49150503d8060008114613fae576040519150601f19603f3d011682016040523d82523d6000602084013e613fb3565b606091505b5091509150613fc3858383613fed565b925050505b92915050565b3415611d525760405163b398979f60e01b815260040160405180910390fd5b60608261400257613ffd82614049565b613788565b815115801561401957506001600160a01b0384163b155b1561404257604051639996b31560e01b81526001600160a01b03851660048201526024016109d4565b5080613788565b8051156140595780518082602001fd5b604051630a12f52160e11b815260040160405180910390fd5b6001600160401b03811681146133ac57600080fd5b6001600160801b03811681146133ac57600080fd5b600080604083850312156140af57600080fd5b82356140ba81614072565b915060208301356140ca81614087565b809150509250929050565b6000806000606084860312156140ea57600080fd5b83356140f581614087565b9250602084013561410581614072565b9150604084013561411581614072565b809150509250925092565b60006020828403121561413257600080fd5b813561378881614087565b60006020828403121561414f57600080fd5b5035919050565b80356001600160a01b038116811461416d57600080fd5b919050565b634e487b7160e01b600052604160045260246000fd5b604051601f8201601f191681016001600160401b03811182821017156141b0576141b0614172565b604052919050565b600080604083850312156141cb57600080fd5b6141d483614156565b91506020808401356001600160401b03808211156141f157600080fd5b818601915086601f83011261420557600080fd5b81358181111561421757614217614172565b614229601f8201601f19168501614188565b9150808252878482850101111561423f57600080fd5b80848401858401376000848284010152508093505050509250929050565b60006020828403121561426f57600080fd5b61378882614156565b60006020828403121561428a57600080fd5b813561378881614072565b6000602082840312156142a757600080fd5b813560ff8116811461378857600080fd5b60005b838110156142d35781810151838201526020016142bb565b50506000910152565b60208152600082518060208401526142fb8160408501602087016142b8565b601f01601f19169190910160400192915050565b60008082840360a081121561432357600080fd5b833561432e81614087565b92506080601f198201121561434257600080fd5b50604051608081018181106001600160401b038211171561436557614365614172565b604052602084013561437681614087565b8152604084013561438681614087565b6020820152606084013561439981614087565b60408201526080939093013560608401525092909150565b80151581146133ac57600080fd5b600080600080600060a086880312156143d757600080fd5b85356143e281614087565b945060208601356143f281614087565b93506040860135614402816143b1565b9250606086013561441281614087565b9150608086013561442281614087565b809150509295509295909350565b6000806000806080858703121561444657600080fd5b61444f85614156565b935061445d60208601614156565b925061446b60408601614156565b915061447960608601614156565b905092959194509250565b634e487b7160e01b600052602160045260246000fd5b60208101600783106144ae576144ae614484565b91905290565b6000602082840312156144c657600080fd5b8151613788816143b1565b60208082526006908201526514185d5cd95960d21b604082015260600190565b634e487b7160e01b600052601160045260246000fd5b6001600160401b03818116838216019080821115614527576145276144f1565b5092915050565b60006001600160401b03821680614547576145476144f1565b6000190192915050565b8082028115828204841417613fc857613fc86144f1565b634e487b7160e01b600052601260045260246000fd5b60008261458d5761458d614568565b500490565b80820180821115613fc857613fc86144f1565b81810381811115613fc857613fc86144f1565b6000602082840312156145ca57600080fd5b815161378881614087565b6001600160801b038181168382160280821691908281146145f8576145f86144f1565b505092915050565b60006001600160801b038084168061461a5761461a614568565b92169190910492915050565b6001600160801b03818116838216019080821115614527576145276144f1565b6001600160801b03828116828216039080821115614527576145276144f1565b60006001600160801b03808316818103614682576146826144f1565b6001019392505050565b6001600160a01b039290921682526001600160801b0316602082015260400190565b6000602082840312156146c057600080fd5b5051919050565b6000602082840312156146d957600080fd5b815161378881614072565b6001600160a01b0393841681529190921660208201526001600160801b03909116604082015260600190565b60208082526033908201527f546869732066756e6374696f6e2063616e206f6e6c792063616c6c656420627960408201527208189bdc9c9bddda5b99c818dbdb9d1c9858dd606a1b606082015260800190565b60208101600b83106144ae576144ae614484565b60208082526016908201527521b0b63632b91034b9903737ba1030b71030b236b4b760511b604082015260600190565b60006001600160401b03808316818103614682576146826144f1565b60208082526029908201527f496e73756666696369656e7420555344542062616c616e63652077697468206d60408201526839b39739b2b73232b960b91b606082015260800190565b60208082526023908201527f55534454205472616e73666572206661696c656420696e20434453206465706f6040820152621cda5d60ea1b606082015260800190565b60208082526024908201527f414d494e54205472616e73666572206661696c656420696e20434453206465706040820152631bdcda5d60e21b606082015260800190565b805169ffffffffffffffffffff8116811461416d57600080fd5b600080600080600060a086880312156148c557600080fd5b6148ce86614893565b94506020860151935060408601519250606086015191506148f160808701614893565b90509295509295909350565b6000825161490f8184602087016142b8565b919091019291505056fe360894a13ba1a3210667c828492db98dca3e2076cc3735a920a3ca505d382bbc9b779b17422d0df92223018b32b4d1fa46e071723d6817e2486d003becc55f00a2646970667358221220f76788023ba10c7e87cbcbbe84e9941c5b363e0bcaf41b46d2cacb4b8c19895b64736f6c63430008140033","linkReferences":{}},"methodIdentifiers":{"PRECISION()":"aaf5eb68","UPGRADE_INTERFACE_VERSION()":"ad3cb1cc","amint()":"503e6322","amintLimit()":"412cfc94","borrowing()":"60b415ed","borrowingContract()":"84a965ed","burnedAmintInRedeem()":"e356b120","calculateCumulativeRate(uint128)":"b87c3dc3","cdsCount()":"df6f05e7","cdsDetails(address)":"880e8e3b","cumulativeValue()":"b9934fee","cumulativeValueSign()":"ba397b41","deposit(uint128,uint128,bool,uint128,uint128)":"dabd360a","fallbackEthPrice()":"77b7cda6","initialize(address,address,address,address)":"f8c8765e","lastCumulativeRate()":"8e4db39a","lastEthPrice()":"7038fc4e","liquidationIndexToInfo(uint128)":"d3e3413f","multiSign()":"9e6fe439","owner()":"8da5cb5b","proxiableUUID()":"52d1902d","redeemUSDT(uint128,uint64,uint64)":"46696df3","renounceOwnership()":"715018a6","setAdmin(address)":"704b6c02","setAmintLimit(uint8)":"84637c26","setBorrowingContract(address)":"78fdaf3f","setTreasury(address)":"f0f44260","setUsdtLimit(uint64)":"7bf5e245","setWithdrawTimeLimit(uint64)":"868c10d2","totalAvailableLiquidationAmount()":"dc91e752","totalCdsDepositedAmount()":"2bb2ea62","totalCdsDepositedAmountWithOptionFees()":"cba87517","transferOwnership(address)":"f2fde38b","treasury()":"61d027b3","treasuryAddress()":"c5f956af","updateLiquidationInfo(uint128,(uint128,uint128,uint128,uint256))":"b3013d4d","updateTotalAvailableLiquidationAmount(uint256)":"4cae95d3","updateTotalCdsDepositedAmount(uint128)":"dc55b193","updateTotalCdsDepositedAmountWithOptionFees(uint128)":"4baf580d","upgradeToAndCall(address,bytes)":"4f1ef286","usdt()":"2f48ab7d","usdtAmountDepositedTillNow()":"76a3fb3e","usdtLimit()":"f57ff39c","withdraw(uint64,uint128)":"254bba5c","withdrawTimeLimit()":"4f04a86b"},"id":5}