{"abi":[{"type":"function","name":"PRECISION","inputs":[],"outputs":[{"name":"","type":"uint128","internalType":"uint128"}],"stateMutability":"view"},{"type":"function","name":"UPGRADE_INTERFACE_VERSION","inputs":[],"outputs":[{"name":"","type":"string","internalType":"string"}],"stateMutability":"view"},{"type":"function","name":"amint","inputs":[],"outputs":[{"name":"","type":"address","internalType":"contract IAMINT"}],"stateMutability":"view"},{"type":"function","name":"amintLimit","inputs":[],"outputs":[{"name":"","type":"uint8","internalType":"uint8"}],"stateMutability":"view"},{"type":"function","name":"borrowing","inputs":[],"outputs":[{"name":"","type":"address","internalType":"contract IBorrowing"}],"stateMutability":"view"},{"type":"function","name":"borrowingContract","inputs":[],"outputs":[{"name":"","type":"address","internalType":"address"}],"stateMutability":"view"},{"type":"function","name":"burnedAmintInRedeem","inputs":[],"outputs":[{"name":"","type":"uint256","internalType":"uint256"}],"stateMutability":"view"},{"type":"function","name":"calculateCumulativeRate","inputs":[{"name":"fees","type":"uint128","internalType":"uint128"}],"outputs":[],"stateMutability":"nonpayable"},{"type":"function","name":"cdsCount","inputs":[],"outputs":[{"name":"","type":"uint64","internalType":"uint64"}],"stateMutability":"view"},{"type":"function","name":"cdsDetails","inputs":[{"name":"","type":"address","internalType":"address"}],"outputs":[{"name":"index","type":"uint64","internalType":"uint64"},{"name":"hasDeposited","type":"bool","internalType":"bool"}],"stateMutability":"view"},{"type":"function","name":"cumulativeValue","inputs":[],"outputs":[{"name":"","type":"uint128","internalType":"uint128"}],"stateMutability":"view"},{"type":"function","name":"cumulativeValueSign","inputs":[],"outputs":[{"name":"","type":"bool","internalType":"bool"}],"stateMutability":"view"},{"type":"function","name":"deposit","inputs":[{"name":"usdtAmount","type":"uint128","internalType":"uint128"},{"name":"amintAmount","type":"uint128","internalType":"uint128"},{"name":"_liquidate","type":"bool","internalType":"bool"},{"name":"_liquidationAmount","type":"uint128","internalType":"uint128"}],"outputs":[],"stateMutability":"nonpayable"},{"type":"function","name":"fallbackEthPrice","inputs":[],"outputs":[{"name":"","type":"uint128","internalType":"uint128"}],"stateMutability":"view"},{"type":"function","name":"getCDSDepositDetails","inputs":[{"name":"depositor","type":"address","internalType":"address"},{"name":"index","type":"uint64","internalType":"uint64"}],"outputs":[{"name":"","type":"tuple","internalType":"struct CDSTest.CdsAccountDetails","components":[{"name":"depositedTime","type":"uint64","internalType":"uint64"},{"name":"depositedAmount","type":"uint256","internalType":"uint256"},{"name":"withdrawedTime","type":"uint64","internalType":"uint64"},{"name":"withdrawedAmount","type":"uint256","internalType":"uint256"},{"name":"withdrawed","type":"bool","internalType":"bool"},{"name":"depositPrice","type":"uint128","internalType":"uint128"},{"name":"depositValue","type":"uint128","internalType":"uint128"},{"name":"depositValueSign","type":"bool","internalType":"bool"},{"name":"optedLiquidation","type":"bool","internalType":"bool"},{"name":"InitialLiquidationAmount","type":"uint128","internalType":"uint128"},{"name":"liquidationAmount","type":"uint128","internalType":"uint128"},{"name":"liquidationindex","type":"uint128","internalType":"uint128"},{"name":"normalizedAmount","type":"uint256","internalType":"uint256"}]},{"name":"","type":"uint64","internalType":"uint64"}],"stateMutability":"view"},{"type":"function","name":"initialize","inputs":[{"name":"_amint","type":"address","internalType":"address"},{"name":"priceFeed","type":"address","internalType":"address"},{"name":"_usdt","type":"address","internalType":"address"},{"name":"_multiSign","type":"address","internalType":"address"}],"outputs":[],"stateMutability":"nonpayable"},{"type":"function","name":"lastCumulativeRate","inputs":[],"outputs":[{"name":"","type":"uint128","internalType":"uint128"}],"stateMutability":"view"},{"type":"function","name":"lastEthPrice","inputs":[],"outputs":[{"name":"","type":"uint128","internalType":"uint128"}],"stateMutability":"view"},{"type":"function","name":"liquidationIndexToInfo","inputs":[{"name":"liquidationIndex","type":"uint128","internalType":"uint128"}],"outputs":[{"name":"liquidationAmount","type":"uint128","internalType":"uint128"},{"name":"profits","type":"uint128","internalType":"uint128"},{"name":"ethAmount","type":"uint128","internalType":"uint128"},{"name":"availableLiquidationAmount","type":"uint256","internalType":"uint256"}],"stateMutability":"view"},{"type":"function","name":"multiSign","inputs":[],"outputs":[{"name":"","type":"address","internalType":"contract IMultiSign"}],"stateMutability":"view"},{"type":"function","name":"owner","inputs":[],"outputs":[{"name":"","type":"address","internalType":"address"}],"stateMutability":"view"},{"type":"function","name":"proxiableUUID","inputs":[],"outputs":[{"name":"","type":"bytes32","internalType":"bytes32"}],"stateMutability":"view"},{"type":"function","name":"redeemUSDT","inputs":[{"name":"_amintAmount","type":"uint128","internalType":"uint128"},{"name":"amintPrice","type":"uint64","internalType":"uint64"},{"name":"usdtPrice","type":"uint64","internalType":"uint64"}],"outputs":[],"stateMutability":"nonpayable"},{"type":"function","name":"renounceOwnership","inputs":[],"outputs":[],"stateMutability":"nonpayable"},{"type":"function","name":"setAdmin","inputs":[{"name":"_admin","type":"address","internalType":"address"}],"outputs":[],"stateMutability":"nonpayable"},{"type":"function","name":"setAmintLimit","inputs":[{"name":"percent","type":"uint8","internalType":"uint8"}],"outputs":[],"stateMutability":"nonpayable"},{"type":"function","name":"setBorrowingContract","inputs":[{"name":"_address","type":"address","internalType":"address"}],"outputs":[],"stateMutability":"nonpayable"},{"type":"function","name":"setTreasury","inputs":[{"name":"_treasury","type":"address","internalType":"address"}],"outputs":[],"stateMutability":"nonpayable"},{"type":"function","name":"setUsdtLimit","inputs":[{"name":"amount","type":"uint64","internalType":"uint64"}],"outputs":[],"stateMutability":"nonpayable"},{"type":"function","name":"setWithdrawTimeLimit","inputs":[{"name":"_timeLimit","type":"uint64","internalType":"uint64"}],"outputs":[],"stateMutability":"nonpayable"},{"type":"function","name":"totalAvailableLiquidationAmount","inputs":[],"outputs":[{"name":"","type":"uint256","internalType":"uint256"}],"stateMutability":"view"},{"type":"function","name":"totalCdsDepositedAmount","inputs":[],"outputs":[{"name":"","type":"uint256","internalType":"uint256"}],"stateMutability":"view"},{"type":"function","name":"totalCdsDepositedAmountWithOptionFees","inputs":[],"outputs":[{"name":"","type":"uint256","internalType":"uint256"}],"stateMutability":"view"},{"type":"function","name":"transferOwnership","inputs":[{"name":"newOwner","type":"address","internalType":"address"}],"outputs":[],"stateMutability":"nonpayable"},{"type":"function","name":"treasury","inputs":[],"outputs":[{"name":"","type":"address","internalType":"contract ITreasury"}],"stateMutability":"view"},{"type":"function","name":"treasuryAddress","inputs":[],"outputs":[{"name":"","type":"address","internalType":"address"}],"stateMutability":"view"},{"type":"function","name":"updateLiquidationInfo","inputs":[{"name":"index","type":"uint128","internalType":"uint128"},{"name":"liquidationData","type":"tuple","internalType":"struct CDSTest.LiquidationInfo","components":[{"name":"liquidationAmount","type":"uint128","internalType":"uint128"},{"name":"profits","type":"uint128","internalType":"uint128"},{"name":"ethAmount","type":"uint128","internalType":"uint128"},{"name":"availableLiquidationAmount","type":"uint256","internalType":"uint256"}]}],"outputs":[],"stateMutability":"nonpayable"},{"type":"function","name":"updateTotalAvailableLiquidationAmount","inputs":[{"name":"amount","type":"uint256","internalType":"uint256"}],"outputs":[],"stateMutability":"nonpayable"},{"type":"function","name":"updateTotalCdsDepositedAmount","inputs":[{"name":"_amount","type":"uint128","internalType":"uint128"}],"outputs":[],"stateMutability":"nonpayable"},{"type":"function","name":"updateTotalCdsDepositedAmountWithOptionFees","inputs":[{"name":"_amount","type":"uint128","internalType":"uint128"}],"outputs":[],"stateMutability":"nonpayable"},{"type":"function","name":"upgradeToAndCall","inputs":[{"name":"newImplementation","type":"address","internalType":"address"},{"name":"data","type":"bytes","internalType":"bytes"}],"outputs":[],"stateMutability":"payable"},{"type":"function","name":"usdt","inputs":[],"outputs":[{"name":"","type":"address","internalType":"contract IERC20"}],"stateMutability":"view"},{"type":"function","name":"usdtAmountDepositedTillNow","inputs":[],"outputs":[{"name":"","type":"uint256","internalType":"uint256"}],"stateMutability":"view"},{"type":"function","name":"usdtLimit","inputs":[],"outputs":[{"name":"","type":"uint64","internalType":"uint64"}],"stateMutability":"view"},{"type":"function","name":"withdraw","inputs":[{"name":"_index","type":"uint64","internalType":"uint64"}],"outputs":[],"stateMutability":"nonpayable"},{"type":"function","name":"withdrawTimeLimit","inputs":[],"outputs":[{"name":"","type":"uint64","internalType":"uint64"}],"stateMutability":"view"},{"type":"event","name":"Deposit","inputs":[{"name":"depositedAmint","type":"uint256","indexed":false,"internalType":"uint256"},{"name":"index","type":"uint64","indexed":false,"internalType":"uint64"},{"name":"liquidationAmount","type":"uint128","indexed":false,"internalType":"uint128"},{"name":"normalizedAmount","type":"uint256","indexed":false,"internalType":"uint256"},{"name":"depositVal","type":"uint128","indexed":false,"internalType":"uint128"}],"anonymous":false},{"type":"event","name":"Initialized","inputs":[{"name":"version","type":"uint64","indexed":false,"internalType":"uint64"}],"anonymous":false},{"type":"event","name":"OwnershipTransferred","inputs":[{"name":"previousOwner","type":"address","indexed":true,"internalType":"address"},{"name":"newOwner","type":"address","indexed":true,"internalType":"address"}],"anonymous":false},{"type":"event","name":"Upgraded","inputs":[{"name":"implementation","type":"address","indexed":true,"internalType":"address"}],"anonymous":false},{"type":"event","name":"Withdraw","inputs":[{"name":"withdrewAmint","type":"uint256","indexed":false,"internalType":"uint256"},{"name":"withdrawETH","type":"uint128","indexed":false,"internalType":"uint128"}],"anonymous":false},{"type":"error","name":"AddressEmptyCode","inputs":[{"name":"target","type":"address","internalType":"address"}]},{"type":"error","name":"ERC1967InvalidImplementation","inputs":[{"name":"implementation","type":"address","internalType":"address"}]},{"type":"error","name":"ERC1967NonPayable","inputs":[]},{"type":"error","name":"FailedInnerCall","inputs":[]},{"type":"error","name":"InvalidInitialization","inputs":[]},{"type":"error","name":"NotInitializing","inputs":[]},{"type":"error","name":"OwnableInvalidOwner","inputs":[{"name":"owner","type":"address","internalType":"address"}]},{"type":"error","name":"OwnableUnauthorizedAccount","inputs":[{"name":"account","type":"address","internalType":"address"}]},{"type":"error","name":"ReentrancyGuardReentrantCall","inputs":[]},{"type":"error","name":"UUPSUnauthorizedCallContext","inputs":[]},{"type":"error","name":"UUPSUnsupportedProxiableUUID","inputs":[{"name":"slot","type":"bytes32","internalType":"bytes32"}]}],"bytecode":{"object":"0x60a06040523060805234801561001457600080fd5b5060805161539f61003e60003960008181613ab001528181613ad90152613c1a015261539f6000f3fe60806040526004361061027d5760003560e01c8063868c10d21161014f578063ba397b41116100c1578063df6f05e71161007a578063df6f05e714610a17578063e356b12014610a37578063f0f4426014610a4d578063f2fde38b14610a6d578063f57ff39c14610a8d578063f8c8765e14610ab457600080fd5b8063ba397b41146108f3578063c5f956af14610924578063cba8751714610944578063d3e3413f1461095a578063dc55b193146109e1578063dc91e75214610a0157600080fd5b8063aaf5eb6811610113578063aaf5eb6814610815578063ad3cb1cc14610835578063b0b6f3c614610873578063b3013d4d14610893578063b87c3dc3146108b3578063b9934fee146108d357600080fd5b8063868c10d214610717578063880e8e3b146107375780638da5cb5b146107985780638e4db39a146107d55780639e6fe439146107f557600080fd5b806360b415ed116101f357806376a3fb3e116101ac57806376a3fb3e1461065a57806377b7cda61461067057806378fdaf3f146106975780637bf5e245146106b757806384637c26146106d757806384a965ed146106f757600080fd5b806360b415ed1461058d57806361d027b3146105ad5780637038fc4e146105cd578063704b6c0214610605578063715018a614610625578063750f0acc1461063a57600080fd5b80634baf580d116102455780634baf580d146104c65780634cae95d3146104e65780634f04a86b146105065780634f1ef28614610545578063503e63221461055857806352d1902d1461057857600080fd5b80632bb2ea62146102825780632f48ab7d146102ab578063412cfc94146102e357806346696df3146103165780634721bae814610338575b600080fd5b34801561028e57600080fd5b50610298600b5481565b6040519081526020015b60405180910390f35b3480156102b757600080fd5b506005546102cb906001600160a01b031681565b6040516001600160a01b0390911681526020016102a2565b3480156102ef57600080fd5b50600e5461030490600160801b900460ff1681565b60405160ff90911681526020016102a2565b34801561032257600080fd5b50610336610331366004614897565b610ad4565b005b34801561034457600080fd5b506104b86103533660046148fe565b604080516101a081018252600080825260208201819052918101829052606081018290526080810182905260a0810182905260c0810182905260e081018290526101008101829052610120810182905261014081018290526101608101829052610180810191909152506001600160a01b03821660008181526013602081815260408084206001600160401b03808816865260018083018552838720979096529383525481516101a0810183528654851681529486015492850192909252600285015483169084015260038401546060840152600484015460ff808216151560808601526001600160801b0361010092839004811660a0870152600587015480821660c0880152600160801b8082048416151560e0890152600160881b90910490921615159286019290925260068601548083166101208701520481166101408501526007850154166101608401526008909301546101808301529091169250929050565b6040516102a2929190614935565b3480156104d257600080fd5b506103366104e1366004614a35565b610eff565b3480156104f257600080fd5b50610336610501366004614a52565b610f4c565b34801561051257600080fd5b50600a5461052d90600160401b90046001600160401b031681565b6040516001600160401b0390911681526020016102a2565b610336610553366004614ab1565b610f88565b34801561056457600080fd5b506000546102cb906001600160a01b031681565b34801561058457600080fd5b50610298610fa7565b34801561059957600080fd5b506001546102cb906001600160a01b031681565b3480156105b957600080fd5b506002546102cb906001600160a01b031681565b3480156105d957600080fd5b506009546105ed906001600160801b031681565b6040516001600160801b0390911681526020016102a2565b34801561061157600080fd5b50610336610620366004614b56565b610fc4565b34801561063157600080fd5b506103366110f1565b34801561064657600080fd5b50610336610655366004614b71565b611105565b34801561066657600080fd5b50610298600f5481565b34801561067c57600080fd5b506009546105ed90600160801b90046001600160801b031681565b3480156106a357600080fd5b506103366106b2366004614b56565b6122a9565b3480156106c357600080fd5b506103366106d2366004614b71565b612367565b3480156106e357600080fd5b506103366106f2366004614b8e565b612492565b34801561070357600080fd5b506007546102cb906001600160a01b031681565b34801561072357600080fd5b50610336610732366004614b71565b6125aa565b34801561074357600080fd5b50610779610752366004614b56565b6013602052600090815260409020546001600160401b03811690600160401b900460ff1682565b604080516001600160401b0390931683529015156020830152016102a2565b3480156107a457600080fd5b507f9016d09d72d40fdae2fd8ceac6b6234c7706214fd39c1cd1e609a0528c199300546001600160a01b03166102cb565b3480156107e157600080fd5b50600e546105ed906001600160801b031681565b34801561080157600080fd5b506004546102cb906001600160a01b031681565b34801561082157600080fd5b506012546105ed906001600160801b031681565b34801561084157600080fd5b50610866604051806040016040528060058152602001640352e302e360dc1b81525081565b6040516102a29190614c01565b34801561087f57600080fd5b5061033661088e366004614c22565b6126e4565b34801561089f57600080fd5b506103366108ae366004614c7e565b613458565b3480156108bf57600080fd5b506103366108ce366004614a35565b6134e1565b3480156108df57600080fd5b506011546105ed906001600160801b031681565b3480156108ff57600080fd5b5060115461091490600160801b900460ff1681565b60405190151581526020016102a2565b34801561093057600080fd5b506008546102cb906001600160a01b031681565b34801561095057600080fd5b50610298600c5481565b34801561096657600080fd5b506109ac610975366004614a35565b6014602052600090815260409020805460018201546002909201546001600160801b0380831693600160801b909304811692169084565b6040516102a294939291906001600160801b039485168152928416602084015292166040820152606081019190915260800190565b3480156109ed57600080fd5b506103366109fc366004614a35565b6136f4565b348015610a0d57600080fd5b50610298600d5481565b348015610a2357600080fd5b50600a5461052d906001600160401b031681565b348015610a4357600080fd5b5061029860105481565b348015610a5957600080fd5b50610336610a68366004614b56565b613739565b348015610a7957600080fd5b50610336610a88366004614b56565b613872565b348015610a9957600080fd5b50600e5461052d90600160881b90046001600160401b031681565b348015610ac057600080fd5b50610336610acf366004614d20565b6138ad565b610adc613a6d565b6006600480546040516326d2a55160e21b81526001600160a01b0390911691639b4a954491610b0d91859101614d8a565b6020604051808303816000875af1158015610b2c573d6000803e3d6000fd5b505050506040513d601f19601f82011682018060405250810190610b509190614da4565b15610b765760405162461bcd60e51b8152600401610b6d90614dc1565b60405180910390fd5b836001600160801b0316600003610bcf5760405162461bcd60e51b815260206004820152601960248201527f416d6f756e742073686f756c64206e6f74206265207a65726f000000000000006044820152606401610b6d565b6000546040516370a0823160e01b81523360048201526001600160801b038616916001600160a01b0316906370a0823190602401602060405180830381865afa158015610c20573d6000803e3d6000fd5b505050506040513d601f19601f82011682018060405250810190610c449190614de1565b1015610c895760405162461bcd60e51b8152602060048201526014602482015273496e73756666696369656e742062616c616e636560601b6044820152606401610b6d565b836001600160801b031660106000828254610ca49190614e10565b9091555050600080546040516363a9f09360e11b81526001600160a01b039091169063c753e12690610cdc9033908990600401614e23565b6020604051808303816000875af1158015610cfb573d6000803e3d6000fd5b505050506040513d601f19601f82011682018060405250810190610d1f9190614da4565b9050600181151514610d735760405162461bcd60e51b815260206004820152601f60248201527f414d494e54204275726e206661696c656420696e2072656465656d55534454006044820152606401610b6d565b6000836001600160401b031686866001600160401b0316610d949190614e45565b610d9e9190614e86565b60025460405163e613610560e01b81529192506001600160a01b03169063e613610590610dd19030908590600401614e23565b600060405180830381600087803b158015610deb57600080fd5b505af1158015610dff573d6000803e3d6000fd5b50506005546008546040516323b872dd60e01b8152600094506001600160a01b0392831693506323b872dd92610e3d92169033908790600401614eac565b6020604051808303816000875af1158015610e5c573d6000803e3d6000fd5b505050506040513d601f19601f82011682018060405250810190610e809190614da4565b9050600181151514610edf5760405162461bcd60e51b815260206004820152602260248201527f55534454205472616e73666572206661696c656420696e2072656465656d5553604482015261111560f21b6064820152608401610b6d565b50505050610efa600160008051602061532083398151915255565b505050565b6007546001600160a01b03163314610f295760405162461bcd60e51b8152600401610b6d90614ed8565b806001600160801b0316600c6000828254610f449190614f2b565b909155505050565b6007546001600160a01b03163314610f765760405162461bcd60e51b8152600401610b6d90614ed8565b80600d6000828254610f449190614f2b565b610f90613aa5565b610f9982613b4a565b610fa38282613b52565b5050565b6000610fb1613c0f565b5060008051602061526c83398151915290565b610fcc613c58565b6001600160a01b03811615801590610ff1575060016001600160a01b0382163b151514155b6110545760405162461bcd60e51b815260206004820152602e60248201527f41646d696e2063616e277420626520636f6e747261637420616464726573732060448201526d26207a65726f206164647265737360901b6064820152608401610b6d565b6004546001600160a01b031663fb8c927860056040518263ffffffff1660e01b81526004016110839190614f3e565b6020604051808303816000875af11580156110a2573d6000803e3d6000fd5b505050506040513d601f19601f820116820180604052508101906110c69190614da4565b6110cf57600080fd5b600680546001600160a01b0319166001600160a01b0392909216919091179055565b6110f9613c58565b6111036000613cb3565b565b61110d613a6d565b6005600480546040516326d2a55160e21b81526001600160a01b0390911691639b4a95449161113e91859101614d8a565b6020604051808303816000875af115801561115d573d6000803e3d6000fd5b505050506040513d601f19601f820116820180604052508101906111819190614da4565b1561119e5760405162461bcd60e51b8152600401610b6d90614dc1565b336000908152601360205260409020546001600160401b03808416911610156112175760405162461bcd60e51b815260206004820152602560248201527f7573657220646f65736e277420686176652074686520737065636966696564206044820152640d2dcc8caf60db1b6064820152608401610b6d565b3360009081526013602090815260408083206001600160401b038616845260010190915290206004015460ff16156112855760405162461bcd60e51b815260206004820152601160248201527020b63932b0b23c903bb4ba34323930bbb760791b6044820152606401610b6d565b600a543360009081526013602090815260408083206001600160401b0387811685526001909101909252909120544292828416926112ce92600160401b90920481169116614f52565b6001600160401b0316111561133c5760405162461bcd60e51b815260206004820152602e60248201527f63616e6e6f74207769746864726177206265666f72652074686520776974686460448201526d1c985dc81d1a5b59481b1a5b5a5d60921b6064820152608401610b6d565b3360008181526013602081815260408084206001600160401b03808a16865260018281018552928620600401805460ff1916841790559590945291905290549091161480156113945750826001600160401b03166001145b156113d757600a80546000906113b2906001600160401b0316614f79565b91906101000a8154816001600160401b0302191690836001600160401b031602179055505b60006113e1613d24565b9050806001600160801b031660000361142c5760405162461bcd60e51b815260206004820152600d60248201526c13dc9858db194811985a5b1959609a1b6044820152606401610b6d565b3360009081526013602090815260408083206001600160401b03881684526001908101909252822090810154601254600e5460089093015491926001600160801b039182169261147f9290911690614f9c565b6114899190614fb3565b611494338886613dbd565b61149e9190614e10565b6114a89190614f2b565b3360009081526013602090815260408083206001600160401b038a8116855260019091019092529091206003810183905560028101805467ffffffffffffffff19169287169290921790915560050154909150600160881b900460ff1615611f0c573360009081526013602090815260408083206001600160401b038916845260010190915290206006015461154e90600160801b90046001600160801b031682614f2b565b90506000600160009054906101000a90046001600160a01b03166001600160a01b03166338a912d56040518163ffffffff1660e01b8152600401602060405180830381865afa1580156115a5573d6000803e3d6000fd5b505050506040513d601f19601f820116820180604052508101906115c99190614fc7565b90506115f96040518060400160405280600c81526020016b1c995d1d5c9b905b5bdd5b9d60a21b815250836140f6565b3360009081526013602090815260408083206001600160401b038a1684526001908101835292819020600701548151808301909252928152601960f91b918101919091526001600160801b03909116906116529061413b565b6000816001600160801b0316836001600160801b031610611f045761168f604051806040016040528060018152602001603360f81b81525061413b565b600061169c836001614fe4565b90505b836001600160801b0316816001600160801b031611611a9a576116e4604051806040016040528060018152602001606960f81b815250826001600160801b03166140f6565b3360009081526013602090815260408083206001600160401b038d16845260010182529182902060060154825180840190935260118352701b1a5c5d5a59185d1a5bdb905b5bdd5b9d607a1b91830191909152600160801b90046001600160801b03169061175290826140f6565b6001600160801b03811615611a87576001600160801b03808316600090815260146020908152604091829020825160808101845281548086168252600160801b9004851681840152600182015490941684840152600201546060808501919091528251908101909252602a8083526117d692916153409083013982606001516140f6565b60608101516000906117ed846402540be400614e45565b6117f79190614e86565b905061182960405180604001604052806005815260200164736861726560d81b815250826001600160801b03166140f6565b60006118776040518060400160405280601781526020017f6c69717569646174696f6e446174612e70726f6669747300000000000000000081525084602001516001600160801b03166140f6565b6402540be40082846020015161188d9190614e45565b6118979190614e86565b90506118ca604051806040016040528060068152602001651c1c9bd99a5d60d21b815250826001600160801b03166140f6565b8060136000336001600160a01b03166001600160a01b0316815260200190815260200160002060010160008f6001600160401b03166001600160401b0316815260200190815260200160002060060160108282829054906101000a90046001600160801b031661193a9190614fe4565b92506101000a8154816001600160801b0302191690836001600160801b031602179055506119a66040518060600160405280602d81526020016152ce602d913984516402540be4009061198e908690614e45565b6119989190614e86565b6001600160801b03166140f6565b82516402540be400906119ba908490614e45565b6119c49190614e86565b60136000336001600160a01b03166001600160a01b0316815260200190815260200160002060010160008f6001600160401b03166001600160401b0316815260200190815260200160002060060160108282829054906101000a90046001600160801b0316611a339190615004565b92506101000a8154816001600160801b0302191690836001600160801b031602179055506402540be400828460400151611a6d9190614e45565b611a779190614e86565b611a819087614fe4565b95505050505b5080611a9281615024565b91505061169f565b50611af660405180608001604052806042815260200161528c604291393360009081526013602090815260408083206001600160401b038e168452600101909152902060060154600160801b90046001600160801b03166140f6565b3360009081526013602090815260408083206001600160401b038c168452600101909152812060060154611b3a90600160801b90046001600160801b031686614e10565b9050611b736040518060400160405280601581526020017472657475726e416d6f756e74576974684761696e7360581b815250826140f6565b611bae604051806040016040528060178152602001761d1bdd185b10d91cd1195c1bdcda5d1959105b5bdd5b9d604a1b815250600b546140f6565b611bfa60405180606001604052806040815260200161522c604091393360009081526013602090815260408083206001600160401b038f168452600190810190925290912001546140f6565b3360009081526013602090815260408083206001600160401b038d168452600190810190925282200154600b805491929091611c37908490614f2b565b92505081905550611c626040518060600160405280602581526020016152fb60259139600c546140f6565b80600c6000828254611c749190614f2b565b90915550503360009081526013602090815260408083206001600160401b038d168452600101909152908190206003018290556002549051630adfd5a560e21b8152306004820152602481018390526001600160a01b0390911690632b7f569490604401600060405180830381600087803b158015611cf257600080fd5b505af1158015611d06573d6000803e3d6000fd5b5050600080546008546040516323b872dd60e01b81526001600160a01b039182166004820152336024820152604481018790529294501691506323b872dd906064016020604051808303816000875af1158015611d67573d6000803e3d6000fd5b505050506040513d601f19601f82011682018060405250810190611d8b9190614da4565b9050600181151514611ddf5760405162461bcd60e51b815260206004820152601e60248201527f5472616e7373756363657373656420696e2063647320776974686472617700006044820152606401610b6d565b6001600160801b03831615611ec05760025460405163cd0220c960e01b81526001600160801b0385166004820152600060248201526001600160a01b039091169063cd0220c990604401600060405180830381600087803b158015611e4357600080fd5b505af1158015611e57573d6000803e3d6000fd5b5050600254604051635822b66d60e01b81526001600160a01b039091169250635822b66d9150611e8d9033908790600401614e23565b600060405180830381600087803b158015611ea757600080fd5b505af1158015611ebb573d6000803e3d6000fd5b505050505b604080518381526001600160801b03851660208201527fd34ad3981afdf23db33825e66e2466a17cb9567dfd6b8c14a210ea42a3efecfd910160405180910390a150505b505050612234565b3360009081526013602090815260408083206001600160401b0389168452600190810190925282200154600b805491929091611f49908490614f2b565b9250508190555080600c6000828254611f629190614f2b565b90915550503360009081526013602090815260408083206001600160401b03891684526001018252918290206003018390556002548251631506d82560e21b815292516001600160a01b039091169263541b60949260048083019391928290030181865afa158015611fd8573d6000803e3d6000fd5b505050506040513d601f19601f82011682018060405250810190611ffc9190614de1565b156120f95760125461201f90600160801b90046001600160801b03166002614e45565b60015460405163ada0b0ed60e01b8152600060048201526001600160801b03858116602483015292909216916001600160a01b039091169063ada0b0ed906044016020604051808303816000875af115801561207f573d6000803e3d6000fd5b505050506040513d601f19601f820116820180604052508101906120a3919061504a565b6001600160401b0316116120f95760405162461bcd60e51b815260206004820152601b60248201527f4344533a204e6f7420656e6f7567682066756e6420696e2043445300000000006044820152606401610b6d565b600254604051630adfd5a560e21b8152306004820152602481018390526001600160a01b0390911690632b7f569490604401600060405180830381600087803b15801561214557600080fd5b505af1158015612159573d6000803e3d6000fd5b5050600080546008546040516323b872dd60e01b81526001600160a01b039182166004820152336024820152604481018790529294501691506323b872dd906064016020604051808303816000875af11580156121ba573d6000803e3d6000fd5b505050506040513d601f19601f820116820180604052508101906121de9190614da4565b90506001811515146122325760405162461bcd60e51b815260206004820152601f60248201527f5472616e73666572206661696c656420696e20636473207769746864726177006044820152606401610b6d565b505b6009546001600160801b03838116911614612252576122528261417e565b60408051828152600060208201527fd34ad3981afdf23db33825e66e2466a17cb9567dfd6b8c14a210ea42a3efecfd910160405180910390a1505050506122a6600160008051602061532083398151915255565b50565b6006546001600160a01b031633146122d35760405162461bcd60e51b8152600401610b6d90615067565b6001600160a01b038116158015906122f457506001600160a01b0381163b15155b61233b5760405162461bcd60e51b8152602060048201526018602482015277125b9c1d5d081859191c995cdcc81a5cc81a5b9d985b1a5960421b6044820152606401610b6d565b600780546001600160a01b039092166001600160a01b0319928316811790915560018054909216179055565b6006546001600160a01b031633146123915760405162461bcd60e51b8152600401610b6d90615067565b806001600160401b03166000036123ea5760405162461bcd60e51b815260206004820152601860248201527f55534454206c696d69742063616e2774206265207a65726f00000000000000006044820152606401610b6d565b6004546001600160a01b031663fb8c9278600a6040518263ffffffff1660e01b81526004016124199190614f3e565b6020604051808303816000875af1158015612438573d6000803e3d6000fd5b505050506040513d601f19601f8201168201806040525081019061245c9190614da4565b61246557600080fd5b600e80546001600160401b03909216600160881b0267ffffffffffffffff60881b19909216919091179055565b6006546001600160a01b031633146124bc5760405162461bcd60e51b8152600401610b6d90615067565b8060ff1660000361250f5760405162461bcd60e51b815260206004820152601960248201527f416d696e74206c696d69742063616e2774206265207a65726f000000000000006044820152606401610b6d565b6004546001600160a01b031663fb8c927860096040518263ffffffff1660e01b815260040161253e9190614f3e565b6020604051808303816000875af115801561255d573d6000803e3d6000fd5b505050506040513d601f19601f820116820180604052508101906125819190614da4565b61258a57600080fd5b600e805460ff909216600160801b0260ff60801b19909216919091179055565b6006546001600160a01b031633146125d45760405162461bcd60e51b8152600401610b6d90615067565b806001600160401b03166000036126375760405162461bcd60e51b815260206004820152602160248201527f57697468647261772074696d65206c696d69742063616e2774206265207a65726044820152606f60f81b6064820152608401610b6d565b6004546001600160a01b031663fb8c927860036040518263ffffffff1660e01b81526004016126669190614f3e565b6020604051808303816000875af1158015612685573d6000803e3d6000fd5b505050506040513d601f19601f820116820180604052508101906126a99190614da4565b6126b257600080fd5b600a80546001600160401b03909216600160401b026fffffffffffffffff000000000000000019909216919091179055565b6126ec613a6d565b60048080546040516326d2a55160e21b81526001600160a01b0390911691639b4a95449161271c91859101614d8a565b6020604051808303816000875af115801561273b573d6000803e3d6000fd5b505050506040513d601f19601f8201168201806040525081019061275f9190614da4565b1561277c5760405162461bcd60e51b8152600401610b6d90614dc1565b60006127888587614fe4565b6001600160801b03169050806000036127ed5760405162461bcd60e51b815260206004820152602160248201527f4465706f73697420616d6f756e742073686f756c64206e6f74206265207a65726044820152606f60f81b6064820152608401610b6d565b80836001600160801b031611156128655760405162461bcd60e51b815260206004820152603660248201527f4c69717569646174696f6e20616d6f756e742063616e27742067726561746572604482015275081d1a185b8819195c1bdcda5d195908185b5bdd5b9d60521b6064820152608401610b6d565b600e54600f54600160881b9091046001600160401b0316111561294e57600e54600f54600160881b9091046001600160401b0316906128ae906001600160801b03891690614e10565b116129105780866001600160801b03161461290b5760405162461bcd60e51b815260206004820152601b60248201527f31303025206f6620616d6f756e74206d757374206265205553445400000000006044820152606401610b6d565b612aa1565b60405162461bcd60e51b815260206004820152601360248201527214dd5c9c1b1d5cc81554d11508185b5bdd5b9d606a1b6044820152606401610b6d565b600e54606490612969908390600160801b900460ff16614f9c565b6129739190614fb3565b856001600160801b031610156129cb5760405162461bcd60e51b815260206004820152601d60248201527f526571756972656420414d494e5420616d6f756e74206e6f74206d65740000006044820152606401610b6d565b6000546040516370a0823160e01b81523360048201526001600160801b038716916001600160a01b0316906370a0823190602401602060405180830381865afa158015612a1c573d6000803e3d6000fd5b505050506040513d601f19601f82011682018060405250810190612a409190614de1565b1015612aa15760405162461bcd60e51b815260206004820152602a60248201527f496e73756666696369656e7420414d494e542062616c616e636520776974682060448201526936b9b39739b2b73232b960b11b6064820152608401610b6d565b6000612aab613d24565b9050806001600160801b0316600003612af65760405162461bcd60e51b815260206004820152600d60248201526c13dc9858db194811985a5b1959609a1b6044820152606401610b6d565b33600090815260136020526040812054600160401b900460ff16612b825750336000908152601360205260408120805468ffffffffffffffffff191668010000000000000001179055600a805460019290612b59906001600160401b0316615097565b91906101000a8154816001600160401b0302191690836001600160401b03160217905550612bce565b3360009081526013602052604081208054909190612ba8906001600160401b0316615097565b91906101000a8154816001600160401b0302191690836001600160401b03160217905590505b3360009081526013602090815260408083206001600160401b038516845260019081019092528220908101859055600401805470ffffffffffffffffffffffffffffffff0019166101006001600160801b03861602179055612c2f836141a7565b9050612c4381600001518260200151614492565b601180543360009081526013602090815260408083206001600160401b0388168452600101909152812060050180546001600160801b031981166001600160801b039094169384178255935460ff600160801b91829004161515026001600160881b0319909416909217929092179055600b8054869290612cc5908490614e10565b9250508190555083600c6000828254612cde9190614e10565b92505081905550886001600160801b0316600f6000828254612d009190614e10565b90915550503360009081526013602090815260408083206001600160401b0386811685526001909101909252909120805467ffffffffffffffff191642909216919091179055600e546012546001600160801b0391821691612d63911686614f9c565b612d6d9190614fb3565b3360009081526013602090815260408083206001600160401b038716845260010190915290206008810191909155600501805488158015600160881b0260ff60881b1990921691909117909155612ea857600160009054906101000a90046001600160a01b03166001600160a01b03166338a912d56040518163ffffffff1660e01b8152600401602060405180830381865afa158015612e11573d6000803e3d6000fd5b505050506040513d601f19601f82011682018060405250810190612e359190614fc7565b3360009081526013602090815260408083206001600160401b038716845260010190915281206007810180546001600160801b03199081166001600160801b0395861617909155600160801b938a16938402168317600690910155600d8054909190612ea2908490614e10565b90915550505b6009546001600160801b03848116911614612ec657612ec68361417e565b6001600160801b03891615801590612ee657506001600160801b03881615155b156130c7576005546040516370a0823160e01b81523360048201526001600160801b038b16916001600160a01b0316906370a0823190602401602060405180830381865afa158015612f3c573d6000803e3d6000fd5b505050506040513d601f19601f82011682018060405250810190612f609190614de1565b1015612f7e5760405162461bcd60e51b8152600401610b6d906150b3565b6005546008546040516323b872dd60e01b81526000926001600160a01b03908116926323b872dd92612fb892339216908f90600401614eac565b6020604051808303816000875af1158015612fd7573d6000803e3d6000fd5b505050506040513d601f19601f82011682018060405250810190612ffb9190614da4565b905060018115151461301f5760405162461bcd60e51b8152600401610b6d906150fc565b600080546008546040516323b872dd60e01b81526001600160a01b03928316926323b872dd92613059923392909116908f90600401614eac565b6020604051808303816000875af1158015613078573d6000803e3d6000fd5b505050506040513d601f19601f8201168201806040525081019061309c9190614da4565b90506001811515146130c05760405162461bcd60e51b8152600401610b6d9061513f565b50506132b5565b886001600160801b031660000361317f57600080546008546040516323b872dd60e01b81526001600160a01b03928316926323b872dd92613112923392909116908e90600401614eac565b6020604051808303816000875af1158015613131573d6000803e3d6000fd5b505050506040513d601f19601f820116820180604052508101906131559190614da4565b90506001811515146131795760405162461bcd60e51b8152600401610b6d9061513f565b506132b5565b6005546040516370a0823160e01b81523360048201526001600160801b038b16916001600160a01b0316906370a0823190602401602060405180830381865afa1580156131d0573d6000803e3d6000fd5b505050506040513d601f19601f820116820180604052508101906131f49190614de1565b10156132125760405162461bcd60e51b8152600401610b6d906150b3565b6005546008546040516323b872dd60e01b81526000926001600160a01b03908116926323b872dd9261324c92339216908f90600401614eac565b6020604051808303816000875af115801561326b573d6000803e3d6000fd5b505050506040513d601f19601f8201168201806040525081019061328f9190614da4565b90506001811515146132b35760405162461bcd60e51b8152600401610b6d906150fc565b505b6001600160801b038916156133a957600080546008546040516340c10f1960e01b81526001600160a01b03928316926340c10f19926132fb929116908e90600401614e23565b6020604051808303816000875af115801561331a573d6000803e3d6000fd5b505050506040513d601f19601f8201168201806040525081019061333e9190614da4565b90506001811515146133a75760405162461bcd60e51b815260206004820152602c60248201527f414d494e54206d696e7420746f207472656173757279206661696c656420696e60448201526b0810d114c819195c1bdcda5d60a21b6064820152608401610b6d565b505b3360009081526013602090815260408083206001600160401b038616808552600190910183529281902060088101546005909101548251898152938401949094526001600160801b03808b1692840192909252606083015290911660808201527fcdd1e645b3bff8dc4c192ceeb358900b0903593c0778b65f0493d608c1a8daf69060a00160405180910390a15050505050613452600160008051602061532083398151915255565b50505050565b6007546001600160a01b031633146134825760405162461bcd60e51b8152600401610b6d90614ed8565b6001600160801b039182166000908152601460209081526040918290208351918401518516600160801b0291851691909117815590820151600182018054919094166001600160801b0319919091161790925560600151600290910155565b6007546001600160a01b0316331461350b5760405162461bcd60e51b8152600401610b6d90614ed8565b806001600160801b03166000036135645760405162461bcd60e51b815260206004820152601760248201527f466565732073686f756c64206e6f74206265207a65726f0000000000000000006044820152606401610b6d565b806001600160801b0316600c600082825461357f9190614e10565b9091555050600c5460125460009082906135a2906001600160801b031685614e45565b6135ac9190614e86565b90506000600260009054906101000a90046001600160a01b03166001600160a01b03166345aeb0ce6040518163ffffffff1660e01b8152600401602060405180830381865afa158015613603573d6000803e3d6000fd5b505050506040513d601f19601f820116820180604052508101906136279190614fc7565b6001600160801b031660000361367c576012548290613650906001600160801b03166001614e45565b61365a9190614fe4565b600e80546001600160801b0319166001600160801b0383161790559050613452565b6012548290613695906001600160801b03166001614e45565b61369f9190614fe4565b600e546136b591906001600160801b0316614e45565b6012549091506136ce906001600160801b031682614e86565b600e80546001600160801b0319166001600160801b039290921691909117905550505050565b6007546001600160a01b0316331461371e5760405162461bcd60e51b8152600401610b6d90614ed8565b806001600160801b0316600b6000828254610f449190614f2b565b6006546001600160a01b031633146137635760405162461bcd60e51b8152600401610b6d90615067565b6001600160a01b0381161580159061378457506001600160a01b0381163b15155b6137cb5760405162461bcd60e51b8152602060048201526018602482015277125b9c1d5d081859191c995cdcc81a5cc81a5b9d985b1a5960421b6044820152606401610b6d565b6004546001600160a01b031663fb8c927860076040518263ffffffff1660e01b81526004016137fa9190614f3e565b6020604051808303816000875af1158015613819573d6000803e3d6000fd5b505050506040513d601f19601f8201168201806040525081019061383d9190614da4565b61384657600080fd5b600880546001600160a01b039092166001600160a01b0319928316811790915560028054909216179055565b61387a613c58565b6001600160a01b0381166138a457604051631e4fbdf760e01b815260006004820152602401610b6d565b6122a681613cb3565b7ff0c57e16840df040f15088dc2f81fe391c3923bec73e23a9662efc9c229c6a008054600160401b810460ff1615906001600160401b03166000811580156138f25750825b90506000826001600160401b0316600114801561390e5750303b155b90508115801561391c575080155b1561393a5760405163f92ee8a960e01b815260040160405180910390fd5b845467ffffffffffffffff19166001178555831561396457845460ff60401b1916600160401b1785555b61396d33614602565b613975614613565b600080546001600160a01b03808c166001600160a01b031992831617909255600580548a84169083161790556004805489841690831617905560038054928b16929091169190911790556139c7613d24565b600160801b6001600160801b0391909116818102176009557127100000000000000000000000e8d4a51000601255600e80546001600160801b03191664e8d4a510001790556011805460ff60801b191690911790558315613a6257845460ff60401b19168555604051600181527fc7f505b2f371ae2175ee4913f4499e1f2633a7b5936321eed1cdaeb6115181d29060200160405180910390a15b505050505050505050565b600080516020615320833981519152805460011901613a9f57604051633ee5aeb560e01b815260040160405180910390fd5b60029055565b306001600160a01b037f0000000000000000000000000000000000000000000000000000000000000000161480613b2c57507f00000000000000000000000000000000000000000000000000000000000000006001600160a01b0316613b2060008051602061526c833981519152546001600160a01b031690565b6001600160a01b031614155b156111035760405163703e46dd60e11b815260040160405180910390fd5b6122a6613c58565b816001600160a01b03166352d1902d6040518163ffffffff1660e01b8152600401602060405180830381865afa925050508015613bac575060408051601f3d908101601f19168201909252613ba991810190614de1565b60015b613bd457604051634c9c8ce360e01b81526001600160a01b0383166004820152602401610b6d565b60008051602061526c8339815191528114613c0557604051632a87526960e21b815260048101829052602401610b6d565b610efa838361461b565b306001600160a01b037f000000000000000000000000000000000000000000000000000000000000000016146111035760405163703e46dd60e11b815260040160405180910390fd5b33613c8a7f9016d09d72d40fdae2fd8ceac6b6234c7706214fd39c1cd1e609a0528c199300546001600160a01b031690565b6001600160a01b0316146111035760405163118cdaa760e01b8152336004820152602401610b6d565b7f9016d09d72d40fdae2fd8ceac6b6234c7706214fd39c1cd1e609a0528c19930080546001600160a01b031981166001600160a01b03848116918217845560405192169182907f8be0079c531659141344cd1fd0a4f28419497f9722a3daafe3b4186f6b6457e090600090a3505050565b600080600360009054906101000a90046001600160a01b03166001600160a01b031663feaf968c6040518163ffffffff1660e01b815260040160a060405180830381865afa158015613d7a573d6000803e3d6000fd5b505050506040513d601f19601f82011682018060405250810190613d9e919061519d565b50919350839250613db69150620f4240905082614fb3565b9250505090565b600080613dc9836141a7565b9050613ddd81600001518260200151614492565b613e05604051806040016040528060078152602001663131313131313160c81b81525061413b565b6001600160a01b03851660009081526013602081815260408084206001600160401b038916808652600191820184528286208201543387529484528286209086520190915282206005015460115491926001600160801b038083169360ff600160801b94859004811694928216929091041615158315150361405b57806001600160801b0316846001600160801b03161115613eac57613ea58185615004565b9150613eb9565b613eb68482615004565b91505b8215613fa457806001600160801b0316846001600160801b03161115613f7357600064174876e800613ef46001600160801b03851688614f9c565b613efe9190614fb3565b9050613f33604051806040016040528060118152602001700c4819195c1bdcda5d1959105b5bdd5b9d607a1b815250876140f6565b613f5b6040518060400160405280600681526020016531206c6f737360d01b815250826140f6565b613f658187614f2b565b9750505050505050506140ef565b600064174876e800613f8e6001600160801b03851688614f9c565b613f989190614fb3565b9050613f658187614e10565b806001600160801b0316846001600160801b03161115613fd957600064174876e800613f8e6001600160801b03851688614f9c565b600064174876e800613ff46001600160801b03851688614f9c565b613ffe9190614fb3565b9050614033604051806040016040528060118152602001700c8819195c1bdcda5d1959105b5bdd5b9d607a1b815250876140f6565b613f5b6040518060400160405280600681526020016532206c6f737360d01b815250826140f6565b6140658185614fe4565b91508215613f7357600064174876e8006140886001600160801b03851688614f9c565b6140929190614fb3565b90506140c7604051806040016040528060118152602001700cc819195c1bdcda5d1959105b5bdd5b9d607a1b815250876140f6565b613f5b6040518060400160405280600681526020016533206c6f737360d01b815250826140f6565b9392505050565b610fa3828260405160240161410c9291906151ed565b60408051601f198184030181529190526020810180516001600160e01b0316632d839cb360e21b179052614671565b6122a68160405160240161414f9190614c01565b60408051601f198184030181529190526020810180516001600160e01b031663104c13eb60e21b179052614671565b600980546001600160801b03196001600160801b03918216600160801b02169216919091179055565b604080518082018252600080825260208083018290526002548451639a52aed960e01b8152945193946103e8946001600160a01b0390921692639a52aed9926004808401938290030181865afa158015614205573d6000803e3d6000fd5b505050506040513d601f19601f820116820180604052508101906142299190614de1565b90506000806000600b54600003614246575060009050600161446b565b6009546001600160801b038881169116146142b5576009546001600160801b03908116908816111561429357600954614288906001600160801b031688615004565b925060019050614315565b6009546142aa9088906001600160801b0316615004565b925060009050614315565b6009546001600160801b03600160801b909104811690881611156142f05760095461428890600160801b90046001600160801b031688615004565b60095461430e908890600160801b90046001600160801b0316615004565b9250600090505b6143476040518060400160405280600781526020016617d85b5bdd5b9d60ca1b815250866001600160801b03166140f6565b614371604051806040016040528060088152602001671d985d5b1d10985b60c21b815250856140f6565b6143a560405180604001604052806009815260200168383934b1b2a234b33360b91b815250846001600160801b03166140f6565b6143e0604051806040016040528060178152602001761d1bdd185b10d91cd1195c1bdcda5d1959105b5bdd5b9d604a1b815250600b546140f6565b600b546012546143f991906001600160801b0316614f9c565b836001600160801b031685876001600160801b03166144189190614f9c565b6144229190614f9c565b61442f90620f4240614f9c565b6144399190614fb3565b915061446b6040518060400160405280600581526020016476616c756560d81b815250836001600160801b03166140f6565b604080518082019091526001600160801b0390921682521515602082015295945050505050565b801561456457601154600160801b900460ff16156144f057601180548391906000906144c89084906001600160801b0316614fe4565b92506101000a8154816001600160801b0302191690836001600160801b031602179055505050565b6011546001600160801b038084169116111561452457601180548391906000906144c89084906001600160801b0316615004565b60115461453a906001600160801b031683615004565b601180546001600160881b0319166001600160801b039290921691909117600160801b1790555050565b601154600160801b900460ff16156145e4576011546001600160801b03808416911611156145aa57601180548391906000906144c89084906001600160801b0316615004565b6011546145c0906001600160801b031683615004565b601180546001600160881b0319166001600160801b03929092169190911790555050565b601180548391906000906144c89084906001600160801b0316614fe4565b61460a61467a565b6122a6816146c3565b61110361467a565b614624826146cb565b6040516001600160a01b038316907fbc7cd75a20ee27fd9adebab32041f755214dbc6bffa90cc0225b39da2e5c2d3b90600090a280511561466957610efa8282614730565b610fa36147a8565b6122a6816147c7565b7ff0c57e16840df040f15088dc2f81fe391c3923bec73e23a9662efc9c229c6a0054600160401b900460ff1661110357604051631afcd79f60e31b815260040160405180910390fd5b61387a61467a565b806001600160a01b03163b60000361470157604051634c9c8ce360e01b81526001600160a01b0382166004820152602401610b6d565b60008051602061526c83398151915280546001600160a01b0319166001600160a01b0392909216919091179055565b6060600080846001600160a01b03168460405161474d919061520f565b600060405180830381855af49150503d8060008114614788576040519150601f19603f3d011682016040523d82523d6000602084013e61478d565b606091505b509150915061479d8583836147e8565b925050505b92915050565b34156111035760405163b398979f60e01b815260040160405180910390fd5b60006a636f6e736f6c652e6c6f679050600080835160208501845afa505050565b6060826147fd576147f882614844565b6140ef565b815115801561481457506001600160a01b0384163b155b1561483d57604051639996b31560e01b81526001600160a01b0385166004820152602401610b6d565b50806140ef565b8051156148545780518082602001fd5b604051630a12f52160e11b815260040160405180910390fd5b6001600160801b03811681146122a657600080fd5b6001600160401b03811681146122a657600080fd5b6000806000606084860312156148ac57600080fd5b83356148b78161486d565b925060208401356148c781614882565b915060408401356148d781614882565b809150509250925092565b80356001600160a01b03811681146148f957600080fd5b919050565b6000806040838503121561491157600080fd5b61491a836148e2565b9150602083013561492a81614882565b809150509250929050565b82516001600160401b031681526101c0810160208401516020830152604084015161496b60408401826001600160401b03169052565b50606084015160608301526080840151614989608084018215159052565b5060a08401516149a460a08401826001600160801b03169052565b5060c08401516149bf60c08401826001600160801b03169052565b5060e08401516149d360e084018215159052565b5061010084810151151590830152610120808501516001600160801b039081169184019190915261014080860151821690840152610160808601519091169083015261018080850151908301526001600160401b0383166101a08301526140ef565b600060208284031215614a4757600080fd5b81356140ef8161486d565b600060208284031215614a6457600080fd5b5035919050565b634e487b7160e01b600052604160045260246000fd5b604051601f8201601f191681016001600160401b0381118282101715614aa957614aa9614a6b565b604052919050565b60008060408385031215614ac457600080fd5b614acd836148e2565b91506020808401356001600160401b0380821115614aea57600080fd5b818601915086601f830112614afe57600080fd5b813581811115614b1057614b10614a6b565b614b22601f8201601f19168501614a81565b91508082528784828501011115614b3857600080fd5b80848401858401376000848284010152508093505050509250929050565b600060208284031215614b6857600080fd5b6140ef826148e2565b600060208284031215614b8357600080fd5b81356140ef81614882565b600060208284031215614ba057600080fd5b813560ff811681146140ef57600080fd5b60005b83811015614bcc578181015183820152602001614bb4565b50506000910152565b60008151808452614bed816020860160208601614bb1565b601f01601f19169290920160200192915050565b6020815260006140ef6020830184614bd5565b80151581146122a657600080fd5b60008060008060808587031215614c3857600080fd5b8435614c438161486d565b93506020850135614c538161486d565b92506040850135614c6381614c14565b91506060850135614c738161486d565b939692955090935050565b60008082840360a0811215614c9257600080fd5b8335614c9d8161486d565b92506080601f1982011215614cb157600080fd5b50604051608081018181106001600160401b0382111715614cd457614cd4614a6b565b6040526020840135614ce58161486d565b81526040840135614cf58161486d565b60208201526060840135614d088161486d565b60408201526080939093013560608401525092909150565b60008060008060808587031215614d3657600080fd5b614d3f856148e2565b9350614d4d602086016148e2565b9250614d5b604086016148e2565b9150614d69606086016148e2565b905092959194509250565b634e487b7160e01b600052602160045260246000fd5b6020810160078310614d9e57614d9e614d74565b91905290565b600060208284031215614db657600080fd5b81516140ef81614c14565b60208082526006908201526514185d5cd95960d21b604082015260600190565b600060208284031215614df357600080fd5b5051919050565b634e487b7160e01b600052601160045260246000fd5b808201808211156147a2576147a2614dfa565b6001600160a01b039290921682526001600160801b0316602082015260400190565b6001600160801b03818116838216028082169190828114614e6857614e68614dfa565b505092915050565b634e487b7160e01b600052601260045260246000fd5b60006001600160801b0380841680614ea057614ea0614e70565b92169190910492915050565b6001600160a01b0393841681529190921660208201526001600160801b03909116604082015260600190565b60208082526033908201527f546869732066756e6374696f6e2063616e206f6e6c792063616c6c656420627960408201527208189bdc9c9bddda5b99c818dbdb9d1c9858dd606a1b606082015260800190565b818103818111156147a2576147a2614dfa565b60208101600b8310614d9e57614d9e614d74565b6001600160401b03818116838216019080821115614f7257614f72614dfa565b5092915050565b60006001600160401b03821680614f9257614f92614dfa565b6000190192915050565b80820281158282048414176147a2576147a2614dfa565b600082614fc257614fc2614e70565b500490565b600060208284031215614fd957600080fd5b81516140ef8161486d565b6001600160801b03818116838216019080821115614f7257614f72614dfa565b6001600160801b03828116828216039080821115614f7257614f72614dfa565b60006001600160801b0380831681810361504057615040614dfa565b6001019392505050565b60006020828403121561505c57600080fd5b81516140ef81614882565b60208082526016908201527521b0b63632b91034b9903737ba1030b71030b236b4b760511b604082015260600190565b60006001600160401b0380831681810361504057615040614dfa565b60208082526029908201527f496e73756666696369656e7420555344542062616c616e63652077697468206d60408201526839b39739b2b73232b960b91b606082015260800190565b60208082526023908201527f55534454205472616e73666572206661696c656420696e20434453206465706f6040820152621cda5d60ea1b606082015260800190565b60208082526024908201527f414d494e54205472616e73666572206661696c656420696e20434453206465706040820152631bdcda5d60e21b606082015260800190565b805169ffffffffffffffffffff811681146148f957600080fd5b600080600080600060a086880312156151b557600080fd5b6151be86615183565b94506020860151935060408601519250606086015191506151e160808701615183565b90509295509295909350565b6040815260006152006040830185614bd5565b90508260208301529392505050565b60008251615221818460208701614bb1565b919091019291505056fe63647344657461696c735b6d73672e73656e6465725d2e6364734163636f756e7444657461696c735b5f696e6465785d2e6465706f7369746564416d6f756e74360894a13ba1a3210667c828492db98dca3e2076cc3735a920a3ca505d382bbc63647344657461696c735b6d73672e73656e6465725d2e6364734163636f756e7444657461696c735b5f696e6465785d2e6c69717569646174696f6e416d6f756e746c69717569646174696f6e446174612e6c69717569646174696f6e416d6f756e742a7368617265292f31653130746f74616c4364734465706f7369746564416d6f756e74576974684f7074696f6e466565739b779b17422d0df92223018b32b4d1fa46e071723d6817e2486d003becc55f006c69717569646174696f6e446174612e617661696c61626c654c69717569646174696f6e416d6f756e74a2646970667358221220e9e0f97ae0e7fe135d42bf2bb324b0231ac9f987027b5f2921e0498a27ae7d8664736f6c63430008140033","linkReferences":{}},"methodIdentifiers":{"PRECISION()":"aaf5eb68","UPGRADE_INTERFACE_VERSION()":"ad3cb1cc","amint()":"503e6322","amintLimit()":"412cfc94","borrowing()":"60b415ed","borrowingContract()":"84a965ed","burnedAmintInRedeem()":"e356b120","calculateCumulativeRate(uint128)":"b87c3dc3","cdsCount()":"df6f05e7","cdsDetails(address)":"880e8e3b","cumulativeValue()":"b9934fee","cumulativeValueSign()":"ba397b41","deposit(uint128,uint128,bool,uint128)":"b0b6f3c6","fallbackEthPrice()":"77b7cda6","getCDSDepositDetails(address,uint64)":"4721bae8","initialize(address,address,address,address)":"f8c8765e","lastCumulativeRate()":"8e4db39a","lastEthPrice()":"7038fc4e","liquidationIndexToInfo(uint128)":"d3e3413f","multiSign()":"9e6fe439","owner()":"8da5cb5b","proxiableUUID()":"52d1902d","redeemUSDT(uint128,uint64,uint64)":"46696df3","renounceOwnership()":"715018a6","setAdmin(address)":"704b6c02","setAmintLimit(uint8)":"84637c26","setBorrowingContract(address)":"78fdaf3f","setTreasury(address)":"f0f44260","setUsdtLimit(uint64)":"7bf5e245","setWithdrawTimeLimit(uint64)":"868c10d2","totalAvailableLiquidationAmount()":"dc91e752","totalCdsDepositedAmount()":"2bb2ea62","totalCdsDepositedAmountWithOptionFees()":"cba87517","transferOwnership(address)":"f2fde38b","treasury()":"61d027b3","treasuryAddress()":"c5f956af","updateLiquidationInfo(uint128,(uint128,uint128,uint128,uint256))":"b3013d4d","updateTotalAvailableLiquidationAmount(uint256)":"4cae95d3","updateTotalCdsDepositedAmount(uint128)":"dc55b193","updateTotalCdsDepositedAmountWithOptionFees(uint128)":"4baf580d","upgradeToAndCall(address,bytes)":"4f1ef286","usdt()":"2f48ab7d","usdtAmountDepositedTillNow()":"76a3fb3e","usdtLimit()":"f57ff39c","withdraw(uint64)":"750f0acc","withdrawTimeLimit()":"4f04a86b"},"id":5}