{"abi":[{"type":"constructor","inputs":[{"name":"_amint","type":"address","internalType":"address"},{"name":"priceFeed","type":"address","internalType":"address"},{"name":"_usdt","type":"address","internalType":"address"},{"name":"_multiSign","type":"address","internalType":"address"}],"stateMutability":"nonpayable"},{"type":"receive","stateMutability":"payable"},{"type":"function","name":"PRECISION","inputs":[],"outputs":[{"name":"","type":"uint128","internalType":"uint128"}],"stateMutability":"view"},{"type":"function","name":"amint","inputs":[],"outputs":[{"name":"","type":"address","internalType":"contract IAMINT"}],"stateMutability":"view"},{"type":"function","name":"amintLimit","inputs":[],"outputs":[{"name":"","type":"uint8","internalType":"uint8"}],"stateMutability":"view"},{"type":"function","name":"borrowing","inputs":[],"outputs":[{"name":"","type":"address","internalType":"contract IBorrowing"}],"stateMutability":"view"},{"type":"function","name":"borrowingContract","inputs":[],"outputs":[{"name":"","type":"address","internalType":"address"}],"stateMutability":"view"},{"type":"function","name":"burnedAmintInRedeem","inputs":[],"outputs":[{"name":"","type":"uint256","internalType":"uint256"}],"stateMutability":"view"},{"type":"function","name":"calculateCumulativeRate","inputs":[{"name":"fees","type":"uint128","internalType":"uint128"}],"outputs":[{"name":"","type":"uint128","internalType":"uint128"}],"stateMutability":"nonpayable"},{"type":"function","name":"cdsAmountToReturn","inputs":[{"name":"_user","type":"address","internalType":"address"},{"name":"index","type":"uint64","internalType":"uint64"},{"name":"_ethPrice","type":"uint128","internalType":"uint128"}],"outputs":[{"name":"","type":"uint128","internalType":"uint128"}],"stateMutability":"view"},{"type":"function","name":"cdsCount","inputs":[],"outputs":[{"name":"","type":"uint64","internalType":"uint64"}],"stateMutability":"view"},{"type":"function","name":"cdsDetails","inputs":[{"name":"","type":"address","internalType":"address"}],"outputs":[{"name":"index","type":"uint64","internalType":"uint64"},{"name":"hasDeposited","type":"bool","internalType":"bool"}],"stateMutability":"view"},{"type":"function","name":"deposit","inputs":[{"name":"usdtAmount","type":"uint128","internalType":"uint128"},{"name":"amintAmount","type":"uint128","internalType":"uint128"},{"name":"_liquidate","type":"bool","internalType":"bool"},{"name":"_liquidationAmount","type":"uint128","internalType":"uint128"}],"outputs":[],"stateMutability":"nonpayable"},{"type":"function","name":"ethVault","inputs":[],"outputs":[{"name":"","type":"address","internalType":"address"}],"stateMutability":"view"},{"type":"function","name":"fallbackEthPrice","inputs":[],"outputs":[{"name":"","type":"uint128","internalType":"uint128"}],"stateMutability":"view"},{"type":"function","name":"getCDSDepositDetails","inputs":[{"name":"depositor","type":"address","internalType":"address"},{"name":"index","type":"uint64","internalType":"uint64"}],"outputs":[{"name":"","type":"tuple","internalType":"struct CDSTest.CdsAccountDetails","components":[{"name":"depositedTime","type":"uint64","internalType":"uint64"},{"name":"depositedAmount","type":"uint128","internalType":"uint128"},{"name":"withdrawedTime","type":"uint64","internalType":"uint64"},{"name":"withdrawedAmount","type":"uint128","internalType":"uint128"},{"name":"withdrawed","type":"bool","internalType":"bool"},{"name":"depositPrice","type":"uint128","internalType":"uint128"},{"name":"depositValue","type":"uint128","internalType":"uint128"},{"name":"optedLiquidation","type":"bool","internalType":"bool"},{"name":"InitialLiquidationAmount","type":"uint128","internalType":"uint128"},{"name":"liquidationAmount","type":"uint128","internalType":"uint128"},{"name":"liquidationindex","type":"uint128","internalType":"uint128"},{"name":"normalizedAmount","type":"uint128","internalType":"uint128"}]},{"name":"","type":"uint64","internalType":"uint64"}],"stateMutability":"view"},{"type":"function","name":"lastCumulativeRate","inputs":[],"outputs":[{"name":"","type":"uint128","internalType":"uint128"}],"stateMutability":"view"},{"type":"function","name":"lastEthPrice","inputs":[],"outputs":[{"name":"","type":"uint128","internalType":"uint128"}],"stateMutability":"view"},{"type":"function","name":"liquidationIndexToInfo","inputs":[{"name":"liquidationIndex","type":"uint128","internalType":"uint128"}],"outputs":[{"name":"liquidationAmount","type":"uint128","internalType":"uint128"},{"name":"profits","type":"uint128","internalType":"uint128"},{"name":"ethAmount","type":"uint128","internalType":"uint128"},{"name":"availableLiquidationAmount","type":"uint256","internalType":"uint256"}],"stateMutability":"view"},{"type":"function","name":"multiSign","inputs":[],"outputs":[{"name":"","type":"address","internalType":"contract IMultiSign"}],"stateMutability":"view"},{"type":"function","name":"owner","inputs":[],"outputs":[{"name":"","type":"address","internalType":"address"}],"stateMutability":"view"},{"type":"function","name":"redeemUSDT","inputs":[{"name":"_amintAmount","type":"uint128","internalType":"uint128"},{"name":"amintPrice","type":"uint64","internalType":"uint64"},{"name":"usdtPrice","type":"uint64","internalType":"uint64"}],"outputs":[],"stateMutability":"nonpayable"},{"type":"function","name":"renounceOwnership","inputs":[],"outputs":[],"stateMutability":"nonpayable"},{"type":"function","name":"setAmintLimit","inputs":[{"name":"percent","type":"uint8","internalType":"uint8"}],"outputs":[],"stateMutability":"nonpayable"},{"type":"function","name":"setBorrowingContract","inputs":[{"name":"_address","type":"address","internalType":"address"}],"outputs":[],"stateMutability":"nonpayable"},{"type":"function","name":"setTreasury","inputs":[{"name":"_treasury","type":"address","internalType":"address"}],"outputs":[],"stateMutability":"nonpayable"},{"type":"function","name":"setUsdtLimit","inputs":[{"name":"amount","type":"uint64","internalType":"uint64"}],"outputs":[],"stateMutability":"nonpayable"},{"type":"function","name":"setWithdrawTimeLimit","inputs":[{"name":"_timeLimit","type":"uint64","internalType":"uint64"}],"outputs":[],"stateMutability":"nonpayable"},{"type":"function","name":"totalAvailableLiquidationAmount","inputs":[],"outputs":[{"name":"","type":"uint256","internalType":"uint256"}],"stateMutability":"view"},{"type":"function","name":"totalCdsDepositedAmount","inputs":[],"outputs":[{"name":"","type":"uint128","internalType":"uint128"}],"stateMutability":"view"},{"type":"function","name":"transferOwnership","inputs":[{"name":"newOwner","type":"address","internalType":"address"}],"outputs":[],"stateMutability":"nonpayable"},{"type":"function","name":"treasury","inputs":[],"outputs":[{"name":"","type":"address","internalType":"contract ITreasury"}],"stateMutability":"view"},{"type":"function","name":"treasuryAddress","inputs":[],"outputs":[{"name":"","type":"address","internalType":"address"}],"stateMutability":"view"},{"type":"function","name":"updateLiquidationInfo","inputs":[{"name":"index","type":"uint128","internalType":"uint128"},{"name":"liquidationData","type":"tuple","internalType":"struct CDSTest.LiquidationInfo","components":[{"name":"liquidationAmount","type":"uint128","internalType":"uint128"},{"name":"profits","type":"uint128","internalType":"uint128"},{"name":"ethAmount","type":"uint128","internalType":"uint128"},{"name":"availableLiquidationAmount","type":"uint256","internalType":"uint256"}]}],"outputs":[],"stateMutability":"nonpayable"},{"type":"function","name":"updateTotalAvailableLiquidationAmount","inputs":[{"name":"amount","type":"uint256","internalType":"uint256"}],"outputs":[],"stateMutability":"nonpayable"},{"type":"function","name":"updateTotalCdsDepositedAmount","inputs":[{"name":"_amount","type":"uint128","internalType":"uint128"}],"outputs":[],"stateMutability":"nonpayable"},{"type":"function","name":"usdt","inputs":[],"outputs":[{"name":"","type":"address","internalType":"contract IERC20"}],"stateMutability":"view"},{"type":"function","name":"usdtAmountDepositedTillNow","inputs":[],"outputs":[{"name":"","type":"uint256","internalType":"uint256"}],"stateMutability":"view"},{"type":"function","name":"usdtLimit","inputs":[],"outputs":[{"name":"","type":"uint64","internalType":"uint64"}],"stateMutability":"view"},{"type":"function","name":"withdraw","inputs":[{"name":"_index","type":"uint64","internalType":"uint64"}],"outputs":[],"stateMutability":"nonpayable"},{"type":"function","name":"withdrawTimeLimit","inputs":[],"outputs":[{"name":"","type":"uint64","internalType":"uint64"}],"stateMutability":"view"},{"type":"event","name":"Deposit","inputs":[{"name":"depositedAmint","type":"uint128","indexed":false,"internalType":"uint128"},{"name":"index","type":"uint64","indexed":false,"internalType":"uint64"},{"name":"liquidationAmount","type":"uint128","indexed":false,"internalType":"uint128"},{"name":"normalizedAmount","type":"uint128","indexed":false,"internalType":"uint128"},{"name":"depositVal","type":"uint128","indexed":false,"internalType":"uint128"}],"anonymous":false},{"type":"event","name":"OwnershipTransferred","inputs":[{"name":"previousOwner","type":"address","indexed":true,"internalType":"address"},{"name":"newOwner","type":"address","indexed":true,"internalType":"address"}],"anonymous":false},{"type":"event","name":"Withdraw","inputs":[{"name":"withdrewAmint","type":"uint128","indexed":false,"internalType":"uint128"},{"name":"withdrawETH","type":"uint128","indexed":false,"internalType":"uint128"}],"anonymous":false}],"bytecode":{"object":"0x60a080604052346200020957608081620036fd80380380916200002382856200020e565b8339810103126200020957620000398162000248565b9060a06200004a6020830162000248565b926004620000696060620000616040870162000248565b950162000248565b936000958693845491600180881b0319923384821617875560405198899788966001808c1b038096819582947f8be0079c531659141344cd1fd0a4f28419497f9722a3daafe3b4186f6b6457e0843393169180a37127100000000000000000000000e8d4a51000600f55166080521685600554161760055516838654161785551680916003541617600355633fabe5a360e21b82525afa908115620001fe5782916200019c575b600980546001600160801b0319908116620f424085046001600160801b031690811760801b821617909155600c805490911664e8d4a5100017905560405161348a908162000273823960805181818161086101528181610e7701528181611016015281816111f701528181611dfd015281816122330152818161258c0152818161293701526131990152f35b905060a0813d8211620001f5575b81620001b960a093836200020e565b81010312620001f15764e8d4a510009150620001d5816200025d565b50620001e96080602083015192016200025d565b503862000110565b5080fd5b3d9150620001aa565b6040513d84823e3d90fd5b600080fd5b601f909101601f19168101906001600160401b038211908210176200023257604052565b634e487b7160e01b600052604160045260246000fd5b51906001600160a01b03821682036200020957565b51906001600160501b0382168203620002095756fe6080604052600436101561001b575b361561001957600080fd5b005b6000803560e01c806324bd8bff14612c975780632bb2ea6214612c765780632f48ab7d14612c4d578063412cfc9414612c2957806346696df3146128905780634721bae8146126935780634cae95d3146125e55780634f04a86b146125bb578063503e6322146125765780635a20329c1461254d57806360b415ed1461252457806361d027b3146124fb5780637038fc4e146124d4578063715018a61461247a578063750f0acc1461178457806376a3fb3e1461176657806377b7cda61461174557806378fdaf3f146116e55780637bf5e2451461164157806384637c26146115af57806384a965ed14611586578063868c10d2146114dc578063880e8e3b1461148e5780638da5cb5b146114675780638e4db39a146114405780639e6fe43914611417578063aaf5eb68146113f0578063b0b6f3c61461069a578063b3013d4d146105e5578063b87c3dc31461045d578063c5f956af14610434578063d3e3413f146103d7578063dc55b19314610395578063dc91e75214610377578063df6f05e714610350578063e356b12014610332578063f0f44260146102c6578063f2fde38b146102005763f57ff39c146101d4575061000e565b346101fd57806003193601126101fd5760206001600160401b03600c5460881c16604051908152f35b80fd5b50346101fd5760203660031901126101fd5761021a612cdd565b6102226133fc565b6001600160a01b0390811690811561027257600054826001600160601b0360a01b821617600055167f8be0079c531659141344cd1fd0a4f28419497f9722a3daafe3b4186f6b6457e0600080a380f35b60405162461bcd60e51b815260206004820152602660248201527f4f776e61626c653a206e6577206f776e657220697320746865207a65726f206160448201526564647265737360d01b6064820152608490fd5b50346101fd5760203660031901126101fd576102e0612cdd565b6102e86133fc565b6001600160a01b03811690610307908215159081610327575b506133b0565b6001600160601b0360a01b81816008541617600855600254161760025580f35b90503b151538610301565b50346101fd57806003193601126101fd576020600e54604051908152f35b50346101fd57806003193601126101fd5760206001600160401b03600a5416604051908152f35b50346101fd57806003193601126101fd576020600b54604051908152f35b50346101fd5760203660031901126101fd576103af612d35565b6001600160801b03600a54916103ca8219918460801c61314c565b60801b16911617600a5580f35b50346101fd5760203660031901126101fd5760809060406001600160801b039182610400612d35565b168152601160205220805490600283600183015416910154916040519381168452841c602084015260408301526060820152f35b50346101fd57806003193601126101fd576008546040516001600160a01b039091168152602090f35b50346101fd57602090816003193601126101fd57610479612d35565b906001600160801b0390818316156105a0576104d4600a546104cf858260801c92866104a58386612e45565b946104ba6001600160801b03199a8b92612e45565b60801b16911617600a5585600f541690612e60565b612e7e565b90808560018060a01b03600254166004604051809481936322d7586760e11b83525af191821561059457908492610567575b50166105315761051a9082600f5416612e45565b9181831690600c541617600c555b60405191168152f35b91600c54908261055b61055461054c83600f54169788612e45565b838616612e60565b9586612e7e565b16911617600c55610528565b6105879150863d881161058d575b61057f8183612dd7565b810190613068565b38610506565b503d610575565b604051903d90823e3d90fd5b60405162461bcd60e51b815260048101859052601760248201527f466565732073686f756c64206e6f74206265207a65726f0000000000000000006044820152606490fd5b50346101fd5760a03660031901126101fd576105ff612d35565b60803660231901126106965760026040519161061a83612dbc565b610622612d4b565b835261062c612d1f565b6020840190815261063b612d61565b6040858101918252608435606087019081526001600160801b0394851688526011602052908720955192519284166001600160801b031960809490941b84161786559290919060018601925116908254161790555191015580f35b5080fd5b50346101fd5760803660031901126101fd576106b4612d35565b6106bc612d4b565b6044351515604435036113ec576106d1612d61565b9183602060018060a01b03600454166024604051809481936326d2a55160e21b83526004808401525af180156113e1576107139186916113c2575b5015612e10565b61071d8282612e45565b916001600160801b03831615611373576001600160801b0383166001600160801b0385161161130f5782600d54600c54906001600160401b038260881c16116000146111af57506001600160801b03166001600160801b0383160361116a575b6001600160801b0382161515908180611158575b15610fd3576005546040516370a0823160e01b81523360048201526001600160a01b0390911690602081602481855afa8015610f8f578890610f9a575b6107e491506001600160801b0386161115612eac565b60018060a01b036008541660206040518093818b816108138b6323b872dd60e01b988984523360048501612f0a565b03925af18015610f8f576001610836916020948b91610f72575b50151514612f34565b60085460405191825290928391829161085c916001600160a01b03163360048501612f0a565b0381897f00000000000000000000000000000000000000000000000000000000000000006001600160a01b03165af1908115610ddc576108a9916001918891610f53575b50151514612f8c565b6108be6001600160801b038316600d54612fe4565b600d55610e43575b506108cf61309e565b916108e46001600160801b0384161515613014565b33845260106020526040842080549060ff8260401c1615600014610e115750503384526010602052604084206801000000000000000168ffffffffffffffffff19825416179055600192600a546001600160401b03610944818316613050565b16906001600160401b03191617600a555b3385526010602052600160408620016001600160401b03851660005260205260406000208054600160401b600160c01b038560401b1690600160401b600160c01b0319161790553385526010602052600160408620016001600160401b03851660005260205260026040600020016001600160801b0382166001600160801b0319825416179055600a546001600160801b0380196109f6868460801c612e45565b60801b16911617600a553385526010602052600160408620016001600160401b03851660005260205260406000206001600160401b0342166001600160401b0319825416179055610a67610a556001600160801b03600f541685612e60565b6001600160801b03600c541690612e7e565b3386526010602052600160408720016001600160401b0386166000526020526001600160801b03600560406000200191166001600160801b03198254161790553385526010602052600160408620016001600160401b038516600052602052600360406000200160ff1981541660ff604435151516179055604435610bd7575b9260a092917f0a5985aa28fedd5d60e042a47ad0dcb83381febf41639cd599c154a7fee13ca6946001600160801b03600954166001600160801b03821603610bb4575b503386526010602052600160408720016001600160401b0383166000526020526001600160801b038060056040600020015416913388526010602052600160408920016001600160401b0385166000526020526001600160401b0360026040600020015460801c94836040519716875216602086015216604084015260608301526080820152a180f35b610bd1906001600160801b03801960095460801b16911617600955565b38610b2a565b6001546040516338a912d560e01b81526001600160a01b0390911690602081600481855afa8015610e06576001600160801b03918891610de7575b5016610d2457509260a092917f0a5985aa28fedd5d60e042a47ad0dcb83381febf41639cd599c154a7fee13ca6943387526010602052600160408820016001600160401b0384166000526020526004604060002001600160801b6001600160801b038254161790555b3387526010602052600160408820016001600160401b03841660005260205260046040600020016001600160801b0383166001600160801b03198254161790553387526010602052600160408820016001600160401b03841660005260205260036040600020018054610100600160881b038460081b1690610100600160881b031916179055610d166001600160801b038316600b54612fe4565b600b55919450919250610ae7565b916020600495929493604051968780926338a912d560e01b82525afa938415610ddc57610db860a0957f0a5985aa28fedd5d60e042a47ad0dcb83381febf41639cd599c154a7fee13ca6978991610dbd575b503389526010602052600160408a20016001600160401b0386166000526020526004604060002001906001600160801b0382549181199060801b169116179055565b610c7b565b610dd6915060203d60201161058d5761057f8183612dd7565b38610d76565b6040513d88823e3d90fd5b610e00915060203d60201161058d5761057f8183612dd7565b38610c12565b6040513d89823e3d90fd5b610e236001600160401b038316613050565b67ffffffffffffffff199092166001600160401b03831617905592610955565b6008546040516340c10f1960e01b81529160209183918291610e7291906001600160a01b031660048401612ff1565b0381877f00000000000000000000000000000000000000000000000000000000000000006001600160a01b03165af18015610f48576001918591610f19575b50151503610ebf57386108c6565b60405162461bcd60e51b815260206004820152602c60248201527f414d494e54206d696e7420746f207472656173757279206661696c656420696e60448201526b0810d114c819195c1bdcda5d60a21b6064820152608490fd5b610f3b915060203d602011610f41575b610f338183612dd7565b810190612df8565b38610eb1565b503d610f29565b6040513d86823e3d90fd5b610f6c915060203d602011610f4157610f338183612dd7565b386108a0565b610f899150853d8711610f4157610f338183612dd7565b3861082d565b6040513d8a823e3d90fd5b506020813d602011610fcb575b81610fb460209383612dd7565b81010312610fc6576107e490516107ce565b600080fd5b3d9150610fa7565b6001600160801b038316611062576008546040516323b872dd60e01b8152916020918391829161101191906001600160a01b03163360048501612f0a565b0381897f00000000000000000000000000000000000000000000000000000000000000006001600160a01b03165af1908115610ddc5761105d916001918891610f535750151514612f8c565b6108a9565b506005546040516370a0823160e01b8152336004820152906001600160a01b0316602082602481845afa8015610e065784928891611120575b50916020916110b86110e6946001600160801b0384161115612eac565b6008546040516323b872dd60e01b815294859384928c92849290916001600160a01b03163360048501612f0a565b03925af1908115610ddc5761105d9160019188916111075750151514612f34565b610f89915060203d602011610f4157610f338183612dd7565b9250506020823d602011611150575b8161113c60209383612dd7565b81010312610fc6579051839190602061109b565b3d915061112f565b506001600160801b0381161515610791565b60405162461bcd60e51b815260206004820152601b60248201527f31303025206f6620616d6f756e74206d757374206265205553445400000000006044820152606490fd5b6001600160801b036111ca819360ff60649460801c16612e60565b1604166001600160801b038216106112ca576040516370a0823160e01b81523360048201526020816024817f00000000000000000000000000000000000000000000000000000000000000006001600160a01b03165afa908115610ddc578691611298575b506001600160801b038216111561077d5760405162461bcd60e51b815260206004820152602a60248201527f496e73756666696369656e7420414d494e542062616c616e636520776974682060448201526936b9b39739b2b73232b960b11b6064820152608490fd5b90506020813d6020116112c2575b816112b360209383612dd7565b81010312610fc657513861122f565b3d91506112a6565b60405162461bcd60e51b815260206004820152601d60248201527f526571756972656420414d494e5420616d6f756e74206e6f74206d65740000006044820152606490fd5b60405162461bcd60e51b815260206004820152603660248201527f4c69717569646174696f6e20616d6f756e742063616e27742067726561746572604482015275081d1a185b8819195c1bdcda5d195908185b5bdd5b9d60521b6064820152608490fd5b60405162461bcd60e51b815260206004820152602160248201527f4465706f73697420616d6f756e742073686f756c64206e6f74206265207a65726044820152606f60f81b6064820152608490fd5b6113db915060203d602011610f4157610f338183612dd7565b3861070c565b6040513d87823e3d90fd5b8280fd5b50346101fd57806003193601126101fd5760206001600160801b03600f5416604051908152f35b50346101fd57806003193601126101fd576004546040516001600160a01b039091168152602090f35b50346101fd57806003193601126101fd5760206001600160801b03600c5416604051908152f35b50346101fd57806003193601126101fd57546040516001600160a01b039091168152602090f35b50346101fd5760203660031901126101fd5760409081906001600160a01b036114b5612cdd565b1681526010602052205460ff8251916001600160401b0381168352831c1615156020820152f35b50346101fd5760203660031901126101fd576114f6612d09565b6114fe6133fc565b6001600160401b038116156115375767ffffffffffffffff60401b600a549160401b169067ffffffffffffffff60401b191617600a5580f35b60405162461bcd60e51b815260206004820152602160248201527f57697468647261772074696d65206c696d69742063616e2774206265207a65726044820152606f60f81b6064820152608490fd5b50346101fd57806003193601126101fd576006546040516001600160a01b039091168152602090f35b50346101fd5760203660031901126101fd5760043560ff81168082036113ec576115d76133fc565b156115fc57600c805460ff60801b191660809290921b60ff60801b1691909117905580f35b60405162461bcd60e51b815260206004820152601960248201527f416d696e74206c696d69742063616e2774206265207a65726f000000000000006044820152606490fd5b50346101fd5760203660031901126101fd5761165b612d09565b6116636133fc565b6001600160401b038116156116a057600c805467ffffffffffffffff60881b191660889290921b67ffffffffffffffff60881b1691909117905580f35b60405162461bcd60e51b815260206004820152601860248201527f55534454206c696d69742063616e2774206265207a65726f00000000000000006044820152606490fd5b50346101fd5760203660031901126101fd576116ff612cdd565b6117076133fc565b6001600160a01b0381169061172590821515908161032757506133b0565b6001600160601b0360a01b81816006541617600655600154161760015580f35b50346101fd57806003193601126101fd57602060095460801c604051908152f35b50346101fd57806003193601126101fd576020600d54604051908152f35b50346101fd5760203660031901126101fd5761179e612d09565b81602060018060a01b03600454166024604051809481936326d2a55160e21b8352600560048401525af18015612060576117df9184916113c2575015612e10565b33825260106020526001600160401b036040832054166001600160401b03821611612427573382526010602052600160408320016001600160401b03821660005260205260ff60016040600020015460801c166123ee573382526010602052600160408320016001600160401b0382166000526020526001600160401b03604060002054166001600160401b03600a5460401c16016001600160401b0381116123da576001600160401b0380421691161161237e573382526010602052600160408320016001600160401b0382166000526020526001604060002001600160801b60ff60801b19825416179055338252601060205260016001600160401b03604084205416148061236b575b612322575b6118f861309e565b61190c6001600160801b0382161515613014565b6119b561197e61191d838533613165565b3386526010602052600160408720016001600160401b0386166000526020526119786119666001600160801b03600560406000200154166001600160801b03600c541690612e60565b6001600160801b03600f541690612e7e565b90612e45565b3385526010602052600160408620016001600160401b0385166000526020526001600160801b0360406000205460401c169061314c565b338085526010602081815260408088206001600160401b038816600081815260019283018552838120830180546001600160801b0319166001600160801b038a16908117909155878c52868652848c208383528401865284822080546001600160c01b03164260c01b6001600160c01b031916179055968b52948452828a209085520190915290206003015460ff161561215b5750611a85903385526010602052600160408620016001600160401b0385166000526020526001600160801b03600460406000200154169061314c565b6001546040516338a912d560e01b815291939190602090829060049082906001600160a01b03165afa9081156113e157859161213c575b503385526010602052600160408620016001600160401b03831660005260205260046040600020015460801c9285935b6001600160801b0381166001600160801b0384168111611cd8573388526010602052600160408920016001600160401b0386166000526020526001600160801b03600460406000200154169081611b73575b50506001600160801b03166001600160801b038114611b5f57600101611aec565b634e487b7160e01b87526011600452602487fd5b88969296526011806020526402540be40060408a2092600260405194611b9886612dbc565b80546001600160801b038116875260801c60208701526001600160801b036001820154166040870152015460608501520290816001600160801b03811603611cc45750916402540be4006001600160801b03611cb48b82604087611c09839a84806060611cbc9d0151169116612e7e565b938d8885611c1d8882602088015116612e60565b16049033835260106020526001600160401b036001868520019116600052602052600484600020019085611c55835492828416612e45565b16908619161790558d6001600160401b036001858b88611c788b828a5116612e60565b160494338152601060205220019116600052602052600483600020019084611ca483549282841661314c565b1690851916179055015116612e60565b160490612e45565b949038611b3e565b634e487b7160e01b60005260045260246000fd5b505093611d1a91509291923386526010602052600160408720016001600160401b0385166000526020526001600160801b036004604060002001541690612e45565b91600a546001600160801b038019611d35868460801c61314c565b60801b16911617600a5533855260106020526001600160401b036001604087200191166000526020526001604060002001916001600160801b03811692836001600160801b03198254161790558460018060a01b0360025416803b1561069657816040518092630adfd5a560e21b8252818381611db6893060048401612ff1565b03925af180156120b557612124575b50506008546040516323b872dd60e01b81529160209183918291611df8919033906001600160a01b031660048501612f0a565b0381887f00000000000000000000000000000000000000000000000000000000000000006001600160a01b03165af180156113e1576001918691612105575b501515036120c0576002546001600160a01b0316908490823b1561069657816001600160801b03604482936040519485938492635822b66d60e01b845233600485015216978860248401525af180156120b55761209d575b50507f02d30220fb33c212455a8cbb2cf068095e080a18a527044b34360e67a705addd9160409182519182526020820152a15b600254604051631506d82560e21b815290602090829060049082906001600160a01b03165afa90811561206057839161206b575b50611f3b575b6001600160801b03600954166001600160801b03821603611f1b575080f35b611f38906001600160801b03801960095460801b16911617600955565b80f35b60015460405163ada0b0ed60e01b8152600481018490526001600160801b0383166024820152906020908290604490829087906001600160a01b03165af190811561206057839161201e575b50600f54607f1c907001fffffffffffffffffffffffffffffffe6ffffffffffffffffffffffffffffffffe831692168203612008576001600160401b031611611efc5760405162461bcd60e51b81526020600482015260166024820152754e6f7420656e6f7567682066756e6420696e2043445360501b6044820152606490fd5b634e487b7160e01b600052601160045260246000fd5b90506020813d602011612058575b8161203960209383612dd7565b810103126113ec57516001600160401b03811681036113ec5738611f87565b3d915061202c565b6040513d85823e3d90fd5b90506020813d602011612095575b8161208660209383612dd7565b81010312610fc6575138611ef6565b3d9150612079565b6120a690612d77565b6120b1578338611e8f565b8380fd5b6040513d84823e3d90fd5b60405162461bcd60e51b815260206004820152601e60248201527f5472616e7373756363657373656420696e2063647320776974686472617700006044820152606490fd5b61211e915060203d602011610f4157610f338183612dd7565b38611e37565b61212d90612d77565b612138578438611dc5565b8480fd5b612155915060203d60201161058d5761057f8183612dd7565b38611abc565b9192600a546001600160801b038019612177858460801c61314c565b60801b16911617600a5533855260106020526001600160401b036001604087200191166000526020526001604060002001826001600160801b03198254161790558360018060a01b0360025416803b1561069657816040518092630adfd5a560e21b82528183816121ec893060048401612ff1565b03925af180156120b55761230e575b50506008546040516323b872dd60e01b8152916020918391829161222e919033906001600160a01b031660048501612f0a565b0381877f00000000000000000000000000000000000000000000000000000000000000006001600160a01b03165af18015610f485760019185916122ef575b501515036122aa5760407f02d30220fb33c212455a8cbb2cf068095e080a18a527044b34360e67a705addd918151908152846020820152a1611ec2565b60405162461bcd60e51b815260206004820152601f60248201527f5472616e73666572206661696c656420696e20636473207769746864726177006044820152606490fd5b612308915060203d602011610f4157610f338183612dd7565b3861226d565b61231790612d77565b6120b15783386121fb565b600a546001600160401b0381168015612357576001600160401b03906000190116906001600160401b03191617600a556118f0565b634e487b7160e01b84526011600452602484fd5b5060016001600160401b038216146118eb565b60405162461bcd60e51b815260206004820152602e60248201527f63616e6e6f74207769746864726177206265666f72652074686520776974686460448201526d1c985dc81d1a5b59481b1a5b5a5d60921b6064820152608490fd5b634e487b7160e01b83526011600452602483fd5b60405162461bcd60e51b815260206004820152601160248201527020b63932b0b23c903bb4ba34323930bbb760791b6044820152606490fd5b60405162461bcd60e51b815260206004820152602560248201527f7573657220646f65736e277420686176652074686520737065636966696564206044820152640d2dcc8caf60db1b6064820152608490fd5b50346101fd57806003193601126101fd576124936133fc565b600080546001600160a01b0319811682556001600160a01b03167f8be0079c531659141344cd1fd0a4f28419497f9722a3daafe3b4186f6b6457e08280a380f35b50346101fd57806003193601126101fd5760206001600160801b0360095416604051908152f35b50346101fd57806003193601126101fd576002546040516001600160a01b039091168152602090f35b50346101fd57806003193601126101fd576001546040516001600160a01b039091168152602090f35b50346101fd57806003193601126101fd576007546040516001600160a01b039091168152602090f35b50346101fd57806003193601126101fd576040517f00000000000000000000000000000000000000000000000000000000000000006001600160a01b03168152602090f35b50346101fd57806003193601126101fd5760206001600160401b03600a5460401c16604051908152f35b50346101fd5760203660031901126101fd576006546001600160a01b0316330361263257600b54600435810390811161261e57600b5580f35b634e487b7160e01b82526011600452602482fd5b60405162461bcd60e51b815260206004820152603360248201527f546869732066756e6374696f6e2063616e206f6e6c792063616c6c656420627960448201527208189bdc9c9bddda5b99c818dbdb9d1c9858dd606a1b6064820152608490fd5b50346101fd5760403660031901126101fd576101a0906001600160401b0360406126bb612cdd565b926126c4612cf3565b938161016084516126d481612da0565b82815282602082015282868201528260608201528260808201528260a08201528260c08201528260e0820152826101008201528261012082015282610140820152015260018060a01b03169384825260106020528360018484200191166000526020528160002093815260106020522054166001600160801b0361016060405161275d81612da0565b8260058654966001600160401b0388168452828860401c1660208501528760c01c604085015260ff6001820154848116606087015260801c1615156080850152600281015483811660a086015260801c60c085015282600382015460ff8116151560e087015260081c16610100850152600481015483811661012086015260801c610140850152015416828201526001600160401b03604051951685528260208201511660208601526001600160401b0360408201511660408601528260608201511660608601526080810151151560808601528260a08201511660a08601528260c08201511660c086015260e0810151151560e0860152826101008201511661010086015282610120820151166101208601528261014082015116610140860152015116610160830152610180820152f35b50346101fd5760603660031901126101fd576128aa612d35565b816128b3612cf3565b916044356001600160401b03918282168092036120b15760018060a01b039283600454169560405180976326d2a55160e21b82526006600483015260209889918160249a8b925af18015612b4857612912918a91612c12575015612e10565b6001600160801b0383168015612bce576040516370a0823160e01b81523360048201527f00000000000000000000000000000000000000000000000000000000000000008716919089818a81865afa8015612bc35782918c91612b8e575b5010612b535761298290600e54612fe4565b600e558760405180926363a9f09360e11b8252818c816129a68a3360048401612ff1565b03925af18015612b48576001918a91612b2b575b50151503612ae757916104cf916129d2949316612e60565b908060025416803b15612ae35785604051809263e613610560e01b8252818381612a00893060048401612ff1565b03925af18015610ddc57612aca575b50612a3f91818592600554169060085416876040518096819582946323b872dd60e01b8452339060048501612f0a565b03925af18015610f48576001918591612aad575b50151503612a5f578280f35b9060226084926040519262461bcd60e51b845260048401528201527f55534454205472616e73666572206661696c656420696e2072656465656d5553604482015261111560f21b6064820152fd5b612ac49150843d8611610f4157610f338183612dd7565b38612a53565b91849195612ada612a3f94612d77565b95915091612a0f565b8580fd5b60405162461bcd60e51b815260048101889052601f818801527f414d494e54204275726e206661696c656420696e2072656465656d55534454006044820152606490fd5b612b429150893d8b11610f4157610f338183612dd7565b386129ba565b6040513d8b823e3d90fd5b60405162461bcd60e51b8152600481018a90526014818a015273496e73756666696369656e742062616c616e636560601b6044820152606490fd5b8092508b8092503d8311612bbc575b612ba78183612dd7565b81010312612bb85781905138612970565b8a80fd5b503d612b9d565b6040513d8d823e3d90fd5b60405162461bcd60e51b8152600481018990526019818901527f416d6f756e742073686f756c64206e6f74206265207a65726f000000000000006044820152606490fd5b6113db9150893d8b11610f4157610f338183612dd7565b50346101fd57806003193601126101fd57602060ff600c5460801c16604051908152f35b50346101fd57806003193601126101fd576005546040516001600160a01b039091168152602090f35b50346101fd57806003193601126101fd576020600a5460801c604051908152f35b50346101fd5760603660031901126101fd576020612ccc612cb6612cdd565b612cbe612cf3565b612cc6612d1f565b91613165565b6001600160801b0360405191168152f35b600435906001600160a01b0382168203610fc657565b602435906001600160401b0382168203610fc657565b600435906001600160401b0382168203610fc657565b604435906001600160801b0382168203610fc657565b600435906001600160801b0382168203610fc657565b602435906001600160801b0382168203610fc657565b606435906001600160801b0382168203610fc657565b6001600160401b038111612d8a57604052565b634e487b7160e01b600052604160045260246000fd5b61018081019081106001600160401b03821117612d8a57604052565b608081019081106001600160401b03821117612d8a57604052565b90601f801991011681019081106001600160401b03821117612d8a57604052565b90816020910312610fc657518015158103610fc65790565b15612e1757565b60405162461bcd60e51b815260206004820152600660248201526514185d5cd95960d21b6044820152606490fd5b9190916001600160801b038080941691160191821161200857565b9190916001600160801b038080941691160291821691820361200857565b906001600160801b03809116918215612e9657160490565b634e487b7160e01b600052601260045260246000fd5b15612eb357565b60405162461bcd60e51b815260206004820152602960248201527f496e73756666696369656e7420555344542062616c616e63652077697468206d60448201526839b39739b2b73232b960b91b6064820152608490fd5b6001600160a01b039182168152911660208201526001600160801b03909116604082015260600190565b15612f3b57565b60405162461bcd60e51b815260206004820152602360248201527f55534454205472616e73666572206661696c656420696e20434453206465706f6044820152621cda5d60ea1b6064820152608490fd5b15612f9357565b60405162461bcd60e51b8152602060048201526024808201527f414d494e54205472616e73666572206661696c656420696e20434453206465706044820152631bdcda5d60e21b6064820152608490fd5b9190820180921161200857565b6001600160a01b0390911681526001600160801b03909116602082015260400190565b1561301b57565b60405162461bcd60e51b815260206004820152600d60248201526c13dc9858db194811985a5b1959609a1b6044820152606490fd5b6001600160401b038091169081146120085760010190565b90816020910312610fc657516001600160801b0381168103610fc65790565b519069ffffffffffffffffffff82168203610fc657565b600354604051633fabe5a360e21b81529060a090829060049082906001600160a01b03165afa908115613140576000916130e6575b50620f42406001600160801b0391041690565b9060a0823d8211613138575b816130ff60a09383612dd7565b810103126101fd5750620f42408161311e6001600160801b0393613087565b50613130608060208301519201613087565b5091506130d3565b3d91506130f2565b6040513d6000823e3d90fd5b6001600160801b03918216908216039190821161200857565b600854604080516370a0823160e01b81526001600160a01b03928316600482015294929390929091602091600083886024817f000000000000000000000000000000000000000000000000000000000000000087165afa9788156133a4578198613370575b506004906001600160801b0380991692858560025416895194858092630f27449560e01b82525afa92831561336657908a918394613333575b50846132b557505050505060005b33600052601083526001600160401b0360018660002001941693846000528352600285600020015460801c808883161115600014613293579361328893889593613264620186a098946132909b9661314c565b9816600052601081526001836000200191600052528060002054901c169384612e60565b16049061314c565b90565b936132ae938895936132646132909a95620186a0999561314c565b1604612e45565b6009548281169190838216831461331f5750906132d19161314c565b925b166103e8029089821691820361330b57506132f5613306939261330092612e60565b9189600f5416612e60565b90612e7e565b613211565b634e487b7160e01b81526011600452602490fd5b61332d925060801c9061314c565b926132d3565b87809295508193503d831161335f575b61334d8183612dd7565b81010312610696578990519238613203565b503d613343565b88513d84823e3d90fd5b9097508381813d831161339d575b6133888183612dd7565b8101031261339957519660046131ca565b8780fd5b503d61337e565b508551903d90823e3d90fd5b156133b757565b60405162461bcd60e51b815260206004820152601860248201527f496e707574206164647265737320697320696e76616c696400000000000000006044820152606490fd5b6000546001600160a01b0316330361341057565b606460405162461bcd60e51b815260206004820152602060248201527f4f776e61626c653a2063616c6c6572206973206e6f7420746865206f776e65726044820152fdfea26469706673582212204a65e1d46f93f4eabb0a53c61f6cf9c47cbd5cca1b13d0bca889c312912ae2ee64736f6c63430008130033","linkReferences":{}},"methodIdentifiers":{"PRECISION()":"aaf5eb68","amint()":"503e6322","amintLimit()":"412cfc94","borrowing()":"60b415ed","borrowingContract()":"84a965ed","burnedAmintInRedeem()":"e356b120","calculateCumulativeRate(uint128)":"b87c3dc3","cdsAmountToReturn(address,uint64,uint128)":"24bd8bff","cdsCount()":"df6f05e7","cdsDetails(address)":"880e8e3b","deposit(uint128,uint128,bool,uint128)":"b0b6f3c6","ethVault()":"5a20329c","fallbackEthPrice()":"77b7cda6","getCDSDepositDetails(address,uint64)":"4721bae8","lastCumulativeRate()":"8e4db39a","lastEthPrice()":"7038fc4e","liquidationIndexToInfo(uint128)":"d3e3413f","multiSign()":"9e6fe439","owner()":"8da5cb5b","redeemUSDT(uint128,uint64,uint64)":"46696df3","renounceOwnership()":"715018a6","setAmintLimit(uint8)":"84637c26","setBorrowingContract(address)":"78fdaf3f","setTreasury(address)":"f0f44260","setUsdtLimit(uint64)":"7bf5e245","setWithdrawTimeLimit(uint64)":"868c10d2","totalAvailableLiquidationAmount()":"dc91e752","totalCdsDepositedAmount()":"2bb2ea62","transferOwnership(address)":"f2fde38b","treasury()":"61d027b3","treasuryAddress()":"c5f956af","updateLiquidationInfo(uint128,(uint128,uint128,uint128,uint256))":"b3013d4d","updateTotalAvailableLiquidationAmount(uint256)":"4cae95d3","updateTotalCdsDepositedAmount(uint128)":"dc55b193","usdt()":"2f48ab7d","usdtAmountDepositedTillNow()":"76a3fb3e","usdtLimit()":"f57ff39c","withdraw(uint64)":"750f0acc","withdrawTimeLimit()":"4f04a86b"},"id":4}