{"abi":[{"type":"constructor","inputs":[{"name":"_amint","type":"address","internalType":"address"},{"name":"priceFeed","type":"address","internalType":"address"},{"name":"_usdt","type":"address","internalType":"address"},{"name":"_multiSign","type":"address","internalType":"address"}],"stateMutability":"nonpayable"},{"type":"receive","stateMutability":"payable"},{"type":"function","name":"PRECISION","inputs":[],"outputs":[{"name":"","type":"uint128","internalType":"uint128"}],"stateMutability":"view"},{"type":"function","name":"amint","inputs":[],"outputs":[{"name":"","type":"address","internalType":"contract IAMINT"}],"stateMutability":"view"},{"type":"function","name":"amintLimit","inputs":[],"outputs":[{"name":"","type":"uint8","internalType":"uint8"}],"stateMutability":"view"},{"type":"function","name":"borrowing","inputs":[],"outputs":[{"name":"","type":"address","internalType":"contract IBorrowing"}],"stateMutability":"view"},{"type":"function","name":"borrowingContract","inputs":[],"outputs":[{"name":"","type":"address","internalType":"address"}],"stateMutability":"view"},{"type":"function","name":"calculateCumulativeRate","inputs":[{"name":"fees","type":"uint128","internalType":"uint128"}],"outputs":[{"name":"","type":"uint128","internalType":"uint128"}],"stateMutability":"nonpayable"},{"type":"function","name":"cdsCount","inputs":[],"outputs":[{"name":"","type":"uint64","internalType":"uint64"}],"stateMutability":"view"},{"type":"function","name":"cdsDetails","inputs":[{"name":"","type":"address","internalType":"address"}],"outputs":[{"name":"index","type":"uint64","internalType":"uint64"},{"name":"hasDeposited","type":"bool","internalType":"bool"}],"stateMutability":"view"},{"type":"function","name":"deposit","inputs":[{"name":"usdtAmount","type":"uint128","internalType":"uint128"},{"name":"amintAmount","type":"uint128","internalType":"uint128"},{"name":"_liquidate","type":"bool","internalType":"bool"},{"name":"_liquidationAmount","type":"uint128","internalType":"uint128"}],"outputs":[],"stateMutability":"nonpayable"},{"type":"function","name":"ethVault","inputs":[],"outputs":[{"name":"","type":"address","internalType":"address"}],"stateMutability":"view"},{"type":"function","name":"fallbackEthPrice","inputs":[],"outputs":[{"name":"","type":"uint128","internalType":"uint128"}],"stateMutability":"view"},{"type":"function","name":"getCDSDepositDetails","inputs":[{"name":"depositor","type":"address","internalType":"address"},{"name":"index","type":"uint64","internalType":"uint64"}],"outputs":[{"name":"","type":"tuple","internalType":"struct CDSTest.CdsAccountDetails","components":[{"name":"depositedTime","type":"uint64","internalType":"uint64"},{"name":"depositedAmount","type":"uint128","internalType":"uint128"},{"name":"withdrawedTime","type":"uint64","internalType":"uint64"},{"name":"withdrawedAmount","type":"uint128","internalType":"uint128"},{"name":"withdrawed","type":"bool","internalType":"bool"},{"name":"depositPrice","type":"uint128","internalType":"uint128"},{"name":"depositValue","type":"uint128","internalType":"uint128"},{"name":"optedLiquidation","type":"bool","internalType":"bool"},{"name":"InitialLiquidationAmount","type":"uint128","internalType":"uint128"},{"name":"liquidationAmount","type":"uint128","internalType":"uint128"},{"name":"liquidationindex","type":"uint128","internalType":"uint128"},{"name":"normalizedAmount","type":"uint128","internalType":"uint128"}]},{"name":"","type":"uint64","internalType":"uint64"}],"stateMutability":"view"},{"type":"function","name":"lastCumulativeRate","inputs":[],"outputs":[{"name":"","type":"uint128","internalType":"uint128"}],"stateMutability":"view"},{"type":"function","name":"lastEthPrice","inputs":[],"outputs":[{"name":"","type":"uint128","internalType":"uint128"}],"stateMutability":"view"},{"type":"function","name":"liquidationIndexToInfo","inputs":[{"name":"liquidationIndex","type":"uint128","internalType":"uint128"}],"outputs":[{"name":"liquidationAmount","type":"uint128","internalType":"uint128"},{"name":"profits","type":"uint128","internalType":"uint128"},{"name":"ethAmount","type":"uint128","internalType":"uint128"},{"name":"availableLiquidationAmount","type":"uint256","internalType":"uint256"}],"stateMutability":"view"},{"type":"function","name":"multiSign","inputs":[],"outputs":[{"name":"","type":"address","internalType":"contract IMultiSign"}],"stateMutability":"view"},{"type":"function","name":"owner","inputs":[],"outputs":[{"name":"","type":"address","internalType":"address"}],"stateMutability":"view"},{"type":"function","name":"redeemUSDT","inputs":[{"name":"_amintAmount","type":"uint128","internalType":"uint128"},{"name":"amintPrice","type":"uint64","internalType":"uint64"},{"name":"usdtPrice","type":"uint64","internalType":"uint64"}],"outputs":[],"stateMutability":"nonpayable"},{"type":"function","name":"renounceOwnership","inputs":[],"outputs":[],"stateMutability":"nonpayable"},{"type":"function","name":"setAmintLimit","inputs":[{"name":"percent","type":"uint8","internalType":"uint8"}],"outputs":[],"stateMutability":"nonpayable"},{"type":"function","name":"setBorrowingContract","inputs":[{"name":"_address","type":"address","internalType":"address"}],"outputs":[],"stateMutability":"nonpayable"},{"type":"function","name":"setTreasury","inputs":[{"name":"_treasury","type":"address","internalType":"address"}],"outputs":[],"stateMutability":"nonpayable"},{"type":"function","name":"setUsdtLimit","inputs":[{"name":"amount","type":"uint64","internalType":"uint64"}],"outputs":[],"stateMutability":"nonpayable"},{"type":"function","name":"setWithdrawTimeLimit","inputs":[{"name":"_timeLimit","type":"uint64","internalType":"uint64"}],"outputs":[],"stateMutability":"nonpayable"},{"type":"function","name":"totalAvailableLiquidationAmount","inputs":[],"outputs":[{"name":"","type":"uint256","internalType":"uint256"}],"stateMutability":"view"},{"type":"function","name":"totalCdsDepositedAmount","inputs":[],"outputs":[{"name":"","type":"uint128","internalType":"uint128"}],"stateMutability":"view"},{"type":"function","name":"transferOwnership","inputs":[{"name":"newOwner","type":"address","internalType":"address"}],"outputs":[],"stateMutability":"nonpayable"},{"type":"function","name":"treasury","inputs":[],"outputs":[{"name":"","type":"address","internalType":"contract ITreasury"}],"stateMutability":"view"},{"type":"function","name":"treasuryAddress","inputs":[],"outputs":[{"name":"","type":"address","internalType":"address"}],"stateMutability":"view"},{"type":"function","name":"updateLiquidationInfo","inputs":[{"name":"index","type":"uint128","internalType":"uint128"},{"name":"liquidationData","type":"tuple","internalType":"struct CDSTest.LiquidationInfo","components":[{"name":"liquidationAmount","type":"uint128","internalType":"uint128"},{"name":"profits","type":"uint128","internalType":"uint128"},{"name":"ethAmount","type":"uint128","internalType":"uint128"},{"name":"availableLiquidationAmount","type":"uint256","internalType":"uint256"}]}],"outputs":[],"stateMutability":"nonpayable"},{"type":"function","name":"updateTotalAvailableLiquidationAmount","inputs":[{"name":"amount","type":"uint256","internalType":"uint256"}],"outputs":[],"stateMutability":"nonpayable"},{"type":"function","name":"updateTotalCdsDepositedAmount","inputs":[{"name":"_amount","type":"uint128","internalType":"uint128"}],"outputs":[],"stateMutability":"nonpayable"},{"type":"function","name":"usdt","inputs":[],"outputs":[{"name":"","type":"address","internalType":"contract IERC20"}],"stateMutability":"view"},{"type":"function","name":"usdtAmountDepositedTillNow","inputs":[],"outputs":[{"name":"","type":"uint256","internalType":"uint256"}],"stateMutability":"view"},{"type":"function","name":"usdtLimit","inputs":[],"outputs":[{"name":"","type":"uint64","internalType":"uint64"}],"stateMutability":"view"},{"type":"function","name":"withdraw","inputs":[{"name":"_index","type":"uint64","internalType":"uint64"}],"outputs":[],"stateMutability":"nonpayable"},{"type":"function","name":"withdrawTimeLimit","inputs":[],"outputs":[{"name":"","type":"uint64","internalType":"uint64"}],"stateMutability":"view"},{"type":"event","name":"Deposit","inputs":[{"name":"depositedAmint","type":"uint128","indexed":false,"internalType":"uint128"},{"name":"index","type":"uint64","indexed":false,"internalType":"uint64"},{"name":"liquidationAmount","type":"uint128","indexed":false,"internalType":"uint128"},{"name":"normalizedAmount","type":"uint128","indexed":false,"internalType":"uint128"},{"name":"depositVal","type":"uint128","indexed":false,"internalType":"uint128"}],"anonymous":false},{"type":"event","name":"OwnershipTransferred","inputs":[{"name":"previousOwner","type":"address","indexed":true,"internalType":"address"},{"name":"newOwner","type":"address","indexed":true,"internalType":"address"}],"anonymous":false},{"type":"event","name":"Withdraw","inputs":[{"name":"withdrewAmint","type":"uint128","indexed":false,"internalType":"uint128"},{"name":"withdrawETH","type":"uint128","indexed":false,"internalType":"uint128"}],"anonymous":false}],"bytecode":{"object":"0x60a08060405234620001f457608081620032588038038091620000238285620001f9565b833981010312620001f457620000398162000233565b620000476020830162000233565b620000556040840162000233565b92606001620000649062000233565b600080546001600160a01b03198082163390811784556040516001600160a01b039894969095869586958b94859392849290919083167f8be0079c531659141344cd1fd0a4f28419497f9722a3daafe3b4186f6b6457e08d80a364e8d4a510009c8d9c600160801b60019003199d8e600e541617600e551660805216856005541617600555168360045416176004551680916003541617600355633fabe5a360e21b82525a9260049160a094fa918215620001e85780926200018c575b5050620f424060018060801b03910416816009541617600955600c541617600c55604051612ffa90816200025e823960805181818161083f01528181610e5f01528181610ff9015281816111da01528181611dd50152818161205a015281816123b2015261275e0152f35b90915060a0823d8211620001df575b81620001aa60a09383620001f9565b81010312620001dc5750620001bf8162000248565b50620001d360806020830151920162000248565b50388062000121565b80fd5b3d91506200019b565b604051903d90823e3d90fd5b600080fd5b601f909101601f19168101906001600160401b038211908210176200021d57604052565b634e487b7160e01b600052604160045260246000fd5b51906001600160a01b0382168203620001f457565b51906001600160501b0382168203620001f45756fe608080604052600436101561001d575b50361561001b57600080fd5b005b600090813560e01c9081632bb2ea6214612ab2575080632f48ab7d14612a89578063412cfc9414612a6557806346696df3146126b65780634721bae8146124b95780634cae95d31461240b5780634f04a86b146123e1578063503e63221461239c5780635a20329c1461237357806360b415ed1461234a57806361d027b3146123215780637038fc4e146122fa578063715018a6146122a0578063750f0acc1461176757806376a3fb3e1461174957806377b7cda61461172857806378fdaf3f146116c85780637bf5e2451461162457806384637c261461159257806384a965ed14611569578063868c10d2146114bf578063880e8e3b146114715780638da5cb5b1461144a5780638e4db39a146114235780639e6fe439146113fa578063aaf5eb68146113d3578063b0b6f3c614610678578063b3013d4d146105b0578063b87c3dc314610428578063c5f956af146103ff578063d3e3413f146103a2578063dc55b19314610360578063dc91e75214610342578063df6f05e71461031b578063f0f44260146102af578063f2fde38b146101e95763f57ff39c0361000f57346101e657806003193601126101e65760206001600160401b03600c5460881c16604051908152f35b80fd5b50346101e65760203660031901126101e657610203612b3f565b61020b612f6c565b6001600160a01b0390811690811561025b57600054826001600160601b0360a01b821617600055167f8be0079c531659141344cd1fd0a4f28419497f9722a3daafe3b4186f6b6457e0600080a380f35b60405162461bcd60e51b815260206004820152602660248201527f4f776e61626c653a206e6577206f776e657220697320746865207a65726f206160448201526564647265737360d01b6064820152608490fd5b50346101e65760203660031901126101e6576102c9612b3f565b6102d1612f6c565b6001600160a01b038116906102f0908215159081610310575b50612f20565b6001600160601b0360a01b81816008541617600855600254161760025580f35b90503b1515386102ea565b50346101e657806003193601126101e65760206001600160401b03600a5416604051908152f35b50346101e657806003193601126101e6576020600b54604051908152f35b50346101e65760203660031901126101e65761037a612ad1565b6001600160801b03600a54916103958219918460801c612f07565b60801b16911617600a5580f35b50346101e65760203660031901126101e65760809060406001600160801b0391826103cb612ad1565b168152601060205220805490600283600183015416910154916040519381168452841c602084015260408301526060820152f35b50346101e657806003193601126101e6576008546040516001600160a01b039091168152602090f35b50346101e657602090816003193601126101e657610444612ad1565b906001600160801b03908183161561056b5761049f600a5461049a858260801c92866104708386612c23565b946104856001600160801b03199a8b92612c23565b60801b16911617600a5585600e541690612c3e565b612c5c565b90808560018060a01b03600254166004604051809481936322d7586760e11b83525af191821561055f57908492610532575b50166104fc576104e59082600e5416612c23565b9181831690600c541617600c555b60405191168152f35b91600c54908261052661051f61051783600e54169788612c23565b838616612c3e565b9586612c5c565b16911617600c556104f3565b6105529150863d8811610558575b61054a8183612bb5565b810190612e23565b386104d1565b503d610540565b604051903d90823e3d90fd5b60405162461bcd60e51b815260048101859052601760248201527f466565732073686f756c64206e6f74206265207a65726f0000000000000000006044820152606490fd5b50346101e65760a03660031901126101e6576105ca612ad1565b608036602319011261067457604051906105e382612b9a565b6105eb612ae7565b8252604435906001600160801b03808316830361066f5760029260208501908152610614612afd565b604086810191825260843560608801908152948416885260106020528720955191516001600160801b031990841660801b81169284166001600160801b03169290921786559160018601925116908254161790555191015580f35b600080fd5b5080fd5b50346101e65760803660031901126101e657610692612ad1565b61069a612ae7565b6044351515604435036113cf576106af612afd565b9183602060018060a01b03600454166024604051809481936326d2a55160e21b83526004808401525af180156113c4576106f19186916113a5575b5015612bee565b6106fb8282612c23565b916001600160801b03831615611356576001600160801b0383166001600160801b038516116112f25782600d54600c54906001600160401b038260881c161160001461119257506001600160801b03166001600160801b0383160361114d575b6001600160801b038216151590818061113b575b15610fb6576005546040516370a0823160e01b81523360048201526001600160a01b0390911690602081602481855afa8015610f77578890610f82575b6107c291506001600160801b0386161115612c8a565b60018060a01b036008541660206040518093818b816107f18b6323b872dd60e01b988984523360048501612ce8565b03925af18015610f77576001610814916020948b91610f5a575b50151514612d12565b60085460405191825290928391829161083a916001600160a01b03163360048501612ce8565b0381897f00000000000000000000000000000000000000000000000000000000000000006001600160a01b03165af1908115610dba57610887916001918891610f3b575b50151514612d6a565b61089c6001600160801b038316600d54612dc2565b600d55610e21575b506108ad612e59565b916108c26001600160801b0384161515612dcf565b338452600f6020526040842080549060ff8260401c1615600014610def575050338452600f602052604084206801000000000000000168ffffffffffffffffff19825416179055600192600a546001600160401b03610922818316612e0b565b16906001600160401b03191617600a555b338552600f602052600160408620016001600160401b03851660005260205260406000208054600160401b600160c01b038560401b1690600160401b600160c01b031916179055338552600f602052600160408620016001600160401b03851660005260205260026040600020016001600160801b0382166001600160801b0319825416179055600a546001600160801b0380196109d4868460801c612c23565b60801b16911617600a55338552600f602052600160408620016001600160401b03851660005260205260406000206001600160401b0342166001600160401b0319825416179055610a45610a336001600160801b03600e541685612c3e565b6001600160801b03600c541690612c5c565b338652600f602052600160408720016001600160401b0386166000526020526001600160801b03600560406000200191166001600160801b0319825416179055338552600f602052600160408620016001600160401b038516600052602052600360406000200160ff1981541660ff604435151516179055604435610bb5575b9260a092917f0a5985aa28fedd5d60e042a47ad0dcb83381febf41639cd599c154a7fee13ca6946001600160801b03600954166001600160801b03821603610b92575b50338652600f602052600160408720016001600160401b0383166000526020526001600160801b03806005604060002001541691338852600f602052600160408920016001600160401b0385166000526020526001600160401b0360026040600020015460801c94836040519716875216602086015216604084015260608301526080820152a180f35b610baf906001600160801b03801960095460801b16911617600955565b38610b08565b6001546040516338a912d560e01b81526001600160a01b0390911690602081600481855afa8015610de4576001600160801b03918891610dc5575b5016610d0257509260a092917f0a5985aa28fedd5d60e042a47ad0dcb83381febf41639cd599c154a7fee13ca694338752600f602052600160408820016001600160401b0384166000526020526004604060002001600160801b6001600160801b038254161790555b338752600f602052600160408820016001600160401b03841660005260205260046040600020016001600160801b0383166001600160801b0319825416179055338752600f602052600160408820016001600160401b03841660005260205260036040600020018054610100600160881b038460081b1690610100600160881b031916179055610cf46001600160801b038316600b54612dc2565b600b55919450919250610ac5565b916020600495929493604051968780926338a912d560e01b82525afa938415610dba57610d9660a0957f0a5985aa28fedd5d60e042a47ad0dcb83381febf41639cd599c154a7fee13ca6978991610d9b575b50338952600f602052600160408a20016001600160401b0386166000526020526004604060002001906001600160801b0382549181199060801b169116179055565b610c59565b610db4915060203d6020116105585761054a8183612bb5565b38610d54565b6040513d88823e3d90fd5b610dde915060203d6020116105585761054a8183612bb5565b38610bf0565b6040513d89823e3d90fd5b610e016001600160401b038316612e0b565b67ffffffffffffffff199092166001600160401b03831617905592610933565b6008546040516340c10f1960e01b81526001600160a01b039190911660048201526001600160801b03909116602482015260208180604481010381877f00000000000000000000000000000000000000000000000000000000000000006001600160a01b03165af18015610f30576001918591610f01575b50151503610ea757386108a4565b60405162461bcd60e51b815260206004820152602c60248201527f414d494e54206d696e7420746f207472656173757279206661696c656420696e60448201526b0810d114c819195c1bdcda5d60a21b6064820152608490fd5b610f23915060203d602011610f29575b610f1b8183612bb5565b810190612bd6565b38610e99565b503d610f11565b6040513d86823e3d90fd5b610f54915060203d602011610f2957610f1b8183612bb5565b3861087e565b610f719150853d8711610f2957610f1b8183612bb5565b3861080b565b6040513d8a823e3d90fd5b506020813d602011610fae575b81610f9c60209383612bb5565b8101031261066f576107c290516107ac565b3d9150610f8f565b6001600160801b038316611045576008546040516323b872dd60e01b81529160209183918291610ff491906001600160a01b03163360048501612ce8565b0381897f00000000000000000000000000000000000000000000000000000000000000006001600160a01b03165af1908115610dba57611040916001918891610f3b5750151514612d6a565b610887565b506005546040516370a0823160e01b8152336004820152906001600160a01b0316602082602481845afa8015610de45784928891611103575b509160209161109b6110c9946001600160801b0384161115612c8a565b6008546040516323b872dd60e01b815294859384928c92849290916001600160a01b03163360048501612ce8565b03925af1908115610dba576110409160019188916110ea5750151514612d12565b610f71915060203d602011610f2957610f1b8183612bb5565b9250506020823d602011611133575b8161111f60209383612bb5565b8101031261066f579051839190602061107e565b3d9150611112565b506001600160801b038116151561076f565b60405162461bcd60e51b815260206004820152601b60248201527f31303025206f6620616d6f756e74206d757374206265205553445400000000006044820152606490fd5b6001600160801b036111ad819360ff60649460801c16612c3e565b1604166001600160801b038216106112ad576040516370a0823160e01b81523360048201526020816024817f00000000000000000000000000000000000000000000000000000000000000006001600160a01b03165afa908115610dba57869161127b575b506001600160801b038216111561075b5760405162461bcd60e51b815260206004820152602a60248201527f496e73756666696369656e7420414d494e542062616c616e636520776974682060448201526936b9b39739b2b73232b960b11b6064820152608490fd5b90506020813d6020116112a5575b8161129660209383612bb5565b8101031261066f575138611212565b3d9150611289565b60405162461bcd60e51b815260206004820152601d60248201527f526571756972656420414d494e5420616d6f756e74206e6f74206d65740000006044820152606490fd5b60405162461bcd60e51b815260206004820152603660248201527f4c69717569646174696f6e20616d6f756e742063616e27742067726561746572604482015275081d1a185b8819195c1bdcda5d195908185b5bdd5b9d60521b6064820152608490fd5b60405162461bcd60e51b815260206004820152602160248201527f4465706f73697420616d6f756e742073686f756c64206e6f74206265207a65726044820152606f60f81b6064820152608490fd5b6113be915060203d602011610f2957610f1b8183612bb5565b386106ea565b6040513d87823e3d90fd5b8280fd5b50346101e657806003193601126101e65760206001600160801b03600e5416604051908152f35b50346101e657806003193601126101e6576004546040516001600160a01b039091168152602090f35b50346101e657806003193601126101e65760206001600160801b03600c5416604051908152f35b50346101e657806003193601126101e657546040516001600160a01b039091168152602090f35b50346101e65760203660031901126101e65760409081906001600160a01b03611498612b3f565b168152600f602052205460ff8251916001600160401b0381168352831c1615156020820152f35b50346101e65760203660031901126101e6576114d9612b29565b6114e1612f6c565b6001600160401b0381161561151a5767ffffffffffffffff60401b600a549160401b169067ffffffffffffffff60401b191617600a5580f35b60405162461bcd60e51b815260206004820152602160248201527f57697468647261772074696d65206c696d69742063616e2774206265207a65726044820152606f60f81b6064820152608490fd5b50346101e657806003193601126101e6576006546040516001600160a01b039091168152602090f35b50346101e65760203660031901126101e65760043560ff81168082036113cf576115ba612f6c565b156115df57600c805460ff60801b191660809290921b60ff60801b1691909117905580f35b60405162461bcd60e51b815260206004820152601960248201527f416d696e74206c696d69742063616e2774206265207a65726f000000000000006044820152606490fd5b50346101e65760203660031901126101e65761163e612b29565b611646612f6c565b6001600160401b0381161561168357600c805467ffffffffffffffff60881b191660889290921b67ffffffffffffffff60881b1691909117905580f35b60405162461bcd60e51b815260206004820152601860248201527f55534454206c696d69742063616e2774206265207a65726f00000000000000006044820152606490fd5b50346101e65760203660031901126101e6576116e2612b3f565b6116ea612f6c565b6001600160a01b038116906117089082151590816103105750612f20565b6001600160601b0360a01b81816006541617600655600154161760015580f35b50346101e657806003193601126101e657602060095460801c604051908152f35b50346101e657806003193601126101e6576020600d54604051908152f35b50346101e65760203660031901126101e657611781612b29565b81602060018060a01b03600454166024604051809481936326d2a55160e21b8352600560048401525af18015612295576117c29184916113a5575015612bee565b338252600f6020526001600160401b0390816040842054168282161161224257338352600f6020526001604084200182821660005260205260ff60016040600020015460801c1661220957338352600f60205260016040842001828216600052602052816040600020541682600a5460401c16018281116121f5578280421691161161219957338352600f602052600160408420018282166000526020526001604060002001600160801b60ff60801b19825416179055338352600f602052600182604085205416148061218d575b612152575b61189e612e59565b916118b36001600160801b0384161515612dcf565b33600052600f602052600160406000200181831660005260205260026040600020015460801c6001600160801b038111611c9e5761198e6119346119be9233600052600f6020526001604060002001858716600052602052620186a06001600160801b0361192c8160406000205460401c169384612c3e565b160490612f07565b338752600f602052600160408820018486166000526020526119886119766001600160801b03600560406000200154166001600160801b03600c541690612c3e565b6001600160801b03600e541690612c5c565b90612c23565b338652600f602052600160408720018385166000526020526001600160801b0360406000205460401c1690612f07565b33808652600f60208181526040808920878716600081815260019283018552838120830180546001600160801b0319166001600160801b038a16179055868c52858552838c208282528301855283812080546001600160c01b03164260c01b6001600160c01b031916179055958b52938352818a2093855292909201905290206003015460ff1615611f995792611a80600494338752600f602052600160408820018486166000526020526001600160801b0386604060002001541690612f07565b6001546040516338a912d560e01b81529591949160209187919082906001600160a01b03165afa948515610dba578695611f78575b50338652600f6020526001604087200183821660005260205260046040600020015460801c9186925b6001600160801b0381166001600160801b0388168111611cb457338952600f602052600160408a20018685166000526020526001600160801b03600460406000200154169081611b5e575b50506001600160801b03166001600160801b038114611b4a57600101611ade565b634e487b7160e01b88526011600452602488fd5b89959192955260106020526402540be40060408a2092600260405194611b8386612b9a565b80546001600160801b038116875260801c60208701526001600160801b036001820154166040870152015460608501520290816001600160801b03811603611c9e576402540be4006001600160801b03611c8e898260408f9882998c611bf5611c969b86806060870151169116612c5c565b958986611c088982602089015116612c3e565b1604338452600f602052600186852001828416600052602052600486600020019087611c38835492828416612c23565b16908819161790556001858b88611c528b828a5116612c3e565b160494338152600f60205220019116600052602052600483600020019084611c7e835492828416612f07565b1690851916179055015116612c3e565b160490612c23565b939038611b29565b634e487b7160e01b600052601160045260246000fd5b50509450909192611cef90338752600f602052600160408820018584166000526020526001600160801b036004604060002001541690612c23565b92600a546001600160801b038019611d0a878460801c612f07565b60801b16911617600a55338652600f6020526001604087200191166000526020526001604060002001916001600160801b03811692836001600160801b03198254161790558460018060a01b0360025416803b1561067457604051630adfd5a560e21b81523060048201526001600160801b03841660248201529082908290604490829084905af18015611ef157611f60575b50506008546040516323b872dd60e01b81529160209183918291611dd0919033906001600160a01b031660048501612ce8565b0381887f00000000000000000000000000000000000000000000000000000000000000006001600160a01b03165af180156113c4576001918691611f41575b50151503611efc576002546001600160a01b0316908490823b1561067457816001600160801b03604482936040519485938492635822b66d60e01b845233600485015216978860248401525af18015611ef157611ed9575b50507f02d30220fb33c212455a8cbb2cf068095e080a18a527044b34360e67a705addd9160409182519182526020820152a15b6001600160801b03600954166001600160801b03821603611eb9575080f35b611ed6906001600160801b03801960095460801b16911617600955565b80f35b611ee290612b55565b611eed578338611e67565b8380fd5b6040513d84823e3d90fd5b60405162461bcd60e51b815260206004820152601e60248201527f5472616e7373756363657373656420696e2063647320776974686472617700006044820152606490fd5b611f5a915060203d602011610f2957610f1b8183612bb5565b38611e0f565b611f6990612b55565b611f74578438611d9d565b8480fd5b611f9291955060203d6020116105585761054a8183612bb5565b9338611ab5565b9190338552600f60205260016040862001911660005260205260016040600020016001600160801b0382166001600160801b03198254161790558260018060a01b0360025416803b1561067457604051630adfd5a560e21b81523060048201526001600160801b03841660248201529082908290604490829084905af18015611ef15761213e575b50506008546040516323b872dd60e01b8152906020908290819061205590869033906001600160a01b031660048501612ce8565b0381877f00000000000000000000000000000000000000000000000000000000000000006001600160a01b03165af18015610f3057600191859161211f575b501515036120da5760407f02d30220fb33c212455a8cbb2cf068095e080a18a527044b34360e67a705addd916001600160801b03825191168152846020820152a1611e9a565b60405162461bcd60e51b815260206004820152601f60248201527f5472616e73666572206661696c656420696e20636473207769746864726177006044820152606490fd5b612138915060203d602011610f2957610f1b8183612bb5565b38612094565b61214790612b55565b6113cf578238612021565b600a5482811680156121795783906000190116906001600160401b03191617600a55611896565b634e487b7160e01b85526011600452602485fd5b50600182821614611891565b60405162461bcd60e51b815260206004820152602e60248201527f63616e6e6f74207769746864726177206265666f72652074686520776974686460448201526d1c985dc81d1a5b59481b1a5b5a5d60921b6064820152608490fd5b634e487b7160e01b84526011600452602484fd5b60405162461bcd60e51b815260206004820152601160248201527020b63932b0b23c903bb4ba34323930bbb760791b6044820152606490fd5b60405162461bcd60e51b815260206004820152602560248201527f7573657220646f65736e277420686176652074686520737065636966696564206044820152640d2dcc8caf60db1b6064820152608490fd5b6040513d85823e3d90fd5b50346101e657806003193601126101e6576122b9612f6c565b600080546001600160a01b0319811682556001600160a01b03167f8be0079c531659141344cd1fd0a4f28419497f9722a3daafe3b4186f6b6457e08280a380f35b50346101e657806003193601126101e65760206001600160801b0360095416604051908152f35b50346101e657806003193601126101e6576002546040516001600160a01b039091168152602090f35b50346101e657806003193601126101e6576001546040516001600160a01b039091168152602090f35b50346101e657806003193601126101e6576007546040516001600160a01b039091168152602090f35b50346101e657806003193601126101e6576040517f00000000000000000000000000000000000000000000000000000000000000006001600160a01b03168152602090f35b50346101e657806003193601126101e65760206001600160401b03600a5460401c16604051908152f35b50346101e65760203660031901126101e6576006546001600160a01b0316330361245857600b54600435810390811161244457600b5580f35b634e487b7160e01b82526011600452602482fd5b60405162461bcd60e51b815260206004820152603360248201527f546869732066756e6374696f6e2063616e206f6e6c792063616c6c656420627960448201527208189bdc9c9bddda5b99c818dbdb9d1c9858dd606a1b6064820152608490fd5b50346101e65760403660031901126101e6576101a0906001600160401b0360406124e1612b3f565b926124ea612b13565b938161016084516124fa81612b7e565b82815282602082015282868201528260608201528260808201528260a08201528260c08201528260e0820152826101008201528261012082015282610140820152015260018060a01b031693848252600f60205283600184842001911660005260205281600020938152600f6020522054166001600160801b0361016060405161258381612b7e565b8260058654966001600160401b0388168452828860401c1660208501528760c01c604085015260ff6001820154848116606087015260801c1615156080850152600281015483811660a086015260801c60c085015282600382015460ff8116151560e087015260081c16610100850152600481015483811661012086015260801c610140850152015416828201526001600160401b03604051951685528260208201511660208601526001600160401b0360408201511660408601528260608201511660608601526080810151151560808601528260a08201511660a08601528260c08201511660c086015260e0810151151560e0860152826101008201511661010086015282610120820151166101208601528261014082015116610140860152015116610160830152610180820152f35b50346101e65760603660031901126101e6576126d0612ad1565b816126d9612b13565b604435926001600160401b0393848116809103611eed5760018060a01b039182600454169560405180976326d2a55160e21b82526006600483015260209889918160249a8b925af18015612a5a57612738918a91612a43575015612bee565b6001600160801b0382169485156129ff576040516370a0823160e01b81523360048201527f00000000000000000000000000000000000000000000000000000000000000008616969089818a818b5afa9081156129f4578b916129c3575b501061298857846008541695886040518092818d816127c58a6323b872dd60e01b9e8f84523360048501612ce8565b03925af1801561297d576001918b91612960575b5015150361290e579161049a916127f1949316612c3e565b918160025416803b1561290a5760405163e613610560e01b81523060048201526001600160801b03851660248201529087908290604490829084905af18015610de4576128ef575b5091816128649387879460055416926008541691604051968795869485938452339060048501612ce8565b03925af18015610f305760019185916128d2575b50151503612884578280f35b9060226084926040519262461bcd60e51b845260048401528201527f55534454205472616e73666572206661696c656420696e2072656465656d5553604482015261111560f21b6064820152fd5b6128e99150843d8611610f2957610f1b8183612bb5565b38612878565b916128649391966129008794612b55565b9691935091612839565b8680fd5b60405162461bcd60e51b8152600481018990526025818901527f5472696e697479205472616e73666572206661696c656420696e2072656465656044820152641b5554d11560da1b6064820152608490fd5b61297791508a3d8c11610f2957610f1b8183612bb5565b386127d9565b6040513d8c823e3d90fd5b60405162461bcd60e51b81526004810189905260148189015273496e73756666696369656e742062616c616e636560601b6044820152606490fd5b90508981813d83116129ed575b6129da8183612bb5565b810103126129e9575138612796565b8a80fd5b503d6129d0565b6040513d8d823e3d90fd5b60405162461bcd60e51b8152600481018990526019818901527f416d6f756e742073686f756c64206e6f74206265207a65726f000000000000006044820152606490fd5b6113be9150893d8b11610f2957610f1b8183612bb5565b6040513d8b823e3d90fd5b50346101e657806003193601126101e657602060ff600c5460801c16604051908152f35b50346101e657806003193601126101e6576005546040516001600160a01b039091168152602090f35b905034610674578160031936011261067457602090600a5460801c8152f35b600435906001600160801b038216820361066f57565b602435906001600160801b038216820361066f57565b606435906001600160801b038216820361066f57565b602435906001600160401b038216820361066f57565b600435906001600160401b038216820361066f57565b600435906001600160a01b038216820361066f57565b6001600160401b038111612b6857604052565b634e487b7160e01b600052604160045260246000fd5b61018081019081106001600160401b03821117612b6857604052565b608081019081106001600160401b03821117612b6857604052565b90601f801991011681019081106001600160401b03821117612b6857604052565b9081602091031261066f5751801515810361066f5790565b15612bf557565b60405162461bcd60e51b815260206004820152600660248201526514185d5cd95960d21b6044820152606490fd5b9190916001600160801b0380809416911601918211611c9e57565b9190916001600160801b0380809416911602918216918203611c9e57565b906001600160801b03809116918215612c7457160490565b634e487b7160e01b600052601260045260246000fd5b15612c9157565b60405162461bcd60e51b815260206004820152602960248201527f496e73756666696369656e7420555344542062616c616e63652077697468206d60448201526839b39739b2b73232b960b91b6064820152608490fd5b6001600160a01b039182168152911660208201526001600160801b03909116604082015260600190565b15612d1957565b60405162461bcd60e51b815260206004820152602360248201527f55534454205472616e73666572206661696c656420696e20434453206465706f6044820152621cda5d60ea1b6064820152608490fd5b15612d7157565b60405162461bcd60e51b8152602060048201526024808201527f414d494e54205472616e73666572206661696c656420696e20434453206465706044820152631bdcda5d60e21b6064820152608490fd5b91908201809211611c9e57565b15612dd657565b60405162461bcd60e51b815260206004820152600d60248201526c13dc9858db194811985a5b1959609a1b6044820152606490fd5b6001600160401b03809116908114611c9e5760010190565b9081602091031261066f57516001600160801b038116810361066f5790565b519069ffffffffffffffffffff8216820361066f57565b600354604051633fabe5a360e21b81529060a090829060049082906001600160a01b03165afa908115612efb57600091612ea1575b50620f42406001600160801b0391041690565b9060a0823d8211612ef3575b81612eba60a09383612bb5565b810103126101e65750620f424081612ed96001600160801b0393612e42565b50612eeb608060208301519201612e42565b509150612e8e565b3d9150612ead565b6040513d6000823e3d90fd5b6001600160801b039182169082160391908211611c9e57565b15612f2757565b60405162461bcd60e51b815260206004820152601860248201527f496e707574206164647265737320697320696e76616c696400000000000000006044820152606490fd5b6000546001600160a01b03163303612f8057565b606460405162461bcd60e51b815260206004820152602060248201527f4f776e61626c653a2063616c6c6572206973206e6f7420746865206f776e65726044820152fdfea2646970667358221220250b2e4e21bdfb40ea0f7b18ce3c2b5810f5cfe5ee9742e6e5c52a644b23ddd764736f6c63430008120033","linkReferences":{}},"methodIdentifiers":{"PRECISION()":"aaf5eb68","amint()":"503e6322","amintLimit()":"412cfc94","borrowing()":"60b415ed","borrowingContract()":"84a965ed","calculateCumulativeRate(uint128)":"b87c3dc3","cdsCount()":"df6f05e7","cdsDetails(address)":"880e8e3b","deposit(uint128,uint128,bool,uint128)":"b0b6f3c6","ethVault()":"5a20329c","fallbackEthPrice()":"77b7cda6","getCDSDepositDetails(address,uint64)":"4721bae8","lastCumulativeRate()":"8e4db39a","lastEthPrice()":"7038fc4e","liquidationIndexToInfo(uint128)":"d3e3413f","multiSign()":"9e6fe439","owner()":"8da5cb5b","redeemUSDT(uint128,uint64,uint64)":"46696df3","renounceOwnership()":"715018a6","setAmintLimit(uint8)":"84637c26","setBorrowingContract(address)":"78fdaf3f","setTreasury(address)":"f0f44260","setUsdtLimit(uint64)":"7bf5e245","setWithdrawTimeLimit(uint64)":"868c10d2","totalAvailableLiquidationAmount()":"dc91e752","totalCdsDepositedAmount()":"2bb2ea62","transferOwnership(address)":"f2fde38b","treasury()":"61d027b3","treasuryAddress()":"c5f956af","updateLiquidationInfo(uint128,(uint128,uint128,uint128,uint256))":"b3013d4d","updateTotalAvailableLiquidationAmount(uint256)":"4cae95d3","updateTotalCdsDepositedAmount(uint128)":"dc55b193","usdt()":"2f48ab7d","usdtAmountDepositedTillNow()":"76a3fb3e","usdtLimit()":"f57ff39c","withdraw(uint64)":"750f0acc","withdrawTimeLimit()":"4f04a86b"},"id":4}