{"abi":[{"type":"constructor","inputs":[{"name":"_trinity","type":"address","internalType":"address"},{"name":"priceFeed","type":"address","internalType":"address"},{"name":"_usdt","type":"address","internalType":"address"}],"stateMutability":"nonpayable"},{"type":"receive","stateMutability":"payable"},{"type":"function","name":"PRECISION","inputs":[],"outputs":[{"name":"","type":"uint128","internalType":"uint128"}],"stateMutability":"view"},{"type":"function","name":"Trinity_token","inputs":[],"outputs":[{"name":"","type":"address","internalType":"contract ITrinityToken"}],"stateMutability":"view"},{"type":"function","name":"amintLimit","inputs":[],"outputs":[{"name":"","type":"uint8","internalType":"uint8"}],"stateMutability":"view"},{"type":"function","name":"borrowing","inputs":[],"outputs":[{"name":"","type":"address","internalType":"contract IBorrowing"}],"stateMutability":"view"},{"type":"function","name":"borrowingContract","inputs":[],"outputs":[{"name":"","type":"address","internalType":"address"}],"stateMutability":"view"},{"type":"function","name":"calculateCumulativeRate","inputs":[{"name":"fees","type":"uint128","internalType":"uint128"}],"outputs":[{"name":"","type":"uint128","internalType":"uint128"}],"stateMutability":"nonpayable"},{"type":"function","name":"cdsCount","inputs":[],"outputs":[{"name":"","type":"uint64","internalType":"uint64"}],"stateMutability":"view"},{"type":"function","name":"cdsDetails","inputs":[{"name":"","type":"address","internalType":"address"}],"outputs":[{"name":"index","type":"uint64","internalType":"uint64"},{"name":"hasDeposited","type":"bool","internalType":"bool"}],"stateMutability":"view"},{"type":"function","name":"deposit","inputs":[{"name":"usdtAmount","type":"uint128","internalType":"uint128"},{"name":"amintAmount","type":"uint128","internalType":"uint128"},{"name":"_liquidate","type":"bool","internalType":"bool"},{"name":"_liquidationAmount","type":"uint128","internalType":"uint128"}],"outputs":[],"stateMutability":"nonpayable"},{"type":"function","name":"ethVault","inputs":[],"outputs":[{"name":"","type":"address","internalType":"address"}],"stateMutability":"view"},{"type":"function","name":"fallbackEthPrice","inputs":[],"outputs":[{"name":"","type":"uint128","internalType":"uint128"}],"stateMutability":"view"},{"type":"function","name":"getCDSDepositDetails","inputs":[{"name":"depositor","type":"address","internalType":"address"},{"name":"index","type":"uint64","internalType":"uint64"}],"outputs":[{"name":"","type":"tuple","internalType":"struct CDSTest.CdsAccountDetails","components":[{"name":"depositedTime","type":"uint64","internalType":"uint64"},{"name":"depositedAmount","type":"uint128","internalType":"uint128"},{"name":"withdrawedTime","type":"uint64","internalType":"uint64"},{"name":"withdrawedAmount","type":"uint128","internalType":"uint128"},{"name":"withdrawed","type":"bool","internalType":"bool"},{"name":"depositPrice","type":"uint128","internalType":"uint128"},{"name":"depositValue","type":"uint128","internalType":"uint128"},{"name":"optedLiquidation","type":"bool","internalType":"bool"},{"name":"InitialLiquidationAmount","type":"uint128","internalType":"uint128"},{"name":"liquidationAmount","type":"uint128","internalType":"uint128"},{"name":"liquidationindex","type":"uint128","internalType":"uint128"},{"name":"normalizedAmount","type":"uint128","internalType":"uint128"}]},{"name":"","type":"uint64","internalType":"uint64"}],"stateMutability":"view"},{"type":"function","name":"lastCumulativeRate","inputs":[],"outputs":[{"name":"","type":"uint128","internalType":"uint128"}],"stateMutability":"view"},{"type":"function","name":"lastEthPrice","inputs":[],"outputs":[{"name":"","type":"uint128","internalType":"uint128"}],"stateMutability":"view"},{"type":"function","name":"liquidationIndexToInfo","inputs":[{"name":"liquidationIndex","type":"uint128","internalType":"uint128"}],"outputs":[{"name":"liquidationAmount","type":"uint128","internalType":"uint128"},{"name":"profits","type":"uint128","internalType":"uint128"},{"name":"ethAmount","type":"uint128","internalType":"uint128"},{"name":"availableLiquidationAmount","type":"uint256","internalType":"uint256"}],"stateMutability":"view"},{"type":"function","name":"multiSign","inputs":[],"outputs":[{"name":"","type":"address","internalType":"contract MultiSign"}],"stateMutability":"view"},{"type":"function","name":"owner","inputs":[],"outputs":[{"name":"","type":"address","internalType":"address"}],"stateMutability":"view"},{"type":"function","name":"pause","inputs":[],"outputs":[],"stateMutability":"nonpayable"},{"type":"function","name":"paused","inputs":[],"outputs":[{"name":"","type":"bool","internalType":"bool"}],"stateMutability":"view"},{"type":"function","name":"redeemUSDT","inputs":[{"name":"_amintAmount","type":"uint128","internalType":"uint128"},{"name":"amintPrice","type":"uint64","internalType":"uint64"},{"name":"usdtPrice","type":"uint64","internalType":"uint64"}],"outputs":[],"stateMutability":"nonpayable"},{"type":"function","name":"renounceOwnership","inputs":[],"outputs":[],"stateMutability":"nonpayable"},{"type":"function","name":"setAmintLimit","inputs":[{"name":"percent","type":"uint8","internalType":"uint8"}],"outputs":[],"stateMutability":"nonpayable"},{"type":"function","name":"setBorrowingContract","inputs":[{"name":"_address","type":"address","internalType":"address"}],"outputs":[],"stateMutability":"nonpayable"},{"type":"function","name":"setTreasury","inputs":[{"name":"_treasury","type":"address","internalType":"address"}],"outputs":[],"stateMutability":"nonpayable"},{"type":"function","name":"setUsdtLimit","inputs":[{"name":"amount","type":"uint64","internalType":"uint64"}],"outputs":[],"stateMutability":"nonpayable"},{"type":"function","name":"setWithdrawTimeLimit","inputs":[{"name":"_timeLimit","type":"uint64","internalType":"uint64"}],"outputs":[],"stateMutability":"nonpayable"},{"type":"function","name":"totalAvailableLiquidationAmount","inputs":[],"outputs":[{"name":"","type":"uint256","internalType":"uint256"}],"stateMutability":"view"},{"type":"function","name":"totalCdsDepositedAmount","inputs":[],"outputs":[{"name":"","type":"uint128","internalType":"uint128"}],"stateMutability":"view"},{"type":"function","name":"transferOwnership","inputs":[{"name":"newOwner","type":"address","internalType":"address"}],"outputs":[],"stateMutability":"nonpayable"},{"type":"function","name":"treasury","inputs":[],"outputs":[{"name":"","type":"address","internalType":"contract ITreasury"}],"stateMutability":"view"},{"type":"function","name":"treasuryAddress","inputs":[],"outputs":[{"name":"","type":"address","internalType":"address"}],"stateMutability":"view"},{"type":"function","name":"unpause","inputs":[],"outputs":[],"stateMutability":"nonpayable"},{"type":"function","name":"updateLiquidationInfo","inputs":[{"name":"index","type":"uint128","internalType":"uint128"},{"name":"liquidationData","type":"tuple","internalType":"struct CDSTest.LiquidationInfo","components":[{"name":"liquidationAmount","type":"uint128","internalType":"uint128"},{"name":"profits","type":"uint128","internalType":"uint128"},{"name":"ethAmount","type":"uint128","internalType":"uint128"},{"name":"availableLiquidationAmount","type":"uint256","internalType":"uint256"}]}],"outputs":[],"stateMutability":"nonpayable"},{"type":"function","name":"updateTotalAvailableLiquidationAmount","inputs":[{"name":"amount","type":"uint256","internalType":"uint256"}],"outputs":[],"stateMutability":"nonpayable"},{"type":"function","name":"updateTotalCdsDepositedAmount","inputs":[{"name":"_amount","type":"uint128","internalType":"uint128"}],"outputs":[],"stateMutability":"nonpayable"},{"type":"function","name":"usdt","inputs":[],"outputs":[{"name":"","type":"address","internalType":"contract IERC20"}],"stateMutability":"view"},{"type":"function","name":"usdtAmountDepositedTillNow","inputs":[],"outputs":[{"name":"","type":"uint256","internalType":"uint256"}],"stateMutability":"view"},{"type":"function","name":"usdtLimit","inputs":[],"outputs":[{"name":"","type":"uint64","internalType":"uint64"}],"stateMutability":"view"},{"type":"function","name":"withdraw","inputs":[{"name":"_index","type":"uint64","internalType":"uint64"}],"outputs":[],"stateMutability":"nonpayable"},{"type":"function","name":"withdrawTimeLimit","inputs":[],"outputs":[{"name":"","type":"uint64","internalType":"uint64"}],"stateMutability":"view"},{"type":"event","name":"Deposit","inputs":[{"name":"depositedAmint","type":"uint128","indexed":false,"internalType":"uint128"},{"name":"index","type":"uint64","indexed":false,"internalType":"uint64"},{"name":"liquidationAmount","type":"uint128","indexed":false,"internalType":"uint128"},{"name":"normalizedAmount","type":"uint128","indexed":false,"internalType":"uint128"},{"name":"depositVal","type":"uint128","indexed":false,"internalType":"uint128"}],"anonymous":false},{"type":"event","name":"OwnershipTransferred","inputs":[{"name":"previousOwner","type":"address","indexed":true,"internalType":"address"},{"name":"newOwner","type":"address","indexed":true,"internalType":"address"}],"anonymous":false},{"type":"event","name":"Paused","inputs":[{"name":"account","type":"address","indexed":false,"internalType":"address"}],"anonymous":false},{"type":"event","name":"Unpaused","inputs":[{"name":"account","type":"address","indexed":false,"internalType":"address"}],"anonymous":false},{"type":"event","name":"Withdraw","inputs":[{"name":"withdrewAmint","type":"uint128","indexed":false,"internalType":"uint128"},{"name":"withdrawETH","type":"uint128","indexed":false,"internalType":"uint128"}],"anonymous":false}],"bytecode":{"object":"0x60a0604052600e80546001600160801b03191664e8d4a510001790553480156200002857600080fd5b5060405162003afd38038062003afd8339810160408190526200004b91620001e6565b6200005633620000db565b6000805460ff60a01b191690556001600160a01b03838116608052600580546001600160a01b03199081168484161790915560038054909116918416919091179055620000a26200012b565b600980546001600160801b03199081166001600160801b0393841617909155600e54600c805491909316911617905550620002c0915050565b600080546001600160a01b038381166001600160a01b0319831681178455604051919092169283917f8be0079c531659141344cd1fd0a4f28419497f9722a3daafe3b4186f6b6457e09190a35050565b600080600360009054906101000a90046001600160a01b03166001600160a01b031663feaf968c6040518163ffffffff1660e01b815260040160a060405180830381865afa15801562000182573d6000803e3d6000fd5b505050506040513d601f19601f82011682018060405250810190620001a8919062000248565b50919350839250620001c29150620f42409050826200029d565b9250505090565b80516001600160a01b0381168114620001e157600080fd5b919050565b600080600060608486031215620001fc57600080fd5b6200020784620001c9565b92506200021760208501620001c9565b91506200022760408501620001c9565b90509250925092565b80516001600160501b0381168114620001e157600080fd5b600080600080600060a086880312156200026157600080fd5b6200026c8662000230565b9450602086015193506040860151925060608601519150620002916080870162000230565b90509295509295909350565b600082620002bb57634e487b7160e01b600052601260045260246000fd5b500490565b6080516137e9620003146000396000818161025d01528181610b2a01528181610bff0152818161167c015281816118c401528181611f1a01528181612121015281816121f8015261241801526137e96000f3fe60806040526004361061023f5760003560e01c80638456cb591161012e578063b3013d4d116100ab578063dc91e7521161006f578063dc91e7521461097f578063df6f05e714610995578063f0f44260146109b5578063f2fde38b146109d5578063f57ff39c146109f557600080fd5b8063b3013d4d1461081e578063b87c3dc314610898578063c5f956af146108b8578063d3e3413f146108d8578063dc55b1931461095f57600080fd5b80638da5cb5b116100f25780638da5cb5b146107805780638e4db39a1461079e5780639e6fe439146107be578063aaf5eb68146107de578063b0b6f3c6146107fe57600080fd5b80638456cb59146106aa57806384637c26146106bf57806384a965ed146106df578063868c10d2146106ff578063880e8e3b1461071f57600080fd5b80635c975abb116101bc578063750f0acc11610180578063750f0acc146105ff57806376a3fb3e1461061f57806377b7cda61461064357806378fdaf3f1461066a5780637bf5e2451461068a57600080fd5b80635c975abb1461056057806360b415ed1461058a57806361d027b3146105aa5780637038fc4e146105ca578063715018a6146105ea57600080fd5b806346696df31161020357806346696df3146103455780634721bae8146103655780634cae95d3146104e15780634f04a86b146105015780635a20329c1461054057600080fd5b80630df03e411461024b5780632bb2ea621461029c5780632f48ab7d146102db5780633f4ba83a146102fb578063412cfc941461031257600080fd5b3661024657005b600080fd5b34801561025757600080fd5b5061027f7f000000000000000000000000000000000000000000000000000000000000000081565b6040516001600160a01b0390911681526020015b60405180910390f35b3480156102a857600080fd5b50600a546102c390600160801b90046001600160801b031681565b6040516001600160801b039091168152602001610293565b3480156102e757600080fd5b5060055461027f906001600160a01b031681565b34801561030757600080fd5b50610310610a1c565b005b34801561031e57600080fd5b50600c5461033390600160801b900460ff1681565b60405160ff9091168152602001610293565b34801561035157600080fd5b5061031061036036600461317b565b610aa4565b34801561037157600080fd5b506104d36103803660046131d7565b6040805161018081018252600080825260208201819052918101829052606081018290526080810182905260a0810182905260c0810182905260e08101829052610100810182905261012081018290526101408101829052610160810191909152506001600160a01b0382166000818152600f602081815260408084206001600160401b038088168652600180830185528387209790965293835254815161018081018352865480861682526001600160801b03600160401b8204811695830195909552600160c01b900485169281019290925293850154808316606083015260ff600160801b91829004811615156080840152600287015480851660a0850152829004841660c08401526003870154908116151560e084015261010090819004841690830152600486015480841661012084015204821661014082015260059094015416610160840152169250929050565b60405161029392919061320a565b3480156104ed57600080fd5b506103106104fc366004613321565b610e68565b34801561050d57600080fd5b50600a5461052890600160401b90046001600160401b031681565b6040516001600160401b039091168152602001610293565b34801561054c57600080fd5b5060075461027f906001600160a01b031681565b34801561056c57600080fd5b50600054600160a01b900460ff166040519015158152602001610293565b34801561059657600080fd5b5060015461027f906001600160a01b031681565b3480156105b657600080fd5b5060025461027f906001600160a01b031681565b3480156105d657600080fd5b506009546102c3906001600160801b031681565b3480156105f657600080fd5b50610310610ef8565b34801561060b57600080fd5b5061031061061a36600461333a565b610f0a565b34801561062b57600080fd5b50610635600d5481565b604051908152602001610293565b34801561064f57600080fd5b506009546102c390600160801b90046001600160801b031681565b34801561067657600080fd5b50610310610685366004613355565b6119ff565b34801561069657600080fd5b506103106106a536600461333a565b611a9b565b3480156106b657600080fd5b50610310611b29565b3480156106cb57600080fd5b506103106106da366004613370565b611baf565b3480156106eb57600080fd5b5060065461027f906001600160a01b031681565b34801561070b57600080fd5b5061031061071a36600461333a565b611c2a565b34801561072b57600080fd5b5061076161073a366004613355565b600f602052600090815260409020546001600160401b03811690600160401b900460ff1682565b604080516001600160401b039093168352901515602083015201610293565b34801561078c57600080fd5b506000546001600160a01b031661027f565b3480156107aa57600080fd5b50600c546102c3906001600160801b031681565b3480156107ca57600080fd5b5060045461027f906001600160a01b031681565b3480156107ea57600080fd5b50600e546102c3906001600160801b031681565b34801561080a57600080fd5b506103106108193660046133a1565b611cc7565b34801561082a57600080fd5b506103106108393660046133fd565b6001600160801b039182166000908152601060209081526040918290208351918401518516600160801b0291851691909117815590820151600182018054919094166001600160801b0319919091161790925560600151600290910155565b3480156108a457600080fd5b506102c36108b33660046134a7565b612a3e565b3480156108c457600080fd5b5060085461027f906001600160a01b031681565b3480156108e457600080fd5b5061092a6108f33660046134a7565b6010602052600090815260409020805460018201546002909201546001600160801b0380831693600160801b909304811692169084565b60405161029394939291906001600160801b039485168152928416602084015292166040820152606081019190915260800190565b34801561096b57600080fd5b5061031061097a3660046134a7565b612c7f565b34801561098b57600080fd5b50610635600b5481565b3480156109a157600080fd5b50600a54610528906001600160401b031681565b3480156109c157600080fd5b506103106109d0366004613355565b612cca565b3480156109e157600080fd5b506103106109f0366004613355565b612d66565b348015610a0157600080fd5b50600c5461052890600160881b90046001600160401b031681565b610a24612ddf565b6004805460408051631851865560e21b815290516001600160a01b0390921692636146195492828201926020929082900301816000875af1158015610a6d573d6000803e3d6000fd5b505050506040513d601f19601f82011682018060405250810190610a9191906134c4565b610a9a57600080fd5b610aa2612e39565b565b610aac612e8e565b826001600160801b0316600003610b0a5760405162461bcd60e51b815260206004820152601960248201527f416d6f756e742073686f756c64206e6f74206265207a65726f0000000000000060448201526064015b60405180910390fd5b6040516370a0823160e01b81523360048201526001600160801b038416907f00000000000000000000000000000000000000000000000000000000000000006001600160a01b0316906370a0823190602401602060405180830381865afa158015610b79573d6000803e3d6000fd5b505050506040513d601f19601f82011682018060405250810190610b9d91906134e1565b1015610be25760405162461bcd60e51b8152602060048201526014602482015273496e73756666696369656e742062616c616e636560601b6044820152606401610b01565b6008546040516323b872dd60e01b81526000916001600160a01b037f00000000000000000000000000000000000000000000000000000000000000008116926323b872dd92610c3a92339291169089906004016134fa565b6020604051808303816000875af1158015610c59573d6000803e3d6000fd5b505050506040513d601f19601f82011682018060405250810190610c7d91906134c4565b9050600181151514610cdf5760405162461bcd60e51b815260206004820152602560248201527f5472696e697479205472616e73666572206661696c656420696e2072656465656044820152641b5554d11560da1b6064820152608401610b01565b600e54600090610d02906001600160401b038516906001600160801b031661353c565b610d15866001600160401b03871661353c565b610d1f919061357d565b60025460405163e613610560e01b81529192506001600160a01b03169063e613610590610d5290309085906004016135a3565b600060405180830381600087803b158015610d6c57600080fd5b505af1158015610d80573d6000803e3d6000fd5b50506005546008546040516323b872dd60e01b8152600094506001600160a01b0392831693506323b872dd92610dbe921690339087906004016134fa565b6020604051808303816000875af1158015610ddd573d6000803e3d6000fd5b505050506040513d601f19601f82011682018060405250810190610e0191906134c4565b9050600181151514610e605760405162461bcd60e51b815260206004820152602260248201527f55534454205472616e73666572206661696c656420696e2072656465656d5553604482015261111560f21b6064820152608401610b01565b505050505050565b6006546001600160a01b03163314610ede5760405162461bcd60e51b815260206004820152603360248201527f546869732066756e6374696f6e2063616e206f6e6c792063616c6c656420627960448201527208189bdc9c9bddda5b99c818dbdb9d1c9858dd606a1b6064820152608401610b01565b80600b6000828254610ef091906135c5565b909155505050565b610f00612ddf565b610aa26000612edb565b610f12612e8e565b336000908152600f60205260409020546001600160401b0380831691161015610f8b5760405162461bcd60e51b815260206004820152602560248201527f7573657220646f65736e277420686176652074686520737065636966696564206044820152640d2dcc8caf60db1b6064820152608401610b01565b336000908152600f602090815260408083206001600160401b038516845260019081019092529091200154600160801b900460ff16156110015760405162461bcd60e51b815260206004820152601160248201527020b63932b0b23c903bb4ba34323930bbb760791b6044820152606401610b01565b336000818152600f602081815260408084206001600160401b038088168652600182810185529286208301805460ff60801b1916600160801b17905595909452919052905442921614801561105f5750816001600160401b03166001145b156110a257600a805460009061107d906001600160401b03166135de565b91906101000a8154816001600160401b0302191690836001600160401b031602179055505b60006110ac612f2b565b9050806001600160801b03166000036110f75760405162461bcd60e51b815260206004820152600d60248201526c13dc9858db194811985a5b1959609a1b6044820152606401610b01565b336000908152600f602090815260408083206001600160401b038716845260010190915281205461113990600160401b90046001600160801b0316600261353c565b600e54600c54336000908152600f602090815260408083206001600160401b038b1684526001019091529020600501546001600160801b0392831692611182928116911661353c565b61118c919061357d565b611197338786612fc4565b6111a19190613601565b6111ab9190613628565b336000908152600f602090815260408083206001600160401b0389811685526001918201909352922091820180546001600160801b0319166001600160801b03851617905581546001600160c01b0316600160c01b918716919091021781556003015490915060ff161561180157600154604080516338a912d560e01b815290516000926001600160a01b0316916338a912d59160048083019260209291908290030181865afa158015611263573d6000803e3d6000fd5b505050506040513d601f19601f820116820180604052508101906112879190613648565b336000908152600f602090815260408083206001600160401b038a168452600101909152812060040154919250600160801b9091046001600160801b031690815b836001600160801b0316816001600160801b03161161153757336000908152600f602090815260408083206001600160401b038c1684526001019091529020600401546001600160801b03168015611524576001600160801b038083166000908152601060209081526040808320815160808101835281548087168252600160801b90048616938101939093526001810154909416908201526002909201546060830181905261137d846402540be40061353c565b611387919061357d565b905060006402540be4008284602001516113a1919061353c565b6113ab919061357d565b905080600f6000336001600160a01b03166001600160a01b0316815260200190815260200160002060010160008e6001600160401b03166001600160401b0316815260200190815260200160002060040160008282829054906101000a90046001600160801b031661141d9190613601565b92506101000a8154816001600160801b0302191690836001600160801b031602179055506402540be400828460000151611457919061353c565b611461919061357d565b600f6000336001600160a01b03166001600160a01b0316815260200190815260200160002060010160008e6001600160401b03166001600160401b0316815260200190815260200160002060040160008282829054906101000a90046001600160801b03166114d09190613628565b92506101000a8154816001600160801b0302191690836001600160801b031602179055506402540be40082846040015161150a919061353c565b611514919061357d565b61151e9087613601565b95505050505b508061152f81613665565b9150506112c8565b50336000908152600f602090815260408083206001600160401b038b168452600101909152812060040154611575906001600160801b031686613601565b905080600a60108282829054906101000a90046001600160801b031661159b9190613628565b82546101009290920a6001600160801b03818102199093169183160217909155336000908152600f602090815260408083206001600160401b038e1684526001908101909252918290200180546001600160801b031916928516929092179091556002549051630adfd5a560e21b81526001600160a01b039091169150632b7f56949061162e90309085906004016135a3565b600060405180830381600087803b15801561164857600080fd5b505af115801561165c573d6000803e3d6000fd5b50506008546040516323b872dd60e01b8152600093506001600160a01b037f0000000000000000000000000000000000000000000000000000000000000000811693506323b872dd926116b892911690339087906004016134fa565b6020604051808303816000875af11580156116d7573d6000803e3d6000fd5b505050506040513d601f19601f820116820180604052508101906116fb91906134c4565b905060018115151461174f5760405162461bcd60e51b815260206004820152601e60248201527f5472616e7373756363657373656420696e2063647320776974686472617700006044820152606401610b01565b600254604051635822b66d60e01b81526001600160a01b0390911690635822b66d9061178190339087906004016135a3565b600060405180830381600087803b15801561179b57600080fd5b505af11580156117af573d6000803e3d6000fd5b5050604080516001600160801b038087168252871660208201527f02d30220fb33c212455a8cbb2cf068095e080a18a527044b34360e67a705addd935001905060405180910390a150505050506119db565b336000908152600f602090815260408083206001600160401b03881684526001908101909252918290200180546001600160801b0319166001600160801b0384161790556002549051630adfd5a560e21b81526001600160a01b0390911690632b7f56949061187690309085906004016135a3565b600060405180830381600087803b15801561189057600080fd5b505af11580156118a4573d6000803e3d6000fd5b50506008546040516323b872dd60e01b8152600093506001600160a01b037f0000000000000000000000000000000000000000000000000000000000000000811693506323b872dd9261190092911690339087906004016134fa565b6020604051808303816000875af115801561191f573d6000803e3d6000fd5b505050506040513d601f19601f8201168201806040525081019061194391906134c4565b90506001811515146119975760405162461bcd60e51b815260206004820152601f60248201527f5472616e73666572206661696c656420696e20636473207769746864726177006044820152606401610b01565b604080516001600160801b0384168152600060208201527f02d30220fb33c212455a8cbb2cf068095e080a18a527044b34360e67a705addd910160405180910390a1505b6009546001600160801b038381169116146119f9576119f982613083565b50505050565b611a07612ddf565b6001600160a01b03811615801590611a2857506001600160a01b0381163b15155b611a6f5760405162461bcd60e51b8152602060048201526018602482015277125b9c1d5d081859191c995cdcc81a5cc81a5b9d985b1a5960421b6044820152606401610b01565b600680546001600160a01b039092166001600160a01b0319928316811790915560018054909216179055565b611aa3612ddf565b806001600160401b0316600003611afc5760405162461bcd60e51b815260206004820152601860248201527f55534454206c696d69742063616e2774206265207a65726f00000000000000006044820152606401610b01565b600c80546001600160401b03909216600160881b0267ffffffffffffffff60881b19909216919091179055565b611b31612ddf565b6004805460408051631851865560e21b815290516001600160a01b0390921692636146195492828201926020929082900301816000875af1158015611b7a573d6000803e3d6000fd5b505050506040513d601f19601f82011682018060405250810190611b9e91906134c4565b611ba757600080fd5b610aa26130ac565b611bb7612ddf565b8060ff16600003611c0a5760405162461bcd60e51b815260206004820152601960248201527f416d696e74206c696d69742063616e2774206265207a65726f000000000000006044820152606401610b01565b600c805460ff909216600160801b0260ff60801b19909216919091179055565b611c32612ddf565b806001600160401b0316600003611c955760405162461bcd60e51b815260206004820152602160248201527f57697468647261772074696d65206c696d69742063616e2774206265207a65726044820152606f60f81b6064820152608401610b01565b600a80546001600160401b03909216600160401b026fffffffffffffffff000000000000000019909216919091179055565b611ccf612e8e565b600e546000908490611cea906001600160801b03168761353c565b611cf49190613601565b9050806001600160801b0316600003611d595760405162461bcd60e51b815260206004820152602160248201527f4465706f73697420616d6f756e742073686f756c64206e6f74206265207a65726044820152606f60f81b6064820152608401610b01565b611d638486613601565b6001600160801b0316826001600160801b031610611de25760405162461bcd60e51b815260206004820152603660248201527f4c69717569646174696f6e20616d6f756e742063616e27742067726561746572604482015275081d1a185b8819195c1bdcda5d195908185b5bdd5b9d60521b6064820152608401610b01565b600c54600d54600160881b9091046001600160401b03161115611e7457600e546001600160801b0380831691611e1991168761353c565b6001600160801b031614611e6f5760405162461bcd60e51b815260206004820152601b60248201527f31303025206f6620616d6f756e74206d757374206265205553445400000000006044820152606401610b01565b611fab565b600c54606490611e8f908390600160801b900460ff1661353c565b611e99919061357d565b6001600160801b0316846001600160801b03161015611efa5760405162461bcd60e51b815260206004820152601960248201527f496e73756666696369656e7420414d494e5420616d6f756e74000000000000006044820152606401610b01565b6040516370a0823160e01b81523360048201526001600160801b038516907f00000000000000000000000000000000000000000000000000000000000000006001600160a01b0316906370a0823190602401602060405180830381865afa158015611f69573d6000803e3d6000fd5b505050506040513d601f19601f82011682018060405250810190611f8d91906134e1565b1015611fab5760405162461bcd60e51b8152600401610b019061368b565b6001600160801b03851615801590611fcb57506001600160801b03841615155b156121ca576005546040516370a0823160e01b81523360048201526001600160801b038716916001600160a01b0316906370a0823190602401602060405180830381865afa158015612021573d6000803e3d6000fd5b505050506040513d601f19601f8201168201806040525081019061204591906134e1565b10156120635760405162461bcd60e51b8152600401610b019061368b565b6005546008546040516323b872dd60e01b81526000926001600160a01b03908116926323b872dd9261209d92339216908b906004016134fa565b6020604051808303816000875af11580156120bc573d6000803e3d6000fd5b505050506040513d601f19601f820116820180604052508101906120e091906134c4565b90506001811515146121045760405162461bcd60e51b8152600401610b01906136cf565b6008546040516323b872dd60e01b81526000916001600160a01b037f00000000000000000000000000000000000000000000000000000000000000008116926323b872dd9261215c9233929116908b906004016134fa565b6020604051808303816000875af115801561217b573d6000803e3d6000fd5b505050506040513d601f19601f8201168201806040525081019061219f91906134c4565b90506001811515146121c35760405162461bcd60e51b8152600401610b01906136cf565b50506123d6565b846001600160801b03166000036122a0576008546040516323b872dd60e01b81526000916001600160a01b037f00000000000000000000000000000000000000000000000000000000000000008116926323b872dd926122339233929116908a906004016134fa565b6020604051808303816000875af1158015612252573d6000803e3d6000fd5b505050506040513d601f19601f8201168201806040525081019061227691906134c4565b905060018115151461229a5760405162461bcd60e51b8152600401610b01906136cf565b506123d6565b6005546040516370a0823160e01b81523360048201526001600160801b038716916001600160a01b0316906370a0823190602401602060405180830381865afa1580156122f1573d6000803e3d6000fd5b505050506040513d601f19601f8201168201806040525081019061231591906134e1565b10156123335760405162461bcd60e51b8152600401610b019061368b565b6005546008546040516323b872dd60e01b81526000926001600160a01b03908116926323b872dd9261236d92339216908b906004016134fa565b6020604051808303816000875af115801561238c573d6000803e3d6000fd5b505050506040513d601f19601f820116820180604052508101906123b091906134c4565b90506001811515146123d45760405162461bcd60e51b8152600401610b01906136cf565b505b846001600160801b0316600d60008282546123f19190613706565b90915550506001600160801b038516156124dd57600854600e546000916001600160a01b037f00000000000000000000000000000000000000000000000000000000000000008116926340c10f199290911690612457906001600160801b03168a61353c565b6040518363ffffffff1660e01b81526004016124749291906135a3565b6020604051808303816000875af1158015612493573d6000803e3d6000fd5b505050506040513d601f19601f820116820180604052508101906124b791906134c4565b90506001811515146124db5760405162461bcd60e51b8152600401610b01906136cf565b505b60006124e7612f2b565b9050806001600160801b03166000036125325760405162461bcd60e51b815260206004820152600d60248201526c13dc9858db194811985a5b1959609a1b6044820152606401610b01565b336000908152600f6020526040812054600160401b900460ff166125be5750336000908152600f60205260408120805468ffffffffffffffffff191668010000000000000001179055600a805460019290612595906001600160401b0316613719565b91906101000a8154816001600160401b0302191690836001600160401b0316021790555061260a565b336000908152600f6020526040812080549091906125e4906001600160401b0316613719565b91906101000a8154816001600160401b0302191690836001600160401b03160217905590505b336000908152600f602090815260408083206001600160401b03851684526001019091529020805477ffffffffffffffffffffffffffffffff00000000000000001916600160401b6001600160801b0386811691909102919091178255600290910180546001600160801b031916848316179055600a8054859260109161269a918591600160801b900416613601565b82546101009290920a6001600160801b03818102199093169183160217909155336000908152600f602090815260408083206001600160401b038781168552600191909101909252909120805467ffffffffffffffff191642909216919091179055600c54600e54908216925061271291168561353c565b61271c919061357d565b336000908152600f602090815260408083206001600160401b038616845260010190915290206005810180546001600160801b0319166001600160801b039390931692909217909155600301805460ff1916861580159190911790915561298357600160009054906101000a90046001600160a01b03166001600160a01b03166338a912d56040518163ffffffff1660e01b8152600401602060405180830381865afa1580156127d0573d6000803e3d6000fd5b505050506040513d601f19601f820116820180604052508101906127f49190613648565b6001600160801b031660000361284557336000908152600f602090815260408083206001600160401b0385168452600101909152902060040180546001600160801b0316600160801b179055612901565b600160009054906101000a90046001600160a01b03166001600160a01b03166338a912d56040518163ffffffff1660e01b8152600401602060405180830381865afa158015612898573d6000803e3d6000fd5b505050506040513d601f19601f820116820180604052508101906128bc9190613648565b336000908152600f602090815260408083206001600160401b0386168452600101909152902060040180546001600160801b03928316600160801b0292169190911790555b336000908152600f602090815260408083206001600160401b038516845260010190915281206004810180546001600160801b0319166001600160801b0388169081179091556003909101805470ffffffffffffffffffffffffffffffff0019166101008302179055600b80549192909161297d908490613706565b90915550505b6009546001600160801b038381169116146129a1576129a182613083565b336000908152600f602090815260408083206001600160401b0385168085526001909101835292819020600581015460029091015482516001600160801b03898116825294810195909552888416858401529083166060850152600160801b90049091166080830152517f0a5985aa28fedd5d60e042a47ad0dcb83381febf41639cd599c154a7fee13ca69181900360a00190a150505050505050565b6000816001600160801b0316600003612a995760405162461bcd60e51b815260206004820152601760248201527f466565732073686f756c64206e6f74206265207a65726f0000000000000000006044820152606401610b01565b600a54600090612aba908490600160801b90046001600160801b0316613601565b905082600a60108282829054906101000a90046001600160801b0316612ae09190613601565b92506101000a8154816001600160801b0302191690836001600160801b03160217905550600081600e60009054906101000a90046001600160801b031685612b28919061353c565b612b32919061357d565b90506000600260009054906101000a90046001600160a01b03166001600160a01b03166345aeb0ce6040518163ffffffff1660e01b81526004016020604051808303816000875af1158015612b8b573d6000803e3d6000fd5b505050506040513d601f19601f82011682018060405250810190612baf9190613648565b6001600160801b0316600003612c0457600e548290612bd8906001600160801b0316600161353c565b612be29190613601565b600c80546001600160801b0319166001600160801b0383161790559050612c77565b600e548290612c1d906001600160801b0316600161353c565b612c279190613601565b600c54612c3d91906001600160801b031661353c565b600e54909150612c56906001600160801b03168261357d565b600c80546001600160801b0319166001600160801b03929092169190911790555b949350505050565b80600a60108282829054906101000a90046001600160801b0316612ca39190613628565b92506101000a8154816001600160801b0302191690836001600160801b0316021790555050565b612cd2612ddf565b6001600160a01b03811615801590612cf357506001600160a01b0381163b15155b612d3a5760405162461bcd60e51b8152602060048201526018602482015277125b9c1d5d081859191c995cdcc81a5cc81a5b9d985b1a5960421b6044820152606401610b01565b600880546001600160a01b039092166001600160a01b0319928316811790915560028054909216179055565b612d6e612ddf565b6001600160a01b038116612dd35760405162461bcd60e51b815260206004820152602660248201527f4f776e61626c653a206e6577206f776e657220697320746865207a65726f206160448201526564647265737360d01b6064820152608401610b01565b612ddc81612edb565b50565b6000546001600160a01b03163314610aa25760405162461bcd60e51b815260206004820181905260248201527f4f776e61626c653a2063616c6c6572206973206e6f7420746865206f776e65726044820152606401610b01565b612e416130ef565b6000805460ff60a01b191690557f5db9ee0a495bf2e6ff9c91a7834c1ba4fdd244a5e8aa4e537bd38aeae4b073aa335b6040516001600160a01b03909116815260200160405180910390a1565b600054600160a01b900460ff1615610aa25760405162461bcd60e51b815260206004820152601060248201526f14185d5cd8589b194e881c185d5cd95960821b6044820152606401610b01565b600080546001600160a01b038381166001600160a01b0319831681178455604051919092169283917f8be0079c531659141344cd1fd0a4f28419497f9722a3daafe3b4186f6b6457e09190a35050565b600080600360009054906101000a90046001600160a01b03166001600160a01b031663feaf968c6040518163ffffffff1660e01b815260040160a060405180830381865afa158015612f81573d6000803e3d6000fd5b505050506040513d601f19601f82011682018060405250810190612fa5919061374f565b50919350839250612fbd9150620f424090508261379f565b9250505090565b336000908152600f602090815260408083206001600160401b03861684526001019091528120600201548190600160801b90046001600160801b03168161300b8183613628565b6001600160a01b0388166000908152600f602090815260408083206001600160401b038b168452600101909152812054919250600160401b9091046001600160801b031690620186a061305e848461353c565b613068919061357d565b90506130748183613628565b955050505050505b9392505050565b600980546001600160801b03196001600160801b03918216600160801b02169216919091179055565b6130b4612e8e565b6000805460ff60a01b1916600160a01b1790557f62e78cea01bee320cd4e420270b5ea74000d11b0c9f74754ebdbfc544b05a258612e713390565b600054600160a01b900460ff16610aa25760405162461bcd60e51b815260206004820152601460248201527314185d5cd8589b194e881b9bdd081c185d5cd95960621b6044820152606401610b01565b6001600160801b0381168114612ddc57600080fd5b803561315f8161313f565b919050565b80356001600160401b038116811461315f57600080fd5b60008060006060848603121561319057600080fd5b833561319b8161313f565b92506131a960208501613164565b91506131b760408501613164565b90509250925092565b80356001600160a01b038116811461315f57600080fd5b600080604083850312156131ea57600080fd5b6131f3836131c0565b915061320160208401613164565b90509250929050565b82516001600160401b031681526101a08101602084015161323660208401826001600160801b03169052565b50604084015161325160408401826001600160401b03169052565b50606084015161326c60608401826001600160801b03169052565b506080840151613280608084018215159052565b5060a084015161329b60a08401826001600160801b03169052565b5060c08401516132b660c08401826001600160801b03169052565b5060e08401516132ca60e084018215159052565b50610100848101516001600160801b0390811691840191909152610120808601518216908401526101408086015182169084015261016080860151909116908301526001600160401b03831661018083015261307c565b60006020828403121561333357600080fd5b5035919050565b60006020828403121561334c57600080fd5b61307c82613164565b60006020828403121561336757600080fd5b61307c826131c0565b60006020828403121561338257600080fd5b813560ff8116811461307c57600080fd5b8015158114612ddc57600080fd5b600080600080608085870312156133b757600080fd5b84356133c28161313f565b935060208501356133d28161313f565b925060408501356133e281613393565b915060608501356133f28161313f565b939692955090935050565b60008082840360a081121561341157600080fd5b833561341c8161313f565b92506080601f198201121561343057600080fd5b50604051608081018181106001600160401b038211171561346157634e487b7160e01b600052604160045260246000fd5b60405261347060208501613154565b815261347e60408501613154565b602082015261348f60608501613154565b60408201526080939093013560608401525092909150565b6000602082840312156134b957600080fd5b813561307c8161313f565b6000602082840312156134d657600080fd5b815161307c81613393565b6000602082840312156134f357600080fd5b5051919050565b6001600160a01b0393841681529190921660208201526001600160801b03909116604082015260600190565b634e487b7160e01b600052601160045260246000fd5b6001600160801b0381811683821602808216919082811461355f5761355f613526565b505092915050565b634e487b7160e01b600052601260045260246000fd5b60006001600160801b038084168061359757613597613567565b92169190910492915050565b6001600160a01b039290921682526001600160801b0316602082015260400190565b818103818111156135d8576135d8613526565b92915050565b60006001600160401b038216806135f7576135f7613526565b6000190192915050565b6001600160801b0381811683821601908082111561362157613621613526565b5092915050565b6001600160801b0382811682821603908082111561362157613621613526565b60006020828403121561365a57600080fd5b815161307c8161313f565b60006001600160801b0380831681810361368157613681613526565b6001019392505050565b60208082526024908201527f496e73756666696369656e742062616c616e63652077697468206d73672e7365604082015263373232b960e11b606082015260800190565b6020808252601e908201527f5472616e73666572206661696c656420696e20434453206465706f7369740000604082015260600190565b808201808211156135d8576135d8613526565b60006001600160401b0380831681810361368157613681613526565b805169ffffffffffffffffffff8116811461315f57600080fd5b600080600080600060a0868803121561376757600080fd5b61377086613735565b945060208601519350604086015192506060860151915061379360808701613735565b90509295509295909350565b6000826137ae576137ae613567565b50049056fea2646970667358221220f25c6a840da1e43ae7a90ea94f8a724637a1901d52c247cc32a4ba1c651717ae64736f6c63430008120033","linkReferences":{}},"methodIdentifiers":{"PRECISION()":"aaf5eb68","Trinity_token()":"0df03e41","amintLimit()":"412cfc94","borrowing()":"60b415ed","borrowingContract()":"84a965ed","calculateCumulativeRate(uint128)":"b87c3dc3","cdsCount()":"df6f05e7","cdsDetails(address)":"880e8e3b","deposit(uint128,uint128,bool,uint128)":"b0b6f3c6","ethVault()":"5a20329c","fallbackEthPrice()":"77b7cda6","getCDSDepositDetails(address,uint64)":"4721bae8","lastCumulativeRate()":"8e4db39a","lastEthPrice()":"7038fc4e","liquidationIndexToInfo(uint128)":"d3e3413f","multiSign()":"9e6fe439","owner()":"8da5cb5b","pause()":"8456cb59","paused()":"5c975abb","redeemUSDT(uint128,uint64,uint64)":"46696df3","renounceOwnership()":"715018a6","setAmintLimit(uint8)":"84637c26","setBorrowingContract(address)":"78fdaf3f","setTreasury(address)":"f0f44260","setUsdtLimit(uint64)":"7bf5e245","setWithdrawTimeLimit(uint64)":"868c10d2","totalAvailableLiquidationAmount()":"dc91e752","totalCdsDepositedAmount()":"2bb2ea62","transferOwnership(address)":"f2fde38b","treasury()":"61d027b3","treasuryAddress()":"c5f956af","unpause()":"3f4ba83a","updateLiquidationInfo(uint128,(uint128,uint128,uint128,uint256))":"b3013d4d","updateTotalAvailableLiquidationAmount(uint256)":"4cae95d3","updateTotalCdsDepositedAmount(uint128)":"dc55b193","usdt()":"2f48ab7d","usdtAmountDepositedTillNow()":"76a3fb3e","usdtLimit()":"f57ff39c","withdraw(uint64)":"750f0acc","withdrawTimeLimit()":"4f04a86b"},"id":4}