{"abi":[{"type":"function","name":"PRECISION","inputs":[],"outputs":[{"name":"","type":"uint128","internalType":"uint128"}],"stateMutability":"view"},{"type":"function","name":"UPGRADE_INTERFACE_VERSION","inputs":[],"outputs":[{"name":"","type":"string","internalType":"string"}],"stateMutability":"view"},{"type":"function","name":"amint","inputs":[],"outputs":[{"name":"","type":"address","internalType":"contract IAMINT"}],"stateMutability":"view"},{"type":"function","name":"amintLimit","inputs":[],"outputs":[{"name":"","type":"uint8","internalType":"uint8"}],"stateMutability":"view"},{"type":"function","name":"borrowing","inputs":[],"outputs":[{"name":"","type":"address","internalType":"contract IBorrowing"}],"stateMutability":"view"},{"type":"function","name":"borrowingContract","inputs":[],"outputs":[{"name":"","type":"address","internalType":"address"}],"stateMutability":"view"},{"type":"function","name":"burnedAmintInRedeem","inputs":[],"outputs":[{"name":"","type":"uint256","internalType":"uint256"}],"stateMutability":"view"},{"type":"function","name":"calculateCumulativeRate","inputs":[{"name":"fees","type":"uint128","internalType":"uint128"}],"outputs":[],"stateMutability":"nonpayable"},{"type":"function","name":"cdsCount","inputs":[],"outputs":[{"name":"","type":"uint64","internalType":"uint64"}],"stateMutability":"view"},{"type":"function","name":"cdsDetails","inputs":[{"name":"","type":"address","internalType":"address"}],"outputs":[{"name":"index","type":"uint64","internalType":"uint64"},{"name":"hasDeposited","type":"bool","internalType":"bool"}],"stateMutability":"view"},{"type":"function","name":"cumulativeValue","inputs":[],"outputs":[{"name":"","type":"uint128","internalType":"uint128"}],"stateMutability":"view"},{"type":"function","name":"cumulativeValueSign","inputs":[],"outputs":[{"name":"","type":"bool","internalType":"bool"}],"stateMutability":"view"},{"type":"function","name":"deposit","inputs":[{"name":"usdtAmount","type":"uint128","internalType":"uint128"},{"name":"amintAmount","type":"uint128","internalType":"uint128"},{"name":"_liquidate","type":"bool","internalType":"bool"},{"name":"_liquidationAmount","type":"uint128","internalType":"uint128"},{"name":"ethPrice","type":"uint128","internalType":"uint128"}],"outputs":[],"stateMutability":"nonpayable"},{"type":"function","name":"fallbackEthPrice","inputs":[],"outputs":[{"name":"","type":"uint128","internalType":"uint128"}],"stateMutability":"view"},{"type":"function","name":"getCDSDepositDetails","inputs":[{"name":"depositor","type":"address","internalType":"address"},{"name":"index","type":"uint64","internalType":"uint64"}],"outputs":[{"name":"","type":"tuple","internalType":"struct CDSTest.CdsAccountDetails","components":[{"name":"depositedTime","type":"uint64","internalType":"uint64"},{"name":"depositedAmount","type":"uint256","internalType":"uint256"},{"name":"withdrawedTime","type":"uint64","internalType":"uint64"},{"name":"withdrawedAmount","type":"uint256","internalType":"uint256"},{"name":"withdrawed","type":"bool","internalType":"bool"},{"name":"depositPrice","type":"uint128","internalType":"uint128"},{"name":"depositValue","type":"uint128","internalType":"uint128"},{"name":"depositValueSign","type":"bool","internalType":"bool"},{"name":"optedLiquidation","type":"bool","internalType":"bool"},{"name":"InitialLiquidationAmount","type":"uint128","internalType":"uint128"},{"name":"liquidationAmount","type":"uint128","internalType":"uint128"},{"name":"liquidationindex","type":"uint128","internalType":"uint128"},{"name":"normalizedAmount","type":"uint256","internalType":"uint256"}]},{"name":"","type":"uint64","internalType":"uint64"}],"stateMutability":"view"},{"type":"function","name":"initialize","inputs":[{"name":"_amint","type":"address","internalType":"address"},{"name":"priceFeed","type":"address","internalType":"address"},{"name":"_usdt","type":"address","internalType":"address"},{"name":"_multiSign","type":"address","internalType":"address"}],"outputs":[],"stateMutability":"nonpayable"},{"type":"function","name":"lastCumulativeRate","inputs":[],"outputs":[{"name":"","type":"uint128","internalType":"uint128"}],"stateMutability":"view"},{"type":"function","name":"lastEthPrice","inputs":[],"outputs":[{"name":"","type":"uint128","internalType":"uint128"}],"stateMutability":"view"},{"type":"function","name":"liquidationIndexToInfo","inputs":[{"name":"liquidationIndex","type":"uint128","internalType":"uint128"}],"outputs":[{"name":"liquidationAmount","type":"uint128","internalType":"uint128"},{"name":"profits","type":"uint128","internalType":"uint128"},{"name":"ethAmount","type":"uint128","internalType":"uint128"},{"name":"availableLiquidationAmount","type":"uint256","internalType":"uint256"}],"stateMutability":"view"},{"type":"function","name":"multiSign","inputs":[],"outputs":[{"name":"","type":"address","internalType":"contract IMultiSign"}],"stateMutability":"view"},{"type":"function","name":"owner","inputs":[],"outputs":[{"name":"","type":"address","internalType":"address"}],"stateMutability":"view"},{"type":"function","name":"proxiableUUID","inputs":[],"outputs":[{"name":"","type":"bytes32","internalType":"bytes32"}],"stateMutability":"view"},{"type":"function","name":"redeemUSDT","inputs":[{"name":"_amintAmount","type":"uint128","internalType":"uint128"},{"name":"amintPrice","type":"uint64","internalType":"uint64"},{"name":"usdtPrice","type":"uint64","internalType":"uint64"}],"outputs":[],"stateMutability":"nonpayable"},{"type":"function","name":"renounceOwnership","inputs":[],"outputs":[],"stateMutability":"nonpayable"},{"type":"function","name":"setAdmin","inputs":[{"name":"_admin","type":"address","internalType":"address"}],"outputs":[],"stateMutability":"nonpayable"},{"type":"function","name":"setAmintLimit","inputs":[{"name":"percent","type":"uint8","internalType":"uint8"}],"outputs":[],"stateMutability":"nonpayable"},{"type":"function","name":"setBorrowingContract","inputs":[{"name":"_address","type":"address","internalType":"address"}],"outputs":[],"stateMutability":"nonpayable"},{"type":"function","name":"setTreasury","inputs":[{"name":"_treasury","type":"address","internalType":"address"}],"outputs":[],"stateMutability":"nonpayable"},{"type":"function","name":"setUsdtLimit","inputs":[{"name":"amount","type":"uint64","internalType":"uint64"}],"outputs":[],"stateMutability":"nonpayable"},{"type":"function","name":"setWithdrawTimeLimit","inputs":[{"name":"_timeLimit","type":"uint64","internalType":"uint64"}],"outputs":[],"stateMutability":"nonpayable"},{"type":"function","name":"totalAvailableLiquidationAmount","inputs":[],"outputs":[{"name":"","type":"uint256","internalType":"uint256"}],"stateMutability":"view"},{"type":"function","name":"totalCdsDepositedAmount","inputs":[],"outputs":[{"name":"","type":"uint256","internalType":"uint256"}],"stateMutability":"view"},{"type":"function","name":"totalCdsDepositedAmountWithOptionFees","inputs":[],"outputs":[{"name":"","type":"uint256","internalType":"uint256"}],"stateMutability":"view"},{"type":"function","name":"transferOwnership","inputs":[{"name":"newOwner","type":"address","internalType":"address"}],"outputs":[],"stateMutability":"nonpayable"},{"type":"function","name":"treasury","inputs":[],"outputs":[{"name":"","type":"address","internalType":"contract ITreasury"}],"stateMutability":"view"},{"type":"function","name":"treasuryAddress","inputs":[],"outputs":[{"name":"","type":"address","internalType":"address"}],"stateMutability":"view"},{"type":"function","name":"updateLiquidationInfo","inputs":[{"name":"index","type":"uint128","internalType":"uint128"},{"name":"liquidationData","type":"tuple","internalType":"struct CDSTest.LiquidationInfo","components":[{"name":"liquidationAmount","type":"uint128","internalType":"uint128"},{"name":"profits","type":"uint128","internalType":"uint128"},{"name":"ethAmount","type":"uint128","internalType":"uint128"},{"name":"availableLiquidationAmount","type":"uint256","internalType":"uint256"}]}],"outputs":[],"stateMutability":"nonpayable"},{"type":"function","name":"updateTotalAvailableLiquidationAmount","inputs":[{"name":"amount","type":"uint256","internalType":"uint256"}],"outputs":[],"stateMutability":"nonpayable"},{"type":"function","name":"updateTotalCdsDepositedAmount","inputs":[{"name":"_amount","type":"uint128","internalType":"uint128"}],"outputs":[],"stateMutability":"nonpayable"},{"type":"function","name":"updateTotalCdsDepositedAmountWithOptionFees","inputs":[{"name":"_amount","type":"uint128","internalType":"uint128"}],"outputs":[],"stateMutability":"nonpayable"},{"type":"function","name":"upgradeToAndCall","inputs":[{"name":"newImplementation","type":"address","internalType":"address"},{"name":"data","type":"bytes","internalType":"bytes"}],"outputs":[],"stateMutability":"payable"},{"type":"function","name":"usdt","inputs":[],"outputs":[{"name":"","type":"address","internalType":"contract IERC20"}],"stateMutability":"view"},{"type":"function","name":"usdtAmountDepositedTillNow","inputs":[],"outputs":[{"name":"","type":"uint256","internalType":"uint256"}],"stateMutability":"view"},{"type":"function","name":"usdtLimit","inputs":[],"outputs":[{"name":"","type":"uint64","internalType":"uint64"}],"stateMutability":"view"},{"type":"function","name":"withdraw","inputs":[{"name":"_index","type":"uint64","internalType":"uint64"},{"name":"ethPrice","type":"uint128","internalType":"uint128"}],"outputs":[],"stateMutability":"nonpayable"},{"type":"function","name":"withdrawTimeLimit","inputs":[],"outputs":[{"name":"","type":"uint64","internalType":"uint64"}],"stateMutability":"view"},{"type":"event","name":"Deposit","inputs":[{"name":"depositedAmint","type":"uint256","indexed":false,"internalType":"uint256"},{"name":"index","type":"uint64","indexed":false,"internalType":"uint64"},{"name":"liquidationAmount","type":"uint128","indexed":false,"internalType":"uint128"},{"name":"normalizedAmount","type":"uint256","indexed":false,"internalType":"uint256"},{"name":"depositVal","type":"uint128","indexed":false,"internalType":"uint128"}],"anonymous":false},{"type":"event","name":"Initialized","inputs":[{"name":"version","type":"uint64","indexed":false,"internalType":"uint64"}],"anonymous":false},{"type":"event","name":"OwnershipTransferred","inputs":[{"name":"previousOwner","type":"address","indexed":true,"internalType":"address"},{"name":"newOwner","type":"address","indexed":true,"internalType":"address"}],"anonymous":false},{"type":"event","name":"Upgraded","inputs":[{"name":"implementation","type":"address","indexed":true,"internalType":"address"}],"anonymous":false},{"type":"event","name":"Withdraw","inputs":[{"name":"withdrewAmint","type":"uint256","indexed":false,"internalType":"uint256"},{"name":"withdrawETH","type":"uint128","indexed":false,"internalType":"uint128"}],"anonymous":false},{"type":"error","name":"AddressEmptyCode","inputs":[{"name":"target","type":"address","internalType":"address"}]},{"type":"error","name":"ERC1967InvalidImplementation","inputs":[{"name":"implementation","type":"address","internalType":"address"}]},{"type":"error","name":"ERC1967NonPayable","inputs":[]},{"type":"error","name":"FailedInnerCall","inputs":[]},{"type":"error","name":"InvalidInitialization","inputs":[]},{"type":"error","name":"NotInitializing","inputs":[]},{"type":"error","name":"OwnableInvalidOwner","inputs":[{"name":"owner","type":"address","internalType":"address"}]},{"type":"error","name":"OwnableUnauthorizedAccount","inputs":[{"name":"account","type":"address","internalType":"address"}]},{"type":"error","name":"ReentrancyGuardReentrantCall","inputs":[]},{"type":"error","name":"UUPSUnauthorizedCallContext","inputs":[]},{"type":"error","name":"UUPSUnsupportedProxiableUUID","inputs":[{"name":"slot","type":"bytes32","internalType":"bytes32"}]}],"bytecode":{"object":"0x60a06040523060805234801561001457600080fd5b5060805161539a61003e60003960008181613e5201528181613e7b0152613fbc015261539a6000f3fe60806040526004361061027d5760003560e01c8063868c10d21161014f578063c5f956af116100c1578063df6f05e71161007a578063df6f05e714610a17578063e356b12014610a37578063f0f4426014610a4d578063f2fde38b14610a6d578063f57ff39c14610a8d578063f8c8765e14610ab457600080fd5b8063c5f956af14610904578063cba8751714610924578063d3e3413f1461093a578063dabd360a146109c1578063dc55b193146109e1578063dc91e75214610a0157600080fd5b8063aaf5eb6811610113578063aaf5eb6814610815578063ad3cb1cc14610835578063b3013d4d14610873578063b87c3dc314610893578063b9934fee146108b3578063ba397b41146108d357600080fd5b8063868c10d214610717578063880e8e3b146107375780638da5cb5b146107985780638e4db39a146107d55780639e6fe439146107f557600080fd5b806352d1902d116101f357806376a3fb3e116101ac57806376a3fb3e1461065a57806377b7cda61461067057806378fdaf3f146106975780637bf5e245146106b757806384637c26146106d757806384a965ed146106f757600080fd5b806352d1902d1461059857806360b415ed146105ad57806361d027b3146105cd5780637038fc4e146105ed578063704b6c0214610625578063715018a61461064557600080fd5b80634721bae8116102455780634721bae8146103585780634baf580d146104e65780634cae95d3146105065780634f04a86b146105265780634f1ef28614610565578063503e63221461057857600080fd5b8063254bba5c146102825780632bb2ea62146102a45780632f48ab7d146102cd578063412cfc941461030557806346696df314610338575b600080fd5b34801561028e57600080fd5b506102a261029d36600461484f565b610ad4565b005b3480156102b057600080fd5b506102ba600b5481565b6040519081526020015b60405180910390f35b3480156102d957600080fd5b506005546102ed906001600160a01b031681565b6040516001600160a01b0390911681526020016102c4565b34801561031157600080fd5b50600e5461032690600160801b900460ff1681565b60405160ff90911681526020016102c4565b34801561034457600080fd5b506102a2610353366004614888565b611c8e565b34801561036457600080fd5b506104d86103733660046148ef565b604080516101a081018252600080825260208201819052918101829052606081018290526080810182905260a0810182905260c0810182905260e081018290526101008101829052610120810182905261014081018290526101608101829052610180810191909152506001600160a01b03821660008181526013602081815260408084206001600160401b03808816865260018083018552838720979096529383525481516101a0810183528654851681529486015492850192909252600285015483169084015260038401546060840152600484015460ff808216151560808601526001600160801b0361010092839004811660a0870152600587015480821660c0880152600160801b8082048416151560e0890152600160881b90910490921615159286019290925260068601548083166101208701520481166101408501526007850154166101608401526008909301546101808301529091169250929050565b6040516102c492919061491b565b3480156104f257600080fd5b506102a2610501366004614a1b565b6120b0565b34801561051257600080fd5b506102a2610521366004614a38565b6120fd565b34801561053257600080fd5b50600a5461054d90600160401b90046001600160401b031681565b6040516001600160401b0390911681526020016102c4565b6102a2610573366004614a97565b612139565b34801561058457600080fd5b506000546102ed906001600160a01b031681565b3480156105a457600080fd5b506102ba612154565b3480156105b957600080fd5b506001546102ed906001600160a01b031681565b3480156105d957600080fd5b506002546102ed906001600160a01b031681565b3480156105f957600080fd5b5060095461060d906001600160801b031681565b6040516001600160801b0390911681526020016102c4565b34801561063157600080fd5b506102a2610640366004614b3c565b612171565b34801561065157600080fd5b506102a261229e565b34801561066657600080fd5b506102ba600f5481565b34801561067c57600080fd5b5060095461060d90600160801b90046001600160801b031681565b3480156106a357600080fd5b506102a26106b2366004614b3c565b6122b2565b3480156106c357600080fd5b506102a26106d2366004614b57565b612370565b3480156106e357600080fd5b506102a26106f2366004614b74565b61249b565b34801561070357600080fd5b506007546102ed906001600160a01b031681565b34801561072357600080fd5b506102a2610732366004614b57565b6125b3565b34801561074357600080fd5b50610779610752366004614b3c565b6013602052600090815260409020546001600160401b03811690600160401b900460ff1682565b604080516001600160401b0390931683529015156020830152016102c4565b3480156107a457600080fd5b507f9016d09d72d40fdae2fd8ceac6b6234c7706214fd39c1cd1e609a0528c199300546001600160a01b03166102ed565b3480156107e157600080fd5b50600e5461060d906001600160801b031681565b34801561080157600080fd5b506004546102ed906001600160a01b031681565b34801561082157600080fd5b5060125461060d906001600160801b031681565b34801561084157600080fd5b50610866604051806040016040528060058152602001640352e302e360dc1b81525081565b6040516102c49190614be7565b34801561087f57600080fd5b506102a261088e366004614bfa565b6126ed565b34801561089f57600080fd5b506102a26108ae366004614a1b565b612776565b3480156108bf57600080fd5b5060115461060d906001600160801b031681565b3480156108df57600080fd5b506011546108f490600160801b900460ff1681565b60405190151581526020016102c4565b34801561091057600080fd5b506008546102ed906001600160a01b031681565b34801561093057600080fd5b506102ba600c5481565b34801561094657600080fd5b5061098c610955366004614a1b565b6014602052600090815260409020805460018201546002909201546001600160801b0380831693600160801b909304811692169084565b6040516102c494939291906001600160801b039485168152928416602084015292166040820152606081019190915260800190565b3480156109cd57600080fd5b506102a26109dc366004614caa565b61298a565b3480156109ed57600080fd5b506102a26109fc366004614a1b565b6136a9565b348015610a0d57600080fd5b506102ba600d5481565b348015610a2357600080fd5b50600a5461054d906001600160401b031681565b348015610a4357600080fd5b506102ba60105481565b348015610a5957600080fd5b506102a2610a68366004614b3c565b6136ee565b348015610a7957600080fd5b506102a2610a88366004614b3c565b613827565b348015610a9957600080fd5b50600e5461054d90600160881b90046001600160401b031681565b348015610ac057600080fd5b506102a2610acf366004614d1b565b613865565b610adc613a25565b6005600480546040516326d2a55160e21b81526001600160a01b0390911691639b4a954491610b0d91859101614d85565b6020604051808303816000875af1158015610b2c573d6000803e3d6000fd5b505050506040513d601f19601f82011682018060405250810190610b509190614d9f565b15610b765760405162461bcd60e51b8152600401610b6d90614dbc565b60405180910390fd5b336000908152601360205260409020546001600160401b0380851691161015610bef5760405162461bcd60e51b815260206004820152602560248201527f7573657220646f65736e277420686176652074686520737065636966696564206044820152640d2dcc8caf60db1b6064820152608401610b6d565b3360009081526013602090815260408083206001600160401b038716845260010190915290206004015460ff1615610c5d5760405162461bcd60e51b815260206004820152601160248201527020b63932b0b23c903bb4ba34323930bbb760791b6044820152606401610b6d565b600a543360009081526013602090815260408083206001600160401b038881168552600190910190925290912054429282841692610ca692600160401b90920481169116614df2565b6001600160401b03161115610d145760405162461bcd60e51b815260206004820152602e60248201527f63616e6e6f74207769746864726177206265666f72652074686520776974686460448201526d1c985dc81d1a5b59481b1a5b5a5d60921b6064820152608401610b6d565b3360008181526013602081815260408084206001600160401b03808b16865260018281018552928620600401805460ff191684179055959094529190529054909116148015610d6c5750836001600160401b03166001145b15610daf57600a8054600090610d8a906001600160401b0316614e19565b91906101000a8154816001600160401b0302191690836001600160401b031602179055505b3360009081526013602090815260408083206001600160401b03881684526001908101909252822090810154601254600e5460089093015491926001600160801b0391821692610e029290911690614e3c565b610e0c9190614e69565b610e17338888613a5d565b610e219190614e7d565b610e2b9190614e90565b3360009081526013602090815260408083206001600160401b038a8116855260019091019092529091206003810183905560028101805467ffffffffffffffff19169286169290921790915560050154909150600160881b900460ff16156118f1573360009081526013602090815260408083206001600160401b0389168452600101909152902060060154610ed190600160801b90046001600160801b031682614e90565b90506000600160009054906101000a90046001600160a01b03166001600160a01b03166338a912d56040518163ffffffff1660e01b8152600401602060405180830381865afa158015610f28573d6000803e3d6000fd5b505050506040513d601f19601f82011682018060405250810190610f4c9190614ea3565b9050610f7c6040518060400160405280600c81526020016b1c995d1d5c9b905b5bdd5b9d60a21b81525083613d96565b3360009081526013602090815260408083206001600160401b038a1684526001908101835292819020600701548151808301909252928152601960f91b918101919091526001600160801b0390911690610fd590613ddb565b6000816001600160801b0316836001600160801b0316106118e957611012604051806040016040528060018152602001603360f81b815250613ddb565b600061101f836001614ec0565b90505b836001600160801b0316816001600160801b03161161141d57611067604051806040016040528060018152602001606960f81b815250826001600160801b0316613d96565b3360009081526013602090815260408083206001600160401b038d16845260010182529182902060060154825180840190935260118352701b1a5c5d5a59185d1a5bdb905b5bdd5b9d607a1b91830191909152600160801b90046001600160801b0316906110d59082613d96565b6001600160801b0381161561140a576001600160801b03808316600090815260146020908152604091829020825160808101845281548086168252600160801b9004851681840152600182015490941684840152600201546060808501919091528251908101909252602a808352611159929161533b908301398260600151613d96565b6060810151600090611170846402540be400614ee0565b61117a9190614f0b565b90506111ac60405180604001604052806005815260200164736861726560d81b815250826001600160801b0316613d96565b60006111fa6040518060400160405280601781526020017f6c69717569646174696f6e446174612e70726f6669747300000000000000000081525084602001516001600160801b0316613d96565b6402540be4008284602001516112109190614ee0565b61121a9190614f0b565b905061124d604051806040016040528060068152602001651c1c9bd99a5d60d21b815250826001600160801b0316613d96565b8060136000336001600160a01b03166001600160a01b0316815260200190815260200160002060010160008f6001600160401b03166001600160401b0316815260200190815260200160002060060160108282829054906101000a90046001600160801b03166112bd9190614ec0565b92506101000a8154816001600160801b0302191690836001600160801b031602179055506113296040518060600160405280602d81526020016152c9602d913984516402540be40090611311908690614ee0565b61131b9190614f0b565b6001600160801b0316613d96565b82516402540be4009061133d908490614ee0565b6113479190614f0b565b60136000336001600160a01b03166001600160a01b0316815260200190815260200160002060010160008f6001600160401b03166001600160401b0316815260200190815260200160002060060160108282829054906101000a90046001600160801b03166113b69190614f31565b92506101000a8154816001600160801b0302191690836001600160801b031602179055506402540be4008284604001516113f09190614ee0565b6113fa9190614f0b565b6114049087614ec0565b95505050505b508061141581614f51565b915050611022565b50611479604051806080016040528060428152602001615287604291393360009081526013602090815260408083206001600160401b038e168452600101909152902060060154600160801b90046001600160801b0316613d96565b3360009081526013602090815260408083206001600160401b038c1684526001019091528120600601546114bd90600160801b90046001600160801b031686614e7d565b90506114f66040518060400160405280601581526020017472657475726e416d6f756e74576974684761696e7360581b81525082613d96565b611531604051806040016040528060178152602001761d1bdd185b10d91cd1195c1bdcda5d1959105b5bdd5b9d604a1b815250600b54613d96565b61157d604051806060016040528060408152602001615227604091393360009081526013602090815260408083206001600160401b038f16845260019081019092529091200154613d96565b3360009081526013602090815260408083206001600160401b038d168452600190810190925290912060068101549101546115c891600160801b90046001600160801b031690614e90565b600b60008282546115d99190614e90565b925050819055506116046040518060600160405280602581526020016152f660259139600c54613d96565b3360009081526013602090815260408083206001600160401b038d16845260010190915290206006015461164890600160801b90046001600160801b031682614e90565b600c60008282546116599190614e90565b90915550503360009081526013602090815260408083206001600160401b038d168452600101909152908190206003018290556002549051630adfd5a560e21b8152306004820152602481018390526001600160a01b0390911690632b7f569490604401600060405180830381600087803b1580156116d757600080fd5b505af11580156116eb573d6000803e3d6000fd5b5050600080546008546040516323b872dd60e01b81526001600160a01b039182166004820152336024820152604481018790529294501691506323b872dd906064016020604051808303816000875af115801561174c573d6000803e3d6000fd5b505050506040513d601f19601f820116820180604052508101906117709190614d9f565b90506001811515146117c45760405162461bcd60e51b815260206004820152601e60248201527f5472616e7373756363657373656420696e2063647320776974686472617700006044820152606401610b6d565b6001600160801b038316156118a55760025460405163cd0220c960e01b81526001600160801b0385166004820152600060248201526001600160a01b039091169063cd0220c990604401600060405180830381600087803b15801561182857600080fd5b505af115801561183c573d6000803e3d6000fd5b5050600254604051635822b66d60e01b81526001600160a01b039091169250635822b66d91506118729033908790600401614f77565b600060405180830381600087803b15801561188c57600080fd5b505af11580156118a0573d6000803e3d6000fd5b505050505b604080518381526001600160801b03851660208201527fd34ad3981afdf23db33825e66e2466a17cb9567dfd6b8c14a210ea42a3efecfd910160405180910390a150505b505050611c19565b3360009081526013602090815260408083206001600160401b0389168452600190810190925282200154600b80549192909161192e908490614e90565b9250508190555080600c60008282546119479190614e90565b90915550503360009081526013602090815260408083206001600160401b03891684526001018252918290206003018390556002548251631506d82560e21b815292516001600160a01b039091169263541b60949260048083019391928290030181865afa1580156119bd573d6000803e3d6000fd5b505050506040513d601f19601f820116820180604052508101906119e19190614f99565b15611ade57601254611a0490600160801b90046001600160801b03166002614ee0565b60015460405163ada0b0ed60e01b8152600060048201526001600160801b03878116602483015292909216916001600160a01b039091169063ada0b0ed906044016020604051808303816000875af1158015611a64573d6000803e3d6000fd5b505050506040513d601f19601f82011682018060405250810190611a889190614fb2565b6001600160401b031611611ade5760405162461bcd60e51b815260206004820152601b60248201527f4344533a204e6f7420656e6f7567682066756e6420696e2043445300000000006044820152606401610b6d565b600254604051630adfd5a560e21b8152306004820152602481018390526001600160a01b0390911690632b7f569490604401600060405180830381600087803b158015611b2a57600080fd5b505af1158015611b3e573d6000803e3d6000fd5b5050600080546008546040516323b872dd60e01b81526001600160a01b039182166004820152336024820152604481018790529294501691506323b872dd906064016020604051808303816000875af1158015611b9f573d6000803e3d6000fd5b505050506040513d601f19601f82011682018060405250810190611bc39190614d9f565b9050600181151514611c175760405162461bcd60e51b815260206004820152601f60248201527f5472616e73666572206661696c656420696e20636473207769746864726177006044820152606401610b6d565b505b6009546001600160801b03858116911614611c3757611c3784613e1e565b60408051828152600060208201527fd34ad3981afdf23db33825e66e2466a17cb9567dfd6b8c14a210ea42a3efecfd910160405180910390a1505050611c8a600160008051602061531b83398151915255565b5050565b611c96613a25565b6006600480546040516326d2a55160e21b81526001600160a01b0390911691639b4a954491611cc791859101614d85565b6020604051808303816000875af1158015611ce6573d6000803e3d6000fd5b505050506040513d601f19601f82011682018060405250810190611d0a9190614d9f565b15611d275760405162461bcd60e51b8152600401610b6d90614dbc565b836001600160801b0316600003611d805760405162461bcd60e51b815260206004820152601960248201527f416d6f756e742073686f756c64206e6f74206265207a65726f000000000000006044820152606401610b6d565b6000546040516370a0823160e01b81523360048201526001600160801b038616916001600160a01b0316906370a0823190602401602060405180830381865afa158015611dd1573d6000803e3d6000fd5b505050506040513d601f19601f82011682018060405250810190611df59190614f99565b1015611e3a5760405162461bcd60e51b8152602060048201526014602482015273496e73756666696369656e742062616c616e636560601b6044820152606401610b6d565b836001600160801b031660106000828254611e559190614e7d565b9091555050600080546040516363a9f09360e11b81526001600160a01b039091169063c753e12690611e8d9033908990600401614f77565b6020604051808303816000875af1158015611eac573d6000803e3d6000fd5b505050506040513d601f19601f82011682018060405250810190611ed09190614d9f565b9050600181151514611f245760405162461bcd60e51b815260206004820152601f60248201527f414d494e54204275726e206661696c656420696e2072656465656d55534454006044820152606401610b6d565b6000836001600160401b031686866001600160401b0316611f459190614ee0565b611f4f9190614f0b565b60025460405163e613610560e01b81529192506001600160a01b03169063e613610590611f829030908590600401614f77565b600060405180830381600087803b158015611f9c57600080fd5b505af1158015611fb0573d6000803e3d6000fd5b50506005546008546040516323b872dd60e01b8152600094506001600160a01b0392831693506323b872dd92611fee92169033908790600401614fcf565b6020604051808303816000875af115801561200d573d6000803e3d6000fd5b505050506040513d601f19601f820116820180604052508101906120319190614d9f565b90506001811515146120905760405162461bcd60e51b815260206004820152602260248201527f55534454205472616e73666572206661696c656420696e2072656465656d5553604482015261111560f21b6064820152608401610b6d565b505050506120ab600160008051602061531b83398151915255565b505050565b6007546001600160a01b031633146120da5760405162461bcd60e51b8152600401610b6d90614ffb565b806001600160801b0316600c60008282546120f59190614e90565b909155505050565b6007546001600160a01b031633146121275760405162461bcd60e51b8152600401610b6d90614ffb565b80600d60008282546120f59190614e90565b612141613e47565b61214a82613eec565b611c8a8282613ef4565b600061215e613fb1565b5060008051602061526783398151915290565b612179613ffa565b6001600160a01b0381161580159061219e575060016001600160a01b0382163b151514155b6122015760405162461bcd60e51b815260206004820152602e60248201527f41646d696e2063616e277420626520636f6e747261637420616464726573732060448201526d26207a65726f206164647265737360901b6064820152608401610b6d565b6004546001600160a01b031663fb8c927860056040518263ffffffff1660e01b8152600401612230919061504e565b6020604051808303816000875af115801561224f573d6000803e3d6000fd5b505050506040513d601f19601f820116820180604052508101906122739190614d9f565b61227c57600080fd5b600680546001600160a01b0319166001600160a01b0392909216919091179055565b6122a6613ffa565b6122b06000614055565b565b6006546001600160a01b031633146122dc5760405162461bcd60e51b8152600401610b6d90615062565b6001600160a01b038116158015906122fd57506001600160a01b0381163b15155b6123445760405162461bcd60e51b8152602060048201526018602482015277125b9c1d5d081859191c995cdcc81a5cc81a5b9d985b1a5960421b6044820152606401610b6d565b600780546001600160a01b039092166001600160a01b0319928316811790915560018054909216179055565b6006546001600160a01b0316331461239a5760405162461bcd60e51b8152600401610b6d90615062565b806001600160401b03166000036123f35760405162461bcd60e51b815260206004820152601860248201527f55534454206c696d69742063616e2774206265207a65726f00000000000000006044820152606401610b6d565b6004546001600160a01b031663fb8c9278600a6040518263ffffffff1660e01b8152600401612422919061504e565b6020604051808303816000875af1158015612441573d6000803e3d6000fd5b505050506040513d601f19601f820116820180604052508101906124659190614d9f565b61246e57600080fd5b600e80546001600160401b03909216600160881b0267ffffffffffffffff60881b19909216919091179055565b6006546001600160a01b031633146124c55760405162461bcd60e51b8152600401610b6d90615062565b8060ff166000036125185760405162461bcd60e51b815260206004820152601960248201527f416d696e74206c696d69742063616e2774206265207a65726f000000000000006044820152606401610b6d565b6004546001600160a01b031663fb8c927860096040518263ffffffff1660e01b8152600401612547919061504e565b6020604051808303816000875af1158015612566573d6000803e3d6000fd5b505050506040513d601f19601f8201168201806040525081019061258a9190614d9f565b61259357600080fd5b600e805460ff909216600160801b0260ff60801b19909216919091179055565b6006546001600160a01b031633146125dd5760405162461bcd60e51b8152600401610b6d90615062565b806001600160401b03166000036126405760405162461bcd60e51b815260206004820152602160248201527f57697468647261772074696d65206c696d69742063616e2774206265207a65726044820152606f60f81b6064820152608401610b6d565b6004546001600160a01b031663fb8c927860036040518263ffffffff1660e01b815260040161266f919061504e565b6020604051808303816000875af115801561268e573d6000803e3d6000fd5b505050506040513d601f19601f820116820180604052508101906126b29190614d9f565b6126bb57600080fd5b600a80546001600160401b03909216600160401b026fffffffffffffffff000000000000000019909216919091179055565b6007546001600160a01b031633146127175760405162461bcd60e51b8152600401610b6d90614ffb565b6001600160801b039182166000908152601460209081526040918290208351918401518516600160801b0291851691909117815590820151600182018054919094166001600160801b0319919091161790925560600151600290910155565b6007546001600160a01b031633146127a05760405162461bcd60e51b8152600401610b6d90614ffb565b806001600160801b03166000036127f95760405162461bcd60e51b815260206004820152601760248201527f466565732073686f756c64206e6f74206265207a65726f0000000000000000006044820152606401610b6d565b806001600160801b0316600c60008282546128149190614e7d565b9091555050600c546012546000908290612837906001600160801b031685614ee0565b6128419190614f0b565b90506000600260009054906101000a90046001600160a01b03166001600160a01b03166345aeb0ce6040518163ffffffff1660e01b8152600401602060405180830381865afa158015612898573d6000803e3d6000fd5b505050506040513d601f19601f820116820180604052508101906128bc9190614ea3565b6001600160801b03166000036129115760125482906128e5906001600160801b03166001614ee0565b6128ef9190614ec0565b600e80546001600160801b0319166001600160801b0383161790559050612984565b601254829061292a906001600160801b03166001614ee0565b6129349190614ec0565b600e5461294a91906001600160801b0316614ee0565b601254909150612963906001600160801b031682614f0b565b600e80546001600160801b0319166001600160801b03929092169190911790555b50505050565b612992613a25565b60048080546040516326d2a55160e21b81526001600160a01b0390911691639b4a9544916129c291859101614d85565b6020604051808303816000875af11580156129e1573d6000803e3d6000fd5b505050506040513d601f19601f82011682018060405250810190612a059190614d9f565b15612a225760405162461bcd60e51b8152600401610b6d90614dbc565b6000612a2e8688614ec0565b6001600160801b0316905080600003612a935760405162461bcd60e51b815260206004820152602160248201527f4465706f73697420616d6f756e742073686f756c64206e6f74206265207a65726044820152606f60f81b6064820152608401610b6d565b80846001600160801b03161115612b0b5760405162461bcd60e51b815260206004820152603660248201527f4c69717569646174696f6e20616d6f756e742063616e27742067726561746572604482015275081d1a185b8819195c1bdcda5d195908185b5bdd5b9d60521b6064820152608401610b6d565b600e54600f54600160881b9091046001600160401b03161115612bf457600e54600f54600160881b9091046001600160401b031690612b54906001600160801b038a1690614e7d565b11612bb65780876001600160801b031614612bb15760405162461bcd60e51b815260206004820152601b60248201527f31303025206f6620616d6f756e74206d757374206265205553445400000000006044820152606401610b6d565b612d47565b60405162461bcd60e51b815260206004820152601360248201527214dd5c9c1b1d5cc81554d11508185b5bdd5b9d606a1b6044820152606401610b6d565b600e54606490612c0f908390600160801b900460ff16614e3c565b612c199190614e69565b866001600160801b03161015612c715760405162461bcd60e51b815260206004820152601d60248201527f526571756972656420414d494e5420616d6f756e74206e6f74206d65740000006044820152606401610b6d565b6000546040516370a0823160e01b81523360048201526001600160801b038816916001600160a01b0316906370a0823190602401602060405180830381865afa158015612cc2573d6000803e3d6000fd5b505050506040513d601f19601f82011682018060405250810190612ce69190614f99565b1015612d475760405162461bcd60e51b815260206004820152602a60248201527f496e73756666696369656e7420414d494e542062616c616e636520776974682060448201526936b9b39739b2b73232b960b11b6064820152608401610b6d565b33600090815260136020526040812054600160401b900460ff16612dd35750336000908152601360205260408120805468ffffffffffffffffff191668010000000000000001179055600a805460019290612daa906001600160401b0316615092565b91906101000a8154816001600160401b0302191690836001600160401b03160217905550612e1f565b3360009081526013602052604081208054909190612df9906001600160401b0316615092565b91906101000a8154816001600160401b0302191690836001600160401b03160217905590505b3360009081526013602090815260408083206001600160401b038516845260019081019092528220908101849055600401805470ffffffffffffffffffffffffffffffff0019166101006001600160801b03881602179055612e80856140c6565b9050612e94816000015182602001516143b1565b601180543360009081526013602090815260408083206001600160401b0388168452600101909152812060050180546001600160801b031981166001600160801b039094169384178255935460ff600160801b91829004161515026001600160881b0319909416909217929092179055600b8054859290612f16908490614e7d565b9250508190555082600c6000828254612f2f9190614e7d565b92505081905550886001600160801b0316600f6000828254612f519190614e7d565b90915550503360009081526013602090815260408083206001600160401b0386811685526001909101909252909120805467ffffffffffffffff191642909216919091179055600e546012546001600160801b0391821691612fb4911685614e3c565b612fbe9190614e69565b3360009081526013602090815260408083206001600160401b038716845260010190915290206008810191909155600501805488158015600160881b0260ff60881b19909216919091179091556130f957600160009054906101000a90046001600160a01b03166001600160a01b03166338a912d56040518163ffffffff1660e01b8152600401602060405180830381865afa158015613062573d6000803e3d6000fd5b505050506040513d601f19601f820116820180604052508101906130869190614ea3565b3360009081526013602090815260408083206001600160401b038716845260010190915281206007810180546001600160801b03199081166001600160801b0395861617909155600160801b938a16938402168317600690910155600d80549091906130f3908490614e7d565b90915550505b6009546001600160801b038681169116146131175761311785613e1e565b6001600160801b0389161580159061313757506001600160801b03881615155b15613318576005546040516370a0823160e01b81523360048201526001600160801b038b16916001600160a01b0316906370a0823190602401602060405180830381865afa15801561318d573d6000803e3d6000fd5b505050506040513d601f19601f820116820180604052508101906131b19190614f99565b10156131cf5760405162461bcd60e51b8152600401610b6d906150ae565b6005546008546040516323b872dd60e01b81526000926001600160a01b03908116926323b872dd9261320992339216908f90600401614fcf565b6020604051808303816000875af1158015613228573d6000803e3d6000fd5b505050506040513d601f19601f8201168201806040525081019061324c9190614d9f565b90506001811515146132705760405162461bcd60e51b8152600401610b6d906150f7565b600080546008546040516323b872dd60e01b81526001600160a01b03928316926323b872dd926132aa923392909116908f90600401614fcf565b6020604051808303816000875af11580156132c9573d6000803e3d6000fd5b505050506040513d601f19601f820116820180604052508101906132ed9190614d9f565b90506001811515146133115760405162461bcd60e51b8152600401610b6d9061513a565b5050613506565b886001600160801b03166000036133d057600080546008546040516323b872dd60e01b81526001600160a01b03928316926323b872dd92613363923392909116908e90600401614fcf565b6020604051808303816000875af1158015613382573d6000803e3d6000fd5b505050506040513d601f19601f820116820180604052508101906133a69190614d9f565b90506001811515146133ca5760405162461bcd60e51b8152600401610b6d9061513a565b50613506565b6005546040516370a0823160e01b81523360048201526001600160801b038b16916001600160a01b0316906370a0823190602401602060405180830381865afa158015613421573d6000803e3d6000fd5b505050506040513d601f19601f820116820180604052508101906134459190614f99565b10156134635760405162461bcd60e51b8152600401610b6d906150ae565b6005546008546040516323b872dd60e01b81526000926001600160a01b03908116926323b872dd9261349d92339216908f90600401614fcf565b6020604051808303816000875af11580156134bc573d6000803e3d6000fd5b505050506040513d601f19601f820116820180604052508101906134e09190614d9f565b90506001811515146135045760405162461bcd60e51b8152600401610b6d906150f7565b505b6001600160801b038916156135fa57600080546008546040516340c10f1960e01b81526001600160a01b03928316926340c10f199261354c929116908e90600401614f77565b6020604051808303816000875af115801561356b573d6000803e3d6000fd5b505050506040513d601f19601f8201168201806040525081019061358f9190614d9f565b90506001811515146135f85760405162461bcd60e51b815260206004820152602c60248201527f414d494e54206d696e7420746f207472656173757279206661696c656420696e60448201526b0810d114c819195c1bdcda5d60a21b6064820152608401610b6d565b505b3360009081526013602090815260408083206001600160401b038616808552600190910183529281902060088101546005909101548251888152938401949094526001600160801b03808b1692840192909252606083015290911660808201527fcdd1e645b3bff8dc4c192ceeb358900b0903593c0778b65f0493d608c1a8daf69060a00160405180910390a1505050506136a2600160008051602061531b83398151915255565b5050505050565b6007546001600160a01b031633146136d35760405162461bcd60e51b8152600401610b6d90614ffb565b806001600160801b0316600b60008282546120f59190614e90565b6006546001600160a01b031633146137185760405162461bcd60e51b8152600401610b6d90615062565b6001600160a01b0381161580159061373957506001600160a01b0381163b15155b6137805760405162461bcd60e51b8152602060048201526018602482015277125b9c1d5d081859191c995cdcc81a5cc81a5b9d985b1a5960421b6044820152606401610b6d565b6004546001600160a01b031663fb8c927860076040518263ffffffff1660e01b81526004016137af919061504e565b6020604051808303816000875af11580156137ce573d6000803e3d6000fd5b505050506040513d601f19601f820116820180604052508101906137f29190614d9f565b6137fb57600080fd5b600880546001600160a01b039092166001600160a01b0319928316811790915560028054909216179055565b61382f613ffa565b6001600160a01b03811661385957604051631e4fbdf760e01b815260006004820152602401610b6d565b61386281614055565b50565b7ff0c57e16840df040f15088dc2f81fe391c3923bec73e23a9662efc9c229c6a008054600160401b810460ff1615906001600160401b03166000811580156138aa5750825b90506000826001600160401b031660011480156138c65750303b155b9050811580156138d4575080155b156138f25760405163f92ee8a960e01b815260040160405180910390fd5b845467ffffffffffffffff19166001178555831561391c57845460ff60401b1916600160401b1785555b61392533614521565b61392d614532565b600080546001600160a01b03808c166001600160a01b031992831617909255600580548a84169083161790556004805489841690831617905560038054928b169290911691909117905561397f61453a565b600160801b6001600160801b0391909116818102176009557127100000000000000000000000e8d4a51000601255600e80546001600160801b03191664e8d4a510001790556011805460ff60801b191690911790558315613a1a57845460ff60401b19168555604051600181527fc7f505b2f371ae2175ee4913f4499e1f2633a7b5936321eed1cdaeb6115181d29060200160405180910390a15b505050505050505050565b60008051602061531b833981519152805460011901613a5757604051633ee5aeb560e01b815260040160405180910390fd5b60029055565b600080613a69836140c6565b9050613a7d816000015182602001516143b1565b613aa5604051806040016040528060078152602001663131313131313160c81b815250613ddb565b6001600160a01b03851660009081526013602081815260408084206001600160401b038916808652600191820184528286208201543387529484528286209086520190915282206005015460115491926001600160801b038083169360ff600160801b948590048116949282169290910416151583151503613cfb57806001600160801b0316846001600160801b03161115613b4c57613b458185614f31565b9150613b59565b613b568482614f31565b91505b8215613c4457806001600160801b0316846001600160801b03161115613c1357600064174876e800613b946001600160801b03851688614e3c565b613b9e9190614e69565b9050613bd3604051806040016040528060118152602001700c4819195c1bdcda5d1959105b5bdd5b9d607a1b81525087613d96565b613bfb6040518060400160405280600681526020016531206c6f737360d01b81525082613d96565b613c058187614e90565b975050505050505050613d8f565b600064174876e800613c2e6001600160801b03851688614e3c565b613c389190614e69565b9050613c058187614e7d565b806001600160801b0316846001600160801b03161115613c7957600064174876e800613c2e6001600160801b03851688614e3c565b600064174876e800613c946001600160801b03851688614e3c565b613c9e9190614e69565b9050613cd3604051806040016040528060118152602001700c8819195c1bdcda5d1959105b5bdd5b9d607a1b81525087613d96565b613bfb6040518060400160405280600681526020016532206c6f737360d01b81525082613d96565b613d058185614ec0565b91508215613c1357600064174876e800613d286001600160801b03851688614e3c565b613d329190614e69565b9050613d67604051806040016040528060118152602001700cc819195c1bdcda5d1959105b5bdd5b9d607a1b81525087613d96565b613bfb6040518060400160405280600681526020016533206c6f737360d01b81525082613d96565b9392505050565b611c8a8282604051602401613dac92919061517e565b60408051601f198184030181529190526020810180516001600160e01b0316632d839cb360e21b1790526145d3565b61386281604051602401613def9190614be7565b60408051601f198184030181529190526020810180516001600160e01b031663104c13eb60e21b1790526145d3565b600980546001600160801b03196001600160801b03918216600160801b02169216919091179055565b306001600160a01b037f0000000000000000000000000000000000000000000000000000000000000000161480613ece57507f00000000000000000000000000000000000000000000000000000000000000006001600160a01b0316613ec2600080516020615267833981519152546001600160a01b031690565b6001600160a01b031614155b156122b05760405163703e46dd60e11b815260040160405180910390fd5b613862613ffa565b816001600160a01b03166352d1902d6040518163ffffffff1660e01b8152600401602060405180830381865afa925050508015613f4e575060408051601f3d908101601f19168201909252613f4b91810190614f99565b60015b613f7657604051634c9c8ce360e01b81526001600160a01b0383166004820152602401610b6d565b6000805160206152678339815191528114613fa757604051632a87526960e21b815260048101829052602401610b6d565b6120ab83836145dc565b306001600160a01b037f000000000000000000000000000000000000000000000000000000000000000016146122b05760405163703e46dd60e11b815260040160405180910390fd5b3361402c7f9016d09d72d40fdae2fd8ceac6b6234c7706214fd39c1cd1e609a0528c199300546001600160a01b031690565b6001600160a01b0316146122b05760405163118cdaa760e01b8152336004820152602401610b6d565b7f9016d09d72d40fdae2fd8ceac6b6234c7706214fd39c1cd1e609a0528c19930080546001600160a01b031981166001600160a01b03848116918217845560405192169182907f8be0079c531659141344cd1fd0a4f28419497f9722a3daafe3b4186f6b6457e090600090a3505050565b604080518082018252600080825260208083018290526002548451639a52aed960e01b8152945193946103e8946001600160a01b0390921692639a52aed9926004808401938290030181865afa158015614124573d6000803e3d6000fd5b505050506040513d601f19601f820116820180604052508101906141489190614f99565b90506000806000600b54600003614165575060009050600161438a565b6009546001600160801b038881169116146141d4576009546001600160801b0390811690881611156141b2576009546141a7906001600160801b031688614f31565b925060019050614234565b6009546141c99088906001600160801b0316614f31565b925060009050614234565b6009546001600160801b03600160801b9091048116908816111561420f576009546141a790600160801b90046001600160801b031688614f31565b60095461422d908890600160801b90046001600160801b0316614f31565b9250600090505b6142666040518060400160405280600781526020016617d85b5bdd5b9d60ca1b815250866001600160801b0316613d96565b614290604051806040016040528060088152602001671d985d5b1d10985b60c21b81525085613d96565b6142c460405180604001604052806009815260200168383934b1b2a234b33360b91b815250846001600160801b0316613d96565b6142ff604051806040016040528060178152602001761d1bdd185b10d91cd1195c1bdcda5d1959105b5bdd5b9d604a1b815250600b54613d96565b600b5460125461431891906001600160801b0316614e3c565b836001600160801b031685876001600160801b03166143379190614e3c565b6143419190614e3c565b61434e90620f4240614e3c565b6143589190614e69565b915061438a6040518060400160405280600581526020016476616c756560d81b815250836001600160801b0316613d96565b604080518082019091526001600160801b0390921682521515602082015295945050505050565b801561448357601154600160801b900460ff161561440f57601180548391906000906143e79084906001600160801b0316614ec0565b92506101000a8154816001600160801b0302191690836001600160801b031602179055505050565b6011546001600160801b038084169116111561444357601180548391906000906143e79084906001600160801b0316614f31565b601154614459906001600160801b031683614f31565b601180546001600160881b0319166001600160801b039290921691909117600160801b1790555050565b601154600160801b900460ff1615614503576011546001600160801b03808416911611156144c957601180548391906000906143e79084906001600160801b0316614f31565b6011546144df906001600160801b031683614f31565b601180546001600160881b0319166001600160801b03929092169190911790555050565b601180548391906000906143e79084906001600160801b0316614ec0565b614529614632565b6138628161467b565b6122b0614632565b600080600360009054906101000a90046001600160a01b03166001600160a01b031663feaf968c6040518163ffffffff1660e01b815260040160a060405180830381865afa158015614590573d6000803e3d6000fd5b505050506040513d601f19601f820116820180604052508101906145b491906151ba565b509193508392506145cc9150620f4240905082614e69565b9250505090565b61386281614683565b6145e5826146a4565b6040516001600160a01b038316907fbc7cd75a20ee27fd9adebab32041f755214dbc6bffa90cc0225b39da2e5c2d3b90600090a280511561462a576120ab8282614709565b611c8a614781565b7ff0c57e16840df040f15088dc2f81fe391c3923bec73e23a9662efc9c229c6a0054600160401b900460ff166122b057604051631afcd79f60e31b815260040160405180910390fd5b61382f614632565b60006a636f6e736f6c652e6c6f679050600080835160208501845afa505050565b806001600160a01b03163b6000036146da57604051634c9c8ce360e01b81526001600160a01b0382166004820152602401610b6d565b60008051602061526783398151915280546001600160a01b0319166001600160a01b0392909216919091179055565b6060600080846001600160a01b031684604051614726919061520a565b600060405180830381855af49150503d8060008114614761576040519150601f19603f3d011682016040523d82523d6000602084013e614766565b606091505b50915091506147768583836147a0565b925050505b92915050565b34156122b05760405163b398979f60e01b815260040160405180910390fd5b6060826147b5576147b0826147fc565b613d8f565b81511580156147cc57506001600160a01b0384163b155b156147f557604051639996b31560e01b81526001600160a01b0385166004820152602401610b6d565b5080613d8f565b80511561480c5780518082602001fd5b604051630a12f52160e11b815260040160405180910390fd5b6001600160401b038116811461386257600080fd5b6001600160801b038116811461386257600080fd5b6000806040838503121561486257600080fd5b823561486d81614825565b9150602083013561487d8161483a565b809150509250929050565b60008060006060848603121561489d57600080fd5b83356148a88161483a565b925060208401356148b881614825565b915060408401356148c881614825565b809150509250925092565b80356001600160a01b03811681146148ea57600080fd5b919050565b6000806040838503121561490257600080fd5b61490b836148d3565b9150602083013561487d81614825565b82516001600160401b031681526101c0810160208401516020830152604084015161495160408401826001600160401b03169052565b5060608401516060830152608084015161496f608084018215159052565b5060a084015161498a60a08401826001600160801b03169052565b5060c08401516149a560c08401826001600160801b03169052565b5060e08401516149b960e084018215159052565b5061010084810151151590830152610120808501516001600160801b039081169184019190915261014080860151821690840152610160808601519091169083015261018080850151908301526001600160401b0383166101a0830152613d8f565b600060208284031215614a2d57600080fd5b8135613d8f8161483a565b600060208284031215614a4a57600080fd5b5035919050565b634e487b7160e01b600052604160045260246000fd5b604051601f8201601f191681016001600160401b0381118282101715614a8f57614a8f614a51565b604052919050565b60008060408385031215614aaa57600080fd5b614ab3836148d3565b91506020808401356001600160401b0380821115614ad057600080fd5b818601915086601f830112614ae457600080fd5b813581811115614af657614af6614a51565b614b08601f8201601f19168501614a67565b91508082528784828501011115614b1e57600080fd5b80848401858401376000848284010152508093505050509250929050565b600060208284031215614b4e57600080fd5b613d8f826148d3565b600060208284031215614b6957600080fd5b8135613d8f81614825565b600060208284031215614b8657600080fd5b813560ff81168114613d8f57600080fd5b60005b83811015614bb2578181015183820152602001614b9a565b50506000910152565b60008151808452614bd3816020860160208601614b97565b601f01601f19169290920160200192915050565b602081526000613d8f6020830184614bbb565b60008082840360a0811215614c0e57600080fd5b8335614c198161483a565b92506080601f1982011215614c2d57600080fd5b50604051608081018181106001600160401b0382111715614c5057614c50614a51565b6040526020840135614c618161483a565b81526040840135614c718161483a565b60208201526060840135614c848161483a565b60408201526080939093013560608401525092909150565b801515811461386257600080fd5b600080600080600060a08688031215614cc257600080fd5b8535614ccd8161483a565b94506020860135614cdd8161483a565b93506040860135614ced81614c9c565b92506060860135614cfd8161483a565b91506080860135614d0d8161483a565b809150509295509295909350565b60008060008060808587031215614d3157600080fd5b614d3a856148d3565b9350614d48602086016148d3565b9250614d56604086016148d3565b9150614d64606086016148d3565b905092959194509250565b634e487b7160e01b600052602160045260246000fd5b6020810160078310614d9957614d99614d6f565b91905290565b600060208284031215614db157600080fd5b8151613d8f81614c9c565b60208082526006908201526514185d5cd95960d21b604082015260600190565b634e487b7160e01b600052601160045260246000fd5b6001600160401b03818116838216019080821115614e1257614e12614ddc565b5092915050565b60006001600160401b03821680614e3257614e32614ddc565b6000190192915050565b808202811582820484141761477b5761477b614ddc565b634e487b7160e01b600052601260045260246000fd5b600082614e7857614e78614e53565b500490565b8082018082111561477b5761477b614ddc565b8181038181111561477b5761477b614ddc565b600060208284031215614eb557600080fd5b8151613d8f8161483a565b6001600160801b03818116838216019080821115614e1257614e12614ddc565b6001600160801b03818116838216028082169190828114614f0357614f03614ddc565b505092915050565b60006001600160801b0380841680614f2557614f25614e53565b92169190910492915050565b6001600160801b03828116828216039080821115614e1257614e12614ddc565b60006001600160801b03808316818103614f6d57614f6d614ddc565b6001019392505050565b6001600160a01b039290921682526001600160801b0316602082015260400190565b600060208284031215614fab57600080fd5b5051919050565b600060208284031215614fc457600080fd5b8151613d8f81614825565b6001600160a01b0393841681529190921660208201526001600160801b03909116604082015260600190565b60208082526033908201527f546869732066756e6374696f6e2063616e206f6e6c792063616c6c656420627960408201527208189bdc9c9bddda5b99c818dbdb9d1c9858dd606a1b606082015260800190565b60208101600b8310614d9957614d99614d6f565b60208082526016908201527521b0b63632b91034b9903737ba1030b71030b236b4b760511b604082015260600190565b60006001600160401b03808316818103614f6d57614f6d614ddc565b60208082526029908201527f496e73756666696369656e7420555344542062616c616e63652077697468206d60408201526839b39739b2b73232b960b91b606082015260800190565b60208082526023908201527f55534454205472616e73666572206661696c656420696e20434453206465706f6040820152621cda5d60ea1b606082015260800190565b60208082526024908201527f414d494e54205472616e73666572206661696c656420696e20434453206465706040820152631bdcda5d60e21b606082015260800190565b6040815260006151916040830185614bbb565b90508260208301529392505050565b805169ffffffffffffffffffff811681146148ea57600080fd5b600080600080600060a086880312156151d257600080fd5b6151db866151a0565b94506020860151935060408601519250606086015191506151fe608087016151a0565b90509295509295909350565b6000825161521c818460208701614b97565b919091019291505056fe63647344657461696c735b6d73672e73656e6465725d2e6364734163636f756e7444657461696c735b5f696e6465785d2e6465706f7369746564416d6f756e74360894a13ba1a3210667c828492db98dca3e2076cc3735a920a3ca505d382bbc63647344657461696c735b6d73672e73656e6465725d2e6364734163636f756e7444657461696c735b5f696e6465785d2e6c69717569646174696f6e416d6f756e746c69717569646174696f6e446174612e6c69717569646174696f6e416d6f756e742a7368617265292f31653130746f74616c4364734465706f7369746564416d6f756e74576974684f7074696f6e466565739b779b17422d0df92223018b32b4d1fa46e071723d6817e2486d003becc55f006c69717569646174696f6e446174612e617661696c61626c654c69717569646174696f6e416d6f756e74a2646970667358221220dae9bfc172900e6b6df4807d4faf26008c55bb36ea1e48e40b12ee7559dd514e64736f6c63430008140033","linkReferences":{}},"methodIdentifiers":{"PRECISION()":"aaf5eb68","UPGRADE_INTERFACE_VERSION()":"ad3cb1cc","amint()":"503e6322","amintLimit()":"412cfc94","borrowing()":"60b415ed","borrowingContract()":"84a965ed","burnedAmintInRedeem()":"e356b120","calculateCumulativeRate(uint128)":"b87c3dc3","cdsCount()":"df6f05e7","cdsDetails(address)":"880e8e3b","cumulativeValue()":"b9934fee","cumulativeValueSign()":"ba397b41","deposit(uint128,uint128,bool,uint128,uint128)":"dabd360a","fallbackEthPrice()":"77b7cda6","getCDSDepositDetails(address,uint64)":"4721bae8","initialize(address,address,address,address)":"f8c8765e","lastCumulativeRate()":"8e4db39a","lastEthPrice()":"7038fc4e","liquidationIndexToInfo(uint128)":"d3e3413f","multiSign()":"9e6fe439","owner()":"8da5cb5b","proxiableUUID()":"52d1902d","redeemUSDT(uint128,uint64,uint64)":"46696df3","renounceOwnership()":"715018a6","setAdmin(address)":"704b6c02","setAmintLimit(uint8)":"84637c26","setBorrowingContract(address)":"78fdaf3f","setTreasury(address)":"f0f44260","setUsdtLimit(uint64)":"7bf5e245","setWithdrawTimeLimit(uint64)":"868c10d2","totalAvailableLiquidationAmount()":"dc91e752","totalCdsDepositedAmount()":"2bb2ea62","totalCdsDepositedAmountWithOptionFees()":"cba87517","transferOwnership(address)":"f2fde38b","treasury()":"61d027b3","treasuryAddress()":"c5f956af","updateLiquidationInfo(uint128,(uint128,uint128,uint128,uint256))":"b3013d4d","updateTotalAvailableLiquidationAmount(uint256)":"4cae95d3","updateTotalCdsDepositedAmount(uint128)":"dc55b193","updateTotalCdsDepositedAmountWithOptionFees(uint128)":"4baf580d","upgradeToAndCall(address,bytes)":"4f1ef286","usdt()":"2f48ab7d","usdtAmountDepositedTillNow()":"76a3fb3e","usdtLimit()":"f57ff39c","withdraw(uint64,uint128)":"254bba5c","withdrawTimeLimit()":"4f04a86b"},"id":5}