{"abi":[{"type":"constructor","inputs":[{"name":"_amint","type":"address","internalType":"address"},{"name":"priceFeed","type":"address","internalType":"address"},{"name":"_usdt","type":"address","internalType":"address"},{"name":"_multiSign","type":"address","internalType":"address"}],"stateMutability":"nonpayable"},{"type":"receive","stateMutability":"payable"},{"type":"function","name":"PRECISION","inputs":[],"outputs":[{"name":"","type":"uint128","internalType":"uint128"}],"stateMutability":"view"},{"type":"function","name":"amint","inputs":[],"outputs":[{"name":"","type":"address","internalType":"contract IAMINT"}],"stateMutability":"view"},{"type":"function","name":"amintLimit","inputs":[],"outputs":[{"name":"","type":"uint8","internalType":"uint8"}],"stateMutability":"view"},{"type":"function","name":"borrowing","inputs":[],"outputs":[{"name":"","type":"address","internalType":"contract IBorrowing"}],"stateMutability":"view"},{"type":"function","name":"borrowingContract","inputs":[],"outputs":[{"name":"","type":"address","internalType":"address"}],"stateMutability":"view"},{"type":"function","name":"calculateCumulativeRate","inputs":[{"name":"fees","type":"uint128","internalType":"uint128"}],"outputs":[{"name":"","type":"uint128","internalType":"uint128"}],"stateMutability":"nonpayable"},{"type":"function","name":"cdsCount","inputs":[],"outputs":[{"name":"","type":"uint64","internalType":"uint64"}],"stateMutability":"view"},{"type":"function","name":"cdsDetails","inputs":[{"name":"","type":"address","internalType":"address"}],"outputs":[{"name":"index","type":"uint64","internalType":"uint64"},{"name":"hasDeposited","type":"bool","internalType":"bool"}],"stateMutability":"view"},{"type":"function","name":"deposit","inputs":[{"name":"usdtAmount","type":"uint128","internalType":"uint128"},{"name":"amintAmount","type":"uint128","internalType":"uint128"},{"name":"_liquidate","type":"bool","internalType":"bool"},{"name":"_liquidationAmount","type":"uint128","internalType":"uint128"}],"outputs":[],"stateMutability":"nonpayable"},{"type":"function","name":"ethVault","inputs":[],"outputs":[{"name":"","type":"address","internalType":"address"}],"stateMutability":"view"},{"type":"function","name":"fallbackEthPrice","inputs":[],"outputs":[{"name":"","type":"uint128","internalType":"uint128"}],"stateMutability":"view"},{"type":"function","name":"getCDSDepositDetails","inputs":[{"name":"depositor","type":"address","internalType":"address"},{"name":"index","type":"uint64","internalType":"uint64"}],"outputs":[{"name":"","type":"tuple","internalType":"struct CDSTest.CdsAccountDetails","components":[{"name":"depositedTime","type":"uint64","internalType":"uint64"},{"name":"depositedAmount","type":"uint128","internalType":"uint128"},{"name":"withdrawedTime","type":"uint64","internalType":"uint64"},{"name":"withdrawedAmount","type":"uint128","internalType":"uint128"},{"name":"withdrawed","type":"bool","internalType":"bool"},{"name":"depositPrice","type":"uint128","internalType":"uint128"},{"name":"depositValue","type":"uint128","internalType":"uint128"},{"name":"optedLiquidation","type":"bool","internalType":"bool"},{"name":"InitialLiquidationAmount","type":"uint128","internalType":"uint128"},{"name":"liquidationAmount","type":"uint128","internalType":"uint128"},{"name":"liquidationindex","type":"uint128","internalType":"uint128"},{"name":"normalizedAmount","type":"uint128","internalType":"uint128"}]},{"name":"","type":"uint64","internalType":"uint64"}],"stateMutability":"view"},{"type":"function","name":"lastCumulativeRate","inputs":[],"outputs":[{"name":"","type":"uint128","internalType":"uint128"}],"stateMutability":"view"},{"type":"function","name":"lastEthPrice","inputs":[],"outputs":[{"name":"","type":"uint128","internalType":"uint128"}],"stateMutability":"view"},{"type":"function","name":"liquidationIndexToInfo","inputs":[{"name":"liquidationIndex","type":"uint128","internalType":"uint128"}],"outputs":[{"name":"liquidationAmount","type":"uint128","internalType":"uint128"},{"name":"profits","type":"uint128","internalType":"uint128"},{"name":"ethAmount","type":"uint128","internalType":"uint128"},{"name":"availableLiquidationAmount","type":"uint256","internalType":"uint256"}],"stateMutability":"view"},{"type":"function","name":"multiSign","inputs":[],"outputs":[{"name":"","type":"address","internalType":"contract IMultiSign"}],"stateMutability":"view"},{"type":"function","name":"owner","inputs":[],"outputs":[{"name":"","type":"address","internalType":"address"}],"stateMutability":"view"},{"type":"function","name":"redeemUSDT","inputs":[{"name":"_amintAmount","type":"uint128","internalType":"uint128"},{"name":"amintPrice","type":"uint64","internalType":"uint64"},{"name":"usdtPrice","type":"uint64","internalType":"uint64"}],"outputs":[],"stateMutability":"nonpayable"},{"type":"function","name":"renounceOwnership","inputs":[],"outputs":[],"stateMutability":"nonpayable"},{"type":"function","name":"setAmintLimit","inputs":[{"name":"percent","type":"uint8","internalType":"uint8"}],"outputs":[],"stateMutability":"nonpayable"},{"type":"function","name":"setBorrowingContract","inputs":[{"name":"_address","type":"address","internalType":"address"}],"outputs":[],"stateMutability":"nonpayable"},{"type":"function","name":"setTreasury","inputs":[{"name":"_treasury","type":"address","internalType":"address"}],"outputs":[],"stateMutability":"nonpayable"},{"type":"function","name":"setUsdtLimit","inputs":[{"name":"amount","type":"uint64","internalType":"uint64"}],"outputs":[],"stateMutability":"nonpayable"},{"type":"function","name":"setWithdrawTimeLimit","inputs":[{"name":"_timeLimit","type":"uint64","internalType":"uint64"}],"outputs":[],"stateMutability":"nonpayable"},{"type":"function","name":"totalAvailableLiquidationAmount","inputs":[],"outputs":[{"name":"","type":"uint256","internalType":"uint256"}],"stateMutability":"view"},{"type":"function","name":"totalCdsDepositedAmount","inputs":[],"outputs":[{"name":"","type":"uint128","internalType":"uint128"}],"stateMutability":"view"},{"type":"function","name":"transferOwnership","inputs":[{"name":"newOwner","type":"address","internalType":"address"}],"outputs":[],"stateMutability":"nonpayable"},{"type":"function","name":"treasury","inputs":[],"outputs":[{"name":"","type":"address","internalType":"contract ITreasury"}],"stateMutability":"view"},{"type":"function","name":"treasuryAddress","inputs":[],"outputs":[{"name":"","type":"address","internalType":"address"}],"stateMutability":"view"},{"type":"function","name":"updateLiquidationInfo","inputs":[{"name":"index","type":"uint128","internalType":"uint128"},{"name":"liquidationData","type":"tuple","internalType":"struct CDSTest.LiquidationInfo","components":[{"name":"liquidationAmount","type":"uint128","internalType":"uint128"},{"name":"profits","type":"uint128","internalType":"uint128"},{"name":"ethAmount","type":"uint128","internalType":"uint128"},{"name":"availableLiquidationAmount","type":"uint256","internalType":"uint256"}]}],"outputs":[],"stateMutability":"nonpayable"},{"type":"function","name":"updateTotalAvailableLiquidationAmount","inputs":[{"name":"amount","type":"uint256","internalType":"uint256"}],"outputs":[],"stateMutability":"nonpayable"},{"type":"function","name":"updateTotalCdsDepositedAmount","inputs":[{"name":"_amount","type":"uint128","internalType":"uint128"}],"outputs":[],"stateMutability":"nonpayable"},{"type":"function","name":"usdt","inputs":[],"outputs":[{"name":"","type":"address","internalType":"contract IERC20"}],"stateMutability":"view"},{"type":"function","name":"usdtAmountDepositedTillNow","inputs":[],"outputs":[{"name":"","type":"uint256","internalType":"uint256"}],"stateMutability":"view"},{"type":"function","name":"usdtLimit","inputs":[],"outputs":[{"name":"","type":"uint64","internalType":"uint64"}],"stateMutability":"view"},{"type":"function","name":"withdraw","inputs":[{"name":"_index","type":"uint64","internalType":"uint64"}],"outputs":[],"stateMutability":"nonpayable"},{"type":"function","name":"withdrawTimeLimit","inputs":[],"outputs":[{"name":"","type":"uint64","internalType":"uint64"}],"stateMutability":"view"},{"type":"event","name":"Deposit","inputs":[{"name":"depositedAmint","type":"uint128","indexed":false,"internalType":"uint128"},{"name":"index","type":"uint64","indexed":false,"internalType":"uint64"},{"name":"liquidationAmount","type":"uint128","indexed":false,"internalType":"uint128"},{"name":"normalizedAmount","type":"uint128","indexed":false,"internalType":"uint128"},{"name":"depositVal","type":"uint128","indexed":false,"internalType":"uint128"}],"anonymous":false},{"type":"event","name":"OwnershipTransferred","inputs":[{"name":"previousOwner","type":"address","indexed":true,"internalType":"address"},{"name":"newOwner","type":"address","indexed":true,"internalType":"address"}],"anonymous":false},{"type":"event","name":"Withdraw","inputs":[{"name":"withdrewAmint","type":"uint128","indexed":false,"internalType":"uint128"},{"name":"withdrawETH","type":"uint128","indexed":false,"internalType":"uint128"}],"anonymous":false}],"bytecode":{"object":"0x60a08060405234620002025760808162003436803803809162000023828562000207565b8339810103126200020257620000398162000241565b620000476020830162000241565b620000556040840162000241565b92606001620000649062000241565b600080546001600160a01b03198082163390811784556040516001600160a01b039894969095869586958b94859392849290919083167f8be0079c531659141344cd1fd0a4f28419497f9722a3daafe3b4186f6b6457e08d80a364e8d4a510009c8d9c600160801b60019003199d8e600e541617600e551660805216856005541617600555168360045416176004551680916003541617600355633fabe5a360e21b82525a9260049160a094fa918215620001f65780926200019a575b5050620f424060018060801b03910416818181600954161760801b1617600955600c541617600c556040516131ca90816200026c823960805181818161083f01528181610e5f01528181610ff9015281816111da01528181611d6c01528181611fe801528181612337015281816126e30152612ed90152f35b90915060a0823d8211620001ed575b81620001b860a0938362000207565b81010312620001ea5750620001cd8162000256565b50620001e160806020830151920162000256565b50388062000121565b80fd5b3d9150620001a9565b604051903d90823e3d90fd5b600080fd5b601f909101601f19168101906001600160401b038211908210176200022b57604052565b634e487b7160e01b600052604160045260246000fd5b51906001600160a01b03821682036200020257565b51906001600160501b0382168203620002025756fe608080604052600436101561001d575b50361561001b57600080fd5b005b600090813560e01c9081632bb2ea6214612a37575080632f48ab7d14612a0e578063412cfc94146129ea57806346696df31461263b5780634721bae81461243e5780634cae95d3146123905780634f04a86b14612366578063503e6322146123215780635a20329c146122f857806360b415ed146122cf57806361d027b3146122a65780637038fc4e1461227f578063715018a614612225578063750f0acc1461176757806376a3fb3e1461174957806377b7cda61461172857806378fdaf3f146116c85780637bf5e2451461162457806384637c261461159257806384a965ed14611569578063868c10d2146114bf578063880e8e3b146114715780638da5cb5b1461144a5780638e4db39a146114235780639e6fe439146113fa578063aaf5eb68146113d3578063b0b6f3c614610678578063b3013d4d146105b0578063b87c3dc314610428578063c5f956af146103ff578063d3e3413f146103a2578063dc55b19314610360578063dc91e75214610342578063df6f05e71461031b578063f0f44260146102af578063f2fde38b146101e95763f57ff39c0361000f57346101e657806003193601126101e65760206001600160401b03600c5460881c16604051908152f35b80fd5b50346101e65760203660031901126101e657610203612ac4565b61020b61313c565b6001600160a01b0390811690811561025b57600054826001600160601b0360a01b821617600055167f8be0079c531659141344cd1fd0a4f28419497f9722a3daafe3b4186f6b6457e0600080a380f35b60405162461bcd60e51b815260206004820152602660248201527f4f776e61626c653a206e6577206f776e657220697320746865207a65726f206160448201526564647265737360d01b6064820152608490fd5b50346101e65760203660031901126101e6576102c9612ac4565b6102d161313c565b6001600160a01b038116906102f0908215159081610310575b506130f0565b6001600160601b0360a01b81816008541617600855600254161760025580f35b90503b1515386102ea565b50346101e657806003193601126101e65760206001600160401b03600a5416604051908152f35b50346101e657806003193601126101e6576020600b54604051908152f35b50346101e65760203660031901126101e65761037a612a56565b6001600160801b03600a54916103958219918460801c612e8c565b60801b16911617600a5580f35b50346101e65760203660031901126101e65760809060406001600160801b0391826103cb612a56565b168152601060205220805490600283600183015416910154916040519381168452841c602084015260408301526060820152f35b50346101e657806003193601126101e6576008546040516001600160a01b039091168152602090f35b50346101e657602090816003193601126101e657610444612a56565b906001600160801b03908183161561056b5761049f600a5461049a858260801c92866104708386612ba8565b946104856001600160801b03199a8b92612ba8565b60801b16911617600a5585600e541690612bc3565b612be1565b90808560018060a01b03600254166004604051809481936322d7586760e11b83525af191821561055f57908492610532575b50166104fc576104e59082600e5416612ba8565b9181831690600c541617600c555b60405191168152f35b91600c54908261052661051f61051783600e54169788612ba8565b838616612bc3565b9586612be1565b16911617600c556104f3565b6105529150863d8811610558575b61054a8183612b3a565b810190612da8565b386104d1565b503d610540565b604051903d90823e3d90fd5b60405162461bcd60e51b815260048101859052601760248201527f466565732073686f756c64206e6f74206265207a65726f0000000000000000006044820152606490fd5b50346101e65760a03660031901126101e6576105ca612a56565b608036602319011261067457604051906105e382612b1f565b6105eb612a6c565b8252604435906001600160801b03808316830361066f5760029260208501908152610614612a82565b604086810191825260843560608801908152948416885260106020528720955191516001600160801b031990841660801b81169284166001600160801b03169290921786559160018601925116908254161790555191015580f35b600080fd5b5080fd5b50346101e65760803660031901126101e657610692612a56565b61069a612a6c565b6044351515604435036113cf576106af612a82565b9183602060018060a01b03600454166024604051809481936326d2a55160e21b83526004808401525af180156113c4576106f19186916113a5575b5015612b73565b6106fb8282612ba8565b916001600160801b03831615611356576001600160801b0383166001600160801b038516116112f25782600d54600c54906001600160401b038260881c161160001461119257506001600160801b03166001600160801b0383160361114d575b6001600160801b038216151590818061113b575b15610fb6576005546040516370a0823160e01b81523360048201526001600160a01b0390911690602081602481855afa8015610f77578890610f82575b6107c291506001600160801b0386161115612c0f565b60018060a01b036008541660206040518093818b816107f18b6323b872dd60e01b988984523360048501612c6d565b03925af18015610f77576001610814916020948b91610f5a575b50151514612c97565b60085460405191825290928391829161083a916001600160a01b03163360048501612c6d565b0381897f00000000000000000000000000000000000000000000000000000000000000006001600160a01b03165af1908115610dba57610887916001918891610f3b575b50151514612cef565b61089c6001600160801b038316600d54612d47565b600d55610e21575b506108ad612dde565b916108c26001600160801b0384161515612d54565b338452600f6020526040842080549060ff8260401c1615600014610def575050338452600f602052604084206801000000000000000168ffffffffffffffffff19825416179055600192600a546001600160401b03610922818316612d90565b16906001600160401b03191617600a555b338552600f602052600160408620016001600160401b03851660005260205260406000208054600160401b600160c01b038560401b1690600160401b600160c01b031916179055338552600f602052600160408620016001600160401b03851660005260205260026040600020016001600160801b0382166001600160801b0319825416179055600a546001600160801b0380196109d4868460801c612ba8565b60801b16911617600a55338552600f602052600160408620016001600160401b03851660005260205260406000206001600160401b0342166001600160401b0319825416179055610a45610a336001600160801b03600e541685612bc3565b6001600160801b03600c541690612be1565b338652600f602052600160408720016001600160401b0386166000526020526001600160801b03600560406000200191166001600160801b0319825416179055338552600f602052600160408620016001600160401b038516600052602052600360406000200160ff1981541660ff604435151516179055604435610bb5575b9260a092917f0a5985aa28fedd5d60e042a47ad0dcb83381febf41639cd599c154a7fee13ca6946001600160801b03600954166001600160801b03821603610b92575b50338652600f602052600160408720016001600160401b0383166000526020526001600160801b03806005604060002001541691338852600f602052600160408920016001600160401b0385166000526020526001600160401b0360026040600020015460801c94836040519716875216602086015216604084015260608301526080820152a180f35b610baf906001600160801b03801960095460801b16911617600955565b38610b08565b6001546040516338a912d560e01b81526001600160a01b0390911690602081600481855afa8015610de4576001600160801b03918891610dc5575b5016610d0257509260a092917f0a5985aa28fedd5d60e042a47ad0dcb83381febf41639cd599c154a7fee13ca694338752600f602052600160408820016001600160401b0384166000526020526004604060002001600160801b6001600160801b038254161790555b338752600f602052600160408820016001600160401b03841660005260205260046040600020016001600160801b0383166001600160801b0319825416179055338752600f602052600160408820016001600160401b03841660005260205260036040600020018054610100600160881b038460081b1690610100600160881b031916179055610cf46001600160801b038316600b54612d47565b600b55919450919250610ac5565b916020600495929493604051968780926338a912d560e01b82525afa938415610dba57610d9660a0957f0a5985aa28fedd5d60e042a47ad0dcb83381febf41639cd599c154a7fee13ca6978991610d9b575b50338952600f602052600160408a20016001600160401b0386166000526020526004604060002001906001600160801b0382549181199060801b169116179055565b610c59565b610db4915060203d6020116105585761054a8183612b3a565b38610d54565b6040513d88823e3d90fd5b610dde915060203d6020116105585761054a8183612b3a565b38610bf0565b6040513d89823e3d90fd5b610e016001600160401b038316612d90565b67ffffffffffffffff199092166001600160401b03831617905592610933565b6008546040516340c10f1960e01b81526001600160a01b039190911660048201526001600160801b03909116602482015260208180604481010381877f00000000000000000000000000000000000000000000000000000000000000006001600160a01b03165af18015610f30576001918591610f01575b50151503610ea757386108a4565b60405162461bcd60e51b815260206004820152602c60248201527f414d494e54206d696e7420746f207472656173757279206661696c656420696e60448201526b0810d114c819195c1bdcda5d60a21b6064820152608490fd5b610f23915060203d602011610f29575b610f1b8183612b3a565b810190612b5b565b38610e99565b503d610f11565b6040513d86823e3d90fd5b610f54915060203d602011610f2957610f1b8183612b3a565b3861087e565b610f719150853d8711610f2957610f1b8183612b3a565b3861080b565b6040513d8a823e3d90fd5b506020813d602011610fae575b81610f9c60209383612b3a565b8101031261066f576107c290516107ac565b3d9150610f8f565b6001600160801b038316611045576008546040516323b872dd60e01b81529160209183918291610ff491906001600160a01b03163360048501612c6d565b0381897f00000000000000000000000000000000000000000000000000000000000000006001600160a01b03165af1908115610dba57611040916001918891610f3b5750151514612cef565b610887565b506005546040516370a0823160e01b8152336004820152906001600160a01b0316602082602481845afa8015610de45784928891611103575b509160209161109b6110c9946001600160801b0384161115612c0f565b6008546040516323b872dd60e01b815294859384928c92849290916001600160a01b03163360048501612c6d565b03925af1908115610dba576110409160019188916110ea5750151514612c97565b610f71915060203d602011610f2957610f1b8183612b3a565b9250506020823d602011611133575b8161111f60209383612b3a565b8101031261066f579051839190602061107e565b3d9150611112565b506001600160801b038116151561076f565b60405162461bcd60e51b815260206004820152601b60248201527f31303025206f6620616d6f756e74206d757374206265205553445400000000006044820152606490fd5b6001600160801b036111ad819360ff60649460801c16612bc3565b1604166001600160801b038216106112ad576040516370a0823160e01b81523360048201526020816024817f00000000000000000000000000000000000000000000000000000000000000006001600160a01b03165afa908115610dba57869161127b575b506001600160801b038216111561075b5760405162461bcd60e51b815260206004820152602a60248201527f496e73756666696369656e7420414d494e542062616c616e636520776974682060448201526936b9b39739b2b73232b960b11b6064820152608490fd5b90506020813d6020116112a5575b8161129660209383612b3a565b8101031261066f575138611212565b3d9150611289565b60405162461bcd60e51b815260206004820152601d60248201527f526571756972656420414d494e5420616d6f756e74206e6f74206d65740000006044820152606490fd5b60405162461bcd60e51b815260206004820152603660248201527f4c69717569646174696f6e20616d6f756e742063616e27742067726561746572604482015275081d1a185b8819195c1bdcda5d195908185b5bdd5b9d60521b6064820152608490fd5b60405162461bcd60e51b815260206004820152602160248201527f4465706f73697420616d6f756e742073686f756c64206e6f74206265207a65726044820152606f60f81b6064820152608490fd5b6113be915060203d602011610f2957610f1b8183612b3a565b386106ea565b6040513d87823e3d90fd5b8280fd5b50346101e657806003193601126101e65760206001600160801b03600e5416604051908152f35b50346101e657806003193601126101e6576004546040516001600160a01b039091168152602090f35b50346101e657806003193601126101e65760206001600160801b03600c5416604051908152f35b50346101e657806003193601126101e657546040516001600160a01b039091168152602090f35b50346101e65760203660031901126101e65760409081906001600160a01b03611498612ac4565b168152600f602052205460ff8251916001600160401b0381168352831c1615156020820152f35b50346101e65760203660031901126101e6576114d9612aae565b6114e161313c565b6001600160401b0381161561151a5767ffffffffffffffff60401b600a549160401b169067ffffffffffffffff60401b191617600a5580f35b60405162461bcd60e51b815260206004820152602160248201527f57697468647261772074696d65206c696d69742063616e2774206265207a65726044820152606f60f81b6064820152608490fd5b50346101e657806003193601126101e6576006546040516001600160a01b039091168152602090f35b50346101e65760203660031901126101e65760043560ff81168082036113cf576115ba61313c565b156115df57600c805460ff60801b191660809290921b60ff60801b1691909117905580f35b60405162461bcd60e51b815260206004820152601960248201527f416d696e74206c696d69742063616e2774206265207a65726f000000000000006044820152606490fd5b50346101e65760203660031901126101e65761163e612aae565b61164661313c565b6001600160401b0381161561168357600c805467ffffffffffffffff60881b191660889290921b67ffffffffffffffff60881b1691909117905580f35b60405162461bcd60e51b815260206004820152601860248201527f55534454206c696d69742063616e2774206265207a65726f00000000000000006044820152606490fd5b50346101e65760203660031901126101e6576116e2612ac4565b6116ea61313c565b6001600160a01b0381169061170890821515908161031057506130f0565b6001600160601b0360a01b81816006541617600655600154161760015580f35b50346101e657806003193601126101e657602060095460801c604051908152f35b50346101e657806003193601126101e6576020600d54604051908152f35b50346101e65760203660031901126101e657611781612aae565b81602060018060a01b03600454166024604051809481936326d2a55160e21b8352600560048401525af1801561221a576117c29184916113a5575015612b73565b338252600f6020526001600160401b039081604084205416828216116121c757338352600f6020526001604084200182821660005260205260ff60016040600020015460801c1661218e57338352600f60205260016040842001828216600052602052816040600020541682600a5460401c160182811161217a578280421691161161211e57338352600f602052600160408420018282166000526020526001604060002001600160801b60ff60801b19825416179055338352600f6020526001826040852054161480612112575b6120d7575b61189e612dde565b916118b36001600160801b0384161515612d54565b61194e61191e6118c4858533612ea5565b338752600f602052600160408820018486166000526020526119186119066001600160801b03600560406000200154166001600160801b03600c541690612bc3565b6001600160801b03600e541690612be1565b90612ba8565b338652600f602052600160408720018385166000526020526001600160801b0360406000205460401c1690612e8c565b33808652600f60208181526040808920878716600081815260019283018552838120830180546001600160801b0319166001600160801b038a16908117909155878d52868652848d208383528401865284822080546001600160c01b03164260c01b6001600160c01b031916179055968c52948452828b209085520190915290206003015460ff1615611f30575092611a1360049394338752600f602052600160408820018487166000526020526001600160801b0385604060002001541690612e8c565b6001546040516338a912d560e01b81529491929160209186919082906001600160a01b03165afa938415610dba578694611f0f575b50338652600f6020526001604087200183861660005260205260046040600020015460801c9186925b6001600160801b0386166001600160801b03821611611c4c57338852600f602052600160408920018588166000526020526001600160801b036004604060002001541680611aee575b506001600160801b03166001600160801b038114611ada57600101611a71565b634e487b7160e01b88526011600452602488fd5b90936001600160801b038516895260106020526402540be40060408a2092600260405194611b1b86612b1f565b80546001600160801b038116875260801c60208701526001600160801b036001820154166040870152015460608501520290816001600160801b03811603611c36576402540be4006001600160801b03611c27898260408f988f99839a611b8e611c2f9b86806060870151169116612be1565b958986611ba18982602089015116612bc3565b1604338452600f602052600186852001828416600052602052600486600020019087611bd1835492828416612ba8565b16908819161790556001858b88611beb8b828a5116612bc3565b160494338152600f60205220019116600052602052600483600020019084611c17835492828416612e8c565b1690851916179055015116612bc3565b160490612ba8565b9390611aba565b634e487b7160e01b600052601160045260246000fd5b50611c86919592939450338752600f602052600160408820018584166000526020526001600160801b036004604060002001541690612ba8565b92600a546001600160801b038019611ca1878460801c612e8c565b60801b16911617600a55338652600f6020526001604087200191166000526020526001604060002001916001600160801b03811692836001600160801b03198254161790558460018060a01b0360025416803b1561067457604051630adfd5a560e21b81523060048201526001600160801b03841660248201529082908290604490829084905af18015611e8857611ef7575b50506008546040516323b872dd60e01b81529160209183918291611d67919033906001600160a01b031660048501612c6d565b0381887f00000000000000000000000000000000000000000000000000000000000000006001600160a01b03165af180156113c4576001918691611ed8575b50151503611e93576002546001600160a01b0316908490823b1561067457816001600160801b03604482936040519485938492635822b66d60e01b845233600485015216978860248401525af18015611e8857611e70575b50507f02d30220fb33c212455a8cbb2cf068095e080a18a527044b34360e67a705addd9160409182519182526020820152a15b6001600160801b03600954166001600160801b03821603611e50575080f35b611e6d906001600160801b03801960095460801b16911617600955565b80f35b611e7990612ada565b611e84578338611dfe565b8380fd5b6040513d84823e3d90fd5b60405162461bcd60e51b815260206004820152601e60248201527f5472616e7373756363657373656420696e2063647320776974686472617700006044820152606490fd5b611ef1915060203d602011610f2957610f1b8183612b3a565b38611da6565b611f0090612ada565b611f0b578438611d34565b8480fd5b611f2991945060203d6020116105585761054a8183612b3a565b9238611a48565b929091338652600f6020526001604087200191166000526020526001604060002001826001600160801b03198254161790558360018060a01b0360025416803b1561067457604051630adfd5a560e21b81523060048201526001600160801b03841660248201529082908290604490829084905af18015611e88576120c3575b50506008546040516323b872dd60e01b81529160209183918291611fe3919033906001600160a01b031660048501612c6d565b0381877f00000000000000000000000000000000000000000000000000000000000000006001600160a01b03165af18015610f305760019185916120a4575b5015150361205f5760407f02d30220fb33c212455a8cbb2cf068095e080a18a527044b34360e67a705addd918151908152846020820152a1611e31565b60405162461bcd60e51b815260206004820152601f60248201527f5472616e73666572206661696c656420696e20636473207769746864726177006044820152606490fd5b6120bd915060203d602011610f2957610f1b8183612b3a565b38612022565b6120cc90612ada565b611e84578338611fb0565b600a5482811680156120fe5783906000190116906001600160401b03191617600a55611896565b634e487b7160e01b85526011600452602485fd5b50600182821614611891565b60405162461bcd60e51b815260206004820152602e60248201527f63616e6e6f74207769746864726177206265666f72652074686520776974686460448201526d1c985dc81d1a5b59481b1a5b5a5d60921b6064820152608490fd5b634e487b7160e01b84526011600452602484fd5b60405162461bcd60e51b815260206004820152601160248201527020b63932b0b23c903bb4ba34323930bbb760791b6044820152606490fd5b60405162461bcd60e51b815260206004820152602560248201527f7573657220646f65736e277420686176652074686520737065636966696564206044820152640d2dcc8caf60db1b6064820152608490fd5b6040513d85823e3d90fd5b50346101e657806003193601126101e65761223e61313c565b600080546001600160a01b0319811682556001600160a01b03167f8be0079c531659141344cd1fd0a4f28419497f9722a3daafe3b4186f6b6457e08280a380f35b50346101e657806003193601126101e65760206001600160801b0360095416604051908152f35b50346101e657806003193601126101e6576002546040516001600160a01b039091168152602090f35b50346101e657806003193601126101e6576001546040516001600160a01b039091168152602090f35b50346101e657806003193601126101e6576007546040516001600160a01b039091168152602090f35b50346101e657806003193601126101e6576040517f00000000000000000000000000000000000000000000000000000000000000006001600160a01b03168152602090f35b50346101e657806003193601126101e65760206001600160401b03600a5460401c16604051908152f35b50346101e65760203660031901126101e6576006546001600160a01b031633036123dd57600b5460043581039081116123c957600b5580f35b634e487b7160e01b82526011600452602482fd5b60405162461bcd60e51b815260206004820152603360248201527f546869732066756e6374696f6e2063616e206f6e6c792063616c6c656420627960448201527208189bdc9c9bddda5b99c818dbdb9d1c9858dd606a1b6064820152608490fd5b50346101e65760403660031901126101e6576101a0906001600160401b036040612466612ac4565b9261246f612a98565b9381610160845161247f81612b03565b82815282602082015282868201528260608201528260808201528260a08201528260c08201528260e0820152826101008201528261012082015282610140820152015260018060a01b031693848252600f60205283600184842001911660005260205281600020938152600f6020522054166001600160801b0361016060405161250881612b03565b8260058654966001600160401b0388168452828860401c1660208501528760c01c604085015260ff6001820154848116606087015260801c1615156080850152600281015483811660a086015260801c60c085015282600382015460ff8116151560e087015260081c16610100850152600481015483811661012086015260801c610140850152015416828201526001600160401b03604051951685528260208201511660208601526001600160401b0360408201511660408601528260608201511660608601526080810151151560808601528260a08201511660a08601528260c08201511660c086015260e0810151151560e0860152826101008201511661010086015282610120820151166101208601528261014082015116610140860152015116610160830152610180820152f35b50346101e65760603660031901126101e657612655612a56565b8161265e612a98565b604435926001600160401b0393848116809103611e845760018060a01b039182600454169560405180976326d2a55160e21b82526006600483015260209889918160249a8b925af180156129df576126bd918a916129c8575015612b73565b6001600160801b038216948515612984576040516370a0823160e01b81523360048201527f00000000000000000000000000000000000000000000000000000000000000008616969089818a818b5afa908115612979578b91612948575b501061290d57846008541695886040518092818d8161274a8a6323b872dd60e01b9e8f84523360048501612c6d565b03925af18015612902576001918b916128e5575b50151503612893579161049a91612776949316612bc3565b918160025416803b1561288f5760405163e613610560e01b81523060048201526001600160801b03851660248201529087908290604490829084905af18015610de457612874575b5091816127e99387879460055416926008541691604051968795869485938452339060048501612c6d565b03925af18015610f30576001918591612857575b50151503612809578280f35b9060226084926040519262461bcd60e51b845260048401528201527f55534454205472616e73666572206661696c656420696e2072656465656d5553604482015261111560f21b6064820152fd5b61286e9150843d8611610f2957610f1b8183612b3a565b386127fd565b916127e99391966128858794612ada565b96919350916127be565b8680fd5b60405162461bcd60e51b8152600481018990526025818901527f5472696e697479205472616e73666572206661696c656420696e2072656465656044820152641b5554d11560da1b6064820152608490fd5b6128fc91508a3d8c11610f2957610f1b8183612b3a565b3861275e565b6040513d8c823e3d90fd5b60405162461bcd60e51b81526004810189905260148189015273496e73756666696369656e742062616c616e636560601b6044820152606490fd5b90508981813d8311612972575b61295f8183612b3a565b8101031261296e57513861271b565b8a80fd5b503d612955565b6040513d8d823e3d90fd5b60405162461bcd60e51b8152600481018990526019818901527f416d6f756e742073686f756c64206e6f74206265207a65726f000000000000006044820152606490fd5b6113be9150893d8b11610f2957610f1b8183612b3a565b6040513d8b823e3d90fd5b50346101e657806003193601126101e657602060ff600c5460801c16604051908152f35b50346101e657806003193601126101e6576005546040516001600160a01b039091168152602090f35b905034610674578160031936011261067457602090600a5460801c8152f35b600435906001600160801b038216820361066f57565b602435906001600160801b038216820361066f57565b606435906001600160801b038216820361066f57565b602435906001600160401b038216820361066f57565b600435906001600160401b038216820361066f57565b600435906001600160a01b038216820361066f57565b6001600160401b038111612aed57604052565b634e487b7160e01b600052604160045260246000fd5b61018081019081106001600160401b03821117612aed57604052565b608081019081106001600160401b03821117612aed57604052565b90601f801991011681019081106001600160401b03821117612aed57604052565b9081602091031261066f5751801515810361066f5790565b15612b7a57565b60405162461bcd60e51b815260206004820152600660248201526514185d5cd95960d21b6044820152606490fd5b9190916001600160801b0380809416911601918211611c3657565b9190916001600160801b0380809416911602918216918203611c3657565b906001600160801b03809116918215612bf957160490565b634e487b7160e01b600052601260045260246000fd5b15612c1657565b60405162461bcd60e51b815260206004820152602960248201527f496e73756666696369656e7420555344542062616c616e63652077697468206d60448201526839b39739b2b73232b960b91b6064820152608490fd5b6001600160a01b039182168152911660208201526001600160801b03909116604082015260600190565b15612c9e57565b60405162461bcd60e51b815260206004820152602360248201527f55534454205472616e73666572206661696c656420696e20434453206465706f6044820152621cda5d60ea1b6064820152608490fd5b15612cf657565b60405162461bcd60e51b8152602060048201526024808201527f414d494e54205472616e73666572206661696c656420696e20434453206465706044820152631bdcda5d60e21b6064820152608490fd5b91908201809211611c3657565b15612d5b57565b60405162461bcd60e51b815260206004820152600d60248201526c13dc9858db194811985a5b1959609a1b6044820152606490fd5b6001600160401b03809116908114611c365760010190565b9081602091031261066f57516001600160801b038116810361066f5790565b519069ffffffffffffffffffff8216820361066f57565b600354604051633fabe5a360e21b81529060a090829060049082906001600160a01b03165afa908115612e8057600091612e26575b50620f42406001600160801b0391041690565b9060a0823d8211612e78575b81612e3f60a09383612b3a565b810103126101e65750620f424081612e5e6001600160801b0393612dc7565b50612e70608060208301519201612dc7565b509150612e13565b3d9150612e32565b6040513d6000823e3d90fd5b6001600160801b039182169082160391908211611c3657565b600854604080516370a0823160e01b81526001600160a01b03928316600482015294929390929091602091600083886024817f000000000000000000000000000000000000000000000000000000000000000087165afa9788156130e45781986130b0575b506004906001600160801b0380991692858560025416895194858092630f27449560e01b82525afa9283156130a657908a918394613073575b5084612ff557505050505060005b33600052600f83526001600160401b0360018660002001941693846000528352600285600020015460801c808883161115600014612fd35793612fc893889593612fa4620186a09894612fd09b96612e8c565b9816600052600f81526001836000200191600052528060002054901c169384612bc3565b160490612e8c565b90565b93612fee93889593612fa4612fd09a95620186a09995612e8c565b1604612ba8565b6009548281169190838216831461305f57509061301191612e8c565b925b166103e8029089821691820361304b5750613035613046939261304092612bc3565b9189600e5416612bc3565b90612be1565b612f51565b634e487b7160e01b81526011600452602490fd5b61306d925060801c90612e8c565b92613013565b87809295508193503d831161309f575b61308d8183612b3a565b81010312610674578990519238612f43565b503d613083565b88513d84823e3d90fd5b9097508381813d83116130dd575b6130c88183612b3a565b810103126130d95751966004612f0a565b8780fd5b503d6130be565b508551903d90823e3d90fd5b156130f757565b60405162461bcd60e51b815260206004820152601860248201527f496e707574206164647265737320697320696e76616c696400000000000000006044820152606490fd5b6000546001600160a01b0316330361315057565b606460405162461bcd60e51b815260206004820152602060248201527f4f776e61626c653a2063616c6c6572206973206e6f7420746865206f776e65726044820152fdfea2646970667358221220a118f5fc7ef6cc7f1166e603632b35d7429c1a58715bddb8d1934f3ac26cd71564736f6c63430008120033","linkReferences":{}},"methodIdentifiers":{"PRECISION()":"aaf5eb68","amint()":"503e6322","amintLimit()":"412cfc94","borrowing()":"60b415ed","borrowingContract()":"84a965ed","calculateCumulativeRate(uint128)":"b87c3dc3","cdsCount()":"df6f05e7","cdsDetails(address)":"880e8e3b","deposit(uint128,uint128,bool,uint128)":"b0b6f3c6","ethVault()":"5a20329c","fallbackEthPrice()":"77b7cda6","getCDSDepositDetails(address,uint64)":"4721bae8","lastCumulativeRate()":"8e4db39a","lastEthPrice()":"7038fc4e","liquidationIndexToInfo(uint128)":"d3e3413f","multiSign()":"9e6fe439","owner()":"8da5cb5b","redeemUSDT(uint128,uint64,uint64)":"46696df3","renounceOwnership()":"715018a6","setAmintLimit(uint8)":"84637c26","setBorrowingContract(address)":"78fdaf3f","setTreasury(address)":"f0f44260","setUsdtLimit(uint64)":"7bf5e245","setWithdrawTimeLimit(uint64)":"868c10d2","totalAvailableLiquidationAmount()":"dc91e752","totalCdsDepositedAmount()":"2bb2ea62","transferOwnership(address)":"f2fde38b","treasury()":"61d027b3","treasuryAddress()":"c5f956af","updateLiquidationInfo(uint128,(uint128,uint128,uint128,uint256))":"b3013d4d","updateTotalAvailableLiquidationAmount(uint256)":"4cae95d3","updateTotalCdsDepositedAmount(uint128)":"dc55b193","usdt()":"2f48ab7d","usdtAmountDepositedTillNow()":"76a3fb3e","usdtLimit()":"f57ff39c","withdraw(uint64)":"750f0acc","withdrawTimeLimit()":"4f04a86b"},"id":4}