{"abi":[{"type":"constructor","inputs":[{"name":"_trinity","type":"address","internalType":"address"},{"name":"priceFeed","type":"address","internalType":"address"},{"name":"_usdt","type":"address","internalType":"address"}],"stateMutability":"nonpayable"},{"type":"receive","stateMutability":"payable"},{"type":"function","name":"PRECISION","inputs":[],"outputs":[{"name":"","type":"uint128","internalType":"uint128"}],"stateMutability":"view"},{"type":"function","name":"Trinity_token","inputs":[],"outputs":[{"name":"","type":"address","internalType":"contract ITrinityToken"}],"stateMutability":"view"},{"type":"function","name":"amintLimit","inputs":[],"outputs":[{"name":"","type":"uint8","internalType":"uint8"}],"stateMutability":"view"},{"type":"function","name":"borrowing","inputs":[],"outputs":[{"name":"","type":"address","internalType":"contract IBorrowing"}],"stateMutability":"view"},{"type":"function","name":"borrowingContract","inputs":[],"outputs":[{"name":"","type":"address","internalType":"address"}],"stateMutability":"view"},{"type":"function","name":"calculateCumulativeRate","inputs":[{"name":"fees","type":"uint128","internalType":"uint128"}],"outputs":[{"name":"","type":"uint128","internalType":"uint128"}],"stateMutability":"nonpayable"},{"type":"function","name":"cdsCount","inputs":[],"outputs":[{"name":"","type":"uint64","internalType":"uint64"}],"stateMutability":"view"},{"type":"function","name":"cdsDetails","inputs":[{"name":"","type":"address","internalType":"address"}],"outputs":[{"name":"index","type":"uint64","internalType":"uint64"},{"name":"hasDeposited","type":"bool","internalType":"bool"}],"stateMutability":"view"},{"type":"function","name":"deposit","inputs":[{"name":"usdtAmount","type":"uint128","internalType":"uint128"},{"name":"amintAmount","type":"uint128","internalType":"uint128"},{"name":"_liquidate","type":"bool","internalType":"bool"},{"name":"_liquidationAmount","type":"uint128","internalType":"uint128"}],"outputs":[],"stateMutability":"nonpayable"},{"type":"function","name":"ethVault","inputs":[],"outputs":[{"name":"","type":"address","internalType":"address"}],"stateMutability":"view"},{"type":"function","name":"fallbackEthPrice","inputs":[],"outputs":[{"name":"","type":"uint128","internalType":"uint128"}],"stateMutability":"view"},{"type":"function","name":"getCDSDepositDetails","inputs":[{"name":"depositor","type":"address","internalType":"address"},{"name":"index","type":"uint64","internalType":"uint64"}],"outputs":[{"name":"","type":"tuple","internalType":"struct CDSTest.CdsAccountDetails","components":[{"name":"depositedTime","type":"uint64","internalType":"uint64"},{"name":"depositedAmount","type":"uint128","internalType":"uint128"},{"name":"withdrawedTime","type":"uint64","internalType":"uint64"},{"name":"withdrawedAmount","type":"uint128","internalType":"uint128"},{"name":"withdrawed","type":"bool","internalType":"bool"},{"name":"depositPrice","type":"uint128","internalType":"uint128"},{"name":"depositValue","type":"uint128","internalType":"uint128"},{"name":"optedLiquidation","type":"bool","internalType":"bool"},{"name":"InitialLiquidationAmount","type":"uint128","internalType":"uint128"},{"name":"liquidationAmount","type":"uint128","internalType":"uint128"},{"name":"liquidationindex","type":"uint128","internalType":"uint128"},{"name":"normalizedAmount","type":"uint128","internalType":"uint128"}]},{"name":"","type":"uint64","internalType":"uint64"}],"stateMutability":"view"},{"type":"function","name":"lastCumulativeRate","inputs":[],"outputs":[{"name":"","type":"uint128","internalType":"uint128"}],"stateMutability":"view"},{"type":"function","name":"lastEthPrice","inputs":[],"outputs":[{"name":"","type":"uint128","internalType":"uint128"}],"stateMutability":"view"},{"type":"function","name":"liquidationIndexToInfo","inputs":[{"name":"liquidationIndex","type":"uint128","internalType":"uint128"}],"outputs":[{"name":"liquidationAmount","type":"uint128","internalType":"uint128"},{"name":"profits","type":"uint128","internalType":"uint128"},{"name":"ethAmount","type":"uint128","internalType":"uint128"},{"name":"availableLiquidationAmount","type":"uint256","internalType":"uint256"}],"stateMutability":"view"},{"type":"function","name":"owner","inputs":[],"outputs":[{"name":"","type":"address","internalType":"address"}],"stateMutability":"view"},{"type":"function","name":"redeemUSDT","inputs":[{"name":"_amintAmount","type":"uint128","internalType":"uint128"},{"name":"amintPrice","type":"uint64","internalType":"uint64"},{"name":"usdtPrice","type":"uint64","internalType":"uint64"}],"outputs":[],"stateMutability":"nonpayable"},{"type":"function","name":"renounceOwnership","inputs":[],"outputs":[],"stateMutability":"nonpayable"},{"type":"function","name":"setAmintLimit","inputs":[{"name":"percent","type":"uint8","internalType":"uint8"}],"outputs":[],"stateMutability":"nonpayable"},{"type":"function","name":"setBorrowingContract","inputs":[{"name":"_address","type":"address","internalType":"address"}],"outputs":[],"stateMutability":"nonpayable"},{"type":"function","name":"setTreasury","inputs":[{"name":"_treasury","type":"address","internalType":"address"}],"outputs":[],"stateMutability":"nonpayable"},{"type":"function","name":"setUsdtLimit","inputs":[{"name":"amount","type":"uint64","internalType":"uint64"}],"outputs":[],"stateMutability":"nonpayable"},{"type":"function","name":"setWithdrawTimeLimit","inputs":[{"name":"_timeLimit","type":"uint64","internalType":"uint64"}],"outputs":[],"stateMutability":"nonpayable"},{"type":"function","name":"totalAvailableLiquidationAmount","inputs":[],"outputs":[{"name":"","type":"uint256","internalType":"uint256"}],"stateMutability":"view"},{"type":"function","name":"totalCdsDepositedAmount","inputs":[],"outputs":[{"name":"","type":"uint128","internalType":"uint128"}],"stateMutability":"view"},{"type":"function","name":"transferOwnership","inputs":[{"name":"newOwner","type":"address","internalType":"address"}],"outputs":[],"stateMutability":"nonpayable"},{"type":"function","name":"treasury","inputs":[],"outputs":[{"name":"","type":"address","internalType":"contract ITreasury"}],"stateMutability":"view"},{"type":"function","name":"treasuryAddress","inputs":[],"outputs":[{"name":"","type":"address","internalType":"address"}],"stateMutability":"view"},{"type":"function","name":"updateLiquidationInfo","inputs":[{"name":"index","type":"uint128","internalType":"uint128"},{"name":"liquidationData","type":"tuple","internalType":"struct CDSTest.LiquidationInfo","components":[{"name":"liquidationAmount","type":"uint128","internalType":"uint128"},{"name":"profits","type":"uint128","internalType":"uint128"},{"name":"ethAmount","type":"uint128","internalType":"uint128"},{"name":"availableLiquidationAmount","type":"uint256","internalType":"uint256"}]}],"outputs":[],"stateMutability":"nonpayable"},{"type":"function","name":"updateTotalAvailableLiquidationAmount","inputs":[{"name":"amount","type":"uint256","internalType":"uint256"}],"outputs":[],"stateMutability":"nonpayable"},{"type":"function","name":"updateTotalCdsDepositedAmount","inputs":[{"name":"_amount","type":"uint128","internalType":"uint128"}],"outputs":[],"stateMutability":"nonpayable"},{"type":"function","name":"usdt","inputs":[],"outputs":[{"name":"","type":"address","internalType":"contract IERC20"}],"stateMutability":"view"},{"type":"function","name":"usdtAmountDepositedTillNow","inputs":[],"outputs":[{"name":"","type":"uint256","internalType":"uint256"}],"stateMutability":"view"},{"type":"function","name":"usdtLimit","inputs":[],"outputs":[{"name":"","type":"uint64","internalType":"uint64"}],"stateMutability":"view"},{"type":"function","name":"withdraw","inputs":[{"name":"_index","type":"uint64","internalType":"uint64"}],"outputs":[],"stateMutability":"nonpayable"},{"type":"function","name":"withdrawTimeLimit","inputs":[],"outputs":[{"name":"","type":"uint64","internalType":"uint64"}],"stateMutability":"view"},{"type":"event","name":"Deposit","inputs":[{"name":"depositedAmint","type":"uint128","indexed":false,"internalType":"uint128"},{"name":"index","type":"uint64","indexed":false,"internalType":"uint64"},{"name":"liquidationAmount","type":"uint128","indexed":false,"internalType":"uint128"},{"name":"normalizedAmount","type":"uint128","indexed":false,"internalType":"uint128"},{"name":"depositVal","type":"uint128","indexed":false,"internalType":"uint128"}],"anonymous":false},{"type":"event","name":"OwnershipTransferred","inputs":[{"name":"previousOwner","type":"address","indexed":true,"internalType":"address"},{"name":"newOwner","type":"address","indexed":true,"internalType":"address"}],"anonymous":false},{"type":"event","name":"Withdraw","inputs":[{"name":"withdrewAmint","type":"uint128","indexed":false,"internalType":"uint128"},{"name":"withdrawETH","type":"uint128","indexed":false,"internalType":"uint128"}],"anonymous":false}],"bytecode":{"object":"0x60a0604052600d80546001600160801b03191664e8d4a510001790553480156200002857600080fd5b5060405162003806380380620038068339810160408190526200004b91620001d9565b6200005633620000ce565b6001600160a01b03838116608052600480546001600160a01b03199081168484161790915560038054909116918416919091179055620000956200011e565b600880546001600160801b03199081166001600160801b0393841617909155600d54600b805491909316911617905550620002b3915050565b600080546001600160a01b038381166001600160a01b0319831681178455604051919092169283917f8be0079c531659141344cd1fd0a4f28419497f9722a3daafe3b4186f6b6457e09190a35050565b600080600360009054906101000a90046001600160a01b03166001600160a01b031663feaf968c6040518163ffffffff1660e01b815260040160a060405180830381865afa15801562000175573d6000803e3d6000fd5b505050506040513d601f19601f820116820180604052508101906200019b91906200023b565b50919350839250620001b59150620f424090508262000290565b9250505090565b80516001600160a01b0381168114620001d457600080fd5b919050565b600080600060608486031215620001ef57600080fd5b620001fa84620001bc565b92506200020a60208501620001bc565b91506200021a60408501620001bc565b90509250925092565b80516001600160501b0381168114620001d457600080fd5b600080600080600060a086880312156200025457600080fd5b6200025f8662000223565b9450602086015193506040860151925060608601519150620002846080870162000223565b90509295509295909350565b600082620002ae57634e487b7160e01b600052601260045260246000fd5b500490565b6080516134ff6200030760003960008181610231015281816109fa01528181610acf015281816115470152818161178f01528181611d5701528181611f650152818161203c015261226301526134ff6000f3fe6080604052600436106102135760003560e01c806384637c2611610118578063b87c3dc3116100a0578063dc91e7521161006f578063dc91e752146108df578063df6f05e7146108f5578063f0f4426014610915578063f2fde38b14610935578063f57ff39c1461095557600080fd5b8063b87c3dc3146107f8578063c5f956af14610818578063d3e3413f14610838578063dc55b193146108bf57600080fd5b80638da5cb5b116100e75780638da5cb5b146107005780638e4db39a1461071e578063aaf5eb681461073e578063b0b6f3c61461075e578063b3013d4d1461077e57600080fd5b806384637c261461063f57806384a965ed1461065f578063868c10d21461067f578063880e8e3b1461069f57600080fd5b806360b415ed1161019b578063750f0acc1161016a578063750f0acc1461059457806376a3fb3e146105b457806377b7cda6146105d857806378fdaf3f146105ff5780637bf5e2451461061f57600080fd5b806360b415ed1461051f57806361d027b31461053f5780637038fc4e1461055f578063715018a61461057f57600080fd5b806346696df3116101e257806346696df3146103025780634721bae8146103245780634cae95d3146104a05780634f04a86b146104c05780635a20329c146104ff57600080fd5b80630df03e411461021f5780632bb2ea62146102705780632f48ab7d146102af578063412cfc94146102cf57600080fd5b3661021a57005b600080fd5b34801561022b57600080fd5b506102537f000000000000000000000000000000000000000000000000000000000000000081565b6040516001600160a01b0390911681526020015b60405180910390f35b34801561027c57600080fd5b5060095461029790600160801b90046001600160801b031681565b6040516001600160801b039091168152602001610267565b3480156102bb57600080fd5b50600454610253906001600160a01b031681565b3480156102db57600080fd5b50600b546102f090600160801b900460ff1681565b60405160ff9091168152602001610267565b34801561030e57600080fd5b5061032261031d366004612e91565b61097c565b005b34801561033057600080fd5b5061049261033f366004612eed565b6040805161018081018252600080825260208201819052918101829052606081018290526080810182905260a0810182905260c0810182905260e08101829052610100810182905261012081018290526101408101829052610160810191909152506001600160a01b0382166000818152600e602081815260408084206001600160401b038088168652600180830185528387209790965293835254815161018081018352865480861682526001600160801b03600160401b8204811695830195909552600160c01b900485169281019290925293850154808316606083015260ff600160801b91829004811615156080840152600287015480851660a0850152829004841660c08401526003870154908116151560e084015261010090819004841690830152600486015480841661012084015204821661014082015260059094015416610160840152169250929050565b604051610267929190612f20565b3480156104ac57600080fd5b506103226104bb366004613037565b610d39565b3480156104cc57600080fd5b506009546104e790600160401b90046001600160401b031681565b6040516001600160401b039091168152602001610267565b34801561050b57600080fd5b50600654610253906001600160a01b031681565b34801561052b57600080fd5b50600154610253906001600160a01b031681565b34801561054b57600080fd5b50600254610253906001600160a01b031681565b34801561056b57600080fd5b50600854610297906001600160801b031681565b34801561058b57600080fd5b50610322610dc9565b3480156105a057600080fd5b506103226105af366004613050565b610ddd565b3480156105c057600080fd5b506105ca600c5481565b604051908152602001610267565b3480156105e457600080fd5b5060085461029790600160801b90046001600160801b031681565b34801561060b57600080fd5b5061032261061a36600461306b565b6118ca565b34801561062b57600080fd5b5061032261063a366004613050565b611966565b34801561064b57600080fd5b5061032261065a366004613086565b6119f4565b34801561066b57600080fd5b50600554610253906001600160a01b031681565b34801561068b57600080fd5b5061032261069a366004613050565b611a6f565b3480156106ab57600080fd5b506106e16106ba36600461306b565b600e602052600090815260409020546001600160401b03811690600160401b900460ff1682565b604080516001600160401b039093168352901515602083015201610267565b34801561070c57600080fd5b506000546001600160a01b0316610253565b34801561072a57600080fd5b50600b54610297906001600160801b031681565b34801561074a57600080fd5b50600d54610297906001600160801b031681565b34801561076a57600080fd5b506103226107793660046130b7565b611b0c565b34801561078a57600080fd5b50610322610799366004613113565b6001600160801b039182166000908152600f60209081526040918290208351918401518516600160801b0291851691909117815590820151600182018054919094166001600160801b0319919091161790925560600151600290910155565b34801561080457600080fd5b506102976108133660046131bd565b612889565b34801561082457600080fd5b50600754610253906001600160a01b031681565b34801561084457600080fd5b5061088a6108533660046131bd565b600f602052600090815260409020805460018201546002909201546001600160801b0380831693600160801b909304811692169084565b60405161026794939291906001600160801b039485168152928416602084015292166040820152606081019190915260800190565b3480156108cb57600080fd5b506103226108da3660046131bd565b612aca565b3480156108eb57600080fd5b506105ca600a5481565b34801561090157600080fd5b506009546104e7906001600160401b031681565b34801561092157600080fd5b5061032261093036600461306b565b612b15565b34801561094157600080fd5b5061032261095036600461306b565b612bb1565b34801561096157600080fd5b50600b546104e790600160881b90046001600160401b031681565b826001600160801b03166000036109da5760405162461bcd60e51b815260206004820152601960248201527f416d6f756e742073686f756c64206e6f74206265207a65726f0000000000000060448201526064015b60405180910390fd5b6040516370a0823160e01b81523360048201526001600160801b038416907f00000000000000000000000000000000000000000000000000000000000000006001600160a01b0316906370a0823190602401602060405180830381865afa158015610a49573d6000803e3d6000fd5b505050506040513d601f19601f82011682018060405250810190610a6d91906131da565b1015610ab25760405162461bcd60e51b8152602060048201526014602482015273496e73756666696369656e742062616c616e636560601b60448201526064016109d1565b6007546040516323b872dd60e01b81526000916001600160a01b037f00000000000000000000000000000000000000000000000000000000000000008116926323b872dd92610b0a92339291169089906004016131f3565b6020604051808303816000875af1158015610b29573d6000803e3d6000fd5b505050506040513d601f19601f82011682018060405250810190610b4d919061321f565b9050600181151514610baf5760405162461bcd60e51b815260206004820152602560248201527f5472696e697479205472616e73666572206661696c656420696e2072656465656044820152641b5554d11560da1b60648201526084016109d1565b600d54600090610bd2906001600160401b038516906001600160801b0316613252565b610be5866001600160401b038716613252565b610bef9190613293565b60025460405163e613610560e01b81529192506001600160a01b03169063e613610590610c2290309085906004016132b9565b600060405180830381600087803b158015610c3c57600080fd5b505af1158015610c50573d6000803e3d6000fd5b5050600480546007546040516323b872dd60e01b8152600095506001600160a01b0392831694506323b872dd93610c8f939092169133918891016131f3565b6020604051808303816000875af1158015610cae573d6000803e3d6000fd5b505050506040513d601f19601f82011682018060405250810190610cd2919061321f565b9050600181151514610d315760405162461bcd60e51b815260206004820152602260248201527f55534454205472616e73666572206661696c656420696e2072656465656d5553604482015261111560f21b60648201526084016109d1565b505050505050565b6005546001600160a01b03163314610daf5760405162461bcd60e51b815260206004820152603360248201527f546869732066756e6374696f6e2063616e206f6e6c792063616c6c656420627960448201527208189bdc9c9bddda5b99c818dbdb9d1c9858dd606a1b60648201526084016109d1565b80600a6000828254610dc191906132db565b909155505050565b610dd1612c2a565b610ddb6000612c84565b565b336000908152600e60205260409020546001600160401b0380831691161015610e565760405162461bcd60e51b815260206004820152602560248201527f7573657220646f65736e277420686176652074686520737065636966696564206044820152640d2dcc8caf60db1b60648201526084016109d1565b336000908152600e602090815260408083206001600160401b038516845260019081019092529091200154600160801b900460ff1615610ecc5760405162461bcd60e51b815260206004820152601160248201527020b63932b0b23c903bb4ba34323930bbb760791b60448201526064016109d1565b336000818152600e602081815260408084206001600160401b038088168652600182810185529286208301805460ff60801b1916600160801b179055959094529190529054429216148015610f2a5750816001600160401b03166001145b15610f6d5760098054600090610f48906001600160401b03166132f4565b91906101000a8154816001600160401b0302191690836001600160401b031602179055505b6000610f77612cd4565b9050806001600160801b0316600003610fc25760405162461bcd60e51b815260206004820152600d60248201526c13dc9858db194811985a5b1959609a1b60448201526064016109d1565b336000908152600e602090815260408083206001600160401b038716845260010190915281205461100490600160401b90046001600160801b03166002613252565b600d54600b54336000908152600e602090815260408083206001600160401b038b1684526001019091529020600501546001600160801b039283169261104d9281169116613252565b6110579190613293565b611062338786612d6d565b61106c9190613317565b611076919061333e565b336000908152600e602090815260408083206001600160401b0389811685526001918201909352922091820180546001600160801b0319166001600160801b03851617905581546001600160c01b0316600160c01b918716919091021781556003015490915060ff16156116cc57600154604080516338a912d560e01b815290516000926001600160a01b0316916338a912d59160048083019260209291908290030181865afa15801561112e573d6000803e3d6000fd5b505050506040513d601f19601f82011682018060405250810190611152919061335e565b336000908152600e602090815260408083206001600160401b038a168452600101909152812060040154919250600160801b9091046001600160801b031690815b836001600160801b0316816001600160801b03161161140257336000908152600e602090815260408083206001600160401b038c1684526001019091529020600401546001600160801b031680156113ef576001600160801b038083166000908152600f60209081526040808320815160808101835281548087168252600160801b900486169381019390935260018101549094169082015260029092015460608301819052611248846402540be400613252565b6112529190613293565b905060006402540be40082846020015161126c9190613252565b6112769190613293565b905080600e6000336001600160a01b03166001600160a01b0316815260200190815260200160002060010160008e6001600160401b03166001600160401b0316815260200190815260200160002060040160008282829054906101000a90046001600160801b03166112e89190613317565b92506101000a8154816001600160801b0302191690836001600160801b031602179055506402540be4008284600001516113229190613252565b61132c9190613293565b600e6000336001600160a01b03166001600160a01b0316815260200190815260200160002060010160008e6001600160401b03166001600160401b0316815260200190815260200160002060040160008282829054906101000a90046001600160801b031661139b919061333e565b92506101000a8154816001600160801b0302191690836001600160801b031602179055506402540be4008284604001516113d59190613252565b6113df9190613293565b6113e99087613317565b95505050505b50806113fa8161337b565b915050611193565b50336000908152600e602090815260408083206001600160401b038b168452600101909152812060040154611440906001600160801b031686613317565b905080600960108282829054906101000a90046001600160801b0316611466919061333e565b82546101009290920a6001600160801b03818102199093169183160217909155336000908152600e602090815260408083206001600160401b038e1684526001908101909252918290200180546001600160801b031916928516929092179091556002549051630adfd5a560e21b81526001600160a01b039091169150632b7f5694906114f990309085906004016132b9565b600060405180830381600087803b15801561151357600080fd5b505af1158015611527573d6000803e3d6000fd5b50506007546040516323b872dd60e01b8152600093506001600160a01b037f0000000000000000000000000000000000000000000000000000000000000000811693506323b872dd9261158392911690339087906004016131f3565b6020604051808303816000875af11580156115a2573d6000803e3d6000fd5b505050506040513d601f19601f820116820180604052508101906115c6919061321f565b905060018115151461161a5760405162461bcd60e51b815260206004820152601e60248201527f5472616e7373756363657373656420696e20636473207769746864726177000060448201526064016109d1565b600254604051635822b66d60e01b81526001600160a01b0390911690635822b66d9061164c90339087906004016132b9565b600060405180830381600087803b15801561166657600080fd5b505af115801561167a573d6000803e3d6000fd5b5050604080516001600160801b038087168252871660208201527f02d30220fb33c212455a8cbb2cf068095e080a18a527044b34360e67a705addd935001905060405180910390a150505050506118a6565b336000908152600e602090815260408083206001600160401b03881684526001908101909252918290200180546001600160801b0319166001600160801b0384161790556002549051630adfd5a560e21b81526001600160a01b0390911690632b7f56949061174190309085906004016132b9565b600060405180830381600087803b15801561175b57600080fd5b505af115801561176f573d6000803e3d6000fd5b50506007546040516323b872dd60e01b8152600093506001600160a01b037f0000000000000000000000000000000000000000000000000000000000000000811693506323b872dd926117cb92911690339087906004016131f3565b6020604051808303816000875af11580156117ea573d6000803e3d6000fd5b505050506040513d601f19601f8201168201806040525081019061180e919061321f565b90506001811515146118625760405162461bcd60e51b815260206004820152601f60248201527f5472616e73666572206661696c656420696e206364732077697468647261770060448201526064016109d1565b604080516001600160801b0384168152600060208201527f02d30220fb33c212455a8cbb2cf068095e080a18a527044b34360e67a705addd910160405180910390a1505b6008546001600160801b038381169116146118c4576118c482612e2c565b50505050565b6118d2612c2a565b6001600160a01b038116158015906118f357506001600160a01b0381163b15155b61193a5760405162461bcd60e51b8152602060048201526018602482015277125b9c1d5d081859191c995cdcc81a5cc81a5b9d985b1a5960421b60448201526064016109d1565b600580546001600160a01b039092166001600160a01b0319928316811790915560018054909216179055565b61196e612c2a565b806001600160401b03166000036119c75760405162461bcd60e51b815260206004820152601860248201527f55534454206c696d69742063616e2774206265207a65726f000000000000000060448201526064016109d1565b600b80546001600160401b03909216600160881b0267ffffffffffffffff60881b19909216919091179055565b6119fc612c2a565b8060ff16600003611a4f5760405162461bcd60e51b815260206004820152601960248201527f416d696e74206c696d69742063616e2774206265207a65726f0000000000000060448201526064016109d1565b600b805460ff909216600160801b0260ff60801b19909216919091179055565b611a77612c2a565b806001600160401b0316600003611ada5760405162461bcd60e51b815260206004820152602160248201527f57697468647261772074696d65206c696d69742063616e2774206265207a65726044820152606f60f81b60648201526084016109d1565b600980546001600160401b03909216600160401b026fffffffffffffffff000000000000000019909216919091179055565b600d546000908490611b27906001600160801b031687613252565b611b319190613317565b9050806001600160801b0316600003611b965760405162461bcd60e51b815260206004820152602160248201527f4465706f73697420616d6f756e742073686f756c64206e6f74206265207a65726044820152606f60f81b60648201526084016109d1565b611ba08486613317565b6001600160801b0316826001600160801b031610611c1f5760405162461bcd60e51b815260206004820152603660248201527f4c69717569646174696f6e20616d6f756e742063616e27742067726561746572604482015275081d1a185b8819195c1bdcda5d195908185b5bdd5b9d60521b60648201526084016109d1565b600b54600c54600160881b9091046001600160401b03161115611cb157600d546001600160801b0380831691611c56911687613252565b6001600160801b031614611cac5760405162461bcd60e51b815260206004820152601b60248201527f31303025206f6620616d6f756e74206d7573742062652055534454000000000060448201526064016109d1565b611de8565b600b54606490611ccc908390600160801b900460ff16613252565b611cd69190613293565b6001600160801b0316846001600160801b03161015611d375760405162461bcd60e51b815260206004820152601960248201527f496e73756666696369656e7420414d494e5420616d6f756e740000000000000060448201526064016109d1565b6040516370a0823160e01b81523360048201526001600160801b038516907f00000000000000000000000000000000000000000000000000000000000000006001600160a01b0316906370a0823190602401602060405180830381865afa158015611da6573d6000803e3d6000fd5b505050506040513d601f19601f82011682018060405250810190611dca91906131da565b1015611de85760405162461bcd60e51b81526004016109d1906133a1565b6001600160801b03851615801590611e0857506001600160801b03841615155b1561200e57600480546040516370a0823160e01b815233928101929092526001600160801b038716916001600160a01b03909116906370a0823190602401602060405180830381865afa158015611e63573d6000803e3d6000fd5b505050506040513d601f19601f82011682018060405250810190611e8791906131da565b1015611ea55760405162461bcd60e51b81526004016109d1906133a1565b600480546007546040516323b872dd60e01b81526000936001600160a01b03938416936323b872dd93611ee193339391909216918c91016131f3565b6020604051808303816000875af1158015611f00573d6000803e3d6000fd5b505050506040513d601f19601f82011682018060405250810190611f24919061321f565b9050600181151514611f485760405162461bcd60e51b81526004016109d1906133e5565b6007546040516323b872dd60e01b81526000916001600160a01b037f00000000000000000000000000000000000000000000000000000000000000008116926323b872dd92611fa09233929116908b906004016131f3565b6020604051808303816000875af1158015611fbf573d6000803e3d6000fd5b505050506040513d601f19601f82011682018060405250810190611fe3919061321f565b90506001811515146120075760405162461bcd60e51b81526004016109d1906133e5565b5050612221565b846001600160801b03166000036120e4576007546040516323b872dd60e01b81526000916001600160a01b037f00000000000000000000000000000000000000000000000000000000000000008116926323b872dd926120779233929116908a906004016131f3565b6020604051808303816000875af1158015612096573d6000803e3d6000fd5b505050506040513d601f19601f820116820180604052508101906120ba919061321f565b90506001811515146120de5760405162461bcd60e51b81526004016109d1906133e5565b50612221565b600480546040516370a0823160e01b815233928101929092526001600160801b038716916001600160a01b03909116906370a0823190602401602060405180830381865afa15801561213a573d6000803e3d6000fd5b505050506040513d601f19601f8201168201806040525081019061215e91906131da565b101561217c5760405162461bcd60e51b81526004016109d1906133a1565b600480546007546040516323b872dd60e01b81526000936001600160a01b03938416936323b872dd936121b893339391909216918c91016131f3565b6020604051808303816000875af11580156121d7573d6000803e3d6000fd5b505050506040513d601f19601f820116820180604052508101906121fb919061321f565b905060018115151461221f5760405162461bcd60e51b81526004016109d1906133e5565b505b846001600160801b0316600c600082825461223c919061341c565b90915550506001600160801b0385161561232857600754600d546000916001600160a01b037f00000000000000000000000000000000000000000000000000000000000000008116926340c10f1992909116906122a2906001600160801b03168a613252565b6040518363ffffffff1660e01b81526004016122bf9291906132b9565b6020604051808303816000875af11580156122de573d6000803e3d6000fd5b505050506040513d601f19601f82011682018060405250810190612302919061321f565b90506001811515146123265760405162461bcd60e51b81526004016109d1906133e5565b505b6000612332612cd4565b9050806001600160801b031660000361237d5760405162461bcd60e51b815260206004820152600d60248201526c13dc9858db194811985a5b1959609a1b60448201526064016109d1565b336000908152600e6020526040812054600160401b900460ff166124095750336000908152600e60205260408120805468ffffffffffffffffff19166801000000000000000117905560098054600192906123e0906001600160401b031661342f565b91906101000a8154816001600160401b0302191690836001600160401b03160217905550612455565b336000908152600e60205260408120805490919061242f906001600160401b031661342f565b91906101000a8154816001600160401b0302191690836001600160401b03160217905590505b336000908152600e602090815260408083206001600160401b03851684526001019091529020805477ffffffffffffffffffffffffffffffff00000000000000001916600160401b6001600160801b0386811691909102919091178255600290910180546001600160801b0319168483161790556009805485926010916124e5918591600160801b900416613317565b82546101009290920a6001600160801b03818102199093169183160217909155336000908152600e602090815260408083206001600160401b038781168552600191909101909252909120805467ffffffffffffffff191642909216919091179055600b54600d54908216925061255d911685613252565b6125679190613293565b336000908152600e602090815260408083206001600160401b038616845260010190915290206005810180546001600160801b0319166001600160801b039390931692909217909155600301805460ff191686158015919091179091556127ce57600160009054906101000a90046001600160a01b03166001600160a01b03166338a912d56040518163ffffffff1660e01b8152600401602060405180830381865afa15801561261b573d6000803e3d6000fd5b505050506040513d601f19601f8201168201806040525081019061263f919061335e565b6001600160801b031660000361269057336000908152600e602090815260408083206001600160401b0385168452600101909152902060040180546001600160801b0316600160801b17905561274c565b600160009054906101000a90046001600160a01b03166001600160a01b03166338a912d56040518163ffffffff1660e01b8152600401602060405180830381865afa1580156126e3573d6000803e3d6000fd5b505050506040513d601f19601f82011682018060405250810190612707919061335e565b336000908152600e602090815260408083206001600160401b0386168452600101909152902060040180546001600160801b03928316600160801b0292169190911790555b336000908152600e602090815260408083206001600160401b038516845260010190915281206004810180546001600160801b0319166001600160801b0388169081179091556003909101805470ffffffffffffffffffffffffffffffff0019166101008302179055600a8054919290916127c890849061341c565b90915550505b6008546001600160801b038381169116146127ec576127ec82612e2c565b336000908152600e602090815260408083206001600160401b0385168085526001909101835292819020600581015460029091015482516001600160801b03898116825294810195909552888416858401529083166060850152600160801b90049091166080830152517f0a5985aa28fedd5d60e042a47ad0dcb83381febf41639cd599c154a7fee13ca69181900360a00190a150505050505050565b6000816001600160801b03166000036128e45760405162461bcd60e51b815260206004820152601760248201527f466565732073686f756c64206e6f74206265207a65726f00000000000000000060448201526064016109d1565b600954600090612905908490600160801b90046001600160801b0316613317565b905082600960108282829054906101000a90046001600160801b031661292b9190613317565b92506101000a8154816001600160801b0302191690836001600160801b03160217905550600081600d60009054906101000a90046001600160801b0316856129739190613252565b61297d9190613293565b90506000600260009054906101000a90046001600160a01b03166001600160a01b03166345aeb0ce6040518163ffffffff1660e01b81526004016020604051808303816000875af11580156129d6573d6000803e3d6000fd5b505050506040513d601f19601f820116820180604052508101906129fa919061335e565b6001600160801b0316600003612a4f57600d548290612a23906001600160801b03166001613252565b612a2d9190613317565b600b80546001600160801b0319166001600160801b0383161790559050612ac2565b600d548290612a68906001600160801b03166001613252565b612a729190613317565b600b54612a8891906001600160801b0316613252565b600d54909150612aa1906001600160801b031682613293565b600b80546001600160801b0319166001600160801b03929092169190911790555b949350505050565b80600960108282829054906101000a90046001600160801b0316612aee919061333e565b92506101000a8154816001600160801b0302191690836001600160801b0316021790555050565b612b1d612c2a565b6001600160a01b03811615801590612b3e57506001600160a01b0381163b15155b612b855760405162461bcd60e51b8152602060048201526018602482015277125b9c1d5d081859191c995cdcc81a5cc81a5b9d985b1a5960421b60448201526064016109d1565b600780546001600160a01b039092166001600160a01b0319928316811790915560028054909216179055565b612bb9612c2a565b6001600160a01b038116612c1e5760405162461bcd60e51b815260206004820152602660248201527f4f776e61626c653a206e6577206f776e657220697320746865207a65726f206160448201526564647265737360d01b60648201526084016109d1565b612c2781612c84565b50565b6000546001600160a01b03163314610ddb5760405162461bcd60e51b815260206004820181905260248201527f4f776e61626c653a2063616c6c6572206973206e6f7420746865206f776e657260448201526064016109d1565b600080546001600160a01b038381166001600160a01b0319831681178455604051919092169283917f8be0079c531659141344cd1fd0a4f28419497f9722a3daafe3b4186f6b6457e09190a35050565b600080600360009054906101000a90046001600160a01b03166001600160a01b031663feaf968c6040518163ffffffff1660e01b815260040160a060405180830381865afa158015612d2a573d6000803e3d6000fd5b505050506040513d601f19601f82011682018060405250810190612d4e9190613465565b50919350839250612d669150620f42409050826134b5565b9250505090565b336000908152600e602090815260408083206001600160401b03861684526001019091528120600201548190600160801b90046001600160801b031681612db4818361333e565b6001600160a01b0388166000908152600e602090815260408083206001600160401b038b168452600101909152812054919250600160401b9091046001600160801b031690620186a0612e078484613252565b612e119190613293565b9050612e1d818361333e565b955050505050505b9392505050565b600880546001600160801b03196001600160801b03918216600160801b02169216919091179055565b6001600160801b0381168114612c2757600080fd5b8035612e7581612e55565b919050565b80356001600160401b0381168114612e7557600080fd5b600080600060608486031215612ea657600080fd5b8335612eb181612e55565b9250612ebf60208501612e7a565b9150612ecd60408501612e7a565b90509250925092565b80356001600160a01b0381168114612e7557600080fd5b60008060408385031215612f0057600080fd5b612f0983612ed6565b9150612f1760208401612e7a565b90509250929050565b82516001600160401b031681526101a081016020840151612f4c60208401826001600160801b03169052565b506040840151612f6760408401826001600160401b03169052565b506060840151612f8260608401826001600160801b03169052565b506080840151612f96608084018215159052565b5060a0840151612fb160a08401826001600160801b03169052565b5060c0840151612fcc60c08401826001600160801b03169052565b5060e0840151612fe060e084018215159052565b50610100848101516001600160801b0390811691840191909152610120808601518216908401526101408086015182169084015261016080860151909116908301526001600160401b038316610180830152612e25565b60006020828403121561304957600080fd5b5035919050565b60006020828403121561306257600080fd5b612e2582612e7a565b60006020828403121561307d57600080fd5b612e2582612ed6565b60006020828403121561309857600080fd5b813560ff81168114612e2557600080fd5b8015158114612c2757600080fd5b600080600080608085870312156130cd57600080fd5b84356130d881612e55565b935060208501356130e881612e55565b925060408501356130f8816130a9565b9150606085013561310881612e55565b939692955090935050565b60008082840360a081121561312757600080fd5b833561313281612e55565b92506080601f198201121561314657600080fd5b50604051608081018181106001600160401b038211171561317757634e487b7160e01b600052604160045260246000fd5b60405261318660208501612e6a565b815261319460408501612e6a565b60208201526131a560608501612e6a565b60408201526080939093013560608401525092909150565b6000602082840312156131cf57600080fd5b8135612e2581612e55565b6000602082840312156131ec57600080fd5b5051919050565b6001600160a01b0393841681529190921660208201526001600160801b03909116604082015260600190565b60006020828403121561323157600080fd5b8151612e25816130a9565b634e487b7160e01b600052601160045260246000fd5b6001600160801b038181168382160280821691908281146132755761327561323c565b505092915050565b634e487b7160e01b600052601260045260246000fd5b60006001600160801b03808416806132ad576132ad61327d565b92169190910492915050565b6001600160a01b039290921682526001600160801b0316602082015260400190565b818103818111156132ee576132ee61323c565b92915050565b60006001600160401b0382168061330d5761330d61323c565b6000190192915050565b6001600160801b038181168382160190808211156133375761333761323c565b5092915050565b6001600160801b038281168282160390808211156133375761333761323c565b60006020828403121561337057600080fd5b8151612e2581612e55565b60006001600160801b038083168181036133975761339761323c565b6001019392505050565b60208082526024908201527f496e73756666696369656e742062616c616e63652077697468206d73672e7365604082015263373232b960e11b606082015260800190565b6020808252601e908201527f5472616e73666572206661696c656420696e20434453206465706f7369740000604082015260600190565b808201808211156132ee576132ee61323c565b60006001600160401b038083168181036133975761339761323c565b805169ffffffffffffffffffff81168114612e7557600080fd5b600080600080600060a0868803121561347d57600080fd5b6134868661344b565b94506020860151935060408601519250606086015191506134a96080870161344b565b90509295509295909350565b6000826134c4576134c461327d565b50049056fea26469706673582212201406da338fab3c24f5d30b432f8e5f7e1b71ac97eb82f508cc973973e3a5256c64736f6c63430008120033","linkReferences":{}},"methodIdentifiers":{"PRECISION()":"aaf5eb68","Trinity_token()":"0df03e41","amintLimit()":"412cfc94","borrowing()":"60b415ed","borrowingContract()":"84a965ed","calculateCumulativeRate(uint128)":"b87c3dc3","cdsCount()":"df6f05e7","cdsDetails(address)":"880e8e3b","deposit(uint128,uint128,bool,uint128)":"b0b6f3c6","ethVault()":"5a20329c","fallbackEthPrice()":"77b7cda6","getCDSDepositDetails(address,uint64)":"4721bae8","lastCumulativeRate()":"8e4db39a","lastEthPrice()":"7038fc4e","liquidationIndexToInfo(uint128)":"d3e3413f","owner()":"8da5cb5b","redeemUSDT(uint128,uint64,uint64)":"46696df3","renounceOwnership()":"715018a6","setAmintLimit(uint8)":"84637c26","setBorrowingContract(address)":"78fdaf3f","setTreasury(address)":"f0f44260","setUsdtLimit(uint64)":"7bf5e245","setWithdrawTimeLimit(uint64)":"868c10d2","totalAvailableLiquidationAmount()":"dc91e752","totalCdsDepositedAmount()":"2bb2ea62","transferOwnership(address)":"f2fde38b","treasury()":"61d027b3","treasuryAddress()":"c5f956af","updateLiquidationInfo(uint128,(uint128,uint128,uint128,uint256))":"b3013d4d","updateTotalAvailableLiquidationAmount(uint256)":"4cae95d3","updateTotalCdsDepositedAmount(uint128)":"dc55b193","usdt()":"2f48ab7d","usdtAmountDepositedTillNow()":"76a3fb3e","usdtLimit()":"f57ff39c","withdraw(uint64)":"750f0acc","withdrawTimeLimit()":"4f04a86b"},"id":3}