{"abi":[{"type":"function","name":"PRECISION","inputs":[],"outputs":[{"name":"","type":"uint128","internalType":"uint128"}],"stateMutability":"view"},{"type":"function","name":"UPGRADE_INTERFACE_VERSION","inputs":[],"outputs":[{"name":"","type":"string","internalType":"string"}],"stateMutability":"view"},{"type":"function","name":"amint","inputs":[],"outputs":[{"name":"","type":"address","internalType":"contract IAMINT"}],"stateMutability":"view"},{"type":"function","name":"amintLimit","inputs":[],"outputs":[{"name":"","type":"uint8","internalType":"uint8"}],"stateMutability":"view"},{"type":"function","name":"borrowing","inputs":[],"outputs":[{"name":"","type":"address","internalType":"contract IBorrowing"}],"stateMutability":"view"},{"type":"function","name":"borrowingContract","inputs":[],"outputs":[{"name":"","type":"address","internalType":"address"}],"stateMutability":"view"},{"type":"function","name":"burnedAmintInRedeem","inputs":[],"outputs":[{"name":"","type":"uint256","internalType":"uint256"}],"stateMutability":"view"},{"type":"function","name":"calculateCumulativeRate","inputs":[{"name":"fees","type":"uint128","internalType":"uint128"}],"outputs":[],"stateMutability":"nonpayable"},{"type":"function","name":"cdsCount","inputs":[],"outputs":[{"name":"","type":"uint64","internalType":"uint64"}],"stateMutability":"view"},{"type":"function","name":"cdsDetails","inputs":[{"name":"","type":"address","internalType":"address"}],"outputs":[{"name":"index","type":"uint64","internalType":"uint64"},{"name":"hasDeposited","type":"bool","internalType":"bool"}],"stateMutability":"view"},{"type":"function","name":"cumulativeValue","inputs":[],"outputs":[{"name":"","type":"uint128","internalType":"uint128"}],"stateMutability":"view"},{"type":"function","name":"cumulativeValueSign","inputs":[],"outputs":[{"name":"","type":"bool","internalType":"bool"}],"stateMutability":"view"},{"type":"function","name":"deposit","inputs":[{"name":"usdtAmount","type":"uint128","internalType":"uint128"},{"name":"amintAmount","type":"uint128","internalType":"uint128"},{"name":"_liquidate","type":"bool","internalType":"bool"},{"name":"_liquidationAmount","type":"uint128","internalType":"uint128"},{"name":"ethPrice","type":"uint128","internalType":"uint128"}],"outputs":[],"stateMutability":"nonpayable"},{"type":"function","name":"fallbackEthPrice","inputs":[],"outputs":[{"name":"","type":"uint128","internalType":"uint128"}],"stateMutability":"view"},{"type":"function","name":"getCDSDepositDetails","inputs":[{"name":"depositor","type":"address","internalType":"address"},{"name":"index","type":"uint64","internalType":"uint64"}],"outputs":[{"name":"","type":"tuple","internalType":"struct CDSTest.CdsAccountDetails","components":[{"name":"depositedTime","type":"uint64","internalType":"uint64"},{"name":"depositedAmount","type":"uint256","internalType":"uint256"},{"name":"withdrawedTime","type":"uint64","internalType":"uint64"},{"name":"withdrawedAmount","type":"uint256","internalType":"uint256"},{"name":"withdrawed","type":"bool","internalType":"bool"},{"name":"depositPrice","type":"uint128","internalType":"uint128"},{"name":"depositValue","type":"uint128","internalType":"uint128"},{"name":"depositValueSign","type":"bool","internalType":"bool"},{"name":"optedLiquidation","type":"bool","internalType":"bool"},{"name":"InitialLiquidationAmount","type":"uint128","internalType":"uint128"},{"name":"liquidationAmount","type":"uint128","internalType":"uint128"},{"name":"liquidationindex","type":"uint128","internalType":"uint128"},{"name":"normalizedAmount","type":"uint256","internalType":"uint256"}]},{"name":"","type":"uint64","internalType":"uint64"}],"stateMutability":"view"},{"type":"function","name":"initialize","inputs":[{"name":"_amint","type":"address","internalType":"address"},{"name":"priceFeed","type":"address","internalType":"address"},{"name":"_usdt","type":"address","internalType":"address"},{"name":"_multiSign","type":"address","internalType":"address"}],"outputs":[],"stateMutability":"nonpayable"},{"type":"function","name":"lastCumulativeRate","inputs":[],"outputs":[{"name":"","type":"uint128","internalType":"uint128"}],"stateMutability":"view"},{"type":"function","name":"lastEthPrice","inputs":[],"outputs":[{"name":"","type":"uint128","internalType":"uint128"}],"stateMutability":"view"},{"type":"function","name":"liquidationIndexToInfo","inputs":[{"name":"liquidationIndex","type":"uint128","internalType":"uint128"}],"outputs":[{"name":"liquidationAmount","type":"uint128","internalType":"uint128"},{"name":"profits","type":"uint128","internalType":"uint128"},{"name":"ethAmount","type":"uint128","internalType":"uint128"},{"name":"availableLiquidationAmount","type":"uint256","internalType":"uint256"}],"stateMutability":"view"},{"type":"function","name":"multiSign","inputs":[],"outputs":[{"name":"","type":"address","internalType":"contract IMultiSign"}],"stateMutability":"view"},{"type":"function","name":"owner","inputs":[],"outputs":[{"name":"","type":"address","internalType":"address"}],"stateMutability":"view"},{"type":"function","name":"proxiableUUID","inputs":[],"outputs":[{"name":"","type":"bytes32","internalType":"bytes32"}],"stateMutability":"view"},{"type":"function","name":"redeemUSDT","inputs":[{"name":"_amintAmount","type":"uint128","internalType":"uint128"},{"name":"amintPrice","type":"uint64","internalType":"uint64"},{"name":"usdtPrice","type":"uint64","internalType":"uint64"}],"outputs":[],"stateMutability":"nonpayable"},{"type":"function","name":"renounceOwnership","inputs":[],"outputs":[],"stateMutability":"nonpayable"},{"type":"function","name":"setAdmin","inputs":[{"name":"_admin","type":"address","internalType":"address"}],"outputs":[],"stateMutability":"nonpayable"},{"type":"function","name":"setAmintLimit","inputs":[{"name":"percent","type":"uint8","internalType":"uint8"}],"outputs":[],"stateMutability":"nonpayable"},{"type":"function","name":"setBorrowingContract","inputs":[{"name":"_address","type":"address","internalType":"address"}],"outputs":[],"stateMutability":"nonpayable"},{"type":"function","name":"setTreasury","inputs":[{"name":"_treasury","type":"address","internalType":"address"}],"outputs":[],"stateMutability":"nonpayable"},{"type":"function","name":"setUsdtLimit","inputs":[{"name":"amount","type":"uint64","internalType":"uint64"}],"outputs":[],"stateMutability":"nonpayable"},{"type":"function","name":"setWithdrawTimeLimit","inputs":[{"name":"_timeLimit","type":"uint64","internalType":"uint64"}],"outputs":[],"stateMutability":"nonpayable"},{"type":"function","name":"totalAvailableLiquidationAmount","inputs":[],"outputs":[{"name":"","type":"uint256","internalType":"uint256"}],"stateMutability":"view"},{"type":"function","name":"totalCdsDepositedAmount","inputs":[],"outputs":[{"name":"","type":"uint256","internalType":"uint256"}],"stateMutability":"view"},{"type":"function","name":"totalCdsDepositedAmountWithOptionFees","inputs":[],"outputs":[{"name":"","type":"uint256","internalType":"uint256"}],"stateMutability":"view"},{"type":"function","name":"transferOwnership","inputs":[{"name":"newOwner","type":"address","internalType":"address"}],"outputs":[],"stateMutability":"nonpayable"},{"type":"function","name":"treasury","inputs":[],"outputs":[{"name":"","type":"address","internalType":"contract ITreasury"}],"stateMutability":"view"},{"type":"function","name":"treasuryAddress","inputs":[],"outputs":[{"name":"","type":"address","internalType":"address"}],"stateMutability":"view"},{"type":"function","name":"updateLiquidationInfo","inputs":[{"name":"index","type":"uint128","internalType":"uint128"},{"name":"liquidationData","type":"tuple","internalType":"struct CDSTest.LiquidationInfo","components":[{"name":"liquidationAmount","type":"uint128","internalType":"uint128"},{"name":"profits","type":"uint128","internalType":"uint128"},{"name":"ethAmount","type":"uint128","internalType":"uint128"},{"name":"availableLiquidationAmount","type":"uint256","internalType":"uint256"}]}],"outputs":[],"stateMutability":"nonpayable"},{"type":"function","name":"updateTotalAvailableLiquidationAmount","inputs":[{"name":"amount","type":"uint256","internalType":"uint256"}],"outputs":[],"stateMutability":"nonpayable"},{"type":"function","name":"updateTotalCdsDepositedAmount","inputs":[{"name":"_amount","type":"uint128","internalType":"uint128"}],"outputs":[],"stateMutability":"nonpayable"},{"type":"function","name":"updateTotalCdsDepositedAmountWithOptionFees","inputs":[{"name":"_amount","type":"uint128","internalType":"uint128"}],"outputs":[],"stateMutability":"nonpayable"},{"type":"function","name":"upgradeToAndCall","inputs":[{"name":"newImplementation","type":"address","internalType":"address"},{"name":"data","type":"bytes","internalType":"bytes"}],"outputs":[],"stateMutability":"payable"},{"type":"function","name":"usdt","inputs":[],"outputs":[{"name":"","type":"address","internalType":"contract IERC20"}],"stateMutability":"view"},{"type":"function","name":"usdtAmountDepositedTillNow","inputs":[],"outputs":[{"name":"","type":"uint256","internalType":"uint256"}],"stateMutability":"view"},{"type":"function","name":"usdtLimit","inputs":[],"outputs":[{"name":"","type":"uint64","internalType":"uint64"}],"stateMutability":"view"},{"type":"function","name":"withdraw","inputs":[{"name":"_index","type":"uint64","internalType":"uint64"},{"name":"ethPrice","type":"uint128","internalType":"uint128"}],"outputs":[],"stateMutability":"nonpayable"},{"type":"function","name":"withdrawTimeLimit","inputs":[],"outputs":[{"name":"","type":"uint64","internalType":"uint64"}],"stateMutability":"view"},{"type":"event","name":"Deposit","inputs":[{"name":"depositedAmint","type":"uint256","indexed":false,"internalType":"uint256"},{"name":"index","type":"uint64","indexed":false,"internalType":"uint64"},{"name":"liquidationAmount","type":"uint128","indexed":false,"internalType":"uint128"},{"name":"normalizedAmount","type":"uint256","indexed":false,"internalType":"uint256"},{"name":"depositVal","type":"uint128","indexed":false,"internalType":"uint128"}],"anonymous":false},{"type":"event","name":"Initialized","inputs":[{"name":"version","type":"uint64","indexed":false,"internalType":"uint64"}],"anonymous":false},{"type":"event","name":"OwnershipTransferred","inputs":[{"name":"previousOwner","type":"address","indexed":true,"internalType":"address"},{"name":"newOwner","type":"address","indexed":true,"internalType":"address"}],"anonymous":false},{"type":"event","name":"Upgraded","inputs":[{"name":"implementation","type":"address","indexed":true,"internalType":"address"}],"anonymous":false},{"type":"event","name":"Withdraw","inputs":[{"name":"withdrewAmint","type":"uint256","indexed":false,"internalType":"uint256"},{"name":"withdrawETH","type":"uint128","indexed":false,"internalType":"uint128"}],"anonymous":false},{"type":"error","name":"AddressEmptyCode","inputs":[{"name":"target","type":"address","internalType":"address"}]},{"type":"error","name":"ERC1967InvalidImplementation","inputs":[{"name":"implementation","type":"address","internalType":"address"}]},{"type":"error","name":"ERC1967NonPayable","inputs":[]},{"type":"error","name":"FailedInnerCall","inputs":[]},{"type":"error","name":"InvalidInitialization","inputs":[]},{"type":"error","name":"NotInitializing","inputs":[]},{"type":"error","name":"OwnableInvalidOwner","inputs":[{"name":"owner","type":"address","internalType":"address"}]},{"type":"error","name":"OwnableUnauthorizedAccount","inputs":[{"name":"account","type":"address","internalType":"address"}]},{"type":"error","name":"ReentrancyGuardReentrantCall","inputs":[]},{"type":"error","name":"UUPSUnauthorizedCallContext","inputs":[]},{"type":"error","name":"UUPSUnsupportedProxiableUUID","inputs":[{"name":"slot","type":"bytes32","internalType":"bytes32"}]}],"bytecode":{"object":"0x60a06040523060805234801561001457600080fd5b5060805161533861003e60003960008181613df001528181613e190152613f5a01526153386000f3fe60806040526004361061027d5760003560e01c8063868c10d21161014f578063c5f956af116100c1578063df6f05e71161007a578063df6f05e714610a17578063e356b12014610a37578063f0f4426014610a4d578063f2fde38b14610a6d578063f57ff39c14610a8d578063f8c8765e14610ab457600080fd5b8063c5f956af14610904578063cba8751714610924578063d3e3413f1461093a578063dabd360a146109c1578063dc55b193146109e1578063dc91e75214610a0157600080fd5b8063aaf5eb6811610113578063aaf5eb6814610815578063ad3cb1cc14610835578063b3013d4d14610873578063b87c3dc314610893578063b9934fee146108b3578063ba397b41146108d357600080fd5b8063868c10d214610717578063880e8e3b146107375780638da5cb5b146107985780638e4db39a146107d55780639e6fe439146107f557600080fd5b806352d1902d116101f357806376a3fb3e116101ac57806376a3fb3e1461065a57806377b7cda61461067057806378fdaf3f146106975780637bf5e245146106b757806384637c26146106d757806384a965ed146106f757600080fd5b806352d1902d1461059857806360b415ed146105ad57806361d027b3146105cd5780637038fc4e146105ed578063704b6c0214610625578063715018a61461064557600080fd5b80634721bae8116102455780634721bae8146103585780634baf580d146104e65780634cae95d3146105065780634f04a86b146105265780634f1ef28614610565578063503e63221461057857600080fd5b8063254bba5c146102825780632bb2ea62146102a45780632f48ab7d146102cd578063412cfc941461030557806346696df314610338575b600080fd5b34801561028e57600080fd5b506102a261029d3660046147ed565b610ad4565b005b3480156102b057600080fd5b506102ba600b5481565b6040519081526020015b60405180910390f35b3480156102d957600080fd5b506005546102ed906001600160a01b031681565b6040516001600160a01b0390911681526020016102c4565b34801561031157600080fd5b50600e5461032690600160801b900460ff1681565b60405160ff90911681526020016102c4565b34801561034457600080fd5b506102a2610353366004614826565b611c2c565b34801561036457600080fd5b506104d861037336600461488d565b604080516101a081018252600080825260208201819052918101829052606081018290526080810182905260a0810182905260c0810182905260e081018290526101008101829052610120810182905261014081018290526101608101829052610180810191909152506001600160a01b03821660008181526013602081815260408084206001600160401b03808816865260018083018552838720979096529383525481516101a0810183528654851681529486015492850192909252600285015483169084015260038401546060840152600484015460ff808216151560808601526001600160801b0361010092839004811660a0870152600587015480821660c0880152600160801b8082048416151560e0890152600160881b90910490921615159286019290925260068601548083166101208701520481166101408501526007850154166101608401526008909301546101808301529091169250929050565b6040516102c49291906148b9565b3480156104f257600080fd5b506102a26105013660046149b9565b61204e565b34801561051257600080fd5b506102a26105213660046149d6565b61209b565b34801561053257600080fd5b50600a5461054d90600160401b90046001600160401b031681565b6040516001600160401b0390911681526020016102c4565b6102a2610573366004614a35565b6120d7565b34801561058457600080fd5b506000546102ed906001600160a01b031681565b3480156105a457600080fd5b506102ba6120f2565b3480156105b957600080fd5b506001546102ed906001600160a01b031681565b3480156105d957600080fd5b506002546102ed906001600160a01b031681565b3480156105f957600080fd5b5060095461060d906001600160801b031681565b6040516001600160801b0390911681526020016102c4565b34801561063157600080fd5b506102a2610640366004614ada565b61210f565b34801561065157600080fd5b506102a261223c565b34801561066657600080fd5b506102ba600f5481565b34801561067c57600080fd5b5060095461060d90600160801b90046001600160801b031681565b3480156106a357600080fd5b506102a26106b2366004614ada565b612250565b3480156106c357600080fd5b506102a26106d2366004614af5565b61230e565b3480156106e357600080fd5b506102a26106f2366004614b12565b612439565b34801561070357600080fd5b506007546102ed906001600160a01b031681565b34801561072357600080fd5b506102a2610732366004614af5565b612551565b34801561074357600080fd5b50610779610752366004614ada565b6013602052600090815260409020546001600160401b03811690600160401b900460ff1682565b604080516001600160401b0390931683529015156020830152016102c4565b3480156107a457600080fd5b507f9016d09d72d40fdae2fd8ceac6b6234c7706214fd39c1cd1e609a0528c199300546001600160a01b03166102ed565b3480156107e157600080fd5b50600e5461060d906001600160801b031681565b34801561080157600080fd5b506004546102ed906001600160a01b031681565b34801561082157600080fd5b5060125461060d906001600160801b031681565b34801561084157600080fd5b50610866604051806040016040528060058152602001640352e302e360dc1b81525081565b6040516102c49190614b85565b34801561087f57600080fd5b506102a261088e366004614b98565b61268b565b34801561089f57600080fd5b506102a26108ae3660046149b9565b612714565b3480156108bf57600080fd5b5060115461060d906001600160801b031681565b3480156108df57600080fd5b506011546108f490600160801b900460ff1681565b60405190151581526020016102c4565b34801561091057600080fd5b506008546102ed906001600160a01b031681565b34801561093057600080fd5b506102ba600c5481565b34801561094657600080fd5b5061098c6109553660046149b9565b6014602052600090815260409020805460018201546002909201546001600160801b0380831693600160801b909304811692169084565b6040516102c494939291906001600160801b039485168152928416602084015292166040820152606081019190915260800190565b3480156109cd57600080fd5b506102a26109dc366004614c48565b612928565b3480156109ed57600080fd5b506102a26109fc3660046149b9565b613647565b348015610a0d57600080fd5b506102ba600d5481565b348015610a2357600080fd5b50600a5461054d906001600160401b031681565b348015610a4357600080fd5b506102ba60105481565b348015610a5957600080fd5b506102a2610a68366004614ada565b61368c565b348015610a7957600080fd5b506102a2610a88366004614ada565b6137c5565b348015610a9957600080fd5b50600e5461054d90600160881b90046001600160401b031681565b348015610ac057600080fd5b506102a2610acf366004614cb9565b613803565b610adc6139c3565b6005600480546040516326d2a55160e21b81526001600160a01b0390911691639b4a954491610b0d91859101614d23565b6020604051808303816000875af1158015610b2c573d6000803e3d6000fd5b505050506040513d601f19601f82011682018060405250810190610b509190614d3d565b15610b765760405162461bcd60e51b8152600401610b6d90614d5a565b60405180910390fd5b336000908152601360205260409020546001600160401b0380851691161015610bef5760405162461bcd60e51b815260206004820152602560248201527f7573657220646f65736e277420686176652074686520737065636966696564206044820152640d2dcc8caf60db1b6064820152608401610b6d565b3360009081526013602090815260408083206001600160401b038716845260010190915290206004015460ff1615610c5d5760405162461bcd60e51b815260206004820152601160248201527020b63932b0b23c903bb4ba34323930bbb760791b6044820152606401610b6d565b600a543360009081526013602090815260408083206001600160401b038881168552600190910190925290912054429282841692610ca692600160401b90920481169116614d90565b6001600160401b03161115610d145760405162461bcd60e51b815260206004820152602e60248201527f63616e6e6f74207769746864726177206265666f72652074686520776974686460448201526d1c985dc81d1a5b59481b1a5b5a5d60921b6064820152608401610b6d565b3360008181526013602081815260408084206001600160401b03808b16865260018281018552928620600401805460ff191684179055959094529190529054909116148015610d6c5750836001600160401b03166001145b15610daf57600a8054600090610d8a906001600160401b0316614db7565b91906101000a8154816001600160401b0302191690836001600160401b031602179055505b3360009081526013602090815260408083206001600160401b03881684526001908101909252822090810154601254600e5460089093015491926001600160801b0391821692610e029290911690614dda565b610e0c9190614e07565b610e173388886139fb565b610e219190614e1b565b610e2b9190614e2e565b3360009081526013602090815260408083206001600160401b038a8116855260019091019092529091206003810183905560028101805467ffffffffffffffff19169286169290921790915560050154909150600160881b900460ff161561188f573360009081526013602090815260408083206001600160401b0389168452600101909152902060060154610ed190600160801b90046001600160801b031682614e2e565b90506000600160009054906101000a90046001600160a01b03166001600160a01b03166338a912d56040518163ffffffff1660e01b8152600401602060405180830381865afa158015610f28573d6000803e3d6000fd5b505050506040513d601f19601f82011682018060405250810190610f4c9190614e41565b9050610f7c6040518060400160405280600c81526020016b1c995d1d5c9b905b5bdd5b9d60a21b81525083613d34565b3360009081526013602090815260408083206001600160401b038a1684526001908101835292819020600701548151808301909252928152601960f91b918101919091526001600160801b0390911690610fd590613d79565b6000816001600160801b0316836001600160801b03161061188757611012604051806040016040528060018152602001603360f81b815250613d79565b600061101f836001614e5e565b90505b836001600160801b0316816001600160801b03161161141d57611067604051806040016040528060018152602001606960f81b815250826001600160801b0316613d34565b3360009081526013602090815260408083206001600160401b038d16845260010182529182902060060154825180840190935260118352701b1a5c5d5a59185d1a5bdb905b5bdd5b9d607a1b91830191909152600160801b90046001600160801b0316906110d59082613d34565b6001600160801b0381161561140a576001600160801b03808316600090815260146020908152604091829020825160808101845281548086168252600160801b9004851681840152600182015490941684840152600201546060808501919091528251908101909252602a80835261115992916152d9908301398260600151613d34565b6060810151600090611170846402540be400614e7e565b61117a9190614ea9565b90506111ac60405180604001604052806005815260200164736861726560d81b815250826001600160801b0316613d34565b60006111fa6040518060400160405280601781526020017f6c69717569646174696f6e446174612e70726f6669747300000000000000000081525084602001516001600160801b0316613d34565b6402540be4008284602001516112109190614e7e565b61121a9190614ea9565b905061124d604051806040016040528060068152602001651c1c9bd99a5d60d21b815250826001600160801b0316613d34565b8060136000336001600160a01b03166001600160a01b0316815260200190815260200160002060010160008f6001600160401b03166001600160401b0316815260200190815260200160002060060160108282829054906101000a90046001600160801b03166112bd9190614e5e565b92506101000a8154816001600160801b0302191690836001600160801b031602179055506113296040518060600160405280602d8152602001615267602d913984516402540be40090611311908690614e7e565b61131b9190614ea9565b6001600160801b0316613d34565b82516402540be4009061133d908490614e7e565b6113479190614ea9565b60136000336001600160a01b03166001600160a01b0316815260200190815260200160002060010160008f6001600160401b03166001600160401b0316815260200190815260200160002060060160108282829054906101000a90046001600160801b03166113b69190614ecf565b92506101000a8154816001600160801b0302191690836001600160801b031602179055506402540be4008284604001516113f09190614e7e565b6113fa9190614ea9565b6114049087614e5e565b95505050505b508061141581614eef565b915050611022565b50611479604051806080016040528060428152602001615225604291393360009081526013602090815260408083206001600160401b038e168452600101909152902060060154600160801b90046001600160801b0316613d34565b3360009081526013602090815260408083206001600160401b038c1684526001019091528120600601546114bd90600160801b90046001600160801b031686614e1b565b90506114f66040518060400160405280601581526020017472657475726e416d6f756e74576974684761696e7360581b81525082613d34565b611531604051806040016040528060178152602001761d1bdd185b10d91cd1195c1bdcda5d1959105b5bdd5b9d604a1b815250600b54613d34565b61157d6040518060600160405280604081526020016151c5604091393360009081526013602090815260408083206001600160401b038f16845260019081019092529091200154613d34565b3360009081526013602090815260408083206001600160401b038d168452600190810190925282200154600b8054919290916115ba908490614e2e565b925050819055506115e560405180606001604052806025815260200161529460259139600c54613d34565b80600c60008282546115f79190614e2e565b90915550503360009081526013602090815260408083206001600160401b038d168452600101909152908190206003018290556002549051630adfd5a560e21b8152306004820152602481018390526001600160a01b0390911690632b7f569490604401600060405180830381600087803b15801561167557600080fd5b505af1158015611689573d6000803e3d6000fd5b5050600080546008546040516323b872dd60e01b81526001600160a01b039182166004820152336024820152604481018790529294501691506323b872dd906064016020604051808303816000875af11580156116ea573d6000803e3d6000fd5b505050506040513d601f19601f8201168201806040525081019061170e9190614d3d565b90506001811515146117625760405162461bcd60e51b815260206004820152601e60248201527f5472616e7373756363657373656420696e2063647320776974686472617700006044820152606401610b6d565b6001600160801b038316156118435760025460405163cd0220c960e01b81526001600160801b0385166004820152600060248201526001600160a01b039091169063cd0220c990604401600060405180830381600087803b1580156117c657600080fd5b505af11580156117da573d6000803e3d6000fd5b5050600254604051635822b66d60e01b81526001600160a01b039091169250635822b66d91506118109033908790600401614f15565b600060405180830381600087803b15801561182a57600080fd5b505af115801561183e573d6000803e3d6000fd5b505050505b604080518381526001600160801b03851660208201527fd34ad3981afdf23db33825e66e2466a17cb9567dfd6b8c14a210ea42a3efecfd910160405180910390a150505b505050611bb7565b3360009081526013602090815260408083206001600160401b0389168452600190810190925282200154600b8054919290916118cc908490614e2e565b9250508190555080600c60008282546118e59190614e2e565b90915550503360009081526013602090815260408083206001600160401b03891684526001018252918290206003018390556002548251631506d82560e21b815292516001600160a01b039091169263541b60949260048083019391928290030181865afa15801561195b573d6000803e3d6000fd5b505050506040513d601f19601f8201168201806040525081019061197f9190614f37565b15611a7c576012546119a290600160801b90046001600160801b03166002614e7e565b60015460405163ada0b0ed60e01b8152600060048201526001600160801b03878116602483015292909216916001600160a01b039091169063ada0b0ed906044016020604051808303816000875af1158015611a02573d6000803e3d6000fd5b505050506040513d601f19601f82011682018060405250810190611a269190614f50565b6001600160401b031611611a7c5760405162461bcd60e51b815260206004820152601b60248201527f4344533a204e6f7420656e6f7567682066756e6420696e2043445300000000006044820152606401610b6d565b600254604051630adfd5a560e21b8152306004820152602481018390526001600160a01b0390911690632b7f569490604401600060405180830381600087803b158015611ac857600080fd5b505af1158015611adc573d6000803e3d6000fd5b5050600080546008546040516323b872dd60e01b81526001600160a01b039182166004820152336024820152604481018790529294501691506323b872dd906064016020604051808303816000875af1158015611b3d573d6000803e3d6000fd5b505050506040513d601f19601f82011682018060405250810190611b619190614d3d565b9050600181151514611bb55760405162461bcd60e51b815260206004820152601f60248201527f5472616e73666572206661696c656420696e20636473207769746864726177006044820152606401610b6d565b505b6009546001600160801b03858116911614611bd557611bd584613dbc565b60408051828152600060208201527fd34ad3981afdf23db33825e66e2466a17cb9567dfd6b8c14a210ea42a3efecfd910160405180910390a1505050611c2860016000805160206152b983398151915255565b5050565b611c346139c3565b6006600480546040516326d2a55160e21b81526001600160a01b0390911691639b4a954491611c6591859101614d23565b6020604051808303816000875af1158015611c84573d6000803e3d6000fd5b505050506040513d601f19601f82011682018060405250810190611ca89190614d3d565b15611cc55760405162461bcd60e51b8152600401610b6d90614d5a565b836001600160801b0316600003611d1e5760405162461bcd60e51b815260206004820152601960248201527f416d6f756e742073686f756c64206e6f74206265207a65726f000000000000006044820152606401610b6d565b6000546040516370a0823160e01b81523360048201526001600160801b038616916001600160a01b0316906370a0823190602401602060405180830381865afa158015611d6f573d6000803e3d6000fd5b505050506040513d601f19601f82011682018060405250810190611d939190614f37565b1015611dd85760405162461bcd60e51b8152602060048201526014602482015273496e73756666696369656e742062616c616e636560601b6044820152606401610b6d565b836001600160801b031660106000828254611df39190614e1b565b9091555050600080546040516363a9f09360e11b81526001600160a01b039091169063c753e12690611e2b9033908990600401614f15565b6020604051808303816000875af1158015611e4a573d6000803e3d6000fd5b505050506040513d601f19601f82011682018060405250810190611e6e9190614d3d565b9050600181151514611ec25760405162461bcd60e51b815260206004820152601f60248201527f414d494e54204275726e206661696c656420696e2072656465656d55534454006044820152606401610b6d565b6000836001600160401b031686866001600160401b0316611ee39190614e7e565b611eed9190614ea9565b60025460405163e613610560e01b81529192506001600160a01b03169063e613610590611f209030908590600401614f15565b600060405180830381600087803b158015611f3a57600080fd5b505af1158015611f4e573d6000803e3d6000fd5b50506005546008546040516323b872dd60e01b8152600094506001600160a01b0392831693506323b872dd92611f8c92169033908790600401614f6d565b6020604051808303816000875af1158015611fab573d6000803e3d6000fd5b505050506040513d601f19601f82011682018060405250810190611fcf9190614d3d565b905060018115151461202e5760405162461bcd60e51b815260206004820152602260248201527f55534454205472616e73666572206661696c656420696e2072656465656d5553604482015261111560f21b6064820152608401610b6d565b5050505061204960016000805160206152b983398151915255565b505050565b6007546001600160a01b031633146120785760405162461bcd60e51b8152600401610b6d90614f99565b806001600160801b0316600c60008282546120939190614e2e565b909155505050565b6007546001600160a01b031633146120c55760405162461bcd60e51b8152600401610b6d90614f99565b80600d60008282546120939190614e2e565b6120df613de5565b6120e882613e8a565b611c288282613e92565b60006120fc613f4f565b5060008051602061520583398151915290565b612117613f98565b6001600160a01b0381161580159061213c575060016001600160a01b0382163b151514155b61219f5760405162461bcd60e51b815260206004820152602e60248201527f41646d696e2063616e277420626520636f6e747261637420616464726573732060448201526d26207a65726f206164647265737360901b6064820152608401610b6d565b6004546001600160a01b031663fb8c927860056040518263ffffffff1660e01b81526004016121ce9190614fec565b6020604051808303816000875af11580156121ed573d6000803e3d6000fd5b505050506040513d601f19601f820116820180604052508101906122119190614d3d565b61221a57600080fd5b600680546001600160a01b0319166001600160a01b0392909216919091179055565b612244613f98565b61224e6000613ff3565b565b6006546001600160a01b0316331461227a5760405162461bcd60e51b8152600401610b6d90615000565b6001600160a01b0381161580159061229b57506001600160a01b0381163b15155b6122e25760405162461bcd60e51b8152602060048201526018602482015277125b9c1d5d081859191c995cdcc81a5cc81a5b9d985b1a5960421b6044820152606401610b6d565b600780546001600160a01b039092166001600160a01b0319928316811790915560018054909216179055565b6006546001600160a01b031633146123385760405162461bcd60e51b8152600401610b6d90615000565b806001600160401b03166000036123915760405162461bcd60e51b815260206004820152601860248201527f55534454206c696d69742063616e2774206265207a65726f00000000000000006044820152606401610b6d565b6004546001600160a01b031663fb8c9278600a6040518263ffffffff1660e01b81526004016123c09190614fec565b6020604051808303816000875af11580156123df573d6000803e3d6000fd5b505050506040513d601f19601f820116820180604052508101906124039190614d3d565b61240c57600080fd5b600e80546001600160401b03909216600160881b0267ffffffffffffffff60881b19909216919091179055565b6006546001600160a01b031633146124635760405162461bcd60e51b8152600401610b6d90615000565b8060ff166000036124b65760405162461bcd60e51b815260206004820152601960248201527f416d696e74206c696d69742063616e2774206265207a65726f000000000000006044820152606401610b6d565b6004546001600160a01b031663fb8c927860096040518263ffffffff1660e01b81526004016124e59190614fec565b6020604051808303816000875af1158015612504573d6000803e3d6000fd5b505050506040513d601f19601f820116820180604052508101906125289190614d3d565b61253157600080fd5b600e805460ff909216600160801b0260ff60801b19909216919091179055565b6006546001600160a01b0316331461257b5760405162461bcd60e51b8152600401610b6d90615000565b806001600160401b03166000036125de5760405162461bcd60e51b815260206004820152602160248201527f57697468647261772074696d65206c696d69742063616e2774206265207a65726044820152606f60f81b6064820152608401610b6d565b6004546001600160a01b031663fb8c927860036040518263ffffffff1660e01b815260040161260d9190614fec565b6020604051808303816000875af115801561262c573d6000803e3d6000fd5b505050506040513d601f19601f820116820180604052508101906126509190614d3d565b61265957600080fd5b600a80546001600160401b03909216600160401b026fffffffffffffffff000000000000000019909216919091179055565b6007546001600160a01b031633146126b55760405162461bcd60e51b8152600401610b6d90614f99565b6001600160801b039182166000908152601460209081526040918290208351918401518516600160801b0291851691909117815590820151600182018054919094166001600160801b0319919091161790925560600151600290910155565b6007546001600160a01b0316331461273e5760405162461bcd60e51b8152600401610b6d90614f99565b806001600160801b03166000036127975760405162461bcd60e51b815260206004820152601760248201527f466565732073686f756c64206e6f74206265207a65726f0000000000000000006044820152606401610b6d565b806001600160801b0316600c60008282546127b29190614e1b565b9091555050600c5460125460009082906127d5906001600160801b031685614e7e565b6127df9190614ea9565b90506000600260009054906101000a90046001600160a01b03166001600160a01b03166345aeb0ce6040518163ffffffff1660e01b8152600401602060405180830381865afa158015612836573d6000803e3d6000fd5b505050506040513d601f19601f8201168201806040525081019061285a9190614e41565b6001600160801b03166000036128af576012548290612883906001600160801b03166001614e7e565b61288d9190614e5e565b600e80546001600160801b0319166001600160801b0383161790559050612922565b60125482906128c8906001600160801b03166001614e7e565b6128d29190614e5e565b600e546128e891906001600160801b0316614e7e565b601254909150612901906001600160801b031682614ea9565b600e80546001600160801b0319166001600160801b03929092169190911790555b50505050565b6129306139c3565b60048080546040516326d2a55160e21b81526001600160a01b0390911691639b4a95449161296091859101614d23565b6020604051808303816000875af115801561297f573d6000803e3d6000fd5b505050506040513d601f19601f820116820180604052508101906129a39190614d3d565b156129c05760405162461bcd60e51b8152600401610b6d90614d5a565b60006129cc8688614e5e565b6001600160801b0316905080600003612a315760405162461bcd60e51b815260206004820152602160248201527f4465706f73697420616d6f756e742073686f756c64206e6f74206265207a65726044820152606f60f81b6064820152608401610b6d565b80846001600160801b03161115612aa95760405162461bcd60e51b815260206004820152603660248201527f4c69717569646174696f6e20616d6f756e742063616e27742067726561746572604482015275081d1a185b8819195c1bdcda5d195908185b5bdd5b9d60521b6064820152608401610b6d565b600e54600f54600160881b9091046001600160401b03161115612b9257600e54600f54600160881b9091046001600160401b031690612af2906001600160801b038a1690614e1b565b11612b545780876001600160801b031614612b4f5760405162461bcd60e51b815260206004820152601b60248201527f31303025206f6620616d6f756e74206d757374206265205553445400000000006044820152606401610b6d565b612ce5565b60405162461bcd60e51b815260206004820152601360248201527214dd5c9c1b1d5cc81554d11508185b5bdd5b9d606a1b6044820152606401610b6d565b600e54606490612bad908390600160801b900460ff16614dda565b612bb79190614e07565b866001600160801b03161015612c0f5760405162461bcd60e51b815260206004820152601d60248201527f526571756972656420414d494e5420616d6f756e74206e6f74206d65740000006044820152606401610b6d565b6000546040516370a0823160e01b81523360048201526001600160801b038816916001600160a01b0316906370a0823190602401602060405180830381865afa158015612c60573d6000803e3d6000fd5b505050506040513d601f19601f82011682018060405250810190612c849190614f37565b1015612ce55760405162461bcd60e51b815260206004820152602a60248201527f496e73756666696369656e7420414d494e542062616c616e636520776974682060448201526936b9b39739b2b73232b960b11b6064820152608401610b6d565b33600090815260136020526040812054600160401b900460ff16612d715750336000908152601360205260408120805468ffffffffffffffffff191668010000000000000001179055600a805460019290612d48906001600160401b0316615030565b91906101000a8154816001600160401b0302191690836001600160401b03160217905550612dbd565b3360009081526013602052604081208054909190612d97906001600160401b0316615030565b91906101000a8154816001600160401b0302191690836001600160401b03160217905590505b3360009081526013602090815260408083206001600160401b038516845260019081019092528220908101849055600401805470ffffffffffffffffffffffffffffffff0019166101006001600160801b03881602179055612e1e85614064565b9050612e328160000151826020015161434f565b601180543360009081526013602090815260408083206001600160401b0388168452600101909152812060050180546001600160801b031981166001600160801b039094169384178255935460ff600160801b91829004161515026001600160881b0319909416909217929092179055600b8054859290612eb4908490614e1b565b9250508190555082600c6000828254612ecd9190614e1b565b92505081905550886001600160801b0316600f6000828254612eef9190614e1b565b90915550503360009081526013602090815260408083206001600160401b0386811685526001909101909252909120805467ffffffffffffffff191642909216919091179055600e546012546001600160801b0391821691612f52911685614dda565b612f5c9190614e07565b3360009081526013602090815260408083206001600160401b038716845260010190915290206008810191909155600501805488158015600160881b0260ff60881b199092169190911790915561309757600160009054906101000a90046001600160a01b03166001600160a01b03166338a912d56040518163ffffffff1660e01b8152600401602060405180830381865afa158015613000573d6000803e3d6000fd5b505050506040513d601f19601f820116820180604052508101906130249190614e41565b3360009081526013602090815260408083206001600160401b038716845260010190915281206007810180546001600160801b03199081166001600160801b0395861617909155600160801b938a16938402168317600690910155600d8054909190613091908490614e1b565b90915550505b6009546001600160801b038681169116146130b5576130b585613dbc565b6001600160801b038916158015906130d557506001600160801b03881615155b156132b6576005546040516370a0823160e01b81523360048201526001600160801b038b16916001600160a01b0316906370a0823190602401602060405180830381865afa15801561312b573d6000803e3d6000fd5b505050506040513d601f19601f8201168201806040525081019061314f9190614f37565b101561316d5760405162461bcd60e51b8152600401610b6d9061504c565b6005546008546040516323b872dd60e01b81526000926001600160a01b03908116926323b872dd926131a792339216908f90600401614f6d565b6020604051808303816000875af11580156131c6573d6000803e3d6000fd5b505050506040513d601f19601f820116820180604052508101906131ea9190614d3d565b905060018115151461320e5760405162461bcd60e51b8152600401610b6d90615095565b600080546008546040516323b872dd60e01b81526001600160a01b03928316926323b872dd92613248923392909116908f90600401614f6d565b6020604051808303816000875af1158015613267573d6000803e3d6000fd5b505050506040513d601f19601f8201168201806040525081019061328b9190614d3d565b90506001811515146132af5760405162461bcd60e51b8152600401610b6d906150d8565b50506134a4565b886001600160801b031660000361336e57600080546008546040516323b872dd60e01b81526001600160a01b03928316926323b872dd92613301923392909116908e90600401614f6d565b6020604051808303816000875af1158015613320573d6000803e3d6000fd5b505050506040513d601f19601f820116820180604052508101906133449190614d3d565b90506001811515146133685760405162461bcd60e51b8152600401610b6d906150d8565b506134a4565b6005546040516370a0823160e01b81523360048201526001600160801b038b16916001600160a01b0316906370a0823190602401602060405180830381865afa1580156133bf573d6000803e3d6000fd5b505050506040513d601f19601f820116820180604052508101906133e39190614f37565b10156134015760405162461bcd60e51b8152600401610b6d9061504c565b6005546008546040516323b872dd60e01b81526000926001600160a01b03908116926323b872dd9261343b92339216908f90600401614f6d565b6020604051808303816000875af115801561345a573d6000803e3d6000fd5b505050506040513d601f19601f8201168201806040525081019061347e9190614d3d565b90506001811515146134a25760405162461bcd60e51b8152600401610b6d90615095565b505b6001600160801b0389161561359857600080546008546040516340c10f1960e01b81526001600160a01b03928316926340c10f19926134ea929116908e90600401614f15565b6020604051808303816000875af1158015613509573d6000803e3d6000fd5b505050506040513d601f19601f8201168201806040525081019061352d9190614d3d565b90506001811515146135965760405162461bcd60e51b815260206004820152602c60248201527f414d494e54206d696e7420746f207472656173757279206661696c656420696e60448201526b0810d114c819195c1bdcda5d60a21b6064820152608401610b6d565b505b3360009081526013602090815260408083206001600160401b038616808552600190910183529281902060088101546005909101548251888152938401949094526001600160801b03808b1692840192909252606083015290911660808201527fcdd1e645b3bff8dc4c192ceeb358900b0903593c0778b65f0493d608c1a8daf69060a00160405180910390a15050505061364060016000805160206152b983398151915255565b5050505050565b6007546001600160a01b031633146136715760405162461bcd60e51b8152600401610b6d90614f99565b806001600160801b0316600b60008282546120939190614e2e565b6006546001600160a01b031633146136b65760405162461bcd60e51b8152600401610b6d90615000565b6001600160a01b038116158015906136d757506001600160a01b0381163b15155b61371e5760405162461bcd60e51b8152602060048201526018602482015277125b9c1d5d081859191c995cdcc81a5cc81a5b9d985b1a5960421b6044820152606401610b6d565b6004546001600160a01b031663fb8c927860076040518263ffffffff1660e01b815260040161374d9190614fec565b6020604051808303816000875af115801561376c573d6000803e3d6000fd5b505050506040513d601f19601f820116820180604052508101906137909190614d3d565b61379957600080fd5b600880546001600160a01b039092166001600160a01b0319928316811790915560028054909216179055565b6137cd613f98565b6001600160a01b0381166137f757604051631e4fbdf760e01b815260006004820152602401610b6d565b61380081613ff3565b50565b7ff0c57e16840df040f15088dc2f81fe391c3923bec73e23a9662efc9c229c6a008054600160401b810460ff1615906001600160401b03166000811580156138485750825b90506000826001600160401b031660011480156138645750303b155b905081158015613872575080155b156138905760405163f92ee8a960e01b815260040160405180910390fd5b845467ffffffffffffffff1916600117855583156138ba57845460ff60401b1916600160401b1785555b6138c3336144bf565b6138cb6144d0565b600080546001600160a01b03808c166001600160a01b031992831617909255600580548a84169083161790556004805489841690831617905560038054928b169290911691909117905561391d6144d8565b600160801b6001600160801b0391909116818102176009557127100000000000000000000000e8d4a51000601255600e80546001600160801b03191664e8d4a510001790556011805460ff60801b1916909117905583156139b857845460ff60401b19168555604051600181527fc7f505b2f371ae2175ee4913f4499e1f2633a7b5936321eed1cdaeb6115181d29060200160405180910390a15b505050505050505050565b6000805160206152b98339815191528054600119016139f557604051633ee5aeb560e01b815260040160405180910390fd5b60029055565b600080613a0783614064565b9050613a1b8160000151826020015161434f565b613a43604051806040016040528060078152602001663131313131313160c81b815250613d79565b6001600160a01b03851660009081526013602081815260408084206001600160401b038916808652600191820184528286208201543387529484528286209086520190915282206005015460115491926001600160801b038083169360ff600160801b948590048116949282169290910416151583151503613c9957806001600160801b0316846001600160801b03161115613aea57613ae38185614ecf565b9150613af7565b613af48482614ecf565b91505b8215613be257806001600160801b0316846001600160801b03161115613bb157600064174876e800613b326001600160801b03851688614dda565b613b3c9190614e07565b9050613b71604051806040016040528060118152602001700c4819195c1bdcda5d1959105b5bdd5b9d607a1b81525087613d34565b613b996040518060400160405280600681526020016531206c6f737360d01b81525082613d34565b613ba38187614e2e565b975050505050505050613d2d565b600064174876e800613bcc6001600160801b03851688614dda565b613bd69190614e07565b9050613ba38187614e1b565b806001600160801b0316846001600160801b03161115613c1757600064174876e800613bcc6001600160801b03851688614dda565b600064174876e800613c326001600160801b03851688614dda565b613c3c9190614e07565b9050613c71604051806040016040528060118152602001700c8819195c1bdcda5d1959105b5bdd5b9d607a1b81525087613d34565b613b996040518060400160405280600681526020016532206c6f737360d01b81525082613d34565b613ca38185614e5e565b91508215613bb157600064174876e800613cc66001600160801b03851688614dda565b613cd09190614e07565b9050613d05604051806040016040528060118152602001700cc819195c1bdcda5d1959105b5bdd5b9d607a1b81525087613d34565b613b996040518060400160405280600681526020016533206c6f737360d01b81525082613d34565b9392505050565b611c288282604051602401613d4a92919061511c565b60408051601f198184030181529190526020810180516001600160e01b0316632d839cb360e21b179052614571565b61380081604051602401613d8d9190614b85565b60408051601f198184030181529190526020810180516001600160e01b031663104c13eb60e21b179052614571565b600980546001600160801b03196001600160801b03918216600160801b02169216919091179055565b306001600160a01b037f0000000000000000000000000000000000000000000000000000000000000000161480613e6c57507f00000000000000000000000000000000000000000000000000000000000000006001600160a01b0316613e60600080516020615205833981519152546001600160a01b031690565b6001600160a01b031614155b1561224e5760405163703e46dd60e11b815260040160405180910390fd5b613800613f98565b816001600160a01b03166352d1902d6040518163ffffffff1660e01b8152600401602060405180830381865afa925050508015613eec575060408051601f3d908101601f19168201909252613ee991810190614f37565b60015b613f1457604051634c9c8ce360e01b81526001600160a01b0383166004820152602401610b6d565b6000805160206152058339815191528114613f4557604051632a87526960e21b815260048101829052602401610b6d565b612049838361457a565b306001600160a01b037f0000000000000000000000000000000000000000000000000000000000000000161461224e5760405163703e46dd60e11b815260040160405180910390fd5b33613fca7f9016d09d72d40fdae2fd8ceac6b6234c7706214fd39c1cd1e609a0528c199300546001600160a01b031690565b6001600160a01b03161461224e5760405163118cdaa760e01b8152336004820152602401610b6d565b7f9016d09d72d40fdae2fd8ceac6b6234c7706214fd39c1cd1e609a0528c19930080546001600160a01b031981166001600160a01b03848116918217845560405192169182907f8be0079c531659141344cd1fd0a4f28419497f9722a3daafe3b4186f6b6457e090600090a3505050565b604080518082018252600080825260208083018290526002548451639a52aed960e01b8152945193946103e8946001600160a01b0390921692639a52aed9926004808401938290030181865afa1580156140c2573d6000803e3d6000fd5b505050506040513d601f19601f820116820180604052508101906140e69190614f37565b90506000806000600b546000036141035750600090506001614328565b6009546001600160801b03888116911614614172576009546001600160801b03908116908816111561415057600954614145906001600160801b031688614ecf565b9250600190506141d2565b6009546141679088906001600160801b0316614ecf565b9250600090506141d2565b6009546001600160801b03600160801b909104811690881611156141ad5760095461414590600160801b90046001600160801b031688614ecf565b6009546141cb908890600160801b90046001600160801b0316614ecf565b9250600090505b6142046040518060400160405280600781526020016617d85b5bdd5b9d60ca1b815250866001600160801b0316613d34565b61422e604051806040016040528060088152602001671d985d5b1d10985b60c21b81525085613d34565b61426260405180604001604052806009815260200168383934b1b2a234b33360b91b815250846001600160801b0316613d34565b61429d604051806040016040528060178152602001761d1bdd185b10d91cd1195c1bdcda5d1959105b5bdd5b9d604a1b815250600b54613d34565b600b546012546142b691906001600160801b0316614dda565b836001600160801b031685876001600160801b03166142d59190614dda565b6142df9190614dda565b6142ec90620f4240614dda565b6142f69190614e07565b91506143286040518060400160405280600581526020016476616c756560d81b815250836001600160801b0316613d34565b604080518082019091526001600160801b0390921682521515602082015295945050505050565b801561442157601154600160801b900460ff16156143ad57601180548391906000906143859084906001600160801b0316614e5e565b92506101000a8154816001600160801b0302191690836001600160801b031602179055505050565b6011546001600160801b03808416911611156143e157601180548391906000906143859084906001600160801b0316614ecf565b6011546143f7906001600160801b031683614ecf565b601180546001600160881b0319166001600160801b039290921691909117600160801b1790555050565b601154600160801b900460ff16156144a1576011546001600160801b038084169116111561446757601180548391906000906143859084906001600160801b0316614ecf565b60115461447d906001600160801b031683614ecf565b601180546001600160881b0319166001600160801b03929092169190911790555050565b601180548391906000906143859084906001600160801b0316614e5e565b6144c76145d0565b61380081614619565b61224e6145d0565b600080600360009054906101000a90046001600160a01b03166001600160a01b031663feaf968c6040518163ffffffff1660e01b815260040160a060405180830381865afa15801561452e573d6000803e3d6000fd5b505050506040513d601f19601f820116820180604052508101906145529190615158565b5091935083925061456a9150620f4240905082614e07565b9250505090565b61380081614621565b61458382614642565b6040516001600160a01b038316907fbc7cd75a20ee27fd9adebab32041f755214dbc6bffa90cc0225b39da2e5c2d3b90600090a28051156145c85761204982826146a7565b611c2861471f565b7ff0c57e16840df040f15088dc2f81fe391c3923bec73e23a9662efc9c229c6a0054600160401b900460ff1661224e57604051631afcd79f60e31b815260040160405180910390fd5b6137cd6145d0565b60006a636f6e736f6c652e6c6f679050600080835160208501845afa505050565b806001600160a01b03163b60000361467857604051634c9c8ce360e01b81526001600160a01b0382166004820152602401610b6d565b60008051602061520583398151915280546001600160a01b0319166001600160a01b0392909216919091179055565b6060600080846001600160a01b0316846040516146c491906151a8565b600060405180830381855af49150503d80600081146146ff576040519150601f19603f3d011682016040523d82523d6000602084013e614704565b606091505b509150915061471485838361473e565b925050505b92915050565b341561224e5760405163b398979f60e01b815260040160405180910390fd5b6060826147535761474e8261479a565b613d2d565b815115801561476a57506001600160a01b0384163b155b1561479357604051639996b31560e01b81526001600160a01b0385166004820152602401610b6d565b5080613d2d565b8051156147aa5780518082602001fd5b604051630a12f52160e11b815260040160405180910390fd5b6001600160401b038116811461380057600080fd5b6001600160801b038116811461380057600080fd5b6000806040838503121561480057600080fd5b823561480b816147c3565b9150602083013561481b816147d8565b809150509250929050565b60008060006060848603121561483b57600080fd5b8335614846816147d8565b92506020840135614856816147c3565b91506040840135614866816147c3565b809150509250925092565b80356001600160a01b038116811461488857600080fd5b919050565b600080604083850312156148a057600080fd5b6148a983614871565b9150602083013561481b816147c3565b82516001600160401b031681526101c081016020840151602083015260408401516148ef60408401826001600160401b03169052565b5060608401516060830152608084015161490d608084018215159052565b5060a084015161492860a08401826001600160801b03169052565b5060c084015161494360c08401826001600160801b03169052565b5060e084015161495760e084018215159052565b5061010084810151151590830152610120808501516001600160801b039081169184019190915261014080860151821690840152610160808601519091169083015261018080850151908301526001600160401b0383166101a0830152613d2d565b6000602082840312156149cb57600080fd5b8135613d2d816147d8565b6000602082840312156149e857600080fd5b5035919050565b634e487b7160e01b600052604160045260246000fd5b604051601f8201601f191681016001600160401b0381118282101715614a2d57614a2d6149ef565b604052919050565b60008060408385031215614a4857600080fd5b614a5183614871565b91506020808401356001600160401b0380821115614a6e57600080fd5b818601915086601f830112614a8257600080fd5b813581811115614a9457614a946149ef565b614aa6601f8201601f19168501614a05565b91508082528784828501011115614abc57600080fd5b80848401858401376000848284010152508093505050509250929050565b600060208284031215614aec57600080fd5b613d2d82614871565b600060208284031215614b0757600080fd5b8135613d2d816147c3565b600060208284031215614b2457600080fd5b813560ff81168114613d2d57600080fd5b60005b83811015614b50578181015183820152602001614b38565b50506000910152565b60008151808452614b71816020860160208601614b35565b601f01601f19169290920160200192915050565b602081526000613d2d6020830184614b59565b60008082840360a0811215614bac57600080fd5b8335614bb7816147d8565b92506080601f1982011215614bcb57600080fd5b50604051608081018181106001600160401b0382111715614bee57614bee6149ef565b6040526020840135614bff816147d8565b81526040840135614c0f816147d8565b60208201526060840135614c22816147d8565b60408201526080939093013560608401525092909150565b801515811461380057600080fd5b600080600080600060a08688031215614c6057600080fd5b8535614c6b816147d8565b94506020860135614c7b816147d8565b93506040860135614c8b81614c3a565b92506060860135614c9b816147d8565b91506080860135614cab816147d8565b809150509295509295909350565b60008060008060808587031215614ccf57600080fd5b614cd885614871565b9350614ce660208601614871565b9250614cf460408601614871565b9150614d0260608601614871565b905092959194509250565b634e487b7160e01b600052602160045260246000fd5b6020810160078310614d3757614d37614d0d565b91905290565b600060208284031215614d4f57600080fd5b8151613d2d81614c3a565b60208082526006908201526514185d5cd95960d21b604082015260600190565b634e487b7160e01b600052601160045260246000fd5b6001600160401b03818116838216019080821115614db057614db0614d7a565b5092915050565b60006001600160401b03821680614dd057614dd0614d7a565b6000190192915050565b808202811582820484141761471957614719614d7a565b634e487b7160e01b600052601260045260246000fd5b600082614e1657614e16614df1565b500490565b8082018082111561471957614719614d7a565b8181038181111561471957614719614d7a565b600060208284031215614e5357600080fd5b8151613d2d816147d8565b6001600160801b03818116838216019080821115614db057614db0614d7a565b6001600160801b03818116838216028082169190828114614ea157614ea1614d7a565b505092915050565b60006001600160801b0380841680614ec357614ec3614df1565b92169190910492915050565b6001600160801b03828116828216039080821115614db057614db0614d7a565b60006001600160801b03808316818103614f0b57614f0b614d7a565b6001019392505050565b6001600160a01b039290921682526001600160801b0316602082015260400190565b600060208284031215614f4957600080fd5b5051919050565b600060208284031215614f6257600080fd5b8151613d2d816147c3565b6001600160a01b0393841681529190921660208201526001600160801b03909116604082015260600190565b60208082526033908201527f546869732066756e6374696f6e2063616e206f6e6c792063616c6c656420627960408201527208189bdc9c9bddda5b99c818dbdb9d1c9858dd606a1b606082015260800190565b60208101600b8310614d3757614d37614d0d565b60208082526016908201527521b0b63632b91034b9903737ba1030b71030b236b4b760511b604082015260600190565b60006001600160401b03808316818103614f0b57614f0b614d7a565b60208082526029908201527f496e73756666696369656e7420555344542062616c616e63652077697468206d60408201526839b39739b2b73232b960b91b606082015260800190565b60208082526023908201527f55534454205472616e73666572206661696c656420696e20434453206465706f6040820152621cda5d60ea1b606082015260800190565b60208082526024908201527f414d494e54205472616e73666572206661696c656420696e20434453206465706040820152631bdcda5d60e21b606082015260800190565b60408152600061512f6040830185614b59565b90508260208301529392505050565b805169ffffffffffffffffffff8116811461488857600080fd5b600080600080600060a0868803121561517057600080fd5b6151798661513e565b945060208601519350604086015192506060860151915061519c6080870161513e565b90509295509295909350565b600082516151ba818460208701614b35565b919091019291505056fe63647344657461696c735b6d73672e73656e6465725d2e6364734163636f756e7444657461696c735b5f696e6465785d2e6465706f7369746564416d6f756e74360894a13ba1a3210667c828492db98dca3e2076cc3735a920a3ca505d382bbc63647344657461696c735b6d73672e73656e6465725d2e6364734163636f756e7444657461696c735b5f696e6465785d2e6c69717569646174696f6e416d6f756e746c69717569646174696f6e446174612e6c69717569646174696f6e416d6f756e742a7368617265292f31653130746f74616c4364734465706f7369746564416d6f756e74576974684f7074696f6e466565739b779b17422d0df92223018b32b4d1fa46e071723d6817e2486d003becc55f006c69717569646174696f6e446174612e617661696c61626c654c69717569646174696f6e416d6f756e74a26469706673582212208b7e3b8f1a63bf8fb635af21cf38fbb9fca74d45413883bc33a22a90d32160c464736f6c63430008140033","linkReferences":{}},"methodIdentifiers":{"PRECISION()":"aaf5eb68","UPGRADE_INTERFACE_VERSION()":"ad3cb1cc","amint()":"503e6322","amintLimit()":"412cfc94","borrowing()":"60b415ed","borrowingContract()":"84a965ed","burnedAmintInRedeem()":"e356b120","calculateCumulativeRate(uint128)":"b87c3dc3","cdsCount()":"df6f05e7","cdsDetails(address)":"880e8e3b","cumulativeValue()":"b9934fee","cumulativeValueSign()":"ba397b41","deposit(uint128,uint128,bool,uint128,uint128)":"dabd360a","fallbackEthPrice()":"77b7cda6","getCDSDepositDetails(address,uint64)":"4721bae8","initialize(address,address,address,address)":"f8c8765e","lastCumulativeRate()":"8e4db39a","lastEthPrice()":"7038fc4e","liquidationIndexToInfo(uint128)":"d3e3413f","multiSign()":"9e6fe439","owner()":"8da5cb5b","proxiableUUID()":"52d1902d","redeemUSDT(uint128,uint64,uint64)":"46696df3","renounceOwnership()":"715018a6","setAdmin(address)":"704b6c02","setAmintLimit(uint8)":"84637c26","setBorrowingContract(address)":"78fdaf3f","setTreasury(address)":"f0f44260","setUsdtLimit(uint64)":"7bf5e245","setWithdrawTimeLimit(uint64)":"868c10d2","totalAvailableLiquidationAmount()":"dc91e752","totalCdsDepositedAmount()":"2bb2ea62","totalCdsDepositedAmountWithOptionFees()":"cba87517","transferOwnership(address)":"f2fde38b","treasury()":"61d027b3","treasuryAddress()":"c5f956af","updateLiquidationInfo(uint128,(uint128,uint128,uint128,uint256))":"b3013d4d","updateTotalAvailableLiquidationAmount(uint256)":"4cae95d3","updateTotalCdsDepositedAmount(uint128)":"dc55b193","updateTotalCdsDepositedAmountWithOptionFees(uint128)":"4baf580d","upgradeToAndCall(address,bytes)":"4f1ef286","usdt()":"2f48ab7d","usdtAmountDepositedTillNow()":"76a3fb3e","usdtLimit()":"f57ff39c","withdraw(uint64,uint128)":"254bba5c","withdrawTimeLimit()":"4f04a86b"},"id":5}