{"abi":[{"type":"constructor","inputs":[{"name":"_trinity","type":"address","internalType":"address"},{"name":"priceFeed","type":"address","internalType":"address"},{"name":"_usdt","type":"address","internalType":"address"}],"stateMutability":"nonpayable"},{"type":"receive","stateMutability":"payable"},{"type":"function","name":"PRECISION","inputs":[],"outputs":[{"name":"","type":"uint128","internalType":"uint128"}],"stateMutability":"view"},{"type":"function","name":"Trinity_token","inputs":[],"outputs":[{"name":"","type":"address","internalType":"contract ITrinityToken"}],"stateMutability":"view"},{"type":"function","name":"amintLimit","inputs":[],"outputs":[{"name":"","type":"uint8","internalType":"uint8"}],"stateMutability":"view"},{"type":"function","name":"borrowing","inputs":[],"outputs":[{"name":"","type":"address","internalType":"contract IBorrowing"}],"stateMutability":"view"},{"type":"function","name":"borrowingContract","inputs":[],"outputs":[{"name":"","type":"address","internalType":"address"}],"stateMutability":"view"},{"type":"function","name":"calculateCumulativeRate","inputs":[{"name":"fees","type":"uint128","internalType":"uint128"}],"outputs":[{"name":"","type":"uint128","internalType":"uint128"}],"stateMutability":"nonpayable"},{"type":"function","name":"cdsCount","inputs":[],"outputs":[{"name":"","type":"uint64","internalType":"uint64"}],"stateMutability":"view"},{"type":"function","name":"cdsDetails","inputs":[{"name":"","type":"address","internalType":"address"}],"outputs":[{"name":"index","type":"uint64","internalType":"uint64"},{"name":"hasDeposited","type":"bool","internalType":"bool"}],"stateMutability":"view"},{"type":"function","name":"deposit","inputs":[{"name":"usdtAmount","type":"uint128","internalType":"uint128"},{"name":"amintAmount","type":"uint128","internalType":"uint128"},{"name":"_liquidate","type":"bool","internalType":"bool"},{"name":"_liquidationAmount","type":"uint128","internalType":"uint128"}],"outputs":[],"stateMutability":"nonpayable"},{"type":"function","name":"ethVault","inputs":[],"outputs":[{"name":"","type":"address","internalType":"address"}],"stateMutability":"view"},{"type":"function","name":"fallbackEthPrice","inputs":[],"outputs":[{"name":"","type":"uint128","internalType":"uint128"}],"stateMutability":"view"},{"type":"function","name":"getCDSDepositDetails","inputs":[{"name":"depositor","type":"address","internalType":"address"},{"name":"index","type":"uint64","internalType":"uint64"}],"outputs":[{"name":"","type":"tuple","internalType":"struct CDSTest.CdsAccountDetails","components":[{"name":"depositedTime","type":"uint64","internalType":"uint64"},{"name":"depositedAmount","type":"uint128","internalType":"uint128"},{"name":"withdrawedTime","type":"uint64","internalType":"uint64"},{"name":"withdrawedAmount","type":"uint128","internalType":"uint128"},{"name":"withdrawed","type":"bool","internalType":"bool"},{"name":"depositPrice","type":"uint128","internalType":"uint128"},{"name":"depositValue","type":"uint128","internalType":"uint128"},{"name":"optedLiquidation","type":"bool","internalType":"bool"},{"name":"InitialLiquidationAmount","type":"uint128","internalType":"uint128"},{"name":"liquidationAmount","type":"uint128","internalType":"uint128"},{"name":"liquidationindex","type":"uint128","internalType":"uint128"},{"name":"normalizedAmount","type":"uint128","internalType":"uint128"}]},{"name":"","type":"uint64","internalType":"uint64"}],"stateMutability":"view"},{"type":"function","name":"lastCumulativeRate","inputs":[],"outputs":[{"name":"","type":"uint128","internalType":"uint128"}],"stateMutability":"view"},{"type":"function","name":"lastEthPrice","inputs":[],"outputs":[{"name":"","type":"uint128","internalType":"uint128"}],"stateMutability":"view"},{"type":"function","name":"liquidationIndexToInfo","inputs":[{"name":"liquidationIndex","type":"uint128","internalType":"uint128"}],"outputs":[{"name":"liquidationAmount","type":"uint128","internalType":"uint128"},{"name":"profits","type":"uint128","internalType":"uint128"},{"name":"ethAmount","type":"uint128","internalType":"uint128"},{"name":"availableLiquidationAmount","type":"uint256","internalType":"uint256"}],"stateMutability":"view"},{"type":"function","name":"owner","inputs":[],"outputs":[{"name":"","type":"address","internalType":"address"}],"stateMutability":"view"},{"type":"function","name":"redeemUSDT","inputs":[{"name":"_amintAmount","type":"uint128","internalType":"uint128"},{"name":"amintPrice","type":"uint64","internalType":"uint64"},{"name":"usdtPrice","type":"uint64","internalType":"uint64"}],"outputs":[],"stateMutability":"nonpayable"},{"type":"function","name":"renounceOwnership","inputs":[],"outputs":[],"stateMutability":"nonpayable"},{"type":"function","name":"setAmintLimit","inputs":[{"name":"percent","type":"uint8","internalType":"uint8"}],"outputs":[],"stateMutability":"nonpayable"},{"type":"function","name":"setBorrowingContract","inputs":[{"name":"_address","type":"address","internalType":"address"}],"outputs":[],"stateMutability":"nonpayable"},{"type":"function","name":"setTreasury","inputs":[{"name":"_treasury","type":"address","internalType":"address"}],"outputs":[],"stateMutability":"nonpayable"},{"type":"function","name":"setUsdtLimit","inputs":[{"name":"amount","type":"uint64","internalType":"uint64"}],"outputs":[],"stateMutability":"nonpayable"},{"type":"function","name":"setWithdrawTimeLimit","inputs":[{"name":"_timeLimit","type":"uint64","internalType":"uint64"}],"outputs":[],"stateMutability":"nonpayable"},{"type":"function","name":"totalAvailableLiquidationAmount","inputs":[],"outputs":[{"name":"","type":"uint256","internalType":"uint256"}],"stateMutability":"view"},{"type":"function","name":"totalCdsDepositedAmount","inputs":[],"outputs":[{"name":"","type":"uint128","internalType":"uint128"}],"stateMutability":"view"},{"type":"function","name":"transferOwnership","inputs":[{"name":"newOwner","type":"address","internalType":"address"}],"outputs":[],"stateMutability":"nonpayable"},{"type":"function","name":"treasury","inputs":[],"outputs":[{"name":"","type":"address","internalType":"contract ITreasury"}],"stateMutability":"view"},{"type":"function","name":"treasuryAddress","inputs":[],"outputs":[{"name":"","type":"address","internalType":"address"}],"stateMutability":"view"},{"type":"function","name":"updateLiquidationInfo","inputs":[{"name":"index","type":"uint128","internalType":"uint128"},{"name":"liquidationData","type":"tuple","internalType":"struct CDSTest.LiquidationInfo","components":[{"name":"liquidationAmount","type":"uint128","internalType":"uint128"},{"name":"profits","type":"uint128","internalType":"uint128"},{"name":"ethAmount","type":"uint128","internalType":"uint128"},{"name":"availableLiquidationAmount","type":"uint256","internalType":"uint256"}]}],"outputs":[],"stateMutability":"nonpayable"},{"type":"function","name":"updateTotalAvailableLiquidationAmount","inputs":[{"name":"amount","type":"uint256","internalType":"uint256"}],"outputs":[],"stateMutability":"nonpayable"},{"type":"function","name":"updateTotalCdsDepositedAmount","inputs":[{"name":"_amount","type":"uint128","internalType":"uint128"}],"outputs":[],"stateMutability":"nonpayable"},{"type":"function","name":"usdt","inputs":[],"outputs":[{"name":"","type":"address","internalType":"contract IERC20"}],"stateMutability":"view"},{"type":"function","name":"usdtAmountDepositedTillNow","inputs":[],"outputs":[{"name":"","type":"uint256","internalType":"uint256"}],"stateMutability":"view"},{"type":"function","name":"usdtLimit","inputs":[],"outputs":[{"name":"","type":"uint64","internalType":"uint64"}],"stateMutability":"view"},{"type":"function","name":"withdraw","inputs":[{"name":"_index","type":"uint64","internalType":"uint64"}],"outputs":[],"stateMutability":"nonpayable"},{"type":"function","name":"withdrawTimeLimit","inputs":[],"outputs":[{"name":"","type":"uint64","internalType":"uint64"}],"stateMutability":"view"},{"type":"event","name":"Deposit","inputs":[{"name":"depositedAmint","type":"uint128","indexed":false,"internalType":"uint128"},{"name":"index","type":"uint64","indexed":false,"internalType":"uint64"},{"name":"liquidationAmount","type":"uint128","indexed":false,"internalType":"uint128"},{"name":"normalizedAmount","type":"uint128","indexed":false,"internalType":"uint128"},{"name":"depositVal","type":"uint128","indexed":false,"internalType":"uint128"}],"anonymous":false},{"type":"event","name":"OwnershipTransferred","inputs":[{"name":"previousOwner","type":"address","indexed":true,"internalType":"address"},{"name":"newOwner","type":"address","indexed":true,"internalType":"address"}],"anonymous":false},{"type":"event","name":"Withdraw","inputs":[{"name":"withdrewAmint","type":"uint128","indexed":false,"internalType":"uint128"},{"name":"withdrawETH","type":"uint128","indexed":false,"internalType":"uint128"}],"anonymous":false}],"bytecode":{"object":"0x60a08060405234620001d05760608162002f608038038091620000238285620001d5565b833981010312620001d05762000039816200020f565b6200005560406200004d602085016200020f565b93016200020f565b9160009060a082546004600180841b031993338584161786556040519485938492600180881b03809b8193823391167f8be0079c531659141344cd1fd0a4f28419497f9722a3daafe3b4186f6b6457e08d80a364e8d4a510009c8d9c60018060801b03199d8e600d541617600d551660805216838654161785551680916003541617600355633fabe5a360e21b82525afa918215620001c457809262000168575b5050620f424060018060801b03910416816008541617600855600b541617600b55604051612d2690816200023a823960805181818161082701528181610e7101528181610fa00152818161116701528181611c3001528181611eb10152818161249f01528181612513015261286d0152f35b90915060a0823d8211620001bb575b816200018660a09383620001d5565b81010312620001b857506200019b8162000224565b50620001af60806020830151920162000224565b503880620000f6565b80fd5b3d915062000177565b604051903d90823e3d90fd5b600080fd5b601f909101601f19168101906001600160401b03821190821017620001f957604052565b634e487b7160e01b600052604160045260246000fd5b51906001600160a01b0382168203620001d057565b51906001600160501b0382168203620001d05756fe608080604052600436101561001d575b50361561001b57600080fd5b005b600090813560e01c9081630df03e4114612859575080632bb2ea62146128385780632f48ab7d1461280f578063412cfc94146127eb57806346696df31461243c5780634721bae81461223f5780634cae95d3146121915780634f04a86b146121675780635a20329c1461213e57806360b415ed1461211557806361d027b3146120ec5780637038fc4e146120c5578063715018a61461206b578063750f0acc1461164957806376a3fb3e1461162b57806377b7cda61461160a57806378fdaf3f146115aa5780637bf5e2451461150657806384637c261461147457806384a965ed1461144b578063868c10d2146113a1578063880e8e3b146113535780638da5cb5b1461132c5780638e4db39a14611305578063aaf5eb68146112de578063b0b6f3c61461066d578063b3013d4d146105a5578063b87c3dc31461041d578063c5f956af146103f4578063d3e3413f14610397578063dc55b19314610355578063dc91e75214610337578063df6f05e714610310578063f0f44260146102a4578063f2fde38b146101de5763f57ff39c0361000f57346101db57806003193601126101db5760206001600160401b03600b5460881c16604051908152f35b80fd5b50346101db5760203660031901126101db576101f861290a565b610200612c98565b6001600160a01b0390811690811561025057600054826001600160601b0360a01b821617600055167f8be0079c531659141344cd1fd0a4f28419497f9722a3daafe3b4186f6b6457e0600080a380f35b60405162461bcd60e51b815260206004820152602660248201527f4f776e61626c653a206e6577206f776e657220697320746865207a65726f206160448201526564647265737360d01b6064820152608490fd5b50346101db5760203660031901126101db576102be61290a565b6102c6612c98565b6001600160a01b038116906102e5908215159081610305575b50612c4c565b6001600160601b0360a01b81816007541617600755600254161760025580f35b90503b1515386102df565b50346101db57806003193601126101db5760206001600160401b0360095416604051908152f35b50346101db57806003193601126101db576020600a54604051908152f35b50346101db5760203660031901126101db5761036f61289c565b6001600160801b036009549161038a8219918460801c612c33565b60801b1691161760095580f35b50346101db5760203660031901126101db5760809060406001600160801b0391826103c061289c565b168152600f60205220805490600283600183015416910154916040519381168452841c602084015260408301526060820152f35b50346101db57806003193601126101db576007546040516001600160a01b039091168152602090f35b50346101db57602090816003193601126101db5761043961289c565b906001600160801b0390818316156105605761049460095461048f858260801c928661046583866129bf565b9461047a6001600160801b03199a8b926129bf565b60801b1691161760095585600d5416906129a1565b6129da565b90808560018060a01b03600254166004604051809481936322d7586760e11b83525af191821561055457908492610527575b50166104f1576104da9082600d54166129bf565b9181831690600b541617600b555b60405191168152f35b91600b54908261051b61051461050c83600d541697886129bf565b8386166129a1565b95866129da565b16911617600b556104e8565b6105479150863d881161054d575b61053f8183612980565b810190612b4f565b386104c6565b503d610535565b604051903d90823e3d90fd5b60405162461bcd60e51b815260048101859052601760248201527f466565732073686f756c64206e6f74206265207a65726f0000000000000000006044820152606490fd5b50346101db5760a03660031901126101db576105bf61289c565b608036602319011261066957604051906105d882612965565b6105e06128b2565b8252604435906001600160801b03808316830361066457600292602085019081526106096128c8565b6040868101918252608435606088019081529484168852600f6020528720955191516001600160801b031990841660801b81169284166001600160801b03169290921786559160018601925116908254161790555191015580f35b600080fd5b5080fd5b50346101db5760803660031901126101db5761068761289c565b61068f6128b2565b6044351515604435036112da576106a46128c8565b916001600160801b03600d5416916106c5816106c085856129a1565b6129bf565b926001600160801b0384161561128b576001600160801b036106e783856129bf565b166001600160801b03861610156112275783600c54600b54906001600160401b038260881c161160001461111a575061072b6001600160801b0380921692856129a1565b16036110d5575b6001600160801b038216158015919082806110c3575b15610f625750600480546040516370a0823160e01b815233928101929092526001600160a01b0316602082602481845afa8015610f575785928991610f1f575b50916020916107a56107d3946001600160801b0384161115612a08565b6007546040516323b872dd60e01b815294859384928d92849290916001600160a01b03163360048501612a78565b03925af1918215610dcb576107fa6001610822946020948b91610f08575b50151514612aa2565b6007546040516323b872dd60e01b815293849283926001600160a01b03163360048501612a78565b0381897f00000000000000000000000000000000000000000000000000000000000000006001600160a01b03165af1908115610da15761086e916001918891610eef5750151514612aa2565b6108836001600160801b038316600c54612aee565b600c55610e08575b50610894612b85565b916108a96001600160801b0384161515612afb565b338452600e6020526040842080549060ff8260401c1615600014610dd6575050338452600e602052604084206801000000000000000168ffffffffffffffffff198254161790556001926009546001600160401b03610909818316612b37565b16906001600160401b031916176009555b338552600e602052600160408620016001600160401b03851660005260205260406000208054600160401b600160c01b038560401b1690600160401b600160c01b031916179055338552600e602052600160408620016001600160401b03851660005260205260026040600020016001600160801b0382166001600160801b03198254161790556009546001600160801b0380196109bb868460801c6129bf565b60801b16911617600955338552600e602052600160408620016001600160401b03851660005260205260406000206001600160401b0342166001600160401b0319825416179055610a2c610a1a6001600160801b03600d5416856129a1565b6001600160801b03600b5416906129da565b338652600e602052600160408720016001600160401b0386166000526020526001600160801b03600560406000200191166001600160801b0319825416179055338552600e602052600160408620016001600160401b038516600052602052600360406000200160ff1981541660ff604435151516179055604435610b9c575b9260a092917f0a5985aa28fedd5d60e042a47ad0dcb83381febf41639cd599c154a7fee13ca6946001600160801b03600854166001600160801b03821603610b79575b50338652600e602052600160408720016001600160401b0383166000526020526001600160801b03806005604060002001541691338852600e602052600160408920016001600160401b0385166000526020526001600160401b0360026040600020015460801c94836040519716875216602086015216604084015260608301526080820152a180f35b610b96906001600160801b03801960085460801b16911617600855565b38610aef565b6001546040516338a912d560e01b81526001600160a01b0390911690602081600481855afa8015610dcb576001600160801b03918891610dac575b5016610ce957509260a092917f0a5985aa28fedd5d60e042a47ad0dcb83381febf41639cd599c154a7fee13ca694338752600e602052600160408820016001600160401b0384166000526020526004604060002001600160801b6001600160801b038254161790555b338752600e602052600160408820016001600160401b03841660005260205260046040600020016001600160801b0383166001600160801b0319825416179055338752600e602052600160408820016001600160401b03841660005260205260036040600020018054610100600160881b038460081b1690610100600160881b031916179055610cdb6001600160801b038316600a54612aee565b600a55919450919250610aac565b916020600495929493604051968780926338a912d560e01b82525afa938415610da157610d7d60a0957f0a5985aa28fedd5d60e042a47ad0dcb83381febf41639cd599c154a7fee13ca6978991610d82575b50338952600e602052600160408a20016001600160401b0386166000526020526004604060002001906001600160801b0382549181199060801b169116179055565b610c40565b610d9b915060203d60201161054d5761053f8183612980565b38610d3b565b6040513d88823e3d90fd5b610dc5915060203d60201161054d5761053f8183612980565b38610bd7565b6040513d89823e3d90fd5b610de86001600160401b038316612b37565b67ffffffffffffffff199092166001600160401b0383161790559261091a565b6020610e6d9160018060a01b03610e308160075416926001600160801b03600d5416906129a1565b6040516340c10f1960e01b81526001600160a01b0390931660048401526001600160801b0316602483015290928391908290889082906044820190565b03927f0000000000000000000000000000000000000000000000000000000000000000165af1908115610ee457610eb0916001918691610eb65750151514612aa2565b3861088b565b610ed7915060203d8111610edd575b610ecf8183612980565b810190612a60565b386107f1565b503d610ec5565b6040513d86823e3d90fd5b610ed7915060203d602011610edd57610ecf8183612980565b610ed79150853d8711610edd57610ecf8183612980565b9250506020823d602011610f4f575b81610f3b60209383612980565b810103126106645790518491906020610788565b3d9150610f2e565b6040513d8a823e3d90fd5b15610fe4576007546040516323b872dd60e01b81529160209183916001600160a01b039183918b918391610f9c9186163360048501612a78565b03927f0000000000000000000000000000000000000000000000000000000000000000165af1908115610da157610fdf916001918891610eb65750151514612aa2565b61086e565b50600480546040516370a0823160e01b815233928101929092526001600160a01b0316602082602481845afa8015610dcb578492889161108b575b509160209161103c61106a946001600160801b0384161115612a08565b6007546040516323b872dd60e01b815294859384928c92849290916001600160a01b03163360048501612a78565b03925af1908115610da157610fdf916001918891610eef5750151514612aa2565b9250506020823d6020116110bb575b816110a760209383612980565b81010312610664579051839190602061101f565b3d915061109a565b506001600160801b0382161515610748565b60405162461bcd60e51b815260206004820152601b60248201527f31303025206f6620616d6f756e74206d757374206265205553445400000000006044820152606490fd5b6001600160801b03925061113760649260ff859360801c166129a1565b1604166001600160801b0382169081106111e2576040516370a0823160e01b8152336004820152906020826024817f00000000000000000000000000000000000000000000000000000000000000006001600160a01b03165afa8015610dcb5787906111af575b6111aa92501015612a08565b610732565b506020823d82116111da575b816111c860209383612980565b81010312610664576111aa915161119e565b3d91506111bb565b60405162461bcd60e51b815260206004820152601960248201527f496e73756666696369656e7420414d494e5420616d6f756e74000000000000006044820152606490fd5b60405162461bcd60e51b815260206004820152603660248201527f4c69717569646174696f6e20616d6f756e742063616e27742067726561746572604482015275081d1a185b8819195c1bdcda5d195908185b5bdd5b9d60521b6064820152608490fd5b60405162461bcd60e51b815260206004820152602160248201527f4465706f73697420616d6f756e742073686f756c64206e6f74206265207a65726044820152606f60f81b6064820152608490fd5b8280fd5b50346101db57806003193601126101db5760206001600160801b03600d5416604051908152f35b50346101db57806003193601126101db5760206001600160801b03600b5416604051908152f35b50346101db57806003193601126101db57546040516001600160a01b039091168152602090f35b50346101db5760203660031901126101db5760409081906001600160a01b0361137a61290a565b168152600e602052205460ff8251916001600160401b0381168352831c1615156020820152f35b50346101db5760203660031901126101db576113bb6128f4565b6113c3612c98565b6001600160401b038116156113fc5767ffffffffffffffff60401b6009549160401b169067ffffffffffffffff60401b19161760095580f35b60405162461bcd60e51b815260206004820152602160248201527f57697468647261772074696d65206c696d69742063616e2774206265207a65726044820152606f60f81b6064820152608490fd5b50346101db57806003193601126101db576005546040516001600160a01b039091168152602090f35b50346101db5760203660031901126101db5760043560ff81168082036112da5761149c612c98565b156114c157600b805460ff60801b191660809290921b60ff60801b1691909117905580f35b60405162461bcd60e51b815260206004820152601960248201527f416d696e74206c696d69742063616e2774206265207a65726f000000000000006044820152606490fd5b50346101db5760203660031901126101db576115206128f4565b611528612c98565b6001600160401b0381161561156557600b805467ffffffffffffffff60881b191660889290921b67ffffffffffffffff60881b1691909117905580f35b60405162461bcd60e51b815260206004820152601860248201527f55534454206c696d69742063616e2774206265207a65726f00000000000000006044820152606490fd5b50346101db5760203660031901126101db576115c461290a565b6115cc612c98565b6001600160a01b038116906115ea9082151590816103055750612c4c565b6001600160601b0360a01b81816005541617600555600154161760015580f35b50346101db57806003193601126101db57602060085460801c604051908152f35b50346101db57806003193601126101db576020600c54604051908152f35b50346101db5760203660031901126101db576116636128f4565b338252600e6020526001600160401b0390816040842054168282161161201857338352600e6020526001604084200182821660005260205260ff60016040600020015460801c16611fdf57338352600e602052600160408420018282166000526020526001604060002001600160801b60ff60801b19825416179055338352600e6020526001826040852054161480611fd3575b611f98575b611704612b85565b916117196001600160801b0384161515612afb565b33600052600e602052600160406000200181831660005260205260026040600020015460801c6001600160801b038111611afa576117976117f19133600052600e6020526001604060002001848616600052602052620186a06001600160801b0361178f8160406000205460401c1693846129a1565b160490612c33565b338652600e602052600160408720018385166000526020526117eb6117d96001600160801b03600560406000200154166001600160801b03600b5416906129a1565b6001600160801b03600d5416906129da565b906129bf565b338552600e60205260016040862001828416600052602052604060002054603f1c7001fffffffffffffffffffffffffffffffe6ffffffffffffffffffffffffffffffffe821691168103611afa5761184891612c33565b33808652600e60208181526040808920878716600081815260019283018552838120830180546001600160801b0319166001600160801b038a16908117909155878d52868652848d208383528401865284822080546001600160c01b03164260c01b6001600160c01b031916179055968c52948452828b209085520190915290206003015460ff1615611dff57506001546040516338a912d560e01b8152939490602090859060049082906001600160a01b03165afa938415610da1578694611dde575b50338652600e6020526001604087200183861660005260205260046040600020015460801c9186925b6001600160801b0386166001600160801b03821611611b1057338852600e602052600160408920018588166000526020526001600160801b0360046040600020015416806119b2575b506001600160801b03166001600160801b03811461199e57600101611935565b634e487b7160e01b88526011600452602488fd5b90936001600160801b0385168952600f6020526402540be40060408a20926002604051946119df86612965565b80546001600160801b038116875260801c60208701526001600160801b036001820154166040870152015460608501520290816001600160801b03811603611afa576402540be4006001600160801b03611aeb898260408f988f99839a611a52611af39b868060608701511691166129da565b958986611a6589826020890151166129a1565b1604338452600e602052600186852001828416600052602052600486600020019087611a958354928284166129bf565b16908819161790556001858b88611aaf8b828a51166129a1565b160494338152600e60205220019116600052602052600483600020019084611adb835492828416612c33565b16908519161790550151166129a1565b1604906129bf565b939061197e565b634e487b7160e01b600052601160045260246000fd5b50611b4a919592939450338752600e602052600160408820018584166000526020526001600160801b0360046040600020015416906129bf565b926009546001600160801b038019611b65878460801c612c33565b60801b16911617600955338652600e6020526001604087200191166000526020526001604060002001916001600160801b03811692836001600160801b03198254161790558460018060a01b0360025416803b1561066957604051630adfd5a560e21b81523060048201526001600160801b03841660248201529082908290604490829084905af18015611d4c57611dc6575b50506007546040516323b872dd60e01b81529160209183918291611c2b919033906001600160a01b031660048501612a78565b0381887f00000000000000000000000000000000000000000000000000000000000000006001600160a01b03165af18015611dbb576001918691611d9c575b50151503611d57576002546001600160a01b0316908490823b1561066957816001600160801b03604482936040519485938492635822b66d60e01b845233600485015216978860248401525af18015611d4c57611d34575b50507f02d30220fb33c212455a8cbb2cf068095e080a18a527044b34360e67a705addd9160409182519182526020820152a15b6001600160801b03600854166001600160801b03821603611d14575080f35b611d31906001600160801b03801960085460801b16911617600855565b80f35b611d3d90612920565b611d48578338611cc2565b8380fd5b6040513d84823e3d90fd5b60405162461bcd60e51b815260206004820152601e60248201527f5472616e7373756363657373656420696e2063647320776974686472617700006044820152606490fd5b611db5915060203d602011610edd57610ecf8183612980565b38611c6a565b6040513d87823e3d90fd5b611dcf90612920565b611dda578438611bf8565b8480fd5b611df891945060203d60201161054d5761053f8183612980565b923861190c565b929091338652600e6020526001604087200191166000526020526001604060002001826001600160801b031982541617905560018060a01b03848160025416803b1561066957604051630adfd5a560e21b81523060048201526001600160801b03851660248201529082908290604490829084905af18015611d4c57611f84575b5050611ead918160209260075416876040518096819582946323b872dd60e01b8452339060048501612a78565b03927f0000000000000000000000000000000000000000000000000000000000000000165af18015610ee4576001918591611f65575b50151503611f205760407f02d30220fb33c212455a8cbb2cf068095e080a18a527044b34360e67a705addd918151908152846020820152a1611cf5565b60405162461bcd60e51b815260206004820152601f60248201527f5472616e73666572206661696c656420696e20636473207769746864726177006044820152606490fd5b611f7e915060203d602011610edd57610ecf8183612980565b38611ee3565b611f8d90612920565b611dda578438611e80565b6009548281168015611fbf5783906000190116906001600160401b031916176009556116fc565b634e487b7160e01b85526011600452602485fd5b506001828216146116f7565b60405162461bcd60e51b815260206004820152601160248201527020b63932b0b23c903bb4ba34323930bbb760791b6044820152606490fd5b60405162461bcd60e51b815260206004820152602560248201527f7573657220646f65736e277420686176652074686520737065636966696564206044820152640d2dcc8caf60db1b6064820152608490fd5b50346101db57806003193601126101db57612084612c98565b600080546001600160a01b0319811682556001600160a01b03167f8be0079c531659141344cd1fd0a4f28419497f9722a3daafe3b4186f6b6457e08280a380f35b50346101db57806003193601126101db5760206001600160801b0360085416604051908152f35b50346101db57806003193601126101db576002546040516001600160a01b039091168152602090f35b50346101db57806003193601126101db576001546040516001600160a01b039091168152602090f35b50346101db57806003193601126101db576006546040516001600160a01b039091168152602090f35b50346101db57806003193601126101db5760206001600160401b0360095460401c16604051908152f35b50346101db5760203660031901126101db576005546001600160a01b031633036121de57600a5460043581039081116121ca57600a5580f35b634e487b7160e01b82526011600452602482fd5b60405162461bcd60e51b815260206004820152603360248201527f546869732066756e6374696f6e2063616e206f6e6c792063616c6c656420627960448201527208189bdc9c9bddda5b99c818dbdb9d1c9858dd606a1b6064820152608490fd5b50346101db5760403660031901126101db576101a0906001600160401b03604061226761290a565b926122706128de565b9381610160845161228081612949565b82815282602082015282868201528260608201528260808201528260a08201528260c08201528260e0820152826101008201528261012082015282610140820152015260018060a01b031693848252600e60205283600184842001911660005260205281600020938152600e6020522054166001600160801b0361016060405161230981612949565b8260058654966001600160401b0388168452828860401c1660208501528760c01c604085015260ff6001820154848116606087015260801c1615156080850152600281015483811660a086015260801c60c085015282600382015460ff8116151560e087015260081c16610100850152600481015483811661012086015260801c610140850152015416828201526001600160401b03604051951685528260208201511660208601526001600160401b0360408201511660408601528260608201511660608601526080810151151560808601528260a08201511660a08601528260c08201511660c086015260e0810151151560e0860152826101008201511661010086015282610120820151166101208601528261014082015116610140860152015116610160830152610180820152f35b50346101db5760603660031901126101db5761245661289c565b61245e6128de565b90604435906001600160401b038216809203611d48576001600160801b03811680156127a6576040516370a0823160e01b81523360048201526020816024817f00000000000000000000000000000000000000000000000000000000000000006001600160a01b03165afa908115610da1578691612770575b5010612734576007546040516323b872dd60e01b8152906020908290819061250e9086906001600160a01b03163360048501612a78565b0381887f00000000000000000000000000000000000000000000000000000000000000006001600160a01b03165af18015611dbb576001918691612715575b501515036126c25761256e612580916001600160401b0361258695166129a1565b916001600160801b03600d54166129a1565b906129da565b6002546001600160a01b0316803b156112da5760405163e613610560e01b81523060048201526001600160801b03831660248201529083908290604490829084905af180156126b75761269f575b50600480546007546040516323b872dd60e01b81529360209385936001600160a01b03908116938593899385936126119333929116908501612a78565b03925af18015611d4c576001918391612680575b501515036126305780f35b60405162461bcd60e51b815260206004820152602260248201527f55534454205472616e73666572206661696c656420696e2072656465656d5553604482015261111560f21b6064820152608490fd5b612699915060203d602011610edd57610ecf8183612980565b38612625565b61261191926126af602092612920565b9291506125d4565b6040513d85823e3d90fd5b60405162461bcd60e51b815260206004820152602560248201527f5472696e697479205472616e73666572206661696c656420696e2072656465656044820152641b5554d11560da1b6064820152608490fd5b61272e915060203d602011610edd57610ecf8183612980565b3861254d565b60405162461bcd60e51b8152602060048201526014602482015273496e73756666696369656e742062616c616e636560601b6044820152606490fd5b90506020813d60201161279e575b8161278b60209383612980565b8101031261279a5751386124d7565b8580fd5b3d915061277e565b60405162461bcd60e51b815260206004820152601960248201527f416d6f756e742073686f756c64206e6f74206265207a65726f000000000000006044820152606490fd5b50346101db57806003193601126101db57602060ff600b5460801c16604051908152f35b50346101db57806003193601126101db576004546040516001600160a01b039091168152602090f35b50346101db57806003193601126101db57602060095460801c604051908152f35b9050346106695781600319360112610669577f00000000000000000000000000000000000000000000000000000000000000006001600160a01b03168152602090f35b600435906001600160801b038216820361066457565b602435906001600160801b038216820361066457565b606435906001600160801b038216820361066457565b602435906001600160401b038216820361066457565b600435906001600160401b038216820361066457565b600435906001600160a01b038216820361066457565b6001600160401b03811161293357604052565b634e487b7160e01b600052604160045260246000fd5b61018081019081106001600160401b0382111761293357604052565b608081019081106001600160401b0382111761293357604052565b90601f801991011681019081106001600160401b0382111761293357604052565b9190916001600160801b0380809416911602918216918203611afa57565b9190916001600160801b0380809416911601918211611afa57565b906001600160801b038091169182156129f257160490565b634e487b7160e01b600052601260045260246000fd5b15612a0f57565b60405162461bcd60e51b8152602060048201526024808201527f496e73756666696369656e742062616c616e63652077697468206d73672e7365604482015263373232b960e11b6064820152608490fd5b90816020910312610664575180151581036106645790565b6001600160a01b039182168152911660208201526001600160801b03909116604082015260600190565b15612aa957565b60405162461bcd60e51b815260206004820152601e60248201527f5472616e73666572206661696c656420696e20434453206465706f73697400006044820152606490fd5b91908201809211611afa57565b15612b0257565b60405162461bcd60e51b815260206004820152600d60248201526c13dc9858db194811985a5b1959609a1b6044820152606490fd5b6001600160401b03809116908114611afa5760010190565b9081602091031261066457516001600160801b03811681036106645790565b519069ffffffffffffffffffff8216820361066457565b600354604051633fabe5a360e21b81529060a090829060049082906001600160a01b03165afa908115612c2757600091612bcd575b50620f42406001600160801b0391041690565b9060a0823d8211612c1f575b81612be660a09383612980565b810103126101db5750620f424081612c056001600160801b0393612b6e565b50612c17608060208301519201612b6e565b509150612bba565b3d9150612bd9565b6040513d6000823e3d90fd5b6001600160801b039182169082160391908211611afa57565b15612c5357565b60405162461bcd60e51b815260206004820152601860248201527f496e707574206164647265737320697320696e76616c696400000000000000006044820152606490fd5b6000546001600160a01b03163303612cac57565b606460405162461bcd60e51b815260206004820152602060248201527f4f776e61626c653a2063616c6c6572206973206e6f7420746865206f776e65726044820152fdfea26469706673582212204a5edbd1aea4342d0f34f1d670b6b8b348fccdd7cbf6058c25db0e7c93a4689c64736f6c63430008120033","linkReferences":{}},"methodIdentifiers":{"PRECISION()":"aaf5eb68","Trinity_token()":"0df03e41","amintLimit()":"412cfc94","borrowing()":"60b415ed","borrowingContract()":"84a965ed","calculateCumulativeRate(uint128)":"b87c3dc3","cdsCount()":"df6f05e7","cdsDetails(address)":"880e8e3b","deposit(uint128,uint128,bool,uint128)":"b0b6f3c6","ethVault()":"5a20329c","fallbackEthPrice()":"77b7cda6","getCDSDepositDetails(address,uint64)":"4721bae8","lastCumulativeRate()":"8e4db39a","lastEthPrice()":"7038fc4e","liquidationIndexToInfo(uint128)":"d3e3413f","owner()":"8da5cb5b","redeemUSDT(uint128,uint64,uint64)":"46696df3","renounceOwnership()":"715018a6","setAmintLimit(uint8)":"84637c26","setBorrowingContract(address)":"78fdaf3f","setTreasury(address)":"f0f44260","setUsdtLimit(uint64)":"7bf5e245","setWithdrawTimeLimit(uint64)":"868c10d2","totalAvailableLiquidationAmount()":"dc91e752","totalCdsDepositedAmount()":"2bb2ea62","transferOwnership(address)":"f2fde38b","treasury()":"61d027b3","treasuryAddress()":"c5f956af","updateLiquidationInfo(uint128,(uint128,uint128,uint128,uint256))":"b3013d4d","updateTotalAvailableLiquidationAmount(uint256)":"4cae95d3","updateTotalCdsDepositedAmount(uint128)":"dc55b193","usdt()":"2f48ab7d","usdtAmountDepositedTillNow()":"76a3fb3e","usdtLimit()":"f57ff39c","withdraw(uint64)":"750f0acc","withdrawTimeLimit()":"4f04a86b"},"id":3}