{"abi":[{"type":"function","name":"PERMIT_TYPEHASH","inputs":[],"outputs":[{"name":"","type":"bytes32","internalType":"bytes32"}],"stateMutability":"view"},{"type":"function","name":"_rpow","inputs":[{"name":"x","type":"uint256","internalType":"uint256"},{"name":"n","type":"uint256","internalType":"uint256"},{"name":"b","type":"uint256","internalType":"uint256"}],"outputs":[{"name":"z","type":"uint256","internalType":"uint256"}],"stateMutability":"pure"},{"type":"function","name":"abondToMint","inputs":[{"name":"_amount","type":"uint256","internalType":"uint256"},{"name":"_bondRatio","type":"uint64","internalType":"uint64"}],"outputs":[{"name":"amount","type":"uint128","internalType":"uint128"}],"stateMutability":"pure"},{"type":"function","name":"calculateCumulativeRate","inputs":[{"name":"noOfBorrowers","type":"uint128","internalType":"uint128"},{"name":"ratePerSec","type":"uint256","internalType":"uint256"},{"name":"lastEventTime","type":"uint128","internalType":"uint128"},{"name":"lastCumulativeRate","type":"uint256","internalType":"uint256"}],"outputs":[{"name":"","type":"uint256","internalType":"uint256"}],"stateMutability":"view"},{"type":"function","name":"calculateDebtAmount","inputs":[{"name":"amount","type":"uint256","internalType":"uint256"},{"name":"cumulativeRate","type":"uint256","internalType":"uint256"}],"outputs":[{"name":"","type":"uint256","internalType":"uint256"}],"stateMutability":"pure"},{"type":"function","name":"calculateDiscountedETH","inputs":[{"name":"amount","type":"uint256","internalType":"uint256"},{"name":"ethPrice","type":"uint128","internalType":"uint128"}],"outputs":[{"name":"","type":"uint256","internalType":"uint256"}],"stateMutability":"pure"},{"type":"function","name":"calculateEthPriceRatio","inputs":[{"name":"depositEthPrice","type":"uint128","internalType":"uint128"},{"name":"currentEthPrice","type":"uint128","internalType":"uint128"}],"outputs":[{"name":"","type":"uint128","internalType":"uint128"}],"stateMutability":"pure"},{"type":"function","name":"calculateHalfValue","inputs":[{"name":"amount","type":"uint256","internalType":"uint256"}],"outputs":[{"name":"","type":"uint128","internalType":"uint128"}],"stateMutability":"pure"},{"type":"function","name":"calculateNormAmount","inputs":[{"name":"amount","type":"uint256","internalType":"uint256"},{"name":"cumulativeRate","type":"uint256","internalType":"uint256"}],"outputs":[{"name":"","type":"uint256","internalType":"uint256"}],"stateMutability":"pure"},{"type":"function","name":"calculateRatio","inputs":[{"name":"_amount","type":"uint256","internalType":"uint256"},{"name":"currentEthPrice","type":"uint256","internalType":"uint256"},{"name":"lastEthprice","type":"uint128","internalType":"uint128"},{"name":"noOfBorrowers","type":"uint128","internalType":"uint128"},{"name":"latestTotalCDSPool","type":"uint256","internalType":"uint256"},{"name":"previousData","type":"tuple","internalType":"struct Borrowing.OmniChainBorrowingData","components":[{"name":"normalizedAmount","type":"uint256","internalType":"uint256"},{"name":"ethVaultValue","type":"uint256","internalType":"uint256"},{"name":"cdsPoolValue","type":"uint256","internalType":"uint256"},{"name":"totalCDSPool","type":"uint256","internalType":"uint256"},{"name":"noOfLiquidations","type":"uint128","internalType":"uint128"},{"name":"ethRemainingInWithdraw","type":"uint256","internalType":"uint256"},{"name":"ethValueRemainingInWithdraw","type":"uint256","internalType":"uint256"},{"name":"nonce","type":"uint64","internalType":"uint64"}]}],"outputs":[{"name":"","type":"uint64","internalType":"uint64"},{"name":"","type":"tuple","internalType":"struct Borrowing.OmniChainBorrowingData","components":[{"name":"normalizedAmount","type":"uint256","internalType":"uint256"},{"name":"ethVaultValue","type":"uint256","internalType":"uint256"},{"name":"cdsPoolValue","type":"uint256","internalType":"uint256"},{"name":"totalCDSPool","type":"uint256","internalType":"uint256"},{"name":"noOfLiquidations","type":"uint128","internalType":"uint128"},{"name":"ethRemainingInWithdraw","type":"uint256","internalType":"uint256"},{"name":"ethValueRemainingInWithdraw","type":"uint256","internalType":"uint256"},{"name":"nonce","type":"uint64","internalType":"uint64"}]}],"stateMutability":"pure"},{"type":"function","name":"calculateReturnToAbond","inputs":[{"name":"depositedAmount","type":"uint128","internalType":"uint128"},{"name":"depositEthPrice","type":"uint128","internalType":"uint128"},{"name":"returnToTreasury","type":"uint128","internalType":"uint128"}],"outputs":[{"name":"","type":"uint128","internalType":"uint128"}],"stateMutability":"pure"},{"type":"function","name":"getAbondYields","inputs":[{"name":"user","type":"address","internalType":"address"},{"name":"aBondAmount","type":"uint128","internalType":"uint128"},{"name":"abondAddress","type":"address","internalType":"address"},{"name":"treasuryAddress","type":"address","internalType":"address"}],"outputs":[{"name":"","type":"uint128","internalType":"uint128"},{"name":"","type":"uint256","internalType":"uint256"},{"name":"","type":"uint256","internalType":"uint256"}],"stateMutability":"view"},{"type":"function","name":"getCdsProfitsProportions","inputs":[{"name":"_liqAmount","type":"uint128","internalType":"uint128"},{"name":"_liqAmountToGetFromOtherChain","type":"uint128","internalType":"uint128"},{"name":"_cdsProfits","type":"uint128","internalType":"uint128"}],"outputs":[{"name":"","type":"uint128","internalType":"uint128"}],"stateMutability":"pure"},{"type":"function","name":"getLiquidationAmountProportions","inputs":[{"name":"_liqAmount","type":"uint256","internalType":"uint256"},{"name":"_totalCdsDepositedAmount","type":"uint256","internalType":"uint256"},{"name":"_totalGlobalCdsDepositedAmount","type":"uint256","internalType":"uint256"},{"name":"_totalAvailableLiqAmount","type":"uint256","internalType":"uint256"},{"name":"_totalGlobalAvailableLiqAmountAmount","type":"uint256","internalType":"uint256"}],"outputs":[{"name":"","type":"uint256","internalType":"uint256"}],"stateMutability":"pure"},{"type":"function","name":"name","inputs":[],"outputs":[{"name":"","type":"string","internalType":"string"}],"stateMutability":"view"},{"type":"function","name":"tokensToLend","inputs":[{"name":"depositedAmont","type":"uint256","internalType":"uint256"},{"name":"ethPrice","type":"uint128","internalType":"uint128"},{"name":"LTV","type":"uint8","internalType":"uint8"}],"outputs":[{"name":"","type":"uint256","internalType":"uint256"}],"stateMutability":"pure"},{"type":"function","name":"version","inputs":[],"outputs":[{"name":"","type":"string","internalType":"string"}],"stateMutability":"view"}],"bytecode":{"object":"0x6080806040523461001c576116de90816100228239308160ea0152f35b600080fdfe6080604052600436101561001257600080fd5b60003560e01c806306fdde031461015f57806330adf81f1461015a5780633ef2ae521461015557806354fd4d50146101505780635529dfd51461014b57806355e4d31a146101465780636614cc05146101415780636812dc031461013c57806368c1bb1614610137578063691617f8146101325780636b5afba41461012d5780639618e67414610128578063a15acfc214610123578063ad47fc531461011e578063c18fd5b414610119578063d09aa6da14610114578063d4222e2b146100e75763e5488506146100e257600080fd5b6111d3565b307f000000000000000000000000000000000000000000000000000000000000000003610c99575b600080fd5b610c3a565b610b24565b610a5e565b610a36565b6109e3565b6108f5565b61064e565b6105c5565b61056c565b610523565b6104f8565b61037f565b610329565b6102d1565b610284565b61023e565b600091031261010f57565b634e487b7160e01b600052604160045260246000fd5b61010081019081106001600160401b038211176101a157604052565b61016f565b6001600160401b0381116101a157604052565b604081019081106001600160401b038211176101a157604052565b90601f801991011681019081106001600160401b038211176101a157604052565b6020808252825181830181905290939260005b82811061022a57505060409293506000838284010152601f8019910116010190565b818101860151848201604001528501610208565b600036600319011261010f57610280604051610259816101b9565b600e81526d105d5d1bdb9bdb5a5b9d081554d160921b6020820152604051918291826101f5565b0390f35b600036600319011261010f5760206040517ff48167ebcd5a3b4ca5517473931d60b9a75b03f56e5e6363767fa277375eb0808152f35b61018435906001600160401b038216820361010f57565b604036600319011261010f576024356001600160401b03811680910361010f576001600160801b03600435811664e8d4a51000028082169081036103245760209261031b91611314565b60405191168152f35b611220565b600036600319011261010f57610280604051610344816101b9565b60018152603160f81b6020820152604051918291826101f5565b6001600160801b0381160361010f57565b610124359061037d8261035e565b565b608036600319011261010f576004356103978161035e565b6024356044356103a68161035e565b6001600160801b03926000919084166103d157505061028091505b6040519081529081906020820190565b6103e09084939293421661132c565b928190841681156104bb5750600191848316156104a857935b821c60016001607f1b0316805b6104305750505050676765c793fa10079d601b1b61042a610280925b6064356112a2565b046103c1565b81800291808304036104a4576b019d971e4fe8401e740000009182810190811061049c57676765c793fa10079d601b1b80910492848316610476575b5050821c80610406565b838792939702918483041415841515166104a057810190811061049c570493388061046c565b8480fd5b8580fd5b8380fd5b50676765c793fa10079d601b1b936103f9565b92935050506000146104df57676765c793fa10079d601b1b61042a61028092610422565b50610280676765c793fa10079d601b1b61042a81610422565b602036600319011261010f5760206105116004356112d5565b6040516001600160801b039091168152f35b604036600319011261010f5760043561053b8161035e565b6024356105478161035e565b6001600160801b03908116612710028082169081036103245760209261031b91611314565b606036600319011261010f576024356105848161035e565b60443560ff811680910361010f57602091662386f26fc10000916105bc916105b7906001600160801b03166004356112a2565b6112a2565b04604051908152f35b604036600319011261010f576024356105df600435611236565b81156105f15760209160405191048152f35b6112b5565b600435906001600160a01b038216820361010f57565b604435906001600160a01b038216820361010f57565b606435906001600160a01b038216820361010f57565b608435906001600160a01b038216820361010f57565b608036600319011261010f576106626105f6565b60243561066e8161035e565b61067661060c565b61067e610622565b6001600160801b0383169261069484151561152d565b60408051630ecc535f60e01b81526001600160a01b03878116600483015290959481169491939091606087602481895afa968715610863576000976108bb575b508685015184939291610702916106fb906001600160801b03165b6001600160801b031690565b10156115da565b1694835196632981eff560e11b88528780610724602096879460048401611635565b0381895afa96871561086357600097610885575b50820151600492919082906107739061075b906001600160801b03165b846112f8565b670de0b6b3a76400006001600160801b039091160490565b9685519485809263131acb9960e21b82525afa8015610863576107a28391600495600091610868575b50611236565b958551948580926318160ddd60e01b82525afa908115610863576107f06107e46107e46107f59461028099610810986106ef98600093610834575b50506112cb565b6001600160401b031690565b6112f8565b676765c793fa10079d601b1b6001600160801b039091160490565b905193849384604091949392606082019560018060801b0316825260208201520152565b610854929350803d1061085c575b61084c81836101d4565b810190611626565b9038806107dd565b503d610842565b6115ce565b61087f9150833d851161085c5761084c81836101d4565b3861079c565b83929197509261077361075b610755836108ad600498823d841161085c5761084c81836101d4565b9b9596509650505050610738565b8493929197506108e46107029160603d81116108ee575b6108dc81836101d4565b810190611579565b97919293506106d4565b503d6108d2565b606036600319011261010f57600435602435816044358115610994576001918383161561098c57925b81831c90831c94855b61093c5750505050602091505b604051908152f35b808002908082040361010f5781810190811061010f5782900494838116610967575b831c9485610927565b938581029086820414158615151661010f5781810190811061010f578290049361095e565b50809261091e565b925050156109a6575060206000610934565b602090610934565b606090600319011261010f576004356109c68161035e565b906024356109d38161035e565b906044356109e08161035e565b90565b610a12600a6064610a1b6109f6366109ae565b9164e8d4a5100060018060809794971b038098819782946112f8565b1604160461132c565b16028181169081036103245760209160646040519204168152f35b604036600319011261010f576020676765c793fa10079d601b1b6105bc6024356004356112a2565b60a036600319011261010f576004356044356064359160843592602435830392808411610324578185039385851161032457610a9990611256565b81156105f157610abd610ab28493610ac49304866112a2565b6402540be400900490565b8094611383565b9403610adb57505060405160008152602092509050f35b6102809382841015610af0575050505b6103c1565b909180931180610b1b575b15610b1457610aeb9291610b0e91611383565b90611390565b50506103c1565b50808210610afb565b6101a036600319011261010f57604435610b3d8161035e565b606435610b498161035e565b6101003660a319011261010f57610bc09160405191610b6783610185565b60a435835260c435602084015260e4356040840152610104356060840152610b8d61036f565b60808401526101443560a08401526101643560c0840152610bac6102ba565b60e08401526084359160243560043561139d565b9061028060405192839283906101009093929360e06101208401956001600160401b0380931685528051602086015260208101516040860152604081015160608601526060810151608086015260018060801b0360808201511660a086015260a081015160c086015260c081015182860152015116910152565b604036600319011261010f57602435610c528161035e565b6001600160801b0380610c666004356112d5565b166050028181169081036103245781606481610c8c6020968364e8d4a5100096046112f8565b1604160416604051908152f35b60a036600319011261010f57610cad6105f6565b602435610cb98161035e565b610cc161060c565b610cc9610622565b610cd1610638565b926001600160801b03811692610ce884151561152d565b60408051630ecc535f60e01b81526001600160a01b038881166004808401919091529297929690958616939290606083602481885afa908115610863576106fb6106ef8b610d49948b976000916111b5575b5001516001600160801b031690565b169686519463162839b360e21b8652602095868189818d5afa801561086357610d799160009161119e5750611236565b88516318160ddd60e01b8082529188828b818a5afa91821561086357886107f06106ef610db7956106ef956107f5958f6000936111555750506112cb565b908a3b1561010f5789516302c235d160e31b8152808a018381526000602082018190529082908e9082908490829060400103925af180156108635761118b575b50895163131acb9960e21b815288818b818f5afa801561086357610e22916000916111745750611236565b8a5191825288828b818a5afa91821561086357886107f06106ef610e57956106ef956107f5958f6000936111555750506112cb565b918a3b1561010f578951631f7330fd60e01b8152808a018481526000602082018190529082908e9082908490829060400103925af1801561086357611142575b50610ea28383611390565b908b3b1561010f578a51635e44fb0560e01b815230818c0190815260208101939093529160009083908e9082908490829060400103925af1908115610863578a96610f21938b93611129575b5016928c8c5193849283926363a9f09360e11b9a8b8552840160209093929193604081019460018060a01b031681520152565b03816000865af19081156108635760009161110c575b50156110f55781611031575b505083879886926000610f699a51809b81958294631c93d87760e31b84528d8401611635565b03925af195861561086357600096611008575b50918391610f9993600089518096819582948352338b8401611635565b03925af191821561086357600092610fdb575b505015610fbe57509051908152602090f35b825162461bcd60e51b8152908190610fd7908201611670565b0390fd5b610ffa9250803d10611001575b610ff281836101d4565b810190611658565b3880610fac565b503d610fe8565b610f9993919650916110278593843d861161085c5761084c81836101d4565b9691935091610f7c565b88516323b872dd60e01b81526001600160a01b03808c16828b019081529085166020820152604081019390935291879183918290600090829060600103925af1908115610863576000916110d8575b501561108d573880610f43565b865162461bcd60e51b81526020818801818152601e918101919091527f426f72726f77696e675f52656465656d5472616e736665724661696c65640000604082015281906060010390fd5b6110ef9150863d881161100157610ff281836101d4565b38611080565b885162461bcd60e51b815280610fd7818b01611670565b6111239150883d8a1161100157610ff281836101d4565b38610f37565b8061113661113c926101a6565b80610164565b38610eee565b8061113661114f926101a6565b38610e97565b61116c929350803d1061085c5761084c81836101d4565b90388f6107dd565b61087f91508a3d8c1161085c5761084c81836101d4565b80611136611198926101a6565b38610df7565b61087f9150883d8a1161085c5761084c81836101d4565b6111cd915060603d81116108ee576108dc81836101d4565b38610d3a565b6111dc366109ae565b916001600160801b03916402540be400919083168202808416919082036112205760209461120e611214928694611314565b906112f8565b16049060405191168152f35b634e487b7160e01b600052601160045260246000fd5b90676765c793fa10079d601b1b9182810292818404149015171561032457565b906402540be4009182810292818404149015171561032457565b9064e8d4a510009182810292818404149015171561032457565b90629896809182810292818404149015171561032457565b8181029291811591840414171561032457565b634e487b7160e01b600052601260045260246000fd5b81156105f1570490565b60328102908082046032149015171561032457606490046001600160801b031690565b6001600160801b03918216908216029081169190820361032457565b6001600160801b03918216919082156105f157160490565b6001600160801b03918216908216039190821161032457565b6040519061135282610185565b8160e06000918281528260208201528260408201528260608201528260808201528260a08201528260c08201520152565b9190820391821161032457565b9190820180921161032457565b9261142e946107e4949796976113b1611345565b506001600160801b03948516948585111561151a576113dc6113d38787611383565b828616906112a2565b935b16611441579183916113f661142995611424956112a2565b8060208c01529560608b0193828552101560001461143257506114199151611390565b806040890152611270565b61128a565b6112cb565b9190565b61143c9250611383565b611419565b93909261145860208a0195610b0e838851926112a2565b94859052106114d057606087019081518084116000146114a957506114919061148c60408a0193610b0e8551915187611383565b611390565b90525b60608601526114296114246040870151611270565b91506114c99061148c60408a01936114c386865192611383565b90611383565b9052611494565b6060870190815180841160001461150057506114c9906114fb60408a0193610b0e8551915187611383565b611383565b91506114c9906114fb60408a01936114c386865192611383565b6115276113d38688611383565b936113de565b1561153457565b60405162461bcd60e51b815260206004820152601f60248201527f41626f6e6420616d6f756e742073686f756c64206e6f74206265207a65726f006044820152606490fd5b9081606091031261010f576040519060608201908282106001600160401b038311176101a15760409182528051835260208101516115b68161035e565b602084015201516115c68161035e565b604082015290565b6040513d6000823e3d90fd5b156115e157565b60405162461bcd60e51b815260206004820152601c60248201527f596f7520646f6e2774206861766520656e6f7567682061426f6e6473000000006044820152606490fd5b9081602091031261010f575190565b6001600160a01b0390911681526001600160801b03909116602082015260400190565b9081602091031261010f5751801515810361010f5790565b60609060208152601a60208201527f426f72726f77696e675f52656465656d4275726e4661696c65640000000000006040820152019056fea26469706673582212202bc482de71d848db0c653404f98cbfab695515202a9229c5d912ae814d5806e264736f6c63430008140033","linkReferences":{}},"methodIdentifiers":{"PERMIT_TYPEHASH()":"30adf81f","_rpow(uint256,uint256,uint256)":"6b5afba4","abondToMint(uint256,uint64)":"3ef2ae52","calculateCumulativeRate(uint128,uint256,uint128,uint256)":"5529dfd5","calculateDebtAmount(uint256,uint256)":"a15acfc2","calculateDiscountedETH(uint256,uint128)":"d09aa6da","calculateEthPriceRatio(uint128,uint128)":"6614cc05","calculateHalfValue(uint256)":"55e4d31a","calculateNormAmount(uint256,uint256)":"68c1bb16","calculateRatio(uint256,uint256,uint128,uint128,uint256,Borrowing.OmniChainBorrowingData)":"c18fd5b4","calculateReturnToAbond(uint128,uint128,uint128)":"9618e674","getAbondYields(address,uint128,address,address)":"691617f8","getCdsProfitsProportions(uint128,uint128,uint128)":"e5488506","getLiquidationAmountProportions(uint256,uint256,uint256,uint256,uint256)":"ad47fc53","name()":"06fdde03","redeemYields(address,uint128,address,address,address)":"d4222e2b","tokensToLend(uint256,uint128,uint8)":"6812dc03","version()":"54fd4d50"},"storageLayout":{"storage":[],"types":{}},"id":9}