{"abi":[{"type":"function","name":"cdsCount","inputs":[],"outputs":[{"name":"","type":"uint64","internalType":"uint64"}],"stateMutability":"view"},{"type":"function","name":"cdsDetails","inputs":[{"name":"","type":"address","internalType":"address"}],"outputs":[{"name":"index","type":"uint64","internalType":"uint64"},{"name":"hasDeposited","type":"bool","internalType":"bool"}],"stateMutability":"view"},{"type":"function","name":"totalAvailableLiquidationAmount","inputs":[],"outputs":[{"name":"","type":"uint256","internalType":"uint256"}],"stateMutability":"view"},{"type":"function","name":"totalCdsDepositedAmount","inputs":[],"outputs":[{"name":"","type":"uint256","internalType":"uint256"}],"stateMutability":"view"},{"type":"function","name":"usdaLimit","inputs":[],"outputs":[{"name":"","type":"uint8","internalType":"uint8"}],"stateMutability":"view"},{"type":"function","name":"usdtAmountDepositedTillNow","inputs":[],"outputs":[{"name":"","type":"uint256","internalType":"uint256"}],"stateMutability":"view"},{"type":"function","name":"usdtLimit","inputs":[],"outputs":[{"name":"","type":"uint64","internalType":"uint64"}],"stateMutability":"view"},{"type":"event","name":"Deposit","inputs":[{"name":"user","type":"address","indexed":false,"internalType":"address"},{"name":"index","type":"uint64","indexed":false,"internalType":"uint64"},{"name":"depositedUSDa","type":"uint128","indexed":false,"internalType":"uint128"},{"name":"depositedUSDT","type":"uint128","indexed":false,"internalType":"uint128"},{"name":"depositedTime","type":"uint256","indexed":false,"internalType":"uint256"},{"name":"ethPriceAtDeposit","type":"uint128","indexed":false,"internalType":"uint128"},{"name":"lockingPeriod","type":"uint128","indexed":false,"internalType":"uint128"},{"name":"liquidationAmount","type":"uint128","indexed":false,"internalType":"uint128"},{"name":"optedForLiquidation","type":"bool","indexed":false,"internalType":"bool"}],"anonymous":false},{"type":"event","name":"Withdraw","inputs":[{"name":"user","type":"address","indexed":false,"internalType":"address"},{"name":"index","type":"uint64","indexed":false,"internalType":"uint64"},{"name":"withdrawUSDa","type":"uint256","indexed":false,"internalType":"uint256"},{"name":"withdrawTime","type":"uint256","indexed":false,"internalType":"uint256"},{"name":"withdrawETH","type":"uint128","indexed":false,"internalType":"uint128"},{"name":"ethPriceAtWithdraw","type":"uint128","indexed":false,"internalType":"uint128"},{"name":"optionsFees","type":"uint256","indexed":false,"internalType":"uint256"},{"name":"optionsFeesWithdrawn","type":"uint256","indexed":false,"internalType":"uint256"}],"anonymous":false}],"bytecode":{"object":"0x60808060405234610016576101cc908161001c8239f35b600080fdfe60806040818152600436101561001457600080fd5b600091823560e01c9081632bb2ea621461017a575080636f71ccb11461015657806376a3fb3e14610138578063880e8e3b146100e3578063dc91e752146100c5578063df6f05e71461009d5763f57ff39c1461006f57600080fd5b3461009957816003193601126100995760209067ffffffffffffffff600e5460881c169051908152f35b5080fd5b503461009957816003193601126100995760209067ffffffffffffffff600a54169051908152f35b5034610099578160031936011261009957602090600d549051908152f35b5034610099576020366003190112610099576004356001600160a01b038116908190036101345791819281526013602052205460ff82519167ffffffffffffffff81168352831c1615156020820152f35b8280fd5b5034610099578160031936011261009957602090600f549051908152f35b503461009957816003193601126100995760209060ff600e5460801c169051908152f35b839034610099578160031936011261009957602090600b548152f3fea2646970667358221220409e8531be7356275cc18854493254cea57122400b40093a2e9381574c6c87e264736f6c63430008140033","linkReferences":{}},"methodIdentifiers":{"cdsCount()":"df6f05e7","cdsDetails(address)":"880e8e3b","totalAvailableLiquidationAmount()":"dc91e752","totalCdsDepositedAmount()":"2bb2ea62","usdaLimit()":"6f71ccb1","usdtAmountDepositedTillNow()":"76a3fb3e","usdtLimit()":"f57ff39c"},"storageLayout":{"storage":[{"astId":1063,"contract":"contracts/v1Contracts/CDSV1.sol:CDSV1","label":"usda","offset":0,"slot":"0","type":"t_contract(IUSDa)976"},{"astId":1066,"contract":"contracts/v1Contracts/CDSV1.sol:CDSV1","label":"borrowing","offset":0,"slot":"1","type":"t_contract(IBorrowing)346"},{"astId":1069,"contract":"contracts/v1Contracts/CDSV1.sol:CDSV1","label":"treasury","offset":0,"slot":"2","type":"t_contract(ITreasury)849"},{"astId":1072,"contract":"contracts/v1Contracts/CDSV1.sol:CDSV1","label":"dataFeed","offset":0,"slot":"3","type":"t_contract(AggregatorV3Interface)1211"},{"astId":1075,"contract":"contracts/v1Contracts/CDSV1.sol:CDSV1","label":"multiSign","offset":0,"slot":"4","type":"t_contract(IMultiSign)384"},{"astId":1078,"contract":"contracts/v1Contracts/CDSV1.sol:CDSV1","label":"usdt","offset":0,"slot":"5","type":"t_contract(IERC20)3645"},{"astId":1080,"contract":"contracts/v1Contracts/CDSV1.sol:CDSV1","label":"admin","offset":0,"slot":"6","type":"t_address"},{"astId":1082,"contract":"contracts/v1Contracts/CDSV1.sol:CDSV1","label":"borrowingContract","offset":0,"slot":"7","type":"t_address"},{"astId":1084,"contract":"contracts/v1Contracts/CDSV1.sol:CDSV1","label":"treasuryAddress","offset":0,"slot":"8","type":"t_address"},{"astId":1086,"contract":"contracts/v1Contracts/CDSV1.sol:CDSV1","label":"lastEthPrice","offset":0,"slot":"9","type":"t_uint128"},{"astId":1088,"contract":"contracts/v1Contracts/CDSV1.sol:CDSV1","label":"fallbackEthPrice","offset":16,"slot":"9","type":"t_uint128"},{"astId":1090,"contract":"contracts/v1Contracts/CDSV1.sol:CDSV1","label":"cdsCount","offset":0,"slot":"10","type":"t_uint64"},{"astId":1092,"contract":"contracts/v1Contracts/CDSV1.sol:CDSV1","label":"withdrawTimeLimit","offset":8,"slot":"10","type":"t_uint64"},{"astId":1094,"contract":"contracts/v1Contracts/CDSV1.sol:CDSV1","label":"totalCdsDepositedAmount","offset":0,"slot":"11","type":"t_uint256"},{"astId":1096,"contract":"contracts/v1Contracts/CDSV1.sol:CDSV1","label":"totalCdsDepositedAmountWithOptionFees","offset":0,"slot":"12","type":"t_uint256"},{"astId":1098,"contract":"contracts/v1Contracts/CDSV1.sol:CDSV1","label":"totalAvailableLiquidationAmount","offset":0,"slot":"13","type":"t_uint256"},{"astId":1100,"contract":"contracts/v1Contracts/CDSV1.sol:CDSV1","label":"lastCumulativeRate","offset":0,"slot":"14","type":"t_uint128"},{"astId":1102,"contract":"contracts/v1Contracts/CDSV1.sol:CDSV1","label":"usdaLimit","offset":16,"slot":"14","type":"t_uint8"},{"astId":1104,"contract":"contracts/v1Contracts/CDSV1.sol:CDSV1","label":"usdtLimit","offset":17,"slot":"14","type":"t_uint64"},{"astId":1106,"contract":"contracts/v1Contracts/CDSV1.sol:CDSV1","label":"usdtAmountDepositedTillNow","offset":0,"slot":"15","type":"t_uint256"},{"astId":1108,"contract":"contracts/v1Contracts/CDSV1.sol:CDSV1","label":"burnedUSDaInRedeem","offset":0,"slot":"16","type":"t_uint256"},{"astId":1110,"contract":"contracts/v1Contracts/CDSV1.sol:CDSV1","label":"cumulativeValue","offset":0,"slot":"17","type":"t_uint128"},{"astId":1112,"contract":"contracts/v1Contracts/CDSV1.sol:CDSV1","label":"cumulativeValueSign","offset":16,"slot":"17","type":"t_bool"},{"astId":1114,"contract":"contracts/v1Contracts/CDSV1.sol:CDSV1","label":"PRECISION","offset":0,"slot":"18","type":"t_uint128"},{"astId":1116,"contract":"contracts/v1Contracts/CDSV1.sol:CDSV1","label":"RATIO_PRECISION","offset":16,"slot":"18","type":"t_uint128"},{"astId":1121,"contract":"contracts/v1Contracts/CDSV1.sol:CDSV1","label":"cdsDetails","offset":0,"slot":"19","type":"t_mapping(t_address,t_struct(CdsDetails)1027_storage)"},{"astId":1126,"contract":"contracts/v1Contracts/CDSV1.sol:CDSV1","label":"omniChainCDSLiqIndexToInfo","offset":0,"slot":"20","type":"t_mapping(t_uint128,t_struct(LiquidationInfo)1041_storage)"}],"types":{"t_address":{"encoding":"inplace","label":"address","numberOfBytes":"20"},"t_bool":{"encoding":"inplace","label":"bool","numberOfBytes":"1"},"t_contract(AggregatorV3Interface)1211":{"encoding":"inplace","label":"contract AggregatorV3Interface","numberOfBytes":"20"},"t_contract(IBorrowing)346":{"encoding":"inplace","label":"contract IBorrowing","numberOfBytes":"20"},"t_contract(IERC20)3645":{"encoding":"inplace","label":"contract IERC20","numberOfBytes":"20"},"t_contract(IMultiSign)384":{"encoding":"inplace","label":"contract IMultiSign","numberOfBytes":"20"},"t_contract(ITreasury)849":{"encoding":"inplace","label":"contract ITreasury","numberOfBytes":"20"},"t_contract(IUSDa)976":{"encoding":"inplace","label":"contract IUSDa","numberOfBytes":"20"},"t_mapping(t_address,t_struct(CdsDetails)1027_storage)":{"encoding":"mapping","key":"t_address","label":"mapping(address => struct CDSV1.CdsDetails)","numberOfBytes":"32","value":"t_struct(CdsDetails)1027_storage"},"t_mapping(t_uint128,t_struct(LiquidationInfo)1041_storage)":{"encoding":"mapping","key":"t_uint128","label":"mapping(uint128 => struct CDSV1.LiquidationInfo)","numberOfBytes":"32","value":"t_struct(LiquidationInfo)1041_storage"},"t_mapping(t_uint64,t_struct(CdsAccountDetails)1017_storage)":{"encoding":"mapping","key":"t_uint64","label":"mapping(uint64 => struct CDSV1.CdsAccountDetails)","numberOfBytes":"32","value":"t_struct(CdsAccountDetails)1017_storage"},"t_struct(CdsAccountDetails)1017_storage":{"encoding":"inplace","label":"struct CDSV1.CdsAccountDetails","numberOfBytes":"288","members":[{"astId":992,"contract":"contracts/v1Contracts/CDSV1.sol:CDSV1","label":"depositedTime","offset":0,"slot":"0","type":"t_uint64"},{"astId":994,"contract":"contracts/v1Contracts/CDSV1.sol:CDSV1","label":"depositedAmount","offset":0,"slot":"1","type":"t_uint256"},{"astId":996,"contract":"contracts/v1Contracts/CDSV1.sol:CDSV1","label":"withdrawedTime","offset":0,"slot":"2","type":"t_uint64"},{"astId":998,"contract":"contracts/v1Contracts/CDSV1.sol:CDSV1","label":"withdrawedAmount","offset":0,"slot":"3","type":"t_uint256"},{"astId":1000,"contract":"contracts/v1Contracts/CDSV1.sol:CDSV1","label":"withdrawed","offset":0,"slot":"4","type":"t_bool"},{"astId":1002,"contract":"contracts/v1Contracts/CDSV1.sol:CDSV1","label":"depositPrice","offset":1,"slot":"4","type":"t_uint128"},{"astId":1004,"contract":"contracts/v1Contracts/CDSV1.sol:CDSV1","label":"depositValue","offset":0,"slot":"5","type":"t_uint128"},{"astId":1006,"contract":"contracts/v1Contracts/CDSV1.sol:CDSV1","label":"depositValueSign","offset":16,"slot":"5","type":"t_bool"},{"astId":1008,"contract":"contracts/v1Contracts/CDSV1.sol:CDSV1","label":"optedLiquidation","offset":17,"slot":"5","type":"t_bool"},{"astId":1010,"contract":"contracts/v1Contracts/CDSV1.sol:CDSV1","label":"InitialLiquidationAmount","offset":0,"slot":"6","type":"t_uint128"},{"astId":1012,"contract":"contracts/v1Contracts/CDSV1.sol:CDSV1","label":"liquidationAmount","offset":16,"slot":"6","type":"t_uint128"},{"astId":1014,"contract":"contracts/v1Contracts/CDSV1.sol:CDSV1","label":"liquidationindex","offset":0,"slot":"7","type":"t_uint128"},{"astId":1016,"contract":"contracts/v1Contracts/CDSV1.sol:CDSV1","label":"normalizedAmount","offset":0,"slot":"8","type":"t_uint256"}]},"t_struct(CdsDetails)1027_storage":{"encoding":"inplace","label":"struct CDSV1.CdsDetails","numberOfBytes":"64","members":[{"astId":1019,"contract":"contracts/v1Contracts/CDSV1.sol:CDSV1","label":"index","offset":0,"slot":"0","type":"t_uint64"},{"astId":1021,"contract":"contracts/v1Contracts/CDSV1.sol:CDSV1","label":"hasDeposited","offset":8,"slot":"0","type":"t_bool"},{"astId":1026,"contract":"contracts/v1Contracts/CDSV1.sol:CDSV1","label":"cdsAccountDetails","offset":0,"slot":"1","type":"t_mapping(t_uint64,t_struct(CdsAccountDetails)1017_storage)"}]},"t_struct(LiquidationInfo)1041_storage":{"encoding":"inplace","label":"struct CDSV1.LiquidationInfo","numberOfBytes":"96","members":[{"astId":1034,"contract":"contracts/v1Contracts/CDSV1.sol:CDSV1","label":"liquidationAmount","offset":0,"slot":"0","type":"t_uint128"},{"astId":1036,"contract":"contracts/v1Contracts/CDSV1.sol:CDSV1","label":"profits","offset":16,"slot":"0","type":"t_uint128"},{"astId":1038,"contract":"contracts/v1Contracts/CDSV1.sol:CDSV1","label":"ethAmount","offset":0,"slot":"1","type":"t_uint128"},{"astId":1040,"contract":"contracts/v1Contracts/CDSV1.sol:CDSV1","label":"availableLiquidationAmount","offset":0,"slot":"2","type":"t_uint256"}]},"t_uint128":{"encoding":"inplace","label":"uint128","numberOfBytes":"16"},"t_uint256":{"encoding":"inplace","label":"uint256","numberOfBytes":"32"},"t_uint64":{"encoding":"inplace","label":"uint64","numberOfBytes":"8"},"t_uint8":{"encoding":"inplace","label":"uint8","numberOfBytes":"1"}}},"id":6}