{"abi":[{"type":"function","name":"lastCumulativeRate","inputs":[],"outputs":[{"name":"","type":"uint256","internalType":"uint256"}],"stateMutability":"view"},{"type":"event","name":"Deposit","inputs":[{"name":"user","type":"address","indexed":false,"internalType":"address"},{"name":"index","type":"uint64","indexed":false,"internalType":"uint64"},{"name":"depositedAmount","type":"uint256","indexed":false,"internalType":"uint256"},{"name":"normalizedAmount","type":"uint256","indexed":false,"internalType":"uint256"},{"name":"depositedTime","type":"uint256","indexed":false,"internalType":"uint256"},{"name":"ethPrice","type":"uint128","indexed":false,"internalType":"uint128"},{"name":"borrowAmount","type":"uint256","indexed":false,"internalType":"uint256"},{"name":"strikePrice","type":"uint64","indexed":false,"internalType":"uint64"},{"name":"optionsFees","type":"uint256","indexed":false,"internalType":"uint256"},{"name":"strikePricePercent","type":"uint8","indexed":false,"internalType":"enum IOptions.StrikePrice"}],"anonymous":false},{"type":"event","name":"Liquidate","inputs":[{"name":"index","type":"uint64","indexed":false,"internalType":"uint64"},{"name":"liquidationAmount","type":"uint128","indexed":false,"internalType":"uint128"},{"name":"profits","type":"uint128","indexed":false,"internalType":"uint128"},{"name":"ethAmount","type":"uint128","indexed":false,"internalType":"uint128"},{"name":"availableLiquidationAmount","type":"uint256","indexed":false,"internalType":"uint256"}],"anonymous":false},{"type":"event","name":"Withdraw","inputs":[{"name":"user","type":"address","indexed":false,"internalType":"address"},{"name":"index","type":"uint64","indexed":false,"internalType":"uint64"},{"name":"withdrawTime","type":"uint256","indexed":false,"internalType":"uint256"},{"name":"withdrawAmount","type":"uint128","indexed":false,"internalType":"uint128"},{"name":"noOfAbond","type":"uint128","indexed":false,"internalType":"uint128"},{"name":"borrowDebt","type":"uint256","indexed":false,"internalType":"uint256"}],"anonymous":false},{"type":"error","name":"Borrowing_DepositFailed","inputs":[]},{"type":"error","name":"Borrowing_GettingETHPriceFailed","inputs":[]},{"type":"error","name":"Borrowing_LiquidateBurnFailed","inputs":[]},{"type":"error","name":"Borrowing_LiquidateEthTransferToCdsFailed","inputs":[]},{"type":"error","name":"Borrowing_WithdrawBurnFailed","inputs":[]},{"type":"error","name":"Borrowing_WithdrawEthTransferFailed","inputs":[]},{"type":"error","name":"Borrowing_WithdrawUSDaTransferFailed","inputs":[]},{"type":"error","name":"Borrowing_abondMintFailed","inputs":[]},{"type":"error","name":"Borrowing_usdaMintFailed","inputs":[]}],"bytecode":{"object":"0x60808060405234601457607a908161001a8239f35b600080fdfe6080806040526004361015601257600080fd5b600090813560e01c638e4db39a14602857600080fd5b34604057816003193601126040576020906010548152f35b5080fdfea2646970667358221220a32c051ebb9725f2d70a899fac1609b8e44c5cbdd521a9a432a870ae7dfe739c64736f6c63430008140033","linkReferences":{}},"methodIdentifiers":{"lastCumulativeRate()":"8e4db39a"},"storageLayout":{"storage":[{"astId":3994,"contract":"contracts/v1Contracts/BorrowingV1.sol:Borrowing","label":"usda","offset":0,"slot":"0","type":"t_contract(IUSDa)2982"},{"astId":3997,"contract":"contracts/v1Contracts/BorrowingV1.sol:Borrowing","label":"cds","offset":0,"slot":"1","type":"t_contract(CDSInterface)2078"},{"astId":4000,"contract":"contracts/v1Contracts/BorrowingV1.sol:Borrowing","label":"abond","offset":0,"slot":"2","type":"t_contract(IABONDToken)2200"},{"astId":4003,"contract":"contracts/v1Contracts/BorrowingV1.sol:Borrowing","label":"treasury","offset":0,"slot":"3","type":"t_contract(ITreasury)2855"},{"astId":4006,"contract":"contracts/v1Contracts/BorrowingV1.sol:Borrowing","label":"options","offset":0,"slot":"4","type":"t_contract(IOptions)2424"},{"astId":4009,"contract":"contracts/v1Contracts/BorrowingV1.sol:Borrowing","label":"multiSign","offset":0,"slot":"5","type":"t_contract(IMultiSign)2390"},{"astId":4011,"contract":"contracts/v1Contracts/BorrowingV1.sol:Borrowing","label":"_downSideProtectionLimit","offset":0,"slot":"6","type":"t_uint256"},{"astId":4013,"contract":"contracts/v1Contracts/BorrowingV1.sol:Borrowing","label":"treasuryAddress","offset":0,"slot":"7","type":"t_address"},{"astId":4015,"contract":"contracts/v1Contracts/BorrowingV1.sol:Borrowing","label":"cdsAddress","offset":0,"slot":"8","type":"t_address"},{"astId":4017,"contract":"contracts/v1Contracts/BorrowingV1.sol:Borrowing","label":"admin","offset":0,"slot":"9","type":"t_address"},{"astId":4019,"contract":"contracts/v1Contracts/BorrowingV1.sol:Borrowing","label":"LTV","offset":20,"slot":"9","type":"t_uint8"},{"astId":4021,"contract":"contracts/v1Contracts/BorrowingV1.sol:Borrowing","label":"APY","offset":21,"slot":"9","type":"t_uint8"},{"astId":4023,"contract":"contracts/v1Contracts/BorrowingV1.sol:Borrowing","label":"totalNormalizedAmount","offset":0,"slot":"10","type":"t_uint256"},{"astId":4025,"contract":"contracts/v1Contracts/BorrowingV1.sol:Borrowing","label":"priceFeedAddress","offset":0,"slot":"11","type":"t_address"},{"astId":4027,"contract":"contracts/v1Contracts/BorrowingV1.sol:Borrowing","label":"lastEthprice","offset":0,"slot":"12","type":"t_uint128"},{"astId":4029,"contract":"contracts/v1Contracts/BorrowingV1.sol:Borrowing","label":"lastEthVaultValue","offset":0,"slot":"13","type":"t_uint256"},{"astId":4031,"contract":"contracts/v1Contracts/BorrowingV1.sol:Borrowing","label":"lastCDSPoolValue","offset":0,"slot":"14","type":"t_uint256"},{"astId":4033,"contract":"contracts/v1Contracts/BorrowingV1.sol:Borrowing","label":"lastTotalCDSPool","offset":0,"slot":"15","type":"t_uint256"},{"astId":4035,"contract":"contracts/v1Contracts/BorrowingV1.sol:Borrowing","label":"lastCumulativeRate","offset":0,"slot":"16","type":"t_uint256"},{"astId":4037,"contract":"contracts/v1Contracts/BorrowingV1.sol:Borrowing","label":"lastEventTime","offset":0,"slot":"17","type":"t_uint128"},{"astId":4039,"contract":"contracts/v1Contracts/BorrowingV1.sol:Borrowing","label":"noOfLiquidations","offset":16,"slot":"17","type":"t_uint128"},{"astId":4041,"contract":"contracts/v1Contracts/BorrowingV1.sol:Borrowing","label":"withdrawTimeLimit","offset":0,"slot":"18","type":"t_uint64"},{"astId":4043,"contract":"contracts/v1Contracts/BorrowingV1.sol:Borrowing","label":"ratePerSec","offset":8,"slot":"18","type":"t_uint128"},{"astId":4045,"contract":"contracts/v1Contracts/BorrowingV1.sol:Borrowing","label":"bondRatio","offset":24,"slot":"18","type":"t_uint64"},{"astId":4053,"contract":"contracts/v1Contracts/BorrowingV1.sol:Borrowing","label":"DOMAIN_SEPARATOR","offset":0,"slot":"19","type":"t_bytes32"},{"astId":4060,"contract":"contracts/v1Contracts/BorrowingV1.sol:Borrowing","label":"PRECISION","offset":0,"slot":"20","type":"t_uint128"},{"astId":4062,"contract":"contracts/v1Contracts/BorrowingV1.sol:Borrowing","label":"CUMULATIVE_PRECISION","offset":16,"slot":"20","type":"t_uint128"},{"astId":4064,"contract":"contracts/v1Contracts/BorrowingV1.sol:Borrowing","label":"RATIO_PRECISION","offset":0,"slot":"21","type":"t_uint128"},{"astId":4066,"contract":"contracts/v1Contracts/BorrowingV1.sol:Borrowing","label":"RATE_PRECISION","offset":16,"slot":"21","type":"t_uint128"},{"astId":4068,"contract":"contracts/v1Contracts/BorrowingV1.sol:Borrowing","label":"USDa_PRECISION","offset":0,"slot":"22","type":"t_uint128"}],"types":{"t_address":{"encoding":"inplace","label":"address","numberOfBytes":"20"},"t_bytes32":{"encoding":"inplace","label":"bytes32","numberOfBytes":"32"},"t_contract(CDSInterface)2078":{"encoding":"inplace","label":"contract CDSInterface","numberOfBytes":"20"},"t_contract(IABONDToken)2200":{"encoding":"inplace","label":"contract IABONDToken","numberOfBytes":"20"},"t_contract(IMultiSign)2390":{"encoding":"inplace","label":"contract IMultiSign","numberOfBytes":"20"},"t_contract(IOptions)2424":{"encoding":"inplace","label":"contract IOptions","numberOfBytes":"20"},"t_contract(ITreasury)2855":{"encoding":"inplace","label":"contract ITreasury","numberOfBytes":"20"},"t_contract(IUSDa)2982":{"encoding":"inplace","label":"contract IUSDa","numberOfBytes":"20"},"t_uint128":{"encoding":"inplace","label":"uint128","numberOfBytes":"16"},"t_uint256":{"encoding":"inplace","label":"uint256","numberOfBytes":"32"},"t_uint64":{"encoding":"inplace","label":"uint64","numberOfBytes":"8"},"t_uint8":{"encoding":"inplace","label":"uint8","numberOfBytes":"1"}}},"id":10}