{"abi":[{"type":"function","name":"lastCumulativeRate","inputs":[],"outputs":[{"name":"","type":"uint256","internalType":"uint256"}],"stateMutability":"view"},{"type":"event","name":"Deposit","inputs":[{"name":"user","type":"address","indexed":false,"internalType":"address"},{"name":"index","type":"uint64","indexed":false,"internalType":"uint64"},{"name":"depositedAmount","type":"uint256","indexed":false,"internalType":"uint256"},{"name":"normalizedAmount","type":"uint256","indexed":false,"internalType":"uint256"},{"name":"depositedTime","type":"uint256","indexed":false,"internalType":"uint256"},{"name":"ethPrice","type":"uint128","indexed":false,"internalType":"uint128"},{"name":"borrowAmount","type":"uint256","indexed":false,"internalType":"uint256"},{"name":"strikePrice","type":"uint64","indexed":false,"internalType":"uint64"},{"name":"optionsFees","type":"uint256","indexed":false,"internalType":"uint256"},{"name":"strikePricePercent","type":"uint8","indexed":false,"internalType":"enum IOptions.StrikePrice"}],"anonymous":false},{"type":"event","name":"Liquidate","inputs":[{"name":"index","type":"uint64","indexed":false,"internalType":"uint64"},{"name":"liquidationAmount","type":"uint128","indexed":false,"internalType":"uint128"},{"name":"profits","type":"uint128","indexed":false,"internalType":"uint128"},{"name":"ethAmount","type":"uint128","indexed":false,"internalType":"uint128"},{"name":"availableLiquidationAmount","type":"uint256","indexed":false,"internalType":"uint256"}],"anonymous":false},{"type":"event","name":"Withdraw","inputs":[{"name":"user","type":"address","indexed":false,"internalType":"address"},{"name":"index","type":"uint64","indexed":false,"internalType":"uint64"},{"name":"withdrawTime","type":"uint256","indexed":false,"internalType":"uint256"},{"name":"withdrawAmount","type":"uint128","indexed":false,"internalType":"uint128"},{"name":"noOfAbond","type":"uint128","indexed":false,"internalType":"uint128"},{"name":"borrowDebt","type":"uint256","indexed":false,"internalType":"uint256"}],"anonymous":false},{"type":"error","name":"Borrowing_DepositFailed","inputs":[]},{"type":"error","name":"Borrowing_GettingETHPriceFailed","inputs":[]},{"type":"error","name":"Borrowing_LiquidateBurnFailed","inputs":[]},{"type":"error","name":"Borrowing_LiquidateEthTransferToCdsFailed","inputs":[]},{"type":"error","name":"Borrowing_WithdrawBurnFailed","inputs":[]},{"type":"error","name":"Borrowing_WithdrawEthTransferFailed","inputs":[]},{"type":"error","name":"Borrowing_WithdrawUSDaTransferFailed","inputs":[]},{"type":"error","name":"Borrowing_abondMintFailed","inputs":[]},{"type":"error","name":"Borrowing_usdaMintFailed","inputs":[]}],"bytecode":{"object":"0x60808060405234601457607a908161001a8239f35b600080fdfe6080806040526004361015601257600080fd5b600090813560e01c638e4db39a14602857600080fd5b34604057816003193601126040576020906010548152f35b5080fdfea2646970667358221220689cadc8faf53cc6ddc789d67d0f6fc079f8f99cc9daf9397dbb767d8d4a6e7864736f6c63430008140033","linkReferences":{}},"methodIdentifiers":{"lastCumulativeRate()":"8e4db39a"},"storageLayout":{"storage":[{"astId":3979,"contract":"contracts/v1Contracts/BorrowingV1.sol:BorrowingV1","label":"usda","offset":0,"slot":"0","type":"t_contract(IUSDa)2967"},{"astId":3982,"contract":"contracts/v1Contracts/BorrowingV1.sol:BorrowingV1","label":"cds","offset":0,"slot":"1","type":"t_contract(CDSInterface)2063"},{"astId":3985,"contract":"contracts/v1Contracts/BorrowingV1.sol:BorrowingV1","label":"abond","offset":0,"slot":"2","type":"t_contract(IABONDToken)2185"},{"astId":3988,"contract":"contracts/v1Contracts/BorrowingV1.sol:BorrowingV1","label":"treasury","offset":0,"slot":"3","type":"t_contract(ITreasury)2840"},{"astId":3991,"contract":"contracts/v1Contracts/BorrowingV1.sol:BorrowingV1","label":"options","offset":0,"slot":"4","type":"t_contract(IOptions)2409"},{"astId":3994,"contract":"contracts/v1Contracts/BorrowingV1.sol:BorrowingV1","label":"multiSign","offset":0,"slot":"5","type":"t_contract(IMultiSign)2375"},{"astId":3996,"contract":"contracts/v1Contracts/BorrowingV1.sol:BorrowingV1","label":"_downSideProtectionLimit","offset":0,"slot":"6","type":"t_uint256"},{"astId":3998,"contract":"contracts/v1Contracts/BorrowingV1.sol:BorrowingV1","label":"treasuryAddress","offset":0,"slot":"7","type":"t_address"},{"astId":4000,"contract":"contracts/v1Contracts/BorrowingV1.sol:BorrowingV1","label":"cdsAddress","offset":0,"slot":"8","type":"t_address"},{"astId":4002,"contract":"contracts/v1Contracts/BorrowingV1.sol:BorrowingV1","label":"admin","offset":0,"slot":"9","type":"t_address"},{"astId":4004,"contract":"contracts/v1Contracts/BorrowingV1.sol:BorrowingV1","label":"LTV","offset":20,"slot":"9","type":"t_uint8"},{"astId":4006,"contract":"contracts/v1Contracts/BorrowingV1.sol:BorrowingV1","label":"APY","offset":21,"slot":"9","type":"t_uint8"},{"astId":4008,"contract":"contracts/v1Contracts/BorrowingV1.sol:BorrowingV1","label":"totalNormalizedAmount","offset":0,"slot":"10","type":"t_uint256"},{"astId":4010,"contract":"contracts/v1Contracts/BorrowingV1.sol:BorrowingV1","label":"priceFeedAddress","offset":0,"slot":"11","type":"t_address"},{"astId":4012,"contract":"contracts/v1Contracts/BorrowingV1.sol:BorrowingV1","label":"lastEthprice","offset":0,"slot":"12","type":"t_uint128"},{"astId":4014,"contract":"contracts/v1Contracts/BorrowingV1.sol:BorrowingV1","label":"lastEthVaultValue","offset":0,"slot":"13","type":"t_uint256"},{"astId":4016,"contract":"contracts/v1Contracts/BorrowingV1.sol:BorrowingV1","label":"lastCDSPoolValue","offset":0,"slot":"14","type":"t_uint256"},{"astId":4018,"contract":"contracts/v1Contracts/BorrowingV1.sol:BorrowingV1","label":"lastTotalCDSPool","offset":0,"slot":"15","type":"t_uint256"},{"astId":4020,"contract":"contracts/v1Contracts/BorrowingV1.sol:BorrowingV1","label":"lastCumulativeRate","offset":0,"slot":"16","type":"t_uint256"},{"astId":4022,"contract":"contracts/v1Contracts/BorrowingV1.sol:BorrowingV1","label":"lastEventTime","offset":0,"slot":"17","type":"t_uint128"},{"astId":4024,"contract":"contracts/v1Contracts/BorrowingV1.sol:BorrowingV1","label":"noOfLiquidations","offset":16,"slot":"17","type":"t_uint128"},{"astId":4026,"contract":"contracts/v1Contracts/BorrowingV1.sol:BorrowingV1","label":"withdrawTimeLimit","offset":0,"slot":"18","type":"t_uint64"},{"astId":4028,"contract":"contracts/v1Contracts/BorrowingV1.sol:BorrowingV1","label":"ratePerSec","offset":8,"slot":"18","type":"t_uint128"},{"astId":4030,"contract":"contracts/v1Contracts/BorrowingV1.sol:BorrowingV1","label":"bondRatio","offset":24,"slot":"18","type":"t_uint64"},{"astId":4038,"contract":"contracts/v1Contracts/BorrowingV1.sol:BorrowingV1","label":"DOMAIN_SEPARATOR","offset":0,"slot":"19","type":"t_bytes32"},{"astId":4045,"contract":"contracts/v1Contracts/BorrowingV1.sol:BorrowingV1","label":"PRECISION","offset":0,"slot":"20","type":"t_uint128"},{"astId":4047,"contract":"contracts/v1Contracts/BorrowingV1.sol:BorrowingV1","label":"CUMULATIVE_PRECISION","offset":16,"slot":"20","type":"t_uint128"},{"astId":4049,"contract":"contracts/v1Contracts/BorrowingV1.sol:BorrowingV1","label":"RATIO_PRECISION","offset":0,"slot":"21","type":"t_uint128"},{"astId":4051,"contract":"contracts/v1Contracts/BorrowingV1.sol:BorrowingV1","label":"RATE_PRECISION","offset":16,"slot":"21","type":"t_uint128"},{"astId":4053,"contract":"contracts/v1Contracts/BorrowingV1.sol:BorrowingV1","label":"USDa_PRECISION","offset":0,"slot":"22","type":"t_uint128"}],"types":{"t_address":{"encoding":"inplace","label":"address","numberOfBytes":"20"},"t_bytes32":{"encoding":"inplace","label":"bytes32","numberOfBytes":"32"},"t_contract(CDSInterface)2063":{"encoding":"inplace","label":"contract CDSInterface","numberOfBytes":"20"},"t_contract(IABONDToken)2185":{"encoding":"inplace","label":"contract IABONDToken","numberOfBytes":"20"},"t_contract(IMultiSign)2375":{"encoding":"inplace","label":"contract IMultiSign","numberOfBytes":"20"},"t_contract(IOptions)2409":{"encoding":"inplace","label":"contract IOptions","numberOfBytes":"20"},"t_contract(ITreasury)2840":{"encoding":"inplace","label":"contract ITreasury","numberOfBytes":"20"},"t_contract(IUSDa)2967":{"encoding":"inplace","label":"contract IUSDa","numberOfBytes":"20"},"t_uint128":{"encoding":"inplace","label":"uint128","numberOfBytes":"16"},"t_uint256":{"encoding":"inplace","label":"uint256","numberOfBytes":"32"},"t_uint64":{"encoding":"inplace","label":"uint64","numberOfBytes":"8"},"t_uint8":{"encoding":"inplace","label":"uint8","numberOfBytes":"1"}}},"id":10}