{"abi":[{"type":"function","name":"SEND","inputs":[],"outputs":[{"name":"","type":"uint16","internalType":"uint16"}],"stateMutability":"view"},{"type":"function","name":"SEND_AND_CALL","inputs":[],"outputs":[{"name":"","type":"uint16","internalType":"uint16"}],"stateMutability":"view"},{"type":"function","name":"UPGRADE_INTERFACE_VERSION","inputs":[],"outputs":[{"name":"","type":"string","internalType":"string"}],"stateMutability":"view"},{"type":"function","name":"__OAppOptionsType3_init","inputs":[{"name":"_owner","type":"address","internalType":"address"}],"outputs":[],"stateMutability":"nonpayable"},{"type":"function","name":"__OAppPreCrimeSimulator_init","inputs":[{"name":"_owner","type":"address","internalType":"address"}],"outputs":[],"stateMutability":"nonpayable"},{"type":"function","name":"__OFTCore_init","inputs":[{"name":"_localDecimals","type":"uint8","internalType":"uint8"},{"name":"_endpoint","type":"address","internalType":"address"},{"name":"_delegate","type":"address","internalType":"address"}],"outputs":[],"stateMutability":"nonpayable"},{"type":"function","name":"__OFT_init","inputs":[{"name":"_name","type":"string","internalType":"string"},{"name":"_symbol","type":"string","internalType":"string"},{"name":"_lzEndpoint","type":"address","internalType":"address"},{"name":"_delegate","type":"address","internalType":"address"}],"outputs":[],"stateMutability":"nonpayable"},{"type":"function","name":"allowInitializePath","inputs":[{"name":"origin","type":"tuple","internalType":"struct Origin","components":[{"name":"srcEid","type":"uint32","internalType":"uint32"},{"name":"sender","type":"bytes32","internalType":"bytes32"},{"name":"nonce","type":"uint64","internalType":"uint64"}]}],"outputs":[{"name":"","type":"bool","internalType":"bool"}],"stateMutability":"view"},{"type":"function","name":"allowance","inputs":[{"name":"owner","type":"address","internalType":"address"},{"name":"spender","type":"address","internalType":"address"}],"outputs":[{"name":"","type":"uint256","internalType":"uint256"}],"stateMutability":"view"},{"type":"function","name":"approvalRequired","inputs":[],"outputs":[{"name":"","type":"bool","internalType":"bool"}],"stateMutability":"pure"},{"type":"function","name":"approve","inputs":[{"name":"spender","type":"address","internalType":"address"},{"name":"value","type":"uint256","internalType":"uint256"}],"outputs":[{"name":"","type":"bool","internalType":"bool"}],"stateMutability":"nonpayable"},{"type":"function","name":"balanceOf","inputs":[{"name":"account","type":"address","internalType":"address"}],"outputs":[{"name":"","type":"uint256","internalType":"uint256"}],"stateMutability":"view"},{"type":"function","name":"burn","inputs":[{"name":"value","type":"uint256","internalType":"uint256"}],"outputs":[],"stateMutability":"nonpayable"},{"type":"function","name":"burnFrom","inputs":[{"name":"account","type":"address","internalType":"address"},{"name":"value","type":"uint256","internalType":"uint256"}],"outputs":[],"stateMutability":"nonpayable"},{"type":"function","name":"burnFromUser","inputs":[{"name":"to","type":"address","internalType":"address"},{"name":"amount","type":"uint256","internalType":"uint256"}],"outputs":[{"name":"","type":"bool","internalType":"bool"}],"stateMutability":"nonpayable"},{"type":"function","name":"combineOptions","inputs":[{"name":"_eid","type":"uint32","internalType":"uint32"},{"name":"_msgType","type":"uint16","internalType":"uint16"},{"name":"_extraOptions","type":"bytes","internalType":"bytes"}],"outputs":[{"name":"","type":"bytes","internalType":"bytes"}],"stateMutability":"view"},{"type":"function","name":"decimalConversionRate","inputs":[],"outputs":[{"name":"","type":"uint256","internalType":"uint256"}],"stateMutability":"view"},{"type":"function","name":"decimals","inputs":[],"outputs":[{"name":"","type":"uint8","internalType":"uint8"}],"stateMutability":"pure"},{"type":"function","name":"endpoint","inputs":[],"outputs":[{"name":"","type":"address","internalType":"contract ILayerZeroEndpointV2"}],"stateMutability":"view"},{"type":"function","name":"enforcedOptions","inputs":[{"name":"eid","type":"uint32","internalType":"uint32"},{"name":"msgType","type":"uint16","internalType":"uint16"}],"outputs":[{"name":"enforcedOption","type":"bytes","internalType":"bytes"}],"stateMutability":"view"},{"type":"function","name":"initialize","inputs":[{"name":"_lzEndpoint","type":"address","internalType":"address"},{"name":"_delegate","type":"address","internalType":"address"}],"outputs":[],"stateMutability":"nonpayable"},{"type":"function","name":"isComposeMsgSender","inputs":[{"name":"","type":"tuple","internalType":"struct Origin","components":[{"name":"srcEid","type":"uint32","internalType":"uint32"},{"name":"sender","type":"bytes32","internalType":"bytes32"},{"name":"nonce","type":"uint64","internalType":"uint64"}]},{"name":"","type":"bytes","internalType":"bytes"},{"name":"_sender","type":"address","internalType":"address"}],"outputs":[{"name":"","type":"bool","internalType":"bool"}],"stateMutability":"view"},{"type":"function","name":"isPeer","inputs":[{"name":"_eid","type":"uint32","internalType":"uint32"},{"name":"_peer","type":"bytes32","internalType":"bytes32"}],"outputs":[{"name":"","type":"bool","internalType":"bool"}],"stateMutability":"view"},{"type":"function","name":"lzReceive","inputs":[{"name":"_origin","type":"tuple","internalType":"struct Origin","components":[{"name":"srcEid","type":"uint32","internalType":"uint32"},{"name":"sender","type":"bytes32","internalType":"bytes32"},{"name":"nonce","type":"uint64","internalType":"uint64"}]},{"name":"_guid","type":"bytes32","internalType":"bytes32"},{"name":"_message","type":"bytes","internalType":"bytes"},{"name":"_executor","type":"address","internalType":"address"},{"name":"_extraData","type":"bytes","internalType":"bytes"}],"outputs":[],"stateMutability":"payable"},{"type":"function","name":"lzReceiveAndRevert","inputs":[{"name":"_packets","type":"tuple[]","internalType":"struct InboundPacket[]","components":[{"name":"origin","type":"tuple","internalType":"struct Origin","components":[{"name":"srcEid","type":"uint32","internalType":"uint32"},{"name":"sender","type":"bytes32","internalType":"bytes32"},{"name":"nonce","type":"uint64","internalType":"uint64"}]},{"name":"dstEid","type":"uint32","internalType":"uint32"},{"name":"receiver","type":"address","internalType":"address"},{"name":"guid","type":"bytes32","internalType":"bytes32"},{"name":"value","type":"uint256","internalType":"uint256"},{"name":"executor","type":"address","internalType":"address"},{"name":"message","type":"bytes","internalType":"bytes"},{"name":"extraData","type":"bytes","internalType":"bytes"}]}],"outputs":[],"stateMutability":"payable"},{"type":"function","name":"lzReceiveSimulate","inputs":[{"name":"_origin","type":"tuple","internalType":"struct Origin","components":[{"name":"srcEid","type":"uint32","internalType":"uint32"},{"name":"sender","type":"bytes32","internalType":"bytes32"},{"name":"nonce","type":"uint64","internalType":"uint64"}]},{"name":"_guid","type":"bytes32","internalType":"bytes32"},{"name":"_message","type":"bytes","internalType":"bytes"},{"name":"_executor","type":"address","internalType":"address"},{"name":"_extraData","type":"bytes","internalType":"bytes"}],"outputs":[],"stateMutability":"payable"},{"type":"function","name":"mint","inputs":[{"name":"to","type":"address","internalType":"address"},{"name":"amount","type":"uint256","internalType":"uint256"}],"outputs":[{"name":"","type":"bool","internalType":"bool"}],"stateMutability":"nonpayable"},{"type":"function","name":"msgInspector","inputs":[],"outputs":[{"name":"","type":"address","internalType":"address"}],"stateMutability":"view"},{"type":"function","name":"name","inputs":[],"outputs":[{"name":"","type":"string","internalType":"string"}],"stateMutability":"view"},{"type":"function","name":"nextNonce","inputs":[{"name":"","type":"uint32","internalType":"uint32"},{"name":"","type":"bytes32","internalType":"bytes32"}],"outputs":[{"name":"nonce","type":"uint64","internalType":"uint64"}],"stateMutability":"view"},{"type":"function","name":"oApp","inputs":[],"outputs":[{"name":"","type":"address","internalType":"address"}],"stateMutability":"view"},{"type":"function","name":"oAppVersion","inputs":[],"outputs":[{"name":"senderVersion","type":"uint64","internalType":"uint64"},{"name":"receiverVersion","type":"uint64","internalType":"uint64"}],"stateMutability":"pure"},{"type":"function","name":"oftVersion","inputs":[],"outputs":[{"name":"interfaceId","type":"bytes4","internalType":"bytes4"},{"name":"version","type":"uint64","internalType":"uint64"}],"stateMutability":"pure"},{"type":"function","name":"owner","inputs":[],"outputs":[{"name":"","type":"address","internalType":"address"}],"stateMutability":"view"},{"type":"function","name":"pause","inputs":[],"outputs":[],"stateMutability":"nonpayable"},{"type":"function","name":"paused","inputs":[],"outputs":[{"name":"","type":"bool","internalType":"bool"}],"stateMutability":"view"},{"type":"function","name":"peers","inputs":[{"name":"eid","type":"uint32","internalType":"uint32"}],"outputs":[{"name":"peer","type":"bytes32","internalType":"bytes32"}],"stateMutability":"view"},{"type":"function","name":"preCrime","inputs":[],"outputs":[{"name":"","type":"address","internalType":"address"}],"stateMutability":"view"},{"type":"function","name":"proxiableUUID","inputs":[],"outputs":[{"name":"","type":"bytes32","internalType":"bytes32"}],"stateMutability":"view"},{"type":"function","name":"quoteOFT","inputs":[{"name":"_sendParam","type":"tuple","internalType":"struct SendParam","components":[{"name":"dstEid","type":"uint32","internalType":"uint32"},{"name":"to","type":"bytes32","internalType":"bytes32"},{"name":"amountLD","type":"uint256","internalType":"uint256"},{"name":"minAmountLD","type":"uint256","internalType":"uint256"},{"name":"extraOptions","type":"bytes","internalType":"bytes"},{"name":"composeMsg","type":"bytes","internalType":"bytes"},{"name":"oftCmd","type":"bytes","internalType":"bytes"}]}],"outputs":[{"name":"oftLimit","type":"tuple","internalType":"struct OFTLimit","components":[{"name":"minAmountLD","type":"uint256","internalType":"uint256"},{"name":"maxAmountLD","type":"uint256","internalType":"uint256"}]},{"name":"oftFeeDetails","type":"tuple[]","internalType":"struct OFTFeeDetail[]","components":[{"name":"feeAmountLD","type":"int256","internalType":"int256"},{"name":"description","type":"string","internalType":"string"}]},{"name":"oftReceipt","type":"tuple","internalType":"struct OFTReceipt","components":[{"name":"amountSentLD","type":"uint256","internalType":"uint256"},{"name":"amountReceivedLD","type":"uint256","internalType":"uint256"}]}],"stateMutability":"view"},{"type":"function","name":"quoteSend","inputs":[{"name":"_sendParam","type":"tuple","internalType":"struct SendParam","components":[{"name":"dstEid","type":"uint32","internalType":"uint32"},{"name":"to","type":"bytes32","internalType":"bytes32"},{"name":"amountLD","type":"uint256","internalType":"uint256"},{"name":"minAmountLD","type":"uint256","internalType":"uint256"},{"name":"extraOptions","type":"bytes","internalType":"bytes"},{"name":"composeMsg","type":"bytes","internalType":"bytes"},{"name":"oftCmd","type":"bytes","internalType":"bytes"}]},{"name":"_payInLzToken","type":"bool","internalType":"bool"}],"outputs":[{"name":"msgFee","type":"tuple","internalType":"struct MessagingFee","components":[{"name":"nativeFee","type":"uint256","internalType":"uint256"},{"name":"lzTokenFee","type":"uint256","internalType":"uint256"}]}],"stateMutability":"view"},{"type":"function","name":"renounceOwnership","inputs":[],"outputs":[],"stateMutability":"nonpayable"},{"type":"function","name":"send","inputs":[{"name":"_sendParam","type":"tuple","internalType":"struct SendParam","components":[{"name":"dstEid","type":"uint32","internalType":"uint32"},{"name":"to","type":"bytes32","internalType":"bytes32"},{"name":"amountLD","type":"uint256","internalType":"uint256"},{"name":"minAmountLD","type":"uint256","internalType":"uint256"},{"name":"extraOptions","type":"bytes","internalType":"bytes"},{"name":"composeMsg","type":"bytes","internalType":"bytes"},{"name":"oftCmd","type":"bytes","internalType":"bytes"}]},{"name":"_fee","type":"tuple","internalType":"struct MessagingFee","components":[{"name":"nativeFee","type":"uint256","internalType":"uint256"},{"name":"lzTokenFee","type":"uint256","internalType":"uint256"}]},{"name":"_refundAddress","type":"address","internalType":"address"}],"outputs":[{"name":"msgReceipt","type":"tuple","internalType":"struct MessagingReceipt","components":[{"name":"guid","type":"bytes32","internalType":"bytes32"},{"name":"nonce","type":"uint64","internalType":"uint64"},{"name":"fee","type":"tuple","internalType":"struct MessagingFee","components":[{"name":"nativeFee","type":"uint256","internalType":"uint256"},{"name":"lzTokenFee","type":"uint256","internalType":"uint256"}]}]},{"name":"oftReceipt","type":"tuple","internalType":"struct OFTReceipt","components":[{"name":"amountSentLD","type":"uint256","internalType":"uint256"},{"name":"amountReceivedLD","type":"uint256","internalType":"uint256"}]}],"stateMutability":"payable"},{"type":"function","name":"setDelegate","inputs":[{"name":"_delegate","type":"address","internalType":"address"}],"outputs":[],"stateMutability":"nonpayable"},{"type":"function","name":"setDstEid","inputs":[{"name":"_eid","type":"uint32","internalType":"uint32"}],"outputs":[],"stateMutability":"nonpayable"},{"type":"function","name":"setEnforcedOptions","inputs":[{"name":"_enforcedOptions","type":"tuple[]","internalType":"struct EnforcedOptionParam[]","components":[{"name":"eid","type":"uint32","internalType":"uint32"},{"name":"msgType","type":"uint16","internalType":"uint16"},{"name":"options","type":"bytes","internalType":"bytes"}]}],"outputs":[],"stateMutability":"nonpayable"},{"type":"function","name":"setMsgInspector","inputs":[{"name":"_msgInspector","type":"address","internalType":"address"}],"outputs":[],"stateMutability":"nonpayable"},{"type":"function","name":"setPeer","inputs":[{"name":"_eid","type":"uint32","internalType":"uint32"},{"name":"_peer","type":"bytes32","internalType":"bytes32"}],"outputs":[],"stateMutability":"nonpayable"},{"type":"function","name":"setPreCrime","inputs":[{"name":"_preCrime","type":"address","internalType":"address"}],"outputs":[],"stateMutability":"nonpayable"},{"type":"function","name":"sharedDecimals","inputs":[],"outputs":[{"name":"","type":"uint8","internalType":"uint8"}],"stateMutability":"view"},{"type":"function","name":"symbol","inputs":[],"outputs":[{"name":"","type":"string","internalType":"string"}],"stateMutability":"view"},{"type":"function","name":"token","inputs":[],"outputs":[{"name":"","type":"address","internalType":"address"}],"stateMutability":"view"},{"type":"function","name":"totalSupply","inputs":[],"outputs":[{"name":"","type":"uint256","internalType":"uint256"}],"stateMutability":"view"},{"type":"function","name":"transfer","inputs":[{"name":"to","type":"address","internalType":"address"},{"name":"value","type":"uint256","internalType":"uint256"}],"outputs":[{"name":"","type":"bool","internalType":"bool"}],"stateMutability":"nonpayable"},{"type":"function","name":"transferFrom","inputs":[{"name":"from","type":"address","internalType":"address"},{"name":"to","type":"address","internalType":"address"},{"name":"value","type":"uint256","internalType":"uint256"}],"outputs":[{"name":"","type":"bool","internalType":"bool"}],"stateMutability":"nonpayable"},{"type":"function","name":"transferOwnership","inputs":[{"name":"newOwner","type":"address","internalType":"address"}],"outputs":[],"stateMutability":"nonpayable"},{"type":"function","name":"unpause","inputs":[],"outputs":[],"stateMutability":"nonpayable"},{"type":"function","name":"upgradeToAndCall","inputs":[{"name":"newImplementation","type":"address","internalType":"address"},{"name":"data","type":"bytes","internalType":"bytes"}],"outputs":[],"stateMutability":"payable"},{"type":"function","name":"whitelist","inputs":[{"name":"","type":"address","internalType":"address"}],"outputs":[{"name":"","type":"bool","internalType":"bool"}],"stateMutability":"view"},{"type":"event","name":"Approval","inputs":[{"name":"owner","type":"address","indexed":true,"internalType":"address"},{"name":"spender","type":"address","indexed":true,"internalType":"address"},{"name":"value","type":"uint256","indexed":false,"internalType":"uint256"}],"anonymous":false},{"type":"event","name":"EnforcedOptionSet","inputs":[{"name":"_enforcedOptions","type":"tuple[]","indexed":false,"internalType":"struct EnforcedOptionParam[]","components":[{"name":"eid","type":"uint32","internalType":"uint32"},{"name":"msgType","type":"uint16","internalType":"uint16"},{"name":"options","type":"bytes","internalType":"bytes"}]}],"anonymous":false},{"type":"event","name":"Initialized","inputs":[{"name":"version","type":"uint64","indexed":false,"internalType":"uint64"}],"anonymous":false},{"type":"event","name":"MsgInspectorSet","inputs":[{"name":"inspector","type":"address","indexed":false,"internalType":"address"}],"anonymous":false},{"type":"event","name":"OFTReceived","inputs":[{"name":"guid","type":"bytes32","indexed":true,"internalType":"bytes32"},{"name":"srcEid","type":"uint32","indexed":false,"internalType":"uint32"},{"name":"toAddress","type":"address","indexed":true,"internalType":"address"},{"name":"amountReceivedLD","type":"uint256","indexed":false,"internalType":"uint256"}],"anonymous":false},{"type":"event","name":"OFTSent","inputs":[{"name":"guid","type":"bytes32","indexed":true,"internalType":"bytes32"},{"name":"dstEid","type":"uint32","indexed":false,"internalType":"uint32"},{"name":"fromAddress","type":"address","indexed":true,"internalType":"address"},{"name":"amountSentLD","type":"uint256","indexed":false,"internalType":"uint256"},{"name":"amountReceivedLD","type":"uint256","indexed":false,"internalType":"uint256"}],"anonymous":false},{"type":"event","name":"OwnershipTransferred","inputs":[{"name":"previousOwner","type":"address","indexed":true,"internalType":"address"},{"name":"newOwner","type":"address","indexed":true,"internalType":"address"}],"anonymous":false},{"type":"event","name":"Paused","inputs":[{"name":"account","type":"address","indexed":false,"internalType":"address"}],"anonymous":false},{"type":"event","name":"PeerSet","inputs":[{"name":"eid","type":"uint32","indexed":false,"internalType":"uint32"},{"name":"peer","type":"bytes32","indexed":false,"internalType":"bytes32"}],"anonymous":false},{"type":"event","name":"PreCrimeSet","inputs":[{"name":"preCrimeAddress","type":"address","indexed":false,"internalType":"address"}],"anonymous":false},{"type":"event","name":"Transfer","inputs":[{"name":"from","type":"address","indexed":true,"internalType":"address"},{"name":"to","type":"address","indexed":true,"internalType":"address"},{"name":"value","type":"uint256","indexed":false,"internalType":"uint256"}],"anonymous":false},{"type":"event","name":"Unpaused","inputs":[{"name":"account","type":"address","indexed":false,"internalType":"address"}],"anonymous":false},{"type":"event","name":"Upgraded","inputs":[{"name":"implementation","type":"address","indexed":true,"internalType":"address"}],"anonymous":false},{"type":"error","name":"AddressEmptyCode","inputs":[{"name":"target","type":"address","internalType":"address"}]},{"type":"error","name":"AddressInsufficientBalance","inputs":[{"name":"account","type":"address","internalType":"address"}]},{"type":"error","name":"ERC1967InvalidImplementation","inputs":[{"name":"implementation","type":"address","internalType":"address"}]},{"type":"error","name":"ERC1967NonPayable","inputs":[]},{"type":"error","name":"ERC20InsufficientAllowance","inputs":[{"name":"spender","type":"address","internalType":"address"},{"name":"allowance","type":"uint256","internalType":"uint256"},{"name":"needed","type":"uint256","internalType":"uint256"}]},{"type":"error","name":"ERC20InsufficientBalance","inputs":[{"name":"sender","type":"address","internalType":"address"},{"name":"balance","type":"uint256","internalType":"uint256"},{"name":"needed","type":"uint256","internalType":"uint256"}]},{"type":"error","name":"ERC20InvalidApprover","inputs":[{"name":"approver","type":"address","internalType":"address"}]},{"type":"error","name":"ERC20InvalidReceiver","inputs":[{"name":"receiver","type":"address","internalType":"address"}]},{"type":"error","name":"ERC20InvalidSender","inputs":[{"name":"sender","type":"address","internalType":"address"}]},{"type":"error","name":"ERC20InvalidSpender","inputs":[{"name":"spender","type":"address","internalType":"address"}]},{"type":"error","name":"EndPointUnavailable","inputs":[]},{"type":"error","name":"EnforcedPause","inputs":[]},{"type":"error","name":"ExpectedPause","inputs":[]},{"type":"error","name":"FailedInnerCall","inputs":[]},{"type":"error","name":"InvalidDelegate","inputs":[]},{"type":"error","name":"InvalidEndpointCall","inputs":[]},{"type":"error","name":"InvalidInitialization","inputs":[]},{"type":"error","name":"InvalidLocalDecimals","inputs":[]},{"type":"error","name":"InvalidOptions","inputs":[{"name":"options","type":"bytes","internalType":"bytes"}]},{"type":"error","name":"LzTokenUnavailable","inputs":[]},{"type":"error","name":"NoPeer","inputs":[{"name":"eid","type":"uint32","internalType":"uint32"}]},{"type":"error","name":"NotEnoughNative","inputs":[{"name":"msgValue","type":"uint256","internalType":"uint256"}]},{"type":"error","name":"NotInitializing","inputs":[]},{"type":"error","name":"OnlyEndpoint","inputs":[{"name":"addr","type":"address","internalType":"address"}]},{"type":"error","name":"OnlyPeer","inputs":[{"name":"eid","type":"uint32","internalType":"uint32"},{"name":"sender","type":"bytes32","internalType":"bytes32"}]},{"type":"error","name":"OnlySelf","inputs":[]},{"type":"error","name":"OwnableInvalidOwner","inputs":[{"name":"owner","type":"address","internalType":"address"}]},{"type":"error","name":"OwnableUnauthorizedAccount","inputs":[{"name":"account","type":"address","internalType":"address"}]},{"type":"error","name":"SafeERC20FailedOperation","inputs":[{"name":"token","type":"address","internalType":"address"}]},{"type":"error","name":"SimulationResult","inputs":[{"name":"result","type":"bytes","internalType":"bytes"}]},{"type":"error","name":"SlippageExceeded","inputs":[{"name":"amountLD","type":"uint256","internalType":"uint256"},{"name":"minAmountLD","type":"uint256","internalType":"uint256"}]},{"type":"error","name":"UUPSUnauthorizedCallContext","inputs":[]},{"type":"error","name":"UUPSUnsupportedProxiableUUID","inputs":[{"name":"slot","type":"bytes32","internalType":"bytes32"}]}],"bytecode":{"object":"0x60a0806040523461002a5730608052613aaf908161003082396080518181816112a601526113f90152f35b600080fdfe6080604052600436101561001257600080fd5b60003560e01c806306fdde03146103b8578063095ea7b3146103b35780630d14c92e146103ae5780630d35b415146103a9578063111ecdad146103a457806313137d651461039f578063134d4f251461039a578063156a0d0f1461039557806317442b701461039057806318160ddd1461038b5780631f5e13341461038657806323b872dd146103815780632f86121b1461037c578063313ce567146103185780633400288b146103775780633b6f743b146103725780633f4ba83a1461036d57806340c10f191461036857806342966c6814610363578063485cc9551461035e5780634f1ef2861461035957806352ae2879146102aa57806352d1902d146103545780635535d4611461034f5780635a0dfe4d1461034a5780635c975abb146103455780635e280f11146103405780636013987f146103095780636fc1b31e1461033b57806370a0823114610336578063715018a61461033157806379cc67901461032c5780637d25a05e1461032757806382413eac146103225780638456cb591461031d578063857749b0146103185780638da5cb5b1461031357806395d89b411461030e57806395e9945814610309578063963efcaa146103045780639b19251a146102ff5780639f68b964146102fa578063a9059cbb146102f5578063ad3cb1cc146102f0578063b731ea0a146102eb578063b98bd070146102e6578063bb0b6a53146102e1578063bc70b354146102dc578063bd815db0146102d7578063c753e126146102d2578063c7c7f5b3146102cd578063ca5eb5e1146102c8578063d00c06cc146102c3578063d045a0dc146102be578063d4243885146102b9578063dd62ed3e146102b4578063f2fde38b146102af578063fc0c546a146102aa5763ff7bd03d146102a557600080fd5b61240d565b6113cb565b6123e5565b6123bf565b61234f565b61220a565b6120aa565b612033565b611ee7565b611e76565b611d20565b611ccc565b611c91565b611bc8565b611b53565b611b0d565b611ae3565b611ac7565b611a85565b6119f5565b611697565b611961565b61192b565b610e25565b6118c4565b611866565b61183f565b61180b565b6117a0565b611744565b6116d4565b61166e565b61163e565b6115f6565b611577565b6113e6565b611264565b61113e565b6110fc565b6110d3565b61105c565b610ed2565b610e41565b610cbc565b610b2f565b610b13565b610ae8565b610ac6565b610a9f565b610a83565b610898565b6107cd565b610727565b6105e1565b61050d565b610429565b60009103126103c857565b600080fd5b60005b8381106103e05750506000910152565b81810151838201526020016103d0565b90602091610409815180928185528580860191016103cd565b601f01601f1916010190565b9060206104269281815201906103f0565b90565b346103c8576000806003193601126104f9576040518160008051602061395a833981519152805461045981611471565b808552916001918083169081156104ce5750600114610493575b61048f8561048381890382610c14565b60405191829182610415565b0390f35b835260208084209095505b8284106104bb575050508161048f93610483928201019338610473565b805485850187015292850192810161049e565b905061048f96506104839450602092508593915060ff191682840152151560051b8201019338610473565b80fd5b6001600160a01b038116036103c857565b346103c85760403660031901126103c85760043561052a816104fc565b60243533156105ba576001600160a01b0382169182156105a157610569829161055233611a13565b9060018060a01b0316600052602052604060002090565b556040519081527f8c5be1e5ebec7d5bd14f71427d1e84f3dd0314c0f7b2291e5b200ac8c7c3b92560203392a3602060405160018152f35b604051634a1406b160e11b815260006004820152602490fd5b60405163e602df0560e01b815260006004820152602490fd5b63ffffffff8116036103c857565b346103c85760203660031901126103c8576004356105fe816105d3565b6106066133fc565b63ffffffff811615610637576005805463ffffffff60a01b191660a09290921b63ffffffff60a01b16919091179055005b60405162461bcd60e51b81526020600482015260116024820152704549442063616e2774206265207a65726f60781b6044820152606490fd5b908160e09103126103c85790565b9392916106998560a081019360208091805184520151910152565b60409160a083870152815180915260c086019160c08260051b880101936020809201936000915b8483106106e8575050505050509060606106e69294019060208091805184520151910152565b565b90919293949584806107176001938d60bf1990820301875285838c5180518452015191818582015201906103f0565b98019301930191949392906106c0565b346103c85760203660031901126103c8576001600160401b036004358181116103c857610758903690600401610670565b90610761612bb4565b5061076a612bb4565b506040519061077882610b90565b60008252602082015261048f6107b16040519361079485610bde565b600085526107a1816125a4565b5060406060820135910135613119565b6107b9610c35565b91825260208201526040519384938461067e565b346103c85760003660031901126103c8576005546040516001600160a01b039091168152602090f35b60609060031901126103c857600490565b9181601f840112156103c8578235916001600160401b0383116103c857602083818601950101116103c857565b600319810160e081126103c8576060136103c857600491606435916001600160401b03906084358281116103c8578161086e918701610807565b9390939260a43561087e816104fc565b9260c4359182116103c857610894918801610807565b9091565b6108a136610834565b5050600080549095939493926001600160a01b0392509082163303610a6b5782356108cb816105d3565b6108d4816125ae565b906020850135809203610a36575050856108fd6108f1838861323d565b6001600160a01b031690565b9161091061090b8289613249565b6130e4565b809761091b876125a4565b50610926828661362a565b60288311610976575b5050505061097061094e6000805160206139da833981519152946125a4565b956040519384931696836020909392919363ffffffff60408201951681520152565b0390a380f35b906109a1929161099b61098b60408a0161309c565b936109958a6125a4565b9261325b565b92613155565b81546109b5906001600160a01b03166108f1565b90813b15610a325782916109e191604051948580948193633e5ac80960e11b83528c8a600485016130a6565b03925af18015610a2d576000805160206139da833981519152946109709261094e92610a14575b8891965089935061092f565b80610a21610a2792610bcb565b806103bd565b38610a08565b612598565b8280fd5b610a3f816105d3565b60405163309afaf360e21b815263ffffffff9190911660048201526024810191909152604490fd5b0390fd5b6040516391ac5e4f60e01b8152336004820152602490fd5b346103c85760003660031901126103c857602060405160028152f35b346103c85760003660031901126103c8576040805162b9270b60e21b815260016020820152f35b346103c85760003660031901126103c857604080516001815260026020820152f35b346103c85760003660031901126103c85760206000805160206139ba83398151915254604051908152f35b346103c85760003660031901126103c857602060405160018152f35b346103c85760603660031901126103c857610b6f600435610b4f816104fc565b602435610b5b816104fc565b60443591610b6a83338361372f565b61354e565b602060405160018152f35b634e487b7160e01b600052604160045260246000fd5b604081019081106001600160401b03821117610bab57604052565b610b7a565b606081019081106001600160401b03821117610bab57604052565b6001600160401b038111610bab57604052565b602081019081106001600160401b03821117610bab57604052565b60a081019081106001600160401b03821117610bab57604052565b90601f801991011681019081106001600160401b03821117610bab57604052565b604051906106e682610b90565b604051906106e682610bf9565b6001600160401b038111610bab57601f01601f191660200190565b929192610c7682610c4f565b91610c846040519384610c14565b8294818452818301116103c8578281602093846000960137010152565b9080601f830112156103c85781602061042693359101610c6a565b346103c85760803660031901126103c8576001600160401b036004358181116103c857610ced903690600401610ca1565b906024358181116103c857610d06903690600401610ca1565b9160443590610d14826104fc565b60643592610d21846104fc565b610d29613435565b610d31613435565b610d39613435565b8151908111610bab5760008051602061395a83398151915291610d6582610d608554611471565b612679565b60209081601f8411600114610db457509180610da29492610da79894600092610da9575b50508160011b916000199060031b1c1916179055613473565b612ad6565b005b015190503880610d89565b9190601f198416610dc36114ab565b936000905b828210610e0d575050926001928592610da79a96610da2989610610df4575b505050811b019055613473565b015160001960f88460031b161c19169055388080610de7565b80600186978294978701518155019601940190610dc8565b346103c85760003660031901126103c857602060405160068152f35b346103c85760403660031901126103c8577f238399d427b947898edb290f5ff0f9109849b1c3ba196a42e35f00c50a54b98b600435610e7f816105d3565b60243590610e8b6133fc565b63ffffffff8116600052600160205281604060002055610ec3604051928392836020909392919363ffffffff60408201951681520152565b0390a1005b801515036103c857565b346103c8576040806003193601126103c8576004356001600160401b0381116103c857610f03903690600401610670565b90602435610f1081610ec8565b610f18612bb4565b506060830135833593610f2a856105d3565b610f42600454610f3d81878501356130f9565b6130d1565b9180831061103f575091610fc0610f5e610fdc96938695612fae565b610f6a859492946105d3565b610f72612bb4565b50600054610f88906001600160a01b03166108f1565b93610f92866125ae565b610fa9610f9d610c42565b63ffffffff9098168852565b602087015286860152606085015215156080840152565b82518080968194631bb8518b60e31b8352309060048401612c09565b03915afa908115610a2d5761048f92600092611010575b505191829182815181526020918201519181019190915260400190565b816110319293503d8411611038575b6110298183610c14565b810190612bf5565b9038610ff3565b503d61101f565b826044918651916371c4efed60e01b835260048301526024820152fd5b346103c85760003660031901126103c8576110756133fc565b600080516020613a3a833981519152805460ff8116156110c15760ff191690557f5db9ee0a495bf2e6ff9c91a7834c1ba4fdd244a5e8aa4e537bd38aeae4b073aa6020604051338152a1005b604051638dfc202b60e01b8152600490fd5b346103c85760403660031901126103c857610b6f6004356110f3816104fc565b6024359061362a565b346103c85760203660031901126103c857610da76004353361368f565b60409060031901126103c857600435611131816104fc565b90602435610426816104fc565b346103c85761114c36611119565b90600080516020613a5a83398151915254916001600160401b0360ff8460401c161593168015908161125c575b6001149081611252575b159081611249575b5061123757600080516020613a5a833981519152805467ffffffffffffffff191660011790556111bf918361121257612453565b6111c557005b600080516020613a5a833981519152805460ff60401b19169055604051600181527fc7f505b2f371ae2175ee4913f4499e1f2633a7b5936321eed1cdaeb6115181d2908060208101610ec3565b600080516020613a5a833981519152805460ff60401b1916600160401b179055612453565b60405163f92ee8a960e01b8152600490fd5b9050153861118b565b303b159150611183565b849150611179565b60403660031901126103c857600480359061127e826104fc565b6024356001600160401b0381116103c85761129c9036908301610ca1565b6001600160a01b037f000000000000000000000000000000000000000000000000000000000000000081163081149081156113af575b5061139e5790602083926112e46133fc565b6040516352d1902d60e01b8152938491829088165afa6000928161136e575b50611331575050604051634c9c8ce360e01b81526001600160a01b0390921690820190815281906020010390fd5b83836000805160206139fa833981519152840361135257610da78383613808565b604051632a87526960e21b815290810184815281906020010390fd5b61139091935060203d8111611397575b6113888183610c14565b810190613464565b9138611303565b503d61137e565b60405163703e46dd60e11b81528390fd5b9050816000805160206139fa83398151915254161415386112d2565b346103c85760003660031901126103c8576020604051308152f35b346103c85760003660031901126103c8577f00000000000000000000000000000000000000000000000000000000000000006001600160a01b0316300361143f5760206040516000805160206139fa8339815191528152f35b60405163703e46dd60e11b8152600490fd5b6024359061ffff821682036103c857565b359061ffff821682036103c857565b90600182811c921680156114a1575b602083101461148b57565b634e487b7160e01b600052602260045260246000fd5b91607f1691611480565b60008051602061395a8339815191526000527f2ae08a8e29253f69ac5d979a101956ab8f8d9d7ded63fa7a83b16fc47648eab090565b90600092918054916114f283611471565b9182825260019384811690816000146115545750600114611514575b50505050565b90919394506000526020928360002092846000945b83861061154057505050500101903880808061150e565b805485870183015294019385908201611529565b9294505050602093945060ff191683830152151560051b0101903880808061150e565b346103c85760403660031901126103c85761048f6115db6115e26115cf6004356115a0816105d3565b63ffffffff6115ad611451565b9116600052600360205260406000209061ffff16600052602052604060002090565b604051928380926114e1565b0382610c14565b6040519182916020835260208301906103f0565b346103c85760403660031901126103c8576020611634600435611618816105d3565b6024359063ffffffff1660005260016020526040600020541490565b6040519015158152f35b346103c85760003660031901126103c857602060ff600080516020613a3a83398151915254166040519015158152f35b346103c85760003660031901126103c8576000546040516001600160a01b039091168152602090f35b346103c85760203660031901126103c857610da76004356116b7816104fc565b6116bf613435565b6116c7613435565b6116cf613435565b613388565b346103c85760203660031901126103c8577ff0be4f1e87349231d80c36b33f9e8639658eeaf474014dee15a3e6a4d44141976020600435611714816104fc565b61171c6133fc565b600580546001600160a01b0319166001600160a01b03929092169182179055604051908152a1005b346103c85760203660031901126103c857600435611761816104fc565b60018060a01b03166000527f52c63247e1f47db19d5ce0460030c497f067ca4cebf71ba98eeadabe20bace006020526020604060002054604051908152f35b346103c8576000806003193601126104f9576117ba6133fc565b60008051602061399a83398151915280546001600160a01b0319811690915581906001600160a01b03167f8be0079c531659141344cd1fd0a4f28419497f9722a3daafe3b4186f6b6457e08280a380f35b346103c85760403660031901126103c857610da760043561182b816104fc565b6024359061183a82338361372f565b61368f565b346103c85760403660031901126103c85761185b6004356105d3565b602060405160008152f35b346103c85760a03660031901126103c857611880366107f6565b506064356001600160401b0381116103c8576118a0903690600401610807565b505060206084356118b0816104fc565b6040516001600160a01b0390911630148152f35b346103c85760003660031901126103c8576118dd6133fc565b6118e56137dd565b600080516020613a3a833981519152600160ff198254161790557f62e78cea01bee320cd4e420270b5ea74000d11b0c9f74754ebdbfc544b05a2586020604051338152a1005b346103c85760003660031901126103c85760008051602061399a833981519152546040516001600160a01b039091168152602090f35b346103c8576000806003193601126104f9576040518160008051602061397a833981519152805461199181611471565b808552916001918083169081156104ce57506001146119ba5761048f8561048381890382610c14565b835260208084209095505b8284106119e2575050508161048f93610483928201019338610473565b80548585018701529285019281016119c5565b346103c85760003660031901126103c8576020600454604051908152f35b6001600160a01b031660009081527f52c63247e1f47db19d5ce0460030c497f067ca4cebf71ba98eeadabe20bace016020526040902090565b6001600160a01b031660009081527f52c63247e1f47db19d5ce0460030c497f067ca4cebf71ba98eeadabe20bace006020526040902090565b346103c85760203660031901126103c857600435611aa2816104fc565b60018060a01b03166000526006602052602060ff604060002054166040519015158152f35b346103c85760003660031901126103c857602060405160008152f35b346103c85760403660031901126103c857610b6f600435611b03816104fc565b602435903361354e565b346103c85760003660031901126103c85761048f604051611b2d81610b90565b60058152640352e302e360dc1b60208201526040519182916020835260208301906103f0565b346103c85760003660031901126103c8576002546040516001600160a01b039091168152602090f35b9060206003198301126103c8576004356001600160401b03928382116103c857806023830112156103c85781600401359384116103c85760248460051b830101116103c8576024019190565b346103c857611bd636611b7c565b90611bdf6133fc565b611be8826125f2565b906040611bf781519384610c14565b8383526020938484019060051b8301923684116103c85780915b848310611c2157610da7866128a3565b6001600160401b039083358281116103c8578301906060823603126103c8578551611c4b81610bb0565b8235611c56816105d3565b8152611c638a8401611462565b8a820152868301359384116103c857611c828a94938594369101610ca1565b87820152815201920191611c11565b346103c85760203660031901126103c85763ffffffff600435611cb3816105d3565b1660005260016020526020604060002054604051908152f35b346103c85760603660031901126103c857600435611ce9816105d3565b611cf1611451565b604435906001600160401b0382116103c85761048f92611d186115e2933690600401610807565b9290916129f8565b611d2936611b7c565b60005b818110611d9657604051638e9e709960e01b8152600081600481335afa8015610a2d57610a6791600091611d75575b50604051638351eea760e01b815291829160048301610415565b611d90913d8091833e611d888183610c14565b81019061331e565b82611d5b565b611da1818385613277565b90611dd3611dcf611db1846125a4565b60208501359063ffffffff1660005260016020526040600020541490565b1590565b611e6c57611de5610100830183612f42565b92611df260e0820161329a565b90611e01610120820182612f42565b959095303b156103c857600094611e3760c092604051998a9788968795633411683760e21b875260a08a01358a600489016132a4565b03920135305af1918215610a2d57611e5492611e59575b5061261f565b611d2c565b80610a21611e6692610bcb565b38611e4e565b611e54915061261f565b346103c85760403660031901126103c857610b6f60043561182b816104fc565b9160806106e6929493611ed6604060c0830197805184526001600160401b0360208201511660208501520151604083019060208091805184520151910152565b019060208091805184520151910152565b60803660031901126103c8576004356001600160401b0381116103c857611f12903690600401610670565b60403660231901126103c857606435611f2a816104fc565b611f32612c77565b50611f3b612bb4565b50606082013590611f4c83356105d3565b611f60600454610f3d8160408701356130f9565b918083106120155750611f9a90611f77833361368f565b611f818385612fae565b611f8a866125a4565b91611f9436612c9f565b92612d1a565b90611fa3610c35565b928184528160208501527f85496b760a4b7f8d66384b9df21b381f5d1b1e79f229a47aaf4c232edc2fe59a612003611fdc8551936125a4565b936040519181839233978460409194939263ffffffff606083019616825260208201520152565b0390a361048f60405192839283611e96565b82604491604051916371c4efed60e01b835260048301526024820152fd5b346103c857600060203660031901126104f957600435612052816104fc565b61205a6133fc565b81546001600160a01b0390811691839190833b15610a325760249083604051958694859363ca5eb5e160e01b85521660048401525af18015610a2d5761209e575080f35b6120a790610bcb565b80f35b346103c85760603660031901126103c85760043560ff8116908181036103c8576024356120d6816104fc565b604435906120e3826104fc565b6120eb613435565b6120f3613435565b6120fb613435565b6001600160a01b0390811680156121f857600080546001600160a01b0319166001600160a01b039092169190911790558116156121e6576000805490939061214b906001600160a01b03166108f1565b91823b156121e25760405163ca5eb5e160e01b81526001600160a01b03821660048201529285908490602490829084905af1908115610a2d5760069361219f926121cf575b5061219a816125e6565b6125e6565b106121bd576121b86121b36120a792612b90565b612ba3565b600455565b6040516301e9714b60e41b8152600490fd5b80610a216121dc92610bcb565b38612190565b8480fd5b604051632d618d8160e21b8152600490fd5b604051638ad182f960e01b8152600490fd5b61221336610834565b505050929030330361233d5761222c6108f1858361323d565b9361223a61090b8284613249565b91612244846125a4565b5061224f838761362a565b60288211612299575b50506122726000805160206139da833981519152926125a4565b6040805163ffffffff92909216825260208201929092526001600160a01b039490941693a3005b90826122b89261099b6122ae6040880161309c565b93610995886125a4565b6000549092906122d0906001600160a01b03166108f1565b803b156103c857604051633e5ac80960e11b81529360009185918290849082906122ff908b8d600485016130a6565b03925af1908115610a2d576000805160206139da833981519152936122729261232a575b5092612258565b80610a2161233792610bcb565b38612323565b60405163029a949d60e31b8152600490fd5b346103c85760203660031901126103c8577fd48d879cef83a1c0bdda516f27b13ddb1b3f8bbac1c9e1511bb2a659c2427760602060043561238f816104fc565b6123976133fc565b600280546001600160a01b0319166001600160a01b03929092169182179055604051908152a1005b346103c85760206123dc6105526123d536611119565b9190611a13565b54604051908152f35b346103c85760203660031901126103c857610da7600435612405816104fc565b6116cf6133fc565b346103c85760603660031901126103c8576020612429366107f6565b63ffffffff8135612439816105d3565b166000526001825260406000205482604051920135148152f35b91906040519261246284610b90565b600f84526020936e2a32b9ba102aa9a230902a27a5a2a760891b858201526040519461248d86610b90565b6005865264545553446160d81b818701526124a6613435565b6124ae613435565b6124b6613435565b8151906001600160401b038211610bab5760008051602061395a833981519152926124e583610d608654611471565b81601f841160011461254057509180610da2949261251f989994600092610da95750508160011b916000199060031b1c1916179055613473565b612527613435565b61252f6137b4565b612537613435565b6106e63361337c565b9190601f19841661254f6114ab565b936000905b82821061258057505092600192859261251f9a9b96610da2989610610df457505050811b019055613473565b80600186978294978701518155019601940190612554565b6040513d6000823e3d90fd5b35610426816105d3565b63ffffffff168060005260016020526040600020549081156125ce575090565b6024906040519063f6ff4fb760e01b82526004820152fd5b6106e6906116bf613435565b6001600160401b038111610bab5760051b60200190565b634e487b7160e01b600052601160045260246000fd5b600019811461262e5760010190565b612609565b634e487b7160e01b600052603260045260246000fd5b805182101561265d5760209160051b010190565b612633565b81811061266d575050565b60008155600101612662565b90601f8211612686575050565b6106e69160008051602061395a8339815191526000526020600020906020601f840160051c830193106126c1575b601f0160051c0190612662565b90915081906126b4565b90601f82116126d8575050565b6106e69160008051602061397a8339815191526000526020600020906020601f840160051c830193106126c157601f0160051c0190612662565b9190601f811161272157505050565b6106e6926000526020600020906020601f840160051c830193106126c157601f0160051c0190612662565b91909182516001600160401b038111610bab576127738161276d8454611471565b84612712565b602080601f83116001146127af5750819293946000926127a4575b50508160011b916000199060031b1c1916179055565b01519050388061278e565b90601f198316956127c585600052602060002090565b926000905b888210612802575050836001959697106127e9575b505050811b019055565b015160001960f88460031b161c191690553880806127df565b806001859682949686015181550195019301906127ca565b602080820190808352835180925260409283810182858560051b8401019601946000925b85841061284f575050505050505090565b909192939495968580612892600193603f19868203018852868c5163ffffffff815116835261ffff858201511685840152015190606090818982015201906103f0565b99019401940192959493919061283e565b90600091825b81518110156129335761292e9061292960406128d1816128c98588612649565b510151612a9e565b612924816128df8588612649565b5101519163ffffffff6128f28689612649565b515116895261ffff602091600383528a209161290e878a612649565b5101511661ffff16600052602052604060002090565b61274c565b61261f565b6128a9565b507fbe4864a8e820971c0247f5992e2da559595f7bf076a21cb5928d443d2a13b674919250612968906040519182918261281a565b0390a1565b90929192836002116103c85783116103c857600201916001190190565b602090836106e69395949560405196836129ad89955180928880890191016103cd565b8401918583013701600083820152038085520183610c14565b908060209392818452848401376000828201840152601f01601f1916010190565b9160206104269381815201916129c6565b6115cf6115db9263ffffffff612a2d939795969716600052600360205260406000209061ffff16600052602052604060002090565b805115612a90578315612a8a576002841015612a61575050610a67604051928392639a6d49cd60e01b8452600484016129e7565b909280612a849161042694612a7f612a7a368484610c6a565b612a9e565b61296d565b9161298a565b92509050565b509190610426913691610c6a565b600361ffff60028301511603612ab15750565b604051639a6d49cd60e01b815260206004820152908190610a679060248301906103f0565b612ade613435565b612ae6613435565b612aee613435565b6001600160a01b0390811680156121f857600080546001600160a01b0319166001600160a01b039092169190911790558116156121e657600054612b3a906001600160a01b03166108f1565b90813b156103c85760405163ca5eb5e160e01b81526001600160a01b0382166004820152916000908390602490829084905af1918215610a2d57612b86926121cf575061219a816125e6565b6106e66001600455565b60ff6005199116019060ff821161262e57565b60ff16604d811161262e57600a0a90565b60405190612bc182610b90565b60006020838281520152565b91908260409103126103c857604051612be581610b90565b6020808294805184520151910152565b906040828203126103c85761042691612bcd565b906020909392936040835263ffffffff81511660408401528181015160608401526080612c5d612c47604084015160a08488015260e08701906103f0565b6060840151868203603f190160a08801526103f0565b910151151560c08401526001600160a01b03909416910152565b60405190612c8482610bb0565b8160008152600060208201526040612c9a612bb4565b910152565b60409060231901126103c85760405190612cb882610b90565b60243582526044356020830152565b6001600160401b038116036103c857565b906080828203126103c857612d12906040805193612cf585610bb0565b805185526020810151612d0781612cc7565b602086015201612bcd565b604082015290565b608093612d8c612da89694612d2d612c77565b506020612d3a8451612df5565b930190815180612de6575b50600054612d5b906001600160a01b03166108f1565b95612d65866125ae565b9251151592612d75610f9d610c42565b602087015260408601526060850152151586840152565b6040518096819582946302637a4560e41b845260048401612c09565b03925af1908115610a2d57600091612dbe575090565b610426915060803d8111612ddf575b612dd78183610c14565b810190612cd8565b503d612dcd565b612def90612e17565b38612d45565b803410612dff5790565b6040516304fb820960e51b8152346004820152602490fd5b6000805460405163393f876560e21b81526020926001600160a01b039283169290918481600481875afa908115610a2d578391612f0c575b5016938415612efa57612ea292829160405190868201926323b872dd60e01b84523360248401526044830152606482015260648152612e8d81610bf9565b519082875af1612e9b6138ac565b90846138f6565b908151918215159182612ede575b50509050612ebb5750565b604051635274afe760e01b81526001600160a01b03919091166004820152602490fd5b611dcf925080612ef2948301019101612f74565b803880612eb0565b6040516329b99a9560e11b8152600490fd5b90508481813d8311612f3b575b612f238183610c14565b81010312610a325751612f35816104fc565b38612e4f565b503d612f19565b903590601e19813603018212156103c857018035906001600160401b0382116103c8576020019181360383136103c857565b908160209103126103c8575161042681610ec8565b9091612fa0610426936040845260408401906103f0565b9160208184039101526103f0565b9091612ff4612fd2612fc661301b95600454906130f9565b6001600160401b031690565b612fe9612fe260a0860186612f42565b3691610c6a565b9060208501356131b2565b9390928394600014613094576002905b611d18613010826125a4565b916080810190612f42565b60055490926001600160a01b0390911690838261303757505050565b60405163043a78eb60e01b81529260209284928391829161305b9160048401612f89565b03915afa8015610a2d5761306d575b50565b61306a9060203d811161308d575b6130858183610c14565b810190612f74565b503d61307b565b600190613004565b3561042681612cc7565b610426939260809260018060a01b0316825260208201526000604082015281606082015201906103f0565b8181029291811591840414171561262e57565b600454610426916001600160401b03166130d1565b8115613103570490565b634e487b7160e01b600052601260045260246000fd5b61312a90610f3d60045480926130f9565b9182918084106131375750565b83604491604051916371c4efed60e01b835260048301526024820152fd5b604c9193610426936040519586936001600160401b0360c01b9060c01b16602085015263ffffffff60e01b9060e01b166028840152602c8301526131a281518092602086860191016103cd565b810103602c810184520182610c14565b825115801593906132105761320d9160689160405194859260208401526001600160401b0360c01b9060c01b1660408301523360488301526131fd81518092602086860191016103cd565b8101036048810184520182610c14565b91565b50906040519160208301526001600160401b0360c01b9060c01b1660408201526028815261320d81610bb0565b906020116103c8573590565b906028116103c8576020013560c01c90565b90806028116103c8576104269136916027190190602801610c6a565b919081101561265d5760051b8101359061013e19813603018212156103c8570190565b35610426816104fc565b929093613300926001600160401b0360406104269a98999763ffffffff81356132cc816105d3565b1688526020810135602089015201356132e481612cc7565b166040860152606085015260e0608085015260e08401916129c6565b6001600160a01b0390941660a082015280840360c0909101526129c6565b6020818303126103c8578051906001600160401b0382116103c8570181601f820112156103c857805161335081610c4f565b9261335e6040519485610c14565b818452602082840101116103c85761042691602080850191016103cd565b6106e6906116c7613435565b6001600160a01b039081169081156133e35760008051602061399a83398151915280546001600160a01b031981168417909155167f8be0079c531659141344cd1fd0a4f28419497f9722a3daafe3b4186f6b6457e0600080a3565b604051631e4fbdf760e01b815260006004820152602490fd5b60008051602061399a833981519152546001600160a01b0316330361341d57565b60405163118cdaa760e01b8152336004820152602490fd5b60ff600080516020613a5a8339815191525460401c161561345257565b604051631afcd79f60e31b8152600490fd5b908160209103126103c8575190565b9081516001600160401b038111610bab5760008051602061397a833981519152906134a7816134a28454611471565b6126cb565b602080601f83116001146134d75750819293946000926127a45750508160011b916000199060031b1c1916179055565b60008051602061397a833981519152600052601f198316959091907f46a2803e59a4de4e7a4c574b1243f25977ac4c77d5a1a4a609b5394cebb4a2aa926000905b888210613536575050836001959697106127e957505050811b019055565b80600185968294968601518155019501930190613518565b916001600160a01b03808416929083156136115781169384156135f8576135736137dd565b61357c81611a4c565b548381106135c9576135c49284926135a8600080516020613a1a833981519152966135ae940391611a4c565b55611a4c565b8054820190556040519081529081906020820190565b0390a3565b60405163391434e360e21b81526001600160a01b03929092166004830152602482015260448101839052606490fd5b60405163ec442f0560e01b815260006004820152602490fd5b604051634b637e8f60e11b815260006004820152602490fd5b6001600160a01b038116919082156135f8576136446137dd565b6000805160206139ba8339815191529182549080820180921161262e57613680600080516020613a1a8339815191529360209360009655611a4c565b818154019055604051908152a3565b91906001600160a01b038316908115613611576136aa6137dd565b6136b384611a4c565b54938185106136fd57816020916136de600080516020613a1a83398151915294600097980391611a4c565b556000805160206139ba833981519152818154039055604051908152a3565b60405163391434e360e21b81526001600160a01b03919091166004820152602481018590526044810191909152606490fd5b919061373e8161055285611a13565b546001810161374d5750505050565b828110613784576001600160a01b03848116156105ba578216156105a15761377a92610552910393611a13565b553880808061150e565b604051637dc7a0d960e11b81526001600160a01b0392909216600483015260248201526044810191909152606490fd5b6137bc613435565b6137c4613435565b600080516020613a3a833981519152805460ff19169055565b60ff600080516020613a3a83398151915254166137f657565b60405163d93c066560e01b8152600490fd5b90813b1561388b576000805160206139fa83398151915280546001600160a01b0319166001600160a01b0384169081179091557fbc7cd75a20ee27fd9adebab32041f755214dbc6bffa90cc0225b39da2e5c2d3b600080a28051156138705761306a916138dc565b50503461387957565b60405163b398979f60e01b8152600490fd5b604051634c9c8ce360e01b81526001600160a01b0383166004820152602490fd5b3d156138d7573d906138bd82610c4f565b916138cb6040519384610c14565b82523d6000602084013e565b606090565b60008061042693602081519101845af46138f46138ac565b915b9061391d575080511561390b57805190602001fd5b604051630a12f52160e11b8152600490fd5b81511580613950575b61392e575090565b604051639996b31560e01b81526001600160a01b039091166004820152602490fd5b50803b1561392656fe52c63247e1f47db19d5ce0460030c497f067ca4cebf71ba98eeadabe20bace0352c63247e1f47db19d5ce0460030c497f067ca4cebf71ba98eeadabe20bace049016d09d72d40fdae2fd8ceac6b6234c7706214fd39c1cd1e609a0528c19930052c63247e1f47db19d5ce0460030c497f067ca4cebf71ba98eeadabe20bace02efed6d3500546b29533b128a29e3a94d70788727f0507505ac12eaf2e578fd9c360894a13ba1a3210667c828492db98dca3e2076cc3735a920a3ca505d382bbcddf252ad1be2c89b69c2b068fc378daa952ba7f163c4a11628f55a4df523b3efcd5ed15c6e187e77e9aee88184c21f4f2182ab5827cb3b7e07fbedcd63f03300f0c57e16840df040f15088dc2f81fe391c3923bec73e23a9662efc9c229c6a00a2646970667358221220419e2a5b051b8c99bd232929704718e414bcdf8c9218b8a67760b759241cfe5064736f6c63430008140033","linkReferences":{}},"methodIdentifiers":{"SEND()":"1f5e1334","SEND_AND_CALL()":"134d4f25","UPGRADE_INTERFACE_VERSION()":"ad3cb1cc","__OAppOptionsType3_init(address)":"95e99458","__OAppPreCrimeSimulator_init(address)":"6013987f","__OFTCore_init(uint8,address,address)":"d00c06cc","__OFT_init(string,string,address,address)":"2f86121b","allowInitializePath((uint32,bytes32,uint64))":"ff7bd03d","allowance(address,address)":"dd62ed3e","approvalRequired()":"9f68b964","approve(address,uint256)":"095ea7b3","balanceOf(address)":"70a08231","burn(uint256)":"42966c68","burnFrom(address,uint256)":"79cc6790","burnFromUser(address,uint256)":"c753e126","combineOptions(uint32,uint16,bytes)":"bc70b354","decimalConversionRate()":"963efcaa","decimals()":"313ce567","endpoint()":"5e280f11","enforcedOptions(uint32,uint16)":"5535d461","initialize(address,address)":"485cc955","isComposeMsgSender((uint32,bytes32,uint64),bytes,address)":"82413eac","isPeer(uint32,bytes32)":"5a0dfe4d","lzReceive((uint32,bytes32,uint64),bytes32,bytes,address,bytes)":"13137d65","lzReceiveAndRevert(((uint32,bytes32,uint64),uint32,address,bytes32,uint256,address,bytes,bytes)[])":"bd815db0","lzReceiveSimulate((uint32,bytes32,uint64),bytes32,bytes,address,bytes)":"d045a0dc","mint(address,uint256)":"40c10f19","msgInspector()":"111ecdad","name()":"06fdde03","nextNonce(uint32,bytes32)":"7d25a05e","oApp()":"52ae2879","oAppVersion()":"17442b70","oftVersion()":"156a0d0f","owner()":"8da5cb5b","pause()":"8456cb59","paused()":"5c975abb","peers(uint32)":"bb0b6a53","preCrime()":"b731ea0a","proxiableUUID()":"52d1902d","quoteOFT((uint32,bytes32,uint256,uint256,bytes,bytes,bytes))":"0d35b415","quoteSend((uint32,bytes32,uint256,uint256,bytes,bytes,bytes),bool)":"3b6f743b","renounceOwnership()":"715018a6","send((uint32,bytes32,uint256,uint256,bytes,bytes,bytes),(uint256,uint256),address)":"c7c7f5b3","setDelegate(address)":"ca5eb5e1","setDstEid(uint32)":"0d14c92e","setEnforcedOptions((uint32,uint16,bytes)[])":"b98bd070","setMsgInspector(address)":"6fc1b31e","setPeer(uint32,bytes32)":"3400288b","setPreCrime(address)":"d4243885","sharedDecimals()":"857749b0","symbol()":"95d89b41","token()":"fc0c546a","totalSupply()":"18160ddd","transfer(address,uint256)":"a9059cbb","transferFrom(address,address,uint256)":"23b872dd","transferOwnership(address)":"f2fde38b","unpause()":"3f4ba83a","upgradeToAndCall(address,bytes)":"4f1ef286","whitelist(address)":"9b19251a"},"id":6}