{"abi":[{"type":"constructor","inputs":[{"name":"_priceFeed","type":"address","internalType":"address"},{"name":"_treasuryAddress","type":"address","internalType":"address"},{"name":"_cdsAddress","type":"address","internalType":"address"}],"stateMutability":"nonpayable"},{"type":"function","name":"calculateOptionPrice","inputs":[{"name":"_ethVolatility","type":"uint256","internalType":"uint256"},{"name":"_amount","type":"uint256","internalType":"uint256"},{"name":"_strikePrice","type":"uint8","internalType":"enum Options.StrikePrice"}],"outputs":[{"name":"","type":"uint256","internalType":"uint256"}],"stateMutability":"view"},{"type":"function","name":"calculateStandardDeviation","inputs":[],"outputs":[{"name":"","type":"uint256","internalType":"uint256"}],"stateMutability":"view"},{"type":"function","name":"getLatestPrice","inputs":[],"outputs":[{"name":"","type":"uint256","internalType":"uint256"}],"stateMutability":"view"},{"type":"function","name":"updateDailyEMA","inputs":[],"outputs":[],"stateMutability":"nonpayable"},{"type":"function","name":"withdrawOption","inputs":[{"name":"depositedAmount","type":"uint128","internalType":"uint128"},{"name":"strikePrice","type":"uint128","internalType":"uint128"},{"name":"ethPrice","type":"uint64","internalType":"uint64"}],"outputs":[{"name":"","type":"uint128","internalType":"uint128"}],"stateMutability":"pure"}],"bytecode":{"object":"0x60806040526000600255670de0b6b3a7640000602155620f4240602255620186a060235534801561002f57600080fd5b50604051610be4380380610be483398101604081905261004e916100ac565b600080546001600160a01b039485166001600160a01b0319918216179091556024805493851693821693909317909255602580549190931691161790556100ef565b80516001600160a01b03811681146100a757600080fd5b919050565b6000806000606084860312156100c157600080fd5b6100ca84610090565b92506100d860208501610090565b91506100e660408501610090565b90509250925092565b610ae6806100fe6000396000f3fe608060405234801561001057600080fd5b50600436106100575760003560e01c806340cd75ac1461005c5780638e15f4731461008c5780639b165026146100a2578063a305550e146100aa578063ce09c7e4146100b4575b600080fd5b61006f61006a36600461082b565b6100c7565b6040516001600160801b0390911681526020015b60405180910390f35b6100946101d0565b604051908152602001610083565b610094610258565b6100b26102d6565b005b6100946100c2366004610883565b6103e2565b60006001600160801b038416158015906100e957506001600160801b03831615155b80156100fe575067ffffffffffffffff821615155b6101485760405162461bcd60e51b81526020600482015260166024820152755a65726f20696e7075747320696e206f7074696f6e7360501b60448201526064015b60405180910390fd5b81600061015f67ffffffffffffffff8316876108cb565b90506000856001600160801b0316826001600160801b0316101561018257600080fd5b856001600160801b0316826001600160801b031611156101c25767ffffffffffffffff83166101b187846108f6565b6101bb9190610933565b90506101c6565b5060005b9695505050505050565b6000805460408051633fabe5a360e21b8152905183926001600160a01b03169163feaf968c9160048083019260a09291908290030181865afa15801561021a573d6000803e3d6000fd5b505050506040513d601f19601f8201168201806040525081019061023e9190610973565b5050509150506022548161025291906109c3565b91505090565b600080600090506000601e6002541061027257601e610276565b6002545b905060005b818110156102b657600381601e8110610296576102966109d7565b01546102a290846109ed565b9250806102ae81610a06565b91505061027b565b5060006102c382846109c3565b90506102ce816107a3565b935050505090565b60006102e06101d0565b90506000819050601e600254101561032d576002546103009060016109ed565b816002546001546103119190610a1f565b61031b91906109ed565b61032591906109c3565b60015561036e565b600061033b601f60026109c3565b9050610348816001610a36565b6001546103559190610a1f565b61035f8284610a1f565b61036991906109ed565b600155505b6000600154821161038c57816001546103879190610a36565b610399565b6001546103999083610a36565b90506103a58180610a1f565b6003601e6002546103b69190610a49565b601e81106103c6576103c66109d7565b0155600280549060006103d883610a06565b9190505550505050565b600083816103ee6101d0565b905060006103fc8287610a1f565b602460009054906101000a90046001600160a01b03166001600160a01b031663541b60946040518163ffffffff1660e01b8152600401602060405180830381865afa15801561044f573d6000803e3d6000fd5b505050506040513d601f19601f820116820180604052508101906104739190610a5d565b61047d91906109ed565b90506000602560009054906101000a90046001600160a01b03166001600160a01b0316632bb2ea626040518163ffffffff1660e01b8152600401602060405180830381865afa1580156104d4573d6000803e3d6000fd5b505050506040513d601f19601f820116820180604052508101906104f89190610a76565b6001600160801b03169050816000036105535760405162461bcd60e51b815260206004820152601860248201527f54726561737572792062616c616e6365206973207a65726f0000000000000000604482015260640161013f565b806000036105975760405162461bcd60e51b8152602060048201526011602482015270434453205661756c74206973207a65726f60781b604482015260640161013f565b6000826105a5836064610a1f565b6105af91906109c3565b905060008160215460036105c39190610a1f565b6105cd91906109c3565b6023546021546105f1886105e28b600a610a1f565b6105ec9190610a1f565b6107a3565b6105fb9190610a1f565b61060591906109c3565b61060f91906109ed565b905060008089600481111561062657610626610a9a565b0361066c57610636876003610a1f565b826023546101906106479190610a1f565b6106519190610a1f565b61065b91906109c3565b61066590836109ed565b905061077d565b600189600481111561068057610680610a9a565b036106a057610690876003610a1f565b8260235460646106479190610a1f565b60028960048111156106b4576106b4610a9a565b036106d4576106c4876003610a1f565b8260235460326106479190610a1f565b60038960048111156106e8576106e8610a9a565b03610708576106f8876003610a1f565b82602354600a6106479190610a1f565b600489600481111561071c5761071c610a9a565b0361073c5761072c876003610a1f565b8260235460056106479190610a1f565b60405162461bcd60e51b8152602060048201526016602482015275496e636f727265637420537472696b6520507269636560501b604482015260640161013f565b60215461078a8b83610a1f565b61079491906109c3565b9b9a5050505050505050505050565b6000600382111561080457508060006107bd6002836109c3565b6107c89060016109ed565b90505b818110156107fe579050806002816107e381866109c3565b6107ed91906109ed565b6107f791906109c3565b90506107cb565b50919050565b811561080e575060015b919050565b6001600160801b038116811461082857600080fd5b50565b60008060006060848603121561084057600080fd5b833561084b81610813565b9250602084013561085b81610813565b9150604084013567ffffffffffffffff8116811461087857600080fd5b809150509250925092565b60008060006060848603121561089857600080fd5b833592506020840135915060408401356005811061087857600080fd5b634e487b7160e01b600052601160045260246000fd5b6001600160801b038181168382160280821691908281146108ee576108ee6108b5565b505092915050565b6001600160801b03828116828216039080821115610916576109166108b5565b5092915050565b634e487b7160e01b600052601260045260246000fd5b60006001600160801b038084168061094d5761094d61091d565b92169190910492915050565b805169ffffffffffffffffffff8116811461080e57600080fd5b600080600080600060a0868803121561098b57600080fd5b61099486610959565b94506020860151935060408601519250606086015191506109b760808701610959565b90509295509295909350565b6000826109d2576109d261091d565b500490565b634e487b7160e01b600052603260045260246000fd5b80820180821115610a0057610a006108b5565b92915050565b600060018201610a1857610a186108b5565b5060010190565b8082028115828204841417610a0057610a006108b5565b81810381811115610a0057610a006108b5565b600082610a5857610a5861091d565b500690565b600060208284031215610a6f57600080fd5b5051919050565b600060208284031215610a8857600080fd5b8151610a9381610813565b9392505050565b634e487b7160e01b600052602160045260246000fdfea2646970667358221220f1a4662ba6ec26461879fce16dc9ef9e33928c975c76df4e78a0348c7f2a4a0d64736f6c63430008120033","linkReferences":{}},"methodIdentifiers":{"calculateOptionPrice(uint256,uint256,uint8)":"ce09c7e4","calculateStandardDeviation()":"9b165026","getLatestPrice()":"8e15f473","updateDailyEMA()":"a305550e","withdrawOption(uint128,uint128,uint64)":"40cd75ac"},"id":0}