{"abi":[{"type":"constructor","inputs":[{"name":"_priceFeed","type":"address","internalType":"address"},{"name":"_treasuryAddress","type":"address","internalType":"address"},{"name":"_cdsAddress","type":"address","internalType":"address"}],"stateMutability":"nonpayable"},{"type":"function","name":"calculateOptionPrice","inputs":[{"name":"_ethVolatility","type":"uint256","internalType":"uint256"},{"name":"_amount","type":"uint256","internalType":"uint256"}],"outputs":[{"name":"","type":"uint256","internalType":"uint256"}],"stateMutability":"view"},{"type":"function","name":"calculateStandardDeviation","inputs":[],"outputs":[{"name":"","type":"uint256","internalType":"uint256"}],"stateMutability":"view"},{"type":"function","name":"depositOption","inputs":[{"name":"percent","type":"uint8","internalType":"uint8"}],"outputs":[],"stateMutability":"nonpayable"},{"type":"function","name":"getLatestPrice","inputs":[],"outputs":[{"name":"","type":"uint256","internalType":"uint256"}],"stateMutability":"view"},{"type":"function","name":"updateDailyEMA","inputs":[],"outputs":[],"stateMutability":"nonpayable"},{"type":"function","name":"withdrawOption","inputs":[{"name":"depositedAmount","type":"uint128","internalType":"uint128"},{"name":"strikePrice","type":"uint128","internalType":"uint128"},{"name":"ethPrice","type":"uint64","internalType":"uint64"}],"outputs":[{"name":"","type":"uint128","internalType":"uint128"}],"stateMutability":"pure"}],"bytecode":{"object":"0x60806040526000600255670de0b6b3a7640000602155620f424060225534801561002857600080fd5b50604051610a78380380610a78833981016040819052610047916100a5565b600080546001600160a01b039485166001600160a01b0319918216179091556023805493851693821693909317909255602480549190931691161790556100e8565b80516001600160a01b03811681146100a057600080fd5b919050565b6000806000606084860312156100ba57600080fd5b6100c384610089565b92506100d160208501610089565b91506100df60408501610089565b90509250925092565b610981806100f76000396000f3fe608060405234801561001057600080fd5b50600436106100625760003560e01c806340cd75ac146100675780638e15f4731461009757806390abf0ed146100ad5780639b165026146100c0578063a305550e146100c8578063d0728cb8146100d2575b600080fd5b61007a6100753660046106cf565b6100e3565b6040516001600160801b0390911681526020015b60405180910390f35b61009f6101ec565b60405190815260200161008e565b61009f6100bb366004610727565b610274565b61009f6104c0565b6100d061053e565b005b6100d06100e0366004610749565b50565b60006001600160801b0384161580159061010557506001600160801b03831615155b801561011a575067ffffffffffffffff821615155b6101645760405162461bcd60e51b81526020600482015260166024820152755a65726f20696e7075747320696e206f7074696f6e7360501b60448201526064015b60405180910390fd5b81600061017b67ffffffffffffffff831687610789565b90506000856001600160801b0316826001600160801b0316101561019e57600080fd5b856001600160801b0316826001600160801b031611156101de5767ffffffffffffffff83166101cd87846107b4565b6101d791906107f1565b90506101e2565b5060005b9695505050505050565b6000805460408051633fabe5a360e21b8152905183926001600160a01b03169163feaf968c9160048083019260a09291908290030181865afa158015610236573d6000803e3d6000fd5b505050506040513d601f19601f8201168201806040525081019061025a9190610831565b5050509150506022548161026e9190610881565b91505090565b600082816102806101ec565b9050600061028e8286610895565b602360009054906101000a90046001600160a01b03166001600160a01b031663541b60946040518163ffffffff1660e01b8152600401602060405180830381865afa1580156102e1573d6000803e3d6000fd5b505050506040513d601f19601f8201168201806040525081019061030591906108ac565b61030f91906108c5565b90506000602460009054906101000a90046001600160a01b03166001600160a01b0316632bb2ea626040518163ffffffff1660e01b8152600401602060405180830381865afa158015610366573d6000803e3d6000fd5b505050506040513d601f19601f8201168201806040525081019061038a91906108d8565b6001600160801b03169050816000036103e55760405162461bcd60e51b815260206004820152601860248201527f54726561737572792062616c616e6365206973207a65726f0000000000000000604482015260640161015b565b806000036104295760405162461bcd60e51b8152602060048201526011602482015270434453205661756c74206973207a65726f60781b604482015260640161015b565b600082610437836064610895565b6104419190610881565b905060008160215460036104559190610895565b61045f9190610881565b61047d8661046e89600a610895565b6104789190610895565b61064a565b61048d906509184e72a000610895565b61049791906108c5565b6021549091506104a78983610895565b6104b19190610881565b96505050505050505b92915050565b600080600090506000601e600254106104da57601e6104de565b6002545b905060005b8181101561051e57600381601e81106104fe576104fe6108f5565b015461050a90846108c5565b9250806105168161090b565b9150506104e3565b50600061052b8284610881565b90506105368161064a565b935050505090565b60006105486101ec565b90506000819050601e6002541015610595576002546105689060016108c5565b816002546001546105799190610895565b61058391906108c5565b61058d9190610881565b6001556105d6565b60006105a3601f6002610881565b90506105b0816001610924565b6001546105bd9190610895565b6105c78284610895565b6105d191906108c5565b600155505b600060015482116105f457816001546105ef9190610924565b610601565b6001546106019083610924565b905061060d8180610895565b6003601e60025461061e9190610937565b601e811061062e5761062e6108f5565b0155600280549060006106408361090b565b9190505550505050565b600060038211156106ab5750806000610664600283610881565b61066f9060016108c5565b90505b818110156106a55790508060028161068a8186610881565b61069491906108c5565b61069e9190610881565b9050610672565b50919050565b81156106b5575060015b919050565b6001600160801b03811681146100e057600080fd5b6000806000606084860312156106e457600080fd5b83356106ef816106ba565b925060208401356106ff816106ba565b9150604084013567ffffffffffffffff8116811461071c57600080fd5b809150509250925092565b6000806040838503121561073a57600080fd5b50508035926020909101359150565b60006020828403121561075b57600080fd5b813560ff8116811461076c57600080fd5b9392505050565b634e487b7160e01b600052601160045260246000fd5b6001600160801b038181168382160280821691908281146107ac576107ac610773565b505092915050565b6001600160801b038281168282160390808211156107d4576107d4610773565b5092915050565b634e487b7160e01b600052601260045260246000fd5b60006001600160801b038084168061080b5761080b6107db565b92169190910492915050565b805169ffffffffffffffffffff811681146106b557600080fd5b600080600080600060a0868803121561084957600080fd5b61085286610817565b945060208601519350604086015192506060860151915061087560808701610817565b90509295509295909350565b600082610890576108906107db565b500490565b80820281158282048414176104ba576104ba610773565b6000602082840312156108be57600080fd5b5051919050565b808201808211156104ba576104ba610773565b6000602082840312156108ea57600080fd5b815161076c816106ba565b634e487b7160e01b600052603260045260246000fd5b60006001820161091d5761091d610773565b5060010190565b818103818111156104ba576104ba610773565b600082610946576109466107db565b50069056fea2646970667358221220161c133dc95ce7e0f52c26a366a463e30aca4843cb501564e458e560021d54c564736f6c63430008120033","linkReferences":{}},"methodIdentifiers":{"calculateOptionPrice(uint256,uint256)":"90abf0ed","calculateStandardDeviation()":"9b165026","depositOption(uint8)":"d0728cb8","getLatestPrice()":"8e15f473","updateDailyEMA()":"a305550e","withdrawOption(uint128,uint128,uint64)":"40cd75ac"},"id":0}