{"abi":[{"type":"function","name":"depositOption","inputs":[{"name":"percent","type":"uint8","internalType":"uint8"}],"outputs":[],"stateMutability":"nonpayable"},{"type":"function","name":"withdrawOption","inputs":[{"name":"depositedAmount","type":"uint128","internalType":"uint128"},{"name":"strikePrice","type":"uint128","internalType":"uint128"},{"name":"ethPrice","type":"uint64","internalType":"uint64"}],"outputs":[{"name":"","type":"uint128","internalType":"uint128"}],"stateMutability":"pure"}],"bytecode":{"object":"0x608060405234801561001057600080fd5b506102f1806100206000396000f3fe608060405234801561001057600080fd5b50600436106100365760003560e01c806340cd75ac1461003b578063d0728cb81461006a575b600080fd5b61004e6100493660046101a1565b61007d565b6040516001600160801b03909116815260200160405180910390f35b61007b6100783660046101f5565b50565b005b60006001600160801b0384161580159061009f57506001600160801b03831615155b80156100b4575067ffffffffffffffff821615155b6100fd5760405162461bcd60e51b81526020600482015260166024820152755a65726f20696e7075747320696e206f7074696f6e7360501b604482015260640160405180910390fd5b81600061011467ffffffffffffffff831687610235565b90506000856001600160801b0316826001600160801b0316101561013757600080fd5b856001600160801b0316826001600160801b031611156101775767ffffffffffffffff83166101668784610260565b6101709190610287565b905061017b565b5060005b9695505050505050565b80356001600160801b038116811461019c57600080fd5b919050565b6000806000606084860312156101b657600080fd5b6101bf84610185565b92506101cd60208501610185565b9150604084013567ffffffffffffffff811681146101ea57600080fd5b809150509250925092565b60006020828403121561020757600080fd5b813560ff8116811461021857600080fd5b9392505050565b634e487b7160e01b600052601160045260246000fd5b6001600160801b038181168382160280821691908281146102585761025861021f565b505092915050565b6001600160801b038281168282160390808211156102805761028061021f565b5092915050565b60006001600160801b03808416806102af57634e487b7160e01b600052601260045260246000fd5b9216919091049291505056fea264697066735822122010339f74b683d91fd2f39984f5d5f1dce84e67efa17ce540bf5fac6ed4e19dca64736f6c63430008120033","linkReferences":{}},"methodIdentifiers":{"depositOption(uint8)":"d0728cb8","withdrawOption(uint128,uint128,uint64)":"40cd75ac"},"id":0}