{"abi":[{"type":"function","name":"depositOption","inputs":[{"name":"percent","type":"uint8","internalType":"uint8"}],"outputs":[],"stateMutability":"nonpayable"},{"type":"function","name":"withdrawOption","inputs":[{"name":"depositedAmount","type":"uint128","internalType":"uint128"},{"name":"strikePrice","type":"uint128","internalType":"uint128"},{"name":"ethPrice","type":"uint64","internalType":"uint64"}],"outputs":[{"name":"","type":"uint128","internalType":"uint128"}],"stateMutability":"pure"}],"bytecode":{"object":"0x60808060405234610016576101d7908161001c8239f35b600080fdfe60808060405260048036101561001457600080fd5b600091823560e01c90816340cd75ac1461005d575063d0728cb81461003857600080fd5b34610059576020366003190112610059573560ff8116036100565780f35b80fd5b5080fd5b83915034610059576060366003190112610059578235916fffffffffffffffffffffffffffffffff92838116809103610059576024359084821680920361013a576044359367ffffffffffffffff851680950361019d5781151580610194575b8061018b575b156101515750830284811690810361013e5781811061013a578181111561012c570390838211610119578215610106575060209350821604905b60405191168152f35b634e487b7160e01b815260128552602490fd5b634e487b7160e01b815260118552602490fd5b5050905060209250906100fd565b8280fd5b634e487b7160e01b835260118652602483fd5b62461bcd60e51b815260208782015260166024820152755a65726f20696e7075747320696e206f7074696f6e7360501b6044820152606490fd5b508415156100c3565b508215156100bd565b8380fdfea2646970667358221220767b5836d1b0327ded0a48effe13fe92afd2416052122d1b56a1c8ea4dedb9d764736f6c63430008120033","linkReferences":{}},"methodIdentifiers":{"depositOption(uint8)":"d0728cb8","withdrawOption(uint128,uint128,uint64)":"40cd75ac"},"id":0}