{"abi":[{"type":"constructor","inputs":[{"name":"_priceFeed","type":"address","internalType":"address"},{"name":"_treasuryAddress","type":"address","internalType":"address"},{"name":"_cdsAddress","type":"address","internalType":"address"}],"stateMutability":"nonpayable"},{"type":"function","name":"calculateOptionPrice","inputs":[{"name":"_ethPrice","type":"uint128","internalType":"uint128"},{"name":"_ethVolatility","type":"uint256","internalType":"uint256"},{"name":"_amount","type":"uint256","internalType":"uint256"},{"name":"_strikePrice","type":"uint8","internalType":"enum Options.StrikePrice"}],"outputs":[{"name":"","type":"uint256","internalType":"uint256"}],"stateMutability":"view"},{"type":"function","name":"calculateStandardDeviation","inputs":[],"outputs":[{"name":"","type":"uint256","internalType":"uint256"}],"stateMutability":"view"},{"type":"function","name":"getLatestPrice","inputs":[],"outputs":[{"name":"","type":"uint256","internalType":"uint256"}],"stateMutability":"view"},{"type":"function","name":"updateDailyEMA","inputs":[],"outputs":[],"stateMutability":"nonpayable"},{"type":"function","name":"withdrawOption","inputs":[{"name":"depositedAmount","type":"uint128","internalType":"uint128"},{"name":"strikePrice","type":"uint128","internalType":"uint128"},{"name":"ethPrice","type":"uint64","internalType":"uint64"}],"outputs":[{"name":"","type":"uint128","internalType":"uint128"}],"stateMutability":"pure"}],"bytecode":{"object":"0x6080346100d557601f610a2038819003918201601f19168301916001600160401b038311848410176100da578084926060946040528339810103126100d557610047816100f0565b906100606040610059602084016100f0565b92016100f0565b6000600255670de0b6b3a7640000602155620f4240602255620186a060235564e8d4a5100060018060801b0319602454161760245560018060a01b0380928160018060a01b03199516856000541617600055168360255416176025551690602654161760265560405161091b90816101058239f35b600080fd5b634e487b7160e01b600052604160045260246000fd5b51906001600160a01b03821682036100d55756fe6080604081815260048036101561001557600080fd5b600092833560e01c90816340cd75ac146105d4575080638e15f473146105b75780639b1650261461052f578063a305550e146104245763d22d43021461005a57600080fd5b346103d95760803660031901126103d9576100736106f4565b60248035916064928335926005841015610420576025548751631506d82560e21b8152602099916001600160a01b03908b9083908b90829085165afa9182156103e4578992918c9185936103ee575b50602654168b519a8b80926315d9753160e11b82525afa9889156103e45783996103a1575b506001600160801b03958661010081875416809c61070f565b1691801561035f578215610329578983029283048a03610316576101309061012b6023548095610854565b610792565b9686600a0291600a83048803610304579161015091610155931690610854565b610890565b976101678261012b602154809c610854565b6003978a89028981048c036102f2579161018961018f9261012b878996610854565b90610874565b988061020a5750505061019090808202918204036101f957866101b191610854565b93808602958604036101e9575050506101d961012b936101896101e297969461012b94610792565b60443590610854565b9051908152f35b634e487b7160e01b825260119052fd5b50634e487b7160e01b825260119052fd5b6001810361025757505090808202918204036101f9578661022a91610854565b93808602958604036101e95750505061025261012b936101896101e297969461012b94610792565b6101d9565b6002810361027a57505050806032029060328204036101f9578661022a91610854565b80890361029c5750505080600a0290600a8204036101f9578661022a91610854565b036102ba5750806005029060058204036101f9578661022a91610854565b8a5162461bcd60e51b81528084018d905260168187015275496e636f727265637420537472696b6520507269636560501b6044820152fd5b634e487b7160e01b8752601186528787fd5b634e487b7160e01b8652601185528686fd5b5050634e487b7160e01b83525060119052fd5b508a5162461bcd60e51b81528084018d905260118187015270434453205661756c74206973207a65726f60781b60448201528990fd5b508a5162461bcd60e51b81528084018d90526018818701527f54726561737572792062616c616e6365206973207a65726f000000000000000060448201528990fd5b9098508a81813d83116103dd575b6103b98183610743565b810103126103d957516001600160801b03811681036103d95797386100e7565b8280fd5b503d6103af565b8a513d85823e3d90fd5b9250925081813d8311610419575b6104068183610743565b810103126103d9575188918b90386100c2565b503d6103fc565b8780fd5b83823461052b578160031936011261052b5761043e6107b2565b600254601e8110156104f35761045f8261045a83600154610854565b610874565b600182018092116104e057610498929161047891610792565b6001555b60015490818111156104d2579061049291610867565b80610854565b90601e6002540690601e8210156104bf5750600301556104b9600254610881565b60025580f35b634e487b7160e01b845260329052602483fd5b6104db91610867565b610492565b634e487b7160e01b855260118452602485fd5b506001811517156105185760015480800460011490151715610518576104989061047c565b634e487b7160e01b835260118252602483fd5b5080fd5b50346103d957826003193601126103d957600254601e908490828110156105ad579291905b80925b84841061056e576020866101e2610150888b610792565b909192958387101561059a5761058c61059291886003015490610874565b96610881565b929190610557565b634e487b7160e01b835260328252602483fd5b5081929190610554565b50503461052b578160031936011261052b576020906101e26107b2565b838584923461052b57606036600319011261052b576105f16106f4565b916024356001600160801b03938482168092036103d9576044359367ffffffffffffffff85168095036106f0578582161515806106e7575b806106de575b156106a4575061064084869261070f565b168181106103d95781811115610696570390838211610683578215610670575060209450821604915b5191168152f35b634e487b7160e01b815260128652602490fd5b634e487b7160e01b815260118652602490fd5b505090506020935091610669565b62461bcd60e51b815260208882015260166024820152755a65726f20696e7075747320696e206f7074696f6e7360501b6044820152606490fd5b5084151561062f565b50821515610629565b8380fd5b600435906001600160801b038216820361070a57565b600080fd5b9190916001600160801b038080941691160291821691820361072d57565b634e487b7160e01b600052601160045260246000fd5b90601f8019910116810190811067ffffffffffffffff82111761076557604052565b634e487b7160e01b600052604160045260246000fd5b519069ffffffffffffffffffff8216820361070a57565b811561079c570490565b634e487b7160e01b600052601260045260246000fd5b600054604051633fabe5a360e21b81529060a090829060049082906001600160a01b03165afa8015610848576000906107f7575b6107f4915060225490610792565b90565b60a0823d8211610840575b8161080f60a09383610743565b8101031261083d5750806108256107f49261077b565b5061083760806020830151920161077b565b506107e6565b80fd5b3d9150610802565b6040513d6000823e3d90fd5b8181029291811591840414171561072d57565b9190820391821161072d57565b9190820180921161072d57565b600019811461072d5760010190565b90600060038311156108d857508160019080821c82810180911161072d5791905b8483106108bd57505050565b909193506108cf8461045a8184610792565b821c91906108b1565b916108df57565b6001915056fea2646970667358221220931c9ffe98676ed496a38ed56cc69ffabbb80b7d4dfb08ba02656650a9f7147b64736f6c63430008130033","linkReferences":{}},"methodIdentifiers":{"calculateOptionPrice(uint128,uint256,uint256,uint8)":"d22d4302","calculateStandardDeviation()":"9b165026","getLatestPrice()":"8e15f473","updateDailyEMA()":"a305550e","withdrawOption(uint128,uint128,uint64)":"40cd75ac"},"id":0}