{"abi":[{"type":"function","name":"UPGRADE_INTERFACE_VERSION","inputs":[],"outputs":[{"name":"","type":"string","internalType":"string"}],"stateMutability":"view"},{"type":"function","name":"calculateOptionPrice","inputs":[{"name":"_ethPrice","type":"uint128","internalType":"uint128"},{"name":"_ethVolatility","type":"uint256","internalType":"uint256"},{"name":"_amount","type":"uint256","internalType":"uint256"},{"name":"_strikePrice","type":"uint8","internalType":"enum Options.StrikePrice"}],"outputs":[{"name":"","type":"uint256","internalType":"uint256"}],"stateMutability":"view"},{"type":"function","name":"calculateStrikePriceGains","inputs":[{"name":"depositedAmount","type":"uint128","internalType":"uint128"},{"name":"strikePrice","type":"uint128","internalType":"uint128"},{"name":"ethPrice","type":"uint64","internalType":"uint64"}],"outputs":[{"name":"","type":"uint128","internalType":"uint128"}],"stateMutability":"view"},{"type":"function","name":"initialize","inputs":[{"name":"_treasuryAddress","type":"address","internalType":"address"},{"name":"_cdsAddress","type":"address","internalType":"address"},{"name":"_borrowingAddress","type":"address","internalType":"address"}],"outputs":[],"stateMutability":"nonpayable"},{"type":"function","name":"owner","inputs":[],"outputs":[{"name":"","type":"address","internalType":"address"}],"stateMutability":"view"},{"type":"function","name":"proxiableUUID","inputs":[],"outputs":[{"name":"","type":"bytes32","internalType":"bytes32"}],"stateMutability":"view"},{"type":"function","name":"renounceOwnership","inputs":[],"outputs":[],"stateMutability":"nonpayable"},{"type":"function","name":"transferOwnership","inputs":[{"name":"newOwner","type":"address","internalType":"address"}],"outputs":[],"stateMutability":"nonpayable"},{"type":"function","name":"upgradeToAndCall","inputs":[{"name":"newImplementation","type":"address","internalType":"address"},{"name":"data","type":"bytes","internalType":"bytes"}],"outputs":[],"stateMutability":"payable"},{"type":"event","name":"Initialized","inputs":[{"name":"version","type":"uint64","indexed":false,"internalType":"uint64"}],"anonymous":false},{"type":"event","name":"OwnershipTransferred","inputs":[{"name":"previousOwner","type":"address","indexed":true,"internalType":"address"},{"name":"newOwner","type":"address","indexed":true,"internalType":"address"}],"anonymous":false},{"type":"event","name":"Upgraded","inputs":[{"name":"implementation","type":"address","indexed":true,"internalType":"address"}],"anonymous":false},{"type":"error","name":"AddressEmptyCode","inputs":[{"name":"target","type":"address","internalType":"address"}]},{"type":"error","name":"ERC1967InvalidImplementation","inputs":[{"name":"implementation","type":"address","internalType":"address"}]},{"type":"error","name":"ERC1967NonPayable","inputs":[]},{"type":"error","name":"FailedInnerCall","inputs":[]},{"type":"error","name":"InvalidInitialization","inputs":[]},{"type":"error","name":"NotInitializing","inputs":[]},{"type":"error","name":"OwnableInvalidOwner","inputs":[{"name":"owner","type":"address","internalType":"address"}]},{"type":"error","name":"OwnableUnauthorizedAccount","inputs":[{"name":"account","type":"address","internalType":"address"}]},{"type":"error","name":"UUPSUnauthorizedCallContext","inputs":[]},{"type":"error","name":"UUPSUnsupportedProxiableUUID","inputs":[{"name":"slot","type":"bytes32","internalType":"bytes32"}]}],"bytecode":{"object":"0x60a0806040523461002a5730608052610f64908161003082396080518181816108ae015261097b0152f35b600080fdfe60806040908082526004918236101561001757600080fd5b600092833560e01c9283630e1fab4314610b3e575082634f1ef2861461090057826352d1902d14610899578263715018a61461082f5782638da5cb5b146107f5578263ad3cb1cc14610758578263c0c53b8b1461059e578263d22d4302146100b957505063f2fde38b1461008a57600080fd5b346100b65760203660031901126100b6576100b36100a6610cdd565b6100ae610e11565b610d9d565b80f35b80fd5b90915034610464576080366003190112610464576100d5610cc2565b60249182359060443590606492833591600583101561059a5780548851639cac625160e01b815260209a6001600160801b03988916999290916001600160a01b0391821691908d818781865afa801561052357849061056b575b610144915061013e8d8b610d47565b90610d70565b91821561052d578d86918e51928380926354dec33960e11b82525afa90811561052357918b8f92889487916104e1575b501661047957600554168d5192838092636a7889f360e11b82525afa801561046f57839061043c575b6101ad91508a6003541690610d47565b905b81156104065788820291820489036103f4576101d7906101d26002548094610d47565b610d7d565b9985600a02600a810487036103e157906101f091610d47565b97829a60039b8c8b116000146103d257508960019080821c8281018091116103c05791905b8c83106103a0575050505b610230836101d28654809d610d47565b908a8d028d81048c0361038e579161013e610250926101d2878b96610d47565b97806102d35750505061019090808202918204036102c2578561027291610d47565b92848a02948a8604036102b2575050509261029d6102ab9796959361013e6101d2946102a297610d7d565b610d47565b91541690610d7d565b9051908152f35b634e487b7160e01b825260119052fd5b50634e487b7160e01b815260118352fd5b600181036102f357505090808202918204036102c2578561027291610d47565b6002810361031657505050806032029060328204036102c2578561027291610d47565b808d036103385750505080600a0290600a8204036102c2578561027291610d47565b036103565750806005029060058204036102c2578561027291610d47565b8b5162461bcd60e51b81528086018e905260168186015275496e636f727265637420537472696b6520507269636560501b6044820152fd5b634e487b7160e01b8652601188528686fd5b90919b506103b78c6103b28184610d7d565b610d70565b821c9190610215565b634e487b7160e01b8752601189528787fd5b99156102205760019950610220565b5050634e487b7160e01b82525060118352fd5b5050634e487b7160e01b815260118352fd5b508a5162461bcd60e51b81528085018d905260118185015270434453205661756c74206973207a65726f60781b60448201528890fd5b508c81813d8311610468575b6104528183610cf3565b81010312610464576101ad905161019d565b8280fd5b503d610448565b8c513d85823e3d90fd5b600654168d5192838092636151def160e11b82525afa801561046f5783906104b2575b6104ac91508a6003541690610d47565b906101af565b508c81813d83116104da575b6104c88183610cf3565b81010312610464576104ac905161049c565b503d6104be565b93929450505081813d831161051c575b6104fb8183610cf3565b8101031261051857518a811681036105185785918b8f9238610174565b8380fd5b503d6104f1565b8d513d86823e3d90fd5b50508a5162461bcd60e51b81528085018d905260188185015277139bc8189bdc9c9bddd95c9cc81a5b881c1c9bdd1bd8dbdb60421b60448201528890fd5b508d81813d8311610593575b6105818183610cf3565b8101031261051857610144905161012f565b503d610577565b8880fd5b90915034610464576060366003190112610464576105ba610cdd565b6001600160a01b039060243582811691908290036107545760443591838316809303610750577ff0c57e16840df040f15088dc2f81fe391c3923bec73e23a9662efc9c229c6a009485549460ff86891c16159567ffffffffffffffff811680159081610748575b600114908161073e575b159081610735575b506107255767ffffffffffffffff198116600117885586610706575b50610658610e4a565b610660610e4a565b61066933610d9d565b610671610e4a565b60018060a01b03199316838254161790558160055416176005556006541617600655670de0b6b3a76400008455620f4240600155620186a060025564e8d4a5100060018060801b031960035416176003556106ca578280f35b805460ff60401b1916905551600181527fc7f505b2f371ae2175ee4913f4499e1f2633a7b5936321eed1cdaeb6115181d290602090a138808280f35b68ffffffffffffffffff1916680100000000000000011787553861064f565b885163f92ee8a960e01b81528390fd5b90501538610633565b303b15915061062b565b889150610621565b8680fd5b8580fd5b909150346104645782600319360112610464578151908282019082821067ffffffffffffffff8311176107e25750825260058152602090640352e302e360dc1b8282015282519382859384528251928382860152825b8481106107cc57505050828201840152601f01601f19168101030190f35b81810183015188820188015287955082016107ae565b634e487b7160e01b855260419052602484fd5b83823461082b578160031936011261082b57600080516020610eef8339815191525490516001600160a01b039091168152602090f35b5080fd5b83346100b657806003193601126100b657610848610e11565b600080516020610eef83398151915280546001600160a01b0319811690915581906001600160a01b03167f8be0079c531659141344cd1fd0a4f28419497f9722a3daafe3b4186f6b6457e08280a380f35b9083346100b657806003193601126100b657507f00000000000000000000000000000000000000000000000000000000000000006001600160a01b031630036108f35760209051600080516020610f0f8339815191528152f35b5163703e46dd60e11b8152fd5b91508060031936011261046457610915610cdd565b90602493843567ffffffffffffffff811161082b573660238201121561082b578085013561094281610d2b565b9461094f85519687610cf3565b81865260209182870193368a8383010111610754578186928b8693018737880101526001600160a01b037f00000000000000000000000000000000000000000000000000000000000000008116308114908115610b22575b50610b12576109b4610e11565b81169585516352d1902d60e01b815283818a818b5afa869181610ae3575b506109ee575050505050505191634c9c8ce360e01b8352820152fd5b9088888894938c600080516020610f0f83398151915291828103610ace5750853b15610aba575080546001600160a01b031916821790558451889392917fbc7cd75a20ee27fd9adebab32041f755214dbc6bffa90cc0225b39da2e5c2d3b8580a2825115610a9c575050610a8e9582915190845af4913d15610a92573d610a80610a7782610d2b565b92519283610cf3565b81528581943d92013e610e8b565b5080f35b5060609250610e8b565b955095505050505034610aae57505080f35b63b398979f60e01b8152fd5b8651634c9c8ce360e01b8152808501849052fd5b8751632a87526960e21b815280860191909152fd5b9091508481813d8311610b0b575b610afb8183610cf3565b81010312610750575190386109d2565b503d610af1565b855163703e46dd60e11b81528890fd5b905081600080516020610f0f83398151915254161415386109a7565b8483913461082b57606036600319011261082b57610b5a610cc2565b6001600160801b039260249182358581169190829003610464576044359467ffffffffffffffff8616809603610518576006546001600160a01b03163303610c665750851680151580610c5d575b80610c54575b15610c19578402858116908103610c075781811115610bf85703958487116102b2578315610be857505050816020941604915b5191168152f35b634e487b7160e01b825260129052fd5b50509150506020935091610be1565b5050634e487b7160e01b815260118652fd5b865162461bcd60e51b81526020818a0152601681860152755a65726f20696e7075747320696e206f7074696f6e7360501b6044820152606490fd5b50841515610bae565b50811515610ba8565b62461bcd60e51b81526020898201526033858201527f546869732066756e6374696f6e2063616e206f6e6c792063616c6c656420627960448201527208189bdc9c9bddda5b99c818dbdb9d1c9858dd606a1b6064820152608490fd5b600435906001600160801b0382168203610cd857565b600080fd5b600435906001600160a01b0382168203610cd857565b90601f8019910116810190811067ffffffffffffffff821117610d1557604052565b634e487b7160e01b600052604160045260246000fd5b67ffffffffffffffff8111610d1557601f01601f191660200190565b81810292918115918404141715610d5a57565b634e487b7160e01b600052601160045260246000fd5b91908201809211610d5a57565b8115610d87570490565b634e487b7160e01b600052601260045260246000fd5b6001600160a01b03908116908115610df857600080516020610eef83398151915280546001600160a01b031981168417909155167f8be0079c531659141344cd1fd0a4f28419497f9722a3daafe3b4186f6b6457e0600080a3565b604051631e4fbdf760e01b815260006004820152602490fd5b600080516020610eef833981519152546001600160a01b03163303610e3257565b60405163118cdaa760e01b8152336004820152602490fd5b60ff7ff0c57e16840df040f15088dc2f81fe391c3923bec73e23a9662efc9c229c6a005460401c1615610e7957565b604051631afcd79f60e31b8152600490fd5b90610eb25750805115610ea057805190602001fd5b604051630a12f52160e11b8152600490fd5b81511580610ee5575b610ec3575090565b604051639996b31560e01b81526001600160a01b039091166004820152602490fd5b50803b15610ebb56fe9016d09d72d40fdae2fd8ceac6b6234c7706214fd39c1cd1e609a0528c199300360894a13ba1a3210667c828492db98dca3e2076cc3735a920a3ca505d382bbca26469706673582212203f1043800b98b3f43407b79b98a22469ad8b5567f2ba09b3390e8d78ecb782ab64736f6c63430008140033","linkReferences":{}},"methodIdentifiers":{"UPGRADE_INTERFACE_VERSION()":"ad3cb1cc","calculateOptionPrice(uint128,uint256,uint256,uint8)":"d22d4302","calculateStrikePriceGains(uint128,uint128,uint64)":"0e1fab43","initialize(address,address,address)":"c0c53b8b","owner()":"8da5cb5b","proxiableUUID()":"52d1902d","renounceOwnership()":"715018a6","transferOwnership(address)":"f2fde38b","upgradeToAndCall(address,bytes)":"4f1ef286"},"id":0}