{"abi":[{"type":"function","name":"UPGRADE_INTERFACE_VERSION","inputs":[],"outputs":[{"name":"","type":"string","internalType":"string"}],"stateMutability":"view"},{"type":"function","name":"calculateOptionPrice","inputs":[{"name":"_ethPrice","type":"uint128","internalType":"uint128"},{"name":"_ethVolatility","type":"uint256","internalType":"uint256"},{"name":"_amount","type":"uint256","internalType":"uint256"},{"name":"_strikePrice","type":"uint8","internalType":"enum Options.StrikePrice"}],"outputs":[{"name":"","type":"uint256","internalType":"uint256"}],"stateMutability":"view"},{"type":"function","name":"calculateStrikePriceGains","inputs":[{"name":"depositedAmount","type":"uint128","internalType":"uint128"},{"name":"strikePrice","type":"uint128","internalType":"uint128"},{"name":"ethPrice","type":"uint64","internalType":"uint64"}],"outputs":[{"name":"","type":"uint128","internalType":"uint128"}],"stateMutability":"view"},{"type":"function","name":"initialize","inputs":[{"name":"_treasuryAddress","type":"address","internalType":"address"},{"name":"_cdsAddress","type":"address","internalType":"address"},{"name":"_borrowingAddress","type":"address","internalType":"address"}],"outputs":[],"stateMutability":"nonpayable"},{"type":"function","name":"owner","inputs":[],"outputs":[{"name":"","type":"address","internalType":"address"}],"stateMutability":"view"},{"type":"function","name":"proxiableUUID","inputs":[],"outputs":[{"name":"","type":"bytes32","internalType":"bytes32"}],"stateMutability":"view"},{"type":"function","name":"renounceOwnership","inputs":[],"outputs":[],"stateMutability":"nonpayable"},{"type":"function","name":"transferOwnership","inputs":[{"name":"newOwner","type":"address","internalType":"address"}],"outputs":[],"stateMutability":"nonpayable"},{"type":"function","name":"upgradeToAndCall","inputs":[{"name":"newImplementation","type":"address","internalType":"address"},{"name":"data","type":"bytes","internalType":"bytes"}],"outputs":[],"stateMutability":"payable"},{"type":"event","name":"Initialized","inputs":[{"name":"version","type":"uint64","indexed":false,"internalType":"uint64"}],"anonymous":false},{"type":"event","name":"OwnershipTransferred","inputs":[{"name":"previousOwner","type":"address","indexed":true,"internalType":"address"},{"name":"newOwner","type":"address","indexed":true,"internalType":"address"}],"anonymous":false},{"type":"event","name":"Upgraded","inputs":[{"name":"implementation","type":"address","indexed":true,"internalType":"address"}],"anonymous":false},{"type":"error","name":"AddressEmptyCode","inputs":[{"name":"target","type":"address","internalType":"address"}]},{"type":"error","name":"ERC1967InvalidImplementation","inputs":[{"name":"implementation","type":"address","internalType":"address"}]},{"type":"error","name":"ERC1967NonPayable","inputs":[]},{"type":"error","name":"FailedInnerCall","inputs":[]},{"type":"error","name":"InvalidInitialization","inputs":[]},{"type":"error","name":"NotInitializing","inputs":[]},{"type":"error","name":"OwnableInvalidOwner","inputs":[{"name":"owner","type":"address","internalType":"address"}]},{"type":"error","name":"OwnableUnauthorizedAccount","inputs":[{"name":"account","type":"address","internalType":"address"}]},{"type":"error","name":"UUPSUnauthorizedCallContext","inputs":[]},{"type":"error","name":"UUPSUnsupportedProxiableUUID","inputs":[{"name":"slot","type":"bytes32","internalType":"bytes32"}]}],"bytecode":{"object":"0x60a06040523060805234801561001457600080fd5b5060805161140f61003e60003960008181610ae601528181610b0f0152610c55015261140f6000f3fe6080604052600436106100865760003560e01c80638da5cb5b116100595780638da5cb5b14610115578063ad3cb1cc1461015c578063c0c53b8b1461019a578063d22d4302146101ba578063f2fde38b146101da57600080fd5b80630e1fab431461008b5780634f1ef286146100c857806352d1902d146100dd578063715018a614610100575b600080fd5b34801561009757600080fd5b506100ab6100a6366004611025565b6101fa565b6040516001600160801b0390911681526020015b60405180910390f35b6100db6100d63660046110aa565b61035d565b005b3480156100e957600080fd5b506100f261037c565b6040519081526020016100bf565b34801561010c57600080fd5b506100db610399565b34801561012157600080fd5b507f9016d09d72d40fdae2fd8ceac6b6234c7706214fd39c1cd1e609a0528c199300546040516001600160a01b0390911681526020016100bf565b34801561016857600080fd5b5061018d604051806040016040528060058152602001640352e302e360dc1b81525081565b6040516100bf9190611190565b3480156101a657600080fd5b506100db6101b53660046111c3565b6103ad565b3480156101c657600080fd5b506100f26101d5366004611206565b61053e565b3480156101e657600080fd5b506100db6101f5366004611254565b610a9d565b6006546000906001600160a01b031633146102785760405162461bcd60e51b815260206004820152603360248201527f546869732066756e6374696f6e2063616e206f6e6c792063616c6c656420627960448201527208189bdc9c9bddda5b99c818dbdb9d1c9858dd606a1b60648201526084015b60405180910390fd5b6001600160801b0384161580159061029857506001600160801b03831615155b80156102ad575067ffffffffffffffff821615155b6102f25760405162461bcd60e51b81526020600482015260166024820152755a65726f20696e7075747320696e206f7074696f6e7360501b604482015260640161026f565b81600061030967ffffffffffffffff831687611285565b90506000856001600160801b0316826001600160801b0316111561034d5767ffffffffffffffff831661033c87846112b0565b61034691906112ed565b9050610351565b5060005b925050505b9392505050565b610365610adb565b61036e82610b80565b6103788282610b88565b5050565b6000610386610c4a565b506000805160206113ba83398151915290565b6103a1610c93565b6103ab6000610cee565b565b7ff0c57e16840df040f15088dc2f81fe391c3923bec73e23a9662efc9c229c6a008054600160401b810460ff16159067ffffffffffffffff166000811580156103f35750825b905060008267ffffffffffffffff1660011480156104105750303b155b90508115801561041e575080155b1561043c5760405163f92ee8a960e01b815260040160405180910390fd5b845467ffffffffffffffff19166001178555831561046657845460ff60401b1916600160401b1785555b61046f33610d5f565b610477610d70565b600480546001600160a01b03808b166001600160a01b031992831617909255600580548a84169083161790556006805492891692909116919091179055670de0b6b3a7640000600055620f4240600155620186a0600255600380546fffffffffffffffffffffffffffffffff191664e8d4a51000179055831561053457845460ff60401b19168555604051600181527fc7f505b2f371ae2175ee4913f4499e1f2633a7b5936321eed1cdaeb6115181d29060200160405180910390a15b5050505050505050565b6000836001600160801b038616826105568287611313565b6004805460408051631506d82560e21b815290516001600160a01b039092169263541b60949282820192602092908290030181865afa15801561059d573d6000803e3d6000fd5b505050506040513d601f19601f820116820180604052508101906105c1919061132a565b6105cb9190611343565b90508060000361061d5760405162461bcd60e51b815260206004820152601860248201527f4e6f20626f72726f7765727320696e2070726f746f636f6c0000000000000000604482015260640161026f565b6000600460009054906101000a90046001600160a01b03166001600160a01b03166345aeb0ce6040518163ffffffff1660e01b8152600401602060405180830381865afa158015610672573d6000803e3d6000fd5b505050506040513d601f19601f820116820180604052508101906106969190611356565b6001600160801b031660000361073d57600354600554604080516315d9753160e11b815290516001600160801b03909316926001600160a01b0390921691632bb2ea62916004808201926020929091908290030181865afa1580156106ff573d6000803e3d6000fd5b505050506040513d601f19601f820116820180604052508101906107239190611356565b61072d9190611285565b6001600160801b031690506107c7565b6003546006546040805163109d242560e31b815290516001600160801b03909316926001600160a01b03909216916384e92128916004808201926020929091908290030181865afa158015610796573d6000803e3d6000fd5b505050506040513d601f19601f820116820180604052508101906107ba919061132a565b6107c49190611313565b90505b816000036108175760405162461bcd60e51b815260206004820152601860248201527f54726561737572792062616c616e6365206973207a65726f0000000000000000604482015260640161026f565b8060000361085b5760405162461bcd60e51b8152602060048201526011602482015270434453205661756c74206973207a65726f60781b604482015260640161026f565b60008260025483606461086e9190611313565b6108789190611313565b6108829190611373565b905060008160025460005460036108999190611313565b6108a39190611313565b6108ad9190611373565b6002546000546108d1886108c28b600a611313565b6108cc9190611313565b610d78565b6108db9190611313565b6108e59190611373565b6108ef9190611343565b905060008089600481111561090657610906611387565b0361094c57610916876003611313565b826002546101906109279190611313565b6109319190611313565b61093b9190611373565b6109459083611343565b9050610a5d565b600189600481111561096057610960611387565b0361098057610970876003611313565b8260025460646109279190611313565b600289600481111561099457610994611387565b036109b4576109a4876003611313565b8260025460326109279190611313565b60038960048111156109c8576109c8611387565b036109e8576109d8876003611313565b82600254600a6109279190611313565b60048960048111156109fc576109fc611387565b03610a1c57610a0c876003611313565b8260025460056109279190611313565b60405162461bcd60e51b8152602060048201526016602482015275496e636f727265637420537472696b6520507269636560501b604482015260640161026f565b6003546000546001600160801b0390911690610a798c84611313565b610a839190611373565b610a8d9190611373565b9c9b505050505050505050505050565b610aa5610c93565b6001600160a01b038116610acf57604051631e4fbdf760e01b81526000600482015260240161026f565b610ad881610cee565b50565b306001600160a01b037f0000000000000000000000000000000000000000000000000000000000000000161480610b6257507f00000000000000000000000000000000000000000000000000000000000000006001600160a01b0316610b566000805160206113ba833981519152546001600160a01b031690565b6001600160a01b031614155b156103ab5760405163703e46dd60e11b815260040160405180910390fd5b610ad8610c93565b816001600160a01b03166352d1902d6040518163ffffffff1660e01b8152600401602060405180830381865afa925050508015610be2575060408051601f3d908101601f19168201909252610bdf9181019061132a565b60015b610c0a57604051634c9c8ce360e01b81526001600160a01b038316600482015260240161026f565b6000805160206113ba8339815191528114610c3b57604051632a87526960e21b81526004810182905260240161026f565b610c458383610de8565b505050565b306001600160a01b037f000000000000000000000000000000000000000000000000000000000000000016146103ab5760405163703e46dd60e11b815260040160405180910390fd5b33610cc57f9016d09d72d40fdae2fd8ceac6b6234c7706214fd39c1cd1e609a0528c199300546001600160a01b031690565b6001600160a01b0316146103ab5760405163118cdaa760e01b815233600482015260240161026f565b7f9016d09d72d40fdae2fd8ceac6b6234c7706214fd39c1cd1e609a0528c19930080546001600160a01b031981166001600160a01b03848116918217845560405192169182907f8be0079c531659141344cd1fd0a4f28419497f9722a3daafe3b4186f6b6457e090600090a3505050565b610d67610e3e565b610ad881610e87565b6103ab610e3e565b60006003821115610dd95750806000610d92600283611373565b610d9d906001611343565b90505b81811015610dd357905080600281610db88186611373565b610dc29190611343565b610dcc9190611373565b9050610da0565b50919050565b8115610de3575060015b919050565b610df182610e8f565b6040516001600160a01b038316907fbc7cd75a20ee27fd9adebab32041f755214dbc6bffa90cc0225b39da2e5c2d3b90600090a2805115610e3657610c458282610ef4565b610378610f6c565b7ff0c57e16840df040f15088dc2f81fe391c3923bec73e23a9662efc9c229c6a0054600160401b900460ff166103ab57604051631afcd79f60e31b815260040160405180910390fd5b610aa5610e3e565b806001600160a01b03163b600003610ec557604051634c9c8ce360e01b81526001600160a01b038216600482015260240161026f565b6000805160206113ba83398151915280546001600160a01b0319166001600160a01b0392909216919091179055565b6060600080846001600160a01b031684604051610f11919061139d565b600060405180830381855af49150503d8060008114610f4c576040519150601f19603f3d011682016040523d82523d6000602084013e610f51565b606091505b5091509150610f61858383610f8b565b925050505b92915050565b34156103ab5760405163b398979f60e01b815260040160405180910390fd5b606082610fa057610f9b82610fe7565b610356565b8151158015610fb757506001600160a01b0384163b155b15610fe057604051639996b31560e01b81526001600160a01b038516600482015260240161026f565b5080610356565b805115610ff75780518082602001fd5b604051630a12f52160e11b815260040160405180910390fd5b6001600160801b0381168114610ad857600080fd5b60008060006060848603121561103a57600080fd5b833561104581611010565b9250602084013561105581611010565b9150604084013567ffffffffffffffff8116811461107257600080fd5b809150509250925092565b80356001600160a01b0381168114610de357600080fd5b634e487b7160e01b600052604160045260246000fd5b600080604083850312156110bd57600080fd5b6110c68361107d565b9150602083013567ffffffffffffffff808211156110e357600080fd5b818501915085601f8301126110f757600080fd5b81358181111561110957611109611094565b604051601f8201601f19908116603f0116810190838211818310171561113157611131611094565b8160405282815288602084870101111561114a57600080fd5b8260208601602083013760006020848301015280955050505050509250929050565b60005b8381101561118757818101518382015260200161116f565b50506000910152565b60208152600082518060208401526111af81604085016020870161116c565b601f01601f19169190910160400192915050565b6000806000606084860312156111d857600080fd5b6111e18461107d565b92506111ef6020850161107d565b91506111fd6040850161107d565b90509250925092565b6000806000806080858703121561121c57600080fd5b843561122781611010565b9350602085013592506040850135915060608501356005811061124957600080fd5b939692955090935050565b60006020828403121561126657600080fd5b6103568261107d565b634e487b7160e01b600052601160045260246000fd5b6001600160801b038181168382160280821691908281146112a8576112a861126f565b505092915050565b6001600160801b038281168282160390808211156112d0576112d061126f565b5092915050565b634e487b7160e01b600052601260045260246000fd5b60006001600160801b0380841680611307576113076112d7565b92169190910492915050565b8082028115828204841417610f6657610f6661126f565b60006020828403121561133c57600080fd5b5051919050565b80820180821115610f6657610f6661126f565b60006020828403121561136857600080fd5b815161035681611010565b600082611382576113826112d7565b500490565b634e487b7160e01b600052602160045260246000fd5b600082516113af81846020870161116c565b919091019291505056fe360894a13ba1a3210667c828492db98dca3e2076cc3735a920a3ca505d382bbca2646970667358221220fb8739105361d9bf85ca0cd8859b84d08f4ab9d70dde913e42fa33b2542afbfb64736f6c63430008140033","linkReferences":{}},"methodIdentifiers":{"UPGRADE_INTERFACE_VERSION()":"ad3cb1cc","calculateOptionPrice(uint128,uint256,uint256,uint8)":"d22d4302","calculateStrikePriceGains(uint128,uint128,uint64)":"0e1fab43","initialize(address,address,address)":"c0c53b8b","owner()":"8da5cb5b","proxiableUUID()":"52d1902d","renounceOwnership()":"715018a6","transferOwnership(address)":"f2fde38b","upgradeToAndCall(address,bytes)":"4f1ef286"},"id":0}