{"abi":[{"type":"function","name":"UPGRADE_INTERFACE_VERSION","inputs":[],"outputs":[{"name":"","type":"string","internalType":"string"}],"stateMutability":"view"},{"type":"function","name":"allowance","inputs":[{"name":"owner","type":"address","internalType":"address"},{"name":"spender","type":"address","internalType":"address"}],"outputs":[{"name":"","type":"uint256","internalType":"uint256"}],"stateMutability":"view"},{"type":"function","name":"approve","inputs":[{"name":"spender","type":"address","internalType":"address"},{"name":"value","type":"uint256","internalType":"uint256"}],"outputs":[{"name":"","type":"bool","internalType":"bool"}],"stateMutability":"nonpayable"},{"type":"function","name":"balanceOf","inputs":[{"name":"account","type":"address","internalType":"address"}],"outputs":[{"name":"","type":"uint256","internalType":"uint256"}],"stateMutability":"view"},{"type":"function","name":"burn","inputs":[{"name":"value","type":"uint256","internalType":"uint256"}],"outputs":[],"stateMutability":"nonpayable"},{"type":"function","name":"burnFrom","inputs":[{"name":"account","type":"address","internalType":"address"},{"name":"value","type":"uint256","internalType":"uint256"}],"outputs":[],"stateMutability":"nonpayable"},{"type":"function","name":"burnFromUser","inputs":[{"name":"to","type":"address","internalType":"address"},{"name":"amount","type":"uint256","internalType":"uint256"}],"outputs":[{"name":"","type":"bool","internalType":"bool"}],"stateMutability":"nonpayable"},{"type":"function","name":"decimals","inputs":[],"outputs":[{"name":"","type":"uint8","internalType":"uint8"}],"stateMutability":"pure"},{"type":"function","name":"initialize","inputs":[],"outputs":[],"stateMutability":"nonpayable"},{"type":"function","name":"mint","inputs":[{"name":"to","type":"address","internalType":"address"},{"name":"amount","type":"uint256","internalType":"uint256"}],"outputs":[{"name":"","type":"bool","internalType":"bool"}],"stateMutability":"nonpayable"},{"type":"function","name":"name","inputs":[],"outputs":[{"name":"","type":"string","internalType":"string"}],"stateMutability":"view"},{"type":"function","name":"owner","inputs":[],"outputs":[{"name":"","type":"address","internalType":"address"}],"stateMutability":"view"},{"type":"function","name":"pause","inputs":[],"outputs":[],"stateMutability":"nonpayable"},{"type":"function","name":"paused","inputs":[],"outputs":[{"name":"","type":"bool","internalType":"bool"}],"stateMutability":"view"},{"type":"function","name":"proxiableUUID","inputs":[],"outputs":[{"name":"","type":"bytes32","internalType":"bytes32"}],"stateMutability":"view"},{"type":"function","name":"renounceOwnership","inputs":[],"outputs":[],"stateMutability":"nonpayable"},{"type":"function","name":"symbol","inputs":[],"outputs":[{"name":"","type":"string","internalType":"string"}],"stateMutability":"view"},{"type":"function","name":"totalSupply","inputs":[],"outputs":[{"name":"","type":"uint256","internalType":"uint256"}],"stateMutability":"view"},{"type":"function","name":"transfer","inputs":[{"name":"to","type":"address","internalType":"address"},{"name":"value","type":"uint256","internalType":"uint256"}],"outputs":[{"name":"","type":"bool","internalType":"bool"}],"stateMutability":"nonpayable"},{"type":"function","name":"transferFrom","inputs":[{"name":"from","type":"address","internalType":"address"},{"name":"to","type":"address","internalType":"address"},{"name":"value","type":"uint256","internalType":"uint256"}],"outputs":[{"name":"","type":"bool","internalType":"bool"}],"stateMutability":"nonpayable"},{"type":"function","name":"transferOwnership","inputs":[{"name":"newOwner","type":"address","internalType":"address"}],"outputs":[],"stateMutability":"nonpayable"},{"type":"function","name":"unpause","inputs":[],"outputs":[],"stateMutability":"nonpayable"},{"type":"function","name":"upgradeToAndCall","inputs":[{"name":"newImplementation","type":"address","internalType":"address"},{"name":"data","type":"bytes","internalType":"bytes"}],"outputs":[],"stateMutability":"payable"},{"type":"function","name":"whitelist","inputs":[{"name":"","type":"address","internalType":"address"}],"outputs":[{"name":"","type":"bool","internalType":"bool"}],"stateMutability":"view"},{"type":"event","name":"Approval","inputs":[{"name":"owner","type":"address","indexed":true,"internalType":"address"},{"name":"spender","type":"address","indexed":true,"internalType":"address"},{"name":"value","type":"uint256","indexed":false,"internalType":"uint256"}],"anonymous":false},{"type":"event","name":"Initialized","inputs":[{"name":"version","type":"uint64","indexed":false,"internalType":"uint64"}],"anonymous":false},{"type":"event","name":"OwnershipTransferred","inputs":[{"name":"previousOwner","type":"address","indexed":true,"internalType":"address"},{"name":"newOwner","type":"address","indexed":true,"internalType":"address"}],"anonymous":false},{"type":"event","name":"Paused","inputs":[{"name":"account","type":"address","indexed":false,"internalType":"address"}],"anonymous":false},{"type":"event","name":"Transfer","inputs":[{"name":"from","type":"address","indexed":true,"internalType":"address"},{"name":"to","type":"address","indexed":true,"internalType":"address"},{"name":"value","type":"uint256","indexed":false,"internalType":"uint256"}],"anonymous":false},{"type":"event","name":"Unpaused","inputs":[{"name":"account","type":"address","indexed":false,"internalType":"address"}],"anonymous":false},{"type":"event","name":"Upgraded","inputs":[{"name":"implementation","type":"address","indexed":true,"internalType":"address"}],"anonymous":false},{"type":"error","name":"AddressEmptyCode","inputs":[{"name":"target","type":"address","internalType":"address"}]},{"type":"error","name":"ERC1967InvalidImplementation","inputs":[{"name":"implementation","type":"address","internalType":"address"}]},{"type":"error","name":"ERC1967NonPayable","inputs":[]},{"type":"error","name":"ERC20InsufficientAllowance","inputs":[{"name":"spender","type":"address","internalType":"address"},{"name":"allowance","type":"uint256","internalType":"uint256"},{"name":"needed","type":"uint256","internalType":"uint256"}]},{"type":"error","name":"ERC20InsufficientBalance","inputs":[{"name":"sender","type":"address","internalType":"address"},{"name":"balance","type":"uint256","internalType":"uint256"},{"name":"needed","type":"uint256","internalType":"uint256"}]},{"type":"error","name":"ERC20InvalidApprover","inputs":[{"name":"approver","type":"address","internalType":"address"}]},{"type":"error","name":"ERC20InvalidReceiver","inputs":[{"name":"receiver","type":"address","internalType":"address"}]},{"type":"error","name":"ERC20InvalidSender","inputs":[{"name":"sender","type":"address","internalType":"address"}]},{"type":"error","name":"ERC20InvalidSpender","inputs":[{"name":"spender","type":"address","internalType":"address"}]},{"type":"error","name":"EnforcedPause","inputs":[]},{"type":"error","name":"ExpectedPause","inputs":[]},{"type":"error","name":"FailedInnerCall","inputs":[]},{"type":"error","name":"InvalidInitialization","inputs":[]},{"type":"error","name":"NotInitializing","inputs":[]},{"type":"error","name":"OwnableInvalidOwner","inputs":[{"name":"owner","type":"address","internalType":"address"}]},{"type":"error","name":"OwnableUnauthorizedAccount","inputs":[{"name":"account","type":"address","internalType":"address"}]},{"type":"error","name":"UUPSUnauthorizedCallContext","inputs":[]},{"type":"error","name":"UUPSUnsupportedProxiableUUID","inputs":[{"name":"slot","type":"bytes32","internalType":"bytes32"}]}],"bytecode":{"object":"0x60a06040523060805234801561001457600080fd5b506080516116da61003e60003960008181610ab501528181610ade0152610c1f01526116da6000f3fe60806040526004361061014b5760003560e01c8063715018a6116100b65780639b19251a1161006f5780639b19251a146103c7578063a9059cbb146103f7578063ad3cb1cc14610417578063c753e12614610448578063dd62ed3e14610468578063f2fde38b1461048857600080fd5b8063715018a61461030c57806379cc6790146103215780638129fc1c146103415780638456cb59146103565780638da5cb5b1461036b57806395d89b41146103b257600080fd5b806340c10f191161010857806340c10f191461023c57806342966c681461025c5780634f1ef2861461027c57806352d1902d1461028f5780635c975abb146102a457806370a08231146102c957600080fd5b806306fdde0314610150578063095ea7b31461017b57806318160ddd146101ab57806323b872dd146101e9578063313ce567146102095780633f4ba83a14610225575b600080fd5b34801561015c57600080fd5b506101656104a8565b60405161017291906112b2565b60405180910390f35b34801561018757600080fd5b5061019b610196366004611301565b61056b565b6040519015158152602001610172565b3480156101b757600080fd5b507f52c63247e1f47db19d5ce0460030c497f067ca4cebf71ba98eeadabe20bace02545b604051908152602001610172565b3480156101f557600080fd5b5061019b61020436600461132b565b610585565b34801561021557600080fd5b5060405160068152602001610172565b34801561023157600080fd5b5061023a6105ab565b005b34801561024857600080fd5b5061019b610257366004611301565b6105bd565b34801561026857600080fd5b5061023a610277366004611367565b6105d2565b61023a61028a366004611396565b6105df565b34801561029b57600080fd5b506101db6105fe565b3480156102b057600080fd5b506000805160206116858339815191525460ff1661019b565b3480156102d557600080fd5b506101db6102e4366004611458565b6001600160a01b03166000908152600080516020611645833981519152602052604090205490565b34801561031857600080fd5b5061023a61061b565b34801561032d57600080fd5b5061023a61033c366004611301565b61062d565b34801561034d57600080fd5b5061023a610642565b34801561036257600080fd5b5061023a6107b9565b34801561037757600080fd5b507f9016d09d72d40fdae2fd8ceac6b6234c7706214fd39c1cd1e609a0528c199300546040516001600160a01b039091168152602001610172565b3480156103be57600080fd5b506101656107c9565b3480156103d357600080fd5b5061019b6103e2366004611458565b60006020819052908152604090205460ff1681565b34801561040357600080fd5b5061019b610412366004611301565b610808565b34801561042357600080fd5b50610165604051806040016040528060058152602001640352e302e360dc1b81525081565b34801561045457600080fd5b5061019b610463366004611301565b610816565b34801561047457600080fd5b506101db610483366004611473565b610822565b34801561049457600080fd5b5061023a6104a3366004611458565b61086c565b7f52c63247e1f47db19d5ce0460030c497f067ca4cebf71ba98eeadabe20bace038054606091600080516020611645833981519152916104e7906114a6565b80601f0160208091040260200160405190810160405280929190818152602001828054610513906114a6565b80156105605780601f1061053557610100808354040283529160200191610560565b820191906000526020600020905b81548152906001019060200180831161054357829003601f168201915b505050505091505090565b6000336105798185856108ac565b60019150505b92915050565b6000336105938582856108be565b61059e858585610924565b60019150505b9392505050565b6105b3610983565b6105bb6109de565b565b60006105c98383610a3e565b50600192915050565b6105dc3382610a74565b50565b6105e7610aaa565b6105f082610b4f565b6105fa8282610b57565b5050565b6000610608610c14565b5060008051602061166583398151915290565b610623610983565b6105bb6000610c5d565b6106388233836108be565b6105fa8282610a74565b7ff0c57e16840df040f15088dc2f81fe391c3923bec73e23a9662efc9c229c6a008054600160401b810460ff16159067ffffffffffffffff166000811580156106885750825b905060008267ffffffffffffffff1660011480156106a55750303b155b9050811580156106b3575080155b156106d15760405163f92ee8a960e01b815260040160405180910390fd5b845467ffffffffffffffff1916600117855583156106fb57845460ff60401b1916600160401b1785555b61074b6040518060400160405280601081526020016f2a32b9ba1020a6a4a72a102a27a5a2a760811b8152506040518060400160405280600681526020016515105352539560d21b815250610cce565b610753610ce0565b61075b610ce8565b61076433610cf8565b61076c610ce0565b83156107b257845460ff60401b19168555604051600181527fc7f505b2f371ae2175ee4913f4499e1f2633a7b5936321eed1cdaeb6115181d29060200160405180910390a15b5050505050565b6107c1610983565b6105bb610d09565b7f52c63247e1f47db19d5ce0460030c497f067ca4cebf71ba98eeadabe20bace048054606091600080516020611645833981519152916104e7906114a6565b600033610579818585610924565b60006105c9838361062d565b6001600160a01b0391821660009081527f52c63247e1f47db19d5ce0460030c497f067ca4cebf71ba98eeadabe20bace016020908152604080832093909416825291909152205490565b610874610983565b6001600160a01b0381166108a357604051631e4fbdf760e01b8152600060048201526024015b60405180910390fd5b6105dc81610c5d565b6108b98383836001610d52565b505050565b60006108ca8484610822565b9050600019811461091e578181101561090f57604051637dc7a0d960e11b81526001600160a01b0384166004820152602481018290526044810183905260640161089a565b61091e84848484036000610d52565b50505050565b6001600160a01b03831661094e57604051634b637e8f60e11b81526000600482015260240161089a565b6001600160a01b0382166109785760405163ec442f0560e01b81526000600482015260240161089a565b6108b9838383610e39565b336109b57f9016d09d72d40fdae2fd8ceac6b6234c7706214fd39c1cd1e609a0528c199300546001600160a01b031690565b6001600160a01b0316146105bb5760405163118cdaa760e01b815233600482015260240161089a565b6109e6610e44565b600080516020611685833981519152805460ff191681557f5db9ee0a495bf2e6ff9c91a7834c1ba4fdd244a5e8aa4e537bd38aeae4b073aa335b6040516001600160a01b03909116815260200160405180910390a150565b6001600160a01b038216610a685760405163ec442f0560e01b81526000600482015260240161089a565b6105fa60008383610e39565b6001600160a01b038216610a9e57604051634b637e8f60e11b81526000600482015260240161089a565b6105fa82600083610e39565b306001600160a01b037f0000000000000000000000000000000000000000000000000000000000000000161480610b3157507f00000000000000000000000000000000000000000000000000000000000000006001600160a01b0316610b25600080516020611665833981519152546001600160a01b031690565b6001600160a01b031614155b156105bb5760405163703e46dd60e11b815260040160405180910390fd5b6105dc610983565b816001600160a01b03166352d1902d6040518163ffffffff1660e01b8152600401602060405180830381865afa925050508015610bb1575060408051601f3d908101601f19168201909252610bae918101906114e0565b60015b610bd957604051634c9c8ce360e01b81526001600160a01b038316600482015260240161089a565b6000805160206116658339815191528114610c0a57604051632a87526960e21b81526004810182905260240161089a565b6108b98383610e74565b306001600160a01b037f000000000000000000000000000000000000000000000000000000000000000016146105bb5760405163703e46dd60e11b815260040160405180910390fd5b7f9016d09d72d40fdae2fd8ceac6b6234c7706214fd39c1cd1e609a0528c19930080546001600160a01b031981166001600160a01b03848116918217845560405192169182907f8be0079c531659141344cd1fd0a4f28419497f9722a3daafe3b4186f6b6457e090600090a3505050565b610cd6610eca565b6105fa8282610f13565b6105bb610eca565b610cf0610eca565b6105bb610f64565b610d00610eca565b6105dc81610f85565b610d11610f8d565b600080516020611685833981519152805460ff191660011781557f62e78cea01bee320cd4e420270b5ea74000d11b0c9f74754ebdbfc544b05a25833610a20565b6000805160206116458339815191526001600160a01b038516610d8b5760405163e602df0560e01b81526000600482015260240161089a565b6001600160a01b038416610db557604051634a1406b160e11b81526000600482015260240161089a565b6001600160a01b038086166000908152600183016020908152604080832093881683529290522083905581156107b257836001600160a01b0316856001600160a01b03167f8c5be1e5ebec7d5bd14f71427d1e84f3dd0314c0f7b2291e5b200ac8c7c3b92585604051610e2a91815260200190565b60405180910390a35050505050565b6108b9838383610fbe565b6000805160206116858339815191525460ff166105bb57604051638dfc202b60e01b815260040160405180910390fd5b610e7d82610fd1565b6040516001600160a01b038316907fbc7cd75a20ee27fd9adebab32041f755214dbc6bffa90cc0225b39da2e5c2d3b90600090a2805115610ec2576108b98282611036565b6105fa6110ac565b7ff0c57e16840df040f15088dc2f81fe391c3923bec73e23a9662efc9c229c6a0054600160401b900460ff166105bb57604051631afcd79f60e31b815260040160405180910390fd5b610f1b610eca565b6000805160206116458339815191527f52c63247e1f47db19d5ce0460030c497f067ca4cebf71ba98eeadabe20bace03610f558482611547565b506004810161091e8382611547565b610f6c610eca565b600080516020611685833981519152805460ff19169055565b610874610eca565b6000805160206116858339815191525460ff16156105bb5760405163d93c066560e01b815260040160405180910390fd5b610fc6610f8d565b6108b98383836110cb565b806001600160a01b03163b60000361100757604051634c9c8ce360e01b81526001600160a01b038216600482015260240161089a565b60008051602061166583398151915280546001600160a01b0319166001600160a01b0392909216919091179055565b6060600080846001600160a01b0316846040516110539190611607565b600060405180830381855af49150503d806000811461108e576040519150601f19603f3d011682016040523d82523d6000602084013e611093565b606091505b50915091506110a3858383611209565b95945050505050565b34156105bb5760405163b398979f60e01b815260040160405180910390fd5b6000805160206116458339815191526001600160a01b03841661110757818160020160008282546110fc9190611623565b909155506111799050565b6001600160a01b0384166000908152602082905260409020548281101561115a5760405163391434e360e21b81526001600160a01b0386166004820152602481018290526044810184905260640161089a565b6001600160a01b03851660009081526020839052604090209083900390555b6001600160a01b0383166111975760028101805483900390556111b6565b6001600160a01b03831660009081526020829052604090208054830190555b826001600160a01b0316846001600160a01b03167fddf252ad1be2c89b69c2b068fc378daa952ba7f163c4a11628f55a4df523b3ef846040516111fb91815260200190565b60405180910390a350505050565b60608261121e5761121982611265565b6105a4565b815115801561123557506001600160a01b0384163b155b1561125e57604051639996b31560e01b81526001600160a01b038516600482015260240161089a565b50806105a4565b8051156112755780518082602001fd5b604051630a12f52160e11b815260040160405180910390fd5b60005b838110156112a9578181015183820152602001611291565b50506000910152565b60208152600082518060208401526112d181604085016020870161128e565b601f01601f19169190910160400192915050565b80356001600160a01b03811681146112fc57600080fd5b919050565b6000806040838503121561131457600080fd5b61131d836112e5565b946020939093013593505050565b60008060006060848603121561134057600080fd5b611349846112e5565b9250611357602085016112e5565b9150604084013590509250925092565b60006020828403121561137957600080fd5b5035919050565b634e487b7160e01b600052604160045260246000fd5b600080604083850312156113a957600080fd5b6113b2836112e5565b9150602083013567ffffffffffffffff808211156113cf57600080fd5b818501915085601f8301126113e357600080fd5b8135818111156113f5576113f5611380565b604051601f8201601f19908116603f0116810190838211818310171561141d5761141d611380565b8160405282815288602084870101111561143657600080fd5b8260208601602083013760006020848301015280955050505050509250929050565b60006020828403121561146a57600080fd5b6105a4826112e5565b6000806040838503121561148657600080fd5b61148f836112e5565b915061149d602084016112e5565b90509250929050565b600181811c908216806114ba57607f821691505b6020821081036114da57634e487b7160e01b600052602260045260246000fd5b50919050565b6000602082840312156114f257600080fd5b5051919050565b601f8211156108b957600081815260208120601f850160051c810160208610156115205750805b601f850160051c820191505b8181101561153f5782815560010161152c565b505050505050565b815167ffffffffffffffff81111561156157611561611380565b6115758161156f84546114a6565b846114f9565b602080601f8311600181146115aa57600084156115925750858301515b600019600386901b1c1916600185901b17855561153f565b600085815260208120601f198616915b828110156115d9578886015182559484019460019091019084016115ba565b50858210156115f75787850151600019600388901b60f8161c191681555b5050505050600190811b01905550565b6000825161161981846020870161128e565b9190910192915050565b8082018082111561057f57634e487b7160e01b600052601160045260246000fdfe52c63247e1f47db19d5ce0460030c497f067ca4cebf71ba98eeadabe20bace00360894a13ba1a3210667c828492db98dca3e2076cc3735a920a3ca505d382bbccd5ed15c6e187e77e9aee88184c21f4f2182ab5827cb3b7e07fbedcd63f03300a2646970667358221220b5a6366b6185c63e394f93cf839ef93f752c86c5cb4cba66257db41a60e0dc3164736f6c63430008140033","linkReferences":{}},"methodIdentifiers":{"UPGRADE_INTERFACE_VERSION()":"ad3cb1cc","allowance(address,address)":"dd62ed3e","approve(address,uint256)":"095ea7b3","balanceOf(address)":"70a08231","burn(uint256)":"42966c68","burnFrom(address,uint256)":"79cc6790","burnFromUser(address,uint256)":"c753e126","decimals()":"313ce567","initialize()":"8129fc1c","mint(address,uint256)":"40c10f19","name()":"06fdde03","owner()":"8da5cb5b","pause()":"8456cb59","paused()":"5c975abb","proxiableUUID()":"52d1902d","renounceOwnership()":"715018a6","symbol()":"95d89b41","totalSupply()":"18160ddd","transfer(address,uint256)":"a9059cbb","transferFrom(address,address,uint256)":"23b872dd","transferOwnership(address)":"f2fde38b","unpause()":"3f4ba83a","upgradeToAndCall(address,bytes)":"4f1ef286","whitelist(address)":"9b19251a"},"id":3}