{"abi":[{"type":"constructor","inputs":[{"name":"_owners","type":"address[]","internalType":"address[]"},{"name":"_requiredApprovals","type":"uint64","internalType":"uint64"}],"stateMutability":"nonpayable"},{"type":"function","name":"approve","inputs":[],"outputs":[],"stateMutability":"nonpayable"},{"type":"function","name":"approved","inputs":[{"name":"","type":"address","internalType":"address"}],"outputs":[{"name":"","type":"bool","internalType":"bool"}],"stateMutability":"view"},{"type":"function","name":"execute","inputs":[],"outputs":[{"name":"","type":"bool","internalType":"bool"}],"stateMutability":"nonpayable"},{"type":"function","name":"isOwner","inputs":[{"name":"","type":"address","internalType":"address"}],"outputs":[{"name":"","type":"bool","internalType":"bool"}],"stateMutability":"view"},{"type":"function","name":"owners","inputs":[{"name":"","type":"uint256","internalType":"uint256"}],"outputs":[{"name":"","type":"address","internalType":"address"}],"stateMutability":"view"},{"type":"function","name":"requiredApprovals","inputs":[],"outputs":[{"name":"","type":"uint64","internalType":"uint64"}],"stateMutability":"view"}],"bytecode":{"object":"0x608060405234801561001057600080fd5b5060405161088a38038061088a83398101604081905261002f916102bd565b60008251116100775760405162461bcd60e51b815260206004820152600f60248201526e13dddb995c9cc81c995c5d5a5c9959608a1b60448201526064015b60405180910390fd5b6000816001600160401b031611801561009a57508151816001600160401b031611155b6100f25760405162461bcd60e51b8152602060048201526024808201527f496e76616c6964206e756d626572206f6620726571756972656420617070726f60448201526376616c7360e01b606482015260840161006e565b60005b8251816001600160401b0316101561024d57600083826001600160401b03168151811061012457610124610393565b6020026020010151905060006001600160a01b0316816001600160a01b0316036101805760405162461bcd60e51b815260206004820152600d60248201526c24b73b30b634b21037bbb732b960991b604482015260640161006e565b6001600160a01b03811660009081526001602052604090205460ff16156101db5760405162461bcd60e51b815260206004820152600f60248201526e223ab83634b1b0ba329037bbb732b960891b604482015260640161006e565b6001600160a01b031660008181526001602081905260408220805460ff191682179055815490810182559080527f290decd9548b62a8d60345a988386fc84ba6bc95484008f6362f93160ef3e5630180546001600160a01b031916909117905580610245816103a9565b9150506100f5565b50600280546001600160401b0319166001600160401b0392909216919091179055506103e5565b634e487b7160e01b600052604160045260246000fd5b80516001600160a01b03811681146102a157600080fd5b919050565b80516001600160401b03811681146102a157600080fd5b600080604083850312156102d057600080fd5b82516001600160401b03808211156102e757600080fd5b818501915085601f8301126102fb57600080fd5b815160208282111561030f5761030f610274565b8160051b604051601f19603f8301168101818110868211171561033457610334610274565b60405292835281830193508481018201928984111561035257600080fd5b948201945b83861015610377576103688661028a565b85529482019493820193610357565b965061038690508782016102a6565b9450505050509250929050565b634e487b7160e01b600052603260045260246000fd5b60006001600160401b038281166002600160401b031981016103db57634e487b7160e01b600052601160045260246000fd5b6001019392505050565b610496806103f46000396000f3fe608060405234801561001057600080fd5b50600436106100625760003560e01c8063025e7c271461006757806312424e3f146100975780632f54bf6e146100a157806361461954146100d457806399c1aadc146100dc578063d8b964e614610109575b600080fd5b61007a61007536600461039c565b61012c565b6040516001600160a01b0390911681526020015b60405180910390f35b61009f610156565b005b6100c46100af3660046103b5565b60016020526000908152604090205460ff1681565b604051901515815260200161008e565b6100c4610218565b6002546100f09067ffffffffffffffff1681565b60405167ffffffffffffffff909116815260200161008e565b6100c46101173660046103b5565b60036020526000908152604090205460ff1681565b6000818154811061013c57600080fd5b6000918252602090912001546001600160a01b0316905081565b3360009081526001602052604090205460ff166101a95760405162461bcd60e51b815260206004820152600c60248201526b2737ba1030b71037bbb732b960a11b60448201526064015b60405180910390fd5b3360009081526003602052604090205460ff16156101fc5760405162461bcd60e51b815260206004820152601060248201526f105b1c9958591e48185c1c1c9bdd995960821b60448201526064016101a0565b336000908152600360205260409020805460ff19166001179055565b60025460009067ffffffffffffffff1661023061030f565b67ffffffffffffffff1610156102885760405162461bcd60e51b815260206004820152601a60248201527f526571756972656420617070726f76616c73206e6f74206d657400000000000060448201526064016101a0565b60005b60005467ffffffffffffffff8216101561030757600060036000808467ffffffffffffffff16815481106102c1576102c16103e5565b6000918252602080832091909101546001600160a01b031683528201929092526040019020805460ff1916911515919091179055806102ff81610411565b91505061028b565b506001905090565b60008060005b60005467ffffffffffffffff821610156103965760036000808367ffffffffffffffff1681548110610349576103496103e5565b60009182526020808320909101546001600160a01b0316835282019290925260400190205460ff161561038457610381600183610438565b91505b8061038e81610411565b915050610315565b50919050565b6000602082840312156103ae57600080fd5b5035919050565b6000602082840312156103c757600080fd5b81356001600160a01b03811681146103de57600080fd5b9392505050565b634e487b7160e01b600052603260045260246000fd5b634e487b7160e01b600052601160045260246000fd5b600067ffffffffffffffff80831681810361042e5761042e6103fb565b6001019392505050565b67ffffffffffffffff818116838216019080821115610459576104596103fb565b509291505056fea2646970667358221220318d5f8675d1f1925cd1fe1f37702617b68b6b92bdfd18eedb371193219f812364736f6c63430008120033","linkReferences":{}},"methodIdentifiers":{"approve()":"12424e3f","approved(address)":"d8b964e6","execute()":"61461954","isOwner(address)":"2f54bf6e","owners(uint256)":"025e7c27","requiredApprovals()":"99c1aadc"},"id":2}