{"abi":[{"type":"constructor","inputs":[{"name":"_owners","type":"address[]","internalType":"address[]"},{"name":"_requiredApprovals","type":"uint64","internalType":"uint64"}],"stateMutability":"nonpayable"},{"type":"function","name":"approveBorrowingPause","inputs":[],"outputs":[],"stateMutability":"nonpayable"},{"type":"function","name":"approveBorrowingUnPause","inputs":[],"outputs":[],"stateMutability":"nonpayable"},{"type":"function","name":"approveCDSPause","inputs":[],"outputs":[],"stateMutability":"nonpayable"},{"type":"function","name":"approveCDSUnPause","inputs":[],"outputs":[],"stateMutability":"nonpayable"},{"type":"function","name":"approvePause","inputs":[{"name":"_function","type":"uint8","internalType":"enum MultiSign.Functions"}],"outputs":[],"stateMutability":"nonpayable"},{"type":"function","name":"approveSetAPR","inputs":[],"outputs":[],"stateMutability":"nonpayable"},{"type":"function","name":"approveUnPause","inputs":[{"name":"_function","type":"uint8","internalType":"enum MultiSign.Functions"}],"outputs":[],"stateMutability":"nonpayable"},{"type":"function","name":"approvedSetAPR","inputs":[{"name":"","type":"address","internalType":"address"}],"outputs":[{"name":"","type":"bool","internalType":"bool"}],"stateMutability":"view"},{"type":"function","name":"executeSetAPR","inputs":[],"outputs":[{"name":"","type":"bool","internalType":"bool"}],"stateMutability":"nonpayable"},{"type":"function","name":"functionState","inputs":[{"name":"","type":"uint8","internalType":"enum MultiSign.Functions"}],"outputs":[{"name":"paused","type":"bool","internalType":"bool"}],"stateMutability":"view"},{"type":"function","name":"isOwner","inputs":[{"name":"","type":"address","internalType":"address"}],"outputs":[{"name":"","type":"bool","internalType":"bool"}],"stateMutability":"view"},{"type":"function","name":"owners","inputs":[{"name":"","type":"uint256","internalType":"uint256"}],"outputs":[{"name":"","type":"address","internalType":"address"}],"stateMutability":"view"},{"type":"function","name":"pauseBorrowing","inputs":[],"outputs":[],"stateMutability":"nonpayable"},{"type":"function","name":"pauseCDS","inputs":[],"outputs":[],"stateMutability":"nonpayable"},{"type":"function","name":"pauseFunction","inputs":[{"name":"_function","type":"uint8","internalType":"enum MultiSign.Functions"}],"outputs":[],"stateMutability":"nonpayable"},{"type":"function","name":"requiredApprovals","inputs":[],"outputs":[{"name":"","type":"uint64","internalType":"uint64"}],"stateMutability":"view"},{"type":"function","name":"unpauseBorrowing","inputs":[],"outputs":[],"stateMutability":"nonpayable"},{"type":"function","name":"unpauseCDS","inputs":[],"outputs":[],"stateMutability":"nonpayable"},{"type":"function","name":"unpauseFunction","inputs":[{"name":"_function","type":"uint8","internalType":"enum MultiSign.Functions"}],"outputs":[],"stateMutability":"nonpayable"}],"bytecode":{"object":"0x60406080815234620002cd5762001e4e803803806200001e81620002fe565b9283398101908281830312620002cd5780516001600160401b039390848111620002cd5782019280601f85011215620002cd578351928584116200019a5760059184831b602096878062000074818501620002fe565b809981520192820101928311620002cd5790878094939201905b828210620002d257505050015192858416809403620002cd578051156200029757831515806200028b575b156200023b5760005b815187821610156200021a5780831b6020600160451b031682018601516001600160a01b0316908115620001e6578160005260019182885260ff866000205416620001b0576000818152838952868120805460ff1916851790555492680100000000000000008410156200019a578301806000558310156200018457600080805288902090920180546001600160a01b03191690921790915586168087146200016e57600101620000c2565b634e487b7160e01b600052601160045260246000fd5b634e487b7160e01b600052603260045260246000fd5b634e487b7160e01b600052604160045260246000fd5b855162461bcd60e51b815260048101899052600f60248201526e223ab83634b1b0ba329037bbb732b960891b6044820152606490fd5b845162461bcd60e51b815260048101889052600d60248201526c24b73b30b634b21037bbb732b960991b6044820152606490fd5b600280546001600160401b031916861790558351611b299081620003258239f35b825162461bcd60e51b8152600481018690526024808201527f496e76616c6964206e756d626572206f6620726571756972656420617070726f60448201526376616c7360e01b6064820152608490fd5b508051841115620000b9565b825162461bcd60e51b815260048101869052600f60248201526e13dddb995c9cc81c995c5d5a5c9959608a1b6044820152606490fd5b600080fd5b815193945091929091906001600160a01b0381168103620002cd5781528793929184019084016200008e565b6040519190601f01601f191682016001600160401b038111838210176200019a5760405256fe6040608081526004908136101561001557600080fd5b600091823560e01c8063025e7c27146116d4578063167c6314146113005780631c441433146112265780632764bc5e146111e85780632eb14947146110b75780632f54bf6e146110795780633ea940e11461102c5780634580a44814610d55578063475d96941461096f5780635637e6ae1461085e57806357e356f41461080557806389ec1920146107aa57806399c1aadc146107825780639b4a95441461074c5780639f1eac0614610602578063bb6484c014610325578063c722f56b14610240578063d8378add146101665763feff7001146100f257600080fd5b34610162576020366003190112610162573560078110156101625761014c90338452600160205261012860ff84862054166117be565b610131816117a5565b33855260205261014760ff8486205416156117f9565b6117a5565b3383526020528120805460ff1916600117905580f35b8280fd5b509034610162578260031936011261016257600190338452602082815261019260ff83872054166117be565b83855260059384825282862033875282526101b360ff84882054161561197d565b84865284825282862033875282526101d160ff8488205416156119c9565b6006865284825282862033875282526101f060ff848820541615611a15565b855283815281852033865281528185209360ff1994848682541617905580865280825282862033875282528286208486825416179055600686528152818520903386525283209182541617905580f35b82843461032257806003193601126103225780808154905b816001600160401b038216106102d45750506102856001600160401b039283806002541691161015611a61565b805b815483821610156102ca578061029f6102c592611713565b9054600391821b1c6001600160a01b03168452602052848320805460ff19169055611aad565b610287565b6020845160018152f35b6102dd81611713565b9054600391821b1c6001600160a01b031684526020528483205460ff1661030d575b61030890611aad565b610258565b9261031a61030891611adb565b9390506102ff565b80fd5b509190346105fe57816003193601126105fe573382526001602081815260ff6103528185872054166117be565b8490858654905b816001600160401b038216106105a85750506103866001600160401b039283806002541691161015611a61565b8386815b61057c575b505085868754905b81858216106105255750506103b59083806002541691161015611a61565b8386815b6104d2575b505085548691825b828582161061047b575050506103e59082806002541691161015611a61565b84835b610425575b5050600690858552528183209160ff199282848254161790556005845280842082848254161790556006845283209182541617905580f35b85548282161015610476579061046f84926006885288855286882061044982611713565b905460039190911b1c6001600160a01b031689528552868820805460ff19169055611aad565b90916103e8565b6103ed565b6006895289865287892061048e82611713565b905460039190911b1c6001600160a01b03168a5286528789205482166104bd575b6104b890611aad565b6103c6565b926104ca6104b891611adb565b9390506104af565b875484821610156105205761051a90600589528986528789206104f482611713565b905460039190911b1c6001600160a01b03168a528652878920805460ff19169055611aad565b816103b9565b6103be565b6005895289865287892061053882611713565b905460039190911b1c6001600160a01b03168a528652878920548416610567575b61056290611aad565b610397565b9161057461056291611adb565b929050610559565b875484821610156105a35761059d908989528986528789206104f482611713565b8161038a565b61038f565b8888528885528688206105ba82611713565b905460039190911b1c6001600160a01b0316895285528688205483166105e9575b6105e490611aad565b610359565b926105f66105e491611adb565b9390506105db565b5080fd5b509034610162576020918260031936011261074857359060078210156107485791338452600192818480935260ff61063e8184892054166117be565b86548791825b826001600160401b038216106106e4575050506106726001600160401b039182806002541691161015611a61565b86845b610692575b87856106858861175d565b9060ff1982541617905580f35b875482821610156106df576106d9906106aa8761178c565b6106b382611713565b905460039190911b1c6001600160a01b03168a528452848920805460ff19169055611aad565b84610675565b61067a565b909192939495506106f48761178c565b6106fd82611713565b905460039190911b1c6001600160a01b03168a528552858920548216610733575b61072790611aad565b90879594939291610644565b9261074061072791611adb565b93905061071e565b8380fd5b50346101625760203660031901126101625735916007831015610322575060ff61077760209361175d565b541690519015158152f35b5050346105fe57816003193601126105fe576020906001600160401b03600254169051908152f35b5034610162576020366003190112610162573560078110156101625761014c9033845260016020526107e160ff84862054166117be565b6107ea8161178c565b33855260205261080060ff8486205416156117f9565b61178c565b5050346105fe57816003193601126105fe57338252600160205261082e60ff82842054166117be565b338252600360205261084660ff8284205416156117f9565b33825260036020528120805460ff1916600117905580f35b509034610162578260031936011261016257338352600190602082815261088a60ff83872054166117be565b84805283815281852033865281526108a860ff838720541615611838565b82855283815281852033865281526108c660ff83872054161561188e565b6002855283815281852033865281526108e560ff8387205416156118e5565b60038552838152818520338652815261090460ff838720541615611931565b84805283815281852033865281528185209360ff19948486825416179055838652808252828620338752825282862084868254161790556002865280825282862033875282528286208486825416179055600386528152818520903386525283209182541617905580f35b50903461016257826003193601126101625733835260019060208281528260ff9461099e8685892054166117be565b8695878854905b816001600160401b03821610610cf55750506001600160401b03906109d460029883808b541691161015611a61565b88845b610cbb575b5088898a54905b8185821610610c59575050610a009083808b541691161015611a61565b88845b610c1f575b5088898a54905b8185821610610bbb575050610a2c9083808b541691161015611a61565b88845b610b5b575b5088548991825b8285821610610af857505050610a599082808a541691161015611a61565b87835b610aa7575b50505050600690858052528084209260ff199383858254161790558285528185208385825416179055845280842082848254161790556003845283209182541617905580f35b88548282161015610af357610aed906003808b52848752878b2090610acb83611713565b9054911b1c6001600160a01b03168b528652868a20805460ff19169055611aad565b83610a5c565b610a61565b909192939495506003808c52868852888c2090610b1483611713565b9054911b1c6001600160a01b03168c528752878b20548216610b46575b610b3a90611aad565b90889594939291610a3b565b92610b53610b3a91611adb565b939050610b31565b899491929394548482161015610bb157610ba790898b52858752878b20610b8182611713565b905460039190911b1c6001600160a01b03168c528752878b20805460ff19169055611aad565b8194939291610a2f565b9392919093610a34565b90919293949550898b52858752878b20610bd482611713565b905460039190911b1c6001600160a01b03168c528752878b20548416610c0a575b610bfe90611aad565b90889594939291610a0f565b91610c17610bfe91611adb565b929050610bf5565b899491929394548482161015610c4f57610c4590828b52858752878b20610b8182611713565b8194939291610a03565b9392919093610a08565b9091929394958b52858752878b20610c7082611713565b905460039190911b1c6001600160a01b03168c528752878b20548416610ca6575b610c9a90611aad565b908895949392916109e3565b91610cb3610c9a91611adb565b929050610c91565b899491929394548482161015610ceb57610ce1908a8052858752878b20610b8182611713565b81949392916109d7565b93929190936109dc565b9091929350888052838552858920610d0c82611713565b905460039190911b1c6001600160a01b03168a528552858920548316610d40575b610d3690611aad565b90869392916109a5565b96610d4d610d3691611adb565b979050610d2d565b50903461016257826003193601126101625733835260019160209083825260ff610d838185882054166117be565b8590868754905b816001600160401b03821610610fd5575050610db76001600160401b039283806002541691161015611a61565b8587815b610fa8575b505086878854905b8185821610610f51575050610de69083806002541691161015611a61565b8587815b610efe575b505086548791825b8285821610610ea657505050610e169082806002541691161015611a61565b85855b610e52575b505060069293508452528082209060ff19918281541690556005835280832082815416905560068352822090815416905580f35b86548282161015610ea157610e9b906006885260058552858820610e7582611713565b905460039190911b1c6001600160a01b031689528552858820805460ff19169055611aad565b85610e19565b610e1e565b60068a5260058752878a20610eba82611713565b905460039190911b1c6001600160a01b03168b528752878a20548216610ee9575b610ee490611aad565b610df7565b92610ef6610ee491611adb565b939050610edb565b88548482161015610f4c57610f46906005808b528752878a20610f2082611713565b905460039190911b1c6001600160a01b03168b528752878a20805460ff19169055611aad565b81610dea565b610def565b6005808b528752878a20610f6482611713565b905460039190911b1c6001600160a01b03168b528752878a20548416610f93575b610f8e90611aad565b610dc8565b91610fa0610f8e91611adb565b929050610f85565b88548482161015610fd057610fca90858a5260058752878a20610f2082611713565b81610dbb565b610dc0565b84895260058652868920610fe882611713565b905460039190911b1c6001600160a01b03168a528652868920548316611017575b61101290611aad565b610d8a565b9261102461101291611adb565b939050611009565b5050346105fe57816003193601126105fe57338252600160209181835261105860ff82862054166117be565b83805260059283815281852033865281526108a860ff838720541615611838565b503461016257602036600319011261016257356001600160a01b0381169081900361016257818360ff92602095526001855220541690519015158152f35b5034610162576020908160031936011261074857359160078310156107485733845260019182815260ff6110ef8184882054166117be565b85548691825b826001600160401b03821610611192575050506111236001600160401b039182806002541691161015611a61565b85845b611140575b866111358761175d565b805460ff1916905580f35b8654828216101561118d5761118790611158876117a5565b61116182611713565b905460039190911b1c6001600160a01b031689528452848820805460ff19169055611aad565b84611126565b61112b565b61119b886117a5565b6111a482611713565b905460039190911b1c6001600160a01b03168a5285528589205482166111d3575b6111ce90611aad565b6110f5565b926111e06111ce91611adb565b9390506111c5565b503461016257602036600319011261016257356001600160a01b0381169081900361016257818360ff92602095526003855220541690519015158152f35b509034610162578260031936011261016257600190338452602082815261125260ff83872054166117be565b838552838152818520338652815261127060ff83872054161561197d565b60058552838152818520338652815261128f60ff8387205416156119c9565b6006855283815281852033865281526112ae60ff838720541615611a15565b83855283815281852033865281528185209360ff199484868254161790556005865280825282862033875282528286208486825416179055600686528152818520903386525283209182541617905580f35b5050346105fe57816003193601126105fe57338252600190602082815260ff9061132e8284872054166117be565b838592868754905b816001600160401b038216106116755750506001600160401b0390611365600295838088541691161015611a61565b87835b61163d575b5087888954905b81858216106115dc57505061139190838088541691161015611a61565b87835b6115a4575b5087888954905b81858216106115415750506113bd90838088541691161015611a61565b87835b6114e3575b5087548891825b8285821610611481575050506113ea90828087541691161015611a61565b86825b61142f575b505050600690858052528184209260ff19938481541690558452818420838154169055835280832082815416905560038352822090815416905580f35b8754828216101561147c57611476906003808a5260058652878a209061145483611713565b9054911b1c6001600160a01b03168a528552868920805460ff19169055611aad565b826113ed565b6113f2565b9091929394506003808b5260058752888b209061149d83611713565b9054911b1c6001600160a01b03168b528652878a205482166114ce575b6114c390611aad565b9088949392916113cc565b926114db6114c391611adb565b9390506114ba565b88939192935484821610156115385761152f90868a5260058652878a2061150982611713565b905460039190911b1c6001600160a01b03168b528652878a20805460ff19169055611aad565b819392916113c0565b929190926113c5565b909192939450868a5260058652878a2061155a82611713565b905460039190911b1c6001600160a01b03168b528652878a2054841661158f575b61158490611aad565b9088949392916113a0565b9161159c61158491611adb565b92905061157b565b88939192935484821610156115d3576115ca90828a5260058652878a2061150982611713565b81939291611394565b92919092611399565b90919293948a5260058652878a206115f382611713565b905460039190911b1c6001600160a01b03168b528652878a20548416611628575b61161d90611aad565b908894939291611374565b9161163561161d91611adb565b929050611614565b889391929354848216101561166c576116639089805260058652878a2061150982611713565b81939291611368565b9291909261136d565b909192508780526005845285882061168c82611713565b905460039190911b1c6001600160a01b0316895284528588205483166116bf575b6116b690611aad565b90869291611336565b936116cc6116b691611adb565b9490506116ad565b5034610162576020366003190112610162573591805483101561032257506116fd602092611713565b905491519160018060a01b039160031b1c168152f35b906000918254811015611749578280527f290decd9548b62a8d60345a988386fc84ba6bc95484008f6362f93160ef3e563019190565b634e487b7160e01b83526032600452602483fd5b6007811015611776576000526006602052604060002090565b634e487b7160e01b600052602160045260246000fd5b6007811015611776576000526004602052604060002090565b6007811015611776576000526005602052604060002090565b156117c557565b60405162461bcd60e51b815260206004820152600c60248201526b2737ba1030b71037bbb732b960a11b6044820152606490fd5b1561180057565b60405162461bcd60e51b815260206004820152601060248201526f105b1c9958591e48185c1c1c9bdd995960821b6044820152606490fd5b1561183f57565b60405162461bcd60e51b815260206004820152602160248201527f426f72726f77696e674465706f73697420416c726561647920617070726f76656044820152601960fa1b6064820152608490fd5b1561189557565b60405162461bcd60e51b815260206004820152602260248201527f426f72726f77696e67576974686472617720416c726561647920617070726f76604482015261195960f21b6064820152608490fd5b156118ec57565b60405162461bcd60e51b815260206004820152601c60248201527f4c69717569646174696f6e20416c726561647920617070726f766564000000006044820152606490fd5b1561193857565b60405162461bcd60e51b815260206004820152601760248201527f53657441505220416c726561647920617070726f7665640000000000000000006044820152606490fd5b1561198457565b60405162461bcd60e51b815260206004820152601b60248201527f4344534465706f73697420416c726561647920617070726f76656400000000006044820152606490fd5b156119d057565b60405162461bcd60e51b815260206004820152601c60248201527f434453576974686472617720416c726561647920617070726f766564000000006044820152606490fd5b15611a1c57565b60405162461bcd60e51b815260206004820152601b60248201527f52656465656d5553445420416c726561647920617070726f76656400000000006044820152606490fd5b15611a6857565b60405162461bcd60e51b815260206004820152601a60248201527f526571756972656420617070726f76616c73206e6f74206d65740000000000006044820152606490fd5b6001600160401b03809116908114611ac55760010190565b634e487b7160e01b600052601160045260246000fd5b9060016001600160401b0380931601918211611ac55756fea2646970667358221220b3f72230613a6dff28e933ea9f387a202254c7c0fdbd6a93c36a8ada3c1314b664736f6c63430008120033","linkReferences":{}},"methodIdentifiers":{"approveBorrowingPause()":"5637e6ae","approveBorrowingUnPause()":"3ea940e1","approveCDSPause()":"1c441433","approveCDSUnPause()":"d8378add","approvePause(uint8)":"89ec1920","approveSetAPR()":"57e356f4","approveUnPause(uint8)":"feff7001","approvedSetAPR(address)":"2764bc5e","executeSetAPR()":"c722f56b","functionState(uint8)":"9b4a9544","isOwner(address)":"2f54bf6e","owners(uint256)":"025e7c27","pauseBorrowing()":"475d9694","pauseCDS()":"bb6484c0","pauseFunction(uint8)":"9f1eac06","requiredApprovals()":"99c1aadc","unpauseBorrowing()":"167c6314","unpauseCDS()":"4580a448","unpauseFunction(uint8)":"2eb14947"},"id":2}