{"abi":[{"type":"function","name":"UPGRADE_INTERFACE_VERSION","inputs":[],"outputs":[{"name":"","type":"string","internalType":"string"}],"stateMutability":"view"},{"type":"function","name":"approveBorrowingPause","inputs":[],"outputs":[],"stateMutability":"nonpayable"},{"type":"function","name":"approveBorrowingUnPause","inputs":[],"outputs":[],"stateMutability":"nonpayable"},{"type":"function","name":"approveCDSPause","inputs":[],"outputs":[],"stateMutability":"nonpayable"},{"type":"function","name":"approveCDSUnPause","inputs":[],"outputs":[],"stateMutability":"nonpayable"},{"type":"function","name":"approvePause","inputs":[{"name":"functions","type":"uint8[]","internalType":"uint8[]"}],"outputs":[],"stateMutability":"nonpayable"},{"type":"function","name":"approveSetterFunction","inputs":[{"name":"functions","type":"uint8[]","internalType":"uint8[]"}],"outputs":[],"stateMutability":"nonpayable"},{"type":"function","name":"approveUnPause","inputs":[{"name":"functions","type":"uint8[]","internalType":"uint8[]"}],"outputs":[],"stateMutability":"nonpayable"},{"type":"function","name":"approvedToUpdate","inputs":[{"name":"","type":"uint8","internalType":"enum MultiSign.SetterFunctions"},{"name":"owner","type":"address","internalType":"address"}],"outputs":[{"name":"approved","type":"bool","internalType":"bool"}],"stateMutability":"view"},{"type":"function","name":"executeSetterFunction","inputs":[{"name":"_function","type":"uint8","internalType":"enum MultiSign.SetterFunctions"}],"outputs":[{"name":"","type":"bool","internalType":"bool"}],"stateMutability":"nonpayable"},{"type":"function","name":"functionState","inputs":[{"name":"","type":"uint8","internalType":"enum MultiSign.Functions"}],"outputs":[{"name":"paused","type":"bool","internalType":"bool"}],"stateMutability":"view"},{"type":"function","name":"initialize","inputs":[{"name":"_owners","type":"address[]","internalType":"address[]"},{"name":"_requiredApprovals","type":"uint64","internalType":"uint64"}],"outputs":[],"stateMutability":"nonpayable"},{"type":"function","name":"isOwner","inputs":[{"name":"","type":"address","internalType":"address"}],"outputs":[{"name":"","type":"bool","internalType":"bool"}],"stateMutability":"view"},{"type":"function","name":"owner","inputs":[],"outputs":[{"name":"","type":"address","internalType":"address"}],"stateMutability":"view"},{"type":"function","name":"pauseBorrowing","inputs":[],"outputs":[],"stateMutability":"nonpayable"},{"type":"function","name":"pauseCDS","inputs":[],"outputs":[],"stateMutability":"nonpayable"},{"type":"function","name":"pauseFunction","inputs":[{"name":"functions","type":"uint8[]","internalType":"uint8[]"}],"outputs":[],"stateMutability":"nonpayable"},{"type":"function","name":"proxiableUUID","inputs":[],"outputs":[{"name":"","type":"bytes32","internalType":"bytes32"}],"stateMutability":"view"},{"type":"function","name":"renounceOwnership","inputs":[],"outputs":[],"stateMutability":"nonpayable"},{"type":"function","name":"transferOwnership","inputs":[{"name":"newOwner","type":"address","internalType":"address"}],"outputs":[],"stateMutability":"nonpayable"},{"type":"function","name":"unpauseBorrowing","inputs":[],"outputs":[],"stateMutability":"nonpayable"},{"type":"function","name":"unpauseCDS","inputs":[],"outputs":[],"stateMutability":"nonpayable"},{"type":"function","name":"unpauseFunction","inputs":[{"name":"functions","type":"uint8[]","internalType":"uint8[]"}],"outputs":[],"stateMutability":"nonpayable"},{"type":"function","name":"upgradeToAndCall","inputs":[{"name":"newImplementation","type":"address","internalType":"address"},{"name":"data","type":"bytes","internalType":"bytes"}],"outputs":[],"stateMutability":"payable"},{"type":"event","name":"Initialized","inputs":[{"name":"version","type":"uint64","indexed":false,"internalType":"uint64"}],"anonymous":false},{"type":"event","name":"OwnershipTransferred","inputs":[{"name":"previousOwner","type":"address","indexed":true,"internalType":"address"},{"name":"newOwner","type":"address","indexed":true,"internalType":"address"}],"anonymous":false},{"type":"event","name":"Upgraded","inputs":[{"name":"implementation","type":"address","indexed":true,"internalType":"address"}],"anonymous":false},{"type":"error","name":"AddressEmptyCode","inputs":[{"name":"target","type":"address","internalType":"address"}]},{"type":"error","name":"ERC1967InvalidImplementation","inputs":[{"name":"implementation","type":"address","internalType":"address"}]},{"type":"error","name":"ERC1967NonPayable","inputs":[]},{"type":"error","name":"FailedInnerCall","inputs":[]},{"type":"error","name":"InvalidInitialization","inputs":[]},{"type":"error","name":"NotInitializing","inputs":[]},{"type":"error","name":"OwnableInvalidOwner","inputs":[{"name":"owner","type":"address","internalType":"address"}]},{"type":"error","name":"OwnableUnauthorizedAccount","inputs":[{"name":"account","type":"address","internalType":"address"}]},{"type":"error","name":"UUPSUnauthorizedCallContext","inputs":[]},{"type":"error","name":"UUPSUnsupportedProxiableUUID","inputs":[{"name":"slot","type":"bytes32","internalType":"bytes32"}]}],"bytecode":{"object":"0x60a06040523060805234801561001457600080fd5b50608051612d3061003e600039600081816120530152818161207c01526121bd0152612d306000f3fe60806040526004361061014b5760003560e01c80638da5cb5b116100b6578063cff4ed5f1161006f578063cff4ed5f146103c5578063d6011d74146103e5578063d8378add14610405578063e3583d4d1461041a578063f2fde38b1461043a578063fb8c92781461045a57600080fd5b80638da5cb5b146102bb5780638f2a456c1461030257806397d88fcb146103225780639b4a954414610342578063ad3cb1cc14610372578063bb6484c0146103b057600080fd5b80634f1ef286116101085780634f1ef2861461020057806352d1902d146102135780635637e6ae146102365780636ee4798c1461024b578063715018a61461026b5780638a1276391461028057600080fd5b8063167c6314146101505780631c441433146101675780632f54bf6e1461017c5780633ea940e1146101c15780634580a448146101d6578063475d9694146101eb575b600080fd5b34801561015c57600080fd5b5061016561047a565b005b34801561017357600080fd5b506101656105ba565b34801561018857600080fd5b506101ac61019736600461276c565b60026020526000908152604090205460ff1681565b60405190151581526020015b60405180910390f35b3480156101cd57600080fd5b5061016561081d565b3480156101e257600080fd5b50610165610a8c565b3480156101f757600080fd5b50610165610b5c565b61016561020e3660046127cd565b610c6e565b34801561021f57600080fd5b50610228610c8d565b6040519081526020016101b8565b34801561024257600080fd5b50610165610caa565b34801561025757600080fd5b50610165610266366004612895565b610f19565b34801561027757600080fd5b506101656110ac565b34801561028c57600080fd5b506101ac61029b366004612949565b600460209081526000928352604080842090915290825290205460ff1681565b3480156102c757600080fd5b507f9016d09d72d40fdae2fd8ceac6b6234c7706214fd39c1cd1e609a0528c199300546040516001600160a01b0390911681526020016101b8565b34801561030e57600080fd5b5061016561031d366004612895565b6110c0565b34801561032e57600080fd5b5061016561033d366004612895565b61124e565b34801561034e57600080fd5b506101ac61035d36600461297c565b60076020526000908152604090205460ff1681565b34801561037e57600080fd5b506103a3604051806040016040528060058152602001640352e302e360dc1b81525081565b6040516101b891906129c1565b3480156103bc57600080fd5b50610165611377565b3480156103d157600080fd5b506101656103e0366004612895565b61144e565b3480156103f157600080fd5b50610165610400366004612895565b6115dc565b34801561041157600080fd5b50610165611705565b34801561042657600080fd5b50610165610435366004612a0b565b61192c565b34801561044657600080fd5b5061016561045536600461276c565b611d1c565b34801561046657600080fd5b506101ac610475366004612ab4565b611d5a565b3360009081526002602052604090205460ff166104b25760405162461bcd60e51b81526004016104a990612acf565b60405180910390fd5b6104bd60005b611e5a565b80156104ce57506104ce6001611e5a565b80156104df57506104df6002611e5a565b80156104f057506104f06003611e5a565b6104f957600080fd5b600760208190527f6d5257204ebe7d88fd91ae87941cb2dd9d8062b64ae5a2bd2d28ec40b9fbf6df805460ff199081169091557fb39221ace053465ec3453ce2b36430bd138b997ecea25c1043da0c366812b828805482169055600260009081527fb7c774451310d1be4108bc180d1b52823cb0ee0274a6c0081bcaf94f115fb96d8054909216909155908160035b600681111561059957610599612af5565b81526020810191909152604001600020805460ff1916911515919091179055565b3360009081526002602052604090205460ff166105e95760405162461bcd60e51b81526004016104a990612acf565b3360009081527f3eec716f11ba9e820c81ca75eb978ffb45831ef8b7a53e5e422c26008e1ca6d5602052604090205460ff16156106685760405162461bcd60e51b815260206004820152601b60248201527f4344534465706f73697420416c726561647920617070726f766564000000000060448201526064016104a9565b3360009081527f458b30c2d72bfd2c6317304a4594ecbafe5f729d3111b65fdc3a33bd48e5432d602052604090205460ff16156106e75760405162461bcd60e51b815260206004820152601c60248201527f434453576974686472617720416c726561647920617070726f7665640000000060448201526064016104a9565b3360009081527f069400f22b28c6c362558d92f66163cec5671cba50b61abd2eecfcd0eaeac518602052604090205460ff16156107665760405162461bcd60e51b815260206004820152601b60248201527f52656465656d5553445420416c726561647920617070726f766564000000000060448201526064016104a9565b3360009081527f3eec716f11ba9e820c81ca75eb978ffb45831ef8b7a53e5e422c26008e1ca6d5602090815260408083208054600160ff1991821681179092557f458b30c2d72bfd2c6317304a4594ecbafe5f729d3111b65fdc3a33bd48e5432d909352908320805490921681179091559060059060065b60068111156107ef576107ef612af5565b8152602080820192909252604090810160009081203382529092529020805460ff1916911515919091179055565b3360009081526002602052604090205460ff1661084c5760405162461bcd60e51b81526004016104a990612acf565b3360009081527f54cdd369e4e8a8515e52ca72ec816c2101831ad1f18bf44102ed171459c9b4f8602052604090205460ff161561089b5760405162461bcd60e51b81526004016104a990612b0b565b3360009081527f3e5fec24aa4dc4e5aee2e025e51e1392c72a2500577559fae9665c6d52bd6a31602052604090205460ff16156108ea5760405162461bcd60e51b81526004016104a990612b4c565b3360009081527f8819ef417987f8ae7a81f42cdfb18815282fe989326fbff903d13cf0e03ace29602052604090205460ff16156109695760405162461bcd60e51b815260206004820152601c60248201527f4c69717569646174696f6e20416c726561647920617070726f7665640000000060448201526064016104a9565b3360009081527f75f96ab15d697e93042dc45b5c896c4b27e89bb6eaf39475c5c371cb2513f7d2602052604090205460ff16156109e25760405162461bcd60e51b815260206004820152601760248201527614d95d10541488105b1c9958591e48185c1c1c9bdd9959604a1b60448201526064016104a9565b3360009081527f54cdd369e4e8a8515e52ca72ec816c2101831ad1f18bf44102ed171459c9b4f8602090815260408083208054600160ff1991821681179092557f3e5fec24aa4dc4e5aee2e025e51e1392c72a2500577559fae9665c6d52bd6a31845282852080548216831790557f8819ef417987f8ae7a81f42cdfb18815282fe989326fbff903d13cf0e03ace29909352908320805490921681179091559060069060036107de565b3360009081526002602052604090205460ff16610abb5760405162461bcd60e51b81526004016104a990612acf565b610ac56004611e5a565b8015610ad65750610ad66005611e5a565b8015610ae75750610ae76006611e5a565b610af057600080fd5b600760208190527fb805995a7ec585a251200611a61d179cfd7fb105e1ab17dc415a7336783786f7805460ff19908116909155600560009081527fbcdda56b5d08466ec462cbbe0adfa57cb0a15fcc8940ef68f702f21b787bc935805490921690915590816006610588565b3360009081526002602052604090205460ff16610b8b5760405162461bcd60e51b81526004016104a990612acf565b610b9660005b611f51565b8015610ba75750610ba76001611f51565b8015610bb85750610bb86002611f51565b8015610bc95750610bc96003611f51565b610bd257600080fd5b600760208190527f6d5257204ebe7d88fd91ae87941cb2dd9d8062b64ae5a2bd2d28ec40b9fbf6df8054600160ff1991821681179092557fb39221ace053465ec3453ce2b36430bd138b997ecea25c1043da0c366812b8288054821683179055600260009081527fb7c774451310d1be4108bc180d1b52823cb0ee0274a6c0081bcaf94f115fb96d805490921683179091559091906003610588565b610c76612048565b610c7f826120ed565b610c8982826120f5565b5050565b6000610c976121b2565b50600080516020612cdb83398151915290565b3360009081526002602052604090205460ff16610cd95760405162461bcd60e51b81526004016104a990612acf565b3360009081527f05b8ccbb9d4d8fb16ea74ce3c29a41f1b461fbdaff4714a0d9a8eb05499746bc602052604090205460ff1615610d285760405162461bcd60e51b81526004016104a990612b0b565b3360009081527f1471eb6eb2c5e789fc3de43f8ce62938c7d1836ec861730447e2ada8fd81017b602052604090205460ff1615610d775760405162461bcd60e51b81526004016104a990612b4c565b3360009081527f89832631fb3c3307a103ba2c84ab569c64d6182a18893dcd163f0f1c2090733a602052604090205460ff1615610df65760405162461bcd60e51b815260206004820152601c60248201527f4c69717569646174696f6e20416c726561647920617070726f7665640000000060448201526064016104a9565b3360009081527fa9bc9a3a348c357ba16b37005d7e6b3236198c0e939f4af8c5f19b8deeb8ebc0602052604090205460ff1615610e6f5760405162461bcd60e51b815260206004820152601760248201527614d95d10541488105b1c9958591e48185c1c1c9bdd9959604a1b60448201526064016104a9565b3360009081527f05b8ccbb9d4d8fb16ea74ce3c29a41f1b461fbdaff4714a0d9a8eb05499746bc602090815260408083208054600160ff1991821681179092557f1471eb6eb2c5e789fc3de43f8ce62938c7d1836ec861730447e2ada8fd81017b845282852080548216831790557f89832631fb3c3307a103ba2c84ab569c64d6182a18893dcd163f0f1c2090733a909352908320805490921681179091559060059060036107de565b3360009081526002602052604090205460ff16610f485760405162461bcd60e51b81526004016104a990612acf565b805160ff8116610f6a5760405162461bcd60e51b81526004016104a990612b8e565b60005b8160ff168160ff1610156110a75760056000848360ff1681518110610f9457610f94612bb3565b602002602001015160ff166006811115610fb057610fb0612af5565b6006811115610fc157610fc1612af5565b6006811115610fd257610fd2612af5565b81526020808201929092526040908101600090812033825290925290205460ff16156110105760405162461bcd60e51b81526004016104a990612bc9565b600160056000858460ff168151811061102b5761102b612bb3565b602002602001015160ff16600681111561104757611047612af5565b600681111561105857611058612af5565b600681111561106957611069612af5565b8152602080820192909252604090810160009081203382529092529020805460ff19169115159190911790558061109f81612c09565b915050610f6d565b505050565b6110b46121fb565b6110be6000612256565b565b3360009081526002602052604090205460ff166110ef5760405162461bcd60e51b81526004016104a990612acf565b805160ff81166111115760405162461bcd60e51b81526004016104a990612b8e565b60005b8160ff168160ff1610156110a75760066000848360ff168151811061113b5761113b612bb3565b602002602001015160ff16600681111561115757611157612af5565b600681111561116857611168612af5565b600681111561117957611179612af5565b81526020808201929092526040908101600090812033825290925290205460ff16156111b75760405162461bcd60e51b81526004016104a990612bc9565b600160066000858460ff16815181106111d2576111d2612bb3565b602002602001015160ff1660068111156111ee576111ee612af5565b60068111156111ff576111ff612af5565b600681111561121057611210612af5565b8152602080820192909252604090810160009081203382529092529020805460ff19169115159190911790558061124681612c09565b915050611114565b3360009081526002602052604090205460ff1661127d5760405162461bcd60e51b81526004016104a990612acf565b805160ff811661129f5760405162461bcd60e51b81526004016104a990612b8e565b60005b8160ff168160ff1610156110a7576112e4838260ff16815181106112c8576112c8612bb3565b602002602001015160ff166006811115610b9157610b91612af5565b6112ed57600080fd5b600160076000858460ff168151811061130857611308612bb3565b602002602001015160ff16600681111561132457611324612af5565b600681111561133557611335612af5565b600681111561134657611346612af5565b81526020810191909152604001600020805460ff19169115159190911790558061136f81612c09565b9150506112a2565b3360009081526002602052604090205460ff166113a65760405162461bcd60e51b81526004016104a990612acf565b6113b06004611f51565b80156113c157506113c16005611f51565b80156113d257506113d26006611f51565b6113db57600080fd5b600760208190527fb805995a7ec585a251200611a61d179cfd7fb105e1ab17dc415a7336783786f78054600160ff199182168117909255600560009081527fbcdda56b5d08466ec462cbbe0adfa57cb0a15fcc8940ef68f702f21b787bc935805490921683179091559091906006610588565b3360009081526002602052604090205460ff1661147d5760405162461bcd60e51b81526004016104a990612acf565b805160ff811661149f5760405162461bcd60e51b81526004016104a990612b8e565b60005b8160ff168160ff1610156110a75760046000848360ff16815181106114c9576114c9612bb3565b602002602001015160ff16600a8111156114e5576114e5612af5565b600a8111156114f6576114f6612af5565b600a81111561150757611507612af5565b81526020808201929092526040908101600090812033825290925290205460ff16156115455760405162461bcd60e51b81526004016104a990612bc9565b600160046000858460ff168151811061156057611560612bb3565b602002602001015160ff16600a81111561157c5761157c612af5565b600a81111561158d5761158d612af5565b600a81111561159e5761159e612af5565b8152602080820192909252604090810160009081203382529092529020805460ff1916911515919091179055806115d481612c09565b9150506114a2565b3360009081526002602052604090205460ff1661160b5760405162461bcd60e51b81526004016104a990612acf565b805160ff811661162d5760405162461bcd60e51b81526004016104a990612b8e565b60005b8160ff168160ff1610156110a757611672838260ff168151811061165657611656612bb3565b602002602001015160ff1660068111156104b8576104b8612af5565b61167b57600080fd5b600060076000858460ff168151811061169657611696612bb3565b602002602001015160ff1660068111156116b2576116b2612af5565b60068111156116c3576116c3612af5565b60068111156116d4576116d4612af5565b81526020810191909152604001600020805460ff1916911515919091179055806116fd81612c09565b915050611630565b3360009081526002602052604090205460ff166117345760405162461bcd60e51b81526004016104a990612acf565b3360009081527fc5069e24aaadb2addc3e52e868fcf3f4f8acf5a87e24300992fd4540c2a87eed602052604090205460ff16156117b35760405162461bcd60e51b815260206004820152601b60248201527f4344534465706f73697420416c726561647920617070726f766564000000000060448201526064016104a9565b3360009081527fbfd358e93f18da3ed276c3afdbdba00b8f0b6008a03476a6a86bd6320ee6938b602052604090205460ff16156118325760405162461bcd60e51b815260206004820152601c60248201527f434453576974686472617720416c726561647920617070726f7665640000000060448201526064016104a9565b3360009081527f697b2bd7bb2984c4e0dc14c79c987d37818484a62958b9c45a0e8b962f20650f602052604090205460ff16156118b15760405162461bcd60e51b815260206004820152601b60248201527f52656465656d5553445420416c726561647920617070726f766564000000000060448201526064016104a9565b3360009081527fc5069e24aaadb2addc3e52e868fcf3f4f8acf5a87e24300992fd4540c2a87eed602090815260408083208054600160ff1991821681179092557fbfd358e93f18da3ed276c3afdbdba00b8f0b6008a03476a6a86bd6320ee6938b9093529083208054909216811790915590600690816107de565b7ff0c57e16840df040f15088dc2f81fe391c3923bec73e23a9662efc9c229c6a008054600160401b810460ff1615906001600160401b03166000811580156119715750825b90506000826001600160401b0316600114801561198d5750303b155b90508115801561199b575080155b156119b95760405163f92ee8a960e01b815260040160405180910390fd5b845467ffffffffffffffff1916600117855583156119e357845460ff60401b1916600160401b1785555b6119ec336122c7565b6119f46122d8565b865160ff8116611a385760405162461bcd60e51b815260206004820152600f60248201526e13dddb995c9cc81c995c5d5a5c9959608a1b60448201526064016104a9565b6001805460ff1916600a90811790915560ff82161115611ab85760405162461bcd60e51b815260206004820152603560248201527f4e756d626572206f66206f776e6572732073686f756c642062652062656c6f77604482015274081b585e1a5b5d5b481bdddb995c9cc81b1a5b5a5d605a1b60648201526084016104a9565b6000876001600160401b0316118015611add57508060ff16876001600160401b031611155b611b355760405162461bcd60e51b8152602060048201526024808201527f496e76616c6964206e756d626572206f6620726571756972656420617070726f60448201526376616c7360e01b60648201526084016104a9565b60005b8160ff16816001600160401b03161015611c9457600089826001600160401b031681518110611b6957611b69612bb3565b6020026020010151905060006001600160a01b0316816001600160a01b031603611bc55760405162461bcd60e51b815260206004820152600d60248201526c24b73b30b634b21037bbb732b960991b60448201526064016104a9565b6001600160a01b03811660009081526002602052604090205460ff1615611c205760405162461bcd60e51b815260206004820152600f60248201526e223ab83634b1b0ba329037bbb732b960891b60448201526064016104a9565b6001600160a01b03166000818152600260205260408120805460ff19166001908117909155815490810182559080527f290decd9548b62a8d60345a988386fc84ba6bc95484008f6362f93160ef3e5630180546001600160a01b031916909117905580611c8c81612c28565b915050611b38565b50600380546001600160401b03891667ffffffffffffffff199091161790556001805460ff9092166101000261ff00199092169190911790558315611d1357845460ff60401b19168555604051600181527fc7f505b2f371ae2175ee4913f4499e1f2633a7b5936321eed1cdaeb6115181d29060200160405180910390a15b50505050505050565b611d246121fb565b6001600160a01b038116611d4e57604051631e4fbdf760e01b8152600060048201526024016104a9565b611d5781612256565b50565b6003546000906001600160401b0316611d72836122e0565b6001600160401b03161015611d995760405162461bcd60e51b81526004016104a990612c4e565b60005b600154610100900460ff166001600160401b0382161015611e515760006004600085600a811115611dcf57611dcf612af5565b600a811115611de057611de0612af5565b8152602001908152602001600020600080846001600160401b031681548110611e0b57611e0b612bb3565b6000918252602080832091909101546001600160a01b031683528201929092526040019020805460ff191691151591909117905580611e4981612c28565b915050611d9c565b50600192915050565b6003546000906001600160401b0316611e72836123a7565b6001600160401b03161015611e995760405162461bcd60e51b81526004016104a990612c4e565b60005b600154610100900460ff166001600160401b0382161015611e5157600060066000856006811115611ecf57611ecf612af5565b6006811115611ee057611ee0612af5565b8152602001908152602001600020600080846001600160401b031681548110611f0b57611f0b612bb3565b6000918252602080832091909101546001600160a01b031683528201929092526040019020805460ff191691151591909117905580611f4981612c28565b915050611e9c565b6003546000906001600160401b0316611f6983612467565b6001600160401b03161015611f905760405162461bcd60e51b81526004016104a990612c4e565b60005b600154610100900460ff166001600160401b0382161015611e5157600060056000856006811115611fc657611fc6612af5565b6006811115611fd757611fd7612af5565b8152602001908152602001600020600080846001600160401b03168154811061200257612002612bb3565b6000918252602080832091909101546001600160a01b031683528201929092526040019020805460ff19169115159190911790558061204081612c28565b915050611f93565b306001600160a01b037f00000000000000000000000000000000000000000000000000000000000000001614806120cf57507f00000000000000000000000000000000000000000000000000000000000000006001600160a01b03166120c3600080516020612cdb833981519152546001600160a01b031690565b6001600160a01b031614155b156110be5760405163703e46dd60e11b815260040160405180910390fd5b611d576121fb565b816001600160a01b03166352d1902d6040518163ffffffff1660e01b8152600401602060405180830381865afa92505050801561214f575060408051601f3d908101601f1916820190925261214c91810190612c85565b60015b61217757604051634c9c8ce360e01b81526001600160a01b03831660048201526024016104a9565b600080516020612cdb83398151915281146121a857604051632a87526960e21b8152600481018290526024016104a9565b6110a78383612527565b306001600160a01b037f000000000000000000000000000000000000000000000000000000000000000016146110be5760405163703e46dd60e11b815260040160405180910390fd5b3361222d7f9016d09d72d40fdae2fd8ceac6b6234c7706214fd39c1cd1e609a0528c199300546001600160a01b031690565b6001600160a01b0316146110be5760405163118cdaa760e01b81523360048201526024016104a9565b7f9016d09d72d40fdae2fd8ceac6b6234c7706214fd39c1cd1e609a0528c19930080546001600160a01b031981166001600160a01b03848116918217845560405192169182907f8be0079c531659141344cd1fd0a4f28419497f9722a3daafe3b4186f6b6457e090600090a3505050565b6122cf61257d565b611d57816125c6565b6110be61257d565b60008060005b600154610100900460ff166001600160401b03821610156123a0576004600085600a81111561231757612317612af5565b600a81111561232857612328612af5565b8152602001908152602001600020600080836001600160401b03168154811061235357612353612bb3565b60009182526020808320909101546001600160a01b0316835282019290925260400190205460ff161561238e5761238b600183612c9e565b91505b8061239881612c28565b9150506122e6565b5092915050565b60008060005b600154610100900460ff166001600160401b03821610156123a057600660008560068111156123de576123de612af5565b60068111156123ef576123ef612af5565b8152602001908152602001600020600080836001600160401b03168154811061241a5761241a612bb3565b60009182526020808320909101546001600160a01b0316835282019290925260400190205460ff161561245557612452600183612c9e565b91505b8061245f81612c28565b9150506123ad565b60008060005b600154610100900460ff166001600160401b03821610156123a0576005600085600681111561249e5761249e612af5565b60068111156124af576124af612af5565b8152602001908152602001600020600080836001600160401b0316815481106124da576124da612bb3565b60009182526020808320909101546001600160a01b0316835282019290925260400190205460ff161561251557612512600183612c9e565b91505b8061251f81612c28565b91505061246d565b612530826125ce565b6040516001600160a01b038316907fbc7cd75a20ee27fd9adebab32041f755214dbc6bffa90cc0225b39da2e5c2d3b90600090a2805115612575576110a78282612633565b610c896126a9565b7ff0c57e16840df040f15088dc2f81fe391c3923bec73e23a9662efc9c229c6a0054600160401b900460ff166110be57604051631afcd79f60e31b815260040160405180910390fd5b611d2461257d565b806001600160a01b03163b60000361260457604051634c9c8ce360e01b81526001600160a01b03821660048201526024016104a9565b600080516020612cdb83398151915280546001600160a01b0319166001600160a01b0392909216919091179055565b6060600080846001600160a01b0316846040516126509190612cbe565b600060405180830381855af49150503d806000811461268b576040519150601f19603f3d011682016040523d82523d6000602084013e612690565b606091505b50915091506126a08583836126c8565b95945050505050565b34156110be5760405163b398979f60e01b815260040160405180910390fd5b6060826126dd576126d882612727565b612720565b81511580156126f457506001600160a01b0384163b155b1561271d57604051639996b31560e01b81526001600160a01b03851660048201526024016104a9565b50805b9392505050565b8051156127375780518082602001fd5b604051630a12f52160e11b815260040160405180910390fd5b80356001600160a01b038116811461276757600080fd5b919050565b60006020828403121561277e57600080fd5b61272082612750565b634e487b7160e01b600052604160045260246000fd5b604051601f8201601f191681016001600160401b03811182821017156127c5576127c5612787565b604052919050565b600080604083850312156127e057600080fd5b6127e983612750565b91506020808401356001600160401b038082111561280657600080fd5b818601915086601f83011261281a57600080fd5b81358181111561282c5761282c612787565b61283e601f8201601f1916850161279d565b9150808252878482850101111561285457600080fd5b80848401858401376000848284010152508093505050509250929050565b60006001600160401b0382111561288b5761288b612787565b5060051b60200190565b600060208083850312156128a857600080fd5b82356001600160401b038111156128be57600080fd5b8301601f810185136128cf57600080fd5b80356128e26128dd82612872565b61279d565b81815260059190911b8201830190838101908783111561290157600080fd5b928401925b8284101561292f57833560ff811681146129205760008081fd5b82529284019290840190612906565b979650505050505050565b8035600b811061276757600080fd5b6000806040838503121561295c57600080fd5b6129658361293a565b915061297360208401612750565b90509250929050565b60006020828403121561298e57600080fd5b81356007811061272057600080fd5b60005b838110156129b85781810151838201526020016129a0565b50506000910152565b60208152600082518060208401526129e081604085016020870161299d565b601f01601f19169190910160400192915050565b80356001600160401b038116811461276757600080fd5b60008060408385031215612a1e57600080fd5b82356001600160401b03811115612a3457600080fd5b8301601f81018513612a4557600080fd5b80356020612a556128dd83612872565b82815260059290921b83018101918181019088841115612a7457600080fd5b938201935b83851015612a9957612a8a85612750565b82529382019390820190612a79565b9550612aa890508682016129f4565b93505050509250929050565b600060208284031215612ac657600080fd5b6127208261293a565b6020808252600c908201526b2737ba1030b71037bbb732b960a11b604082015260600190565b634e487b7160e01b600052602160045260246000fd5b60208082526021908201527f426f72726f77696e674465706f73697420416c726561647920617070726f76656040820152601960fa1b606082015260800190565b60208082526022908201527f426f72726f77696e67576974686472617720416c726561647920617070726f76604082015261195960f21b606082015260800190565b6020808252600b908201526a456d70747920617272617960a81b604082015260600190565b634e487b7160e01b600052603260045260246000fd5b60208082526010908201526f105b1c9958591e48185c1c1c9bdd995960821b604082015260600190565b634e487b7160e01b600052601160045260246000fd5b600060ff821660ff8103612c1f57612c1f612bf3565b60010192915050565b60006001600160401b03808316818103612c4457612c44612bf3565b6001019392505050565b6020808252601a908201527f526571756972656420617070726f76616c73206e6f74206d6574000000000000604082015260600190565b600060208284031215612c9757600080fd5b5051919050565b6001600160401b038181168382160190808211156123a0576123a0612bf3565b60008251612cd081846020870161299d565b919091019291505056fe360894a13ba1a3210667c828492db98dca3e2076cc3735a920a3ca505d382bbca2646970667358221220ec98fd624a68405c2e1aa14cd1ee7903daed371985e61d3ffef505f7e4e2725364736f6c63430008140033","linkReferences":{}},"methodIdentifiers":{"UPGRADE_INTERFACE_VERSION()":"ad3cb1cc","approveBorrowingPause()":"5637e6ae","approveBorrowingUnPause()":"3ea940e1","approveCDSPause()":"1c441433","approveCDSUnPause()":"d8378add","approvePause(uint8[])":"6ee4798c","approveSetterFunction(uint8[])":"cff4ed5f","approveUnPause(uint8[])":"8f2a456c","approvedToUpdate(uint8,address)":"8a127639","executeSetterFunction(uint8)":"fb8c9278","functionState(uint8)":"9b4a9544","initialize(address[],uint64)":"e3583d4d","isOwner(address)":"2f54bf6e","owner()":"8da5cb5b","pauseBorrowing()":"475d9694","pauseCDS()":"bb6484c0","pauseFunction(uint8[])":"97d88fcb","proxiableUUID()":"52d1902d","renounceOwnership()":"715018a6","transferOwnership(address)":"f2fde38b","unpauseBorrowing()":"167c6314","unpauseCDS()":"4580a448","unpauseFunction(uint8[])":"d6011d74","upgradeToAndCall(address,bytes)":"4f1ef286"},"id":2}