{"abi":[{"type":"function","name":"UPGRADE_INTERFACE_VERSION","inputs":[],"outputs":[{"name":"","type":"string","internalType":"string"}],"stateMutability":"view"},{"type":"function","name":"approveBorrowingPause","inputs":[],"outputs":[],"stateMutability":"nonpayable"},{"type":"function","name":"approveBorrowingUnPause","inputs":[],"outputs":[],"stateMutability":"nonpayable"},{"type":"function","name":"approveCDSPause","inputs":[],"outputs":[],"stateMutability":"nonpayable"},{"type":"function","name":"approveCDSUnPause","inputs":[],"outputs":[],"stateMutability":"nonpayable"},{"type":"function","name":"approvePause","inputs":[{"name":"functions","type":"uint8[]","internalType":"uint8[]"}],"outputs":[],"stateMutability":"nonpayable"},{"type":"function","name":"approveSetterFunction","inputs":[{"name":"functions","type":"uint8[]","internalType":"uint8[]"}],"outputs":[],"stateMutability":"nonpayable"},{"type":"function","name":"approveUnPause","inputs":[{"name":"functions","type":"uint8[]","internalType":"uint8[]"}],"outputs":[],"stateMutability":"nonpayable"},{"type":"function","name":"approvedToUpdate","inputs":[{"name":"","type":"uint8","internalType":"enum MultiSign.SetterFunctions"},{"name":"owner","type":"address","internalType":"address"}],"outputs":[{"name":"approved","type":"bool","internalType":"bool"}],"stateMutability":"view"},{"type":"function","name":"executeSetterFunction","inputs":[{"name":"_function","type":"uint8","internalType":"enum MultiSign.SetterFunctions"}],"outputs":[{"name":"","type":"bool","internalType":"bool"}],"stateMutability":"nonpayable"},{"type":"function","name":"functionState","inputs":[{"name":"","type":"uint8","internalType":"enum MultiSign.Functions"}],"outputs":[{"name":"paused","type":"bool","internalType":"bool"}],"stateMutability":"view"},{"type":"function","name":"initialize","inputs":[{"name":"_owners","type":"address[]","internalType":"address[]"},{"name":"_requiredApprovals","type":"uint64","internalType":"uint64"}],"outputs":[],"stateMutability":"nonpayable"},{"type":"function","name":"isOwner","inputs":[{"name":"","type":"address","internalType":"address"}],"outputs":[{"name":"","type":"bool","internalType":"bool"}],"stateMutability":"view"},{"type":"function","name":"owner","inputs":[],"outputs":[{"name":"","type":"address","internalType":"address"}],"stateMutability":"view"},{"type":"function","name":"pauseBorrowing","inputs":[],"outputs":[],"stateMutability":"nonpayable"},{"type":"function","name":"pauseCDS","inputs":[],"outputs":[],"stateMutability":"nonpayable"},{"type":"function","name":"pauseFunction","inputs":[{"name":"functions","type":"uint8[]","internalType":"uint8[]"}],"outputs":[],"stateMutability":"nonpayable"},{"type":"function","name":"proxiableUUID","inputs":[],"outputs":[{"name":"","type":"bytes32","internalType":"bytes32"}],"stateMutability":"view"},{"type":"function","name":"renounceOwnership","inputs":[],"outputs":[],"stateMutability":"nonpayable"},{"type":"function","name":"transferOwnership","inputs":[{"name":"newOwner","type":"address","internalType":"address"}],"outputs":[],"stateMutability":"nonpayable"},{"type":"function","name":"unpauseBorrowing","inputs":[],"outputs":[],"stateMutability":"nonpayable"},{"type":"function","name":"unpauseCDS","inputs":[],"outputs":[],"stateMutability":"nonpayable"},{"type":"function","name":"unpauseFunction","inputs":[{"name":"functions","type":"uint8[]","internalType":"uint8[]"}],"outputs":[],"stateMutability":"nonpayable"},{"type":"function","name":"upgradeToAndCall","inputs":[{"name":"newImplementation","type":"address","internalType":"address"},{"name":"data","type":"bytes","internalType":"bytes"}],"outputs":[],"stateMutability":"payable"},{"type":"event","name":"Initialized","inputs":[{"name":"version","type":"uint64","indexed":false,"internalType":"uint64"}],"anonymous":false},{"type":"event","name":"OwnershipTransferred","inputs":[{"name":"previousOwner","type":"address","indexed":true,"internalType":"address"},{"name":"newOwner","type":"address","indexed":true,"internalType":"address"}],"anonymous":false},{"type":"event","name":"Upgraded","inputs":[{"name":"implementation","type":"address","indexed":true,"internalType":"address"}],"anonymous":false},{"type":"error","name":"AddressEmptyCode","inputs":[{"name":"target","type":"address","internalType":"address"}]},{"type":"error","name":"ERC1967InvalidImplementation","inputs":[{"name":"implementation","type":"address","internalType":"address"}]},{"type":"error","name":"ERC1967NonPayable","inputs":[]},{"type":"error","name":"FailedInnerCall","inputs":[]},{"type":"error","name":"InvalidInitialization","inputs":[]},{"type":"error","name":"NotInitializing","inputs":[]},{"type":"error","name":"OwnableInvalidOwner","inputs":[{"name":"owner","type":"address","internalType":"address"}]},{"type":"error","name":"OwnableUnauthorizedAccount","inputs":[{"name":"account","type":"address","internalType":"address"}]},{"type":"error","name":"UUPSUnauthorizedCallContext","inputs":[]},{"type":"error","name":"UUPSUnsupportedProxiableUUID","inputs":[{"name":"slot","type":"bytes32","internalType":"bytes32"}]}],"bytecode":{"object":"0x60a0806040523461002a573060805261295b908161003082396080518181816112f001526113c30152f35b600080fdfe6080604052600436101561001257600080fd5b60003560e01c8063167c631414611e1c5780631c44143314611d145780632f54bf6e14611cd55780633ea940e114611c825780634580a4481461198b578063475d9694146115735780634f1ef2861461134857806352d1902d146112dd5780635637e6ae146111935780636ee4798c1461111f578063715018a6146110b55780638a1276391461105d5780638da5cb5b146110275780638f2a456c14610fb357806397d88fcb14610e2c5780639b4a954414610df6578063ad3cb1cc14610d65578063bb6484c014610a65578063cff4ed5f146109b2578063d6011d741461080a578063d8378add14610702578063e3583d4d1461027b578063f2fde38b146102505763fb8c92781461012457600080fd5b3461024b5760208060031936011261024b5760043590600a82101561024b576001805460ff600891821c8116946000929091835b876001600160401b038216106101f55750849596506001600160401b039161018a600395848088541691161015612722565b6000865b61019d575b8887604051908152f35b828754831c1684821610156101f0576101ea906101b98661231d565b6101c2826123ef565b905490891b1c6001600160a01b03166000908152908b5260409020805460ff19169055612397565b8661018e565b610193565b6101fe8461231d565b610207826123ef565b60018060a01b0391549060031b1c1660005287528160406000205416610236575b61023190612397565b610158565b936102436102319161276e565b949050610228565b600080fd5b3461024b57602036600319011261024b5761027961026c61222c565b6102746127fa565b612786565b005b3461024b57604036600319011261024b576004356001600160401b03811161024b573660238201121561024b5780600401356102b68161227e565b916102c46040519384612242565b8183526024602084019260051b8201019036821161024b57602401915b8183106106e257602435846001600160401b038216820361024b5760008051602061290683398151915254916001600160401b038316801590816106d2575b60011490816106c8575b1590816106bf575b506106ad5760016001600160401b03198416176000805160206129068339815191525560ff8360401c1615610680575b61036a612833565b610372612833565b61037b33612786565b610383612833565b81519260ff84161561064957600a60ff196001541617600155600a60ff8516116105e6576001600160401b0382161515806105d0575b1561057f5760005b6001600160401b03811660ff86168110156104ec576001600160a01b03906103e990866123c5565b51169081156104b75781600052600260205260ff60406000205416610480576000828152600260205260408120805460ff191660011790555491600160401b83101561046a5761044283600161046595016000556123ef565b81546001600160a01b0360039290921b91821b191692901b919091179055612397565b6103c1565b634e487b7160e01b600052604160045260246000fd5b60405162461bcd60e51b815260206004820152600f60248201526e223ab83634b1b0ba329037bbb732b960891b6044820152606490fd5b60405162461bcd60e51b815260206004820152600d60248201526c24b73b30b634b21037bbb732b960991b6044820152606490fd5b60ff83876001600160401b0387166001600160401b0319600354161760035561ff006001549160081b169061ff0019161760015560401c161561052b57005b60ff60401b196000805160206129068339815191525416600080516020612906833981519152557fc7f505b2f371ae2175ee4913f4499e1f2633a7b5936321eed1cdaeb6115181d2602060405160018152a1005b60405162461bcd60e51b8152602060048201526024808201527f496e76616c6964206e756d626572206f6620726571756972656420617070726f60448201526376616c7360e01b6064820152608490fd5b5060ff84166001600160401b03831611156103b9565b60405162461bcd60e51b815260206004820152603560248201527f4e756d626572206f66206f776e6572732073686f756c642062652062656c6f77604482015274081b585e1a5b5d5b481bdddb995c9cc81b1a5b5a5d605a1b6064820152608490fd5b60405162461bcd60e51b815260206004820152600f60248201526e13dddb995c9cc81c995c5d5a5c9959608a1b6044820152606490fd5b68ffffffffffffffffff198316680100000000000000011760008051602061290683398151915255610362565b60405163f92ee8a960e01b8152600490fd5b90501584610332565b303b15915061032a565b604085901c60ff16159150610320565b82356001600160a01b038116810361024b578152602092830192016102e1565b3461024b57600036600319011261024b573360005260206002815261072e60ff6040600020541661241c565b6004600052600690818152604060002033600052815261075660ff604060002054161561263e565b6005600052818152604060002033600052815261077b60ff604060002054161561268a565b81600052818152604060002033600052815261079f60ff60406000205416156126d6565b6004600052818152604060002033600052815260406000209160ff199260018482541617905560056000528082526040600020336000528252604060002060018482541617905580600052815260406000209033600052526001604060002091825416179055600080f35b3461024b5761081836612295565b3360005260206002815260ff610834816040600020541661241c565b80835116610843811515612457565b60005b8281168281101561027957806108688561086181948a6123c5565b51166124a2565b60018054600090600890811c8616825b816001600160401b0382161061094c5750506001600160401b03906108a7600393838086541691161015612722565b6000845b6108e2575b5050505050506108cb6108dd93926108616108d0938a6123c5565b61237e565b805460ff19169055612491565b610846565b90919293949596808654841c1684831610156109455750610938859161090788612365565b610910826123ef565b905490881b1c6001600160a01b03166000908152908e5260409020805460ff19169055612397565b8a979695949392916108ab565b96956108b0565b909192939495965061095d86612365565b610966826123ef565b60018060a01b0391549060031b1c166000528b52896040600020541661099d575b61099090612397565b9089969594939291610878565b926109aa6109909161276e565b939050610987565b3461024b576109c036612295565b336000526020906002825260ff916109de836040600020541661241c565b82825116916109ee831515612457565b60005b848116908482101561027957610a45610a2387610a1c85610a28610a2384610a1c610a609a8c6123c5565b51166124f0565b61231d565b336000528952610a3f8360406000205416156124b1565b876123c5565b3360005284526040600020600160ff19825416179055612491565b6109f1565b3461024b57600036600319011261024b573360005260206002815260ff610a92816040600020541661241c565b600180546008939192600091851c8116825b816001600160401b03821610610d0a5750506001600160401b0390610ad3600393838086541691161015612722565b846000815b610cd5575b5050600080828754891c16905b8185821610610c79575050610b0790838086541691161015612722565b846000815b610c45575b50506000956000828754831c16905b8185821610610be8575050610b3e8697848087541691161015612722565b6000865b610b8b575b8660078760046000525260406000209060ff199181838254161790556005600052604060002081838254161790556006600052604060002091825416179055600080f35b828754831c168482161015610be357610bdd906006600052600587526040600020610bb5826123ef565b905490881b1c6001600160a01b0316600090815290885260409020805460ff19169055612397565b86610b42565b610b47565b6006600052600587526040600020610bff826123ef565b905490881b1c6001600160a01b0316600090815290885260409020548416610c30575b610c2b90612397565b610b20565b97610c3d610c2b9161276e565b989050610c22565b828254891c168482161015610c7457610c6e9060058060005287526040600020610bb5826123ef565b81610b0c565b610b11565b60058060005287526040600020610c8f826123ef565b905490881b1c6001600160a01b0316600090815290885260409020548416610cc0575b610cbb90612397565b610aea565b91610ccd610cbb9161276e565b929050610cb2565b828254891c168482161015610d0557610cff906004600052600587526040600020610bb5826123ef565b81610ad8565b610add565b6004600052600585526040600020610d21826123ef565b60018060a01b0391549060031b1c1660005285528260406000205416610d50575b610d4b90612397565b610aa4565b92610d5d610d4b9161276e565b939050610d42565b3461024b57600036600319011261024b57604051604081018181106001600160401b0382111761046a5760405260058152602090640352e302e360dc1b82820152604051828193825282519081818401526000935b828510610ddd575050604092506000838284010152601f80199101168101030190f35b8481018201518686016040015293810193859350610dba565b3461024b57602036600319011261024b57600435600781101561024b5760ff610e2060209261237e565b54166040519015158152f35b3461024b57610e3a36612295565b3360005260206002815260ff91610e57836040600020541661241c565b8281511691610e67831515612457565b6000925b848416938185101561027957610e858661086187876123c5565b6001805490918891600090600890811c8416825b816001600160401b03821610610f5d5750506001600160401b0390610ec8600393838086541691161015612722565b6000865b610f04575b50505050506108cb610eed916108618899610efc9798996123c5565b9060ff19825416179055612491565b929190610e6b565b858754831c168382161015610f5857610f528791610f218761234c565b610f2a826123ef565b905490881b1c6001600160a01b03166000908152908d5260409020805460ff19169055612397565b90610ecc565b610ed1565b610f668561234c565b610f6f826123ef565b60018060a01b0391549060031b1c166000528a528560406000205416610f9e575b610f9990612397565b610e99565b92610fab610f999161276e565b939050610f90565b3461024b57610fc136612295565b336000526020906002825260ff91610fdf836040600020541661241c565b8282511691610fef831515612457565b60005b848116908482101561027957610a4561101d8761086185610a2861101d846108616110229a8c6123c5565b612365565b610ff2565b3461024b57600036600319011261024b576000805160206128c6833981519152546040516001600160a01b039091168152602090f35b3461024b57604036600319011261024b57600435600a81101561024b576024356001600160a01b038116919082900361024b576110999061231d565b90600052602052602060ff604060002054166040519015158152f35b3461024b57600036600319011261024b576110ce6127fa565b6000805160206128c683398151915280546001600160a01b031981169091556000906001600160a01b03167f8be0079c531659141344cd1fd0a4f28419497f9722a3daafe3b4186f6b6457e08280a3005b3461024b5761112d36612295565b336000526020906002825260ff9161114b836040600020541661241c565b828251169161115b831515612457565b60005b848116908482101561027957610a456111898761086185610a286111898461086161118e9a8c6123c5565b61234c565b61115e565b3461024b57600036600319011261024b57336000526020600281526111bf60ff6040600020541661241c565b6000805260059081815260406000203360005281526111e660ff60406000205416156124ff565b60019081600052828152604060002033600052815261120d60ff6040600020541615612555565b6002600052828152604060002033600052815261123260ff60406000205416156125ac565b6003600052828152604060002033600052815261125760ff60406000205416156125f8565b60008052828152604060002033600052815260406000209260ff19938385825416179055826000528082526040600020336000528252604060002083858254161790556002600052808252604060002033600052825260406000208385825416179055600360005281526040600020903360005252604060002091825416179055600080f35b3461024b57600036600319011261024b577f00000000000000000000000000000000000000000000000000000000000000006001600160a01b031630036113365760206040516000805160206128e68339815191528152f35b60405163703e46dd60e11b8152600490fd5b604036600319011261024b5761135c61222c565b60249081356001600160401b03811161024b573660238201121561024b57806004013561138881612263565b926113966040519485612242565b818452602091828501933687838301011161024b5781600092888693018737860101526001600160a01b037f00000000000000000000000000000000000000000000000000000000000000008116308114908115611557575b50611336576113fc6127fa565b8116936040516352d1902d60e01b81528381600481895afa60009181611528575b5061143a57604051634c9c8ce360e01b8152600481018790528790fd5b8590876000805160206128e6833981519152918281036115135750843b156114fd575080546001600160a01b03191682179055604051907fbc7cd75a20ee27fd9adebab32041f755214dbc6bffa90cc0225b39da2e5c2d3b600080a28151156114e2575060006102799481925190845af4903d156114d9573d6114bc81612263565b906114ca6040519283612242565b8152600081943d92013e612862565b60609250612862565b9350505050346114ee57005b63b398979f60e01b8152600490fd5b604051634c9c8ce360e01b815260048101849052fd5b60405190632a87526960e21b82526004820152fd5b9091508481813d8311611550575b6115408183612242565b8101031261024b5751908861141d565b503d611536565b9050816000805160206128e683398151915254161415876113ef565b3461024b57600036600319011261024b57336000526002602081815260ff906115a2826040600020541661241c565b600180549092600092918491600891821c8116855b816001600160401b038216106119275750506001600160401b03916115e6600396848089541691161015612722565b6000845b6118e6575b50600080838654841c16905b818682161061187e57505061161890848089541691161015612722565b6000845b61183d575b50600080838654841c16905b81868216106117d357505061164a90848089541691161015612722565b6000845b611792575b50600080838654841c16905b818682161061172857505061167c90848089541691161015612722565b6000845b6116cc575b6000808052600787526040808220805460ff19908116891790915587835281832080548216891790558b835281832080548216891790558983529120805490911686179055005b828554831c1684821610156117235761171d90876000526005875260406000206116f5826123ef565b9054908a1b1c6001600160a01b0316600090815290885260409020805460ff19169055612397565b84611680565b611685565b9091929394955087600052600587526040600020611745826123ef565b9054908a1b1c6001600160a01b031660009081529088526040902054851661177d575b61177190612397565b9088959493929161165f565b9161178a6117719161276e565b929050611768565b82859293949554841c1685821610156117c9576117bf90896000526005875260406000206116f5826123ef565b819493929161164e565b9392919093611653565b90919293949550896000526005875260406000206117f0826123ef565b9054908a1b1c6001600160a01b0316600090815290885260409020548516611828575b61181c90612397565b9088959493929161162d565b9161183561181c9161276e565b929050611813565b82859293949554841c1685821610156118745761186a90826000526005875260406000206116f5826123ef565b819493929161161c565b9392919093611621565b909192939495600052600587526040600020611899826123ef565b9054908a1b1c6001600160a01b03166000908152908852604090205485166118d1575b6118c590612397565b908895949392916115fb565b916118de6118c59161276e565b9290506118bc565b82859293949554841c16858216101561191d5761191390600080526005875260406000206116f5826123ef565b81949392916115ea565b93929190936115ef565b909192935060008052600585526040600020611942826123ef565b60018060a01b0391549060031b1c1660005285528260406000205416611976575b61196c90612397565b90869392916115b7565b9461198361196c9161276e565b959050611963565b3461024b57600036600319011261024b573360005260206002815260ff6119b8816040600020541661241c565b60008060019283549181600893841c16905b816001600160401b03821610611c275750506001600160401b03916119f9600394848087541691161015612722565b846000815b611bf2575b5050600080838754841c16905b8186821610611b95575050611a2d90848087541691161015612722565b846000815b611b60575b5050600080838754841c16905b8186821610611b04575050611a6190848087541691161015612722565b6000855b611aa7575b600787600460005252604060002060ff19908181541690556005600052604060002081815416905560066000526040600020908154169055600080f35b828654831c168482161015611aff57611af9869160068060005289526040600020611ad1826123ef565b905490891b1c6001600160a01b03166000908152908a5260409020805460ff19169055612397565b90611a65565b611a6a565b60068060005289526040600020611b1a826123ef565b905490891b1c6001600160a01b03166000908152908a5260409020548516611b4b575b611b4690612397565b611a44565b91611b58611b469161276e565b929050611b3d565b838254841c168582161015611b9057611b8a906005600052600689526040600020611ad1826123ef565b81611a32565b611a37565b6005600052600689526040600020611bac826123ef565b905490891b1c6001600160a01b03166000908152908a5260409020548516611bdd575b611bd890612397565b611a10565b91611bea611bd89161276e565b929050611bcf565b838254841c168582161015611c2257611c1c906004600052600689526040600020611ad1826123ef565b816119fe565b611a03565b6004600052600687526040600020611c3e826123ef565b60018060a01b0391549060031b1c1660005287528260406000205416611c6d575b611c6890612397565b6119ca565b93611c7a611c689161276e565b949050611c5f565b3461024b57600036600319011261024b5733600052602060028152611cae60ff6040600020541661241c565b6000805260069081815260406000203360005281526111e660ff60406000205416156124ff565b3461024b57602036600319011261024b576001600160a01b03611cf661222c565b166000526002602052602060ff604060002054166040519015158152f35b3461024b57600036600319011261024b5733600052602060028152611d4060ff6040600020541661241c565b60046000526005908181526040600020336000528152611d6860ff604060002054161561263e565b816000528181526040600020336000528152611d8c60ff604060002054161561268a565b60066000528181526040600020336000528152611db160ff60406000205416156126d6565b6004600052818152604060002033600052815260406000209160ff199260018482541617905580600052808252604060002033600052825260406000206001848254161790556006600052815260406000209033600052526001604060002091825416179055600080f35b3461024b57600036600319011261024b57336000526002602081815260ff91611e4b836040600020541661241c565b600180549093600093918591600891821c8116865b816001600160401b038216106121c85750506001600160401b0391611e8f60039784808a541691161015612722565b6000845b612187575b50600080838654841c16905b818682161061211f575050611ec19084808a541691161015612722565b6000845b6120de575b50600080838654841c16905b8186821610612074575050611ef39084808a541691161015612722565b6000845b612033575b50600080838654841c16905b8186821610611fc9575050611f259084808a541691161015612722565b6000845b611f6d575b6000808052600787526040808220805460ff199081169091558783528183208054821690558983528183208054821690558a8352912080549091169055005b828554831c168482161015611fc457611fbe9088600052600687526040600020611f96826123ef565b9054908b1b1c6001600160a01b0316600090815290885260409020805460ff19169055612397565b84611f29565b611f2e565b9091929394955088600052600687526040600020611fe6826123ef565b9054908b1b1c6001600160a01b031660009081529088526040902054851661201e575b61201290612397565b90899594939291611f08565b9161202b6120129161276e565b929050612009565b82859293949554841c16858216101561206a576120609087600052600687526040600020611f96826123ef565b8194939291611ef7565b9392919093611efc565b9091929394955087600052600687526040600020612091826123ef565b9054908b1b1c6001600160a01b03166000908152908852604090205485166120c9575b6120bd90612397565b90899594939291611ed6565b916120d66120bd9161276e565b9290506120b4565b82859293949554841c1685821610156121155761210b9082600052600687526040600020611f96826123ef565b8194939291611ec5565b9392919093611eca565b90919293949560005260068752604060002061213a826123ef565b9054908b1b1c6001600160a01b0316600090815290885260409020548516612172575b61216690612397565b90899594939291611ea4565b9161217f6121669161276e565b92905061215d565b82859293949554841c1685821610156121be576121b49060008052600687526040600020611f96826123ef565b8194939291611e93565b9392919093611e98565b9091929350600080526006855260406000206121e3826123ef565b60018060a01b0391549060031b1c1660005285528260406000205416612217575b61220d90612397565b9087939291611e60565b9561222461220d9161276e565b969050612204565b600435906001600160a01b038216820361024b57565b90601f801991011681019081106001600160401b0382111761046a57604052565b6001600160401b03811161046a57601f01601f191660200190565b6001600160401b03811161046a5760051b60200190565b60208060031983011261024b57600435916001600160401b03831161024b578060238401121561024b5782600401356122cd8161227e565b936122db6040519586612242565b81855260248486019260051b82010192831161024b57602401905b828210612304575050505090565b813560ff8116810361024b5781529083019083016122f6565b600a811015612336576000526004602052604060002090565b634e487b7160e01b600052602160045260246000fd5b6007811015612336576000526005602052604060002090565b6007811015612336576000526006602052604060002090565b6007811015612336576000526007602052604060002090565b6001600160401b038091169081146123af5760010190565b634e487b7160e01b600052601160045260246000fd5b80518210156123d95760209160051b010190565b634e487b7160e01b600052603260045260246000fd5b9060009182548110156124085782805260208320019190565b634e487b7160e01b83526032600452602483fd5b1561242357565b60405162461bcd60e51b815260206004820152600c60248201526b2737ba1030b71037bbb732b960a11b6044820152606490fd5b1561245e57565b60405162461bcd60e51b815260206004820152600b60248201526a456d70747920617272617960a81b6044820152606490fd5b60ff1660ff81146123af5760010190565b60ff1660078110156123365790565b156124b857565b60405162461bcd60e51b815260206004820152601060248201526f105b1c9958591e48185c1c1c9bdd995960821b6044820152606490fd5b60ff16600a8110156123365790565b1561250657565b60405162461bcd60e51b815260206004820152602160248201527f426f72726f77696e674465706f73697420416c726561647920617070726f76656044820152601960fa1b6064820152608490fd5b1561255c57565b60405162461bcd60e51b815260206004820152602260248201527f426f72726f77696e67576974686472617720416c726561647920617070726f76604482015261195960f21b6064820152608490fd5b156125b357565b60405162461bcd60e51b815260206004820152601c60248201527f4c69717569646174696f6e20416c726561647920617070726f766564000000006044820152606490fd5b156125ff57565b60405162461bcd60e51b815260206004820152601760248201527614d95d10541488105b1c9958591e48185c1c1c9bdd9959604a1b6044820152606490fd5b1561264557565b60405162461bcd60e51b815260206004820152601b60248201527f4344534465706f73697420416c726561647920617070726f76656400000000006044820152606490fd5b1561269157565b60405162461bcd60e51b815260206004820152601c60248201527f434453576974686472617720416c726561647920617070726f766564000000006044820152606490fd5b156126dd57565b60405162461bcd60e51b815260206004820152601b60248201527f52656465656d5553445420416c726561647920617070726f76656400000000006044820152606490fd5b1561272957565b60405162461bcd60e51b815260206004820152601a60248201527f526571756972656420617070726f76616c73206e6f74206d65740000000000006044820152606490fd5b9060016001600160401b03809316019182116123af57565b6001600160a01b039081169081156127e1576000805160206128c683398151915280546001600160a01b031981168417909155167f8be0079c531659141344cd1fd0a4f28419497f9722a3daafe3b4186f6b6457e0600080a3565b604051631e4fbdf760e01b815260006004820152602490fd5b6000805160206128c6833981519152546001600160a01b0316330361281b57565b60405163118cdaa760e01b8152336004820152602490fd5b60ff6000805160206129068339815191525460401c161561285057565b604051631afcd79f60e31b8152600490fd5b90612889575080511561287757805190602001fd5b604051630a12f52160e11b8152600490fd5b815115806128bc575b61289a575090565b604051639996b31560e01b81526001600160a01b039091166004820152602490fd5b50803b1561289256fe9016d09d72d40fdae2fd8ceac6b6234c7706214fd39c1cd1e609a0528c199300360894a13ba1a3210667c828492db98dca3e2076cc3735a920a3ca505d382bbcf0c57e16840df040f15088dc2f81fe391c3923bec73e23a9662efc9c229c6a00a264697066735822122086bbfec13421244afd8f3d789b630a6fffe88ca038c60fe27f729eb8b41b8ca764736f6c63430008140033","linkReferences":{}},"methodIdentifiers":{"UPGRADE_INTERFACE_VERSION()":"ad3cb1cc","approveBorrowingPause()":"5637e6ae","approveBorrowingUnPause()":"3ea940e1","approveCDSPause()":"1c441433","approveCDSUnPause()":"d8378add","approvePause(uint8[])":"6ee4798c","approveSetterFunction(uint8[])":"cff4ed5f","approveUnPause(uint8[])":"8f2a456c","approvedToUpdate(uint8,address)":"8a127639","executeSetterFunction(uint8)":"fb8c9278","functionState(uint8)":"9b4a9544","initialize(address[],uint64)":"e3583d4d","isOwner(address)":"2f54bf6e","owner()":"8da5cb5b","pauseBorrowing()":"475d9694","pauseCDS()":"bb6484c0","pauseFunction(uint8[])":"97d88fcb","proxiableUUID()":"52d1902d","renounceOwnership()":"715018a6","transferOwnership(address)":"f2fde38b","unpauseBorrowing()":"167c6314","unpauseCDS()":"4580a448","unpauseFunction(uint8[])":"d6011d74","upgradeToAndCall(address,bytes)":"4f1ef286"},"id":3}