{"abi":[{"type":"function","name":"OFTAdapter_init","inputs":[{"name":"_token","type":"address","internalType":"address"},{"name":"_lzEndpoint","type":"address","internalType":"address"},{"name":"_delegate","type":"address","internalType":"address"}],"outputs":[],"stateMutability":"nonpayable"},{"type":"function","name":"SEND","inputs":[],"outputs":[{"name":"","type":"uint16","internalType":"uint16"}],"stateMutability":"view"},{"type":"function","name":"SEND_AND_CALL","inputs":[],"outputs":[{"name":"","type":"uint16","internalType":"uint16"}],"stateMutability":"view"},{"type":"function","name":"UPGRADE_INTERFACE_VERSION","inputs":[],"outputs":[{"name":"","type":"string","internalType":"string"}],"stateMutability":"view"},{"type":"function","name":"allowInitializePath","inputs":[{"name":"origin","type":"tuple","internalType":"struct Origin","components":[{"name":"srcEid","type":"uint32","internalType":"uint32"},{"name":"sender","type":"bytes32","internalType":"bytes32"},{"name":"nonce","type":"uint64","internalType":"uint64"}]}],"outputs":[{"name":"","type":"bool","internalType":"bool"}],"stateMutability":"view"},{"type":"function","name":"allowance","inputs":[{"name":"owner","type":"address","internalType":"address"},{"name":"spender","type":"address","internalType":"address"}],"outputs":[{"name":"","type":"uint256","internalType":"uint256"}],"stateMutability":"view"},{"type":"function","name":"approvalRequired","inputs":[],"outputs":[{"name":"","type":"bool","internalType":"bool"}],"stateMutability":"pure"},{"type":"function","name":"approve","inputs":[{"name":"spender","type":"address","internalType":"address"},{"name":"value","type":"uint256","internalType":"uint256"}],"outputs":[{"name":"","type":"bool","internalType":"bool"}],"stateMutability":"nonpayable"},{"type":"function","name":"balanceOf","inputs":[{"name":"account","type":"address","internalType":"address"}],"outputs":[{"name":"","type":"uint256","internalType":"uint256"}],"stateMutability":"view"},{"type":"function","name":"burn","inputs":[{"name":"value","type":"uint256","internalType":"uint256"}],"outputs":[],"stateMutability":"nonpayable"},{"type":"function","name":"burnFrom","inputs":[{"name":"account","type":"address","internalType":"address"},{"name":"value","type":"uint256","internalType":"uint256"}],"outputs":[],"stateMutability":"nonpayable"},{"type":"function","name":"burnFromUser","inputs":[{"name":"to","type":"address","internalType":"address"},{"name":"amount","type":"uint256","internalType":"uint256"}],"outputs":[{"name":"","type":"bool","internalType":"bool"}],"stateMutability":"nonpayable"},{"type":"function","name":"combineOptions","inputs":[{"name":"_eid","type":"uint32","internalType":"uint32"},{"name":"_msgType","type":"uint16","internalType":"uint16"},{"name":"_extraOptions","type":"bytes","internalType":"bytes"}],"outputs":[{"name":"","type":"bytes","internalType":"bytes"}],"stateMutability":"view"},{"type":"function","name":"decimalConversionRate","inputs":[],"outputs":[{"name":"","type":"uint256","internalType":"uint256"}],"stateMutability":"view"},{"type":"function","name":"decimals","inputs":[],"outputs":[{"name":"","type":"uint8","internalType":"uint8"}],"stateMutability":"pure"},{"type":"function","name":"endpoint","inputs":[],"outputs":[{"name":"","type":"address","internalType":"contract ILayerZeroEndpointV2"}],"stateMutability":"view"},{"type":"function","name":"enforcedOptions","inputs":[{"name":"eid","type":"uint32","internalType":"uint32"},{"name":"msgType","type":"uint16","internalType":"uint16"}],"outputs":[{"name":"enforcedOption","type":"bytes","internalType":"bytes"}],"stateMutability":"view"},{"type":"function","name":"initialize","inputs":[{"name":"_token","type":"address","internalType":"address"},{"name":"_lzEndpoint","type":"address","internalType":"address"},{"name":"_delegate","type":"address","internalType":"address"}],"outputs":[],"stateMutability":"nonpayable"},{"type":"function","name":"isComposeMsgSender","inputs":[{"name":"","type":"tuple","internalType":"struct Origin","components":[{"name":"srcEid","type":"uint32","internalType":"uint32"},{"name":"sender","type":"bytes32","internalType":"bytes32"},{"name":"nonce","type":"uint64","internalType":"uint64"}]},{"name":"","type":"bytes","internalType":"bytes"},{"name":"_sender","type":"address","internalType":"address"}],"outputs":[{"name":"","type":"bool","internalType":"bool"}],"stateMutability":"view"},{"type":"function","name":"isPeer","inputs":[{"name":"_eid","type":"uint32","internalType":"uint32"},{"name":"_peer","type":"bytes32","internalType":"bytes32"}],"outputs":[{"name":"","type":"bool","internalType":"bool"}],"stateMutability":"view"},{"type":"function","name":"lzReceive","inputs":[{"name":"_origin","type":"tuple","internalType":"struct Origin","components":[{"name":"srcEid","type":"uint32","internalType":"uint32"},{"name":"sender","type":"bytes32","internalType":"bytes32"},{"name":"nonce","type":"uint64","internalType":"uint64"}]},{"name":"_guid","type":"bytes32","internalType":"bytes32"},{"name":"_message","type":"bytes","internalType":"bytes"},{"name":"_executor","type":"address","internalType":"address"},{"name":"_extraData","type":"bytes","internalType":"bytes"}],"outputs":[],"stateMutability":"payable"},{"type":"function","name":"lzReceiveAndRevert","inputs":[{"name":"_packets","type":"tuple[]","internalType":"struct InboundPacket[]","components":[{"name":"origin","type":"tuple","internalType":"struct Origin","components":[{"name":"srcEid","type":"uint32","internalType":"uint32"},{"name":"sender","type":"bytes32","internalType":"bytes32"},{"name":"nonce","type":"uint64","internalType":"uint64"}]},{"name":"dstEid","type":"uint32","internalType":"uint32"},{"name":"receiver","type":"address","internalType":"address"},{"name":"guid","type":"bytes32","internalType":"bytes32"},{"name":"value","type":"uint256","internalType":"uint256"},{"name":"executor","type":"address","internalType":"address"},{"name":"message","type":"bytes","internalType":"bytes"},{"name":"extraData","type":"bytes","internalType":"bytes"}]}],"outputs":[],"stateMutability":"payable"},{"type":"function","name":"lzReceiveSimulate","inputs":[{"name":"_origin","type":"tuple","internalType":"struct Origin","components":[{"name":"srcEid","type":"uint32","internalType":"uint32"},{"name":"sender","type":"bytes32","internalType":"bytes32"},{"name":"nonce","type":"uint64","internalType":"uint64"}]},{"name":"_guid","type":"bytes32","internalType":"bytes32"},{"name":"_message","type":"bytes","internalType":"bytes"},{"name":"_executor","type":"address","internalType":"address"},{"name":"_extraData","type":"bytes","internalType":"bytes"}],"outputs":[],"stateMutability":"payable"},{"type":"function","name":"mint","inputs":[{"name":"to","type":"address","internalType":"address"},{"name":"amount","type":"uint256","internalType":"uint256"}],"outputs":[{"name":"","type":"bool","internalType":"bool"}],"stateMutability":"nonpayable"},{"type":"function","name":"msgInspector","inputs":[],"outputs":[{"name":"","type":"address","internalType":"address"}],"stateMutability":"view"},{"type":"function","name":"name","inputs":[],"outputs":[{"name":"","type":"string","internalType":"string"}],"stateMutability":"view"},{"type":"function","name":"nextNonce","inputs":[{"name":"","type":"uint32","internalType":"uint32"},{"name":"","type":"bytes32","internalType":"bytes32"}],"outputs":[{"name":"nonce","type":"uint64","internalType":"uint64"}],"stateMutability":"view"},{"type":"function","name":"oApp","inputs":[],"outputs":[{"name":"","type":"address","internalType":"address"}],"stateMutability":"view"},{"type":"function","name":"oAppVersion","inputs":[],"outputs":[{"name":"senderVersion","type":"uint64","internalType":"uint64"},{"name":"receiverVersion","type":"uint64","internalType":"uint64"}],"stateMutability":"pure"},{"type":"function","name":"oftVersion","inputs":[],"outputs":[{"name":"interfaceId","type":"bytes4","internalType":"bytes4"},{"name":"version","type":"uint64","internalType":"uint64"}],"stateMutability":"pure"},{"type":"function","name":"owner","inputs":[],"outputs":[{"name":"","type":"address","internalType":"address"}],"stateMutability":"view"},{"type":"function","name":"pause","inputs":[],"outputs":[],"stateMutability":"nonpayable"},{"type":"function","name":"paused","inputs":[],"outputs":[{"name":"","type":"bool","internalType":"bool"}],"stateMutability":"view"},{"type":"function","name":"peers","inputs":[{"name":"eid","type":"uint32","internalType":"uint32"}],"outputs":[{"name":"peer","type":"bytes32","internalType":"bytes32"}],"stateMutability":"view"},{"type":"function","name":"preCrime","inputs":[],"outputs":[{"name":"","type":"address","internalType":"address"}],"stateMutability":"view"},{"type":"function","name":"proxiableUUID","inputs":[],"outputs":[{"name":"","type":"bytes32","internalType":"bytes32"}],"stateMutability":"view"},{"type":"function","name":"quoteOFT","inputs":[{"name":"_sendParam","type":"tuple","internalType":"struct SendParam","components":[{"name":"dstEid","type":"uint32","internalType":"uint32"},{"name":"to","type":"bytes32","internalType":"bytes32"},{"name":"amountLD","type":"uint256","internalType":"uint256"},{"name":"minAmountLD","type":"uint256","internalType":"uint256"},{"name":"extraOptions","type":"bytes","internalType":"bytes"},{"name":"composeMsg","type":"bytes","internalType":"bytes"},{"name":"oftCmd","type":"bytes","internalType":"bytes"}]}],"outputs":[{"name":"oftLimit","type":"tuple","internalType":"struct OFTLimit","components":[{"name":"minAmountLD","type":"uint256","internalType":"uint256"},{"name":"maxAmountLD","type":"uint256","internalType":"uint256"}]},{"name":"oftFeeDetails","type":"tuple[]","internalType":"struct OFTFeeDetail[]","components":[{"name":"feeAmountLD","type":"int256","internalType":"int256"},{"name":"description","type":"string","internalType":"string"}]},{"name":"oftReceipt","type":"tuple","internalType":"struct OFTReceipt","components":[{"name":"amountSentLD","type":"uint256","internalType":"uint256"},{"name":"amountReceivedLD","type":"uint256","internalType":"uint256"}]}],"stateMutability":"view"},{"type":"function","name":"quoteSend","inputs":[{"name":"_sendParam","type":"tuple","internalType":"struct SendParam","components":[{"name":"dstEid","type":"uint32","internalType":"uint32"},{"name":"to","type":"bytes32","internalType":"bytes32"},{"name":"amountLD","type":"uint256","internalType":"uint256"},{"name":"minAmountLD","type":"uint256","internalType":"uint256"},{"name":"extraOptions","type":"bytes","internalType":"bytes"},{"name":"composeMsg","type":"bytes","internalType":"bytes"},{"name":"oftCmd","type":"bytes","internalType":"bytes"}]},{"name":"_payInLzToken","type":"bool","internalType":"bool"}],"outputs":[{"name":"msgFee","type":"tuple","internalType":"struct MessagingFee","components":[{"name":"nativeFee","type":"uint256","internalType":"uint256"},{"name":"lzTokenFee","type":"uint256","internalType":"uint256"}]}],"stateMutability":"view"},{"type":"function","name":"renounceOwnership","inputs":[],"outputs":[],"stateMutability":"nonpayable"},{"type":"function","name":"send","inputs":[{"name":"_sendParam","type":"tuple","internalType":"struct SendParam","components":[{"name":"dstEid","type":"uint32","internalType":"uint32"},{"name":"to","type":"bytes32","internalType":"bytes32"},{"name":"amountLD","type":"uint256","internalType":"uint256"},{"name":"minAmountLD","type":"uint256","internalType":"uint256"},{"name":"extraOptions","type":"bytes","internalType":"bytes"},{"name":"composeMsg","type":"bytes","internalType":"bytes"},{"name":"oftCmd","type":"bytes","internalType":"bytes"}]},{"name":"_fee","type":"tuple","internalType":"struct MessagingFee","components":[{"name":"nativeFee","type":"uint256","internalType":"uint256"},{"name":"lzTokenFee","type":"uint256","internalType":"uint256"}]},{"name":"_refundAddress","type":"address","internalType":"address"}],"outputs":[{"name":"msgReceipt","type":"tuple","internalType":"struct MessagingReceipt","components":[{"name":"guid","type":"bytes32","internalType":"bytes32"},{"name":"nonce","type":"uint64","internalType":"uint64"},{"name":"fee","type":"tuple","internalType":"struct MessagingFee","components":[{"name":"nativeFee","type":"uint256","internalType":"uint256"},{"name":"lzTokenFee","type":"uint256","internalType":"uint256"}]}]},{"name":"oftReceipt","type":"tuple","internalType":"struct OFTReceipt","components":[{"name":"amountSentLD","type":"uint256","internalType":"uint256"},{"name":"amountReceivedLD","type":"uint256","internalType":"uint256"}]}],"stateMutability":"payable"},{"type":"function","name":"setBorrowingContract","inputs":[{"name":"_address","type":"address","internalType":"address"}],"outputs":[],"stateMutability":"nonpayable"},{"type":"function","name":"setCdsContract","inputs":[{"name":"_address","type":"address","internalType":"address"}],"outputs":[],"stateMutability":"nonpayable"},{"type":"function","name":"setDelegate","inputs":[{"name":"_delegate","type":"address","internalType":"address"}],"outputs":[],"stateMutability":"nonpayable"},{"type":"function","name":"setDstEid","inputs":[{"name":"_eid","type":"uint32","internalType":"uint32"}],"outputs":[],"stateMutability":"nonpayable"},{"type":"function","name":"setEnforcedOptions","inputs":[{"name":"_enforcedOptions","type":"tuple[]","internalType":"struct EnforcedOptionParam[]","components":[{"name":"eid","type":"uint32","internalType":"uint32"},{"name":"msgType","type":"uint16","internalType":"uint16"},{"name":"options","type":"bytes","internalType":"bytes"}]}],"outputs":[],"stateMutability":"nonpayable"},{"type":"function","name":"setMsgInspector","inputs":[{"name":"_msgInspector","type":"address","internalType":"address"}],"outputs":[],"stateMutability":"nonpayable"},{"type":"function","name":"setPeer","inputs":[{"name":"_eid","type":"uint32","internalType":"uint32"},{"name":"_peer","type":"bytes32","internalType":"bytes32"}],"outputs":[],"stateMutability":"nonpayable"},{"type":"function","name":"setPreCrime","inputs":[{"name":"_preCrime","type":"address","internalType":"address"}],"outputs":[],"stateMutability":"nonpayable"},{"type":"function","name":"sharedDecimals","inputs":[],"outputs":[{"name":"","type":"uint8","internalType":"uint8"}],"stateMutability":"view"},{"type":"function","name":"symbol","inputs":[],"outputs":[{"name":"","type":"string","internalType":"string"}],"stateMutability":"view"},{"type":"function","name":"token","inputs":[],"outputs":[{"name":"","type":"address","internalType":"address"}],"stateMutability":"view"},{"type":"function","name":"totalSupply","inputs":[],"outputs":[{"name":"","type":"uint256","internalType":"uint256"}],"stateMutability":"view"},{"type":"function","name":"transfer","inputs":[{"name":"to","type":"address","internalType":"address"},{"name":"value","type":"uint256","internalType":"uint256"}],"outputs":[{"name":"","type":"bool","internalType":"bool"}],"stateMutability":"nonpayable"},{"type":"function","name":"transferFrom","inputs":[{"name":"from","type":"address","internalType":"address"},{"name":"to","type":"address","internalType":"address"},{"name":"value","type":"uint256","internalType":"uint256"}],"outputs":[{"name":"","type":"bool","internalType":"bool"}],"stateMutability":"nonpayable"},{"type":"function","name":"transferOwnership","inputs":[{"name":"newOwner","type":"address","internalType":"address"}],"outputs":[],"stateMutability":"nonpayable"},{"type":"function","name":"unpause","inputs":[],"outputs":[],"stateMutability":"nonpayable"},{"type":"function","name":"upgradeToAndCall","inputs":[{"name":"newImplementation","type":"address","internalType":"address"},{"name":"data","type":"bytes","internalType":"bytes"}],"outputs":[],"stateMutability":"payable"},{"type":"event","name":"Approval","inputs":[{"name":"owner","type":"address","indexed":true,"internalType":"address"},{"name":"spender","type":"address","indexed":true,"internalType":"address"},{"name":"value","type":"uint256","indexed":false,"internalType":"uint256"}],"anonymous":false},{"type":"event","name":"EnforcedOptionSet","inputs":[{"name":"_enforcedOptions","type":"tuple[]","indexed":false,"internalType":"struct EnforcedOptionParam[]","components":[{"name":"eid","type":"uint32","internalType":"uint32"},{"name":"msgType","type":"uint16","internalType":"uint16"},{"name":"options","type":"bytes","internalType":"bytes"}]}],"anonymous":false},{"type":"event","name":"Initialized","inputs":[{"name":"version","type":"uint64","indexed":false,"internalType":"uint64"}],"anonymous":false},{"type":"event","name":"MsgInspectorSet","inputs":[{"name":"inspector","type":"address","indexed":false,"internalType":"address"}],"anonymous":false},{"type":"event","name":"OFTReceived","inputs":[{"name":"guid","type":"bytes32","indexed":true,"internalType":"bytes32"},{"name":"srcEid","type":"uint32","indexed":false,"internalType":"uint32"},{"name":"toAddress","type":"address","indexed":true,"internalType":"address"},{"name":"amountReceivedLD","type":"uint256","indexed":false,"internalType":"uint256"}],"anonymous":false},{"type":"event","name":"OFTSent","inputs":[{"name":"guid","type":"bytes32","indexed":true,"internalType":"bytes32"},{"name":"dstEid","type":"uint32","indexed":false,"internalType":"uint32"},{"name":"fromAddress","type":"address","indexed":true,"internalType":"address"},{"name":"amountSentLD","type":"uint256","indexed":false,"internalType":"uint256"},{"name":"amountReceivedLD","type":"uint256","indexed":false,"internalType":"uint256"}],"anonymous":false},{"type":"event","name":"OwnershipTransferred","inputs":[{"name":"previousOwner","type":"address","indexed":true,"internalType":"address"},{"name":"newOwner","type":"address","indexed":true,"internalType":"address"}],"anonymous":false},{"type":"event","name":"Paused","inputs":[{"name":"account","type":"address","indexed":false,"internalType":"address"}],"anonymous":false},{"type":"event","name":"PeerSet","inputs":[{"name":"eid","type":"uint32","indexed":false,"internalType":"uint32"},{"name":"peer","type":"bytes32","indexed":false,"internalType":"bytes32"}],"anonymous":false},{"type":"event","name":"PreCrimeSet","inputs":[{"name":"preCrimeAddress","type":"address","indexed":false,"internalType":"address"}],"anonymous":false},{"type":"event","name":"Transfer","inputs":[{"name":"from","type":"address","indexed":true,"internalType":"address"},{"name":"to","type":"address","indexed":true,"internalType":"address"},{"name":"value","type":"uint256","indexed":false,"internalType":"uint256"}],"anonymous":false},{"type":"event","name":"Unpaused","inputs":[{"name":"account","type":"address","indexed":false,"internalType":"address"}],"anonymous":false},{"type":"event","name":"Upgraded","inputs":[{"name":"implementation","type":"address","indexed":true,"internalType":"address"}],"anonymous":false},{"type":"error","name":"AddressEmptyCode","inputs":[{"name":"target","type":"address","internalType":"address"}]},{"type":"error","name":"AddressInsufficientBalance","inputs":[{"name":"account","type":"address","internalType":"address"}]},{"type":"error","name":"ERC1967InvalidImplementation","inputs":[{"name":"implementation","type":"address","internalType":"address"}]},{"type":"error","name":"ERC1967NonPayable","inputs":[]},{"type":"error","name":"ERC20InsufficientAllowance","inputs":[{"name":"spender","type":"address","internalType":"address"},{"name":"allowance","type":"uint256","internalType":"uint256"},{"name":"needed","type":"uint256","internalType":"uint256"}]},{"type":"error","name":"ERC20InsufficientBalance","inputs":[{"name":"sender","type":"address","internalType":"address"},{"name":"balance","type":"uint256","internalType":"uint256"},{"name":"needed","type":"uint256","internalType":"uint256"}]},{"type":"error","name":"ERC20InvalidApprover","inputs":[{"name":"approver","type":"address","internalType":"address"}]},{"type":"error","name":"ERC20InvalidReceiver","inputs":[{"name":"receiver","type":"address","internalType":"address"}]},{"type":"error","name":"ERC20InvalidSender","inputs":[{"name":"sender","type":"address","internalType":"address"}]},{"type":"error","name":"ERC20InvalidSpender","inputs":[{"name":"spender","type":"address","internalType":"address"}]},{"type":"error","name":"EndPointUnavailable","inputs":[]},{"type":"error","name":"EnforcedPause","inputs":[]},{"type":"error","name":"ExpectedPause","inputs":[]},{"type":"error","name":"FailedInnerCall","inputs":[]},{"type":"error","name":"InvalidDelegate","inputs":[]},{"type":"error","name":"InvalidEndpointCall","inputs":[]},{"type":"error","name":"InvalidInitialization","inputs":[]},{"type":"error","name":"InvalidLocalDecimals","inputs":[]},{"type":"error","name":"InvalidOptions","inputs":[{"name":"options","type":"bytes","internalType":"bytes"}]},{"type":"error","name":"LzTokenUnavailable","inputs":[]},{"type":"error","name":"NoPeer","inputs":[{"name":"eid","type":"uint32","internalType":"uint32"}]},{"type":"error","name":"NotEnoughNative","inputs":[{"name":"msgValue","type":"uint256","internalType":"uint256"}]},{"type":"error","name":"NotInitializing","inputs":[]},{"type":"error","name":"OnlyEndpoint","inputs":[{"name":"addr","type":"address","internalType":"address"}]},{"type":"error","name":"OnlyPeer","inputs":[{"name":"eid","type":"uint32","internalType":"uint32"},{"name":"sender","type":"bytes32","internalType":"bytes32"}]},{"type":"error","name":"OnlySelf","inputs":[]},{"type":"error","name":"OwnableInvalidOwner","inputs":[{"name":"owner","type":"address","internalType":"address"}]},{"type":"error","name":"OwnableUnauthorizedAccount","inputs":[{"name":"account","type":"address","internalType":"address"}]},{"type":"error","name":"SafeERC20FailedOperation","inputs":[{"name":"token","type":"address","internalType":"address"}]},{"type":"error","name":"SimulationResult","inputs":[{"name":"result","type":"bytes","internalType":"bytes"}]},{"type":"error","name":"SlippageExceeded","inputs":[{"name":"amountLD","type":"uint256","internalType":"uint256"},{"name":"minAmountLD","type":"uint256","internalType":"uint256"}]},{"type":"error","name":"UUPSUnauthorizedCallContext","inputs":[]},{"type":"error","name":"UUPSUnsupportedProxiableUUID","inputs":[{"name":"slot","type":"bytes32","internalType":"bytes32"}]}],"bytecode":{"object":"0x60a0806040523461002a5730608052613807908161003082396080518181816110a201526111f50152f35b600080fdfe6080604052600436101561001257600080fd5b60003560e01c806306fdde031461039d578063095ea7b3146103985780630d14c92e146103935780630d35b4151461038e578063111ecdad1461038957806313137d6514610384578063134d4f251461037f578063156a0d0f1461037a57806317442b701461037557806318160ddd146103705780631f5e1334146102ee57806323b872dd1461036b578063313ce567146103025780633400288b146103665780633b6f743b146103615780633f4ba83a1461035c57806340c10f191461035757806342966c68146103525780634f1ef2861461034d57806352ae28791461034857806352d1902d146103435780635535d4611461033e5780635a0dfe4d146103395780635c975abb146103345780635e280f111461032f5780636fc1b31e1461032a57806370a0823114610325578063715018a61461032057806378fdaf3f1461031b57806379cc6790146103165780637d25a05e1461031157806382413eac1461030c5780638456cb5914610307578063857749b0146103025780638da5cb5b146102fd57806395d89b41146102f8578063963efcaa146102f35780639f68b964146102ee578063a70bb077146102e9578063a9059cbb146102e4578063ad3cb1cc146102df578063b731ea0a146102da578063b98bd070146102d5578063bb0b6a53146102d0578063bc70b354146102cb578063bd815db0146102c6578063c0c53b8b146102c1578063c753e126146102bc578063c7c7f5b3146102b7578063ca5eb5e1146102b2578063d045a0dc146102ad578063d4243885146102a8578063dd62ed3e146102a3578063f16b7f901461029e578063f2fde38b14610299578063fc0c546a146102945763ff7bd03d1461028f57600080fd5b612251565b612228565b6121fb565b6121dc565b61219c565b61212c565b611fe3565b611f67565b611e09565b611d58565b611c31565b611aa9565b611a55565b611a1a565b611951565b6118dc565b611896565b61186c565b611813565b610b00565b6117f5565b61174f565b611719565b610b67565b6116b2565b611654565b61162d565b6115f9565b611594565b611529565b6114cd565b61145d565b611434565b611404565b6113bc565b61133d565b6111e2565b6111c7565b611060565b610eff565b610e15565b610d9e565b610c14565b610b83565b610b1c565b610ad5565b610ab3565b610a8c565b610a70565b61088f565b6107c4565b61071e565b6105d8565b610504565b61040e565b60009103126103ad57565b600080fd5b60005b8381106103c55750506000910152565b81810151838201526020016103b5565b906020916103ee815180928185528580860191016103b2565b601f01601f1916010190565b90602061040b9281815201906103d5565b90565b346103ad576000806003193601126104f057604051817f52c63247e1f47db19d5ce0460030c497f067ca4cebf71ba98eeadabe20bace0380546104508161126d565b808552916001918083169081156104c5575060011461048a575b6104868561047a81890382610fb8565b604051918291826103fa565b0390f35b835260208084209095505b8284106104b257505050816104869361047a92820101933861046a565b8054858501870152928501928101610495565b9050610486965061047a9450602092508593915060ff191682840152151560051b820101933861046a565b80fd5b6001600160a01b038116036103ad57565b346103ad5760403660031901126103ad57600435610521816104f3565b60243533156105b1576001600160a01b038216918215610598576105608291610549336132a9565b9060018060a01b0316600052602052604060002090565b556040519081527f8c5be1e5ebec7d5bd14f71427d1e84f3dd0314c0f7b2291e5b200ac8c7c3b92560203392a3602060405160018152f35b604051634a1406b160e11b815260006004820152602490fd5b60405163e602df0560e01b815260006004820152602490fd5b63ffffffff8116036103ad57565b346103ad5760203660031901126103ad576004356105f5816105ca565b6105fd6131f9565b63ffffffff81161561062e576009805463ffffffff60a01b191660a09290921b63ffffffff60a01b16919091179055005b60405162461bcd60e51b81526020600482015260116024820152704549442063616e2774206265207a65726f60781b6044820152606490fd5b908160e09103126103ad5790565b9392916106908560a081019360208091805184520151910152565b60409160a083870152815180915260c086019160c08260051b880101936020809201936000915b8483106106df575050505050509060606106dd9294019060208091805184520151910152565b565b909192939495848061070e6001938d60bf1990820301875285838c5180518452015191818582015201906103d5565b98019301930191949392906106b7565b346103ad5760203660031901126103ad576001600160401b036004358181116103ad5761074f903690600401610667565b906107586129ff565b506107616129ff565b506040519061076f82610f34565b6000825260208201526104866107a86040519361078b85610f82565b60008552610798816123a7565b5060406060820135910135612f22565b6107b0610fd9565b918252602082015260405193849384610675565b346103ad5760003660031901126103ad576008546040516001600160a01b039091168152602090f35b60609060031901126103ad57600490565b9181601f840112156103ad578235916001600160401b0383116103ad57602083818601950101116103ad57565b600319810160e081126103ad576060136103ad57600491606435916001600160401b03906084358281116103ad57816108659187016107fe565b9390939260a435610875816104f3565b9260c4359182116103ad5761088b9188016107fe565b9091565b6108983661082b565b50506003549294926001600160a01b0392915082163303610a585782356108be816105ca565b6108c7816123b1565b906020850135809203610a235750506108ef6108e38287613046565b6001600160a01b031690565b906109156109056109008389613052565b612eed565b61090e866123a7565b5083612e87565b809660288311610965575b50505061096061093e600080516020613732833981519152946123a7565b956040519384931696836020909392919363ffffffff60408201951681520152565b0390a3005b90610990929161098a61097a60408901612e52565b93610984896123a7565b92613064565b92612f5e565b6003546109a5906001600160a01b03166108e3565b803b156103ad57604051633e5ac80960e11b81529160009183918290849082906109d4908c8a60048501612e5c565b03925af18015610a1e57600080516020613732833981519152946109609261093e92610a05575b5094879150610920565b80610a12610a1892610f6f565b806103a2565b386109fb565b61239b565b610a2c816105ca565b60405163309afaf360e21b815263ffffffff9190911660048201526024810191909152604490fd5b0390fd5b6040516391ac5e4f60e01b8152336004820152602490fd5b346103ad5760003660031901126103ad57602060405160028152f35b346103ad5760003660031901126103ad576040805162b9270b60e21b815260016020820152f35b346103ad5760003660031901126103ad57604080516001815260026020820152f35b346103ad5760003660031901126103ad57602060008051602061371283398151915254604051908152f35b346103ad5760003660031901126103ad57602060405160018152f35b346103ad5760603660031901126103ad57610b5c600435610b3c816104f3565b602435610b48816104f3565b60443591610b5783338361338f565b6132e2565b602060405160018152f35b346103ad5760003660031901126103ad57602060405160068152f35b346103ad5760403660031901126103ad577f238399d427b947898edb290f5ff0f9109849b1c3ba196a42e35f00c50a54b98b600435610bc1816105ca565b60243590610bcd6131f9565b63ffffffff8116600052600460205281604060002055610c05604051928392836020909392919363ffffffff60408201951681520152565b0390a1005b801515036103ad57565b346103ad576040806003193601126103ad576004356001600160401b0381116103ad57610c45903690600401610667565b90602435610c5281610c0a565b610c5a6129ff565b506060830135833593610c6c856105ca565b610c84600754610c7f8187850135612f02565b612eda565b91808310610d81575091610d02610ca0610d1e96938695612d64565b610cac859492946105ca565b610cb46129ff565b50600354610cca906001600160a01b03166108e3565b93610cd4866123b1565b610ceb610cdf610fe6565b63ffffffff9098168852565b602087015286860152606085015215156080840152565b82518080968194631bb8518b60e31b8352309060048401612a54565b03915afa908115610a1e5761048692600092610d52575b505191829182815181526020918201519181019190915260400190565b81610d739293503d8411610d7a575b610d6b8183610fb8565b810190612a40565b9038610d35565b503d610d61565b826044918651916371c4efed60e01b835260048301526024820152fd5b346103ad5760003660031901126103ad57610db76131f9565b600080516020613792833981519152805460ff811615610e035760ff191690557f5db9ee0a495bf2e6ff9c91a7834c1ba4fdd244a5e8aa4e537bd38aeae4b073aa6020604051338152a1005b604051638dfc202b60e01b8152600490fd5b346103ad5760403660031901126103ad57600435610e32816104f3565b60025460243591906001600160a01b0390811633148015610ef2575b610e57906122e2565b8116918215610ed957610eca60008051602061377283398151915291610eb4600094610e816134c1565b610eaf610e9d84600080516020613712833981519152546134b4565b60008051602061371283398151915255565b613270565b8054820190556040519081529081906020820190565b0390a360405160018152602090f35b60405163ec442f0560e01b815260006004820152602490fd5b5060015481163314610e4e565b346103ad5760203660031901126103ad57610f1c60043533613414565b005b634e487b7160e01b600052604160045260246000fd5b604081019081106001600160401b03821117610f4f57604052565b610f1e565b606081019081106001600160401b03821117610f4f57604052565b6001600160401b038111610f4f57604052565b602081019081106001600160401b03821117610f4f57604052565b60a081019081106001600160401b03821117610f4f57604052565b90601f801991011681019081106001600160401b03821117610f4f57604052565b604051906106dd82610f34565b604051906106dd82610f9d565b6001600160401b038111610f4f57601f01601f191660200190565b92919261101a82610ff3565b916110286040519384610fb8565b8294818452818301116103ad578281602093846000960137010152565b9080601f830112156103ad5781602061040b9335910161100e565b60403660031901126103ad57600480359061107a826104f3565b6024356001600160401b0381116103ad576110989036908301611045565b6001600160a01b037f000000000000000000000000000000000000000000000000000000000000000081163081149081156111ab575b5061119a5790602083926110e06131f9565b6040516352d1902d60e01b8152938491829088165afa6000928161116a575b5061112d575050604051634c9c8ce360e01b81526001600160a01b0390921690820190815281906020010390fd5b8383600080516020613752833981519152840361114e57610f1c83836134ec565b604051632a87526960e21b815290810184815281906020010390fd5b61118c91935060203d8111611193575b6111848183610fb8565b810190613261565b91386110ff565b503d61117a565b60405163703e46dd60e11b81528390fd5b90508160008051602061375283398151915254161415386110ce565b346103ad5760003660031901126103ad576020604051308152f35b346103ad5760003660031901126103ad577f00000000000000000000000000000000000000000000000000000000000000006001600160a01b0316300361123b5760206040516000805160206137528339815191528152f35b60405163703e46dd60e11b8152600490fd5b6024359061ffff821682036103ad57565b359061ffff821682036103ad57565b90600182811c9216801561129d575b602083101461128757565b634e487b7160e01b600052602260045260246000fd5b91607f169161127c565b90600092918054916112b88361126d565b91828252600193848116908160001461131a57506001146112da575b50505050565b90919394506000526020928360002092846000945b8386106113065750505050010190388080806112d4565b8054858701830152940193859082016112ef565b9294505050602093945060ff191683830152151560051b010190388080806112d4565b346103ad5760403660031901126103ad576104866113a16113a8611395600435611366816105ca565b63ffffffff61137361124d565b9116600052600660205260406000209061ffff16600052602052604060002090565b604051928380926112a7565b0382610fb8565b6040519182916020835260208301906103d5565b346103ad5760403660031901126103ad5760206113fa6004356113de816105ca565b6024359063ffffffff1660005260046020526040600020541490565b6040519015158152f35b346103ad5760003660031901126103ad57602060ff60008051602061379283398151915254166040519015158152f35b346103ad5760003660031901126103ad576003546040516001600160a01b039091168152602090f35b346103ad5760203660031901126103ad577ff0be4f1e87349231d80c36b33f9e8639658eeaf474014dee15a3e6a4d4414197602060043561149d816104f3565b6114a56131f9565b600880546001600160a01b0319166001600160a01b03929092169182179055604051908152a1005b346103ad5760203660031901126103ad576004356114ea816104f3565b60018060a01b03166000527f52c63247e1f47db19d5ce0460030c497f067ca4cebf71ba98eeadabe20bace006020526020604060002054604051908152f35b346103ad576000806003193601126104f0576115436131f9565b6000805160206136f283398151915280546001600160a01b0319811690915581906001600160a01b03167f8be0079c531659141344cd1fd0a4f28419497f9722a3daafe3b4186f6b6457e08280a380f35b346103ad5760203660031901126103ad576004356115b1816104f3565b6115b96131f9565b6001600160a01b038116906115d89082151590816115ee575b50612354565b600180546001600160a01b031916919091179055005b90503b1515386115d2565b346103ad5760403660031901126103ad57610f1c600435611619816104f3565b6024359061162882338361338f565b613414565b346103ad5760403660031901126103ad576116496004356105ca565b602060405160008152f35b346103ad5760a03660031901126103ad5761166e366107ed565b506064356001600160401b0381116103ad5761168e9036906004016107fe565b5050602060843561169e816104f3565b6040516001600160a01b0390911630148152f35b346103ad5760003660031901126103ad576116cb6131f9565b6116d36134c1565b600080516020613792833981519152600160ff198254161790557f62e78cea01bee320cd4e420270b5ea74000d11b0c9f74754ebdbfc544b05a2586020604051338152a1005b346103ad5760003660031901126103ad576000805160206136f2833981519152546040516001600160a01b039091168152602090f35b346103ad576000806003193601126104f057604051817f52c63247e1f47db19d5ce0460030c497f067ca4cebf71ba98eeadabe20bace0480546117918161126d565b808552916001918083169081156104c557506001146117ba576104868561047a81890382610fb8565b835260208084209095505b8284106117e257505050816104869361047a92820101933861046a565b80548585018701529285019281016117c5565b346103ad5760003660031901126103ad576020600754604051908152f35b346103ad5760203660031901126103ad57600435611830816104f3565b6118386131f9565b6001600160a01b038116906118569082151590816115ee5750612354565b600280546001600160a01b031916919091179055005b346103ad5760403660031901126103ad57610b5c60043561188c816104f3565b60243590336132e2565b346103ad5760003660031901126103ad576104866040516118b681610f34565b60058152640352e302e360dc1b60208201526040519182916020835260208301906103d5565b346103ad5760003660031901126103ad576005546040516001600160a01b039091168152602090f35b9060206003198301126103ad576004356001600160401b03928382116103ad57806023830112156103ad5781600401359384116103ad5760248460051b830101116103ad576024019190565b346103ad5761195f36611905565b906119686131f9565b611971826123e9565b90604061198081519384610fb8565b8383526020938484019060051b8301923684116103ad5780915b8483106119aa57610f1c86612604565b6001600160401b039083358281116103ad578301906060823603126103ad5785516119d481610f54565b82356119df816105ca565b81526119ec8a840161125e565b8a820152868301359384116103ad57611a0b8a94938594369101611045565b8782015281520192019161199a565b346103ad5760203660031901126103ad5763ffffffff600435611a3c816105ca565b1660005260046020526020604060002054604051908152f35b346103ad5760603660031901126103ad57600435611a72816105ca565b611a7a61124d565b604435906001600160401b0382116103ad5761048692611aa16113a89336906004016107fe565b929091612759565b611ab236611905565b60005b818110611b1f57604051638e9e709960e01b8152600081600481335afa8015610a1e57610a5491600091611afe575b50604051638351eea760e01b8152918291600483016103fa565b611b19913d8091833e611b118183610fb8565b810190613127565b82611ae4565b611b2a818385613080565b90611b5c611b58611b3a846123a7565b60208501359063ffffffff1660005260046020526040600020541490565b1590565b611bf557611b6e610100830183612cf8565b92611b7b60e082016130a3565b90611b8a610120820182612cf8565b959095303b156103ad57600094611bc060c092604051998a9788968795633411683760e21b875260a08a01358a600489016130ad565b03920135305af1918215610a1e57611bdd92611be2575b50612416565b611ab5565b80610a12611bef92610f6f565b38611bd7565b611bdd9150612416565b60609060031901126103ad57600435611c17816104f3565b90602435611c24816104f3565b9060443561040b816104f3565b346103ad57611c3f36611bff565b6000805160206137b283398151915254604081901c60ff16159392906001600160401b031680159081611d50575b6001149081611d46575b159081611d3d575b50611d2b576000805160206137b2833981519152805467ffffffffffffffff19166001179055611cb39284611d0657612297565b611cb957005b6000805160206137b2833981519152805460ff60401b19169055604051600181527fc7f505b2f371ae2175ee4913f4499e1f2633a7b5936321eed1cdaeb6115181d2908060208101610c05565b6000805160206137b2833981519152805460ff60401b1916600160401b179055612297565b60405163f92ee8a960e01b8152600490fd5b90501538611c7f565b303b159150611c77565b859150611c6d565b346103ad5760403660031901126103ad57610b5c600435611d78816104f3565b6002546024359190611d9f90336001600160a01b0391821614908115611daa575b506122e2565b61162882338361338f565b905060015416331438611d99565b9160806106dd929493611df8604060c0830197805184526001600160401b0360208201511660208501520151604083019060208091805184520151910152565b019060208091805184520151910152565b60803660031901126103ad576004356001600160401b0381116103ad57611e34903690600401610667565b60403660231901126103ad57606435611e4c816104f3565b611e54612ac2565b50611e5d6129ff565b50606082013590611e6e83356105ca565b611e82600754610c7f816040870135612f02565b91808310611f495750600954611ece9190611eab908490309033906001600160a01b0316613590565b611eb58385612d64565b611ebe866123a7565b91611ec836612aea565b92612b65565b90611ed7610fd9565b928184528160208501527f85496b760a4b7f8d66384b9df21b381f5d1b1e79f229a47aaf4c232edc2fe59a611f37611f108551936123a7565b936040519181839233978460409194939263ffffffff606083019616825260208201520152565b0390a361048660405192839283611db8565b82604491604051916371c4efed60e01b835260048301526024820152fd5b346103ad57600060203660031901126104f057600435611f86816104f3565b611f8e6131f9565b6003546001600160a01b0390811691839190833b15611fdf5760249083604051958694859363ca5eb5e160e01b85521660048401525af18015610a1e57611fd3575080f35b611fdc90610f6f565b80f35b8280fd5b611fec3661082b565b505050929030330361211a576120056108e38583613046565b936120266120166109008385613052565b61201f856123a7565b5086612e87565b9160288211612076575b505061204a600080516020613732833981519152926123a7565b6040805163ffffffff909216825260208201929092526001600160a01b03909416939081908101610960565b90826120959261098a61208b60408801612e52565b93610984886123a7565b6003549092906120ad906001600160a01b03166108e3565b803b156103ad57604051633e5ac80960e11b81529360009185918290849082906120dc908b8d60048501612e5c565b03925af1908115610a1e576000805160206137328339815191529361204a92612107575b5092612030565b80610a1261211492610f6f565b38612100565b60405163029a949d60e31b8152600490fd5b346103ad5760203660031901126103ad577fd48d879cef83a1c0bdda516f27b13ddb1b3f8bbac1c9e1511bb2a659c2427760602060043561216c816104f3565b6121746131f9565b600580546001600160a01b0319166001600160a01b03929092169182179055604051908152a1005b346103ad5760403660031901126103ad5760206121d36004356121be816104f3565b610549602435916121ce836104f3565b6132a9565b54604051908152f35b346103ad57610f1c6121ed36611bff565b916121f66131f9565b612837565b346103ad5760203660031901126103ad57610f1c60043561221b816104f3565b6122236131f9565b613185565b346103ad5760003660031901126103ad576009546040516001600160a01b039091168152602090f35b346103ad5760603660031901126103ad57602061226d366107ed565b63ffffffff813561227d816105ca565b166000526004825260406000205482604051920135148152f35b906122a29291612837565b6122aa613232565b6122b2613232565b6122ba613232565b600080516020613792833981519152805460ff191690556122da33613185565b6106dd613232565b156122e957565b60405162461bcd60e51b815260206004820152603a60248201527f546869732066756e6374696f6e2063616e206f6e6c792063616c6c656420627960448201527f20426f72726f77696e67206f722043445320636f6e74726163740000000000006064820152608490fd5b1561235b57565b60405162461bcd60e51b8152602060048201526018602482015277125b9c1d5d081859191c995cdcc81a5cc81a5b9d985b1a5960421b6044820152606490fd5b6040513d6000823e3d90fd5b3561040b816105ca565b63ffffffff168060005260046020526040600020549081156123d1575090565b6024906040519063f6ff4fb760e01b82526004820152fd5b6001600160401b038111610f4f5760051b60200190565b634e487b7160e01b600052601160045260246000fd5b60001981146124255760010190565b612400565b634e487b7160e01b600052603260045260246000fd5b80518210156124545760209160051b010190565b61242a565b90601f811161246757505050565b600091825260208220906020601f850160051c830194106124a3575b601f0160051c01915b82811061249857505050565b81815560010161248c565b9092508290612483565b91909182516001600160401b038111610f4f576124d4816124ce845461126d565b84612459565b602080601f8311600114612510575081929394600092612505575b50508160011b916000199060031b1c1916179055565b0151905038806124ef565b90601f1983169561252685600052602060002090565b926000905b8882106125635750508360019596971061254a575b505050811b019055565b015160001960f88460031b161c19169055388080612540565b8060018596829496860151815501950193019061252b565b602080820190808352835180925260409283810182858560051b8401019601946000925b8584106125b0575050505050505090565b9091929394959685806125f3600193603f19868203018852868c5163ffffffff815116835261ffff858201511685840152015190606090818982015201906103d5565b99019401940192959493919061259f565b90600091825b81518110156126945761268f9061268a60406126328161262a8588612440565b5101516127ff565b612685816126408588612440565b5101519163ffffffff6126538689612440565b515116895261ffff602091600683528a209161266f878a612440565b5101511661ffff16600052602052604060002090565b6124ad565b612416565b61260a565b507fbe4864a8e820971c0247f5992e2da559595f7bf076a21cb5928d443d2a13b6749192506126c9906040519182918261257b565b0390a1565b90929192836002116103ad5783116103ad57600201916001190190565b602090836106dd93959495604051968361270e89955180928880890191016103b2565b8401918583013701600083820152038085520183610fb8565b908060209392818452848401376000828201840152601f01601f1916010190565b91602061040b938181520191612727565b6113956113a19263ffffffff61278e939795969716600052600660205260406000209061ffff16600052602052604060002090565b8051156127f15783156127eb5760028410156127c2575050610a54604051928392639a6d49cd60e01b845260048401612748565b9092806127e59161040b946127e06127db36848461100e565b6127ff565b6126ce565b916126eb565b92509050565b50919061040b91369161100e565b600361ffff600283015116036128125750565b604051639a6d49cd60e01b815260206004820152908190610a549060248301906103d5565b60405163313ce56760e01b8152926001600160a01b0391821692909190602085600481875afa948515610a1e57600095612998575b508190612877613232565b16801561298657600380546001600160a01b0319166001600160a01b03909216919091179055811615612974576003546128b9906001600160a01b03166108e3565b90813b156103ad5760405163ca5eb5e160e01b81526001600160a01b0382166004820152916000908390602490829084905af1918215610a1e5761290692612961575b5061222381613185565b600660ff83161061294f5761292d6129286129236106dd946129db565b6129ee565b600755565b600980546001600160a01b0319166001600160a01b0392909216919091179055565b6040516301e9714b60e41b8152600490fd5b80610a1261296e92610f6f565b386128fc565b604051632d618d8160e21b8152600490fd5b604051638ad182f960e01b8152600490fd5b6020959195813d82116129d3575b816129b360209383610fb8565b810103126129cf57519060ff821682036104f05750938161286c565b5080fd5b3d91506129a6565b60ff6005199116019060ff821161242557565b60ff16604d811161242557600a0a90565b60405190612a0c82610f34565b60006020838281520152565b91908260409103126103ad57604051612a3081610f34565b6020808294805184520151910152565b906040828203126103ad5761040b91612a18565b906020909392936040835263ffffffff81511660408401528181015160608401526080612aa8612a92604084015160a08488015260e08701906103d5565b6060840151868203603f190160a08801526103d5565b910151151560c08401526001600160a01b03909416910152565b60405190612acf82610f54565b8160008152600060208201526040612ae56129ff565b910152565b60409060231901126103ad5760405190612b0382610f34565b60243582526044356020830152565b6001600160401b038116036103ad57565b906080828203126103ad57612b5d906040805193612b4085610f54565b805185526020810151612b5281612b12565b602086015201612a18565b604082015290565b608093612bd7612bf39694612b78612ac2565b506020612b858451612c40565b930190815180612c31575b50600354612ba6906001600160a01b03166108e3565b95612bb0866123b1565b9251151592612bc0610cdf610fe6565b602087015260408601526060850152151586840152565b6040518096819582946302637a4560e41b845260048401612a54565b03925af1908115610a1e57600091612c09575090565b61040b915060803d8111612c2a575b612c228183610fb8565b810190612b23565b503d612c18565b612c3a90612c62565b38612b90565b803410612c4a5790565b6040516304fb820960e51b8152346004820152602490fd5b60035460405163393f876560e21b81526001600160a01b03918216929190602081600481875afa908115610a1e57600091612cbe575b5016918215612cac576106dd923390613590565b6040516329b99a9560e11b8152600490fd5b906020823d8211612cf0575b81612cd760209383610fb8565b810103126104f0575051612cea816104f3565b38612c98565b3d9150612cca565b903590601e19813603018212156103ad57018035906001600160401b0382116103ad576020019181360383136103ad57565b908160209103126103ad575161040b81610c0a565b9091612d5661040b936040845260408401906103d5565b9160208184039101526103d5565b9091612daa612d88612d7c612dd19560075490612f02565b6001600160401b031690565b612d9f612d9860a0860186612cf8565b369161100e565b906020850135612fbb565b9390928394600014612e4a576002905b611aa1612dc6826123a7565b916080810190612cf8565b60085490926001600160a01b03909116908382612ded57505050565b60405163043a78eb60e01b815292602092849283918291612e119160048401612d3f565b03915afa8015610a1e57612e23575b50565b612e209060203d8111612e43575b612e3b8183610fb8565b810190612d2a565b503d612e31565b600190612dba565b3561040b81612b12565b61040b939260809260018060a01b0316825260208201526000604082015281606082015201906103d5565b60095460405163a9059cbb60e01b60208201526001600160a01b0392831660248201526044808201859052815260808101929091166001600160401b03831182841017610f4f5761040b926040526135d2565b8181029291811591840414171561242557565b60075461040b916001600160401b0316612eda565b8115612f0c570490565b634e487b7160e01b600052601260045260246000fd5b612f3390610c7f6007548092612f02565b918291808410612f405750565b83604491604051916371c4efed60e01b835260048301526024820152fd5b604c919361040b936040519586936001600160401b0360c01b9060c01b16602085015263ffffffff60e01b9060e01b166028840152602c830152612fab81518092602086860191016103b2565b810103602c810184520182610fb8565b82511580159390613019576130169160689160405194859260208401526001600160401b0360c01b9060c01b16604083015233604883015261300681518092602086860191016103b2565b8101036048810184520182610fb8565b91565b50906040519160208301526001600160401b0360c01b9060c01b1660408201526028815261301681610f54565b906020116103ad573590565b906028116103ad576020013560c01c90565b90806028116103ad5761040b913691602719019060280161100e565b91908110156124545760051b8101359061013e19813603018212156103ad570190565b3561040b816104f3565b929093613109926001600160401b03604061040b9a98999763ffffffff81356130d5816105ca565b1688526020810135602089015201356130ed81612b12565b166040860152606085015260e0608085015260e0840191612727565b6001600160a01b0390941660a082015280840360c090910152612727565b6020818303126103ad578051906001600160401b0382116103ad570181601f820112156103ad57805161315981610ff3565b926131676040519485610fb8565b818452602082840101116103ad5761040b91602080850191016103b2565b6001600160a01b039081169081156131e0576000805160206136f283398151915280546001600160a01b031981168417909155167f8be0079c531659141344cd1fd0a4f28419497f9722a3daafe3b4186f6b6457e0600080a3565b604051631e4fbdf760e01b815260006004820152602490fd5b6000805160206136f2833981519152546001600160a01b0316330361321a57565b60405163118cdaa760e01b8152336004820152602490fd5b60ff6000805160206137b28339815191525460401c161561324f57565b604051631afcd79f60e31b8152600490fd5b908160209103126103ad575190565b6001600160a01b031660009081527f52c63247e1f47db19d5ce0460030c497f067ca4cebf71ba98eeadabe20bace006020526040902090565b6001600160a01b031660009081527f52c63247e1f47db19d5ce0460030c497f067ca4cebf71ba98eeadabe20bace016020526040902090565b916001600160a01b0380841692908315613376578116938415610ed9576133076134c1565b61331081613270565b548381106133475761334292849261333c60008051602061377283398151915296610eb4940391613270565b55613270565b0390a3565b60405163391434e360e21b81526001600160a01b03929092166004830152602482015260448101839052606490fd5b604051634b637e8f60e11b815260006004820152602490fd5b919061339e81610549856132a9565b54600181016133ad5750505050565b8281106133e4576001600160a01b03848116156105b157821615610598576133da926105499103936132a9565b55388080806112d4565b604051637dc7a0d960e11b81526001600160a01b0392909216600483015260248201526044810191909152606490fd5b91906001600160a01b0383169081156133765761342f6134c1565b61343884613270565b5493818510613482578160209161346360008051602061377283398151915294600097980391613270565b55600080516020613712833981519152818154039055604051908152a3565b60405163391434e360e21b81526001600160a01b03919091166004820152602481018590526044810191909152606490fd5b9190820180921161242557565b60ff60008051602061379283398151915254166134da57565b60405163d93c066560e01b8152600490fd5b90813b1561356f5760008051602061375283398151915280546001600160a01b0319166001600160a01b0384169081179091557fbc7cd75a20ee27fd9adebab32041f755214dbc6bffa90cc0225b39da2e5c2d3b600080a280511561355457612e2091613674565b50503461355d57565b60405163b398979f60e01b8152600490fd5b604051634c9c8ce360e01b81526001600160a01b0383166004820152602490fd5b6040516323b872dd60e01b60208201526001600160a01b0392831660248201529290911660448301526064808301939093529181526106dd916135d282610f9d565b6000806135fb9260018060a01b03169360208151910182865af16135f4613644565b908361368e565b8051908115159182613629575b50506136115750565b60249060405190635274afe760e01b82526004820152fd5b61363c9250602080918301019101612d2a565b153880613608565b3d1561366f573d9061365582610ff3565b916136636040519384610fb8565b82523d6000602084013e565b606090565b60008061040b93602081519101845af461368c613644565b915b906136b557508051156136a357805190602001fd5b604051630a12f52160e11b8152600490fd5b815115806136e8575b6136c6575090565b604051639996b31560e01b81526001600160a01b039091166004820152602490fd5b50803b156136be56fe9016d09d72d40fdae2fd8ceac6b6234c7706214fd39c1cd1e609a0528c19930052c63247e1f47db19d5ce0460030c497f067ca4cebf71ba98eeadabe20bace02efed6d3500546b29533b128a29e3a94d70788727f0507505ac12eaf2e578fd9c360894a13ba1a3210667c828492db98dca3e2076cc3735a920a3ca505d382bbcddf252ad1be2c89b69c2b068fc378daa952ba7f163c4a11628f55a4df523b3efcd5ed15c6e187e77e9aee88184c21f4f2182ab5827cb3b7e07fbedcd63f03300f0c57e16840df040f15088dc2f81fe391c3923bec73e23a9662efc9c229c6a00a2646970667358221220e9056daa4c74fa5c2ad1a481fa439969697a24b38046f5a30487de080ff7aace64736f6c63430008140033","linkReferences":{}},"methodIdentifiers":{"OFTAdapter_init(address,address,address)":"f16b7f90","SEND()":"1f5e1334","SEND_AND_CALL()":"134d4f25","UPGRADE_INTERFACE_VERSION()":"ad3cb1cc","allowInitializePath((uint32,bytes32,uint64))":"ff7bd03d","allowance(address,address)":"dd62ed3e","approvalRequired()":"9f68b964","approve(address,uint256)":"095ea7b3","balanceOf(address)":"70a08231","burn(uint256)":"42966c68","burnFrom(address,uint256)":"79cc6790","burnFromUser(address,uint256)":"c753e126","combineOptions(uint32,uint16,bytes)":"bc70b354","decimalConversionRate()":"963efcaa","decimals()":"313ce567","endpoint()":"5e280f11","enforcedOptions(uint32,uint16)":"5535d461","initialize(address,address,address)":"c0c53b8b","isComposeMsgSender((uint32,bytes32,uint64),bytes,address)":"82413eac","isPeer(uint32,bytes32)":"5a0dfe4d","lzReceive((uint32,bytes32,uint64),bytes32,bytes,address,bytes)":"13137d65","lzReceiveAndRevert(((uint32,bytes32,uint64),uint32,address,bytes32,uint256,address,bytes,bytes)[])":"bd815db0","lzReceiveSimulate((uint32,bytes32,uint64),bytes32,bytes,address,bytes)":"d045a0dc","mint(address,uint256)":"40c10f19","msgInspector()":"111ecdad","name()":"06fdde03","nextNonce(uint32,bytes32)":"7d25a05e","oApp()":"52ae2879","oAppVersion()":"17442b70","oftVersion()":"156a0d0f","owner()":"8da5cb5b","pause()":"8456cb59","paused()":"5c975abb","peers(uint32)":"bb0b6a53","preCrime()":"b731ea0a","proxiableUUID()":"52d1902d","quoteOFT((uint32,bytes32,uint256,uint256,bytes,bytes,bytes))":"0d35b415","quoteSend((uint32,bytes32,uint256,uint256,bytes,bytes,bytes),bool)":"3b6f743b","renounceOwnership()":"715018a6","send((uint32,bytes32,uint256,uint256,bytes,bytes,bytes),(uint256,uint256),address)":"c7c7f5b3","setBorrowingContract(address)":"78fdaf3f","setCdsContract(address)":"a70bb077","setDelegate(address)":"ca5eb5e1","setDstEid(uint32)":"0d14c92e","setEnforcedOptions((uint32,uint16,bytes)[])":"b98bd070","setMsgInspector(address)":"6fc1b31e","setPeer(uint32,bytes32)":"3400288b","setPreCrime(address)":"d4243885","sharedDecimals()":"857749b0","symbol()":"95d89b41","token()":"fc0c546a","totalSupply()":"18160ddd","transfer(address,uint256)":"a9059cbb","transferFrom(address,address,uint256)":"23b872dd","transferOwnership(address)":"f2fde38b","unpause()":"3f4ba83a","upgradeToAndCall(address,bytes)":"4f1ef286"},"storageLayout":{"storage":[{"astId":287,"contract":"contracts/Token/USDa.sol:USDaStablecoin","label":"whitelist","offset":0,"slot":"0","type":"t_mapping(t_address,t_bool)"},{"astId":289,"contract":"contracts/Token/USDa.sol:USDaStablecoin","label":"borrowingContract","offset":0,"slot":"1","type":"t_address"},{"astId":291,"contract":"contracts/Token/USDa.sol:USDaStablecoin","label":"cdsContract","offset":0,"slot":"2","type":"t_address"},{"astId":359,"contract":"contracts/Token/USDa.sol:USDaStablecoin","label":"endpoint","offset":0,"slot":"3","type":"t_contract(ILayerZeroEndpointV2)3031"},{"astId":363,"contract":"contracts/Token/USDa.sol:USDaStablecoin","label":"peers","offset":0,"slot":"4","type":"t_mapping(t_uint32,t_bytes32)"},{"astId":2373,"contract":"contracts/Token/USDa.sol:USDaStablecoin","label":"preCrime","offset":0,"slot":"5","type":"t_address"},{"astId":998,"contract":"contracts/Token/USDa.sol:USDaStablecoin","label":"enforcedOptions","offset":0,"slot":"6","type":"t_mapping(t_uint32,t_mapping(t_uint16,t_bytes_storage))"},{"astId":1322,"contract":"contracts/Token/USDa.sol:USDaStablecoin","label":"decimalConversionRate","offset":0,"slot":"7","type":"t_uint256"},{"astId":1330,"contract":"contracts/Token/USDa.sol:USDaStablecoin","label":"msgInspector","offset":0,"slot":"8","type":"t_address"},{"astId":1171,"contract":"contracts/Token/USDa.sol:USDaStablecoin","label":"innerToken","offset":0,"slot":"9","type":"t_contract(IERC20)6788"},{"astId":27,"contract":"contracts/Token/USDa.sol:USDaStablecoin","label":"dstEid","offset":20,"slot":"9","type":"t_uint32"}],"types":{"t_address":{"encoding":"inplace","label":"address","numberOfBytes":"20"},"t_bool":{"encoding":"inplace","label":"bool","numberOfBytes":"1"},"t_bytes32":{"encoding":"inplace","label":"bytes32","numberOfBytes":"32"},"t_bytes_storage":{"encoding":"bytes","label":"bytes","numberOfBytes":"32"},"t_contract(IERC20)6788":{"encoding":"inplace","label":"contract IERC20","numberOfBytes":"20"},"t_contract(ILayerZeroEndpointV2)3031":{"encoding":"inplace","label":"contract ILayerZeroEndpointV2","numberOfBytes":"20"},"t_mapping(t_address,t_bool)":{"encoding":"mapping","key":"t_address","label":"mapping(address => bool)","numberOfBytes":"32","value":"t_bool"},"t_mapping(t_uint16,t_bytes_storage)":{"encoding":"mapping","key":"t_uint16","label":"mapping(uint16 => bytes)","numberOfBytes":"32","value":"t_bytes_storage"},"t_mapping(t_uint32,t_bytes32)":{"encoding":"mapping","key":"t_uint32","label":"mapping(uint32 => bytes32)","numberOfBytes":"32","value":"t_bytes32"},"t_mapping(t_uint32,t_mapping(t_uint16,t_bytes_storage))":{"encoding":"mapping","key":"t_uint32","label":"mapping(uint32 => mapping(uint16 => bytes))","numberOfBytes":"32","value":"t_mapping(t_uint16,t_bytes_storage)"},"t_uint16":{"encoding":"inplace","label":"uint16","numberOfBytes":"2"},"t_uint256":{"encoding":"inplace","label":"uint256","numberOfBytes":"32"},"t_uint32":{"encoding":"inplace","label":"uint32","numberOfBytes":"4"}}},"id":0}