{"abi":[{"type":"function","name":"SEND","inputs":[],"outputs":[{"name":"","type":"uint16","internalType":"uint16"}],"stateMutability":"view"},{"type":"function","name":"SEND_AND_CALL","inputs":[],"outputs":[{"name":"","type":"uint16","internalType":"uint16"}],"stateMutability":"view"},{"type":"function","name":"UPGRADE_INTERFACE_VERSION","inputs":[],"outputs":[{"name":"","type":"string","internalType":"string"}],"stateMutability":"view"},{"type":"function","name":"__OAppOptionsType3_init","inputs":[{"name":"_owner","type":"address","internalType":"address"}],"outputs":[],"stateMutability":"nonpayable"},{"type":"function","name":"__OAppPreCrimeSimulator_init","inputs":[{"name":"_owner","type":"address","internalType":"address"}],"outputs":[],"stateMutability":"nonpayable"},{"type":"function","name":"__OFTCore_init","inputs":[{"name":"_localDecimals","type":"uint8","internalType":"uint8"},{"name":"_endpoint","type":"address","internalType":"address"},{"name":"_delegate","type":"address","internalType":"address"}],"outputs":[],"stateMutability":"nonpayable"},{"type":"function","name":"__OFT_init","inputs":[{"name":"_name","type":"string","internalType":"string"},{"name":"_symbol","type":"string","internalType":"string"},{"name":"_lzEndpoint","type":"address","internalType":"address"},{"name":"_delegate","type":"address","internalType":"address"}],"outputs":[],"stateMutability":"nonpayable"},{"type":"function","name":"allowInitializePath","inputs":[{"name":"origin","type":"tuple","internalType":"struct Origin","components":[{"name":"srcEid","type":"uint32","internalType":"uint32"},{"name":"sender","type":"bytes32","internalType":"bytes32"},{"name":"nonce","type":"uint64","internalType":"uint64"}]}],"outputs":[{"name":"","type":"bool","internalType":"bool"}],"stateMutability":"view"},{"type":"function","name":"allowance","inputs":[{"name":"owner","type":"address","internalType":"address"},{"name":"spender","type":"address","internalType":"address"}],"outputs":[{"name":"","type":"uint256","internalType":"uint256"}],"stateMutability":"view"},{"type":"function","name":"approvalRequired","inputs":[],"outputs":[{"name":"","type":"bool","internalType":"bool"}],"stateMutability":"pure"},{"type":"function","name":"approve","inputs":[{"name":"spender","type":"address","internalType":"address"},{"name":"value","type":"uint256","internalType":"uint256"}],"outputs":[{"name":"","type":"bool","internalType":"bool"}],"stateMutability":"nonpayable"},{"type":"function","name":"balanceOf","inputs":[{"name":"account","type":"address","internalType":"address"}],"outputs":[{"name":"","type":"uint256","internalType":"uint256"}],"stateMutability":"view"},{"type":"function","name":"burn","inputs":[{"name":"value","type":"uint256","internalType":"uint256"}],"outputs":[],"stateMutability":"nonpayable"},{"type":"function","name":"burnFrom","inputs":[{"name":"account","type":"address","internalType":"address"},{"name":"value","type":"uint256","internalType":"uint256"}],"outputs":[],"stateMutability":"nonpayable"},{"type":"function","name":"burnFromUser","inputs":[{"name":"to","type":"address","internalType":"address"},{"name":"amount","type":"uint256","internalType":"uint256"}],"outputs":[{"name":"","type":"bool","internalType":"bool"}],"stateMutability":"nonpayable"},{"type":"function","name":"combineOptions","inputs":[{"name":"_eid","type":"uint32","internalType":"uint32"},{"name":"_msgType","type":"uint16","internalType":"uint16"},{"name":"_extraOptions","type":"bytes","internalType":"bytes"}],"outputs":[{"name":"","type":"bytes","internalType":"bytes"}],"stateMutability":"view"},{"type":"function","name":"decimalConversionRate","inputs":[],"outputs":[{"name":"","type":"uint256","internalType":"uint256"}],"stateMutability":"view"},{"type":"function","name":"decimals","inputs":[],"outputs":[{"name":"","type":"uint8","internalType":"uint8"}],"stateMutability":"pure"},{"type":"function","name":"endpoint","inputs":[],"outputs":[{"name":"","type":"address","internalType":"contract ILayerZeroEndpointV2"}],"stateMutability":"view"},{"type":"function","name":"enforcedOptions","inputs":[{"name":"eid","type":"uint32","internalType":"uint32"},{"name":"msgType","type":"uint16","internalType":"uint16"}],"outputs":[{"name":"enforcedOption","type":"bytes","internalType":"bytes"}],"stateMutability":"view"},{"type":"function","name":"initialize","inputs":[{"name":"_lzEndpoint","type":"address","internalType":"address"},{"name":"_delegate","type":"address","internalType":"address"}],"outputs":[],"stateMutability":"nonpayable"},{"type":"function","name":"isComposeMsgSender","inputs":[{"name":"","type":"tuple","internalType":"struct Origin","components":[{"name":"srcEid","type":"uint32","internalType":"uint32"},{"name":"sender","type":"bytes32","internalType":"bytes32"},{"name":"nonce","type":"uint64","internalType":"uint64"}]},{"name":"","type":"bytes","internalType":"bytes"},{"name":"_sender","type":"address","internalType":"address"}],"outputs":[{"name":"","type":"bool","internalType":"bool"}],"stateMutability":"view"},{"type":"function","name":"isPeer","inputs":[{"name":"_eid","type":"uint32","internalType":"uint32"},{"name":"_peer","type":"bytes32","internalType":"bytes32"}],"outputs":[{"name":"","type":"bool","internalType":"bool"}],"stateMutability":"view"},{"type":"function","name":"lzReceive","inputs":[{"name":"_origin","type":"tuple","internalType":"struct Origin","components":[{"name":"srcEid","type":"uint32","internalType":"uint32"},{"name":"sender","type":"bytes32","internalType":"bytes32"},{"name":"nonce","type":"uint64","internalType":"uint64"}]},{"name":"_guid","type":"bytes32","internalType":"bytes32"},{"name":"_message","type":"bytes","internalType":"bytes"},{"name":"_executor","type":"address","internalType":"address"},{"name":"_extraData","type":"bytes","internalType":"bytes"}],"outputs":[],"stateMutability":"payable"},{"type":"function","name":"lzReceiveAndRevert","inputs":[{"name":"_packets","type":"tuple[]","internalType":"struct InboundPacket[]","components":[{"name":"origin","type":"tuple","internalType":"struct Origin","components":[{"name":"srcEid","type":"uint32","internalType":"uint32"},{"name":"sender","type":"bytes32","internalType":"bytes32"},{"name":"nonce","type":"uint64","internalType":"uint64"}]},{"name":"dstEid","type":"uint32","internalType":"uint32"},{"name":"receiver","type":"address","internalType":"address"},{"name":"guid","type":"bytes32","internalType":"bytes32"},{"name":"value","type":"uint256","internalType":"uint256"},{"name":"executor","type":"address","internalType":"address"},{"name":"message","type":"bytes","internalType":"bytes"},{"name":"extraData","type":"bytes","internalType":"bytes"}]}],"outputs":[],"stateMutability":"payable"},{"type":"function","name":"lzReceiveSimulate","inputs":[{"name":"_origin","type":"tuple","internalType":"struct Origin","components":[{"name":"srcEid","type":"uint32","internalType":"uint32"},{"name":"sender","type":"bytes32","internalType":"bytes32"},{"name":"nonce","type":"uint64","internalType":"uint64"}]},{"name":"_guid","type":"bytes32","internalType":"bytes32"},{"name":"_message","type":"bytes","internalType":"bytes"},{"name":"_executor","type":"address","internalType":"address"},{"name":"_extraData","type":"bytes","internalType":"bytes"}],"outputs":[],"stateMutability":"payable"},{"type":"function","name":"mint","inputs":[{"name":"to","type":"address","internalType":"address"},{"name":"amount","type":"uint256","internalType":"uint256"}],"outputs":[{"name":"","type":"bool","internalType":"bool"}],"stateMutability":"nonpayable"},{"type":"function","name":"msgInspector","inputs":[],"outputs":[{"name":"","type":"address","internalType":"address"}],"stateMutability":"view"},{"type":"function","name":"name","inputs":[],"outputs":[{"name":"","type":"string","internalType":"string"}],"stateMutability":"view"},{"type":"function","name":"nextNonce","inputs":[{"name":"","type":"uint32","internalType":"uint32"},{"name":"","type":"bytes32","internalType":"bytes32"}],"outputs":[{"name":"nonce","type":"uint64","internalType":"uint64"}],"stateMutability":"view"},{"type":"function","name":"oApp","inputs":[],"outputs":[{"name":"","type":"address","internalType":"address"}],"stateMutability":"view"},{"type":"function","name":"oAppVersion","inputs":[],"outputs":[{"name":"senderVersion","type":"uint64","internalType":"uint64"},{"name":"receiverVersion","type":"uint64","internalType":"uint64"}],"stateMutability":"pure"},{"type":"function","name":"oftVersion","inputs":[],"outputs":[{"name":"interfaceId","type":"bytes4","internalType":"bytes4"},{"name":"version","type":"uint64","internalType":"uint64"}],"stateMutability":"pure"},{"type":"function","name":"owner","inputs":[],"outputs":[{"name":"","type":"address","internalType":"address"}],"stateMutability":"view"},{"type":"function","name":"pause","inputs":[],"outputs":[],"stateMutability":"nonpayable"},{"type":"function","name":"paused","inputs":[],"outputs":[{"name":"","type":"bool","internalType":"bool"}],"stateMutability":"view"},{"type":"function","name":"peers","inputs":[{"name":"eid","type":"uint32","internalType":"uint32"}],"outputs":[{"name":"peer","type":"bytes32","internalType":"bytes32"}],"stateMutability":"view"},{"type":"function","name":"preCrime","inputs":[],"outputs":[{"name":"","type":"address","internalType":"address"}],"stateMutability":"view"},{"type":"function","name":"proxiableUUID","inputs":[],"outputs":[{"name":"","type":"bytes32","internalType":"bytes32"}],"stateMutability":"view"},{"type":"function","name":"quoteOFT","inputs":[{"name":"_sendParam","type":"tuple","internalType":"struct SendParam","components":[{"name":"dstEid","type":"uint32","internalType":"uint32"},{"name":"to","type":"bytes32","internalType":"bytes32"},{"name":"amountLD","type":"uint256","internalType":"uint256"},{"name":"minAmountLD","type":"uint256","internalType":"uint256"},{"name":"extraOptions","type":"bytes","internalType":"bytes"},{"name":"composeMsg","type":"bytes","internalType":"bytes"},{"name":"oftCmd","type":"bytes","internalType":"bytes"}]}],"outputs":[{"name":"oftLimit","type":"tuple","internalType":"struct OFTLimit","components":[{"name":"minAmountLD","type":"uint256","internalType":"uint256"},{"name":"maxAmountLD","type":"uint256","internalType":"uint256"}]},{"name":"oftFeeDetails","type":"tuple[]","internalType":"struct OFTFeeDetail[]","components":[{"name":"feeAmountLD","type":"int256","internalType":"int256"},{"name":"description","type":"string","internalType":"string"}]},{"name":"oftReceipt","type":"tuple","internalType":"struct OFTReceipt","components":[{"name":"amountSentLD","type":"uint256","internalType":"uint256"},{"name":"amountReceivedLD","type":"uint256","internalType":"uint256"}]}],"stateMutability":"view"},{"type":"function","name":"quoteSend","inputs":[{"name":"_sendParam","type":"tuple","internalType":"struct SendParam","components":[{"name":"dstEid","type":"uint32","internalType":"uint32"},{"name":"to","type":"bytes32","internalType":"bytes32"},{"name":"amountLD","type":"uint256","internalType":"uint256"},{"name":"minAmountLD","type":"uint256","internalType":"uint256"},{"name":"extraOptions","type":"bytes","internalType":"bytes"},{"name":"composeMsg","type":"bytes","internalType":"bytes"},{"name":"oftCmd","type":"bytes","internalType":"bytes"}]},{"name":"_payInLzToken","type":"bool","internalType":"bool"}],"outputs":[{"name":"msgFee","type":"tuple","internalType":"struct MessagingFee","components":[{"name":"nativeFee","type":"uint256","internalType":"uint256"},{"name":"lzTokenFee","type":"uint256","internalType":"uint256"}]}],"stateMutability":"view"},{"type":"function","name":"renounceOwnership","inputs":[],"outputs":[],"stateMutability":"nonpayable"},{"type":"function","name":"send","inputs":[{"name":"_sendParam","type":"tuple","internalType":"struct SendParam","components":[{"name":"dstEid","type":"uint32","internalType":"uint32"},{"name":"to","type":"bytes32","internalType":"bytes32"},{"name":"amountLD","type":"uint256","internalType":"uint256"},{"name":"minAmountLD","type":"uint256","internalType":"uint256"},{"name":"extraOptions","type":"bytes","internalType":"bytes"},{"name":"composeMsg","type":"bytes","internalType":"bytes"},{"name":"oftCmd","type":"bytes","internalType":"bytes"}]},{"name":"_fee","type":"tuple","internalType":"struct MessagingFee","components":[{"name":"nativeFee","type":"uint256","internalType":"uint256"},{"name":"lzTokenFee","type":"uint256","internalType":"uint256"}]},{"name":"_refundAddress","type":"address","internalType":"address"}],"outputs":[{"name":"msgReceipt","type":"tuple","internalType":"struct MessagingReceipt","components":[{"name":"guid","type":"bytes32","internalType":"bytes32"},{"name":"nonce","type":"uint64","internalType":"uint64"},{"name":"fee","type":"tuple","internalType":"struct MessagingFee","components":[{"name":"nativeFee","type":"uint256","internalType":"uint256"},{"name":"lzTokenFee","type":"uint256","internalType":"uint256"}]}]},{"name":"oftReceipt","type":"tuple","internalType":"struct OFTReceipt","components":[{"name":"amountSentLD","type":"uint256","internalType":"uint256"},{"name":"amountReceivedLD","type":"uint256","internalType":"uint256"}]}],"stateMutability":"payable"},{"type":"function","name":"setBorrowingContract","inputs":[{"name":"_address","type":"address","internalType":"address"}],"outputs":[],"stateMutability":"nonpayable"},{"type":"function","name":"setCdsContract","inputs":[{"name":"_address","type":"address","internalType":"address"}],"outputs":[],"stateMutability":"nonpayable"},{"type":"function","name":"setDelegate","inputs":[{"name":"_delegate","type":"address","internalType":"address"}],"outputs":[],"stateMutability":"nonpayable"},{"type":"function","name":"setDstEid","inputs":[{"name":"_eid","type":"uint32","internalType":"uint32"}],"outputs":[],"stateMutability":"nonpayable"},{"type":"function","name":"setEnforcedOptions","inputs":[{"name":"_enforcedOptions","type":"tuple[]","internalType":"struct EnforcedOptionParam[]","components":[{"name":"eid","type":"uint32","internalType":"uint32"},{"name":"msgType","type":"uint16","internalType":"uint16"},{"name":"options","type":"bytes","internalType":"bytes"}]}],"outputs":[],"stateMutability":"nonpayable"},{"type":"function","name":"setMsgInspector","inputs":[{"name":"_msgInspector","type":"address","internalType":"address"}],"outputs":[],"stateMutability":"nonpayable"},{"type":"function","name":"setPeer","inputs":[{"name":"_eid","type":"uint32","internalType":"uint32"},{"name":"_peer","type":"bytes32","internalType":"bytes32"}],"outputs":[],"stateMutability":"nonpayable"},{"type":"function","name":"setPreCrime","inputs":[{"name":"_preCrime","type":"address","internalType":"address"}],"outputs":[],"stateMutability":"nonpayable"},{"type":"function","name":"sharedDecimals","inputs":[],"outputs":[{"name":"","type":"uint8","internalType":"uint8"}],"stateMutability":"view"},{"type":"function","name":"symbol","inputs":[],"outputs":[{"name":"","type":"string","internalType":"string"}],"stateMutability":"view"},{"type":"function","name":"token","inputs":[],"outputs":[{"name":"","type":"address","internalType":"address"}],"stateMutability":"view"},{"type":"function","name":"totalSupply","inputs":[],"outputs":[{"name":"","type":"uint256","internalType":"uint256"}],"stateMutability":"view"},{"type":"function","name":"transfer","inputs":[{"name":"to","type":"address","internalType":"address"},{"name":"value","type":"uint256","internalType":"uint256"}],"outputs":[{"name":"","type":"bool","internalType":"bool"}],"stateMutability":"nonpayable"},{"type":"function","name":"transferFrom","inputs":[{"name":"from","type":"address","internalType":"address"},{"name":"to","type":"address","internalType":"address"},{"name":"value","type":"uint256","internalType":"uint256"}],"outputs":[{"name":"","type":"bool","internalType":"bool"}],"stateMutability":"nonpayable"},{"type":"function","name":"transferOwnership","inputs":[{"name":"newOwner","type":"address","internalType":"address"}],"outputs":[],"stateMutability":"nonpayable"},{"type":"function","name":"unpause","inputs":[],"outputs":[],"stateMutability":"nonpayable"},{"type":"function","name":"upgradeToAndCall","inputs":[{"name":"newImplementation","type":"address","internalType":"address"},{"name":"data","type":"bytes","internalType":"bytes"}],"outputs":[],"stateMutability":"payable"},{"type":"event","name":"Approval","inputs":[{"name":"owner","type":"address","indexed":true,"internalType":"address"},{"name":"spender","type":"address","indexed":true,"internalType":"address"},{"name":"value","type":"uint256","indexed":false,"internalType":"uint256"}],"anonymous":false},{"type":"event","name":"EnforcedOptionSet","inputs":[{"name":"_enforcedOptions","type":"tuple[]","indexed":false,"internalType":"struct EnforcedOptionParam[]","components":[{"name":"eid","type":"uint32","internalType":"uint32"},{"name":"msgType","type":"uint16","internalType":"uint16"},{"name":"options","type":"bytes","internalType":"bytes"}]}],"anonymous":false},{"type":"event","name":"Initialized","inputs":[{"name":"version","type":"uint64","indexed":false,"internalType":"uint64"}],"anonymous":false},{"type":"event","name":"MsgInspectorSet","inputs":[{"name":"inspector","type":"address","indexed":false,"internalType":"address"}],"anonymous":false},{"type":"event","name":"OFTReceived","inputs":[{"name":"guid","type":"bytes32","indexed":true,"internalType":"bytes32"},{"name":"srcEid","type":"uint32","indexed":false,"internalType":"uint32"},{"name":"toAddress","type":"address","indexed":true,"internalType":"address"},{"name":"amountReceivedLD","type":"uint256","indexed":false,"internalType":"uint256"}],"anonymous":false},{"type":"event","name":"OFTSent","inputs":[{"name":"guid","type":"bytes32","indexed":true,"internalType":"bytes32"},{"name":"dstEid","type":"uint32","indexed":false,"internalType":"uint32"},{"name":"fromAddress","type":"address","indexed":true,"internalType":"address"},{"name":"amountSentLD","type":"uint256","indexed":false,"internalType":"uint256"},{"name":"amountReceivedLD","type":"uint256","indexed":false,"internalType":"uint256"}],"anonymous":false},{"type":"event","name":"OwnershipTransferred","inputs":[{"name":"previousOwner","type":"address","indexed":true,"internalType":"address"},{"name":"newOwner","type":"address","indexed":true,"internalType":"address"}],"anonymous":false},{"type":"event","name":"Paused","inputs":[{"name":"account","type":"address","indexed":false,"internalType":"address"}],"anonymous":false},{"type":"event","name":"PeerSet","inputs":[{"name":"eid","type":"uint32","indexed":false,"internalType":"uint32"},{"name":"peer","type":"bytes32","indexed":false,"internalType":"bytes32"}],"anonymous":false},{"type":"event","name":"PreCrimeSet","inputs":[{"name":"preCrimeAddress","type":"address","indexed":false,"internalType":"address"}],"anonymous":false},{"type":"event","name":"Transfer","inputs":[{"name":"from","type":"address","indexed":true,"internalType":"address"},{"name":"to","type":"address","indexed":true,"internalType":"address"},{"name":"value","type":"uint256","indexed":false,"internalType":"uint256"}],"anonymous":false},{"type":"event","name":"Unpaused","inputs":[{"name":"account","type":"address","indexed":false,"internalType":"address"}],"anonymous":false},{"type":"event","name":"Upgraded","inputs":[{"name":"implementation","type":"address","indexed":true,"internalType":"address"}],"anonymous":false},{"type":"error","name":"AddressEmptyCode","inputs":[{"name":"target","type":"address","internalType":"address"}]},{"type":"error","name":"AddressInsufficientBalance","inputs":[{"name":"account","type":"address","internalType":"address"}]},{"type":"error","name":"ERC1967InvalidImplementation","inputs":[{"name":"implementation","type":"address","internalType":"address"}]},{"type":"error","name":"ERC1967NonPayable","inputs":[]},{"type":"error","name":"ERC20InsufficientAllowance","inputs":[{"name":"spender","type":"address","internalType":"address"},{"name":"allowance","type":"uint256","internalType":"uint256"},{"name":"needed","type":"uint256","internalType":"uint256"}]},{"type":"error","name":"ERC20InsufficientBalance","inputs":[{"name":"sender","type":"address","internalType":"address"},{"name":"balance","type":"uint256","internalType":"uint256"},{"name":"needed","type":"uint256","internalType":"uint256"}]},{"type":"error","name":"ERC20InvalidApprover","inputs":[{"name":"approver","type":"address","internalType":"address"}]},{"type":"error","name":"ERC20InvalidReceiver","inputs":[{"name":"receiver","type":"address","internalType":"address"}]},{"type":"error","name":"ERC20InvalidSender","inputs":[{"name":"sender","type":"address","internalType":"address"}]},{"type":"error","name":"ERC20InvalidSpender","inputs":[{"name":"spender","type":"address","internalType":"address"}]},{"type":"error","name":"EndPointUnavailable","inputs":[]},{"type":"error","name":"EnforcedPause","inputs":[]},{"type":"error","name":"ExpectedPause","inputs":[]},{"type":"error","name":"FailedInnerCall","inputs":[]},{"type":"error","name":"InvalidDelegate","inputs":[]},{"type":"error","name":"InvalidEndpointCall","inputs":[]},{"type":"error","name":"InvalidInitialization","inputs":[]},{"type":"error","name":"InvalidLocalDecimals","inputs":[]},{"type":"error","name":"InvalidOptions","inputs":[{"name":"options","type":"bytes","internalType":"bytes"}]},{"type":"error","name":"LzTokenUnavailable","inputs":[]},{"type":"error","name":"NoPeer","inputs":[{"name":"eid","type":"uint32","internalType":"uint32"}]},{"type":"error","name":"NotEnoughNative","inputs":[{"name":"msgValue","type":"uint256","internalType":"uint256"}]},{"type":"error","name":"NotInitializing","inputs":[]},{"type":"error","name":"OnlyEndpoint","inputs":[{"name":"addr","type":"address","internalType":"address"}]},{"type":"error","name":"OnlyPeer","inputs":[{"name":"eid","type":"uint32","internalType":"uint32"},{"name":"sender","type":"bytes32","internalType":"bytes32"}]},{"type":"error","name":"OnlySelf","inputs":[]},{"type":"error","name":"OwnableInvalidOwner","inputs":[{"name":"owner","type":"address","internalType":"address"}]},{"type":"error","name":"OwnableUnauthorizedAccount","inputs":[{"name":"account","type":"address","internalType":"address"}]},{"type":"error","name":"SafeERC20FailedOperation","inputs":[{"name":"token","type":"address","internalType":"address"}]},{"type":"error","name":"SimulationResult","inputs":[{"name":"result","type":"bytes","internalType":"bytes"}]},{"type":"error","name":"SlippageExceeded","inputs":[{"name":"amountLD","type":"uint256","internalType":"uint256"},{"name":"minAmountLD","type":"uint256","internalType":"uint256"}]},{"type":"error","name":"UUPSUnauthorizedCallContext","inputs":[]},{"type":"error","name":"UUPSUnsupportedProxiableUUID","inputs":[{"name":"slot","type":"bytes32","internalType":"bytes32"}]}],"bytecode":{"object":"0x60a0806040523461002a5730608052613c4f908161003082396080518181816112dd01526114300152f35b600080fdfe6080604052600436101561001257600080fd5b60003560e01c806306fdde03146103c8578063095ea7b3146103c35780630d14c92e146103be5780630d35b415146103b9578063111ecdad146103b457806313137d65146103af578063134d4f25146103aa578063156a0d0f146103a557806317442b70146103a057806318160ddd1461039b5780631f5e13341461039657806323b872dd146103915780632f86121b1461038c578063313ce567146103235780633400288b146103875780633b6f743b146103825780633f4ba83a1461037d57806340c10f191461037857806342966c6814610373578063485cc9551461036e5780634f1ef2861461036957806352ae2879146102b557806352d1902d146103645780635535d4611461035f5780635a0dfe4d1461035a5780635c975abb146103555780635e280f11146103505780636013987f146103145780636fc1b31e1461034b57806370a0823114610346578063715018a61461034157806378fdaf3f1461033c57806379cc6790146103375780637d25a05e1461033257806382413eac1461032d5780638456cb5914610328578063857749b0146103235780638da5cb5b1461031e57806395d89b411461031957806395e9945814610314578063963efcaa1461030f5780639f68b9641461030a578063a70bb07714610305578063a9059cbb14610300578063ad3cb1cc146102fb578063b731ea0a146102f6578063b98bd070146102f1578063bb0b6a53146102ec578063bc70b354146102e7578063bd815db0146102e2578063c753e126146102dd578063c7c7f5b3146102d8578063ca5eb5e1146102d3578063d00c06cc146102ce578063d045a0dc146102c9578063d4243885146102c4578063dd62ed3e146102bf578063f2fde38b146102ba578063fc0c546a146102b55763ff7bd03d146102b057600080fd5b612482565b611402565b61245a565b612434565b6123c4565b61227a565b612121565b6120a5565b611f59565b611eb7565b611d61565b611d0d565b611cd2565b611c09565b611b94565b611b4e565b611b24565b611acb565b611aaf565b611a91565b6116ce565b6119fd565b6119c7565b610e2c565b611960565b611902565b6118db565b6118a7565b611842565b6117d7565b61177b565b61170b565b6116a5565b611675565b61162d565b6115ae565b61141d565b61129b565b611175565b611133565b6110da565b611063565b610ed9565b610e48565b610cc3565b610b36565b610b1a565b610aef565b610acd565b610aa6565b610a8a565b6108a8565b6107dd565b610737565b6105f1565b61051d565b610439565b60009103126103d857565b600080fd5b60005b8381106103f05750506000910152565b81810151838201526020016103e0565b90602091610419815180928185528580860191016103dd565b601f01601f1916010190565b906020610436928181520190610400565b90565b346103d8576000806003193601126105095760405181600080516020613afa8339815191528054610469816114a8565b808552916001918083169081156104de57506001146104a3575b61049f8561049381890382610c1b565b60405191829182610425565b0390f35b835260208084209095505b8284106104cb575050508161049f93610493928201019338610483565b80548585018701529285019281016104ae565b905061049f96506104939450602092508593915060ff191682840152151560051b8201019338610483565b80fd5b6001600160a01b038116036103d857565b346103d85760403660031901126103d85760043561053a8161050c565b60243533156105ca576001600160a01b0382169182156105b15761057982916105623361367c565b9060018060a01b0316600052602052604060002090565b556040519081527f8c5be1e5ebec7d5bd14f71427d1e84f3dd0314c0f7b2291e5b200ac8c7c3b92560203392a3602060405160018152f35b604051634a1406b160e11b815260006004820152602490fd5b60405163e602df0560e01b815260006004820152602490fd5b63ffffffff8116036103d857565b346103d85760203660031901126103d85760043561060e816105e3565b61061661352a565b63ffffffff811615610647576008805463ffffffff60a01b191660a09290921b63ffffffff60a01b16919091179055005b60405162461bcd60e51b81526020600482015260116024820152704549442063616e2774206265207a65726f60781b6044820152606490fd5b908160e09103126103d85790565b9392916106a98560a081019360208091805184520151910152565b60409160a083870152815180915260c086019160c08260051b880101936020809201936000915b8483106106f8575050505050509060606106f69294019060208091805184520151910152565b565b90919293949584806107276001938d60bf1990820301875285838c518051845201519181858201520190610400565b98019301930191949392906106d0565b346103d85760203660031901126103d8576001600160401b036004358181116103d857610768903690600401610680565b90610771612ce0565b5061077a612ce0565b506040519061078882610b97565b60008252602082015261049f6107c1604051936107a485610be5565b600085526107b1816126d0565b5060406060820135910135613247565b6107c9610c3c565b91825260208201526040519384938461068e565b346103d85760003660031901126103d8576008546040516001600160a01b039091168152602090f35b60609060031901126103d857600490565b9181601f840112156103d8578235916001600160401b0383116103d857602083818601950101116103d857565b600319810160e081126103d8576060136103d857600491606435916001600160401b03906084358281116103d8578161087e918701610817565b9390939260a43561088e8161050c565b9260c4359182116103d8576108a4918801610817565b9091565b6108b136610844565b50506003549294926001600160a01b0392915082163303610a725782356108d7816105e3565b6108e0816126da565b906020850135809203610a3d5750506109086108fc828761336b565b6001600160a01b031690565b9061091b6109168288613377565b613212565b8096610926866126d0565b5061093182856137ca565b6028831161097f575b50505061097a610958600080516020613b7a833981519152946126d0565b956040519384931696836020909392919363ffffffff60408201951681520152565b0390a3005b906109aa92916109a4610994604089016131ca565b9361099e896126d0565b92613389565b92613283565b6003546109bf906001600160a01b03166108fc565b803b156103d857604051633e5ac80960e11b81529160009183918290849082906109ee908c8a600485016131d4565b03925af18015610a3857600080516020613b7a8339815191529461097a9261095892610a1f575b509487915061093a565b80610a2c610a3292610bd2565b806103cd565b38610a15565b6126c4565b610a46816105e3565b60405163309afaf360e21b815263ffffffff9190911660048201526024810191909152604490fd5b0390fd5b6040516391ac5e4f60e01b8152336004820152602490fd5b346103d85760003660031901126103d857602060405160028152f35b346103d85760003660031901126103d8576040805162b9270b60e21b815260016020820152f35b346103d85760003660031901126103d857604080516001815260026020820152f35b346103d85760003660031901126103d8576020600080516020613b5a83398151915254604051908152f35b346103d85760003660031901126103d857602060405160018152f35b346103d85760603660031901126103d857610b76600435610b568161050c565b602435610b628161050c565b60443591610b718333836138cf565b6136ee565b602060405160018152f35b634e487b7160e01b600052604160045260246000fd5b604081019081106001600160401b03821117610bb257604052565b610b81565b606081019081106001600160401b03821117610bb257604052565b6001600160401b038111610bb257604052565b602081019081106001600160401b03821117610bb257604052565b60a081019081106001600160401b03821117610bb257604052565b90601f801991011681019081106001600160401b03821117610bb257604052565b604051906106f682610b97565b604051906106f682610c00565b6001600160401b038111610bb257601f01601f191660200190565b929192610c7d82610c56565b91610c8b6040519384610c1b565b8294818452818301116103d8578281602093846000960137010152565b9080601f830112156103d85781602061043693359101610c71565b346103d85760803660031901126103d8576001600160401b036004358181116103d857610cf4903690600401610ca8565b906024358181116103d857610d0d903690600401610ca8565b9160443590610d1b8261050c565b60643592610d288461050c565b610d30613563565b610d38613563565b610d40613563565b8151908111610bb257600080516020613afa83398151915291610d6c82610d6785546114a8565b6127a5565b60209081601f8411600114610dbb57509180610da99492610dae9894600092610db0575b50508160011b916000199060031b1c19161790556135a1565b612c02565b005b015190503880610d90565b9190601f198416610dca6114e2565b936000905b828210610e14575050926001928592610dae9a96610da9989610610dfb575b505050811b0190556135a1565b015160001960f88460031b161c19169055388080610dee565b80600186978294978701518155019601940190610dcf565b346103d85760003660031901126103d857602060405160068152f35b346103d85760403660031901126103d8577f238399d427b947898edb290f5ff0f9109849b1c3ba196a42e35f00c50a54b98b600435610e86816105e3565b60243590610e9261352a565b63ffffffff8116600052600460205281604060002055610eca604051928392836020909392919363ffffffff60408201951681520152565b0390a1005b801515036103d857565b346103d8576040806003193601126103d8576004356001600160401b0381116103d857610f0a903690600401610680565b90602435610f1781610ecf565b610f1f612ce0565b506060830135833593610f31856105e3565b610f49600754610f448187850135613227565b6131ff565b91808310611046575091610fc7610f65610fe3969386956130dc565b610f71859492946105e3565b610f79612ce0565b50600354610f8f906001600160a01b03166108fc565b93610f99866126da565b610fb0610fa4610c49565b63ffffffff9098168852565b602087015286860152606085015215156080840152565b82518080968194631bb8518b60e31b8352309060048401612d35565b03915afa908115610a385761049f92600092611017575b505191829182815181526020918201519181019190915260400190565b816110389293503d841161103f575b6110308183610c1b565b810190612d21565b9038610ffa565b503d611026565b826044918651916371c4efed60e01b835260048301526024820152fd5b346103d85760003660031901126103d85761107c61352a565b600080516020613bda833981519152805460ff8116156110c85760ff191690557f5db9ee0a495bf2e6ff9c91a7834c1ba4fdd244a5e8aa4e537bd38aeae4b073aa6020604051338152a1005b604051638dfc202b60e01b8152600490fd5b346103d85760403660031901126103d857610b766004356110fa8161050c565b60025461111c90336001600160a01b0391821614908115611125575b5061260b565b602435906137ca565b905060015416331438611116565b346103d85760203660031901126103d857610dae6004353361382f565b60409060031901126103d8576004356111688161050c565b906024356104368161050c565b346103d85761118336611150565b90600080516020613bfa83398151915254916001600160401b0360ff8460401c1615931680159081611293575b6001149081611289575b159081611280575b5061126e57600080516020613bfa833981519152805467ffffffffffffffff191660011790556111f69183611249576124c8565b6111fc57005b600080516020613bfa833981519152805460ff60401b19169055604051600181527fc7f505b2f371ae2175ee4913f4499e1f2633a7b5936321eed1cdaeb6115181d2908060208101610eca565b600080516020613bfa833981519152805460ff60401b1916600160401b1790556124c8565b60405163f92ee8a960e01b8152600490fd5b905015386111c2565b303b1591506111ba565b8491506111b0565b60403660031901126103d85760048035906112b58261050c565b6024356001600160401b0381116103d8576112d39036908301610ca8565b6001600160a01b037f000000000000000000000000000000000000000000000000000000000000000081163081149081156113e6575b506113d557906020839261131b61352a565b6040516352d1902d60e01b8152938491829088165afa600092816113a5575b50611368575050604051634c9c8ce360e01b81526001600160a01b0390921690820190815281906020010390fd5b8383600080516020613b9a833981519152840361138957610dae83836139a8565b604051632a87526960e21b815290810184815281906020010390fd5b6113c791935060203d81116113ce575b6113bf8183610c1b565b810190613592565b913861133a565b503d6113b5565b60405163703e46dd60e11b81528390fd5b905081600080516020613b9a8339815191525416141538611309565b346103d85760003660031901126103d8576020604051308152f35b346103d85760003660031901126103d8577f00000000000000000000000000000000000000000000000000000000000000006001600160a01b03163003611476576020604051600080516020613b9a8339815191528152f35b60405163703e46dd60e11b8152600490fd5b6024359061ffff821682036103d857565b359061ffff821682036103d857565b90600182811c921680156114d8575b60208310146114c257565b634e487b7160e01b600052602260045260246000fd5b91607f16916114b7565b600080516020613afa8339815191526000527f2ae08a8e29253f69ac5d979a101956ab8f8d9d7ded63fa7a83b16fc47648eab090565b9060009291805491611529836114a8565b91828252600193848116908160001461158b575060011461154b575b50505050565b90919394506000526020928360002092846000945b838610611577575050505001019038808080611545565b805485870183015294019385908201611560565b9294505050602093945060ff191683830152151560051b01019038808080611545565b346103d85760403660031901126103d85761049f6116126116196116066004356115d7816105e3565b63ffffffff6115e4611488565b9116600052600660205260406000209061ffff16600052602052604060002090565b60405192838092611518565b0382610c1b565b604051918291602083526020830190610400565b346103d85760403660031901126103d857602061166b60043561164f816105e3565b6024359063ffffffff1660005260046020526040600020541490565b6040519015158152f35b346103d85760003660031901126103d857602060ff600080516020613bda83398151915254166040519015158152f35b346103d85760003660031901126103d8576003546040516001600160a01b039091168152602090f35b346103d85760203660031901126103d857610dae6004356116ee8161050c565b6116f6613563565b6116fe613563565b611706613563565b6134b6565b346103d85760203660031901126103d8577ff0be4f1e87349231d80c36b33f9e8639658eeaf474014dee15a3e6a4d4414197602060043561174b8161050c565b61175361352a565b600880546001600160a01b0319166001600160a01b03929092169182179055604051908152a1005b346103d85760203660031901126103d8576004356117988161050c565b60018060a01b03166000527f52c63247e1f47db19d5ce0460030c497f067ca4cebf71ba98eeadabe20bace006020526020604060002054604051908152f35b346103d857600080600319360112610509576117f161352a565b600080516020613b3a83398151915280546001600160a01b0319811690915581906001600160a01b03167f8be0079c531659141344cd1fd0a4f28419497f9722a3daafe3b4186f6b6457e08280a380f35b346103d85760203660031901126103d85760043561185f8161050c565b61186761352a565b6001600160a01b0381169061188690821515908161189c575b5061267d565b600180546001600160a01b031916919091179055005b90503b151538611880565b346103d85760403660031901126103d857610dae6004356118c78161050c565b602435906118d68233836138cf565b61382f565b346103d85760403660031901126103d8576118f76004356105e3565b602060405160008152f35b346103d85760a03660031901126103d85761191c36610806565b506064356001600160401b0381116103d85761193c903690600401610817565b5050602060843561194c8161050c565b6040516001600160a01b0390911630148152f35b346103d85760003660031901126103d85761197961352a565b61198161397d565b600080516020613bda833981519152600160ff198254161790557f62e78cea01bee320cd4e420270b5ea74000d11b0c9f74754ebdbfc544b05a2586020604051338152a1005b346103d85760003660031901126103d857600080516020613b3a833981519152546040516001600160a01b039091168152602090f35b346103d8576000806003193601126105095760405181600080516020613b1a8339815191528054611a2d816114a8565b808552916001918083169081156104de5750600114611a565761049f8561049381890382610c1b565b835260208084209095505b828410611a7e575050508161049f93610493928201019338610483565b8054858501870152928501928101611a61565b346103d85760003660031901126103d8576020600754604051908152f35b346103d85760003660031901126103d857602060405160008152f35b346103d85760203660031901126103d857600435611ae88161050c565b611af061352a565b6001600160a01b03811690611b0e90821515908161189c575061267d565b600280546001600160a01b031916919091179055005b346103d85760403660031901126103d857610b76600435611b448161050c565b60243590336136ee565b346103d85760003660031901126103d85761049f604051611b6e81610b97565b60058152640352e302e360dc1b6020820152604051918291602083526020830190610400565b346103d85760003660031901126103d8576005546040516001600160a01b039091168152602090f35b9060206003198301126103d8576004356001600160401b03928382116103d857806023830112156103d85781600401359384116103d85760248460051b830101116103d8576024019190565b346103d857611c1736611bbd565b90611c2061352a565b611c298261271e565b906040611c3881519384610c1b565b8383526020938484019060051b8301923684116103d85780915b848310611c6257610dae866129cf565b6001600160401b039083358281116103d8578301906060823603126103d8578551611c8c81610bb7565b8235611c97816105e3565b8152611ca48a8401611499565b8a820152868301359384116103d857611cc38a94938594369101610ca8565b87820152815201920191611c52565b346103d85760203660031901126103d85763ffffffff600435611cf4816105e3565b1660005260046020526020604060002054604051908152f35b346103d85760603660031901126103d857600435611d2a816105e3565b611d32611488565b604435906001600160401b0382116103d85761049f92611d59611619933690600401610817565b929091612b24565b611d6a36611bbd565b60005b818110611dd757604051638e9e709960e01b8152600081600481335afa8015610a3857610a6e91600091611db6575b50604051638351eea760e01b815291829160048301610425565b611dd1913d8091833e611dc98183610c1b565b81019061344c565b82611d9c565b611de28183856133a5565b90611e14611e10611df2846126d0565b60208501359063ffffffff1660005260046020526040600020541490565b1590565b611ead57611e26610100830183613070565b92611e3360e082016133c8565b90611e42610120820182613070565b959095303b156103d857600094611e7860c092604051998a9788968795633411683760e21b875260a08a01358a600489016133d2565b03920135305af1918215610a3857611e9592611e9a575b5061274b565b611d6d565b80610a2c611ea792610bd2565b38611e8f565b611e95915061274b565b346103d85760403660031901126103d857610b76600435611ed78161050c565b6002546024359190611efd90336001600160a01b0391821614908115611125575061260b565b6118d68233836138cf565b9160806106f6929493611f48604060c0830197805184526001600160401b0360208201511660208501520151604083019060208091805184520151910152565b019060208091805184520151910152565b60803660031901126103d8576004356001600160401b0381116103d857611f84903690600401610680565b60403660231901126103d857606435611f9c8161050c565b611fa4612da3565b50611fad612ce0565b50606082013590611fbe83356105e3565b611fd2600754610f44816040870135613227565b91808310612087575061200c90611fe9833361382f565b611ff383856130dc565b611ffc866126d0565b9161200636612dcb565b92612e46565b90612015610c3c565b928184528160208501527f85496b760a4b7f8d66384b9df21b381f5d1b1e79f229a47aaf4c232edc2fe59a61207561204e8551936126d0565b936040519181839233978460409194939263ffffffff606083019616825260208201520152565b0390a361049f60405192839283611f08565b82604491604051916371c4efed60e01b835260048301526024820152fd5b346103d85760006020366003190112610509576004356120c48161050c565b6120cc61352a565b6003546001600160a01b0390811691839190833b1561211d5760249083604051958694859363ca5eb5e160e01b85521660048401525af18015610a3857612111575080f35b61211a90610bd2565b80f35b8280fd5b346103d85760603660031901126103d85760043560ff81168082036103d8576024359061214d8261050c565b6044359161215a8361050c565b612162613563565b61216a613563565b612172613563565b6001600160a01b03908116801561226857600380546001600160a01b0319166001600160a01b03909216919091179055821615612256576003546121be906001600160a01b03166108fc565b91823b156103d85760405163ca5eb5e160e01b81526001600160a01b0382166004820152926000908490602490829084905af1908115610a385760069361221392612243575b5061220e81612712565b612712565b106122315761222c612227610dae92612cbc565b612ccf565b600755565b6040516301e9714b60e41b8152600490fd5b80610a2c61225092610bd2565b38612204565b604051632d618d8160e21b8152600490fd5b604051638ad182f960e01b8152600490fd5b61228336610844565b50505092903033036123b25761229c6108fc858361336b565b936122aa6109168284613377565b916122b4846126d0565b506122bf83876137ca565b6028821161230e575b50506122e2600080516020613b7a833981519152926126d0565b6040805163ffffffff909216825260208201929092526001600160a01b0390941693908190810161097a565b908261232d926109a4612323604088016131ca565b9361099e886126d0565b600354909290612345906001600160a01b03166108fc565b803b156103d857604051633e5ac80960e11b8152936000918591829084908290612374908b8d600485016131d4565b03925af1908115610a3857600080516020613b7a833981519152936122e29261239f575b50926122c8565b80610a2c6123ac92610bd2565b38612398565b60405163029a949d60e31b8152600490fd5b346103d85760203660031901126103d8577fd48d879cef83a1c0bdda516f27b13ddb1b3f8bbac1c9e1511bb2a659c242776060206004356124048161050c565b61240c61352a565b600580546001600160a01b0319166001600160a01b03929092169182179055604051908152a1005b346103d857602061245161056261244a36611150565b919061367c565b54604051908152f35b346103d85760203660031901126103d857610dae60043561247a8161050c565b61170661352a565b346103d85760603660031901126103d857602061249e36610806565b63ffffffff81356124ae816105e3565b166000526004825260406000205482604051920135148152f35b9190604051926124d784610b97565b600e84526020936d105d5d1bdb9bdb5a5b9d081554d160921b858201526040519461250186610b97565b60048652635553446160e01b81870152612519613563565b612521613563565b612529613563565b8151906001600160401b038211610bb257600080516020613afa8339815191529261255883610d6786546114a8565b81601f84116001146125b357509180610da99492612592989994600092610db05750508160011b916000199060031b1c19161790556135a1565b61259a613563565b6125a2613954565b6125ab336134aa565b6106f6613563565b9190601f1984166125c26114e2565b936000905b8282106125f35750509260019285926125929a9b96610da9989610610dfb57505050811b0190556135a1565b806001869782949787015181550196019401906125c7565b1561261257565b60405162461bcd60e51b815260206004820152603a60248201527f546869732066756e6374696f6e2063616e206f6e6c792063616c6c656420627960448201527f20426f72726f77696e67206f722043445320636f6e74726163740000000000006064820152608490fd5b1561268457565b60405162461bcd60e51b8152602060048201526018602482015277125b9c1d5d081859191c995cdcc81a5cc81a5b9d985b1a5960421b6044820152606490fd5b6040513d6000823e3d90fd5b35610436816105e3565b63ffffffff168060005260046020526040600020549081156126fa575090565b6024906040519063f6ff4fb760e01b82526004820152fd5b6106f6906116f6613563565b6001600160401b038111610bb25760051b60200190565b634e487b7160e01b600052601160045260246000fd5b600019811461275a5760010190565b612735565b634e487b7160e01b600052603260045260246000fd5b80518210156127895760209160051b010190565b61275f565b818110612799575050565b6000815560010161278e565b90601f82116127b2575050565b6106f691600080516020613afa8339815191526000526020600020906020601f840160051c830193106127ed575b601f0160051c019061278e565b90915081906127e0565b90601f8211612804575050565b6106f691600080516020613b1a8339815191526000526020600020906020601f840160051c830193106127ed57601f0160051c019061278e565b9190601f811161284d57505050565b6106f6926000526020600020906020601f840160051c830193106127ed57601f0160051c019061278e565b91909182516001600160401b038111610bb25761289f8161289984546114a8565b8461283e565b602080601f83116001146128db5750819293946000926128d0575b50508160011b916000199060031b1c1916179055565b0151905038806128ba565b90601f198316956128f185600052602060002090565b926000905b88821061292e57505083600195969710612915575b505050811b019055565b015160001960f88460031b161c1916905538808061290b565b806001859682949686015181550195019301906128f6565b602080820190808352835180925260409283810182858560051b8401019601946000925b85841061297b575050505050505090565b9091929394959685806129be600193603f19868203018852868c5163ffffffff815116835261ffff85820151168584015201519060609081898201520190610400565b99019401940192959493919061296a565b90600091825b8151811015612a5f57612a5a90612a5560406129fd816129f58588612775565b510151612bca565b612a5081612a0b8588612775565b5101519163ffffffff612a1e8689612775565b515116895261ffff602091600683528a2091612a3a878a612775565b5101511661ffff16600052602052604060002090565b612878565b61274b565b6129d5565b507fbe4864a8e820971c0247f5992e2da559595f7bf076a21cb5928d443d2a13b674919250612a949060405191829182612946565b0390a1565b90929192836002116103d85783116103d857600201916001190190565b602090836106f6939594956040519683612ad989955180928880890191016103dd565b8401918583013701600083820152038085520183610c1b565b908060209392818452848401376000828201840152601f01601f1916010190565b916020610436938181520191612af2565b6116066116129263ffffffff612b59939795969716600052600660205260406000209061ffff16600052602052604060002090565b805115612bbc578315612bb6576002841015612b8d575050610a6e604051928392639a6d49cd60e01b845260048401612b13565b909280612bb09161043694612bab612ba6368484610c71565b612bca565b612a99565b91612ab6565b92509050565b509190610436913691610c71565b600361ffff60028301511603612bdd5750565b604051639a6d49cd60e01b815260206004820152908190610a6e906024830190610400565b612c0a613563565b612c12613563565b612c1a613563565b6001600160a01b03908116801561226857600380546001600160a01b0319166001600160a01b0390921691909117905581161561225657600354612c66906001600160a01b03166108fc565b90813b156103d85760405163ca5eb5e160e01b81526001600160a01b0382166004820152916000908390602490829084905af1918215610a3857612cb292612243575061220e81612712565b6106f66001600755565b60ff6005199116019060ff821161275a57565b60ff16604d811161275a57600a0a90565b60405190612ced82610b97565b60006020838281520152565b91908260409103126103d857604051612d1181610b97565b6020808294805184520151910152565b906040828203126103d85761043691612cf9565b906020909392936040835263ffffffff81511660408401528181015160608401526080612d89612d73604084015160a08488015260e0870190610400565b6060840151868203603f190160a0880152610400565b910151151560c08401526001600160a01b03909416910152565b60405190612db082610bb7565b8160008152600060208201526040612dc6612ce0565b910152565b60409060231901126103d85760405190612de482610b97565b60243582526044356020830152565b6001600160401b038116036103d857565b906080828203126103d857612e3e906040805193612e2185610bb7565b805185526020810151612e3381612df3565b602086015201612cf9565b604082015290565b608093612eb8612ed49694612e59612da3565b506020612e668451612f21565b930190815180612f12575b50600354612e87906001600160a01b03166108fc565b95612e91866126da565b9251151592612ea1610fa4610c49565b602087015260408601526060850152151586840152565b6040518096819582946302637a4560e41b845260048401612d35565b03925af1908115610a3857600091612eea575090565b610436915060803d8111612f0b575b612f038183610c1b565b810190612e04565b503d612ef9565b612f1b90612f43565b38612e71565b803410612f2b5790565b6040516304fb820960e51b8152346004820152602490fd5b60035460405163393f876560e21b81526001600160a01b039182169260209290918381600481885afa908115610a385760009161303a575b50169283156130285760008091612fd09360405190868201926323b872dd60e01b84523360248401526044830152606482015260648152612fbb81610c00565b519082875af1612fc9613a4c565b9084613a96565b90815191821515918261300c575b50509050612fe95750565b604051635274afe760e01b81526001600160a01b03919091166004820152602490fd5b611e109250806130209483010191016130a2565b803880612fde565b6040516329b99a9560e11b8152600490fd5b908482813d8311613069575b6130508183610c1b565b810103126105095750516130638161050c565b38612f7b565b503d613046565b903590601e19813603018212156103d857018035906001600160401b0382116103d8576020019181360383136103d857565b908160209103126103d8575161043681610ecf565b90916130ce61043693604084526040840190610400565b916020818403910152610400565b90916131226131006130f46131499560075490613227565b6001600160401b031690565b61311761311060a0860186613070565b3691610c71565b9060208501356132e0565b93909283946000146131c2576002905b611d5961313e826126d0565b916080810190613070565b60085490926001600160a01b0390911690838261316557505050565b60405163043a78eb60e01b81529260209284928391829161318991600484016130b7565b03915afa8015610a385761319b575b50565b6131989060203d81116131bb575b6131b38183610c1b565b8101906130a2565b503d6131a9565b600190613132565b3561043681612df3565b610436939260809260018060a01b031682526020820152600060408201528160608201520190610400565b8181029291811591840414171561275a57565b600754610436916001600160401b03166131ff565b8115613231570490565b634e487b7160e01b600052601260045260246000fd5b61325890610f446007548092613227565b9182918084106132655750565b83604491604051916371c4efed60e01b835260048301526024820152fd5b604c9193610436936040519586936001600160401b0360c01b9060c01b16602085015263ffffffff60e01b9060e01b166028840152602c8301526132d081518092602086860191016103dd565b810103602c810184520182610c1b565b8251158015939061333e5761333b9160689160405194859260208401526001600160401b0360c01b9060c01b16604083015233604883015261332b81518092602086860191016103dd565b8101036048810184520182610c1b565b91565b50906040519160208301526001600160401b0360c01b9060c01b1660408201526028815261333b81610bb7565b906020116103d8573590565b906028116103d8576020013560c01c90565b90806028116103d8576104369136916027190190602801610c71565b91908110156127895760051b8101359061013e19813603018212156103d8570190565b356104368161050c565b92909361342e926001600160401b0360406104369a98999763ffffffff81356133fa816105e3565b16885260208101356020890152013561341281612df3565b166040860152606085015260e0608085015260e0840191612af2565b6001600160a01b0390941660a082015280840360c090910152612af2565b6020818303126103d8578051906001600160401b0382116103d8570181601f820112156103d857805161347e81610c56565b9261348c6040519485610c1b565b818452602082840101116103d85761043691602080850191016103dd565b6106f6906116fe613563565b6001600160a01b0390811690811561351157600080516020613b3a83398151915280546001600160a01b031981168417909155167f8be0079c531659141344cd1fd0a4f28419497f9722a3daafe3b4186f6b6457e0600080a3565b604051631e4fbdf760e01b815260006004820152602490fd5b600080516020613b3a833981519152546001600160a01b0316330361354b57565b60405163118cdaa760e01b8152336004820152602490fd5b60ff600080516020613bfa8339815191525460401c161561358057565b604051631afcd79f60e31b8152600490fd5b908160209103126103d8575190565b9081516001600160401b038111610bb257600080516020613b1a833981519152906135d5816135d084546114a8565b6127f7565b602080601f83116001146136055750819293946000926128d05750508160011b916000199060031b1c1916179055565b600080516020613b1a833981519152600052601f198316959091907f46a2803e59a4de4e7a4c574b1243f25977ac4c77d5a1a4a609b5394cebb4a2aa926000905b8882106136645750508360019596971061291557505050811b019055565b80600185968294968601518155019501930190613646565b6001600160a01b031660009081527f52c63247e1f47db19d5ce0460030c497f067ca4cebf71ba98eeadabe20bace016020526040902090565b6001600160a01b031660009081527f52c63247e1f47db19d5ce0460030c497f067ca4cebf71ba98eeadabe20bace006020526040902090565b916001600160a01b03808416929083156137b15781169384156137985761371361397d565b61371c816136b5565b5483811061376957613764928492613748600080516020613bba8339815191529661374e9403916136b5565b556136b5565b8054820190556040519081529081906020820190565b0390a3565b60405163391434e360e21b81526001600160a01b03929092166004830152602482015260448101839052606490fd5b60405163ec442f0560e01b815260006004820152602490fd5b604051634b637e8f60e11b815260006004820152602490fd5b6001600160a01b03811691908215613798576137e461397d565b600080516020613b5a8339815191529182549080820180921161275a57613820600080516020613bba83398151915293602093600096556136b5565b818154019055604051908152a3565b91906001600160a01b0383169081156137b15761384a61397d565b613853846136b5565b549381851061389d578160209161387e600080516020613bba833981519152946000979803916136b5565b55600080516020613b5a833981519152818154039055604051908152a3565b60405163391434e360e21b81526001600160a01b03919091166004820152602481018590526044810191909152606490fd5b91906138de816105628561367c565b54600181016138ed5750505050565b828110613924576001600160a01b03848116156105ca578216156105b15761391a9261056291039361367c565b5538808080611545565b604051637dc7a0d960e11b81526001600160a01b0392909216600483015260248201526044810191909152606490fd5b61395c613563565b613964613563565b600080516020613bda833981519152805460ff19169055565b60ff600080516020613bda833981519152541661399657565b60405163d93c066560e01b8152600490fd5b90813b15613a2b57600080516020613b9a83398151915280546001600160a01b0319166001600160a01b0384169081179091557fbc7cd75a20ee27fd9adebab32041f755214dbc6bffa90cc0225b39da2e5c2d3b600080a2805115613a105761319891613a7c565b505034613a1957565b60405163b398979f60e01b8152600490fd5b604051634c9c8ce360e01b81526001600160a01b0383166004820152602490fd5b3d15613a77573d90613a5d82610c56565b91613a6b6040519384610c1b565b82523d6000602084013e565b606090565b60008061043693602081519101845af4613a94613a4c565b915b90613abd5750805115613aab57805190602001fd5b604051630a12f52160e11b8152600490fd5b81511580613af0575b613ace575090565b604051639996b31560e01b81526001600160a01b039091166004820152602490fd5b50803b15613ac656fe52c63247e1f47db19d5ce0460030c497f067ca4cebf71ba98eeadabe20bace0352c63247e1f47db19d5ce0460030c497f067ca4cebf71ba98eeadabe20bace049016d09d72d40fdae2fd8ceac6b6234c7706214fd39c1cd1e609a0528c19930052c63247e1f47db19d5ce0460030c497f067ca4cebf71ba98eeadabe20bace02efed6d3500546b29533b128a29e3a94d70788727f0507505ac12eaf2e578fd9c360894a13ba1a3210667c828492db98dca3e2076cc3735a920a3ca505d382bbcddf252ad1be2c89b69c2b068fc378daa952ba7f163c4a11628f55a4df523b3efcd5ed15c6e187e77e9aee88184c21f4f2182ab5827cb3b7e07fbedcd63f03300f0c57e16840df040f15088dc2f81fe391c3923bec73e23a9662efc9c229c6a00a2646970667358221220a0b41477b9da42f5a8ffe61a4c1307b859331c96d73fd6ba55b822351f02406464736f6c63430008140033","linkReferences":{}},"methodIdentifiers":{"SEND()":"1f5e1334","SEND_AND_CALL()":"134d4f25","UPGRADE_INTERFACE_VERSION()":"ad3cb1cc","__OAppOptionsType3_init(address)":"95e99458","__OAppPreCrimeSimulator_init(address)":"6013987f","__OFTCore_init(uint8,address,address)":"d00c06cc","__OFT_init(string,string,address,address)":"2f86121b","allowInitializePath((uint32,bytes32,uint64))":"ff7bd03d","allowance(address,address)":"dd62ed3e","approvalRequired()":"9f68b964","approve(address,uint256)":"095ea7b3","balanceOf(address)":"70a08231","burn(uint256)":"42966c68","burnFrom(address,uint256)":"79cc6790","burnFromUser(address,uint256)":"c753e126","combineOptions(uint32,uint16,bytes)":"bc70b354","decimalConversionRate()":"963efcaa","decimals()":"313ce567","endpoint()":"5e280f11","enforcedOptions(uint32,uint16)":"5535d461","initialize(address,address)":"485cc955","isComposeMsgSender((uint32,bytes32,uint64),bytes,address)":"82413eac","isPeer(uint32,bytes32)":"5a0dfe4d","lzReceive((uint32,bytes32,uint64),bytes32,bytes,address,bytes)":"13137d65","lzReceiveAndRevert(((uint32,bytes32,uint64),uint32,address,bytes32,uint256,address,bytes,bytes)[])":"bd815db0","lzReceiveSimulate((uint32,bytes32,uint64),bytes32,bytes,address,bytes)":"d045a0dc","mint(address,uint256)":"40c10f19","msgInspector()":"111ecdad","name()":"06fdde03","nextNonce(uint32,bytes32)":"7d25a05e","oApp()":"52ae2879","oAppVersion()":"17442b70","oftVersion()":"156a0d0f","owner()":"8da5cb5b","pause()":"8456cb59","paused()":"5c975abb","peers(uint32)":"bb0b6a53","preCrime()":"b731ea0a","proxiableUUID()":"52d1902d","quoteOFT((uint32,bytes32,uint256,uint256,bytes,bytes,bytes))":"0d35b415","quoteSend((uint32,bytes32,uint256,uint256,bytes,bytes,bytes),bool)":"3b6f743b","renounceOwnership()":"715018a6","send((uint32,bytes32,uint256,uint256,bytes,bytes,bytes),(uint256,uint256),address)":"c7c7f5b3","setBorrowingContract(address)":"78fdaf3f","setCdsContract(address)":"a70bb077","setDelegate(address)":"ca5eb5e1","setDstEid(uint32)":"0d14c92e","setEnforcedOptions((uint32,uint16,bytes)[])":"b98bd070","setMsgInspector(address)":"6fc1b31e","setPeer(uint32,bytes32)":"3400288b","setPreCrime(address)":"d4243885","sharedDecimals()":"857749b0","symbol()":"95d89b41","token()":"fc0c546a","totalSupply()":"18160ddd","transfer(address,uint256)":"a9059cbb","transferFrom(address,address,uint256)":"23b872dd","transferOwnership(address)":"f2fde38b","unpause()":"3f4ba83a","upgradeToAndCall(address,bytes)":"4f1ef286"},"storageLayout":{"storage":[{"astId":268,"contract":"contracts/Token/USDa.sol:USDaStablecoin","label":"whitelist","offset":0,"slot":"0","type":"t_mapping(t_address,t_bool)"},{"astId":270,"contract":"contracts/Token/USDa.sol:USDaStablecoin","label":"borrowingContract","offset":0,"slot":"1","type":"t_address"},{"astId":272,"contract":"contracts/Token/USDa.sol:USDaStablecoin","label":"cdsContract","offset":0,"slot":"2","type":"t_address"},{"astId":342,"contract":"contracts/Token/USDa.sol:USDaStablecoin","label":"endpoint","offset":0,"slot":"3","type":"t_contract(ILayerZeroEndpointV2)3008"},{"astId":346,"contract":"contracts/Token/USDa.sol:USDaStablecoin","label":"peers","offset":0,"slot":"4","type":"t_mapping(t_uint32,t_bytes32)"},{"astId":2348,"contract":"contracts/Token/USDa.sol:USDaStablecoin","label":"preCrime","offset":0,"slot":"5","type":"t_address"},{"astId":981,"contract":"contracts/Token/USDa.sol:USDaStablecoin","label":"enforcedOptions","offset":0,"slot":"6","type":"t_mapping(t_uint32,t_mapping(t_uint16,t_bytes_storage))"},{"astId":1295,"contract":"contracts/Token/USDa.sol:USDaStablecoin","label":"decimalConversionRate","offset":0,"slot":"7","type":"t_uint256"},{"astId":1303,"contract":"contracts/Token/USDa.sol:USDaStablecoin","label":"msgInspector","offset":0,"slot":"8","type":"t_address"},{"astId":27,"contract":"contracts/Token/USDa.sol:USDaStablecoin","label":"dstEid","offset":20,"slot":"8","type":"t_uint32"}],"types":{"t_address":{"encoding":"inplace","label":"address","numberOfBytes":"20"},"t_bool":{"encoding":"inplace","label":"bool","numberOfBytes":"1"},"t_bytes32":{"encoding":"inplace","label":"bytes32","numberOfBytes":"32"},"t_bytes_storage":{"encoding":"bytes","label":"bytes","numberOfBytes":"32"},"t_contract(ILayerZeroEndpointV2)3008":{"encoding":"inplace","label":"contract ILayerZeroEndpointV2","numberOfBytes":"20"},"t_mapping(t_address,t_bool)":{"encoding":"mapping","key":"t_address","label":"mapping(address => bool)","numberOfBytes":"32","value":"t_bool"},"t_mapping(t_uint16,t_bytes_storage)":{"encoding":"mapping","key":"t_uint16","label":"mapping(uint16 => bytes)","numberOfBytes":"32","value":"t_bytes_storage"},"t_mapping(t_uint32,t_bytes32)":{"encoding":"mapping","key":"t_uint32","label":"mapping(uint32 => bytes32)","numberOfBytes":"32","value":"t_bytes32"},"t_mapping(t_uint32,t_mapping(t_uint16,t_bytes_storage))":{"encoding":"mapping","key":"t_uint32","label":"mapping(uint32 => mapping(uint16 => bytes))","numberOfBytes":"32","value":"t_mapping(t_uint16,t_bytes_storage)"},"t_uint16":{"encoding":"inplace","label":"uint16","numberOfBytes":"2"},"t_uint256":{"encoding":"inplace","label":"uint256","numberOfBytes":"32"},"t_uint32":{"encoding":"inplace","label":"uint32","numberOfBytes":"4"}}},"id":0}